###############################################################################
#
# IAR C/C++ Compiler V10.10.1.4655 for 8051               17/Apr/2025  02:53:15
# Copyright 2004-2017 IAR Systems AB.
# Standalone license - IAR Embedded Workbench for 8051
#
#    Core               =  plain
#    Code model         =  banked
#    Data model         =  large
#    Calling convention =  xdata reentrant
#    Constant location  =  data_rom
#    Dptr setup         =  1,16
#                          
#    Source file        =  
#        C:\Texas Instruments\Z-Stack 3.0.1 A Git\Z-Stack
#        3.0.1\Projects\zstack\HomeAutomation\SampleSwitch\CC2530DB\MY_Hardware\SGP30IIC.C
#    Command line       =  
#        -f C:\Users\NING\AppData\Local\Temp\EWE1AB.tmp ("C:\Texas
#        Instruments\Z-Stack 3.0.1 A Git\Z-Stack
#        3.0.1\Projects\zstack\HomeAutomation\SampleSwitch\CC2530DB\MY_Hardware\SGP30IIC.C"
#        -D SECURE=1 -D TC_LINKKEY_JOIN -D NV_INIT -D NV_RESTORE -D
#        xPOWER_SAVING -D NWK_AUTO_POLL -D ZTOOL_P1 -D xMT_TASK -D xMT_APP_FUNC
#        -D xMT_SYS_FUNC -D xMT_ZDO_FUNC -D xMT_ZDO_MGMT -D xMT_APP_CNF_FUNC -D
#        LCD_SUPPORTED=DEBUG -D MULTICAST_ENABLED=FALSE -D ZCL_READ -D
#        ZCL_DISCOVER -D ZCL_WRITE -D ZCL_BASIC -D ZCL_IDENTIFY -D ZCL_ON_OFF
#        -D ZCL_GROUPS -D HAL_UART_DMA_RX_MAX=50 -lC "C:\Texas
#        Instruments\Z-Stack 3.0.1 A Git\Z-Stack
#        3.0.1\Projects\zstack\HomeAutomation\SampleSwitch\CC2530DB\EndDeviceEB\List"
#        -lA "C:\Texas Instruments\Z-Stack 3.0.1 A Git\Z-Stack
#        3.0.1\Projects\zstack\HomeAutomation\SampleSwitch\CC2530DB\EndDeviceEB\List"
#        --diag_suppress Pe001,Pa010 -o "C:\Texas Instruments\Z-Stack 3.0.1 A
#        Git\Z-Stack
#        3.0.1\Projects\zstack\HomeAutomation\SampleSwitch\CC2530DB\EndDeviceEB\Obj"
#        -e --debug --core=plain --dptr=16,1 --data_model=large
#        --code_model=banked --calling_convention=xdata_reentrant
#        --place_constants=data_rom --nr_virtual_regs 16 -f "C:\Texas
#        Instruments\Z-Stack 3.0.1 A Git\Z-Stack
#        3.0.1\Projects\zstack\HomeAutomation\SampleSwitch\CC2530DB\..\..\..\Tools\CC2530DB\f8wEndev.cfg"
#        (-DCPU32MHZ -DROOT=__near_func -DMAC_CFG_TX_DATA_MAX=3
#        -DMAC_CFG_TX_MAX=6 -DMAC_CFG_RX_MAX=3) -f "C:\Texas
#        Instruments\Z-Stack 3.0.1 A Git\Z-Stack
#        3.0.1\Projects\zstack\HomeAutomation\SampleSwitch\CC2530DB\..\..\..\Tools\CC2530DB\f8wConfig.cfg"
#        (-DZIGBEEPRO -DSECURE=1 -DZG_SECURE_DYNAMIC=0 -DREFLECTOR
#        -DDEFAULT_CHANLIST=0x00000800 -DZDAPP_CONFIG_PAN_ID=0xFFFF
#        -DNWK_START_DELAY=100 -DEXTENDED_JOINING_RANDOM_MASK=0x007F
#        -DBEACON_REQUEST_DELAY=100 -DBEACON_REQ_DELAY_MASK=0x00FF
#        -DLINK_STATUS_JITTER_MASK=0x007F -DROUTE_EXPIRY_TIME=30
#        -DAPSC_ACK_WAIT_DURATION_POLLED=3000 -DNWK_INDIRECT_MSG_TIMEOUT=7
#        -DMAX_RREQ_ENTRIES=8 -DAPSC_MAX_FRAME_RETRIES=3
#        -DNWK_MAX_DATA_RETRIES=2 -DMAX_POLL_FAILURE_RETRIES=2 -DMAX_BCAST=9
#        -DAPS_MAX_GROUPS=16 -DMAX_RTG_ENTRIES=40 -DNWK_MAX_BINDING_ENTRIES=4
#        -DMAX_BINDING_CLUSTER_IDS=4 -DDEFAULT_KEY={0} -DMAC_MAX_FRAME_SIZE=116
#        -DZDNWKMGR_MIN_TRANSMISSIONS=20 "-DCONST=const __code"
#        -DGENERIC=__generic -DRFD_RCVC_ALWAYS_ON=FALSE -DPOLL_RATE=1000
#        -DQUEUED_POLL_RATE=100 -DRESPONSE_POLL_RATE=100 -DREJOIN_POLL_RATE=440
#        -DREJOIN_BACKOFF=900000 -DREJOIN_SCAN=900000 -DENABLE_LED4_DISABLE_S1)
#        -f "C:\Texas Instruments\Z-Stack 3.0.1 A Git\Z-Stack
#        3.0.1\Projects\zstack\HomeAutomation\SampleSwitch\CC2530DB\..\..\..\Tools\CC2530DB\f8wZCL.cfg"
#        -I "C:\Texas Instruments\Z-Stack 3.0.1 A Git\Z-Stack
#        3.0.1\Projects\zstack\HomeAutomation\SampleSwitch\CC2530DB\" -I
#        "C:\Texas Instruments\Z-Stack 3.0.1 A Git\Z-Stack
#        3.0.1\Projects\zstack\HomeAutomation\SampleSwitch\CC2530DB\..\Source\"
#        -I "C:\Texas Instruments\Z-Stack 3.0.1 A Git\Z-Stack
#        3.0.1\Projects\zstack\HomeAutomation\SampleSwitch\CC2530DB\..\..\Source\"
#        -I "C:\Texas Instruments\Z-Stack 3.0.1 A Git\Z-Stack
#        3.0.1\Projects\zstack\HomeAutomation\SampleSwitch\CC2530DB\..\..\..\ZMain\TI2530DB\"
#        -I "C:\Texas Instruments\Z-Stack 3.0.1 A Git\Z-Stack
#        3.0.1\Projects\zstack\HomeAutomation\SampleSwitch\CC2530DB\..\..\..\..\..\Components\hal\include\"
#        -I "C:\Texas Instruments\Z-Stack 3.0.1 A Git\Z-Stack
#        3.0.1\Projects\zstack\HomeAutomation\SampleSwitch\CC2530DB\..\..\..\..\..\Components\hal\target\CC2530EB\"
#        -I "C:\Texas Instruments\Z-Stack 3.0.1 A Git\Z-Stack
#        3.0.1\Projects\zstack\HomeAutomation\SampleSwitch\CC2530DB\..\..\..\..\..\Components\mac\include\"
#        -I "C:\Texas Instruments\Z-Stack 3.0.1 A Git\Z-Stack
#        3.0.1\Projects\zstack\HomeAutomation\SampleSwitch\CC2530DB\..\..\..\..\..\Components\mac\high_level\"
#        -I "C:\Texas Instruments\Z-Stack 3.0.1 A Git\Z-Stack
#        3.0.1\Projects\zstack\HomeAutomation\SampleSwitch\CC2530DB\..\..\..\..\..\Components\mac\low_level\srf04\"
#        -I "C:\Texas Instruments\Z-Stack 3.0.1 A Git\Z-Stack
#        3.0.1\Projects\zstack\HomeAutomation\SampleSwitch\CC2530DB\..\..\..\..\..\Components\mac\low_level\srf04\single_chip\"
#        -I "C:\Texas Instruments\Z-Stack 3.0.1 A Git\Z-Stack
#        3.0.1\Projects\zstack\HomeAutomation\SampleSwitch\CC2530DB\..\..\..\..\..\Components\mt\"
#        -I "C:\Texas Instruments\Z-Stack 3.0.1 A Git\Z-Stack
#        3.0.1\Projects\zstack\HomeAutomation\SampleSwitch\CC2530DB\..\..\..\..\..\Components\osal\include\"
#        -I "C:\Texas Instruments\Z-Stack 3.0.1 A Git\Z-Stack
#        3.0.1\Projects\zstack\HomeAutomation\SampleSwitch\CC2530DB\..\..\..\..\..\Components\services\saddr\"
#        -I "C:\Texas Instruments\Z-Stack 3.0.1 A Git\Z-Stack
#        3.0.1\Projects\zstack\HomeAutomation\SampleSwitch\CC2530DB\..\..\..\..\..\Components\services\sdata\"
#        -I "C:\Texas Instruments\Z-Stack 3.0.1 A Git\Z-Stack
#        3.0.1\Projects\zstack\HomeAutomation\SampleSwitch\CC2530DB\..\..\..\..\..\Components\stack\af\"
#        -I "C:\Texas Instruments\Z-Stack 3.0.1 A Git\Z-Stack
#        3.0.1\Projects\zstack\HomeAutomation\SampleSwitch\CC2530DB\..\..\..\..\..\Components\stack\bdb\"
#        -I "C:\Texas Instruments\Z-Stack 3.0.1 A Git\Z-Stack
#        3.0.1\Projects\zstack\HomeAutomation\SampleSwitch\CC2530DB\..\..\..\..\..\Components\stack\gp\"
#        -I "C:\Texas Instruments\Z-Stack 3.0.1 A Git\Z-Stack
#        3.0.1\Projects\zstack\HomeAutomation\SampleSwitch\CC2530DB\..\..\..\..\..\Components\stack\nwk\"
#        -I "C:\Texas Instruments\Z-Stack 3.0.1 A Git\Z-Stack
#        3.0.1\Projects\zstack\HomeAutomation\SampleSwitch\CC2530DB\..\..\..\..\..\Components\stack\sapi\"
#        -I "C:\Texas Instruments\Z-Stack 3.0.1 A Git\Z-Stack
#        3.0.1\Projects\zstack\HomeAutomation\SampleSwitch\CC2530DB\..\..\..\..\..\Components\stack\sec\"
#        -I "C:\Texas Instruments\Z-Stack 3.0.1 A Git\Z-Stack
#        3.0.1\Projects\zstack\HomeAutomation\SampleSwitch\CC2530DB\..\..\..\..\..\Components\stack\sys\"
#        -I "C:\Texas Instruments\Z-Stack 3.0.1 A Git\Z-Stack
#        3.0.1\Projects\zstack\HomeAutomation\SampleSwitch\CC2530DB\..\..\..\..\..\Components\stack\zcl\"
#        -I "C:\Texas Instruments\Z-Stack 3.0.1 A Git\Z-Stack
#        3.0.1\Projects\zstack\HomeAutomation\SampleSwitch\CC2530DB\..\..\..\..\..\Components\stack\zdo\"
#        -I "C:\Texas Instruments\Z-Stack 3.0.1 A Git\Z-Stack
#        3.0.1\Projects\zstack\HomeAutomation\SampleSwitch\CC2530DB\..\..\..\..\..\Components\zmac\"
#        -I "C:\Texas Instruments\Z-Stack 3.0.1 A Git\Z-Stack
#        3.0.1\Projects\zstack\HomeAutomation\SampleSwitch\CC2530DB\..\..\..\..\..\Components\zmac\f8w\"
#        -I "C:\Texas Instruments\Z-Stack 3.0.1 A Git\Z-Stack
#        3.0.1\Projects\zstack\HomeAutomation\SampleSwitch\CC2530DB\MY_Hardware\"
#        -Ohz --require_prototypes)
#    Locale             =  Chinese (Simplified)_China.936
#    List file          =  
#        C:\Texas Instruments\Z-Stack 3.0.1 A Git\Z-Stack
#        3.0.1\Projects\zstack\HomeAutomation\SampleSwitch\CC2530DB\EndDeviceEB\List\SGP30IIC.lst
#    Object file        =  
#        C:\Texas Instruments\Z-Stack 3.0.1 A Git\Z-Stack
#        3.0.1\Projects\zstack\HomeAutomation\SampleSwitch\CC2530DB\EndDeviceEB\Obj\SGP30IIC.r51
#
###############################################################################

C:\Texas Instruments\Z-Stack 3.0.1 A Git\Z-Stack 3.0.1\Projects\zstack\HomeAutomation\SampleSwitch\CC2530DB\MY_Hardware\SGP30IIC.C
      1          #include "SGP30IIC.h"

   \                                 In  segment SFR_AN, at 0x90
   \   union <unnamed> volatile __sfr _A_P1
   \                     _A_P1:
   \   000000                DS 1

   \                                 In  segment SFR_AN, at 0xf4
   \   unsigned char volatile __sfr P1SEL
   \                     P1SEL:
   \   000000                DS 1

   \                                 In  segment SFR_AN, at 0xfe
   \   unsigned char volatile __sfr P1DIR
   \                     P1DIR:
   \   000000                DS 1
      2          #include "OnBoard.h"
      3          #include "DELAY.h"
      4          

   \                                 In  segment BANKED_CODE, align 1, keep-with-next
      5          void GPIO_Init(void)
   \                     GPIO_Init:
      6          {
   \   000000                ; Saved register size: 0
   \   000000                ; Auto size: 0
      7            P1SEL &= ~0x03;     //设置P1.0、P1.1为普通IO口  0000 0011
   \   000000   53F4FC       ANL       0xf4,#0xfc
      8            P1DIR |= 0x03;      //P1.0、P1.1定义为输出
   \   000003   43FE03       ORL       0xfe,#0x3
      9          }
   \   000006   02....       LJMP      ?BRET
   \   000009                REQUIRE P1SEL
   \   000009                REQUIRE P1DIR
     10          
     11          

   \                                 In  segment BANKED_CODE, align 1, keep-with-next
     12          void SDA_OUT(void)
   \                     SDA_OUT:
     13          {
   \   000000                ; Saved register size: 0
   \   000000                ; Auto size: 0
     14            P1SEL &= ~0x02;     //设置P1.1为普通IO口  
   \   000000   53F4FD       ANL       0xf4,#0xfd
     15            P1DIR |= 0x02;      //P1.1定义为输出
   \   000003   43FE02       ORL       0xfe,#0x2
     16          }
   \   000006   02....       LJMP      ?BRET
   \   000009                REQUIRE P1SEL
   \   000009                REQUIRE P1DIR
     17          

   \                                 In  segment BANKED_CODE, align 1, keep-with-next
     18          void SDA_IN(void)
   \                     SDA_IN:
     19          {
   \   000000                ; Saved register size: 0
   \   000000                ; Auto size: 0
     20            P1SEL &= ~0x02;     //设置P1.1为普通IO口  
   \   000000   53F4FD       ANL       0xf4,#0xfd
     21            P1DIR &= ~0x02;      //P1.1定义为输入
   \   000003   53FEFD       ANL       0xfe,#0xfd
     22          }
   \   000006   02....       LJMP      ?BRET
   \   000009                REQUIRE P1SEL
   \   000009                REQUIRE P1DIR
     23          
     24          //产生IIC起始信号

   \                                 In  segment BANKED_CODE, align 1, keep-with-next
     25          void SGP30_IIC_Start(void)
   \                     SGP30_IIC_Start:
     26          {
   \   000000   C082         PUSH      DPL
   \   000002   C083         PUSH      DPH
   \   000004                ; Saved register size: 2
   \   000004                ; Auto size: 0
     27            SDA_OUT();
   \   000004                ; Setup parameters for call to function SDA_OUT
   \   000004   12....       LCALL     `??SDA_OUT::?relay`; Banked call to: SDA_OUT
     28            SGP30_SDA = 1;
   \   000007   D291         SETB      0x90.1
     29            SGP30_SCL = 1;
   \   000009   D290         SETB      0x90.0
     30            Delay_us(20);
   \   00000B                ; Setup parameters for call to function Delay_us
   \   00000B   90....       MOV       DPTR,#__Constant_14
   \   00000E   12....       LCALL     ?XLOAD_R2345
   \   000011   12....       LCALL     `??Delay_us::?relay`; Banked call to: Delay_us
     31          
     32            SGP30_SDA = 0;	//START:when CLK is high,DATA change form high to low
   \   000014   C291         CLR       0x90.1
     33            Delay_us(20);
   \   000016                ; Setup parameters for call to function Delay_us
   \   000016   80..         SJMP      ??Subroutine2_0
   \   000018                REQUIRE _A_P1
     34            SGP30_SCL = 0; 	//钳住I2C总线，准备发送或接收数据
     35          }

   \                                 In  segment BANKED_CODE, align 1, keep-with-next
   \                     ??Subroutine2_0:
   \   000000   90....       MOV       DPTR,#__Constant_14
   \   000003   12....       LCALL     ?XLOAD_R2345
   \   000006   12....       LCALL     `??Delay_us::?relay`; Banked call to: Delay_us
   \   000009   C290         CLR       0x90.0
   \   00000B                REQUIRE ??Subroutine3_0
   \   00000B                ; // Fall through to label ??Subroutine3_0

   \                                 In  segment BANKED_CODE, align 1, keep-with-next
   \                     ??Subroutine3_0:
   \   000000   D083         POP       DPH
   \   000002   D082         POP       DPL
   \   000004   02....       LJMP      ?BRET
     36          
     37          //产生IIC停止信号

   \                                 In  segment BANKED_CODE, align 1, keep-with-next
     38          void SGP30_IIC_Stop(void)
   \                     SGP30_IIC_Stop:
     39          {
   \   000000   C082         PUSH      DPL
   \   000002   C083         PUSH      DPH
   \   000004                ; Saved register size: 2
   \   000004                ; Auto size: 0
     40            SDA_OUT();
   \   000004                ; Setup parameters for call to function SDA_OUT
   \   000004   12....       LCALL     `??SDA_OUT::?relay`; Banked call to: SDA_OUT
     41            SGP30_SCL = 0;
   \   000007   C290         CLR       0x90.0
     42            SGP30_SDA = 0;	//STOP:when CLK is high DATA change form low to high
   \   000009   C291         CLR       0x90.1
     43            Delay_us(20);
   \   00000B                ; Setup parameters for call to function Delay_us
   \   00000B   90....       MOV       DPTR,#__Constant_14
   \   00000E   12....       LCALL     ?XLOAD_R2345
   \   000011   12....       LCALL     `??Delay_us::?relay`; Banked call to: Delay_us
     44            SGP30_SCL = 1;
   \   000014   D290         SETB      0x90.0
     45            SGP30_SDA = 1;	//发送I2C总线结束信号
   \   000016   D291         SETB      0x90.1
     46            Delay_us(20);
   \   000018                ; Setup parameters for call to function Delay_us
   \   000018   90....       MOV       DPTR,#__Constant_14
   \   00001B   12....       LCALL     ?XLOAD_R2345
   \   00001E   12....       LCALL     `??Delay_us::?relay`; Banked call to: Delay_us
     47          }
   \   000021   80..         SJMP      ??Subroutine3_0
   \   000023                REQUIRE _A_P1
     48          
     49          //等待应答信号到来
     50          //返回值：1，接收应答失败
     51          //        0，接收应答成功

   \                                 In  segment BANKED_CODE, align 1, keep-with-next
     52          uint8 SGP30_IIC_Wait_Ack(void)
   \                     SGP30_IIC_Wait_Ack:
     53          {
   \   000000   C082         PUSH      DPL
   \   000002   C083         PUSH      DPH
   \   000004                ; Saved register size: 2
   \   000004                ; Auto size: 0
     54            uint8 ucErrTime = 0;
     55            SDA_IN();
   \   000004                ; Setup parameters for call to function SDA_IN
   \   000004   12....       LCALL     `??SDA_IN::?relay`; Banked call to: SDA_IN
     56            SGP30_SDA = 1;
   \   000007   D291         SETB      0x90.1
     57            Delay_us(10);
   \   000009                ; Setup parameters for call to function Delay_us
   \   000009   90....       MOV       DPTR,#__Constant_a
   \   00000C   12....       LCALL     ?XLOAD_R2345
   \   00000F   12....       LCALL     `??Delay_us::?relay`; Banked call to: Delay_us
     58            SGP30_SCL = 1;
   \   000012   D290         SETB      0x90.0
     59            Delay_us(10);
   \   000014                ; Setup parameters for call to function Delay_us
   \   000014   90....       MOV       DPTR,#__Constant_a
   \   000017   12....       LCALL     ?XLOAD_R2345
   \   00001A   12....       LCALL     `??Delay_us::?relay`; Banked call to: Delay_us
   \   00001D   74FB         MOV       A,#-0x5
     60            while(P1_1)
   \                     ??SGP30_IIC_Wait_Ack_0:
   \   00001F   A291         MOV       C,0x90.1
   \   000021   500A         JNC       ??SGP30_IIC_Wait_Ack_1
     61            {
     62              ucErrTime++;
     63              if(ucErrTime > 250)
   \   000023   14           DEC       A
   \   000024   70F9         JNZ       ??SGP30_IIC_Wait_Ack_0
     64              {
     65                SGP30_IIC_Stop();
   \   000026                ; Setup parameters for call to function SGP30_IIC_Stop
   \   000026   12....       LCALL     `??SGP30_IIC_Stop::?relay`; Banked call to: SGP30_IIC_Stop
     66                return 1;
   \   000029   7901         MOV       R1,#0x1
   \   00002B   8004         SJMP      ??SGP30_IIC_Wait_Ack_2
     67              }
     68            }
     69            SGP30_SCL = 0;  		//时钟输出0
   \                     ??SGP30_IIC_Wait_Ack_1:
   \   00002D   C290         CLR       0x90.0
     70            return 0;
   \   00002F   7900         MOV       R1,#0x0
   \                     ??SGP30_IIC_Wait_Ack_2:
   \   000031   80..         SJMP      ??Subroutine3_0
   \   000033                REQUIRE _A_P1
     71          }
     72          
     73          //产生ACK应答

   \                                 In  segment BANKED_CODE, align 1, keep-with-next
   \                     ?Subroutine0:
   \   000000   90....       MOV       DPTR,#__Constant_14
   \   000003   12....       LCALL     ?XLOAD_R2345
   \   000006   12....       LCALL     `??Delay_us::?relay`; Banked call to: Delay_us
   \   000009   D290         SETB      0x90.0
   \   00000B                ; Setup parameters for call to function Delay_us
   \   00000B                ; Setup parameters for call to function Delay_us
   \   00000B                REQUIRE ??Subroutine2_0
   \   00000B                ; // Fall through to label ??Subroutine2_0

   \                                 In  segment BANKED_CODE, align 1, keep-with-next
     74          void SGP30_IIC_Ack(void)
   \                     SGP30_IIC_Ack:
     75          {
   \   000000   C082         PUSH      DPL
   \   000002   C083         PUSH      DPH
   \   000004                ; Saved register size: 2
   \   000004                ; Auto size: 0
     76            SGP30_SCL = 0;
   \   000004   C290         CLR       0x90.0
     77            SDA_OUT();
   \   000006                ; Setup parameters for call to function SDA_OUT
   \   000006   12....       LCALL     `??SDA_OUT::?relay`; Banked call to: SDA_OUT
     78            SGP30_SDA = 0;
   \   000009   C291         CLR       0x90.1
     79            Delay_us(20);
   \   00000B                ; Setup parameters for call to function Delay_us
   \   00000B   80..         SJMP      ?Subroutine0
   \   00000D                REQUIRE _A_P1
     80            SGP30_SCL = 1;
     81            Delay_us(20);
     82            SGP30_SCL = 0;
     83          }
     84          
     85          //不产生ACK应答

   \                                 In  segment BANKED_CODE, align 1, keep-with-next
     86          void SGP30_IIC_NAck(void)
   \                     SGP30_IIC_NAck:
     87          {
   \   000000   C082         PUSH      DPL
   \   000002   C083         PUSH      DPH
   \   000004                ; Saved register size: 2
   \   000004                ; Auto size: 0
     88            SGP30_SCL = 0;
   \   000004   C290         CLR       0x90.0
     89            SDA_OUT();
   \   000006                ; Setup parameters for call to function SDA_OUT
   \   000006   12....       LCALL     `??SDA_OUT::?relay`; Banked call to: SDA_OUT
     90            SGP30_SDA = 1;
   \   000009   D291         SETB      0x90.1
     91            Delay_us(20);
   \   00000B                ; Setup parameters for call to function Delay_us
   \   00000B   80..         SJMP      ?Subroutine0
   \   00000D                REQUIRE _A_P1
     92            SGP30_SCL = 1;
     93            Delay_us(20);
     94            SGP30_SCL = 0;
     95          }
     96          
     97          //IIC发送一个字节
     98          //返回从机有无应答
     99          //1，有应答
    100          //0，无应答

   \                                 In  segment BANKED_CODE, align 1, keep-with-next
    101          void SGP30_IIC_Send_Byte(uint8 txd)
   \                     SGP30_IIC_Send_Byte:
    102          {
   \   000000   74F7         MOV       A,#-0x9
   \   000002   12....       LCALL     ?BANKED_ENTER_XDATA
   \   000005                ; Saved register size: 9
   \   000005                ; Auto size: 0
   \   000005   E9           MOV       A,R1
   \   000006   FF           MOV       R7,A
    103            uint8 t;
    104            SDA_OUT();
   \   000007                ; Setup parameters for call to function SDA_OUT
   \   000007   12....       LCALL     `??SDA_OUT::?relay`; Banked call to: SDA_OUT
    105            SGP30_SCL = 0; 	    	//拉低时钟开始数据传输
   \   00000A   C290         CLR       0x90.0
    106            for(t = 0; t < 8; t++)
   \   00000C   7E08         MOV       R6,#0x8
    107            {
    108              if((txd & 0x80) >> 7)
   \                     ??SGP30_IIC_Send_Byte_0:
   \   00000E   EF           MOV       A,R7
   \   00000F   A2E7         MOV       C,0xE0 /* A   */.7
   \   000011   5004         JNC       ??SGP30_IIC_Send_Byte_1
    109                SGP30_SDA = 1;
   \   000013   D291         SETB      0x90.1
   \   000015   8002         SJMP      ??SGP30_IIC_Send_Byte_2
    110              else
    111                SGP30_SDA = 0;
   \                     ??SGP30_IIC_Send_Byte_1:
   \   000017   C291         CLR       0x90.1
    112              txd <<= 1;
   \                     ??SGP30_IIC_Send_Byte_2:
   \   000019   C3           CLR       C
   \   00001A   33           RLC       A
   \   00001B   FF           MOV       R7,A
    113              Delay_us(20);
   \   00001C                ; Setup parameters for call to function Delay_us
   \   00001C   90....       MOV       DPTR,#__Constant_14
   \   00001F   12....       LCALL     ?XLOAD_R2345
   \   000022   12....       LCALL     `??Delay_us::?relay`; Banked call to: Delay_us
    114              SGP30_SCL = 1;
   \   000025   D290         SETB      0x90.0
    115              Delay_us(20);
   \   000027                ; Setup parameters for call to function Delay_us
   \   000027   90....       MOV       DPTR,#__Constant_14
   \   00002A   12....       LCALL     ?XLOAD_R2345
   \   00002D   12....       LCALL     `??Delay_us::?relay`; Banked call to: Delay_us
    116              SGP30_SCL = 0;
   \   000030   C290         CLR       0x90.0
    117              Delay_us(20);
   \   000032                ; Setup parameters for call to function Delay_us
   \   000032   90....       MOV       DPTR,#__Constant_14
   \   000035   12....       LCALL     ?XLOAD_R2345
   \   000038   12....       LCALL     `??Delay_us::?relay`; Banked call to: Delay_us
    118            }
   \   00003B   1E           DEC       R6
   \   00003C   EE           MOV       A,R6
   \   00003D   70CF         JNZ       ??SGP30_IIC_Send_Byte_0
    119            Delay_us(20);
   \   00003F                ; Setup parameters for call to function Delay_us
   \   00003F   90....       MOV       DPTR,#__Constant_14
   \   000042   12....       LCALL     ?XLOAD_R2345
   \   000045   12....       LCALL     `??Delay_us::?relay`; Banked call to: Delay_us
    120          
    121          }
   \   000048                REQUIRE ?Subroutine1
   \   000048                REQUIRE _A_P1
   \   000048                ; // Fall through to label ?Subroutine1

   \                                 In  segment BANKED_CODE, align 1, keep-with-next
   \                     ?Subroutine1:
   \   000000   7F01         MOV       R7,#0x1
   \   000002   02....       LJMP      ?BANKED_LEAVE_XDATA
    122          
    123          //读1个字节，ack=1时，发送ACK，ack=0，发送nACK

   \                                 In  segment BANKED_CODE, align 1, keep-with-next
    124          uint16 SGP30_IIC_Read_Byte(uint8 ack)
   \                     SGP30_IIC_Read_Byte:
    125          {
   \   000000                REQUIRE ?V0
   \   000000                REQUIRE ?V1
   \   000000   74F6         MOV       A,#-0xa
   \   000002   12....       LCALL     ?BANKED_ENTER_XDATA
   \   000005                ; Saved register size: 10
   \   000005                ; Auto size: 0
   \   000005   89..         MOV       ?V1,R1
    126            uint8 i;
    127            uint16 receive = 0;
   \   000007   7E00         MOV       R6,#0x0
   \   000009   7F00         MOV       R7,#0x0
    128            SDA_IN();
   \   00000B                ; Setup parameters for call to function SDA_IN
   \   00000B   12....       LCALL     `??SDA_IN::?relay`; Banked call to: SDA_IN
    129            for(i = 0; i < 8; i++ )
   \   00000E   75..08       MOV       ?V0,#0x8
    130            {
    131              SGP30_SCL = 0;
   \                     ??SGP30_IIC_Read_Byte_0:
   \   000011   C290         CLR       0x90.0
    132              Delay_us(20);
   \   000013                ; Setup parameters for call to function Delay_us
   \   000013   90....       MOV       DPTR,#__Constant_14
   \   000016   12....       LCALL     ?XLOAD_R2345
   \   000019   12....       LCALL     `??Delay_us::?relay`; Banked call to: Delay_us
    133              SGP30_SCL = 1;
   \   00001C   D290         SETB      0x90.0
    134              receive <<= 1;
   \   00001E   EE           MOV       A,R6
   \   00001F   25E0         ADD       A,0xE0 /* A   */
   \   000021   FE           MOV       R6,A
   \   000022   EF           MOV       A,R7
   \   000023   33           RLC       A
   \   000024   FF           MOV       R7,A
    135              if(P1_1)
   \   000025   A291         MOV       C,0x90.1
   \   000027   5005         JNC       ??SGP30_IIC_Read_Byte_1
    136                receive++;
   \   000029   0E           INC       R6
   \   00002A   EE           MOV       A,R6
   \   00002B   7001         JNZ       ??SGP30_IIC_Read_Byte_1
   \   00002D   0F           INC       R7
    137              Delay_us(20);
   \                     ??SGP30_IIC_Read_Byte_1:
   \   00002E                ; Setup parameters for call to function Delay_us
   \   00002E   90....       MOV       DPTR,#__Constant_14
   \   000031   12....       LCALL     ?XLOAD_R2345
   \   000034   12....       LCALL     `??Delay_us::?relay`; Banked call to: Delay_us
    138            }
   \   000037   15..         DEC       ?V0
   \   000039   E5..         MOV       A,?V0
   \   00003B   70D4         JNZ       ??SGP30_IIC_Read_Byte_0
    139            if (!ack)
   \   00003D   E5..         MOV       A,?V1
   \   00003F   7005         JNZ       ??SGP30_IIC_Read_Byte_2
    140              SGP30_IIC_NAck();//发送nACK
   \   000041                ; Setup parameters for call to function SGP30_IIC_NAck
   \   000041   12....       LCALL     `??SGP30_IIC_NAck::?relay`; Banked call to: SGP30_IIC_NAck
   \   000044   8003         SJMP      ??SGP30_IIC_Read_Byte_3
    141            else
    142              SGP30_IIC_Ack(); //发送ACK
   \                     ??SGP30_IIC_Read_Byte_2:
   \   000046                ; Setup parameters for call to function SGP30_IIC_Ack
   \   000046   12....       LCALL     `??SGP30_IIC_Ack::?relay`; Banked call to: SGP30_IIC_Ack
    143            return receive;
   \                     ??SGP30_IIC_Read_Byte_3:
   \   000049   EE           MOV       A,R6
   \   00004A   FA           MOV       R2,A
   \   00004B   EF           MOV       A,R7
   \   00004C   FB           MOV       R3,A
   \   00004D   7F02         MOV       R7,#0x2
   \   00004F   02....       LJMP      ?BANKED_LEAVE_XDATA
   \   000052                REQUIRE _A_P1
    144          }
    145          
    146          
    147          //初始化IIC接口

   \                                 In  segment BANKED_CODE, align 1, keep-with-next
    148          void SGP30_Init(void)
   \                     SGP30_Init:
    149          {
   \   000000   C082         PUSH      DPL
   \   000002   C083         PUSH      DPH
   \   000004                ; Saved register size: 2
   \   000004                ; Auto size: 0
    150            GPIO_Init();
   \   000004                ; Setup parameters for call to function GPIO_Init
   \   000004   12....       LCALL     `??GPIO_Init::?relay`; Banked call to: GPIO_Init
    151            SGP30_Write(0x20, 0x03);
   \   000007                ; Setup parameters for call to function SGP30_Write
   \   000007   7A03         MOV       R2,#0x3
   \   000009   7920         MOV       R1,#0x20
   \   00000B   12....       LCALL     `??SGP30_Write::?relay`; Banked call to: SGP30_Write
    152          //	SGP30_ad_write(0x20,0x61);
    153          //	SGP30_ad_write(0x01,0x00);
    154          }
   \   00000E   02....       LJMP      ??Subroutine3_0 & 0xFFFF
    155          
    156          

   \                                 In  segment BANKED_CODE, align 1, keep-with-next
    157          void SGP30_Write(uint8 a, uint8 b)
   \                     SGP30_Write:
    158          {
   \   000000   74F7         MOV       A,#-0x9
   \   000002   12....       LCALL     ?BANKED_ENTER_XDATA
   \   000005                ; Saved register size: 9
   \   000005                ; Auto size: 0
   \   000005   E9           MOV       A,R1
   \   000006   FF           MOV       R7,A
   \   000007   EA           MOV       A,R2
   \   000008   FE           MOV       R6,A
    159            SGP30_IIC_Start();
   \   000009                ; Setup parameters for call to function SGP30_IIC_Start
   \   000009   12....       LCALL     `??SGP30_IIC_Start::?relay`; Banked call to: SGP30_IIC_Start
    160            SGP30_IIC_Send_Byte(SGP30_write);     //发送器件地址+写指令
   \   00000C                ; Setup parameters for call to function SGP30_IIC_Send_Byte
   \   00000C   79B0         MOV       R1,#-0x50
   \   00000E   12....       LCALL     `??SGP30_IIC_Send_Byte::?relay`; Banked call to: SGP30_IIC_Send_Byte
    161            SGP30_IIC_Wait_Ack();
   \   000011                ; Setup parameters for call to function SGP30_IIC_Wait_Ack
   \   000011   12....       LCALL     `??SGP30_IIC_Wait_Ack::?relay`; Banked call to: SGP30_IIC_Wait_Ack
    162            SGP30_IIC_Send_Byte(a);		//发送控制字节
   \   000014                ; Setup parameters for call to function SGP30_IIC_Send_Byte
   \   000014   EF           MOV       A,R7
   \   000015   F9           MOV       R1,A
   \   000016   12....       LCALL     `??SGP30_IIC_Send_Byte::?relay`; Banked call to: SGP30_IIC_Send_Byte
    163            SGP30_IIC_Wait_Ack();
   \   000019                ; Setup parameters for call to function SGP30_IIC_Wait_Ack
   \   000019   12....       LCALL     `??SGP30_IIC_Wait_Ack::?relay`; Banked call to: SGP30_IIC_Wait_Ack
    164            SGP30_IIC_Send_Byte(b);
   \   00001C                ; Setup parameters for call to function SGP30_IIC_Send_Byte
   \   00001C   EE           MOV       A,R6
   \   00001D   F9           MOV       R1,A
   \   00001E   12....       LCALL     `??SGP30_IIC_Send_Byte::?relay`; Banked call to: SGP30_IIC_Send_Byte
    165            SGP30_IIC_Wait_Ack();
   \   000021                ; Setup parameters for call to function SGP30_IIC_Wait_Ack
   \   000021   12....       LCALL     `??SGP30_IIC_Wait_Ack::?relay`; Banked call to: SGP30_IIC_Wait_Ack
    166            SGP30_IIC_Stop();
   \   000024                ; Setup parameters for call to function SGP30_IIC_Stop
   \   000024   12....       LCALL     `??SGP30_IIC_Stop::?relay`; Banked call to: SGP30_IIC_Stop
    167            Delay_ms(100);
   \   000027                ; Setup parameters for call to function Delay_ms
   \   000027   90....       MOV       DPTR,#__Constant_64
   \   00002A   12....       LCALL     ?XLOAD_R2345
   \   00002D   12....       LCALL     `??Delay_ms::?relay`; Banked call to: Delay_ms
    168          }
   \   000030   02....       LJMP      ?Subroutine1 & 0xFFFF
    169          

   \                                 In  segment BANKED_CODE, align 1, keep-with-next
    170          SGP30_Values Get_SGP_DATA(void)
   \                     Get_SGP_DATA:
    171          {
   \   000000                REQUIRE ?V0
   \   000000                REQUIRE ?V1
   \   000000                REQUIRE ?V2
   \   000000                REQUIRE ?V3
   \   000000                REQUIRE ?V4
   \   000000                REQUIRE ?V5
   \   000000                REQUIRE ?V6
   \   000000                REQUIRE ?V7
   \   000000   74F0         MOV       A,#-0x10
   \   000002   12....       LCALL     ?BANKED_ENTER_XDATA
   \   000005                ; Saved register size: 16
   \   000005                ; Auto size: 4
   \   000005   74FC         MOV       A,#-0x4
   \   000007   12....       LCALL     ?ALLOC_XSTACK8
   \   00000A   EA           MOV       A,R2
   \   00000B   FE           MOV       R6,A
   \   00000C   EB           MOV       A,R3
   \   00000D   FF           MOV       R7,A
    172            SGP30_Write(0x20,0x08);
   \   00000E                ; Setup parameters for call to function SGP30_Write
   \   00000E   7A08         MOV       R2,#0x8
   \   000010   7920         MOV       R1,#0x20
   \   000012   12....       LCALL     `??SGP30_Write::?relay`; Banked call to: SGP30_Write
    173            
    174            SGP30_Values SGP30Values;
    175            uint32 dat;
    176            uint8 crc;
    177            SGP30_IIC_Start();
   \   000015                ; Setup parameters for call to function SGP30_IIC_Start
   \   000015   12....       LCALL     `??SGP30_IIC_Start::?relay`; Banked call to: SGP30_IIC_Start
    178            SGP30_IIC_Send_Byte(SGP30_read);      //发送器件地址+读指令
   \   000018                ; Setup parameters for call to function SGP30_IIC_Send_Byte
   \   000018   79B1         MOV       R1,#-0x4f
   \   00001A   12....       LCALL     `??SGP30_IIC_Send_Byte::?relay`; Banked call to: SGP30_IIC_Send_Byte
    179            SGP30_IIC_Wait_Ack();
   \   00001D                ; Setup parameters for call to function SGP30_IIC_Wait_Ack
   \   00001D   12....       LCALL     `??SGP30_IIC_Wait_Ack::?relay`; Banked call to: SGP30_IIC_Wait_Ack
    180            dat = SGP30_IIC_Read_Byte(1);
   \   000020                ; Setup parameters for call to function SGP30_IIC_Read_Byte
   \   000020   7901         MOV       R1,#0x1
   \   000022   12....       LCALL     `??SGP30_IIC_Read_Byte::?relay`; Banked call to: SGP30_IIC_Read_Byte
    181            dat <<= 8;
    182            dat += SGP30_IIC_Read_Byte(1);
   \   000025   8A..         MOV       ?V4,R2
   \   000027   8B..         MOV       ?V5,R3
   \   000029   E4           CLR       A
   \   00002A   F5..         MOV       ?V6,A
   \   00002C   F5..         MOV       ?V7,A
   \   00002E   7408         MOV       A,#0x8
   \   000030   78..         MOV       R0,#?V4
   \   000032   12....       LCALL     ?L_SHL
   \   000035                ; Setup parameters for call to function SGP30_IIC_Read_Byte
   \   000035   7901         MOV       R1,#0x1
   \   000037   12....       LCALL     `??SGP30_IIC_Read_Byte::?relay`; Banked call to: SGP30_IIC_Read_Byte
   \   00003A   8A..         MOV       ?V0,R2
   \   00003C   8B..         MOV       ?V1,R3
   \   00003E   E4           CLR       A
   \   00003F   F5..         MOV       ?V2,A
   \   000041   F5..         MOV       ?V3,A
   \   000043   78..         MOV       R0,#?V4
   \   000045   79..         MOV       R1,#?V0
   \   000047   12....       LCALL     ?L_ADD
    183            crc = SGP30_IIC_Read_Byte(1);         //crc数据，舍去
   \   00004A                ; Setup parameters for call to function SGP30_IIC_Read_Byte
   \   00004A   7901         MOV       R1,#0x1
   \   00004C   12....       LCALL     `??SGP30_IIC_Read_Byte::?relay`; Banked call to: SGP30_IIC_Read_Byte
    184            crc = crc;                            //为了不让出现编译警告
    185            dat <<= 8;
    186            dat += SGP30_IIC_Read_Byte(1);
   \   00004F                ; Setup parameters for call to function SGP30_IIC_Read_Byte
   \   00004F   7901         MOV       R1,#0x1
   \   000051   12....       LCALL     `??SGP30_IIC_Read_Byte::?relay`; Banked call to: SGP30_IIC_Read_Byte
   \   000054   8A..         MOV       ?V0,R2
   \   000056   8B..         MOV       ?V1,R3
    187            dat <<= 8;
    188            dat += SGP30_IIC_Read_Byte(0);
   \   000058   7408         MOV       A,#0x8
   \   00005A   78..         MOV       R0,#?V4
   \   00005C   12....       LCALL     ?L_SHL
   \   00005F   78..         MOV       R0,#?V4
   \   000061   79..         MOV       R1,#?V0
   \   000063   12....       LCALL     ?L_ADD
   \   000066   7408         MOV       A,#0x8
   \   000068   78..         MOV       R0,#?V4
   \   00006A   12....       LCALL     ?L_SHL
   \   00006D                ; Setup parameters for call to function SGP30_IIC_Read_Byte
   \   00006D   F9           MOV       R1,A
   \   00006E   12....       LCALL     `??SGP30_IIC_Read_Byte::?relay`; Banked call to: SGP30_IIC_Read_Byte
   \   000071   8A..         MOV       ?V0,R2
   \   000073   8B..         MOV       ?V1,R3
   \   000075   78..         MOV       R0,#?V4
   \   000077   79..         MOV       R1,#?V0
   \   000079   12....       LCALL     ?L_ADD
    189            SGP30_IIC_Stop();
   \   00007C                ; Setup parameters for call to function SGP30_IIC_Stop
   \   00007C   12....       LCALL     `??SGP30_IIC_Stop::?relay`; Banked call to: SGP30_IIC_Stop
    190            
    191            SGP30Values.CO2 = (dat & 0xffff0000) >> 16;//取出CO2浓度值
   \   00007F   85....       MOV       ?V0,?V4
   \   000082   85....       MOV       ?V1,?V5
   \   000085   85....       MOV       ?V2,?V6
   \   000088   85....       MOV       ?V3,?V7
   \   00008B   7410         MOV       A,#0x10
   \   00008D   78..         MOV       R0,#?V0
   \   00008F   12....       LCALL     ?UL_SHR
   \   000092   85..82       MOV       DPL,?XSP + 0
   \   000095   85..83       MOV       DPH,?XSP + 1
   \   000098   E5..         MOV       A,?V0
   \   00009A   F0           MOVX      @DPTR,A
   \   00009B   A3           INC       DPTR
   \   00009C   E5..         MOV       A,?V1
   \   00009E   F0           MOVX      @DPTR,A
    192            SGP30Values.TVOC = dat & 0x0000ffff;       //取出TVOC值
   \   00009F   7402         MOV       A,#0x2
   \   0000A1   12....       LCALL     ?XSTACK_DISP0_8
   \   0000A4   E5..         MOV       A,?V4
   \   0000A6   F0           MOVX      @DPTR,A
   \   0000A7   A3           INC       DPTR
   \   0000A8   E5..         MOV       A,?V5
   \   0000AA   F0           MOVX      @DPTR,A
   \   0000AB   85..82       MOV       DPL,?XSP + 0
   \   0000AE   85..83       MOV       DPH,?XSP + 1
   \   0000B1   EE           MOV       A,R6
   \   0000B2   FC           MOV       R4,A
   \   0000B3   EF           MOV       A,R7
   \   0000B4   FD           MOV       R5,A
   \   0000B5   EC           MOV       A,R4
   \   0000B6   FA           MOV       R2,A
   \   0000B7   ED           MOV       A,R5
   \   0000B8   FB           MOV       R3,A
   \   0000B9   7404         MOV       A,#0x4
   \   0000BB   12....       LCALL     ?MOVE_LONG8_XDATA_XDATA
   \   0000BE   7404         MOV       A,#0x4
   \   0000C0   12....       LCALL     ?DEALLOC_XSTACK8
   \   0000C3   7F08         MOV       R7,#0x8
   \   0000C5   02....       LJMP      ?BANKED_LEAVE_XDATA
    193            return(SGP30Values);
    194          }

   \                                 In  segment XDATA_ROM_C, align 1
   \                     __Constant_14:
   \   000000   14000000     DD 20

   \                                 In  segment XDATA_ROM_C, align 1
   \                     __Constant_a:
   \   000000   0A000000     DD 10

   \                                 In  segment XDATA_ROM_C, align 1
   \                     __Constant_64:
   \   000000   64000000     DD 100

   \                                 In  segment BANK_RELAYS, align 1
   \                     `??GPIO_Init::?relay`:
   \   000000   12....       LCALL   ?BDISPATCH
   \   000003   ......       DC24    GPIO_Init

   \                                 In  segment BANK_RELAYS, align 1
   \                     `??SDA_OUT::?relay`:
   \   000000   12....       LCALL   ?BDISPATCH
   \   000003   ......       DC24    SDA_OUT

   \                                 In  segment BANK_RELAYS, align 1
   \                     `??SDA_IN::?relay`:
   \   000000   12....       LCALL   ?BDISPATCH
   \   000003   ......       DC24    SDA_IN

   \                                 In  segment BANK_RELAYS, align 1
   \                     `??SGP30_IIC_Start::?relay`:
   \   000000   12....       LCALL   ?BDISPATCH
   \   000003   ......       DC24    SGP30_IIC_Start

   \                                 In  segment BANK_RELAYS, align 1
   \                     `??SGP30_IIC_Stop::?relay`:
   \   000000   12....       LCALL   ?BDISPATCH
   \   000003   ......       DC24    SGP30_IIC_Stop

   \                                 In  segment BANK_RELAYS, align 1
   \                     `??SGP30_IIC_Wait_Ack::?relay`:
   \   000000   12....       LCALL   ?BDISPATCH
   \   000003   ......       DC24    SGP30_IIC_Wait_Ack

   \                                 In  segment BANK_RELAYS, align 1
   \                     `??SGP30_IIC_Ack::?relay`:
   \   000000   12....       LCALL   ?BDISPATCH
   \   000003   ......       DC24    SGP30_IIC_Ack

   \                                 In  segment BANK_RELAYS, align 1
   \                     `??SGP30_IIC_NAck::?relay`:
   \   000000   12....       LCALL   ?BDISPATCH
   \   000003   ......       DC24    SGP30_IIC_NAck

   \                                 In  segment BANK_RELAYS, align 1
   \                     `??SGP30_IIC_Send_Byte::?relay`:
   \   000000   12....       LCALL   ?BDISPATCH
   \   000003   ......       DC24    SGP30_IIC_Send_Byte

   \                                 In  segment BANK_RELAYS, align 1
   \                     `??SGP30_IIC_Read_Byte::?relay`:
   \   000000   12....       LCALL   ?BDISPATCH
   \   000003   ......       DC24    SGP30_IIC_Read_Byte

   \                                 In  segment BANK_RELAYS, align 1
   \                     `??SGP30_Init::?relay`:
   \   000000   12....       LCALL   ?BDISPATCH
   \   000003   ......       DC24    SGP30_Init

   \                                 In  segment BANK_RELAYS, align 1
   \                     `??SGP30_Write::?relay`:
   \   000000   12....       LCALL   ?BDISPATCH
   \   000003   ......       DC24    SGP30_Write

   \                                 In  segment BANK_RELAYS, align 1
   \                     `??Get_SGP_DATA::?relay`:
   \   000000   12....       LCALL   ?BDISPATCH
   \   000003   ......       DC24    Get_SGP_DATA

   Maximum stack usage in bytes:

   ISTACK XSTACK Function
   ------ ------ --------
      0      0   GPIO_Init
      0     20   Get_SGP_DATA
        0     20   -> SGP30_IIC_Read_Byte
        0     20   -> SGP30_IIC_Send_Byte
        0     20   -> SGP30_IIC_Start
        0     20   -> SGP30_IIC_Stop
        0     20   -> SGP30_IIC_Wait_Ack
        0     20   -> SGP30_Write
      0     10   SDA_IN
      0      9   SDA_OUT
      2     10   SGP30_IIC_Ack
        2      0   -> Delay_us
        2      0   -> SDA_OUT
      2     10   SGP30_IIC_NAck
        2      0   -> Delay_us
        2      0   -> SDA_OUT
      0     30   SGP30_IIC_Read_Byte
        0     10   -> Delay_us
        0     10   -> SDA_IN
        0     10   -> SGP30_IIC_Ack
        0     10   -> SGP30_IIC_NAck
      0     29   SGP30_IIC_Send_Byte
        0      9   -> Delay_us
        0      9   -> SDA_OUT
      2     20   SGP30_IIC_Start
        2      0   -> Delay_us
        2      0   -> SDA_OUT
      2     20   SGP30_IIC_Stop
        2      0   -> Delay_us
        2      0   -> SDA_OUT
      2     20   SGP30_IIC_Wait_Ack
        2      0   -> Delay_us
        2      0   -> SDA_IN
        2      0   -> SGP30_IIC_Stop
      2      0   SGP30_Init
        2      0   -> GPIO_Init
        2      0   -> SGP30_Write
      0     29   SGP30_Write
        0      9   -> Delay_ms
        0      9   -> SGP30_IIC_Send_Byte
        0      9   -> SGP30_IIC_Start
        0      9   -> SGP30_IIC_Stop
        0      9   -> SGP30_IIC_Wait_Ack


   Segment part sizes:

   Bytes  Function/Label
   -----  --------------
      11  ??Subroutine2_0
       7  ??Subroutine3_0
      11  ?Subroutine0
       5  ?Subroutine1
       9  GPIO_Init
       6  GPIO_Init::?relay
     200  Get_SGP_DATA
       6  Get_SGP_DATA::?relay
       1  P1DIR
       1  P1SEL
       9  SDA_IN
       6  SDA_IN::?relay
       9  SDA_OUT
       6  SDA_OUT::?relay
      13  SGP30_IIC_Ack
       6  SGP30_IIC_Ack::?relay
      13  SGP30_IIC_NAck
       6  SGP30_IIC_NAck::?relay
      82  SGP30_IIC_Read_Byte
       6  SGP30_IIC_Read_Byte::?relay
      72  SGP30_IIC_Send_Byte
       6  SGP30_IIC_Send_Byte::?relay
      24  SGP30_IIC_Start
       6  SGP30_IIC_Start::?relay
      35  SGP30_IIC_Stop
       6  SGP30_IIC_Stop::?relay
      51  SGP30_IIC_Wait_Ack
       6  SGP30_IIC_Wait_Ack::?relay
      17  SGP30_Init
       6  SGP30_Init::?relay
      51  SGP30_Write
       6  SGP30_Write::?relay
       1  _A_P1
       4  __Constant_14
       4  __Constant_64
       4  __Constant_a

 
 619 bytes in segment BANKED_CODE
  78 bytes in segment BANK_RELAYS
   3 bytes in segment SFR_AN
  12 bytes in segment XDATA_ROM_C
 
  78 bytes of CODE     memory
   0 bytes of CONST    memory (+ 12 bytes shared)
   0 bytes of DATA     memory (+  3 bytes shared)
 619 bytes of HUGECODE memory

Errors: none
Warnings: none
