###############################################################################
#
# IAR C/C++ Compiler V10.10.1.4655 for 8051               17/Apr/2025  05:33:32
# Copyright 2004-2017 IAR Systems AB.
# Standalone license - IAR Embedded Workbench for 8051
#
#    Core               =  plain
#    Code model         =  banked
#    Data model         =  large
#    Calling convention =  xdata reentrant
#    Constant location  =  data_rom
#    Dptr setup         =  1,16
#                          
#    Source file        =  
#        C:\Texas Instruments\Z-Stack 3.0.1 A Git\Z-Stack
#        3.0.1\Projects\zstack\HomeAutomation\SampleSwitch\Source\zcl_samplesw.c
#    Command line       =  
#        -f C:\Users\NING\AppData\Local\Temp\EWA1A6.tmp ("C:\Texas
#        Instruments\Z-Stack 3.0.1 A Git\Z-Stack
#        3.0.1\Projects\zstack\HomeAutomation\SampleSwitch\Source\zcl_samplesw.c"
#        -D SECURE=1 -D TC_LINKKEY_JOIN -D NV_INIT -D NV_RESTORE -D
#        xPOWER_SAVING -D NWK_AUTO_POLL -D ZTOOL_P1 -D xMT_TASK -D xMT_APP_FUNC
#        -D xMT_SYS_FUNC -D xMT_ZDO_FUNC -D xMT_ZDO_MGMT -D xMT_APP_CNF_FUNC -D
#        LCD_SUPPORTED=DEBUG -D MULTICAST_ENABLED=FALSE -D ZCL_READ -D
#        ZCL_DISCOVER -D ZCL_WRITE -D ZCL_BASIC -D ZCL_IDENTIFY -D ZCL_ON_OFF
#        -D ZCL_GROUPS -D HAL_UART_DMA_RX_MAX=50 -lC "C:\Texas
#        Instruments\Z-Stack 3.0.1 A Git\Z-Stack
#        3.0.1\Projects\zstack\HomeAutomation\SampleSwitch\CC2530DB\EndDeviceEB\List"
#        -lA "C:\Texas Instruments\Z-Stack 3.0.1 A Git\Z-Stack
#        3.0.1\Projects\zstack\HomeAutomation\SampleSwitch\CC2530DB\EndDeviceEB\List"
#        --diag_suppress Pe001,Pa010 -o "C:\Texas Instruments\Z-Stack 3.0.1 A
#        Git\Z-Stack
#        3.0.1\Projects\zstack\HomeAutomation\SampleSwitch\CC2530DB\EndDeviceEB\Obj"
#        -e --debug --core=plain --dptr=16,1 --data_model=large
#        --code_model=banked --calling_convention=xdata_reentrant
#        --place_constants=data_rom --nr_virtual_regs 16 -f "C:\Texas
#        Instruments\Z-Stack 3.0.1 A Git\Z-Stack
#        3.0.1\Projects\zstack\HomeAutomation\SampleSwitch\CC2530DB\..\..\..\Tools\CC2530DB\f8wEndev.cfg"
#        (-DCPU32MHZ -DROOT=__near_func -DMAC_CFG_TX_DATA_MAX=3
#        -DMAC_CFG_TX_MAX=6 -DMAC_CFG_RX_MAX=3) -f "C:\Texas
#        Instruments\Z-Stack 3.0.1 A Git\Z-Stack
#        3.0.1\Projects\zstack\HomeAutomation\SampleSwitch\CC2530DB\..\..\..\Tools\CC2530DB\f8wConfig.cfg"
#        (-DZIGBEEPRO -DSECURE=1 -DZG_SECURE_DYNAMIC=0 -DREFLECTOR
#        -DDEFAULT_CHANLIST=0x00000800 -DZDAPP_CONFIG_PAN_ID=0xFFFF
#        -DNWK_START_DELAY=100 -DEXTENDED_JOINING_RANDOM_MASK=0x007F
#        -DBEACON_REQUEST_DELAY=100 -DBEACON_REQ_DELAY_MASK=0x00FF
#        -DLINK_STATUS_JITTER_MASK=0x007F -DROUTE_EXPIRY_TIME=30
#        -DAPSC_ACK_WAIT_DURATION_POLLED=3000 -DNWK_INDIRECT_MSG_TIMEOUT=7
#        -DMAX_RREQ_ENTRIES=8 -DAPSC_MAX_FRAME_RETRIES=3
#        -DNWK_MAX_DATA_RETRIES=2 -DMAX_POLL_FAILURE_RETRIES=2 -DMAX_BCAST=9
#        -DAPS_MAX_GROUPS=16 -DMAX_RTG_ENTRIES=40 -DNWK_MAX_BINDING_ENTRIES=4
#        -DMAX_BINDING_CLUSTER_IDS=4 -DDEFAULT_KEY={0} -DMAC_MAX_FRAME_SIZE=116
#        -DZDNWKMGR_MIN_TRANSMISSIONS=20 "-DCONST=const __code"
#        -DGENERIC=__generic -DRFD_RCVC_ALWAYS_ON=FALSE -DPOLL_RATE=1000
#        -DQUEUED_POLL_RATE=100 -DRESPONSE_POLL_RATE=100 -DREJOIN_POLL_RATE=440
#        -DREJOIN_BACKOFF=900000 -DREJOIN_SCAN=900000 -DENABLE_LED4_DISABLE_S1)
#        -f "C:\Texas Instruments\Z-Stack 3.0.1 A Git\Z-Stack
#        3.0.1\Projects\zstack\HomeAutomation\SampleSwitch\CC2530DB\..\..\..\Tools\CC2530DB\f8wZCL.cfg"
#        -I "C:\Texas Instruments\Z-Stack 3.0.1 A Git\Z-Stack
#        3.0.1\Projects\zstack\HomeAutomation\SampleSwitch\CC2530DB\" -I
#        "C:\Texas Instruments\Z-Stack 3.0.1 A Git\Z-Stack
#        3.0.1\Projects\zstack\HomeAutomation\SampleSwitch\CC2530DB\..\Source\"
#        -I "C:\Texas Instruments\Z-Stack 3.0.1 A Git\Z-Stack
#        3.0.1\Projects\zstack\HomeAutomation\SampleSwitch\CC2530DB\..\..\Source\"
#        -I "C:\Texas Instruments\Z-Stack 3.0.1 A Git\Z-Stack
#        3.0.1\Projects\zstack\HomeAutomation\SampleSwitch\CC2530DB\..\..\..\ZMain\TI2530DB\"
#        -I "C:\Texas Instruments\Z-Stack 3.0.1 A Git\Z-Stack
#        3.0.1\Projects\zstack\HomeAutomation\SampleSwitch\CC2530DB\..\..\..\..\..\Components\hal\include\"
#        -I "C:\Texas Instruments\Z-Stack 3.0.1 A Git\Z-Stack
#        3.0.1\Projects\zstack\HomeAutomation\SampleSwitch\CC2530DB\..\..\..\..\..\Components\hal\target\CC2530EB\"
#        -I "C:\Texas Instruments\Z-Stack 3.0.1 A Git\Z-Stack
#        3.0.1\Projects\zstack\HomeAutomation\SampleSwitch\CC2530DB\..\..\..\..\..\Components\mac\include\"
#        -I "C:\Texas Instruments\Z-Stack 3.0.1 A Git\Z-Stack
#        3.0.1\Projects\zstack\HomeAutomation\SampleSwitch\CC2530DB\..\..\..\..\..\Components\mac\high_level\"
#        -I "C:\Texas Instruments\Z-Stack 3.0.1 A Git\Z-Stack
#        3.0.1\Projects\zstack\HomeAutomation\SampleSwitch\CC2530DB\..\..\..\..\..\Components\mac\low_level\srf04\"
#        -I "C:\Texas Instruments\Z-Stack 3.0.1 A Git\Z-Stack
#        3.0.1\Projects\zstack\HomeAutomation\SampleSwitch\CC2530DB\..\..\..\..\..\Components\mac\low_level\srf04\single_chip\"
#        -I "C:\Texas Instruments\Z-Stack 3.0.1 A Git\Z-Stack
#        3.0.1\Projects\zstack\HomeAutomation\SampleSwitch\CC2530DB\..\..\..\..\..\Components\mt\"
#        -I "C:\Texas Instruments\Z-Stack 3.0.1 A Git\Z-Stack
#        3.0.1\Projects\zstack\HomeAutomation\SampleSwitch\CC2530DB\..\..\..\..\..\Components\osal\include\"
#        -I "C:\Texas Instruments\Z-Stack 3.0.1 A Git\Z-Stack
#        3.0.1\Projects\zstack\HomeAutomation\SampleSwitch\CC2530DB\..\..\..\..\..\Components\services\saddr\"
#        -I "C:\Texas Instruments\Z-Stack 3.0.1 A Git\Z-Stack
#        3.0.1\Projects\zstack\HomeAutomation\SampleSwitch\CC2530DB\..\..\..\..\..\Components\services\sdata\"
#        -I "C:\Texas Instruments\Z-Stack 3.0.1 A Git\Z-Stack
#        3.0.1\Projects\zstack\HomeAutomation\SampleSwitch\CC2530DB\..\..\..\..\..\Components\stack\af\"
#        -I "C:\Texas Instruments\Z-Stack 3.0.1 A Git\Z-Stack
#        3.0.1\Projects\zstack\HomeAutomation\SampleSwitch\CC2530DB\..\..\..\..\..\Components\stack\bdb\"
#        -I "C:\Texas Instruments\Z-Stack 3.0.1 A Git\Z-Stack
#        3.0.1\Projects\zstack\HomeAutomation\SampleSwitch\CC2530DB\..\..\..\..\..\Components\stack\gp\"
#        -I "C:\Texas Instruments\Z-Stack 3.0.1 A Git\Z-Stack
#        3.0.1\Projects\zstack\HomeAutomation\SampleSwitch\CC2530DB\..\..\..\..\..\Components\stack\nwk\"
#        -I "C:\Texas Instruments\Z-Stack 3.0.1 A Git\Z-Stack
#        3.0.1\Projects\zstack\HomeAutomation\SampleSwitch\CC2530DB\..\..\..\..\..\Components\stack\sapi\"
#        -I "C:\Texas Instruments\Z-Stack 3.0.1 A Git\Z-Stack
#        3.0.1\Projects\zstack\HomeAutomation\SampleSwitch\CC2530DB\..\..\..\..\..\Components\stack\sec\"
#        -I "C:\Texas Instruments\Z-Stack 3.0.1 A Git\Z-Stack
#        3.0.1\Projects\zstack\HomeAutomation\SampleSwitch\CC2530DB\..\..\..\..\..\Components\stack\sys\"
#        -I "C:\Texas Instruments\Z-Stack 3.0.1 A Git\Z-Stack
#        3.0.1\Projects\zstack\HomeAutomation\SampleSwitch\CC2530DB\..\..\..\..\..\Components\stack\zcl\"
#        -I "C:\Texas Instruments\Z-Stack 3.0.1 A Git\Z-Stack
#        3.0.1\Projects\zstack\HomeAutomation\SampleSwitch\CC2530DB\..\..\..\..\..\Components\stack\zdo\"
#        -I "C:\Texas Instruments\Z-Stack 3.0.1 A Git\Z-Stack
#        3.0.1\Projects\zstack\HomeAutomation\SampleSwitch\CC2530DB\..\..\..\..\..\Components\zmac\"
#        -I "C:\Texas Instruments\Z-Stack 3.0.1 A Git\Z-Stack
#        3.0.1\Projects\zstack\HomeAutomation\SampleSwitch\CC2530DB\..\..\..\..\..\Components\zmac\f8w\"
#        -I "C:\Texas Instruments\Z-Stack 3.0.1 A Git\Z-Stack
#        3.0.1\Projects\zstack\HomeAutomation\SampleSwitch\CC2530DB\MY_Hardware\"
#        -Ohz --require_prototypes)
#    Locale             =  Chinese (Simplified)_China.936
#    List file          =  
#        C:\Texas Instruments\Z-Stack 3.0.1 A Git\Z-Stack
#        3.0.1\Projects\zstack\HomeAutomation\SampleSwitch\CC2530DB\EndDeviceEB\List\zcl_samplesw.lst
#    Object file        =  
#        C:\Texas Instruments\Z-Stack 3.0.1 A Git\Z-Stack
#        3.0.1\Projects\zstack\HomeAutomation\SampleSwitch\CC2530DB\EndDeviceEB\Obj\zcl_samplesw.r51
#
###############################################################################

C:\Texas Instruments\Z-Stack 3.0.1 A Git\Z-Stack 3.0.1\Projects\zstack\HomeAutomation\SampleSwitch\Source\zcl_samplesw.c
      1          /*********************************************************************
      2           * INCLUDES
      3           */
      4          #include "ZComDef.h"
      5          #include "OSAL.h"
      6          #include "AF.h"
      7          #include "ZDApp.h"
      8          #include "ZDObject.h"
      9          #include "ZDProfile.h"
     10          #include "MT_SYS.h"
     11          
     12          #include "zcl.h"
     13          #include "zcl_general.h"
     14          #include "zcl_ha.h"
     15          #include "zcl_samplesw.h"
     16          #include "zcl_diagnostic.h"
     17          
     18          #include "onboard.h"

   \                                 In  segment SFR_AN, at 0x90
   \   union <unnamed> volatile __sfr _A_P1
   \                     _A_P1:
   \   000000                DS 1

   \                                 In  segment SFR_AN, at 0xf4
   \   unsigned char volatile __sfr P1SEL
   \                     P1SEL:
   \   000000                DS 1

   \                                 In  segment SFR_AN, at 0xf6
   \   unsigned char volatile __sfr P1INP
   \                     P1INP:
   \   000000                DS 1

   \                                 In  segment SFR_AN, at 0xfe
   \   unsigned char volatile __sfr P1DIR
   \                     P1DIR:
   \   000000                DS 1
     19          
     20          /* HAL */
     21          #include "hal_lcd.h"
     22          #include "hal_led.h"
     23          #include "hal_key.h"
     24          #include "hal_adc.h"
     25          
     26          #if defined (OTA_CLIENT) && (OTA_CLIENT == TRUE)
     27          #include "zcl_ota.h"
     28          #include "hal_ota.h"
     29          #endif
     30          
     31          #include "bdb.h"
     32          #include "bdb_interface.h"
     33          #include "MT.h"
     34          #include "MT_UART.h"
     35          #include "hal_uart.h"
     36          #include "DELAY.h"
     37          #include "OLEDIIC.h"
     38          #include "DHT11.h"
     39          #include "TURANSIDU.h"
     40          #include "GUANZAOQIANDU.h"
     41          #include "MOTOR.h"
     42          #include "SGP30IIC.h"
     43             
     44          #include <stdio.h>
     45          #include <string.h>
     46          
     47          /*********************************************************************
     48           * 全局变量
     49           */

   \                                 In  segment XDATA_Z, align 1, keep-with-next
     50          byte zclSampleSw_TaskID;                // 任务ID
   \                     zclSampleSw_TaskID:
   \   000000                DS 1
   \   000001                REQUIRE __INIT_XDATA_Z

   \                                 In  segment XDATA_Z, align 1, keep-with-next
     51          static uint8 blink_count = 0;          // 闪烁次数计数器
   \                     blink_count:
   \   000000                DS 1
   \   000001                REQUIRE __INIT_XDATA_Z

   \                                 In  segment XDATA_I, align 1, keep-with-next
     52          static uint8 LED_blink_count = 3;      // LED1闪烁次数
   \                     LED_blink_count:
   \   000000                DS 1
   \   000001                REQUIRE `?<Initializer for LED_blink_count>`
   \   000001                REQUIRE __INIT_XDATA_I

   \                                 In  segment XDATA_I, align 1, keep-with-next
     53          static uint8 Page = 1;                 // OLED屏幕页数
   \                     Page:
   \   000000                DS 1
   \   000001                REQUIRE `?<Initializer for Page>`
   \   000001                REQUIRE __INIT_XDATA_I
     54          #ifdef ZDO_COORDINATOR /* 协调器 */
     55          static uint8 *RXdata;                  //缓存接收到的终端地址（用于数据转换）
     56          static uint16 EndAddr1;                //转换后的终端地址1（十六进制数据）
     57          static uint16 EndAddr2;                //转换后的终端地址2（十六进制数据）
     58          static uint8 Temperature, Humidity, Guanzao, Turan;//接收到的温度、湿度、光照强度、土壤湿度（十进制数据）
     59          static uint16 CO2;                                 //CO2浓度
     60          static uint8 tempStr[3], humidityStr[3], CO2Str[6], TuranStr[3], GuanzaoStr[3];//转为字符串
     61          #else /* 终端 */

   \                                 In  segment XDATA_Z, align 1, keep-with-next
     62          static uint16 dataEndAddr;             //终端地址
   \                     dataEndAddr:
   \   000000                DS 2
   \   000002                REQUIRE __INIT_XDATA_Z

   \                                 In  segment XDATA_Z, align 1, keep-with-next
     63          static uint8 sendEndAddr[2];           //发送出去的终端地址
   \                     sendEndAddr:
   \   000000                DS 2
   \   000002                REQUIRE __INIT_XDATA_Z

   \                                 In  segment XDATA_Z, align 1, keep-with-next
     64          static uint8 DHT_Data[2];              //发送出去的温湿度
   \                     DHT_Data:
   \   000000                DS 2
   \   000002                REQUIRE __INIT_XDATA_Z

   \                                 In  segment XDATA_Z, align 1, keep-with-next
     65          static uint8 TURANSIDU_Data[1];             //发送出去的土壤湿度
   \                     TURANSIDU_Data:
   \   000000                DS 1
   \   000001                REQUIRE __INIT_XDATA_Z

   \                                 In  segment XDATA_Z, align 1, keep-with-next
     66          static uint8 GUANZAO_Data[1];               //发送出去的光照强度
   \                     GUANZAO_Data:
   \   000000                DS 1
   \   000001                REQUIRE __INIT_XDATA_Z

   \                                 In  segment XDATA_Z, align 1, keep-with-next
     67          static uint16 CO2_Data[1];                  //CO2ppm
   \                     CO2_Data:
   \   000000                DS 2
   \   000002                REQUIRE __INIT_XDATA_Z
     68          //static uint16 TVOC_Data[1];                 //TVOC

   \                                 In  segment XDATA_Z, align 1, keep-with-next
     69          static uint8 CO2_u8Data[2];                 //发送出去的CO2ppm(uint16类型需要拆分为两个uint8类型来发送)
   \                     CO2_u8Data:
   \   000000                DS 2
   \   000002                REQUIRE __INIT_XDATA_Z
     70          #endif
     71          
     72          // Endpoint to allow SYS_APP_MSGs

   \                                 In  segment XDATA_I, align 1, keep-with-next
     73          static endPointDesc_t sampleSw_TestEp =
   \                     sampleSw_TestEp:
   \   000000                DS 7
   \   000007                REQUIRE `?<Initializer for sampleSw_TestEp>`
   \   000007                REQUIRE __INIT_XDATA_I
     74          {
     75            SAMPLESW_ENDPOINT,                  // endpoint
     76            0,
     77            &zclSampleSw_TaskID,
     78            (SimpleDescriptionFormat_t *)&zclSampleSw_SimpleDesc,  // No Simple description for this test endpoint
     79            (afNetworkLatencyReq_t)0            // No Network Latency req
     80          };
     81          
     82          /*********************************************************************
     83           * 函数声明
     84           */
     85          // LED初始化函数
     86          static void LED_Init(void);
     87          // 按键初始化函数
     88          static void KEY_Init(void);
     89          // 按键翻页函数
     90          static void Key_turnPage(void);
     91          // 事件处理函数
     92          static void MyApp_ProcessCommissioningStatus(bdbCommissioningModeMsg_t *bdbCommissioningModeMsg);
     93          // 信息接收函数
     94          static void zclSampleSw_AF_RxProc(afIncomingMSGPacket_t *MSGpkt);
     95          //电机控制函数
     96          static void MOTOR_Control(uint8 motorState);
     97          
     98          #ifdef ZDO_COORDINATOR /***** 协调器 ***** *********/
     99          // 协调器→终端 单播函数
    100          static void zclSampleSw_AF_C2E(uint16 destNwkAddr, uint16 cid, uint8 len, uint8 *data);
    101          // 接收到温湿度数据处理函数
    102          static void RX_DHT(afIncomingMSGPacket_t *MSGpkt);
    103          // 接收到土壤湿度数据处理函数
    104          static void RX_TURANSIDU(afIncomingMSGPacket_t *MSGpkt);
    105          // 接收到光照强度数据处理函数
    106          static void RX_GUANZAO(afIncomingMSGPacket_t *MSGpkt);
    107          // 接收到CO2ppm数据处理函数
    108          static void RX_CO2(afIncomingMSGPacket_t *MSGpkt);
    109          // 发送汇集的传感器数据函数
    110          static void TX_ALLsensor_DATA(uint8 Temperature_data, uint8 Humidity_data, uint16 CO2_data, uint8 Guanzao_data, uint8 Turan_data);
    111          // 16进制转字符串
    112          static void Hex2Str_EndAddr(void);
    113          // 接收控制命令函数
    114          static void RX_Ctrl_CMD(void);
    115          #else /*********************** 终端 ****************/
    116          // 发送终端地址函数
    117          static void zclSampleSw_AF_EndAddr(uint16 destNwkAddr, uint16 cid, uint8 len, uint8 *data);
    118          // 终端→协调器 单播函数
    119          static void zclSampleSw_AF_E2C(uint16 destNwkAddr, uint16 cid, uint8 len, uint8 *data);
    120          static void getSENSORdata(void);
    121          #endif
    122          
    123          /*********************************************************************
    124           * @fn    zclSampleSw_Init（初始化）
    125           */

   \                                 In  segment BANKED_CODE, align 1, keep-with-next
    126          void zclSampleSw_Init( byte task_id )
   \                     zclSampleSw_Init:
    127          {
   \   000000   74F7         MOV       A,#-0x9
   \   000002   12....       LCALL     ?BANKED_ENTER_XDATA
   \   000005                ; Saved register size: 9
   \   000005                ; Auto size: 0
   \   000005   E9           MOV       A,R1
   \   000006   FE           MOV       R6,A
    128            zclSampleSw_TaskID = task_id;
   \   000007   90....       MOV       DPTR,#zclSampleSw_TaskID
   \   00000A   F0           MOVX      @DPTR,A
    129            // Register for all key events - This app will handle all key events
    130            RegisterForKeys( zclSampleSw_TaskID );
   \   00000B                ; Setup parameters for call to function RegisterForKeys
   \   00000B   12....       LCALL     `??RegisterForKeys::?relay`; Banked call to: RegisterForKeys
    131            // Register for a test endpoint
    132            afRegister( &sampleSw_TestEp );
   \   00000E                ; Setup parameters for call to function afRegister
   \   00000E   7A..         MOV       R2,#sampleSw_TestEp & 0xff
   \   000010   7B..         MOV       R3,#(sampleSw_TestEp >> 8) & 0xff
   \   000012   12....       LCALL     `??afRegister::?relay`; Banked call to: afRegister
    133            //注册一个回调函数，用于处理设备网络的调试状态变化
    134            bdb_RegisterCommissioningStatusCB( MyApp_ProcessCommissioningStatus );
   \   000015                ; Setup parameters for call to function bdb_RegisterCommissioningStatusCB
   \   000015   7A..         MOV       R2,#`??MyApp_ProcessCommissioningStatus::?relay` & 0xff
   \   000017   7B..         MOV       R3,#(`??MyApp_ProcessCommissioningStatus::?relay` >> 8) & 0xff
   \   000019   12....       LCALL     `??bdb_RegisterCommissioningStatusCB::?relay`; Banked call to: bdb_RegisterCommissioningStatusCB
    135            My_ClockInit_32MHZ();
   \   00001C                ; Setup parameters for call to function My_ClockInit_32MHZ
   \   00001C   12....       LCALL     `??My_ClockInit_32MHZ::?relay`; Banked call to: My_ClockInit_32MHZ
    136            MT_UartInit();//串口初始化
   \   00001F                ; Setup parameters for call to function MT_UartInit
   \   00001F   12....       LCALL     `??MT_UartInit::?relay`; Banked call to: MT_UartInit
    137            MT_UartRegisterTaskID(task_id);//注册串口任务ID
   \   000022                ; Setup parameters for call to function MT_UartRegisterTaskID
   \   000022   EE           MOV       A,R6
   \   000023   F9           MOV       R1,A
   \   000024   12....       LCALL     `??MT_UartRegisterTaskID::?relay`; Banked call to: MT_UartRegisterTaskID
    138            LED_Init();
   \   000027   53F4FB       ANL       0xf4,#0xfb
   \   00002A   43FE04       ORL       0xfe,#0x4
   \   00002D   D292         SETB      0x90.2
   \   00002F   53F4F7       ANL       0xf4,#0xf7
   \   000032   43FE08       ORL       0xfe,#0x8
   \   000035   D293         SETB      0x90.3
    139            KEY_Init();
   \   000037   53F47F       ANL       0xf4,#0x7f
   \   00003A   53FE7F       ANL       0xfe,#0x7f
   \   00003D   53F67F       ANL       0xf6,#0x7f
   \   000040                ; Setup parameters for call to function osal_start_timerEx
   \   000040   90....       MOV       DPTR,#__Constant_a
   \   000043   12....       LCALL     ?PUSH_XSTACK8_X_FOUR
   \   000046   7A04         MOV       R2,#0x4
   \   000048   7B00         MOV       R3,#0x0
   \   00004A   90....       MOV       DPTR,#zclSampleSw_TaskID
   \   00004D   E0           MOVX      A,@DPTR
   \   00004E   F9           MOV       R1,A
   \   00004F   12....       LCALL     `??osal_start_timerEx::?relay`; Banked call to: osal_start_timerEx
   \   000052   7404         MOV       A,#0x4
   \   000054   12....       LCALL     ?DEALLOC_XSTACK8
    140            //入网设置
    141          #ifdef ZDO_COORDINATOR/* 协调器 */
    142            //组网函数
    143            bdb_StartCommissioning( BDB_COMMISSIONING_MODE_NWK_FORMATION |
    144                                    BDB_COMMISSIONING_MODE_FINDING_BINDING );
    145          
    146            NLME_PermitJoiningRequest(0xFF);//永久允许入网
    147           
    148          #else                 /* 终端 */
    149            bdb_StartCommissioning( BDB_COMMISSIONING_MODE_NWK_STEERING |
    150                                    BDB_COMMISSIONING_MODE_FINDING_BINDING );
   \   000057                ; Setup parameters for call to function bdb_StartCommissioning
   \   000057   790A         MOV       R1,#0xa
   \   000059   12....       LCALL     `??bdb_StartCommissioning::?relay`; Banked call to: bdb_StartCommissioning
    151          #endif
    152                              //初始化设置
    153          #ifdef ZDO_COORDINATOR /***** 协调器 ***** *********/
    154              OLED_IIC_Init();            //初始化OLED屏IIC接口
    155              OLED_Init();                //初始化OLED屏 
    156              OLED_Init_UI(Page);         //初始UI为第一页
    157            // 协调器→终端
    158            osal_start_timerEx(zclSampleSw_TaskID, 
    159                               SAMPLEAPP_C2E_EVT, 
    160                               SAMPLEAPP_C2E_PERIOD);
    161            // 接收上位机串口信息事件
    162            osal_start_timerEx(zclSampleSw_TaskID, 
    163                               MYAPP_UART_RX_EVT, 
    164                               MYAPP_UART_RX_PERIOD);
    165            // 发送汇集的传感器数据到上位机事件
    166            osal_start_timerEx(zclSampleSw_TaskID, 
    167                               MYAPP_UART_TX_ALLssr_EVT, 
    168                               MYAPP_UART_TX_ALLssr_PERIOD);
    169          #else /*********************** 终端 ****************/
    170              Timer3_Start();             //开启定时器3、中断
   \   00005C                ; Setup parameters for call to function Timer3_Start
   \   00005C   12....       LCALL     `??Timer3_Start::?relay`; Banked call to: Timer3_Start
    171              
    172              SGP30_Init();
   \   00005F                ; Setup parameters for call to function SGP30_Init
   \   00005F   12....       LCALL     `??SGP30_Init::?relay`; Banked call to: SGP30_Init
    173              
    174              ZeYanWan_MOTOR_Init();      //遮阳网初始化
   \   000062                ; Setup parameters for call to function ZeYanWan_MOTOR_Init
   \   000062   12....       LCALL     `??ZeYanWan_MOTOR_Init::?relay`; Banked call to: ZeYanWan_MOTOR_Init
    175            osal_start_timerEx(zclSampleSw_TaskID, 
    176                                 MYAPP_getSENSORdata_EVT, 
    177                                 MYAPP_getSENSORdata_PERIOD);
   \   000065                ; Setup parameters for call to function osal_start_timerEx
   \   000065   90....       MOV       DPTR,#__Constant_3e8
   \   000068   12....       LCALL     ?PUSH_XSTACK8_X_FOUR
   \   00006B   7A00         MOV       R2,#0x0
   \   00006D   7B04         MOV       R3,#0x4
   \   00006F   90....       MOV       DPTR,#zclSampleSw_TaskID
   \   000072   E0           MOVX      A,@DPTR
   \   000073   F9           MOV       R1,A
   \   000074   12....       LCALL     `??osal_start_timerEx::?relay`; Banked call to: osal_start_timerEx
   \   000077   7404         MOV       A,#0x4
   \   000079   12....       LCALL     ?DEALLOC_XSTACK8
    178          #endif
    179          }
   \   00007C                REQUIRE ?Subroutine0
   \   00007C                REQUIRE P1SEL
   \   00007C                REQUIRE P1DIR
   \   00007C                REQUIRE P1INP
   \   00007C                REQUIRE _A_P1
   \   00007C                ; // Fall through to label ?Subroutine0

   \                                 In  segment BANKED_CODE, align 1, keep-with-next
   \                     ?Subroutine0:
   \   000000   7F01         MOV       R7,#0x1
   \   000002   02....       LJMP      ?BANKED_LEAVE_XDATA
    180          
    181          /*********************************************************************
    182           *                      事件处理函数
    183           */

   \                                 In  segment BANKED_CODE, align 1, keep-with-next
    184          uint16 zclSampleSw_event_loop( byte task_id, UINT16 events )
   \                     zclSampleSw_event_loop:
    185          {
   \   000000                REQUIRE ?V0
   \   000000                REQUIRE ?V1
   \   000000                REQUIRE ?V2
   \   000000                REQUIRE ?V3
   \   000000                REQUIRE ?V4
   \   000000                REQUIRE ?V5
   \   000000                REQUIRE ?V6
   \   000000                REQUIRE ?V7
   \   000000   74F0         MOV       A,#-0x10
   \   000002   12....       LCALL     ?BANKED_ENTER_XDATA
   \   000005                ; Saved register size: 16
   \   000005                ; Auto size: 18
   \   000005   74EE         MOV       A,#-0x12
   \   000007   12....       LCALL     ?ALLOC_XSTACK8
   \   00000A   EA           MOV       A,R2
   \   00000B   FE           MOV       R6,A
   \   00000C   EB           MOV       A,R3
   \   00000D   FF           MOV       R7,A
    186            afIncomingMSGPacket_t *MSGpkt;
    187            (void)task_id;  // Intentionally unreferenced parameter
    188          
    189            if ( events & SYS_EVENT_MSG )
   \   00000E   5480         ANL       A,#0x80
   \   000010   7031         JNZ       ??zclSampleSw_event_loop_0
    190            {
    191              while ( (MSGpkt = (afIncomingMSGPacket_t *)osal_msg_receive( zclSampleSw_TaskID )) )
    192              {
    193                switch ( MSGpkt->hdr.event )
    194                {
    195                  case AF_INCOMING_MSG_CMD:
    196                    zclSampleSw_AF_RxProc( MSGpkt );
    197                    break;
    198          
    199                  default:
    200                    break;
    201                }
    202          
    203                // Release the memory
    204                osal_msg_deallocate( (uint8 *)MSGpkt );
    205              }
    206          
    207              // return unprocessed events
    208              return (events ^ SYS_EVENT_MSG);
    209            }
    210          
    211          #ifdef ZDO_COORDINATOR /* 协调器 */
    212            // 协调器→终端
    213            if ( events & SAMPLEAPP_C2E_EVT )
    214            {
    215              zclSampleSw_AF_C2E(EndAddr1, CLUSTER_C2E, 5, "C2E1");
    216              zclSampleSw_AF_C2E(EndAddr2, CLUSTER_C2E, 5, "C2E2");
    217              //循环执行此事件
    218          //    osal_start_timerEx(zclSampleSw_TaskID, 
    219          //                     SAMPLEAPP_C2E_EVT, 
    220          //                     SAMPLEAPP_C2E_PERIOD);
    221              
    222              return ( events ^ SAMPLEAPP_C2E_EVT );
    223            }
    224            if ( events & MYAPP_UART_TX_ALLssr_EVT )
    225            {
    226               TX_ALLsensor_DATA(Temperature, Humidity, CO2, Guanzao, Turan);
    227               osal_start_timerEx(zclSampleSw_TaskID, 
    228                                  MYAPP_UART_TX_ALLssr_EVT, 
    229                                  MYAPP_UART_TX_ALLssr_PERIOD);
    230              return (events ^ MYAPP_UART_TX_ALLssr_EVT);
    231            }
    232            if ( events & MYAPP_UART_RX_EVT )
    233            {
    234               RX_Ctrl_CMD();
    235               osal_start_timerEx(zclSampleSw_TaskID, 
    236                                  MYAPP_UART_RX_EVT, 
    237                                  MYAPP_UART_RX_PERIOD);
    238              return (events ^ MYAPP_UART_RX_EVT);
    239            }
    240            
    241          #else   /* 终端 */
    242            //终端重新加入网络事件
    243            if ( events & MYAPP_WEB_REJOIN_EVT )
   \   000012   EE           MOV       A,R6
   \   000013   5480         ANL       A,#0x80
   \   000015   7003         JNZ       $+5
   \   000017   02....       LJMP      ??zclSampleSw_event_loop_1 & 0xFFFF
    244            {
    245             printf("正在申请加入网络！\r\n");
   \   00001A                ; Setup parameters for call to function printf
   \   00001A   7A..         MOV       R2,#`?<Constant "\\325\\375\\324\\332\\311\\352\\307\\353\\2` & 0xff
   \   00001C   7B..         MOV       R3,#(`?<Constant "\\325\\375\\324\\332\\311\\352\\307\\353\\2` >> 8) & 0xff
   \   00001E   12....       LCALL     `??printf::?relay`; Banked call to: printf
    246             bdb_ZedAttemptRecoverNwk();//终端设备尝试恢复网络连接
   \   000021                ; Setup parameters for call to function bdb_ZedAttemptRecoverNwk
   \   000021   12....       LCALL     `??bdb_ZedAttemptRecoverNwk::?relay`; Banked call to: bdb_ZedAttemptRecoverNwk
    247          //   bdb_StartCommissioning(BDB_COMMISSIONING_MODE_NWK_STEERING |
    248          //                          BDB_COMMISSIONING_MODE_FINDING_BINDING );
    249              return ( events ^ MYAPP_WEB_REJOIN_EVT );
   \   000024   EE           MOV       A,R6
   \   000025   6480         XRL       A,#0x80
   \   000027   02....       LJMP      ??zclSampleSw_event_loop_2 & 0xFFFF
   \                     ??zclSampleSw_event_loop_3:
   \   00002A                ; Setup parameters for call to function printf
    250            }
   \   00002A   12....       LCALL     ?Subroutine1 & 0xFFFF
   \                     ??CrossCallReturnLabel_0:
   \   00002D   12....       LCALL     ?PUSH_XSTACK8_X_TWO
   \   000030   7A..         MOV       R2,#`?<Constant "\\275\\323\\312\\325\\265\\275\\320\\255\\2` & 0xff
   \   000032   7B..         MOV       R3,#(`?<Constant "\\275\\323\\312\\325\\265\\275\\320\\255\\2` >> 8) & 0xff
   \   000034   12....       LCALL     `??printf::?relay`; Banked call to: printf
   \   000037   7402         MOV       A,#0x2
   \   000039   12....       LCALL     ?DEALLOC_XSTACK8
   \                     ??zclSampleSw_event_loop_4:
   \   00003C                ; Setup parameters for call to function osal_msg_deallocate
   \   00003C   AA..         MOV       R2,?V0
   \   00003E   AB..         MOV       R3,?V1
   \   000040   12....       LCALL     `??osal_msg_deallocate::?relay`; Banked call to: osal_msg_deallocate
   \                     ??zclSampleSw_event_loop_0:
   \   000043                ; Setup parameters for call to function osal_msg_receive
   \   000043   90....       MOV       DPTR,#zclSampleSw_TaskID
   \   000046   E0           MOVX      A,@DPTR
   \   000047   F9           MOV       R1,A
   \   000048   12....       LCALL     `??osal_msg_receive::?relay`; Banked call to: osal_msg_receive
   \   00004B   8A..         MOV       ?V0,R2
   \   00004D   8B..         MOV       ?V1,R3
   \   00004F   EA           MOV       A,R2
   \   000050   45..         ORL       A,?V1
   \   000052   604C         JZ        ??zclSampleSw_event_loop_5
   \   000054   8A82         MOV       DPL,R2
   \   000056   8B83         MOV       DPH,R3
   \   000058   E0           MOVX      A,@DPTR
   \   000059   641A         XRL       A,#0x1a
   \   00005B   70DF         JNZ       ??zclSampleSw_event_loop_4
   \   00005D   A3           INC       DPTR
   \   00005E   A3           INC       DPTR
   \   00005F   A3           INC       DPTR
   \   000060   A3           INC       DPTR
   \   000061   E0           MOVX      A,@DPTR
   \   000062   F5..         MOV       ?V2,A
   \   000064   A3           INC       DPTR
   \   000065   E0           MOVX      A,@DPTR
   \   000066   F5..         MOV       ?V3,A
   \   000068   78..         MOV       R0,#?V2
   \   00006A   12....       LCALL     ?US_SWITCH_SPARSE
   \                     `?<Jumptable for zclSampleSw_event_loop>_0`:
   \   00006D   0000         DW        0
   \   00006F   0200         DW        2
   \   000071   0000         DW        0
   \   000073   ....         DW        ??zclSampleSw_event_loop_3
   \   000075   0600         DW        6
   \   000077   ....         DW        ??zclSampleSw_event_loop_6
   \   000079   ....         DW        ??zclSampleSw_event_loop_4
   \                     ??zclSampleSw_event_loop_6:
   \   00007B   EA           MOV       A,R2
   \   00007C   2420         ADD       A,#0x20
   \   00007E   F582         MOV       DPL,A
   \   000080   E4           CLR       A
   \   000081   35..         ADDC      A,?V1
   \   000083   F583         MOV       DPH,A
   \   000085   E0           MOVX      A,@DPTR
   \   000086   F8           MOV       R0,A
   \   000087   A3           INC       DPTR
   \   000088   E0           MOVX      A,@DPTR
   \   000089   F9           MOV       R1,A
   \   00008A   E8           MOV       A,R0
   \   00008B   49           ORL       A,R1
   \   00008C   60AE         JZ        ??zclSampleSw_event_loop_4
   \   00008E                ; Setup parameters for call to function MOTOR_Control
   \   00008E   12....       LCALL     ?Subroutine1 & 0xFFFF
   \                     ??CrossCallReturnLabel_1:
   \   000091   E0           MOVX      A,@DPTR
   \   000092   F8           MOV       R0,A
   \   000093   A3           INC       DPTR
   \   000094   E0           MOVX      A,@DPTR
   \   000095   F583         MOV       DPH,A
   \   000097   8882         MOV       DPL,R0
   \   000099   E0           MOVX      A,@DPTR
   \   00009A   F9           MOV       R1,A
   \   00009B   12....       LCALL     `??MOTOR_Control::?relay`; Banked call to: MOTOR_Control
   \   00009E   809C         SJMP      ??zclSampleSw_event_loop_4
   \                     ??zclSampleSw_event_loop_5:
   \   0000A0   EE           MOV       A,R6
   \   0000A1   FA           MOV       R2,A
   \   0000A2   EF           MOV       A,R7
   \   0000A3   6480         XRL       A,#0x80
   \   0000A5   02....       LJMP      ??zclSampleSw_event_loop_7 & 0xFFFF
    251          
    252             // 发送终端地址事件
    253            if ( events & SAMPLEAPP_EndAddr_EVT )
   \                     ??zclSampleSw_event_loop_1:
   \   0000A8   EF           MOV       A,R7
   \   0000A9   5402         ANL       A,#0x2
   \   0000AB   7003         JNZ       $+5
   \   0000AD   02....       LJMP      ??zclSampleSw_event_loop_8 & 0xFFFF
    254            {
    255              zclSampleSw_AF_EndAddr(0x0000, CLUSTER_EndAddr, sizeof(sendEndAddr), sendEndAddr);
   \   0000B0   740E         MOV       A,#0xe
   \   0000B2   12....       LCALL     ?XSTACK_DISP0_8
   \   0000B5   7402         MOV       A,#0x2
   \   0000B7   F0           MOVX      @DPTR,A
   \   0000B8   7406         MOV       A,#0x6
   \   0000BA   12....       LCALL     ?XSTACK_DISP0_8
   \   0000BD   E4           CLR       A
   \   0000BE   F0           MOVX      @DPTR,A
   \   0000BF   A3           INC       DPTR
   \   0000C0   F0           MOVX      @DPTR,A
   \   0000C1   740F         MOV       A,#0xf
   \   0000C3   12....       LCALL     ?XSTACK_DISP0_8
   \   0000C6   7408         MOV       A,#0x8
   \   0000C8   F0           MOVX      @DPTR,A
   \   0000C9                ; Setup parameters for call to function NLME_GetShortAddr
   \   0000C9   12....       LCALL     `??NLME_GetShortAddr::?relay`; Banked call to: NLME_GetShortAddr
   \   0000CC   90....       MOV       DPTR,#dataEndAddr
   \   0000CF   EA           MOV       A,R2
   \   0000D0   F0           MOVX      @DPTR,A
   \   0000D1   A3           INC       DPTR
   \   0000D2   EB           MOV       A,R3
   \   0000D3   F0           MOVX      @DPTR,A
   \   0000D4   90....       MOV       DPTR,#sendEndAddr
   \   0000D7   F0           MOVX      @DPTR,A
   \   0000D8   90....       MOV       DPTR,#dataEndAddr
   \   0000DB   E0           MOVX      A,@DPTR
   \   0000DC   90....       MOV       DPTR,#sendEndAddr + 1
   \   0000DF   F0           MOVX      @DPTR,A
   \   0000E0                ; Setup parameters for call to function printf
   \   0000E0   90....       MOV       DPTR,#dataEndAddr
   \   0000E3   12....       LCALL     ?PUSH_XSTACK8_X_TWO
   \   0000E6   7A..         MOV       R2,#`?<Constant "\\261\\276\\326\\325\\266\\313\\266\\314\\2` & 0xff
   \   0000E8   7B..         MOV       R3,#(`?<Constant "\\261\\276\\326\\325\\266\\313\\266\\314\\2` >> 8) & 0xff
   \   0000EA   12....       LCALL     `??printf::?relay`; Banked call to: printf
   \   0000ED   7402         MOV       A,#0x2
   \   0000EF   12....       LCALL     ?DEALLOC_XSTACK8
   \   0000F2   90....       MOV       DPTR,#??transferId
   \   0000F5   12....       LCALL     ?Subroutine2 & 0xFFFF
   \                     ??CrossCallReturnLabel_2:
   \   0000F8   12....       LCALL     ?PUSH_XSTACK_I_ONE
   \   0000FB   75....       MOV       ?V0,#??transferId & 0xff
   \   0000FE   75....       MOV       ?V1,#(??transferId >> 8) & 0xff
   \   000101   78..         MOV       R0,#?V0
   \   000103   12....       LCALL     ?PUSH_XSTACK_I_TWO
   \   000106   75....       MOV       ?V0,#sendEndAddr & 0xff
   \   000109   75....       MOV       ?V1,#(sendEndAddr >> 8) & 0xff
   \   00010C   78..         MOV       R0,#?V0
   \   00010E   12....       LCALL     ?PUSH_XSTACK_I_TWO
   \   000111   75..02       MOV       ?V0,#0x2
   \   000114   75..00       MOV       ?V1,#0x0
   \   000117   78..         MOV       R0,#?V0
   \   000119   12....       LCALL     ?PUSH_XSTACK_I_TWO
   \   00011C   78..         MOV       R0,#?V0
   \   00011E   12....       LCALL     ?PUSH_XSTACK_I_TWO
   \   000121   7900         MOV       R1,#0x0
   \   000123   7C..         MOV       R4,#sampleSw_TestEp & 0xff
   \   000125   7D..         MOV       R5,#(sampleSw_TestEp >> 8) & 0xff
   \   000127   740F         MOV       A,#0xf
   \   000129   12....       LCALL     ?XSTACK_DISP101_8
   \   00012C   12....       LCALL     `??AF_DataRequest::?relay`; Banked call to: AF_DataRequest
   \   00012F   7409         MOV       A,#0x9
   \   000131   12....       LCALL     ?DEALLOC_XSTACK8
    256              return ( events ^ SAMPLEAPP_EndAddr_EVT );
   \   000134   EE           MOV       A,R6
   \   000135   FA           MOV       R2,A
   \   000136   EF           MOV       A,R7
   \   000137   6402         XRL       A,#0x2
   \   000139   02....       LJMP      ??zclSampleSw_event_loop_7 & 0xFFFF
    257            }
    258            
    259            // 终端→协调器
    260            if ( events & SAMPLEAPP_E2C_EVT )
   \                     ??zclSampleSw_event_loop_8:
   \   00013C   EF           MOV       A,R7
   \   00013D   5401         ANL       A,#0x1
   \   00013F   7003         JNZ       $+5
   \   000141   02....       LJMP      ??zclSampleSw_event_loop_9 & 0xFFFF
    261            {
    262              zclSampleSw_AF_E2C(0x0000,
    263                                 CLUSTER_RX_DHT,
    264                                 sizeof(DHT_Data), 
    265                                 DHT_Data);//发送温湿度
   \   000144                ; Setup parameters for call to function zclSampleSw_AF_E2C
   \   000144   75....       MOV       ?V0,#DHT_Data & 0xff
   \   000147   75....       MOV       ?V1,#(DHT_Data >> 8) & 0xff
   \   00014A   78..         MOV       R0,#?V0
   \   00014C   12....       LCALL     ?PUSH_XSTACK_I_TWO
   \   00014F   7902         MOV       R1,#0x2
   \   000151   7C05         MOV       R4,#0x5
   \   000153   7D00         MOV       R5,#0x0
   \   000155   7A00         MOV       R2,#0x0
   \   000157   7B00         MOV       R3,#0x0
   \   000159   12....       LCALL     `??zclSampleSw_AF_E2C::?relay`; Banked call to: zclSampleSw_AF_E2C
   \   00015C   7402         MOV       A,#0x2
   \   00015E   12....       LCALL     ?DEALLOC_XSTACK8
    266              zclSampleSw_AF_E2C(0x0000,
    267                                 CLUSTER_RX_TURANSIDU,
    268                                 sizeof(TURANSIDU_Data), 
    269                                 TURANSIDU_Data);//发送土壤湿度
   \   000161                ; Setup parameters for call to function zclSampleSw_AF_E2C
   \   000161   75....       MOV       ?V0,#TURANSIDU_Data & 0xff
   \   000164   75....       MOV       ?V1,#(TURANSIDU_Data >> 8) & 0xff
   \   000167   78..         MOV       R0,#?V0
   \   000169   12....       LCALL     ?PUSH_XSTACK_I_TWO
   \   00016C   7901         MOV       R1,#0x1
   \   00016E   7C07         MOV       R4,#0x7
   \   000170   7D00         MOV       R5,#0x0
   \   000172   7A00         MOV       R2,#0x0
   \   000174   7B00         MOV       R3,#0x0
   \   000176   12....       LCALL     `??zclSampleSw_AF_E2C::?relay`; Banked call to: zclSampleSw_AF_E2C
   \   000179   7402         MOV       A,#0x2
   \   00017B   12....       LCALL     ?DEALLOC_XSTACK8
    270              zclSampleSw_AF_E2C(0x0000,
    271                                 CLUSTER_RX_GUANZAO,
    272                                 sizeof(GUANZAO_Data), 
    273                                 GUANZAO_Data);//发送光照强度
   \   00017E                ; Setup parameters for call to function zclSampleSw_AF_E2C
   \   00017E   75....       MOV       ?V0,#GUANZAO_Data & 0xff
   \   000181   75....       MOV       ?V1,#(GUANZAO_Data >> 8) & 0xff
   \   000184   78..         MOV       R0,#?V0
   \   000186   12....       LCALL     ?PUSH_XSTACK_I_TWO
   \   000189   7901         MOV       R1,#0x1
   \   00018B   7C08         MOV       R4,#0x8
   \   00018D   7D00         MOV       R5,#0x0
   \   00018F   7A00         MOV       R2,#0x0
   \   000191   7B00         MOV       R3,#0x0
   \   000193   12....       LCALL     `??zclSampleSw_AF_E2C::?relay`; Banked call to: zclSampleSw_AF_E2C
   \   000196   7402         MOV       A,#0x2
   \   000198   12....       LCALL     ?DEALLOC_XSTACK8
    274              zclSampleSw_AF_E2C(0x0000,
    275                                 CLUSTER_RX_CO2,
    276                                 sizeof(CO2_u8Data), 
    277                                 CO2_u8Data);//发送CO2ppm
   \   00019B                ; Setup parameters for call to function zclSampleSw_AF_E2C
   \   00019B   75....       MOV       ?V0,#CO2_u8Data & 0xff
   \   00019E   75....       MOV       ?V1,#(CO2_u8Data >> 8) & 0xff
   \   0001A1   78..         MOV       R0,#?V0
   \   0001A3   12....       LCALL     ?PUSH_XSTACK_I_TWO
   \   0001A6   7902         MOV       R1,#0x2
   \   0001A8   7C09         MOV       R4,#0x9
   \   0001AA   7D00         MOV       R5,#0x0
   \   0001AC   7A00         MOV       R2,#0x0
   \   0001AE   7B00         MOV       R3,#0x0
   \   0001B0   12....       LCALL     `??zclSampleSw_AF_E2C::?relay`; Banked call to: zclSampleSw_AF_E2C
   \   0001B3   7402         MOV       A,#0x2
   \   0001B5   12....       LCALL     ?DEALLOC_XSTACK8
    278              
    279              osal_start_timerEx(zclSampleSw_TaskID, 
    280                                 SAMPLEAPP_E2C_EVT, 
    281                                 SAMPLEAPP_E2C_PERIOD);
   \   0001B8                ; Setup parameters for call to function osal_start_timerEx
   \   0001B8   90....       MOV       DPTR,#__Constant_3e8
   \   0001BB   12....       LCALL     ?PUSH_XSTACK8_X_FOUR
   \   0001BE   7A00         MOV       R2,#0x0
   \   0001C0   7B01         MOV       R3,#0x1
   \   0001C2   90....       MOV       DPTR,#zclSampleSw_TaskID
   \   0001C5   E0           MOVX      A,@DPTR
   \   0001C6   F9           MOV       R1,A
   \   0001C7   12....       LCALL     `??osal_start_timerEx::?relay`; Banked call to: osal_start_timerEx
   \   0001CA   7404         MOV       A,#0x4
   \   0001CC   12....       LCALL     ?DEALLOC_XSTACK8
    282              
    283              return ( events ^ SAMPLEAPP_E2C_EVT );
   \   0001CF   EE           MOV       A,R6
   \   0001D0   FA           MOV       R2,A
   \   0001D1   EF           MOV       A,R7
   \   0001D2   6401         XRL       A,#0x1
   \   0001D4   02....       LJMP      ??zclSampleSw_event_loop_7 & 0xFFFF
    284            }
    285            // 传感器采集事件
    286            if ( events & MYAPP_getSENSORdata_EVT )
   \                     ??zclSampleSw_event_loop_9:
   \   0001D7   EF           MOV       A,R7
   \   0001D8   5404         ANL       A,#0x4
   \   0001DA   6075         JZ        ??zclSampleSw_event_loop_10
    287            {
    288              getSENSORdata();
   \   0001DC                ; Setup parameters for call to function Get_DHT_DATA
   \   0001DC   AA..         MOV       R2,?XSP + 0
   \   0001DE   AB..         MOV       R3,?XSP + 1
   \   0001E0   12....       LCALL     `??Get_DHT_DATA::?relay`; Banked call to: Get_DHT_DATA
   \   0001E3                ; Setup parameters for call to function Get_SGP_DATA
   \   0001E3   7402         MOV       A,#0x2
   \   0001E5   12....       LCALL     ?XSTACK_DISP101_8
   \   0001E8   12....       LCALL     `??Get_SGP_DATA::?relay`; Banked call to: Get_SGP_DATA
   \   0001EB   85..82       MOV       DPL,?XSP + 0
   \   0001EE   85..83       MOV       DPH,?XSP + 1
   \   0001F1   E0           MOVX      A,@DPTR
   \   0001F2   90....       MOV       DPTR,#DHT_Data
   \   0001F5   F0           MOVX      @DPTR,A
   \   0001F6   7401         MOV       A,#0x1
   \   0001F8   12....       LCALL     ?XSTACK_DISP0_8
   \   0001FB   E0           MOVX      A,@DPTR
   \   0001FC   90....       MOV       DPTR,#DHT_Data + 1
   \   0001FF   F0           MOVX      @DPTR,A
   \   000200   7402         MOV       A,#0x2
   \   000202   12....       LCALL     ?XSTACK_DISP0_8
   \   000205   E0           MOVX      A,@DPTR
   \   000206   F8           MOV       R0,A
   \   000207   A3           INC       DPTR
   \   000208   E0           MOVX      A,@DPTR
   \   000209   F9           MOV       R1,A
   \   00020A   90....       MOV       DPTR,#CO2_Data
   \   00020D   E8           MOV       A,R0
   \   00020E   F0           MOVX      @DPTR,A
   \   00020F   A3           INC       DPTR
   \   000210   E9           MOV       A,R1
   \   000211   F0           MOVX      @DPTR,A
   \   000212                ; Setup parameters for call to function Get_GUANZAOQIANDU_DATA
   \   000212   12....       LCALL     `??Get_GUANZAOQIANDU_DATA::?relay`; Banked call to: Get_GUANZAOQIANDU_DATA
   \   000215   E9           MOV       A,R1
   \   000216   90....       MOV       DPTR,#GUANZAO_Data
   \   000219   F0           MOVX      @DPTR,A
   \   00021A                ; Setup parameters for call to function Get_TURANSIDU_DATA
   \   00021A   12....       LCALL     `??Get_TURANSIDU_DATA::?relay`; Banked call to: Get_TURANSIDU_DATA
   \   00021D   E9           MOV       A,R1
   \   00021E   90....       MOV       DPTR,#TURANSIDU_Data
   \   000221   F0           MOVX      @DPTR,A
   \   000222   90....       MOV       DPTR,#CO2_Data + 1
   \   000225   E0           MOVX      A,@DPTR
   \   000226   90....       MOV       DPTR,#CO2_u8Data
   \   000229   F0           MOVX      @DPTR,A
   \   00022A   90....       MOV       DPTR,#CO2_Data
   \   00022D   E0           MOVX      A,@DPTR
   \   00022E   90....       MOV       DPTR,#CO2_u8Data + 1
   \   000231   F0           MOVX      @DPTR,A
    289              
    290              osal_start_timerEx(zclSampleSw_TaskID, 
    291                                 MYAPP_getSENSORdata_EVT, 
    292                                 MYAPP_getSENSORdata_PERIOD);
   \   000232                ; Setup parameters for call to function osal_start_timerEx
   \   000232   90....       MOV       DPTR,#__Constant_3e8
   \   000235   12....       LCALL     ?PUSH_XSTACK8_X_FOUR
   \   000238   7A00         MOV       R2,#0x0
   \   00023A   7B04         MOV       R3,#0x4
   \   00023C   90....       MOV       DPTR,#zclSampleSw_TaskID
   \   00023F   E0           MOVX      A,@DPTR
   \   000240   F9           MOV       R1,A
   \   000241   12....       LCALL     `??osal_start_timerEx::?relay`; Banked call to: osal_start_timerEx
   \   000244   7404         MOV       A,#0x4
   \   000246   12....       LCALL     ?DEALLOC_XSTACK8
    293              
    294              return ( events ^ MYAPP_getSENSORdata_EVT );
   \   000249   EE           MOV       A,R6
   \   00024A   FA           MOV       R2,A
   \   00024B   EF           MOV       A,R7
   \   00024C   6404         XRL       A,#0x4
   \   00024E   02....       LJMP      ??zclSampleSw_event_loop_7 & 0xFFFF
    295            }
    296          #endif
    297            
    298            if ( events & MYAPP_RETURN_LED_EVT )
   \                     ??zclSampleSw_event_loop_10:
   \   000251   EE           MOV       A,R6
   \   000252   A2E0         MOV       C,0xE0 /* A   */.0
   \   000254   5024         JNC       ??zclSampleSw_event_loop_11
    299            {
    300              // 置反LED1灯
    301              RETURN_LED(1);
   \   000256                ; Setup parameters for call to function RETURN_LED
   \   000256   7A01         MOV       R2,#0x1
   \   000258   7B00         MOV       R3,#0x0
   \   00025A   12....       LCALL     `??RETURN_LED::?relay`; Banked call to: RETURN_LED
    302              // 定时500毫秒后通知g_gateway_taskid任务有LED灯闪烁事件发生
    303              osal_start_timerEx(zclSampleSw_TaskID, MYAPP_RETURN_LED_EVT, 500);  
   \   00025D                ; Setup parameters for call to function osal_start_timerEx
   \   00025D   90....       MOV       DPTR,#__Constant_1f4
   \   000260   12....       LCALL     ?PUSH_XSTACK8_X_FOUR
   \   000263   7A01         MOV       R2,#0x1
   \   000265   7B00         MOV       R3,#0x0
   \   000267   90....       MOV       DPTR,#zclSampleSw_TaskID
   \   00026A   E0           MOVX      A,@DPTR
   \   00026B   F9           MOV       R1,A
   \   00026C   12....       LCALL     `??osal_start_timerEx::?relay`; Banked call to: osal_start_timerEx
   \   00026F   7404         MOV       A,#0x4
   \   000271   12....       LCALL     ?DEALLOC_XSTACK8
    304              return (events ^ MYAPP_RETURN_LED_EVT);
   \   000274   EE           MOV       A,R6
   \   000275   6401         XRL       A,#0x1
   \   000277   02....       LJMP      ??zclSampleSw_event_loop_2 & 0xFFFF
    305            }
    306            if(events & MYAPP_LED1_FLASH_EVT)
   \                     ??zclSampleSw_event_loop_11:
   \   00027A   5402         ANL       A,#0x2
   \   00027C   6052         JZ        ??zclSampleSw_event_loop_12
    307            {
    308              // 切换 LED1 的状态
    309              RETURN_LED(1);
   \   00027E                ; Setup parameters for call to function RETURN_LED
   \   00027E   7A01         MOV       R2,#0x1
   \   000280   7B00         MOV       R3,#0x0
   \   000282   12....       LCALL     `??RETURN_LED::?relay`; Banked call to: RETURN_LED
    310              // 增加闪烁次数计数器
    311              blink_count++;
   \   000285   90....       MOV       DPTR,#blink_count
   \   000288   E0           MOVX      A,@DPTR
   \   000289   04           INC       A
   \   00028A   F0           MOVX      @DPTR,A
    312              // 检查是否达到最大闪烁次数
    313              if (blink_count >= LED_blink_count * 2)// 每次闪烁包含 ON 和 OFF 两个状态 
   \   00028B   EE           MOV       A,R6
   \   00028C   6402         XRL       A,#0x2
   \   00028E   FE           MOV       R6,A
   \   00028F   E0           MOVX      A,@DPTR
   \   000290   FA           MOV       R2,A
   \   000291   90....       MOV       DPTR,#LED_blink_count
   \   000294   E0           MOVX      A,@DPTR
   \   000295   25E0         ADD       A,0xE0 /* A   */
   \   000297   F8           MOV       R0,A
   \   000298   E4           CLR       A
   \   000299   33           RLC       A
   \   00029A   F9           MOV       R1,A
   \   00029B   EA           MOV       A,R2
   \   00029C   98           SUBB      A,R0
   \   00029D   E4           CLR       A
   \   00029E   99           SUBB      A,R1
   \   00029F   C3           CLR       C
   \   0002A0   65D0         XRL       A,PSW
   \   0002A2   33           RLC       A
   \   0002A3   4010         JC        ??zclSampleSw_event_loop_13
    314              { 
    315                LED(1, ON);// 停止定时器并保持 LED1 亮灯状态
   \   0002A5                ; Setup parameters for call to function LED
   \   0002A5   7900         MOV       R1,#0x0
   \   0002A7   7A01         MOV       R2,#0x1
   \   0002A9   7B00         MOV       R3,#0x0
   \   0002AB   12....       LCALL     `??LED::?relay`  ; Banked call to: LED
    316                blink_count = 0;//计次清零
   \   0002AE   90....       MOV       DPTR,#blink_count
   \   0002B1   E4           CLR       A
   \   0002B2   F0           MOVX      @DPTR,A
    317                return (events ^ MYAPP_LED1_FLASH_EVT);
   \   0002B3   8017         SJMP      ??zclSampleSw_event_loop_14
    318               }
    319               osal_start_timerEx(zclSampleSw_TaskID, MYAPP_LED1_FLASH_EVT, 1000);
   \                     ??zclSampleSw_event_loop_13:
   \   0002B5                ; Setup parameters for call to function osal_start_timerEx
   \   0002B5   90....       MOV       DPTR,#__Constant_3e8
   \   0002B8   12....       LCALL     ?PUSH_XSTACK8_X_FOUR
   \   0002BB   7A02         MOV       R2,#0x2
   \   0002BD   7B00         MOV       R3,#0x0
   \   0002BF   90....       MOV       DPTR,#zclSampleSw_TaskID
   \   0002C2   E0           MOVX      A,@DPTR
   \   0002C3   F9           MOV       R1,A
   \   0002C4   12....       LCALL     `??osal_start_timerEx::?relay`; Banked call to: osal_start_timerEx
   \   0002C7   7404         MOV       A,#0x4
   \   0002C9   12....       LCALL     ?DEALLOC_XSTACK8
    320               return (events ^ MYAPP_LED1_FLASH_EVT);
   \                     ??zclSampleSw_event_loop_14:
   \   0002CC   EE           MOV       A,R6
   \   0002CD   02....       LJMP      ??zclSampleSw_event_loop_2 & 0xFFFF
    321            }     //LED灯闪烁事件的具体实现
    322          
    323            if (events & MYAPP_KEY_EVT) {
   \                     ??zclSampleSw_event_loop_12:
   \   0002D0   EE           MOV       A,R6
   \   0002D1   5404         ANL       A,#0x4
   \   0002D3   7003         JNZ       $+5
   \   0002D5   02....       LJMP      ??zclSampleSw_event_loop_15 & 0xFFFF
    324                  Key_turnPage();//按键翻页函数
   \   0002D8   A297         MOV       C,0x90.7
   \   0002DA   E4           CLR       A
   \   0002DB   33           RLC       A
   \   0002DC   F5..         MOV       ?V0,A
   \   0002DE   90....       MOV       DPTR,#??lastStableState
   \   0002E1   E0           MOVX      A,@DPTR
   \   0002E2   65..         XRL       A,?V0
   \   0002E4   6043         JZ        ??zclSampleSw_event_loop_16
   \   0002E6                ; Setup parameters for call to function osal_GetSystemClock
   \   0002E6   12....       LCALL     `??osal_GetSystemClock::?relay`; Banked call to: osal_GetSystemClock
   \   0002E9   8A..         MOV       ?V4,R2
   \   0002EB   8B..         MOV       ?V5,R3
   \   0002ED   8C..         MOV       ?V6,R4
   \   0002EF   8D..         MOV       ?V7,R5
   \   0002F1   90....       MOV       DPTR,#__Constant_15
   \   0002F4   C082         PUSH      DPL
   \   0002F6   90....       MOV       DPTR,#??lastKeyTime
   \   0002F9   78..         MOV       R0,#?V4
   \   0002FB   12....       LCALL     ?L_SUB_X
   \   0002FE   7583..       MOV       DPH,#(__Constant_15 >> 8) & 0xff
   \   000301   D082         POP       DPL
   \   000303   78..         MOV       R0,#?V4
   \   000305   12....       LCALL     ?UL_GE_X
   \   000308   5030         JNC       ??zclSampleSw_event_loop_17
   \   00030A   E5..         MOV       A,?V0
   \   00030C   90....       MOV       DPTR,#??lastStableState
   \   00030F   F0           MOVX      @DPTR,A
   \   000310   A2E0         MOV       C,0xE0 /* A   */.0
   \   000312   4026         JC        ??zclSampleSw_event_loop_17
   \   000314   90....       MOV       DPTR,#Page
   \   000317   E0           MOVX      A,@DPTR
   \   000318   04           INC       A
   \   000319   F0           MOVX      @DPTR,A
   \   00031A   C3           CLR       C
   \   00031B   9405         SUBB      A,#0x5
   \   00031D   4003         JC        ??zclSampleSw_event_loop_18
   \   00031F   7401         MOV       A,#0x1
   \   000321   F0           MOVX      @DPTR,A
   \                     ??zclSampleSw_event_loop_18:
   \   000322                ; Setup parameters for call to function OLED_Init_UI
   \   000322   E0           MOVX      A,@DPTR
   \   000323   F9           MOV       R1,A
   \   000324   12....       LCALL     `??OLED_Init_UI::?relay`; Banked call to: OLED_Init_UI
   \   000327   8011         SJMP      ??zclSampleSw_event_loop_17
   \                     ??zclSampleSw_event_loop_16:
   \   000329                ; Setup parameters for call to function osal_GetSystemClock
   \   000329   12....       LCALL     `??osal_GetSystemClock::?relay`; Banked call to: osal_GetSystemClock
   \   00032C   EA           MOV       A,R2
   \   00032D   F8           MOV       R0,A
   \   00032E   EB           MOV       A,R3
   \   00032F   F9           MOV       R1,A
   \   000330   EC           MOV       A,R4
   \   000331   FA           MOV       R2,A
   \   000332   ED           MOV       A,R5
   \   000333   FB           MOV       R3,A
   \   000334   90....       MOV       DPTR,#??lastKeyTime
   \   000337   12....       LCALL     ?XSTORE_R0123
   \                     ??zclSampleSw_event_loop_17:
   \   00033A                ; Setup parameters for call to function osal_start_timerEx
   \   00033A   90....       MOV       DPTR,#__Constant_a
   \   00033D   12....       LCALL     ?PUSH_XSTACK8_X_FOUR
   \   000340   7A04         MOV       R2,#0x4
   \   000342   7B00         MOV       R3,#0x0
   \   000344   90....       MOV       DPTR,#zclSampleSw_TaskID
   \   000347   E0           MOVX      A,@DPTR
   \   000348   F9           MOV       R1,A
   \   000349   12....       LCALL     `??osal_start_timerEx::?relay`; Banked call to: osal_start_timerEx
   \   00034C   7404         MOV       A,#0x4
   \   00034E   12....       LCALL     ?DEALLOC_XSTACK8
    325                  return (events ^ MYAPP_KEY_EVT);  // 清除已处理事件
   \   000351   EE           MOV       A,R6
   \   000352   6404         XRL       A,#0x4
   \                     ??zclSampleSw_event_loop_2:
   \   000354   FA           MOV       R2,A
   \   000355   EF           MOV       A,R7
   \                     ??zclSampleSw_event_loop_7:
   \   000356   FB           MOV       R3,A
   \   000357   8004         SJMP      ??zclSampleSw_event_loop_19
    326              }
    327            
    328            // Discard unknown events
    329            return 0;
   \                     ??zclSampleSw_event_loop_15:
   \   000359   7A00         MOV       R2,#0x0
   \   00035B   7B00         MOV       R3,#0x0
   \                     ??zclSampleSw_event_loop_19:
   \   00035D   7412         MOV       A,#0x12
   \   00035F   12....       LCALL     ?DEALLOC_XSTACK8
   \   000362   7F08         MOV       R7,#0x8
   \   000364   02....       LJMP      ?BANKED_LEAVE_XDATA
   \   000367                REQUIRE _A_P1
    330          }

   \                                 In  segment BANKED_CODE, align 1, keep-with-next
   \                     ?Subroutine1:
   \   000000   EA           MOV       A,R2
   \   000001   2422         ADD       A,#0x22
   \   000003   F582         MOV       DPL,A
   \   000005   E4           CLR       A
   \   000006   35..         ADDC      A,?V1
   \   000008   F583         MOV       DPH,A
   \   00000A   22           RET
    331          /*********************************************************************
    332           *       MyApp_ProcessCommissioningStatus //网络状态检查函数
    333           *
    334           *      处理 Zigbee 设备的调试（Commissioning）状态。
    335           *      根据调试模式的状态（如网络组建、网络加入等）执行相应的操作，
    336           *      例如启动网络、处理成功或失败的情况等。
    337           */

   \                                 In  segment BANKED_CODE, align 1, keep-with-next
    338          static void MyApp_ProcessCommissioningStatus(bdbCommissioningModeMsg_t *bdbCommissioningModeMsg)
   \                     MyApp_ProcessCommissioningStatus:
    339          {
   \   000000   74F7         MOV       A,#-0x9
   \   000002   12....       LCALL     ?BANKED_ENTER_XDATA
   \   000005                ; Saved register size: 9
   \   000005                ; Auto size: 0
   \   000005   EA           MOV       A,R2
   \   000006   FE           MOV       R6,A
   \   000007   EB           MOV       A,R3
   \   000008   FF           MOV       R7,A
    340            switch(bdbCommissioningModeMsg->bdbCommissioningMode)
   \   000009   8E82         MOV       DPL,R6
   \   00000B   8F83         MOV       DPH,R7
   \   00000D   A3           INC       DPTR
   \   00000E   E0           MOVX      A,@DPTR
   \   00000F   14           DEC       A
   \   000010   602B         JZ        ??MyApp_ProcessCommissioningStatus_0
   \   000012   14           DEC       A
   \   000013   6007         JZ        ??MyApp_ProcessCommissioningStatus_1
   \   000015   24FD         ADD       A,#-0x3
   \   000017   6071         JZ        ??MyApp_ProcessCommissioningStatus_2
   \   000019   02....       LJMP      ??MyApp_ProcessCommissioningStatus_3 & 0xFFFF
    341            {
    342              case BDB_COMMISSIONING_FORMATION://设备正在尝试组建网络事件，只有协调器（Coordinator）或路由器（Router）会执行网络组建
    343                if(bdbCommissioningModeMsg->bdbCommissioningStatus == BDB_COMMISSIONING_SUCCESS)//检查网络组建是否成功
   \                     ??MyApp_ProcessCommissioningStatus_1:
   \   00001C   8E82         MOV       DPL,R6
   \   00001E   8F83         MOV       DPH,R7
   \   000020   E0           MOVX      A,@DPTR
   \   000021   6003         JZ        $+5
   \   000023   02....       LJMP      ??MyApp_ProcessCommissioningStatus_3 & 0xFFFF
    344                {
    345                  printf("组建网络成功！\r\n");//组网只有在烧录程序那次才会执行，组建完成后网络不再改变，除非重新烧录
   \   000026                ; Setup parameters for call to function printf
   \   000026   7A..         MOV       R2,#`?<Constant "\\327\\351\\275\\250\\315\\370\\302\\347\\2` & 0xff
   \   000028   7B..         MOV       R3,#(`?<Constant "\\327\\351\\275\\250\\315\\370\\302\\347\\2` >> 8) & 0xff
   \   00002A   12....       LCALL     `??printf::?relay`; Banked call to: printf
    346                  bdb_StartCommissioning(BDB_COMMISSIONING_MODE_NWK_STEERING | bdbCommissioningModeMsg->bdbRemainingCommissioningModes);
   \   00002D                ; Setup parameters for call to function bdb_StartCommissioning
   \   00002D   8E82         MOV       DPL,R6
   \   00002F   8F83         MOV       DPH,R7
   \   000031   A3           INC       DPTR
   \   000032   A3           INC       DPTR
   \   000033   E0           MOVX      A,@DPTR
   \   000034   4402         ORL       A,#0x2
   \   000036   F9           MOV       R1,A
   \   000037   12....       LCALL     `??bdb_StartCommissioning::?relay`; Banked call to: bdb_StartCommissioning
   \   00003A   02....       LJMP      ??MyApp_ProcessCommissioningStatus_3 & 0xFFFF
    347                }
    348                else
    349                {
    350                  //如果网络组建失败，执行其他操作，网络组建失败可能是由于信道冲突、硬件问题或其他原因。
    351                  //可以使用 bdb_setChannelAttribute 函数来设置更改信道
    352                  // 设置主信道为 11
    353                  //bdb_setChannelAttribute(true, (1 << 11)); // 信道 11
    354                  //设置次信道为 12 和 13
    355                  //bdb_setChannelAttribute(false, (1 << 12) | (1 << 13)); // 信道 12 和 13
    356                }
    357              break;
    358              case BDB_COMMISSIONING_NWK_STEERING://检查终端网络的地方
    359                if(bdbCommissioningModeMsg->bdbCommissioningStatus == BDB_COMMISSIONING_SUCCESS)
   \                     ??MyApp_ProcessCommissioningStatus_0:
   \   00003D   8E82         MOV       DPL,R6
   \   00003F   8F83         MOV       DPH,R7
   \   000041   E0           MOVX      A,@DPTR
   \   000042   7041         JNZ       ??MyApp_ProcessCommissioningStatus_4
    360                {
    361                  // 网络加入成功，执行后续操作
    362                  #ifdef ZDO_COORDINATOR
    363                    //在协调器中不作显示
    364                  #else
    365                    printf("已加入网络！\r\n");
   \   000044                ; Setup parameters for call to function printf
   \   000044   7A..         MOV       R2,#`?<Constant "\\322\\321\\274\\323\\310\\353\\315\\370\\3` & 0xff
   \   000046   7B..         MOV       R3,#(`?<Constant "\\322\\321\\274\\323\\310\\353\\315\\370\\3` >> 8) & 0xff
   \   000048   12....       LCALL     `??printf::?relay`; Banked call to: printf
    366                    //发送终端地址事件
    367                    osal_start_timerEx(zclSampleSw_TaskID, SAMPLEAPP_EndAddr_EVT, SAMPLEAPP_EndAddr_PERIOD);
   \   00004B                ; Setup parameters for call to function osal_start_timerEx
   \   00004B   90....       MOV       DPTR,#__Constant_3e8
   \   00004E   12....       LCALL     ?PUSH_XSTACK8_X_FOUR
   \   000051   7A00         MOV       R2,#0x0
   \   000053   7B02         MOV       R3,#0x2
   \   000055   90....       MOV       DPTR,#zclSampleSw_TaskID
   \   000058   E0           MOVX      A,@DPTR
   \   000059   F9           MOV       R1,A
   \   00005A   12....       LCALL     `??osal_start_timerEx::?relay`; Banked call to: osal_start_timerEx
   \   00005D   7404         MOV       A,#0x4
   \   00005F   12....       LCALL     ?DEALLOC_XSTACK8
    368                    //在终端中让LED1闪烁，触发时间1S
    369                    osal_start_timerEx(zclSampleSw_TaskID, MYAPP_LED1_FLASH_EVT, 1000);
   \   000062                ; Setup parameters for call to function osal_start_timerEx
   \   000062   90....       MOV       DPTR,#__Constant_3e8
   \   000065   12....       LCALL     ?PUSH_XSTACK8_X_FOUR
   \   000068   7A02         MOV       R2,#0x2
   \   00006A   7B00         MOV       R3,#0x0
   \   00006C   90....       MOV       DPTR,#zclSampleSw_TaskID
   \   00006F   E0           MOVX      A,@DPTR
   \   000070   F9           MOV       R1,A
   \   000071   12....       LCALL     `??osal_start_timerEx::?relay`; Banked call to: osal_start_timerEx
   \   000074   7404         MOV       A,#0x4
   \   000076   12....       LCALL     ?DEALLOC_XSTACK8
    370                    // 终端→协调器（入网成功才开始发送数据）
    371                    osal_start_timerEx(zclSampleSw_TaskID, SAMPLEAPP_E2C_EVT, SAMPLEAPP_E2C_PERIOD);
   \   000079                ; Setup parameters for call to function osal_start_timerEx
   \   000079   90....       MOV       DPTR,#__Constant_3e8
   \   00007C   12....       LCALL     ?PUSH_XSTACK8_X_FOUR
   \   00007F   7A00         MOV       R2,#0x0
   \   000081   7B01         MOV       R3,#0x1
   \   000083   805F         SJMP      ??MyApp_ProcessCommissioningStatus_5
    372                  #endif
    373                }
    374                else
    375                {
    376                  // 网络加入失败，尝试重新加入或其他操作
    377                  //可以使用 bdb_setChannelAttribute 函数来设置更改信道
    378                  #ifdef ZDO_COORDINATOR
    379                    //协调器中不做处理
    380                  #else
    381                    osal_start_timerEx(zclSampleSw_TaskID, MYAPP_WEB_REJOIN_EVT, 1000);//触发终端重新加入网络事件
   \                     ??MyApp_ProcessCommissioningStatus_4:
   \   000085                ; Setup parameters for call to function osal_start_timerEx
   \   000085   90....       MOV       DPTR,#__Constant_3e8
   \   000088   8053         SJMP      ??MyApp_ProcessCommissioningStatus_6
    382                  #endif
    383                }
    384              break;
    385              case BDB_COMMISSIONING_FINDING_BINDING:
    386                if(bdbCommissioningModeMsg->bdbCommissioningStatus == BDB_COMMISSIONING_SUCCESS)
    387                {
    388                  // 设备发现和绑定成功，执行后续操作
    389                }
    390                else
    391                {
    392                  //设备发现和绑定失败，尝试重新操作
    393                }
    394              break;
    395              case BDB_COMMISSIONING_INITIALIZATION://设备已经完成初始化触发事件
    396                  //设备已经成功初始化并加入网络，可以在此处添加设备加入网络后的逻辑
    397                  //（例如启动应用任务、发送数据等）。
    398                  //初始化通知通常是成功的。初始化失败（例如无法找到父节点），会触发 BDB_COMMISSIONING_PARENT_LOST 事件
    399          
    400              break;
    401          #if ZG_BUILD_ENDDEVICE_TYPE//条件编译，表示以下代码仅适用于终端设备（End Device）
    402              case BDB_COMMISSIONING_PARENT_LOST://设备初始化失败触发事件
    403                if(bdbCommissioningModeMsg->bdbCommissioningStatus == BDB_COMMISSIONING_NETWORK_RESTORED)//检查网络是否已恢复
   \                     ??MyApp_ProcessCommissioningStatus_2:
   \   00008A   8E82         MOV       DPL,R6
   \   00008C   8F83         MOV       DPH,R7
   \   00008E   E0           MOVX      A,@DPTR
   \   00008F   640D         XRL       A,#0xd
   \   000091   7037         JNZ       ??MyApp_ProcessCommissioningStatus_7
    404                {
    405                  //如果网络已恢复，设备可以继续正常工作，在这里可以设置网络恢复提示。例如LED闪烁
    406                  osal_start_timerEx(zclSampleSw_TaskID,MYAPP_LED1_FLASH_EVT, 1000);//LED1灯闪烁事件，触发时间1S
   \   000093                ; Setup parameters for call to function osal_start_timerEx
   \   000093   90....       MOV       DPTR,#__Constant_3e8
   \   000096   12....       LCALL     ?PUSH_XSTACK8_X_FOUR
   \   000099   7A02         MOV       R2,#0x2
   \   00009B   7B00         MOV       R3,#0x0
   \   00009D   90....       MOV       DPTR,#zclSampleSw_TaskID
   \   0000A0   E0           MOVX      A,@DPTR
   \   0000A1   F9           MOV       R1,A
   \   0000A2   12....       LCALL     `??osal_start_timerEx::?relay`; Banked call to: osal_start_timerEx
   \   0000A5   7404         MOV       A,#0x4
   \   0000A7   12....       LCALL     ?DEALLOC_XSTACK8
    407                  //发送终端地址事件
    408                  osal_start_timerEx(zclSampleSw_TaskID, SAMPLEAPP_EndAddr_EVT, SAMPLEAPP_EndAddr_PERIOD);
   \   0000AA                ; Setup parameters for call to function osal_start_timerEx
   \   0000AA   90....       MOV       DPTR,#__Constant_3e8
   \   0000AD   12....       LCALL     ?PUSH_XSTACK8_X_FOUR
   \   0000B0   7A00         MOV       R2,#0x0
   \   0000B2   7B02         MOV       R3,#0x2
   \   0000B4   90....       MOV       DPTR,#zclSampleSw_TaskID
   \   0000B7   E0           MOVX      A,@DPTR
   \   0000B8   F9           MOV       R1,A
   \   0000B9   12....       LCALL     `??osal_start_timerEx::?relay`; Banked call to: osal_start_timerEx
   \   0000BC   7404         MOV       A,#0x4
   \   0000BE   12....       LCALL     ?DEALLOC_XSTACK8
    409                  printf("网络已恢复！\r\n");
   \   0000C1                ; Setup parameters for call to function printf
   \   0000C1   7A..         MOV       R2,#`?<Constant "\\315\\370\\302\\347\\322\\321\\273\\326\\2` & 0xff
   \   0000C3   7B..         MOV       R3,#(`?<Constant "\\315\\370\\302\\347\\322\\321\\273\\326\\2` >> 8) & 0xff
   \   0000C5   12....       LCALL     `??printf::?relay`; Banked call to: printf
   \   0000C8   8027         SJMP      ??MyApp_ProcessCommissioningStatus_3
    410                }
    411                else
    412                {
    413                  LED(1, OFF);//网络断开时，LED1灭
   \                     ??MyApp_ProcessCommissioningStatus_7:
   \   0000CA                ; Setup parameters for call to function LED
   \   0000CA   7901         MOV       R1,#0x1
   \   0000CC   7A01         MOV       R2,#0x1
   \   0000CE   7B00         MOV       R3,#0x0
   \   0000D0   12....       LCALL     `??LED::?relay`  ; Banked call to: LED
    414                  printf("网络已断开！\r\n");
   \   0000D3                ; Setup parameters for call to function printf
   \   0000D3   7A..         MOV       R2,#`?<Constant "\\315\\370\\302\\347\\322\\321\\266\\317\\2` & 0xff
   \   0000D5   7B..         MOV       R3,#(`?<Constant "\\315\\370\\302\\347\\322\\321\\266\\317\\2` >> 8) & 0xff
   \   0000D7   12....       LCALL     `??printf::?relay`; Banked call to: printf
    415                  //设备未找到父节点，将在固定延迟后尝试重新加入网络
    416                  osal_start_timerEx(zclSampleSw_TaskID, MYAPP_WEB_REJOIN_EVT, 5000);
   \   0000DA                ; Setup parameters for call to function osal_start_timerEx
   \   0000DA   90....       MOV       DPTR,#__Constant_1388
   \                     ??MyApp_ProcessCommissioningStatus_6:
   \   0000DD   12....       LCALL     ?PUSH_XSTACK8_X_FOUR
   \   0000E0   7A80         MOV       R2,#-0x80
   \   0000E2   7B00         MOV       R3,#0x0
   \                     ??MyApp_ProcessCommissioningStatus_5:
   \   0000E4   90....       MOV       DPTR,#zclSampleSw_TaskID
   \   0000E7   E0           MOVX      A,@DPTR
   \   0000E8   F9           MOV       R1,A
   \   0000E9   12....       LCALL     `??osal_start_timerEx::?relay`; Banked call to: osal_start_timerEx
   \   0000EC   7404         MOV       A,#0x4
   \   0000EE   12....       LCALL     ?DEALLOC_XSTACK8
    417                }
    418              break;
    419          #endif 
    420            }
    421          }
   \                     ??MyApp_ProcessCommissioningStatus_3:
   \   0000F1   02....       LJMP      ?Subroutine0 & 0xFFFF
    422          /*********************************************************************
    423           *        信息接收函数（判断接收到的CLUSTER，处理相对应的事件）
    424           */
    425          static void zclSampleSw_AF_RxProc(afIncomingMSGPacket_t *MSGpkt)
    426          {
    427            switch( MSGpkt->clusterId ) // 判断接收到的数据包的Cluster ID
    428            {
    429          #ifdef ZDO_COORDINATOR /* 协调器 */
    430              //接收终端地址，并保存到全局变量里→EndAddrNUM
    431              case CLUSTER_EndAddr1:
    432                RXdata = MSGpkt->cmd.Data;                //存入RXdata（传过来的是uint8类型指针，需要转换成uint16类型的变量）
    433                EndAddr1 = (RXdata[0] << 8) | RXdata[1];   // 高字节在前（转换成 uint16 类型，并存储到全局变量 EndAddr1 里）
    434                printf("有终端设备Ⅰ加入网络！地址：%X\r\n", EndAddr1);    // 输出 0xAABB
    435                if (Page == End_1_Page){Hex2Str_EndAddr();}
    436              break;
    437              case CLUSTER_EndAddr2:
    438                RXdata = MSGpkt->cmd.Data;
    439                EndAddr2 = (RXdata[0] << 8) | RXdata[1];
    440                printf("有终端设备Ⅱ加入网络！地址：%X\r\n", EndAddr2);
    441                if (Page == End_1_Page){Hex2Str_EndAddr();}
    442              break;
    443              
    444              case CLUSTER_E2C:
    445                printf("接收到终端数据包：%s\r\n",(char *)MSGpkt->cmd.Data);
    446              break;
    447              case CLUSTER_RX_DHT:
    448                RX_DHT( MSGpkt );
    449              break;
    450              case CLUSTER_RX_TURANSIDU:
    451                RX_TURANSIDU( MSGpkt );
    452              break;
    453              case CLUSTER_RX_GUANZAO:
    454                RX_GUANZAO( MSGpkt );
    455              break;
    456              case CLUSTER_RX_CO2:
    457                RX_CO2( MSGpkt );
    458              break;
    459          #else
    460              case CLUSTER_C2E:
    461                printf("接收到协调器数据包：%s\r\n",(char *)MSGpkt->cmd.Data);
    462              break;
    463              case CLUSTER_MOTOR:
    464                if (MSGpkt->cmd.DataLength > 0){//如果发来了数据
    465                  MOTOR_Control(*(MSGpkt->cmd.Data));
    466                }
    467              break;
    468          #endif
    469          
    470              default:
    471              break;
    472            }
    473          }
    474          /*********************************************************************
    475           *        AF层数据发送函数
    476           */
    477          #ifdef ZDO_COORDINATOR /* 协调器 */
    478          static void zclSampleSw_AF_C2E(//协调器→终端 单播函数
    479          	uint16 destNwkAddr, 
    480          	uint16 cid, 
    481          	uint8 len, 
    482          	uint8 *data)
    483          {    
    484          	afAddrType_t dstAddr; //寻址信息配置 
    485          	static uint8 transferId = 0;//传输ID，是数据包的标识符
    486          
    487          	/* Destination */    
    488          	dstAddr.addrMode = afAddr16Bit;// 设置目标地址模式为16位网络地址，表示使用P2P的通信方式
    489          	dstAddr.addr.shortAddr = destNwkAddr;//目标设备的网络地址  
    490          	dstAddr.endPoint = SAMPLESW_ENDPOINT;//目标设备的端点号
    491          
    492          	 transferId++;    
    493          	AF_DataRequest(&dstAddr, 
    494          		&sampleSw_TestEp,//已经创建好的简单描述符
    495          		cid,
    496          		len,
    497          		data,
    498          		&transferId,
    499          		AF_DISCV_ROUTE,//进行路由扫描操作，用于建立发送数据报文的通信路径。关于这个参数，暂时保持例程默认的代码就可以了
    500          		AF_DEFAULT_RADIUS);//指定最大的路由跳转级数
    501          }
    502          #else
    503          static void zclSampleSw_AF_EndAddr(//发送终端地址函数
    504          	uint16 destNwkAddr, 
    505          	uint16 cid,
    506                  uint8 len, 
    507          	uint8 *data)
    508          {    
    509          	afAddrType_t dstAddr; //寻址信息配置 

   \                                 In  segment XDATA_Z, align 1, keep-with-next
    510          	static uint8 transferId = 0;//传输ID，是数据包的标识符
   \                     ??transferId:
   \   000000                DS 1
   \   000001                REQUIRE __INIT_XDATA_Z
    511          
    512          	/* Destination */    
    513          	dstAddr.addrMode = afAddr16Bit;// 设置目标地址模式为16位网络地址，表示使用P2P的通信方式
    514          	dstAddr.addr.shortAddr = destNwkAddr;//目标设备的网络地址 (协调器0x0000) 
    515          	dstAddr.endPoint = SAMPLESW_ENDPOINT;//目标设备的端点号
    516          
    517                  dataEndAddr = NLME_GetShortAddr();//获取终端地址（此处获取的是变量，发送需要的是指针）
    518                  // 强制大端序存储（uint16类型的dataEndAddr必须转化为uint8类型的指针sendEndAddr才能发送）
    519                  sendEndAddr[0] = (dataEndAddr >> 8) & 0xFF;   // 高字节
    520                  sendEndAddr[1] =  dataEndAddr & 0xFF;         // 低字节
    521                  printf("本终端短地址：%X\r\n", dataEndAddr);
    522                  //printf("data[0] = %X, data[1] = %X\r\n", sendEndAddr[0], sendEndAddr[1]);
    523          
    524                  transferId++;    
    525          	AF_DataRequest( &dstAddr, 
    526                                  &sampleSw_TestEp,//已经创建好的简单描述符
    527                                  cid,    
    528                                  len, 
    529                                  data,//发送uint8类型的指针  
    530                                  &transferId,
    531                                  AF_DISCV_ROUTE,//进行路由扫描操作，用于建立发送数据报文的通信路径。关于这个参数，暂时保持例程默认的代码就可以了
    532                                  AF_DEFAULT_RADIUS);//指定最大的路由跳转级数
    533          }

   \                                 In  segment BANKED_CODE, align 1, keep-with-next
    534          static void zclSampleSw_AF_E2C(//终端→协调器 单播函数
   \                     zclSampleSw_AF_E2C:
    535          	uint16 destNwkAddr, 
    536          	uint16 cid, 
    537          	uint8 len, 
    538          	uint8 *data)
    539          {    
   \   000000                REQUIRE ?V0
   \   000000                REQUIRE ?V1
   \   000000   74F6         MOV       A,#-0xa
   \   000002   12....       LCALL     ?BANKED_ENTER_XDATA
   \   000005                ; Saved register size: 10
   \   000005                ; Auto size: 12
   \   000005   74F4         MOV       A,#-0xc
   \   000007   12....       LCALL     ?ALLOC_XSTACK8
   \   00000A   E9           MOV       A,R1
   \   00000B   FE           MOV       R6,A
    540          	afAddrType_t dstAddr; //寻址信息配置 
    541          	static uint8 transferId = 0;//传输ID，是数据包的标识符
    542          
    543          	/* Destination */    
    544          	dstAddr.addrMode = afAddr16Bit;// 设置目标地址模式为16位网络地址，表示使用P2P的通信方式
   \   00000C   7408         MOV       A,#0x8
   \   00000E   12....       LCALL     ?XSTACK_DISP0_8
   \   000011   7402         MOV       A,#0x2
   \   000013   F0           MOVX      @DPTR,A
    545          	dstAddr.addr.shortAddr = destNwkAddr;//目标设备的网络地址  
   \   000014   85..82       MOV       DPL,?XSP + 0
   \   000017   85..83       MOV       DPH,?XSP + 1
   \   00001A   EA           MOV       A,R2
   \   00001B   F0           MOVX      @DPTR,A
   \   00001C   A3           INC       DPTR
   \   00001D   EB           MOV       A,R3
   \   00001E   F0           MOVX      @DPTR,A
    546          	dstAddr.endPoint = SAMPLESW_ENDPOINT;//目标设备的端点号
   \   00001F   7409         MOV       A,#0x9
   \   000021   12....       LCALL     ?XSTACK_DISP0_8
   \   000024   7408         MOV       A,#0x8
   \   000026   F0           MOVX      @DPTR,A
    547          
    548          	transferId++;    
   \   000027   90....       MOV       DPTR,#??transferId_1
   \   00002A   12....       LCALL     ?Subroutine2 & 0xFFFF
    549          	AF_DataRequest(&dstAddr,//目标设备地址，包含网络地址和端点号
    550          		&sampleSw_TestEp,//发送设备的简单描述符（已经创建好的简单描述符）
    551          		cid,    
    552          		len, 
    553          		data,    
    554          		&transferId,//传输ID，可以用来给每一次发送的数据包编一个号
    555          		AF_DISCV_ROUTE,//进行路由扫描操作，用于建立发送数据报文的通信路径。可以用来给这次数据发送添加一些说明
    556          		AF_DEFAULT_RADIUS);//指定最大的路由跳转级数
   \                     ??CrossCallReturnLabel_3:
   \   00002D   12....       LCALL     ?PUSH_XSTACK_I_ONE
   \   000030   75....       MOV       ?V0,#??transferId_1 & 0xff
   \   000033   75....       MOV       ?V1,#(??transferId_1 >> 8) & 0xff
   \   000036   78..         MOV       R0,#?V0
   \   000038   12....       LCALL     ?PUSH_XSTACK_I_TWO
   \   00003B   7419         MOV       A,#0x19
   \   00003D   12....       LCALL     ?XSTACK_DISP0_8
   \   000040   12....       LCALL     ?PUSH_XSTACK8_X_TWO
   \   000043   EE           MOV       A,R6
   \   000044   F5..         MOV       ?V0,A
   \   000046   75..00       MOV       ?V1,#0x0
   \   000049   78..         MOV       R0,#?V0
   \   00004B   12....       LCALL     ?PUSH_XSTACK_I_TWO
   \   00004E   8C..         MOV       ?V0,R4
   \   000050   8D..         MOV       ?V1,R5
   \   000052   78..         MOV       R0,#?V0
   \   000054   12....       LCALL     ?PUSH_XSTACK_I_TWO
   \   000057   7900         MOV       R1,#0x0
   \   000059   7C..         MOV       R4,#sampleSw_TestEp & 0xff
   \   00005B   7D..         MOV       R5,#(sampleSw_TestEp >> 8) & 0xff
   \   00005D   7409         MOV       A,#0x9
   \   00005F   12....       LCALL     ?XSTACK_DISP101_8
   \   000062   12....       LCALL     `??AF_DataRequest::?relay`; Banked call to: AF_DataRequest
   \   000065   7409         MOV       A,#0x9
   \   000067   12....       LCALL     ?DEALLOC_XSTACK8
    557          }
   \   00006A   740C         MOV       A,#0xc
   \   00006C   12....       LCALL     ?DEALLOC_XSTACK8
   \   00006F   7F02         MOV       R7,#0x2
   \   000071   02....       LJMP      ?BANKED_LEAVE_XDATA

   \                                 In  segment BANKED_CODE, align 1, keep-with-next
   \                     ?Subroutine2:
   \   000000   E0           MOVX      A,@DPTR
   \   000001   04           INC       A
   \   000002   F0           MOVX      @DPTR,A
   \   000003                ; Setup parameters for call to function AF_DataRequest
   \   000003                ; Setup parameters for call to function AF_DataRequest
   \   000003   75..1E       MOV       ?V0,#0x1e
   \   000006   78..         MOV       R0,#?V0
   \   000008   22           RET

   \                                 In  segment XDATA_Z, align 1, keep-with-next
   \                     ??transferId_1:
   \   000000                DS 1
   \   000001                REQUIRE __INIT_XDATA_Z
    558          #endif
    559          /*********************************************************************
    560           */
    561          static void LED_Init(void){
    562            // P1_2，LED1，低电平亮，高电平灭
    563            P1SEL &= ~(1<<2);     //设置通用IO
    564            P1DIR |= (1<<2);      // IO口方向输出
    565            P1_2 = 1;             // LED灯灭
    566            // P1_3，LED1，低电平亮，高电平灭
    567            P1SEL &= ~(1<<3);     //设置通用IO
    568            P1DIR |= (1<<3);      // IO口方向输出
    569            P1_3 = 1;             // LED灯灭
    570          }

   \                                 In  segment BANKED_CODE, align 1, keep-with-next
    571          void LED(int NUM, LED_Status Status){
   \                     LED:
   \   000000                ; Saved register size: 0
   \   000000                ; Auto size: 0
    572            if (NUM == 1) {
   \   000000   7401         MOV       A,#0x1
   \   000002   6A           XRL       A,R2
   \   000003   4B           ORL       A,R3
   \   000004   7014         JNZ       ??LED_0
    573              P1_2 = (Status == ON) ? 0 : 1; // 打开或关闭 LED1
   \   000006   E9           MOV       A,R1
   \   000007   7004         JNZ       ??LED_1
   \   000009   7400         MOV       A,#0x0
   \   00000B   8002         SJMP      ??LED_2
   \                     ??LED_1:
   \   00000D   7401         MOV       A,#0x1
   \                     ??LED_2:
   \   00000F   33           RLC       A
   \   000010   33           RLC       A
   \   000011   54FC         ANL       A,#0xfc
   \   000013   F8           MOV       R0,A
   \   000014   E590         MOV       A,0x90
   \   000016   54FB         ANL       A,#0xfb
   \   000018   8019         SJMP      ??LED_3
    574            } else if (NUM == 2) {
   \                     ??LED_0:
   \   00001A   7402         MOV       A,#0x2
   \   00001C   6A           XRL       A,R2
   \   00001D   4B           ORL       A,R3
   \   00001E   7016         JNZ       ??LED_4
    575              P1_3 = (Status == ON) ? 0 : 1; // 打开或关闭 LED2
   \   000020   E9           MOV       A,R1
   \   000021   7004         JNZ       ??LED_5
   \   000023   7400         MOV       A,#0x0
   \   000025   8002         SJMP      ??LED_6
   \                     ??LED_5:
   \   000027   7401         MOV       A,#0x1
   \                     ??LED_6:
   \   000029   33           RLC       A
   \   00002A   33           RLC       A
   \   00002B   33           RLC       A
   \   00002C   54F8         ANL       A,#0xf8
   \   00002E   F8           MOV       R0,A
   \   00002F   E590         MOV       A,0x90
   \   000031   54F7         ANL       A,#0xf7
   \                     ??LED_3:
   \   000033   48           ORL       A,R0
   \   000034   F590         MOV       0x90,A
    576            } 
    577          }
   \                     ??LED_4:
   \   000036   02....       LJMP      ?BRET
   \   000039                REQUIRE _A_P1

   \                                 In  segment BANKED_CODE, align 1, keep-with-next
    578          void RETURN_LED(int NUM){
   \                     RETURN_LED:
   \   000000                ; Saved register size: 0
   \   000000                ; Auto size: 0
    579            if (NUM == 1) {
   \   000000   7401         MOV       A,#0x1
   \   000002   6A           XRL       A,R2
   \   000003   4B           ORL       A,R3
   \   000004   700C         JNZ       ??RETURN_LED_0
    580              P1_2 =! P1_2;  // 切换 LED1 的状态
   \   000006   D2F0         SETB      B.0
   \   000008   A292         MOV       C,0x90.2
   \   00000A   30F001       JNB       B.0,??RETURN_LED_1
   \   00000D   B3           CPL       C
   \                     ??RETURN_LED_1:
   \   00000E   9292         MOV       0x90.2,C
   \   000010   8010         SJMP      ??RETURN_LED_2
    581            } else if (NUM == 2) {
   \                     ??RETURN_LED_0:
   \   000012   7402         MOV       A,#0x2
   \   000014   6A           XRL       A,R2
   \   000015   4B           ORL       A,R3
   \   000016   700A         JNZ       ??RETURN_LED_2
    582              P1_3 =! P1_3;  // 切换 LED2 的状态
   \   000018   D2F0         SETB      B.0
   \   00001A   A293         MOV       C,0x90.3
   \   00001C   30F001       JNB       B.0,??RETURN_LED_3
   \   00001F   B3           CPL       C
   \                     ??RETURN_LED_3:
   \   000020   9293         MOV       0x90.3,C
    583            } 
    584          }
   \                     ??RETURN_LED_2:
   \   000022   02....       LJMP      ?BRET
   \   000025                REQUIRE _A_P1
    585          static void KEY_Init(void){
    586            P1SEL &= ~(1<<7);
    587            P1DIR &= ~(1<<7);
    588            P1INP &= ~(1<<7);//启用上拉模式
    589            osal_start_timerEx(zclSampleSw_TaskID, MYAPP_KEY_EVT, 10);//启动按键事件
    590          }
    591          static void Key_turnPage(void) {//按键翻页函数

   \                                 In  segment XDATA_I, align 1, keep-with-next
    592              static uint8 lastStableState = 1;          // 上次稳定状态
   \                     ??lastStableState:
   \   000000                DS 1
   \   000001                REQUIRE `?<Initializer for lastStableState>`
   \   000001                REQUIRE __INIT_XDATA_I

   \                                 In  segment XDATA_Z, align 1, keep-with-next
    593              static uint32 lastKeyTime = 0;
   \                     ??lastKeyTime:
   \   000000                DS 4
   \   000004                REQUIRE __INIT_XDATA_Z
    594              uint8 currentState = (P1 & 0x80) ? 1 : 0;  // 读取P1.7状态（低电平=0）
    595              if (currentState != lastStableState){
    596                  if (osal_GetSystemClock() - lastKeyTime > 20) {// 20ms消抖
    597                      lastStableState = currentState;
    598                      if (currentState == 0) {// 低电平有效（按下）
    599                          Page++;
    600                          //printf("按键按下");
    601                              if (Page > 4){
    602                                  Page = 1;
    603                              }
    604                          OLED_Init_UI(Page);
    605          #ifdef ZDO_COORDINATOR /***** 协调器 ***** *********/
    606                          if (Page == End_1_Page){
    607                            Hex2Str_EndAddr();
    608                          }
    609          #else /*********************** 终端 ****************/
    610          #endif
    611                      }
    612                  }
    613              }else{
    614                  lastKeyTime = osal_GetSystemClock();// 重置计时器
    615              }
    616              // 重新启动按键事件（持续检测）
    617              osal_start_timerEx(zclSampleSw_TaskID, MYAPP_KEY_EVT, 10);
    618          }

   \                                 In  segment BANKED_CODE, align 1, keep-with-next
    619          static void MOTOR_Control(uint8 motorState){//电机控制函数
   \                     MOTOR_Control:
   \   000000   74F7         MOV       A,#-0x9
   \   000002   12....       LCALL     ?BANKED_ENTER_XDATA
   \   000005                ; Saved register size: 9
   \   000005                ; Auto size: 0
   \   000005   E9           MOV       A,R1
   \   000006   FE           MOV       R6,A
    620          #ifdef ZDO_COORDINATOR /***** 协调器 ***** *********/
    621          //  static uint8 State;
    622          //  if(Humidity >= 66){//阀值判断
    623          //    State = MOTOR_ON;
    624          //  }
    625          //  else{
    626          //    State = MOTOR_OFF;
    627          //  }
    628            //发送启停命令
    629            //zclSampleSw_AF_C2E(EndAddr1, CLUSTER_MOTOR, sizeof(State), &State);
    630          #else /*********************** 终端 ****************/
    631            if(motorState == TonF_ON){
   \   000007   700B         JNZ       ??MOTOR_Control_0
    632            printf("通风已开启！\r\n");
   \   000009                ; Setup parameters for call to function printf
   \   000009   7A..         MOV       R2,#`?<Constant "\\315\\250\\267\\347\\322\\321\\277\\252\\3` & 0xff
   \   00000B   7B..         MOV       R3,#(`?<Constant "\\315\\250\\267\\347\\322\\321\\277\\252\\3` >> 8) & 0xff
   \   00000D   12....       LCALL     `??printf::?relay`; Banked call to: printf
    633            TonFen(0);
   \   000010                ; Setup parameters for call to function TonFen
   \   000010   7900         MOV       R1,#0x0
   \   000012   800E         SJMP      ??MOTOR_Control_1
    634            }
    635            else if(motorState == TonF_OFF){
   \                     ??MOTOR_Control_0:
   \   000014   7401         MOV       A,#0x1
   \   000016   6E           XRL       A,R6
   \   000017   700F         JNZ       ??MOTOR_Control_2
    636            printf("通风已关闭！\r\n");
   \   000019                ; Setup parameters for call to function printf
   \   000019   7A..         MOV       R2,#`?<Constant "\\315\\250\\267\\347\\322\\321\\271\\330\\2` & 0xff
   \   00001B   7B..         MOV       R3,#(`?<Constant "\\315\\250\\267\\347\\322\\321\\271\\330\\2` >> 8) & 0xff
   \   00001D   12....       LCALL     `??printf::?relay`; Banked call to: printf
    637            TonFen(1);
   \   000020                ; Setup parameters for call to function TonFen
   \   000020   7901         MOV       R1,#0x1
   \                     ??MOTOR_Control_1:
   \   000022   12....       LCALL     `??TonFen::?relay`; Banked call to: TonFen
   \   000025   02....       LJMP      ??MOTOR_Control_3 & 0xFFFF
    638            }
    639            else if(motorState == JiaoG_ON){
   \                     ??MOTOR_Control_2:
   \   000028   7402         MOV       A,#0x2
   \   00002A   6E           XRL       A,R6
   \   00002B   700B         JNZ       ??MOTOR_Control_4
    640            printf("浇灌已开启！\r\n");
   \   00002D                ; Setup parameters for call to function printf
   \   00002D   7A..         MOV       R2,#`?<Constant "\\275\\275\\271\\340\\322\\321\\277\\252\\3` & 0xff
   \   00002F   7B..         MOV       R3,#(`?<Constant "\\275\\275\\271\\340\\322\\321\\277\\252\\3` >> 8) & 0xff
   \   000031   12....       LCALL     `??printf::?relay`; Banked call to: printf
    641            JiaoGuan(0);
   \   000034                ; Setup parameters for call to function JiaoGuan
   \   000034   7900         MOV       R1,#0x0
   \   000036   800E         SJMP      ??MOTOR_Control_5
    642            }
    643            else if(motorState == JiaoG_OFF){
   \                     ??MOTOR_Control_4:
   \   000038   7403         MOV       A,#0x3
   \   00003A   6E           XRL       A,R6
   \   00003B   700E         JNZ       ??MOTOR_Control_6
    644            printf("浇灌已关闭！\r\n");
   \   00003D                ; Setup parameters for call to function printf
   \   00003D   7A..         MOV       R2,#`?<Constant "\\275\\275\\271\\340\\322\\321\\271\\330\\2` & 0xff
   \   00003F   7B..         MOV       R3,#(`?<Constant "\\275\\275\\271\\340\\322\\321\\271\\330\\2` >> 8) & 0xff
   \   000041   12....       LCALL     `??printf::?relay`; Banked call to: printf
    645            JiaoGuan(1);
   \   000044                ; Setup parameters for call to function JiaoGuan
   \   000044   7901         MOV       R1,#0x1
   \                     ??MOTOR_Control_5:
   \   000046   12....       LCALL     `??JiaoGuan::?relay`; Banked call to: JiaoGuan
   \   000049   807B         SJMP      ??MOTOR_Control_3
    646            }
    647            else if(motorState == BG_ON){
   \                     ??MOTOR_Control_6:
   \   00004B   7404         MOV       A,#0x4
   \   00004D   6E           XRL       A,R6
   \   00004E   700B         JNZ       ??MOTOR_Control_7
    648            printf("补光灯已开启！\r\n");
   \   000050                ; Setup parameters for call to function printf
   \   000050   7A..         MOV       R2,#`?<Constant "\\262\\271\\271\\342\\265\\306\\322\\321\\2` & 0xff
   \   000052   7B..         MOV       R3,#(`?<Constant "\\262\\271\\271\\342\\265\\306\\322\\321\\2` >> 8) & 0xff
   \   000054   12....       LCALL     `??printf::?relay`; Banked call to: printf
    649            BuGuanDen(0);
   \   000057                ; Setup parameters for call to function BuGuanDen
   \   000057   7900         MOV       R1,#0x0
   \   000059   800E         SJMP      ??MOTOR_Control_8
    650            }
    651            else if(motorState == BG_OFF){
   \                     ??MOTOR_Control_7:
   \   00005B   7405         MOV       A,#0x5
   \   00005D   6E           XRL       A,R6
   \   00005E   700E         JNZ       ??MOTOR_Control_9
    652            printf("补光灯已关闭！\r\n");
   \   000060                ; Setup parameters for call to function printf
   \   000060   7A..         MOV       R2,#`?<Constant "\\262\\271\\271\\342\\265\\306\\322\\321\\2_1` & 0xff
   \   000062   7B..         MOV       R3,#(`?<Constant "\\262\\271\\271\\342\\265\\306\\322\\321\\2_1` >> 8) & 0xff
   \   000064   12....       LCALL     `??printf::?relay`; Banked call to: printf
    653            BuGuanDen(1);
   \   000067                ; Setup parameters for call to function BuGuanDen
   \   000067   7901         MOV       R1,#0x1
   \                     ??MOTOR_Control_8:
   \   000069   12....       LCALL     `??BuGuanDen::?relay`; Banked call to: BuGuanDen
   \   00006C   8058         SJMP      ??MOTOR_Control_3
    654            }
    655            else if(motorState == FM_ON){
   \                     ??MOTOR_Control_9:
   \   00006E   7406         MOV       A,#0x6
   \   000070   6E           XRL       A,R6
   \   000071   700B         JNZ       ??MOTOR_Control_10
    656            printf("蜂鸣器已开启！\r\n");
   \   000073                ; Setup parameters for call to function printf
   \   000073   7A..         MOV       R2,#`?<Constant "\\267\\344\\303\\371\\306\\367\\322\\321\\2` & 0xff
   \   000075   7B..         MOV       R3,#(`?<Constant "\\267\\344\\303\\371\\306\\367\\322\\321\\2` >> 8) & 0xff
   \   000077   12....       LCALL     `??printf::?relay`; Banked call to: printf
    657            FenMinQi_PWM_POWER(100);
   \   00007A                ; Setup parameters for call to function FenMinQi_PWM_POWER
   \   00007A   7964         MOV       R1,#0x64
   \   00007C   800E         SJMP      ??MOTOR_Control_11
    658            }
    659            else if(motorState == FM_OFF){
   \                     ??MOTOR_Control_10:
   \   00007E   7407         MOV       A,#0x7
   \   000080   6E           XRL       A,R6
   \   000081   700E         JNZ       ??MOTOR_Control_12
    660            printf("蜂鸣器已关闭！\r\n");
   \   000083                ; Setup parameters for call to function printf
   \   000083   7A..         MOV       R2,#`?<Constant "\\267\\344\\303\\371\\306\\367\\322\\321\\2_1` & 0xff
   \   000085   7B..         MOV       R3,#(`?<Constant "\\267\\344\\303\\371\\306\\367\\322\\321\\2_1` >> 8) & 0xff
   \   000087   12....       LCALL     `??printf::?relay`; Banked call to: printf
    661            FenMinQi_PWM_POWER(0);
   \   00008A                ; Setup parameters for call to function FenMinQi_PWM_POWER
   \   00008A   7900         MOV       R1,#0x0
   \                     ??MOTOR_Control_11:
   \   00008C   12....       LCALL     `??FenMinQi_PWM_POWER::?relay`; Banked call to: FenMinQi_PWM_POWER
   \   00008F   8035         SJMP      ??MOTOR_Control_3
    662            }
    663            else if(motorState == ZYK_ON){
   \                     ??MOTOR_Control_12:
   \   000091   7408         MOV       A,#0x8
   \   000093   6E           XRL       A,R6
   \   000094   700C         JNZ       ??MOTOR_Control_13
    664            printf("遮阳网打开！\r\n");
   \   000096                ; Setup parameters for call to function printf
   \   000096   7A..         MOV       R2,#`?<Constant "\\325\\332\\321\\364\\315\\370\\264\\362\\2` & 0xff
   \   000098   7B..         MOV       R3,#(`?<Constant "\\325\\332\\321\\364\\315\\370\\264\\362\\2` >> 8) & 0xff
   \   00009A   12....       LCALL     `??printf::?relay`; Banked call to: printf
    665            ZeYanWan_Dakai();
   \   00009D                ; Setup parameters for call to function ZeYanWan_Dakai
   \   00009D   12....       LCALL     `??ZeYanWan_Dakai::?relay`; Banked call to: ZeYanWan_Dakai
    666            ZeYanWan_PWM_POWER(10);
   \   0000A0                ; Setup parameters for call to function ZeYanWan_PWM_POWER
   \   0000A0   800F         SJMP      ??MOTOR_Control_14
    667            }
    668            else if(motorState == ZYB_ON){
   \                     ??MOTOR_Control_13:
   \   0000A2   7409         MOV       A,#0x9
   \   0000A4   6E           XRL       A,R6
   \   0000A5   700E         JNZ       ??MOTOR_Control_15
    669            printf("遮阳网闭合！\r\n");
   \   0000A7                ; Setup parameters for call to function printf
   \   0000A7   7A..         MOV       R2,#`?<Constant "\\325\\332\\321\\364\\315\\370\\261\\325\\2` & 0xff
   \   0000A9   7B..         MOV       R3,#(`?<Constant "\\325\\332\\321\\364\\315\\370\\261\\325\\2` >> 8) & 0xff
   \   0000AB   12....       LCALL     `??printf::?relay`; Banked call to: printf
    670            ZeYanWan_Bihe();
   \   0000AE                ; Setup parameters for call to function ZeYanWan_Bihe
   \   0000AE   12....       LCALL     `??ZeYanWan_Bihe::?relay`; Banked call to: ZeYanWan_Bihe
    671            ZeYanWan_PWM_POWER(10);
   \   0000B1                ; Setup parameters for call to function ZeYanWan_PWM_POWER
   \                     ??MOTOR_Control_14:
   \   0000B1   790A         MOV       R1,#0xa
   \   0000B3   800E         SJMP      ??MOTOR_Control_16
    672            }
    673            else if(motorState == ZY_OFF){
   \                     ??MOTOR_Control_15:
   \   0000B5   740A         MOV       A,#0xa
   \   0000B7   6E           XRL       A,R6
   \   0000B8   700C         JNZ       ??MOTOR_Control_3
    674            printf("遮阳网停止！\r\n");
   \   0000BA                ; Setup parameters for call to function printf
   \   0000BA   7A..         MOV       R2,#`?<Constant "\\325\\332\\321\\364\\315\\370\\315\\243\\3` & 0xff
   \   0000BC   7B..         MOV       R3,#(`?<Constant "\\325\\332\\321\\364\\315\\370\\315\\243\\3` >> 8) & 0xff
   \   0000BE   12....       LCALL     `??printf::?relay`; Banked call to: printf
    675            ZeYanWan_PWM_POWER(0);
   \   0000C1                ; Setup parameters for call to function ZeYanWan_PWM_POWER
   \   0000C1   7900         MOV       R1,#0x0
   \                     ??MOTOR_Control_16:
   \   0000C3   12....       LCALL     `??ZeYanWan_PWM_POWER::?relay`; Banked call to: ZeYanWan_PWM_POWER
    676            }
    677          #endif
    678          }
   \                     ??MOTOR_Control_3:
   \   0000C6   02....       LJMP      ?Subroutine0 & 0xFFFF

   \                                 In  segment XDATA_ID, align 1, keep-with-next
   \                     `?<Initializer for LED_blink_count>`:
   \   000000   03           DB 3

   \                                 In  segment XDATA_ID, align 1, keep-with-next
   \                     `?<Initializer for Page>`:
   \   000000   01           DB 1

   \                                 In  segment XDATA_ID, align 1, keep-with-next
   \                     `?<Initializer for sampleSw_TestEp>`:
   \   000000   08           DB 8
   \   000001   00           DB 0
   \   000002   ....         DW zclSampleSw_TaskID
   \   000004   ....         DW zclSampleSw_SimpleDesc
   \   000006   00           DB 0

   \                                 In  segment XDATA_ID, align 1, keep-with-next
   \                     `?<Initializer for lastStableState>`:
   \   000000   01           DB 1

   \                                 In  segment BANK_RELAYS, align 1
   \                     `??zclSampleSw_Init::?relay`:
   \   000000   12....       LCALL   ?BDISPATCH
   \   000003   ......       DC24    zclSampleSw_Init

   \                                 In  segment BANK_RELAYS, align 1
   \                     `??zclSampleSw_event_loop::?relay`:
   \   000000   12....       LCALL   ?BDISPATCH
   \   000003   ......       DC24    zclSampleSw_event_loop

   \                                 In  segment BANK_RELAYS, align 1
   \                     `??MyApp_ProcessCommissioningStatus::?relay`:
   \   000000   12....       LCALL   ?BDISPATCH
   \   000003   ......       DC24    MyApp_ProcessCommissioningStatus

   \                                 In  segment BANK_RELAYS, align 1
   \                     `??zclSampleSw_AF_E2C::?relay`:
   \   000000   12....       LCALL   ?BDISPATCH
   \   000003   ......       DC24    zclSampleSw_AF_E2C

   \                                 In  segment BANK_RELAYS, align 1
   \                     `??LED::?relay`:
   \   000000   12....       LCALL   ?BDISPATCH
   \   000003   ......       DC24    LED

   \                                 In  segment BANK_RELAYS, align 1
   \                     `??RETURN_LED::?relay`:
   \   000000   12....       LCALL   ?BDISPATCH
   \   000003   ......       DC24    RETURN_LED

   \                                 In  segment BANK_RELAYS, align 1
   \                     `??MOTOR_Control::?relay`:
   \   000000   12....       LCALL   ?BDISPATCH
   \   000003   ......       DC24    MOTOR_Control

   \                                 In  segment XDATA_ROM_C, align 1
   \                     `?<Constant "\\325\\375\\324\\332\\311\\352\\307\\353\\2`:
   \   000000   D5FDD4DA     DB "\325\375\324\332\311\352\307\353\274\323\310\353\315\370\302\347\243\241\015\012"
   \            C9EAC7EB
   \            BCD3C8EB
   \            CDF8C2E7
   \            A3A10D0A
   \            00      

   \                                 In  segment XDATA_ROM_C, align 1
   \                     `?<Constant "\\327\\351\\275\\250\\315\\370\\302\\347\\2`:
   \   000000   D7E9BDA8     DB "\327\351\275\250\315\370\302\347\263\311\271\246\243\241\015\012"
   \            CDF8C2E7
   \            B3C9B9A6
   \            A3A10D0A
   \            00      

   \                                 In  segment XDATA_ROM_C, align 1
   \                     `?<Constant "\\322\\321\\274\\323\\310\\353\\315\\370\\3`:
   \   000000   D2D1BCD3     DB "\322\321\274\323\310\353\315\370\302\347\243\241\015\012"
   \            C8EBCDF8
   \            C2E7A3A1
   \            0D0A00  

   \                                 In  segment XDATA_ROM_C, align 1
   \                     `?<Constant "\\315\\370\\302\\347\\322\\321\\273\\326\\2`:
   \   000000   CDF8C2E7     DB "\315\370\302\347\322\321\273\326\270\264\243\241\015\012"
   \            D2D1BBD6
   \            B8B4A3A1
   \            0D0A00  

   \                                 In  segment XDATA_ROM_C, align 1
   \                     `?<Constant "\\315\\370\\302\\347\\322\\321\\266\\317\\2`:
   \   000000   CDF8C2E7     DB "\315\370\302\347\322\321\266\317\277\252\243\241\015\012"
   \            D2D1B6CF
   \            BFAAA3A1
   \            0D0A00  

   \                                 In  segment XDATA_ROM_C, align 1
   \                     `?<Constant "\\275\\323\\312\\325\\265\\275\\320\\255\\2`:
   \   000000   BDD3CAD5     DB "\275\323\312\325\265\275\320\255\265\367\306\367\312\375\276\335\260\374\243\272%s\015\012"
   \            B5BDD0AD
   \            B5F7C6F7
   \            CAFDBEDD
   \            B0FCA3BA
   \            25730D0A
   \            00      

   \                                 In  segment XDATA_ROM_C, align 1
   \                     `?<Constant "\\261\\276\\326\\325\\266\\313\\266\\314\\2`:
   \   000000   B1BED6D5     DB "\261\276\326\325\266\313\266\314\265\330\326\267\243\272%X\015\012"
   \            B6CBB6CC
   \            B5D8D6B7
   \            A3BA2558
   \            0D0A00  

   \                                 In  segment XDATA_ROM_C, align 1
   \                     `?<Constant "\\315\\250\\267\\347\\322\\321\\277\\252\\3`:
   \   000000   CDA8B7E7     DB "\315\250\267\347\322\321\277\252\306\364\243\241\015\012"
   \            D2D1BFAA
   \            C6F4A3A1
   \            0D0A00  

   \                                 In  segment XDATA_ROM_C, align 1
   \                     `?<Constant "\\315\\250\\267\\347\\322\\321\\271\\330\\2`:
   \   000000   CDA8B7E7     DB "\315\250\267\347\322\321\271\330\261\325\243\241\015\012"
   \            D2D1B9D8
   \            B1D5A3A1
   \            0D0A00  

   \                                 In  segment XDATA_ROM_C, align 1
   \                     `?<Constant "\\275\\275\\271\\340\\322\\321\\277\\252\\3`:
   \   000000   BDBDB9E0     DB "\275\275\271\340\322\321\277\252\306\364\243\241\015\012"
   \            D2D1BFAA
   \            C6F4A3A1
   \            0D0A00  

   \                                 In  segment XDATA_ROM_C, align 1
   \                     `?<Constant "\\275\\275\\271\\340\\322\\321\\271\\330\\2`:
   \   000000   BDBDB9E0     DB "\275\275\271\340\322\321\271\330\261\325\243\241\015\012"
   \            D2D1B9D8
   \            B1D5A3A1
   \            0D0A00  

   \                                 In  segment XDATA_ROM_C, align 1
   \                     `?<Constant "\\262\\271\\271\\342\\265\\306\\322\\321\\2`:
   \   000000   B2B9B9E2     DB "\262\271\271\342\265\306\322\321\277\252\306\364\243\241\015\012"
   \            B5C6D2D1
   \            BFAAC6F4
   \            A3A10D0A
   \            00      

   \                                 In  segment XDATA_ROM_C, align 1
   \                     `?<Constant "\\262\\271\\271\\342\\265\\306\\322\\321\\2_1`:
   \   000000   B2B9B9E2     DB "\262\271\271\342\265\306\322\321\271\330\261\325\243\241\015\012"
   \            B5C6D2D1
   \            B9D8B1D5
   \            A3A10D0A
   \            00      

   \                                 In  segment XDATA_ROM_C, align 1
   \                     `?<Constant "\\267\\344\\303\\371\\306\\367\\322\\321\\2`:
   \   000000   B7E4C3F9     DB "\267\344\303\371\306\367\322\321\277\252\306\364\243\241\015\012"
   \            C6F7D2D1
   \            BFAAC6F4
   \            A3A10D0A
   \            00      

   \                                 In  segment XDATA_ROM_C, align 1
   \                     `?<Constant "\\267\\344\\303\\371\\306\\367\\322\\321\\2_1`:
   \   000000   B7E4C3F9     DB "\267\344\303\371\306\367\322\321\271\330\261\325\243\241\015\012"
   \            C6F7D2D1
   \            B9D8B1D5
   \            A3A10D0A
   \            00      

   \                                 In  segment XDATA_ROM_C, align 1
   \                     `?<Constant "\\325\\332\\321\\364\\315\\370\\264\\362\\2`:
   \   000000   D5DAD1F4     DB "\325\332\321\364\315\370\264\362\277\252\243\241\015\012"
   \            CDF8B4F2
   \            BFAAA3A1
   \            0D0A00  

   \                                 In  segment XDATA_ROM_C, align 1
   \                     `?<Constant "\\325\\332\\321\\364\\315\\370\\261\\325\\2`:
   \   000000   D5DAD1F4     DB "\325\332\321\364\315\370\261\325\272\317\243\241\015\012"
   \            CDF8B1D5
   \            BACFA3A1
   \            0D0A00  

   \                                 In  segment XDATA_ROM_C, align 1
   \                     `?<Constant "\\325\\332\\321\\364\\315\\370\\315\\243\\3`:
   \   000000   D5DAD1F4     DB "\325\332\321\364\315\370\315\243\326\271\243\241\015\012"
   \            CDF8CDA3
   \            D6B9A3A1
   \            0D0A00  

   \                                 In  segment XDATA_ROM_C, align 1
   \                     __Constant_a:
   \   000000   0A000000     DD 10

   \                                 In  segment XDATA_ROM_C, align 1
   \                     __Constant_3e8:
   \   000000   E8030000     DD 1000

   \                                 In  segment XDATA_ROM_C, align 1
   \                     __Constant_1f4:
   \   000000   F4010000     DD 500

   \                                 In  segment XDATA_ROM_C, align 1
   \                     __Constant_15:
   \   000000   15000000     DD 21

   \                                 In  segment XDATA_ROM_C, align 1
   \                     __Constant_1388:
   \   000000   88130000     DD 5000
    679          #ifdef ZDO_COORDINATOR /* 协调器 */
    680          static void Hex2Str_EndAddr(void){
    681                  static unsigned char hexStr[5];
    682                  for (int i = 0; i < 4; i++) {
    683                      uint8 digit = (EndAddr >> (4 * (3 - i))) & 0x0F;
    684                      hexStr[i] = (digit < 10) ? ('0' + digit) : ('A' + digit - 10);
    685                  }
    686                  hexStr[4] = '\0';
    687                  OLED_P8x16Str(87, 0, hexStr);  // 显示终端地址字符串
    688          }
    689          static void RX_DHT(afIncomingMSGPacket_t *MSGpkt){//接收温湿度数据
    690            if (MSGpkt->cmd.DataLength >= 2) {
    691                  Temperature = MSGpkt->cmd.Data[0];  // 第一个字节是温度（十进制数据）
    692                  Humidity = MSGpkt->cmd.Data[1];    // 第二个字节是湿度（十进制数据）
    693                  //转为字符串
    694                  tempStr[0] = (Temperature / 10) + '0';    // 十位
    695                  tempStr[1] = (Temperature % 10) + '0';    // 个位
    696                  tempStr[2] = '\0';                        // 终止符
    697                  humidityStr[0] = (Humidity / 10) + '0';   // 十位
    698                  humidityStr[1] = (Humidity % 10) + '0';   // 个位
    699                  humidityStr[2] = '\0';
    700                  if (Page == End_1_Page){//在对应终端页才显示温湿度
    701                    //显示到OLED屏
    702                    OLED_P8x16Str(39, 2, tempStr);
    703                    OLED_P8x16Str(100, 2, humidityStr);
    704                  }
    705                  //MOTOR_Control(1);//每次更新数据都判断一次是否要开启电机(已在上位机实现/此处无效)
    706              }
    707          }
    708          static void RX_TURANSIDU(afIncomingMSGPacket_t *MSGpkt){//接收土壤湿度数据
    709            if (MSGpkt->cmd.DataLength >= 1){
    710              Turan = MSGpkt->cmd.Data[0];
    711              //转为字符串
    712              TuranStr[0] = (Turan / 10) + '0';    // 十位
    713              TuranStr[1] = (Turan % 10) + '0';    // 个位
    714              TuranStr[2] = '\0'; 
    715              if (Page == End_1_Page){
    716                OLED_P8x16Str(100, 4, TuranStr);
    717                if (Turan >99){//如果超过99说明传感器出现短路，显示错误
    718                  unsigned char Er_Str[] = "Er";
    719                  OLED_P8x16Str(100, 4, Er_Str);
    720                }
    721              }
    722            }
    723          }
    724          static void RX_GUANZAO(afIncomingMSGPacket_t *MSGpkt){//接收光照强度数据
    725            if (MSGpkt->cmd.DataLength >= 1){
    726              Guanzao = MSGpkt->cmd.Data[0];
    727              //转为字符串
    728              GuanzaoStr[0] = (Guanzao / 10) + '0';    // 十位
    729              GuanzaoStr[1] = (Guanzao % 10) + '0';    // 个位
    730              GuanzaoStr[2] = '\0'; 
    731              if (Page == End_1_Page){
    732                OLED_P8x16Str(39, 4, GuanzaoStr);
    733              }
    734            }
    735          }
    736          static void RX_CO2(afIncomingMSGPacket_t *MSGpkt){//接收CO2ppm数据
    737            if (MSGpkt->cmd.DataLength >= 1){
    738              static uint8 CO2_H;
    739              static uint8 CO2_L;
    740              CO2_H = MSGpkt->cmd.Data[0];    // 第一个字节是CO2高位（十进制数据）
    741              CO2_L = MSGpkt->cmd.Data[1];    // 第二个字节是CO2低位（十进制数据）
    742              // 组合为 uint16_t
    743              CO2 = (CO2_H << 8) | CO2_L;
    744              if (CO2 > 32767){CO2 = 32767;}  //防止出现bug
    745              //转为字符串
    746              uint8 pos = 0;
    747                // 处理 0 的特殊情况
    748              if (CO2 == 0) {
    749                  CO2Str[0] = '0';
    750                  CO2Str[1] = '\0';
    751                  return;
    752              }
    753              // 计算每一位数字
    754              uint8 digits[5];
    755              digits[0] = CO2 / 10000;          // 万位
    756              digits[1] = (CO2 % 10000) / 1000; // 千位
    757              digits[2] = (CO2 % 1000) / 100;   // 百位
    758              digits[3] = (CO2 % 100) / 10;     // 十位
    759              digits[4] = CO2 % 10;             // 个位
    760              // 跳过前导零，找到实际起始位
    761              uint8 start = 0;
    762              while (start < 4 && digits[start] == 0) { // 最多检查前4位（避免跳过所有位）
    763                  start++;
    764              }
    765              // 将数字转换为字符
    766              for (uint8 i = start; i < 5; i++) {
    767                  CO2Str[pos++] = digits[i] + '0';
    768              }
    769              CO2Str[pos] = '\0'; // 字符串结束符
    770              
    771              if (Page == End_1_Page){
    772                unsigned char Close_Str[] = "          ";
    773                OLED_P8x16Str(34, 6, Close_Str);
    774                OLED_P8x16Str(33, 6, CO2Str);
    775                if (CO2 > 32765){//正常来说数值不会达到这么高
    776                  unsigned char MAX_Str[] = "MAX";
    777                  OLED_P8x16Str(75, 6, MAX_Str);
    778                }
    779              }
    780            }
    781          }
    782          static void RX_Ctrl_CMD(void) {
    783              //printf("接收到命令： %s\r\n", RX_UART_DATA);
    784              static uint8 State;
    785              if       (strcmp((char *)RX_UART_DATA, "TonF_ON") == 0) {State = TonF_ON;}
    786              else if (strcmp((char *)RX_UART_DATA, "TonF_OFF") == 0){State = TonF_OFF;}
    787              else if (strcmp((char *)RX_UART_DATA, "JiaoG_ON") == 0){State = JiaoG_ON;}
    788              else if (strcmp((char *)RX_UART_DATA, "JiaoG_OFF") == 0){State = JiaoG_OFF;}
    789              else if (strcmp((char *)RX_UART_DATA, "BG_ON") == 0){State = BG_ON;}
    790              else if (strcmp((char *)RX_UART_DATA, "BG_OFF") == 0){State = BG_OFF;}
    791              else if (strcmp((char *)RX_UART_DATA, "FM_ON") == 0){State = FM_ON;}
    792              else if (strcmp((char *)RX_UART_DATA, "FM_OFF") == 0){State = FM_OFF;}
    793              else if (strcmp((char *)RX_UART_DATA, "ZYK_ON") == 0){State = ZYK_ON;}
    794              else if (strcmp((char *)RX_UART_DATA, "ZYB_ON") == 0){State = ZYB_ON;}
    795              else if (strcmp((char *)RX_UART_DATA, "ZY_OFF") == 0){State = ZY_OFF;}
    796              if (RX_UART_DATA[0] != 0){//发送终端启停命令
    797                zclSampleSw_AF_C2E(sebei_EndAddr, CLUSTER_MOTOR, sizeof(State), &State);
    798              }
    799              memset(RX_UART_DATA, 0, sizeof(RX_UART_DATA));  // 清空全局数组
    800          }
    801          static void TX_ALLsensor_DATA(//发送打包传感器数据
    802                                          uint8 Temperature_data, 
    803                                          uint8 Humidity_data, 
    804                                          uint16 CO2_data, 
    805                                          uint8 Guanzao_data, 
    806                                          uint8 Turan_data){
    807            printf("温度: %d℃, 湿度: %d%%, CO2:  %dppm, 光照强度: %d%%, 土壤湿度: %d%%\r\n",
    808             Temperature_data, Humidity_data, CO2_data, Guanzao_data,   Turan_data); 
    809          }
    810          #else
    811          static void getSENSORdata(void){
    812                  DHT11_Values DHTval = Get_DHT_DATA();
    813                  SGP30_Values SGPval = Get_SGP_DATA();
    814                    DHT_Data[0]       = DHTval.temperature;
    815                    DHT_Data[1]       = DHTval.humidity;
    816                    CO2_Data[0]       = SGPval.CO2;
    817                    //TVOC_Data[0]      = SGPval.TVOC;
    818                    GUANZAO_Data[0]   = Get_GUANZAOQIANDU_DATA();
    819                    TURANSIDU_Data[0] = Get_TURANSIDU_DATA();
    820                    
    821                // 拆分 CO2
    822                CO2_u8Data[0] = (CO2_Data[0] >> 8) & 0xFF;
    823                CO2_u8Data[1] = CO2_Data[0] & 0xFF;
    824          }
    825          #endif
    826          
    827          #ifdef ZDO_COORDINATOR /***** 协调器 ***** *********/
    828          #else /*********************** 终端 ****************/
    829          #endif

   Maximum stack usage in bytes:

   ISTACK XSTACK Function
   ------ ------ --------
      0     34   LED
      0     43   MOTOR_Control
        0      9   -> BuGuanDen
        0      9   -> FenMinQi_PWM_POWER
        0      9   -> JiaoGuan
        0      9   -> TonFen
        0      9   -> ZeYanWan_Bihe
        0      9   -> ZeYanWan_Dakai
        0      9   -> ZeYanWan_PWM_POWER
        0      9   -> printf
      0     13   MyApp_ProcessCommissioningStatus
        0      9   -> LED
        0      9   -> bdb_StartCommissioning
        0     13   -> osal_start_timerEx
        0      9   -> printf
      0     34   RETURN_LED
      0     67   zclSampleSw_AF_E2C
        0     31   -> AF_DataRequest
      0     13   zclSampleSw_Init
        0      9   -> MT_UartInit
        0      9   -> MT_UartRegisterTaskID
        0      9   -> My_ClockInit_32MHZ
        0      9   -> RegisterForKeys
        0      9   -> SGP30_Init
        0      9   -> Timer3_Start
        0      9   -> ZeYanWan_MOTOR_Init
        0      9   -> afRegister
        0      9   -> bdb_RegisterCommissioningStatusCB
        0      9   -> bdb_StartCommissioning
        0     13   -> osal_start_timerEx
      2     43   zclSampleSw_event_loop
        0     43   -> AF_DataRequest
        0     34   -> Get_DHT_DATA
        0     34   -> Get_GUANZAOQIANDU_DATA
        0     34   -> Get_SGP_DATA
        0     34   -> Get_TURANSIDU_DATA
        0     34   -> LED
        0     34   -> MOTOR_Control
        0     34   -> NLME_GetShortAddr
        0     34   -> OLED_Init_UI
        0     34   -> RETURN_LED
        0     34   -> bdb_ZedAttemptRecoverNwk
        0     34   -> osal_GetSystemClock
        0     34   -> osal_msg_deallocate
        0     34   -> osal_msg_receive
        0     38   -> osal_start_timerEx
        0     34   -> printf
        0     36   -> printf
        0     36   -> zclSampleSw_AF_E2C


   Segment part sizes:

   Bytes  Function/Label
   -----  --------------
      19  ?<Constant "\261\276\326\325\266\313\266\314\2
      17  ?<Constant "\262\271\271\342\265\306\322\321\2
      17  ?<Constant "\262\271\271\342\265\306\322\321\2_1
      17  ?<Constant "\267\344\303\371\306\367\322\321\2
      17  ?<Constant "\267\344\303\371\306\367\322\321\2_1
      15  ?<Constant "\275\275\271\340\322\321\271\330\2
      15  ?<Constant "\275\275\271\340\322\321\277\252\3
      25  ?<Constant "\275\323\312\325\265\275\320\255\2
      15  ?<Constant "\315\250\267\347\322\321\271\330\2
      15  ?<Constant "\315\250\267\347\322\321\277\252\3
      15  ?<Constant "\315\370\302\347\322\321\266\317\2
      15  ?<Constant "\315\370\302\347\322\321\273\326\2
      15  ?<Constant "\322\321\274\323\310\353\315\370\3
      15  ?<Constant "\325\332\321\364\315\370\261\325\2
      15  ?<Constant "\325\332\321\364\315\370\264\362\2
      15  ?<Constant "\325\332\321\364\315\370\315\243\3
      21  ?<Constant "\325\375\324\332\311\352\307\353\2
      17  ?<Constant "\327\351\275\250\315\370\302\347\2
       1  ?<Initializer for LED_blink_count>
       1  ?<Initializer for Page>
       1  ?<Initializer for lastStableState>
       7  ?<Initializer for sampleSw_TestEp>
       5  ?Subroutine0
      11  ?Subroutine1
       9  ?Subroutine2
       2  CO2_Data
       2  CO2_u8Data
       2  DHT_Data
       1  GUANZAO_Data
      57  LED
       6  LED::?relay
       1  LED_blink_count
     201  MOTOR_Control
       6  MOTOR_Control::?relay
     244  MyApp_ProcessCommissioningStatus
       6  MyApp_ProcessCommissioningStatus::?relay
       1  P1DIR
       1  P1INP
       1  P1SEL
       1  Page
      37  RETURN_LED
       6  RETURN_LED::?relay
       1  TURANSIDU_Data
       1  _A_P1
       4  __Constant_1388
       4  __Constant_15
       4  __Constant_1f4
       4  __Constant_3e8
       4  __Constant_a
       1  blink_count
       2  dataEndAddr
       4  lastKeyTime
       1  lastStableState
       7  sampleSw_TestEp
       2  sendEndAddr
       1  transferId
       1  transferId
     116  zclSampleSw_AF_E2C
       6  zclSampleSw_AF_E2C::?relay
     124  zclSampleSw_Init
       6  zclSampleSw_Init::?relay
       1  zclSampleSw_TaskID
     871  zclSampleSw_event_loop
       6  zclSampleSw_event_loop::?relay

 
 1 675 bytes in segment BANKED_CODE
    42 bytes in segment BANK_RELAYS
     4 bytes in segment SFR_AN
    10 bytes in segment XDATA_I
    10 bytes in segment XDATA_ID
   320 bytes in segment XDATA_ROM_C
    20 bytes in segment XDATA_Z
 
    52 bytes of CODE     memory
   300 bytes of CONST    memory (+ 20 bytes shared)
     0 bytes of DATA     memory (+  4 bytes shared)
 1 675 bytes of HUGECODE memory
    30 bytes of XDATA    memory

Errors: none
Warnings: none
