###############################################################################
#
# IAR C/C++ Compiler V10.10.1.4655 for 8051               25/Mar/2025  00:11:18
# Copyright 2004-2017 IAR Systems AB.
# Standalone license - IAR Embedded Workbench for 8051
#
#    Core               =  plain
#    Code model         =  banked
#    Data model         =  large
#    Calling convention =  xdata reentrant
#    Constant location  =  data_rom
#    Dptr setup         =  1,16
#                          
#    Source file        =  
#        C:\Texas Instruments\Z-Stack 3.0.1
#        A\Projects\zstack\HomeAutomation\Source\zcl_sampleapps_ui.c
#    Command line       =  
#        -f C:\Users\NING\AppData\Local\Temp\EW6CC5.tmp ("C:\Texas
#        Instruments\Z-Stack 3.0.1
#        A\Projects\zstack\HomeAutomation\Source\zcl_sampleapps_ui.c" -D
#        SECURE=1 -D TC_LINKKEY_JOIN -D NV_INIT -D NV_RESTORE -D xPOWER_SAVING
#        -D NWK_AUTO_POLL -D ZTOOL_P1 -D xMT_TASK -D xMT_APP_FUNC -D
#        xMT_SYS_FUNC -D xMT_ZDO_FUNC -D xMT_ZDO_MGMT -D xMT_APP_CNF_FUNC -D
#        LCD_SUPPORTED=DEBUG -D MULTICAST_ENABLED=FALSE -D ZCL_READ -D
#        ZCL_DISCOVER -D ZCL_WRITE -D ZCL_BASIC -D ZCL_IDENTIFY -D ZCL_ON_OFF
#        -D ZCL_GROUPS -D HAL_UART_DMA_RX_MAX=50 -lC "C:\Texas
#        Instruments\Z-Stack 3.0.1
#        A\Projects\zstack\HomeAutomation\SampleSwitch\CC2530DB\EndDeviceEB\List"
#        -lA "C:\Texas Instruments\Z-Stack 3.0.1
#        A\Projects\zstack\HomeAutomation\SampleSwitch\CC2530DB\EndDeviceEB\List"
#        --diag_suppress Pe001,Pa010 -o "C:\Texas Instruments\Z-Stack 3.0.1
#        A\Projects\zstack\HomeAutomation\SampleSwitch\CC2530DB\EndDeviceEB\Obj"
#        -e --debug --core=plain --dptr=16,1 --data_model=large
#        --code_model=banked --calling_convention=xdata_reentrant
#        --place_constants=data_rom --nr_virtual_regs 16 -f "C:\Texas
#        Instruments\Z-Stack 3.0.1
#        A\Projects\zstack\HomeAutomation\SampleSwitch\CC2530DB\..\..\..\Tools\CC2530DB\f8wEndev.cfg"
#        (-DCPU32MHZ -DROOT=__near_func -DMAC_CFG_TX_DATA_MAX=3
#        -DMAC_CFG_TX_MAX=6 -DMAC_CFG_RX_MAX=3) -f "C:\Texas
#        Instruments\Z-Stack 3.0.1
#        A\Projects\zstack\HomeAutomation\SampleSwitch\CC2530DB\..\..\..\Tools\CC2530DB\f8wConfig.cfg"
#        (-DZIGBEEPRO -DSECURE=1 -DZG_SECURE_DYNAMIC=0 -DREFLECTOR
#        -DDEFAULT_CHANLIST=0x00000800 -DZDAPP_CONFIG_PAN_ID=0xFFFF
#        -DNWK_START_DELAY=100 -DEXTENDED_JOINING_RANDOM_MASK=0x007F
#        -DBEACON_REQUEST_DELAY=100 -DBEACON_REQ_DELAY_MASK=0x00FF
#        -DLINK_STATUS_JITTER_MASK=0x007F -DROUTE_EXPIRY_TIME=30
#        -DAPSC_ACK_WAIT_DURATION_POLLED=3000 -DNWK_INDIRECT_MSG_TIMEOUT=7
#        -DMAX_RREQ_ENTRIES=8 -DAPSC_MAX_FRAME_RETRIES=3
#        -DNWK_MAX_DATA_RETRIES=2 -DMAX_POLL_FAILURE_RETRIES=2 -DMAX_BCAST=9
#        -DAPS_MAX_GROUPS=16 -DMAX_RTG_ENTRIES=40 -DNWK_MAX_BINDING_ENTRIES=4
#        -DMAX_BINDING_CLUSTER_IDS=4 -DDEFAULT_KEY={0} -DMAC_MAX_FRAME_SIZE=116
#        -DZDNWKMGR_MIN_TRANSMISSIONS=20 "-DCONST=const __code"
#        -DGENERIC=__generic -DRFD_RCVC_ALWAYS_ON=FALSE -DPOLL_RATE=1000
#        -DQUEUED_POLL_RATE=100 -DRESPONSE_POLL_RATE=100 -DREJOIN_POLL_RATE=440
#        -DREJOIN_BACKOFF=900000 -DREJOIN_SCAN=900000 -DENABLE_LED4_DISABLE_S1)
#        -f "C:\Texas Instruments\Z-Stack 3.0.1
#        A\Projects\zstack\HomeAutomation\SampleSwitch\CC2530DB\..\..\..\Tools\CC2530DB\f8wZCL.cfg"
#        -I "C:\Texas Instruments\Z-Stack 3.0.1
#        A\Projects\zstack\HomeAutomation\SampleSwitch\CC2530DB\" -I "C:\Texas
#        Instruments\Z-Stack 3.0.1
#        A\Projects\zstack\HomeAutomation\SampleSwitch\CC2530DB\..\Source\" -I
#        "C:\Texas Instruments\Z-Stack 3.0.1
#        A\Projects\zstack\HomeAutomation\SampleSwitch\CC2530DB\..\..\Source\"
#        -I "C:\Texas Instruments\Z-Stack 3.0.1
#        A\Projects\zstack\HomeAutomation\SampleSwitch\CC2530DB\..\..\..\ZMain\TI2530DB\"
#        -I "C:\Texas Instruments\Z-Stack 3.0.1
#        A\Projects\zstack\HomeAutomation\SampleSwitch\CC2530DB\..\..\..\..\..\Components\hal\include\"
#        -I "C:\Texas Instruments\Z-Stack 3.0.1
#        A\Projects\zstack\HomeAutomation\SampleSwitch\CC2530DB\..\..\..\..\..\Components\hal\target\CC2530EB\"
#        -I "C:\Texas Instruments\Z-Stack 3.0.1
#        A\Projects\zstack\HomeAutomation\SampleSwitch\CC2530DB\..\..\..\..\..\Components\mac\include\"
#        -I "C:\Texas Instruments\Z-Stack 3.0.1
#        A\Projects\zstack\HomeAutomation\SampleSwitch\CC2530DB\..\..\..\..\..\Components\mac\high_level\"
#        -I "C:\Texas Instruments\Z-Stack 3.0.1
#        A\Projects\zstack\HomeAutomation\SampleSwitch\CC2530DB\..\..\..\..\..\Components\mac\low_level\srf04\"
#        -I "C:\Texas Instruments\Z-Stack 3.0.1
#        A\Projects\zstack\HomeAutomation\SampleSwitch\CC2530DB\..\..\..\..\..\Components\mac\low_level\srf04\single_chip\"
#        -I "C:\Texas Instruments\Z-Stack 3.0.1
#        A\Projects\zstack\HomeAutomation\SampleSwitch\CC2530DB\..\..\..\..\..\Components\mt\"
#        -I "C:\Texas Instruments\Z-Stack 3.0.1
#        A\Projects\zstack\HomeAutomation\SampleSwitch\CC2530DB\..\..\..\..\..\Components\osal\include\"
#        -I "C:\Texas Instruments\Z-Stack 3.0.1
#        A\Projects\zstack\HomeAutomation\SampleSwitch\CC2530DB\..\..\..\..\..\Components\services\saddr\"
#        -I "C:\Texas Instruments\Z-Stack 3.0.1
#        A\Projects\zstack\HomeAutomation\SampleSwitch\CC2530DB\..\..\..\..\..\Components\services\sdata\"
#        -I "C:\Texas Instruments\Z-Stack 3.0.1
#        A\Projects\zstack\HomeAutomation\SampleSwitch\CC2530DB\..\..\..\..\..\Components\stack\af\"
#        -I "C:\Texas Instruments\Z-Stack 3.0.1
#        A\Projects\zstack\HomeAutomation\SampleSwitch\CC2530DB\..\..\..\..\..\Components\stack\bdb\"
#        -I "C:\Texas Instruments\Z-Stack 3.0.1
#        A\Projects\zstack\HomeAutomation\SampleSwitch\CC2530DB\..\..\..\..\..\Components\stack\gp\"
#        -I "C:\Texas Instruments\Z-Stack 3.0.1
#        A\Projects\zstack\HomeAutomation\SampleSwitch\CC2530DB\..\..\..\..\..\Components\stack\nwk\"
#        -I "C:\Texas Instruments\Z-Stack 3.0.1
#        A\Projects\zstack\HomeAutomation\SampleSwitch\CC2530DB\..\..\..\..\..\Components\stack\sapi\"
#        -I "C:\Texas Instruments\Z-Stack 3.0.1
#        A\Projects\zstack\HomeAutomation\SampleSwitch\CC2530DB\..\..\..\..\..\Components\stack\sec\"
#        -I "C:\Texas Instruments\Z-Stack 3.0.1
#        A\Projects\zstack\HomeAutomation\SampleSwitch\CC2530DB\..\..\..\..\..\Components\stack\sys\"
#        -I "C:\Texas Instruments\Z-Stack 3.0.1
#        A\Projects\zstack\HomeAutomation\SampleSwitch\CC2530DB\..\..\..\..\..\Components\stack\zcl\"
#        -I "C:\Texas Instruments\Z-Stack 3.0.1
#        A\Projects\zstack\HomeAutomation\SampleSwitch\CC2530DB\..\..\..\..\..\Components\stack\zdo\"
#        -I "C:\Texas Instruments\Z-Stack 3.0.1
#        A\Projects\zstack\HomeAutomation\SampleSwitch\CC2530DB\..\..\..\..\..\Components\zmac\"
#        -I "C:\Texas Instruments\Z-Stack 3.0.1
#        A\Projects\zstack\HomeAutomation\SampleSwitch\CC2530DB\..\..\..\..\..\Components\zmac\f8w\"
#        -Ohz --require_prototypes)
#    Locale             =  Chinese (Simplified)_China.936
#    List file          =  
#        C:\Texas Instruments\Z-Stack 3.0.1
#        A\Projects\zstack\HomeAutomation\SampleSwitch\CC2530DB\EndDeviceEB\List\zcl_sampleapps_ui.lst
#    Object file        =  
#        C:\Texas Instruments\Z-Stack 3.0.1
#        A\Projects\zstack\HomeAutomation\SampleSwitch\CC2530DB\EndDeviceEB\Obj\zcl_sampleapps_ui.r51
#
###############################################################################

C:\Texas Instruments\Z-Stack 3.0.1 A\Projects\zstack\HomeAutomation\Source\zcl_sampleapps_ui.c
      1          /**************************************************************************************************
      2            Filename:       zcl_sampleapps_ui.c
      3            Revised:        $Date: 2016-8-1 16:04:46 -0700 (Fri, 24 Oct 2014) $
      4            Revision:       $Revision: 40796 $
      5          
      6          
      7            Description:    Z-Stack Sample Application User Interface.
      8          
      9          
     10            Copyright 2006-2016 Texas Instruments Incorporated. All rights reserved.
     11          
     12            IMPORTANT: Your use of this Software is limited to those specific rights
     13            granted under the terms of a software license agreement between the user
     14            who downloaded the software, his/her employer (which must be your employer)
     15            and Texas Instruments Incorporated (the "License").  You may not use this
     16            Software unless you agree to abide by the terms of the License. The License
     17            limits your use, and you acknowledge, that the Software may not be modified,
     18            copied or distributed unless embedded on a Texas Instruments microcontroller
     19            or used solely and exclusively in conjunction with a Texas Instruments radio
     20            frequency transceiver, which is integrated into your product.  Other than for
     21            the foregoing purpose, you may not use, reproduce, copy, prepare derivative
     22            works of, modify, distribute, perform, display or sell this Software and/or
     23            its documentation for any purpose.
     24          
     25            YOU FURTHER ACKNOWLEDGE AND AGREE THAT THE SOFTWARE AND DOCUMENTATION ARE
     26            PROVIDED "AS IS" WITHOUT WARRANTY OF ANY KIND, EITHER EXPRESS OR IMPLIED,
     27            INCLUDING WITHOUT LIMITATION, ANY WARRANTY OF MERCHANTABILITY, TITLE,
     28            NON-INFRINGEMENT AND FITNESS FOR A PARTICULAR PURPOSE. IN NO EVENT SHALL
     29            TEXAS INSTRUMENTS OR ITS LICENSORS BE LIABLE OR OBLIGATED UNDER CONTRACT,
     30            NEGLIGENCE, STRICT LIABILITY, CONTRIBUTION, BREACH OF WARRANTY, OR OTHER
     31            LEGAL EQUITABLE THEORY ANY DIRECT OR INDIRECT DAMAGES OR EXPENSES
     32            INCLUDING BUT NOT LIMITED TO ANY INCIDENTAL, SPECIAL, INDIRECT, PUNITIVE
     33            OR CONSEQUENTIAL DAMAGES, LOST PROFITS OR LOST DATA, COST OF PROCUREMENT
     34            OF SUBSTITUTE GOODS, TECHNOLOGY, SERVICES, OR ANY CLAIMS BY THIRD PARTIES
     35            (INCLUDING BUT NOT LIMITED TO ANY DEFENSE THEREOF), OR OTHER SIMILAR COSTS.
     36          
     37            Should you have any questions regarding your right to use this Software,
     38            contact Texas Instruments Incorporated at www.TI.com.
     39          **************************************************************************************************/
     40          
     41          /*********************************************************************
     42            This file implements the user interface that is common to most of the Z-Stack sample applications.
     43          
     44            The sample applications are intended for the following platforms:
     45            - CC2530EM+SmartRF05
     46            - CC2538EM+SmartRF06
     47          
     48            The UI peripherals being used:
     49          
     50            - LCD based menu system:
     51              only using 3 lines of 16 characters each, for compatibility accross platforms.
     52          
     53            - Switches: 
     54              Using 4 directional switches and one selection switch. On SmartRF05, these are implemented by
     55              the joystick.
     56          
     57              - The switches have the following functionality, where applicable:
     58                - Left/Right: depending on the menu screen, these are used for either:
     59                  - move to the previous/next menu screen
     60                  - move to the previous/next digit/sub-item within a menu screen
     61                - Up/Down: change the value of the currently selected item
     62                - Ok (Select): execute the operation associated with the current menu screeen
     63          
     64            - LEDs:
     65              LED1 is used differently by the individual applications.
     66              the 3 other LEDs are common accross all the applications, and function as follows:
     67          
     68              - LED2: device state and type
     69                - Off: not connected to network
     70                - Constantly on: connected to the network as an end device
     71                - Blinking, 4 seconds period, 95% duty cycle: connected to the network as a router
     72                - Blinking, 4 seconds period, 75% duty cycle: connected to the network as a coordinator
     73          
     74              - LED3: identify status
     75                - Off: device is not identifying
     76                - Blinking, 1 second period, 50% duty cycle: device is identifying
     77          
     78              - LED4: open for joining status
     79                - Off: other devices cannot join through this device
     80                - Blinking, 1 second period, 25% duty cycle: other devices can join using standard comissioning
     81                - Blinking, 1 second period, 75% duty cycle: other devices can join using touchlink (i.e
     82                  touchlink is enabled on the current device as a target)
     83                - On: device can join using either standard comissioning or touchlink
     84          
     85            The menu system:
     86          
     87              <HELP> Wellcome screen
     88                Displays the sample application name.
     89                Press and hold [OK] to show a simple help screen.
     90                
     91                Help screen
     92                Release [OK] to go back to the welcome screen.
     93                
     94              <CONFIGURE> Configuration sub-menu
     95                Press [OK] to display the configuration sub-menu
     96                
     97                <ADD INSTL CODE> install code sub-menu
     98                  Press [OK] to display the install code sub-menu
     99                  
    100                  <SET INSTL CODE> set install code
    101                    Press [OK] to to edit the install code
    102                    
    103                    Install code editing screen
    104                      Press [LEFT] / [RIGHT] to select a digit
    105                      Press [UP] / [DOWN] to change the selected digit
    106                      press [OK] to to go back to the higher menu level
    107                      
    108                  <SET I.C. ADDR> set install code address (coordinator only)
    109                    Press [OK] to to edit the install code address
    110          
    111                    Install code address editing screen
    112                      Press [LEFT] / [RIGHT] to select a digit
    113                      Press [UP] / [DOWN] to change the selected digit
    114                      press [OK] to to go back to the higher menu level
    115                      
    116                  <APLY INST CODE> apply install code
    117                    Press [OK] to apply the address+Install-Code pair (coordinator) or the Install-Code (Routers and End-Devices)
    118                    This menu screen also displays the status of the last apply-install-code operation
    119          
    120                  <BACK> go back to higher menu level
    121                    press [OK] to to go back to the higher menu level
    122                  
    123                <T.L. TRGT TIME> Set the touchlink enable duration
    124                  Press and hold [UP] / [DOWN] to increase / decrease the displayed time. The longer the press, the faster
    125                  the change. 
    126                  The maximum duration is 86400 seconds. Increasing it above this value will display '(forever)' - 
    127                  in this setting, the touchlink target will stay active once started and untill manually stopped.
    128                  The minimum duration is 1 second. Decreasing it below this value sets tohchlink target to always disabled.
    129                  This menu item is only available if BDB_TL_TARGET is defined.
    130          
    131                <T.L. STEALING> enable/disable touchlink stealing
    132                  Press [OK] to toggle (enable/disable) touchlink stealing.
    133                  When stealing is enabled, a touchlink target may be 'stolen' by another device acting as a touchlink 
    134                  initiator, which will take it out of its existing network and add it to another network.
    135                  This menu item is only available if BDB_TL_TARGET is defined.
    136          
    137                <T.L. INITIATOR> enable/disable touchlink initiator
    138                  Press [OK] to toggle (enable/disable) touchlink initiator.
    139                  When enabled, touchlink initiator functionality will be executed as part of the commissioning procedure.
    140                  This menu item is only available if BDB_TL_INITIATOR is defined.
    141          
    142                <NWK FORMATION> enable/disable network formation for when cannot connect to an existing network
    143                  Press [OK] to toggle (enable/disable) network formation.
    144                  When enabled, network formation will be executed as part of the commissioning procedure, unless 
    145                  the device has already joined a network.
    146          
    147                <NWK STEERING> enable/disable attempting to connect to an existing network
    148                  Press [OK] to toggle (enable/disable) network steering.
    149                  When enabled, network steering will be executed as part of the commissioning procedure, so the
    150                  device will try to join an existing network, and will open the network for joining of other devices
    151                  once it is joined.
    152          
    153                <FINDNG+BINDNG> enable/disable finding and binding
    154                  Press [OK] to toggle (enable/disable) finding and binding (F&B).
    155                  When enabled, finding and binding will be executed as part of the commissioning procedure, so the
    156                  device will either start identifying, look for matchng devices that are currently identifying, or 
    157                  both (depending of whether it is a F&B target, initiator, or both).
    158                
    159                <PRI CHANL MASK> set the primary channel mask
    160                  Press [OK] to edit the primary channel list
    161          
    162                  Primary channel list editing screen
    163                    Press [LEFT] / [RIGHT] to select a channel (from channel 11 to channel 26)
    164                    Press [UP] / [DOWN] to enable / disable the selected channel, accordingly.
    165                    press [OK] to to go back to the higher menu level
    166          
    167                <SEC CHANL MASK> set the secondary channel mask
    168                  Press [OK] to edit the secondary channel list
    169                  
    170                  Secondary channel list editing screen
    171                    Press [LEFT] / [RIGHT] to select a channel (from channel 11 to channel 26)
    172                    Press [UP] / [DOWN] to enable / disable the selected channel, accordingly
    173                    press [OK] to to go back to the higher menu level
    174                  
    175                <PAN ID> set the PAN ID
    176                  Press [OK] to edit the PAN ID to create / connect to
    177                  
    178                  PAN ID editing screen
    179                    Press [LEFT] / [RIGHT] to select the digit to edit
    180                    Press [UP] / [DOWN] to change the selected digit
    181                    press [OK] to to go back to the higher menu level
    182                  
    183                <BACK> go back to higher menu level
    184                  press [OK] to to go back to the higher menu level
    185                
    186              <COMMISSION> start comissionin
    187                Press [OK] to start the commissioning procedure. (Note: this is disabled if a previous comissioning is
    188                already on-going).
    189                This procedure will execute the following methods, depending on whether they are enabled or disabled
    190                in the respective configuration item):
    191                  - Touchlink (as Touchlink Initiator)
    192                  - Network Steering
    193                  - Network Formation
    194                  - Finding and Binding
    195                This screen shows the following information
    196                  Line1:
    197                    Current commissioning method being executed:
    198                      TL: Touchlink
    199                      NS: Network Steering
    200                      NF: Network Formation
    201                      FB: Finding And Binding
    202                      PL: Parent Lost (for end devices only)
    203                      -- - idle (commissioning not currently active)
    204                    Network status
    205                      NotOnNwk - not currently connected to a network
    206                      FORM - network was formed by the current device during the latest execution of the NF method
    207                      JOIN - the current device joined an existing network during the latest execution of the NS method
    208                      TCHL - the current device joined a network using touchlink 
    209                      EXST - the device was already connected to a network when the commissioning was started
    210                    Joining permission state (not showing on end devices):
    211                      CLOSED - the current device is closed for joining of other devices
    212                      OpenXXX - the current device is open for joining of other devices, and will close in XXX seconds
    213                  Line2:
    214                    IdXXX - The device is identifying (if XXX > 0), and will stop identifying in XXX seconds.
    215                    SrchXXX/YY - The device is currently performing F&B as an Initiator (if XXX > 0), and will stop in
    216                      XXX seconds. YY is the number of matching endpoints that were foind, for which bindings were 
    217                      successfully created or already existed.
    218                  
    219              <T.L. TARGET> start touchlink target
    220                Press [OK] to start / stop touchlink target functionality.
    221                When not active, pressing [OK] will start touchlink target for the duration defined by the respective
    222                configuration item.
    223                When active, pressing OK will immidiately stop touchlink target functionality.
    224                This menu item is only available if BDB_TL_TARGET is defined.
    225          
    226              <APP MENU> application-specific sub-menu
    227                Press [OK] to enter the application-specific sub-menu.
    228                See the main comment in the specific application c file for more details.
    229                
    230              <INFO> device and network information
    231                This screen has no operation related to it. It shows the following information:
    232                  Line1:
    233                    Device IEEE address
    234                  Line2: (only meaningful when the device is on a network)
    235                    nXXXX - the Network pan-id
    236                    cXX - the Channel the network is active on
    237                    aXXXX - the short Address of the device
    238                  Line3:
    239                    XXX (YYY) - the device is not connected to a network.
    240                      XXX is either ZR, ZC or ZED, depending on the build configuration.
    241                      YYY is the network-state value (see definition of devStates_t in ZDApp.h).
    242                    ZC - the device is connected to a network as a coordinator.
    243                    ZR CENT - the device is connected to a centralized network as a router.
    244                    ZR DIST - the device is connected to a distributed network as a router.
    245                    ZED pXXXX - the device is connected to a network as an end device. Parent address is XXXX.
    246          
    247              <RESET TO FN> reset the device to factory-new
    248                Press [OK] to reset the device to factory-new. The device will disconnect from the network, and 
    249                all configurations and network information will be deleted.
    250          
    251          *********************************************************************/
    252          
    253          #ifdef LEGACY_LCD_DEBUG
    254          #error Please disable LEGACY_LCD_DEBUG.
    255          #endif
    256          
    257          #if (BDB_INSTALL_CODE_USE!=BDB_INSTALL_CODE_USE_IC_CRC)
    258          #warning Install-Code functionality is disabled. To enable, make sure BDB_INSTALL_CODE_USE==BDB_INSTALL_CODE_USE_IC_CRC
    259          #endif
    260          
    261          /*********************************************************************
    262           * INCLUDES
    263           */
    264          #include "hal_types.h"
    265          #include "hal_key.h"
    266          #include "bdb_interface.h"
    267          #include "hal_lcd.h"
    268          #include "hal_led.h"
    269          #include "zcl.h"
    270          #include "zdapp.h"
    271          #include "zcl_sampleapps_ui.h"
    272          
    273          #ifdef BDB_TL_TARGET
    274            #include "bdb_touchlink_target.h"
    275          #endif
    276          
    277          
    278          /*********************************************************************
    279           * CONSTANT-MACROS AND ENUMERATIONS
    280           */
    281          enum
    282          {
    283            UI_STATE_DEFAULT = 0,
    284            UI_STATE_CONFIGURE,
    285            UI_STATE_COMMISSION,
    286          #ifdef BDB_TL_TARGET
    287            UI_STATE_TOGGLE_TL_TARGET,
    288          #endif
    289            UI_STATE_APP_SPECIFIC_MENU,
    290            UI_STATE_INFO,
    291            UI_STATE_RESET_TO_FACTORY_NEW,
    292            UI_STATE_STATE_HELP,
    293            UI_STATE_SET_INST_CODE,
    294          #ifdef BDB_TL_TARGET
    295            UI_STATE_TOUCHLINK_TARGET,
    296            UI_STATE_TOUCHLINK_STEALING,
    297          #endif
    298          #ifdef BDB_TL_INITIATOR
    299            UI_STATE_TOUCHLINK_INITIATOR,
    300          #endif
    301            UI_STATE_NETWORK_FORMATION,
    302            UI_STATE_NETWORK_STEERING,
    303            UI_STATE_FINDING_AND_BINDING,
    304            UI_STATE_SET_PRI_CHANEL_MASK_0,
    305            UI_STATE_SET_SEC_CHANEL_MASK_0,
    306            UI_STATE_SET_PAN_ID_0,
    307            UI_STATE_BACK_FROM_CONFIGURE,
    308            UI_STATE_SET_PRI_CHANEL_MASK_1,
    309            UI_STATE_SET_SEC_CHANEL_MASK_1,
    310            UI_STATE_SET_PAN_ID_1,
    311            UI_STATE_SET_INST_CODE_0,
    312          #if (ZG_BUILD_COORDINATOR_TYPE)
    313            UI_STATE_SET_INST_CODE_ADDR_0,
    314          #endif
    315            UI_STATE_SET_INST_CODE_DONE,
    316            UI_STATE_BACK_FROM_INSTALL_CODE,
    317            UI_STATE_SET_INST_CODE_1,
    318          #if (ZG_BUILD_COORDINATOR_TYPE)
    319            UI_STATE_SET_INST_CODE_ADDR_1,
    320          #endif
    321          };
    322          
    323          #define DEFAULT_COMISSIONING_MODE (BDB_COMMISSIONING_MODE_NWK_STEERING | BDB_COMMISSIONING_MODE_NWK_FORMATION | BDB_COMMISSIONING_MODE_FINDING_BINDING)
    324          
    325          #define TOUCHLINK_TIMEOUT_INCREMENTS_INITIAL 1000
    326          #define TOUCHLINK_TIMEOUT_INCREMENTS_MAX 10000000
    327          
    328          #define DEFAULT_TOUCHLINK_TARGET_TIMEOUT 30000
    329          
    330          #define LCD_CURSOR_UPDATE_INTERVAL 500
    331          
    332          #define LCD_AUTO_REFRESH_INTERVAL_ON_COMISSIONING_SCREEN 250
    333          
    334          #define LCD_AUTO_UPDATE_INTERVAL_ON_TOUCHLINK_TARGET_SCREEN 1000
    335          #define LCD_AUTO_UPDATE_INTERVAL_ON_TOUCHLINK_TARGET_SCREEN_END 50
    336          
    337          #define LCD_LINE_LENGTH 16
    338          
    339          #define STATUS_UNKNOWN 0xFF
    340          
    341          #define LCD_CURSOR_CHAR ' '
    342          
    343          #define UI_INSTALL_CODE_DEFAULT {0x83,0xFE,0xD3,0x40,0x7A,0x93,0x97,0x23,0xA5,0xC6,0x39,0xB2,0x69,0x16,0xD5,0x05,0xC3,0xB5} //This install code produces the key: 66B6900981E1EE3CA4206B6B861C02BB
    344          #define UI_INSTALL_CODE_ADDR_DEFAULT {0xE7,0xFC,0x0E,0x04,0x00,0x4B,0x12,0x00}
    345          
    346          
    347          #ifdef HAL_BOARD_CC2538
    348          #define UI_LCD_LINE_1 HAL_LCD_LINE_3
    349          #define UI_LCD_LINE_2 HAL_LCD_LINE_4
    350          #define UI_LCD_LINE_3 HAL_LCD_LINE_5
    351          
    352          #define LCD_CC2538_PREFIX_COUNT 3
    353          #else
    354          #define UI_LCD_LINE_1 HAL_LCD_LINE_1
    355          #define UI_LCD_LINE_2 HAL_LCD_LINE_2
    356          #define UI_LCD_LINE_3 HAL_LCD_LINE_3
    357          
    358          #define LCD_CC2538_PREFIX_COUNT 0
    359          #endif
    360          
    361          #define UI_LED_IDENTIFY_DUTY_CYCLE    50
    362          
    363          #define UI_LED_COORDINATOR_DUTY_CYCLE 75
    364          #define UI_LED_ROUTER_DUTY_CYCLE      95
    365          #define UI_LED_END_DEVICE_DUTY_CYCLE 100
    366          
    367          #define UI_LED_DEVICE_STATE_FLASH_TIME 4000
    368          
    369          #define UI_LED_DEVICE_STATE       HAL_LED_2
    370          #define UI_LED_IDENTIFY           HAL_LED_3
    371          #define UI_LED_NETWORK_OPEN_STATE HAL_LED_4
    372          
    373          #define NWK_OPEN_FOR_JOINING 0x1
    374          #define NWK_OPEN_TOUCHLINK_AS_TARGET 0x2
    375          
    376          /*********************************************************************
    377           * TYPEDEFS
    378           */
    379             
    380          /*********************************************************************
    381          * LOCAL FUNCTIONS DECLARATIONS
    382          */
    383          static void uiUintToString(uint32 value, char * str, uint8 base, uint8 num_of_digists, bool pad0, bool reverse);
    384          static void uiArrayToString(uint8 * buf, char * str, uint8 num_of_digists, bool big_endian);
    385          static void uiCreateChannelMaskString(uint32 channel_mask, char * str);
    386          
    387          
    388          #ifdef BDB_TL_TARGET
    389          static void uiActionToggleTlTarget(uint16 keys);
    390          #endif
    391          static void uiActionStartComissioning(uint16 keys);
    392          static void uiActionSetInstallCode(uint16 keys);
    393          static void uiActionResetToFactoryNew(uint16 keys);
    394          static void uiActionConfigureEnables(uint16 keys);
    395          static void uiActionMenuJump(uint16 keys);
    396          static void uiActionProcessConfigureChannels(uint16 keys);
    397          static void uiActionProcessConfigurePanId(uint16 keys);
    398          static void uiActionProcessPrepareInstallCode(uint16 keys);
    399          static void uiActionAppSecificMenu(uint16 keys);
    400          
    401          static void *uiProcessPermitJoin( void *duration );
    402          
    403          static void uiProcessIdentifyTimeChange( uint8 endpoint );
    404          
    405          static void uiProcessBindNotification( bdbBindNotificationData_t *data );
    406          
    407          #ifdef BDB_TL_TARGET
    408          static void uiProcessTouchlinkTargetEnable( uint8 enable );
    409          #endif
    410          
    411          /*********************************************************************
    412           * CONSTANTS
    413           */

   \                                 In  segment XDATA_ROM_C, align 1
    414          static const uiState_t gui_states_main[] = 
   \                     gui_states_main:
   \   000000   FE           DB 254
   \   000001   05           DB 5
   \   000002   0400         DW 4
   \   000004   ....         DW `??uiActionMenuJump::?relay`
   \   000006   FE           DB 254
   \   000007   FE           DB 254
   \   000008   0400         DW 4
   \   00000A   ....         DW `??uiActionMenuJump::?relay`
   \   00000C   FE           DB 254
   \   00000D   FE           DB 254
   \   00000E   0400         DW 4
   \   000010   ....         DW `??uiActionStartComissioning::?relay`
   \   000012   FE           DB 254
   \   000013   FE           DB 254
   \   000014   0400         DW 4
   \   000016   ....         DW `??uiActionAppSecificMenu::?relay`
   \   000018   FE           DB 254
   \   000019   FE           DB 254
   \   00001A   0000         DW 0
   \   00001C   0000         DW 0H
   \   00001E   00           DB 0
   \   00001F   FE           DB 254
   \   000020   0400         DW 4
   \   000022   ....         DW `??uiActionResetToFactoryNew::?relay`
   \   000024   FF           DB 255
   \   000025   FF           DB 255
   \   000026   0004         DW 1024
   \   000028   ....         DW `??uiActionMenuJump::?relay`
   \   00002A   FE           DB 254
   \   00002B   0E           DB 14
   \   00002C   0400         DW 4
   \   00002E   ....         DW `??uiActionMenuJump::?relay`
   \   000030   FE           DB 254
   \   000031   FE           DB 254
   \   000032   0400         DW 4
   \   000034   ....         DW `??uiActionConfigureEnables::?relay`
   \   000036   FE           DB 254
   \   000037   FE           DB 254
   \   000038   0400         DW 4
   \   00003A   ....         DW `??uiActionConfigureEnables::?relay`
   \   00003C   FE           DB 254
   \   00003D   FE           DB 254
   \   00003E   0400         DW 4
   \   000040   ....         DW `??uiActionConfigureEnables::?relay`
   \   000042   FE           DB 254
   \   000043   FE           DB 254
   \   000044   0400         DW 4
   \   000046   ....         DW `??uiActionMenuJump::?relay`
   \   000048   FE           DB 254
   \   000049   FE           DB 254
   \   00004A   0400         DW 4
   \   00004C   ....         DW `??uiActionMenuJump::?relay`
   \   00004E   FE           DB 254
   \   00004F   FE           DB 254
   \   000050   0400         DW 4
   \   000052   ....         DW `??uiActionMenuJump::?relay`
   \   000054   07           DB 7
   \   000055   FE           DB 254
   \   000056   0400         DW 4
   \   000058   ....         DW `??uiActionMenuJump::?relay`
   \   00005A   FF           DB 255
   \   00005B   FF           DB 255
   \   00005C   1F04         DW 1055
   \   00005E   ....         DW `??uiActionProcessConfigureChannels::?relay`
   \   000060   FF           DB 255
   \   000061   FF           DB 255
   \   000062   1F04         DW 1055
   \   000064   ....         DW `??uiActionProcessConfigureChannels::?relay`
   \   000066   FF           DB 255
   \   000067   FF           DB 255
   \   000068   1F04         DW 1055
   \   00006A   ....         DW `??uiActionProcessConfigurePanId::?relay`
   \   00006C   FE           DB 254
   \   00006D   14           DB 20
   \   00006E   0400         DW 4
   \   000070   ....         DW `??uiActionMenuJump::?relay`
   \   000072   FE           DB 254
   \   000073   FE           DB 254
   \   000074   0400         DW 4
   \   000076   ....         DW `??uiActionSetInstallCode::?relay`
   \   000078   12           DB 18
   \   000079   FE           DB 254
   \   00007A   0400         DW 4
   \   00007C   ....         DW `??uiActionMenuJump::?relay`
   \   00007E   FF           DB 255
   \   00007F   FF           DB 255
   \   000080   1F04         DW 1055
   \   000082   ....         DW `??uiActionProcessPrepareInstallCode::?relay`
    415          {
    416            /*  UI_STATE_DEFAULT                */ {UI_STATE_DEFAULT_MOVE,          UI_STATE_RESET_TO_FACTORY_NEW,    UI_KEY_SW_5_PRESSED, &uiActionMenuJump},
    417            /*  UI_STATE_CONFIGURE              */ {UI_STATE_DEFAULT_MOVE,          UI_STATE_DEFAULT_MOVE,            UI_KEY_SW_5_PRESSED, &uiActionMenuJump},
    418            /*  UI_STATE_COMMISSION             */ {UI_STATE_DEFAULT_MOVE,          UI_STATE_DEFAULT_MOVE,            UI_KEY_SW_5_PRESSED, &uiActionStartComissioning},
    419          #ifdef BDB_TL_TARGET
    420            /*  UI_STATE_TOGGLE_TL_TARGET       */ {UI_STATE_DEFAULT_MOVE,          UI_STATE_DEFAULT_MOVE,            UI_KEY_SW_5_PRESSED, &uiActionToggleTlTarget},
    421          #endif
    422            /*  UI_STATE_APP_SPECIFIC_MENU      */ {UI_STATE_DEFAULT_MOVE,          UI_STATE_DEFAULT_MOVE,            UI_KEY_SW_5_PRESSED, &uiActionAppSecificMenu},
    423            /*  UI_STATE_INFO                   */ {UI_STATE_DEFAULT_MOVE,          UI_STATE_DEFAULT_MOVE,            0, NULL},
    424            /*  UI_STATE_RESET_TO_FACTORY_NEW   */ {UI_STATE_DEFAULT,               UI_STATE_DEFAULT_MOVE,            UI_KEY_SW_5_PRESSED, &uiActionResetToFactoryNew},
    425          
    426            /*  UI_STATE_STATE_HELP             */ {UI_STATE_UNCHANGED,             UI_STATE_UNCHANGED,               UI_KEY_SW_5_RELEASED,&uiActionMenuJump},
    427          
    428            /*  UI_STATE_SET_INST_CODE          */ {UI_STATE_DEFAULT_MOVE,          UI_STATE_BACK_FROM_CONFIGURE,     UI_KEY_SW_5_PRESSED, &uiActionMenuJump},
    429          #ifdef BDB_TL_TARGET
    430            /*  UI_STATE_TOUCHLINK_TARGET       */ {UI_STATE_DEFAULT_MOVE,          UI_STATE_DEFAULT_MOVE,            UI_KEY_SW_1_PRESSED | UI_KEY_SW_3_PRESSED | UI_KEY_SW_1_RELEASED | UI_KEY_SW_3_RELEASED, &uiActionConfigureEnables},
    431            /*  UI_STATE_TOUCHLINK_STEALING     */ {UI_STATE_DEFAULT_MOVE,          UI_STATE_DEFAULT_MOVE,            UI_KEY_SW_5_PRESSED, &uiActionConfigureEnables},
    432          #endif
    433          #ifdef BDB_TL_INITIATOR
    434            /*  UI_STATE_TOUCHLINK_INITIATOR    */ {UI_STATE_DEFAULT_MOVE,          UI_STATE_DEFAULT_MOVE,            UI_KEY_SW_5_PRESSED, &uiActionConfigureEnables},
    435          #endif
    436            /*  UI_STATE_NETWORK_FORMATION      */ {UI_STATE_DEFAULT_MOVE,          UI_STATE_DEFAULT_MOVE,            UI_KEY_SW_5_PRESSED, &uiActionConfigureEnables},
    437            /*  UI_STATE_NETWORK_STEERING       */ {UI_STATE_DEFAULT_MOVE,          UI_STATE_DEFAULT_MOVE,            UI_KEY_SW_5_PRESSED, &uiActionConfigureEnables},
    438            /*  UI_STATE_FINDING_AND_BINDING    */ {UI_STATE_DEFAULT_MOVE,          UI_STATE_DEFAULT_MOVE,            UI_KEY_SW_5_PRESSED, &uiActionConfigureEnables},
    439            /*  UI_STATE_SET_PRI_CHANEL_MASK_0  */ {UI_STATE_DEFAULT_MOVE,          UI_STATE_DEFAULT_MOVE,            UI_KEY_SW_5_PRESSED, &uiActionMenuJump},
    440            /*  UI_STATE_SET_SEC_CHANEL_MASK_0  */ {UI_STATE_DEFAULT_MOVE,          UI_STATE_DEFAULT_MOVE,            UI_KEY_SW_5_PRESSED, &uiActionMenuJump},
    441            /*  UI_STATE_SET_PAN_ID_0           */ {UI_STATE_DEFAULT_MOVE,          UI_STATE_DEFAULT_MOVE,            UI_KEY_SW_5_PRESSED, &uiActionMenuJump},
    442            /*  UI_STATE_BACK_FROM_CONFIGURE    */ {UI_STATE_SET_INST_CODE,         UI_STATE_DEFAULT_MOVE,            UI_KEY_SW_5_PRESSED, &uiActionMenuJump},
    443          
    444            /*  UI_STATE_SET_PRI_CHANEL_MASK_1  */ {UI_STATE_UNCHANGED,             UI_STATE_UNCHANGED,               UI_KEY_SW_1_PRESSED | UI_KEY_SW_3_PRESSED | UI_KEY_SW_5_PRESSED | UI_KEY_SW_2_PRESSED  | UI_KEY_SW_4_PRESSED | UI_KEY_SW_5_RELEASED , &uiActionProcessConfigureChannels},
    445            /*  UI_STATE_SET_SEC_CHANEL_MASK_1  */ {UI_STATE_UNCHANGED,             UI_STATE_UNCHANGED,               UI_KEY_SW_1_PRESSED | UI_KEY_SW_3_PRESSED | UI_KEY_SW_5_PRESSED | UI_KEY_SW_2_PRESSED  | UI_KEY_SW_4_PRESSED | UI_KEY_SW_5_RELEASED , &uiActionProcessConfigureChannels},
    446            /*  UI_STATE_SET_PAN_ID_1           */ {UI_STATE_UNCHANGED,             UI_STATE_UNCHANGED,               UI_KEY_SW_1_PRESSED | UI_KEY_SW_3_PRESSED | UI_KEY_SW_5_PRESSED | UI_KEY_SW_2_PRESSED  | UI_KEY_SW_4_PRESSED | UI_KEY_SW_5_RELEASED , &uiActionProcessConfigurePanId},
    447          
    448            /*  UI_STATE_SET_INST_CODE_0        */ {UI_STATE_DEFAULT_MOVE,          UI_STATE_BACK_FROM_INSTALL_CODE,  UI_KEY_SW_5_PRESSED, &uiActionMenuJump},
    449          #if (ZG_BUILD_COORDINATOR_TYPE)
    450            /*  UI_STATE_SET_INST_CODE_ADDR_0   */ {UI_STATE_DEFAULT_MOVE,          UI_STATE_DEFAULT_MOVE,            UI_KEY_SW_5_PRESSED, &uiActionMenuJump},
    451          #endif  
    452            /*  UI_STATE_SET_INST_CODE_DONE     */ {UI_STATE_DEFAULT_MOVE,          UI_STATE_DEFAULT_MOVE,            UI_KEY_SW_5_PRESSED, &uiActionSetInstallCode},
    453            /*  UI_STATE_BACK_FROM_INSTALL_CODE */ {UI_STATE_SET_INST_CODE_0,       UI_STATE_DEFAULT_MOVE,            UI_KEY_SW_5_PRESSED, &uiActionMenuJump},
    454          
    455            /*  UI_STATE_SET_INST_CODE_1        */ {UI_STATE_UNCHANGED,             UI_STATE_UNCHANGED,               UI_KEY_SW_1_PRESSED | UI_KEY_SW_3_PRESSED | UI_KEY_SW_5_PRESSED | UI_KEY_SW_2_PRESSED  | UI_KEY_SW_4_PRESSED | UI_KEY_SW_5_RELEASED , &uiActionProcessPrepareInstallCode},
    456          #if (ZG_BUILD_COORDINATOR_TYPE)
    457            /*  UI_STATE_SET_INST_CODE_ADDR_1   */ {UI_STATE_UNCHANGED,             UI_STATE_UNCHANGED,               UI_KEY_SW_1_PRESSED | UI_KEY_SW_3_PRESSED | UI_KEY_SW_5_PRESSED | UI_KEY_SW_2_PRESSED  | UI_KEY_SW_4_PRESSED | UI_KEY_SW_5_RELEASED , &uiActionProcessPrepareInstallCode},
    458          #endif
    459          };
    460          
    461          /*********************************************************************
    462           * GLOBAL VARIABLES
    463           */
    464          
    465          /*********************************************************************
    466           * GLOBAL FUNCTIONS
    467           */
    468          
    469          /*********************************************************************
    470           * EXTERNAL REFERENCES
    471           */
    472          extern uint8 aExtendedAddress[];
    473          
    474          /*********************************************************************
    475           * LOCAL VARIABLES
    476           */

   \                                 In  segment XDATA_Z, align 1, keep-with-next
    477          static uint8 uiAppTaskId;
   \                     uiAppTaskId:
   \   000000                DS 1
   \   000001                REQUIRE __INIT_XDATA_Z

   \                                 In  segment XDATA_Z, align 1, keep-with-next
    478          static uint16 uiLcdAutoUpdateEvent;
   \                     uiLcdAutoUpdateEvent:
   \   000000                DS 2
   \   000002                REQUIRE __INIT_XDATA_Z

   \                                 In  segment XDATA_Z, align 1, keep-with-next
    479          static uint16 * pUiIdentifyTimeAttribute;
   \                     pUiIdentifyTimeAttribute:
   \   000000                DS 2
   \   000002                REQUIRE __INIT_XDATA_Z
    480          

   \                                 In  segment XDATA_Z, align 1, keep-with-next
    481          static uiAppUpdateLcd_t uiAppUpdateLcd;
   \                     uiAppUpdateLcd:
   \   000000                DS 2
   \   000002                REQUIRE __INIT_XDATA_Z

   \                                 In  segment XDATA_Z, align 1, keep-with-next
    482          static const uiState_t * uiAppStatesMain = NULL;
   \                     uiAppStatesMain:
   \   000000                DS 2
   \   000002                REQUIRE __INIT_XDATA_Z
    483          

   \                                 In  segment XDATA_Z, align 1, keep-with-next
    484          static uint8 FBMatchesFound = 0;
   \                     FBMatchesFound:
   \   000000                DS 1
   \   000001                REQUIRE __INIT_XDATA_Z
    485          

   \                                 In  segment XDATA_Z, align 1, keep-with-next
    486          static int uiCurrentState = UI_STATE_DEFAULT;
   \                     uiCurrentState:
   \   000000                DS 2
   \   000002                REQUIRE __INIT_XDATA_Z

   \                                 In  segment XDATA_Z, align 1, keep-with-next
    487          static bool uiCommissioningIsInitializing = FALSE;
   \                     uiCommissioningIsInitializing:
   \   000000                DS 1
   \   000001                REQUIRE __INIT_XDATA_Z
    488          

   \                                 In  segment XDATA_I, align 1, keep-with-next
    489          static uint8 uiLcdCursorLine = 0xFF;
   \                     uiLcdCursorLine:
   \   000000                DS 1
   \   000001                REQUIRE `?<Initializer for uiLcdCursorLine>`
   \   000001                REQUIRE __INIT_XDATA_I

   \                                 In  segment XDATA_Z, align 1, keep-with-next
    490          static uint8 uiLcdCursorCol;
   \                     uiLcdCursorCol:
   \   000000                DS 1
   \   000001                REQUIRE __INIT_XDATA_Z

   \                                 In  segment XDATA_Z, align 1, keep-with-next
    491          static uint8 uiLcdCursorState;
   \                     uiLcdCursorState:
   \   000000                DS 1
   \   000001                REQUIRE __INIT_XDATA_Z
    492          

   \                                 In  segment XDATA_I, align 1, keep-with-next
    493          static uint8 uiSelectedBdbComissioningModes = DEFAULT_COMISSIONING_MODE;
   \                     uiSelectedBdbComissioningModes:
   \   000000                DS 1
   \   000001                REQUIRE `?<Initializer for uiSelectedBdbComissioningMod`
   \   000001                REQUIRE __INIT_XDATA_I
    494          

   \                                 In  segment XDATA_I, align 1, keep-with-next
    495          static ZStatus_t uiAddInstallCodeLastStatus = STATUS_UNKNOWN;
   \                     uiAddInstallCodeLastStatus:
   \   000000                DS 1
   \   000001                REQUIRE `?<Initializer for uiAddInstallCodeLastStatus>`
   \   000001                REQUIRE __INIT_XDATA_I
    496          

   \                                 In  segment XDATA_I, align 1, keep-with-next
    497          static char * uiCommissioningStateStr = "--";
   \                     uiCommissioningStateStr:
   \   000000                DS 2
   \   000002                REQUIRE `?<Initializer for uiCommissioningStateStr>`
   \   000002                REQUIRE __INIT_XDATA_I

   \                                 In  segment XDATA_Z, align 1, keep-with-next
    498          static char * uiCommissioningNetworkConnrctionStr = NULL;
   \                     uiCommissioningNetworkConnrctionStr:
   \   000000                DS 2
   \   000002                REQUIRE __INIT_XDATA_Z
    499          

   \                                 In  segment XDATA_Z, align 1, keep-with-next
    500          static bool uiComissioningIsActive = FALSE;
   \                     uiComissioningIsActive:
   \   000000                DS 1
   \   000001                REQUIRE __INIT_XDATA_Z
    501          

   \                                 In  segment XDATA_Z, align 1, keep-with-next
    502          static bool uiResetInitiated = FALSE;
   \                     uiResetInitiated:
   \   000000                DS 1
   \   000001                REQUIRE __INIT_XDATA_Z
    503          
    504          #ifdef BDB_TL_TARGET
    505          static uint16 uiKeyAutoRepeatEvent;
    506          static uint32 uiLcdAutoUpdateInterval;
    507          
    508          static uint16 uiAutoKeyRepeatDelay = 500;
    509          static uint32 uiAutoKeyRepeatCount = 0;
    510          
    511          static uint32 uiTouchlinkTargetTimeout = DEFAULT_TOUCHLINK_TARGET_TIMEOUT;
    512          #endif
    513          

   \                                 In  segment XDATA_I, align 1, keep-with-next
    514          static uint8 uiInstallCode[] = UI_INSTALL_CODE_DEFAULT;
   \                     uiInstallCode:
   \   000000                DS 18
   \   000012                REQUIRE `?<Initializer for uiInstallCode>`
   \   000012                REQUIRE __INIT_XDATA_I
    515          #if (ZG_BUILD_COORDINATOR_TYPE)
    516          static uint8 uiInstallCodeAddr[Z_EXTADDR_LEN] = UI_INSTALL_CODE_ADDR_DEFAULT;
    517          #endif
    518          

   \                                 In  segment XDATA_I, align 1, keep-with-next
    519          static const uiState_t * uiStates = gui_states_main;
   \                     uiStates:
   \   000000                DS 2
   \   000002                REQUIRE `?<Initializer for uiStates>`
   \   000002                REQUIRE __INIT_XDATA_I
    520          

   \                                 In  segment XDATA_Z, align 1, keep-with-next
    521          static char * uiAppTitleStr;
   \                     uiAppTitleStr:
   \   000000                DS 2
   \   000002                REQUIRE __INIT_XDATA_Z
    522          

   \                                 In  segment XDATA_I, align 1, keep-with-next
    523          static uint8 uiNetworkOpenStateLedDutyCycle[] = {0, 25, 75, 100}; //25% = open for joining; 75% = touchlink target; 100% = both;
   \                     uiNetworkOpenStateLedDutyCycle:
   \   000000                DS 4
   \   000004                REQUIRE `?<Initializer for uiNetworkOpenStateLedDutyCyc`
   \   000004                REQUIRE __INIT_XDATA_I

   \                                 In  segment XDATA_Z, align 1, keep-with-next
    524          static uint8 uiNwkOpenState = 0x00;
   \                     uiNwkOpenState:
   \   000000                DS 1
   \   000001                REQUIRE __INIT_XDATA_Z
    525          

   \                                 In  segment XDATA_Z, align 1, keep-with-next
    526          static devStates_t uiNwkStateShadow = DEV_HOLD;
   \                     uiNwkStateShadow:
   \   000000                DS 1
   \   000001                REQUIRE __INIT_XDATA_Z
    527          
    528          /*********************************************************************
    529           * LOCAL UTILITY FUNCTIONS
    530           */
    531          
    532          /*********************************************************************
    533           * @fn          uiUintToString
    534           *
    535           * @brief       format an integer into a string buffer.
    536           *
    537           * @param       value - 32bit unsigned int value to be formatted
    538           *              str - pointer to a buffer to store the formatted bnumber
    539           *              base - base represenation of the value. currently only tested base 10 and 16
    540           *              num_of_digists - number of digits to include in the formatted string
    541           *              pad0 - should be set to TRUE to pad the number with leading 0's as required
    542           *              reverse - should be set to TRUE to reverse the output string
    543           *
    544           * @return      none
    545           */

   \                                 In  segment BANKED_CODE, align 1, keep-with-next
    546          static void uiUintToString (uint32 value, char * str, uint8 base, uint8 num_of_digists, bool pad0, bool reverse)
   \                     uiUintToString:
    547          {
   \   000000                REQUIRE ?V0
   \   000000                REQUIRE ?V1
   \   000000                REQUIRE ?V2
   \   000000                REQUIRE ?V3
   \   000000                REQUIRE ?V4
   \   000000                REQUIRE ?V5
   \   000000                REQUIRE ?V6
   \   000000                REQUIRE ?V7
   \   000000                REQUIRE ?V8
   \   000000                REQUIRE ?V9
   \   000000                REQUIRE ?V10
   \   000000                REQUIRE ?V11
   \   000000                REQUIRE ?V12
   \   000000                REQUIRE ?V13
   \   000000                REQUIRE ?V14
   \   000000                REQUIRE ?V15
   \   000000   74E8         MOV       A,#-0x18
   \   000002   12....       LCALL     ?BANKED_ENTER_XDATA
   \   000005                ; Saved register size: 24
   \   000005                ; Auto size: 1
   \   000005   74FF         MOV       A,#-0x1
   \   000007   12....       LCALL     ?ALLOC_XSTACK8
   \   00000A   E9           MOV       A,R1
   \   00000B   85..82       MOV       DPL,?XSP + 0
   \   00000E   85..83       MOV       DPH,?XSP + 1
   \   000011   F0           MOVX      @DPTR,A
   \   000012   8A..         MOV       ?V4,R2
   \   000014   8B..         MOV       ?V5,R3
   \   000016   8C..         MOV       ?V6,R4
   \   000018   8D..         MOV       ?V7,R5
    548            int i;
    549            uint8 index;
    550            
    551            for (i = 0; i < num_of_digists; i++)
   \   00001A   7A00         MOV       R2,#0x0
   \   00001C   7B00         MOV       R3,#0x0
   \   00001E   F5..         MOV       ?V8,A
   \   000020   E4           CLR       A
   \   000021   F5..         MOV       ?V9,A
   \   000023   F5..         MOV       ?V10,A
   \   000025   F5..         MOV       ?V11,A
   \   000027   741B         MOV       A,#0x1b
   \   000029   12....       LCALL     ?XSTACK_DISP0_8
   \   00002C   E0           MOVX      A,@DPTR
   \   00002D   FC           MOV       R4,A
   \   00002E   741C         MOV       A,#0x1c
   \   000030   12....       LCALL     ?XSTACK_DISP0_8
   \   000033   E0           MOVX      A,@DPTR
   \   000034   FE           MOV       R6,A
   \   000035   741D         MOV       A,#0x1d
   \   000037   12....       LCALL     ?XSTACK_DISP0_8
   \   00003A   E0           MOVX      A,@DPTR
   \   00003B   FD           MOV       R5,A
   \   00003C   8005         SJMP      ??uiUintToString_0
   \                     ??uiUintToString_1:
   \   00003E   0A           INC       R2
   \   00003F   EA           MOV       A,R2
   \   000040   7001         JNZ       ??uiUintToString_0
   \   000042   0B           INC       R3
   \                     ??uiUintToString_0:
   \   000043   EC           MOV       A,R4
   \   000044   F8           MOV       R0,A
   \   000045   C3           CLR       C
   \   000046   EA           MOV       A,R2
   \   000047   98           SUBB      A,R0
   \   000048   12....       LCALL     ?Subroutine25 & 0xFFFF
   \                     ??CrossCallReturnLabel_66:
   \   00004B   5069         JNC       ??uiUintToString_2
    552            {
    553              index = (reverse ? i : num_of_digists - 1 - i);
   \   00004D   ED           MOV       A,R5
   \   00004E   6003         JZ        ??uiUintToString_3
   \   000050   EA           MOV       A,R2
   \   000051   8007         SJMP      ??uiUintToString_4
   \                     ??uiUintToString_3:
   \   000053   EA           MOV       A,R2
   \   000054   F8           MOV       R0,A
   \   000055   74FF         MOV       A,#-0x1
   \   000057   2C           ADD       A,R4
   \   000058   C3           CLR       C
   \   000059   98           SUBB      A,R0
   \                     ??uiUintToString_4:
   \   00005A   FF           MOV       R7,A
    554              str[index] = '0' + (value % base);
   \   00005B   85....       MOV       ?V12,?V8
   \   00005E   85....       MOV       ?V13,?V9
   \   000061   85....       MOV       ?V14,?V10
   \   000064   85....       MOV       ?V15,?V11
   \   000067   85....       MOV       ?V0,?V4
   \   00006A   85....       MOV       ?V1,?V5
   \   00006D   85....       MOV       ?V2,?V6
   \   000070   85....       MOV       ?V3,?V7
   \   000073   78..         MOV       R0,#?V0
   \   000075   79..         MOV       R1,#?V12
   \   000077   12....       LCALL     ?UL_DIV_MOD
   \   00007A   E5..         MOV       A,?V12
   \   00007C   2430         ADD       A,#0x30
   \   00007E   F5..         MOV       ?V0,A
   \   000080   EF           MOV       A,R7
   \   000081   F8           MOV       R0,A
   \   000082   7419         MOV       A,#0x19
   \   000084   12....       LCALL     ?XSTACK_DISP0_8
   \   000087   12....       LCALL     ?Subroutine18 & 0xFFFF
   \                     ??CrossCallReturnLabel_41:
   \   00008A   E5..         MOV       A,?V0
   \   00008C   F0           MOVX      @DPTR,A
    555              if (str[index] > '9')
   \   00008D   C3           CLR       C
   \   00008E   943A         SUBB      A,#0x3a
   \   000090   4004         JC        ??uiUintToString_5
    556              {
    557                str[index] += 'A' - '0' - 10;
   \   000092   E0           MOVX      A,@DPTR
   \   000093   2407         ADD       A,#0x7
   \   000095   F0           MOVX      @DPTR,A
    558              }
    559              value /= base;
   \                     ??uiUintToString_5:
   \   000096   85....       MOV       ?V0,?V8
   \   000099   85....       MOV       ?V1,?V9
   \   00009C   85....       MOV       ?V2,?V10
   \   00009F   85....       MOV       ?V3,?V11
   \   0000A2   78..         MOV       R0,#?V4
   \   0000A4   79..         MOV       R1,#?V0
   \   0000A6   12....       LCALL     ?UL_DIV_MOD
    560              if ((!pad0) && (value == 0))
   \   0000A9   EE           MOV       A,R6
   \   0000AA   7092         JNZ       ??uiUintToString_1
   \   0000AC   E5..         MOV       A,?V4
   \   0000AE   45..         ORL       A,?V5
   \   0000B0   45..         ORL       A,?V6
   \   0000B2   45..         ORL       A,?V7
   \   0000B4   7088         JNZ       ??uiUintToString_1
    561              {
    562                break;
    563              }
    564            }
    565          }
   \                     ??uiUintToString_2:
   \   0000B6   7401         MOV       A,#0x1
   \   0000B8   12....       LCALL     ?DEALLOC_XSTACK8
   \   0000BB   7F10         MOV       R7,#0x10
   \   0000BD   02....       LJMP      ?BANKED_LEAVE_XDATA

   \                                 In  segment BANKED_CODE, align 1, keep-with-next
   \                     ?Subroutine25:
   \   000000   EB           MOV       A,R3
   \   000001                REQUIRE ??Subroutine32_0
   \   000001                ; // Fall through to label ??Subroutine32_0

   \                                 In  segment BANKED_CODE, align 1, keep-with-next
   \                     ??Subroutine32_0:
   \   000000   9400         SUBB      A,#0x0
   \   000002   A2D2         MOV       C,0xD0 /* PSW */.2
   \   000004   65D0         XRL       A,PSW
   \   000006   33           RLC       A
   \   000007   22           RET

   \                                 In  segment BANKED_CODE, align 1, keep-with-next
   \                     ?Subroutine18:
   \   000000   E0           MOVX      A,@DPTR
   \   000001   28           ADD       A,R0
   \   000002   F8           MOV       R0,A
   \   000003   A3           INC       DPTR
   \   000004   E0           MOVX      A,@DPTR
   \   000005   3400         ADDC      A,#0x0
   \   000007   F9           MOV       R1,A
   \   000008   8882         MOV       DPL,R0
   \   00000A   8983         MOV       DPH,R1
   \   00000C   22           RET
    566          
    567          /*********************************************************************
    568           * @fn          uiArrayToString
    569           *
    570           * @brief       format a memory buffer into a string buffer in hex representation.
    571           *
    572           * @param       buf - pointer to a bufer to be formatted
    573           *              str - pointer to a buffer to store the formatted string
    574           *              num_of_digists - number of digits to include in the formatted string
    575           *              big_endian - whether the memory content should be represented as big or little endian
    576           *
    577           * @return      none
    578           */

   \                                 In  segment BANKED_CODE, align 1, keep-with-next
    579          static void uiArrayToString (uint8 * buf, char * str, uint8 num_of_digists, bool big_endian)
   \                     uiArrayToString:
    580          {
   \   000000                REQUIRE ?V0
   \   000000                REQUIRE ?V1
   \   000000                REQUIRE ?V2
   \   000000                REQUIRE ?V3
   \   000000                REQUIRE ?V4
   \   000000                REQUIRE ?V5
   \   000000                REQUIRE ?V6
   \   000000                REQUIRE ?V8
   \   000000                REQUIRE ?V9
   \   000000   74EE         MOV       A,#-0x12
   \   000002   12....       LCALL     ?BANKED_ENTER_XDATA
   \   000005                ; Saved register size: 18
   \   000005                ; Auto size: 0
   \   000005   EA           MOV       A,R2
   \   000006   FE           MOV       R6,A
   \   000007   EB           MOV       A,R3
   \   000008   FF           MOV       R7,A
   \   000009   8C..         MOV       ?V0,R4
   \   00000B   8D..         MOV       ?V1,R5
   \   00000D   89..         MOV       ?V5,R1
    581            int i;
    582            uint8 stringIndex;
    583            uint8 value;
    584            
    585            for (i = 0; i < num_of_digists; i++)
   \   00000F   7C00         MOV       R4,#0x0
   \   000011   7D00         MOV       R5,#0x0
   \   000013   7412         MOV       A,#0x12
   \   000015   12....       LCALL     ?XSTACK_DISP0_8
   \   000018   E0           MOVX      A,@DPTR
   \   000019   F5..         MOV       ?V6,A
   \   00001B   803F         SJMP      ??uiArrayToString_0
    586            {
    587              stringIndex = (big_endian ? i : num_of_digists - 1 - i);
    588              if(big_endian)
    589              {
    590                value = (buf[i / 2] >> (4 * (!(i % 2)))) & 0x0F;
   \                     ??uiArrayToString_1:
   \   00001D   75..00       MOV       ?V2,#0x0
   \                     ??uiArrayToString_2:
   \   000020   EC           MOV       A,R4
   \   000021   F8           MOV       R0,A
   \   000022   ED           MOV       A,R5
   \   000023   F9           MOV       R1,A
   \   000024   7A02         MOV       R2,#0x2
   \   000026   7B00         MOV       R3,#0x0
   \   000028   12....       LCALL     ?S_DIV_MOD
   \   00002B   12....       LCALL     ?Subroutine26 & 0xFFFF
   \                     ??CrossCallReturnLabel_59:
   \   00002E   A8..         MOV       R0,?V2
   \   000030   B80002       CJNE      R0,#0x0,??uiArrayToString_3
   \   000033   8004         SJMP      ??uiArrayToString_4
   \                     ??uiArrayToString_3:
   \   000035   C3           CLR       C
   \   000036   13           RRC       A
   \   000037   D8FC         DJNZ      R0,??uiArrayToString_3
   \                     ??uiArrayToString_4:
   \   000039   540F         ANL       A,#0xf
   \   00003B   F8           MOV       R0,A
    591              }
    592              else
    593              {
    594                value = (buf[i / 2] >> (4 * (i % 2))) & 0x0F;
    595              }
    596              str[stringIndex] = '0' + value;
   \   00003C   7430         MOV       A,#0x30
   \   00003E   28           ADD       A,R0
   \   00003F   F8           MOV       R0,A
   \   000040   AA..         MOV       R2,?V4
   \   000042   E5..         MOV       A,?V0
   \   000044   2A           ADD       A,R2
   \   000045   F582         MOV       DPL,A
   \   000047   E4           CLR       A
   \   000048   35..         ADDC      A,?V1
   \   00004A   F583         MOV       DPH,A
   \   00004C   E8           MOV       A,R0
   \   00004D   F0           MOVX      @DPTR,A
    597              if (str[stringIndex] > '9')
   \   00004E   C3           CLR       C
   \   00004F   943A         SUBB      A,#0x3a
   \   000051   4004         JC        ??uiArrayToString_5
    598              {
    599                str[stringIndex] += 'A' - '0' - 10;
   \   000053   E0           MOVX      A,@DPTR
   \   000054   2407         ADD       A,#0x7
   \   000056   F0           MOVX      @DPTR,A
    600              }
   \                     ??uiArrayToString_5:
   \   000057   0C           INC       R4
   \   000058   EC           MOV       A,R4
   \   000059   7001         JNZ       ??uiArrayToString_0
   \   00005B   0D           INC       R5
   \                     ??uiArrayToString_0:
   \   00005C   A8..         MOV       R0,?V5
   \   00005E   C3           CLR       C
   \   00005F   EC           MOV       A,R4
   \   000060   98           SUBB      A,R0
   \   000061   ED           MOV       A,R5
   \   000062   12....       LCALL     ??Subroutine32_0 & 0xFFFF
   \                     ??CrossCallReturnLabel_65:
   \   000065   5047         JNC       ??uiArrayToString_6
   \   000067   EC           MOV       A,R4
   \   000068   F8           MOV       R0,A
   \   000069   ED           MOV       A,R5
   \   00006A   F9           MOV       R1,A
   \   00006B   7A02         MOV       R2,#0x2
   \   00006D   7B00         MOV       R3,#0x0
   \   00006F   12....       LCALL     ?S_DIV_MOD
   \   000072   8B..         MOV       ?V3,R3
   \   000074   E5..         MOV       A,?V6
   \   000076   600D         JZ        ??uiArrayToString_7
   \   000078   EC           MOV       A,R4
   \   000079   F5..         MOV       ?V4,A
   \   00007B   EA           MOV       A,R2
   \   00007C   45..         ORL       A,?V3
   \   00007E   709D         JNZ       ??uiArrayToString_1
   \   000080   75..04       MOV       ?V2,#0x4
   \   000083   809B         SJMP      ??uiArrayToString_2
   \                     ??uiArrayToString_7:
   \   000085   EC           MOV       A,R4
   \   000086   F8           MOV       R0,A
   \   000087   74FF         MOV       A,#-0x1
   \   000089   25..         ADD       A,?V5
   \   00008B   C3           CLR       C
   \   00008C   98           SUBB      A,R0
   \   00008D   F5..         MOV       ?V4,A
   \   00008F   ED           MOV       A,R5
   \   000090   F9           MOV       R1,A
   \   000091   7A02         MOV       R2,#0x2
   \   000093   7B00         MOV       R3,#0x0
   \   000095   12....       LCALL     ?S_DIV_MOD
   \   000098   12....       LCALL     ?Subroutine26 & 0xFFFF
    601            }
   \                     ??CrossCallReturnLabel_60:
   \   00009B   F5..         MOV       ?V8,A
   \   00009D   75..00       MOV       ?V9,#0x0
   \   0000A0   EA           MOV       A,R2
   \   0000A1   33           RLC       A
   \   0000A2   33           RLC       A
   \   0000A3   54FC         ANL       A,#0xfc
   \   0000A5   78..         MOV       R0,#?V8
   \   0000A7   12....       LCALL     ?SS_SHR
   \   0000AA   E5..         MOV       A,?V8
   \   0000AC   808B         SJMP      ??uiArrayToString_4
    602          }
   \                     ??uiArrayToString_6:
   \   0000AE                REQUIRE ?Subroutine0
   \   0000AE                ; // Fall through to label ?Subroutine0

   \                                 In  segment BANKED_CODE, align 1, keep-with-next
   \                     ?Subroutine0:
   \   000000   7F0A         MOV       R7,#0xa
   \   000002   02....       LJMP      ?BANKED_LEAVE_XDATA

   \                                 In  segment BANKED_CODE, align 1, keep-with-next
   \                     ?Subroutine26:
   \   000000   89..         MOV       ?V9,R1
   \   000002   EE           MOV       A,R6
   \   000003   28           ADD       A,R0
   \   000004   F582         MOV       DPL,A
   \   000006   EF           MOV       A,R7
   \   000007   35..         ADDC      A,?V9
   \   000009   F583         MOV       DPH,A
   \   00000B   E0           MOVX      A,@DPTR
   \   00000C   22           RET
    603          
    604          /*********************************************************************
    605           * @fn          uiCreateChannelMaskString
    606           *
    607           * @brief       format a channel mask into a string bugger
    608           *
    609           * @param       channel_mask - bitmask of the enabled / disabled channels (bits 11-26 represent the
    610           *                respective channels)
    611           *              str - pointer to a buffer to store the formatted string
    612           *
    613           * @return      none
    614           */

   \                                 In  segment BANKED_CODE, align 1, keep-with-next
    615          static void uiCreateChannelMaskString(uint32 channel_mask, char * str)
   \                     uiCreateChannelMaskString:
    616          {
   \   000000                REQUIRE ?V0
   \   000000                REQUIRE ?V1
   \   000000                REQUIRE ?V2
   \   000000                REQUIRE ?V3
   \   000000                REQUIRE ?V4
   \   000000                REQUIRE ?V5
   \   000000                REQUIRE ?V6
   \   000000                REQUIRE ?V7
   \   000000                REQUIRE ?V8
   \   000000                REQUIRE ?V9
   \   000000                REQUIRE ?V10
   \   000000                REQUIRE ?V11
   \   000000   74EC         MOV       A,#-0x14
   \   000002   12....       LCALL     ?BANKED_ENTER_XDATA
   \   000005                ; Saved register size: 20
   \   000005                ; Auto size: 1
   \   000005   74FF         MOV       A,#-0x1
   \   000007   12....       LCALL     ?ALLOC_XSTACK8
   \   00000A   8A..         MOV       ?V4,R2
   \   00000C   8B..         MOV       ?V5,R3
   \   00000E   8C..         MOV       ?V6,R4
   \   000010   8D..         MOV       ?V7,R5
    617            int i;
    618            uint32 mask = 0x00000800;
   \   000012   75..00       MOV       ?V0,#0x0
   \   000015   75..08       MOV       ?V1,#0x8
   \   000018   75..00       MOV       ?V2,#0x0
   \   00001B   75..00       MOV       ?V3,#0x0
    619            
    620            for (i = 0; i < 16; i++)
   \   00001E   7A00         MOV       R2,#0x0
   \   000020   7B00         MOV       R3,#0x0
   \   000022   7415         MOV       A,#0x15
   \   000024   12....       LCALL     ?XSTACK_DISP0_8
   \   000027   12....       LCALL     ??Subroutine33_0 & 0xFFFF
    621            {
    622              str[i] = channel_mask & mask ? '*' : '-';
   \                     ??CrossCallReturnLabel_68:
   \   00002A   85....       MOV       ?V8,?V4
   \   00002D   85....       MOV       ?V9,?V5
   \   000030   85....       MOV       ?V10,?V6
   \   000033   85....       MOV       ?V11,?V7
   \   000036   78..         MOV       R0,#?V8
   \   000038   79..         MOV       R1,#?V0
   \   00003A   12....       LCALL     ?L_AND
   \   00003D   E5..         MOV       A,?V8
   \   00003F   45..         ORL       A,?V9
   \   000041   45..         ORL       A,?V10
   \   000043   45..         ORL       A,?V11
   \   000045   85..82       MOV       DPL,?XSP + 0
   \   000048   85..83       MOV       DPH,?XSP + 1
   \   00004B   6004         JZ        ??uiCreateChannelMaskString_0
   \   00004D   742A         MOV       A,#0x2a
   \   00004F   8002         SJMP      ??uiCreateChannelMaskString_1
   \                     ??uiCreateChannelMaskString_0:
   \   000051   742D         MOV       A,#0x2d
   \                     ??uiCreateChannelMaskString_1:
   \   000053   F0           MOVX      @DPTR,A
   \   000054   E0           MOVX      A,@DPTR
   \   000055   C0E0         PUSH      A
   \   000057   EC           MOV       A,R4
   \   000058   2A           ADD       A,R2
   \   000059   F582         MOV       DPL,A
   \   00005B   ED           MOV       A,R5
   \   00005C   3B           ADDC      A,R3
   \   00005D   F583         MOV       DPH,A
   \   00005F   D0E0         POP       A
   \   000061   F0           MOVX      @DPTR,A
    623              mask <<= 1;
   \   000062   7401         MOV       A,#0x1
   \   000064   78..         MOV       R0,#?V0
   \   000066   12....       LCALL     ?L_SHL
    624            }
   \   000069   0A           INC       R2
   \   00006A   EA           MOV       A,R2
   \   00006B   7001         JNZ       ??uiCreateChannelMaskString_2
   \   00006D   0B           INC       R3
   \                     ??uiCreateChannelMaskString_2:
   \   00006E   C3           CLR       C
   \   00006F   9410         SUBB      A,#0x10
   \   000071   12....       LCALL     ?Subroutine25 & 0xFFFF
   \                     ??CrossCallReturnLabel_67:
   \   000074   40B4         JC        ??CrossCallReturnLabel_68
    625            
    626            str[16] = 0;
   \   000076   EC           MOV       A,R4
   \   000077   2410         ADD       A,#0x10
   \   000079   F582         MOV       DPL,A
   \   00007B   E4           CLR       A
   \   00007C   3D           ADDC      A,R5
   \   00007D   F583         MOV       DPH,A
   \   00007F   E4           CLR       A
   \   000080   F0           MOVX      @DPTR,A
    627          }
   \   000081   04           INC       A
   \   000082   12....       LCALL     ?DEALLOC_XSTACK8
   \   000085   7F0C         MOV       R7,#0xc
   \   000087   02....       LJMP      ?BANKED_LEAVE_XDATA

   \                                 In  segment BANKED_CODE, align 1, keep-with-next
   \                     ??Subroutine33_0:
   \   000000   E0           MOVX      A,@DPTR
   \   000001   FC           MOV       R4,A
   \   000002   A3           INC       DPTR
   \   000003   E0           MOVX      A,@DPTR
   \   000004   FD           MOV       R5,A
   \   000005   22           RET
    628          
    629          
    630          /*********************************************************************
    631           * LOCAL FUNCTIONS
    632           */
    633          
    634          /*********************************************************************
    635           * @fn          uiActionMenuJump
    636           *
    637           * @brief       State-machine action for jumping to another state
    638           *
    639           * @param       keys - the keypress code that triggered the call to this function
    640           *
    641           * @return      none
    642           */

   \                                 In  segment BANKED_CODE, align 1, keep-with-next
    643          static void uiActionMenuJump(uint16 keys)
   \                     uiActionMenuJump:
    644          {
   \   000000                REQUIRE ?V0
   \   000000                REQUIRE ?V1
   \   000000   74F6         MOV       A,#-0xa
   \   000002   12....       LCALL     ?BANKED_ENTER_XDATA
   \   000005                ; Saved register size: 10
   \   000005                ; Auto size: 0
    645            switch (uiCurrentState)
   \   000005   90....       MOV       DPTR,#uiCurrentState
   \   000008   12....       LCALL     ?Subroutine30 & 0xFFFF
   \                     ??CrossCallReturnLabel_91:
   \   00000B   7069         JNZ       ??uiActionMenuJump_0
   \   00000D   E5..         MOV       A,?V0
   \   00000F   12....       LCALL     ?UC_SWITCH_SPARSE
   \                     `?<Jumptable for uiActionMenuJump>_0`:
   \   000012   00           DB        0
   \   000013   0A           DB        10
   \   000014   00           DB        0
   \   000015   ....         DW        ??uiActionMenuJump_1
   \   000017   01           DB        1
   \   000018   ....         DW        ??uiActionMenuJump_2
   \   00001A   06           DB        6
   \   00001B   ....         DW        ??uiActionMenuJump_3
   \   00001D   07           DB        7
   \   00001E   ....         DW        ??uiActionMenuJump_4
   \   000020   0B           DB        11
   \   000021   ....         DW        ??uiActionMenuJump_5
   \   000023   0C           DB        12
   \   000024   ....         DW        ??uiActionMenuJump_6
   \   000026   0D           DB        13
   \   000027   ....         DW        ??uiActionMenuJump_7
   \   000029   0E           DB        14
   \   00002A   ....         DW        ??uiActionMenuJump_8
   \   00002C   12           DB        18
   \   00002D   ....         DW        ??uiActionMenuJump_9
   \   00002F   14           DB        20
   \   000030   ....         DW        ??uiActionMenuJump_2
   \   000032   ....         DW        ??uiActionMenuJump_0
    646            {
    647              case UI_STATE_DEFAULT:
    648                uiCurrentState = UI_STATE_STATE_HELP;
   \                     ??uiActionMenuJump_1:
   \   000034   90....       MOV       DPTR,#uiCurrentState
   \   000037   7406         MOV       A,#0x6
   \   000039   8037         SJMP      ??uiActionMenuJump_10
    649                break;
    650              case UI_STATE_STATE_HELP:
    651                uiCurrentState = UI_STATE_DEFAULT;
   \                     ??uiActionMenuJump_3:
   \   00003B   90....       MOV       DPTR,#uiCurrentState
   \   00003E   E4           CLR       A
   \   00003F   F0           MOVX      @DPTR,A
   \   000040   A3           INC       DPTR
   \   000041   8032         SJMP      ??uiActionMenuJump_11
    652                break;
    653              case UI_STATE_CONFIGURE:
    654                uiCurrentState = UI_STATE_SET_INST_CODE;
    655                break;
    656              case UI_STATE_BACK_FROM_CONFIGURE:
    657                uiCurrentState = UI_STATE_CONFIGURE;
   \                     ??uiActionMenuJump_8:
   \   000043   90....       MOV       DPTR,#uiCurrentState
   \   000046   7401         MOV       A,#0x1
   \   000048   8028         SJMP      ??uiActionMenuJump_10
    658                break;
    659              case UI_STATE_SET_PRI_CHANEL_MASK_0:
    660                uiCurrentState = UI_STATE_SET_PRI_CHANEL_MASK_1;
   \                     ??uiActionMenuJump_5:
   \   00004A   90....       MOV       DPTR,#uiCurrentState
   \   00004D   740F         MOV       A,#0xf
   \   00004F   8021         SJMP      ??uiActionMenuJump_10
    661                break;
    662              case UI_STATE_SET_SEC_CHANEL_MASK_0:
    663                uiCurrentState = UI_STATE_SET_SEC_CHANEL_MASK_1;
   \                     ??uiActionMenuJump_6:
   \   000051   90....       MOV       DPTR,#uiCurrentState
   \   000054   7410         MOV       A,#0x10
   \   000056   801A         SJMP      ??uiActionMenuJump_10
    664                break;
    665              case UI_STATE_SET_PAN_ID_0:
    666                uiCurrentState = UI_STATE_SET_PAN_ID_1;
   \                     ??uiActionMenuJump_7:
   \   000058   90....       MOV       DPTR,#uiCurrentState
   \   00005B   7411         MOV       A,#0x11
   \   00005D   8013         SJMP      ??uiActionMenuJump_10
    667                break;
    668              case UI_STATE_SET_INST_CODE:
    669                uiCurrentState = UI_STATE_SET_INST_CODE_0;
   \                     ??uiActionMenuJump_4:
   \   00005F   90....       MOV       DPTR,#uiCurrentState
   \   000062   7412         MOV       A,#0x12
   \   000064   800C         SJMP      ??uiActionMenuJump_10
    670                break;
    671              case UI_STATE_SET_INST_CODE_0:
    672                uiCurrentState = UI_STATE_SET_INST_CODE_1;
   \                     ??uiActionMenuJump_9:
   \   000066   90....       MOV       DPTR,#uiCurrentState
   \   000069   7415         MOV       A,#0x15
   \   00006B   8005         SJMP      ??uiActionMenuJump_10
    673                break;
    674          #if (ZG_BUILD_COORDINATOR_TYPE)
    675              case UI_STATE_SET_INST_CODE_ADDR_0:
    676                uiCurrentState = UI_STATE_SET_INST_CODE_ADDR_1;
    677                break;
    678          #endif
    679              case UI_STATE_BACK_FROM_INSTALL_CODE:
    680                uiCurrentState = UI_STATE_SET_INST_CODE;
   \                     ??uiActionMenuJump_2:
   \   00006D   90....       MOV       DPTR,#uiCurrentState
   \   000070   7407         MOV       A,#0x7
   \                     ??uiActionMenuJump_10:
   \   000072   F0           MOVX      @DPTR,A
   \   000073   A3           INC       DPTR
   \   000074   E4           CLR       A
   \                     ??uiActionMenuJump_11:
   \   000075   F0           MOVX      @DPTR,A
    681                break;
    682            }
    683          }
   \                     ??uiActionMenuJump_0:
   \   000076                REQUIRE ?Subroutine1
   \   000076                ; // Fall through to label ?Subroutine1

   \                                 In  segment BANKED_CODE, align 1, keep-with-next
   \                     ?Subroutine1:
   \   000000   7F02         MOV       R7,#0x2
   \   000002   02....       LJMP      ?BANKED_LEAVE_XDATA

   \                                 In  segment BANKED_CODE, align 1, keep-with-next
   \                     ?Subroutine30:
   \   000000   E0           MOVX      A,@DPTR
   \   000001   F5..         MOV       ?V0,A
   \   000003   A3           INC       DPTR
   \   000004   E0           MOVX      A,@DPTR
   \   000005   22           RET
    684          
    685          /*********************************************************************
    686           * @fn          uiActionStartComissioning
    687           *
    688           * @brief       State-machine action for starting comissioning
    689           *
    690           * @param       keys - the keypress code that triggered the call to this function
    691           *
    692           * @return      none
    693           */

   \                                 In  segment BANKED_CODE, align 1, keep-with-next
    694          static void uiActionStartComissioning(uint16 keys)
   \                     uiActionStartComissioning:
    695          {
   \   000000   C082         PUSH      DPL
   \   000002   C083         PUSH      DPH
   \   000004                ; Saved register size: 2
   \   000004                ; Auto size: 0
    696            if ((!uiComissioningIsActive) && (uiSelectedBdbComissioningModes != 0))
   \   000004   90....       MOV       DPTR,#uiComissioningIsActive
   \   000007   E0           MOVX      A,@DPTR
   \   000008   703D         JNZ       ??uiActionStartComissioning_0
   \   00000A   90....       MOV       DPTR,#uiSelectedBdbComissioningModes
   \   00000D   E0           MOVX      A,@DPTR
   \   00000E   6037         JZ        ??uiActionStartComissioning_0
    697            {
    698              uiComissioningIsActive = TRUE;
   \   000010   90....       MOV       DPTR,#uiComissioningIsActive
   \   000013   7401         MOV       A,#0x1
   \   000015   F0           MOVX      @DPTR,A
    699          
    700              FBMatchesFound = 0;
   \   000016   90....       MOV       DPTR,#FBMatchesFound
   \   000019   E4           CLR       A
   \   00001A   F0           MOVX      @DPTR,A
    701              
    702              //update LCD now, since bdb_StartCommissioning() is blocking for a few seconds,
    703              // and we want to give a prompt response to the user
    704              uiCommissioningIsInitializing = TRUE;
   \   00001B   90....       MOV       DPTR,#uiCommissioningIsInitializing
   \   00001E   04           INC       A
   \   00001F   F0           MOVX      @DPTR,A
    705              UI_UpdateLcd();
   \   000020                ; Setup parameters for call to function UI_UpdateLcd
   \   000020   12....       LCALL     `??UI_UpdateLcd::?relay`; Banked call to: UI_UpdateLcd
    706          
    707              //if already on the network - mark it as 'existing connection'
    708              if ((uiNwkStateShadow == DEV_END_DEVICE) || (uiNwkStateShadow == DEV_ZB_COORD) || (uiNwkStateShadow == DEV_ROUTER))
   \   000023   90....       MOV       DPTR,#uiNwkStateShadow
   \   000026   E0           MOVX      A,@DPTR
   \   000027   6406         XRL       A,#0x6
   \   000029   600A         JZ        ??uiActionStartComissioning_1
   \   00002B   E0           MOVX      A,@DPTR
   \   00002C   6409         XRL       A,#0x9
   \   00002E   6005         JZ        ??uiActionStartComissioning_1
   \   000030   E0           MOVX      A,@DPTR
   \   000031   6407         XRL       A,#0x7
   \   000033   700A         JNZ       ??uiActionStartComissioning_2
    709              {
    710                uiCommissioningNetworkConnrctionStr = "EXST";
   \                     ??uiActionStartComissioning_1:
   \   000035   90....       MOV       DPTR,#uiCommissioningNetworkConnrctionStr
   \   000038   74..         MOV       A,#`?<Constant "EXST">` & 0xff
   \   00003A   F0           MOVX      @DPTR,A
   \   00003B   A3           INC       DPTR
   \   00003C   74..         MOV       A,#(`?<Constant "EXST">` >> 8) & 0xff
   \   00003E   F0           MOVX      @DPTR,A
    711              }
    712              
    713              bdb_StartCommissioning(uiSelectedBdbComissioningModes);
   \                     ??uiActionStartComissioning_2:
   \   00003F                ; Setup parameters for call to function bdb_StartCommissioning
   \   00003F   90....       MOV       DPTR,#uiSelectedBdbComissioningModes
   \   000042   E0           MOVX      A,@DPTR
   \   000043   F9           MOV       R1,A
   \   000044   12....       LCALL     `??bdb_StartCommissioning::?relay`; Banked call to: bdb_StartCommissioning
    714            }
    715          }
   \                     ??uiActionStartComissioning_0:
   \   000047   02....       LJMP      ?Subroutine2 & 0xFFFF

   \                                 In  segment BANKED_CODE, align 1, keep-with-next
   \                     ?Subroutine2:
   \   000000   D083         POP       DPH
   \   000002   D082         POP       DPL
   \   000004   02....       LJMP      ?BRET
    716          
    717          /*********************************************************************
    718           * @fn          uiActionSetInstallCode
    719           *
    720           * @brief       State-machine action for setting the install code
    721           *
    722           * @param       keys - the keypress code that triggered the call to this function
    723           *
    724           * @return      none
    725           */

   \                                 In  segment BANKED_CODE, align 1, keep-with-next
    726          static void uiActionSetInstallCode(uint16 keys)
   \                     uiActionSetInstallCode:
    727          {
   \   000000                REQUIRE ?V0
   \   000000                REQUIRE ?V1
   \   000000   74F6         MOV       A,#-0xa
   \   000002   12....       LCALL     ?BANKED_ENTER_XDATA
   \   000005                ; Saved register size: 10
   \   000005                ; Auto size: 0
    728            uint16 crc = bdb_GenerateInstallCodeCRC(uiInstallCode);
   \   000005                ; Setup parameters for call to function bdb_GenerateInstallCodeCRC
   \   000005   7A..         MOV       R2,#uiInstallCode & 0xff
   \   000007   7B..         MOV       R3,#(uiInstallCode >> 8) & 0xff
   \   000009   12....       LCALL     `??bdb_GenerateInstallCodeCRC::?relay`; Banked call to: bdb_GenerateInstallCodeCRC
    729            uiInstallCode[INSTALL_CODE_LEN] = crc & 0xFF;
   \   00000C   EA           MOV       A,R2
   \   00000D   90....       MOV       DPTR,#uiInstallCode + 16
   \   000010   F0           MOVX      @DPTR,A
    730            uiInstallCode[INSTALL_CODE_LEN + 1] = crc >> 8;
   \   000011   EB           MOV       A,R3
   \   000012   A3           INC       DPTR
   \   000013   F0           MOVX      @DPTR,A
    731          
    732          #if (ZG_BUILD_COORDINATOR_TYPE)
    733            if (ZG_DEVICE_COORDINATOR_TYPE)
    734            {  
    735              uiAddInstallCodeLastStatus = bdb_addInstallCode(uiInstallCode, uiInstallCodeAddr);
    736            }
    737            else
    738            {
    739              uiAddInstallCodeLastStatus = bdb_setActiveCentralizedLinkKey(FALSE, uiInstallCode);
    740            }
    741          #else
    742            uiAddInstallCodeLastStatus = bdb_setActiveCentralizedLinkKey(FALSE, uiInstallCode);
   \   000014                ; Setup parameters for call to function bdb_setActiveCentralizedLinkKey
   \   000014   7A..         MOV       R2,#uiInstallCode & 0xff
   \   000016   7B..         MOV       R3,#(uiInstallCode >> 8) & 0xff
   \   000018   7900         MOV       R1,#0x0
   \   00001A   12....       LCALL     `??bdb_setActiveCentralizedLinkKey::?relay`; Banked call to: bdb_setActiveCentralizedLinkKey
   \   00001D   E9           MOV       A,R1
   \   00001E   90....       MOV       DPTR,#uiAddInstallCodeLastStatus
   \   000021   F0           MOVX      @DPTR,A
    743          #endif
    744          }
   \   000022   80..         SJMP      ?Subroutine1
    745          
    746          /*********************************************************************
    747           * @fn          uiActionAppSecificMenu
    748           *
    749           * @brief       State-machine action for executing the application-specific sub-menus
    750           *
    751           * @param       keys - the keypress code that triggered the call to this function
    752           *
    753           * @return      none
    754           */

   \                                 In  segment BANKED_CODE, align 1, keep-with-next
    755          void uiActionAppSecificMenu(uint16 keys)
   \                     uiActionAppSecificMenu:
    756          {
   \   000000   C082         PUSH      DPL
   \   000002   C083         PUSH      DPH
   \   000004                ; Saved register size: 2
   \   000004                ; Auto size: 0
    757            if (uiAppStatesMain != NULL)
   \   000004   90....       MOV       DPTR,#uiAppStatesMain
   \   000007   12....       LCALL     ??Subroutine34_0 & 0xFFFF
   \                     ??CrossCallReturnLabel_72:
   \   00000A   600F         JZ        ??uiActionAppSecificMenu_0
    758            {
    759              uiStates = uiAppStatesMain;
   \   00000C   90....       MOV       DPTR,#uiStates
   \   00000F   12....       LCALL     ??Subroutine37_0 & 0xFFFF
    760              uiCurrentState = 1; //do not start from 0, which is the 'back' menu item
   \                     ??CrossCallReturnLabel_107:
   \   000012   90....       MOV       DPTR,#uiCurrentState
   \   000015   7401         MOV       A,#0x1
   \   000017   F0           MOVX      @DPTR,A
   \   000018   A3           INC       DPTR
   \   000019   E4           CLR       A
   \   00001A   F0           MOVX      @DPTR,A
    761            }
    762          }
   \                     ??uiActionAppSecificMenu_0:
   \   00001B   02....       LJMP      ?Subroutine2 & 0xFFFF

   \                                 In  segment BANKED_CODE, align 1, keep-with-next
   \                     ?Subroutine31:
   \   000000   E0           MOVX      A,@DPTR
   \   000001   F8           MOV       R0,A
   \   000002   A3           INC       DPTR
   \   000003   E0           MOVX      A,@DPTR
   \   000004   22           RET

   \                                 In  segment BANKED_CODE, align 1, keep-with-next
   \                     ??Subroutine34_0:
   \   000000   12....       LCALL     ?Subroutine31 & 0xFFFF
   \                     ??CrossCallReturnLabel_83:
   \   000003   F9           MOV       R1,A
   \   000004   E8           MOV       A,R0
   \   000005   49           ORL       A,R1
   \   000006   22           RET

   \                                 In  segment BANKED_CODE, align 1, keep-with-next
   \                     ??Subroutine37_0:
   \   000000   E8           MOV       A,R0
   \   000001   F0           MOVX      @DPTR,A
   \   000002   A3           INC       DPTR
   \   000003   E9           MOV       A,R1
   \   000004   F0           MOVX      @DPTR,A
   \   000005   22           RET
    763          
    764          /*********************************************************************
    765           * @fn          UI_ActionBackFromAppMenu
    766           *
    767           * @brief       Application state-machine action for returning to the common menu
    768           *
    769           * @param       keys - the keypress code that triggered the call to this function
    770           *
    771           * @return      none
    772           */

   \                                 In  segment BANKED_CODE, align 1, keep-with-next
    773          void UI_ActionBackFromAppMenu(uint16 keys)
   \                     UI_ActionBackFromAppMenu:
    774          {
   \   000000   C082         PUSH      DPL
   \   000002   C083         PUSH      DPH
   \   000004                ; Saved register size: 2
   \   000004                ; Auto size: 0
    775            uiStates = gui_states_main;
   \   000004   90....       MOV       DPTR,#uiStates
   \   000007   74..         MOV       A,#gui_states_main & 0xff
   \   000009   F0           MOVX      @DPTR,A
   \   00000A   A3           INC       DPTR
   \   00000B   74..         MOV       A,#(gui_states_main >> 8) & 0xff
   \   00000D   F0           MOVX      @DPTR,A
    776            uiCurrentState = UI_STATE_APP_SPECIFIC_MENU;
   \   00000E   90....       MOV       DPTR,#uiCurrentState
   \   000011   7403         MOV       A,#0x3
   \   000013   F0           MOVX      @DPTR,A
   \   000014   A3           INC       DPTR
   \   000015   E4           CLR       A
   \   000016   F0           MOVX      @DPTR,A
    777          }
   \   000017   02....       LJMP      ?Subroutine2 & 0xFFFF
    778          
    779          #ifdef BDB_TL_TARGET
    780          /*********************************************************************
    781           * @fn          uiActionToggleTlTarget
    782           *
    783           * @brief       State-machine action for toggling touchlink-target functionality
    784           *
    785           * @param       keys - the keypress code that triggered the call to this function
    786           *
    787           * @return      none
    788           */
    789          void uiActionToggleTlTarget(uint16 keys)
    790          {
    791            if (!touchLinkTargetEnabled)
    792            {
    793              if (uiTouchlinkTargetTimeout > 0)
    794              {
    795                touchLinkTarget_EnableCommissioning( uiTouchlinkTargetTimeout );
    796                uiLcdAutoUpdateInterval = LCD_AUTO_UPDATE_INTERVAL_ON_TOUCHLINK_TARGET_SCREEN;
    797              }
    798            }
    799            else
    800            {
    801              touchLinkTarget_DisableCommissioning();
    802              uiLcdAutoUpdateInterval = LCD_AUTO_UPDATE_INTERVAL_ON_TOUCHLINK_TARGET_SCREEN_END;
    803            }
    804          }
    805          #endif
    806          
    807          /*********************************************************************
    808           * @fn          uiActionProcessConfigureChannels
    809           *
    810           * @brief       State-machine action for configuring channel masks
    811           *
    812           * @param       keys - the keypress code that triggered the call to this function
    813           *
    814           * @return      none
    815           */

   \                                 In  segment BANKED_CODE, align 1, keep-with-next
    816          static void uiActionProcessConfigureChannels(uint16 keys)
   \                     uiActionProcessConfigureChannels:
    817          {
   \   000000                REQUIRE ?V0
   \   000000                REQUIRE ?V1
   \   000000                REQUIRE ?V2
   \   000000                REQUIRE ?V3
   \   000000   74F4         MOV       A,#-0xc
   \   000002   12....       LCALL     ?BANKED_ENTER_XDATA
   \   000005                ; Saved register size: 12
   \   000005                ; Auto size: 0
    818            uint32 * channelMask;
    819            
    820            uiLcdCursorLine = 1;
   \   000005   90....       MOV       DPTR,#uiLcdCursorLine
   \   000008   7401         MOV       A,#0x1
   \   00000A   F0           MOVX      @DPTR,A
    821            uiLcdCursorState = 0;
   \   00000B   90....       MOV       DPTR,#uiLcdCursorState
   \   00000E   E4           CLR       A
   \   00000F   F0           MOVX      @DPTR,A
    822          
    823            if (uiCurrentState == UI_STATE_SET_PRI_CHANEL_MASK_1)
   \   000010   90....       MOV       DPTR,#uiCurrentState
   \   000013   E0           MOVX      A,@DPTR
   \   000014   640F         XRL       A,#0xf
   \   000016   7002         JNZ       ??uiActionProcessConfigureChannels_0
   \   000018   A3           INC       DPTR
   \   000019   E0           MOVX      A,@DPTR
   \                     ??uiActionProcessConfigureChannels_0:
   \   00001A   7006         JNZ       ??uiActionProcessConfigureChannels_1
    824            {
    825              channelMask = &bdbAttributes.bdbPrimaryChannelSet;
   \   00001C   7C..         MOV       R4,#(bdbAttributes + 4) & 0xff
   \   00001E   7D..         MOV       R5,#((bdbAttributes + 4) >> 8) & 0xff
   \   000020   8004         SJMP      ??uiActionProcessConfigureChannels_2
    826            }
    827            else
    828            {
    829              channelMask = &bdbAttributes.bdbSecondaryChannelSet;
   \                     ??uiActionProcessConfigureChannels_1:
   \   000022   7C..         MOV       R4,#bdbAttributes & 0xff
   \   000024   7D..         MOV       R5,#(bdbAttributes >> 8) & 0xff
    830            }
    831          
    832            if (keys & UI_KEY_SW_5_RELEASED)
   \                     ??uiActionProcessConfigureChannels_2:
   \   000026   EB           MOV       A,R3
   \   000027   5404         ANL       A,#0x4
   \   000029   6005         JZ        ??uiActionProcessConfigureChannels_3
    833            {
    834              uiLcdCursorCol = 0;
   \   00002B   90....       MOV       DPTR,#uiLcdCursorCol
   \   00002E   E4           CLR       A
   \   00002F   F0           MOVX      @DPTR,A
    835            }
    836            
    837            if (keys & UI_KEY_SW_1_PRESSED)
   \                     ??uiActionProcessConfigureChannels_3:
   \   000030   75..00       MOV       ?V0,#0x0
   \   000033   75..08       MOV       ?V1,#0x8
   \   000036   75..00       MOV       ?V2,#0x0
   \   000039   75..00       MOV       ?V3,#0x0
   \   00003C   90....       MOV       DPTR,#uiLcdCursorCol
   \   00003F   E0           MOVX      A,@DPTR
   \   000040   78..         MOV       R0,#?V0
   \   000042   12....       LCALL     ?L_SHL
   \   000045   EA           MOV       A,R2
   \   000046   A2E0         MOV       C,0xE0 /* A   */.0
   \   000048   500B         JNC       ??uiActionProcessConfigureChannels_4
    838            {
    839              *channelMask |= ((uint32)0x00000800 << uiLcdCursorCol);
   \   00004A   8C82         MOV       DPL,R4
   \   00004C   8D83         MOV       DPH,R5
   \   00004E   78..         MOV       R0,#?V0
   \   000050   12....       LCALL     ?L_IOR_TO_X
    840              uiLcdCursorState = 1;
   \   000053   8012         SJMP      ??uiActionProcessConfigureChannels_5
    841            }
    842            else if (keys & UI_KEY_SW_3_PRESSED)
   \                     ??uiActionProcessConfigureChannels_4:
   \   000055   5410         ANL       A,#0x10
   \   000057   6015         JZ        ??uiActionProcessConfigureChannels_6
    843            {
    844              *channelMask &= ~(((uint32)0x00000800 << uiLcdCursorCol));
   \   000059   78..         MOV       R0,#?V0
   \   00005B   12....       LCALL     ?L_NOT
   \   00005E   8C82         MOV       DPL,R4
   \   000060   8D83         MOV       DPH,R5
   \   000062   78..         MOV       R0,#?V0
   \   000064   12....       LCALL     ?L_AND_TO_X
    845              uiLcdCursorState = 1;
   \                     ??uiActionProcessConfigureChannels_5:
   \   000067   90....       MOV       DPTR,#uiLcdCursorState
   \   00006A   7401         MOV       A,#0x1
   \   00006C   803E         SJMP      ??CrossCallReturnLabel_0
    846            }
    847            else if (keys & UI_KEY_SW_2_PRESSED)
   \                     ??uiActionProcessConfigureChannels_6:
   \   00006E   EA           MOV       A,R2
   \   00006F   5402         ANL       A,#0x2
   \   000071   600D         JZ        ??uiActionProcessConfigureChannels_7
    848            {
    849              if (uiLcdCursorCol < 15)
   \   000073   E0           MOVX      A,@DPTR
   \   000074   C3           CLR       C
   \   000075   940F         SUBB      A,#0xf
   \   000077   5004         JNC       ??uiActionProcessConfigureChannels_8
    850              {
    851                uiLcdCursorCol++;
   \   000079   E0           MOVX      A,@DPTR
   \   00007A   04           INC       A
   \   00007B   802F         SJMP      ??CrossCallReturnLabel_0
    852              }
    853              else
    854              {
    855                uiLcdCursorCol = 0;
   \                     ??uiActionProcessConfigureChannels_8:
   \   00007D   E4           CLR       A
   \   00007E   802C         SJMP      ??CrossCallReturnLabel_0
    856              }
    857            }
    858            else if (keys & UI_KEY_SW_4_PRESSED)
   \                     ??uiActionProcessConfigureChannels_7:
   \   000080   EA           MOV       A,R2
   \   000081   5408         ANL       A,#0x8
   \   000083   600A         JZ        ??uiActionProcessConfigureChannels_9
    859            {
    860              if (uiLcdCursorCol > 0)
   \   000085   E0           MOVX      A,@DPTR
   \   000086   6003         JZ        ??uiActionProcessConfigureChannels_10
    861              {
    862                uiLcdCursorCol--;
   \   000088   14           DEC       A
   \   000089   8021         SJMP      ??CrossCallReturnLabel_0
    863              }
    864              else
    865              {
    866                uiLcdCursorCol = 15;
   \                     ??uiActionProcessConfigureChannels_10:
   \   00008B   740F         MOV       A,#0xf
   \   00008D   801D         SJMP      ??CrossCallReturnLabel_0
    867              }
    868            }
    869            else if (keys & UI_KEY_SW_5_PRESSED)
   \                     ??uiActionProcessConfigureChannels_9:
   \   00008F   EA           MOV       A,R2
   \   000090   5404         ANL       A,#0x4
   \   000092   6019         JZ        ??uiActionProcessConfigureChannels_11
    870            {
    871              if (uiCurrentState == UI_STATE_SET_PRI_CHANEL_MASK_1)
   \   000094   90....       MOV       DPTR,#uiCurrentState
   \   000097   E0           MOVX      A,@DPTR
   \   000098   640F         XRL       A,#0xf
   \   00009A   7002         JNZ       ??uiActionProcessConfigureChannels_12
   \   00009C   A3           INC       DPTR
   \   00009D   E0           MOVX      A,@DPTR
   \                     ??uiActionProcessConfigureChannels_12:
   \   00009E   90....       MOV       DPTR,#uiCurrentState
   \   0000A1   7004         JNZ       ??uiActionProcessConfigureChannels_13
    872              {
    873                uiCurrentState = UI_STATE_SET_PRI_CHANEL_MASK_0;
   \   0000A3   740B         MOV       A,#0xb
   \   0000A5   8002         SJMP      ??uiActionProcessConfigureChannels_14
    874              }
    875              else
    876              {
    877                uiCurrentState = UI_STATE_SET_SEC_CHANEL_MASK_0;
   \                     ??uiActionProcessConfigureChannels_13:
   \   0000A7   740C         MOV       A,#0xc
    878              }
    879              
    880              uiLcdCursorLine = 0xFF;
    881            }
   \                     ??uiActionProcessConfigureChannels_14:
   \   0000A9   12....       LCALL     ?Subroutine5 & 0xFFFF
   \                     ??CrossCallReturnLabel_0:
   \   0000AC   F0           MOVX      @DPTR,A
    882          }
   \                     ??uiActionProcessConfigureChannels_11:
   \   0000AD                REQUIRE ?Subroutine3
   \   0000AD                ; // Fall through to label ?Subroutine3

   \                                 In  segment BANKED_CODE, align 1, keep-with-next
   \                     ?Subroutine3:
   \   000000   7F04         MOV       R7,#0x4
   \   000002   02....       LJMP      ?BANKED_LEAVE_XDATA

   \                                 In  segment BANKED_CODE, align 1, keep-with-next
   \                     ?Subroutine5:
   \   000000   F0           MOVX      @DPTR,A
   \   000001   A3           INC       DPTR
   \   000002   E4           CLR       A
   \   000003   F0           MOVX      @DPTR,A
   \   000004   90....       MOV       DPTR,#uiLcdCursorLine
   \   000007   74FF         MOV       A,#-0x1
   \   000009   22           RET
    883          
    884          /*********************************************************************
    885           * @fn          uiActionProcessConfigurePanId
    886           *
    887           * @brief       State-machine action for configuring the PAN ID
    888           *
    889           * @param       keys - the keypress code that triggered the call to this function
    890           *
    891           * @return      none
    892           */

   \                                 In  segment BANKED_CODE, align 1, keep-with-next
    893          static void uiActionProcessConfigurePanId(uint16 keys)
   \                     uiActionProcessConfigurePanId:
    894          {
   \   000000                REQUIRE ?V0
   \   000000                REQUIRE ?V1
   \   000000                REQUIRE ?V2
   \   000000                REQUIRE ?V3
   \   000000   74F4         MOV       A,#-0xc
   \   000002   12....       LCALL     ?BANKED_ENTER_XDATA
   \   000005                ; Saved register size: 12
   \   000005                ; Auto size: 0
    895            uint8 shift;
    896            uint8 digit;
    897            
    898            uiLcdCursorLine = 0;
   \   000005   90....       MOV       DPTR,#uiLcdCursorLine
   \   000008   E4           CLR       A
   \   000009   F0           MOVX      @DPTR,A
    899            uiLcdCursorState = 0;
   \   00000A   90....       MOV       DPTR,#uiLcdCursorState
   \   00000D   F0           MOVX      @DPTR,A
    900            
    901            if (keys & UI_KEY_SW_5_RELEASED)
   \   00000E   EB           MOV       A,R3
   \   00000F   5404         ANL       A,#0x4
   \   000011   6006         JZ        ??uiActionProcessConfigurePanId_0
    902            {
    903              uiLcdCursorCol = 6;
   \   000013   90....       MOV       DPTR,#uiLcdCursorCol
   \   000016   7406         MOV       A,#0x6
   \   000018   F0           MOVX      @DPTR,A
    904            }
    905          
    906            if ((keys & UI_KEY_SW_1_PRESSED) || (keys & UI_KEY_SW_3_PRESSED))
   \                     ??uiActionProcessConfigurePanId_0:
   \   000019   EA           MOV       A,R2
   \   00001A   5411         ANL       A,#0x11
   \   00001C   7003         JNZ       $+5
   \   00001E   02....       LJMP      ??uiActionProcessConfigurePanId_1 & 0xFFFF
    907            {
    908              shift = 4 * (9 - uiLcdCursorCol);
   \   000021   90....       MOV       DPTR,#uiLcdCursorCol
   \   000024   E0           MOVX      A,@DPTR
   \   000025   F8           MOV       R0,A
   \   000026   7409         MOV       A,#0x9
   \   000028   C3           CLR       C
   \   000029   98           SUBB      A,R0
   \   00002A   33           RLC       A
   \   00002B   33           RLC       A
   \   00002C   54FC         ANL       A,#0xfc
   \   00002E   FC           MOV       R4,A
    909              digit = (zgConfigPANID >> shift) & 0xF;
   \   00002F   90....       MOV       DPTR,#zgConfigPANID
   \   000032   12....       LCALL     ?Subroutine30 & 0xFFFF
   \                     ??CrossCallReturnLabel_92:
   \   000035   F5..         MOV       ?V1,A
   \   000037   EC           MOV       A,R4
   \   000038   78..         MOV       R0,#?V0
   \   00003A   12....       LCALL     ?US_SHR
   \   00003D   E5..         MOV       A,?V0
   \   00003F   540F         ANL       A,#0xf
   \   000041   F9           MOV       R1,A
    910              if (keys & UI_KEY_SW_1_PRESSED)
   \   000042   EA           MOV       A,R2
   \   000043   A2E0         MOV       C,0xE0 /* A   */.0
   \   000045   500D         JNC       ??uiActionProcessConfigurePanId_2
    911              {
    912                if (digit < 15)
   \   000047   E9           MOV       A,R1
   \   000048   C3           CLR       C
   \   000049   940F         SUBB      A,#0xf
   \   00004B   5003         JNC       ??uiActionProcessConfigurePanId_3
    913                {
    914                  digit++;
   \   00004D   09           INC       R1
   \   00004E   8010         SJMP      ??uiActionProcessConfigurePanId_4
    915                }
    916                else
    917                {
    918                  digit = 0;
   \                     ??uiActionProcessConfigurePanId_3:
   \   000050   7900         MOV       R1,#0x0
   \   000052   800C         SJMP      ??uiActionProcessConfigurePanId_4
    919                }
    920              }
    921              else if (keys & UI_KEY_SW_3_PRESSED)
   \                     ??uiActionProcessConfigurePanId_2:
   \   000054   5410         ANL       A,#0x10
   \   000056   6008         JZ        ??uiActionProcessConfigurePanId_4
    922              {
    923                if (digit > 0)
   \   000058   E9           MOV       A,R1
   \   000059   6003         JZ        ??uiActionProcessConfigurePanId_5
    924                {
    925                  digit--;
   \   00005B   19           DEC       R1
   \   00005C   8002         SJMP      ??uiActionProcessConfigurePanId_4
    926                }
    927                else
    928                {
    929                  digit = 15;
   \                     ??uiActionProcessConfigurePanId_5:
   \   00005E   790F         MOV       R1,#0xf
    930                }
    931              }
    932          
    933              zgConfigPANID &= ~((uint32)0xF << shift);
    934              zgConfigPANID |= (uint32)digit << shift;
   \                     ??uiActionProcessConfigurePanId_4:
   \   000060   75..0F       MOV       ?V0,#0xf
   \   000063   75..00       MOV       ?V1,#0x0
   \   000066   75..00       MOV       ?V2,#0x0
   \   000069   75..00       MOV       ?V3,#0x0
   \   00006C   EC           MOV       A,R4
   \   00006D   78..         MOV       R0,#?V0
   \   00006F   12....       LCALL     ?L_SHL
   \   000072   E5..         MOV       A,?V0
   \   000074   F4           CPL       A
   \   000075   FA           MOV       R2,A
   \   000076   E5..         MOV       A,?V1
   \   000078   F4           CPL       A
   \   000079   FB           MOV       R3,A
   \   00007A   90....       MOV       DPTR,#zgConfigPANID
   \   00007D   E0           MOVX      A,@DPTR
   \   00007E   5A           ANL       A,R2
   \   00007F   F0           MOVX      @DPTR,A
   \   000080   A3           INC       DPTR
   \   000081   E0           MOVX      A,@DPTR
   \   000082   5B           ANL       A,R3
   \   000083   F0           MOVX      @DPTR,A
   \   000084   89..         MOV       ?V0,R1
   \   000086   E4           CLR       A
   \   000087   F5..         MOV       ?V1,A
   \   000089   F5..         MOV       ?V2,A
   \   00008B   F5..         MOV       ?V3,A
   \   00008D   EC           MOV       A,R4
   \   00008E   78..         MOV       R0,#?V0
   \   000090   12....       LCALL     ?L_SHL
   \   000093   90....       MOV       DPTR,#zgConfigPANID
   \   000096   E0           MOVX      A,@DPTR
   \   000097   45..         ORL       A,?V0
   \   000099   F0           MOVX      @DPTR,A
   \   00009A   A3           INC       DPTR
   \   00009B   E0           MOVX      A,@DPTR
   \   00009C   45..         ORL       A,?V1
   \   00009E   F0           MOVX      @DPTR,A
    935              uiLcdCursorState = 1;
   \   00009F   90....       MOV       DPTR,#uiLcdCursorState
   \   0000A2   7401         MOV       A,#0x1
   \   0000A4   805C         SJMP      ??CrossCallReturnLabel_1
    936            }
    937            else if (keys & UI_KEY_SW_2_PRESSED)
   \                     ??uiActionProcessConfigurePanId_1:
   \   0000A6   EA           MOV       A,R2
   \   0000A7   5402         ANL       A,#0x2
   \   0000A9   600D         JZ        ??uiActionProcessConfigurePanId_6
    938            {
    939              if (uiLcdCursorCol < 9)
   \   0000AB   90....       MOV       DPTR,#uiLcdCursorCol
   \   0000AE   E0           MOVX      A,@DPTR
   \   0000AF   C3           CLR       C
   \   0000B0   9409         SUBB      A,#0x9
   \   0000B2   504F         JNC       ??uiActionProcessConfigurePanId_7
    940              {
    941                uiLcdCursorCol++;
   \   0000B4   E0           MOVX      A,@DPTR
   \   0000B5   04           INC       A
   \   0000B6   804A         SJMP      ??CrossCallReturnLabel_1
    942              }
    943            }
    944            else if (keys & UI_KEY_SW_4_PRESSED)
   \                     ??uiActionProcessConfigurePanId_6:
   \   0000B8   EA           MOV       A,R2
   \   0000B9   5408         ANL       A,#0x8
   \   0000BB   600D         JZ        ??uiActionProcessConfigurePanId_8
    945            {
    946              if (uiLcdCursorCol > 6)
   \   0000BD   90....       MOV       DPTR,#uiLcdCursorCol
   \   0000C0   E0           MOVX      A,@DPTR
   \   0000C1   C3           CLR       C
   \   0000C2   9407         SUBB      A,#0x7
   \   0000C4   403D         JC        ??uiActionProcessConfigurePanId_7
    947              {
    948                uiLcdCursorCol--;
   \   0000C6   E0           MOVX      A,@DPTR
   \   0000C7   14           DEC       A
   \   0000C8   8038         SJMP      ??CrossCallReturnLabel_1
    949              }
    950            }
    951            else if (keys & UI_KEY_SW_5_PRESSED)
   \                     ??uiActionProcessConfigurePanId_8:
   \   0000CA   EA           MOV       A,R2
   \   0000CB   5404         ANL       A,#0x4
   \   0000CD   6034         JZ        ??uiActionProcessConfigurePanId_7
    952            {
    953              osal_nv_write(ZCD_NV_PANID, 0, osal_nv_item_len( ZCD_NV_PANID ), &zgConfigPANID); //todo: check and display result of osal_nv_write()
   \   0000CF                ; Setup parameters for call to function osal_nv_item_len
   \   0000CF   7A83         MOV       R2,#-0x7d
   \   0000D1   7B00         MOV       R3,#0x0
   \   0000D3   12....       LCALL     `??osal_nv_item_len::?relay`; Banked call to: osal_nv_item_len
   \   0000D6   8A..         MOV       ?V0,R2
   \   0000D8   8B..         MOV       ?V1,R3
   \   0000DA                ; Setup parameters for call to function osal_nv_write
   \   0000DA   75....       MOV       ?V2,#zgConfigPANID & 0xff
   \   0000DD   75....       MOV       ?V3,#(zgConfigPANID >> 8) & 0xff
   \   0000E0   78..         MOV       R0,#?V2
   \   0000E2   12....       LCALL     ?PUSH_XSTACK_I_TWO
   \   0000E5   78..         MOV       R0,#?V0
   \   0000E7   12....       LCALL     ?PUSH_XSTACK_I_TWO
   \   0000EA   7C00         MOV       R4,#0x0
   \   0000EC   7D00         MOV       R5,#0x0
   \   0000EE   7A83         MOV       R2,#-0x7d
   \   0000F0   7B00         MOV       R3,#0x0
   \   0000F2   12....       LCALL     `??osal_nv_write::?relay`; Banked call to: osal_nv_write
   \   0000F5   7404         MOV       A,#0x4
   \   0000F7   12....       LCALL     ?DEALLOC_XSTACK8
    954          
    955              uiCurrentState = UI_STATE_SET_PAN_ID_0;
   \   0000FA   90....       MOV       DPTR,#uiCurrentState
   \   0000FD   740D         MOV       A,#0xd
   \   0000FF   12....       LCALL     ?Subroutine5 & 0xFFFF
    956              
    957              uiLcdCursorLine = 0xFF;
    958            }
   \                     ??CrossCallReturnLabel_1:
   \   000102   F0           MOVX      @DPTR,A
    959          }
   \                     ??uiActionProcessConfigurePanId_7:
   \   000103   02....       LJMP      ?Subroutine3 & 0xFFFF
    960          
    961          /*********************************************************************
    962           * @fn          uiActionProcessPrepareInstallCode
    963           *
    964           * @brief       State-machine action for editing the install-code and the install-code address
    965           *
    966           * @param       keys - the keypress code that triggered the call to this function
    967           *
    968           * @return      none
    969           */

   \                                 In  segment BANKED_CODE, align 1, keep-with-next
    970          static void uiActionProcessPrepareInstallCode(uint16 keys)
   \                     uiActionProcessPrepareInstallCode:
    971          {
   \   000000                REQUIRE ?V0
   \   000000                REQUIRE ?V1
   \   000000                REQUIRE ?V2
   \   000000                REQUIRE ?V3
   \   000000                REQUIRE ?V4
   \   000000                REQUIRE ?V5
   \   000000                REQUIRE ?V6
   \   000000                REQUIRE ?V7
   \   000000   74F0         MOV       A,#-0x10
   \   000002   12....       LCALL     ?BANKED_ENTER_XDATA
   \   000005                ; Saved register size: 16
   \   000005                ; Auto size: 0
   \   000005   EA           MOV       A,R2
   \   000006   FE           MOV       R6,A
   \   000007   EB           MOV       A,R3
   \   000008   FF           MOV       R7,A
    972            static uint8 * pCurrentModifiedField;
    973            static uint8 CurrentModifiedFieldLen;
    974            static bool CurrentModifiedFieldIsBigEndian;
    975            
    976            static uint8 index;
    977          
    978            uint8 shift;
    979            uint8 digit;
    980            uint8 bufIndex;
    981            uint16 crc;
    982          
    983            uiLcdCursorState = 0;
   \   000009   90....       MOV       DPTR,#uiLcdCursorState
   \   00000C   E4           CLR       A
   \   00000D   F0           MOVX      @DPTR,A
    984            
    985            if (keys & UI_KEY_SW_5_RELEASED)
   \   00000E   EF           MOV       A,R7
   \   00000F   5404         ANL       A,#0x4
   \   000011   602A         JZ        ??uiActionProcessPrepareInstallCode_0
    986            {
    987              index = 0;
   \   000013   90....       MOV       DPTR,#??index
   \   000016   E4           CLR       A
   \   000017   F0           MOVX      @DPTR,A
    988              
    989          #if (ZG_BUILD_COORDINATOR_TYPE)
    990              if (uiCurrentState == UI_STATE_SET_INST_CODE_ADDR_1)
    991              {
    992                pCurrentModifiedField = uiInstallCodeAddr;
    993                CurrentModifiedFieldLen = sizeof(uiInstallCodeAddr);
    994                CurrentModifiedFieldIsBigEndian = FALSE;
    995              }
    996              else
    997          #endif
    998              {
    999                pCurrentModifiedField = uiInstallCode;
   \   000018   90....       MOV       DPTR,#??pCurrentModifiedField
   \   00001B   74..         MOV       A,#uiInstallCode & 0xff
   \   00001D   F0           MOVX      @DPTR,A
   \   00001E   A3           INC       DPTR
   \   00001F   74..         MOV       A,#(uiInstallCode >> 8) & 0xff
   \   000021   F0           MOVX      @DPTR,A
   1000                CurrentModifiedFieldLen = INSTALL_CODE_LEN;
   \   000022   90....       MOV       DPTR,#??CurrentModifiedFieldLen
   \   000025   7410         MOV       A,#0x10
   \   000027   F0           MOVX      @DPTR,A
   1001                CurrentModifiedFieldIsBigEndian = TRUE;
   \   000028   90....       MOV       DPTR,#??CurrentModifiedFieldIsBigEndian
   \   00002B   7401         MOV       A,#0x1
   \   00002D   F0           MOVX      @DPTR,A
   1002          
   1003                crc = bdb_GenerateInstallCodeCRC(uiInstallCode);
   \   00002E                ; Setup parameters for call to function bdb_GenerateInstallCodeCRC
   \   00002E   7A..         MOV       R2,#uiInstallCode & 0xff
   \   000030   7B..         MOV       R3,#(uiInstallCode >> 8) & 0xff
   \   000032   12....       LCALL     `??bdb_GenerateInstallCodeCRC::?relay`; Banked call to: bdb_GenerateInstallCodeCRC
   1004                uiInstallCode[INSTALL_CODE_LEN] = crc & 0xFF;
   \   000035   EA           MOV       A,R2
   \   000036   90....       MOV       DPTR,#uiInstallCode + 16
   \   000039   F0           MOVX      @DPTR,A
   1005                uiInstallCode[INSTALL_CODE_LEN + 1] = crc >> 8;
   \   00003A   EB           MOV       A,R3
   \   00003B   A3           INC       DPTR
   \   00003C   F0           MOVX      @DPTR,A
   1006              }
   1007            }
   1008          
   1009            if ((keys & UI_KEY_SW_1_PRESSED) || (keys & UI_KEY_SW_3_PRESSED))
   \                     ??uiActionProcessPrepareInstallCode_0:
   \   00003D   90....       MOV       DPTR,#??index
   \   000040   E0           MOVX      A,@DPTR
   \   000041   FA           MOV       R2,A
   \   000042   EE           MOV       A,R6
   \   000043   5411         ANL       A,#0x11
   \   000045   FC           MOV       R4,A
   \   000046   7003         JNZ       $+5
   \   000048   02....       LJMP      ??uiActionProcessPrepareInstallCode_1 & 0xFFFF
   1010            {
   1011              shift = 4 * ((CurrentModifiedFieldIsBigEndian ? index : (index + 1)) % 2);
   \   00004B   90....       MOV       DPTR,#??CurrentModifiedFieldIsBigEndian
   \   00004E   E0           MOVX      A,@DPTR
   \   00004F   6006         JZ        ??uiActionProcessPrepareInstallCode_2
   \   000051   EA           MOV       A,R2
   \   000052   F8           MOV       R0,A
   \   000053   7900         MOV       R1,#0x0
   \   000055   8008         SJMP      ??uiActionProcessPrepareInstallCode_3
   \                     ??uiActionProcessPrepareInstallCode_2:
   \   000057   EA           MOV       A,R2
   \   000058   2401         ADD       A,#0x1
   \   00005A   F8           MOV       R0,A
   \   00005B   E4           CLR       A
   \   00005C   3400         ADDC      A,#0x0
   \   00005E   F9           MOV       R1,A
   \                     ??uiActionProcessPrepareInstallCode_3:
   \   00005F   7A02         MOV       R2,#0x2
   \   000061   7B00         MOV       R3,#0x0
   \   000063   12....       LCALL     ?S_DIV_MOD
   \   000066   EA           MOV       A,R2
   \   000067   33           RLC       A
   \   000068   33           RLC       A
   \   000069   54FC         ANL       A,#0xfc
   \   00006B   FA           MOV       R2,A
   1012              bufIndex = (CurrentModifiedFieldIsBigEndian ? (index / 2) : (CurrentModifiedFieldLen - 1 - (index / 2)));
   \   00006C   90....       MOV       DPTR,#??index
   \   00006F   E0           MOVX      A,@DPTR
   \   000070   C3           CLR       C
   \   000071   13           RRC       A
   \   000072   F8           MOV       R0,A
   \   000073   90....       MOV       DPTR,#??CurrentModifiedFieldIsBigEndian
   \   000076   E0           MOVX      A,@DPTR
   \   000077   6004         JZ        ??uiActionProcessPrepareInstallCode_4
   \   000079   88..         MOV       ?V0,R0
   \   00007B   8009         SJMP      ??uiActionProcessPrepareInstallCode_5
   \                     ??uiActionProcessPrepareInstallCode_4:
   \   00007D   90....       MOV       DPTR,#??CurrentModifiedFieldLen
   \   000080   E0           MOVX      A,@DPTR
   \   000081   14           DEC       A
   \   000082   C3           CLR       C
   \   000083   98           SUBB      A,R0
   \   000084   F5..         MOV       ?V0,A
   1013              digit = (pCurrentModifiedField[bufIndex] >> shift) & 0xF;
   \                     ??uiActionProcessPrepareInstallCode_5:
   \   000086   A8..         MOV       R0,?V0
   \   000088   90....       MOV       DPTR,#??pCurrentModifiedField
   \   00008B   12....       LCALL     ?Subroutine18 & 0xFFFF
   \                     ??CrossCallReturnLabel_42:
   \   00008E   E0           MOVX      A,@DPTR
   \   00008F   FB           MOV       R3,A
   \   000090   F5..         MOV       ?V2,A
   \   000092   75..00       MOV       ?V3,#0x0
   \   000095   EA           MOV       A,R2
   \   000096   78..         MOV       R0,#?V2
   \   000098   12....       LCALL     ?SS_SHR
   \   00009B   E5..         MOV       A,?V2
   \   00009D   540F         ANL       A,#0xf
   \   00009F   F8           MOV       R0,A
   1014          
   1015              if (keys & UI_KEY_SW_1_PRESSED)
   \   0000A0   EE           MOV       A,R6
   \   0000A1   A2E0         MOV       C,0xE0 /* A   */.0
   \   0000A3   500D         JNC       ??uiActionProcessPrepareInstallCode_6
   1016              {
   1017                if (digit < 15)
   \   0000A5   E8           MOV       A,R0
   \   0000A6   C3           CLR       C
   \   0000A7   940F         SUBB      A,#0xf
   \   0000A9   5003         JNC       ??uiActionProcessPrepareInstallCode_7
   1018                {
   1019                  digit++;
   \   0000AB   08           INC       R0
   \   0000AC   8010         SJMP      ??uiActionProcessPrepareInstallCode_8
   1020                }
   1021                else
   1022                {
   1023                  digit = 0;
   \                     ??uiActionProcessPrepareInstallCode_7:
   \   0000AE   7800         MOV       R0,#0x0
   \   0000B0   800C         SJMP      ??uiActionProcessPrepareInstallCode_8
   1024                }
   1025              }
   1026              else if (keys & UI_KEY_SW_3_PRESSED)
   \                     ??uiActionProcessPrepareInstallCode_6:
   \   0000B2   5410         ANL       A,#0x10
   \   0000B4   6008         JZ        ??uiActionProcessPrepareInstallCode_8
   1027              {
   1028                if (digit > 0)
   \   0000B6   E8           MOV       A,R0
   \   0000B7   6003         JZ        ??uiActionProcessPrepareInstallCode_9
   1029                {
   1030                  digit--;
   \   0000B9   18           DEC       R0
   \   0000BA   8002         SJMP      ??uiActionProcessPrepareInstallCode_8
   1031                }
   1032                else
   1033                {
   1034                  digit = 15;
   \                     ??uiActionProcessPrepareInstallCode_9:
   \   0000BC   780F         MOV       R0,#0xf
   1035                }
   1036              }
   1037              
   1038              pCurrentModifiedField[bufIndex] &= ~((uint32)0xF << shift);
   1039              pCurrentModifiedField[bufIndex] |= (uint32)digit << shift;
   \                     ??uiActionProcessPrepareInstallCode_8:
   \   0000BE   88..         MOV       ?V4,R0
   \   0000C0   E4           CLR       A
   \   0000C1   F5..         MOV       ?V5,A
   \   0000C3   F5..         MOV       ?V6,A
   \   0000C5   F5..         MOV       ?V7,A
   \   0000C7   EA           MOV       A,R2
   \   0000C8   78..         MOV       R0,#?V4
   \   0000CA   12....       LCALL     ?L_SHL
   \   0000CD   A9..         MOV       R1,?V4
   \   0000CF   75..0F       MOV       ?V4,#0xf
   \   0000D2   F5..         MOV       ?V5,A
   \   0000D4   F5..         MOV       ?V6,A
   \   0000D6   F5..         MOV       ?V7,A
   \   0000D8   EA           MOV       A,R2
   \   0000D9   78..         MOV       R0,#?V4
   \   0000DB   12....       LCALL     ?L_SHL
   \   0000DE   E5..         MOV       A,?V4
   \   0000E0   F4           CPL       A
   \   0000E1   5B           ANL       A,R3
   \   0000E2   49           ORL       A,R1
   \   0000E3   F0           MOVX      @DPTR,A
   1040              uiLcdCursorState = 1;
   \   0000E4   90....       MOV       DPTR,#uiLcdCursorState
   \   0000E7   7401         MOV       A,#0x1
   \   0000E9   8042         SJMP      ??uiActionProcessPrepareInstallCode_10
   1041            }
   1042            else if (keys & UI_KEY_SW_2_PRESSED)
   \                     ??uiActionProcessPrepareInstallCode_1:
   \   0000EB   EE           MOV       A,R6
   \   0000EC   5402         ANL       A,#0x2
   \   0000EE   6028         JZ        ??uiActionProcessPrepareInstallCode_11
   1043            {
   1044              if (index < CurrentModifiedFieldLen * 2 - 1)
   \   0000F0   90....       MOV       DPTR,#??CurrentModifiedFieldLen
   \   0000F3   E0           MOVX      A,@DPTR
   \   0000F4   25E0         ADD       A,0xE0 /* A   */
   \   0000F6   F8           MOV       R0,A
   \   0000F7   E4           CLR       A
   \   0000F8   33           RLC       A
   \   0000F9   F9           MOV       R1,A
   \   0000FA   E8           MOV       A,R0
   \   0000FB   24FF         ADD       A,#-0x1
   \   0000FD   18           DEC       R0
   \   0000FE   E9           MOV       A,R1
   \   0000FF   34FF         ADDC      A,#-0x1
   \   000101   F9           MOV       R1,A
   \   000102   C3           CLR       C
   \   000103   EA           MOV       A,R2
   \   000104   98           SUBB      A,R0
   \   000105   E4           CLR       A
   \   000106   99           SUBB      A,R1
   \   000107   A2D2         MOV       C,0xD0 /* PSW */.2
   \   000109   65D0         XRL       A,PSW
   \   00010B   33           RLC       A
   \   00010C   90....       MOV       DPTR,#??index
   \   00010F   5004         JNC       ??uiActionProcessPrepareInstallCode_12
   1045              {
   1046                index++;
   \   000111   E0           MOVX      A,@DPTR
   \   000112   04           INC       A
   \   000113   8018         SJMP      ??uiActionProcessPrepareInstallCode_10
   1047              }
   1048              else
   1049              {
   1050                index = 0;
   \                     ??uiActionProcessPrepareInstallCode_12:
   \   000115   E4           CLR       A
   \   000116   8015         SJMP      ??uiActionProcessPrepareInstallCode_10
   1051              }
   1052            }
   1053            else if (keys & UI_KEY_SW_4_PRESSED)
   \                     ??uiActionProcessPrepareInstallCode_11:
   \   000118   EE           MOV       A,R6
   \   000119   5408         ANL       A,#0x8
   \   00011B   6011         JZ        ??uiActionProcessPrepareInstallCode_13
   1054            {
   1055              if (index > 0)
   \   00011D   E0           MOVX      A,@DPTR
   \   00011E   6003         JZ        ??uiActionProcessPrepareInstallCode_14
   1056              {
   1057                index --;
   \   000120   14           DEC       A
   \   000121   800A         SJMP      ??uiActionProcessPrepareInstallCode_10
   1058              }
   1059              else
   1060              {
   1061                index = (CurrentModifiedFieldLen * 2 - 1);
   \                     ??uiActionProcessPrepareInstallCode_14:
   \   000123   90....       MOV       DPTR,#??CurrentModifiedFieldLen
   \   000126   E0           MOVX      A,@DPTR
   \   000127   C3           CLR       C
   \   000128   33           RLC       A
   \   000129   14           DEC       A
   \   00012A   90....       MOV       DPTR,#??index
   \                     ??uiActionProcessPrepareInstallCode_10:
   \   00012D   F0           MOVX      @DPTR,A
   1062              }
   1063            }
   1064            
   1065            uiLcdCursorLine = index / LCD_LINE_LENGTH;
   \                     ??uiActionProcessPrepareInstallCode_13:
   \   00012E   90....       MOV       DPTR,#??index
   \   000131   E0           MOVX      A,@DPTR
   \   000132   C4           SWAP      A
   \   000133   540F         ANL       A,#0xf
   \   000135   90....       MOV       DPTR,#uiLcdCursorLine
   \   000138   F0           MOVX      @DPTR,A
   1066            uiLcdCursorCol = index % LCD_LINE_LENGTH;
   \   000139   90....       MOV       DPTR,#??index
   \   00013C   E0           MOVX      A,@DPTR
   \   00013D   540F         ANL       A,#0xf
   \   00013F   90....       MOV       DPTR,#uiLcdCursorCol
   \   000142   F0           MOVX      @DPTR,A
   1067          
   1068            if ((uiCurrentState == UI_STATE_SET_INST_CODE_1) && ((keys & UI_KEY_SW_1_PRESSED) || (keys & UI_KEY_SW_3_PRESSED)))
   \   000143   90....       MOV       DPTR,#uiCurrentState
   \   000146   E0           MOVX      A,@DPTR
   \   000147   6415         XRL       A,#0x15
   \   000149   7002         JNZ       ??uiActionProcessPrepareInstallCode_15
   \   00014B   A3           INC       DPTR
   \   00014C   E0           MOVX      A,@DPTR
   \                     ??uiActionProcessPrepareInstallCode_15:
   \   00014D   7012         JNZ       ??uiActionProcessPrepareInstallCode_16
   \   00014F   EC           MOV       A,R4
   \   000150   600F         JZ        ??uiActionProcessPrepareInstallCode_16
   1069            {
   1070              crc = bdb_GenerateInstallCodeCRC(uiInstallCode);
   \   000152                ; Setup parameters for call to function bdb_GenerateInstallCodeCRC
   \   000152   7A..         MOV       R2,#uiInstallCode & 0xff
   \   000154   7B..         MOV       R3,#(uiInstallCode >> 8) & 0xff
   \   000156   12....       LCALL     `??bdb_GenerateInstallCodeCRC::?relay`; Banked call to: bdb_GenerateInstallCodeCRC
   1071              uiInstallCode[INSTALL_CODE_LEN] = crc & 0xFF;
   \   000159   EA           MOV       A,R2
   \   00015A   90....       MOV       DPTR,#uiInstallCode + 16
   \   00015D   F0           MOVX      @DPTR,A
   1072              uiInstallCode[INSTALL_CODE_LEN + 1] = crc >> 8;
   \   00015E   EB           MOV       A,R3
   \   00015F   A3           INC       DPTR
   \   000160   F0           MOVX      @DPTR,A
   1073            }
   1074          
   1075            if (keys & UI_KEY_SW_5_PRESSED)
   \                     ??uiActionProcessPrepareInstallCode_16:
   \   000161   EE           MOV       A,R6
   \   000162   5404         ANL       A,#0x4
   \   000164   6009         JZ        ??uiActionProcessPrepareInstallCode_17
   1076            {
   1077          #if (ZG_BUILD_COORDINATOR_TYPE)
   1078              if (uiCurrentState == UI_STATE_SET_INST_CODE_ADDR_1)
   1079              {
   1080                uiCurrentState = UI_STATE_SET_INST_CODE_ADDR_0;
   1081              }
   1082              else
   1083          #endif
   1084              {
   1085                uiCurrentState = UI_STATE_SET_INST_CODE_0;
   \   000166   90....       MOV       DPTR,#uiCurrentState
   \   000169   7412         MOV       A,#0x12
   \   00016B   12....       LCALL     ?Subroutine5 & 0xFFFF
   1086              }
   1087              
   1088              uiLcdCursorLine = 0xFF;
   1089            }
   \                     ??CrossCallReturnLabel_2:
   \   00016E   F0           MOVX      @DPTR,A
   1090          }
   \                     ??uiActionProcessPrepareInstallCode_17:
   \   00016F   7F08         MOV       R7,#0x8
   \   000171   02....       LJMP      ?BANKED_LEAVE_XDATA

   \                                 In  segment XDATA_Z, align 1, keep-with-next
   \                     ??pCurrentModifiedField:
   \   000000                DS 2
   \   000002                REQUIRE __INIT_XDATA_Z

   \                                 In  segment XDATA_Z, align 1, keep-with-next
   \                     ??CurrentModifiedFieldLen:
   \   000000                DS 1
   \   000001                REQUIRE __INIT_XDATA_Z

   \                                 In  segment XDATA_Z, align 1, keep-with-next
   \                     ??CurrentModifiedFieldIsBigEndian:
   \   000000                DS 1
   \   000001                REQUIRE __INIT_XDATA_Z

   \                                 In  segment XDATA_Z, align 1, keep-with-next
   \                     ??index:
   \   000000                DS 1
   \   000001                REQUIRE __INIT_XDATA_Z
   1091          
   1092          /*********************************************************************
   1093           * @fn          uiActionConfigureEnables
   1094           *
   1095           * @brief       State-machine action for toggling various configurations on and off
   1096           *
   1097           * @param       keys - the keypress code that triggered the call to this function
   1098           *
   1099           * @return      none
   1100           */

   \                                 In  segment BANKED_CODE, align 1, keep-with-next
   1101          static void uiActionConfigureEnables(uint16 keys)
   \                     uiActionConfigureEnables:
   1102          {
   \   000000                REQUIRE ?V0
   \   000000                REQUIRE ?V1
   \   000000   74F6         MOV       A,#-0xa
   \   000002   12....       LCALL     ?BANKED_ENTER_XDATA
   \   000005                ; Saved register size: 10
   \   000005                ; Auto size: 0
   1103          #if defined ( BDB_TL_TARGET )
   1104            static uint32 TouchlinkTimeoutIncements = TOUCHLINK_TIMEOUT_INCREMENTS_INITIAL;
   1105          #endif
   1106          
   1107            switch (uiCurrentState)
   \   000005   90....       MOV       DPTR,#uiCurrentState
   \   000008   12....       LCALL     ?Subroutine16 & 0xFFFF
   \                     ??CrossCallReturnLabel_35:
   \   00000B   12....       LCALL     ?US_SWITCH_DENSE
   \                     `?<Jumptable for uiActionConfigureEnables>_0`:
   \   00000E   0800         DW        8
   \   000010   02           DB        2
   \   000011   ....         DW        ??uiActionConfigureEnables_0
   \   000013   ....         DW        ??uiActionConfigureEnables_1
   \   000015   ....         DW        ??uiActionConfigureEnables_2
   \   000017   ....         DW        ??uiActionConfigureEnables_3
   1108            {
   1109          #ifdef BDB_TL_TARGET
   1110              case UI_STATE_TOUCHLINK_TARGET:
   1111                if (keys & UI_KEY_SW_1_PRESSED)
   1112                {
   1113                  if (uiTouchlinkTargetTimeout < TOUCHLINK_TARGET_PERPETUAL - TouchlinkTimeoutIncements)
   1114                  {
   1115                    uiTouchlinkTargetTimeout += TouchlinkTimeoutIncements;
   1116                  }
   1117                  else
   1118                  {
   1119                    uiTouchlinkTargetTimeout = TOUCHLINK_TARGET_PERPETUAL;
   1120                  }
   1121                }
   1122                else if ((keys & UI_KEY_SW_3_PRESSED) && (uiTouchlinkTargetTimeout >= TouchlinkTimeoutIncements))
   1123                {
   1124                  if ((uiTouchlinkTargetTimeout % TouchlinkTimeoutIncements) != 0)
   1125                  {
   1126                    uiTouchlinkTargetTimeout -= uiTouchlinkTargetTimeout % TouchlinkTimeoutIncements;
   1127                  }
   1128                  else
   1129                  {
   1130                    uiTouchlinkTargetTimeout -= TouchlinkTimeoutIncements;
   1131                  }
   1132                }
   1133          
   1134                if ((keys & (UI_KEY_SW_1_PRESSED | UI_KEY_SW_3_PRESSED)) && ((uiTouchlinkTargetTimeout > 0) && (uiTouchlinkTargetTimeout < TOUCHLINK_TARGET_PERPETUAL)))
   1135                {
   1136                  osal_start_timerEx(uiAppTaskId, uiKeyAutoRepeatEvent, uiAutoKeyRepeatDelay);
   1137                  uiAutoKeyRepeatDelay = 100;
   1138                  if (TouchlinkTimeoutIncements < TOUCHLINK_TIMEOUT_INCREMENTS_MAX)
   1139                  {
   1140                    uiAutoKeyRepeatCount++;
   1141                    if (uiAutoKeyRepeatCount == 3)
   1142                    {
   1143                      uiAutoKeyRepeatCount = 0;
   1144                      TouchlinkTimeoutIncements *= 2;
   1145                    }
   1146                  }
   1147                }
   1148                else
   1149                {
   1150                  osal_stop_timerEx(uiAppTaskId, uiKeyAutoRepeatEvent);
   1151                  uiAutoKeyRepeatDelay = 500;
   1152                  uiAutoKeyRepeatCount = 0;
   1153                  TouchlinkTimeoutIncements = 1000;
   1154                }
   1155                break;
   1156              case UI_STATE_TOUCHLINK_STEALING:
   1157                bdb_TouchlinkSetAllowStealing( ! bdb_TouchlinkGetAllowStealing() );
   1158                break;
   1159          #endif
   1160          #ifdef BDB_TL_INITIATOR
   1161              case UI_STATE_TOUCHLINK_INITIATOR:
   1162                uiSelectedBdbComissioningModes ^= BDB_COMMISSIONING_MODE_INITIATOR_TL;
   1163                break;
   1164          #endif
   1165              case UI_STATE_NETWORK_FORMATION:
   1166                uiSelectedBdbComissioningModes ^= BDB_COMMISSIONING_MODE_NWK_FORMATION;
   \                     ??uiActionConfigureEnables_1:
   \   000019   90....       MOV       DPTR,#uiSelectedBdbComissioningModes
   \   00001C   E0           MOVX      A,@DPTR
   \   00001D   6404         XRL       A,#0x4
   \   00001F   800E         SJMP      ??uiActionConfigureEnables_4
   1167                break;
   1168              case UI_STATE_NETWORK_STEERING:
   1169                uiSelectedBdbComissioningModes ^= BDB_COMMISSIONING_MODE_NWK_STEERING;
   \                     ??uiActionConfigureEnables_2:
   \   000021   90....       MOV       DPTR,#uiSelectedBdbComissioningModes
   \   000024   E0           MOVX      A,@DPTR
   \   000025   6402         XRL       A,#0x2
   \   000027   8006         SJMP      ??uiActionConfigureEnables_4
   1170                break;
   1171              case UI_STATE_FINDING_AND_BINDING:
   1172                uiSelectedBdbComissioningModes ^= BDB_COMMISSIONING_MODE_FINDING_BINDING;
   \                     ??uiActionConfigureEnables_3:
   \   000029   90....       MOV       DPTR,#uiSelectedBdbComissioningModes
   \   00002C   E0           MOVX      A,@DPTR
   \   00002D   6408         XRL       A,#0x8
   \                     ??uiActionConfigureEnables_4:
   \   00002F   F0           MOVX      @DPTR,A
   1173                break;
   1174            }
   1175          }
   \                     ??uiActionConfigureEnables_0:
   \   000030   02....       LJMP      ?Subroutine1 & 0xFFFF

   \                                 In  segment BANKED_CODE, align 1, keep-with-next
   \                     ?Subroutine16:
   \   000000   12....       LCALL     ?Subroutine30 & 0xFFFF
   \                     ??CrossCallReturnLabel_93:
   \   000003   F5..         MOV       ?V1,A
   \   000005   78..         MOV       R0,#?V0
   \   000007   22           RET
   1176          
   1177          /*********************************************************************
   1178           * @fn          uiActionResetToFactoryNew
   1179           *
   1180           * @brief       State-machine action for resetting the device to factory new
   1181           *
   1182           * @param       keys - the keypress code that triggered the call to this function
   1183           *
   1184           * @return      none
   1185           */

   \                                 In  segment BANKED_CODE, align 1, keep-with-next
   1186          static void uiActionResetToFactoryNew(uint16 keys)
   \                     uiActionResetToFactoryNew:
   1187          {
   \   000000   C082         PUSH      DPL
   \   000002   C083         PUSH      DPH
   \   000004                ; Saved register size: 2
   \   000004                ; Auto size: 0
   1188            uiResetInitiated = TRUE;
   \   000004   90....       MOV       DPTR,#uiResetInitiated
   \   000007   7401         MOV       A,#0x1
   \   000009   F0           MOVX      @DPTR,A
   1189            bdb_resetLocalAction();
   \   00000A                ; Setup parameters for call to function bdb_resetLocalAction
   \   00000A   12....       LCALL     `??bdb_resetLocalAction::?relay`; Banked call to: bdb_resetLocalAction
   1190          }
   \   00000D   02....       LJMP      ?Subroutine2 & 0xFFFF
   1191            
   1192          /*********************************************************************
   1193           * @fn          UI_MainStateMachine
   1194           *
   1195           * @brief       This is the main UI state machine engine.
   1196           *              This function should be called from the application's key handler, and also from its event-loop
   1197           *              for processing the key-repress event.
   1198           *
   1199           * @param       current_keys - a bitmask of the keys that are currently pressed, or 0xFFFF when this function
   1200           *              is invoked to handle key auto-repeat.
   1201           *
   1202           * @return      none
   1203           */

   \                                 In  segment BANKED_CODE, align 1, keep-with-next
   1204          void UI_MainStateMachine( uint16 current_keys ) //argument is uint16 to allow 8 bits for the keys (for future use), and another unique value to mark a re-press of the previous keys.
   \                     UI_MainStateMachine:
   1205          {
   \   000000                REQUIRE ?V0
   \   000000   74F7         MOV       A,#-0x9
   \   000002   12....       LCALL     ?BANKED_ENTER_XDATA
   \   000005                ; Saved register size: 9
   \   000005                ; Auto size: 0
   1206            static byte PrevKeys = 0; //holds the keys that were pressed during the previous time this function was called. (Does not hold the keys that were released.)
   1207          
   1208            uint8 SavedLcdCursorLine = uiLcdCursorLine;
   \   000005   90....       MOV       DPTR,#uiLcdCursorLine
   \   000008   E0           MOVX      A,@DPTR
   \   000009   F5..         MOV       ?V0,A
   1209            bool LcdUpdateIsRequired = FALSE;
   1210            uint16 keys; //will hold the bitmask of the currently pressed keys at the lower 8 bits, and the keys that have just been released at the higher 8 bits.
   1211          
   1212            if (uiResetInitiated)
   \   00000B   90....       MOV       DPTR,#uiResetInitiated
   \   00000E   E0           MOVX      A,@DPTR
   \   00000F   6003         JZ        $+5
   \   000011   02....       LJMP      ??UI_MainStateMachine_0 & 0xFFFF
   1213            {
   1214              return;
   1215            }
   1216            
   1217            if (current_keys == UI_KEY_AUTO_PRESSED)
   \   000014   90....       MOV       DPTR,#??PrevKeys
   \   000017   E0           MOVX      A,@DPTR
   \   000018   F8           MOV       R0,A
   \   000019   74FF         MOV       A,#-0x1
   \   00001B   6A           XRL       A,R2
   \   00001C   7003         JNZ       ??UI_MainStateMachine_1
   \   00001E   74FF         MOV       A,#-0x1
   \   000020   6B           XRL       A,R3
   \                     ??UI_MainStateMachine_1:
   \   000021   7006         JNZ       ??UI_MainStateMachine_2
   1218            {
   1219              keys = PrevKeys;
   \   000023   E8           MOV       A,R0
   \   000024   FE           MOV       R6,A
   \   000025   7F00         MOV       R7,#0x0
   \   000027   8009         SJMP      ??UI_MainStateMachine_3
   1220            }
   1221            else
   1222            {
   1223              keys = (current_keys | (((PrevKeys ^ current_keys) & PrevKeys) << 8));
   \                     ??UI_MainStateMachine_2:
   \   000029   E8           MOV       A,R0
   \   00002A   6A           XRL       A,R2
   \   00002B   58           ANL       A,R0
   \   00002C   F9           MOV       R1,A
   \   00002D   EA           MOV       A,R2
   \   00002E   FE           MOV       R6,A
   \   00002F   EB           MOV       A,R3
   \   000030   49           ORL       A,R1
   \   000031   FF           MOV       R7,A
   1224            }
   1225            
   1226            uiLcdCursorLine = 0xFF;
   \                     ??UI_MainStateMachine_3:
   \   000032   90....       MOV       DPTR,#uiLcdCursorLine
   \   000035   74FF         MOV       A,#-0x1
   \   000037   F0           MOVX      @DPTR,A
   1227          
   1228            if ((keys & UI_KEY_SW_2_PRESSED) && (uiStates[uiCurrentState].next_state != UI_STATE_UNCHANGED))
   \   000038   90....       MOV       DPTR,#uiCurrentState
   \   00003B   12....       LCALL     ?Subroutine24 & 0xFFFF
   \                     ??CrossCallReturnLabel_53:
   \   00003E   E8           MOV       A,R0
   \   00003F   75F006       MOV       B,#0x6
   \   000042   A4           MUL       AB
   \   000043   F8           MOV       R0,A
   \   000044   AAF0         MOV       R2,B
   \   000046   75F006       MOV       B,#0x6
   \   000049   E9           MOV       A,R1
   \   00004A   A4           MUL       AB
   \   00004B   2A           ADD       A,R2
   \   00004C   F9           MOV       R1,A
   \   00004D   90....       MOV       DPTR,#uiStates
   \   000050   E0           MOVX      A,@DPTR
   \   000051   28           ADD       A,R0
   \   000052   F8           MOV       R0,A
   \   000053   A3           INC       DPTR
   \   000054   E0           MOVX      A,@DPTR
   \   000055   39           ADDC      A,R1
   \   000056   F9           MOV       R1,A
   \   000057   EE           MOV       A,R6
   \   000058   5402         ANL       A,#0x2
   \   00005A   601D         JZ        ??UI_MainStateMachine_4
   \   00005C   8882         MOV       DPL,R0
   \   00005E   8983         MOV       DPH,R1
   \   000060   E0           MOVX      A,@DPTR
   \   000061   FA           MOV       R2,A
   \   000062   74FF         MOV       A,#-0x1
   \   000064   6A           XRL       A,R2
   \   000065   6012         JZ        ??UI_MainStateMachine_4
   1229            {
   1230              if (uiStates[uiCurrentState].next_state == UI_STATE_DEFAULT_MOVE)
   \   000067   74FE         MOV       A,#-0x2
   \   000069   6A           XRL       A,R2
   \   00006A   7030         JNZ       ??UI_MainStateMachine_5
   1231              {
   1232                uiCurrentState++;
   \   00006C   90....       MOV       DPTR,#uiCurrentState
   \   00006F   E0           MOVX      A,@DPTR
   \   000070   2401         ADD       A,#0x1
   \   000072   F0           MOVX      @DPTR,A
   \   000073   A3           INC       DPTR
   \   000074   E0           MOVX      A,@DPTR
   \   000075   3400         ADDC      A,#0x0
   \   000077   802A         SJMP      ??UI_MainStateMachine_6
   1233              }
   1234              else
   1235              {
   1236                uiCurrentState = uiStates[uiCurrentState].next_state;
   1237              }
   1238              
   1239              LcdUpdateIsRequired = TRUE;
   1240            }
   1241            else if ((keys & UI_KEY_SW_4_PRESSED) && (uiStates[uiCurrentState].prev_state != UI_STATE_UNCHANGED))
   \                     ??UI_MainStateMachine_4:
   \   000079   EE           MOV       A,R6
   \   00007A   5408         ANL       A,#0x8
   \   00007C   602B         JZ        ??UI_MainStateMachine_7
   \   00007E   8882         MOV       DPL,R0
   \   000080   8983         MOV       DPH,R1
   \   000082   A3           INC       DPTR
   \   000083   E0           MOVX      A,@DPTR
   \   000084   FA           MOV       R2,A
   \   000085   74FF         MOV       A,#-0x1
   \   000087   6A           XRL       A,R2
   \   000088   601F         JZ        ??UI_MainStateMachine_7
   1242            {
   1243              if (uiStates[uiCurrentState].prev_state == UI_STATE_DEFAULT_MOVE)
   \   00008A   74FE         MOV       A,#-0x2
   \   00008C   6A           XRL       A,R2
   \   00008D   700D         JNZ       ??UI_MainStateMachine_5
   1244              {
   1245                uiCurrentState--;
   \   00008F   90....       MOV       DPTR,#uiCurrentState
   \   000092   E0           MOVX      A,@DPTR
   \   000093   24FF         ADD       A,#-0x1
   \   000095   F0           MOVX      @DPTR,A
   \   000096   A3           INC       DPTR
   \   000097   E0           MOVX      A,@DPTR
   \   000098   34FF         ADDC      A,#-0x1
   \   00009A   8007         SJMP      ??UI_MainStateMachine_6
   1246              }
   1247              else
   1248              {
   1249                uiCurrentState = uiStates[uiCurrentState].prev_state;
   \                     ??UI_MainStateMachine_5:
   \   00009C   EA           MOV       A,R2
   \   00009D   90....       MOV       DPTR,#uiCurrentState
   \   0000A0   F0           MOVX      @DPTR,A
   \   0000A1   A3           INC       DPTR
   \   0000A2   E4           CLR       A
   \                     ??UI_MainStateMachine_6:
   \   0000A3   F0           MOVX      @DPTR,A
   1250              }
   1251              
   1252              LcdUpdateIsRequired = TRUE;
   1253            }
   1254            else if ((keys & uiStates[uiCurrentState].keys_mask) && (uiStates[uiCurrentState].state_func != NULL))
   1255            {
   1256              uiStates[uiCurrentState].state_func(keys);
   1257              
   1258              LcdUpdateIsRequired = TRUE;
   1259            }
   1260          
   1261            if (LcdUpdateIsRequired)
   1262            {
   1263              UI_UpdateLcd();
   \                     ??UI_MainStateMachine_8:
   \   0000A4                ; Setup parameters for call to function UI_UpdateLcd
   \   0000A4   12....       LCALL     `??UI_UpdateLcd::?relay`; Banked call to: UI_UpdateLcd
   \   0000A7   8035         SJMP      ??UI_MainStateMachine_9
   1264            }
   \                     ??UI_MainStateMachine_7:
   \   0000A9   8882         MOV       DPL,R0
   \   0000AB   8983         MOV       DPH,R1
   \   0000AD   A3           INC       DPTR
   \   0000AE   A3           INC       DPTR
   \   0000AF   E0           MOVX      A,@DPTR
   \   0000B0   5E           ANL       A,R6
   \   0000B1   FA           MOV       R2,A
   \   0000B2   A3           INC       DPTR
   \   0000B3   E0           MOVX      A,@DPTR
   \   0000B4   5F           ANL       A,R7
   \   0000B5   FB           MOV       R3,A
   \   0000B6   EA           MOV       A,R2
   \   0000B7   4B           ORL       A,R3
   \   0000B8   601E         JZ        ??UI_MainStateMachine_10
   \   0000BA   8882         MOV       DPL,R0
   \   0000BC   8983         MOV       DPH,R1
   \   0000BE   A3           INC       DPTR
   \   0000BF   A3           INC       DPTR
   \   0000C0   A3           INC       DPTR
   \   0000C1   A3           INC       DPTR
   \   0000C2   12....       LCALL     ?Subroutine24 & 0xFFFF
   \                     ??CrossCallReturnLabel_54:
   \   0000C5   8882         MOV       DPL,R0
   \   0000C7   8983         MOV       DPH,R1
   \   0000C9   E582         MOV       A,DPL
   \   0000CB   4583         ORL       A,DPH
   \   0000CD   6009         JZ        ??UI_MainStateMachine_10
   \   0000CF                ; Setup parameters for indirect call
   \   0000CF   EE           MOV       A,R6
   \   0000D0   FA           MOV       R2,A
   \   0000D1   EF           MOV       A,R7
   \   0000D2   FB           MOV       R3,A
   \   0000D3   12....       LCALL     ?CALL_IND
   \   0000D6   80CC         SJMP      ??UI_MainStateMachine_8
   1265            else
   1266            {
   1267              uiLcdCursorLine = SavedLcdCursorLine;
   \                     ??UI_MainStateMachine_10:
   \   0000D8   E5..         MOV       A,?V0
   \   0000DA   90....       MOV       DPTR,#uiLcdCursorLine
   \   0000DD   F0           MOVX      @DPTR,A
   1268            }
   1269          
   1270            PrevKeys = keys & 0xFF; //only remember the keys that are currently pressed. Released keys are irrelevant. the 0xFF is not needed, since the target is uint8, but it is there just so it is clear that this assignment of uint16 into uint8 is intentional.
   \                     ??UI_MainStateMachine_9:
   \   0000DE   EE           MOV       A,R6
   \   0000DF   90....       MOV       DPTR,#??PrevKeys
   \   0000E2   F0           MOVX      @DPTR,A
   1271          }
   \                     ??UI_MainStateMachine_0:
   \   0000E3                REQUIRE ?Subroutine4
   \   0000E3                ; // Fall through to label ?Subroutine4

   \                                 In  segment BANKED_CODE, align 1, keep-with-next
   \                     ?Subroutine4:
   \   000000   7F01         MOV       R7,#0x1
   \   000002   02....       LJMP      ?BANKED_LEAVE_XDATA

   \                                 In  segment BANKED_CODE, align 1, keep-with-next
   \                     ?Subroutine24:
   \   000000   12....       LCALL     ?Subroutine31 & 0xFFFF
   \                     ??CrossCallReturnLabel_80:
   \   000003   F9           MOV       R1,A
   \   000004   22           RET

   \                                 In  segment XDATA_Z, align 1, keep-with-next
   \                     ??PrevKeys:
   \   000000                DS 1
   \   000001                REQUIRE __INIT_XDATA_Z
   1272          
   1273          /*********************************************************************
   1274           * @fn          UI_UpdateComissioningStatus
   1275           *
   1276           * @brief       Update the comissioning status to be displayed when the respective menu-screen is selected.
   1277           *              This function should be called from the application, from within the function registered to
   1278           *              be notified about these events.
   1279           *
   1280           * @param       bdbCommissioningModeMsg - comissioning mode and state information
   1281           *
   1282           * @return      none
   1283           */

   \                                 In  segment BANKED_CODE, align 1, keep-with-next
   1284          void UI_UpdateComissioningStatus(bdbCommissioningModeMsg_t *bdbCommissioningModeMsg)
   \                     UI_UpdateComissioningStatus:
   1285          {
   \   000000   C082         PUSH      DPL
   \   000002   C083         PUSH      DPH
   \   000004                ; Saved register size: 2
   \   000004                ; Auto size: 0
   1286            uiCommissioningIsInitializing = FALSE;
   \   000004   90....       MOV       DPTR,#uiCommissioningIsInitializing
   \   000007   E4           CLR       A
   \   000008   F0           MOVX      @DPTR,A
   1287            
   1288            switch(bdbCommissioningModeMsg->bdbCommissioningMode)
   \   000009   78..         MOV       R0,#`?<Constant "--">` & 0xff
   \   00000B   79..         MOV       R1,#(`?<Constant "--">` >> 8) & 0xff
   \   00000D   8A82         MOV       DPL,R2
   \   00000F   8B83         MOV       DPH,R3
   \   000011   A3           INC       DPTR
   \   000012   E0           MOVX      A,@DPTR
   \   000013   6060         JZ        ??UI_UpdateComissioningStatus_0
   \   000015   14           DEC       A
   \   000016   602F         JZ        ??UI_UpdateComissioningStatus_1
   \   000018   14           DEC       A
   \   000019   6009         JZ        ??UI_UpdateComissioningStatus_2
   \   00001B   14           DEC       A
   \   00001C   604C         JZ        ??UI_UpdateComissioningStatus_3
   \   00001E   24FE         ADD       A,#-0x2
   \   000020   605E         JZ        ??UI_UpdateComissioningStatus_4
   \   000022   8076         SJMP      ??UI_UpdateComissioningStatus_5
   1289            {
   1290              case BDB_COMMISSIONING_FORMATION:
   1291                uiCommissioningStateStr = "NF";
   \                     ??UI_UpdateComissioningStatus_2:
   \   000024   90....       MOV       DPTR,#uiCommissioningStateStr
   \   000027   74..         MOV       A,#`?<Constant "NF">` & 0xff
   \   000029   F0           MOVX      @DPTR,A
   \   00002A   A3           INC       DPTR
   \   00002B   74..         MOV       A,#(`?<Constant "NF">` >> 8) & 0xff
   \   00002D   F0           MOVX      @DPTR,A
   1292                if ((bdbCommissioningModeMsg->bdbCommissioningStatus == BDB_COMMISSIONING_SUCCESS) && (uiCommissioningNetworkConnrctionStr == NULL))
   \   00002E   8A82         MOV       DPL,R2
   \   000030   8B83         MOV       DPH,R3
   \   000032   E0           MOVX      A,@DPTR
   \   000033   7065         JNZ       ??UI_UpdateComissioningStatus_5
   \   000035   12....       LCALL     ?Subroutine22 & 0xFFFF
   \                     ??CrossCallReturnLabel_70:
   \   000038   EC           MOV       A,R4
   \   000039   4D           ORL       A,R5
   \   00003A   7067         JNZ       ??UI_UpdateComissioningStatus_6
   1293                {
   1294                  uiCommissioningNetworkConnrctionStr = "FORM";
   \   00003C   90....       MOV       DPTR,#uiCommissioningNetworkConnrctionStr
   \   00003F   74..         MOV       A,#`?<Constant "FORM">` & 0xff
   \   000041   F0           MOVX      @DPTR,A
   \   000042   A3           INC       DPTR
   \   000043   74..         MOV       A,#(`?<Constant "FORM">` >> 8) & 0xff
   \   000045   8049         SJMP      ??UI_UpdateComissioningStatus_7
   1295                }
   1296                break;
   1297              case BDB_COMMISSIONING_NWK_STEERING:
   1298                uiCommissioningStateStr = "NS";
   \                     ??UI_UpdateComissioningStatus_1:
   \   000047   90....       MOV       DPTR,#uiCommissioningStateStr
   \   00004A   74..         MOV       A,#`?<Constant "NS">` & 0xff
   \   00004C   F0           MOVX      @DPTR,A
   \   00004D   A3           INC       DPTR
   \   00004E   74..         MOV       A,#(`?<Constant "NS">` >> 8) & 0xff
   \   000050   F0           MOVX      @DPTR,A
   1299                if ((bdbCommissioningModeMsg->bdbCommissioningStatus == BDB_COMMISSIONING_SUCCESS) && (uiCommissioningNetworkConnrctionStr == NULL))
   \   000051   8A82         MOV       DPL,R2
   \   000053   8B83         MOV       DPH,R3
   \   000055   E0           MOVX      A,@DPTR
   \   000056   7042         JNZ       ??UI_UpdateComissioningStatus_5
   \   000058   12....       LCALL     ?Subroutine22 & 0xFFFF
   \                     ??CrossCallReturnLabel_71:
   \   00005B   EC           MOV       A,R4
   \   00005C   4D           ORL       A,R5
   \   00005D   7044         JNZ       ??UI_UpdateComissioningStatus_6
   1300                {
   1301                  uiCommissioningNetworkConnrctionStr = "JOIN";
   \   00005F   90....       MOV       DPTR,#uiCommissioningNetworkConnrctionStr
   \   000062   74..         MOV       A,#`?<Constant "JOIN">` & 0xff
   \   000064   F0           MOVX      @DPTR,A
   \   000065   A3           INC       DPTR
   \   000066   74..         MOV       A,#(`?<Constant "JOIN">` >> 8) & 0xff
   \   000068   8026         SJMP      ??UI_UpdateComissioningStatus_7
   1302                }
   1303                break;
   1304              case BDB_COMMISSIONING_FINDING_BINDING:
   1305                uiCommissioningStateStr = "FB";
   \                     ??UI_UpdateComissioningStatus_3:
   \   00006A   90....       MOV       DPTR,#uiCommissioningStateStr
   \   00006D   74..         MOV       A,#`?<Constant "FB">` & 0xff
   \   00006F   F0           MOVX      @DPTR,A
   \   000070   A3           INC       DPTR
   \   000071   74..         MOV       A,#(`?<Constant "FB">` >> 8) & 0xff
   \   000073   8024         SJMP      ??UI_UpdateComissioningStatus_8
   1306                break;
   1307              case BDB_COMMISSIONING_INITIALIZATION:
   1308                uiCommissioningStateStr = "IN";
   \                     ??UI_UpdateComissioningStatus_0:
   \   000075   90....       MOV       DPTR,#uiCommissioningStateStr
   \   000078   74..         MOV       A,#`?<Constant "IN">` & 0xff
   \   00007A   F0           MOVX      @DPTR,A
   \   00007B   A3           INC       DPTR
   \   00007C   74..         MOV       A,#(`?<Constant "IN">` >> 8) & 0xff
   \   00007E   8019         SJMP      ??UI_UpdateComissioningStatus_8
   1309                break;
   1310          #if ZG_BUILD_ENDDEVICE_TYPE    
   1311              case BDB_COMMISSIONING_PARENT_LOST:
   1312                if(bdbCommissioningModeMsg->bdbCommissioningStatus == BDB_COMMISSIONING_NETWORK_RESTORED)
   \                     ??UI_UpdateComissioningStatus_4:
   \   000080   8A82         MOV       DPL,R2
   \   000082   8B83         MOV       DPH,R3
   \   000084   E0           MOVX      A,@DPTR
   \   000085   640D         XRL       A,#0xd
   \   000087   90....       MOV       DPTR,#uiCommissioningStateStr
   \   00008A   7007         JNZ       ??UI_UpdateComissioningStatus_9
   1313                {
   1314                  uiCommissioningStateStr = "--";
   \   00008C   E8           MOV       A,R0
   \   00008D   F0           MOVX      @DPTR,A
   \   00008E   A3           INC       DPTR
   \   00008F   E9           MOV       A,R1
   \                     ??UI_UpdateComissioningStatus_7:
   \   000090   F0           MOVX      @DPTR,A
   \   000091   8010         SJMP      ??UI_UpdateComissioningStatus_6
   1315                }
   1316                else
   1317                {
   1318                  uiCommissioningStateStr = "PL";
   \                     ??UI_UpdateComissioningStatus_9:
   \   000093   74..         MOV       A,#`?<Constant "PL">` & 0xff
   \   000095   F0           MOVX      @DPTR,A
   \   000096   A3           INC       DPTR
   \   000097   74..         MOV       A,#(`?<Constant "PL">` >> 8) & 0xff
   \                     ??UI_UpdateComissioningStatus_8:
   \   000099   F0           MOVX      @DPTR,A
   1319                }
   1320                break;
   1321          #endif
   1322          #if BDB_TOUCHLINK_CAPABILITY_ENABLED
   1323              case BDB_COMMISSIONING_TOUCHLINK:
   1324                uiCommissioningStateStr = "TL";
   1325                if ((bdbCommissioningModeMsg->bdbCommissioningStatus == BDB_COMMISSIONING_SUCCESS) && (uiCommissioningNetworkConnrctionStr == NULL))
   1326                {
   1327                  uiCommissioningNetworkConnrctionStr = "TCHL";
   1328                }
   1329                break;
   1330          #endif
   1331            }
   1332          
   1333            if ((bdbCommissioningModeMsg->bdbCommissioningStatus != BDB_COMMISSIONING_IN_PROGRESS) && (bdbCommissioningModeMsg->bdbRemainingCommissioningModes == 0))
   \                     ??UI_UpdateComissioningStatus_5:
   \   00009A   8A82         MOV       DPL,R2
   \   00009C   8B83         MOV       DPH,R3
   \   00009E   E0           MOVX      A,@DPTR
   \   00009F   6401         XRL       A,#0x1
   \   0000A1   6014         JZ        ??UI_UpdateComissioningStatus_10
   \                     ??UI_UpdateComissioningStatus_6:
   \   0000A3   8A82         MOV       DPL,R2
   \   0000A5   8B83         MOV       DPH,R3
   \   0000A7   A3           INC       DPTR
   \   0000A8   A3           INC       DPTR
   \   0000A9   E0           MOVX      A,@DPTR
   \   0000AA   700B         JNZ       ??UI_UpdateComissioningStatus_10
   1334            {
   1335              uiCommissioningStateStr = "--";
   \   0000AC   90....       MOV       DPTR,#uiCommissioningStateStr
   \   0000AF   12....       LCALL     ??Subroutine37_0 & 0xFFFF
   1336          
   1337              uiComissioningIsActive = FALSE;
   \                     ??CrossCallReturnLabel_108:
   \   0000B2   90....       MOV       DPTR,#uiComissioningIsActive
   \   0000B5   E4           CLR       A
   \   0000B6   F0           MOVX      @DPTR,A
   1338            }
   1339            
   1340            UI_UpdateLcd();
   \                     ??UI_UpdateComissioningStatus_10:
   \   0000B7                ; Setup parameters for call to function UI_UpdateLcd
   \   0000B7   12....       LCALL     `??UI_UpdateLcd::?relay`; Banked call to: UI_UpdateLcd
   1341          }
   \   0000BA                REQUIRE ?Subroutine2
   \   0000BA                ; // Fall through to label ?Subroutine2

   \                                 In  segment BANKED_CODE, align 1, keep-with-next
   \                     ?Subroutine22:
   \   000000   90....       MOV       DPTR,#uiCommissioningNetworkConnrctionStr
   \   000003                REQUIRE ??Subroutine33_0
   \   000003                ; // Fall through to label ??Subroutine33_0
   1342          
   1343          
   1344          void HalLcd_HW_WriteChar(uint8 line, uint8 col, char text);
   1345          
   1346          
   1347          /*********************************************************************
   1348           * @fn          UI_UpdateLcd
   1349           *
   1350           * @brief       Update the LCD display.
   1351           *              This function should be called by the application when handling the display-auto-refresh event, and
   1352           *              also whenevet an action that may change the information being displayed is executed.
   1353           *
   1354           * @param       none
   1355           *
   1356           * @return      none
   1357           */

   \                                 In  segment BANKED_CODE, align 1, keep-with-next
   1358          void UI_UpdateLcd( void )
   \                     UI_UpdateLcd:
   1359          {
   \   000000                REQUIRE ?V0
   \   000000                REQUIRE ?V1
   \   000000                REQUIRE ?V2
   \   000000                REQUIRE ?V4
   \   000000                REQUIRE ?V5
   \   000000                REQUIRE ?V6
   \   000000                REQUIRE ?V8
   \   000000                REQUIRE ?V9
   \   000000   74EE         MOV       A,#-0x12
   \   000002   12....       LCALL     ?BANKED_ENTER_XDATA
   \   000005                ; Saved register size: 18
   \   000005                ; Auto size: 58
   \   000005   74C6         MOV       A,#-0x3a
   \   000007   12....       LCALL     ?ALLOC_XSTACK8
   1360            char * line[3];
   1361            char LineBuf[3][LCD_CC2538_PREFIX_COUNT + LCD_LINE_LENGTH + 1];
   1362            uint8 i;
   1363            uint8 *xad;
   1364            bool LcdAutoRefreshRequired = FALSE;
   \   00000A   7E00         MOV       R6,#0x0
   1365            uint8 FBRemainingTimeLeft;
   1366            uint8 PermitJoinDuration;
   1367            
   1368            LineBuf[0][LCD_CC2538_PREFIX_COUNT] = 0;
   \   00000C   7407         MOV       A,#0x7
   \   00000E   12....       LCALL     ?XSTACK_DISP0_8
   \   000011   E4           CLR       A
   \   000012   F0           MOVX      @DPTR,A
   1369            LineBuf[1][LCD_CC2538_PREFIX_COUNT] = 0;
   \   000013   7418         MOV       A,#0x18
   \   000015   12....       LCALL     ?XSTACK_DISP0_8
   \   000018   E4           CLR       A
   \   000019   F0           MOVX      @DPTR,A
   1370            LineBuf[2][LCD_CC2538_PREFIX_COUNT] = 0;
   \   00001A   7429         MOV       A,#0x29
   \   00001C   12....       LCALL     ?XSTACK_DISP0_8
   \   00001F   E4           CLR       A
   \   000020   F0           MOVX      @DPTR,A
   1371            line[0] = LineBuf[0] + LCD_CC2538_PREFIX_COUNT;
   \   000021   7407         MOV       A,#0x7
   \   000023   12....       LCALL     ?XSTACK_DISP100_8
   \   000026   12....       LCALL     ?Subroutine8 & 0xFFFF
   1372            line[1] = LineBuf[1] + LCD_CC2538_PREFIX_COUNT;
   \                     ??CrossCallReturnLabel_115:
   \   000029   7418         MOV       A,#0x18
   \   00002B   12....       LCALL     ?XSTACK_DISP0_8
   \   00002E   A882         MOV       R0,DPL
   \   000030   A983         MOV       R1,DPH
   \   000032   7402         MOV       A,#0x2
   \   000034   12....       LCALL     ?XSTACK_DISP0_8
   \   000037   12....       LCALL     ??Subroutine37_0 & 0xFFFF
   1373            line[2] = LineBuf[2] + LCD_CC2538_PREFIX_COUNT;
   \                     ??CrossCallReturnLabel_109:
   \   00003A   7429         MOV       A,#0x29
   \   00003C   12....       LCALL     ?XSTACK_DISP0_8
   \   00003F   A882         MOV       R0,DPL
   \   000041   A983         MOV       R1,DPH
   \   000043   7404         MOV       A,#0x4
   \   000045   12....       LCALL     ?XSTACK_DISP0_8
   \   000048   12....       LCALL     ??Subroutine37_0 & 0xFFFF
   1374          
   1375          #ifdef HAL_BOARD_CC2538
   1376            for (i = 0; i < LCD_CC2538_PREFIX_COUNT; i++)
   1377            {
   1378              LineBuf[0][i] = ' ';
   1379              LineBuf[1][i] = ' ';
   1380              LineBuf[2][i] = ' ';
   1381            }
   1382          #endif
   1383          
   1384            osal_stop_timerEx(uiAppTaskId, uiLcdAutoUpdateEvent);
   \                     ??CrossCallReturnLabel_110:
   \   00004B                ; Setup parameters for call to function osal_stop_timerEx
   \   00004B   12....       LCALL     ?Subroutine14 & 0xFFFF
   \                     ??CrossCallReturnLabel_15:
   \   00004E   12....       LCALL     `??osal_stop_timerEx::?relay`; Banked call to: osal_stop_timerEx
   1385          
   1386            if (uiStates == uiAppStatesMain)
   \   000051   90....       MOV       DPTR,#uiStates
   \   000054   12....       LCALL     ?Subroutine23 & 0xFFFF
   \                     ??CrossCallReturnLabel_51:
   \   000057   E0           MOVX      A,@DPTR
   \   000058   68           XRL       A,R0
   \   000059   7003         JNZ       ??UI_UpdateLcd_0
   \   00005B   A3           INC       DPTR
   \   00005C   E0           MOVX      A,@DPTR
   \   00005D   69           XRL       A,R1
   \                     ??UI_UpdateLcd_0:
   \   00005E   7020         JNZ       ??UI_UpdateLcd_1
   1387            {
   1388              if (uiCurrentState == UI_STATE_BACK_FROM_APP_MENU)
   \   000060   90....       MOV       DPTR,#uiCurrentState
   \   000063   12....       LCALL     ??Subroutine34_0 & 0xFFFF
   \                     ??CrossCallReturnLabel_73:
   \   000066   7003         JNZ       $+5
   \   000068   02....       LJMP      ??UI_UpdateLcd_2 & 0xFFFF
   1389              {
   1390                line[2] = "<     BACK     >";
   1391              }
   1392              else
   1393              {
   1394                uiAppUpdateLcd(uiCurrentState, line);
   \   00006B                ; Setup parameters for indirect call
   \   00006B   AA..         MOV       R2,?XSP + 0
   \   00006D   AB..         MOV       R3,?XSP + 1
   \   00006F   90....       MOV       DPTR,#uiCurrentState
   \   000072   E0           MOVX      A,@DPTR
   \   000073   F9           MOV       R1,A
   \   000074   90....       MOV       DPTR,#uiAppUpdateLcd
   \   000077   12....       LCALL     ?Subroutine17 & 0xFFFF
   1395              }
   1396            }
   \                     ??CrossCallReturnLabel_38:
   \   00007A   12....       LCALL     ?CALL_IND
   \   00007D   02....       LJMP      ??UI_UpdateLcd_3 & 0xFFFF
   1397            else
   1398            {
   1399              switch (uiCurrentState)
   \                     ??UI_UpdateLcd_1:
   \   000080   7A..         MOV       R2,#`?<Constant "1234567890123456">` & 0xff
   \   000082   7B..         MOV       R3,#(`?<Constant "1234567890123456">` >> 8) & 0xff
   \   000084   75....       MOV       ?V4,#`?<Constant "    0x          ">` & 0xff
   \   000087   75....       MOV       ?V5,#(`?<Constant "    0x          ">` >> 8) & 0xff
   \   00008A   8E..         MOV       ?V6,R6
   \   00008C   75....       MOV       ?V0,#`?<Constant "    0xFFFF (any)">` & 0xff
   \   00008F   75....       MOV       ?V1,#(`?<Constant "    0xFFFF (any)">` >> 8) & 0xff
   \   000092   8E..         MOV       ?V2,R6
   \   000094   90....       MOV       DPTR,#uiCurrentState
   \   000097   E0           MOVX      A,@DPTR
   \   000098   F5..         MOV       ?V8,A
   \   00009A   A3           INC       DPTR
   \   00009B   E0           MOVX      A,@DPTR
   \   00009C   F5..         MOV       ?V9,A
   \   00009E   78..         MOV       R0,#?V8
   \   0000A0   12....       LCALL     ?US_SWITCH_DENSE
   \                     `?<Jumptable for UI_UpdateLcd>_0`:
   \   0000A3   0000         DW        0
   \   0000A5   15           DB        21
   \   0000A6   ....         DW        ??UI_UpdateLcd_3
   \   0000A8   ....         DW        ??UI_UpdateLcd_4
   \   0000AA   ....         DW        ??UI_UpdateLcd_5
   \   0000AC   ....         DW        ??UI_UpdateLcd_6
   \   0000AE   ....         DW        ??UI_UpdateLcd_7
   \   0000B0   ....         DW        ??UI_UpdateLcd_8
   \   0000B2   ....         DW        ??UI_UpdateLcd_9
   \   0000B4   ....         DW        ??UI_UpdateLcd_10
   \   0000B6   ....         DW        ??UI_UpdateLcd_11
   \   0000B8   ....         DW        ??UI_UpdateLcd_12
   \   0000BA   ....         DW        ??UI_UpdateLcd_13
   \   0000BC   ....         DW        ??UI_UpdateLcd_14
   \   0000BE   ....         DW        ??UI_UpdateLcd_15
   \   0000C0   ....         DW        ??UI_UpdateLcd_16
   \   0000C2   ....         DW        ??UI_UpdateLcd_17
   \   0000C4   ....         DW        ??UI_UpdateLcd_2
   \   0000C6   ....         DW        ??UI_UpdateLcd_18
   \   0000C8   ....         DW        ??UI_UpdateLcd_19
   \   0000CA   ....         DW        ??UI_UpdateLcd_20
   \   0000CC   ....         DW        ??UI_UpdateLcd_21
   \   0000CE   ....         DW        ??UI_UpdateLcd_22
   \   0000D0   ....         DW        ??UI_UpdateLcd_2
   \   0000D2   ....         DW        ??UI_UpdateLcd_23
   1400              {
   1401                case UI_STATE_FINDING_AND_BINDING:
   1402                  line[1] = uiSelectedBdbComissioningModes & BDB_COMMISSIONING_MODE_FINDING_BINDING ? "ENABLED" : "DISABLED";
   \                     ??UI_UpdateLcd_14:
   \   0000D4   90....       MOV       DPTR,#uiSelectedBdbComissioningModes
   \   0000D7   E0           MOVX      A,@DPTR
   \   0000D8   A2E3         MOV       C,0xE0 /* A   */.3
   \   0000DA   5006         JNC       ??UI_UpdateLcd_24
   \   0000DC   78..         MOV       R0,#`?<Constant "ENABLED">` & 0xff
   \   0000DE   79..         MOV       R1,#(`?<Constant "ENABLED">` >> 8) & 0xff
   \   0000E0   8004         SJMP      ??UI_UpdateLcd_25
   \                     ??UI_UpdateLcd_24:
   \   0000E2   78..         MOV       R0,#`?<Constant "DISABLED">` & 0xff
   \   0000E4   79..         MOV       R1,#(`?<Constant "DISABLED">` >> 8) & 0xff
   \                     ??UI_UpdateLcd_25:
   \   0000E6   7402         MOV       A,#0x2
   \   0000E8   12....       LCALL     ?XSTACK_DISP0_8
   \   0000EB   12....       LCALL     ?Subroutine7 & 0xFFFF
   1403                  line[2] = "<FINDNG+BINDNG >";
   \                     ??CrossCallReturnLabel_7:
   \   0000EE   12....       LCALL     ?XSTACK_DISP0_8
   \   0000F1   74..         MOV       A,#`?<Constant "<FINDNG+BINDNG >">` & 0xff
   \   0000F3   F0           MOVX      @DPTR,A
   \   0000F4   A3           INC       DPTR
   \   0000F5   74..         MOV       A,#(`?<Constant "<FINDNG+BINDNG >">` >> 8) & 0xff
   \   0000F7   02....       LJMP      ??UI_UpdateLcd_26 & 0xFFFF
   1404                  break;
   1405                case UI_STATE_BACK_FROM_CONFIGURE:
   1406                  line[2] = "<     BACK     >";
   1407                  break;
   1408                case UI_STATE_BACK_FROM_INSTALL_CODE:
   1409                  line[2] = "<     BACK     >";
   \                     ??UI_UpdateLcd_2:
   \   0000FA   7404         MOV       A,#0x4
   \   0000FC   12....       LCALL     ?XSTACK_DISP0_8
   \   0000FF   74..         MOV       A,#`?<Constant "<     BACK     >">` & 0xff
   \   000101   F0           MOVX      @DPTR,A
   \   000102   A3           INC       DPTR
   \   000103   74..         MOV       A,#(`?<Constant "<     BACK     >">` >> 8) & 0xff
   \   000105   02....       LJMP      ??UI_UpdateLcd_26 & 0xFFFF
   1410                  break;
   1411                case UI_STATE_NETWORK_FORMATION:
   1412                  line[1] = uiSelectedBdbComissioningModes & BDB_COMMISSIONING_MODE_NWK_FORMATION ? "ENABLED" : "DISABLED";
   \                     ??UI_UpdateLcd_12:
   \   000108   90....       MOV       DPTR,#uiSelectedBdbComissioningModes
   \   00010B   E0           MOVX      A,@DPTR
   \   00010C   A2E2         MOV       C,0xE0 /* A   */.2
   \   00010E   5006         JNC       ??UI_UpdateLcd_27
   \   000110   78..         MOV       R0,#`?<Constant "ENABLED">` & 0xff
   \   000112   79..         MOV       R1,#(`?<Constant "ENABLED">` >> 8) & 0xff
   \   000114   8004         SJMP      ??UI_UpdateLcd_28
   \                     ??UI_UpdateLcd_27:
   \   000116   78..         MOV       R0,#`?<Constant "DISABLED">` & 0xff
   \   000118   79..         MOV       R1,#(`?<Constant "DISABLED">` >> 8) & 0xff
   \                     ??UI_UpdateLcd_28:
   \   00011A   7402         MOV       A,#0x2
   \   00011C   12....       LCALL     ?XSTACK_DISP0_8
   \   00011F   12....       LCALL     ?Subroutine7 & 0xFFFF
   1413                  line[2] = "<NWK FORMATION >";
   \                     ??CrossCallReturnLabel_8:
   \   000122   12....       LCALL     ?XSTACK_DISP0_8
   \   000125   74..         MOV       A,#`?<Constant "<NWK FORMATION >">` & 0xff
   \   000127   F0           MOVX      @DPTR,A
   \   000128   A3           INC       DPTR
   \   000129   74..         MOV       A,#(`?<Constant "<NWK FORMATION >">` >> 8) & 0xff
   \   00012B   02....       LJMP      ??UI_UpdateLcd_26 & 0xFFFF
   1414                  break;
   1415                case UI_STATE_NETWORK_STEERING:
   1416                  line[1] = uiSelectedBdbComissioningModes & BDB_COMMISSIONING_MODE_NWK_STEERING ? "ENABLED" : "DISABLED";
   \                     ??UI_UpdateLcd_13:
   \   00012E   90....       MOV       DPTR,#uiSelectedBdbComissioningModes
   \   000131   E0           MOVX      A,@DPTR
   \   000132   A2E1         MOV       C,0xE0 /* A   */.1
   \   000134   5006         JNC       ??UI_UpdateLcd_29
   \   000136   78..         MOV       R0,#`?<Constant "ENABLED">` & 0xff
   \   000138   79..         MOV       R1,#(`?<Constant "ENABLED">` >> 8) & 0xff
   \   00013A   8004         SJMP      ??UI_UpdateLcd_30
   \                     ??UI_UpdateLcd_29:
   \   00013C   78..         MOV       R0,#`?<Constant "DISABLED">` & 0xff
   \   00013E   79..         MOV       R1,#(`?<Constant "DISABLED">` >> 8) & 0xff
   \                     ??UI_UpdateLcd_30:
   \   000140   7402         MOV       A,#0x2
   \   000142   12....       LCALL     ?XSTACK_DISP0_8
   \   000145   12....       LCALL     ?Subroutine7 & 0xFFFF
   1417                  line[2] = "< NWK STEERING >";
   \                     ??CrossCallReturnLabel_9:
   \   000148   12....       LCALL     ?XSTACK_DISP0_8
   \   00014B   74..         MOV       A,#`?<Constant "< NWK STEERING >">` & 0xff
   \   00014D   F0           MOVX      @DPTR,A
   \   00014E   A3           INC       DPTR
   \   00014F   74..         MOV       A,#(`?<Constant "< NWK STEERING >">` >> 8) & 0xff
   \   000151   02....       LJMP      ??UI_UpdateLcd_26 & 0xFFFF
   1418                  break;
   1419          #ifdef BDB_TL_TARGET
   1420                case UI_STATE_TOGGLE_TL_TARGET:
   1421                  {
   1422                    uint32 temp_u32;
   1423          
   1424                    temp_u32 = touchLinkTarget_GetTimer();
   1425                    if (temp_u32 == 0)
   1426                    {
   1427                      line[1] = "DISABLED        ";
   1428                    }
   1429                    else if (temp_u32 == TOUCHLINK_TARGET_PERPETUAL)
   1430                    {
   1431                      line[1] = "ENABLED FOREVER ";
   1432                    }
   1433                    else
   1434                    {
   1435                      uiConstStrCpy(line[1], "ENABLED (     s)");
   1436                      uiUintToString( temp_u32 / 1000 + ((temp_u32 % 1000) > 0 ? 1 : 0), line[1] + 9, 10, 5, FALSE, FALSE); //note: timeouts longer than 65535 seconds will not display correctly
   1437                      osal_start_timerEx(uiAppTaskId, uiLcdAutoUpdateEvent, uiLcdAutoUpdateInterval);
   1438                    }
   1439                  }
   1440                  line[2] = "< T.L. TARGET  >";
   1441                  break;
   1442                case UI_STATE_TOUCHLINK_TARGET:
   1443                  if (uiTouchlinkTargetTimeout == 0)
   1444                  {
   1445                    line[1] = "DISABLED        ";
   1446                  }
   1447                  else if (uiTouchlinkTargetTimeout == TOUCHLINK_TARGET_PERPETUAL)
   1448                  {
   1449                    line[1] = "Enable (forever)";
   1450                  }
   1451                  else
   1452                  {
   1453                    uiConstStrCpy(line[1], "Enable For     s");
   1454                    uiUintToString( uiTouchlinkTargetTimeout / 1000 + ((uiTouchlinkTargetTimeout % 1000) > 0 ? 1 : 0), line[1] + 10, 10, 5, FALSE, FALSE); //note: timeouts longer than 65535 seconds will not display correctly
   1455                    line[1][16] = 0;
   1456                  }
   1457                  line[2] = "<T.L. TRGT TIME>";
   1458                  break;
   1459                case UI_STATE_TOUCHLINK_STEALING:
   1460                  line[1] = bdb_TouchlinkGetAllowStealing() ? "ENABLED" : "DISABLED";
   1461                  line[2] = "<T.L. STEALING >";
   1462                  break;
   1463          #endif
   1464          #ifdef BDB_TL_INITIATOR
   1465                case UI_STATE_TOUCHLINK_INITIATOR:
   1466                  line[1] = uiSelectedBdbComissioningModes & BDB_COMMISSIONING_MODE_INITIATOR_TL ? "ENABLED" : "DISABLED";
   1467                  line[2] = "<T.L. INITIATOR>";
   1468                  break;
   1469          #endif
   1470                case UI_STATE_CONFIGURE:
   1471                  line[2] = "<  CONFIGURE   >";
   \                     ??UI_UpdateLcd_5:
   \   000154   7404         MOV       A,#0x4
   \   000156   12....       LCALL     ?XSTACK_DISP0_8
   \   000159   74..         MOV       A,#`?<Constant "<  CONFIGURE   >">` & 0xff
   \   00015B   F0           MOVX      @DPTR,A
   \   00015C   A3           INC       DPTR
   \   00015D   74..         MOV       A,#(`?<Constant "<  CONFIGURE   >">` >> 8) & 0xff
   \   00015F   02....       LJMP      ??UI_UpdateLcd_26 & 0xFFFF
   1472                  break;
   1473                case UI_STATE_RESET_TO_FACTORY_NEW:
   1474                  if (uiResetInitiated)
   \                     ??UI_UpdateLcd_9:
   \   000162   90....       MOV       DPTR,#uiResetInitiated
   \   000165   E0           MOVX      A,@DPTR
   \   000166   601B         JZ        ??UI_UpdateLcd_31
   1475                  {
   1476                    line[0] = "Resetting,";
   \   000168   85..82       MOV       DPL,?XSP + 0
   \   00016B   85..83       MOV       DPH,?XSP + 1
   \   00016E   74..         MOV       A,#`?<Constant "Resetting,">` & 0xff
   \   000170   F0           MOVX      @DPTR,A
   \   000171   A3           INC       DPTR
   \   000172   74..         MOV       A,#(`?<Constant "Resetting,">` >> 8) & 0xff
   \   000174   F0           MOVX      @DPTR,A
   1477                    line[1] = "Please wait...";
   \   000175   7402         MOV       A,#0x2
   \   000177   12....       LCALL     ?XSTACK_DISP0_8
   \   00017A   74..         MOV       A,#`?<Constant "Please wait...">` & 0xff
   \   00017C   F0           MOVX      @DPTR,A
   \   00017D   A3           INC       DPTR
   \   00017E   74..         MOV       A,#(`?<Constant "Please wait...">` >> 8) & 0xff
   \   000180   02....       LJMP      ??UI_UpdateLcd_26 & 0xFFFF
   1478                  }
   1479                  else
   1480                  {
   1481                    line[2] = "< RESET TO FN  >";
   \                     ??UI_UpdateLcd_31:
   \   000183   7404         MOV       A,#0x4
   \   000185   12....       LCALL     ?XSTACK_DISP0_8
   \   000188   74..         MOV       A,#`?<Constant "< RESET TO FN  >">` & 0xff
   \   00018A   F0           MOVX      @DPTR,A
   \   00018B   A3           INC       DPTR
   \   00018C   74..         MOV       A,#(`?<Constant "< RESET TO FN  >">` >> 8) & 0xff
   \   00018E   02....       LJMP      ??UI_UpdateLcd_26 & 0xFFFF
   1482                  }
   1483                  break;
   1484                case UI_STATE_DEFAULT:
   1485                  line[0] = uiAppTitleStr;
   \                     ??UI_UpdateLcd_4:
   \   000191   90....       MOV       DPTR,#uiAppTitleStr
   \   000194   12....       LCALL     ?Subroutine24 & 0xFFFF
   \                     ??CrossCallReturnLabel_55:
   \   000197   12....       LCALL     ?Subroutine8 & 0xFFFF
   1486                  line[1] = "hold OK for help";
   \                     ??CrossCallReturnLabel_116:
   \   00019A   7402         MOV       A,#0x2
   \   00019C   12....       LCALL     ?XSTACK_DISP0_8
   \   00019F   74..         MOV       A,#`?<Constant "hold OK for help">` & 0xff
   \   0001A1   F0           MOVX      @DPTR,A
   \   0001A2   A3           INC       DPTR
   \   0001A3   74..         MOV       A,#(`?<Constant "hold OK for help">` >> 8) & 0xff
   \   0001A5   F0           MOVX      @DPTR,A
   1487                  line[2] = "<     HELP     >";
   \   0001A6   7404         MOV       A,#0x4
   \   0001A8   12....       LCALL     ?XSTACK_DISP0_8
   \   0001AB   74..         MOV       A,#`?<Constant "<     HELP     >">` & 0xff
   \   0001AD   F0           MOVX      @DPTR,A
   \   0001AE   A3           INC       DPTR
   \   0001AF   74..         MOV       A,#(`?<Constant "<     HELP     >">` >> 8) & 0xff
   \   0001B1   02....       LJMP      ??UI_UpdateLcd_26 & 0xFFFF
   1488                  break;
   1489                case UI_STATE_STATE_HELP:
   1490          #ifdef HAL_BOARD_CC2538
   1491                  line[0] = "< > to move     ";
   1492                  line[1] = "^ v change value";
   1493          #else
   1494                  line[0] = "\x1B \x1A to move     ";
   \                     ??UI_UpdateLcd_10:
   \   0001B4   85..82       MOV       DPL,?XSP + 0
   \   0001B7   85..83       MOV       DPH,?XSP + 1
   \   0001BA   74..         MOV       A,#`?<Constant "\\033 \\032 to move     ">` & 0xff
   \   0001BC   F0           MOVX      @DPTR,A
   \   0001BD   A3           INC       DPTR
   \   0001BE   74..         MOV       A,#(`?<Constant "\\033 \\032 to move     ">` >> 8) & 0xff
   \   0001C0   F0           MOVX      @DPTR,A
   1495                  line[1] = "\x18 \x19 change value";
   \   0001C1   7402         MOV       A,#0x2
   \   0001C3   12....       LCALL     ?XSTACK_DISP0_8
   \   0001C6   74..         MOV       A,#`?<Constant "\\030 \\031 change value">` & 0xff
   \   0001C8   F0           MOVX      @DPTR,A
   \   0001C9   A3           INC       DPTR
   \   0001CA   74..         MOV       A,#(`?<Constant "\\030 \\031 change value">` >> 8) & 0xff
   \   0001CC   F0           MOVX      @DPTR,A
   1496          #endif        
   1497                  line[2] = "OK to execute   ";
   \   0001CD   7404         MOV       A,#0x4
   \   0001CF   12....       LCALL     ?XSTACK_DISP0_8
   \   0001D2   74..         MOV       A,#`?<Constant "OK to execute   ">` & 0xff
   \   0001D4   F0           MOVX      @DPTR,A
   \   0001D5   A3           INC       DPTR
   \   0001D6   74..         MOV       A,#(`?<Constant "OK to execute   ">` >> 8) & 0xff
   \   0001D8   02....       LJMP      ??UI_UpdateLcd_26 & 0xFFFF
   1498                  break;
   1499                case UI_STATE_COMMISSION:
   1500                  if (uiCommissioningIsInitializing)
   \                     ??UI_UpdateLcd_6:
   \   0001DB   90....       MOV       DPTR,#uiCommissioningIsInitializing
   \   0001DE   E0           MOVX      A,@DPTR
   \   0001DF   601A         JZ        ??UI_UpdateLcd_32
   1501                  {
   1502                    uiConstStrCpy(line[0], "Please wait...  ");
   \   0001E1                ; Setup parameters for call to function osal_memcpy
   \   0001E1   75....       MOV       ?V0,#`?<Constant "Please wait...  ">` & 0xff
   \   0001E4   75....       MOV       ?V1,#(`?<Constant "Please wait...  ">` >> 8) & 0xff
   \   0001E7   78..         MOV       R0,#?V0
   \   0001E9   12....       LCALL     ?PUSH_XSTACK_I_THREE
   \   0001EC   7C11         MOV       R4,#0x11
   \   0001EE   7D00         MOV       R5,#0x0
   \   0001F0   7403         MOV       A,#0x3
   \   0001F2   12....       LCALL     ?XSTACK_DISP0_8
   \   0001F5   12....       LCALL     ?Subroutine15 & 0xFFFF
   1503                  }
   \                     ??CrossCallReturnLabel_18:
   \   0001F8   02....       LJMP      ??UI_UpdateLcd_33 & 0xFFFF
   1504                  else
   1505                  {
   1506                    uiConstStrCpy(line[0], "xx              "); // TL/NF/NS/FB/-- TCHL/FORM/JOIN count/CLOSE
   \                     ??UI_UpdateLcd_32:
   \   0001FB                ; Setup parameters for call to function osal_memcpy
   \   0001FB   75....       MOV       ?V0,#`?<Constant "xx              ">` & 0xff
   \   0001FE   75....       MOV       ?V1,#(`?<Constant "xx              ">` >> 8) & 0xff
   \   000201   78..         MOV       R0,#?V0
   \   000203   12....       LCALL     ?PUSH_XSTACK_I_THREE
   \   000206   7C11         MOV       R4,#0x11
   \   000208   7D00         MOV       R5,#0x0
   \   00020A   7403         MOV       A,#0x3
   \   00020C   12....       LCALL     ?XSTACK_DISP0_8
   \   00020F   12....       LCALL     ?Subroutine15 & 0xFFFF
   \                     ??CrossCallReturnLabel_19:
   \   000212   12....       LCALL     `??osal_memcpy::?relay`; Banked call to: osal_memcpy
   \   000215   7403         MOV       A,#0x3
   \   000217   12....       LCALL     ?DEALLOC_XSTACK8
   1507          
   1508                    osal_memcpy(line[0] + 0, uiCommissioningStateStr, 2);
   \   00021A                ; Setup parameters for call to function osal_memcpy
   \   00021A   90....       MOV       DPTR,#uiCommissioningStateStr
   \   00021D   12....       LCALL     ?Subroutine16 & 0xFFFF
   \                     ??CrossCallReturnLabel_36:
   \   000220   12....       LCALL     ?PUSH_XSTACK_I_THREE
   \   000223   7C02         MOV       R4,#0x2
   \   000225   7D00         MOV       R5,#0x0
   \   000227   7403         MOV       A,#0x3
   \   000229   12....       LCALL     ?XSTACK_DISP0_8
   \   00022C   12....       LCALL     ?Subroutine15 & 0xFFFF
   \                     ??CrossCallReturnLabel_20:
   \   00022F   12....       LCALL     `??osal_memcpy::?relay`; Banked call to: osal_memcpy
   \   000232   7403         MOV       A,#0x3
   \   000234   12....       LCALL     ?DEALLOC_XSTACK8
   1509          
   1510                    if ((uiNwkStateShadow != DEV_END_DEVICE) && (uiNwkStateShadow != DEV_ZB_COORD) && (uiNwkStateShadow != DEV_ROUTER))
   \   000237   85..82       MOV       DPL,?XSP + 0
   \   00023A   85..83       MOV       DPH,?XSP + 1
   \   00023D   E0           MOVX      A,@DPTR
   \   00023E   2403         ADD       A,#0x3
   \   000240   FA           MOV       R2,A
   \   000241   A3           INC       DPTR
   \   000242   E0           MOVX      A,@DPTR
   \   000243   3400         ADDC      A,#0x0
   \   000245   FB           MOV       R3,A
   \   000246   90....       MOV       DPTR,#uiNwkStateShadow
   \   000249   E0           MOVX      A,@DPTR
   \   00024A   6406         XRL       A,#0x6
   \   00024C   601A         JZ        ??UI_UpdateLcd_34
   \   00024E   E0           MOVX      A,@DPTR
   \   00024F   6409         XRL       A,#0x9
   \   000251   6015         JZ        ??UI_UpdateLcd_34
   \   000253   E0           MOVX      A,@DPTR
   \   000254   6407         XRL       A,#0x7
   \   000256   6010         JZ        ??UI_UpdateLcd_34
   1511                    {
   1512                      uiConstStrOver(line[0] + 3, "NotOnNwk");
   \   000258                ; Setup parameters for call to function osal_memcpy
   \   000258   75....       MOV       ?V0,#`?<Constant "NotOnNwk">` & 0xff
   \   00025B   75....       MOV       ?V1,#(`?<Constant "NotOnNwk">` >> 8) & 0xff
   \   00025E   78..         MOV       R0,#?V0
   \   000260   12....       LCALL     ?PUSH_XSTACK_I_THREE
   \   000263   7C08         MOV       R4,#0x8
   \   000265   02....       LJMP      ??UI_UpdateLcd_35 & 0xFFFF
   1513                    }
   1514                    else
   1515                    {
   1516                      if (uiCommissioningNetworkConnrctionStr != NULL)
   \                     ??UI_UpdateLcd_34:
   \   000268   90....       MOV       DPTR,#uiCommissioningNetworkConnrctionStr
   \   00026B   12....       LCALL     ??Subroutine34_0 & 0xFFFF
   \                     ??CrossCallReturnLabel_74:
   \   00026E   602A         JZ        ??UI_UpdateLcd_36
   1517                      {
   1518                        osal_memcpy(line[0] + 3, uiCommissioningNetworkConnrctionStr, 4);
   \   000270                ; Setup parameters for call to function osal_memcpy
   \   000270   90....       MOV       DPTR,#uiCommissioningNetworkConnrctionStr
   \   000273   12....       LCALL     ?Subroutine16 & 0xFFFF
   \                     ??CrossCallReturnLabel_37:
   \   000276   12....       LCALL     ?PUSH_XSTACK_I_THREE
   \   000279   7C04         MOV       R4,#0x4
   \   00027B   7D00         MOV       R5,#0x0
   \   00027D   12....       LCALL     `??osal_memcpy::?relay`; Banked call to: osal_memcpy
   \   000280   7403         MOV       A,#0x3
   \   000282   12....       LCALL     ?DEALLOC_XSTACK8
   1519                        line[0][7] = ' ';
   \   000285   85..82       MOV       DPL,?XSP + 0
   \   000288   85..83       MOV       DPH,?XSP + 1
   \   00028B   12....       LCALL     ?Subroutine31 & 0xFFFF
   1520                      }
   \                     ??CrossCallReturnLabel_77:
   \   00028E   C8           XCH       A,R0
   \   00028F   2407         ADD       A,#0x7
   \   000291   F582         MOV       DPL,A
   \   000293   E4           CLR       A
   \   000294   38           ADDC      A,R0
   \   000295   F583         MOV       DPH,A
   \   000297   7420         MOV       A,#0x20
   \   000299   F0           MOVX      @DPTR,A
   1521          
   1522                      if ((uiNwkStateShadow == DEV_ZB_COORD) || (uiNwkStateShadow == DEV_ROUTER))
   \                     ??UI_UpdateLcd_36:
   \   00029A   90....       MOV       DPTR,#uiNwkStateShadow
   \   00029D   E0           MOVX      A,@DPTR
   \   00029E   6409         XRL       A,#0x9
   \   0002A0   6005         JZ        ??UI_UpdateLcd_37
   \   0002A2   E0           MOVX      A,@DPTR
   \   0002A3   6407         XRL       A,#0x7
   \   0002A5   707E         JNZ       ??UI_UpdateLcd_38
   1523                      {
   1524                        PermitJoinDuration = NLME_GetRemainingPermitJoiningDuration();
   \                     ??UI_UpdateLcd_37:
   \   0002A7                ; Setup parameters for call to function NLME_GetRemainingPermitJoiningDuration
