###############################################################################
#
# IAR C/C++ Compiler V10.10.1.4655 for 8051               16/Apr/2025  21:41:55
# Copyright 2004-2017 IAR Systems AB.
# Standalone license - IAR Embedded Workbench for 8051
#
#    Core               =  plain
#    Code model         =  banked
#    Data model         =  large
#    Calling convention =  xdata reentrant
#    Constant location  =  data_rom
#    Dptr setup         =  1,16
#                          
#    Source file        =  
#        C:\Texas Instruments\Z-Stack 3.0.1 A Git\Z-Stack
#        3.0.1\Components\stack\zdo\ZDApp.c
#    Command line       =  
#        -f C:\Users\NING\AppData\Local\Temp\EWD42C.tmp ("C:\Texas
#        Instruments\Z-Stack 3.0.1 A Git\Z-Stack
#        3.0.1\Components\stack\zdo\ZDApp.c" -D SECURE=1 -D TC_LINKKEY_JOIN -D
#        NV_INIT -D NV_RESTORE -D xPOWER_SAVING -D NWK_AUTO_POLL -D ZTOOL_P1 -D
#        xMT_TASK -D xMT_APP_FUNC -D xMT_SYS_FUNC -D xMT_ZDO_FUNC -D
#        xMT_ZDO_MGMT -D xMT_APP_CNF_FUNC -D LCD_SUPPORTED=DEBUG -D
#        MULTICAST_ENABLED=FALSE -D ZCL_READ -D ZCL_DISCOVER -D ZCL_WRITE -D
#        ZCL_BASIC -D ZCL_IDENTIFY -D ZCL_ON_OFF -D ZCL_GROUPS -D
#        HAL_UART_DMA_RX_MAX=50 -lC "C:\Texas Instruments\Z-Stack 3.0.1 A
#        Git\Z-Stack
#        3.0.1\Projects\zstack\HomeAutomation\SampleSwitch\CC2530DB\EndDeviceEB\List"
#        -lA "C:\Texas Instruments\Z-Stack 3.0.1 A Git\Z-Stack
#        3.0.1\Projects\zstack\HomeAutomation\SampleSwitch\CC2530DB\EndDeviceEB\List"
#        --diag_suppress Pe001,Pa010 -o "C:\Texas Instruments\Z-Stack 3.0.1 A
#        Git\Z-Stack
#        3.0.1\Projects\zstack\HomeAutomation\SampleSwitch\CC2530DB\EndDeviceEB\Obj"
#        -e --debug --core=plain --dptr=16,1 --data_model=large
#        --code_model=banked --calling_convention=xdata_reentrant
#        --place_constants=data_rom --nr_virtual_regs 16 -f "C:\Texas
#        Instruments\Z-Stack 3.0.1 A Git\Z-Stack
#        3.0.1\Projects\zstack\HomeAutomation\SampleSwitch\CC2530DB\..\..\..\Tools\CC2530DB\f8wEndev.cfg"
#        (-DCPU32MHZ -DROOT=__near_func -DMAC_CFG_TX_DATA_MAX=3
#        -DMAC_CFG_TX_MAX=6 -DMAC_CFG_RX_MAX=3) -f "C:\Texas
#        Instruments\Z-Stack 3.0.1 A Git\Z-Stack
#        3.0.1\Projects\zstack\HomeAutomation\SampleSwitch\CC2530DB\..\..\..\Tools\CC2530DB\f8wConfig.cfg"
#        (-DZIGBEEPRO -DSECURE=1 -DZG_SECURE_DYNAMIC=0 -DREFLECTOR
#        -DDEFAULT_CHANLIST=0x00000800 -DZDAPP_CONFIG_PAN_ID=0xFFFF
#        -DNWK_START_DELAY=100 -DEXTENDED_JOINING_RANDOM_MASK=0x007F
#        -DBEACON_REQUEST_DELAY=100 -DBEACON_REQ_DELAY_MASK=0x00FF
#        -DLINK_STATUS_JITTER_MASK=0x007F -DROUTE_EXPIRY_TIME=30
#        -DAPSC_ACK_WAIT_DURATION_POLLED=3000 -DNWK_INDIRECT_MSG_TIMEOUT=7
#        -DMAX_RREQ_ENTRIES=8 -DAPSC_MAX_FRAME_RETRIES=3
#        -DNWK_MAX_DATA_RETRIES=2 -DMAX_POLL_FAILURE_RETRIES=2 -DMAX_BCAST=9
#        -DAPS_MAX_GROUPS=16 -DMAX_RTG_ENTRIES=40 -DNWK_MAX_BINDING_ENTRIES=4
#        -DMAX_BINDING_CLUSTER_IDS=4 -DDEFAULT_KEY={0} -DMAC_MAX_FRAME_SIZE=116
#        -DZDNWKMGR_MIN_TRANSMISSIONS=20 "-DCONST=const __code"
#        -DGENERIC=__generic -DRFD_RCVC_ALWAYS_ON=FALSE -DPOLL_RATE=1000
#        -DQUEUED_POLL_RATE=100 -DRESPONSE_POLL_RATE=100 -DREJOIN_POLL_RATE=440
#        -DREJOIN_BACKOFF=900000 -DREJOIN_SCAN=900000 -DENABLE_LED4_DISABLE_S1)
#        -f "C:\Texas Instruments\Z-Stack 3.0.1 A Git\Z-Stack
#        3.0.1\Projects\zstack\HomeAutomation\SampleSwitch\CC2530DB\..\..\..\Tools\CC2530DB\f8wZCL.cfg"
#        -I "C:\Texas Instruments\Z-Stack 3.0.1 A Git\Z-Stack
#        3.0.1\Projects\zstack\HomeAutomation\SampleSwitch\CC2530DB\" -I
#        "C:\Texas Instruments\Z-Stack 3.0.1 A Git\Z-Stack
#        3.0.1\Projects\zstack\HomeAutomation\SampleSwitch\CC2530DB\..\Source\"
#        -I "C:\Texas Instruments\Z-Stack 3.0.1 A Git\Z-Stack
#        3.0.1\Projects\zstack\HomeAutomation\SampleSwitch\CC2530DB\..\..\Source\"
#        -I "C:\Texas Instruments\Z-Stack 3.0.1 A Git\Z-Stack
#        3.0.1\Projects\zstack\HomeAutomation\SampleSwitch\CC2530DB\..\..\..\ZMain\TI2530DB\"
#        -I "C:\Texas Instruments\Z-Stack 3.0.1 A Git\Z-Stack
#        3.0.1\Projects\zstack\HomeAutomation\SampleSwitch\CC2530DB\..\..\..\..\..\Components\hal\include\"
#        -I "C:\Texas Instruments\Z-Stack 3.0.1 A Git\Z-Stack
#        3.0.1\Projects\zstack\HomeAutomation\SampleSwitch\CC2530DB\..\..\..\..\..\Components\hal\target\CC2530EB\"
#        -I "C:\Texas Instruments\Z-Stack 3.0.1 A Git\Z-Stack
#        3.0.1\Projects\zstack\HomeAutomation\SampleSwitch\CC2530DB\..\..\..\..\..\Components\mac\include\"
#        -I "C:\Texas Instruments\Z-Stack 3.0.1 A Git\Z-Stack
#        3.0.1\Projects\zstack\HomeAutomation\SampleSwitch\CC2530DB\..\..\..\..\..\Components\mac\high_level\"
#        -I "C:\Texas Instruments\Z-Stack 3.0.1 A Git\Z-Stack
#        3.0.1\Projects\zstack\HomeAutomation\SampleSwitch\CC2530DB\..\..\..\..\..\Components\mac\low_level\srf04\"
#        -I "C:\Texas Instruments\Z-Stack 3.0.1 A Git\Z-Stack
#        3.0.1\Projects\zstack\HomeAutomation\SampleSwitch\CC2530DB\..\..\..\..\..\Components\mac\low_level\srf04\single_chip\"
#        -I "C:\Texas Instruments\Z-Stack 3.0.1 A Git\Z-Stack
#        3.0.1\Projects\zstack\HomeAutomation\SampleSwitch\CC2530DB\..\..\..\..\..\Components\mt\"
#        -I "C:\Texas Instruments\Z-Stack 3.0.1 A Git\Z-Stack
#        3.0.1\Projects\zstack\HomeAutomation\SampleSwitch\CC2530DB\..\..\..\..\..\Components\osal\include\"
#        -I "C:\Texas Instruments\Z-Stack 3.0.1 A Git\Z-Stack
#        3.0.1\Projects\zstack\HomeAutomation\SampleSwitch\CC2530DB\..\..\..\..\..\Components\services\saddr\"
#        -I "C:\Texas Instruments\Z-Stack 3.0.1 A Git\Z-Stack
#        3.0.1\Projects\zstack\HomeAutomation\SampleSwitch\CC2530DB\..\..\..\..\..\Components\services\sdata\"
#        -I "C:\Texas Instruments\Z-Stack 3.0.1 A Git\Z-Stack
#        3.0.1\Projects\zstack\HomeAutomation\SampleSwitch\CC2530DB\..\..\..\..\..\Components\stack\af\"
#        -I "C:\Texas Instruments\Z-Stack 3.0.1 A Git\Z-Stack
#        3.0.1\Projects\zstack\HomeAutomation\SampleSwitch\CC2530DB\..\..\..\..\..\Components\stack\bdb\"
#        -I "C:\Texas Instruments\Z-Stack 3.0.1 A Git\Z-Stack
#        3.0.1\Projects\zstack\HomeAutomation\SampleSwitch\CC2530DB\..\..\..\..\..\Components\stack\gp\"
#        -I "C:\Texas Instruments\Z-Stack 3.0.1 A Git\Z-Stack
#        3.0.1\Projects\zstack\HomeAutomation\SampleSwitch\CC2530DB\..\..\..\..\..\Components\stack\nwk\"
#        -I "C:\Texas Instruments\Z-Stack 3.0.1 A Git\Z-Stack
#        3.0.1\Projects\zstack\HomeAutomation\SampleSwitch\CC2530DB\..\..\..\..\..\Components\stack\sapi\"
#        -I "C:\Texas Instruments\Z-Stack 3.0.1 A Git\Z-Stack
#        3.0.1\Projects\zstack\HomeAutomation\SampleSwitch\CC2530DB\..\..\..\..\..\Components\stack\sec\"
#        -I "C:\Texas Instruments\Z-Stack 3.0.1 A Git\Z-Stack
#        3.0.1\Projects\zstack\HomeAutomation\SampleSwitch\CC2530DB\..\..\..\..\..\Components\stack\sys\"
#        -I "C:\Texas Instruments\Z-Stack 3.0.1 A Git\Z-Stack
#        3.0.1\Projects\zstack\HomeAutomation\SampleSwitch\CC2530DB\..\..\..\..\..\Components\stack\zcl\"
#        -I "C:\Texas Instruments\Z-Stack 3.0.1 A Git\Z-Stack
#        3.0.1\Projects\zstack\HomeAutomation\SampleSwitch\CC2530DB\..\..\..\..\..\Components\stack\zdo\"
#        -I "C:\Texas Instruments\Z-Stack 3.0.1 A Git\Z-Stack
#        3.0.1\Projects\zstack\HomeAutomation\SampleSwitch\CC2530DB\..\..\..\..\..\Components\zmac\"
#        -I "C:\Texas Instruments\Z-Stack 3.0.1 A Git\Z-Stack
#        3.0.1\Projects\zstack\HomeAutomation\SampleSwitch\CC2530DB\..\..\..\..\..\Components\zmac\f8w\"
#        -I "C:\Texas Instruments\Z-Stack 3.0.1 A Git\Z-Stack
#        3.0.1\Projects\zstack\HomeAutomation\SampleSwitch\CC2530DB\MY_Hardware\"
#        -Ohz --require_prototypes)
#    Locale             =  Chinese (Simplified)_China.936
#    List file          =  
#        C:\Texas Instruments\Z-Stack 3.0.1 A Git\Z-Stack
#        3.0.1\Projects\zstack\HomeAutomation\SampleSwitch\CC2530DB\EndDeviceEB\List\ZDApp.lst
#    Object file        =  
#        C:\Texas Instruments\Z-Stack 3.0.1 A Git\Z-Stack
#        3.0.1\Projects\zstack\HomeAutomation\SampleSwitch\CC2530DB\EndDeviceEB\Obj\ZDApp.r51
#
###############################################################################

C:\Texas Instruments\Z-Stack 3.0.1 A Git\Z-Stack 3.0.1\Components\stack\zdo\ZDApp.c
      1          /**************************************************************************************************
      2            Filename:       ZDApp.c
      3            Revised:        $Date: 2015-10-06 12:04:24 -0700 (Tue, 06 Oct 2015) $
      4            Revision:       $Revision: 44520 $
      5          
      6            Description:    This file contains the interface to the Zigbee Device Application. This is the
      7                            Application part that the user can change. This also contains the Task functions.
      8          
      9          
     10            Copyright 2004-2015 Texas Instruments Incorporated. All rights reserved.
     11          
     12            IMPORTANT: Your use of this Software is limited to those specific rights
     13            granted under the terms of a software license agreement between the user
     14            who downloaded the software, his/her employer (which must be your employer)
     15            and Texas Instruments Incorporated (the "License"). You may not use this
     16            Software unless you agree to abide by the terms of the License. The License
     17            limits your use, and you acknowledge, that the Software may not be modified,
     18            copied or distributed unless embedded on a Texas Instruments microcontroller
     19            or used solely and exclusively in conjunction with a Texas Instruments radio
     20            frequency transceiver, which is integrated into your product. Other than for
     21            the foregoing purpose, you may not use, reproduce, copy, prepare derivative
     22            works of, modify, distribute, perform, display or sell this Software and/or
     23            its documentation for any purpose.
     24          
     25            YOU FURTHER ACKNOWLEDGE AND AGREE THAT THE SOFTWARE AND DOCUMENTATION ARE
     26            PROVIDED "AS IS" WITHOUT WARRANTY OF ANY KIND, EITHER EXPRESS OR IMPLIED,
     27            INCLUDING WITHOUT LIMITATION, ANY WARRANTY OF MERCHANTABILITY, TITLE,
     28            NON-INFRINGEMENT AND FITNESS FOR A PARTICULAR PURPOSE. IN NO EVENT SHALL
     29            TEXAS INSTRUMENTS OR ITS LICENSORS BE LIABLE OR OBLIGATED UNDER CONTRACT,
     30            NEGLIGENCE, STRICT LIABILITY, CONTRIBUTION, BREACH OF WARRANTY, OR OTHER
     31            LEGAL EQUITABLE THEORY ANY DIRECT OR INDIRECT DAMAGES OR EXPENSES
     32            INCLUDING BUT NOT LIMITED TO ANY INCIDENTAL, SPECIAL, INDIRECT, PUNITIVE
     33            OR CONSEQUENTIAL DAMAGES, LOST PROFITS OR LOST DATA, COST OF PROCUREMENT
     34            OF SUBSTITUTE GOODS, TECHNOLOGY, SERVICES, OR ANY CLAIMS BY THIRD PARTIES
     35            (INCLUDING BUT NOT LIMITED TO ANY DEFENSE THEREOF), OR OTHER SIMILAR COSTS.
     36          
     37            Should you have any questions regarding your right to use this Software,
     38            contact Texas Instruments Incorporated at www.TI.com.
     39          **************************************************************************************************/
     40          
     41          /*********************************************************************
     42           * INCLUDES
     43           */
     44          
     45          #include "ZComDef.h"
     46          #include "ZMAC.h"
     47          #include "OSAL.h"
     48          #include "OSAL_Tasks.h"
     49          #include "OSAL_PwrMgr.h"
     50          #include "OSAL_Nv.h"
     51          #include "AF.h"
     52          #include "APSMEDE.h"
     53          #include "NLMEDE.h"
     54          #include "AddrMgr.h"
     55          #include "ZDProfile.h"
     56          #include "ZDObject.h"
     57          #include "ZDConfig.h"
     58          #include "ZDSecMgr.h"
     59          #include "ZDApp.h"
     60          #include "DebugTrace.h"
     61          #include "nwk_util.h"
     62          #include "OnBoard.h"
     63          #include "ZGlobals.h"
     64          #include "ZDNwkMgr.h"
     65          #include "rtg.h"
     66             
     67          #if !defined (DISABLE_GREENPOWER_BASIC_PROXY) && (ZG_BUILD_RTR_TYPE)
     68          #include "gp_common.h"
     69          #endif
     70             
     71          #include "bdb.h"
     72          #include "bdb_interface.h"
     73          
     74          #include "ssp.h"
     75          
     76          /* HAL */
     77          #include "hal_led.h"
     78          #include "hal_lcd.h"
     79          #include "hal_key.h"
     80          
     81          #if defined( MT_MAC_FUNC ) || defined( MT_MAC_CB_FUNC )
     82            #error "ERROR! MT_MAC functionalities should be disabled on ZDO devices"
     83          #endif
     84          
     85          /*********************************************************************
     86           * CONSTANTS
     87           */
     88          
     89          #if !defined( NWK_START_DELAY )
     90            #define NWK_START_DELAY             100   // in milliseconds
     91          #endif
     92          
     93          #if !defined( LEAVE_RESET_DELAY )
     94            #define LEAVE_RESET_DELAY           5000  // in milliseconds
     95          #endif
     96          
     97          #if !defined( EXTENDED_JOINING_RANDOM_MASK )
     98            #define EXTENDED_JOINING_RANDOM_MASK 0x007F
     99          #endif
    100          
    101          #if !defined( BEACON_REQUEST_DELAY )
    102            #define BEACON_REQUEST_DELAY        100   // in milliseconds
    103          #endif
    104          
    105          #if !defined( BEACON_REQ_DELAY_MASK )
    106            #define BEACON_REQ_DELAY_MASK       0x007F
    107          #endif
    108          
    109          #define MAX_RESUME_RETRY            3
    110          
    111          #define MAX_DEVICE_UNAUTH_TIMEOUT   10000  // 10 seconds
    112          
    113          // Beacon Order Settings (see NLMEDE.h)
    114          #define DEFAULT_BEACON_ORDER        BEACON_ORDER_NO_BEACONS
    115          #define DEFAULT_SUPERFRAME_ORDER    DEFAULT_BEACON_ORDER
    116          
    117          // Leave control bits
    118          #define ZDAPP_LEAVE_CTRL_INIT 0
    119          #define ZDAPP_LEAVE_CTRL_SET  1
    120          #define ZDAPP_LEAVE_CTRL_RA   2
    121          
    122          // Address Manager Stub Implementation
    123          #define ZDApp_NwkWriteNVRequest AddrMgrWriteNVRequest
    124          
    125          
    126          #if !defined ZDO_NV_SAVE_RFDs
    127          #define ZDO_NV_SAVE_RFDs  TRUE
    128          #endif
    129          
    130          // Delay time before updating NWK NV data to force fewer writes during high activity.
    131          #if ZDO_NV_SAVE_RFDs
    132          #define ZDAPP_UPDATE_NWK_NV_TIME 700
    133          #else
    134          #define ZDAPP_UPDATE_NWK_NV_TIME 65000
    135          #endif
    136          
    137          // Timeout value to process New Devices
    138          #define ZDAPP_NEW_DEVICE_TIME     600   // in ms
    139          
    140          
    141          //ZDP_BIND_SKIP_VALIDATION, redefined as ZDP_BIND_VALIDATION
    142          #if defined ( ZDP_BIND_VALIDATION )
    143          #if !defined MAX_PENDING_BIND_REQ
    144          #define MAX_PENDING_BIND_REQ 3
    145          #endif
    146          #endif
    147          
    148          #ifdef LEGACY_ZDO_LEDS
    149          #define zdoHalLedSet HalLedSet
    150          #else
    151          #define zdoHalLedSet(...)
    152          #endif
    153          
    154          /******************************************************************************
    155           * TYPEDEFS
    156           */
    157          typedef struct
    158          {
    159            void   *next;
    160            uint16 shortAddr;
    161            uint16 timeDelta;
    162          } ZDAppNewDevice_t;
    163          
    164          /*********************************************************************
    165           * GLOBAL VARIABLES
    166           */
    167          
    168          #if defined( LCD_SUPPORTED )

   \                                 In  segment XDATA_Z, align 1, keep-with-next
    169            uint8 MatchRsps = 0;
   \                     MatchRsps:
   \   000000                DS 1
   \   000001                REQUIRE __INIT_XDATA_Z
    170          #endif
    171          

   \                                 In  segment XDATA_Z, align 1, keep-with-next
    172          zAddrType_t ZDAppNwkAddr;
   \                     ZDAppNwkAddr:
   \   000000                DS 9
   \   000009                REQUIRE __INIT_XDATA_Z
    173          

   \                                 In  segment XDATA_Z, align 1, keep-with-next
    174          uint8 zdappMgmtNwkDiscRspTransSeq;
   \                     zdappMgmtNwkDiscRspTransSeq:
   \   000000                DS 1
   \   000001                REQUIRE __INIT_XDATA_Z

   \                                 In  segment XDATA_Z, align 1, keep-with-next
    175          uint8 zdappMgmtNwkDiscReqInProgress = FALSE;
   \                     zdappMgmtNwkDiscReqInProgress:
   \   000000                DS 1
   \   000001                REQUIRE __INIT_XDATA_Z

   \                                 In  segment XDATA_Z, align 1, keep-with-next
    176          zAddrType_t zdappMgmtNwkDiscRspAddr;
   \                     zdappMgmtNwkDiscRspAddr:
   \   000000                DS 9
   \   000009                REQUIRE __INIT_XDATA_Z

   \                                 In  segment XDATA_Z, align 1, keep-with-next
    177          uint8 zdappMgmtNwkDiscStartIndex;
   \                     zdappMgmtNwkDiscStartIndex:
   \   000000                DS 1
   \   000001                REQUIRE __INIT_XDATA_Z

   \                                 In  segment XDATA_Z, align 1, keep-with-next
    178          uint8 zdappMgmtSavedNwkState;
   \                     zdappMgmtSavedNwkState:
   \   000000                DS 1
   \   000001                REQUIRE __INIT_XDATA_Z
    179          

   \                                 In  segment XDATA_I, align 1, keep-with-next
    180          uint8 continueJoining = TRUE;
   \                     continueJoining:
   \   000000                DS 1
   \   000001                REQUIRE `?<Initializer for continueJoining>`
   \   000001                REQUIRE __INIT_XDATA_I
    181          

   \                                 In  segment XDATA_Z, align 1, keep-with-next
    182          uint8  _tmpRejoinState;
   \                     _tmpRejoinState:
   \   000000                DS 1
   \   000001                REQUIRE __INIT_XDATA_Z
    183          
    184          // The extended PanID used in ZDO layer for rejoin.

   \                                 In  segment XDATA_Z, align 1, keep-with-next
    185          uint8 ZDO_UseExtendedPANID[Z_EXTADDR_LEN];
   \                     ZDO_UseExtendedPANID:
   \   000000                DS 8
   \   000008                REQUIRE __INIT_XDATA_Z
    186          

   \                                 In  segment XDATA_Z, align 1, keep-with-next
    187          pfnZdoCb zdoCBFunc[MAX_ZDO_CB_FUNC];
   \                     zdoCBFunc:
   \   000000                DS 18
   \   000012                REQUIRE __INIT_XDATA_Z
    188          
    189          #if defined ( ZDP_BIND_VALIDATION )
    190          ZDO_PendingBindReq_t *ZDAppPendingBindReq = NULL;
    191          #endif
    192          

   \                                 In  segment XDATA_Z, align 1, keep-with-next
    193          uint32 runtimeChannel;
   \                     runtimeChannel:
   \   000000                DS 4
   \   000004                REQUIRE __INIT_XDATA_Z

   \                                 In  segment XDATA_Z, align 1, keep-with-next
    194          uint8 FrameCounterUpdated = FALSE;
   \                     FrameCounterUpdated:
   \   000000                DS 1
   \   000001                REQUIRE __INIT_XDATA_Z
    195          /*********************************************************************
    196           * EXTERNAL VARIABLES
    197           */
    198          
    199          extern bool    requestNewTrustCenterLinkKey;
    200          extern uint32  requestLinkKeyTimeout;
    201          extern CONST   uint8 gMAX_NWK_SEC_MATERIAL_TABLE_ENTRIES;
    202          /*********************************************************************
    203           * EXTERNAL FUNCTIONS
    204           */
    205          
    206          /*********************************************************************
    207           * LOCAL FUNCTIONS
    208           */
    209          void ZDApp_NetworkStartEvt( void );
    210          void ZDApp_DeviceAuthEvt( void );
    211          void ZDApp_SaveNetworkStateEvt( void );
    212          
    213          uint8 ZDApp_ReadNetworkRestoreState( void );
    214          uint8 ZDApp_RestoreNetworkState( void );
    215          void ZDAppDetermineDeviceType( void );
    216          void ZDApp_InitUserDesc( void );
    217          void ZDAppCheckForHoldKey( void );
    218          void ZDApp_ProcessOSALMsg( osal_event_hdr_t *msgPtr );
    219          void ZDApp_ProcessNetworkJoin( void );
    220          void ZDApp_SetCoordAddress( uint8 endPoint, uint8 dstEP );
    221          uint8 ZDApp_RestoreNwkKey( uint8 incrFrmCnt );
    222          networkDesc_t* ZDApp_NwkDescListProcessing(void);
    223          
    224          void ZDApp_SecInit( uint8 state );
    225          UINT16 ZDApp_ProcessSecEvent( uint8 task_id, UINT16 events );
    226          void ZDApp_ProcessSecMsg( osal_event_hdr_t *msgPtr );
    227          
    228          void ZDApp_SendMsg( uint8 taskID, uint8 cmd, uint8 len, uint8 *buf );
    229          
    230          void ZDApp_ResetTimerStart( uint16 delay );
    231          void ZDApp_ResetTimerCancel( void );
    232          void ZDApp_LeaveCtrlInit( void );
    233          void ZDApp_LeaveCtrlSet( uint8 ra );
    234          uint8 ZDApp_LeaveCtrlBypass( void );
    235          void ZDApp_LeaveCtrlStartup( devStates_t* state, uint16* startDelay );
    236          void ZDApp_LeaveUpdate( uint16 nwkAddr, uint8* extAddr, uint8 removeChildren, uint8 rejoin );
    237          void ZDApp_NodeProfileSync( uint8 stackProfile );
    238          void ZDApp_ProcessMsgCBs( zdoIncomingMsg_t *inMsg );
    239          void ZDApp_RegisterCBs( void );
    240          void ZDApp_InitZdoCBFunc(void);
    241          #if defined ( ZDP_BIND_VALIDATION )
    242          void ZDApp_SetPendingBindDefault( ZDO_PendingBindReq_t *pendBindReq );
    243          void ZDApp_InitPendingBind( void );
    244          void ZDApp_ProcessPendingBindReq( uint8 *extAddr );
    245          void ZDApp_AgeOutPendingBindEntry( void );
    246          #endif
    247          
    248          void ZDApp_SetParentAnnceTimer( void );
    249          void ZDApp_StoreNwkSecMaterial(void);
    250          
    251          /*********************************************************************
    252           * LOCAL VARIABLES
    253           */
    254          

   \                                 In  segment XDATA_Z, align 1, keep-with-next
    255          uint8 ZDAppTaskID;
   \                     ZDAppTaskID:
   \   000000                DS 1
   \   000001                REQUIRE __INIT_XDATA_Z

   \                                 In  segment XDATA_Z, align 1, keep-with-next
    256          uint8 nwkStatus;
   \                     nwkStatus:
   \   000000                DS 1
   \   000001                REQUIRE __INIT_XDATA_Z

   \                                 In  segment XDATA_Z, align 1, keep-with-next
    257          endPointDesc_t *ZDApp_AutoFindMode_epDesc = (endPointDesc_t *)NULL;
   \                     ZDApp_AutoFindMode_epDesc:
   \   000000                DS 2
   \   000002                REQUIRE __INIT_XDATA_Z

   \                                 In  segment XDATA_Z, align 1, keep-with-next
    258          uint8 ZDApp_LeaveCtrl;
   \                     ZDApp_LeaveCtrl:
   \   000000                DS 1
   \   000001                REQUIRE __INIT_XDATA_Z
    259          

   \                                 In  segment XDATA_Z, align 1, keep-with-next
    260          devStates_t devState = DEV_HOLD;
   \                     devState:
   \   000000                DS 1
   \   000001                REQUIRE __INIT_XDATA_Z
    261          
    262          // previous rejoin state

   \                                 In  segment XDATA_I, align 1, keep-with-next
    263            devStates_t prevDevState = DEV_NWK_SEC_REJOIN_CURR_CHANNEL;
   \                     prevDevState:
   \   000000                DS 1
   \   000001                REQUIRE `?<Initializer for prevDevState>`
   \   000001                REQUIRE __INIT_XDATA_I
    264          
    265          #if ( ZG_BUILD_RTRONLY_TYPE ) || ( ZG_BUILD_ENDDEVICE_TYPE )

   \                                 In  segment XDATA_Z, align 1, keep-with-next
    266            devStartModes_t devStartMode = MODE_JOIN;     // Assume joining
   \                     devStartMode:
   \   000000                DS 1
   \   000001                REQUIRE __INIT_XDATA_Z
    267            //devStartModes_t devStartMode = MODE_RESUME; // if already "directly joined"
    268                                  // to parent. Set to make the device do an Orphan scan.
    269          #else
    270            // Set the default to coodinator
    271            devStartModes_t devStartMode = MODE_HARD;
    272          #endif
    273          

   \                                 In  segment XDATA_Z, align 1, keep-with-next
    274          uint8 retryCnt = 0;
   \                     retryCnt:
   \   000000                DS 1
   \   000001                REQUIRE __INIT_XDATA_Z
    275          

   \                                 In  segment XDATA_I, align 1, keep-with-next
    276          endPointDesc_t ZDApp_epDesc =
   \                     ZDApp_epDesc:
   \   000000                DS 7
   \   000007                REQUIRE `?<Initializer for ZDApp_epDesc>`
   \   000007                REQUIRE __INIT_XDATA_I
    277          {
    278            ZDO_EP,
    279            0,
    280            &ZDAppTaskID,
    281            (SimpleDescriptionFormat_t *)NULL,  // No Simple description for ZDO
    282            (afNetworkLatencyReq_t)0            // No Network Latency req
    283          };
    284          

   \                                 In  segment XDATA_I, align 1, keep-with-next
    285          uint32 ZDApp_SavedPollRate = POLL_RATE;
   \                     ZDApp_SavedPollRate:
   \   000000                DS 4
   \   000004                REQUIRE `?<Initializer for ZDApp_SavedPollRate>`
   \   000004                REQUIRE __INIT_XDATA_I
    286          

   \                                 In  segment XDATA_Z, align 1, keep-with-next
    287          ZDAppNewDevice_t *ZDApp_NewDeviceList = NULL;
   \                     ZDApp_NewDeviceList:
   \   000000                DS 2
   \   000002                REQUIRE __INIT_XDATA_Z
    288          
    289          /* "Hold Key" status saved during ZDAppCheckForHoldKey() */

   \                                 In  segment XDATA_Z, align 1, keep-with-next
    290          static uint8 zdappHoldKeys;
   \                     zdappHoldKeys:
   \   000000                DS 1
   \   000001                REQUIRE __INIT_XDATA_Z
    291          
    292          /*********************************************************************
    293           * @fn      ZDApp_Init
    294           *
    295           * @brief   ZDApp Initialization function.
    296           *
    297           * @param   task_id - ZDApp Task ID
    298           *
    299           * @return  None
    300           */

   \                                 In  segment BANKED_CODE, align 1, keep-with-next
    301          void ZDApp_Init( uint8 task_id )
   \                     ZDApp_Init:
    302          {
   \   000000   74F7         MOV       A,#-0x9
   \   000002   12....       LCALL     ?BANKED_ENTER_XDATA
   \   000005                ; Saved register size: 9
   \   000005                ; Auto size: 0
   \   000005   E9           MOV       A,R1
    303            // Save the task ID
    304            ZDAppTaskID = task_id;
   \   000006   90....       MOV       DPTR,#ZDAppTaskID
   \   000009   F0           MOVX      @DPTR,A
    305          
    306            // Initialize the ZDO global device short address storage
    307            ZDAppNwkAddr.addrMode = Addr16Bit;
   \   00000A   90....       MOV       DPTR,#ZDAppNwkAddr + 8
   \   00000D   7402         MOV       A,#0x2
   \   00000F   F0           MOVX      @DPTR,A
    308            ZDAppNwkAddr.addr.shortAddr = INVALID_NODE_ADDR;
   \   000010   90....       MOV       DPTR,#ZDAppNwkAddr
   \   000013   74FE         MOV       A,#-0x2
   \   000015   F0           MOVX      @DPTR,A
   \   000016   A3           INC       DPTR
   \   000017   04           INC       A
   \   000018   F0           MOVX      @DPTR,A
    309            (void)NLME_GetExtAddr();  // Load the saveExtAddr pointer.
   \   000019                ; Setup parameters for call to function NLME_GetExtAddr
   \   000019   12....       LCALL     `??NLME_GetExtAddr::?relay`; Banked call to: NLME_GetExtAddr
    310          
    311            // Initialize ZDO items and setup the device - type of device to create.
    312            ZDO_Init();
   \   00001C                ; Setup parameters for call to function ZDO_Init
   \   00001C   12....       LCALL     `??ZDO_Init::?relay`; Banked call to: ZDO_Init
    313          
    314            // Register the endpoint description with the AF
    315            // This task doesn't have a Simple description, but we still need
    316            // to register the endpoint.
    317            afRegister( (endPointDesc_t *)&ZDApp_epDesc );
   \   00001F                ; Setup parameters for call to function afRegister
   \   00001F   7A..         MOV       R2,#ZDApp_epDesc & 0xff
   \   000021   7B..         MOV       R3,#(ZDApp_epDesc >> 8) & 0xff
   \   000023   12....       LCALL     `??afRegister::?relay`; Banked call to: afRegister
    318          
    319          #if defined( ZDO_USERDESC_RESPONSE )
    320            ZDApp_InitUserDesc();
    321          #endif // ZDO_USERDESC_RESPONSE
    322          
    323            // Initialize the ZDO callback function pointers zdoCBFunc[]
    324            ZDApp_InitZdoCBFunc();
   \   000026                ; Setup parameters for call to function ZDApp_InitZdoCBFunc
   \   000026   12....       LCALL     `??ZDApp_InitZdoCBFunc::?relay`; Banked call to: ZDApp_InitZdoCBFunc
    325          
    326            ZDApp_RegisterCBs();
   \   000029                ; Setup parameters for call to function ZDApp_RegisterCBs
   \   000029   12....       LCALL     `??ZDApp_RegisterCBs::?relay`; Banked call to: ZDApp_RegisterCBs
    327          
    328          #if defined ( ZDP_BIND_VALIDATION )
    329          #if defined ( REFLECTOR )
    330            ZDApp_InitPendingBind();
    331          #endif
    332          #endif
    333          } /* ZDApp_Init() */
   \   00002C   02....       LJMP      ??Subroutine34_0 & 0xFFFF

   \                                 In  segment BANKED_CODE, align 1, keep-with-next
   \                     ??Subroutine34_0:
   \   000000   7F01         MOV       R7,#0x1
   \   000002   02....       LJMP      ?BANKED_LEAVE_XDATA
    334          
    335          /*********************************************************************
    336           * @fn          ZDApp_SecInit
    337           *
    338           * @brief       ZDApp initialize security.
    339           *
    340           * @param       state - device initialization state
    341           *
    342           * @return      none
    343           */

   \                                 In  segment BANKED_CODE, align 1, keep-with-next
    344          void ZDApp_SecInit( uint8 state )
   \                     ZDApp_SecInit:
    345          {
   \   000000                REQUIRE ?V0
   \   000000   74F7         MOV       A,#-0x9
   \   000002   12....       LCALL     ?BANKED_ENTER_XDATA
   \   000005                ; Saved register size: 9
   \   000005                ; Auto size: 16
   \   000005   74F0         MOV       A,#-0x10
   \   000007   12....       LCALL     ?ALLOC_XSTACK8
   \   00000A   89..         MOV       ?V0,R1
    346            uint8 zgPreConfigKey[SEC_KEY_LEN];
    347          
    348            if ( ZG_SECURE_ENABLED && ZG_BUILD_COORDINATOR_TYPE && ZG_DEVICE_COORDINATOR_TYPE )
    349            {
    350              // Set the Trust Center bit
    351              ZDO_Config_Node_Descriptor.ServerMask |= PRIM_TRUST_CENTER;
    352            }
    353          
    354            // Initialize ZigBee Device Security Manager
    355            ZDSecMgrInit(state);
   \   00000C                ; Setup parameters for call to function ZDSecMgrInit
   \   00000C   12....       LCALL     `??ZDSecMgrInit::?relay`; Banked call to: ZDSecMgrInit
    356          
    357            if ( ZG_SECURE_ENABLED )
    358            {
    359              if ( state != ZDO_INITDEV_RESTORED_NETWORK_STATE )
   \   00000F   E5..         MOV       A,?V0
   \   000011   603A         JZ        ??ZDApp_SecInit_0
    360              {
    361                if( _NIB.nwkKeyLoaded == FALSE )
   \   000013   90....       MOV       DPTR,#_NIB + 61
   \   000016   E0           MOVX      A,@DPTR
   \   000017   7034         JNZ       ??ZDApp_SecInit_0
    362                {
    363                  if ( ( ZG_BUILD_COORDINATOR_TYPE && ZG_DEVICE_COORDINATOR_TYPE          ) ||
    364                       ( ( zgSecurityMode == ZG_SECURITY_RESIDENTIAL ) && zgPreConfigKeys )    )
   \   000019   90....       MOV       DPTR,#zgSecurityMode
   \   00001C   E0           MOVX      A,@DPTR
   \   00001D   6401         XRL       A,#0x1
   \   00001F   702C         JNZ       ??ZDApp_SecInit_0
   \   000021   90....       MOV       DPTR,#zgPreConfigKeys
   \   000024   E0           MOVX      A,@DPTR
   \   000025   6026         JZ        ??ZDApp_SecInit_0
    365                  {
    366                      ZDSecMgrReadKeyFromNv(ZCD_NV_PRECFGKEY, zgPreConfigKey);
   \   000027                ; Setup parameters for call to function ZDSecMgrReadKeyFromNv
   \   000027   AC..         MOV       R4,?XSP + 0
   \   000029   AD..         MOV       R5,?XSP + 1
   \   00002B   7A62         MOV       R2,#0x62
   \   00002D   7B00         MOV       R3,#0x0
   \   00002F   12....       LCALL     `??ZDSecMgrReadKeyFromNv::?relay`; Banked call to: ZDSecMgrReadKeyFromNv
    367                      SSP_UpdateNwkKey( zgPreConfigKey, 0);
   \   000032                ; Setup parameters for call to function SSP_UpdateNwkKey
   \   000032   7900         MOV       R1,#0x0
   \   000034   AA..         MOV       R2,?XSP + 0
   \   000036   AB..         MOV       R3,?XSP + 1
   \   000038   12....       LCALL     `??SSP_UpdateNwkKey::?relay`; Banked call to: SSP_UpdateNwkKey
    368                      SSP_SwitchNwkKey( 0 );
   \   00003B                ; Setup parameters for call to function SSP_SwitchNwkKey
   \   00003B   7900         MOV       R1,#0x0
   \   00003D   12....       LCALL     `??SSP_SwitchNwkKey::?relay`; Banked call to: SSP_SwitchNwkKey
    369          
    370                      // clear local copy of key
    371                      osal_memset(zgPreConfigKey, 0x00, SEC_KEY_LEN);
   \   000040                ; Setup parameters for call to function osal_memset
   \   000040   7C10         MOV       R4,#0x10
   \   000042   7D00         MOV       R5,#0x0
   \   000044   7900         MOV       R1,#0x0
   \   000046   AA..         MOV       R2,?XSP + 0
   \   000048   AB..         MOV       R3,?XSP + 1
   \   00004A   12....       LCALL     `??osal_memset::?relay`; Banked call to: osal_memset
    372                  }
    373                }
    374              }
    375          
    376              // clean the new devices list when Security module is initialized
    377              if ( ZDApp_NewDeviceList != NULL )
   \                     ??ZDApp_SecInit_0:
   \   00004D   12....       LCALL     ?Subroutine16 & 0xFFFF
   \                     ??CrossCallReturnLabel_54:
   \   000050   6021         JZ        ??ZDApp_SecInit_1
    378              {
    379                ZDAppNewDevice_t *pNewDeviceNext;
    380          
    381                while ( ZDApp_NewDeviceList )
    382                {
    383                  pNewDeviceNext = (ZDAppNewDevice_t *) ZDApp_NewDeviceList->next;
   \                     ??ZDApp_SecInit_2:
   \   000052   90....       MOV       DPTR,#ZDApp_NewDeviceList
   \   000055   12....       LCALL     ?Subroutine17 & 0xFFFF
   \                     ??CrossCallReturnLabel_14:
   \   000058   FE           MOV       R6,A
   \   000059   A3           INC       DPTR
   \   00005A   E0           MOVX      A,@DPTR
   \   00005B   FF           MOV       R7,A
    384                  osal_mem_free( ZDApp_NewDeviceList );
   \   00005C                ; Setup parameters for call to function osal_mem_free
   \   00005C   90....       MOV       DPTR,#ZDApp_NewDeviceList
   \   00005F   12....       LCALL     ?Subroutine19 & 0xFFFF
   \                     ??CrossCallReturnLabel_19:
   \   000062   12....       LCALL     `??osal_mem_free::?relay`; Banked call to: osal_mem_free
    385                  ZDApp_NewDeviceList = pNewDeviceNext;
   \   000065   EE           MOV       A,R6
   \   000066   F8           MOV       R0,A
   \   000067   EF           MOV       A,R7
   \   000068   F9           MOV       R1,A
   \   000069   90....       MOV       DPTR,#ZDApp_NewDeviceList
   \   00006C   12....       LCALL     ??Subroutine42_0 & 0xFFFF
    386                }
   \                     ??CrossCallReturnLabel_56:
   \   00006F   E8           MOV       A,R0
   \   000070   49           ORL       A,R1
   \   000071   70DF         JNZ       ??ZDApp_SecInit_2
    387              }
    388            }
    389          }
   \                     ??ZDApp_SecInit_1:
   \   000073   7410         MOV       A,#0x10
   \   000075   02....       LJMP      ??Subroutine33_0 & 0xFFFF

   \                                 In  segment BANKED_CODE, align 1, keep-with-next
   \                     ??Subroutine33_0:
   \   000000   12....       LCALL     ?DEALLOC_XSTACK8
   \   000003                REQUIRE ??Subroutine34_0
   \   000003                ; // Fall through to label ??Subroutine34_0

   \                                 In  segment BANKED_CODE, align 1, keep-with-next
   \                     ?Subroutine30:
   \   000000   E0           MOVX      A,@DPTR
   \   000001                REQUIRE ??Subroutine39_0
   \   000001                ; // Fall through to label ??Subroutine39_0

   \                                 In  segment BANKED_CODE, align 1, keep-with-next
   \                     ??Subroutine39_0:
   \   000000   F8           MOV       R0,A
   \   000001   A3           INC       DPTR
   \   000002                REQUIRE ??Subroutine40_0
   \   000002                ; // Fall through to label ??Subroutine40_0

   \                                 In  segment BANKED_CODE, align 1, keep-with-next
   \                     ??Subroutine40_0:
   \   000000   E0           MOVX      A,@DPTR
   \   000001   F583         MOV       DPH,A
   \   000003   8882         MOV       DPL,R0
   \   000005   22           RET

   \                                 In  segment BANKED_CODE, align 1, keep-with-next
   \                     ?Subroutine19:
   \   000000   E0           MOVX      A,@DPTR
   \   000001   FA           MOV       R2,A
   \   000002   A3           INC       DPTR
   \   000003   E0           MOVX      A,@DPTR
   \   000004   FB           MOV       R3,A
   \   000005   22           RET

   \                                 In  segment BANKED_CODE, align 1, keep-with-next
   \                     ?Subroutine16:
   \   000000   90....       MOV       DPTR,#ZDApp_NewDeviceList
   \   000003                REQUIRE ??Subroutine41_0
   \   000003                ; // Fall through to label ??Subroutine41_0

   \                                 In  segment BANKED_CODE, align 1, keep-with-next
   \                     ??Subroutine41_0:
   \   000000   12....       LCALL     ?Subroutine29 & 0xFFFF
   \                     ??CrossCallReturnLabel_76:
   \   000003   E8           MOV       A,R0
   \   000004   49           ORL       A,R1
   \   000005   22           RET

   \                                 In  segment BANKED_CODE, align 1, keep-with-next
   \                     ??Subroutine42_0:
   \   000000   E8           MOV       A,R0
   \   000001   F0           MOVX      @DPTR,A
   \   000002   A3           INC       DPTR
   \   000003   E9           MOV       A,R1
   \   000004   F0           MOVX      @DPTR,A
   \   000005   22           RET

   \                                 In  segment BANKED_CODE, align 1, keep-with-next
   \                     ?Subroutine17:
   \   000000   12....       LCALL     ?Subroutine30 & 0xFFFF
   \                     ??CrossCallReturnLabel_47:
   \   000003   E0           MOVX      A,@DPTR
   \   000004   22           RET

   \                                 In  segment BANKED_CODE, align 1, keep-with-next
   \                     ?Subroutine29:
   \   000000   E0           MOVX      A,@DPTR
   \   000001   F8           MOV       R0,A
   \   000002   A3           INC       DPTR
   \   000003   E0           MOVX      A,@DPTR
   \   000004   F9           MOV       R1,A
   \   000005   22           RET
    390          
    391          /*********************************************************************
    392           * @fn      ZDApp_event_loop()
    393           *
    394           * @brief   Main event loop for Zigbee device objects task. This function
    395           *          should be called at periodic intervals.
    396           *
    397           * @param   task_id - Task ID
    398           * @param   events  - Bitmap of events
    399           *
    400           * @return  none
    401           */

   \                                 In  segment BANKED_CODE, align 1, keep-with-next
    402          UINT16 ZDApp_event_loop( uint8 task_id, UINT16 events )
   \                     ZDApp_event_loop:
    403          {
   \   000000                REQUIRE ?V0
   \   000000                REQUIRE ?V1
   \   000000                REQUIRE ?V2
   \   000000                REQUIRE ?V4
   \   000000                REQUIRE ?V5
   \   000000   74F2         MOV       A,#-0xe
   \   000002   12....       LCALL     ?BANKED_ENTER_XDATA
   \   000005                ; Saved register size: 14
   \   000005                ; Auto size: 0
   \   000005   89..         MOV       ?V2,R1
   \   000007   EA           MOV       A,R2
   \   000008   FE           MOV       R6,A
   \   000009   EB           MOV       A,R3
   \   00000A   FF           MOV       R7,A
    404            uint8 *msg_ptr;
    405          
    406            if ( events & SYS_EVENT_MSG )
   \   00000B   5480         ANL       A,#0x80
   \   00000D   702D         JNZ       ??ZDApp_event_loop_0
    407            {
    408              while ( (msg_ptr = osal_msg_receive( ZDAppTaskID )) )
    409              {
    410                ZDApp_ProcessOSALMsg( (osal_event_hdr_t *)msg_ptr );
    411          
    412                // Release the memory
    413                osal_msg_deallocate( msg_ptr );
    414              }
    415          
    416              // Return unprocessed events
    417              return (events ^ SYS_EVENT_MSG);
    418            }
    419          
    420            if ( events & ZDO_NETWORK_INIT )
   \   00000F   EE           MOV       A,R6
   \   000010   A2E0         MOV       C,0xE0 /* A   */.0
   \   000012   5041         JNC       ??ZDApp_event_loop_1
    421            {
    422              // Initialize apps and start the network
    423              ZDApp_ChangeState( DEV_INIT );
   \   000014                ; Setup parameters for call to function ZDApp_ChangeState
   \   000014   7901         MOV       R1,#0x1
   \   000016   12....       LCALL     `??ZDApp_ChangeState::?relay`; Banked call to: ZDApp_ChangeState
    424          
    425              ZDO_StartDevice( (uint8)ZDO_Config_Node_Descriptor.LogicalType, devStartMode,
    426                               DEFAULT_BEACON_ORDER, DEFAULT_SUPERFRAME_ORDER );
   \   000019                ; Setup parameters for call to function ZDO_StartDevice
   \   000019   7C0F         MOV       R4,#0xf
   \   00001B   7B0F         MOV       R3,#0xf
   \   00001D   90....       MOV       DPTR,#devStartMode
   \   000020   E0           MOVX      A,@DPTR
   \   000021   FA           MOV       R2,A
   \   000022   90....       MOV       DPTR,#ZDO_Config_Node_Descriptor
   \   000025   E0           MOVX      A,@DPTR
   \   000026   5407         ANL       A,#0x7
   \   000028   F9           MOV       R1,A
   \   000029   12....       LCALL     `??ZDO_StartDevice::?relay`; Banked call to: ZDO_StartDevice
    427          
    428              // Return unprocessed events
    429              return (events ^ ZDO_NETWORK_INIT);
   \   00002C   EE           MOV       A,R6
   \   00002D   6401         XRL       A,#0x1
   \   00002F   02....       LJMP      ??ZDApp_event_loop_2 & 0xFFFF
    430            }
   \                     ??ZDApp_event_loop_3:
   \   000032                ; Setup parameters for call to function ZDApp_ProcessOSALMsg
   \   000032   12....       LCALL     `??ZDApp_ProcessOSALMsg::?relay`; Banked call to: ZDApp_ProcessOSALMsg
   \   000035                ; Setup parameters for call to function osal_msg_deallocate
   \   000035   AA..         MOV       R2,?V0
   \   000037   AB..         MOV       R3,?V1
   \   000039   12....       LCALL     `??osal_msg_deallocate::?relay`; Banked call to: osal_msg_deallocate
   \                     ??ZDApp_event_loop_0:
   \   00003C                ; Setup parameters for call to function osal_msg_receive
   \   00003C   90....       MOV       DPTR,#ZDAppTaskID
   \   00003F   E0           MOVX      A,@DPTR
   \   000040   F9           MOV       R1,A
   \   000041   12....       LCALL     `??osal_msg_receive::?relay`; Banked call to: osal_msg_receive
   \   000044   8A..         MOV       ?V0,R2
   \   000046   8B..         MOV       ?V1,R3
   \   000048   EA           MOV       A,R2
   \   000049   45..         ORL       A,?V1
   \   00004B   70E5         JNZ       ??ZDApp_event_loop_3
   \   00004D   EE           MOV       A,R6
   \   00004E   FA           MOV       R2,A
   \   00004F   EF           MOV       A,R7
   \   000050   6480         XRL       A,#0x80
   \   000052   02....       LJMP      ??ZDApp_event_loop_4 & 0xFFFF
    431          
    432            if ( ZSTACK_ROUTER_BUILD )
    433            {
    434              if ( events & ZDO_NETWORK_START )
    435              {
    436                ZDApp_NetworkStartEvt();
    437          
    438                // Return unprocessed events
    439                return (events ^ ZDO_NETWORK_START);
    440              }
    441          
    442              if ( events & ZDO_ROUTER_START )
    443              {
    444                if ( nwkStatus == ZSuccess )
    445                {
    446                  if ( devState == DEV_END_DEVICE )
    447                  {
    448                    ZDApp_ChangeState( DEV_ROUTER );
    449                  }
    450          
    451                  osal_pwrmgr_device( PWRMGR_ALWAYS_ON );
    452          
    453                  if ( zgChildAgingEnable == TRUE )
    454                  {
    455                    // Once the device has changed its state to a ROUTER set the timer to send
    456                    // Parent annce
    457                    ZDApp_SetParentAnnceTimer();
    458                  }
    459                }
    460                else
    461                {
    462                  // remain as end device
    463                }
    464                osal_set_event( ZDAppTaskID, ZDO_STATE_CHANGE_EVT );
    465          
    466                // Return unprocessed events
    467                return (events ^ ZDO_ROUTER_START);
    468              }
    469          
    470              if ( events & ZDO_PARENT_ANNCE_EVT )
    471              {
    472                ZDApp_SendParentAnnce();
    473          
    474                // Return unprocessed events
    475                return (events ^ ZDO_PARENT_ANNCE_EVT);
    476              }
    477            }
    478          
    479            if( events & ZDO_REJOIN_BACKOFF )
   \                     ??ZDApp_event_loop_1:
   \   000055   EF           MOV       A,R7
   \   000056   5420         ANL       A,#0x20
   \   000058   603B         JZ        ??ZDApp_event_loop_5
    480            {
    481              if( devState == DEV_NWK_BACKOFF )
   \   00005A   90....       MOV       DPTR,#devState
   \   00005D   E0           MOVX      A,@DPTR
   \   00005E   640C         XRL       A,#0xc
   \   000060   700D         JNZ       ??ZDApp_event_loop_6
    482              {
    483                ZDApp_ChangeState(DEV_NWK_DISC);
   \   000062                ; Setup parameters for call to function ZDApp_ChangeState
   \   000062   7902         MOV       R1,#0x2
   \   000064   12....       LCALL     `??ZDApp_ChangeState::?relay`; Banked call to: ZDApp_ChangeState
    484                // Restart scan for rejoin
    485                ZDApp_StartJoiningCycle();
   \   000067                ; Setup parameters for call to function ZDApp_StartJoiningCycle
   \   000067   12....       LCALL     `??ZDApp_StartJoiningCycle::?relay`; Banked call to: ZDApp_StartJoiningCycle
    486                osal_start_timerEx( ZDAppTaskID, ZDO_REJOIN_BACKOFF, zgDefaultRejoinScan );
   \   00006A                ; Setup parameters for call to function osal_start_timerEx
   \   00006A   90....       MOV       DPTR,#zgDefaultRejoinScan
   \   00006D   800B         SJMP      ??ZDApp_event_loop_7
    487              }
    488              else
    489              {
    490                // Rejoin backoff, silent period
    491                ZDApp_ChangeState(DEV_NWK_BACKOFF);
   \                     ??ZDApp_event_loop_6:
   \   00006F                ; Setup parameters for call to function ZDApp_ChangeState
   \   00006F   790C         MOV       R1,#0xc
   \   000071   12....       LCALL     `??ZDApp_ChangeState::?relay`; Banked call to: ZDApp_ChangeState
    492                ZDApp_StopJoiningCycle();
   \   000074                ; Setup parameters for call to function ZDApp_StopJoiningCycle
   \   000074   12....       LCALL     `??ZDApp_StopJoiningCycle::?relay`; Banked call to: ZDApp_StopJoiningCycle
    493                osal_start_timerEx( ZDAppTaskID, ZDO_REJOIN_BACKOFF, zgDefaultRejoinBackoff );
   \   000077                ; Setup parameters for call to function osal_start_timerEx
   \   000077   90....       MOV       DPTR,#zgDefaultRejoinBackoff
   \                     ??ZDApp_event_loop_7:
   \   00007A   12....       LCALL     ?PUSH_XSTACK8_X_FOUR
   \   00007D   7A00         MOV       R2,#0x0
   \   00007F   7B20         MOV       R3,#0x20
   \   000081   90....       MOV       DPTR,#ZDAppTaskID
   \   000084   E0           MOVX      A,@DPTR
   \   000085   F9           MOV       R1,A
   \   000086   12....       LCALL     `??osal_start_timerEx::?relay`; Banked call to: osal_start_timerEx
   \   000089   7404         MOV       A,#0x4
   \   00008B   12....       LCALL     ?DEALLOC_XSTACK8
    494              }
    495          
    496              return ( events ^ ZDO_REJOIN_BACKOFF);
   \   00008E   EE           MOV       A,R6
   \   00008F   FA           MOV       R2,A
   \   000090   EF           MOV       A,R7
   \   000091   6420         XRL       A,#0x20
   \   000093   805A         SJMP      ??ZDApp_event_loop_4
    497            }
    498          
    499            if ( events & ZDO_STATE_CHANGE_EVT )
   \                     ??ZDApp_event_loop_5:
   \   000095   EE           MOV       A,R6
   \   000096   5410         ANL       A,#0x10
   \   000098   602E         JZ        ??ZDApp_event_loop_8
    500            {
    501              ZDO_UpdateNwkStatus( devState );
   \   00009A                ; Setup parameters for call to function ZDO_UpdateNwkStatus
   \   00009A   90....       MOV       DPTR,#devState
   \   00009D   E0           MOVX      A,@DPTR
   \   00009E   F9           MOV       R1,A
   \   00009F   12....       LCALL     `??ZDO_UpdateNwkStatus::?relay`; Banked call to: ZDO_UpdateNwkStatus
    502          
    503              // At start up, do one MTO route discovery if the device is a concentrator
    504              if ( zgConcentratorEnable == TRUE )
   \   0000A2   90....       MOV       DPTR,#zgConcentratorEnable
   \   0000A5   E0           MOVX      A,@DPTR
   \   0000A6   6401         XRL       A,#0x1
   \   0000A8   7017         JNZ       ??ZDApp_event_loop_9
    505              {
    506                // Start next event
    507                osal_start_timerEx( NWK_TaskID, NWK_MTO_RTG_REQ_EVT, 100 );
   \   0000AA                ; Setup parameters for call to function osal_start_timerEx
   \   0000AA   90....       MOV       DPTR,#__Constant_64
   \   0000AD   12....       LCALL     ?PUSH_XSTACK8_X_FOUR
   \   0000B0   7A00         MOV       R2,#0x0
   \   0000B2   7B08         MOV       R3,#0x8
   \   0000B4   90....       MOV       DPTR,#NWK_TaskID
   \   0000B7   E0           MOVX      A,@DPTR
   \   0000B8   F9           MOV       R1,A
   \   0000B9   12....       LCALL     `??osal_start_timerEx::?relay`; Banked call to: osal_start_timerEx
   \   0000BC   7404         MOV       A,#0x4
   \   0000BE   12....       LCALL     ?DEALLOC_XSTACK8
    508              }
    509          
    510              // Return unprocessed events
    511              return (events ^ ZDO_STATE_CHANGE_EVT);
   \                     ??ZDApp_event_loop_9:
   \   0000C1   EE           MOV       A,R6
   \   0000C2   6410         XRL       A,#0x10
   \                     ??ZDApp_event_loop_2:
   \   0000C4   FA           MOV       R2,A
   \   0000C5   EF           MOV       A,R7
   \   0000C6   8027         SJMP      ??ZDApp_event_loop_4
    512            }
    513          
    514            if ( events & ZDO_COMMAND_CNF )
   \                     ??ZDApp_event_loop_8:
   \   0000C8   EE           MOV       A,R6
   \   0000C9   5408         ANL       A,#0x8
   \   0000CB   6006         JZ        ??ZDApp_event_loop_10
    515            {
    516              // User defined logic
    517          
    518              // Return unprocessed events
    519              return (events ^ ZDO_COMMAND_CNF);
   \   0000CD   EE           MOV       A,R6
   \   0000CE   6408         XRL       A,#0x8
   \   0000D0   FA           MOV       R2,A
   \   0000D1   8037         SJMP      ??ZDApp_event_loop_11
    520            }
    521          
    522            if ( events & ZDO_NWK_UPDATE_NV )
   \                     ??ZDApp_event_loop_10:
   \   0000D3   EF           MOV       A,R7
   \   0000D4   5401         ANL       A,#0x1
   \   0000D6   601A         JZ        ??ZDApp_event_loop_12
    523            {
    524              // Save only in valid state
    525              if ( _NIB.nwkState == NWK_ROUTER || _NIB.nwkState == NWK_ENDDEVICE )
   \   0000D8   90....       MOV       DPTR,#_NIB + 35
   \   0000DB   E0           MOVX      A,@DPTR
   \   0000DC   F8           MOV       R0,A
   \   0000DD   7408         MOV       A,#0x8
   \   0000DF   68           XRL       A,R0
   \   0000E0   6005         JZ        ??ZDApp_event_loop_13
   \   0000E2   7404         MOV       A,#0x4
   \   0000E4   68           XRL       A,R0
   \   0000E5   7003         JNZ       ??ZDApp_event_loop_14
    526              {
    527                ZDApp_SaveNetworkStateEvt();
   \                     ??ZDApp_event_loop_13:
   \   0000E7                ; Setup parameters for call to function ZDApp_SaveNetworkStateEvt
   \   0000E7   12....       LCALL     `??ZDApp_SaveNetworkStateEvt::?relay`; Banked call to: ZDApp_SaveNetworkStateEvt
    528              }
    529          
    530              // Return unprocessed events
    531              return (events ^ ZDO_NWK_UPDATE_NV);
   \                     ??ZDApp_event_loop_14:
   \   0000EA   EE           MOV       A,R6
   \   0000EB   FA           MOV       R2,A
   \   0000EC   EF           MOV       A,R7
   \   0000ED   6401         XRL       A,#0x1
   \                     ??ZDApp_event_loop_4:
   \   0000EF   FB           MOV       R3,A
   \   0000F0   8018         SJMP      ??ZDApp_event_loop_11
    532            }
    533          
    534            if ( events & ZDO_DEVICE_RESET )
   \                     ??ZDApp_event_loop_12:
   \   0000F2   EE           MOV       A,R6
   \   0000F3   5404         ANL       A,#0x4
   \   0000F5   600A         JZ        ??ZDApp_event_loop_15
    535            {
    536          #ifdef ZBA_FALLBACK_NWKKEY
    537              if ( devState == DEV_END_DEVICE_UNAUTH )
    538              {
    539                ZDSecMgrFallbackNwkKey();
    540              }
    541              else
    542          #endif
    543              {
    544                // Set the NV startup option to force a "new" join.
    545                zgWriteStartupOptions( ZG_STARTUP_SET, ZCD_STARTOPT_DEFAULT_NETWORK_STATE );
   \   0000F7                ; Setup parameters for call to function zgWriteStartupOptions
   \   0000F7   7A02         MOV       R2,#0x2
   \   0000F9   79FF         MOV       R1,#-0x1
   \   0000FB   12....       LCALL     `??zgWriteStartupOptions::?relay`; Banked call to: zgWriteStartupOptions
    546          
    547                // The device has been in the UNAUTH state, so reset
    548                // Note: there will be no return from this call
    549                SystemResetSoft();
   \   0000FE                ; Setup parameters for call to function Onboard_soft_reset
   \   0000FE   12....       LCALL     Onboard_soft_reset & 0xFFFF
    550              }
    551            }
    552          
    553          #if defined ( ZDP_BIND_VALIDATION )
    554            if ( events & ZDO_PENDING_BIND_REQ_EVT )
    555            {
    556          #if defined ( REFLECTOR )
    557              ZDApp_AgeOutPendingBindEntry();
    558          #endif
    559              // Return unprocessed events
    560              return (events ^ ZDO_PENDING_BIND_REQ_EVT);
    561            }
    562          #endif
    563          
    564            if ( ZG_SECURE_ENABLED )
    565            {
    566              return ( ZDApp_ProcessSecEvent( task_id, events ) );
   \                     ??ZDApp_event_loop_15:
   \   000101                ; Setup parameters for call to function ZDApp_ProcessSecEvent
   \   000101   EE           MOV       A,R6
   \   000102   FA           MOV       R2,A
   \   000103   EF           MOV       A,R7
   \   000104   FB           MOV       R3,A
   \   000105   A9..         MOV       R1,?V2
   \   000107   12....       LCALL     `??ZDApp_ProcessSecEvent::?relay`; Banked call to: ZDApp_ProcessSecEvent
    567            }
   \                     ??ZDApp_event_loop_11:
   \   00010A                REQUIRE ?Subroutine1
   \   00010A                ; // Fall through to label ?Subroutine1
    568            else
    569            {
    570              // Discard or make more handlers
    571              return 0;
    572            }
    573          }

   \                                 In  segment BANKED_CODE, align 1, keep-with-next
   \                     ?Subroutine1:
   \   000000   7F06         MOV       R7,#0x6
   \   000002   02....       LJMP      ?BANKED_LEAVE_XDATA
    574          
    575          /*********************************************************************
    576           * @fn      ZDApp_ProcessSecEvent()
    577           *
    578           * @brief   Process incoming security events.
    579           *
    580           * @param   task_id - Task ID
    581           * @param   events  - Bitmap of events
    582           *
    583           * @return  none
    584           */

   \                                 In  segment BANKED_CODE, align 1, keep-with-next
    585          UINT16 ZDApp_ProcessSecEvent( uint8 task_id, UINT16 events )
   \                     ZDApp_ProcessSecEvent:
    586          {
   \   000000   74F7         MOV       A,#-0x9
   \   000002   12....       LCALL     ?BANKED_ENTER_XDATA
   \   000005                ; Saved register size: 9
   \   000005                ; Auto size: 0
   \   000005   EA           MOV       A,R2
   \   000006   FE           MOV       R6,A
   \   000007   EB           MOV       A,R3
   \   000008   FF           MOV       R7,A
    587            (void)task_id;  // Intentionally unreferenced parameter
    588          
    589            if ( ZSTACK_ROUTER_BUILD )
    590            {
    591              if ( events & ZDO_NEW_DEVICE )
    592              {
    593                // process the new device event
    594                if ( ZDApp_NewDeviceList )
    595                {
    596                  ZDAppNewDevice_t *pNewDevice;
    597                  uint16 timeDelta;
    598          
    599                  (void) ZDSecMgrNewDeviceEvent( ZDApp_NewDeviceList->shortAddr );
    600          
    601                  pNewDevice = (ZDAppNewDevice_t *) ZDApp_NewDeviceList->next;
    602                  osal_mem_free( ZDApp_NewDeviceList );
    603                  ZDApp_NewDeviceList = pNewDevice;
    604          
    605                  if ( pNewDevice )
    606                  {
    607                    timeDelta = pNewDevice->timeDelta;
    608                    pNewDevice = pNewDevice->next;
    609          
    610                    while ( pNewDevice )
    611                    {
    612                      pNewDevice->timeDelta -= timeDelta;
    613                      pNewDevice = pNewDevice->next;
    614                    }
    615          
    616                    osal_start_timerEx( ZDAppTaskID, ZDO_NEW_DEVICE, timeDelta );
    617                  }
    618                }
    619          
    620                // Return unprocessed events
    621                return (events ^ ZDO_NEW_DEVICE);
    622              }
    623            }
    624          
    625            if ( events & ZDO_DEVICE_AUTH )
   \   000009   EE           MOV       A,R6
   \   00000A   5480         ANL       A,#0x80
   \   00000C   6019         JZ        ??ZDApp_ProcessSecEvent_0
    626            {
    627              ZDApp_StoreNwkSecMaterial();
   \   00000E                ; Setup parameters for call to function ZDApp_StoreNwkSecMaterial
   \   00000E   12....       LCALL     `??ZDApp_StoreNwkSecMaterial::?relay`; Banked call to: ZDApp_StoreNwkSecMaterial
    628              
    629              ZDApp_DeviceAuthEvt();
   \   000011                ; Setup parameters for call to function ZDApp_DeviceAuthEvt
   \   000011   12....       LCALL     `??ZDApp_DeviceAuthEvt::?relay`; Banked call to: ZDApp_DeviceAuthEvt
    630          
    631              bdb_setNodeIsOnANetwork(TRUE);
   \   000014                ; Setup parameters for call to function bdb_setNodeIsOnANetwork
   \   000014   7901         MOV       R1,#0x1
   \   000016   12....       LCALL     `??bdb_setNodeIsOnANetwork::?relay`; Banked call to: bdb_setNodeIsOnANetwork
    632              
    633              bdb_reportCommissioningState(BDB_COMMISSIONING_STATE_JOINING, TRUE);
   \   000019                ; Setup parameters for call to function bdb_reportCommissioningState
   \   000019   7A01         MOV       R2,#0x1
   \   00001B   7903         MOV       R1,#0x3
   \   00001D   12....       LCALL     `??bdb_reportCommissioningState::?relay`; Banked call to: bdb_reportCommissioningState
    634          
    635              // Return unprocessed events
    636              return (events ^ ZDO_DEVICE_AUTH);
   \   000020   EE           MOV       A,R6
   \   000021   6480         XRL       A,#0x80
   \   000023   FA           MOV       R2,A
   \   000024   EF           MOV       A,R7
   \   000025   802B         SJMP      ??ZDApp_ProcessSecEvent_1
    637            }
    638          
    639            if ( events & ZDO_FRAMECOUNTER_CHANGE )
   \                     ??ZDApp_ProcessSecEvent_0:
   \   000027   EF           MOV       A,R7
   \   000028   5402         ANL       A,#0x2
   \   00002A   600A         JZ        ??ZDApp_ProcessSecEvent_2
    640            {
    641              ZDApp_SaveNwkKey();
   \   00002C                ; Setup parameters for call to function ZDApp_SaveNwkKey
   \   00002C   12....       LCALL     `??ZDApp_SaveNwkKey::?relay`; Banked call to: ZDApp_SaveNwkKey
    642          
    643              // Return unprocessed events
    644              return (events ^ ZDO_FRAMECOUNTER_CHANGE);
   \   00002F   EE           MOV       A,R6
   \   000030   FA           MOV       R2,A
   \   000031   EF           MOV       A,R7
   \   000032   6402         XRL       A,#0x2
   \   000034   801C         SJMP      ??ZDApp_ProcessSecEvent_1
    645            }
    646          
    647            if ( events & ZDO_APS_FRAMECOUNTER_CHANGE )
   \                     ??ZDApp_ProcessSecEvent_2:
   \   000036   EF           MOV       A,R7
   \   000037   5408         ANL       A,#0x8
   \   000039   600A         JZ        ??ZDApp_ProcessSecEvent_3
    648            {
    649          #if defined (NV_RESTORE)
    650              ZDSecMgrSaveApsLinkKey();
   \   00003B                ; Setup parameters for call to function ZDSecMgrSaveApsLinkKey
   \   00003B   12....       LCALL     `??ZDSecMgrSaveApsLinkKey::?relay`; Banked call to: ZDSecMgrSaveApsLinkKey
    651          #endif // (NV_RESTORE)
    652          
    653              // Return unprocessed events
    654              return (events ^ ZDO_APS_FRAMECOUNTER_CHANGE);
   \   00003E   EE           MOV       A,R6
   \   00003F   FA           MOV       R2,A
   \   000040   EF           MOV       A,R7
   \   000041   6408         XRL       A,#0x8
   \   000043   800D         SJMP      ??ZDApp_ProcessSecEvent_1
    655            }
    656          
    657            if ( events & ZDO_TCLK_FRAMECOUNTER_CHANGE )
   \                     ??ZDApp_ProcessSecEvent_3:
   \   000045   EF           MOV       A,R7
   \   000046   5404         ANL       A,#0x4
   \   000048   600B         JZ        ??ZDApp_ProcessSecEvent_4
    658            {
    659              ZDSecMgrSaveTCLinkKey();
   \   00004A                ; Setup parameters for call to function ZDSecMgrSaveTCLinkKey
   \   00004A   12....       LCALL     `??ZDSecMgrSaveTCLinkKey::?relay`; Banked call to: ZDSecMgrSaveTCLinkKey
    660          
    661              // Return unprocessed events
    662              return (events ^ ZDO_TCLK_FRAMECOUNTER_CHANGE);
   \   00004D   EE           MOV       A,R6
   \   00004E   FA           MOV       R2,A
   \   00004F   EF           MOV       A,R7
   \   000050   6404         XRL       A,#0x4
   \                     ??ZDApp_ProcessSecEvent_1:
   \   000052   FB           MOV       R3,A
   \   000053   8004         SJMP      ??ZDApp_ProcessSecEvent_5
    663            }
    664          
    665            // Discard or make more handlers
    666            return 0;
   \                     ??ZDApp_ProcessSecEvent_4:
   \   000055   7A00         MOV       R2,#0x0
   \   000057   7B00         MOV       R3,#0x0
   \                     ??ZDApp_ProcessSecEvent_5:
   \   000059   02....       LJMP      ??Subroutine34_0 & 0xFFFF
    667          }
    668          
    669          /*********************************************************************
    670           * Application Functions
    671           */
    672          
    673          /*********************************************************************
    674           * @fn      ZDOInitDevice
    675           *
    676           * @brief   Start the device in the network.  This function will read
    677           *   ZCD_NV_STARTUP_OPTION (NV item) to determine whether or not to
    678           *   restore the network state of the device.
    679           *
    680           * @param   startDelay - timeDelay to start device (in milliseconds).
    681           *                       There is a jitter added to this delay:
    682           *                       ((NWK_START_DELAY + startDelay)
    683           *                       + (osal_rand() & EXTENDED_JOINING_RANDOM_MASK))
    684           *                       When startDelay is set to ZDO_INIT_HOLD_NWK_START
    685           *                       this function will hold the network init. Application
    686           *                       can start the device.
    687           * #@param  mode       - ZDO_INITDEV_CENTRALIZED or ZDO_INITDEV_DISTRIBUTED to specify
    688           *                       which mode should the device start with (only has effect on 
    689           *                       Router devices)
    690           *
    691           * NOTE:    If the application would like to force a "new" join, the
    692           *          application should set the ZCD_STARTOPT_DEFAULT_NETWORK_STATE
    693           *          bit in the ZCD_NV_STARTUP_OPTION NV item before calling
    694           *          this function. "new" join means to not restore the network
    695           *          state of the device. Use zgWriteStartupOptions() to set these
    696           *          options.
    697           *
    698           * @return
    699           *    ZDO_INITDEV_RESTORED_NETWORK_STATE  - The device's network state was
    700           *          restored.
    701           *    ZDO_INITDEV_NEW_NETWORK_STATE - The network state was initialized.
    702           *          This could mean that ZCD_NV_STARTUP_OPTION said to not restore, or
    703           *          it could mean that there was no network state to restore.
    704           */

   \                                 In  segment BANKED_CODE, align 1, keep-with-next
    705          uint8 ZDOInitDeviceEx( uint16 startDelay, uint8 mode)
   \                     ZDOInitDeviceEx:
    706          {
   \   000000                REQUIRE ?V0
   \   000000                REQUIRE ?V1
   \   000000                REQUIRE ?V2
   \   000000                REQUIRE ?V3
   \   000000                REQUIRE ?V4
   \   000000                REQUIRE ?V5
   \   000000                REQUIRE ?V6
   \   000000                REQUIRE ?V7
   \   000000   74F0         MOV       A,#-0x10
   \   000002   12....       LCALL     ?BANKED_ENTER_XDATA
   \   000005                ; Saved register size: 16
   \   000005                ; Auto size: 9
   \   000005   74F7         MOV       A,#-0x9
   \   000007   12....       LCALL     ?ALLOC_XSTACK8
   \   00000A   8A..         MOV       ?V2,R2
   \   00000C   8B..         MOV       ?V3,R3
   \   00000E   89..         MOV       ?V1,R1
    707            uint8 networkStateNV = ZDO_INITDEV_NEW_NETWORK_STATE;
   \   000010   75..01       MOV       ?V0,#0x1
    708            uint16 extendedDelay = 0;
   \   000013   7E00         MOV       R6,#0x0
   \   000015   7F00         MOV       R7,#0x0
    709            
    710            if ( devState == DEV_HOLD )
   \   000017   90....       MOV       DPTR,#devState
   \   00001A   E0           MOVX      A,@DPTR
   \   00001B   85..82       MOV       DPL,?XSP + 0
   \   00001E   85..83       MOV       DPH,?XSP + 1
   \   000021   7008         JNZ       ??ZDOInitDeviceEx_0
    711            {
    712              byte temp = FALSE;
   \   000023   E4           CLR       A
   \   000024   F0           MOVX      @DPTR,A
    713              // Initialize the RAM items table, in case an NV item has been updated.
    714              zgInitItems( FALSE );
   \   000025                ; Setup parameters for call to function zgInitItems
   \   000025   F9           MOV       R1,A
   \   000026   12....       LCALL     `??zgInitItems::?relay`; Banked call to: zgInitItems
    715              
    716              //Turn off the radio
    717              ZMacSetReq(ZMacRxOnIdle, &temp);
   \   000029                ; Setup parameters for call to function ZMacSetReq
   \   000029   8003         SJMP      ??ZDOInitDeviceEx_1
    718            }
    719            else
    720            {
    721              byte temp = TRUE;
   \                     ??ZDOInitDeviceEx_0:
   \   00002B   7401         MOV       A,#0x1
   \   00002D   F0           MOVX      @DPTR,A
    722              //Turn on the radio
    723              ZMacSetReq(ZMacRxOnIdle, &temp);
   \   00002E                ; Setup parameters for call to function ZMacSetReq
   \                     ??ZDOInitDeviceEx_1:
   \   00002E   AA..         MOV       R2,?XSP + 0
   \   000030   AB..         MOV       R3,?XSP + 1
   \   000032   7952         MOV       R1,#0x52
   \   000034   12....       LCALL     `??ZMacSetReq::?relay`; Banked call to: ZMacSetReq
    724            }
    725          
    726            ZDConfig_InitDescriptors();
   \   000037                ; Setup parameters for call to function ZDConfig_InitDescriptors
   \   000037   12....       LCALL     `??ZDConfig_InitDescriptors::?relay`; Banked call to: ZDConfig_InitDescriptors
    727            //devtag.071807.todo - fix this temporary solution
    728            _NIB.CapabilityFlags = ZDO_Config_Node_Descriptor.CapabilityFlags;
   \   00003A   90....       MOV       DPTR,#ZDO_Config_Node_Descriptor + 2
   \   00003D   E0           MOVX      A,@DPTR
   \   00003E   90....       MOV       DPTR,#_NIB + 14
   \   000041   F0           MOVX      @DPTR,A
    729          
    730          #if defined ( NV_RESTORE )
    731            // Hold down the SW_BYPASS_NV key (defined in OnBoard.h)
    732            // while booting to skip past NV Restore.
    733            if ( zdappHoldKeys == SW_BYPASS_NV )
   \   000042   90....       MOV       DPTR,#zdappHoldKeys
   \   000045   E0           MOVX      A,@DPTR
   \   000046   6404         XRL       A,#0x4
   \   000048   707D         JNZ       ??ZDOInitDeviceEx_2
    734            {
    735              zdappHoldKeys = 0;   // Only once
   \   00004A   E4           CLR       A
   \   00004B   F0           MOVX      @DPTR,A
    736              networkStateNV = ZDO_INITDEV_NEW_NETWORK_STATE;
    737            }
    738            else
    739            {
    740          #if (BDB_TOUCHLINK_CAPABILITY_ENABLED == TRUE)
    741              if ( bdbCommissioningProcedureState.bdbCommissioningState == BDB_COMMISSIONING_STATE_TL )
    742              {
    743                networkStateNV = ZDO_INITDEV_RESTORED_NETWORK_STATE;
    744              }
    745              else
    746              {
    747                // Determine if NV should be restored
    748                networkStateNV = ZDApp_ReadNetworkRestoreState();
    749              }
    750          #else
    751              // Determine if NV should be restored
    752              networkStateNV = ZDApp_ReadNetworkRestoreState();
    753          #endif
    754            }
    755          
    756            if ( networkStateNV == ZDO_INITDEV_RESTORED_NETWORK_STATE )
    757            {
    758              networkStateNV = ZDApp_RestoreNetworkState();
    759          #if (BDB_TOUCHLINK_CAPABILITY_ENABLED == TRUE)
    760              if ( ( bdbCommissioningProcedureState.bdbCommissioningState == BDB_COMMISSIONING_STATE_TL ) && ( networkStateNV == ZDO_INITDEV_NEW_NETWORK_STATE ) )
    761              {
    762                networkStateNV = ZDO_INITDEV_RESTORED_NETWORK_STATE;
    763              }
    764          #endif
    765              runtimeChannel = (uint32) (1L << _NIB.nwkLogicalChannel);
    766            }
    767            else
    768            {
    769              // Wipe out the network state in NV
    770              NLME_InitNV();
   \                     ??ZDOInitDeviceEx_3:
   \   00004C                ; Setup parameters for call to function NLME_InitNV
   \   00004C   12....       LCALL     `??NLME_InitNV::?relay`; Banked call to: NLME_InitNV
    771              NLME_SetDefaultNV();
   \   00004F                ; Setup parameters for call to function NLME_SetDefaultNV
   \   00004F   12....       LCALL     `??NLME_SetDefaultNV::?relay`; Banked call to: NLME_SetDefaultNV
    772              // clear NWK key values
    773              ZDSecMgrClearNVKeyValues();
   \   000052                ; Setup parameters for call to function ZDSecMgrClearNVKeyValues
   \   000052   12....       LCALL     `??ZDSecMgrClearNVKeyValues::?relay`; Banked call to: ZDSecMgrClearNVKeyValues
    774            }
    775          #endif
    776          
    777            if ( networkStateNV == ZDO_INITDEV_NEW_NETWORK_STATE )
   \                     ??ZDOInitDeviceEx_4:
   \   000055   7401         MOV       A,#0x1
   \   000057   65..         XRL       A,?V0
   \   000059   6003         JZ        $+5
   \   00005B   02....       LJMP      ??ZDOInitDeviceEx_5 & 0xFFFF
    778            {
    779              ZDAppDetermineDeviceType();
   \   00005E                ; Setup parameters for call to function ZDAppDetermineDeviceType
   \   00005E   12....       LCALL     `??ZDAppDetermineDeviceType::?relay`; Banked call to: ZDAppDetermineDeviceType
    780          
    781              // Only delay if joining network - not restoring network state
    782              extendedDelay = (uint16)((NWK_START_DELAY + startDelay)
    783                        + (osal_rand() & EXTENDED_JOINING_RANDOM_MASK));
   \   000061                ; Setup parameters for call to function osal_rand
   \   000061   12....       LCALL     `??osal_rand::?relay`; Banked call to: osal_rand
   \   000064   EA           MOV       A,R2
   \   000065   547F         ANL       A,#0x7f
   \   000067   F8           MOV       R0,A
   \   000068   E5..         MOV       A,?V2
   \   00006A   28           ADD       A,R0
   \   00006B   F8           MOV       R0,A
   \   00006C   E4           CLR       A
   \   00006D   35..         ADDC      A,?V3
   \   00006F   F9           MOV       R1,A
   \   000070   E8           MOV       A,R0
   \   000071   2464         ADD       A,#0x64
   \   000073   FE           MOV       R6,A
   \   000074   E4           CLR       A
   \   000075   39           ADDC      A,R1
   \   000076   FF           MOV       R7,A
    784          
    785              runtimeChannel = zgDefaultChannelList;
   \   000077   90....       MOV       DPTR,#zgDefaultChannelList
   \   00007A   12....       LCALL     ?XLOAD_R0123
   \   00007D   90....       MOV       DPTR,#runtimeChannel
   \   000080   12....       LCALL     ?XSTORE_R0123
    786              
    787              // Set the NV startup option to force a "new" join.
    788              zgWriteStartupOptions( ZG_STARTUP_SET, ZCD_STARTOPT_DEFAULT_NETWORK_STATE );
   \   000083                ; Setup parameters for call to function zgWriteStartupOptions
   \   000083   7A02         MOV       R2,#0x2
   \   000085   79FF         MOV       R1,#-0x1
   \   000087   12....       LCALL     `??zgWriteStartupOptions::?relay`; Banked call to: zgWriteStartupOptions
    789              
    790          #if !defined (DISABLE_GREENPOWER_BASIC_PROXY) && (ZG_BUILD_RTR_TYPE)
    791              gp_ProxyTblInit( TRUE );
    792          #endif
    793          
    794              _NIB.nwkDevAddress = INVALID_NODE_ADDR;
   \   00008A   90....       MOV       DPTR,#_NIB + 20
   \   00008D   74FE         MOV       A,#-0x2
   \   00008F   F0           MOVX      @DPTR,A
   \   000090   A3           INC       DPTR
   \   000091   04           INC       A
   \   000092   F0           MOVX      @DPTR,A
    795              _NIB.nwkCoordAddress = INVALID_NODE_ADDR;
   \   000093   90....       MOV       DPTR,#_NIB + 23
   \   000096   14           DEC       A
   \   000097   F0           MOVX      @DPTR,A
   \   000098   A3           INC       DPTR
   \   000099   04           INC       A
   \   00009A   F0           MOVX      @DPTR,A
    796              _NIB.nwkPanId = 0xFFFF;
   \   00009B   90....       MOV       DPTR,#_NIB + 33
   \   00009E   F0           MOVX      @DPTR,A
   \   00009F   A3           INC       DPTR
   \   0000A0   F0           MOVX      @DPTR,A
    797              osal_memset(_NIB.extendedPANID, 0, Z_EXTADDR_LEN);
   \   0000A1                ; Setup parameters for call to function osal_memset
   \   0000A1   7C08         MOV       R4,#0x8
   \   0000A3   7D00         MOV       R5,#0x0
   \   0000A5   7900         MOV       R1,#0x0
   \   0000A7   7A..         MOV       R2,#(_NIB + 53) & 0xff
   \   0000A9   7B..         MOV       R3,#((_NIB + 53) >> 8) & 0xff
   \   0000AB   12....       LCALL     `??osal_memset::?relay`; Banked call to: osal_memset
    798              NLME_SetUpdateID( 0 );
   \   0000AE                ; Setup parameters for call to function NLME_SetUpdateID
   \   0000AE   7900         MOV       R1,#0x0
   \   0000B0   12....       LCALL     `??NLME_SetUpdateID::?relay`; Banked call to: NLME_SetUpdateID
    799              
    800              if(ZG_DEVICE_RTRONLY_TYPE)
   \   0000B3   90....       MOV       DPTR,#zgDeviceLogicalType
   \   0000B6   E0           MOVX      A,@DPTR
   \   0000B7   6401         XRL       A,#0x1
   \   0000B9   705A         JNZ       ??ZDOInitDeviceEx_6
    801              {
    802                if(1 == mode)
   \   0000BB   7401         MOV       A,#0x1
   \   0000BD   65..         XRL       A,?V1
   \   0000BF   703E         JNZ       ??ZDOInitDeviceEx_7
    803                {
    804                  //Update TC address as distributed network (TC none)
    805                  ZDSecMgrUpdateTCAddress(0);
   \   0000C1                ; Setup parameters for call to function ZDSecMgrUpdateTCAddress
   \   0000C1   7A00         MOV       R2,#0x0
   \   0000C3   7B00         MOV       R3,#0x0
   \   0000C5   804B         SJMP      ??ZDOInitDeviceEx_8
    806                }
   \                     ??ZDOInitDeviceEx_2:
   \   0000C7                ; Setup parameters for call to function ZDApp_ReadNetworkRestoreState
   \   0000C7   12....       LCALL     `??ZDApp_ReadNetworkRestoreState::?relay`; Banked call to: ZDApp_ReadNetworkRestoreState
   \   0000CA   E9           MOV       A,R1
   \   0000CB   F5..         MOV       ?V0,A
   \   0000CD   6003         JZ        $+5
   \   0000CF   02....       LJMP      ??ZDOInitDeviceEx_3 & 0xFFFF
   \   0000D2                ; Setup parameters for call to function ZDApp_RestoreNetworkState
   \   0000D2   12....       LCALL     `??ZDApp_RestoreNetworkState::?relay`; Banked call to: ZDApp_RestoreNetworkState
   \   0000D5   E9           MOV       A,R1
   \   0000D6   F5..         MOV       ?V0,A
   \   0000D8   75..01       MOV       ?V4,#0x1
   \   0000DB   8E..         MOV       ?V5,R6
   \   0000DD   8E..         MOV       ?V6,R6
   \   0000DF   8E..         MOV       ?V7,R6
   \   0000E1   90....       MOV       DPTR,#_NIB + 22
   \   0000E4   E0           MOVX      A,@DPTR
   \   0000E5   78..         MOV       R0,#?V4
   \   0000E7   12....       LCALL     ?L_SHL
   \   0000EA   90....       MOV       DPTR,#runtimeChannel
   \   0000ED   E5..         MOV       A,?V4
   \   0000EF   F0           MOVX      @DPTR,A
   \   0000F0   A3           INC       DPTR
   \   0000F1   E5..         MOV       A,?V5
   \   0000F3   F0           MOVX      @DPTR,A
   \   0000F4   A3           INC       DPTR
   \   0000F5   E5..         MOV       A,?V6
   \   0000F7   F0           MOVX      @DPTR,A
   \   0000F8   A3           INC       DPTR
   \   0000F9   E5..         MOV       A,?V7
   \   0000FB   F0           MOVX      @DPTR,A
   \   0000FC   02....       LJMP      ??ZDOInitDeviceEx_4 & 0xFFFF
    807                else
    808                {
    809                  // Centralized mode
    810                  uint8 tmp[Z_EXTADDR_LEN];
    811                  osal_memset(tmp,0x00,Z_EXTADDR_LEN);
   \                     ??ZDOInitDeviceEx_7:
   \   0000FF                ; Setup parameters for call to function osal_memset
   \   0000FF   7C08         MOV       R4,#0x8
   \   000101   7D00         MOV       R5,#0x0
   \   000103   7900         MOV       R1,#0x0
   \   000105   7401         MOV       A,#0x1
   \   000107   12....       LCALL     ?XSTACK_DISP101_8
   \   00010A   12....       LCALL     `??osal_memset::?relay`; Banked call to: osal_memset
    812                  ZDSecMgrUpdateTCAddress(tmp);
   \   00010D                ; Setup parameters for call to function ZDSecMgrUpdateTCAddress
   \   00010D   7401         MOV       A,#0x1
   \   00010F   12....       LCALL     ?XSTACK_DISP101_8
   \                     ??ZDOInitDeviceEx_8:
   \   000112   12....       LCALL     `??ZDSecMgrUpdateTCAddress::?relay`; Banked call to: ZDSecMgrUpdateTCAddress
    813                }
    814              }
    815          
    816              // Update NIB in NV
    817              osal_nv_write( ZCD_NV_NIB, 0, sizeof( nwkIB_t ), &_NIB );
   \                     ??ZDOInitDeviceEx_6:
   \   000115                ; Setup parameters for call to function osal_nv_write
   \   000115   75....       MOV       ?V4,#_NIB & 0xff
   \   000118   75....       MOV       ?V5,#(_NIB >> 8) & 0xff
   \   00011B   78..         MOV       R0,#?V4
   \   00011D   12....       LCALL     ?PUSH_XSTACK_I_TWO
   \   000120   75..6E       MOV       ?V4,#0x6e
   \   000123   75..00       MOV       ?V5,#0x0
   \   000126   78..         MOV       R0,#?V4
   \   000128   12....       LCALL     ?PUSH_XSTACK_I_TWO
   \   00012B   7C00         MOV       R4,#0x0
   \   00012D   7D00         MOV       R5,#0x0
   \   00012F   7A21         MOV       R2,#0x21
   \   000131   7B00         MOV       R3,#0x0
   \   000133   12....       LCALL     `??osal_nv_write::?relay`; Banked call to: osal_nv_write
   \   000136   7404         MOV       A,#0x4
   \   000138   12....       LCALL     ?DEALLOC_XSTACK8
    818          
    819              // Reset the NV startup option to resume from NV by clearing
    820              // the "New" join option.
    821              zgWriteStartupOptions( ZG_STARTUP_CLEAR, ZCD_STARTOPT_DEFAULT_NETWORK_STATE );
   \   00013B                ; Setup parameters for call to function zgWriteStartupOptions
   \   00013B   7A02         MOV       R2,#0x2
   \   00013D   7900         MOV       R1,#0x0
   \   00013F   12....       LCALL     `??zgWriteStartupOptions::?relay`; Banked call to: zgWriteStartupOptions
    822            
    823            }
    824          
    825            // Initialize the security for type of device
    826            ZDApp_SecInit( networkStateNV );
   \                     ??ZDOInitDeviceEx_5:
   \   000142                ; Setup parameters for call to function ZDApp_SecInit
   \   000142   A9..         MOV       R1,?V0
   \   000144   12....       LCALL     `??ZDApp_SecInit::?relay`; Banked call to: ZDApp_SecInit
    827          
    828            if( ZDO_INIT_HOLD_NWK_START != startDelay )
   \   000147   74FF         MOV       A,#-0x1
   \   000149   65..         XRL       A,?V2
   \   00014B   7004         JNZ       ??ZDOInitDeviceEx_9
   \   00014D   74FF         MOV       A,#-0x1
   \   00014F   65..         XRL       A,?V3
   \                     ??ZDOInitDeviceEx_9:
   \   000151   6010         JZ        ??ZDOInitDeviceEx_10
    829            {
    830              devState = DEV_INIT;    // Remove the Hold state
   \   000153   90....       MOV       DPTR,#devState
   \   000156   7401         MOV       A,#0x1
   \   000158   F0           MOVX      @DPTR,A
    831          
    832              // Initialize leave control logic
    833              ZDApp_LeaveCtrlInit();
   \   000159                ; Setup parameters for call to function ZDApp_LeaveCtrlInit
   \   000159   12....       LCALL     `??ZDApp_LeaveCtrlInit::?relay`; Banked call to: ZDApp_LeaveCtrlInit
    834          
    835              // Trigger the network start
    836              ZDApp_NetworkInit( extendedDelay );
   \   00015C                ; Setup parameters for call to function ZDApp_NetworkInit
   \   00015C   EE           MOV       A,R6
   \   00015D   FA           MOV       R2,A
   \   00015E   EF           MOV       A,R7
   \   00015F   FB           MOV       R3,A
   \   000160   12....       LCALL     `??ZDApp_NetworkInit::?relay`; Banked call to: ZDApp_NetworkInit
    837            }
    838          
    839            // set broadcast address mask to support broadcast filtering
    840            NLME_SetBroadcastFilter( ZDO_Config_Node_Descriptor.CapabilityFlags );
   \                     ??ZDOInitDeviceEx_10:
   \   000163                ; Setup parameters for call to function NLME_SetBroadcastFilter
   \   000163   90....       MOV       DPTR,#ZDO_Config_Node_Descriptor + 2
   \   000166   E0           MOVX      A,@DPTR
   \   000167   F9           MOV       R1,A
   \   000168   12....       LCALL     `??NLME_SetBroadcastFilter::?relay`; Banked call to: NLME_SetBroadcastFilter
    841          
    842            return ( networkStateNV );
   \   00016B   A9..         MOV       R1,?V0
   \   00016D   7409         MOV       A,#0x9
   \   00016F   12....       LCALL     ?DEALLOC_XSTACK8
   \   000172                REQUIRE ?Subroutine2
   \   000172                ; // Fall through to label ?Subroutine2
    843          }

   \                                 In  segment BANKED_CODE, align 1, keep-with-next
   \                     ?Subroutine2:
   \   000000   7F08         MOV       R7,#0x8
   \   000002   02....       LJMP      ?BANKED_LEAVE_XDATA
    844          
    845          /*********************************************************************
    846           * @fn      ZDApp_ReadNetworkRestoreState
    847           *
    848           * @brief   Read the ZCD_NV_STARTUP_OPTION NV Item to state whether
    849           *          or not to restore the network state.
    850           *          If the read value has the ZCD_STARTOPT_DEFAULT_NETWORK_STATE
    851           *          bit set return the ZDO_INITDEV_NEW_NETWORK_STATE.
    852           *
    853           * @param   none
    854           *
    855           * @return  ZDO_INITDEV_NEW_NETWORK_STATE
    856           *          or ZDO_INITDEV_RESTORED_NETWORK_STATE based on whether or
    857           *          not ZCD_STARTOPT_DEFAULT_NETWORK_STATE bit is set in
    858           *          ZCD_NV_STARTUP_OPTION
    859           */

   \                                 In  segment BANKED_CODE, align 1, keep-with-next
    860          uint8 ZDApp_ReadNetworkRestoreState( void )
   \                     ZDApp_ReadNetworkRestoreState:
    861          {
   \   000000   74F7         MOV       A,#-0x9
   \   000002   12....       LCALL     ?BANKED_ENTER_XDATA
   \   000005                ; Saved register size: 9
   \   000005                ; Auto size: 0
    862            uint8 networkStateNV = ZDO_INITDEV_RESTORED_NETWORK_STATE;
   \   000005   7E00         MOV       R6,#0x0
    863          
    864            // Look for the New Network State option.
    865            if ( zgReadStartupOptions() & ZCD_STARTOPT_DEFAULT_NETWORK_STATE )
   \   000007                ; Setup parameters for call to function zgReadStartupOptions
   \   000007   12....       LCALL     `??zgReadStartupOptions::?relay`; Banked call to: zgReadStartupOptions
   \   00000A   E9           MOV       A,R1
   \   00000B   F8           MOV       R0,A
   \   00000C   A2E1         MOV       C,0xE0 /* A   */.1
   \   00000E   5007         JNC       ??ZDApp_ReadNetworkRestoreState_0
    866            {
    867              networkStateNV = ZDO_INITDEV_NEW_NETWORK_STATE;
   \   000010   7E01         MOV       R6,#0x1
    868              bdb_setNodeIsOnANetwork(FALSE);
   \   000012                ; Setup parameters for call to function bdb_setNodeIsOnANetwork
   \   000012   7900         MOV       R1,#0x0
   \   000014   12....       LCALL     `??bdb_setNodeIsOnANetwork::?relay`; Banked call to: bdb_setNodeIsOnANetwork
    869            }
    870          
    871            return ( networkStateNV );
   \                     ??ZDApp_ReadNetworkRestoreState_0:
   \   000017   EE           MOV       A,R6
   \   000018   F9           MOV       R1,A
   \   000019   02....       LJMP      ??Subroutine34_0 & 0xFFFF
    872          }
    873          
    874          /*********************************************************************
    875           * @fn      ZDAppDetermineDeviceType()
    876           *
    877           * @brief   Determines the type of device to start.
    878           *
    879           *          Looks at zgDeviceLogicalType and determines what type of
    880           *          device to start.  The types are:
    881           *            ZG_DEVICETYPE_COORDINATOR
    882           *            ZG_DEVICETYPE_ROUTER
    883           *            ZG_DEVICETYPE_ENDDEVICE
    884           *
    885           * @param   none
    886           *
    887           * @return  none
    888           */

   \                                 In  segment BANKED_CODE, align 1, keep-with-next
    889          void ZDAppDetermineDeviceType( void )
   \                     ZDAppDetermineDeviceType:
    890          {
   \   000000   C082         PUSH      DPL
   \   000002   C083         PUSH      DPH
   \   000004                ; Saved register size: 2
   \   000004                ; Auto size: 0
    891            if ( zgDeviceLogicalType == ZG_DEVICETYPE_COORDINATOR )
   \   000004   90....       MOV       DPTR,#zgDeviceLogicalType
   \   000007   E0           MOVX      A,@DPTR
   \   000008   700E         JNZ       ??ZDAppDetermineDeviceType_0
    892            {
    893              devStartMode = MODE_HARD;     // Start as a coordinator
   \   00000A   90....       MOV       DPTR,#devStartMode
   \   00000D   7402         MOV       A,#0x2
   \   00000F   F0           MOVX      @DPTR,A
    894              ZDO_Config_Node_Descriptor.LogicalType = NODETYPE_COORDINATOR;
   \   000010   90....       MOV       DPTR,#ZDO_Config_Node_Descriptor
   \   000013   E0           MOVX      A,@DPTR
   \   000014   54F8         ANL       A,#0xf8
   \   000016   8036         SJMP      ??ZDAppDetermineDeviceType_1
    895            }
    896            else
    897            {
    898              if ( zgDeviceLogicalType == ZG_DEVICETYPE_ROUTER  )
   \                     ??ZDAppDetermineDeviceType_0:
   \   000018   90....       MOV       DPTR,#ZDO_Config_Node_Descriptor
   \   00001B   E0           MOVX      A,@DPTR
   \   00001C   54F8         ANL       A,#0xf8
   \   00001E   F8           MOV       R0,A
   \   00001F   90....       MOV       DPTR,#zgDeviceLogicalType
   \   000022   E0           MOVX      A,@DPTR
   \   000023   6401         XRL       A,#0x1
   \   000025   7004         JNZ       ??ZDAppDetermineDeviceType_2
    899                ZDO_Config_Node_Descriptor.LogicalType = NODETYPE_ROUTER;
   \   000027   7401         MOV       A,#0x1
   \   000029   8007         SJMP      ??ZDAppDetermineDeviceType_3
    900              else if ( zgDeviceLogicalType == ZG_DEVICETYPE_ENDDEVICE )
   \                     ??ZDAppDetermineDeviceType_2:
   \   00002B   E0           MOVX      A,@DPTR
   \   00002C   6402         XRL       A,#0x2
   \   00002E   7007         JNZ       ??ZDAppDetermineDeviceType_4
    901                ZDO_Config_Node_Descriptor.LogicalType = NODETYPE_DEVICE;
   \   000030   7402         MOV       A,#0x2
   \                     ??ZDAppDetermineDeviceType_3:
   \   000032   48           ORL       A,R0
   \   000033   90....       MOV       DPTR,#ZDO_Config_Node_Descriptor
   \   000036   F0           MOVX      @DPTR,A
    902          
    903              // If AIB_apsUseExtendedPANID is set to a non-zero value by commissioning
    904              // The device shall do rejoin the network. Otherwise, do normal join
    905              if ( nwk_ExtPANIDValid( AIB_apsUseExtendedPANID ) == false )
   \                     ??ZDAppDetermineDeviceType_4:
   \   000037                ; Setup parameters for call to function nwk_ExtPANIDValid
   \   000037   7A..         MOV       R2,#AIB_apsUseExtendedPANID & 0xff
   \   000039   7B..         MOV       R3,#(AIB_apsUseExtendedPANID >> 8) & 0xff
   \   00003B   12....       LCALL     `??nwk_ExtPANIDValid::?relay`; Banked call to: nwk_ExtPANIDValid
   \   00003E   E9           MOV       A,R1
   \   00003F   90....       MOV       DPTR,#devStartMode
   \   000042   7003         JNZ       ??ZDAppDetermineDeviceType_5
    906              {
    907                devStartMode = MODE_JOIN;     // Assume joining
   \   000044   E4           CLR       A
   \   000045   8007         SJMP      ??ZDAppDetermineDeviceType_1
    908              }
    909              else
    910              {
    911                devStartMode = MODE_REJOIN;
   \                     ??ZDAppDetermineDeviceType_5:
   \   000047   7403         MOV       A,#0x3
   \   000049   F0           MOVX      @DPTR,A
    912                prevDevState = DEV_NWK_SEC_REJOIN_CURR_CHANNEL;
   \   00004A   90....       MOV       DPTR,#prevDevState
   \   00004D   04           INC       A
   \                     ??ZDAppDetermineDeviceType_1:
   \   00004E   F0           MOVX      @DPTR,A
    913              }
    914            }
    915          }
   \   00004F   02....       LJMP      ??Subroutine38_0 & 0xFFFF

   \                                 In  segment BANKED_CODE, align 1, keep-with-next
   \                     ??Subroutine38_0:
   \   000000   D083         POP       DPH
   \   000002   D082         POP       DPL
   \   000004   02....       LJMP      ?BRET
    916          
    917          /*********************************************************************
    918           * @fn      ZDApp_NetworkStartEvt()
    919           *
    920           * @brief   Process the Network Start Event
    921           *
    922           * @param   none
    923           *
    924           * @return  none
    925           */

   \                                 In  segment BANKED_CODE, align 1, keep-with-next
    926          void ZDApp_NetworkStartEvt( void )
   \                     ZDApp_NetworkStartEvt:
    927          {
   \   000000   C082         PUSH      DPL
   \   000002   C083         PUSH      DPH
   \   000004                ; Saved register size: 2
   \   000004                ; Auto size: 0
    928            if ( nwkStatus == ZSuccess )
   \   000004   90....       MOV       DPTR,#nwkStatus
   \   000007   E0           MOVX      A,@DPTR
   \   000008   704E         JNZ       ??ZDApp_NetworkStartEvt_0
    929            {
    930              // Successfully started a ZigBee network
    931              if ( devState == DEV_COORD_STARTING )
   \   00000A   90....       MOV       DPTR,#devState
   \   00000D   E0           MOVX      A,@DPTR
   \   00000E   6408         XRL       A,#0x8
   \   000010   7033         JNZ       ??ZDApp_NetworkStartEvt_1
    932              {
    933                //save NIB to NV before child joins if NV_RESTORE is defined
    934                ZDApp_NwkWriteNVRequest();
   \   000012                ; Setup parameters for call to function AddrMgrWriteNVRequest
   \   000012   12....       LCALL     `??AddrMgrWriteNVRequest::?relay`; Banked call to: AddrMgrWriteNVRequest
    935                ZDApp_ChangeState( DEV_ZB_COORD );
   \   000015                ; Setup parameters for call to function ZDApp_ChangeState
   \   000015   7909         MOV       R1,#0x9
   \   000017   12....       LCALL     `??ZDApp_ChangeState::?relay`; Banked call to: ZDApp_ChangeState
    936                
    937                if(bdbCommissioningProcedureState.bdbCommissioningState == BDB_COMMISSIONING_STATE_FORMATION)
   \   00001A   90....       MOV       DPTR,#bdbCommissioningProcedureState
   \   00001D   E0           MOVX      A,@DPTR
   \   00001E   6405         XRL       A,#0x5
   \   000020   700A         JNZ       ??ZDApp_NetworkStartEvt_2
    938                {
    939                  bdb_nwkFormationAttempt(TRUE);
   \   000022                ; Setup parameters for call to function bdb_nwkFormationAttempt
   \   000022   7901         MOV       R1,#0x1
   \   000024   12....       LCALL     `??bdb_nwkFormationAttempt::?relay`; Banked call to: bdb_nwkFormationAttempt
    940                  ZDApp_StoreNwkSecMaterial();
   \   000027                ; Setup parameters for call to function ZDApp_StoreNwkSecMaterial
   \   000027   12....       LCALL     `??ZDApp_StoreNwkSecMaterial::?relay`; Banked call to: ZDApp_StoreNwkSecMaterial
   \   00002A   800C         SJMP      ??ZDApp_NetworkStartEvt_3
    941                }
    942                else if(bdbCommissioningProcedureState.bdbCommissioningState == BDB_INITIALIZATION)
   \                     ??ZDApp_NetworkStartEvt_2:
   \   00002C   E0           MOVX      A,@DPTR
   \   00002D   6407         XRL       A,#0x7
   \   00002F   7007         JNZ       ??ZDApp_NetworkStartEvt_3
    943                {
    944                  bdb_reportCommissioningState(BDB_INITIALIZATION,TRUE);
   \   000031                ; Setup parameters for call to function bdb_reportCommissioningState
   \   000031   7A01         MOV       R2,#0x1
   \   000033   7907         MOV       R1,#0x7
   \   000035   12....       LCALL     `??bdb_reportCommissioningState::?relay`; Banked call to: bdb_reportCommissioningState
    945                }
    946          
    947                if ( zgChildAgingEnable == TRUE )
   \                     ??ZDApp_NetworkStartEvt_3:
   \   000038   90....       MOV       DPTR,#zgChildAgingEnable
   \   00003B   E0           MOVX      A,@DPTR
   \   00003C   6401         XRL       A,#0x1
   \   00003E   7011         JNZ       ??ZDApp_NetworkStartEvt_4
    948                {
    949                  // Once the device has changed its state to a COORDINATOR set the timer to send
    950                  // Parent annce
    951                  ZDApp_SetParentAnnceTimer();
   \   000040                ; Setup parameters for call to function ZDApp_SetParentAnnceTimer
   \   000040   12....       LCALL     `??ZDApp_SetParentAnnceTimer::?relay`; Banked call to: ZDApp_SetParentAnnceTimer
   \   000043   800C         SJMP      ??ZDApp_NetworkStartEvt_4
    952                }
    953              }
    954              else
    955              {
    956                osal_set_event( ZDAppTaskID, ZDO_STATE_CHANGE_EVT );
   \                     ??ZDApp_NetworkStartEvt_1:
   \   000045                ; Setup parameters for call to function osal_set_event
   \   000045   7A10         MOV       R2,#0x10
   \   000047   7B00         MOV       R3,#0x0
   \   000049   90....       MOV       DPTR,#ZDAppTaskID
   \   00004C   E0           MOVX      A,@DPTR
   \   00004D   F9           MOV       R1,A
   \   00004E   12....       LCALL     `??osal_set_event::?relay`; Banked call to: osal_set_event
    957              }
    958          
    959              osal_pwrmgr_device( PWRMGR_ALWAYS_ON );
   \                     ??ZDApp_NetworkStartEvt_4:
   \   000051                ; Setup parameters for call to function osal_pwrmgr_device
   \   000051   7900         MOV       R1,#0x0
   \   000053   12....       LCALL     `??osal_pwrmgr_device::?relay`; Banked call to: osal_pwrmgr_device
   \   000056   8037         SJMP      ??ZDApp_NetworkStartEvt_5
    960            }
    961            else
    962            {
    963              // Try again with a higher energy threshold
    964              if ( ( NLME_GetEnergyThreshold() + ENERGY_SCAN_INCREMENT ) < 0xff )
   \                     ??ZDApp_NetworkStartEvt_0:
   \   000058                ; Setup parameters for call to function NLME_GetEnergyThreshold
   \   000058   12....       LCALL     `??NLME_GetEnergyThreshold::?relay`; Banked call to: NLME_GetEnergyThreshold
   \   00005B   E9           MOV       A,R1
   \   00005C   7900         MOV       R1,#0x0
   \   00005E   2410         ADD       A,#0x10
   \   000060   5001         JNC       ??ZDApp_NetworkStartEvt_6
   \   000062   09           INC       R1
   \                     ??ZDApp_NetworkStartEvt_6:
   \   000063   C3           CLR       C
   \   000064   94FF         SUBB      A,#-0x1
   \   000066   E9           MOV       A,R1
   \   000067   9400         SUBB      A,#0x0
   \   000069   A2D2         MOV       C,0xD0 /* PSW */.2
   \   00006B   65D0         XRL       A,PSW
   \   00006D   33           RLC       A
   \   00006E   501A         JNC       ??ZDApp_NetworkStartEvt_7
    965              {
    966                NLME_SetEnergyThreshold( (uint8)(NLME_GetEnergyThreshold() + ENERGY_SCAN_INCREMENT) );
   \   000070                ; Setup parameters for call to function NLME_GetEnergyThreshold
   \   000070   12....       LCALL     `??NLME_GetEnergyThreshold::?relay`; Banked call to: NLME_GetEnergyThreshold
   \   000073   E9           MOV       A,R1
   \   000074   F8           MOV       R0,A
   \   000075                ; Setup parameters for call to function NLME_SetEnergyThreshold
   \   000075   7410         MOV       A,#0x10
   \   000077   29           ADD       A,R1
   \   000078   F9           MOV       R1,A
   \   000079   12....       LCALL     `??NLME_SetEnergyThreshold::?relay`; Banked call to: NLME_SetEnergyThreshold
    967                osal_set_event( ZDAppTaskID, ZDO_NETWORK_INIT );
   \   00007C                ; Setup parameters for call to function osal_set_event
   \   00007C   7A01         MOV       R2,#0x1
   \   00007E   7B00         MOV       R3,#0x0
   \   000080   90....       MOV       DPTR,#ZDAppTaskID
   \   000083   E0           MOVX      A,@DPTR
   \   000084   F9           MOV       R1,A
   \   000085   12....       LCALL     `??osal_set_event::?relay`; Banked call to: osal_set_event
   \   000088   8005         SJMP      ??ZDApp_NetworkStartEvt_5
    968              }
    969              else
    970              {
    971                bdb_nwkFormationAttempt(FALSE);
   \                     ??ZDApp_NetworkStartEvt_7:
   \   00008A                ; Setup parameters for call to function bdb_nwkFormationAttempt
   \   00008A   7900         MOV       R1,#0x0
   \   00008C   12....       LCALL     `??bdb_nwkFormationAttempt::?relay`; Banked call to: bdb_nwkFormationAttempt
    972              }
    973            }
    974          }
   \                     ??ZDApp_NetworkStartEvt_5:
   \   00008F   02....       LJMP      ??Subroutine38_0 & 0xFFFF
    975          
    976          /*********************************************************************
    977           * @fn      ZDApp_DeviceAuthEvt()
    978           *
    979           * @brief   Process the Device Authentic Event
    980           *
    981           * @param   none
    982           *
    983           * @return  none
    984           */

   \                                 In  segment BANKED_CODE, align 1, keep-with-next
    985          void ZDApp_DeviceAuthEvt( void )
   \                     ZDApp_DeviceAuthEvt:
    986          {
   \   000000   C082         PUSH      DPL
   \   000002   C083         PUSH      DPH
   \   000004                ; Saved register size: 2
   \   000004                ; Auto size: 0
    987            // received authentication from trust center
    988            if ( devState == DEV_END_DEVICE_UNAUTH )
   \   000004   90....       MOV       DPTR,#devState
   \   000007   E0           MOVX      A,@DPTR
   \   000008   6405         XRL       A,#0x5
   \   00000A   702C         JNZ       ??ZDApp_DeviceAuthEvt_0
    989            {
    990              // Stop the reset timer so it doesn't reset
    991              ZDApp_ResetTimerCancel();
   \   00000C                ; Setup parameters for call to function ZDApp_ResetTimerCancel
   \   00000C   12....       LCALL     `??ZDApp_ResetTimerCancel::?relay`; Banked call to: ZDApp_ResetTimerCancel
    992          
    993              ZDApp_ChangeState( DEV_END_DEVICE );
   \   00000F                ; Setup parameters for call to function ZDApp_ChangeState
   \   00000F   7906         MOV       R1,#0x6
   \   000011   12....       LCALL     `??ZDApp_ChangeState::?relay`; Banked call to: ZDApp_ChangeState
    994          
    995              // Set the Power Manager Device
    996          #if defined ( POWER_SAVING )
    997              osal_pwrmgr_device( PWRMGR_BATTERY );
    998          #endif
    999          
   1000              if ( ZSTACK_ROUTER_BUILD )
   1001              {
   1002                if ( ZDO_Config_Node_Descriptor.LogicalType != NODETYPE_DEVICE )
   1003                {
   1004                  // NOTE: first two parameters are not used, see NLMEDE.h for details
   1005                  NLME_StartRouterRequest( 0, 0, false );
   1006                }
   1007              }
   1008          
   1009              // Notify to save info into NV
   1010              ZDApp_NVUpdate();
   \   000014                ; Setup parameters for call to function ZDApp_NVUpdate
   \   000014   12....       LCALL     `??ZDApp_NVUpdate::?relay`; Banked call to: ZDApp_NVUpdate
   1011          
   1012              // Save off the security
   1013              ZDApp_SaveNwkKey();
   \   000017                ; Setup parameters for call to function ZDApp_SaveNwkKey
   \   000017   12....       LCALL     `??ZDApp_SaveNwkKey::?relay`; Banked call to: ZDApp_SaveNwkKey
   1014          
   1015              ZDApp_AnnounceNewAddress();
   \   00001A                ; Setup parameters for call to function ZDApp_AnnounceNewAddress
   \   00001A   12....       LCALL     `??ZDApp_AnnounceNewAddress::?relay`; Banked call to: ZDApp_AnnounceNewAddress
   1016          
   1017              if ( ( (ZDO_Config_Node_Descriptor.CapabilityFlags & CAPINFO_RCVR_ON_IDLE) == 0 )
   1018                  || ( (ZDO_Config_Node_Descriptor.CapabilityFlags & CAPINFO_RCVR_ON_IDLE)
   1019                    && (zgChildAgingEnable == TRUE) ) )
   \   00001D   90....       MOV       DPTR,#ZDO_Config_Node_Descriptor + 2
   \   000020   E0           MOVX      A,@DPTR
   \   000021   A2E3         MOV       C,0xE0 /* A   */.3
   \   000023   5008         JNC       ??ZDApp_DeviceAuthEvt_1
   \   000025   90....       MOV       DPTR,#zgChildAgingEnable
   \   000028   E0           MOVX      A,@DPTR
   \   000029   6401         XRL       A,#0x1
   \   00002B   700E         JNZ       ??ZDApp_DeviceAuthEvt_2
   1020              {
   1021                NLME_SetPollRate( ZDApp_SavedPollRate );
   \                     ??ZDApp_DeviceAuthEvt_1:
   \   00002D                ; Setup parameters for call to function NLME_SetPollRate
   \   00002D   90....       MOV       DPTR,#ZDApp_SavedPollRate
   \   000030   12....       LCALL     ?XLOAD_R2345
   \   000033   12....       LCALL     `??NLME_SetPollRate::?relay`; Banked call to: NLME_SetPollRate
   \   000036   8003         SJMP      ??ZDApp_DeviceAuthEvt_2
   1022              }
   1023            }
   1024            else
   1025            {
   1026              ZDApp_NVUpdate();
   \                     ??ZDApp_DeviceAuthEvt_0:
   \   000038                ; Setup parameters for call to function ZDApp_NVUpdate
   \   000038   12....       LCALL     `??ZDApp_NVUpdate::?relay`; Banked call to: ZDApp_NVUpdate
   1027            }
   1028          }
   \                     ??ZDApp_DeviceAuthEvt_2:
   \   00003B   02....       LJMP      ??Subroutine38_0 & 0xFFFF
   1029          
   1030          /*********************************************************************
   1031           * @fn      ZDApp_SaveNetworkStateEvt()
   1032           *
   1033           * @brief   Process the Save the Network State Event
   1034           *
   1035           * @param   none
   1036           *
   1037           * @return  none
   1038           */

   \                                 In  segment BANKED_CODE, align 1, keep-with-next
   1039          void ZDApp_SaveNetworkStateEvt( void )
   \                     ZDApp_SaveNetworkStateEvt:
   1040          {
   \   000000   C082         PUSH      DPL
   \   000002   C083         PUSH      DPH
   \   000004                ; Saved register size: 2
   \   000004                ; Auto size: 0
   1041          #if defined ( NV_RESTORE )
   1042           #if defined ( NV_TURN_OFF_RADIO )
   1043            // Turn off the radio's receiver during an NV update
   1044            uint8 RxOnIdle;
   1045            uint8 x = false;
   1046            ZMacGetReq( ZMacRxOnIdle, &RxOnIdle );
   1047            ZMacSetReq( ZMacRxOnIdle, &x );
   1048           #endif
   1049          
   1050            // Update the Network State in NV
   1051            NLME_UpdateNV( NWK_NV_NIB_ENABLE        |
   1052                           NWK_NV_DEVICELIST_ENABLE |
   1053                           NWK_NV_BINDING_ENABLE    |
   1054                           NWK_NV_ADDRMGR_ENABLE );
   \   000004                ; Setup parameters for call to function NLME_UpdateNV
   \   000004   790F         MOV       R1,#0xf
   \   000006   12....       LCALL     `??NLME_UpdateNV::?relay`; Banked call to: NLME_UpdateNV
   1055          
   1056            // Reset the NV startup option to resume from NV by
   1057            // clearing the "New" join option.
   1058            zgWriteStartupOptions( FALSE, ZCD_STARTOPT_DEFAULT_NETWORK_STATE );
   \   000009                ; Setup parameters for call to function zgWriteStartupOptions
   \   000009   7A02         MOV       R2,#0x2
   \   00000B   7900         MOV       R1,#0x0
   \   00000D   12....       LCALL     `??zgWriteStartupOptions::?relay`; Banked call to: zgWriteStartupOptions
   1059          
   1060           #if defined ( NV_TURN_OFF_RADIO )
   1061            ZMacSetReq( ZMacRxOnIdle, &RxOnIdle );
   1062           #endif
   1063          #endif // NV_RESTORE
   1064          }
   \   000010   02....       LJMP      ??Subroutine38_0 & 0xFFFF
   1065          
   1066          #if defined ( NV_RESTORE )
   1067          /*********************************************************************
   1068           * @fn      ZDApp_RestoreNetworkState()
   1069           *
   1070           * @brief   This function will restore the network state of the
   1071           *          device if the network state is stored in NV.
   1072           *
   1073           * @param   none
   1074           *
   1075           * @return
   1076           *    ZDO_INITDEV_RESTORED_NETWORK_STATE  - The device's network state was
   1077           *          restored.
   1078           *    ZDO_INITDEV_NEW_NETWORK_STATE - The network state was not used.
   1079           *          This could mean that zgStartupOption said to not restore, or
   1080           *          it could mean that there was no network state to restore.
   1081           *
   1082           */

   \                                 In  segment BANKED_CODE, align 1, keep-with-next
   1083          uint8 ZDApp_RestoreNetworkState( void )
   \                     ZDApp_RestoreNetworkState:
   1084          {
   \   000000   74F7         MOV       A,#-0x9
   \   000002   12....       LCALL     ?BANKED_ENTER_XDATA
   \   000005                ; Saved register size: 9
   \   000005                ; Auto size: 0
   1085            uint8 nvStat;
   1086          
   1087            // Initialize NWK NV items
   1088            nvStat = NLME_InitNV();
   \   000005                ; Setup parameters for call to function NLME_InitNV
   \   000005   12....       LCALL     `??NLME_InitNV::?relay`; Banked call to: NLME_InitNV
   \   000008   E9           MOV       A,R1
   \   000009   FE           MOV       R6,A
   1089          
   1090            if ( nvStat == SUCCESS )
   \   00000A   7039         JNZ       ??ZDApp_RestoreNetworkState_0
   1091            {
   1092              if ( NLME_RestoreFromNV() )
   \   00000C                ; Setup parameters for call to function NLME_RestoreFromNV
   \   00000C   12....       LCALL     `??NLME_RestoreFromNV::?relay`; Banked call to: NLME_RestoreFromNV
   \   00000F   E9           MOV       A,R1
   \   000010   602A         JZ        ??ZDApp_RestoreNetworkState_1
   1093              {
   1094                // Are we a coordinator
   1095                ZDAppNwkAddr.addr.shortAddr = NLME_GetShortAddr();
   \   000012                ; Setup parameters for call to function NLME_GetShortAddr
   \   000012   12....       LCALL     `??NLME_GetShortAddr::?relay`; Banked call to: NLME_GetShortAddr
   \   000015   90....       MOV       DPTR,#ZDAppNwkAddr
   \   000018   12....       LCALL     ??Subroutine47_0 & 0xFFFF
   1096                if ( ZDAppNwkAddr.addr.shortAddr == 0 )
   \                     ??CrossCallReturnLabel_78:
   \   00001B   90....       MOV       DPTR,#ZDAppNwkAddr
   \   00001E   12....       LCALL     ??Subroutine41_0 & 0xFFFF
   \                     ??CrossCallReturnLabel_48:
   \   000021   7007         JNZ       ??ZDApp_RestoreNetworkState_2
   1097                {
   1098                  ZDO_Config_Node_Descriptor.LogicalType = NODETYPE_COORDINATOR;
   \   000023   90....       MOV       DPTR,#ZDO_Config_Node_Descriptor
   \   000026   E0           MOVX      A,@DPTR
   \   000027   54F8         ANL       A,#0xf8
   \   000029   F0           MOVX      @DPTR,A
   1099                }
   1100                if(ZG_DEVICE_ENDDEVICE_TYPE) 
   1101                {
   1102                  devStartMode = MODE_REJOIN;
   \                     ??ZDApp_RestoreNetworkState_2:
   \   00002A   90....       MOV       DPTR,#devStartMode
   \   00002D   7403         MOV       A,#0x3
   \   00002F   F0           MOVX      @DPTR,A
   1103                  _NIB.nwkState = NWK_INIT;
   \   000030   90....       MOV       DPTR,#_NIB + 35
   \   000033   E4           CLR       A
   \   000034   12....       LCALL     ?Subroutine12 & 0xFFFF
   1104                }
   1105                else
   1106                {
   1107                  devStartMode = MODE_RESUME;
   1108                }
   1109                osal_cpyExtAddr( ZDO_UseExtendedPANID, _NIB.extendedPANID );
   1110              }
   \                     ??CrossCallReturnLabel_4:
   \   000037   12....       LCALL     `??sAddrExtCpy::?relay`; Banked call to: sAddrExtCpy
   \   00003A   8002         SJMP      ??ZDApp_RestoreNetworkState_3
   1111              else
   1112                nvStat = NV_ITEM_UNINIT;
   \                     ??ZDApp_RestoreNetworkState_1:
   \   00003C   7E09         MOV       R6,#0x9
   1113          
   1114              if ( ZG_SECURE_ENABLED )
   1115              {
   1116                nwkFrameCounterChanges = 0;
   \                     ??ZDApp_RestoreNetworkState_3:
   \   00003E   90....       MOV       DPTR,#nwkFrameCounterChanges
   \   000041   E4           CLR       A
   \   000042   F0           MOVX      @DPTR,A
   \   000043   A3           INC       DPTR
   \   000044   F0           MOVX      @DPTR,A
   1117          
   1118                if ( ZG_BUILD_COORDINATOR_TYPE && ZG_DEVICE_COORDINATOR_TYPE )
   1119                {
   1120                  ZDApp_RestoreNwkKey( TRUE );
   1121                }
   1122              }
   1123          
   1124              // The default for RxOnWhenIdle is true for Routers and false for end devices
   1125              // [setup in the NLME_RestoreFromNV()].  Change it here if you want something
   1126              // other than default.
   1127            }
   1128          
   1129            if ( nvStat == ZSUCCESS )
   \                     ??ZDApp_RestoreNetworkState_0:
   \   000045   EE           MOV       A,R6
   \   000046   7004         JNZ       ??ZDApp_RestoreNetworkState_4
   1130              return ( ZDO_INITDEV_RESTORED_NETWORK_STATE );
   \   000048   7900         MOV       R1,#0x0
   \   00004A   8002         SJMP      ??ZDApp_RestoreNetworkState_5
   1131            else
   1132              return ( ZDO_INITDEV_NEW_NETWORK_STATE );
   \                     ??ZDApp_RestoreNetworkState_4:
   \   00004C   7901         MOV       R1,#0x1
   \                     ??ZDApp_RestoreNetworkState_5:
   \   00004E   80..         SJMP      ??Subroutine34_0
   1133          }

   \                                 In  segment BANKED_CODE, align 1, keep-with-next
   \                     ?Subroutine12:
   \   000000   F0           MOVX      @DPTR,A
   \   000001                ; Setup parameters for call to function sAddrExtCpy
   \   000001                ; Setup parameters for call to function sAddrExtCpy
   \   000001   7C..         MOV       R4,#(_NIB + 53) & 0xff
   \   000003   7D..         MOV       R5,#((_NIB + 53) >> 8) & 0xff
   \   000005   7A..         MOV       R2,#ZDO_UseExtendedPANID & 0xff
   \   000007   7B..         MOV       R3,#(ZDO_UseExtendedPANID >> 8) & 0xff
   \   000009   22           RET

   \                                 In  segment BANKED_CODE, align 1, keep-with-next
   \                     ??Subroutine47_0:
   \   000000   EA           MOV       A,R2
   \   000001   F0           MOVX      @DPTR,A
   \   000002   A3           INC       DPTR
   \   000003   EB           MOV       A,R3
   \   000004   F0           MOVX      @DPTR,A
   \   000005   22           RET
   1134          #endif // NV_RESTORE
   1135          
   1136          /*********************************************************************
   1137           * @fn      ZDApp_InitUserDesc()
   1138           *
   1139           * @brief   Initialize the User Descriptor, the descriptor is read from NV
   1140           *          when needed.  If you want to initialize the User descriptor to
   1141           *          something other than all zero, do it here.
   1142           *
   1143           * @param   none
   1144           *
   1145           * @return  none
   1146           */

   \                                 In  segment BANKED_CODE, align 1, keep-with-next
   1147          void ZDApp_InitUserDesc( void )
   \                     ZDApp_InitUserDesc:
   1148          {
   \   000000                REQUIRE ?V0
   \   000000                REQUIRE ?V1
   \   000000   74F6         MOV       A,#-0xa
   \   000002   12....       LCALL     ?BANKED_ENTER_XDATA
   \   000005                ; Saved register size: 10
   \   000005                ; Auto size: 17
   \   000005   74EF         MOV       A,#-0x11
   \   000007   12....       LCALL     ?ALLOC_XSTACK8
   1149            UserDescriptorFormat_t ZDO_DefaultUserDescriptor;
   1150          
   1151            // Initialize the User Descriptor, the descriptor is read from NV
   1152            // when needed.  If you want to initialize the User descriptor to something
   1153            // other than all zero, do it here.
   1154            osal_memset( &ZDO_DefaultUserDescriptor, 0, sizeof( UserDescriptorFormat_t ) );
   \   00000A                ; Setup parameters for call to function osal_memset
   \   00000A   7C11         MOV       R4,#0x11
   \   00000C   7D00         MOV       R5,#0x0
   \   00000E   7900         MOV       R1,#0x0
   \   000010   AA..         MOV       R2,?XSP + 0
   \   000012   AB..         MOV       R3,?XSP + 1
   \   000014   12....       LCALL     `??osal_memset::?relay`; Banked call to: osal_memset
   1155            if ( ZSUCCESS == osal_nv_item_init( ZCD_NV_USERDESC,
   1156                   sizeof(UserDescriptorFormat_t), (void*)&ZDO_DefaultUserDescriptor ) )
   \   000017                ; Setup parameters for call to function osal_nv_item_init
   \   000017   A8..         MOV       R0,?XSP + 0
   \   000019   A9..         MOV       R1,?XSP + 1
   \   00001B   88..         MOV       ?V0,R0
   \   00001D   89..         MOV       ?V1,R1
   \   00001F   78..         MOV       R0,#?V0
   \   000021   12....       LCALL     ?PUSH_XSTACK_I_TWO
   \   000024   7C11         MOV       R4,#0x11
   \   000026   7D00         MOV       R5,#0x0
   \   000028   7A81         MOV       R2,#-0x7f
   \   00002A   7B00         MOV       R3,#0x0
   \   00002C   12....       LCALL     `??osal_nv_item_init::?relay`; Banked call to: osal_nv_item_init
   \   00002F   7402         MOV       A,#0x2
   \   000031   12....       LCALL     ?DEALLOC_XSTACK8
   \   000034   E9           MOV       A,R1
   \   000035   7033         JNZ       ??ZDApp_InitUserDesc_0
   1157            {
   1158              if ( ZSUCCESS == osal_nv_read( ZCD_NV_USERDESC, 0,
   1159                   sizeof(UserDescriptorFormat_t), (void*)&ZDO_DefaultUserDescriptor ) )
   \   000037                ; Setup parameters for call to function osal_nv_read
   \   000037   78..         MOV       R0,#?V0
   \   000039   12....       LCALL     ?PUSH_XSTACK_I_TWO
   \   00003C   75..11       MOV       ?V0,#0x11
   \   00003F   75..00       MOV       ?V1,#0x0
   \   000042   78..         MOV       R0,#?V0
   \   000044   12....       LCALL     ?PUSH_XSTACK_I_TWO
   \   000047   7C00         MOV       R4,#0x0
   \   000049   7D00         MOV       R5,#0x0
   \   00004B   7A81         MOV       R2,#-0x7f
   \   00004D   7B00         MOV       R3,#0x0
   \   00004F   12....       LCALL     `??osal_nv_read::?relay`; Banked call to: osal_nv_read
   \   000052   7404         MOV       A,#0x4
   \   000054   12....       LCALL     ?DEALLOC_XSTACK8
   \   000057   E9           MOV       A,R1
   \   000058   7010         JNZ       ??ZDApp_InitUserDesc_0
   1160              {
   1161                if ( ZDO_DefaultUserDescriptor.len != 0 )
   \   00005A   85..82       MOV       DPL,?XSP + 0
   \   00005D   85..83       MOV       DPH,?XSP + 1
   \   000060   E0           MOVX      A,@DPTR
   \   000061   6007         JZ        ??ZDApp_InitUserDesc_0
   1162                {
   1163                  ZDO_Config_Node_Descriptor.UserDescAvail = TRUE;
   \   000063   90....       MOV       DPTR,#ZDO_Config_Node_Descriptor
   \   000066   E0           MOVX      A,@DPTR
   \   000067   D2E4         SETB      0xE0 /* A   */.4
   \   000069   F0           MOVX      @DPTR,A
   1164                }
   1165              }
   1166            }
   1167          }
   \                     ??ZDApp_InitUserDesc_0:
   \   00006A   7411         MOV       A,#0x11
   \   00006C   02....       LJMP      ??Subroutine45_0 & 0xFFFF

   \                                 In  segment BANKED_CODE, align 1, keep-with-next
   \                     ??Subroutine45_0:
   \   000000   12....       LCALL     ?DEALLOC_XSTACK8
   \   000003                REQUIRE ??Subroutine46_0
   \   000003                ; // Fall through to label ??Subroutine46_0

   \                                 In  segment BANKED_CODE, align 1, keep-with-next
   \                     ??Subroutine46_0:
   \   000000   7F02         MOV       R7,#0x2
   \   000002   02....       LJMP      ?BANKED_LEAVE_XDATA
   1168          
   1169          /*********************************************************************
   1170           * @fn      ZDAppCheckForHoldKey()
   1171           *
   1172           * @brief   Check for key to set the device into Hold Auto Start
   1173           *
   1174           * @param   none
   1175           *
   1176           * @return  none
   1177           */

   \                                 In  segment BANKED_CODE, align 1, keep-with-next
   1178          void ZDAppCheckForHoldKey( void )
   \                     ZDAppCheckForHoldKey:
   1179          {
   \   000000   C082         PUSH      DPL
   \   000002   C083         PUSH      DPH
   \   000004                ; Saved register size: 2
   \   000004                ; Auto size: 0
   1180          #if (defined HAL_KEY) && (HAL_KEY == TRUE)
   1181          
   1182            // Get Keypad directly to see if a HOLD is needed
   1183            zdappHoldKeys = HalKeyRead();
   \   000004                ; Setup parameters for call to function HalKeyRead
   \   000004   12....       LCALL     `??HalKeyRead::?relay`; Banked call to: HalKeyRead
   \   000007   E9           MOV       A,R1
   \   000008   90....       MOV       DPTR,#zdappHoldKeys
   \   00000B   F0           MOVX      @DPTR,A
   1184          
   1185            // Hold down the SW_BYPASS_START key (see OnBoard.h)
   1186            // while booting to avoid starting up the device.
   1187            if ( zdappHoldKeys == SW_BYPASS_START )
   \   00000C   6401         XRL       A,#0x1
   \   00000E   7005         JNZ       ??ZDAppCheckForHoldKey_0
   1188            {
   1189              // Change the device state to HOLD on start up
   1190              devState = DEV_HOLD;
   \   000010   90....       MOV       DPTR,#devState
   \   000013   E4           CLR       A
   \   000014   F0           MOVX      @DPTR,A
   1191            }
   1192          #endif // HAL_KEY
   1193          }
   \                     ??ZDAppCheckForHoldKey_0:
   \   000015   02....       LJMP      ??Subroutine38_0 & 0xFFFF
   1194          
   1195          /*********************************************************************
   1196           * @fn      ZDApp_ProcessOSALMsg()
   1197           *
   1198           * @brief   Process the incoming task message.
   1199           *
   1200           * @param   msgPtr - message to process
   1201           *
   1202           * @return  none
   1203           */

   \                                 In  segment BANKED_CODE, align 1, keep-with-next
   1204          void ZDApp_ProcessOSALMsg( osal_event_hdr_t *msgPtr )
   \                     ZDApp_ProcessOSALMsg:
   1205          {
   \   000000                REQUIRE ?V0
   \   000000                REQUIRE ?V1
   \   000000   74F6         MOV       A,#-0xa
   \   000002   12....       LCALL     ?BANKED_ENTER_XDATA
   \   000005                ; Saved register size: 10
   \   000005                ; Auto size: 0
   1206            // Data Confirmation message fields
   1207            uint8 sentEP;       // This should always be 0
   1208            uint8 sentStatus;
   1209            afDataConfirm_t *afDataConfirm;
   1210          
   1211          
   1212            switch ( msgPtr->event )
   \   000005   8A82         MOV       DPL,R2
   \   000007   8B83         MOV       DPH,R3
   \   000009   E0           MOVX      A,@DPTR
   \   00000A   14           DEC       A
   \   00000B   601B         JZ        ??ZDApp_ProcessOSALMsg_0
   \   00000D   14           DEC       A
   \   00000E   6053         JZ        ??ZDApp_ProcessOSALMsg_1
   \   000010   24E8         ADD       A,#-0x18
   \   000012   600A         JZ        ??ZDApp_ProcessOSALMsg_2
   \   000014   2447         ADD       A,#0x47
   \   000016   600B         JZ        ??ZDApp_ProcessOSALMsg_3
   \   000018   24D6         ADD       A,#-0x2a
   \   00001A   6070         JZ        ??ZDApp_ProcessOSALMsg_4
   \   00001C   806B         SJMP      ??ZDApp_ProcessOSALMsg_5
   1213            {
   1214              // Incoming ZDO Message
   1215              case AF_INCOMING_MSG_CMD:
   1216                ZDP_IncomingData( (afIncomingMSGPacket_t *)msgPtr );
   \                     ??ZDApp_ProcessOSALMsg_2:
   \   00001E                ; Setup parameters for call to function ZDP_IncomingData
   \   00001E   12....       LCALL     `??ZDP_IncomingData::?relay`; Banked call to: ZDP_IncomingData
   1217                break;
   \   000021   8069         SJMP      ??ZDApp_ProcessOSALMsg_4
   1218          
   1219              case ZDO_CB_MSG:
   1220                ZDApp_ProcessMsgCBs( (zdoIncomingMsg_t *)msgPtr );
   \                     ??ZDApp_ProcessOSALMsg_3:
   \   000023                ; Setup parameters for call to function ZDApp_ProcessMsgCBs
   \   000023   12....       LCALL     `??ZDApp_ProcessMsgCBs::?relay`; Banked call to: ZDApp_ProcessMsgCBs
   1221                break;
   \   000026   8064         SJMP      ??ZDApp_ProcessOSALMsg_4
   1222          
   1223              case AF_DATA_CONFIRM_CMD:
   1224                // This message is received as a confirmation of a data packet sent.
   1225                // The status is of ZStatus_t type [defined in NLMEDE.h]
   1226                // The message fields are defined in AF.h
   1227                afDataConfirm = (afDataConfirm_t *)msgPtr;
   1228                sentEP = afDataConfirm->endpoint;
   1229                sentStatus = afDataConfirm->hdr.status;
   1230          
   1231                // Action taken when confirmation is received.
   1232          #if defined ( ZIGBEE_FREQ_AGILITY )
   1233                if ( pZDNwkMgr_ProcessDataConfirm )
   1234                  pZDNwkMgr_ProcessDataConfirm( afDataConfirm );
   1235          #endif
   1236                (void)sentEP;
   1237                (void)sentStatus;
   1238                break;
   1239          
   1240              case ZDO_NWK_DISC_CNF:
   1241                if (devState != DEV_NWK_DISC)
   \                     ??ZDApp_ProcessOSALMsg_0:
   \   000028   90....       MOV       DPTR,#devState
   \   00002B   E0           MOVX      A,@DPTR
   \   00002C   6402         XRL       A,#0x2
   \   00002E   705C         JNZ       ??ZDApp_ProcessOSALMsg_4
   1242                {
   1243                  break;
   1244                }
   1245                if ( ZG_BUILD_JOINING_TYPE && ZG_DEVICE_JOINING_TYPE )
   \   000030   90....       MOV       DPTR,#zgDeviceLogicalType
   \   000033   E0           MOVX      A,@DPTR
   \   000034   6401         XRL       A,#0x1
   \   000036   6005         JZ        ??ZDApp_ProcessOSALMsg_6
   \   000038   E0           MOVX      A,@DPTR
   \   000039   6402         XRL       A,#0x2
   \   00003B   704F         JNZ       ??ZDApp_ProcessOSALMsg_4
   1246                {
   1247                  //Rejoin or resume
   1248                  if(bdb_isDeviceNonFactoryNew()) 
   \                     ??ZDApp_ProcessOSALMsg_6:
   \   00003D                ; Setup parameters for call to function bdb_isDeviceNonFactoryNew
   \   00003D   12....       LCALL     `??bdb_isDeviceNonFactoryNew::?relay`; Banked call to: bdb_isDeviceNonFactoryNew
   \   000040   E9           MOV       A,R1
   \   000041   600B         JZ        ??ZDApp_ProcessOSALMsg_7
   1249                  {
   1250                    if(bdb_rejoinNwk() == ZSuccess)
   \   000043                ; Setup parameters for call to function bdb_rejoinNwk
   \   000043   12....       LCALL     `??bdb_rejoinNwk::?relay`; Banked call to: bdb_rejoinNwk
   \   000046   E9           MOV       A,R1
   \   000047   6043         JZ        ??ZDApp_ProcessOSALMsg_4
   1251                    {
   1252                      return;
   1253                    }
   1254          #if (ZG_BUILD_ENDDEVICE_TYPE)
   1255                    else
   1256                    {
   1257                      if(ZG_DEVICE_ENDDEVICE_TYPE)
   1258                      {
   1259                        bdb_parentLost();
   \   000049                ; Setup parameters for call to function bdb_parentLost
   \   000049   12....       LCALL     `??bdb_parentLost::?relay`; Banked call to: bdb_parentLost
   1260                        return;
   \   00004C   803E         SJMP      ??ZDApp_ProcessOSALMsg_4
   1261                      }
   1262                    }
   1263          #endif
   1264                  }
   1265                  
   1266                  if(nwk_getNwkDescList())
   \                     ??ZDApp_ProcessOSALMsg_7:
   \   00004E                ; Setup parameters for call to function nwk_getNwkDescList
   \   00004E   12....       LCALL     `??nwk_getNwkDescList::?relay`; Banked call to: nwk_getNwkDescList
   \   000051   8B..         MOV       ?V1,R3
   \   000053   EA           MOV       A,R2
   \   000054   45..         ORL       A,?V1
   \   000056   6004         JZ        ??ZDApp_ProcessOSALMsg_8
   1267                  {
   1268                    bdb_nwkDiscoveryAttempt(TRUE);
   \   000058                ; Setup parameters for call to function bdb_nwkDiscoveryAttempt
   \   000058   7901         MOV       R1,#0x1
   \   00005A   8002         SJMP      ??ZDApp_ProcessOSALMsg_9
   1269                  }
   1270                  else
   1271                  {
   1272                    bdb_nwkDiscoveryAttempt(FALSE);
   \                     ??ZDApp_ProcessOSALMsg_8:
   \   00005C                ; Setup parameters for call to function bdb_nwkDiscoveryAttempt
   \   00005C   7900         MOV       R1,#0x0
   \                     ??ZDApp_ProcessOSALMsg_9:
   \   00005E   12....       LCALL     `??bdb_nwkDiscoveryAttempt::?relay`; Banked call to: bdb_nwkDiscoveryAttempt
   \   000061   8029         SJMP      ??ZDApp_ProcessOSALMsg_4
   1273                  }
   1274                }
   1275              break;
   1276          
   1277              case ZDO_NWK_JOIN_IND:
   1278                if ( ZG_BUILD_JOINING_TYPE && ZG_DEVICE_JOINING_TYPE )
   \                     ??ZDApp_ProcessOSALMsg_1:
   \   000063   90....       MOV       DPTR,#zgDeviceLogicalType
   \   000066   E0           MOVX      A,@DPTR
   \   000067   6401         XRL       A,#0x1
   \   000069   6005         JZ        ??ZDApp_ProcessOSALMsg_10
   \   00006B   E0           MOVX      A,@DPTR
   \   00006C   6402         XRL       A,#0x2
   \   00006E   701C         JNZ       ??ZDApp_ProcessOSALMsg_4
   1279                {
   1280                  if((bdbCommissioningProcedureState.bdbCommissioningState == BDB_INITIALIZATION) || (bdbCommissioningProcedureState.bdbCommissioningState == BDB_PARENT_LOST))
   \                     ??ZDApp_ProcessOSALMsg_10:
   \   000070   90....       MOV       DPTR,#bdbCommissioningProcedureState
   \   000073   E0           MOVX      A,@DPTR
   \   000074   6407         XRL       A,#0x7
   \   000076   6005         JZ        ??ZDApp_ProcessOSALMsg_11
   \   000078   E0           MOVX      A,@DPTR
   \   000079   6408         XRL       A,#0x8
   \   00007B   7007         JNZ       ??ZDApp_ProcessOSALMsg_12
   1281                  {
   1282                    bdb_reportCommissioningState(bdbCommissioningProcedureState.bdbCommissioningState,TRUE);
   \                     ??ZDApp_ProcessOSALMsg_11:
   \   00007D                ; Setup parameters for call to function bdb_reportCommissioningState
   \   00007D   7A01         MOV       R2,#0x1
   \   00007F   E0           MOVX      A,@DPTR
   \   000080   F9           MOV       R1,A
   \   000081   12....       LCALL     `??bdb_reportCommissioningState::?relay`; Banked call to: bdb_reportCommissioningState
   1283                  }
   1284                  ZDApp_ProcessNetworkJoin();
   \                     ??ZDApp_ProcessOSALMsg_12:
   \   000084                ; Setup parameters for call to function ZDApp_ProcessNetworkJoin
   \   000084   12....       LCALL     `??ZDApp_ProcessNetworkJoin::?relay`; Banked call to: ZDApp_ProcessNetworkJoin
   \   000087   8003         SJMP      ??ZDApp_ProcessOSALMsg_4
   1285                }
   1286                break;
   1287          
   1288              default:
   1289                if ( ZG_SECURE_ENABLED )
   1290                  ZDApp_ProcessSecMsg( msgPtr );
   \                     ??ZDApp_ProcessOSALMsg_5:
   \   000089                ; Setup parameters for call to function ZDApp_ProcessSecMsg
   \   000089   12....       LCALL     `??ZDApp_ProcessSecMsg::?relay`; Banked call to: ZDApp_ProcessSecMsg
   1291                break;
   1292            }
   1293          
   1294          }
   \                     ??ZDApp_ProcessOSALMsg_4:
   \   00008C   02....       LJMP      ??Subroutine46_0 & 0xFFFF
   1295          
   1296          /*********************************************************************
   1297           * @fn      ZDApp_ProcessMsgCBs()
   1298           *
   1299           * @brief   Process response messages
   1300           *
   1301           * @param   none
   1302           *
   1303           * @return  none
   1304           */

   \                                 In  segment BANKED_CODE, align 1, keep-with-next
   1305          void ZDApp_ProcessMsgCBs( zdoIncomingMsg_t *inMsg )
   \                     ZDApp_ProcessMsgCBs:
   1306          {
   \   000000                REQUIRE ?V0
   \   000000                REQUIRE ?V1
   \   000000   74F6         MOV       A,#-0xa
   \   000002   12....       LCALL     ?BANKED_ENTER_XDATA
   \   000005                ; Saved register size: 10
   \   000005                ; Auto size: 21
   \   000005   74EB         MOV       A,#-0x15
   \   000007   12....       LCALL     ?ALLOC_XSTACK8
   \   00000A   12....       LCALL     ?Subroutine24 & 0xFFFF
   1307            switch ( inMsg->clusterID )
   \                     ??CrossCallReturnLabel_29:
   \   00000D   E0           MOVX      A,@DPTR
   \   00000E   F5..         MOV       ?V0,A
   \   000010   A3           INC       DPTR
   \   000011   E0           MOVX      A,@DPTR
   \   000012   F5..         MOV       ?V1,A
   \   000014   78..         MOV       R0,#?V0
   \   000016   12....       LCALL     ?US_SWITCH_SPARSE
   \                     `?<Jumptable for ZDApp_ProcessMsgCBs>_0`:
   \   000019   0200         DW        2
   \   00001B   2100         DW        33
   \   00001D   2200         DW        34
   \   00001F   ....         DW        ??ZDApp_ProcessMsgCBs_0
   \   000021   0080         DW        32768
   \   000023   0180         DW        32769
   \   000025   ....         DW        ??ZDApp_ProcessMsgCBs_1
   \   000027   0000         DW        0
   \   000029   ....         DW        ??ZDApp_ProcessMsgCBs_2
   1308            {
   1309          #if defined ( ZDO_NWKADDR_REQUEST ) || defined ( ZDO_IEEEADDR_REQUEST ) || defined ( REFLECTOR )
   1310              case NWK_addr_rsp:
   1311              case IEEE_addr_rsp:
   1312                {
   1313                  ZDO_NwkIEEEAddrResp_t *pAddrRsp;
   1314          
   1315                  pAddrRsp = ZDO_ParseAddrRsp( inMsg );
   \                     ??ZDApp_ProcessMsgCBs_1:
   \   00002B                ; Setup parameters for call to function ZDO_ParseAddrRsp
   \   00002B   12....       LCALL     `??ZDO_ParseAddrRsp::?relay`; Banked call to: ZDO_ParseAddrRsp
   \   00002E   8A..         MOV       ?V0,R2
   \   000030   8B..         MOV       ?V1,R3
   \   000032   AE..         MOV       R6,?V0
   \   000034   AF..         MOV       R7,?V1
   1316                  if ( pAddrRsp )
   \   000036   EE           MOV       A,R6
   \   000037   4F           ORL       A,R7
   \   000038   6030         JZ        ??ZDApp_ProcessMsgCBs_2
   1317                  {
   1318                    if ( pAddrRsp->status == ZSuccess )
   \   00003A   8E82         MOV       DPL,R6
   \   00003C   8F83         MOV       DPH,R7
   \   00003E   E0           MOVX      A,@DPTR
   \   00003F   700E         JNZ       ??ZDApp_ProcessMsgCBs_3
   1319                    {
   1320                      ZDO_UpdateAddrManager( pAddrRsp->nwkAddr, pAddrRsp->extAddr );
   \   000041                ; Setup parameters for call to function ZDO_UpdateAddrManager
   \   000041   EE           MOV       A,R6
   \   000042   2403         ADD       A,#0x3
   \   000044   FC           MOV       R4,A
   \   000045   E4           CLR       A
   \   000046   3F           ADDC      A,R7
   \   000047   FD           MOV       R5,A
   \   000048   A3           INC       DPTR
   \   000049   12....       LCALL     ?Subroutine19 & 0xFFFF
   1321                    }
   \                     ??CrossCallReturnLabel_20:
   \   00004C   12....       LCALL     `??ZDO_UpdateAddrManager::?relay`; Banked call to: ZDO_UpdateAddrManager
   1322          
   1323          #if defined ( ZDP_BIND_VALIDATION )
   1324                    // look for pending bind entry for NWK_addr_rsp Only
   1325                    if ( inMsg->clusterID == NWK_addr_rsp )
   1326                    {
   1327          #if defined ( REFLECTOR )
   1328                      ZDApp_ProcessPendingBindReq( pAddrRsp->extAddr );
   1329          #endif
   1330                    }
   1331          #endif
   1332          
   1333                    osal_mem_free( pAddrRsp );
   \                     ??ZDApp_ProcessMsgCBs_3:
   \   00004F                ; Setup parameters for call to function osal_mem_free
   \   00004F   EE           MOV       A,R6
   \   000050   FA           MOV       R2,A
   \   000051   EF           MOV       A,R7
   \   000052   FB           MOV       R3,A
   \   000053   12....       LCALL     `??osal_mem_free::?relay`; Banked call to: osal_mem_free
   \   000056   8012         SJMP      ??ZDApp_ProcessMsgCBs_2
   1334                  }
   1335                }
   1336                break;
   1337          #endif
   1338          
   1339          #if defined ( REFLECTOR )
   1340              case Bind_req:
   1341              case Unbind_req:
   1342                {
   1343                  ZDO_BindUnbindReq_t bindReq;
   1344                  ZDO_ParseBindUnbindReq( inMsg, &bindReq );
   \                     ??ZDApp_ProcessMsgCBs_0:
   \   000058                ; Setup parameters for call to function ZDO_ParseBindUnbindReq
   \   000058   AC..         MOV       R4,?XSP + 0
   \   00005A   AD..         MOV       R5,?XSP + 1
   \   00005C   12....       LCALL     `??ZDO_ParseBindUnbindReq::?relay`; Banked call to: ZDO_ParseBindUnbindReq
   1345                  ZDO_ProcessBindUnbindReq( inMsg, &bindReq );
   \   00005F                ; Setup parameters for call to function ZDO_ProcessBindUnbindReq
   \   00005F   AC..         MOV       R4,?XSP + 0
   \   000061   AD..         MOV       R5,?XSP + 1
   \   000063   EE           MOV       A,R6
   \   000064   FA           MOV       R2,A
   \   000065   EF           MOV       A,R7
   \   000066   FB           MOV       R3,A
   \   000067   12....       LCALL     `??ZDO_ProcessBindUnbindReq::?relay`; Banked call to: ZDO_ProcessBindUnbindReq
   1346                }
   1347                break;
   1348          #endif
   1349          
   1350          #if ( ZG_BUILD_COORDINATOR_TYPE )
   1351              case Bind_rsp:
   1352              case Unbind_rsp:
   1353                if (ZG_DEVICE_COORDINATOR_TYPE && matchED)
   1354                {
   1355                  ZDMatchSendState(
   1356                       (uint8)((inMsg->clusterID == Bind_rsp) ? ZDMATCH_REASON_BIND_RSP : ZDMATCH_REASON_UNBIND_RSP),
   1357                       ZDO_ParseBindRsp(inMsg), inMsg->TransSeq );
   1358                }
   1359                break;
   1360          
   1361              case End_Device_Bind_req:
   1362          #ifdef ZDO_ENDDEVICEBIND_RESPONSE
   1363                if (ZG_DEVICE_COORDINATOR_TYPE)
   1364                {
   1365                  ZDEndDeviceBind_t bindReq;
   1366                  ZDO_ParseEndDeviceBindReq( inMsg, &bindReq );
   1367                  ZDO_MatchEndDeviceBind( &bindReq );
   1368          
   1369                  // Freeing the cluster lists - if allocated.
   1370                  if ( bindReq.numInClusters )
   1371                    osal_mem_free( bindReq.inClusters );
   1372                  if ( bindReq.numOutClusters )
   1373                    osal_mem_free( bindReq.outClusters );
   1374                }
   1375          #endif
   1376                break;
   1377          #endif
   1378            }
   1379          }
   \                     ??ZDApp_ProcessMsgCBs_2:
   \   00006A                REQUIRE ?Subroutine7
   \   00006A                ; // Fall through to label ?Subroutine7

   \                                 In  segment BANKED_CODE, align 1, keep-with-next
   \                     ?Subroutine7:
   \   000000   7415         MOV       A,#0x15
   \   000002   02....       LJMP      ??Subroutine45_0 & 0xFFFF

   \                                 In  segment BANKED_CODE, align 1, keep-with-next
   \                     ?Subroutine24:
   \   000000   EA           MOV       A,R2
   \   000001   FE           MOV       R6,A
   \   000002   EB           MOV       A,R3
   \   000003   FF           MOV       R7,A
   \   000004   EE           MOV       A,R6
   \   000005   240C         ADD       A,#0xc
   \   000007   F582         MOV       DPL,A
   \   000009   E4           CLR       A
   \   00000A   3F           ADDC      A,R7
   \   00000B   F583         MOV       DPH,A
   \   00000D   22           RET
   1380          
   1381          /*********************************************************************
   1382           * @fn      ZDApp_RegisterCBs()
   1383           *
   1384           * @brief   Process response messages
   1385           *
   1386           * @param   none
   1387           *
   1388           * @return  none
   1389           */

   \                                 In  segment BANKED_CODE, align 1, keep-with-next
   1390          void ZDApp_RegisterCBs( void )
   \                     ZDApp_RegisterCBs:
   1391          {
   \   000000   C082         PUSH      DPL
   \   000002   C083         PUSH      DPH
   \   000004                ; Saved register size: 2
   \   000004                ; Auto size: 0
   1392          #if defined ( ZDO_IEEEADDR_REQUEST ) || defined ( REFLECTOR )
   1393            ZDO_RegisterForZDOMsg( ZDAppTaskID, IEEE_addr_rsp );
   \   000004                ; Setup parameters for call to function ZDO_RegisterForZDOMsg
   \   000004   7A01         MOV       R2,#0x1
   \   000006   7B80         MOV       R3,#-0x80
   \   000008   90....       MOV       DPTR,#ZDAppTaskID
   \   00000B   E0           MOVX      A,@DPTR
   \   00000C   F9           MOV       R1,A
   \   00000D   12....       LCALL     `??ZDO_RegisterForZDOMsg::?relay`; Banked call to: ZDO_RegisterForZDOMsg
   1394          #endif
   1395          #if defined ( ZDO_NWKADDR_REQUEST ) || defined ( REFLECTOR )
   1396            ZDO_RegisterForZDOMsg( ZDAppTaskID, NWK_addr_rsp );
   \   000010                ; Setup parameters for call to function ZDO_RegisterForZDOMsg
   \   000010   7A00         MOV       R2,#0x0
   \   000012   7B80         MOV       R3,#-0x80
   \   000014   90....       MOV       DPTR,#ZDAppTaskID
   \   000017   E0           MOVX      A,@DPTR
   \   000018   F9           MOV       R1,A
   \   000019   12....       LCALL     `??ZDO_RegisterForZDOMsg::?relay`; Banked call to: ZDO_RegisterForZDOMsg
   1397          #endif
   1398          #if ZG_BUILD_COORDINATOR_TYPE
   1399            ZDO_RegisterForZDOMsg( ZDAppTaskID, Bind_rsp );
   1400            ZDO_RegisterForZDOMsg( ZDAppTaskID, Unbind_rsp );
   1401          #ifdef ZDO_ENDDEVICEBIND_RESPONSE
   1402            ZDO_RegisterForZDOMsg( ZDAppTaskID, End_Device_Bind_req );
   1403          #endif
   1404          #endif
   1405          #if defined ( REFLECTOR )
   1406            ZDO_RegisterForZDOMsg( ZDAppTaskID, Bind_req );
   \   00001C                ; Setup parameters for call to function ZDO_RegisterForZDOMsg
   \   00001C   7A21         MOV       R2,#0x21
   \   00001E   7B00         MOV       R3,#0x0
   \   000020   90....       MOV       DPTR,#ZDAppTaskID
   \   000023   E0           MOVX      A,@DPTR
   \   000024   F9           MOV       R1,A
   \   000025   12....       LCALL     `??ZDO_RegisterForZDOMsg::?relay`; Banked call to: ZDO_RegisterForZDOMsg
   1407            ZDO_RegisterForZDOMsg( ZDAppTaskID, Unbind_req );
   \   000028                ; Setup parameters for call to function ZDO_RegisterForZDOMsg
   \   000028   7A22         MOV       R2,#0x22
   \   00002A   7B00         MOV       R3,#0x0
   \   00002C   90....       MOV       DPTR,#ZDAppTaskID
   \   00002F   E0           MOVX      A,@DPTR
   \   000030   F9           MOV       R1,A
   \   000031   12....       LCALL     `??ZDO_RegisterForZDOMsg::?relay`; Banked call to: ZDO_RegisterForZDOMsg
   1408          #endif
   1409          }
   \   000034   02....       LJMP      ??Subroutine38_0 & 0xFFFF
   1410          
   1411          /*********************************************************************
   1412           * @fn      ZDApp_ProcessSecMsg()
   1413           *
   1414           * @brief   Process the incoming security message.
   1415           *
   1416           * @param   msgPtr - message to process
   1417           *
   1418           * @return  none
   1419           */

   \                                 In  segment BANKED_CODE, align 1, keep-with-next
   1420          void ZDApp_ProcessSecMsg( osal_event_hdr_t *msgPtr )
   \                     ZDApp_ProcessSecMsg:
   1421          {
   \   000000   C082         PUSH      DPL
   \   000002   C083         PUSH      DPH
   \   000004                ; Saved register size: 2
   \   000004                ; Auto size: 0
   1422            switch ( msgPtr->event )
   \   000004   8A82         MOV       DPL,R2
   \   000006   8B83         MOV       DPH,R3
   \   000008   E0           MOVX      A,@DPTR
   \   000009   24FC         ADD       A,#-0x4
   \   00000B   6006         JZ        ??ZDApp_ProcessSecMsg_0
   \   00000D   24FC         ADD       A,#-0x4
   \   00000F   6014         JZ        ??ZDApp_ProcessSecMsg_1
   \   000011   8022         SJMP      ??ZDApp_ProcessSecMsg_2
   1423            {
   1424              case ZDO_TRANSPORT_KEY_IND:
   1425                if ( ZG_BUILD_JOINING_TYPE && ZG_DEVICE_JOINING_TYPE )
   \                     ??ZDApp_ProcessSecMsg_0:
   \   000013   90....       MOV       DPTR,#zgDeviceLogicalType
   \   000016   E0           MOVX      A,@DPTR
   \   000017   6401         XRL       A,#0x1
   \   000019   6005         JZ        ??ZDApp_ProcessSecMsg_3
   \   00001B   E0           MOVX      A,@DPTR
   \   00001C   6402         XRL       A,#0x2
   \   00001E   7015         JNZ       ??ZDApp_ProcessSecMsg_2
   1426                {
   1427                  ZDSecMgrTransportKeyInd( (ZDO_TransportKeyInd_t*)msgPtr );
   \                     ??ZDApp_ProcessSecMsg_3:
   \   000020                ; Setup parameters for call to function ZDSecMgrTransportKeyInd
   \   000020   12....       LCALL     `??ZDSecMgrTransportKeyInd::?relay`; Banked call to: ZDSecMgrTransportKeyInd
   \   000023   8010         SJMP      ??ZDApp_ProcessSecMsg_2
   1428                }
   1429                break;
   1430          
   1431              case ZDO_UPDATE_DEVICE_IND:
   1432                if ( ZG_BUILD_COORDINATOR_TYPE && ZG_DEVICE_COORDINATOR_TYPE )
   1433                {
   1434                  ZDSecMgrUpdateDeviceInd( (ZDO_UpdateDeviceInd_t*)msgPtr );
   1435                  
   1436                  // Look at GP proxy table for posible conflict with GPD alias NwkAddr
   1437          #if !defined (DISABLE_GREENPOWER_BASIC_PROXY) && (ZG_BUILD_RTR_TYPE)
   1438                  ZDO_DeviceAnnce_t devAnnce;
   1439                  uint8 invalidIEEE[Z_EXTADDR_LEN] = {0xFF};
   1440                  
   1441                  osal_memcpy( devAnnce.extAddr, ((ZDO_UpdateDeviceInd_t*)msgPtr)->devExtAddr, Z_EXTADDR_LEN );
   1442                  devAnnce.nwkAddr = ((ZDO_UpdateDeviceInd_t*)msgPtr)->devAddr;
   1443                  
   1444                  // Check GP proxy table to update the entry if necesary
   1445                  if( osal_memcmp( devAnnce.extAddr, invalidIEEE, Z_EXTADDR_LEN ) )
   1446                  {
   1447                    if( osal_get_timeoutEx( gp_TaskID, GP_PROXY_ALIAS_CONFLICT_TIMEOUT ) )
   1448                    {
   1449                      if ( osal_memcmp( &devAnnce, &GP_aliasConflictAnnce, sizeof( ZDO_DeviceAnnce_t ) ) )
   1450                      {
   1451                        osal_stop_timerEx( gp_TaskID, GP_PROXY_ALIAS_CONFLICT_TIMEOUT );
   1452                      }
   1453                    }
   1454                  }
   1455                  else
   1456                  {
   1457                    if(GP_CheckAnnouncedDeviceGCB != NULL)
   1458                    {
   1459                      GP_CheckAnnouncedDeviceGCB( devAnnce.extAddr, devAnnce.nwkAddr );
   1460                    }          
   1461                  }
   1462          #endif
   1463                }
   1464                break;
   1465          
   1466              case ZDO_REMOVE_DEVICE_IND:
   1467                if ( ZG_BUILD_RTRONLY_TYPE && ( zgDeviceLogicalType == ZG_DEVICETYPE_ROUTER ) )
   1468                {
   1469                  ZDSecMgrRemoveDeviceInd( (ZDO_RemoveDeviceInd_t*)msgPtr );
   1470                }
   1471                break;
   1472          
   1473              case ZDO_REQUEST_KEY_IND:
   1474                if ( ( ZG_CHECK_SECURITY_MODE == ZG_SECURITY_SE_STANDARD ) )
   1475                {
   1476                  if ( ZG_BUILD_COORDINATOR_TYPE && ZG_DEVICE_COORDINATOR_TYPE )
   1477                  {
   1478                    ZDSecMgrRequestKeyInd( (ZDO_RequestKeyInd_t*)msgPtr );
   1479                  }
   1480                }
   1481                break;
   1482              case ZDO_VERIFY_KEY_IND:
   1483          #if (ZG_BUILD_COORDINATOR_TYPE)
   1484                if(ZG_DEVICE_COORDINATOR_TYPE)
   1485                {
   1486                  if( ((ZDO_VerifyKeyInd_t*)msgPtr)->verifyKeyStatus == ZSuccess)
   1487                  {
   1488                    bdb_TCjoiningDeviceComplete( ((ZDO_VerifyKeyInd_t*)msgPtr)->extAddr );
   1489                  }
   1490                }
   1491            
   1492                ZDSecMgrVerifyKeyInd( (ZDO_VerifyKeyInd_t*)msgPtr );
   1493          #endif
   1494                break;
   1495          
   1496              case ZDO_SWITCH_KEY_IND:
   1497                if ( ZG_BUILD_JOINING_TYPE && ZG_DEVICE_JOINING_TYPE )
   \                     ??ZDApp_ProcessSecMsg_1:
   \   000025   90....       MOV       DPTR,#zgDeviceLogicalType
   \   000028   E0           MOVX      A,@DPTR
   \   000029   6401         XRL       A,#0x1
   \   00002B   6005         JZ        ??ZDApp_ProcessSecMsg_4
   \   00002D   E0           MOVX      A,@DPTR
   \   00002E   6402         XRL       A,#0x2
   \   000030   7003         JNZ       ??ZDApp_ProcessSecMsg_2
   1498                {
   1499                  ZDSecMgrSwitchKeyInd( (ZDO_SwitchKeyInd_t*)msgPtr );
   \                     ??ZDApp_ProcessSecMsg_4:
   \   000032                ; Setup parameters for call to function ZDSecMgrSwitchKeyInd
   \   000032   12....       LCALL     `??ZDSecMgrSwitchKeyInd::?relay`; Banked call to: ZDSecMgrSwitchKeyInd
   1500                }
   1501                break;
   1502          
   1503              default:
   1504                // Unsupported messages
   1505                break;
   1506            }
   1507          }
   \                     ??ZDApp_ProcessSecMsg_2:
   \   000035   02....       LJMP      ??Subroutine38_0 & 0xFFFF
   1508          
   1509          /*********************************************************************
   1510           * @fn      ZDApp_ProcessNetworkJoin()
   1511           *
   1512           * @brief
   1513           *
   1514           *   Save off the Network key information.
   1515           *
   1516           * @param   none
   1517           *
   1518           * @return  none
   1519           */

   \                                 In  segment BANKED_CODE, align 1, keep-with-next
   1520          void ZDApp_ProcessNetworkJoin( void )
   \                     ZDApp_ProcessNetworkJoin:
   1521          {
   \   000000                REQUIRE ?V0
   \   000000                REQUIRE ?V1
   \   000000                REQUIRE ?V2
   \   000000                REQUIRE ?V3
   \   000000   74F4         MOV       A,#-0xc
   \   000002   12....       LCALL     ?BANKED_ENTER_XDATA
   \   000005                ; Saved register size: 12
   \   000005                ; Auto size: 0
   1522            if ( (devState == DEV_NWK_JOINING) ||
   1523                ((devState == DEV_NWK_ORPHAN)  &&
   1524                 (ZDO_Config_Node_Descriptor.LogicalType == NODETYPE_ROUTER)) )
   \   000005   90....       MOV       DPTR,#devState
   \   000008   E0           MOVX      A,@DPTR
   \   000009   6403         XRL       A,#0x3
   \   00000B   600F         JZ        ??ZDApp_ProcessNetworkJoin_0
   \   00000D   E0           MOVX      A,@DPTR
   \   00000E   640A         XRL       A,#0xa
   \   000010   705C         JNZ       ??ZDApp_ProcessNetworkJoin_1
   \   000012   90....       MOV       DPTR,#ZDO_Config_Node_Descriptor
   \   000015   E0           MOVX      A,@DPTR
   \   000016   5407         ANL       A,#0x7
   \   000018   6401         XRL       A,#0x1
   \   00001A   7069         JNZ       ??ZDApp_ProcessNetworkJoin_2
   1525            {
   1526              // Result of a Join attempt by this device.
   1527              if ( nwkStatus == ZSuccess )
   \                     ??ZDApp_ProcessNetworkJoin_0:
   \   00001C   90....       MOV       DPTR,#nwkStatus
   \   00001F   E0           MOVX      A,@DPTR
   \   000020   7044         JNZ       ??ZDApp_ProcessNetworkJoin_3
   1528              {
   1529                osal_set_event( ZDAppTaskID, ZDO_STATE_CHANGE_EVT );
   \   000022                ; Setup parameters for call to function osal_set_event
   \   000022   7A10         MOV       R2,#0x10
   \   000024   7B00         MOV       R3,#0x0
   \   000026   90....       MOV       DPTR,#ZDAppTaskID
   \   000029   E0           MOVX      A,@DPTR
   \   00002A   F9           MOV       R1,A
   \   00002B   12....       LCALL     `??osal_set_event::?relay`; Banked call to: osal_set_event
   1530          
   1531          #if defined ( POWER_SAVING )
   1532                osal_pwrmgr_device( PWRMGR_BATTERY );
   1533          #endif
   1534          
   1535                if ( ZG_SECURE_ENABLED && ( ZDApp_RestoreNwkKey( TRUE ) == false ) )
   \   00002E                ; Setup parameters for call to function ZDApp_RestoreNwkKey
   \   00002E   7901         MOV       R1,#0x1
   \   000030   12....       LCALL     `??ZDApp_RestoreNwkKey::?relay`; Banked call to: ZDApp_RestoreNwkKey
   \   000033   E9           MOV       A,R1
   \   000034   7009         JNZ       ??ZDApp_ProcessNetworkJoin_4
   1536                {
   1537                  // wait for auth from trust center
   1538                  ZDApp_ChangeState( DEV_END_DEVICE_UNAUTH );
   \   000036                ; Setup parameters for call to function ZDApp_ChangeState
   \   000036   7905         MOV       R1,#0x5
   \   000038   12....       LCALL     `??ZDApp_ChangeState::?relay`; Banked call to: ZDApp_ChangeState
   1539                  
   1540                  bdb_nwkAssocAttemt(TRUE);
   \   00003B                ; Setup parameters for call to function bdb_nwkAssocAttemt
   \   00003B   7901         MOV       R1,#0x1
   \   00003D   8029         SJMP      ??ZDApp_ProcessNetworkJoin_5
   1541                }
   1542                else
   1543                {
   1544                  if ( ZSTACK_ROUTER_BUILD )
   1545                  {
   1546                    if ( devState == DEV_NWK_ORPHAN
   1547                      && ZDO_Config_Node_Descriptor.LogicalType != NODETYPE_DEVICE )
   1548                    {
   1549                      // Change NIB state to router for restore
   1550                      _NIB.nwkState = NWK_ROUTER;
   1551                    }
   1552                  }
   1553          
   1554                  if ( devState == DEV_NWK_JOINING )
   \                     ??ZDApp_ProcessNetworkJoin_4:
   \   00003F   90....       MOV       DPTR,#devState
   \   000042   E0           MOVX      A,@DPTR
   \   000043   6403         XRL       A,#0x3
   \   000045   7017         JNZ       ??ZDApp_ProcessNetworkJoin_6
   1555                  {
   1556                    ZDApp_AnnounceNewAddress();
   \   000047                ; Setup parameters for call to function ZDApp_AnnounceNewAddress
   \   000047   12....       LCALL     `??ZDApp_AnnounceNewAddress::?relay`; Banked call to: ZDApp_AnnounceNewAddress
   1557                    if( bdbCommissioningProcedureState.bdbCommissioningState == BDB_COMMISSIONING_STATE_TL )
   \   00004A   90....       MOV       DPTR,#bdbCommissioningProcedureState
   \   00004D   E0           MOVX      A,@DPTR
   \   00004E   6402         XRL       A,#0x2
   \   000050   700C         JNZ       ??ZDApp_ProcessNetworkJoin_6
   1558                    {
   1559                      bdb_setNodeIsOnANetwork(TRUE);
   \   000052                ; Setup parameters for call to function bdb_setNodeIsOnANetwork
   \   000052   7901         MOV       R1,#0x1
   \   000054   12....       LCALL     `??bdb_setNodeIsOnANetwork::?relay`; Banked call to: bdb_setNodeIsOnANetwork
   1560                      bdb_reportCommissioningState( BDB_COMMISSIONING_STATE_TL, TRUE );
   \   000057                ; Setup parameters for call to function bdb_reportCommissioningState
   \   000057   7A01         MOV       R2,#0x1
   \   000059   7902         MOV       R1,#0x2
   \   00005B   12....       LCALL     `??bdb_reportCommissioningState::?relay`; Banked call to: bdb_reportCommissioningState
   1561                    }
   1562                  }
   1563          
   1564                  ZDApp_ChangeState( DEV_END_DEVICE );
   \                     ??ZDApp_ProcessNetworkJoin_6:
   \   00005E                ; Setup parameters for call to function ZDApp_ChangeState
   \   00005E   7906         MOV       R1,#0x6
   \   000060   12....       LCALL     `??ZDApp_ChangeState::?relay`; Banked call to: ZDApp_ChangeState
   1565          
   1566                  if ( ZSTACK_ROUTER_BUILD )
   \   000063   02....       LJMP      ??ZDApp_ProcessNetworkJoin_7 & 0xFFFF
   1567                  {
   1568                    // NOTE: first two parameters are not used, see NLMEDE.h for details
   1569                    if ( ZDO_Config_Node_Descriptor.LogicalType != NODETYPE_DEVICE )
   1570                    {
   1571                      NLME_StartRouterRequest( 0, 0, false );
   1572                    }
   1573                  }
   1574                }
   1575              }
   1576              else
   1577              {
   1578          
   1579                bdb_nwkAssocAttemt(FALSE);
   \                     ??ZDApp_ProcessNetworkJoin_3:
   \   000066                ; Setup parameters for call to function bdb_nwkAssocAttemt
   \   000066   7900         MOV       R1,#0x0
   \                     ??ZDApp_ProcessNetworkJoin_5:
   \   000068   12....       LCALL     `??bdb_nwkAssocAttemt::?relay`; Banked call to: bdb_nwkAssocAttemt
   \   00006B   02....       LJMP      ??ZDApp_ProcessNetworkJoin_7 & 0xFFFF
   1580              }
   1581            }
   1582            else if ( devState == DEV_NWK_ORPHAN ||
   1583                      devState == DEV_NWK_SEC_REJOIN_CURR_CHANNEL ||
   1584                      devState == DEV_NWK_TC_REJOIN_CURR_CHANNEL ||
   1585                      devState == DEV_NWK_TC_REJOIN_ALL_CHANNEL ||
   1586                      devState == DEV_NWK_SEC_REJOIN_ALL_CHANNEL )
   \                     ??ZDApp_ProcessNetworkJoin_1:
   \   00006E   E0           MOVX      A,@DPTR
   \   00006F   6404         XRL       A,#0x4
   \   000071   6012         JZ        ??ZDApp_ProcessNetworkJoin_2
   \   000073   E0           MOVX      A,@DPTR
   \   000074   640E         XRL       A,#0xe
   \   000076   600D         JZ        ??ZDApp_ProcessNetworkJoin_2
   \   000078   E0           MOVX      A,@DPTR
   \   000079   640F         XRL       A,#0xf
   \   00007B   6008         JZ        ??ZDApp_ProcessNetworkJoin_2
   \   00007D   E0           MOVX      A,@DPTR
   \   00007E   640D         XRL       A,#0xd
   \   000080   6003         JZ        $+5
   \   000082   02....       LJMP      ??ZDApp_ProcessNetworkJoin_8 & 0xFFFF
   1587            {
   1588              // results of an orphaning attempt by this device
   1589              if (nwkStatus == ZSuccess)
   \                     ??ZDApp_ProcessNetworkJoin_2:
   \   000085   90....       MOV       DPTR,#nwkStatus
   \   000088   E0           MOVX      A,@DPTR
   \   000089   6003         JZ        $+5
   \   00008B   02....       LJMP      ??ZDApp_ProcessNetworkJoin_9 & 0xFFFF
   1590              {
   1591                //When the device has successfully rejoined then reset retryCnt
   1592                retryCnt = 0;
   \   00008E   90....       MOV       DPTR,#retryCnt
   \   000091   E4           CLR       A
   \   000092   F0           MOVX      @DPTR,A
   1593          
   1594                // Verify NWK key is available before sending Device_annce
   1595                if ( ZG_SECURE_ENABLED && ( ZDApp_RestoreNwkKey( TRUE ) == false ) )
   \   000093                ; Setup parameters for call to function ZDApp_RestoreNwkKey
   \   000093   7901         MOV       R1,#0x1
   \   000095   12....       LCALL     `??ZDApp_RestoreNwkKey::?relay`; Banked call to: ZDApp_RestoreNwkKey
   \   000098   E9           MOV       A,R1
   \   000099   700F         JNZ       ??ZDApp_ProcessNetworkJoin_10
   1596                {
   1597                  // wait for auth from trust center
   1598                  ZDApp_ChangeState( DEV_END_DEVICE_UNAUTH );
   \   00009B                ; Setup parameters for call to function ZDApp_ChangeState
   \   00009B   7905         MOV       R1,#0x5
   \   00009D   12....       LCALL     `??ZDApp_ChangeState::?relay`; Banked call to: ZDApp_ChangeState
   1599          
   1600                  // Start the reset timer for MAX UNAUTH time
   1601                  ZDApp_ResetTimerStart( MAX_DEVICE_UNAUTH_TIMEOUT );
   \   0000A0                ; Setup parameters for call to function ZDApp_ResetTimerStart
   \   0000A0   7A10         MOV       R2,#0x10
   \   0000A2   7B27         MOV       R3,#0x27
   \   0000A4   12....       LCALL     `??ZDApp_ResetTimerStart::?relay`; Banked call to: ZDApp_ResetTimerStart
   \   0000A7   02....       LJMP      ??ZDApp_ProcessNetworkJoin_7 & 0xFFFF
   1602                }
   1603                else
   1604                {
   1605                  ZDApp_ChangeState( DEV_END_DEVICE );
   \                     ??ZDApp_ProcessNetworkJoin_10:
   \   0000AA                ; Setup parameters for call to function ZDApp_ChangeState
   \   0000AA   7906         MOV       R1,#0x6
   \   0000AC   12....       LCALL     `??ZDApp_ChangeState::?relay`; Banked call to: ZDApp_ChangeState
   1606          
   1607                  osal_stop_timerEx( ZDAppTaskID, ZDO_REJOIN_BACKOFF );
   \   0000AF                ; Setup parameters for call to function osal_stop_timerEx
   \   0000AF   7A00         MOV       R2,#0x0
   \   0000B1   7B20         MOV       R3,#0x20
   \   0000B3   90....       MOV       DPTR,#ZDAppTaskID
   \   0000B6   E0           MOVX      A,@DPTR
   \   0000B7   F9           MOV       R1,A
   \   0000B8   12....       LCALL     `??osal_stop_timerEx::?relay`; Banked call to: osal_stop_timerEx
   1608          
   1609                  // setup Power Manager Device
   1610          #if defined ( POWER_SAVING )
   1611                  osal_pwrmgr_device( PWRMGR_BATTERY );
   1612          #endif
   1613          
   1614                  // The receiver is on, turn network layer polling off.
   1615                  if ( ZDO_Config_Node_Descriptor.CapabilityFlags & CAPINFO_RCVR_ON_IDLE )
   \   0000BB   90....       MOV       DPTR,#ZDO_Config_Node_Descriptor + 2
   \   0000BE   E0           MOVX      A,@DPTR
   \   0000BF   A2E3         MOV       C,0xE0 /* A   */.3
   \   0000C1   501D         JNC       ??ZDApp_ProcessNetworkJoin_11
   1616                  {
   1617                    // if Child Table Management process is not enabled
   1618                    if ( zgChildAgingEnable == FALSE )
   \   0000C3   90....       MOV       DPTR,#zgChildAgingEnable
   \   0000C6   E0           MOVX      A,@DPTR
   \   0000C7   7017         JNZ       ??ZDApp_ProcessNetworkJoin_11
   1619                    {
   1620                      NLME_SetPollRate( 0 );
   \   0000C9                ; Setup parameters for call to function NLME_SetPollRate
   \   0000C9   90....       MOV       DPTR,#__Constant_0
   \   0000CC   12....       LCALL     ?XLOAD_R2345
   \   0000CF   12....       LCALL     `??NLME_SetPollRate::?relay`; Banked call to: NLME_SetPollRate
   1621                      NLME_SetQueuedPollRate( 0 );
   \   0000D2                ; Setup parameters for call to function NLME_SetQueuedPollRate
   \   0000D2   7A00         MOV       R2,#0x0
   \   0000D4   7B00         MOV       R3,#0x0
   \   0000D6   12....       LCALL     `??NLME_SetQueuedPollRate::?relay`; Banked call to: NLME_SetQueuedPollRate
   1622                      NLME_SetResponseRate( 0 );
   \   0000D9                ; Setup parameters for call to function NLME_SetResponseRate
   \   0000D9   7A00         MOV       R2,#0x0
   \   0000DB   7B00         MOV       R3,#0x0
   \   0000DD   12....       LCALL     `??NLME_SetResponseRate::?relay`; Banked call to: NLME_SetResponseRate
   1623                    }
   1624                  }
   1625          
   1626                  if ( ZSTACK_ROUTER_BUILD )
   1627                  {
   1628                    // NOTE: first two parameters are not used, see NLMEDE.h for details
   1629                    if ( ZDO_Config_Node_Descriptor.LogicalType != NODETYPE_DEVICE )
   1630                    {
   1631                      NLME_StartRouterRequest( 0, 0, false );
   1632                    }
   1633                  }
   1634          
   1635                  ZDApp_AnnounceNewAddress();
   \                     ??ZDApp_ProcessNetworkJoin_11:
   \   0000E0                ; Setup parameters for call to function ZDApp_AnnounceNewAddress
   \   0000E0   12....       LCALL     `??ZDApp_AnnounceNewAddress::?relay`; Banked call to: ZDApp_AnnounceNewAddress
   1636          
   1637                  if ( ( (ZDO_Config_Node_Descriptor.CapabilityFlags & CAPINFO_RCVR_ON_IDLE) == 0 )
   1638                      || ( (ZDO_Config_Node_Descriptor.CapabilityFlags & CAPINFO_RCVR_ON_IDLE)
   1639                        && (zgChildAgingEnable == TRUE) ) )
   \   0000E3   90....       MOV       DPTR,#ZDO_Config_Node_Descriptor + 2
   \   0000E6   E0           MOVX      A,@DPTR
   \   0000E7   A2E3         MOV       C,0xE0 /* A   */.3
   \   0000E9   500B         JNC       ??ZDApp_ProcessNetworkJoin_12
   \   0000EB   90....       MOV       DPTR,#zgChildAgingEnable
   \   0000EE   E0           MOVX      A,@DPTR
   \   0000EF   6401         XRL       A,#0x1
   \   0000F1   6003         JZ        $+5
   \   0000F3   02....       LJMP      ??ZDApp_ProcessNetworkJoin_7 & 0xFFFF
   1640                  {
   1641                    if(devStartMode == MODE_REJOIN)
   \                     ??ZDApp_ProcessNetworkJoin_12:
   \   0000F6   90....       MOV       DPTR,#devStartMode
   \   0000F9   E0           MOVX      A,@DPTR
   \   0000FA   6403         XRL       A,#0x3
   \   0000FC   7010         JNZ       ??ZDApp_ProcessNetworkJoin_13
   1642                    {
   1643                      NLME_SetPollRate( zgRejoinPollRate );
   \   0000FE                ; Setup parameters for call to function NLME_SetPollRate
   \   0000FE   90....       MOV       DPTR,#zgRejoinPollRate
   \   000101   E0           MOVX      A,@DPTR
   \   000102   F5..         MOV       ?V0,A
   \   000104   A3           INC       DPTR
   \   000105   E0           MOVX      A,@DPTR
   \   000106   AA..         MOV       R2,?V0
   \   000108   FB           MOV       R3,A
   \   000109   E4           CLR       A
   \   00010A   FC           MOV       R4,A
   \   00010B   FD           MOV       R5,A
   \   00010C   8006         SJMP      ??ZDApp_ProcessNetworkJoin_14
   1644                    }
   1645                    else
   1646                    {
   1647                      NLME_SetPollRate( ZDApp_SavedPollRate );
   \                     ??ZDApp_ProcessNetworkJoin_13:
   \   00010E                ; Setup parameters for call to function NLME_SetPollRate
   \   00010E   90....       MOV       DPTR,#ZDApp_SavedPollRate
   \   000111   12....       LCALL     ?XLOAD_R2345
   \                     ??ZDApp_ProcessNetworkJoin_14:
   \   000114   12....       LCALL     `??NLME_SetPollRate::?relay`; Banked call to: NLME_SetPollRate
   \   000117   02....       LJMP      ??ZDApp_ProcessNetworkJoin_7 & 0xFFFF
   1648                    }
   1649                  }
   1650                }
   1651              }
   1652              else
   1653              {
   1654                if ( devStartMode == MODE_RESUME )
   \                     ??ZDApp_ProcessNetworkJoin_9:
   \   00011A   90....       MOV       DPTR,#devStartMode
   \   00011D   E0           MOVX      A,@DPTR
   \   00011E   6401         XRL       A,#0x1
   \   000120   7038         JNZ       ??ZDApp_ProcessNetworkJoin_15
   1655                {
   1656                  if ( ++retryCnt <= MAX_RESUME_RETRY )
   \   000122   90....       MOV       DPTR,#retryCnt
   \   000125   E0           MOVX      A,@DPTR
   \   000126   04           INC       A
   \   000127   F0           MOVX      @DPTR,A
   \   000128   C3           CLR       C
   \   000129   9404         SUBB      A,#0x4
   \   00012B   501F         JNC       ??ZDApp_ProcessNetworkJoin_16
   1657                  {
   1658                    if ( _NIB.nwkPanId == 0xFFFF )
   \   00012D   90....       MOV       DPTR,#_NIB + 33
   \   000130   E0           MOVX      A,@DPTR
   \   000131   F4           CPL       A
   \   000132   7003         JNZ       ??ZDApp_ProcessNetworkJoin_17
   \   000134   A3           INC       DPTR
   \   000135   E0           MOVX      A,@DPTR
   \   000136   F4           CPL       A
   \                     ??ZDApp_ProcessNetworkJoin_17:
   \   000137   601B         JZ        ??ZDApp_ProcessNetworkJoin_18
   1659                      devStartMode = MODE_JOIN;
   1660                    else
   1661                    {
   1662                      devStartMode = MODE_REJOIN;
   \   000139   90....       MOV       DPTR,#devStartMode
   \   00013C   7403         MOV       A,#0x3
   \   00013E   F0           MOVX      @DPTR,A
   1663                      _tmpRejoinState = true;
   \   00013F   90....       MOV       DPTR,#_tmpRejoinState
   \   000142   7401         MOV       A,#0x1
   \   000144   F0           MOVX      @DPTR,A
   1664                      prevDevState = DEV_NWK_SEC_REJOIN_CURR_CHANNEL;
   \   000145   90....       MOV       DPTR,#prevDevState
   \   000148   7404         MOV       A,#0x4
   \   00014A   8068         SJMP      ??ZDApp_ProcessNetworkJoin_19
   1665                    }
   1666                  }
   1667                  // Do a normal join to the network after certain times of rejoin retries
   1668                  else if( AIB_apsUseInsecureJoin == true )
   \                     ??ZDApp_ProcessNetworkJoin_16:
   \   00014C   90....       MOV       DPTR,#AIB_apsUseInsecureJoin
   \   00014F   E0           MOVX      A,@DPTR
   \   000150   6401         XRL       A,#0x1
   \   000152   7061         JNZ       ??ZDApp_ProcessNetworkJoin_20
   1669                  {
   1670                    devStartMode = MODE_JOIN;
   \                     ??ZDApp_ProcessNetworkJoin_18:
   \   000154   90....       MOV       DPTR,#devStartMode
   \   000157   E4           CLR       A
   \   000158   805A         SJMP      ??ZDApp_ProcessNetworkJoin_19
   1671                  }
   1672                }
   1673                else if(devStartMode == MODE_REJOIN)
   \                     ??ZDApp_ProcessNetworkJoin_15:
   \   00015A   E0           MOVX      A,@DPTR
   \   00015B   6403         XRL       A,#0x3
   \   00015D   7056         JNZ       ??ZDApp_ProcessNetworkJoin_20
   1674                {
   1675                  if ( ZSTACK_END_DEVICE_BUILD )
   1676                  {
   1677                    devStartMode = MODE_REJOIN;
   1678                    _tmpRejoinState = true;
   \   00015F   90....       MOV       DPTR,#_tmpRejoinState
   \   000162   7401         MOV       A,#0x1
   \   000164   F0           MOVX      @DPTR,A
   1679                    _NIB.nwkState = NWK_INIT;
   \   000165   90....       MOV       DPTR,#_NIB + 35
   \   000168   E4           CLR       A
   \   000169   F0           MOVX      @DPTR,A
   1680          
   1681                    if( prevDevState == DEV_NWK_SEC_REJOIN_CURR_CHANNEL )
   \   00016A   90....       MOV       DPTR,#prevDevState
   \   00016D   E0           MOVX      A,@DPTR
   \   00016E   6404         XRL       A,#0x4
   \   000170   7007         JNZ       ??ZDApp_ProcessNetworkJoin_21
   1682                    {
   1683                      runtimeChannel = MAX_CHANNELS_24GHZ;
   \   000172   12....       LCALL     ?Subroutine9 & 0xFFFF
   1684                      prevDevState = DEV_NWK_SEC_REJOIN_ALL_CHANNEL ;
   1685                    }
   \                     ??CrossCallReturnLabel_0:
   \   000175   740D         MOV       A,#0xd
   \   000177   803B         SJMP      ??ZDApp_ProcessNetworkJoin_19
   1686                    else if ( prevDevState == DEV_NWK_SEC_REJOIN_ALL_CHANNEL)
   \                     ??ZDApp_ProcessNetworkJoin_21:
   \   000179   E0           MOVX      A,@DPTR
   \   00017A   640D         XRL       A,#0xd
   \   00017C   702C         JNZ       ??ZDApp_ProcessNetworkJoin_22
   1687                    {
   1688                      // Set the flag that will ask the device to do trust center network layer rejoin.
   1689                      _NIB.nwkKeyLoaded = FALSE;
   \   00017E   90....       MOV       DPTR,#_NIB + 61
   \   000181   E4           CLR       A
   \   000182   F0           MOVX      @DPTR,A
   1690                      ZDApp_ResetNwkKey(); // Clear up the old network key.
   \   000183                ; Setup parameters for call to function ZDApp_ResetNwkKey
   \   000183   12....       LCALL     `??ZDApp_ResetNwkKey::?relay`; Banked call to: ZDApp_ResetNwkKey
   1691                      runtimeChannel = (uint32) (1L << _NIB.nwkLogicalChannel);
   \   000186   75..01       MOV       ?V0,#0x1
   \   000189   75..00       MOV       ?V1,#0x0
   \   00018C   75..00       MOV       ?V2,#0x0
   \   00018F   75..00       MOV       ?V3,#0x0
   \   000192   90....       MOV       DPTR,#_NIB + 22
   \   000195   E0           MOVX      A,@DPTR
   \   000196   78..         MOV       R0,#?V0
   \   000198   12....       LCALL     ?L_SHL
   \   00019B   90....       MOV       DPTR,#runtimeChannel
   \   00019E   78..         MOV       R0,#?V0
   \   0001A0   12....       LCALL     ?L_MOV_TO_X
   1692                      prevDevState = DEV_NWK_TC_REJOIN_CURR_CHANNEL ;
   \   0001A3   90....       MOV       DPTR,#prevDevState
   \   0001A6   740E         MOV       A,#0xe
   \   0001A8   800A         SJMP      ??ZDApp_ProcessNetworkJoin_19
   1693                    }
   1694                    else if ( prevDevState == DEV_NWK_TC_REJOIN_CURR_CHANNEL )
   \                     ??ZDApp_ProcessNetworkJoin_22:
   \   0001AA   E0           MOVX      A,@DPTR
   \   0001AB   640E         XRL       A,#0xe
   \   0001AD   7006         JNZ       ??ZDApp_ProcessNetworkJoin_20
   1695                    {
   1696                      runtimeChannel = MAX_CHANNELS_24GHZ;
   \   0001AF   12....       LCALL     ?Subroutine9 & 0xFFFF
   1697                      prevDevState= DEV_NWK_TC_REJOIN_ALL_CHANNEL ;
   1698                    }
   1699          
   1700                  }
   1701                }
   \                     ??CrossCallReturnLabel_1:
   \   0001B2   740F         MOV       A,#0xf
   \                     ??ZDApp_ProcessNetworkJoin_19:
   \   0001B4   F0           MOVX      @DPTR,A
   1702          
   1703                // Clear the neighbor Table and network discovery tables.
   1704                nwkNeighborInitTable();
   \                     ??ZDApp_ProcessNetworkJoin_20:
   \   0001B5                ; Setup parameters for call to function nwkNeighborInitTable
   \   0001B5   12....       LCALL     `??nwkNeighborInitTable::?relay`; Banked call to: nwkNeighborInitTable
   1705                NLME_NwkDiscTerm();
   \   0001B8                ; Setup parameters for call to function NLME_NwkDiscTerm
   \   0001B8   12....       LCALL     `??NLME_NwkDiscTerm::?relay`; Banked call to: NLME_NwkDiscTerm
   1706          
   1707                // setup a retry for later...
   1708                ZDApp_NetworkInit( (uint16)(NWK_START_DELAY
   1709                     + (osal_rand()& EXTENDED_JOINING_RANDOM_MASK)) );
   \   0001BB                ; Setup parameters for call to function osal_rand
   \   0001BB   12....       LCALL     `??osal_rand::?relay`; Banked call to: osal_rand
   \   0001BE                ; Setup parameters for call to function ZDApp_NetworkInit
   \   0001BE   EA           MOV       A,R2
   \   0001BF   547F         ANL       A,#0x7f
   \   0001C1   2464         ADD       A,#0x64
   \   0001C3   FA           MOV       R2,A
   \   0001C4   7B00         MOV       R3,#0x0
   \   0001C6   12....       LCALL     `??ZDApp_NetworkInit::?relay`; Banked call to: ZDApp_NetworkInit
   \   0001C9   8012         SJMP      ??ZDApp_ProcessNetworkJoin_7
   1710              }
   1711            }
   1712          #if defined ( ZIGBEEPRO )
   1713            else if ( devState != DEV_HOLD )
   \                     ??ZDApp_ProcessNetworkJoin_8:
   \   0001CB   E0           MOVX      A,@DPTR
   \   0001CC   600F         JZ        ??ZDApp_ProcessNetworkJoin_7
   1714            {
   1715              // Assume from address conflict
   1716          
   1717              // Notify the network
   1718              ZDApp_AnnounceNewAddress();
   \   0001CE                ; Setup parameters for call to function ZDApp_AnnounceNewAddress
   \   0001CE   12....       LCALL     `??ZDApp_AnnounceNewAddress::?relay`; Banked call to: ZDApp_AnnounceNewAddress
   1719          
   1720              // Notify apps
   1721              osal_set_event( ZDAppTaskID, ZDO_STATE_CHANGE_EVT );
   \   0001D1                ; Setup parameters for call to function osal_set_event
   \   0001D1   7A10         MOV       R2,#0x10
   \   0001D3   7B00         MOV       R3,#0x0
   \   0001D5   90....       MOV       DPTR,#ZDAppTaskID
   \   0001D8   E0           MOVX      A,@DPTR
   \   0001D9   F9           MOV       R1,A
   \   0001DA   12....       LCALL     `??osal_set_event::?relay`; Banked call to: osal_set_event
   1722            }
   1723          #endif
   1724          }
   \                     ??ZDApp_ProcessNetworkJoin_7:
   \   0001DD   80..         SJMP      ??Subroutine36_0

   \                                 In  segment BANKED_CODE, align 1, keep-with-next
   \                     ?Subroutine9:
   \   000000   90....       MOV       DPTR,#runtimeChannel
   \   000003   E4           CLR       A
   \   000004   F0           MOVX      @DPTR,A
   \   000005   A3           INC       DPTR
   \   000006   74F8         MOV       A,#-0x8
   \   000008   F0           MOVX      @DPTR,A
   \   000009   A3           INC       DPTR
   \   00000A   74FF         MOV       A,#-0x1
   \   00000C   F0           MOVX      @DPTR,A
   \   00000D   A3           INC       DPTR
   \   00000E   7407         MOV       A,#0x7
   \   000010   F0           MOVX      @DPTR,A
   \   000011   90....       MOV       DPTR,#prevDevState
   \   000014   22           RET

   \                                 In  segment BANKED_CODE, align 1, keep-with-next
   \                     ??Subroutine36_0:
   \   000000   7F04         MOV       R7,#0x4
   \   000002   02....       LJMP      ?BANKED_LEAVE_XDATA
   1725          
   1726          /******************************************************************************
   1727           * @fn          ZDApp_StoreNwkSecMaterial
   1728           *
   1729           * @brief       Stores new entries in the NwkSecMaterial
   1730           *
   1731           * @param       none
   1732           *
   1733           * @return      none
   1734           */

   \                                 In  segment BANKED_CODE, align 1, keep-with-next
   1735          void ZDApp_StoreNwkSecMaterial(void)
   \                     ZDApp_StoreNwkSecMaterial:
   1736          {
   \   000000                REQUIRE ?V0
   \   000000                REQUIRE ?V1
   \   000000                REQUIRE ?V2
   \   000000                REQUIRE ?V4
   \   000000                REQUIRE ?V5
   \   000000                REQUIRE ?V6
   \   000000   74F1         MOV       A,#-0xf
   \   000002   12....       LCALL     ?BANKED_ENTER_XDATA
   \   000005                ; Saved register size: 15
   \   000005                ; Auto size: 12
   \   000005   74F4         MOV       A,#-0xc
   \   000007   12....       LCALL     ?ALLOC_XSTACK8
   1737            nwkSecMaterialDesc_t nwkSecMaterialDesc;
   1738            uint8 i;
   1739            uint8 emptyEntryIndexOffset = gMAX_NWK_SEC_MATERIAL_TABLE_ENTRIES;
   1740            
   1741            //Search if we do have security material for this network
   1742            for( i = 0; i < gMAX_NWK_SEC_MATERIAL_TABLE_ENTRIES; i++)
   \   00000A   7E00         MOV       R6,#0x0
   \   00000C   75....       MOV       ?V0,#(_NIB + 53) & 0xff
   \   00000F   75....       MOV       ?V1,#((_NIB + 53) >> 8) & 0xff
   \   000012   8E..         MOV       ?V2,R6
   \   000014   8001         SJMP      ??ZDApp_StoreNwkSecMaterial_0
   \                     ??ZDApp_StoreNwkSecMaterial_1:
   \   000016   0E           INC       R6
   \                     ??ZDApp_StoreNwkSecMaterial_0:
   \   000017   90....       MOV       DPTR,#gMAX_NWK_SEC_MATERIAL_TABLE_ENTRIES
   \   00001A   E4           CLR       A
   \   00001B   93           MOVC      A,@A+DPTR
   \   00001C   F8           MOV       R0,A
   \   00001D   EE           MOV       A,R6
   \   00001E   C3           CLR       C
   \   00001F   98           SUBB      A,R0
   \   000020   4003         JC        $+5
   \   000022   02....       LJMP      ??ZDApp_StoreNwkSecMaterial_2 & 0xFFFF
   1743            {
   1744              osal_nv_read(ZCD_NV_NWK_SEC_MATERIAL_TABLE_START + i,0,sizeof(nwkSecMaterialDesc_t),&nwkSecMaterialDesc);
   \   000025                ; Setup parameters for call to function osal_nv_read
   \   000025   A8..         MOV       R0,?XSP + 0
   \   000027   A9..         MOV       R1,?XSP + 1
   \   000029   88..         MOV       ?V4,R0
   \   00002B   89..         MOV       ?V5,R1
   \   00002D   78..         MOV       R0,#?V4
   \   00002F   12....       LCALL     ?PUSH_XSTACK_I_TWO
   \   000032   75..0C       MOV       ?V4,#0xc
   \   000035   75..00       MOV       ?V5,#0x0
   \   000038   78..         MOV       R0,#?V4
   \   00003A   12....       LCALL     ?PUSH_XSTACK_I_TWO
   \   00003D   7C00         MOV       R4,#0x0
   \   00003F   7D00         MOV       R5,#0x0
   \   000041   EE           MOV       A,R6
   \   000042   2475         ADD       A,#0x75
   \   000044   FA           MOV       R2,A
   \   000045   E4           CLR       A
   \   000046   3400         ADDC      A,#0x0
   \   000048   FB           MOV       R3,A
   \   000049   12....       LCALL     `??osal_nv_read::?relay`; Banked call to: osal_nv_read
   \   00004C   7404         MOV       A,#0x4
   \   00004E   12....       LCALL     ?DEALLOC_XSTACK8
   1745              {
   1746                if(osal_memcmp(_NIB.extendedPANID,nwkSecMaterialDesc.extendedPanID,Z_EXTADDR_LEN))
   \   000051                ; Setup parameters for call to function osal_memcmp
   \   000051   7404         MOV       A,#0x4
   \   000053   12....       LCALL     ?XSTACK_DISP0_8
   \   000056   A982         MOV       R1,DPL
   \   000058   AA83         MOV       R2,DPH
   \   00005A   89..         MOV       ?V4,R1
   \   00005C   8A..         MOV       ?V5,R2
   \   00005E   75..00       MOV       ?V6,#0x0
   \   000061   78..         MOV       R0,#?V4
   \   000063   12....       LCALL     ?PUSH_XSTACK_I_THREE
   \   000066   7C08         MOV       R4,#0x8
   \   000068   7D00         MOV       R5,#0x0
   \   00006A   A9..         MOV       R1,?V0
   \   00006C   AA..         MOV       R2,?V1
   \   00006E   AB..         MOV       R3,?V2
   \   000070   12....       LCALL     `??osal_memcmp::?relay`; Banked call to: osal_memcmp
   \   000073   7403         MOV       A,#0x3
   \   000075   12....       LCALL     ?DEALLOC_XSTACK8
   \   000078   E9           MOV       A,R1
   \   000079   7061         JNZ       ??ZDApp_StoreNwkSecMaterial_2
   1747                {
   1748                  break;
   1749                }
   1750                if(osal_isbufset(nwkSecMaterialDesc.extendedPanID,0,Z_EXTADDR_LEN))
   \   00007B                ; Setup parameters for call to function osal_isbufset
   \   00007B   7C08         MOV       R4,#0x8
   \   00007D   7900         MOV       R1,#0x0
   \   00007F   7404         MOV       A,#0x4
   \   000081   12....       LCALL     ?XSTACK_DISP0_8
   \   000084   AA82         MOV       R2,DPL
   \   000086   AB83         MOV       R3,DPH
   \   000088   12....       LCALL     `??osal_isbufset::?relay`; Banked call to: osal_isbufset
   \   00008B   E9           MOV       A,R1
   \   00008C   6088         JZ        ??ZDApp_StoreNwkSecMaterial_1
   1751                {
   1752                  emptyEntryIndexOffset = i;
   \   00008E   EE           MOV       A,R6
   \   00008F   FF           MOV       R7,A
   1753                  break;
   1754                }
   1755              }
   1756            }
   1757            
   1758            //ExtPanID not found and found an empty entry, save the extended PANID
   1759            if(emptyEntryIndexOffset < gMAX_NWK_SEC_MATERIAL_TABLE_ENTRIES)
   1760            {
   1761              osal_memcpy(nwkSecMaterialDesc.extendedPanID, _NIB.extendedPANID, Z_EXTADDR_LEN);
   \   000090                ; Setup parameters for call to function osal_memcpy
   \   000090   78..         MOV       R0,#?V0
   \   000092   12....       LCALL     ?PUSH_XSTACK_I_THREE
   \   000095   7C08         MOV       R4,#0x8
   \   000097   7D00         MOV       R5,#0x0
   \   000099   7407         MOV       A,#0x7
   \   00009B   12....       LCALL     ?XSTACK_DISP0_8
   \   00009E   AA82         MOV       R2,DPL
   \   0000A0   AB83         MOV       R3,DPH
   \   0000A2   12....       LCALL     `??osal_memcpy::?relay`; Banked call to: osal_memcpy
   \   0000A5   7403         MOV       A,#0x3
   \   0000A7   12....       LCALL     ?DEALLOC_XSTACK8
   1762              nwkSecMaterialDesc.FrameCounter = 0;
   \   0000AA   85..82       MOV       DPL,?XSP + 0
   \   0000AD   85..83       MOV       DPH,?XSP + 1
   \   0000B0   E4           CLR       A
   \   0000B1   F0           MOVX      @DPTR,A
   \   0000B2   A3           INC       DPTR
   \   0000B3   F0           MOVX      @DPTR,A
   \   0000B4   A3           INC       DPTR
   \   0000B5   F0           MOVX      @DPTR,A
   \   0000B6   A3           INC       DPTR
   \   0000B7   12....       LCALL     ?Subroutine10 & 0xFFFF
   1763              osal_nv_write(ZCD_NV_NWK_SEC_MATERIAL_TABLE_START + emptyEntryIndexOffset,0,sizeof(nwkSecMaterialDesc_t),&nwkSecMaterialDesc);
   1764            }
   \                     ??CrossCallReturnLabel_2:
   \   0000BA   12....       LCALL     ?PUSH_XSTACK_I_TWO
   \   0000BD   75..0C       MOV       ?V0,#0xc
   \   0000C0   75..00       MOV       ?V1,#0x0
   \   0000C3   78..         MOV       R0,#?V0
   \   0000C5   12....       LCALL     ?PUSH_XSTACK_I_TWO
   \   0000C8   7C00         MOV       R4,#0x0
   \   0000CA   7D00         MOV       R5,#0x0
   \   0000CC   EF           MOV       A,R7
   \   0000CD   2475         ADD       A,#0x75
   \   0000CF   FA           MOV       R2,A
   \   0000D0   E4           CLR       A
   \   0000D1   3400         ADDC      A,#0x0
   \   0000D3   FB           MOV       R3,A
   \   0000D4   12....       LCALL     `??osal_nv_write::?relay`; Banked call to: osal_nv_write
   \   0000D7   7404         MOV       A,#0x4
   \   0000D9   12....       LCALL     ?DEALLOC_XSTACK8
   1765          
   1766          }
   \                     ??ZDApp_StoreNwkSecMaterial_2:
   \   0000DC   02....       LJMP      ?Subroutine6 & 0xFFFF

   \                                 In  segment BANKED_CODE, align 1, keep-with-next
   \                     ?Subroutine6:
   \   000000   740C         MOV       A,#0xc
   \   000002                REQUIRE ??Subroutine37_0
   \   000002                ; // Fall through to label ??Subroutine37_0

   \                                 In  segment BANKED_CODE, align 1, keep-with-next
   \                     ??Subroutine37_0:
   \   000000   12....       LCALL     ?DEALLOC_XSTACK8
   \   000003   7F07         MOV       R7,#0x7
   \   000005   02....       LJMP      ?BANKED_LEAVE_XDATA

   \                                 In  segment BANKED_CODE, align 1, keep-with-next
   \                     ?Subroutine10:
   \   000000   F0           MOVX      @DPTR,A
   \   000001                ; Setup parameters for call to function osal_nv_write
   \   000001                ; Setup parameters for call to function osal_nv_read
   \   000001   A8..         MOV       R0,?XSP + 0
   \   000003   A9..         MOV       R1,?XSP + 1
   \   000005   88..         MOV       ?V0,R0
   \   000007   89..         MOV       ?V1,R1
   \   000009   78..         MOV       R0,#?V0
   \   00000B   22           RET
   1767          
   1768          
   1769          /*********************************************************************
   1770           * @fn      ZDApp_SaveNwkKey()
   1771           *
   1772           * @brief   Save off the Network key information.
   1773           *
   1774           * @param   none
   1775           *
   1776           * @return  none
   1777           */

   \                                 In  segment BANKED_CODE, align 1, keep-with-next
   1778          void ZDApp_SaveNwkKey( void )
   \                     ZDApp_SaveNwkKey:
   1779          {
   \   000000                REQUIRE ?V0
   \   000000                REQUIRE ?V1
   \   000000                REQUIRE ?V2
   \   000000                REQUIRE ?V3
