:020000040000FA
:10000000021F54022003FFFFFFFFFF02200BFFFF30
:10001000FFFFFF022013FFFFFFFFFF02201BFFFF78
:10002000FFFFFF022023FFFFFFFFFF02202BFFFF48
:10003000FFFFFF022033FFFFFFFFFF02203BFFFF18
:10004000FFFFFF022043FFFFFFFFFF02204BFFFFE8
:10005000FFFFFF022053FFFFFFFFFF02205BFFFFB8
:10006000FFFFFF022063FFFFFFFFFF02206BFFFF88
:10007000FFFFFF022073FFFFFFFFFF02207BFFFF58
:10008000FFFFFF022083FFFFFFFFFF02208BFFFF28
:10009000FFFF70DFFFFF040000000002000000C847
:1000A000030002030369A5020269A532730000017F
:1000B00000000000000400FFFFFFFFFFFFFFFF0440
:1000C00003090424035400650078006100730020D4
:1000D0000049006E0073007400720075006D0065C9
:1000E000006E007400730024035400490020004394
:1000F000004300320035003300310020005500532A
:10010000004200200043004400430000035F005F02
:100110000030005800000000000000000000000057
:1001200000000000000000000000000000000000CF
:100130000000000000303132333435363738394171
:100140004243444546481C9D1C9D1C9D1C9D1CA56E
:100150001C74F8121BE2900391E060159003027486
:10016000FEF0900304744DF0A37405F07A011207B9
:10017000237F01021D8174F8121BE274FF121ECB53
:100180007E00801F851882851983E064FE700690CA
:1001900003877401F0851882851983E0F890038441
:1001A000E068F07901AA18AB191210FEE970030299
:1001B0000287851882851983E064EF70027E07E06C
:1001C000C0E0900387E0FA900385E0F8EA28F8E4BD
:1001D0003400F9740228F582740339F583D0E0F015
:1001E000900387E0609E14600E14602B14603B1433
:1001F0006051146067809E900384E4F085188285C6
:100200001983E0900386F0C394809003874003E451
:1002100080827402020194851882851983E090031C
:1002200082F09003877403020194851882851983F4
:10023000E0900383F0900386E060199003877404D4
:10024000020194900385E004F0F8900386E0686072
:10025000030201959003877405020194900385E4DD
:10026000F0900387F0900384E0F885188285198365
:10027000E0686003020195900382E0644D60030230
:1002800001951203BF8002EEF97401121E4C0201A7
:100290007174F7121BE274FB121ECBEAFEEBFF75C2
:1002A00008047509007808121EE57402121F4C7AC2
:1002B000907B0079041219007402121E4C1207156B
:1002C000121F9DE0687003A3E06970128518828593
:1002D0001983E0F47003A3E0F4600302039A74044A
:1002E000121F441207778A088B09A808A90974020B
:1002F000121F9DE8F0A3E9F07404121F9DE060084E
:1003000079011201510203B3851882851983E068CF
:100310007003A3E0697076851882851983E0F47014
:1003200003A3E0F470197402121F9D7410F0A374FB
:1003300020F08518828519837410F0A37420F0755D
:1003400008017509007808121EE57402121F4C7A24
:10035000247B081219847402121E4C750804780854
:10036000121EE57402121F4C7A907B007904121958
:10037000007402121E4C120715121F9DE0687003D4
:10038000A3E069700479028006790480027903127F
:1003900001518E828F83741E80058E828F83E4F0DC
:1003A000120715121F9DE0687003A3E069700479BD
:1003B00001800279007405121E4C7F02021D8174B7
:1003C000E9121BE274F8121ECB900307E0FA9003C7
:1003D00006E0F9FEEAFCE4CCFDEE2CED3408FF75F6
:1003E0001001750F00750E068E088F0974027808CB
:1003F000121F31C39508FCE49509FD74022CF51415
:1004000074033DF515E5142497F516E5153420F52C
:1004100017EE2410F508E43FF509EEF50CEF540152
:10042000F50D8E128F1374097812121F6385120A4C
:10043000900383E0146057147003020506147003E0
:1004400002057D14601024FE700302063814700348
:100450000206E80206F8750E03794E1213D29003D5
:100460000712070B7402F0A37440120709740812F4
:100470000709F0A3F07418C3940704F510AA10A993
:100480000F120723A90E7408121E4C0208DD750E08
:1004900004794E1213D2EE450D7005A90A1219EA1D
:1004A000C3EE9425EF9408503FC3E5089424E50972
:1004B00094084034E5142496F8E5153420F9888230
:1004C0008983E0701E851682851783E0701590037E
:1004D000887401F08882898374A5F0851682851757
:1004E000838004900388E4F075081075090078088B
:1004F000121EE57C087D03EEFAEFFB1219847402EC
:10050000121E4C02047D750E05C3E50A947995E030
:100510004006750F0102047D7510407511007810BA
:10052000121EE57C097D037402780C121F31AA0C9F
:10053000AB0DA90A1219007402121E4C900307E0B9
:10054000A3F0900306E0A3F0751043C3EE9425EFEB
:100550009408400302047DC3E5089424E509940847
:10056000500302047D900388E0700302047DA81606
:10057000A91788828983E4F0A3F002047D7508043A
:100580007509007808121EE57402121F4C7A907BE0
:100590000079041219007402121E4C7402121F9D7D
:1005A000E0F8A3E0F9851882851983E0687003A359
:1005B000E069851882851983700BE0F47003A3E06D
:1005C000F470578009E0F47003A3E0F4700D85180F
:1005D000828519837410F0A37420F0120715121F7E
:1005E0009DE8F0A3E9F07508017808121EE5740291
:1005F000121F4C7A247B081219847402121E4C7547
:1006000008047808121EE57402121F4C7A907B00D1
:1006100079041219007402121E4C120715121F9D44
:10062000E0687003A3E0697006750E0102047D7531
:100630000E02750F0702047D9003D6E06007640286
:10064000600302047DEAFF7A017900120723E0606B
:10065000030206DC800312119A121181E970F7740B
:1006600004121F9D1206FD7404121F9D7808121FAC
:100670008185080C85090D850A0E850B0F9003C234
:10068000780C121F0B7404121F9D780C121F72E558
:10069000084509450A450B70CE8EC2E5C554E04FAA
:1006A000F5C57404121F9D1206FD7404121F9D7877
:1006B00008121F8185080C85090D850A0E850B0F10
:1006C0009003C2780C121F0B7404121F9D780C1239
:1006D0001F72E5084509450A450B70CE7A0179007D
:1006E0001207237908020486E9900391F07003024F
:1006F000047D750E0902047D7906020486E4F0A3E8
:100700007426F0A3E4F0A3F022F0A3E4F0A3F0A396
:10071000F0A3F0A322851882851983E0F8A3E0F9FD
:1007200074022274F8121BE2EAFE900305E0D2E79D
:10073000F0E9A3F0EE900303F08E0874042AFE7C27
:10074000028004E062080CECFA3395E0FB74022AA4
:10075000F58274033BF583EEF8C3EA98EB9400A2AC
:10076000D265D03340DDE508F074012AF97A027BC6
:100770000312113C02017174E9121BE275820075CB
:1007800083FE121E2E8A168B177514007515008AAB
:10079000828B83E4F09003D6E07006D2AAD2AF80B9
:1007A00004640270057900120151750C00750D206A
:1007B000750E00750F009003D6E06004640270159A
:1007C00012119A120176E9F874096860030208B3FD
:1007D0007900120151E064027007A29240030208FE
:1007E0008E7508007509027808121EE57402121F42
:1007F0004C850C08850D09AA08E5095407FB850EF0
:100800000A850F0B740B7808121E9CA90812190098
:100810007402121E4C7E007F009003CAC0828E10AC
:10082000EFF5113395E0F512F513850C08850D09E8
:10083000850E0A850F0B78087910121F1E9003C6CB
:100840007808121F0B758303D0827808121E0F5090
:100850001D851882851983E5822EF582E5833FF593
:1008600083E0F9AA14AB151208E28A148B150EEE78
:1008700070010FC3EF940240A09003CE780C121FBA
:100880000B9003D2780C121E0F40030207B67900BA
:10089000AA14AB151208E279001208E28B15900336
:1008A000D6E07004C2AFC2AAEA451570277AA57BCC
:1008B000A58021E870030207D5740668700302075B
:1008C000D574076870030207D5851682851783746F
:1008D00001F080BA758200758302121E2E7F10020D
:1008E0001D81C008C0097C088A088B09740F78082C
:1008F000121F63E508F8EA25E0FAEB33FBE9A2E70B
:10090000500474014AFAE8A2E0500874216AFA74AB
:10091000106BFBE9C333F91CEC70CDD009D0082271
:10092000C082C083120F4860030209F2A3E0F8A35B
:10093000E060030209F2A3E064027002A3E0600336
:100940000209F29003B8E02480600914604C14603E
:10095000590209F2E860030209F29003B2E0900341
:10096000C060077401F0A3E48003E4F0A3F09003F7
:10097000B1E060079003C0E04402F09003A6E06499
:100980000460149003B374C0F0A37403F0A3E4F004
:10099000A37402120FAAF0020E8390039FE0640476
:1009A00070509003C0E4F0A380D0E8547FFA900325
:1009B0009FE06404703CEAC394065036749F2AF5A5
:1009C00082E43403F583E85480600EA3A3A3A3A3B9
:1009D000A3A3E0640370CB800FE582240CF5825062
:1009E000020583E0640370BA9003C07401F0A3E4CD
:1009F00080889003A67404809D74F8121BE2E9FEBF
:100A00009003BE120F4B6003020ADB90039FE06469
:100A100004600B9003BC120F4B6003020ADB9003CF
:100A2000B8E0541F6009146030146020020ADB90A3
:100A300003BAE064017022EE9003B1F0600479051E
:100A4000800279067A00121BE0020AE19003BCE002
:100A5000547FFA9003BAE060057900020AE3EAC322
:100A600094065077EA90620EF0749F2AF8E43403FB
:100A7000F99003BCE05480602EEE60047410800294
:100A80007440906211F0EE60047B0380027B00EB07
:100A900088828983A3A3A3A3A3A3A3F0EE60047910
:100AA00008802F7907802BEE60047B2080027B80FA
:100AB000EB906214F0EE60047B0380027B00E8247C
:100AC0000CF582E439F583EBF0EE6004790A8002DC
:100AD0007909121BE090620EE480059003A674046D
:100AE000F079017F01021D8179001209F9E9700393
:100AF000121BCF2279011209F9E97003121BDE22C1
:100B0000C082C0839003BC120F4B7015A3120F4B11
:100B1000700F9003BA120CEE5480FAE9FBEA4B60B6
:100B2000079003A67404801AE8906200F090039F77
:100B30006009E06402700C74038007E064037003D2
:100B40007402F0020E8374F1121BE29003BAE0FC0F
:100B5000A3E0FBE4CBFA14600814601014603B803F
:100B600059121769120CD5A37B808043ECFA7900E7
:100B700012178B120CD57B80E92402F9E43AFA12A1
:100B80001E82FC1919E0FAA3E92403F9E43AFA12E7
:100B90001E82F9ECA3F0A3E9801CECF91217F9907E
:100BA00003B3EAF0A3EBF0A3E4120CE4A37B00127E
:100BB0001E82A3F0A3E4F0020C8F9003B3E4F0A331
:100BC000F0A3F0750B009003BCE0F50CA3E0F50D6D
:100BD00090047DE0FEA3E0FF020C6A8B09740378A9
:100BE00008121F31EE2508F8EF3509F9880E8882C2
:100BF000F583E493F8EA687001E4706CA3E493F879
:100C0000EC687001E47061850E828983A3A3E4938C
:100C1000F508E50D65087001E4704D850E82898345
:100C2000A3A3A3E493F8E50C687001E4703A850E81
:100C3000828983A3A3A3A3E493F508740193F50920
:100C40009003B3E508F0A3E509F0A37480F0850EE6
:100C5000828983A3A3A3A3A3A3E493F8740193F9C4
:100C60009003B6E8F0A3E9F0050B850B0890047F2C
:100C7000120CEEC39EF50EE99FF50F7403780E1269
:100C80001F63C3E508950EE4950F5003020BDB903C
:100C900003B3E0FCA3E0FDA3E0FEEC4D4E9003A601
:100CA000700474048029E0640460259003BEE0FAB7
:100CB000A3E0FB9003B6E0F8A3E0F9C3EA98EB9950
:100CC00050089003B6EAF0A3EBF09003A67401F08D
:100CD0007F08021D819003B3EAF0A3EBF0A37480B8
:100CE000120CE422F09003B3E0F9A3E0FA22E0F85A
:100CF000A3E0F9E82274EE121BE2EA2404F8E43BD4
:100D0000F9880889098882F583E493602590048135
:100D1000120CEEFEE9FF8007EE2404FE50010F8E58
:100D2000828F83E493F8740193F9EA687002EB69A7
:100D300070E6750B00803F9062147490F07410128E
:100D40000E4A7003750A408E828F83A3A3A3E49397
:100D5000550E6006E50AD2E0F50AE50A906215F044
:100D6000EA906213F0EC240CF582E43DF583E4F0A4
:100D700090620EF0050B850882850983E493F8E5FF
:100D80000BC3984003020E457A0079051216FC8ABF
:100D90000C8B0DEA450D60DCEA2402F8E4350DF910
:100DA000881089118882F583E493540FF5129062BC
:100DB0000EF0750A008A828B83A3A3A3A3E4932475
:100DC00007F50EA3E4933400F50F7403780E121F99
:100DD00063AA0EA812749F28F8E43403F9E8FCE92A
:100DE000FD750E01750F00E512780E121F31E50E2C
:100DF000F50EE50C2403F8E4350DF9851082851114
:100E000083E493A2E74003020D379062117448F027
:100E10007408120E4A7003750A408E828F83A3A352
:100E2000E493550E6006E50AD2E0F50AE50A906201
:100E300012F0EA906210F08C828D83A3A3A3A3A387
:100E4000A3A3020D6E7F0B021D81F088828983E4CB
:100E5000935403640122C082C083120F487010A310
:100E6000120F4B700AA3E064017002A3E0600790C8
:100E700003A67404800C9003B374A0F0A37403124F
:100E80000FA0F0D083D0822274F3121BE290039F54
:100E9000E0640260149003BC120F4B700CA3120F9D
:100EA0004B70069003BBE060099003A67404F00247
:100EB0000F437A007901121BE09003BAE0606F7A69
:100EC00000F912178B8A0A8B0BEA450B60589003C6
:100ED0009F7404F09003BAE09003A0F075080085B9
:100EE0000A82850B83A3A3A3A3E493F8E508C39820
:100EF000504AA80874A128F8E43403F9E8FEE9FF91
:100F00008E828F83E4F07A0079041216FC8A828B39
:100F100083A3A3A3E493F88E828F83E06870E71223
:100F20000CF5050880B99003A67404F0800E9003B8
:100F3000A0F090039F7403F0F912167C7A007902F6
:100F4000121BE07F06021D819003BAE0F8A3E0F9CE
:100F5000E8492274F6121BE290039FE064047019C2
:100F60009003B8E064817011120F48700C9003BEBA
:100F7000E064017002A3E060079003A67404801A85
:100F80009003BCE024A1F508A3E03403F509900325
:100F9000B3E508F0A3E509120FA0F07F03021D815D
:100FA000F0A3E4F0A304120FAA22F0A3E4F090034C
:100FB000A6042274F7121BE290039FE0640470649D
:100FC0009003B8E06401705C9003BE120F4B705444
:100FD0009003BAE0FB9003BCE0FA9003A0E0F912A2
:100FE00017C38A088B09AE08AF09EE4F603690032D
:100FF000BCE0FA7903121BE09003BAE0C0E0900372
:10100000BCE024A1F8A3E03403F988828983D0E00E
:10101000F0EEFAEFFB120CF59003BCE0FA79041243
:101020001BE080069003A67404F07F02021D81C0BD
:1010300082C0838003121A46A2E840F9A823E8542C
:101040000460097823E654FBF6121423A823E8541D
:101050001060097823E654EFF6121444A823E8A29E
:10106000E05005782354FCF690620EE0FA7404F028
:10107000906214E0A2E05039A9A8C2AF906216E0D5
:10108000F8A3E0E8FBE9A2E792AF8017906228E0BE
:10109000C0E0900393E0F8121131D0E0F090039398
:1010A000E004F0EBFD74FF2DFB0470E0906214E4AB
:1010B000F0EA90620EF0E0FC7404F0906211E0A29D
:1010C000E04031900395E0F8900394E06860257A61
:1010D00040900394121174E0906228F0900394E021
:1010E00004F008900395E06860041AEA70E39062E7
:1010F000117401F0EC90620EF0D083D0822274F86B
:10110000121BE2E9FE79008012121131E08A828B13
:1011100083F0900392E00412116909900392E0F8C1
:10112000900393E0686005E9C39E40DD7F01021DE6
:1011300081748528F582E43404F58322C082C0835B
:10114000E9FC80188A828B83E0C0E090039512113D
:1011500074D0E0121169900395E004F0ECF874FF8C
:1011600028FC0470DF79018090F08A828B83A3AA27
:1011700082AB8322E0F8748528F582E43405F58398
:1011800022C082C083900395E0F8900394E06860E9
:10119000047901800279000210F902102F74FB1209
:1011A0001ECB7E009006857808121F81794A1213A3
:1011B000D29006857401F0A3F0A37469F0A374A51E
:1011C000F09003D77808121EF670047E0180159007
:1011D00003DB7808121EF66008E59D541864107051
:1011E00003022000EEF9121349C280D291EEA2E070
:1011F00050030212FCAA18AB19120291E970030203
:1012000012FCC291851882851983E0C3943C500E6C
:10121000E0F8743CC398F50895E0F5098006750878
:1012200000750900E4F50AF50B9003DF780C121F36
:10123000817808790C121AE6790612015112102FE2
:10124000120176E9F8740968700779061201518075
:10125000277407686016A2935012E8600874066845
:1012600060030212FCA292400F0212FC7508007586
:101270000900750A00750B0085080C85090D850AA3
:101280000E850B0F9003C27808121F0BE50C450D5D
:10129000450E450F70A7D2807907120151800312C5
:1012A000102F121181E970F77E007F007401121F68
:1012B0009DE4F0A37426F0A3E4F0A3F07401121FE0
:1012C0009D7808121F8185080C85090D850A0E85F9
:1012D0000B0F9003C2780C121F0B7401121F9D7824
:1012E0000C121F72E5084509450A450B70CEA29203
:1012F00050FCA29350F81213CD022000D280D2915C
:10130000794E1213D2750800750900750A00750B25
:1013100000790512015112102F120176E9F87409B3
:101320006860EE74016870EE12102F9003E3780885
:10133000121F0B9003E77808121E0F50EB1213CD0B
:101340000220007405121E4C2274F8121BE2E9FE02
:1013500053BEFBE59DA2E650FA0078F8790100E85B
:1013600024FF18E934FFF9E84970F375C6807480EA
:10137000659E70FA43BE049062707408F01213C246
:10138000EE700853F4FEC29043FE017403F5D57568
:10139000D489900396E4F0A374C2F0A37401F0A37F
:1013A000E4F0A3F0A3F0A37408F01213E87AFF7B33
:1013B000FF121A0153F4FED29043FE011213C2022F
:1013C000112CD28043FD01C29143FE0222D280C281
:1013D0009122781075B60FE5B4A2E750FAE5BBC3C9
:1013E0009940F118E870ED2274F7121BE27A007947
:1013F0000112178B8A828B83A3A3A3A3A3A3A3E4C5
:1014000093A2E69003B2500474018001E4F09003CB
:10141000B1E4F090620F7403F0E0A2E750FB7F02AA
:10142000021D81C082C08390039F7402F0A3E4F088
:101430009003A6F0790312167C752100752200D066
:1014400083D0822274F6121BE290620EE0FEE4F07A
:10145000906211E0FFA2E4501D7480F09003A67426
:1014600007F0E52145226009852182852283121F2C
:10147000AC9003A6E4F0EFA2E2500B906211E4F00E
:101480009003A6F080679003A6E0F87402687046A7
:10149000906216E0FF9003B3121DC1EFF97A207B32
:1014A000621216967403121E4CEFF89003B61216D1
:1014B0005A1216642F12166CA3E0F8A3E0F9E8495B
:1014C0006004744080027448906211F0E84960033F
:1014D00002165002162C7406687009852182852236
:1014E00083121FAC9003A6E060030215D7EFA2E0C1
:1014F00040030216507508B8750903750A0078088C
:10150000121EE179087A207B621216967403121E6D
:101510004C7521007522009003B8E054E0601D2452
:10152000E070030215B224E0607224C0604824E039
:1015300070030215BD24E0606E0215C8A3E01460BC
:101540002624FE601D24FE600A24FC601F24FE6029
:10155000208075120B009003A6E06404707278601E
:101560008070120AF480EF120AE880EA120E888076
:10157000E5120FB380E0A3E0600E24FA600F24FEB2
:10158000601024FE6011804012092080C9120B46B1
:1015900080C4120E5680BF120F5380BA7521CB75CE
:1015A000221B121BCB80AF7521CD75221B121BCDC8
:1015B00080A475216675221B121B66809975219681
:1015C00075221B121B96808E9003A67404F0808EE9
:1015D0007840E8906211F09003A6E0F8740168701A
:1015E000617F029003B6E0F8A3E0F9C3E89420E934
:1015F00094005007E8F5087F0A80037508209003DF
:10160000B3121DC1A9087A207B621216C17403129D
:101610001E4CAC081216642C12166CA808A31216E5
:101620005AEF906211F0E8C394205024E52145223E
:101630006009852182852283121FAC9003A6E4F005
:10164000800E7405687009852182852283121FAC83
:10165000EE90620EF07F03021D81C3E098F0A3E0DC
:101660009400F0229003B31216EEE922F9E43AFA5C
:101670009003B3E9F0A3EAF0A3EBF022C082C083A9
:10168000E99003A77805F0A3D8FC9003AC7805F0A7
:10169000A3D8FC02143F74F8121BE2EAFCEBFDE94C
:1016A000F87408121F9D1216E960118C828D83E078
:1016B000121EB5E9240109E43AFAD8EF7F01021DB0
:1016C0008174F8121BE2EAFCEBFDE9F87408121FC2
:1016D0009D1216E96011121E828C828D83F0E9241E
:1016E0000109E43AFAD8EF80D31216EEE822E0F9C5
:1016F000A3E0FAA3E0FB22D083D08222C082C08381
:10170000E9FCEAFD7A007B00800312174790039DF5
:10171000E0F8A3E0F990047BE0687003A3E069605F
:101720002490039EE0F5838882A3E493F8EC68702C
:101730000D90039DE0FAA3E0FB1217478007ED68C8
:1017400070C8ED60C580B090039DE0F8A3E0F5831C
:101750008882E493F890039DE028F8A3E03400F930
:1017600090039DE8F0A3E9F022C082C08312177AAB
:101770007A0079011216FC0216F7900479E0F8A3BA
:10178000E0F990039DE8F0A3E9F02274F7121BE260
:10179000E9FFEAFE12177A7A0079021216FCEA4B88
:1017A000601CEF60108A828B83A3A3A3A3A3E4939E
:1017B0006F70E48009EEF874FF28FE0470D97F0290
:1017C000021D8174F5121BE2EAFF8B087A001217E2
:1017D0008B7A0279041216FCEA4B60188A828B839A
:1017E000A3A3E4936F70EA8A828B83A3A3A3E493F9
:1017F000650870DD7F04021D8174F7121BE274F02E
:10180000121ECBE97A007B00600C14601014601487
:101810001460180218E97AF37B030218E97AF77B5F
:10182000030218E97A1B7B040218E990043FE06088
:10183000030218E59003EB7408121F4C7408121D84
:10184000EE750808F5097808121EE57402121F4C9F
:101850007AE87B07797F1219007402121E4C78080F
:10186000121EE5740A121F4C7402121F44121CA5AA
:101870007402121E4C8B09EA45097019750900782B
:1018800008121EE57C0C7D787402121F44121D3B69
:101890007402121E4C7C287D00EDF8851882851993
:1018A00083E58228F582E43583F583E0FFECF87464
:1018B0003F28F8E43404F9EF1218F188828983F0A4
:1018C000EFC41218F1C0E0E824FEF582E934FFF518
:1018D00083D0E0F00D74FC2CFCEDC3940840BA906A
:1018E000043F742AF07A3F7B047410121E4C0217D6
:1018F000BE540FFA74692AF582E43404F583E022B9
:1019000074F6121BE2890A740F550AF5087509006E
:10191000740B7808121F31EA2400F8EB3480F9E8E0
:101920002400E93509F985C709A2AFE433F508C2F7
:10193000AFE50AC4540FFAE5C754F84AF5C7740A6C
:10194000121F9DE0FAA3E0FB801C88828983E08C53
:10195000828D83F088828983A3A882A9838C828D5B
:1019600083A3AC82AD83EAFEEBFFEE24FF1AEF34D3
:10197000FFFBEE4F70D48509C7E508A2E092AF7F68
:1019800003021D8174F7121BE2ED900389F0ECA3B2
:10199000F0A37462F0A37473F0A3E0541FF0740911
:1019A000121F9DE0F508A3E0F509E508333354FC68
:1019B00090038EF074067808121F63E50890038D7B
:1019C000F090038F7412F0A37442F075D1FE75D6B7
:1019D00001EA906271F0EBA3F0906270E0D2E1F066
:1019E000E0A2E740FB7F02021D81C082C083E9C301
:1019F00033906272F0906270E0D2E0F0D083D082D7
:101A00002274F7121BE27523007524007525008AE5
:101A1000268B27EA90620BF08A088B0974047808F9
:101A2000121F63E508906207F08A088B0974097831
:101A300008121F63E508543E906209F0758B00C2DE
:101A4000E87F02021D8174F7121BE2E59DA2E650B9
:101A5000FA906206E0F9A2E25034AA26EA90620BFC
:101A6000F0F50885270974047808121F63E50890CB
:101A70006207F08A0885270974097808121F63E550
:101A800008543E906209F0906201E0D2E0F0E978FB
:101A90002346F6906202E0F50875090074047808A0
:101AA000121F317823E50846F608E50946F69062EC
:101AB00004E0F50875090074097808121F317824CC
:101AC000E50946F6E9A2E050037525017406596060
:101AD00003752500E58BA2E55006758BDF752500A3
:101AE000121BE1021A3C080808EAC0E0EBC0E086DD
:101AF000F0E7A4FA180986F0E7A42AFA180986F094
:101B0000E7A42AFA180986F0E7A42AFA1986F0E76A
:101B1000A4FBE5F02AFA190886F0E7A42BFBE5F010
:101B20003AFA190886F0E7A42BFBE5F03AFA181800
:101B30000986F0E7A4C5F02BFBE43AFA1908E7C5DB
:101B4000F0C6A426F6E5F03BFBE43AFA1886F0E787
:101B5000A4F6E5F00826F6E43B08F6E43A08F6D0E9
:101B6000E0FBD0E0FA22C082C0839003B9E0F874B1
:101B7000226870089003A6E0701A801174206890A3
:101B800003A6700DE0700D121BBD9003A6740280B9
:101B9000027404F08043C082C0839003B9E06421E2
:101BA0009003A67013E07013121BBDA37407F0A37B
:101BB000E4F09003A60480027404F0801C9003B348
:101BC0007496F0A37403F0A3E4F02280028000C0B6
:101BD00082C0839003A67404F0D083D0822280EF69
:101BE00022222518C582C0E0E51934FFC583C0E074
:101BF000E518C3958224F910AF08858319858218EA
:101C00008008858319858218D2AFCEF0A3E520F035
:101C1000A37808E608F0A3DEFAEFF0A3E58124FB41
:101C2000F8E608F0A3E608F0A30808E608F0A3E643
:101C300008F0A315811581D0E0FED0E0F8158115DC
:101C400081E8C0E0EEC0E0221201000202000020A4
:101C50005104A81609000102030109024300020110
:101C6000008019090400000102020100052400108F
:101C700001042402020524060001052401000107D5
:101C800005820340004009040100020A0000000729
:101C900005840240000007050402400000631C00A8
:101CA00000861C000074F8121BE27408121F9DE0ED
:101CB000FEA3E08015A3AA82AB838C828D83A3ACA4
:101CC00082AD83EE24FF1EEF34FFFFEE4F60198CD0
:101CD000828D83E0F88A828B83E0F9E86960D6E937
:101CE000C398FA95E0FB80047A007B007F01021D17
:101CF00081E479217807B800028004F709D8FCE470
:101D000090030278C179018002F0A3D8FCD9FA7A55
:101D1000C27B0390008E78C479018015E493A3AD53
:101D200082AE838A828B83F0A3AA82AB838D828E5C
:101D300083D8E9D9E712119D121FA774F7121BE28D
:101D4000EAF8EBF97409121F9DE0FEA3E0FF80188A
:101D50008C828D83E088828983F0A3A882A9838CFA
:101D6000828D83A3AC82AD838E088F09E50824FFA2
:101D70001EE50934FFFFE508450970D47F02021D06
:101D800081851983851882E0A3FEE0A3F5207808F9
:101D9000E0A3F608DFFAE0A3FFE0A3C0E0E0A3C001
:101DA000E0E0A3C0E0E0A3C0E010AF0885821885A2
:101DB00083198008858218858319D2AFD083D08299
:101DC0002274038000CCC0E0EDC0E0E518C39CCCD9
:101DD000AD1950011D10AF068C188D1980068C1896
:101DE0008D19D2AF121DEED0E0FDD0E0FC22CAC0AA
:101DF000E0E0A3C582CCC582C583CDC583F0A3C571
:101E000082CCC582C583CDC583DAE6D0E0CA22C0C4
:101E100008C3E096F50808A3E096420808A3E096F8
:101E2000420808A3E09645087001D3D00822C58275
:101E30002518C582C583351910AF07F51985821895
:101E40008007F519858218D2AFC5832200C0D0253E
:101E50001810AF08F518500C05198008F518500235
:101E60000519D2AFD0D0222518F58210AF08F51889
:101E7000400C15198008F51840021519D2AF8519C4
:101E80008322BB0102E722C082C08389828A83BB8E
:101E90000003E08002E493D083D082226016080819
:101EA00008C6C313C618C613C618C613C618C61369
:101EB000C6D5E0EA22BB000EC082C0838A83898235
:101EC000F0D083D08222BB0101F722251810AF0881
:101ED000F518400C15198008F51840021519D2AFF5
:101EE000227403800474028000C0E0F404121E67B0
:101EF000D0E0121F9022E066701008A3E066700A1E
:101F000008A3E066700408A3E06622E026F608A3B2
:101F1000E036F608A3E036F608A3E036F622E62718
:101F2000F60809E637F60809E637F60809E637F64F
:101F300022700422600D18C6C333C608C633C6D546
:101F4000E0F418222518FAE43519FB222518FCE4E0
:101F50003519FD2275D00075813F7518027519037A
:101F6000021CF1600C08C6C313C618C613C6D5E020
:101F7000F422E6F008A3E6F008A3E6F008A3E6F0F2
:101F800022E0F608A3E0F608A3E0F608A3E0F622B4
:101F9000CAC0E0E6F0A308DAFAD0E0FA222518F584
:101FA00082E43519F5832200000080FBE473FFFF13
:101FB000FFFFFFFFFFFFFFFFFFFFFFFFFFFFFFFF31
:101FC000FFFFFFFFFFFFFFFFFFFFFFFFFFFFFFFF21
:101FD000FFFFFFFFFFFFFFFFFFFFFFFFFFFFFFFF11
:101FE000FFFFFFFFFFFFFFFFFFFFFFFFFFFFFFFF01
:0A1FF600850609433886000000004C
:020000040003F7
:01FFF000F020
:020000040000FA
:10200000022DE002224FFFFFFFFFFFFFFFFFFFFF58
:10201000FFFFFFFFFFFFFFFFFFFFFFFFFFFFFFFFD0
:10202000FFFFFFFFFFFFFFFFFFFFFF022B56FFFF3A
:10203000FFFFFF022271FFFFFFFFFFFFFFFFFFFF18
:10204000FFFFFFFFFFFFFFFFFFFFFFFFFFFFFFFFA0
:10205000FFFFFF022189FFFFFFFFFFFFFFFFFFFFE1
:10206000FFFFFFFFFFFFFFFFFFFFFF022A70FFFFE1
:10207000FFFFFFFFFFFFFFFFFFFFFF0228C1FFFF82
:10208000FFFFFF0221E001FFFFFFFFFFFFFFFFFF58
:10209000102010200100F8FE0700000100FFFF00E3
:1020A00000030400000F0100000300010020FD00F8
:1020B000020000373300000000B332BB330733792E
:1020C000330000DD3200000000000000000000E9E5
:1020D0003200000000000000000000F53206FFFFA3
:1020E000FF00035F005F00300058000000000000A8
:1020F00000000000000000000000000000000000E0
:102100000000000000000000000000E12636273635
:1021100027362736273E2701040000581400000008
:10212000E8030000FFFF2815018813000003E803FF
:10213000000064006400B801A0BB0D00A0BB0D004E
:102140000202020704010101051E02051E020A0A1D
:1021500001010809080103B80B02803E0102FEFFDD
:10216000E8030A050001FFFF0A011401E00105036D
:102170000101FF0F10FEFF2650000000005C4F0021
:10218000000000FF000000FF00C0E074F212268291
:10219000A2AFE433F508D2AFAFA7AEA1EE5F541003
:1021A000600612303175A1EFEE5F540860081230FE
:1021B0003775A1F78023EEA2E092F0EFA2E082F063
:1021C0005017906198E0F8900561E0C398A2D2653D
:1021D000D0335002E8F075A1FE751A00E50880665C
:1021E000C0E074F2122682A2AFE433FED2AF906157
:1021F000A4E0F8759B00E59158540860087591F7C4
:102200001230858023E59158541060087591EF12C3
:10221000308B8014E591A2E092F0E8A2E082F050C9
:1022200007E0C2E0F01231E19061A3E0F8E5E9587F
:102230005404600E1231B775E9FB906193E0A2E699
:1022400040F2751A00EEA2E092AF7F0102273EC075
:10225000E074F2122682A2AFE433FED2AF9061A501
:10226000E0F8E5BF585404600675BFFB1231F980F1
:10227000D1C0E074F1122682E59DA2E650FA906288
:1022800006E0F9A2E25034AA2CEA90620BF0F508BD
:10229000852D0974047808122DF0E508906207F086
:1022A0008A08852D0974097808122DF0E508543E36
:1022B000906209F0906201E0D2E0F0E9782946F6F8
:1022C000906202E0F50875090074047808122D3058
:1022D0007829E50846F608E50946F6906204E0F537
:1022E0000875090074097808122D30782AE5094626
:1022F000F6E9A2E05003752B017406596003752BB3
:1023000000E58BA2E55006758BDF752B0012374573
:10231000758B00C2E87F0202273EC3E498F8E49977
:10232000F912235B8026C3E49AFAE49BFBE920E7D9
:10233000E912235BE498F8E499F922C3E498F8E4FD
:1023400099F912235BE498F8E499F9C3E49AFAE462
:102350009BFB22EB20E7CFE920E7E0B90010BB00B0
:1023600008E88AF084F8AAF022E4FBC8FA22EB70AD
:10237000227B10C833C8C933C9335007C39AC3DBA3
:10238000F280069A50012ADBEAC833F4C8C933F454
:10239000C9FA2275F008E4C833C8C933C933C99AE9
:1023A000C99B5004C92AC93BD5F0ECFBC833F4C81B
:1023B000E4C9FA2274F512261C74FA122C27750847
:1023C000047509007808122B967404122C077AF809
:1023D0007B077903122F0B7402122BA990814F787F
:1023E00008122E0E7402122E657808122C7E704987
:1023F0007508027509007808122B967402122C07D2
:102400007AF67B077903122F0B7402122BA9851819
:1024100082851983E0F47003A3E0F4601C851882C0
:10242000851983E0F8A3E0F9888289837402F0A318
:10243000F0A37469F0A374A5F0C2AF75D69F020033
:10244000007406122BA97F04022904080808EAC0B8
:10245000E0EBC0E086F0E7A4FA180986F0E7A42ACA
:10246000FA180986F0E7A42AFA180986F0E7A42AE0
:10247000FA1986F0E7A4FBE5F02AFA190886F0E7D6
:10248000A42BFBE5F03AFA190886F0E7A42BFBE54C
:10249000F03AFA18180986F0E7A4C5F02BFBE43AE5
:1024A000FA1908E7C5F0C6A426F6E5F03BFBE43AC6
:1024B000FA1886F0E7A4F6E5F00826F6E43B08F6FD
:1024C000E43A08F6D0E0FBD0E0FA22122E5AB90026
:1024D0000302252BE47921780DB800028004F70966
:1024E000D8FCE49004D1785F79158002F0A3D8FC81
:1024F000D9FA781A9020867A01BA00028007E4930C
:10250000A3F608DAF97A2F7B1990209478F67901EE
:102510008015E493A3AD82AE838A828B83F0A3AA55
:1025200082AB838D828E83D8E9D9E775829D7583CE
:102530009F7407122B3875825975834D7400122BC6
:1025400038E4CFC0E0E4CEC0E0E4CDC0E0E4CCC0ED
:10255000E075F020E626F608E633F608E633F608DE
:10256000E633F6181818EC33FCED33FDEE33FEEFCE
:1025700033FFC3EC9709ED9709EE9709EF97191907
:1025800019400FFFEC97FC09ED97FD09EE97FE1936
:102590001906D5F0BFECF709EDF709EEF709EFF7EB
:1025A000191919D0E0FCD0E0FDD0E0FED0E0FF2208
:1025B0002518C582C0E0E51934FFC583C0E0E518E1
:1025C000C3958224F810AF08858319858218800886
:1025D000858319858218D2AFCEF0A3E520F0A378C9
:1025E00008E608F0A3DEFAEFF0A3E58124FAF8E6A6
:1025F00008F0A3E608F0A3E608F0A30808E608F050
:10260000A3E608F0A315811581D0E0FED0E0F8150F
:102610008115811581E8C0E0EEC0E0222518C58251
:10262000C0E0E51934FFC583C0E0E518C3958224F6
:10263000F910AF088583198582188008858319856C
:102640008218D2AFCEF0A3E520F0A37808E608F018
:10265000A3DEFAEFF0A3E58124FBF8E608F0A3E699
:1026600008F0A30808E608F0A3E608F0A315811512
:1026700081D0E0FED0E0F815811581E8C0E0EEC021
:10268000E022C0D02518C582C0E0E51934FFC5831B
:10269000C0E0E518C3958224F310AF08858319853F
:1026A00082188008858319858218D2AFC8F0A3E903
:1026B000F0A3EAF0A3EBF0A37908E709F0A3D8FAB6
:1026C000ECF0A3EDF0A3EEF0A3EFF0A3D0E0F0A3C5
:1026D000D0E0F0A3D0E0F0A3E520F0A3E5F0F0A374
:1026E0002212010002020000205104A81609000174
:1026F00002030109024300020100801909040000DD
:102700000102020100052400100104240202052434
:10271000060001052401000107058203400040096D
:10272000040100020A0000000705840240000007BF
:10273000050402400000FC2600001F270000851948
:1027400083851882E0C0E0A3E0F9A3E0FAA3E0FBF0
:10275000A37808E0F608A3DFFAE0FCA3E0FDA3E01D
:10276000FEA3E0FFA3E0C0E0A3E0C0E0A3E0F5D05B
:10277000A3E0F520A3E0A3F5F010AF088583198549
:1027800082188008858319858218D2AFD082D083C1
:10279000D0E0F8D0E032E47375F0108E218F2285FE
:1027A0008226858325851882851983E0CEA3E0CF14
:1027B000852682852583EBC9EAC8EDCBECCAC3E840
:1027C00033C8E933C9EA33CAEB33CBC3EA9EF524F5
:1027D000EB9FF523B35004AB23AA24EC33CCED33A9
:1027E000CDD5F0DAAE21AF2222D083D082ECC0E08A
:1027F000EDC0E0E493A3FCE493A3FDED4C600D1267
:102800002944EC24FFFCED34FFFD80EFE493A3FCAE
:10281000E493A3FDED4C600D122A1BEC24FFFCEDAC
:1028200034FFFD80EFD0E0FDD0E0FCE493A3C0E0F6
:10283000E493C0E022851983851882E0A3FEE0A31B
:10284000F5207808E0A3F608DFFAE0A3FFE0A3C0D4
:10285000E0E0A3C0E0E0A3C0E0E0A3C0E0E0A3C0EC
:10286000E010AF0885821885831980088582188555
:102870008319D2AFD083D082022B3ED083D082E99D
:10288000C0E0E493A3C386F0C5F095F0F908E493A3
:10289000A386F0C5F095F0700BE493A3C3994005AF
:1028A000E9048002A3E475F002A42582F582E5F034
:1028B0003583F583D0E0F9E493A3C0E0E493C0E06E
:1028C00022C0E074F2122682A2AFE433FED2AFE55A
:1028D0008AA2E25007900522E0D2E0F0E58AA2E366
:1028E0005007900522E0D2E1F0758A00C2EB7A1021
:1028F0007B0090051EE0F91234E7EEA2E092AF7F74
:102900000102273E851983851882E0A3FEE0A3F526
:10291000207808E0A3F608DFFAE0A3FFE0A3C0E018
:10292000E0A3C0E0E0A3C0E0E0A3C0E010AF0885F2
:1029300082188583198008858218858319D2AFD0C3
:1029400083D08222C0E0C3E4939608740193961862
:10295000400FE49366700808740193661870007065
:1029600019A3A3C3E49396087401939618A3A340F4
:102970000DD0E0D0E0D0E0022825A3A3A3A3A3A319
:10298000D0E022D083D082C5F0E493A3C5F0C395F4
:10299000F0F5F0E493A3C395F04005E5F004800161
:1029A000E475F002A42582F582E5F03583F583E431
:1029B00093A3C0E0E493C0E0227404800874038011
:1029C0000474028000CCC0E0EDC0E0E518C39CCCEC
:1029D000AD1950011D10AF068C188D1980068C188A
:1029E0008D19D2AF122ABAD0E0FDD0E0FC227402D9
:1029F0008000CCC0E0EDC0E0E518C39CCCAD195020
:102A0000011D10AF068C188D1980068C188D19D2F7
:102A1000AF122A98D0E0FDD0E0FC22C0E0C0F088E0
:102A2000F0E4936670080874019366187000A8F0CB
:102A3000A3A3700BD0F0D0E0D0E0D0E0022825A313
:102A4000A3D0F0D0E022D083D082CCC0E0E493A326
:102A50006006122ADB1470FAE493A36006122C536A
:102A60001470FAD0E0FCE493A3C0E0E493C0E02249
:102A7000C0E074F2122682758900C2C59016DAE0B1
:102A8000700E7A007B109005F7E0F91234E78003AE
:102A9000123DFF7F0102273ECAC0E0E493A3C58236
:102AA000CCC582C583CDC583F0A3C582CCC582C504
:102AB00083CDC583DAE5D0E0CA22CAC0E0E0A3C571
:102AC00082CCC582C583CDC583F0A3C582CCC58227
:102AD000C583CDC583DAE6D0E0CA22C0E0E493A383
:102AE000D39C5010E493A3C39C400AD0E0D0E0D024
:102AF000E0022A63A3A3A3D0E022700908080822F9
:102B00006016181818C6C333C608C633C608C633BD
:102B1000C608C633C6D5E0EA22C008C3E096F50869
:102B200008A3E096420808A3E096420808A3E096AE
:102B300045087001D3D00822C09FF59FE473D09F51
:102B400022D083D082C09FE493C0E0740193C0E0A0
:102B5000740293F59F22C0E0C0D0E8C0E0A8A8D2DC
:102B6000AFC2C7751A00E8A2E792AFD0E0F8D0D0A4
:102B7000D0E0322518F58210AF08F518400C151971
:102B80008008F51840021519D2AF85198322740404
:102B9000800A74038006740280027401C0E0F404A9
:102BA000122B73D0E0122E1D2200C0D0251810AFBA
:102BB00008F518500C05198008F51850020519D2AF
:102BC000AFD0D022BB0102E722C082C08389828AB3
:102BD00083BB0003E08002E493D083D0822260169E
:102BE000080808C6C313C618C613C618C613C618E5
:102BF000C613C6D5E0EA222518F8E43519F92225CE
:102C000018FAE43519FB222518FCE43519FD22C316
:102C1000E0C696F608A3E0C696F608A3E0C696F6C8
:102C200008A3E0C696F622251810AF08F518400C48
:102C300015198008F51840021519D2AF22BB000EF5
:102C4000C082C0838A838982F0D083D08222BB0174
:102C500001F722C0E0E493A36C7009D0E0D0E0D08B
:102C6000E0022A63A3A3D0E022E76670100809E718
:102C700066700A0809E76670040809E76622E066DC
:102C8000701008A3E066700A08A3E066700408A349
:102C9000E06622C3E09608A3E09608A3E09608A3A6
:102CA000E096A2D265D03322C3E697F60809E697EC
:102CB000F60809E697F60809E697F622C3E4939624
:102CC00008740193960874029396087403939622ED
:102CD000C3E096F008A3E096F008A3E096F008A3FE
:102CE000E096F022E026F008A3E036F008A3E036F4
:102CF000F008A3E036F022E647F60809E647F608B2
:102D000009E647F60809E647F622E627F60809E647
:102D100037F60809E637F60809E637F622E056F6F0
:102D200008A3E056F608A3E056F608A3E056F622FC
:102D3000700422600D18C6C333C608C633C6D5E07A
:102D4000F41822E056F008A3E056F008A3E056F08D
:102D500008A3E056F022E493F608740193F6087491
:102D60000293F608740393F622E026F608A3E036F1
:102D7000F608A3E036F608A3E036F622E657F60892
:102D800009E657F60809E657F60809E657F622E479
:102D9000C396F608E496F608E496F608E496F6225A
:102DA000C3E09608A3E09608A3E09608A3E0962265
:102DB000C6F4C608C6F4C608C6F4C608C6F4C622D9
:102DC000600D08C6A2E713C618C613C6D5E0F322E5
:102DD000C3E7960809E7960809E7960809E79622E7
:102DE00075D00075813F7518D1751904000224CB88
:102DF000600C08C6C313C618C613C6D5E0F422E695
:102E0000F008A3E6F008A3E6F008A3E6F022E0F657
:102E100008A3E0F608A3E0F608A3E0F622CAC0E0A3
:102E2000E6F0A308DAFAD0E0FA22EAF0A3EBF0A386
:102E3000ECF0A3EDF022E0FAA3E0FBA3E0FCA3E0BA
:102E4000FD22E0F8A3E0F9A3E0FAA3E0FB22E8F01A
:102E5000A3E9F0A3EAF0A3EBF022E5C754F844019C
:102E6000F5C77901222518F582E43519F583221278
:102E70002B41F3E705122B41CFE805122B41B4E9B2
:102E800005122B41F9E905122B415AEA05122B4193
:102E9000DCEA05122B4116EB05122B416EEB0512F5
:102EA0002B4190EB05122B4128EC05122B41CFEC66
:102EB00005122B4122ED05122B414EED05122B413F
:102EC0008FED05122B413CEF05122B4120F005122E
:102ED0002B41D1F005122B4158AD07122B4169ADA2
:102EE00007122B4107AE07122B41EB7F00122B413B
:102EF000D87F00122B416FAC07122B417FAC071219
:102F00002B4197AC07122B414BAD07122B417DAAE9
:102F100007122B4101AB07122B4169AB07122B4162
:102F2000D5AE07122B41D8AE07122B4111AF0712B5
:102F30002B4161AF07122B4174AF07122B4177AFC2
:102F400007122B41A3F606122B41B1F606122B41B4
:102F50002AF706122B41FFF706122B41BEF9061283
:102F60002B4123FA06122B417EFA06122B41F87FE1
:102F700000122B41909D07122B41C89D07122B4137
:102F8000169F07122B419A9F07122B41C8930712D5
:102F90002B41729407122B41AB9407122B41F294F0
:102FA00007122B41B59507122B41DD9507122B41D6
:102FB000039607122B41179607122B412C960712E6
:102FC0002B41359607122B4149CB06122B4175CB6D
:102FD00006122B411DCE06122B4174CE06122B4138
:102FE000B0CE06122B41C4CE06122B41DDCE061206
:102FF0002B41CECF06122B41AAD006122B41BED0B8
:1030000006122B4129A307122B414DA307122B4176
:1030100066A307122B41A4A307122B41D4A30712C6
:103020002B4101A407122B410BA407122B4171A4C1
:1030300007122B4174A407122B417EA407122B41C7
:103040008BA407122B4150FD03122B4170FD03127C
:103050002B41AFFD03122B41CDFD03122B41E8FDA7
:1030600003122B414EFE03122B415AFE03122B4139
:10307000B7FE03122B41C6FE03122B41EAFE0312D8
:103080002B41ABFF03122B41B8FF03122B41C9FFA9
:1030900003122B4176FF05122B418EFF05122B41A7
:1030A000BAFF05122B413BD606122B4195D70612CB
:1030B0002B41A3D706122B41B6D706122B41CBD7F3
:1030C00006122B41E0D706122B41F3D706122B41F3
:1030D0006FD806122B41D4D806122B415CD90612A8
:1030E0002B41D4D906122B41ADDA06122B41BDDAA1
:1030F00006122B41CCDA06122B412EB007122B41BF
:1031000052B007122B417AB007122B41A2B007121E
:103110002B416C9607122B41939607122B41B296C6
:1031200007122B41169707122B41FE9007122B41D5
:10313000179107122B41239107122B413791071248
:103140002B41559107122B415F9107122B41699139
:1031500007122B417C9107122B41099207122B4138
:10316000789207122B41A79207122B41F592071272
:103170002B41449307122B415F9307122B41699314
:1031800007122B417A9307122B41BD9307122B4153
:103190006DB107122B41B8B107122B417DA3061266
:1031A0002B41A9A306122B41C6A306122B41D9A37A
:1031B00006122B41F4A306122B414EA406122B41FA
:1031C0007CA406122B4182A806122B41D3A9061219
:1031D0002B4105AA06122B4167AA06122B41E1AB2F
:1031E00006122B4109AC06122B411EAC06122B41D4
:1031F0002EAC06122B416EAC06122B41B0AC06125F
:103200002B41C0AC06122B41F0A507122B410AA698
:1032100007122B4132A607122B414BA607122B4156
:103220006FA607122B418DA607122B41A4A60712E9
:103230002B41D2A607122B41EDA607122B4121AE3E
:1032400007122B4167AE07122B41DB8307122B417C
:10325000EB8307122B41F28407122B4126850712BC
:103260002B41528507122B41758507122B419385FF
:1032700007122B41CD8507122B41368607122B41B1
:10328000788607122B41BF8607122B41EC86071266
:103290002B41178707122B419AF206122B41FCF2A1
:1032A00006122B41A3F306122B41DAF306122B412F
:1032B000BEF105122B416DF205122B41A0F405124F
:1032C0002B4177F705122B4109F905122B416BF9B8
:1032D00005122B41EBFC05122B4133FE05122B414D
:1032E00047A807122B4192A807122B416B7D0012B1
:1032F0002B418E7F00122B41AE8A07122B41D28ABE
:1033000007122B41498C07122B41D2D006122B41B8
:1033100091D306122B412ED406122B415AD40612F9
:103320002B4188D406122B41BDD406122B41E5D483
:1033300006122B4145D506122B41779806122B41D8
:103340007E9C06122B417C9E06122B41AA9F0612E0
:103350002B418AA006122B413FA206122B410BA340
:1033600006122B415FA306122B41159907122B4120
:103370001F9907122B41409907122B4129D505129D
:103380002B413FDA05122B41A4DB05122B4180DDD6
:1033900005122B4104DE05122B41A3DE05122B4141
:1033A0009CDF05122B41CEE005122B41E6E1051210
:1033B0002B4101E305122B41008005122B4138807F
:1033C00005122B41098B05122B41068C05122B414E
:1033D000588D05122B41B58E05122B418E8F05128B
:1033E0002B415C9005122B41439105122B413292E7
:1033F00005122B41DA9205122B410A9305122B413B
:10340000BC9405122B41329505122B414B950512A8
:103410002B41AC9605122B416A9705122B41099856
:1034200005122B41B29805122B41209905122B4110
:10343000BE9905122B41419A05122B41799A05122A
:103440002B41909B05122B415E9C05122B410F9D39
:1034500005122B416EFE06122B4198FE06122B41DF
:10346000ADFF06122B41B0FF06122B41C7B0071269
:103470002B4109B107122B414BB107122B415BB114
:1034800007122B41BBC406122B41F9C406122B4173
:1034900062C506122B4181C506122B419AC5061240
:1034A0002B414CC606122B4155C606122B41A6C60F
:1034B00006122B41DCC606122B41F3C606122B4125
:1034C0005FC706122B41EFC706122B4125C8061213
:1034D0002B4169C806122B41CAC806122B41FCC8F1
:1034E00006122B416FC906122B41C3C906122B418C
:1034F00000CA06122B4137CA06122B4149CA0612CE
:103500002B415BCA06122B4193CA06122B41DFCA1C
:1035100006122B411DCB06122B41FDDA06122B4160
:103520003DDC06122B4160DC06122B4171DC0612D9
:103530002B4189DE06122B41A9DE06122B41559B39
:1035400007122B41899B07122B41D19B07122B415C
:103550002D9D07122B4154EB02122B4192EC0212CB
:103560002B41CEEC02122B419DEE02122B41C7EEF5
:1035700002122B415EF102122B419EF102122B41ED
:1035800033F302122B41C8F302122B4126F402122C
:103590002B41B9F402122B41F3F402122B4135F501
:1035A00002122B41A8F602122B412CF802122B41D9
:1035B00051FA02122B417FFA02122B41ABFA02128E
:1035C0002B41B4FA02122B410AFB02122B419AFB47
:1035D00002122B419DFE02122B411FFF02122B41B2
:1035E00080AF07122B4196AF07122B41A0AF0712F5
:1035F0002B41FCAF07122B413DEE06122B4153EE3F
:1036000006122B41F8EE06122B4137EF06122B4122
:1036100054EF06122B4185EF06122B41D2EF061212
:103620002B4106F006122B4141F006122B411DF2F0
:1036300006122B4188F206122B4120A707122B41BC
:103640007FA707122B41D9A707122B416AA907129E
:103650002B41DCA907122B411AAA07122B415BAAA6
:1036600007122B416DB506122B4173B506122B4183
:10367000BBB506122B41C7B706122B41F7B706128E
:103680002B4163B806122B4120B906122B4161B9B8
:1036900006122B4193B906122B411DBA06122B417B
:1036A00034BA06122B4141BA06122B414BBA06120C
:1036B0002B41EBBB06122B41F8BC06122B4156BD29
:1036C00006122B41F0AC06122B4106AD06122B411F
:1036D000B8AD06122B41E2AE06122B41D7AF06124F
:1036E0002B4174B006122B41AFB006122B4121B111
:1036F00006122B417FB106122B418FB106122B41CE
:10370000B6B106122B4108B206122B4171B3061254
:103710002B4176B306122B4198B306122B417CFF46
:1037200002122B41AAFF02122B41DFFF02122B4192
:10373000E1FF02122B41E3FF02122B41F4FF0212C0
:103740002B41F6FF02122B41F9FF02122B419AA1E5
:1037500007122B4108A207122B412AA207122B4164
:1037600062A207122B4198A207122B41E68D071285
:103770002B412D8E07122B41508E07122B41839027
:1037800007122B419D9007122B41C89007122B4125
:10379000C4B107122B41A4F801122B417DF901128B
:1037A0002B4163FA01122B4174FA01122B4185FA65
:1037B00001122B41D1FA01122B41C5FC01122B4100
:1037C0001FFE01122B414FFE01122B4113FF01126C
:1037D0002B4171FF01122B4130DD03122B4162DDC1
:1037E00003122B41F4DD03122B4162DF03122B4144
:1037F0005AE003122B41CFE103122B41EBE10312FC
:103800002B413AE203122B41CCE203122B4127E376
:1038100003122B413AE303122B41A4E303122B4181
:1038200013E403122B41BCE403122B41B1E5031254
:103830002B410CE603122B4192E603122B41FEE8CA
:1038400003122B41D5E903122B4113EB03122B4139
:1038500094EB03122B41D8EB03122B41A8EC03127B
:103860002B412FED03122B4171ED03122B4190EDF3
:1038700003122B41DBED03122B41FBED03122B4115
:10388000BEEE03122B41E4EF03122B41EFEF0312C4
:103890002B4144F003122B4199F003122B41F3F01A
:1038A00003122B41FBF103122B41AAF403122B410B
:1038B000D0F403122B41D1F503122B41FEF5031274
:1038C0002B417DF603122B4155F703122B418CF748
:1038D00003122B410FF803122B4128F903122B413D
:1038E00058F903122B4162F903122B4165F90312B7
:1038F0002B416FF903122B418BF903122B41FEF977
:1039000003122B4137FA03122B4153FA03122B41B6
:103910007FFA03122B41A6FA03122B41CAFA0312B3
:103920002B416DFB03122B41E0FB03122B4123FCC7
:1039300003122B412DFC03122B4164FC03122B417B
:103940007EFC03122B419BFC03122B41CAFC031289
:103950002B41E9FC03122B4101FD03122B4113FD06
:1039600003122B4182AB07122B4193AB07122B4161
:103970001EAC07122B41FBE406122B4139E506125F
:103980002B41D2E506122B41DDE606122B4125E93B
:1039900006122B415AE906122B418FBD06122B410C
:1039A000DEBD06122B419CBF06122B416FC10612D1
:1039B0002B41ADC106122B4183C206122B418CC391
:1039C00006122B41AEC306122B410AC406122B412C
:1039D0008BC406122B41B2BC04122B41D4BC04127E
:1039E0002B417CBE04122B41C5BE04122B4135BFB6
:1039F00004122B41B2BF04122B4118C004122B41F8
:103A00001BC004122B4162C004122B41D3C004120C
:103A10002B417EC104122B4181C104122B41F9C1FB
:103A200004122B413EC204122B4148C604122B4102
:103A3000A6C704122B41D9C704122B411FC8041278
:103A40002B417CCB04122B410FCC04122B41B7CD60
:103A500004122B41E7CE04122B4122D004122B4139
:103A60009DD004122B41B1D104122B414DD204122E
:103A70002B4161D204122B412AD304122B4160D472
:103A800004122B4180D604122B41B2D804122B41D0
:103A90008ED904122B410EDC04122B41E4DC0412FB
:103AA0002B4107DE04122B416CE104122B417CE117
:103AB00004122B41E2E204122B4192E304122B4147
:103AC000AAE404122B4155E604122B41D5E6041258
:103AD0002B4120E804122B4166E804122B4143E9F4
:103AE00004122B41C29D05122B415D9E05122B41F4
:103AF000D09E05122B41EB9E05122B418A9F051289
:103B00002B41D29F05122B4101A105122B4140A14F
:103B100005122B41B7A105122B4108A205122B411A
:103B20006FA205122B417AA305122B419FA6051205
:103B30002B41B5A705122B4132A805122B412EAA05
:103B400005122B41D3AA05122B4188AB05122B413C
:103B5000EDAB05122B415CAC05122B4172AD051289
:103B60002B4171AE05122B41ACAE05122B41C3AEF9
:103B700005122B4182AF05122B41C1AF05122B411B
:103B80003CB005122B41B5B105122B4157B30512BC
:103B90002B41B7B405122B4124B605122B4136B781
:103BA00005122B41C3B705122B4133B805122B4127
:103BB00053B905122B41625300122B41C553001219
:103BC0002B410D5400122B41515400122B41C25471
:103BD00000122B411C5500122B41575500122B414E
:103BE000F15500122B414B5600122B41B2570012D7
:103BF0002B412B5800122B41525800122B41645973
:103C000000122B414F5A00122B419C5A00122B419B
:103C1000AA5B00122B41D25B00122B412E5D0012D9
:103C20002B413F5D00122B41575D00122B41435E3B
:103C300000122B41325F00122B41356000122B41E4
:103C40005F6000122B41776000122B4192600012DE
:103C50002B41D16000122B41F16000122B411A61FF
:103C600000122B41316100122B410B6200122B41DB
:103C7000656200122B41176500122B414766001246
:103C80002B417D6600122B41876600122B419E66F8
:103C900000122B410F6700122B41FF6700122B41CE
:103CA000356800122B41FF6800122B41AE690012EB
:103CB0002B41DC6900122B411E6B00122B413D6B26
:103CC00000122B41BC6B00122B41F86B00122B41F0
:103CD000366C00122B41BF6C00122B412E6D00126E
:103CE0002B410D6E00122B41EB6F00122B41C07067
:103CF00000122B41107100122B41787200122B41DF
:103D0000727400122B411E7700122B41F1780012C1
:103D10002B41E3D305122B412B7A00122B414D7A14
:103D200000122B415C7B00122B41597C00122B416D
:103D3000C87C00122B41DBE906122B4106EC06126F
:103D40002B41CEEC06122B4123ED06122B41A9ED9F
:103D500006122B4192FA06122B41B0FA06122B41A1
:103D6000F4FA06122B411AFB06122B4141FB0612F4
:103D70002B4159FB06122B4171FB06122B419BE78D
:103D800005122B415DFC06122B4172FC06122B41E1
:103D900079FD06122B4194FD06122B419DFD061262
:103DA0002B41A6FD06122B41AFFD06122B41B9FD9A
:103DB00006122B4136FE06122B41FDDF06122B4167
:103DC00073E406122B418FE406122B4194E4061291
:103DD0002B4119A007122B416F8707122B418587B2
:103DE00007122B41068907122B41308907122B41FC
:103DF000768907122B417F8A07122B4195A407125F
:103E00002B4132B207122B4157B207122B410080CF
:103E100003122B41338003122B419A8003122B4152
:103E2000268103122B41CD8103122B4115820312EF
:103E30002B413A8203122B41538203122B41798288
:103E400003122B419B8203122B41D98203122B4177
:103E5000288303122B41518303122B41B083031299
:103E60002B41898403122B413F8503122B419D85F1
:103E700003122B41638603122B41AD8603122B41A3
:103E8000048703122B416F8703122B41AD87031266
:103E90002B41038803122B411F8803122B414A88B0
:103EA00003122B41598A03122B419F8B03122B4182
:103EB000CB8B03122B41FF8B03122B41208C03125F
:103EC0002B412F8C03122B413A8C03122B41EA8C8D
:103ED00003122B41598D03122B41068E03122B41E5
:103EE000428E03122B41008F03122B410D900312BF
:103EF0002B415A9003122B41E99003122B4143911D
:103F000003122B41889103122B41179403122B416A
:103F1000719503122B41BD9803122B419B990312FB
:103F20002B41729A03122B41869A03122B41AF9AAE
:103F300003122B41209B03122B41B69B03122B41F2
:103F4000299C03122B41189D03122B413D9D031206
:103F50002B41A09E03122B41BE9E03122B41D19EEA
:103F600003122B41359F03122B41449F03122B4117
:103F7000CC9F03122B41E29F03122B41E6A00312B8
:103F80002B41F3A003122B41FCA003122B41F6A2FC
:103F900003122B4126A403122B4136A403122B41FA
:103FA00039A503122B41B5A503122B41EEA503122F
:103FB0002B4126A703122B416CA703122B4147A9C3
:103FC00003122B4128AD03122B413CAD03122B41B0
:103FD00046AD03122B4150AD03122B415AAD0312D3
:103FE0002B4164AD03122B417DAD03122B4187ADF4
:103FF00003122B4101AE03122B410CAE03122B41D5
:104000003BAE03122B4163AE03122B416EAE031283
:104010002B41BCAE03122B41C6AE03122B41D1AED5
:1040200003122B41F5AE03122B4119AF03122B41A2
:1040300076AF03122B41BCAF03122B41D8AF031252
:104040002B415FB003122B4196B003122B41D5B028
:1040500003122B4122B103122B41A4B103122B41B5
:1040600050B203122B412CB403122B419AB4031209
:104070002B41C6B503122B41ECB503122B4145B7BA
:1040800003122B419DBA03122B41D6BC03122B41C4
:10409000B4BE03122B414DBF03122B4172C1031258
:1040A0002B4126C203122B415FC203122B41C5C212
:1040B00003122B41CFC203122B41F9C403122B412F
:1040C000DEC503122B4145C703122B418DC70312D6
:1040D0002B4141C803122B41E4C903122B416BCB86
:1040E00003122B418BCB03122B41DECB03122B414E
:1040F000DECC03122B4106CD03122B4169CD0312F6
:104100002B414CCE03122B41BECE03122B41D0CFFC
:1041100003122B4154D003122B4152D103122B41D5
:10412000E8D303122B4107D403122B4152D50312BB
:104130002B4120D703122B4174D703122B412CD8CB
:1041400003122B41DCD803122B413FD903122B4120
:1041500004DA03122B419ADA03122B4101DB03121A
:104160002B4143DB03122B4174DB03122B41D4DCC4
:1041700003122B41008002122B41328002122B418C
:104180006B8002122B41618202122B41A382021228
:104190002B41878302122B41DF8302122B412285A0
:1041A00002122B416E8502122B419A8802122B417A
:1041B000188C02122B41608D02122B41F68D0212D7
:1041C0002B41028E02122B41428E02122B41D78FBD
:1041D00002122B41CB9002122B41F59002122B417F
:1041E0004C9102122B41A59102122B411692021200
:1041F0002B414B9402122B41E29502122B41B696B1
:1042000002122B41FD9702122B41559A02122B41AB
:10421000269D02122B41359D02122B41B99D02129F
:104220002B416E9E02122B41B19E02122B41FA9E2F
:1042300002122B414E9F02122B41B39F02122B41BF
:104240000FA002122B412BA002122B415DA00212E3
:104250002B419CA002122B4182A102122B4131A2C0
:1042600002122B41B7A402122B41EDA502122B41E1
:10427000D4A602122B4154A702122B4161AB0212A9
:104280002B419FAB02122B4106AC02122B4139ACE1
:1042900002122B41CCAC02122B41FFAC02122B417B
:1042A0005BAD02122B41A7AD02122B417AAE021276
:1042B0002B4141AF02122B41DFAF02122B41E9B279
:1042C00002122B41FDB302122B41A8B702122B415F
:1042D000AAB802122B41ADB802122B41DCB802126F
:1042E0002B41DBBA02122B41B4BB02122B41D9BBCA
:1042F00002122B41F5BC02122B41ADBD02122B4123
:1043000071BF02122B41D5BF02122B41FABF02121C
:104310002B4134C002122B418FC002122B4163C1CA
:1043200002122B4151C202122B4185C202122B41B3
:104330003BC302122B414CC502122B41B7C50212DE
:104340002B41FFC502122B4138C602122B41CAC6AF
:1043500002122B4123C802122B41ACCB02122B417B
:10436000A1CC02122B419BCD02122B4118CE02127E
:104370002B41EACE02122B41C7D002122B4158D159
:1043800002122B415CD202122B4170D202122B413D
:1043900084D202122B4198D202122B41ACD20212CB
:1043A0002B41E2D202122B4112D302122B419CD498
:1043B00002122B415AD502122B41DED502122B419B
:1043C0002FD602122B41A8D602122B41EED6021292
:1043D0002B41D3D802122B4183D902122B41B3D9DE
:1043E00002122B4172DA02122B410FDB02122B4117
:1043F000BADC02122B41A7DD02122B41E6DD0212CC
:104400002B4158DE02122B419DDF02122B4150E05E
:1044100002122B4184E002122B419CE002122B413C
:104420003FE102122B412DE402122B41F8E502126A
:104430002B411CE602122B413AE602122B4109E7FE
:1044400002122B4136EB02122B41008007122B4146
:10445000408007122B410C8207122B411B8207124E
:104460002B41FBE904122B41BFEE04122B410DEF4F
:1044700004122B414BF104122B41EFF204122B4199
:104480007FF304122B41DBF504122B41E2F70412F7
:104490002B4139F804122B412DFA04122B417AFAE0
:1044A00004122B41D8FA04122B41FAFA04122B41C0
:1044B00001FB04122B4119FB04122B41DDFB0412FA
:1044C0002B41BFFC04122B41E08101122B412282BF
:1044D00001122B41788701122B41C48701122B4115
:1044E0000A8801122B41578901122B41C1890112FF
:1044F0002B41098A01122B41788B01122B41BD8E71
:1045000001122B41E28F01122B419A9B01122B4188
:10451000239C01122B418B9F01122B41EAA0011217
:104520002B4145A101122B4195A201122B417DA3E4
:1045300001122B4124A601122B41A5A701122B41E8
:1045400036A801122B4139A801122B41B0A8011243
:104550002B41BAA801122B41C7A801122B41F2A886
:1045600001122B4198A901122B4187AA01122B415C
:1045700040AB01122B41C3AB01122B41E1AB011245
:104580002B41F6AB01122B411FAC01122B414CAC5D
:1045900001122B4189AE01122B416AAF01122B414E
:1045A000B4AF01122B413FB001122B41EDB001120B
:1045B0002B411FB101122B4166B101122B4199B160
:1045C00001122B41EDB101122B413EB201122B41E0
:1045D00043B201122B4197B201122B4100B30112D9
:1045E0002B41CEB301122B4119B401122B417EB4E1
:1045F00001122B41E3B401122B417FB501122B4173
:10460000D9B801122B4107BA01122B41A7BB0112E5
:104610002B41FDBE01122B4193BF01122B41BFC2A2
:1046200001122B417AC301122B41C2C301122B414B
:1046300069C501122B417DC501122B4187C50112AD
:104640002B4191C501122B419DC501122B41BCC5C7
:1046500001122B410AC801122B4163C801122B41E0
:104660006DC801122B4177C801122B41FDC8011200
:104670002B4151C901122B415ECA01122B41CECAF6
:1046800001122B41D8CB01122B4121CC01122B411D
:10469000C8CC01122B41A8CD01122B4175CE0112BD
:1046A0002B41A8CF01122B41E5D001122B41E6D1BD
:1046B00001122B41FED101122B4132D201122B41AA
:1046C0003CD201122B4146D201122B4151D2011290
:1046D0002B416FD201122B41B7D201122B4115D3BE
:1046E00001122B413CD301122B414ED301122B411D
:1046F000E9D301122B411ED401122B411CD501120A
:104700002B4172D501122B4161D601122B4197D654
:1047100001122B41FAD601122B4172D701122B4103
:1047200018D901122B4140DA01122B411EDB011274
:104730002B41FDDB01122B417EDC01122B4119DDE7
:1047400001122B414EDE01122B41E0DE01122B4102
:1047500034DF01122B41A0DF01122B4166E0011270
:104760002B41B7E001122B410FE101122B41E0E197
:1047700001122B4103E201122B41B2E201122B4143
:10478000D4E201122B4135E301122B4183E50112E2
:104790002B4186E601122B414AE701122B417EE9AB
:1047A00001122B41C8E901122B4113EA01122B41DE
:1047B0006EEA01122B41DBEA01122B4109EB0112D7
:1047C0002B412DEB01122B4162EB01122B418FEBA0
:1047D00001122B41D5EB01122B4133EC01122B417D
:1047E00087EC01122B419DED01122B414AEF011282
:1047F0002B4193EF01122B41BCEF01122B414EF0E4
:1048000001122B41C6F001122B41D4F001122B41B1
:10481000F8F001122B4155F101122B4170F10112F8
:104820002B4131F201122B415DF201122B41A0F21A
:1048300001122B4103F301122B41FDF401122B4114
:104840002AF501122B411FF601122B411CF7011210
:104850002B41BFF701122B41208D06122B41588DA1
:1048600006122B41798D06122B41BD8D06122B416C
:10487000218E06122B412B8E06122B413B8E0612E7
:104880002B41728E06122B416A9206122B417894AC
:1048900006122B41659606122B41FC9606122B41FF
:1048A0009E9706122B41738004122B411C81041227
:1048B0002B41F38104122B41FB8204122B411B83F9
:1048C00004122B41338404122B41ED8504122B4139
:1048D000608604122B41FD8604122B4114880412B9
:1048E0002B41818804122B41BC8804122B41118971
:1048F00004122B414C8904122B41998904122B413B
:10490000298A04122B41B68A04122B418B8B041284
:104910002B41648C04122B41F28C04122B41128D1A
:1049200004122B413F8D04122B41708D04122B4138
:10493000438E04122B41538E04122B41A28E04127B
:104940002B41AF8E04122B41B88E04122B41288FBD
:1049500004122B41888F04122B41D38F04122B4158
:10496000EE8F04122B41159004122B413290041249
:104970002B413E9004122B41E99104122B410292EB
:1049800004122B418B9204122B419E9204122B4154
:10499000BD9204122B41589304122B41C894041267
:1049A0002B416F9604122B41FE9604122B41019766
:1049B00004122B41719704122B418F9704122B4143
:1049C000349804122B41709804122B4173980412EE
:1049D0002B41399904122B419C9904122B41D599F2
:1049E00004122B414A9A04122B41689A04122B415B
:1049F000B69A04122B418B9B04122B41D99B0412B3
:104A00002B41279C04122B41B49C04122B41E99C9E
:104A100004122B411E9D04122B412C9D04122B418C
:104A20008B9D04122B41039E04122B41449E0412C1
:104A30002B41949E04122B41BF9E04122B41D99E00
:104A400004122B41F39E04122B41CE9F04122B41E2
:104A5000D89F04122B4113A004122B4123A004124F
:104A60002B412CA004122B4184A004122B4198A0AE
:104A700004122B41CEA104122B41E1A104122B41BF
:104A8000F8A104122B410DA204122B419BA2041287
:104A90002B4103A304122B41B6A304122B41C1A343
:104AA00004122B4111A504122B412DA504122B41F8
:104AB00079A504122B41E8A504122B4121A604126A
:104AC0002B413BA604122B419BA604122B413AA773
:104AD00004122B4185A704122B4147AA04122B4133
:104AE000FDAA04122B418DAB04122B41D5AD04124B
:104AF0002B41EDAD04122B41F0AD04122B41FCAD66
:104B000004122B4110AE04122B4118AE04122B419B
:104B10004BAE04122B413EAF04122B41C9AF04121D
:104B20002B415CB004122B41D5B004122B4199B13A
:104B300004122B41BBB104122B4154B204122B417D
:104B4000B1B204122B41B4B204122B41E1B20412EF
:104B50002B41F6B204122B4170B304122B41BCB4AA
:104B600004122B41C7B504122B4152B604122B413B
:104B700057B704122B4117B804122B4148B804123E
:104B80002B416EB804122B4177B804122B41A5B803
:104B900004122B413DB904122B41F2B904122B41EE
:104BA00063BA04122B410ABB04122B4191BB0412BD
:104BB0002B41D0BB04122B4113BC04122B414DBC22
:104BC00004122B4180D305122B4156D305122B41E1
:104BD000E5D205122B4116D105122B41B4D0051296
:104BE0002B41F9CF05122B411ECE05122B4162CD70
:104BF00005122B4132CD05122B41E2CC05122B417F
:104C00007DCC05122B413CCC05122B411CCC05124E
:104C10002B414ECB05122B41DACA05122B417DCA1E
:104C200005122B4119CA05122B4191C805122B41BF
:104C300025C805122B419FC705122B4193C70512AA
:104C40002B4160C705122B41C1C305122B4193C3F1
:104C500005122B413DC305122B4125C305122B41E3
:104C60000BE705122B411AC305122B41C6E60512AC
:104C70002B41AAE605122B41A6E405122B4168E45C
:104C800005122B4142E405122B41C6E305122B41CC
:104C9000D7C205122B41EFC005122B41D8C0051217
:104CA0002B410EC005122B419AD405122B4139BF5E
:104CB00005122B414DBD05122B41B2BB05122B41F4
:104CC000A7BB05122B411BFC06122B411EBB051274
:104CD0002B414FD405122B41DABA05122B41B6BA3B
:104CE00005122B41E98C06122B419E8C06122B419A
:104CF000458C06122B41108C06122B41DF8B0612BD
:104D00002B41AF8B06122B41878B06122B410A8B4E
:104D100006122B41EC8A06122B41BC8A06122B414B
:104D20003C8A06122B415B8606122B413384061205
:104D30002B41028206122B417B8106122B410080FF
:104D400006122B41298106122B41B48006122B41F9
:104D50006D8006122B41B7790000000080FB8F00A8
:104D60000100041A87000100CE1635000400C9199D
:104D700025000200CD1926000200CF1927000200ED
:104D8000D11928000100DB1929000100DC19840079
:104D90000400A716860001003D192A000100DD1954
:104DA0002B000100DE192C000100E4192D00080081
:104DB000B4162E000100E5192F000100E61930009D
:104DC0000100E71931000100E81932000100BC16AA
:104DD00033000100BD1634000100E919360001005E
:104DE000BE1638000100EA1939000100E3198300FA
:104DF0000200011A63000100C91664000100DF19F6
:104E000065000100E0196D000100CA16710008007C
:104E1000AC1666000100001A43000100F1194400BD
:104E20000200F21945000100F41946000200F519CC
:104E300047000800C11648000100F7194B000100A7
:104E4000F81904000100031AA1000100071A370035
:104E50000100061A88000100051A3C000100BF1677
:104E60003D000100EB1949000200F919670001003B
:104E7000CB164D000200FB194E000100FD194F003A
:104E80000200FE193E000100F01951000100EC196A
:104E900052000100ED1953000100EF195400010008
:104EA000C0160000000000000001363601010001BC
:104EB00002010001030100010401060605020000D1
:104EC000070100340801000F090401010D0100FF72
:104ED0000E08000017020000190100FF1A0100016E
:104EE0001B0100FE1C0100081D0200001F01000143
:104EF00020010001210200002301000F2402000014
:104F00002601000127010008280200FF2A010007EE
:104F10002B0102402C0100002D0100012E01000197
:104F20002F0100FF30010B1D310800003A0100087D
:104F30003B01000F3C0100013D0100FF3E04000069
:104F400042040000460400004A0400004E04000031
:104F500052040000560400005A04000001037103CB
:104F600001030103010301030103220302030103FF
:104F70001003000300030003000300030003000309
:104F80004203000324030603000300030403120387
:104F90002503230325032303040304030003000361
:104FA00000034403000300032303000365032100FF
:104FB000350381030003050300030003000300031E
:104FC0002503230303027102300160021102700203
:104FD0000102020202028002100261023A00410054
:104FE000630273027202620243020002130238007B
:104FF000000200020402120200020002000200028B
:1050000004020402370037003C0244020002390067
:105010000002000265020002350281020002050260
:10502000820283020002030071003001600011005F
:105030007000310220035004800010006100000065
:10504000140063007300720062004300000013004C
:105050000600000000000400120000000000000034
:10506000000004000400370037003C024400000048
:105070000000000000006500000035008100000015
:105080000500000083000000010171010101010120
:1050900011010101310101010101800110016101D2
:1050A0003B001400630173017201620143010001BE
:1050B000130106013D013500040112010001000148
:1050C0000001000104010401330133013C014401EA
:1050D0003201360000010001650100013500810147
:1050E000000105018201830100010304710402042F
:1050F0006004110470040204020401040204100498
:10510000610400041404630473047204620443041D
:105110000004130406040004000404041204000440
:1051200000040004000451046400000400040004AE
:105130004404000400040004000465040004350471
:1051400081046400050400048304000436000100A7
:10515000060000000F00000000000000000000003A
:10516000000003FFFF00000403FFFF0000FFFF0F2C
:10517000F4010005C4040320000100000B0000003E
:10518000000000000003010F00000000000000000C
:10519000000000000000000000000000000000000F
:1051A0000000000000000000000013007B3A1F0018
:1051B000813A1F80873A0000233B0100233B020015
:1051C000FD390280F7390300033A0400093A0480EC
:1051D0000F3A0500153A0600213A30003F3A3100F7
:1051E000393A32004B3A3300513A3500573A3400DD
:1051F0005D3A3600633A11006F3A1400753A1500B3
:10520000333AFFFF00000A00000002000000040023
:105210000000080000001000000020000000400016
:1052200000008000000000010000000200000004F7
:1052300000000008000000100000002000000040F6
:105240000000010D45063D450837450B5B45102321
:10525000410A6D45021345052B450719450CF544D8
:105260000D014564EF3EFF000007ECFDFDFDECDCA9
:10527000DCCCBCACAC9C9C8C7C7C6C6C5C5C5C4C7E
:105280004C3C3C2C2C1C1C03EAF5E5D5D5C5B5A53A
:10529000959585857575656555554545353525253E
:1052A00015150500160F00000B150B020002220F4A
:1052B0003300000E0F00000000000000000000009E
:1052C00000000000005A6967426565416C6C6961C5
:1052D0006E63653039D0D1D2D3D4D5D6D7D8D9DA08
:1052E000DBDCDDDEDF0001191618161618230300BB
:1052F00000034D4C4651181A250502303016181976
:1053000020231A1C1E30003C40423A3F3F392F47B1
:1053100030303017181921301B1D1F300C0E020BB6
:10532000040B0A0708000F0204020101010109022F
:1053300000BE040AE80300000E000000E8030C00B1
:105340001E0000007F0005030004091E100A0C1057
:105350000803FF0C280004040209033C0C05080B99
:10536000081E74F71225B074F3122C278518828555
:1053700019837402F014122E65125D13122E65AAA1
:1053800082AB83123E2F7416122E651253AB123E5F
:105390006BE96401700A740B122E651254B1800817
:1053A000740B122E651253B602663D125517FEE9B4
:1053B000FFAA18AB19221264FA8E828F83E8F0A339
:1053C000E9F079C82274F71225B074F3122C27EC97
:1053D000FEEDFF8518828519837402F0EAFCEBFD6F
:1053E0007403122E65AA82AB83123E2FAA18AB1942
:1053F000123E5FE96401700A740B122E651254B1FB
:105400008008740B122E651253B602663D74F712B3
:1054100025B074F1122C27AC18AD19123BB9E9FE76
:1054200070287402122E657402F085188285198323
:105430001264F6740D122E6512662E7402122BFF82
:10544000123E4DE9640160027E01EEF9740F0266BE
:105450003F74F71225B0E9FE90157A126506703494
:105460007A0F7B0012354790157AEAF0A3EB1255BC
:105470000E6027780079001255D38A828B8374FEE0
:10548000F0A30412602DE4F0A3F008E87001091203
:10549000550440E3EE7003123CDF026642E875F00B
:1054A00005A4F8AAF075F005E9A42AF990157AE0A8
:1054B00022E0F8A3E0F98E828F83E8F0A3E9F07987
:1054C000002274F71225B08C828D8312550B602F49
:1054D000780079001256247003A3E06B7017E8750A
:1054E000F005A41254A32EF8A3E039F98C828D8321
:1054F0001254BA800C08E870010912550440D5799D
:10550000C8026642C39403E9940022E4F0A3F09039
:10551000157A12551749221264FAE82274F71225F7
:10552000B074FE122C27ECFEEDFF8E828F83E4F028
:10553000A3F07508C8AC18AD19123BB9E97013EEA9
:10554000FCEFFD851882851983126511123BCBE9AA
:10555000F508A908025BCD74F71225B074FE122C71
:1055600027ECFEEDFFAC18AD19123BB9E9705F9066
:10557000157A126506605778007900E8FAE9FBEAC7
:1055800075F005A4FAACF075F005EBA42CFB9015B2
:105590007AE02AFCA3E03B8C82F583126511851822
:1055A00082851983E06A7003A3E06B70171255D3EC
:1055B0008E828F8312699E740B122E65126B1512E8
:1055C00054BA800C08E870010912550440AD79C83E
:1055D000025BCDE8FAE9FBEA75F005A4FAACF075D8
:1055E000F005EBA42CFB90157AE02AFAA3E03BFB34
:1055F0002274F71225B090157A12650660217800A2
:1056000079001256247003A3E06B70098C828D839D
:105610001254BA800C08E870010912550440E3796D
:10562000C8026642E8FEE9FFEE75F005A4FE85F0CB
:105630000875F005EFA42508FF90157AE02EF5080F
:10564000A3E03F850882F583E06A2274F01225B05A
:1056500074FC122C27EAFEEBFF7402122C078E82D8
:105660008F83126511123BDDE9F50A7A187B00126F
:1056700035478A0C8B0DEA450D60497C187D007911
:105680000012348DEE2402F8E43FF9880889097885
:105690000C122B96750E18750F00780E122B967C37
:1056A000007D0085088289831265111235CB740450
:1056B000122BA9850882850983E4F0A3F0AA0CAB1C
:1056C0000D12354D8E828F8374FEF0A304125B9C05
:1056D000E4F0E50A60030257AD7402122E65E0FEA5
:1056E000A3E0FF90157A1265066034EEF8EFF91228
:1056F000549D28F508A3E039F5097808122B967512
:1057000008057509007808122B96EEF8EFF9E87590
:10571000F005A4F8126DED1235CB7404122BA9A874
:1057200018A919880889097808122B967508027536
:1057300009007808122B967C007D007A4C7B0012C1
:1057400035D17404122BA9E97063EE75F005A4FE3F
:10575000A8F075F005EFA428FF126FDDE064FE707D
:1057600003A3E0F48518828519837015126506601D
:1057700014851882851983E024FFF0A3E034FF80AC
:1057800003126E04F0A818A919880889097808126C
:105790002B967508027509007808122B967C007DFF
:1057A000007A4C7B001235CB7404122BA9740402CE
:1057B000725474F71225B08A828B8312550B60667F
:1057C00078007900E8FCE9FDEC75F005A4FCAEF08A
:1057D00075F005EDA42EFD90157AE02CFEA3E03DBA
:1057E0008E82F583E064FE7003A3E0F4702EE8750A
:1057F000F005A4F8ACF075F005E9A42CF990157A41
:10580000E028FCA3E039FD8A828B83ECF0A3EDF065
:10581000126FCFA3A3A3A3E4F0F9800C08E87001F2
:1058200009125504409E79C8026642C082C0837442
:1058300004122E65126B0812651179101243ED9057
:1058400019C8E0C0E07406122E65126B08D0E002A1
:10585000611074F61225B074D9122C27EAFEEBFF02
:10586000AC18AD19EE2405FAE43FFB12429DE96441
:10587000016003025958740F122C0712650B124273
:1058800097E9640160030259587417122BF77406E4
:10589000122E6512662E7404122E65858208858389
:1058A000097808122B967408122E65858208858364
:1058B000097808122B96EE2405F508E43FF50978DF
:1058C00008122B967406122E651229C17417122C19
:1058D0000712650B123BEF7408122BA9E97079745B
:1058E0000C122E657401F0740B122E657401F074A5
:1058F0000D122E6512595D7402122E6512662EEE7F
:105900002405F8E43FF97408122E6512662E740A15
:10591000122E657401F004122BFF12435185188278
:105920008519831264F67402122E6512662E740FA6
:10593000122BF77408122E6512662E740A122E6549
:10594000E4F07402122BFF1243517C107D007900A9
:105950007417122BFF12348D7427026707E4F0A32B
:10596000125D232274F61225B074C5122C27EAFEAC
:10597000EBFF7401122C07EE2405FAE43FFB124200
:105980009DE9640160108E828F83A3A3A3A3E064CA
:10599000027003025A4A7410122C0712650B12424D
:1059A00097E964016003025A4A742B122BF77407BB
:1059B000122E6512662E7418122BF7880889097842
:1059C00008122B967402122C077412122BFF12432A
:1059D000577402122BA9851882851983E0606B74B5
:1059E00007122E65126CB9742A122E65E0F9742024
:1059F000122E65AA82AB83123C91740D122E65742F
:105A000001F0740C122E657401F0740E122E6512E2
:105A1000595D7403122E6512662E7410122BF774E2
:105A200009122E65125D0B122E657401F0740512B9
:105A30002E657404F014122BFF1243517C107D006C
:105A40007900742B122BFF12348D743B026707C050
:105A500082C08374FA122C278A828B83A3A31266D6
:105A60002BEA241DF582E43BF583E0C0E0740212CA
:105A70002E65D0E0F0EA2405F8E43BF97403122E19
:105A800065126023E0C0E07405122E65D0E0126953
:105A9000A812437B7406122BA902611374F6122517
:105AA000B074DE122C27EAFEEBFF8E828F83126425
:105AB000F67404122E65125D1B740A122E651266AE
:105AC0002E7406122E657401F075083A7509007877
:105AD00008122B967413122BF7880889097808127C
:105AE0002B967C117D007A007B00124825740412ED
:105AF0002BA9E9600D7C117D007900EC122BFF12BF
:105B0000348D7411122E65E0C0E07407122E65D03A
:105B1000E0F07412122E65A882A9837408122E6513
:105B200012662E740D122E657401F01246338A0827
:105B30008B09A808A9098E828F83A3A3A3A3E06879
:105B40007003A3E0697011740E122E65E4F0740FF7
:105B5000122E65E4F0A38025740E122E657401F0F8
:105B6000740F122E65E518F0A3E519125B9C126103
:105B7000F7125D1B7402122E65E8F0A3E9F07404BD
:105B8000122BFF124351E9FE7C117D007900EC12CB
:105B90002BFF12348DEEF97422026707125BA022EC
:105BA000F08E828F83A3A3A3A32274F71225B0746F
:105BB000FE122C27AC18AD19123BD1E9FE700C85F2
:105BC0001882851983126511123BE3EEF974020203
:105BD000663F74F61225B074ED122C27EAFEEBFF37
:105BE0001246338A088B09A808A9098E828F83A3DD
:105BF000A3A3A3E0687003A3E0696003025C9BEECB
:105C00002402F8E43FF98882898312651174011235
:105C10002E65125D13122E65E4F07404122E65E4F5
:105C2000F088828983126511123EBF8A088B09A809
:105C300008A909E849603088828983A3A3A3A3E067
:105C40006025C39405502088828983A3A3A3A3A3BE
:105C5000E0A2E374055006122E65E48005122E655D
:105C60007401F07401802C1246338A088B09A8084D
:105C7000A9098E828F83E0687003A3E06960030244
:105C80005D067401122E65E4F0A3F07405122E6512
:105C9000E4F004122BFF123F97806B1264EE74063F
:105CA000122E65125D1B7408122E65125D0B122CEC
:105CB000077A007B0079AB12428BE4F508F509788E
:105CC00008122B967402122C07740D122BFF12432C
:105CD000577402122BA9901A00E0640170188518FD
:105CE00082851983E0700F740A122E65E4F0740641
:105CF000122BFF124363740A122E657401F07406AE
:105D0000122BFF1243637413026707E8F0A3E9F054
:105D1000740B22EAF0A3EBF0740322E8F0A3E9127B
:105D20005D2322F08E828F83A3A31264FA22C082A5
:105D3000C08379009019E0E0700279C8026113C055
:105D400082C08390157CE064017007123C19E9F968
:105D5000800279C802611374F11225B074F2122C1A
:105D600027EAFEEBFF89097508008E828F83A3A3C3
:105D7000A3A3A3A3E07008123C1FE9F508705674B2
:105D8000016509701FA818A919880A890B780A12D9
:105D90002B96126CB38E828F83126511123BB374F3
:105DA00002122BA98E828F83A3A3A3A3A3A3A3E094
:105DB000A2E250218E828F83A3A3A3A3A3A3E070AA
:105DC00014EEFAEFFB123C07E9F508601512650BBB
:105DD000123BBF8004E5086009EEFAEFFB123C13AA
:105DE000805A90145112650660528E828F8312641D
:105DF000F67402122E6512662E8E828F83A3A3E0A4
:105E0000F50CA3E0F50D750E00780C122B927C08B2
:105E10007D007407122E65AA82AB8312348174034D
:105E2000122BA91264EE740C122E6512662E7402E7
:105E3000122BFF901451126B08122796A908740EAA
:105E4000026BF074F41225B074EC122C27EAFEEB0E
:105E5000FF8E828F83A3A3A3A3A3A3E06003025EAC
:105E6000FA7401122BF7880889097808122B9674A6
:105E700002122C0712650B1243577402122BA985CC
:105E80001882851983E0640170707411122E65E028
:105E90006402706674FFF07413122E65E004540FF0
:105EA000F07405122E65127713122E65126618EA29
:105EB00024EFF8EB34FEF9E875F009A4F8ACF075BE
:105EC000F009E9A42CF9749928F8741539F9888235
:105ED0008983A3A3A3A312661888828983126625E7
:105EE000122B967508137509007808122B967C0002
:105EF0007D001235CB7404122BA97901EEFAEFFB69
:105F0000123C25E9F50870238E828F8312651112E9
:105F10003EB9123C3D8E828F83A3A3A3A3A3A3E02B
:105F20007009124633126CB3124CB7A908741402EC
:105F300069D474F61225B074EF122C277401122E56
:105F400065E4F0A3F08A828B831264F67403122E48
:105F500065126634122E65126023A3A3A3E0A2E7A4
:105F6000502EA2E650218A828B83A3A3A3A3A3A3CE
:105F7000E0640170097407122E657404803D740793
:105F8000122E65740780347407122E657405802BF9
:105F9000A2E650208A828B83A3A3A3A3A3A3E064D9
:105FA0000170087407122E65E480107407122E65C4
:105FB000740380077407122E657401F08A828B8344
:105FC000126511123EB9123C3D7409122C077A0079
:105FD0007B0079AB12428BE4F508F5097808122BA7
:105FE000967402122C07740B122BFF124357740283
:105FF000122BA9901A00E064017017851882851988
:1060000083E0700E7408122E65E4F004122BFF1268
:10601000435D7408122E657401F0122BFF12435D6C
:10602000026705126029A3A322E8F0A3E9F08A829F
:106030008B83A3A32274F71225B0EAFEEBFF901620
:10604000CEE06006124393E96009EEFAEFFB123CE2
:106050002B8007EEFAEFFB123C31E9F9026642C0F1
:1060600082C083EA4B600D8A828B83A3A3A3A3A380
:10607000E0D2E3F0026113C082C08390145BE0645D
:1060800005700C7A807B00901458E0F91234E70216
:10609000611374F61225B0123BC59016CEE0701451
:1060A00012462D8A088B09AC08AD097A007B00796D
:1060B000AB1242919016CEE06006124393E9600B5A
:1060C00090157C7401F090157DE4F0123C4F02674E
:1060D0000AC082C0831243D59016CEE070051243E9
:1060E0008D800C6401700512438780031243818008
:1060F00022C082C083E9F890157DE4F0E890157C19
:1061000060087401F090157D8001E4F0790180034E
:10611000F07900D083D082022B3EC082C0839015DC
:106120007DE06401700990157CE4F090157DF080AD
:10613000E274F41225B074EB122C27750800123E9D
:10614000B98A0A8B0BAE0AAF0BEE4F70030261F0F7
:106150007508019016C9E064017003123C3D740893
:10616000122E65E41259607413122E6512662E7495
:1061700008122BFF123E658E828F831261F7125D2B
:106180000B122E65A882A9837402122E6512662E48
:106190001246337404122E65EAF0A3EB1262055422
:1061A00060646070097406122E65740180067406BE
:1061B000122E65E4126205C0E07407122E65D0E06D
:1061C0001269A8123C37E9700F8E828F83A3A3A3B4
:1061D000A3A3E0C2E2F08018740B122E65AA82AB72
:1061E00083123BBF740B122E65AA82AB83123ECB87
:1061F000A90874150269D41261FB221264FA851889
:106200008285198322125BA0A3E02274F61225B0C6
:1062100074F1122C27EAFEEBFF7402122E65E4F0F3
:10622000EEFCEFFD7405122E65AA82AB8312365B7D
:10623000124393E9702A7402122BFF123E5FE96445
:1062400001601DA818A919880889097808122B96D9
:10625000EEFCEFFD7A007B00123BB37402122BA917
:10626000740F02670774F41225B074D8122C27EA51
:10627000FEEBFF1264E6123D279016CEE06401604B
:1062800005E0640270231264DC7808122B9675080E
:10629000087509007808122B967C087D007A117B1E
:1062A000011235CB7404122BA97C0879FF1264E625
:1062B000123511E9600690157C7401F01264E61243
:1062C0003C678E828F83A3A3A3A3E06401600D8E3D
:1062D000828F83A3A3A3A3E06406707D7800E8FA0D
:1062E000EE2AF582E43FF583A3A3A3A3A3A3E07062
:1062F0000708E8C3941040E6741068703190179353
:10630000E070507418122C077A627B00123D0979F4
:10631000007418122BFF1243F979001243FF7C100E
:106320007D0079007418122BFF12348D80258E8227
:106330008F83A3A3A3A3A3E0F91274601243F9907F
:106340001793E0700E8E828F83A3A3A3A3A3E0F91B
:106350001243FF123C430264D78E828F83A3A3A310
:10636000A3E0640460030264437405122BF78808F9
:1063700089097808122B967402122C071264E6120F
:1063800043577402122BA98A088B09851882851934
:1063900083E070030264D77415122E65E0700C74EC
:1063A00017122E65AA82AB8312433F7415122E6515
:1063B0007401F07416122E65E4F07409122E651241
:1063C0007718122E651266187417122E65E4F07491
:1063D00005122BF7880A890B780A122B96750A1377
:1063E000750B00780A122B967C007D00AA08AB0979
:1063F0001235CB7404122BA9EE2406F508E43FF500
:10640000097808122B967C107D007A027B011235E8
:10641000BF7402122BA9E970207808122B96750818
:10642000107509007808122B967C007D007A027B9B
:10643000011235CB7404122BA97A037901124BF7A0
:106440000264D78E828F83A3A3A3A3E064036003B7
:106450000264D77403122C071264E6123BB9E96098
:106460002E1264DC7403122BF7880A890B780A1247
:106470002B96AC08AD097AFE7BFF123BB374021277
:106480002BA97D007C007900AA08AB09123AF374AD
:1064900001122C077403122E65126511123BCB7486
:1064A00001122E65126506701E7401122BFF123B3D
:1064B000E9E970137403122E651264F67401122E4A
:1064C00065126B1512662EEE2406FCE43FFD126485
:1064D000E6123CAF123CD974280269D4EE2416F5BA
:1064E00008E43FF50922EE2416FAE43FFB228E82EF
:1064F0008F83A3A3A3A31264FA22E0F8A3E0F922F6
:1065000085188285198312551749228E828F83A39D
:10651000A3E0FAA3E0FB2274F61225B074E4122C77
:1065200027EA240CF582E43BF5831264F674011229
:106530002E6512662EEA2404F8E43BF97403122E49
:1065400065126634122E6512662E7408122E65745A
:1065500004F07407122E65E4F0EA240EF582E43BA1
:10656000F583E06402700302660CE0701274081296
:106570002E657408F014122E657401F00266027420
:1065800009122BF7880889097808122B96740212D1
:106590002C077405122E65126511124357740212EE
:1065A0002BA9851882851983E06401704274191241
:1065B0002E65E06402703874FFF0741B122E65E0E3
:1065C00004540FF0740D122E651266187409122E01
:1065D00065E4126625122B96750813750900780874
:1065E000122B967C007D001235CB7404122BA974FB
:1065F00003122E65126CB97405122E651265111204
:106600004CB779007401122BFF123C25741C0267F1
:1066100007F582E4350BF58312661C22E4F0A3F043
:10662000A3F0A3F02212661D7808221261FBE8F0A5
:10663000A3E9F0221260291264FA740522740D1283
:106640002BA97F01022835C082C0838A828B83A355
:10665000A3A3A3E0640160228A828B83A3A3A3A3E4
:10666000E064027005123BF580108A828B83A3A33D
:10667000A3A3E064047003123BFB026113C082C059
:1066800083123C01026113C082C0838A828B83A380
:10669000A3A3A3E0F91243FF12392502611374F694
:1066A0001225B074F0122C27E9FEAA18AB19123C7F
:1066B00097A818A919880889097808122B967C10C0
:1066C0007D007A017B011235BF7402122BA9E9709B
:1066D00023EE60207808122B967508107509007853
:1066E00008122B967C007D007A017B011235CB7459
:1066F00004122BA97C107D007900AA18AB19123462
:106700008D741080027411122BA97F020228357437
:10671000EE1225B074F0122C278A108B11890AEC26
:10672000FEEDFFEE4F70030267F5EA4511700302BC
:1067300067F5A818A919880889097808122B967591
:1067400008107509007808122B967C007D007A01EC
:106750007B011235D17404122BA9E50AF5088518BE
:1067600082851983E5822508F50CE43583F50D75DE
:106770000E00780C122B927410C39508FC95E0FD66
:10678000EEFAEFFB1234817403122BA9A818A91991
:10679000880C890D780C122B92AC0A7D00C3E4950D
:1067A00008F895E0F9EE28F8EF39F9E82410FAE452
:1067B00039FB1234817403122BA97C00ECFAE5102A
:1067C0002AF8E43511F9EE2AFAE43FFB888289833E
:1067D000E0FD8A828B83E06DF088828983E0F88A0D
:1067E000828B83A3A3A3A3A3A3A3A3E068F00CECD1
:1067F000C3940840C77410122BA97F0A022835746D
:10680000F41225B0EAFEEBFF75080012349F8A0AE5
:106810008B0BAA08EA2AFAE433FBEE2AF582EF3B57
:10682000F583E50AF0A3E50BF00508E508C3940835
:1068300040D90269D774F61225B074E6122C27EA03
:10684000FEEBFF89097402122E657401F08518822F
:10685000851983ECF0A3EDF07403122E65E9F07452
:1068600004122E65EEF0A3EFF07406122E65E4F02C
:10687000A3F0740A122E657401F0740B122E65E4F5
:10688000F0A3F074FF6C700374FF6D601474FC6C03
:10689000700374FF6D600A74FD6C700374FF6D709B
:1068A000087409122E65E4803A740D122E65740284
:1068B000F0740E122E65ECF0A3EDF0750801740D66
:1068C000122BFF123E59E9640170217410122E65DB
:1068D000A882A9837406122E6512662E7409122EE0
:1068E0006574011269A8124351E9F508A909EEFA85
:1068F000EFFB1243F9123925A908741A02670774CD
:10690000F61225B074EF122C27E9FF8A088B0912C2
:1069100069987402122E65E9F074FF6508700474BA
:10692000FF6509601874FC6508700474FF650960F0
:106930000C74FD6508700474FF6509700874031217
:106940002E65E4802D7404122E657402F074051215
:106950002E6512699E7E017404122BFF123E59E9C6
:10696000640170167405122E6512662B7403122EC4
:1069700065EE1269A8124375E9FEC3E50894FCE5CB
:106980000994FF400B9016CC7401F0EF9016CDF0F7
:10699000123925EEF9026705851882851983EAF018
:1069A000A3EBF022EAF0A3EBF0AA18AB1922C08205
:1069B000C08374FC122C27851882851983E4F004A7
:1069C000122E657402F0122E651269A412436974C6
:1069D00004025A96122BA97F0402283574F112255D
:1069E000B074FC122C27ECFEEDFF7402122BF7881A
:1069F0000889097808122B967402122C07123BD7CB
:106A00007402122BA9E9F5086003026AFB740212F2
:106A10002E65E02401F8A3E03402F9851882851977
:106A200083126B15A3A312662E7A187B00123547CA
:106A30008A0A8B0BEA450B7003026AFB780A122B59
:106A400096750C18750D00780C122B967C007D0045
:106A50007404122E65126B0812650F1235D174047E
:106A6000122BA98E0C8F0D750E00780C122B927CB8
:106A7000107D00AA0AAB0B1234817403122BA9E516
:106A80000A2414126611E50A2410126611780A12FB
:106A90002B96750C18750D00780C122B967C007DCA
:106AA000007404122E65126B0812650F1235CB7438
:106AB00004122BA97C187D007900AA0AAB0B1234B2
:106AC0008DAA0AAB0B12354D126B021264F4E875F5
:106AD000F009A4F8AAF075F009E9A42AF9747E284F
:106AE000F8741539F9E824F7F582E934ED126616E1
:106AF000E824FBF582E934ED126616A90874040255
:106B00006BF0851882851983126B0C22E0F8A3E0E4
:106B1000F583888222E0FAA3E0F5838A822274F763
:106B20001225B074FE122C27E9FEAC18AD19123BE9
:106B3000D1E9F97005126BAEEEF0025BCD74F6127E
:106B400025B074F4122C27EAFEEBFF7404122C0714
:106B50007A007B0079AB12428B12462D8A088B0992
:106B6000AC08AD097404122BFF123655E9603B7472
:106B700004122C07EEFAEFFB123E41E96015AC1847
:106B8000AD197404122BFF123BD1E9700D126BAEDC
:106B9000E070177900740C0267077402122C0774F6
:106BA00004122BFF123BB9E970E9790180E78518DF
:106BB00082851983126B0CA3A3A3A32274F7122559
:106BC000B074FE122C27ECFEEDFFAC18AD19123B91
:106BD000D1E9F97010126B0212650F8E828F83EA71
:106BE000F0A3EB80078E828F83E4F0A3F0025BCDED
:106BF000122BA97F0702283574F61225B08A828BE2
:106C000083126506702B8A828B83A3A3E0640160E4
:106C10000B8A828B83A3A3E0640670118A828B8324
:106C2000A3A3A3A312650F123EBF123C3D790180BE
:106C300002790002670A74F61225B074FC122C2740
:106C4000ECFEEDFF7402122BF78808890978081210
:106C50002B96123BB37402122BA9E96004790180D0
:106C600049AC18AD197402122E65126511123BCB96
:106C70001265007018AA18AB19123BE9E97030745C
:106C800002122E651261F7126B1512662E740E1227
:106C90002E65126CB9EEFAEFFB123CAF7901EEFAF9
:106CA000EFFB123CB5123CD97900740402670779F6
:106CB0001180F78E828F83A3A3E0FCA3E0FD2274F2
:106CC000F61225B074FE122C27E4F508F5097808B1
:106CD000122B967C117D007A4C7B001235BF74021A
:106CE000122BA9E9FE74096E70211270AB122B965B
:106CF0007508027509007808122B967C007D007AD1
:106D00004C7B001235CB7404122BA97508AC7509A5
:106D1000167808122B967C087D007A717B0012355C
:106D2000BF7402122BA9E94EF9740202670774F4CA
:106D30001225B074FE122C278518828519831255EE
:106D40000B60717E007F008E088F09E50875F005E5
:106D5000A4F508A8F075F005E509A428F509901533
:106D60007AE02508F50AA3E03509F50B780A122B1D
:106D700096750A05750B00780A122B96126DE112B2
:106D800035CB7404122BA990157AE02508F8A3E0FE
:106D900035098882F583E064FE7003A3E0F4600A9D
:106DA000851882851983126E04F00EEE70010F12A1
:106DB00070A44093A818A919880889097808122B8B
:106DC000967508027509007808122B967C007D00E4
:106DD0007A4C7B001235CB7404122BA97402026921
:106DE000D4EEF8EFF9E875F005A4F8AAF075F0050F
:106DF000E9A42AF9E8126DF9222402FCE439FD7AAB
:106E00004C7B0022E02401F0A3E034002274F01255
:106E100025B074FE122C27A818A9198808890978AA
:106E200008122B967508027509007808122B967CBB
:106E3000007D007A4C7B001235D17404122BA9E935
:106E40006003026FA41265007003026FA4851882AC
:106E5000851983C3E09404A3E094004003026FA467
:106E60007A187B001235478A0A8B0B750800E508F3
:106E700075F005A4F8A9F090157AE028F50CA3E0C8
:106E800039F50D780C122B96750C05750D00780CE4
:106E9000122B96E50875F005A4126DF91235D17420
:106EA00004122BA9E96003026F8BE50875F005A4B5
:106EB000F8A9F0126FCFE064FE7003A3E0F4700352
:106EC000026F8BE50A450B7003026F8BE50875F0C6
:106ED00005A4FEE9FF780A122B96750C18780C129F
:106EE0002B967C007D00126FDD12650F1235D17478
:106EF00004122BA9E50A2410F8E4350BF9E8FAE9A5
:106F0000FB9081B3780C122E0E8A828B83780C1240
:106F10002CE4126FDDA3A3E0FEA3E0FFEEF8EFF98F
:106F2000E875F009A4F8ACF075F009E9A42CF9743F
:106F30007E28FC741539FD8A828B83122E42EC2444
:106F4000F7F582ED34EDF583122E4E127B43122EAF
:106F500042EC24FBF582ED34EDF583122E4E780AD7
:106F6000122B96750C18750D00780C122B967C0060
:106F70007D00EEFAEFFB1235CB7404122BA97C18BE
:106F80007D007900AA0AAB0B12348D0508E508C311
:106F900094035003026E6EE50A450B6007AA0AAB24
:106FA0000B12354D7508AC7509167808122B9675BD
:106FB00008087509007808122B967C007D007A710C
:106FC0007B001235D17404122BA974020272549002
:106FD000157AE028FAA3E0398A82F5832290157A9F
:106FE000E02EF8A3E03F8882F5832274F41225B0E6
:106FF00074F9122C271270AB122B967508027509C2
:10700000007808122B967C007D007A4C7B001235AC
:10701000CB7404122BA97C057D0079007402122B1D
:10702000FF12348D7E007F007402122BF7880889CE
:10703000097808122B967508057509007808122B37
:1070400096126DE11235CB7404122BA90EEE70016D
:107050000F1270A440D27A187B001235478A088B31
:1070600009EA450960397C187D00790012348D7E6B
:10707000007F007808122B96750A18750B00780AA5
:10708000122B96127B4F1235CB7404122BA90EEEE5
:1070900070010F1270A440DBAA08AB0912354D74C1
:1070A000070269D4C39403EF9400228518828519DE
:1070B00083E4F0A3F0A818A91988088909780822A0
:1070C000C082C08374F8122C2774FE6A700374FFA8
:1070D0006B6016EC4D60127408122E651264F67423
:1070E000FE68700374FF6970047901801E1269984C
:1070F0007402122E65ECF0A3EDF07404122E65E814
:10710000F0A3E91269A8123C1379007408025A9698
:1071100074F01225B074ED122C2789087C137D00C1
:107120007900AA18AB1912348D7410122E6574FFF1
:10713000F07E007F00A818A919880A890B780A1226
:107140002B967C13127C451235BF7402122BA9E9D1
:107150006003027237E5086036780A122B96750ACA
:1071600013750B00780A122B96127C431235CB74E0
:1071700004122BA912725C8C828D831266188C8289
:107180008D83A3A3A3A3F0A3F0A3F0A3027236EE12
:107190002411F50AEF3401F50BA818A919880C89F8
:1071A0000D780C122B96750C13750D00780C122BA4
:1071B000967C007D00AA0AAB0B1235D17404122B09
:1071C000A99081B7780C122E0E85188285198378C4
:1071D0000C122CE4A818A919880C890D780C122B14
:1071E00096750C13750D00780C122B967C007D00A3
:1071F000AA0AAB0B1235CB7404122BA912725C8550
:107200001882851983122E428C828D83122E4E7421
:1072100004122E65122E428C828D83A3A3A3A31287
:107220002E4E7C137D007900AA18AB1912348D7490
:1072300010122E6574FFF00EEE70010FC3941EEF56
:1072400094005003027135E50860077A007B001254
:10725000433F7413122BA97F08022835EEF8EFF98B
:10726000E875F009A4F8AAF075F009E9A42AF97400
:107270009928FC741539FD2274F01225B074E412BB
:107280002C278A0A8B0BECFEEDFF7508A18518826E
:10729000851983E4F0127460123E35E9700EEE2415
:1072A00006FCE43FFDAA0AAB0B1242977409122BAD
:1072B000F7880A890B780A122B967402122C07128F
:1072C00074601243577402122BA98A0A8B0BA80A06
:1072D000A90B9016CEE064016005E06402703F8562
:1072E0001882851983E070367C087D00790074016E
:1072F000122BFF12348D7409122BF7880A890B7830
:107300000A122B967402122C077403122BFF1243DD
:10731000577402122BA98A0A8B0BA80AA90B85188D
:1073200082851983E0700302744375080074191292
:107330002E65E0604214600E1460612405605D24D7
:10734000FE60160274439016CEE06401700302736F
:10735000ECE06402700B0273EC9016CEE064016006
:1073600005E064027006EE242012746812745674EC
:1073700003F0A37401807D741B122E6512770A122C
:10738000745612662EEE2420F582E43FF583E4F075
:10739000EE2421F582E43FF583E48058E875F00996
:1073A000A4F8AAF075F009E9A42AF9740428F8747D
:1073B0000C39F9E8FAE9FB8A828B83780C122E0EDD
:1073C00012744A122DA0407812744A122E0E908127
:1073D0004B780C122D698A828B83780C122DFF90CA
:1073E00016CEE064016005E06402700B12745674FE
:1073F00002F0A314F0804CE0701CEE240F127468AD
:10740000A3F0741B122E65E0C0E0EE2422F582E4A6
:107410003FF583D0E0F07411122E65A982AA83890A
:107420000C8A0D750E00780C122B927C087D00EEF4
:107430002418FAE43FFB1234817403122BA9800351
:107440007508A2A908741C027254EE2412F582E495
:107450003FF583780C22EE240FF582E43FF583227A
:10746000EE2406FAE43FFB22F582E43FF583740143
:10747000F02274F01225B074DF122C278C088D09CD
:107480007EA17414122E65E4F07415122E65126933
:107490009EEC2406FAE43509FB123E35E97003023E
:1074A00076D47401122BF7880A890B780A122B966E
:1074B0007402122C07E5082406FAE43509FB12438E
:1074C000577402122BA98A0A8B0B74FF650A700489
:1074D00074FF650B70030276CCEA24EFFEEB34FEFA
:1074E000FF851882851983E0700302758E7411126E
:1074F0002E65E0602114600E14602D2405601424B4
:10750000FE60100276319016CEE064016027E064E0
:1075100002602202762D7413122E6512770A1276FB
:10752000F0E8F0A3E90276309016CEE06401600541
:10753000E06402700B1276F07402F0A3140276304D
:10754000E0701E1276F07401F0A3F07413122E6531
:10755000E0C0E0E5082422F582E43509F583D0E0B7
:10756000F07409122E65A982AA83890C8A0D750E02
:1075700000780C122B927C087D00E5082418FAE4B0
:107580003509FB1234817403122BA9027631E50808
:107590002406F50CE43509F50D750E00780C122B58
:1075A000927C087D00740C122E65AA82AB83123483
:1075B000817403122BA97411122E6574FFF07412DA
:1075C000122E657401F012349FEA540FC0E0741358
:1075D000122E65D0E0F07401122E65127718122E6B
:1075E00065127713122BF7880C890D780C122B96E5
:1075F000750C13750D00780C122B967C007D00AA7B
:107600000AAB0B1235CB7404122BA97C097D0079CF
:1076100000EEFAEFFBEA8CF0A4FAA8F08CF0EBA4F1
:1076200028FB74992AFA74153BFB12348D127700EB
:10763000F0E508240EF582E43509F583E4F0EEF870
:10764000EFF9E875F009A4F8AAF075F009E9A42AA1
:10765000F9749928F8741539F9E8FCE9FD8C828DE4
:1076600083122E42E5082412F582E43509F58312CF
:107670002E4E90814B7808122E0E8C828D837808C6
:10768000122CE48C828D837808122E0E9081AB78B8
:107690000C122E0E7808790C122541E50C450D458B
:1076A0000E450F702BEE75F009A4FEA8F075F009D9
:1076B000EFA428FF74A12EF582741512746B7A0062
:1076C0007B04901458E0F91234E78004127700F03C
:1076D0007E0080157414122BFF123E59E96401706C
:1076E000087414122BFF123E4DEEF97421027254ED
:1076F0001276F422E508240FF582E43509F5832299
:107700001276F47403F0A3740122E02404F8E43444
:1077100001F92212661C042212661C74052274F6FA
:107720001225B074CE122C27E9FFC2007C0C7D001C
:107730007900AA18AB1912348D123D3FE9F8A2E77F
:107740005002D2007E00804DA818A9198808890926
:107750007808122B967C0C7D00EE2475FAE4340038
:10776000FB1235BF7402122BA9E97028A200502425
:107770007808122B9675080C7509007808122B965C
:107780007C007D00EE2475FAE43400FB1235CB74E6
:1077900004122BA90E905358E493F8EEC39840A816
:1077A0007C087D0079FF7404122E65AA82AB8312D7
:1077B000348DA818A919880889097808122B967C95
:1077C0000C7D00EE2474FAE43400FB1235BF740221
:1077D000122BA9E97028A20050247808122B967564
:1077E000080C7509007808122B967C007D00EE24A9
:1077F00074FAE43400FB1235CB7404122BA97C1507
:107800007D007900741D122BFF12348D741D122B14
:10781000F7880889097808122B967C157D007A82F2
:107820007B001235BF7402122BA9E9702574016F19
:1078300070207808122B96750815750900780812C3
:107840002B967C007D007A827B001235CB7404126B
:107850002BA97C117D007900740C122BFF12348D42
:10786000740C122BF7880889097808122B967C1162
:107870007D007A3A7B001235BF7402122BA9E970A1
:107880002574016F70207808122B96750811750900
:10789000007808122B967C007D007A3A7B00123526
:1078A000CB7404122BA9740C122BF7880889097861
:1078B00008122B967C117D007A3B7B001235BF7439
:1078C00002122BA9E9702574016F70207808122B21
:1078D000967508117509007808122B967C007D00BA
:1078E0007A3B7B001235CB7404122BA974320267E9
:1078F0000774F11225B08C088D09743A6A7001EB97
:107900006006743B6A4B70157808122B9675081048
:107910007509007808122B967C010279A674036A17
:10792000700374016B7008750CC5750D5280197465
:10793000686A4B702F9016CEE064016005E0640227
:107940007070750CD5750D52750E80780C122B92D7
:107950007C107D00AA08AB091234817403122BA994
:107960007900805074026A700374016B602674623F
:107970006A4B6020EA24FCF8EB34FEF9C3E8940C6F
:10798000E99400400FEA24FFF8EB34FDF9C3E81254
:107990005505501E7808122B967508107509007849
:1079A00008122B967C007D001235D17404122BA98D
:1079B0008002790A026BF374F61225B074E8122C77
:1079C00027E9FF7C187D007900AA18AB1912348DC5
:1079D0007E00A818A919880889097808122B967CB6
:1079E000187D00EE2401FAE43402FB1235BF740264
:1079F000122BA9E9702974016F70247808122B9654
:107A00007508187509007808122B967C007D00EE29
:107A10002401FAE43402FB1235CB7404122BA90EB4
:107A2000EEC3940340AC741802670774F71225B0D4
:107A3000E9FE123D03EEF9124D53EEF9123CF190BE
:107A400016CEE07005EEF9123C8B02664274F2121B
:107A500025B07A187B001235478A0A8B0BEA450B52
:107A60007003027B3E7E007F00EEF8EFF9E875F0D0
:107A700009A4F8AAF075F009E9A42AF9748628F592
:107A800082741539F583E064016003027B18780A7B
:107A9000122B967508187509007808122B96127B20
:107AA0004F1235D17404122BA9E9706CEEF8EFF97E
:107AB000E875F009A4F8AAF075F009E9A42AF974A8
:107AC0007E28F5087415127C50122E42E50A241007
:107AD000F582E4350BF583122E4E850882850983E5
:107AE000A3A3A3A3122E42127B43122E4E780A1296
:107AF0002B96750C18750D00780C122B96127B4F77
:107B00001235CB7404122BA9850882850983A3A39F
:107B1000A3A3A3A3A3A3E4F00EEE70010F1270A41D
:107B2000A2D265D0335003027A697C187D007900B7
:107B3000AA0AAB0B12348DAA0AAB0B12354D7F0685
:107B4000022835E50A2414F582E4350BF583227CFE
:107B5000007D00EE2401FAEF3402FB2274F21225BC
:107B6000B07A137B001235478A0A8B0BEA450B70FB
:107B700003027C407E007F00EEF8EFF9E875F00923
:107B8000A4F8AAF075F009E9A42AF974A128F582ED
:107B9000741539F583E064016003027C29780A12C8
:107BA0002B967508137509007808122B96127C43E2
:107BB0001235D17404122BA9E9706EEEF8EFF9E8D2
:107BC00075F009A4F8AAF075F009E9A42AF97499E6
:107BD00028F5087415127C50122E42850A82850BF6
:107BE00083122E4E850882850983A3A3A3A3122E98
:107BF00042850A82850B83A3A3A3A3122E4E780A83
:107C0000122B96750C13750D00780C122B96127CA6
:107C1000431235CB7404122BA9850882850983A3EE
:107C2000A3A3A3A3A3A3A3E4F00EEE70010FC39438
:107C30001EEF94005003027B78AA0AAB0B12354D5D
:107C4000027B3E7C007D00EE2411FAEF3401FB2222
:107C500039F509850882F5832274F61225B074F887
:107C6000122C279080E1AC18AD197408122ABAEAD8
:107C70004B6006EAFEEBFF800CA818A9198808895A
:107C800009AE08AF09EEFCEFFD7A007B0079AB127C
:107C90004291EEFCEFFD7AAC7B1612365B7508ACB8
:107CA0007509167808122B9675080875090078086A
:107CB000122B967C007D007A717B001235CB740408
:107CC000122BA9740802670774F61225B074DA1231
:107CD0002C277C157D0079007411122BFF12348D36
:107CE0007411122BF7880889097808122B967508E9
:107CF000157509007808122B967C007D007A827B2E
:107D0000001235CB7404122BA97C117D007900AAD6
:107D100018AB1912348DA818A91988088909780890
:107D2000122B967508117509007808122B967C00A5
:107D30007D007A3A7B001235CB7404122BA9A81867
:107D4000A919880889097808122B967508117509F0
:107D5000007808122B967C007D007A3B7B00123560
:107D6000CB7404122BA9742602670774F41225B091
:107D700074FF122C278A828B83A3A3E014606814FB
:107D80007003027E29147003027E71147003027E58
:107D9000B3147003027E92147003027EFE1470030B
:107DA000027F0E147003027E9C147003027EEE1498
:107DB0007003027F27240B6003027F47127F53FE6C
:107DC0007904EA2403FA50010B123499EAF8EBF92A
:107DD000ECFAEDFB901730122E4E901738E4F0A31A
:107DE000F0123841027F3A127F7AF8C3940F400BA9
:107DF0008518828519837402F0802BE89019EDF0C4
:107E00007508ED7509197808122B96750801750922
:107E1000007808122B967C007D007A527B00123588
:107E2000CB7404122BA9027F3A127F7AC3940F40BD
:107E30000B8518828519837402F080328A828B83C5
:107E4000A3A3A3E09019EFF07508EF75091978085E
:107E5000122B967508017509007808122B967C0084
:107E60007D007A537B001235CB7404122BA9027F5C
:107E70003A127F53F88A828B83A3A3A3E09016ABB8
:107E8000600474018001E4F0AC18AD197B01E802D4
:107E90007F41127F7AF9124C93027F3A127F7AFF68
:107EA0007904EA29FA50010B123499EFF9124C09BE
:107EB000027F3A851882851983E4F0127F67F8A360
:107EC000AC82AD83EC2408F582E43DF583E81460D0
:107ED0000C147066AA82AB8312434B8007AA82AB54
:107EE00083124CC9E9851882851983F0804C127F72
:107EF0007A6004790180027900124CBD803C127FC7
:107F00007A6004790180027900124C99802C127FEA
:107F10006760087A007B0079018007A3AA82AB839F
:107F20007900124CD5800B8A828B83A3A3E0FE12CA
:107F30004C4BE9851882851983F0AC18AD197B018B
:107F4000EEFA796F12329579007401122BA97F0431
:107F5000022835851882851983E4127F5E22F08A13
:107F6000828B83A3A3E0228A828B83A3A3E0FEEA11
:107F70002403F582E43BF583E0228518828519838A
:107F8000E4127F5EFE8A828B83A3A3A3E022C082D9
:107F9000C08374FD122C278A828B83E0851882852A
:107FA0001983F08A828B83A3E0C0E07401122E65EE
:107FB000D0E0127F5AC0E07402122E65D0E0F0AC1F
:107FC00018AD197B037A80794F1232957403122B06
:107FD000A9D083D082022B3E7404F5D574F6F5D473
:107FE0007404F5D374FEF5D2022B3E022B3EFFFF44
:107FF000FFFFFFFFFFFFFFFF851A87C2AF022B3E87
:108000000000000000000000000000000000000070
:108010000000000000000000000000000000000060
:108020000000000000002403540049002000430029
:10803000430032003500330031002000550053006A
:108040004200200043004400430024035400650024
:10805000780061007300200049006E007300740016
:10806000720075006D0065006E0074007300DB3DEA
:108070009B4ACB44B3447D411342E1379D39C73617
:10808000E54BA936FF2E00000000000000000000B4
:1080900000000000000000000000000000000000E0
:1080A00000000000000000000000000000000000D0
:1080B00000000000000000000000003031323334C6
:1080C0003536373839414243444546000000000008
:1080D00000000000000000000000000000000000A0
:1080E00000FFFFFFFFFFFFFFFFFFFFFFFFFFFFFF9F
:1080F000FFFFFFFFFFFFFFFFFF000800040002007B
:1081000001000000000000000002050200080174E8
:1081100000000000000082003A003B000000000068
:1081200000000200020701965118006AAEE7FF083E
:108130000000000000FF001F000000000000FFFF23
:10814000FFFFFFE9FFFFFF640000000100000009DE
:1081500043388610270000FEFFFFFF19E0FCFFF800
:10816000FF0000E71F0300805101003C00000010E9
:108170000E00009F02000010000000B80B0000FA83
:108180000000000403090400000000C8000000888B
:1081900013000060EA000032000000E20400005812
:1081A000020000BC02000000F8FF070A0000000403
:1081B000000000E90300000B0000009751180000C8
:1081C0000000000048000001000080400100001491
:1081D000000000E803000030000000000000000C78
:1081E00074F71225B0E99017C4F0901779E4F012F3
:1081F00034519017DCE4F0A3F09017C5F0A3F0120F
:1082000047A19016CEE0600464017006123E8F1202
:1082100040571234579016E7E4F0A3F0123D930252
:10822000B2FB74F01225B074D3122C278518828506
:10823000198312DE48548060689017C4E0F9123444
:10824000BD8A088B09AE08AF09EE4F604C7C0080F8
:10825000010CEC75F003A4F8A9F0744228F58274BF
:108260005239F583E493F46029E493F88E828F8386
:10827000E06870DDEC75F003A4F8744328F58274AF
:108280005239F583E493C0E0740193F583D08212F0
:108290002796EEFAEFFB1234AB12F14164800287AD
:1082A0005B851882851983A3E0542060211245EB79
:1082B0008A088B09AE08AF09EE4F600A124501EE3D
:1082C000FAEFFB1234AB12F141642002875B901687
:1082D000CEE064027030851882851983E0A2E050F8
:1082E0002590177EE0640F701179001244D1E96087
:1082F000099019C9122E361244E98518828519830E
:10830000E06401028641851882851983E05420705B
:10831000030285F77A207B009017C4E0F912361F1C
:10832000EA4B4C4D701A9017D8122E42E8494A4B2E
:10833000700E750801750900750A00750B00806ADA
:10834000750C00750D00750E00750F001236318A20
:10835000088B098C0A8D0B9017D8122E42E8494AD7
:108360004B60319017D87808122B19400E750CFF0E
:10837000750DFF750EFF750F7F801985080C850937
:108380000D8C0E8D0F9017D8780C122C0F7401786D
:108390000C122BDE850C08850D09850E0A850F0B46
:1083A000E508128A0270030285367C0079047A009F
:1083B0007B001245AF8A0C8B0DAE0CAF0D02847D95
:1083C0007402122E6574FFF07403122E6574FFF0B0
:1083D0007404122E6574FF12A290FAA3E0FB7407D6
:1083E000122C0712D1C8124615E96401707112BE31
:1083F0009C4480F8A3E0F97428122E65E8F0A3E904
:1084000012EB8AE0C0E0742A122E65D0E012B56249
:10841000540860167428122E65A3E0440112877177
:10842000C0E0742C122E65D0E0F012AE5A12CAC60B
:10843000601512B2D4A3E0C812DE29E0F874161257
:108440002E65E8F0A3E4F09081871229B974061232
:108450002C07740B122BFF123FBB7404122BA98E36
:10846000828F83A3A3A3A3A3A3A3A3A374061287AA
:1084700071F91245917405122E6512DE39EE4F70B6
:10848000030285367C007904EEFAEFFB1245AF74E7
:1084900005122E65EAF0A3EB12DBE5128B62E4F520
:1084A0000EF50F7808790C122DD04021EE2404F837
:1084B000E43FF985080C85090D88828983C3E0951E
:1084C0000CF0A3E0950D12F22770AA800C8E828F1B
:1084D00083A3A3A3A3E4F0A3F08E828F83A3A3A31B
:1084E000A3A3A3A3A3A3A3E064018E828F83A3A36A
:1084F000A3A3A3A37023E0540460030283C08E826D
:108500008F83A3A3A3A3A3A3A3A3A37406F07AB703
:108510001287671244E3028475A3A3A3A3E0600358
:108520000283C08E828F83A3A3A3A3A3A3A3A3A329
:108530007401F002847512457F7C0079017A007B1A
:10854000001245AF8B0DEA450D600C7A207B009040
:1085500017C4E0F91234E77C0079047A007B00123A
:1085600045AFEA4B7014804E8A828B83A3A3A3A3EA
:1085700012B9ECC3EE98EF99400B8A828B83A3A3C8
:10858000A3A312DE397C0079041245AF8B0BA90B33
:10859000EA4970D4C3E5089EE5099F500DC3EE95E6
:1085A00008FEEF9509FFEE4F70147A207B009017BC
:1085B000C4E0F91234E79017D8129B81802EEE2E7A
:1085C000FEEF33FF8E088F09E4F50AF50B780812E9
:1085D0002B8E7A207B009017C4E0F912360D7404BC
:1085E000122BA91236319017D8122E2A851882859F
:1085F0001983E06420804A9016CEE0600764016031
:108600000302871B851882851983E05410600E12BF
:108610004093851882851983E064108024E05440DB
:10862000600E12410B851882851983E06440801129
:10863000E054806012123F55851882851983E064EA
:1086400080FAA3E002875BA3E05401600B12477736
:1086500012F141640102875B851882851983A3E0CA
:10866000540860471240639016BCE0640170349077
:1086700016BDE0602EF508E4F509F50AF50B9081CA
:10868000D3780C122E0E7808790C12244B7808122D
:108690002B8E7A007B089017C4E0F912361374040D
:1086A000122BA912F141640802875B851882851993
:1086B00083A3E0541060139017D6E06005E4F01235
:1086C000406312F141641002875B8518828519832B
:1086D000A3E0544060459017FD12CAC86036901957
:1086E000F0E06401702E9017FE12C7FF12279690DB
:1086F000180312CAC8600612C7FF1227969081D3CA
:108700001229B97A007B409017C4E0F9123613742D
:1087100004122BA912F1416440804085188285190A
:1087200083A3E05402600A12477112F1416402808F
:108730002A851882851983A3E05404602112CE5C37
:108740009016CEE064027003124C517901901777B5
:1087500012D56E123FD912F1416404FB80047A00F5
:108760007B00742D02DB168E828F8312F494E0F965
:108770002212B567A3A3E022C082C08374EA122C40
:10878000277C167D007900AA18AB1912348D740865
:10879000122E657402F090176D12D0C81287B8744B
:1087A00009122E6512D0DB7413122E65E412CFA2CB
:1087B000123D81741602B9C4E8F0A3E9F09017776E
:1087C00012B9F02274F71225B074DA122C27EAFEDF
:1087D000EBFFEE4F602DAC18AD1912461574061262
:1087E0002E65E0601E7417122E65E0FD7401122ED6
:1087F00065E0FCEEFAEFFB7900124429E9600479A8
:10880000A480027900742602B2F874F41225B08AAA
:10881000088B098A828B83A3A3A3A3A3A3E054405C
:10882000601A8A828B83128EB51246CFE960077A6E
:10883000FF7BFF02890512DBC10288F89016CEE0AB
:108840006007640160030288ED901764E0A2E140D4
:10885000030288ED8A828B8312B2E612CD9CA3A319
:1088600012894EA3A312D8CC8508828B83A3A3A31D
:10887000A3A3A3A3E054106004794080027900759B
:108880000AFE750BFF780A122B96E508241112CC0C
:10889000B71229C1EEFCEFFD8508828B83128EB5DD
:1088A0001240697404122BA9EE6A7002EF6B60101B
:1088B000E50812B9D112C7F76A7003A3E06B703BE9
:1088C000750A00780A122B9A790212DBC112C803CA
:1088D0001247117401122BA97ECDEEFA850882850C
:1088E000098312876B1244E3E9604F805C9016CED7
:1088F000E0640270E390176D12D56E74FE6A700327
:1089000074FF6B60D312DBC112DE481246CFE985DB
:108910000882850983600B12BB9212F4DBE4F0A39A
:10892000800312F4C9F07CD77D44850882850983D1
:1089300012D56E123D87E9FE70A0E5084509600971
:108940007901AA08AB0912458BEEF902B4DEA3A3A4
:10895000E0FA888289832274F61225B0E9FEEAFFE4
:108960007A0F7B001234A5EA4B601F8A828B8374D6
:108970000CF0EEA3A3F0EF8A828B8312B02F901736
:10898000C4E0F91234B179008034EEF91245B58AA9
:10899000088B09A808A909E849602188828983A36E
:1089A000A3A3A3A3A3A3A3A3740612E67BA3A3A3D9
:1089B000A3A3E0F912411DEEF9124591791002C806
:1089C000F874F41225B08A088B098C0A8D0B901765
:1089D0007EE0640F7028128A016023901779E064AA
:1089E000086005E0640470167808122B8E7A017B0B
:1089F000009017C4E0F912360D7404122BA902B4CA
:108A0000DEEA4509450A450B2274F21225B0EAFE5A
:108A1000EBFF8C088D09890A740E122E65128B6289
:108A2000850C82F583E4F0A3F0128B6A1246ABE961
:108A3000602012D5611246CFE9640270158E828FD4
:108A400083A3A3A3A3A3A3A3A3A312DBF312D0DB4B
:108A50008003750A00EE241D12B55114602E1460B7
:108A60004314606414606C146048147003028AF646
:108A700024FE7003028B13147003028B1C1470030A
:108A8000028B2F147003028B3D028B53780C122B38
:108A900096AC08AD09EEFAEFFB12407B7402122B84
:108AA000A9028B38AC08AD09EEFAEFFB1240810247
:108AB0008B5D12D5611246CFE96003028B53EEFA4B
:108AC000EFFB1240CF028B5DA90AEEFAEFFB1247D3
:108AD000178065EE241712A60564027076E50A7009
:108AE0000A12E1CA7003A3E0697072EEFAEFFBA903
:108AF0000A12469F804212E1CA7003A3E0697053D4
:108B0000EE241712A60564027049EEFAEFFB124636
:108B100087804AEEFAEFFB124795804112E1CA7056
:108B200003A3E069702DEEFAEFFB124723802EEECF
:108B3000FAEFFBA90A12472FE9F50A80209019F0F5
:108B4000E064017009EEFAEFFB12473B800F750AF3
:108B500000800A750A007AD37B0012397FA90A02C5
:108B6000AA82E0F50CA3E0F50D22EE241DF582E4C7
:108B70003FF58312B3C9F92274F41225B074D612EA
:108B80002C278A088B098A828B83A3A3E0F91245DC
:108B9000B58A0A8B0BAE0AAF0BEE4F7003028CA99D
:108BA000850882850983A3A882A983E0C0E012C555
:108BB0001AD0E012F60764F16033850882850983D4
:108BC000A3E064CD6027850882850983A3E0641A49
:108BD000601B850882850983A3E064E9600F85082E
:108BE00082850983A3E064E16003028D9A9016CE2A
:108BF000E0600764016003028CC28E828F83A3A3AE
:108C0000A3A3A3A3A3E054087003028CC28E828F97
:108C100083A3A3A3A3A3A3A3A3A37405F09016CE39
:108C2000E0600464017053850882850983A3E064D1
:108C3000E960479017F912CAC8600612C7FF1227E9
:108C4000969017FB12CAC86031901764E0A2E150F9
:108C50002912D199A3A3A312B1E38882898312D5E3
:108C60006E1247D1EA4B6012850882850983A3E022
:108C7000F99017FB12DBC71227968E828F83A3A36E
:108C8000A3A3A3A3A3A3A3E0640270108E828F8387
:108C9000A3A3A3A3A3A3A3A3A37406F0850882851B
:108CA0000983A3A3E0F912459112457F9016CEE007
:108CB000640270099019CF129B131244E9742A02BE
:108CC000B4DB790012458BE97003028D9A9016CEC1
:108CD000E0600764016003028D68901764E0A2E120
:108CE0004003028D6812CABF607E8E828F8312D5C8
:108CF0006E7404122C0712D1C8124615850882859D
:108D00000983A3E064E97020128EA0122B9A8508D3
:108D100082850983A3E0F50A780A122B9A12D8ED0E
:108D200012464B7402122BA9740D122E6512CF74C9
:108D300012F14C12D0DB7409122E65E06004794008
:108D400080027900740F122E6512B1E3740D122E99
:108D50006512D56E124075E9600E8E828F83A3A3D3
:108D6000A3A3A3A3E04420F0EE2404F50AE43FF516
:108D70000B8E828F83A3A3A3A3A3A312B1E38508C1
:108D80008285098312AE7412D56E123463850A820D
:108D9000850B83EAF0A3EB028C1C8508828509838E
:108DA000A3E0C0E07402122E65D0E012F7A2F01228
:108DB0008E96E0C0E07403122E65D0E012E971E0F7
:108DC000AA18AB19702E123FB59016CEE06004645D
:108DD0000170247402122E65E0701C128EB11246CE
:108DE000CFE970369017F912CAC8602E12C7FF1269
:108DF000279680031246A57402122E65E064E9707E
:108E000019128EA0122B9A750AE9780A122B9A125F
:108E1000D8ED12464B7402122BA99016CEE06007D3
:108E200064016003028C7A901764E0A2E1400302BF
:108E30008C7A8E828F83A3A3A3A3A3A3A3A3A3E06F
:108E4000640270398E828F83A3A3A3A3A3A3E054EB
:108E500004602A128EB11246CFE98E828F83700F82
:108E600012DBC774FFF0A312AE7E7405028C9BA3C5
:108E7000A3A3A3A3A3A3A3A37403028C9B8508822B
:108E8000850983A3E064E96003028C7AEEFAEFFBC4
:108E900012474D028C7AE50812B0393509F5832264
:108EA0008E828F8312B9F0E8FAE9FB750A01780A1D
:108EB000228E828F8312B3C9FAA3E0FB2274F212CE
:108EC00025B0EAFEEBFF750A007508008E828F83DD
:108ED000A3A3A3A3A3E0603B750A0812D56179FFA1
:108EE00012421F8B0DEA450D6010750A2C8E828F81
:108EF00083A3A3A3A3A3E0D2E0F08E828F83A3A3D6
:108F0000A3A3A3E0540364016003028FC3430A11C7
:108F1000028FC3EE241812A6056046EE241A12A68C
:108F2000056003F4701D12E1CA7003A3E0697006C6
:108F3000750A22028FC3901779E064046003028FE0
:108F4000C38019EE241B12B1DDEE241A12A605FA15
:108F5000EE2419129C071240E1E970677508018040
:108F60006212D5611246CFE964027003750A0112DC
:108F7000E1CA7003A3E0697006E50AD2E1F50AE5EB
:108F80000A60158E828F83A3A3E07006E50AD2E5FE
:108F90008004E50AD2E6F50A12D5611246CFE964EB
:108FA000017006E50AD2E0F50A8E828F83A3A3E062
:108FB0006011128B6A1246ABE964016006E50AC2D1
:108FC000E0F50A9016CEE0600464017012E50AA292
:108FD000E1400CE508A2E04006E50AD2E7F50A0206
:108FE0008B5D74F01225B074C1122C27EAFEEBFFE2
:108FF00085188285198374FEF0A304F0750E007540
:109000000F00750D009016CEE06402701C8E828FEA
:1090100083A3A3A3A3E060119019CD12CAC860096D
:109020009019CD129B131244E97407122C078E82FB
:109030008F83A3A3A312CF7612D56C124615E970C5
:109040000302942B78017409122E65E0C394024048
:10905000027800740B122E65E0C39402400278007F
:109060007410122E65E064F87003A3E0F47003023C
:10907000942B7410122E65E064F97003A3E0F47071
:109080000302942B7410122E65E064FA7003A3E0BF
:10909000F4700302942B7410122E65E064FB7003CD
:1090A000A3E0F4700302942B740A122E65E0F99089
:1090B0001767E069600302942BE8A2E04003029482
:1090C0002B9016CEE06402700B742B122E65E060BC
:1090D0000302942B12B9E37426122E6512B8D4241D
:1090E0001C12B9E67414122E6512D0DB740D122E08
:1090F00065E0601D741E122E65E0FD7408122E6579
:10910000E0FC8E828F8312D56C7901124429E970BC
:109110003D7407122BFF1244FBE9F50C740D122E5F
:1091200065E0702F901761E060297422550C64226D
:1091300060217442550C644270147424122E65121E
:109140009B2A600F7424122E65129B3760057ACF1C
:1091500002942DE9A2E6506C9016CEE06004640102
:10916000701B901764E0A2E150137424122E651254
:10917000B557122A4601010B9B91002B94742412BF
:109180002E6512B55724FD601214600F24FD600B8C
:1091900024FD600724FE600302942B7424122E65C4
:1091A000129B6C700F7424122E65A312C7FFA3E0EC
:1091B000640D60107407122BFF12470BE9640170F5
:1091C00003029B05EE242DF582E43FF58312A2876E
:1091D0007003A3E06970217508007808122B9A7853
:1091E00008122B9AEE242F129C07129B3D12D56E6B
:1091F00012464B7402122BA9740D122E65E07003F7
:109200000292BC129B3D12D56E1247D17402122EEF
:109210006512BB9F122E6512CAC870030293537465
:1092200008122E65E0F88E828F83A3A3E028F8A3AE
:10923000E03400F9E8240D12EAD3F87402122E6526
:10924000E0F9A3E0F5838982A3A3A3E068601BE8AB
:10925000C0E07402122E65129B0AA3A3D0E0F07442
:1092600002122E65129B30129B8179047408122E13
:109270006512A611E02AF8A3E034008882F583A3E2
:10928000AA82AB831234998A088B098C0A8D0B74DD
:1092900002122E65129B307808122B194003029B94
:1092A0000590814B7808122D697402122E6512DB2D
:1092B000C712F710A3E50AF0A3E50BF09016CEE075
:1092C00064026003029400901779E064046008E08F
:1092D00064096003029B05E50CA2E5400302938E3E
:1092E000EE242F12A605C0E07404122E65D0E01201
:1092F0009B92C0E07405122E65D0E0129B8AC0E0FC
:109300007406122E65D0E0F07418122E65E0640128
:1093100070267412122E65129B617003A3E06970AF
:10932000177410122E6512D56E1246CFE9640270C2
:10933000077418122E65E4F0129B771229B974088D
:10934000122C07740B122BFF123FBB7404122BA9B3
:10935000029B059017BEE0640160030292BC742476
:10936000122E65129B2A7009E50CA2E650030292A8
:10937000BC7414122E65E0F47003A3E0F4600CEEEC
:10938000FCEFFD7407122BFF124507029B05A2E6B6
:109390004003029B057424122E6512D1A770167427
:1093A0001E122E65E0640270547407122BFF7900C0
:1093B00012469F80487424122E65129B37701474D5
:1093C0001E122E65E0640470347407122BFF1246DF
:1093D00093802A7424122E65129B6C700C79007491
:1093E00007122BFF12471780147424122E6512B532
:1093F00059640C70087407122BFF124747029B0533
:10940000E0600764016003029B05901764E0A2E13D
:109410004003029B05742B122E65E0602574121226
:109420002E6512D56E123EADE9700A7AD37B00121A
:10943000397F029B058E828F83A3A3129B0AE0C211
:10944000E5F07418122E65E0601DEE2402F8E43F8A
:10945000F9E8FAE9FB12D1AD14F012D1ADF87418A5
:10946000122E65E8F07006E50CC2E7F50CE50CA2DB
:10947000E35061750F10A2E25018740C122E65E0D3
:1094800054E3F0740C122E65E0131313541FF8E02C
:10949000802CA2E4502A740C122E65E01313543F62
:1094A0005407F86009740768600B18E87007C3E593
:1094B0000CC2E7F50CE8333354FCF8E054E348F011
:1094C000740C122E65E0C0E08E828F83A3A312AFCE
:1094D00058D0E0F0901779E064046008E064096017
:1094E000030295B07410122E6512E1D77003A3E049
:1094F00069601F7410122E6512D56E1246CFE96492
:1095000002600F740C122E65E054036401600302C4
:109510009B057409122E65E07041EE242F12A605FA
:10952000C0E07404122E65D0E0129B92C0E0740576
:10953000122E65D0E0129B8AC0E07406122E65D010
:10954000E0129B721229B97408122C07740B122BAB
:10955000FF123FBB7404122BA980527424122E6593
:1095600012D1A77016741E122E65E06402703E744C
:1095700007122BFF790012469F80327424122E6549
:10958000129B377014741E122E65E06404701E74F2
:1095900007122BFF12469380147424122E65129B1F
:1095A0006C700A79007407122BFF124717029B0593
:1095B0007461550C70030296B3E50CA2E050691279
:1095C000B1DA7407122BFF124111E97058124645A7
:1095D000E9F50D7418122E65E0700F7412122E65E5
:1095E000129B617003A3E069603EA90D12B1DA74A9
:1095F00007122BFF124117E96020E50CA2E3500C83
:1096000085188285198374FFF0A380087410122EC8
:1096100065129B54F0750E04800EE50CC2E5F50C46
:10962000750D008003530C9FE50CA2E5503FEE241E
:109630002F12A605C0E07404122E65D0E0129B9292
:10964000C0E07405122E65D0E0129B8AC0E074065B
:10965000122E65D0E0129B721229B97408122C07E1
:10966000740B122BFF123FBB7404122BA9E50CA242
:10967000E64003029986A818A9198808890978087C
:10968000122B96A90D129B21122BFF1244EF74028C
:10969000122BA9E9F50D70030299867424122E6528
:1096A00012B557640160030299867410450EF50ED9
:1096B0000299867409122E65E06401705D742412AB
:1096C0002E6512B5576405701EA818A91988088957
:1096D000097808122B96129B1F122BFF1244EF746D
:1096E00002122BA9029B057424122E65129B6C702A
:1096F000297410122E6512D56E123EADE9601BA8BA
:1097000018A919880889097808122B96129B1F122C
:109710002BFF1244EF7402122BA97418122E65E06D
:1097200070257409122E65E06401700C7424122EE9
:1097300065E0F8129B6C600CEEFCEFFD7407122BD9
:10974000FF124507029B05124585E96003029B0550
:10975000741F122E65E070030297F47422122E65B6
:1097600012B1E37421122E65E0FA7420122E65E026
:10977000F91240E1E960707421122E65E0701A74EC
:1097800010122E65129B5412BB97123EB98B09EA38
:109790004509600302998080487422122E6512D513
:1097A0006E7421122E65E0F91240DB85188285194E
:1097B0008312DE487808740F122E65E0600278107C
:1097C000740E122E65E06004740828F8740C122ED2
:1097D00065E0600108088E828F83A3A312C26D1416
:1097E000F0750E400299807508007808122B9A795E
:1097F0000B0299397410122E6512D0C812D0DB7486
:109800000B122E65E06003029954E50CA2E35003AD
:109810000299547409122E65E0640170030298A045
:10982000790085188285198312D56E1241358A0810
:109830008B09A808A909E849601C88828983A3A329
:10984000A3A3A3E06401605888828983A3A3A3A390
:10985000A3E06402604AEE242D12B1DD85188285F2
:10986000198312D56E1247D18A828B83E582458394
:109870006015A3A3E0F91247EFE9600BC3940895C4
:10988000E0C365D03340197412122E6512D56E12E2
:109890003EADE9700302992F740B122E657404F02B
:1098A0007400F5087808122B9A7420122E65AC8289
:1098B000AD837411122E6512D56E740C122E65E0F4
:1098C000F91241477401122BA9E9600F750E208E21
:1098D000828F83A3A312B557543FF0741F122E65D5
:1098E000E060237410122E6512B1E37420122E650D
:1098F000AA82AB8312460F85188285198312DE482F
:109900007440450EF50E7409122E65E06401601571
:1099100079007412122E6512B1E37410122E6512C2
:10992000D56E1240E7E50CA2E350377940803575DB
:1099300008007808122B9A79027411122E6512B160
:10994000E37413122E6512D56E1247117401122B97
:10995000A9029B05E50CA2E340030298A074400213
:1099600098A279007412122E6512B1E37410122EAF
:109970006512D56E124075E960067420450EF50E2D
:10998000124645E9F50D851882851983E064FE705D
:1099900003A3E0F47003750D009016BFE06401604E
:1099A00003029A39EE241312A605F47003A3E0F41F
:1099B0007003029A397410122E65C3E094F9A3E083
:1099C00094FF507512B9E37412122E65E0687003AB
:1099D000A3E06960647412122E6512D56E123EB94E
:1099E0008A088B09A808A909E849604D88828983FB
:1099F000A3A3A3A3E06401600D88828983A3A3A32A
:109A0000A3E0640270337432122E65740112E6769C
:109A1000F8A3E0F9743D122E6512D0DB7432122BDC
:109A2000FF123E65E960127435122E65AA82AB837F
:109A3000123ECBE96003123925E50CA2E740030290
:109A40009B05E50D7003029B058E828F83A3A3A364
:109A5000A3E0FA7B001235477402122E6512BB9FF9
:109A6000122E6512CAC87003029B058E828F83A3D3
:109A700012DBCF122B928E828F83A3A3A3A3E0FCD1
:109A80007D007405122E6512D56E12348174031296
:109A90002BA97409122E65E0C0E0742D122E65D03A
:109AA000E0F07430122E65E4F0A3F0742D122BF761
:109AB000880889097808122B967508007808122BF7
:109AC0009A780E122B96E50DF5087808122B9A124B
:109AD000B8A41229C18E828F83A3A3A3A3E0F97433
:109AE00008122E6512B1E3740A122E6512D56E1299
:109AF00046037408122BA9E9600B7402122E65123A
:109B0000D56E12354D743F02DB16129B0E2212C227
:109B100054A322E0F508A3E0AA08FBE4FCFD2279A7
:109B20000012B8A812B1E774092212B3C964062260
:109B3000129B0EA3A3A32212B55D640722EE242B71
:109B4000F582E43F129B4B12B8A922F583E0FCA3F7
:109B5000E0FDEE22129B5822E012AF4DE8F0A3E99F
:109B60002212B9F0EE241312A609682212B55D6420
:109B70000322F0129B7722EE2425F582E43FF58341
:109B800022E4F0A3F0A3F0A3F022F0EE243112A619
:109B90000922F0EE243012A6092274F41225B0EA4C
:109BA000FEEBFF8C088D099016BCE0600F12E1CA35
:109BB0007003A3E06970051240638048790012D5F4
:109BC000611241358A828B83E5824583602EA3A38F
:109BD000A3A3A3A3E054186023E508241C12CCB768
:109BE0001229C112CCB31229C1EE2418129C0712FB
:109BF0009C0C12414D7404122BA980087900129C10
:109C00000C12408D02B4DE12A609F9228E828F83D7
:109C1000A3A3A3A3A3A3A3A3A3129B4D12CDA112FD
:109C2000D1DE2274F01225B074E5122C278A0E8B37
:109C30000FEA2402F50AE4350FF50B0A0AFB123E7F
:109C4000BF8A088B09AE08AF09750901850E8285A8
:109C50000F83A3E0F50C750801AC0AAD0B7410126C
:109C60002E65AA82AB8312365B7418122E6574FEC1
:109C7000F0A304F0741A122E657402F0740D122E03
:109C800065E4F09016E6E0700EEE4F700AE50C7099
:109C9000067509C3029E80901779E0640860067516
:109CA00009C2029E7C850E82850F83A3A3A3A3A372
:109CB000A3A3A3A3A3E0A2E1500EA2E3500575085D
:109CC00004800C7508038007A2E35003750802EEB8
:109CD0004F7003029D748E828F83A3A3A3A3E064BD
:109CE00004600D8E828F83A3A3A3A3E06403700C92
:109CF00074046508602C7403650860268E828F8367
:109D0000A3A3A3A3E06402600D8E828F83A3A3A309
:109D1000A3E0640170377402650860067401650889
:109D2000701E8E828F8312D56E1246EDE970458EBD
:109D3000828F8312B9EC7418122E6512D0DB803436
:109D40008E828F83A3A3A3A3E06402600D8E828F13
:109D500083A3A3A3A3E06401700A8E828F8312D52C
:109D60006E1240ABE50E2402FAE4350FFB123ECB37
:109D70007E007F007418122E65E064FE7003A3E07D
:109D8000F47048123E71E97042E50C601D901A10A3
:109D900012D56E1246EDE97011901A1012B9EC74DA
:109DA00018122E65E8F0A3E98020850E82850F83C6
:109DB000A3A3A3A3A3A3A3A3A3A3E05402F91240C4
:109DC0009F7418122E65EAF0A3EBF07418122E653A
:109DD000E064FE7003A3E0F470067509C7029E7C80
:109DE000E50CF50A780A122B9A850E82850F83A35B
:109DF000A3A3A3A3A3A3A3A3A3E0F9E50E2402FCBA
:109E0000E4350FFD7419122E6512D56E123FDF7402
:109E100001122BA9E9706590180712CAC860117465
:109E200018122E6512D56E90180812C7FF122796C9
:109E3000A908E50E2402FCE4350FFD7418122E6506
:109E400012D56E123E9B8A0A8B0BAE0AAF0BEE4FF9
:109E5000601F7402650C700D8E828F83A3A3A3A371
:109E6000A3E0D2E3F0741A122E65E4F075090080C5
:109E70000B7418122E6574FEF0A304F0E50C700A42
:109E80007405122BFF123D6F80599016CEE070477B
:109E90007401650C70419016ABE0703BE50E240236
:109EA000F8E4350F129F7E122E65E4F07403122E33
:109EB00065E4F07404122E65E4F0741A122E65E461
:109EC000F07C01A9087405122BFF12468DAA18AB6D
:109ED00019123F97029F79AC0CA9087405122BFF49
:109EE00012468DE9F8EE4F6053E50C60208E828FAC
:109EF00083A3A3A3A3A3E0D2E6F07402650C700DC4
:109F00008E828F83A3A3A3A3A3E0D2E5F0850E8264
:109F1000850F83A3A3A3A3A3A3A3A3A3A3E0A2E664
:109F2000500D8E828F83A3A3A3A3A3E0D2E7F08E6C
:109F3000828F83A3A3A3A3A3A3E004F0E509700584
:109F4000E86036600AFC7D007A017B1012345DEE19
:109F50004F600CE50E2402FAE4350FFB123ECB7481
:109F600018122E65E064FE7003A3E0F4600B741811
:109F7000122E6512D56E1240AB741B02DB16F985EA
:109F8000188285198312D0DF74022274F71225B06B
:109F900074F7122C27EAFEEBFF901779E064036058
:109FA0000DE064016008E06409600302A0DD8E82B8
:109FB0008F83A3E0600302A0987C007D007A027B7F
:109FC0000012345D12A0E28A828B8312B9EC9017E2
:109FD0006A12D0DB7953123D63901779E06409600F
:109FE0000990177712D56E1247CB85188285198391
:109FF000740112CFA27942123D639017797404F074
:10A000007401122BFF794A123D5D7401122C077AFC
:10A010006F7B1712365B90145BE0640B700574065F
:10A02000F0800B790090177712D56E123FD99016F9
:10A03000CEE060046401701F90176DE064FE700351
:10A04000A3E0F4602A79007401122C0790176D12B6
:10A05000D56E123E9B8018E06402701390176A124E
:10A06000B1E37A037B0012345D12A82B12345D90A9
:10A070001764E0A2E35004D2F08002C2F012CF983D
:10A080007952123D639016CEE06402704D9019C96A
:10A09000122E361244E98042FC7D007A037B1012B6
:10A0A000345D9016CEE06402701B90145BE0640B8C
:10A0B0007003740AF09019ECE4F0FA7B409017C436
:10A0C000E0F91236198E828F83A3E0F99017771288
:10A0D000D56E123FD9901779E4F0124555740902F4
:10A0E000B2F8EE2402FAE43FFB22C082C08390164D
:10A0F000E712CAC87017901779E024FB6005146056
:10A1000007800A9016EE802F9016F0802AE84960AA
:10A11000089016E812A61E700C8A828B83A3E0F9C1
:10A12000123FC1801D9016E712D1B1640270051272
:10A130004765800E9017F712CAC8600612C7FF1253
:10A14000279602C3BB74F01225B074E8122C27EADC
:10A15000FCEBFD8C828D83A3A3A3A37808122E0EA3
:10A160007808122DB090177A7808122D4375097F60
:10A1700075087F790090177A780C122E0EE9780C0A
:10A18000122BDEE50CA2E0502478009017C5800E5B
:10A190008E828F83A3A3E06970010812B89A12B26D
:10A1A0003670EDE8C3950950048809890809E9C3A8
:10A1B000941B40C18C828D83A3A3A3A3122E42E8DB
:10A1C000494A4B6078EC2404FEE43DFF8E828F8385
:10A1D000122E4290177A122E4E7C187D007900AA1A
:10A1E00018AB1912348D8E828F83122E42851882FD
:10A1F000851983122E4E7404122E657401F0901787
:10A2000080E0C0E07405122E65D0E0F07407122ED5
:10A2100065E412CFA2123D75806890177712D56E53
:10A2200012400F8A0A8B0BA80AA90B901777E8F047
:10A23000A3E912A290687003A3E06960269017C595
:10A2400012B236601E8E828F8312A2877003A3E043
:10A2500069700B8E828F83A3A3E0650860BC12B87F
:10A260009A80DDE50890176CF0124531E960139093
:10A270001779E4F09016F212CAC8600612C7FD12F0
:10A280002796741802DB1612B9F0901777E068224F
:10A2900012DBEDE02274F41225B074E8122C278A48
:10A2A000828B83A3A3A3A3A3A3A3A3A312B9ECE8C4
:10A2B000FAE9FB790090177A7808122E0EE97808EF
:10A2C000122BDEE508A2E05032E9FCEA2CF582E42C
:10A2D00012B9DEF8901A0FE0C398501F7508017587
:10A2E0000900750A00750B00E97808122AFA780847
:10A2F000122DB090177A7808122D4309E9C3941BE8
:10A3000040B390177A122E42E8494A4B604E7C18AF
:10A310007D007900AA18AB1912348D90177A122E8D
:10A3200042851882851983122E4E7404122E65748C
:10A3300001F07407122E657401F0901780E0C0E000
:10A340007405122E65D0E0F07407122E65E412CF6A
:10A35000A2123D759017797406F0801C901779E46D
:10A36000F0FCFD7A047B1012345D9016F212CAC81C
:10A37000600612C7FD122796741802B4DB74F5123A
:10A3800025B074D1122C278A088B098A828B83A36B
:10A39000A3A3A3A3A3A3A3E0C3940F500302A5FD0B
:10A3A0008A828B83A3A3A312DE39741C122C078A22
:10A3B000828B83A3A3A3A3A3A3A312A61612D5657E
:10A3C000124567741C122E65E0702E85088285097F
:10A3D00083A3A3A3A3A3A3A3A3E0C3940B401A8EB8
:10A3E000828F83A3A3A3A3A3A3A3A3E06402700902
:10A3F000EE240B12A605F4600302A5FD741E122EB6
:10A4000065E060076402600302A5FD901779E064CF
:10A4100002700302A4E2E06406700302A4E2901654
:10A42000E712CAC8600812A61E700302A51690178C
:10A4300079E064086008E06404600302A5FD741E0E
:10A44000122E6512A611A3A3A3A3A3A3A312DE3900
:10A450009016E7E0F8496009A3E012C20C640260BC
:10A4600077901777E06E7003A3E06F600302A5FD9D
:10A4700074016A60167423122E65AC82AD837A8BE8
:10A480007B17123655E9600302A5FD7A007B029026
:10A4900017C4E0F912361FEA4B4C4D600302A5FDCC
:10A4A00090177A122E42851882851983122E4E90AB
:10A4B0001780E0C0E07404122E65D0E0F07405123D
:10A4C0002E657401F07406122E65740212CFA2126A
:10A4D0003F3DE9600302A5FAEEFAEFFB12475F0287
:10A4E000A5FD9016E712CAC8702C750800780812EE
:10A4F0002B9A7808122B9AEE2410F582E43FF5830C
:10A5000012CF77A3A3A3A3A312B8C612D56E124687
:10A510004B7402122BA98E828F8312B9EC7407122E
:10A520002E65E8F0A3E912AE7E12B9EC7409122E82
:10A530006512B8D412BE9DC0E0740B122E65D0E037
:10A54000F0EE240B12E668740F7808122DF0740CEC
:10A55000122E65E508F07420122E65E0C0E0740D3F
:10A56000122E65D0E0F07422122E65E0C0E0740E69
:10A57000122E65D0E0F0741D122E65E0C0E074105C
:10A58000122E65D0E0F0741E122E65E0C0E0740F4C
:10A59000122E65D0E0F0EE241012A605C0E0741172
:10A5A000122E65D0E0F07421122E65E0C0E0741226
:10A5B000122E65D0E0F0742E122E65E0C0E0741308
:10A5C000122E65D0E0F07423122E65A982AA838929
:10A5D000088A09750A007808122B927C087D00749D
:10A5E00017122E65AA82AB831234817403122BA931
:10A5F0007407122BFF123FD38003123F43742F02C4
:10A60000B577EE240F12A60922F582E43FF583E028
:10A610002212BE80A322A3E0F98A828B832212D168
:10A62000B8640122C082C08374C9122C2712477DEE
:10A63000901779E06408601F90535FE49390175B74
:10A64000F090535FE493901759F0901782740112C1
:10A65000A79CA30412A79C7C237D0079007414128C
:10A660002BFF12348D90178AE07009741E122E652C
:10A6700074018006741E122E65E412B9FB740FF08B
:10A68000901A0E12CFA27946123D637401122E6504
:10A69000E4F09019DDE0C0E07402122E65D0E0F025
:10A6A000901767E0C0E07403122E65D0E0F07404E8
:10A6B000122E65E4F07405122E65E4F07407122E74
:10A6C00065E4F090178AE0C3940F500CE0C0E0748A
:10A6D00006122E65D0E080077406122E65740FF006
:10A6E0007C8B7D177408122E65AA82AB8312365BB1
:10A6F0007C037D0079FF7410122E65AA82AB831251
:10A70000348D9017C3E0C0E07413122E65D0E012B0
:10A71000CC167401122BFF1245617AC77B1779455D
:10A72000123D6312467B90177EE0C0E0741C122E2F
:10A7300065D0E0F090177FE0C0E0741D122E65D068
:10A74000E0F090176CE0C0E0741A122E65D0E012B1
:10A7500087BC7418122E6512D0DB7420122E65E4AB
:10A76000F0901781E0C0E0741F122E65D0E0F07405
:10A7700034122E65E4F07429122E65E4F07A6A7BB7
:10A78000177953123D637A6D7B17794B123D6374D1
:10A7900014122BFF124CC3743702B9C4F0A3E4F0B7
:10A7A000A3F0A3F022C082C0838A828B83A3E090AF
:10A7B00017796004E4F080707408F090178AE070F4
:10A7C000289016F212CAC86008790012C7FF122733
:10A7D0009690177712B1E37A057B0012345D9017DB
:10A7E0007712D56E1247CB80187900123FCD9017A3
:10A7F0006A12B1E37A067B0012345D12A82B123480
:10A800005D9017FD12CAC8601F9019F0E0640170D6
:10A81000179081D31229B97A007B409017C4E0F9D0
:10A820001236137404122BA902C3BB90176D12B118
:10A83000E77A047B0022022B3E74F21225B074F8F2
:10A84000122C278A0A8B0B8C0C8D0D89089080F1B5
:10A85000AC18AD197408122ABAC200AC0AAD0BAA22
:10A8600018AB19123655E97002D2009017C5801442
:10A87000AC0AAD0BEE240BFAE43FFB123655E9703F
:10A880001B12B89A12B236601EA20040E38E828F6D
:10A8900083E0650C7004A3E0650D70E58E828F8304
:10A8A000A3A3E0650870DAEEFAEFFB740802AA7F52
:10A8B000C082C0839017C502C3B8C082C0839017FE
:10A8C000C5E4F0A302ABD874F71225B09017C512F7
:10A8D000F147800FEA2414F582E412DE3612354D7A
:10A8E000EEFAEFFBEA4B70EC9017C5E4F0A3F00230
:10A8F000B2FB74F41225B08A088B09EA2413F5829E
:10A90000E412C7F76403700DEA240BFAE43509FB7F
:10A91000123EBF800FE06402707BEA128E9812D55F
:10A920006E123EB98A0A8B0BAE0AAF0BEE4F606512
:10A93000850882850983A3E0700D8E828F83A3A38F
:10A94000A3A3A3A3E4804D64F1600C85088285096C
:10A9500083A3E064E170258E828F83A3A3A3A3A3C6
:10A96000A3E0640170168E828F8312D56E1240AB05
:10A97000E508240BFAE43509FB123ECB8E828F8367
:10A98000A3A3A3A3A3A3E0600C8E828F83A3A3A39E
:10A99000A3A3A314F002B4DE74F21225B08A0C8BC8
:10A9A0000DECFEEDFF890B8A828B8312CCC2F0A3E3
:10A9B000A882A9838A828B8312AA5F12B017E0C48F
:10A9C00054F0FA88828983E04A12BED1850C828BCA
:10A9D00083A3A312AA5F12AA72E0333354FC12AA13
:10A9E00066E033333354F812AA66A3E0A2E0E433FE
:10A9F0001313FA88828983E04AF0EE2403FE5001A3
:10AA00000FE50C2407F508E4350DF509750A007803
:10AA100008122B927C087D00EEFAEFFB1234817451
:10AA200003122BA9EE2408FE50010FE50C240FF5AC
:10AA300008E4350DF5097808122B927C037D00EEB1
:10AA4000FAEFFB1234817403122BA9E50BC3940FA8
:10AA5000400BE50C12B9CB350D12C520F08023A3B5
:10AA6000E08882898322FA88828983E04A12AA7266
:10AA7000A322F0850C828B83A3A3A3A322740312C9
:10AA80002BA97F0602283574F21225B0EAFEEBFFEF
:10AA90008C0C8D0D8E828F83E08C828D8312C55637
:10AAA000A882A983E0540F8C828D8312F606C4120B
:10AAB000C35512BEC712C35D12F604A2E2E4338C82
:10AAC000828D8312F603131313541F12C35512F60B
:10AAD00003A2E7E4338C828D83A3A3A3A3A3A3F0F3
:10AAE000EE2403FE50010F8E088F09750A007808C6
:10AAF000122B927C087D00E50C2407FAE4350DFB4F
:10AB00001234817403122BA9EE2408FE50010F8E1B
:10AB1000088F097808122B927C037D00E50C240F26
:10AB2000FAE4350DFB1234817403122BA98E828F47
:10AB300083A3A3A3E0C0E012C204D0E0F002AA8283
:10AB400074F61225B0EAFEEBFF8E828F83A3858216
:10AB500008858309E0F9123FF7850882850983E0BB
:10AB600064EB601E8E828F83A3E064E160148E82AA
:10AB70008F83A3E064F1600A8E828F83A3E0641A5E
:10AB800070078E828F83A3E4F09019C9122E3612BB
:10AB900044E97508017808122B9A8E828F83A3E00E
:10ABA000F5087808122B9A790090177712B1E39084
:10ABB000176D12D56E12464B7402122BA912457FE7
:10ABC00002C8F8C082C083E99017D77003E48002FE
:10ABD00074018004EAF0A3EBF002C3BBE0F902C306
:10ABE000BBC082C0837CD77D448A828B8312D56EA2
:10ABF000123D8702C3BB74F61225B09017D7E070E0
:10AC00001B7C0079017A007B001245AFEA4B600C97
:10AC10008A828B8312CAC860031244DD02C8F8C05E
:10AC200082C08379041245A9E9F890535DE493C387
:10AC300098401079FF1245A9E9F890535CE493C35A
:10AC400098500479018002790002C3BB74F2122586
:10AC5000B08A0A8B0B8909C2008A828B83A3A3A3C3
:10AC6000A3A3A3A3A3E0F91245B58A0C8B0DAE0CE8
:10AC7000AF0D750801EE4F600302AD3D850A828578
:10AC80000B83A3A3A3A3A3A312B1E3850A82850B1D
:10AC900083A3A3A3A3A3A3A312AE7412D56E1245DC
:10ACA0009D8A0C8B0DAE0CAF0DEE4F700302AE52B1
:10ACB0008E828F83A3A3A3A3E4F0A3F0E50A240C60
:10ACC000FAE4350BFB8A828B83E0C0E012D509D011
:10ACD000E0F0E50A12E954350B12B9EAEE240D1240
:10ACE000D0D51246DBEE240F12DE42E50A12B9D1AE
:10ACF000350B12B9EAEE241112D0D5E50A2413124D
:10AD0000E56AC0E012B8A4D0E0F0D200EE2406124A
:10AD1000BE9212AE6B12F6075404600302ADAB9004
:10AD200019DBE0F50A750B007407780A122D308ED6
:10AD3000828F83A3A3A3A3A3A312AE62F08E828FFC
:10AD400083A3A3A3A3A3A3E0F50AA3E0F50B7407D1
:10AD5000780A122DF0E50A5407FCE509605C8E8242
:10AD60008F83A3A3A3A3A3A3A3A3A3740212A2905C
:10AD700012B15F600B90176512BF89A3A312D0DBDD
:10AD8000EC700302AE1EEE240612B8B512AE6BF0E4
:10AD9000EC24FFF50AE434FFF50B7407780A122D52
:10ADA000308A828B8312AE62F080738E828F83A38F
:10ADB000A3A3A3A3A3E044808082EC7005750800E0
:10ADC000805C8E828F83A3A3A3A3A3A3E0542060FF
:10ADD0000C12349FEA547F7900245F80198E828F91
:10ADE00083A3A3A3A3A3A3E05410601A12349FEA81
:10ADF000540F7900240A5001098E828F83A3A3A3E4
:10AE0000A3F0A3E9800D8E828F83A3A3A3A3740173
:10AE1000F0A3E412AE7E740412B0E21234E7A20092
:10AE2000503312B8C2A3A3A3A3A3A3A3A3A3E0F97F
:10AE3000EEFAEFFB1245A3E9601B12AE5A12CAC626
:10AE4000600912B2D412D56E12354DEEFAEFFB1234
:10AE5000354D750800A90802AA82EE240FF582E498
:10AE60003F22E0450AF0A3E0450B22E0547FF0A327
:10AE7000E054FC22A3E0F9850A82850B832212AEFE
:10AE8000822212B56BA3A3A32274F41225B074F727
:10AE9000122C277E001245B5EA4B700302AF488A98
:10AEA000828B83A3A3A3A3A3A3A3A3A3E0640660AD
:10AEB0000302AF488A828B83A3A3A3A3A3A3A3E027
:10AEC000FF8A828B8312AF58E0C0E07408122E65AF
:10AED000D0E012B3C212AF4D12D0DB1245D3EF5403
:10AEE00008606385188285198312B1E37A007B00BC
:10AEF0001245978B0BEA450B704C12F70C123D9FD5
:10AF00007C007D007A007B0080288E828F8312B5C2
:10AF100057F47003A3E0F4602D90177712B8CA12AB
:10AF2000D56E123D99E9641A601C7C007D00EEFA32
:10AF3000EFFB1245978A0A8B0BAE0AAF0BEE4F70F0
:10AF4000C97900123DA57E01EEF902B4D9F8A3E05B
:10AF5000F98518828519832212AF5C22E0F8A3E0FC
:10AF6000C82408F582E438F58322C082C0838A822F
:10AF70008B83E582458370099017DC80068A828B7B
:10AF800083A3A312B19360258A828B83A3A3A3A377
:10AF9000A3A3A3E0540860E5EC4D60158A828B837F
:10AFA00012B5576C7003A3E06D70D280047A007BF9
:10AFB0000002C3BB74F21225B08A088B09890AEC1F
:10AFC000FEEDFF7A147B00123547EA4B603D8A8222
:10AFD0008B83A3A3A3A3A3A3A3A3A3E412B3B1A3AB
:10AFE000E50A12B01DA3A3EEF0A3EF12B01DE4F02A
:10AFF000A312B3BC12B02F8A828B8312F714EA24F7
:10B000000F12B00EA312B017F0A3F002AA82F582BD
:10B01000E43BF583E4F02212CD7CA3A32212B021FD
:10B020002212B02522F08A828B83A3A3A3A322A39A
:10B03000F012B03812B01122EA240BF582E4227427
:10B04000F51225B0EAFEEBFF890A8C088D09EE4F58
:10B05000700302B0DD7401650A701279011245A90E
:10B06000E9F890535EE493C3985022801674046507
:10B070000A701479041245A9E9F890535DE493C36A
:10B0800098500A791180587402650A70508E828F28
:10B0900083A3A3A3A3A3A3A3A3A3E50A12DBED1297
:10B0A000F7108E828F83A3A3E4F0A3F09017DC1235
:10B0B000CAC86018800312B9EC88828983A3A312DE
:10B0C000B19388828983A3A370EC80039017DCEE90
:10B0D000F0A3EF12B0E21234E77900800279C102E6
:10B0E000B57AF07A207B009017C4E0F922C082C0C4
:10B0F00083E9F879009017DC801D8A828B83A3A3F3
:10B10000A3A3A3A3A3A3A3E068600574FF687001D1
:10B11000098A828B83A3A312B19370DE02C3BB742E
:10B12000F71225B0EA4B70059017DC80068A828BF7
:10B1300083A3A312B19360208A828B83A3A3A3A3CA
:10B14000A3A3A3A3A3E06970E4EC60108A828B83BD
:10B15000E012B15F70D780047A007B0002B2FB126C
:10B16000F4D3E0540422C082C0839017DC80068AA6
:10B17000828B83A3A312B19360128A828B83A3A3D1
:10B18000A3A3A3A3A3A3E06970E580047A007B00D6
:10B1900002C3BB12D1E0EA4B2274F71225B0EAFCDD
:10B1A000EBFD9017DC80068A828B83A3A312B193F8
:10B1B00060218A828B8312B5576C7003A3E06D7097
:10B1C000E68A828B8312B2EE12D8DBA2E0E43370FF
:10B1D000D680047A007B0002B2FBEE2413F582E4F1
:10B1E0003FF58312B1E722E0FCA3E0FD2274F212E6
:10B1F00025B08A0A8B0B8C0C8D0D75080075090023
:10B20000EA450B602A9017DC80068E828F83A3A309
:10B2100012B236601AAC0CAD0DEEFAEFFB850A8265
:10B22000850B83122796E9640170DF8E088F09AAC7
:10B2300008AB0902AA82E0FEA3E0FFEE4F227900EC
:10B24000022B3E74F71225B09017DC12B9EC7C008B
:10B250007D00800DE8FCE9FD88828983A3A312B9F3
:10B26000ECE8496030EA687002EB6970E79017DC3F
:10B2700012D56EE86A7002E96B88828983A3A37095
:10B280000812B9EC9017DC800912B9EC8C828D831E
:10B29000A3A312D0DB806474F71225B0EAFEEBFFA3
:10B2A000EE4F602E1245CD12B2E212D56E12354D20
:10B2B0008E828F8312D56E12354D12AE5A12CAC6C7
:10B2C000600912B2D412D56E12354DEEFAEFFB12B0
:10B2D000354D8027EE12B2D922240FF582E43FF5D6
:10B2E00083228E828F8312B2ECF58322E0F8A3E0F2
:10B2F000C8241FF582E43822122BA97F01022835C9
:10B3000074F61225B08A828B8312DBC712E66E9028
:10B3100017DC12B9EC7D007C00803488828983A31D
:10B32000A3A3A3A3A3A3A3A3E0640570190C88821D
:10B330008983E0FEA3E0F5838E82E065087004A3B4
:10B34000E0650970010D88828983A3A312B9ECE836
:10B350004970C890535AE493F8EDC398500890533D
:10B360005912EB02400F8A828B83A3A3A3A374011B
:10B37000F0A3E48010901765E0F812A616A3A3A32B
:10B38000A3E8F0A3E912B3BC740512B3B1E044081A
:10B3900012B3C2F47003A3E0F4600E90177712D9D1
:10B3A00005123D99E9641A70057901123DA502C89C
:10B3B000F812B3B52212B025A3A3A32212B3B5A3EA
:10B3C000A32212CD7C12B3C92212C254E02274F619
:10B3D0001225B09017DC12DE3980308E828F83A365
:10B3E000A312E66E12B2E212D56E12354D8E828F26
:10B3F0008312D56E12354D12B2D412D56E12354D60
:10B40000EEFAEFFB12354DAE08AF09EE4F70CC905F
:10B4100017DCE4F0A3F002C8F8C082C083EAFCEBBA
:10B42000FDEC4D6017EC24FBF582ED34FF12CAC62B
:10B43000700712B473E0F460071234AB7905803002
:10B440009017C4E0C0E012B473D0E0F090534DE424
:10B4500093F97ADE7B171234E1E9640170107A0007
:10B460007B209017C4E0F91234E779008002790458
:10B4700002C3BBEC24FFF582ED34FFF5832274F4A4
:10B480001225B0A2AFE433F508C2AF9017DE12B2B6
:10B4900036603AEE24FBF582EF34FF12CAC67A001A
:10B4A0007B209017C46007E0F91234E78005E0F9CB
:10B4B0001234EDE4F50AF50B780A122B96EEFCEF48
:10B4C000FD7ADE7B171234DB7402122BA9E508A289
:10B4D000E092AFEEFAEFFB80057409122BA97F040E
:10B4E00002283574F51225B08A088B09750A009078
:10B4F00017DC80548E828F8312B55765087004A3C1
:10B50000E06509703D8E828F83A3A3A3A3E4F0A31B
:10B5100012B562540460118E828F83A3A3A3A3A3E8
:10B52000A3A3A3E0F912411D8E828F83A3A3A3A33B
:10B53000A3A3A3A3A37406F07AF01287671244E3CF
:10B54000050A8E828F83A3A312B23670A7A90A8040
:10B5500029F582E43FF583E0F812B55D2212C25668
:10B56000E02212B567E02212B56B22F08E828F8343
:10B57000A3A3A3A3A3A322122BA97F03022835749C
:10B58000F01225B074D4122C27EAFEEBFF750A00E6
:10B59000750B007508FE7509FF124585E960030209
:10B5A000B88DEE241512A605604B9019F8E0C4334F
:10B5B00054E0F8E0333354FC48C0E012C510D0E04A
:10B5C00012E73DFAA3E0FB79FF12421F8B0DEA451B
:10B5D0000D6015750A017508FF12A6024404F0EE0D
:10B5E000241512A605D2E0F09016CEE060046401A6
:10B5F0007003750B408E828F8312D56C1246CFE993
:10B600006006EE241212CD8EEE241312A605700DE4
:10B6100090534BE493C0E012B8A4D0E0F08E828F38
:10B6200083E0A2E7500454038019EE241412A60507
:10B630007012901756E0C0E012B89AD0E0F0901760
:10B6400056E004F012F48770169019DFE0600D9058
:10B650001761E0700A8E828F83E0700312CD8B90A9
:10B6600016CEE0600464017049901764E0A2E150D6
:10B6700041E50AA2E040208E828F8312D56C1246EB
:10B68000CFE9602E8E828F83E0600CEE240B128B4C
:10B690006D1246ABE9601B12A6025440700302B85B
:10B6A0003FEE241312F48A600302B83F12A602543C
:10B6B000FBF08E828F83E064017010EE240B12B5D4
:10B6C000516402700612A6024440F012A6025440D1
:10B6D000600302B79FE50AA2E0500302B79F9016ED
:10B6E000CEE060076401600302B79F901764E0A298
:10B6F000E1400302B79FE50BF50A780A122B9AEE98
:10B700002406FCE43FFD8E828F8312D56CEE24125A
:10B71000129C071241477401122BA9E9600CEE2418
:10B720001212CD8E12A6024420F08E828F83A3A324
:10B73000A3A3A3A3E06040EE2402F50EE43FF50FBF
:10B74000850E8212B1E1EE2407FAE43FFB12460FA8
:10B750008A088B09850E82850F83E065087004A333
:10B76000E06509700C8E828F83A3A3A3A3A3A3E437
:10B77000F012A6024440F08E828F83E06401600BD9
:10B78000A90B12B8C612D56C1240E7A90B12B8C2A9
:10B7900012D56C124075E9600612A6024420F0AC86
:10B7A00018AD19EEFAEFFB1246098A0A8B0B74FEEC
:10B7B0006508700474FF650970098E828F83A3A3E6
:10B7C00012E66EEA450B700302B8918E828F83E019
:10B7D000C0E07401122E65D0E0F07404122E6512E0
:10B7E000E2ACEE241E12B9E67402122E6512D0DB12
:10B7F0007401122BF7880C890D780C122B96EE240D
:10B800002012B8AD122B9A12B2D41229C1EE240E16
:10B8100012B8AD122B9A90176A1229C17408122E11
:10B8200065E0F9AC08AD091246037408122BA9E9CA
:10B83000FE74106E705DAA0AAB0B12354D8054EE8B
:10B84000241312A605C0E07417122E65D0E012D59D
:10B8500014740F122E6512B8D4240412B8B512B99C
:10B86000EC7411122E65E8F0A3E912BEF5C0E07485
:10B8700018122E65D0E012E96C12A61712B1E3740B
:10B8800006122BFF124117E9600302B6B27911804C
:10B89000047E10EEF9742C02DB16EE2414F582E41B
:10B8A0003FF5832212B8A822EE12F4F42212A60960
:10B8B000F50C780C22F8E43FF9E8FAE9FB8A828B70
:10B8C00083228E828F83A3A3A3A312B1E78E828FDC
:10B8D0008322A3A312D0DFEE22C082C08374D712CA
:10B8E0002C279080007403122C077426122ABA8A1F
:10B8F000828B83A3A3A3A312B9EC740E122E65123C
:10B90000F4E2A3A312B9EC740C122E6512B9F6126C
:10B91000E95412B9DEC0E0741A122E65D0E0F012BC
:10B92000D76D12B9EA7420122E6512B9F612CCAD99
:10B9300012B9DEC0E07408122E65D0E0F0EA241CD3
:10B94000F582E43B12B9EA7412122E6512B9F612AE
:10B95000B9D112B9DEC0E07409122E65D0E0F01240
:10B96000B9CA12B9DEC0E07407122E65D0E0F0EA61
:10B97000241EF582E43B12B9EA7424122E6512B932
:10B98000F62420F582E412B9DEC0E07426122E659A
:10B99000D0E012B9FB74FFF07401122E6574FFF051
:10B9A0007402122E6574FFF09081871229B9740415
:10B9B000122C077407122BFF123FBB7404122BA921
:10B9C00079007429122BA902C3BBEA2412F582E480
:10B9D000222411F582E422743A2AF58274073BF599
:10B9E00083E022EE2413F582E43FF58312B9F022BE
:10B9F000E0F8A3E0F92212D0DFEA2212B9FF22F028
:10BA00008518828519832274F11225B074EA122CEC
:10BA10002785188285198312DE488C0C8D0D890EBE
:10BA20007509107A217B001235477402122E6512B7
:10BA3000BB9F122E6512CAC8700302BB8B7508002B
:10BA40007C217D0079007402122E65E0FA12348D9B
:10BA50007428122E6512DE399016CEE0600464015F
:10BA6000703EAA0CAB0D123EB98A0A8B0BA80AA92C
:10BA70000BE849602388828983A3A3A3A3E0640120
:10BA8000600D88828983A3A3A3A3E064037009EEF9
:10BA90005440700474044FFFEF54046003750801B0
:10BAA00090177712D56E7402122E6512BB9224097C
:10BAB000F582E43812DE467425122E6512B9EC7454
:10BAC00013122E65129F85122E6512F4BE122E657A
:10BAD00012F4B8F0122E6512DBC7E50CF0A3E50DE9
:10BAE000F07402122E6512F4A0E50EF07427122EE7
:10BAF00065E0F50A7402122E6512F490E50A12BB95
:10BB0000977402122E6512BB92241FF582E438123C
:10BB1000DE467408122E6512E2AC740A122E65E538
:10BB20000AF0742B122E6512DBC7C082C083740E1C
:10BB3000122E65AC82AD83D083D0827405122ABAEE
:10BB4000742A122E65E0C0E07415122E65D0E0F064
:10BB5000A9087402122BFF12458BE9640170219031
:10BB600016CEE0600464017012E508A2E0500CA952
:10BB70000A1245B5EA4B60031245D9750900800BDE
:10BB80007402122E6512D56E12354DA90974160273
:10BB9000D91012C2AFC82212C294FAA3E0FB22EA63
:10BBA000F0A3EBF074022274F01225B074FF122C93
:10BBB00027EAFEEBFF8C088D098E828F83A3740821
:10BBC000F0EE241612A60560088E828F83A37410EF
:10BBD000F0EE241712A60560098E828F83A3E0245D
:10BBE00008F0EE241512A60560088E828F83A3E06C
:10BBF00004F08E828F83A3A3A3A3A3A3E060198E76
:10BC0000828F83A3A3A3A3A3A3A3E0C3332402F837
:10BC10008E828F83A3E028F0EE241112A6058518EA
:10BC2000828519836004740E8001E4F09016CEE0E2
:10BC30006402701E9019F0E0640170168E828F838A
:10BC4000E06401600D9019ECE0600712BE88740199
:10BC5000800412BE88E412C290F98E828F83A3E022
:10BC600012BE9B28298C828D83F0EE241112A6052A
:10BC70006013901762E0F912442FE9F88508828575
:10BC80000983E029F0850882850983E0C394754023
:10BC900009750C00750D0002BE77E0FA7B001235C5
:10BCA000478A0C8B0DEA450D700302BE778E828F9A
:10BCB00083E0FA90176712BEC074027808122D3024
:10BCC000EA4508FAAB09EE241212BEBA74067808E7
:10BCD000122D30A808EA48FCEBFDEE241512A6054B
:10BCE0006004780180027800EE2416FAE43FFBE459
:10BCF000C8F9ED49FDEE241112A605F5088809746E
:10BD0000097808122D30ED4509FD8A828B8312BE19
:10BD1000C0740B7808122D30ED4509FDEE24171282
:10BD2000BEBA740C7808122D30ED4509FD8E828F55
:10BD300083A3A3A3A3A3A312BEC0740A7808122DE1
:10BD400030ED4509FDEE242312BEBA740D780812B9
:10BD50002D30ECF8ED4509F9E8850C82850D83F06E
:10BD6000E912BEC7850C82850D8312BEEAF0EE246F
:10BD70000412BE9212BEAC12BEEAA3A312F4EA12DF
:10BD8000BEACA3A3A3A312BEF5850C82850D83A32D
:10BD9000A3A3A3A3A3A3F0750B088A828B83E060FF
:10BDA00015EE241812B1DDE50C2408FAE4350DFB7C
:10BDB00012365B750B10EE241712A6056019EE24DF
:10BDC0001A12B1DDA80BE50C28FAE4350DFB12368A
:10BDD0005B7408250BF50B8E828F83A3A3A3A3A30B
:10BDE000A3E06054EE2407F50EE43FF50F850E82C4
:10BDF000F583E0C0E012BEA3D0E012BEDAE0C0E0FE
:10BE00000812BEA5D0E012BEDA12DBCF122B92854B
:10BE10000E82850F83E012C1FDA80BE50C28FAE421
:10BE2000350DFB1234817403122BA9850E82850F08
:10BE300083E0C333250BF50BEE241512A60560082D
:10BE4000C0E012BEA3D0E0F012C51A12DBD0122B54
:10BE50009212BE9CFC7D007403122E6512BE80E01F
:10BE6000F8E50C28F8E4350DF9E82AFAE439FB1274
:10BE700034817403122BA9AA0CAB0D740102DB16DA
:10BE8000E0FA8E828F83A322EE2423F582E43FF52D
:10BE90008322F8E43FF98882898322F8EE240D1288
:10BEA000A60922A80BE50C2812C2282212BEB02235
:10BEB000E0850C82850D83A3A322F582E43FF58300
:10BEC000E0F50875090022A312BED188828983E0BB
:10BED00022F0EE2402F8E43FF922F0050B8E828F67
:10BEE00083A3A3A3A3A3A3A3A322A3A312E9F8A3B9
:10BEF00012BEB0A322F0EE241412A6092274F4128A
:10BF000025B074FD122C27EAFEEBFF8C088D097416
:10BF100001122BF7880A890B780A122B96740212E9
:10BF20002C07AA08AB091240C37402122BA9E970AE
:10BF30004F85188285198312CCC2F07401122E65C8
:10BF400012BF89E8F0A3E912C2906027148E828F95
:10BF500083A312C29012DB0D7401122E65E028F843
:10BF6000A3E039F9E824FEF582E934FFF58312D520
:10BF70006E80118E828F83A3E4F0AA08AB0980043F
:10BF80007AFE7BFF740302B4DB12B9F08E828F83DA
:10BF9000A3A32274F01225B074FD122C27851882F9
:10BFA00085198312BB9F122E65E9F08C0C8D0D75DF
:10BFB0000B017C267D007900AA0CAB0D12348D7428
:10BFC00002122E65E0C39408500302C18BE0850C79
:10BFD00082850D83F0AC0CAD0D8518828519831216
:10BFE000B557FA851882851983A312C7FF12C54A6F
:10BFF00012461BE96003750B0085188285198312B0
:10C00000DBC712C243E0F9EA850C82850D83A3A346
:10C01000A3A3A3A3A3A3A312C2A2F5838882A3A36D
:10C0200012C243A3A3E0F9EAF812D8C3E812C2A2ED
:10C0300012C20CC0E012D8BBD0E012C290F8A3E04C
:10C04000C82407F582E438F583E0C0E012C204D0CA
:10C05000E012C283740812C299A3E060208518829E
:10C06000851983E02408F8A3E03400F9E50C2413D3
:10C0700012C228E8F0A3E912DA3B2408F0850C820A
:10C08000850D83A3A3A3A3A3A3A3A3E0602A850C88
:10C0900082850D83A385820E85830F12C23DF8A38E
:10C0A000E03400F9E50C12CCAD350D12D0D9850E77
:10C0B00082850F83E02408F012C210E4F012C2203F
:10C0C000E4F0A312C283A3A3A3A3E0601112C25D94
:10C0D000850C82850D83A3A3A3A3A312C2B4E50C90
:10C0E00012C230E0700302C17712C25DFA12C210B0
:10C0F000EA12C2B4F8851882851983E028FBA3E010
:10C1000034008B82F583E0F8E50C241A12C228E88B
:10C1100012C2B4E8C39AE50C505812C237F89053D3
:10C120004EE493C39850047E0C8006E50C12C2378F
:10C13000FE850C82850D8312C23CF508A3E0340015
:10C14000F509750A007808122B92EE12C1FD7A0AE1
:10C150007B0A1234817403122BA912C220740AF0D4
:10C16000A3740AF0EEC333F8850E82850F83E028AE
:10C17000800412C230E4F0850C82850D83A3E0F8C0
:10C18000850C82850D83E0C39850047900806B1282
:10C19000C23CFAA3E03400FBE50C12E938350D127D
:10C1A000DE46850C82850D83E0C398C0E012D8B3CB
:10C1B000D0E012C299E06040E50C2417FEE4350D92
:10C1C000FF8E828F83E024F2F0E50C241DF8E43525
:10C1D0000DF988828983E0240EFAA3E03400FB88FD
:10C1E00082898312DE48901762E0F912442FE9F841
:10C1F0008E828F83E0C398F0A90B02DB1425E0FC4C
:10C20000E433FD22E50C241212C2282212D1BD22F1
:10C21000E50C12C216222419F582E4350DF58322AD
:10C22000E50C241B12C22822F582E4350DF5832289
:10C2300012DA3512C22B2212C216E022A312C27ADF
:10C24000E02822A3A3E0FA85188285198312C2563A
:10C25000A3A3A322E0F8A3E0F583888222850C82C1
:10C26000850D83A385820E85830F12C27AE028FA9A
:10C27000A3E034008A82F583E022E0F88518828505
:10C2800019832212C28722F0850C82850D83A32296
:10C2900012C2942212B9FFE02212C287A3A3A3A361
:10C2A000A32212D0E085188285198312C2AF22E042
:10C2B000F8A3E022F0850E82850F83E004F022745B
:10C2C000F41225B08A088B09EA12C35DA3A3F0EA31
:10C2D0001313543F12C355A3A3F0EAC4131312C39C
:10C2E0005D12C3707409780A122DF012C364A3A3FF
:10C2F000A3A3A3A3F0EB12C36612C36F740A780A58
:10C30000122DF0E50A5401C0E0EC12DA353DF58358
:10C31000D0E012C374740B780A122DF012C36412A9
:10C32000C36D740C780A122DF012C364A312C36D8E
:10C33000740D780A122DF0E50A5401C0E0EC2424B3
:10C34000F582E43DF583D0E0F0740E7808122DF00C
:10C35000A90802B4DE540F8C828D83A32254038C6F
:10C36000828D8322E50A54018C828D8322A3A3A3AC
:10C37000A3A3A3A3F08A0A8B0B22C082C0837900F7
:10C380008A828B83A3A3A3A3A3A3E0901761600E6B
:10C39000E070238A828B83A3A3E0701A8016E0608A
:10C3A000158A828B8312D56590176AE06A7003A3A1
:10C3B000E06B60027901800312D56ED083D08202D7
:10C3C0002B3E74F21225B08A0A8B0B890CECFEED21
:10C3D000FF8A828B8312C54812461B850A82850B11
:10C3E00083A3A312C53CE0F9EA8E828F83A3A3A3A3
:10C3F000A3A3A3A3A3A312C55B12C53CA3A3E0F907
:10C40000EAF812C51AE812C55BA3A3E0C0E0EE1279
:10C41000B9D13FF583D0E0F0850A82850B83A3A3D1
:10C42000A3A3A3A3A3E0C0E0EE12B9CB3FF583D052
:10C43000E012C556740812DBE5A3A3A3E06018E57B
:10C440000A2408F8E4350BF9EE241312D0D58E82B5
:10C450008F83A3E02408F08E828F83A3A3A3A3A3DA
:10C46000A3A3A3E060158E828F83A312C52B12C5F0
:10C4700010E8F0A3E912CF8F2408F08E828F83A3F7
:10C48000A3A3A3A3E0601F8E828F83A38582088568
:10C490008309E0F8E50A28F582E4350B12C520A3EC
:10C4A000A312CF8F04F0EEFAEFFB124621E9F50D4F
:10C4B00070598E828F83A3A3A312CCBFA37014E004
:10C4C000F8E50A28FAE4350BFBEE241D12DE42E5FE
:10C4D0000C802812C52BE8240EF8500109EE241D0B
:10C4E00012D0D5901762E0F912442FE9F88508823E
:10C4F000850983E0F9E50CC39924F2C398C0E0EE06
:10C500002417F582E43FF583D0E0F0A90D02AA825A
:10C51000EE2415F582E43FF5832212CDA0F58322A7
:10C52000F583E08E828F83A3A3A32285820885836F
:10C5300009E0F8E50A28F8E4350BF922E0FA850A63
:10C5400082850B83A3A3A322E0FAA3E0F8E4C8F951
:10C55000EA28E439FB2212DBEDA32212D0E0850A9F
:10C5600082850B83A3A3A3A322C082C0837AEC7B22
:10C570001779E2123D5D7AEC7B1702C3BBC082C023
:10C580008390176A02C3B8C082C08390176D02C33C
:10C59000B8C082C083794A123D5D02C3BB74F612F3
:10C5A00025B09017F4E0FE04F0EEF91245B58B09C2
:10C5B000EA450970EDEE60EAF902C8F874F1122557
:10C5C000B074FE122C27851882851983ECF0A3ED38
:10C5D000F0EAFEEBFF890E750A00C200851882851D
:10C5E0001983E0FC1247D18A088B097411122E6559
:10C5F000E0F50B7412122E65E0F50CEA450970188F
:10C60000E50C600302C6F3A90E8518828519831212
:10C61000C8031247F502C7EAE50C700302C6BC90D6
:10C6200016CEE060046401700E9017F912CAC8605B
:10C630000612C7FF122796E50B700D850882850943
:10C6400083E4F0D20002C7169016CEE060076401C2
:10C65000600302C716901764E0A2E1400302C71608
:10C660009017FB12CAC8600CA90BAA08AB0912C725
:10C67000FF122796850882850983E0FA12E95A504D
:10C680000109C3EA98E499A2D265D033500985081C
:10C6900082850983E004F0850882850983E0F890AB
:10C6A0005347E49368706F750A01EEFAEFFB12418D
:10C6B00053850882850983A3E4F0805AE50B701F37
:10C6C000EA2402F582E412C7F7A80E28F8E4340041
:10C6D00013E813F070098A828B83A3A37401F08A94
:10C6E000828B83A3A3E0F8901978E0C3985051D2CD
:10C6F00000804D7401650C701DE50B60199016CE1D
:10C70000E060046401700F901764E0A2E15007EE4E
:10C71000FAEFFB1241539016CEE0640270227401CE
:10C72000650C701CE50B90180B6013E004F0901979
:10C73000DCE0F890180BE0C3984005750A01E4F0BE
:10C74000E50AA2E07200400302C7EA9016CEE0605C
:10C75000046401703F901764E0A2E15037EEFAEFF5
:10C76000FB123EB98A088B09A808A909E849602488
:10C77000A200500D88828983A3A3A3A3A3E0C2E0F3
:10C78000F0E50AA2E0506388828983A3A3A3A3A350
:10C79000E0D2E0F0E50AA2E050509016CEE060044E
:10C7A0006401701D901764E0A2E15015EEFAEFFBF2
:10C7B000123EA7E9600BEEFAEFFB7900123FF18021
:10C7C0002990176DE06E7003A3E06F701DEEFAEF15
:10C7D000FB7901123FF19016CEE06402700C7A01F1
:10C7E0007B009017C4E0F9123619740202D9107454
:10C7F000D72508F582740A3509F583E02279C41239
:10C80000C25722129B4DFAEFFB2274F41225B08A14
:10C81000088B098C0A8D0B90814B7808122C7E7046
:10C820000E7A017B009017C4E0F91234E780319052
:10C8300019C97808122DFF128A0160187808122B86
:10C840008E7A017B009017C4E0F912360D74041241
:10C850002BA9800C7A017B009017C4E0F9123619DD
:10C8600002B4DEC082C0839019CD02ABD4C082C0B6
:10C87000839019CF02ABD474F61225B07E007508F0
:10C88000567509177808122B967C6E7D007A217BED
:10C89000001235BF7402122BA9E9640A70027E01EE
:10C8A000123E83E9640A7004EED2E1FE9016CEE0F7
:10C8B00060046401700C123EF5E9640A7004EED263
:10C8C000E2FE9004ED12CAC8600F12C7FF1227964D
:10C8D000E9640A7004EED2E3FE124243E9640A708E
:10C8E00004EED2E4FE123CD3E9640A7004EED2E511
:10C8F000FEEEF98003122BA97F0202283574F6128E
:10C9000025B01234577508567509177808122B96FA
:10C9100075086E7509007808122B967C007D007AE8
:10C92000217B001235CB7404122BA9123E8990167C
:10C93000CEE0600464017003123EFB9004EF12CA63
:10C94000C8600612C7FF122796124249123CE580C2
:10C95000A774F61225B074FF122C277E00750856B6
:10C960007509177808122B967C6E7D007A217B0062
:10C970001235BF7402122BA9E9600302CA36780887
:10C98000122B9675086E8E097808122B967C007D06
:10C99000007A217B001235D17404122BA9E96003BF
:10C9A00002CA3690176AE064FE7003A3E0F47003D5
:10C9B00002CA367E01901779E064086005E06404DD
:10C9C000706F851882851983EE12CFA27942123DCD
:10C9D000637A817B177943123D637A7E7B177947AF
:10C9E000123D637A6F7B17794A123D637A6D7B172C
:10C9F000794B123D637A777B177950123D637A6ADF
:10CA00007B177953123D637A7F7B177954123D630C
:10CA10007A6C7B1779E1123D63901764E0A2E350D2
:10CA200004D2F08002C2F012CF987952123D638096
:10CA3000051234577E00123E779016CEE0600464F3
:10CA4000017003123F0D9004F112CAC8600612C7AC
:10CA5000FF122796124255EEF9740102C8F574F6DA
:10CA60001225B0E9FEA2E050267508567509177820
:10CA700008122B9675086E7509007808122B967CA3
:10CA8000007D007A217B001235CB7404122BA9EEB5
:10CA9000A2E35003123E7D9016CEE0600464017064
:10CAA00008EEA2E15003123F13EEA2E2500E9004F2
:10CAB000F312CAC8600612C7FF12279602C8F88E82
:10CAC000828F8312B2ECF58312B9F0E8492274F632
:10CAD0001225B074EC122C277401122C07901A0E38
:10CAE000E0F97AC77B171245677405122E65E4F0EA
:10CAF0007407122E65E4F07A04F9123E958A0890C4
:10CB0000535FE493FAC3E5089AEB94005050123E49
:10CB100071E9704A90533A12CBBA60157A047903DE
:10CB2000123E9590535FE493FC90533A12CBC4505D
:10CB3000087405122E657401F090534212CBBA604E
:10CB4000157A027901123E9590535FE493FC90535D
:10CB50004212CBC450087407122E657401F0901A6B
:10CB60000EE0F97CC77D177401122BFF1245617A24
:10CB7000C77B177945123D637407122E65E070116B
:10CB80007405122E65E07009851882851983E4808A
:10CB9000088518828519837401F0901A08E0F890CE
:10CBA00016E6E058F8851882851983E05812CFA25E
:10CBB0007941123D63741402C8F5E493F87401934B
:10CBC000F9E84922E493F8740193F9ECC398F8E486
:10CBD00099F9C3EA98EB992274F71225B074ED1213
:10CBE0002C27E9FE9017C3F0AC18AD19901A0EE08F
:10CBF000F97AC77B171245677412122E65EE12CCB4
:10CC000016AA18AB191245617AC77B177945123DF0
:10CC100063741302B2F8F0901A0EE0F97CC77D1726
:10CC20002274F41225B08A088B09901A10E064FE71
:10CC30007003A3E0F470737A167B001234A58A0A9D
:10CC40008B0BAE0AAF0BEE4F60608E828F83740148
:10CC500012CF7E12CCC1A36004740280027401F072
:10CC6000EE240AF8E43FF9E508241D12CCB712F1CE
:10CC70004C12AA5FF0A2E34009128E9612D56E12F2
:10CC800045F1E50812CCAD350912E96512365BEEC7
:10CC9000241312CD8EEEFAEFFB9017C4E0F9123494
:10CCA000B1128E9612D50D12D0DB02B4DE2415F52A
:10CCB00082E422E5082413F582E43509F58322A3F2
:10CCC000A3A3E08E828F832274F21225B074FD122A
:10CCD0002C278A088B09890A8C0B7401122E657423
:10CCE0000412CFA21246B18A0C8B0DAE0CAF0DEE22
:10CCF0004F607B12CD977407F0E5082413FAE435F2
:10CD000009FB8A828B8312DD0012CD7CA312DD0029
:10CD100012CE4D88828983A3A3A312DD07E50824E0
:10CD20000BF8E43509F912DCF1E8F0A3E912DED8DA
:10CD300012462D12CF6612DECF7403650A600674A8
:10CD400001650A700712CD827404800412CD82E45A
:10CD5000F0901A1012BF8912D0DB7401650B7003BA
:10CD600012CD8BEEFAEFFB123F2BE9F9800279101E
:10CD7000901A1074FEF0A304F002AA7DF08A828B50
:10CD80008322EE12B2D97440F0A322EE2411F58270
:10CD9000E43FF583E4F02212CDA0F58312D8E3221C
:10CDA000EE240BF582E43F2274F41225B08A088B3E
:10CDB000097A007B049017C4E0F912361912CE5C90
:10CDC0009017797409F012462D8A0A8B0BAC0AADC4
:10CDD0000B12CCB312D56E123655E96401706B7A22
:10CDE0000F7B001234A58A0A8B0BAE0AAF0BEE4FF5
:10CDF00060588E828F837402F0E50812E938350995
:10CE000012D8DBFC88828983A3A3E0FBEC8E828F9F
:10CE100083A3A312DE498882898312CCBF12CE4D30
:10CE2000FAA3E0FB794A123D63850882850983A352
:10CE3000A3A3A3A3A3E0700690145B7405F0EEFA1D
:10CE4000EFFB9017C4E0F91234B102B4DEA3F0E5B1
:10CE5000082415F582E43509F583E0229016E912DD
:10CE6000B9F09019CF12D0DF9016EB12B9F09019EB
:10CE7000CD12D0DF2274F41225B074FD122C278A53
:10CE8000088B097401122E65740212CFA21246B1EA
:10CE90008A0A8B0BAE0AAF0BEE4F700302CF611202
:10CEA000F4ADE412CF83E06401700888828983A323
:10CEB0007420F0850882850983A3A3A3A3A3E0645B
:10CEC00001700988828983A3E0D2E6F08508828513
:10CED0000983A3A3A3A3A3A3E06401700A888289A2
:10CEE00083A3E0D2E7800512B8A4740112CF7EE0DC
:10CEF0006401701E850882850983A3A312CAC860D5
:10CF00000312DCF9850882850983A3A312B9EC1208
:10CF1000D0D2850882850983A3A3A3A3A3A3A3E0FA
:10CF200064017009EE240F12DCFCA3E4F085088292
:10CF300085098312D56E1246CFE9600612A6024417
:10CF400004F0EE241712DCFC12462D12CF6612CF2D
:10CF50008F12CF7512B8D2FAEFFB123F2BE9F9808E
:10CF600002791002BF84EE241AF582E43FF583EAC9
:10CF7000F0A3EB22E0F8A3E0F98E828F832212CF98
:10CF800083A322F0850882850983A3A3A3A322F0AB
:10CF9000850882850983E022A2F0E4338518828522
:10CFA0001983F0AA18AB192274F51225B074F31284
:10CFB0002C27890AEAFEEBFF7508007509007C0D35
:10CFC0007D007900AA18AB1912348DEE12E9383FB2
:10CFD000F58312D193741F58600C7AD37B001239F9
:10CFE0007F790002D0C3E8A2E55008740C122E65C8
:10CFF0007401F0E8A2E75008740B122E657401F07A
:10D00000E8A2E6740A5008122E657401F080081236
:10D010002E65E0640170138E828F83A3A3A3A3A364
:10D02000A3A3E06030EE241380128E828F83A3A32B
:10D03000A3A3A3A3A3A3E0601CEE241512E668E556
:10D040000845096010AC08AD097402122E65AA8269
:10D05000AB8312365B12C51A12D0C812D0DB740A29
:10D06000122E65E0640170529016CEE060536401A8
:10D0700070089019EBE070198047E064027012EEBE
:10D08000240B12B9E690176DE0687003A3E0697095
:10D090003012D5611246CFE97027E5084509601ABC
:10D0A00012462D8A088B09AC08AD097402122E6550
:10D0B000AA82AB83123655E96007AA18AB19123F52
:10D0C000EBA90A740D02B57712B9F085188285199B
:10D0D0008322EE2418F582E43FF58312D0DF22E8A4
:10D0E000F0A3E9F02274F71225B074CD122C27EAD0
:10D0F000FEEBFF8E828F8312D1B1A2E0400302D1FA
:10D100008E12D199E054FE12ED95740D122C071277
:10D11000D1C8124627E97076742A122E6512D1A75B
:10D12000706C7C0D7D007900AA18AB1912348D74D7
:10D1300016122E6512D0C812D0DB742A122E651278
:10D14000D193A2E55008740B122E657401F0E8A289
:10D15000E75008740A122E657401F0E8A2E6500444
:10D16000742080027422122E6512B1E37402122E12
:10D1700065AA82AB8312365B8E828F83A3A3E0C045
:10D18000E0740C122E65D0E012CFA2123FE574338A
:10D1900002B2F8129B0EE0F8228E828F8312D8E33F
:10D1A000A3A3A3A3A3A32212B3C96404228A828BDC
:10D1B00083E0F8A312D1B822E012D1BD22C8240620
:10D1C000F582E438F583E022EA241EF582E43BF59B
:10D1D00083E0F9EA241FF582E43B12D1DE22F583D5
:10D1E000E0FAA3E0FB22E9F87900740468600A74AD
:10D1F0000A68600574036870027901022B3E74F6B8
:10D200001225B08A828B837424F0A3A37401F012D8
:10D210003F318A088B09AE08AF09EE4F600D8E8250
:10D220008F8312DED612462D12DE3FEEFAEFFB029E
:10D23000C8F8C082C08390176702ABDCC082C0838D
:10D24000901A0F02ABDCC082C083E9901A0F02ABC8
:10D25000D8C082C0839017E07401F0E9A2E35003C4
:10D260007403F0E9A2E15004E0D2E2F002C3BB741F
:10D27000F61225B079007C008A088B0978081228FC
:10D280007BF8FF07A4D2A2D2A2D2A2D2A2D29AD273
:10D290009ED2A4D296D27C01800A7C0480067C02B5
:10D2A00080027C089017E0E05C600479028005EC65
:10D2B0006002790102C8F874F41225B0EAFEEBFFAF
:10D2C0008908123EBF8A0A8B0BA80AA90BE849609D
:10D2D0004188828983A3A3A3A3E06036C394055049
:10D2E0003174016508601A88828983A3A3A3A3E02F
:10D2F0006401600D88828983A3A3A3A3E064027004
:10D300000A8882898312D56E1240ABEEFAEFFB12C7
:10D310003ECB02B4DE74F61225B08A828B83E070B5
:10D3200014A3A3A312CAC8600C8A828B8312D56B84
:10D330001242A380047A007B0002C8F8C082C08336
:10D34000901779E0640870031246F302C3BBC082F1
:10D35000C0837800E875F003A4FCA9F0E9FD12D3BE
:10D36000DD6A7003A3E06B7018905356E493C0E03D
:10D3700074E32CF582741739F583D0E0F079C58019
:10D380005908E8C3940340CC7800E875F003A4FC86
:10D39000ADF012D3DD64FE7003A3E0F4601E08E874
:10D3A000C3940340E57800E875F003A4FCADF07485
:10D3B000E32CF58274173DF583E07015E812E9FE61
:10D3C00012DE48905356E49388828983F079008076
:10D3D0000908E8C3940340CF79C702C3BB74E42CA7
:10D3E000F58274173DF583E022C082C0837C00EC97
:10D3F00075F003A4F8A9F074E428F582741712EA12
:10D40000D66A7003A3E06B700912ED7A60047901AB
:10D4100080090CECC3940340D6790002C3BB74F2BC
:10D420001225B074DD122C278A088B09750A00902A
:10D4300016CEE060076401600302D50290176AE02F
:10D4400065087004A3E065097011EA4509700302DC
:10D45000D4F5750A011246F902D502123EB98A0CBA
:10D460008B0DAE0CAF0DEE4F700302D4F58E828F94
:10D4700083A3A3A3A3E06401600D8E828F83A3A383
:10D48000A3A3E06402706E851882851983E412D527
:10D4900014740B122E65E8F0A3E912CFA2123E65B8
:10D4A000E960528E828F8312D50D12D0DB74031285
:10D4B0002E65AC82AD837418122E65AA82AB8312DE
:10D4C000365B790012409F7420122E6512DE48747C
:10D4D00022122E65E4F07C028E828F83A3A3A3A385
:10D4E000E0F9740D122BFF12468D750A0112D50951
:10D4F000129B81800D90177712B1E3AA08AB091235
:10D5000047B9A90A742302AA7F12E9762212B9F058
:10D51000901A102212E741F8A3E0F922C082C083DA
:10D5200074FE122C279016CEE060046401702D79F1
:10D53000011240A5851882851983EAF0A3EB12DB5E
:10D54000DD90176AE8F0A3E912CFA27953123D6388
:10D5500085188285198312D56E1238B9740202B902
:10D56000C48E828F83A3A3A3A3A3A3A3A3A312D137
:10D57000E02274F41225B074F3122C27EAFEEBFFBC
:10D580008C088D09750A12EE4F7005790002D65C81
:10D5900090176AE06E7003A3E06F701D12462D8A2B
:10D5A0000A8B0BAC0AAD0BAA08AB09123655E97011
:10D5B00005750A018003750A00851882851983E4C0
:10D5C000F004122E65EEF0A3EF12CFA2123E59E93D
:10D5D000602A7403122E65AA82AB83123E35E96479
:10D5E000017019750A017403122E65AC82AD83AA0D
:10D5F00008AB09123655E96003750A009016CEE0B3
:10D600006004640170177412650A7011AC08AD09EA
:10D61000EEFAEFFB123EA1E96003750A00AC08AD1B
:10D6200009EEFAEFFB1247D7E9F8740A687005753E
:10D630000A01801D74A0687012AC08AD09EEFAEF03
:10D64000FB1247E9EEFAEFFB1247FB7401650A7023
:10D65000097900EEFAEFFB124705A90A740D02B42E
:10D66000DB74F61225B0EAFEEBFF89089016CEE0D7
:10D6700060046401701E1246F3E508F5097809128A
:10D680002B9A790DEEFCEFFD7AFD7BFF12471174AA
:10D6900001122BA902C8F874F71225B0EAFEEBFFBD
:10D6A0008E828F83A3A3A3A3A3A3A3A3E0601312DB
:10D6B000C510129C191246FFE96401700512C51AC3
:10D6C00080298E828F83A3A3A3A3A3A3A3E06025B5
:10D6D00012B1DA12D5611246FFE9640170178E8229
:10D6E0008F83A3A3A3A3A3A3A3A3A312D56E1246C0
:10D6F000E779018002790002B2FB74F21225B0745E
:10D70000FD122C278A088B09ECFEEDFF890A750BA8
:10D71000017401122E65740412CFA21246B1EA4BB5
:10D7200060467411122E65E0601512DE1FE412E2ED
:10D73000A58A828B83E0D2E7F0EA241412B00E129D
:10D74000D76D12CD9A7403F0A3E50AF0EE888289B2
:10D7500083A3A3F0EF88828983A3A3A312CD7C12B5
:10D76000F712123F2BE9F50BA90B02AA7D12B03874
:10D770003B2274F11225B08A0C8B0D8908750901C2
:10D7800012E937350D12D8DBF50E888289831289AC
:10D790004E12D8CC12D8B3E06404600A7AD37B006E
:10D7A00012397F02D8AFE50E122A46020002C0D716
:10D7B000030B63D8030C49D80D21D80E63D860D869
:10D7C0009016CEE060076401600302D8639017648E
:10D7D000E0A2E1400302D8637900EFFB124135EA91
:10D7E0004B60338A828B83A3A3A3A3A3A3E0541823
:10D7F000602412D8C31229C18A828B83A3A3122961
:10D80000C17900850C82850D8312D8FC12414D74BC
:10D8100004122BA9802E7901EEFAEFFB123FFD8056
:10D82000429016CEE0600464017038901764E0A264
:10D83000E15030EFFB1246E1EEFAEFFB1246E7E96A
:10D8400064C5701F750900801A9016CEE0600464EC
:10D85000017010901764E0A2E150081238DD8003D7
:10D86000750800E50C2409F50AE4350DF50BEEFC0E
:10D87000EFFDA90E850A82850B8312D56E12401525
:10D88000850A82850B8312D56E1246CFE96020127D
:10D89000D8BBE0C39402401712D8C312E1D770037B
:10D8A000A3E069600AE509A2E05004A908800279B2
:10D8B000008060E50C241712C22822E50C24111206
:10D8C000C22822E50C12B03912C22B22A3A3A3E076
:10D8D000F8E4C8F9EA28FEE439FF2212D8E1A3E00F
:10D8E00022F583E0F8A3E0F98882898322E5081213
:10D8F000ED743509F583E0F98A828B83A3A3A3A392
:10D90000A3A3A3A3A312B1E78A828B8312D1E0223F
:10D91000122BA97F0702283574F01225B074F31278
:10D920002C277403122E65ECF0A3EDF08A0E8B0FFA
:10D93000890B7E01EE122E65740AF0741D122E659D
:10D94000E0F50AE9700FE50AC333240AC0E0EE12DD
:10D950002E65D0E0F0AA18AB191246B18A088B09DF
:10D96000EA4509700302DA2E12B038350912DE37A3
:10D970008E828F837409F0E50BC43354E0450AA30B
:10D98000F0EE2402FE50010F7403122E6512C8033C
:10D9900012365BEE2408FE50010FE50B703778005D
:10D9A000741E122E6512D56E8025E812C1FDEA2C78
:10D9B000F50CEB3DF50D850C82F58312CCC212DA25
:10D9C0003B8E828F83A3F0EE2402FE50010F08E805
:10D9D000C3950A40D5E508241712CCB77401F0129C
:10D9E000462DE508241AF582E4350912DE46740551
:10D9F000122C07AA0EAB0F123E41E96019E508246C
:10DA00001612CCB77401F07405122BF7E50812DA80
:10DA100035350912D0D9850882850983A3A3E50E7F
:10DA2000F0A3E50FF0AA08AB09123F2BE9FEEEF9CF
:10DA3000740D02DB162418F582E42212C287E0225C
:10DA400074F01225B074F8122C278A0E8B0F12E98D
:10DA500037350F12DC6DF8741F58F50A880BA3AE2A
:10DA600082AF83EEFCEFFDAA18AB1912365BEE24F1
:10DA700008FE50010FAC18AD197A8B7B1712365582
:10DA8000E9700302DB0974E0550B7076AA0AEA2AF2
:10DA9000FA7B001235478A088B09EA4509606A7AE1
:10DAA00000802B8E828F83E0FCA3E0F8E4C8F9ECC1
:10DAB00028E439FDEA12DB0DE50828F582EB39F59B
:10DAC00083ECF0A3EDF0EE2402FE50010F0AEAC34E
:10DAD000950A40CF7808122B96780A122B9A740375
:10DAE000122C077900E50E12B039350FF58312D5E7
:10DAF0006E1247297403122BA9AA08AB0912354DDF
:10DB000080077AD37B0012397F7408800925E0F8FA
:10DB1000E433F9227403122BA97F0802283574F02C
:10DB20001225B074FE122C2785188285198312DE07
:10DB300048890C8C0E8D0F9014E712CAC8607D7452
:10DB400012122E65E0F50B12DB0DE8240EFAE43913
:10DB5000FB1234A58A088B09AE08AF09EE4F605C52
:10DB60008E828F8374D412DBDD8E828F83A3A3E831
:10DB7000F0A3E912DBE5E50CF0AC0EAD0FEE2405E9
:10DB8000FAE43FFB12365B12E948E50BF07413121E
:10DB90002E6512DBD0122B92AC0BEC2CFCE433FD87
:10DBA000EE240EFAE43FFB1234817403122BA9EE2B
:10DBB000FAEFFB9014E712DBC7122796740202DB20
:10DBC0001685088285098312C2AFF583888222A355
:10DBD000E0F508A3E0F509750A0078082212C2945E
:10DBE000F8A3E0F92212DBEDA3A3A3A322F08E8217
:10DBF0008F832212B9F0850C82850D832274F61270
:10DC000025B074F8122C27890812E9373B12DC6D15
:10DC1000F9741F59F88909A3AE82AF837401687043
:10DC20003EEEFCEFFDAA18AB1912365BEE2408FE9F
:10DC300050010FAC18AD197A8B7B17123655E9607D
:10DC40002574E0550970188E828F83A312BE80124E
:10DC5000C54A8E828F83E0F9124759A90880097A54
:10DC6000D37B0012397F7900740802C8F5F583E090
:10DC70002401FEA3E03400FF8E828F83E02274F043
:10DC80001225B074FD122C278A088B098C0E8D0F7B
:10DC9000890A750B017401122E65740312CFA2124A
:10DCA00046B18A0C8B0DAE0CAF0DEE4F603E12CD1F
:10DCB00097740BF0A3E50AF07413122E6512DD00C1
:10DCC000A312DED812462D12CF6612DD0712DCF148
:10DCD000E50EF0A3E50F12DBED12F712EE2413129E
:10DCE000DCFCEEFAEFFB123F2BE9F50BA90B02DB94
:10DCF00014EE12DA353FF58322EE241612DD0F22E0
:10DD0000E088828983A322F0EE241612DD0F22F52B
:10DD100082E43FF5837401F02274F01225B074FDA3
:10DD2000122C277401122E6512DE4885188285197F
:10DD300083E4F004122E6512BB9212E9383812DF28
:10DD40002412DE397401122E6512BB9212CCAD384A
:10DD5000F58312D56E123EBFEA4B700302DE1C8AB9
:10DD6000828B83A3A3A3A3E0700302DE1CC39403EE
:10DD7000400302DE1CEEC3940F5003EF600B8518C6
:10DD8000828519837401F0807512B9CA12B011EE40
:10DD900070229052067808122D5612DE1F78081253
:10DDA0002DFF9052067808122D5612E7337808128C
:10DDB0002DFF803BF50875090074027808122D309C
:10DDC00074062508F582745212CCBA780C122D56BE
:10DDD00090816B7808122E0E780C790812244B1261
:10DDE000DE1F780C122DFF12E733780C122DFFEA9C
:10DDF000241BF582E43BF5837401F0123925901958
:10DE0000ECE0FC851882851983E0F97401122E6517
:10DE100012BB9212DE2912D56E12474102DB14EAC0
:10DE20002417F582E43BF5832212DE2D22240BF524
:10DE300082E438F583223BF583E0FEA3E0FF22EE87
:10DE4000241AF582E43FF583EAF0A3EBF02274F0A4
:10DE50001225B074F5122C278A0E8B0F89098C08B5
:10DE6000750C017401122E65740312CFA21246B113
:10DE70008A0A8B0BAE0AAF0BEE4F604C12CD977433
:10DE80000C12F71688828983A3A3E50812DED81244
:10DE9000462D12DE3F7403122C07AA0EAB0F123E62
:10DEA00041E9600B12DCF97403122BF712D0D28E09
:10DEB000828F83A3A3E50EF0A3E50F12DECFEEFA67
:10DEC000EFFB123F2BE9F50CA90C740B02DB1612C9
:10DED000F4EE7401F0227401F0EE241712DD0F222B
:10DEE00074F61225B012E9373B12DF2412894FE095
:10DEF000702FEAA2E0502A9019ECF07508EC750931
:10DF0000197808122B967508017509007808122BEC
:10DF1000967C007D007A517B001235CB7404122B65
:10DF2000A902C8F8F583E02401F8A3E03400F988D9
:10DF30008289832274F61225B074DA122C27EAFE45
:10DF4000EBFF12CABF60548E828F8312D56EAC185D
:10DF5000AD1912D1C81246157409122E6512E1D7F7
:10DF60007003A3E06960348E828F8312DBC71229AD
:10DF7000C17508FE7509FF7808122B96741C122EC5
:10DF800065E0F9740D122E6512B1E3740F122E655F
:10DF900012D56E12414D7404122BA9742602C8F5D5
:10DFA00074F71225B0E9FD7A007B009016CEE06090
:10DFB00004640170477C00800B12E053E02AFAA34E
:10DFC000E03BFB0C90535F12EB025030EC75F01C01
:10DFD000A4F8AEF0EEF9740A28F582740612EAD6B7
:10DFE000F460E0741628F58274063912CAC660D34C
:10DFF000ED60C612E053E4F0A3F080C77C00800B14
:10E0000012E040E02AFAA3E03BFB0C12EAFF502D9D
:10E01000EC75F017A4F8AEF0EEF912F0BB7003A3A4
:10E02000E0F460E6744F28F58274073912CAC660BE
:10E03000D9ED60CC12E040E4F0A3F080CD02B2FB59
:10E04000EC75F017A4F8EEF9744F28F582740739CF
:10E05000F58322EC75F01CA4F8EEF9741628F5820D
:10E06000740639F5832274F01225B0E9FE8A088B14
:10E07000099017C3E0C39E503B1246819017F512DA
:10E08000F71490175DE0F50CE4F50DF50EF50F9023
:10E0900081477808122E0E780C790812244B780CE0
:10E0A000122B8E7A007B029017C4E0F912360D74A1
:10E0B00004122BA902DB1974F61225B0EAFEEBFF5D
:10E0C0009017E1801388828983E06E7003A3E06F6C
:10E0D000603A88828983A3A312CAC870E87A047B55
:10E0E000001235478A088B09A808A909E849601C6D
:10E0F0008882898312E2AC9017E112D56E888289FA
:10E1000083A3A312DE489017E112D0DB02C8F87493
:10E11000F41225B07E009017E180070E8882898373
:10E12000A3A312CAC870F4EE25E0FAE433FB12355B
:10E13000478A088B09EA4509700302E1C47C009014
:10E1400017E1802A88828983E0F50AA3E0F50BECC9
:10E1500025E0FAE433FBE5082AF582E5093BF5837F
:10E16000E50AF0A3E50BF00C88828983A3A312CA09
:10E17000C870D19017BF12E1D77003A3E069780887
:10E18000701C122B96EEF50A780A122B9A7C8B7D66
:10E190001779009017BF12D56E124729801A122BDB
:10E1A00096EEF50A780A122B9A7C8B7D17790090EF
:10E1B00017BF12D56E12471D7403122BA9AA08AB04
:10E1C0000912354D123F4302B4DE8E828F83A3A322
:10E1D000A3A3A3A3A3A3A312B9F090176AE0682294
:10E1E000C082C08380128A828B83A3A312B9EC9071
:10E1F00017E112D0DB12354D9017E112B19370E6A2
:10E2000002C3BB74F51225B090177712E66E901713
:10E21000F512B9EC90177712D0DB7AF57B177950AD
:10E22000123D639017F512DE39750A00801212EB69
:10E23000C07003A3E06F600612EBCC1247C5050A5D
:10E2400012E29A501EE50A75F017A4F8A9F012EA36
:10E250005A65087004A3E0650970D312EA6312E2FC
:10E26000AC80DB9017F512DE399014E912CAC86051
:10E27000267A067B001234A5EA4B601B8A828B83C8
:10E2800074D5F0A3A3E412B017A30412E2A590146E
:10E29000E912DBC712279602B57A90534FE493F840
:10E2A000E50AC3982212B02112E2AC22EEF0A3EFED
:10E2B000F022C082C08390176AE064FE7003A3E07E
:10E2C000F4600E901764E0A2E150061247DD124799
:10E2D0008302C3BB74F01225B09017B8E06053F509
:10E2E0000CE4F50DF50EF50F9081D37808122E0E83
:10E2F000780C790812244B12349F8A088B09A808DD
:10E30000A909905344E49358F508A3E49359F509F7
:10E31000E4F50AF50B780C7908122D0A780C122B0B
:10E320008E7A007B019017C4E0F912361374041240
:10E330002BA902DB1974F01225B074FE122C277E73
:10E34000007F008E0E8E0F123EDD750A00803BAA04
:10E350000A7B00123ED78A088B09A808A909E84958
:10E36000602688828983A3A3A3A3E0600464047069
:10E370001788828983A3A3A3A3A3A3A3A3A3A3E032
:10E38000F91247EFE960010F050A90535F12E29D11
:10E3900040BD1247B385188285198312DE4875087F
:10E3A000008023AA087B001247BF8A0A8B0BA80AA9
:10E3B000A90BE849600EE8240F12EAD3F91247EFDF
:10E3C000E960010E050812E57340D8EF2EFE7003D8
:10E3D00002E4D9F50875090074027808122D30AAF4
:10E3E00008AB091235478A0E8B0FEA450F700302FE
:10E3F000E4D7750B00EEF508750900740278081271
:10E400002D30AC08AD0979FF12348D750A00806992
:10E41000AA0A7B00123ED78A0C8B0DEA450D605785
:10E420008A828B83A3A3A3A3E06004640470488A58
:10E43000828B83A3A3A3A3A3A3A3A3A3A3E0F91203
:10E4400047EFE9F96031050B850E08850F0978085B
:10E45000122B96EEFD850C82850D83A3A3A3A3A3A7
:10E46000A3A3A3A3E0FC850C82850D8312D56E12B5
:10E4700047897402122BA9050A90535F12E29D503E
:10E4800006E50BC39F408975080012E573504AAA40
:10E49000087B001247BF8A0A8B0BEA450B6034EAFF
:10E4A000240F12E56AF91247EFE9F96026850E0C90
:10E4B000850F0D780C122B96EEFDE50A240E12E561
:10E4C0006AFC850A82850B8312D56E124789740215
:10E4D000122BA9050880B37E007F62901762E0606E
:10E4E0000BF912442FE9F87454C398FF75F003EF49
:10E4F00084F5089420400375081F850E0A850F0BCC
:10E50000750C00EF6005750C207F00E508C39E5078
:10E510000585080980088E09E50CD2E6F50CAC0AE1
:10E52000AD0BAA0CA90912478FE9F50DE50CA2E67F
:10E53000401D15097800800BE50A2404F50A5002F5
:10E54000050B08E8C3950940EFE509CEC39EFEE937
:10E550007006E50CA2E650A8E50E450F6007AA0E6E
:10E56000AB0F12354DA90D02DBBCF582E4350BF57E
:10E5700083E02285188285198312B9F0C3E50898D3
:10E58000E4992274F21225B0E9FE750A00750B00B9
:10E59000740E122E6512E66E7F00801185080A85C2
:10E5A000090BE5082404F508500205090FEFC39D87
:10E5B000400302E665850882850983E0F47003A3C1
:10E5C000E0F4700302E647E50A450B600E850A8217
:10E5D000850B83C3E09AA3E09B50C185088285091F
:10E5E0008312F220EB9950B4A808A9098882898384
:10E5F000E0F47003A3E0F4600DE82404F85001098E
:10E600000FEFC39D40E6880A890BE824FCF8E93443
:10E61000FFF988828983128B62850A82850B83E5E4
:10E620000CF0A3E50D12E676850A82850B83A3A381
:10E6300012E67BE0850A82850B83A3A3A3F0C3E5E2
:10E640000898E5099940BF85088285098312DE484C
:10E65000EC850882850983A3A3F0EE8508828509ED
:10E6600083A3A3A3F002AA82F582E43FF583E0F539
:10E6700008A3E0F5092212E680E02212E680A32238
:10E6800012E9F8A3A32274F31225B074FD122C270B
:10E6900089088A09ECFEEDFF750C0175F003E9A409
:10E6A0002402C0E07401122E65D0E012CFA21246FF
:10E6B000B1EA4B607212D76D12CD9A7408F0741FD4
:10E6C00055084509A3F0E82402F85001097C0080B0
:10E6D000378E828F8312AA6012C55612DD0012E7B0
:10E6E0003DC454F05470FD8E828F83A3A3A3E054E5
:10E6F000074D88828983A3A3F0E82403F850010919
:10E70000EE2404FE50010F0CECC3950840C38A822E
:10E710008B83A3A374FCF0A374FFF012E73374019E
:10E72000F0123F2BE9F50CA90C7403122BA97F05FD
:10E73000022835EA2413F582E43BF5832212E741EF
:10E7400022F08E828F83A3A3E02274F11225B08A77
:10E750000A8B0B7508007AFE7BFF7CFE7DFFE50AC5
:10E7600012E938350B12D8DBFE741F5EF509E82478
:10E7700002F50CE439F50DEEA2E74072E50A241724
:10E7800012E56AF875F003E509A4240268705FE5F4
:10E79000096009850C82850D8312C5487F00802998
:10E7A000850C82850D83A3A3E05407F50EE50C24A8
:10E7B00003F50C5002050DE8FC90176AE068700341
:10E7C000A3E0697003850E080FEFC39509502985F2
:10E7D0000C82850D8312C2AFFCE4CCFDE82CE43D35
:10E7E000F9850C82850D83A3A3E0548860B27AD3A7
:10E7F0007B0012397F02E934E508700BEEF912470D
:10E800009BE9700302E93412E93E12D56E123EB95B
:10E810008A0C8B0DAE0CAF0DEE4F605A8E828F833B
:10E82000A3A3A3A3A3A3A3E4F090534793F88E82DA
:10E830008F83A3A3A3A3A3A3A3A3E0C398402412FD
:10E84000E95A5001097A027B00122353E88E828F25
:10E8500083A3A3A3A3A3A3A3A3F0E508C394075092
:10E860000205088E828F83A3A3A3A3A3A3A3A3A3BC
:10E87000E508F002E9347CFF7DFF12E93E12D56E17
:10E880001247A78A0C8B0DAE0CAF0DEE4F704F12D6
:10E8900047AD8A0C8B0DAE0CAF0DEE4F700302E945
:10E8A000347C177D00790012348D12E93E12CF744A
:10E8B0001287B88E828F83A3A3A3A3A3A3A3A312BB
:10E8C000B8D212B2D574AA12F0425001097A027B72
:10E8D0000012235312E948E812E96C7401F09053D6
:10E8E00047E49312BE9BC398401912E95A5001099C
:10E8F0007A027B0012235312F03CE508C3940750C0
:10E9000002050812F02EE50812E971E4F012A0E207
:10E91000123E35E9701E850A82850B83A3A3A3A34B
:10E92000A3A3A3A3E0600DE50A12CCAD350B12E959
:10E930006512365B02D913EA241DF582E422E50A4A
:10E9400012B039350BF5832212E94C22EE12E9544C
:10E950003FF58322240DF582E422905347E4937916
:10E96000002401F822129B4B12A0E322F012F03295
:10E9700022F012E97622EE12ED743FF5832274F74D
:10E980001225B0E9FE74FE6A700374FF6B60357483
:10E99000605E6460602EEEA2E5401CA2E690176AFD
:10E9A000500DC3E09AA3E09B501A790002B2FBC35A
:10E9B000E09AA3E09B40F390176A12B9ECC3EC987D
:10E9C000ED9940E6790180E474F71225B07E00806D
:10E9D00008EE12EBC51247C50E12EA5040F37E0056
:10E9E000EE12E9FE74FEF0A30412E9F8E4F00EEE74
:10E9F000C3940340EB02B2FBF0888289832275F056
:10EA000003A4F8A9F074E328F8741739F988828907
:10EA100083A32274F71225B07E0080010E12EA5003
:10EA20005027EE12EF7DE06A7003A3E06B70ED12E9
:10EA3000EA5A6C7003A3E06D600A74FF6C70037493
:10EA4000FF6D70D812EBCC80047A007B0002B2FB21
:10EA500090534FE493F8EEC3982212EA5E2212EA32
:10EA600063E022744428F582740739F5832274F632
:10EA70001225B07CFF7DFF7AFE7BFF1247A7EA4B91
:10EA800070437508008039E50875F017A4F8A9F0FF
:10EA9000744928F582740712EAD6600C744828F588
:10EAA00082740712EAD67016743A28FE740739FF8A
:10EAB0008E828F8312D56E124153EEFAEFFB05085A
:10EAC00012EAC840C202C8F890534FE493F8E50830
:10EAD000C39822F582E439F583E022C082C0837AAC
:10EAE000007B007C00801012F0B37003A3E0F460A0
:10EAF000050AEA70010B0C12EAFF40EB02C3BB905F
:10EB0000534FE493F8ECC3982274F41225B08A08AA
:10EB10008B09ECFEEDFF800B1247C5EEFCEFFDAA62
:10EB200008AB091247A7EA4B70EE02B4DE74F71285
:10EB300025B07D007C0080020D0C12EAFF501C12F3
:10EB4000F0B37003A3E0F460F0EDF8EA684B70E80E
:10EB5000EC75F017A4F812EBCC80047A007B00026D
:10EB6000B2FB74F71225B0EAFEEBFFEE4F60187CA3
:10EB7000177D00790012348D8E828F8374FEF0A38E
:10EB80000412EB8AF0A3F002B2FB12AE82A322744D
:10EB9000F71225B0EAFEEBFF750800801BE508754B
:10EBA000F017A4F8A9F012EBC07003A3E06F6006A1
:10EBB00012EBCC1247C5050812EAC840E002B2FBCE
:10EBC00012EA5E6E2275F017A4F8A9F0743A28FADA
:10EBD000740739FB2274F41225B08A088B09ECFE05
:10EBE000EDFF9016CEE0600464017020901777E08E
:10EBF0006E7003A3E06F7014123EB98A0A8B0BA8E3
:10EC00000AA90BE8496005E82408801AEEFCEFFD2C
:10EC1000AA08AB091247A78A088B09A808A909E81E
:10EC2000496009E8240DFAE439FB80047A007B008E
:10EC300002B4DE74F41225B0EAFEEBFF8C0A8D0BF1
:10EC4000750800750900802CE50912F0A3123E3505
:10EC5000E9601FE50912F0977003A3E06F70037578
:10EC6000080AAC0AAD0B12F0AA123655E96003434C
:10EC700008A0050990534FE493F8E509C3985004A0
:10EC8000E50860C402C35074F41225B07508008012
:10EC900065AA087B00123ED78A0A8B0BAE0AAF0B1F
:10ECA000EE4F60508E828F83A3A3A3A3E064016024
:10ECB000438E828F83A3A3A3A3E064026036EE2475
:10ECC00007F582E43F12ED86502A8E828F83A3A33C
:10ECD000A3A3A3A3A3A3A3A3E412AE7E12DBE574B4
:10ECE000FF12DBEDF0A3F01239258E828F8312D54F
:10ECF0006E124153050890535F12EACB40937E0099
:10ED00008052EE75F017A4F8AAF0EAF912F0BB7081
:10ED100003A3E0F4603D743A28F8740739F9E81267
:10ED2000ED743912ED86502BEE75F017A4F8EAF960
:10ED3000743A28F8740739F9E8240FF582E439F5B4
:10ED400083E4F0E8240EF582E439F583E412ED95CE
:10ED50001241530E12EA5040A97A00EA75F003A45A
:10ED6000F8A9F012ED7A600214F00AEAC3940340A5
:10ED7000EA02B4DE240CF582E42274E328F58274FE
:10ED80001739F583E022F583E0F8740128F0901735
:10ED9000B9E0C3982212F60BFAA3E0FB2274F0123A
:10EDA00025B08A0E8B0F8C0A8D0B750C00780079BC
:10EDB000017EFE7FFF7410122E6512E66E80111226
:10EDC000349FE50CF5F0EA84E5F0F8750C00790065
:10EDD0007C00800B743A2AF582740712DE360C90A0
:10EDE000534FE493FAECC39A506AEC75F017A4FA07
:10EDF000ADF0EDFB12B9D764FE7003A3E0F460DE62
:10EE000012B9D7650E7004A3E0650F60D112B9D7AF
:10EE1000650A7004A3E0650B60C412B9D765087079
:10EE200004A3E0650960B774482AF582740712B933
:10EE3000DE60ABC3940850A6E064076097E9050C58
:10EE4000709CE50CC3984096EDF9743A2AF58274EB
:10EE50000702EF0E9016CEE060076401600302EF38
:10EE6000167C00800712EF4212DE360C90535FE4EE
:10EE700093FAECC39A400302EF16EC75F01CA4FA67
:10EE8000ADF0EDFB12EF4212B9DE64FE7003A3E0B9
:10EE9000F460D812EF4212B9DE650E7004A3E0658B
:10EEA0000F60C812EF4212B9DE650A7004A3E06574
:10EEB0000B60B812EF4212B9DE65087004A3E0657A
:10EEC0000960A8740F2AF582740612B9DE609CC32B
:10EED00094085097740A2AF582740612B9DE640108
:10EEE0006089E064026084740F2AF582740612B9A6
:10EEF000DE6407700302EE65E9050C600302EE6B49
:10EF0000E50CC398500302EE6BEDF912EF4239F5B0
:10EF10008312F1478022E50C6011E8700E740165E0
:10EF20000C600302EDBF780102EDCB74FE6E70033E
:10EF300074FF6F6006EEFAEFFB80047AFE7BFF023F
:10EF4000DB1974062AF58274062274F51225B0EADC
:10EF5000FEEBFF8C088D09750A008002050A12E29B
:10EF60009A5017AC08AD09E50A12F0A3123655E91C
:10EF700060EAE50A12EF7D12E2AC02B57A75F0178D
:10EF8000A4F8A9F012EF8822743A28F582740739A0
:10EF9000F58322E9F87907C3940D400479018019BB
:10EFA000E8C3940740047903800FE8C39403400446
:10EFB00079058005E870027900022B3E74F0122575
:10EFC000B08A0E8B0F8C0A8D0B89081247AD8A0C04
:10EFD0008B0DAE0CAF0DEE4F60517C177D007900AC
:10EFE00012348D8E828F83E50EF0A3E50F12EB8A2B
:10EFF000E50AF0A3E50BF0E508600712B2D4E508D6
:10F00000800512B2D47401F09017BEE0640170065E
:10F0100012F02EE4800512F02E740712F042500117
:10F02000097A027B0012235312F03C02DB1912F022
:10F030003222EE240EF582E43FF5832212E94CE8F9
:10F04000F022F0905347E49379002401F82274F7FA
:10F050001225B0EAFEEBFF7508008033E50812F0D8
:10F06000977003A3E06F601474FF6E700374FF6FFA
:10F07000701B12F0BB7003A3E0F4601112F0AA122F
:10F080003E35E97008E50812EBC51247C5050812C0
:10F09000EAC840C802B2FB75F017A4F8A9F012F054
:10F0A000C16E2275F017A4F8A9F0743C28FA740711
:10F0B00039FB22EC75F017A4F8A9F012F0C164FE38
:10F0C0002212EF88E022C082C0837AFF7BFF1247C2
:10F0D000FB02C3BBC082C0839017F7740DF0A3740A
:10F0E00048F09017F97413F0A37448F09017FB746C
:10F0F00019F0A3744802ABD874F71225B0EAF8EB04
:10F10000F99016E712F147CA2406F582E43AF5832E
:10F11000E0702B88828983A3A3A3A3A3A3A3A3A3A3
:10F120001229C19016E712F14C122E36888289837B
:10F13000A3E0F91240097402122BA9123F4302B254
:10F14000FB851882851983E0FAA3E022E0FAA3E0A8
:10F15000F5838A8222C082C0839017C112F217F011
:10F160009017C112CAC87005790112475302C3BB78
:10F1700074F61225B074FC122C27E9FE905355E466
:10F1800093700874E16E600302F212EA2408F8E456
:10F190003BF98882898312F21712F227700E9017BA
:10F1A000C1E4F0A3F079011247538066901A05E09C
:10F1B0006060FA9017C112F220E49950557900125C
:10F1C00047538A088B09AC08AD09ECF8EDF9E875EE
:10F1D000F064A4F8AAF075F064E9A42AF99017C1C4
:10F1E00012D56E12235BE8941AE99400402490141F
:10F1F000E112CAC8601C9017C112C2AF129F7E12E2
:10F200002E65ECF0A3ED12CFA29014E112DBC71231
:10F210002796740402C8F5E02401F0A3E03400222C
:10F2200012B9F0C3EA982212F60BF8A3E0F9E84904
:10F2300022C082C08374F8122C27908101AC18ADD3
:10F24000197408122ABAAC18AD19123655E96401BE
:10F250007004790080027901740802B9C474F6124E
:10F2600025B0EAFEEBFF740C122E6512D56E743ACF
:10F270006A7001EB6006743B6A4B701F740A122EB1
:10F28000651229C18C088D097808122B96EEFCEFC7
:10F29000FD1235D17404122BA98002790A02C8F834
:10F2A000C082C0839017FD74E3F0A3743EF0901702
:10F2B000FF74E9F0A3743EF09019ECE0A2E0503244
:10F2C0009018017437F0A37448F0901803743DF05F
:10F2D000A37448F09018057443F0A37448F0901894
:10F2E000077449F0A37448F09018097431F0A374BE
:10F2F00048F090180112CAC8600612C7FF1227967C
:10F3000002C3BB74F41225B074E6122C278A088B52
:10F31000097404122E657402F004122BFF1246B118
:10F320008A0A8B0BAE0AAF0BEE4F700302F4821207
:10F33000F4AD746012F4EA12DED612462D12DE3FEE
:10F340008E828F83A3A3E508F0A3E50912BEF570B2
:10F3500012901756E0C0E012B89AD0E0F09017561D
:10F36000E004F012F48770169019DFE0600D90173A
:10F3700061E0700A8E828F83E0700312CD8BAC182F
:10F38000AD19EEFAEFFB1246098A088B09EA450926
:10F39000700302F47B7A217B001235477406122E2B
:10F3A0006512DE487406122E6512CAC8700302F494
:10F3B000747C217D0079007406122E65E0FA123407
:10F3C0008D7401122BFF7950123D5D7401122E6570
:10F3D00012B9EC7406122E6512F147CA2409F5829F
:10F3E000E43A12D0D990176A12B9EC7417122E654C
:10F3F00012D0DB7406122E6512F4BE7406122E654E
:10F4000012F4B812D5147406122E6512F14C12D0F3
:10F41000DB7406122E6512F4C912C290C0E07406A5
:10F42000122E6512F4A0D0E0F0EE240E12B8B5E072
:10F43000C0E07406122E6512F490D0E0F07406124B
:10F440002E6512B2E612F714EE240F12B9E6740C10
:10F45000122E6512F4E2E0C0E0740E122E65D0E0C8
:10F46000F07406122BFF1245797406122E6512D520
:10F470006E12354DAA08AB0912354DEEFAEFFB12AC
:10F48000354D741A02B4DBEE241112A60964012270
:10F4900012F49422E0F8A3E0C812ED7438F5832248
:10F4A00012C2AFC8241EF582E438F5832212CDA023
:10F4B00012D8E17404F0A32212AF5C74022212C2CB
:10F4C000AFC812DE2D7402F022E012F4D37401F002
:10F4D000A3E422F8A3E0C812F4DB2212E95438F5C1
:10F4E000832212D0DF8A828B832212F4EE22F0EE86
:10F4F00012F4F4222413F582E43FF5832274F61209
:10F5000025B07E0080197C047D0079FFEEF5088D22
:10F510000974027808122D3012F79712348D0E906C
:10F52000534612EA5340DF02C8F874F41225B0744F
:10F53000F7122C277508008053E508F50A750B00B3
:10F540007402780A122D3012F5F8EE240212BE92DF
:10F55000E024FFF0A3E034FF12F607F8A3E0F97A05
:10F560000A7B0012235B8B0BEA450B701D7408129B
:10F570002E6512F610122D3074D7250AF582740A02
:10F58000350BF58312F7AA123D99050890534612E0
:10F59000EACB5061E508F50A750B007402780A128F
:10F5A0002D3074D7250AF582740A12E56DF47003C4
:10F5B000A3E0F460D5E508F50A750B007402780A3B
:10F5C000122D3012F6F412CAC6600302F53974081F
:10F5D000122E6512F610122D3012F5F88E828F83DE
:10F5E00012F7AA123D9F7C047D0079FFEEFAEFFB33
:10F5F00012348D809502B4D974D7250AFE740A3569
:10F600000BFF22A3A3A3A312F60B2212E9F8E02218
:10F610007402F0E508F50A750B007402780A22748A
:10F62000F01225B074F7122C278A0E8B0F7EFF7410
:10F6300008122E65740212B9FBEAF0A3EB12F7ADC3
:10F64000123D99E9641A700302F6F07900741912F8
:10F650002E657808122E0E800874FF6E7002E9FE87
:10F6600009905346E493F8E9C3985046E9F50C75C0
:10F670000D007402780C122D3012F6FFF47003A303
:10F68000E0F460D5E9F50C750D007402780C122DCC
:10F690003012F6FF650E7004A3E0650F70C2E9F545
:10F6A0000A750B007402780A122D3012F6F4F583F5
:10F6B000802EE49369702C74FF6E602EEEF50C754D
:10F6C0000D007402780C122D3074D7250CF8740AD2
:10F6D000350DF988828983E50EF0A3E50F12E680E7
:10F6E00012F7147901740902DB1612F70C123D9F10
:10F6F000790080F174D9250AF582740A350B2274D9
:10F70000D7250CF582740A12C22BE02212F7B2221E
:10F71000A3A3A3A3E508F0A3E509F02274F612253C
:10F72000B074F7122C27EAFEEBFF7A0080010A90F2
:10F730005346E493F8EAC3985058EAF5087509006F
:10F7400074027808122D3012C7EFF47003A3E0F4AE
:10F7500060DCEAF50875090074027808122D301291
:10F76000C7EF6E7003A3E06F70C47C047D0079FF67
:10F77000EAF5088D0974027808122D3012F79712F5
:10F78000348D7408122E65740212F7A212F7AD12AE
:10F790003D9F740902C8F574D72508FA740A350923
:10F7A000FB2212B9FFEEF0A3EF22129B58F012F7E2
:10F7B000B222901777E0FCA3E0FDAA18AB192274DF
:10F7C000F01225B074FE122C278518828519831239
:10F7D000DE488C0A8D0B750800851882851983E038
:10F7E000650A7004A3E0650B60178518828519838C
:10F7F000E0FA1235C58A0C8B0DAE0CAF0DEE4F70D2
:10F800000675080102F89FAA0AAB0B1235C58A0CCF
:10F810008B0DAC0CAD0DEC4D6007AA0AAB0B12358D
:10F82000D7E4F50CF50D780C122B96EEFCEFFDAA43
:10F830000AAB0B1235BF7402122BA9E96061EEFA14
:10F84000EFFB1235478A0E8B0FEA450F604E780E9C
:10F85000122B968E0C8F0D780C122B967C007D004F
:10F860007404122E6512D56E1235D17404122BA9B0
:10F87000E9701D780E122B96780C122B967C007D69
:10F8800000AA0AAB0B1235CB7404122BA9E9600352
:10F89000750801AA0EAB0F12354D8003750810A92B
:10F8A0000802DBBCC082C08312FF08600302F97645
:10F8B000A3A3E0600302F976A3E064027002A3E070
:10F8C000600302F976901419E02480600914604FF7
:10F8D00014605C02F97690141DE0600302F97690E2
:10F8E0001413E090142160077401F0A3E48003E492
:10F8F000F0A3F0901412E06007901421E04402F0AD
:10F90000901407E0640460149014147421F0A3743C
:10F9100014F0A3E4F0A3740212FF68F002FACA9094
:10F920001400E06404704F901421E4F0A380D090A0
:10F93000141DE0547FF8901400E064047038E8C3AC
:10F940009406503290141DE054806011740728F51D
:10F9500082E43414F583E0640370CC800F740C28C7
:10F96000F582E43414F583E0640370BB90142174D1
:10F9700001F0A3E480899014077404809E74F71248
:10F9800025B0E9FE90141F12FF0B600302FA569097
:10F990001400E06404600B90141D12FF0B6003025E
:10F9A000FA56901419E0541F600914603014602056
:10F9B00002FA5690141BE064017022EE901412F0CB
:10F9C00060047905800279067A0012373F02FA5CFA
:10F9D00090141DE0547FFA90141BE06004790080BD
:10F9E0007DEAC39406506FEA90620EF090141DE019
:10F9F0005480602DEE600474108002744090621197
:10FA0000F0EE600478038002780074072AF582E43F
:10FA10003414F583E8F0EE600479088030790780CB
:10FA20002CEE6004782080027880E8906214F0EE7A
:10FA30006004780380027800740C2AF582E43414A0
:10FA4000F583E8F0EE6004790A8002790912373F05
:10FA500090620EE480059014077404F079017F0130
:10FA6000022835C082C0837900123799E9700312E9
:10FA700037338056C082C0837901123799E9700309
:10FA80001237398045C082C08390141D12FF0B705D
:10FA900014A312FF0B700E90141BE05480F8A3E027
:10FAA000F9E84960079014077404801D90141BE066
:10FAB000906200F09014006009E06402700C74031E
:10FAC0008007E0640370037402F0D083D082022BBD
:10FAD0003E74F51225B090141CE0146008146010F8
:10FAE00014603E805F12375112FC8EA37B808049E8
:10FAF00090141BE0FA790012375712FC8E7B80E9D4
:10FB00002402F9E43AFA122BC4FC1919E0FAA3E929
:10FB10002403F9E43AFA122BC4F9ECA3F0A3E98028
:10FB20001F90141BE0F9123763901414EAF0A3EB52
:10FB3000F0A3E412FC9DA37B00122BC4A3F0A3E46A
:10FB4000F002FC45901414E4F0A3F0A3F07A000254
:10FB5000FC1AEAF50875090074037808122D3012B2
:10FB6000FCA7E493FC90141CE0F9E4C96C7001E478
:10FB7000600302FC19EAF508890974037808122D5C
:10FB80003012FCA7A3E493FC90141BE06C7001E41A
:10FB9000600302FC19EAF508890974037808122D3C
:10FBA0003012FCBFE493FC90141EE0F9E4C96C70C1
:10FBB00001E47065EAF508890974037808122D30AC
:10FBC00012FCBFA3E493FC90141DE06C7001E47080
:10FBD00048EAF508890974037808122D3012FCB33D
:10FBE000F988828983A3A3A3A3E493F508740193FE
:10FBF000F509901414E508F0A3E509F0A37480F06A
:10FC000088828983A3A3A3A3A3A3E493F874019395
:10FC1000F9901417E8F0A3E9F00AEAFC9019AA1287
:10FC2000FE197583197582ACE0C398F508A3E099B5
:10FC3000F50974037808122DF0C3EC9508E49509D2
:10FC4000500302FB52901414E0FCA3E0FDA3E0FE7D
:10FC5000EC4D4E90140770047404802CE064046032
:10FC60002890141712FE1975831475821FC3E0982B
:10FC7000A3E099500E90141F12FE19901417E8F08B
:10FC8000A3E9F09014077401F07F03022835901463
:10FC900014EAF0A3EBF0A3748012FC9D22F0901400
:10FCA00014E0F9A3E0FA2212FCAB2212FCB3888222
:10FCB000F583229019AAE02508F8A3E0350922125D
:10FCC000FCABA3A32274F01225B0EAFEEBFF8E82F8
:10FCD0008F83A3A3A3A3E493602B9019AE12FE1904
:10FCE00088088909800AE5082404F50850020509F6
:10FCF000850882850983E493F8740193F9EE6870AE
:10FD000002EF6970E1750C00804C9062147490F001
:10FD1000741012FE0970027940750A01750B00E536
:10FD20000D780A122D30850882850983A3A3A39339
:10FD3000550A6004E9D2E0F9E9906215F0EA9062B0
:10FD400013F0A80D740C28F582E43414F583E4F064
:10FD500090620EF0050C8E828F83A3A3A3A3E4937D
:10FD6000F8E50CC398400302FE047A0079051237C7
:10FD70004B8A0A8B0BEA450B60DAEA2402F8E43579
:10FD80000BF9E8FCE9FD8C828D83E493540FF50DAB
:10FD900090620EF079008A828B83A3A3A3A3E493DD
:10FDA0002407F50EA3E4933400F50F7403780E12C4
:10FDB0002DF0AA0E8C828D8393A2E7400302FD0AE8
:10FDC0009062117448F0740812FE0970027940754F
:10FDD0000A01750B00E50D780A122D308508828521
:10FDE0000983A3A393550A6004E9D2E0F9E990627C
:10FDF00012F0EA906210F0A80D740728F582E4343E
:10FE00001402FD4C7F08022835F0850A828B83A3FB
:10FE1000A3A3E4935403640122E0F8A3E0F922C011
:10FE200082C08312FF087010A312FF0B700AA3E0B8
:10FE300064017002A3E060079014077404800C90C2
:10FE400014147401F0A3741412FF5EF002FACA7461
:10FE5000F41225B0901400E06402601490141D1296
:10FE6000FF0B700CA312FF0B700690141CE06008CF
:10FE70009014077404F0807E7A00790112373F9065
:10FE8000141BE0605C7A00F91237578A088B09EA84
:10FE9000450960459014007404F090141BE0901420
:10FEA00001F07E00850882850983A3A3A3A3E493C0
:10FEB000F8EEC398503912FEFBE4F07A0079041290
:10FEC000374B8A828B83A3A3A3E493FC12FEFBE04F
:10FED0006C70E81237B70E80CB9014077404F08072
:10FEE0000E901401F09014007403F0F912377B7A2D
:10FEF00000790212373F7F04022835EEF874022899
:10FF0000F582E43414F5832290141BE0F8A3E0F9A1
:10FF1000E8492274F51225B0901400E064047019C9
:10FF2000901419E06481701112FF08700C90141F76
:10FF3000E064017002A3E060079014077404801A63
:10FF400090141DE02402F508A3E03414F509901480
:10FF500014E508F0A3E50912FF5EF002FC89F0A3A6
:10FF6000E4F0A30412FF6822F0A3E4F09014070465
:10FF70002274F61225B0901400E0640470649014AA
:10FF800019E06401705C90141F12FF0B7054901400
:10FF90001BE0FB90141DE0FA901401E0F912375DAC
:10FFA0008A088B09AE08AF09EE4F603690141DE049
:10FFB000FA790312373F90141BE0C0E090141DE063
:10FFC0002402F8A3E03414F988828983D0E0F0EEAB
:10FFD000FAEFFB1237B790141DE0FA790412373F9D
:10FFE00080069014077404F07F02022835FFFFFF9B
:10FFF000FFFFFFFFFFFFFFFFFFFFFFFFFFFFFFFF11
:020000040001F9
:10000000C082C083124C87901708748FF0A374418C
:10001000F090170A7495F0A37441F090170C749B3C
:10002000F0A37441F090170E74A1F0A37441F00294
:10003000BBAD74F71225B0E9FE9016FAE4F0EE902D
:1000400016F9F09019F512ACF812BF487CC17D1674
:100050007AFD7B1612365B9019F7E0901705F09049
:10006000170674ACF0A3741602914474F01225B014
:10007000EAFEEBFF548070030281DD9016F9E0F98F
:100080001234BD8A088B09EA450970030281D6EA59
:10009000241B12B743707CEA241F12B74364137009
:1000A00002A3E0706E8A828B831282579017181217
:1000B000BF26750A00750B00800D128FB312BF4862
:1000C00012354DAA0EAB0FEA4B60488A828B83E053
:1000D000650C7004A3E0650D702C8A828B83A3A34A
:1000E000A3A3E0F50EA3E0F50FE50A450B8A828B8A
:1000F00083A3A3A3A360C3129E55850A82850B83A5
:10010000A3A3A3A380B78A0A8B0B8A828B8312BF17
:100110002280B4E508242A12B743FCE5082402F83B
:10012000E43509F9E8FAE9FB901718E012AE53E05C
:10013000640270358A828B8312BF26800788828989
:1001400083129E51E849601C88828983E06A7003AB
:10015000A3E06B70E888828983A3A3E06C70DE1251
:10016000824C806BECF91241CB850882850983E0D3
:100170006401704FE508241812823F122B9A12CDA9
:10018000741229B9E508241212823F122B9AE5084D
:10019000129DAD122B96E508240B12CD781229C1C1
:1001A000E50824171297DEE5082402FCE43509FD72
:1001B000E5082419FAE43509FB124D2F740A122BB5
:1001C000A9800CE064027007AA08AB09124327AAB1
:1001D00008AB091234ABEEFAEF648080589016CE6B
:1001E000E0600464017018EEA2E050139017101242
:1001F000B2E0600612E618122796EE64018034EE33
:100200005402600C901A0C7401F0EE6402FA802C17
:10021000EE540860231241C58B09EA45097011901C
:10022000171A12C81A7A08FB9016F9E0F912361953
:10023000EE6408FAEFFB80047A007B0002D8CEF56A
:1002400082E43509F583E0F50A780A229019FD1257
:10025000BA6EA3A3A3F022A3A3E0F50CA3E0F50DCF
:100260002274F41225B0EA4B901710602412AB1CD4
:100270008A088B09E4F50AF50B7808122B8E7A01AF
:100280007B009016F9E0F912360D7404122BA98048
:100290000FE4F0A3F07A01FB9016F9E0F912361999
:1002A00002838274F41225B08A088B098A828B83B8
:1002B000A3A3A312AADD129A1538F583E02409FA44
:1002C0007B001234A58A0A8B0BAE0AAF0BEE4F707F
:1002D0000302836D8E828F83740212AB3F85088286
:1002E00085098312A5D3E8F0A3E912D0AFA3A3A395
:1002F000A3A3A3A3F0E5082403F8E435091283724D
:10030000129A153AF583129438F0EE2409FAE43F74
:10031000FB8E828F83A3A312BF6AF5838882E0A23B
:10032000E58E828F83A3A3A3A3A35004740180014D
:10033000E4F0E5082403F88882898312BF26EA12D4
:10034000B2713BF58312EB15122B92129A143B12E9
:10035000BCE78E828F8312BF241234817403122B68
:10036000A9EEFAEFFB9016F9E0F91234B18013F818
:10037000E43FF988828983E0FAA3E0CA227402127A
:100380002BA97F0402283574F21225B08A088B0944
:10039000ECFAEDFB740E122E65E0FC122E6F8A0C47
:1003A0008B0DAE0CAF0DEE4F6030AC08AD09124CAA
:1003B00069E96026AC08AD09EEFAEFFB124C5DE985
:1003C00070148E828F83129F3DFAEFFB124C6FAA3E
:1003D00008AB09122E877900800279B402ADA274AD
:1003E000F01225B074F6122C27EAFEEBFF8C088D74
:1003F00009750FB3851882851983E4F0750E0080A6
:1004000002050E905349E493F8E50EC398400302A9
:10041000850EAA0E7B00122EAB8A0A8B0BEA450BC7
:1004200060DF8A828B83A3A312851528F0F8C3EEC0
:1004300098EF940050CB7C157D007900AA08AB0999
:1004400012348D850A82850B83A3A3A3A312C07ED9
:10045000E0F8EEC3982925E0F8E433F9E50A28F539
:1004600082E50B39F583A3A3A3A3A3A3129A2BA31D
:10047000A3A3A3A312BF4812462D8A0C8B0DAC0C6C
:10048000AD0DAA08AB0912365B850A82850B83A3E2
:10049000E06401700A12CD747401129A3F804474B2
:1004A00001122C07850A82850B8312BF24122E931A
:1004B000E9603D7409122E65E0C0E012CD74D0E011
:1004C000F07409122E65E0640370137401122C0796
:1004D000E508240BFAE43509FB12365B801274013F
:1004E000122E65129E55E50812B86B350912BF46EB
:1004F000850A82850B8312CD80129A3FA3A3E0C0A8
:10050000E0E508241412CD78D0E0F0750F00A90FB3
:10051000740A02D8CBA3A3A3E0F8851882851983B7
:10052000E02274F71225B0E9FE8A828B83A3A3A38D
:10053000A3A3A3E0540860338A828B83A3A3A3A35D
:10054000A3A3E0540260218A828B83A3A3A3A3A365
:10055000A3A3A3A3E06406600F74E96E600A74CDE0
:100560006E600574F06E70031241AD02A6CF74F098
:100570001225B074EF122C27740F122E6512AC00E6
:100580007408122E65E9F0ECFEEDFF7405122E657D
:10059000E4128C0F128884122E7B7406122E6512C0
:1005A000AC007406122E6512B2E07003028831129C
:1005B0009CCCE0FA7406122E65E0F91240278518EB
:1005C0008285198312DD96F8A3E0F9E849700302E9
:1005D0008831EE2403F50AE43FF50BEE2406F50816
:1005E000E43FF5097C00850882F58312BF26850A61
:1005F00082850B83E0F9122E817403122E6512ACF2
:1006000000850A82850B83E0C0E085188285198306
:10061000128892D0E012B3E4F9851882851983120A
:100620008FC612AF30128518FAA3E0CA2407F582EC
:10063000E43AF583E8F0A3E412C53A2406F582E42F
:1006400038F583E412DC9012AACE122B92EE129AA5
:10065000153F12BCE77403122E6512AADD12920D2B
:1006600012BF261234817403122BA97429122E652D
:1006700012C07412837712B3F73A12BF46742B126A
:100680002E65E0C0E085188285198312B2A5D0E0FE
:10069000F07402122E65E4F07425122E65780812AB
:1006A0002E0E0287877403122E6512C12888828954
:1006B00083128879A3A3A312B8A3FB122E99850EE7
:1006C00082850F83A3EAF0A3EBF07403122E651268
:1006D0008892A312887912BAABA2E6500F850E82D7
:1006E000850F83A3A3A3A3A3E0D2E1F07405122E88
:1006F00065E0706A850E82850F83129E5490176A9A
:10070000E0687003A3E0697055850E82850F83A3AE
:10071000A3A31295DC750C00780C122B9A780812A2
:100720002B8E7429122E65E0F50C780C122B9A741E
:1007300027122E651229C19017771229C1790074EA
:1007400019122E6512ACC41243A5740A122BA98586
:100750000E82850F83A3A3A3A3A3E04405F0740234
:10076000122E65E004FC8E828F83A3A3A3A3A3A310
:10077000E0128884122E817403122E6512AC00746C
:1007800002122E65E004F07403122E6512B2E060CE
:10079000687402122E65E0FA7406122E65129E55D8
:1007A000C3EA98E49950527402122E65128BCC85DC
:1007B0001882851983E028F8A3E039F9E8240FF5B9
:1007C0000EE439F50F850E82F583E4F07403122EE2
:1007D0006512DD6EE0640160030286A57405122EC9
:1007E00065740112D8B5F07403122E6512BB9D1208
:1007F0008BF0E8F0A3E90286C98518828519831277
:10080000BF2612402D8518828519831229C17426AE
:10081000122E65E0FD7425122E65E0FC740A122E7E
:1008200065E0F9EEFAEFFB1241A77402122BA980E2
:10083000438E828F83A3A3A3E0C0E0740C122E65C5
:10084000D0E0F012D47FE0C0E0740D122E65D0E04D
:10085000F07406122E6512B2E07009740E122E6545
:1008600074B98007740E122E657410F07409122B7F
:10087000FF12439F741102D8CBE0850E82850F834F
:10088000A3A3A322FAA3E0FB8E828F83A3A3A3E0FA
:10089000F922E012C523A3A3A32274F01225B07499
:1008A000E0122C277405122E65E9F07404122E65EF
:1008B000ECF07403122E65EDF08A0E8B0F7430127B
:1008C0002E65128259AA0CFB12401B7401122E6570
:1008D000E9F0AA0CAB0D1240217402122E65E9F06A
:1008E0007401122E65E07003028BC785188285198A
:1008F00083E480158E828F83A3A3A3A3A3E0D2E316
:10090000F0851882851983E00412D550F885188285
:10091000851983E0C3984003028BBE7401122E65D3
:10092000E07003028BBE851882851983128BCCE59B
:100930000C28F8E50D39F9E8240FFEE439FF8E8222
:100940008F83A3A3A3A3A3E0A2E040B5C2009016A7
:10095000CEE060046401704D8E828F83E070461299
:10096000BF25123EB98A088B09A808A909E8496081
:100970003488828983A3A3A3A3E06401600D8882E5
:100980008983A3A3A3A3E06403701A8E828F83A339
:10099000A3A3A3A3E0D2E7F0D2007402122E65E075
:1009A0007003028901750800750A08750B0074034D
:1009B000122E65E060037508207C087D00790074C4
:1009C00006122BFF12348D8E828F83E060409017C9
:1009D000BAE06401701CE508D2E3F508750B108ECF
:1009E000828F83129E547406122E6512BF4C74FFC0
:1009F000807C43080C750A0C8E828F83A3128BE8CF
:100A000012BF487406122E6574FFF0A3806074054F
:100A1000122E65E06009E508D2E6F508750A0A8E2F
:100A2000828F83A3E064FE7003A3E0F4703074133C
:100A3000122E657404128C0FF8741E122E65E812C3
:100A4000AB3F7413122BFF123E657D007C007900D2
:100A50007416122E65AA82AB83123AF380118E822D
:100A60008F83129E547406122E65E8F0A3E9F07489
:100A700008122E65E508F0129CC3C0E0740A122E1D
:100A800065D0E0F0740B122E657401F07406122B21
:100A9000FF12432D7412122E65E06003028B9074D6
:100AA0000E122E6512B3DF8E828F83A3A3A3A3F051
:100AB000740E122E6512AB00E50AF0A3E50BF0747C
:100AC00004122E65E0C0E012AAAED0E012BAAB600C
:100AD000119017BAE0C0E0740E122E6512AAF6D07B
:100AE000E0F0740E122E65129E55850C82850D83E2
:100AF000A3A3128BD5241C12ABFA12DCA0128BDA42
:100B000012BA613912D48CC0E012AA95D0E012D585
:100B100045C0E0740E122E6512A5C7D0E012D15365
:100B2000C0E0740E122E6512A5BDD0E0F0740E1256
:100B30002E65128BE8A3A3128BFC12D8AA128BD5B8
:100B4000242C12ABFA129CB2C0E012A5B3D0E0F094
:100B5000740E122E6512BF26850E82850F83128BAE
:100B6000DF2428F582E43B12BF46129CBB12EB1532
:100B7000122B9212BCE0EA12C4D43BF58312BF26BA
:100B80001234817403122BA97406122BFF12433303
:100B90008E828F83A3A3A3A3A3E0D2E0F0741212EA
:100BA0002E65E060030288F4A20050087402122E41
:100BB00065E014F07401122E65E0140289007900DA
:100BC000AA0CAB0D1241B3742002D8CBE075F0072C
:100BD000A4F8A9F022A3A3A3A3A312BF2AE822A3E7
:100BE000A3A3A3129E59EA22E0128BF0A3A3A3228F
:100BF000F8A3E0F9850E82850F83A322E0FAA3E033
:100C0000FBE8242AF582E439F583EAF0A3EB22120B
:100C10008C132212CB98E02274F01225B074E812E3
:100C20002C27E9851882851983F08A0E8B0F8A821A
:100C30008B83A3A3A3A3A3A3A3A3E0F91240458A94
:100C4000088B09EA45097003028CECE50E12A6A791
:100C5000129CE71296B0851882851983E060030222
:100C60008CEF7C04850E82850F83A3A3A3A3A3A38B
:100C7000A3A3E0F912404BEE4F60718E828F831276
:100C80009E517407122E6512CB8C129E5574091258
:100C90002E6512BDA4C0E07411122E65D0E012D0F2
:100CA000BDA3129E4F740F122E6512BF487412120C
:100CB0002E65E412D8BDC8241FF582E438F58312EE
:100CC000A6B3C413135403FC70027C048E828F837A
:100CD000E0F97808122B96742059FD744059F97484
:100CE00003122BFF1241A77402122BA902D8C97C50
:100CF00008850E82850F83A3A3A3A3A3A3A3A3E0C8
:100D0000F912404B8B0BEA450B7003028C77EE4FC8
:100D100060DA851882851983E0F50C780C122B9A1D
:100D2000850882850983A3A3A3A3A3A3A3E0F50C4D
:100D3000780C122B9A8A828B83A3A3A3E0FB8A826E
:100D4000850B8312DD558A82850B83E0FA8E828FB4
:100D500083A3A3E0F9124D357402122BA9028C7BF8
:100D600074F71225B074FA122C27E9FE7801790184
:100D70007F00800379000F12AE29E0FCEFC39C5086
:100D800026EF75F007A4FC85F008AD08EA2CFCEB13
:100D90003DFD12A431E0A2E050DA540C60D6E0A28E
:100DA000E250D3780080CF8A828B83A3A3A3A3A32E
:100DB000A3E0703DE9A2E0400574016E70338A82C1
:100DC0008B83A3A3A3A3A3A3740112A49BE0C0E0FD
:100DD0007403122E65D0E012A493E0C0E0740412F4
:100DE0002E65D0E0F07405122E65E812C24B124356
:100DF0009F740602A6CCC082C08379011241B3025F
:100E0000BBAD74F41225B0EA4B901A0C6022E4F0EA
:100E10008A088B09F50AF50B7808122B8E7A027B6B
:100E2000009016F9E0F912360D7404122BA9800F08
:100E30007401F07A027B009016F9E0F9123619027B
:100E4000838274F01225B074F3122C277403122ECF
:100E500065E4F0A3F09017181296B07401122E6595
:100E6000E4F0A312AB3204F0901764E0A2E3500365
:100E7000028F3D123631EAF8EBF9ECFAEDFB74091A
:100E8000122E65122E4E7409122E657808122E0E3F
:100E900090171A7808122C0F7405122E6578081214
:100EA0002DFF128FBA7405122E657808122DA050EE
:100EB000077A017B00028FAE7405122E65780C1242
:100EC0002E0E9019FCE0F509780C7908122541A83E
:100ED0000CA90D9019FDE0C398E4995003E080013E
:100EE000E8851882851983F07409122E6578081236
:100EF0002E0EC008C009C00AC00B7405122E6578FA
:100F00000C122E0E128FBA780C7908122541E4F5D6
:100F10000AF50BD00FD00ED00DD00C780C7908123A
:100F20002CA890171A780C122DFF8011128FB31273
:100F3000BF48EEFAEFFB12354DAE08AF09EE4F6039
:100F4000658E828F83128515C398502DEE2403F889
:100F5000E43FF9E0FA88828983E0C39AF060237461
:100F600003122E6512A1787401122E65EEF0A3EF24
:100F700012C542FEA3E0FF80C48E828F83A3A3A389
:100F8000E4F08E828F8312EAD97401122E6512B2B8
:100F9000E08E828F83A3A3A3A3609112CB5E122E57
:100FA00065128FC680897403122E6512BF26740DD8
:100FB00002D8CB129E59901718229019FB12EAE121
:100FC000E4F50AF50B22128FCDA3A3A322E0FAA326
:100FD000E0F5838A82A32274F01225B08A088B0977
:100FE000890A780079009017181296B012ACA9609F
:100FF0001E088E828F83A3A3A3A312ACAC6010083B
:10100000E87001098E828F831296ACEE4F70E390E8
:1010100019FE12BF26C3E89AE99B40030290C87AE2
:10102000067B001235478A0C8B0DA80CA90DE849E8
:1010300070030290C888828983E508F0A3E509124D
:10104000A4AAA3E50AF012824C88828983A3A3A3F1
:10105000A3E4F0A3F012ACA9600D8E828F83A3A34A
:10106000A3A312BF48801F90171812BF489017649F
:10107000E0A2E34011123631EAF8EBF9ECFAEDFBAD
:1010800090171A122E4E901764E0A2E3503A7A0895
:101090007B009016F9E0F912361FEA4B4C4D702890
:1010A0009019FBE0F508A3E085080CF50DE4F50EBA
:1010B000F50F780C122B8E7A087B009016F9E0F968
:1010C0001236137404122BA902D8CEC082C083E951
:1010D000901A0DF090171274E9F0A37441F0901774
:1010E0001474FBF0A37441F0901716740DF0A37400
:1010F00042F002BBAD74F71225B0EAFEEBFF89089F
:10110000EE4F7003122EE790171E12B2E070089097
:10111000171E801E129E5588828983A3A3A3A3A3B2
:10112000A3A3A3A3129E5EA3A3A3A3A3A3A3A3A36A
:1011300070E2EEF0A3EF129148A3A3A3E4F0A31290
:101140009148E508F002A6CF12CB942274F712253D
:10115000B0E9FD90171E800D88828983A3A3A3A305
:10116000A3A3A3A3A312B2E0603488828983A3A3BC
:10117000A3A3A3A3A3E06D70DF88828983A3A3A3A5
:10118000A3E06A7003A3E06B70CE88828983A3A377
:10119000A3A3A3A3E06C70C0E8FAE9FB80047A0083
:1011A0007B0002A6CF74F71225B090171E1296B0DE
:1011B00090171E128BE3687002EB697019E0C81279
:1011C000920D129E5590171E12BF4890171E129630
:1011D000B080301296A3EE4F60298E828F83A3A336
:1011E000A3A3A3128BDF687002EB6970E68A828B7F
:1011F00083A3A3A3A3A3A3A3A3A312A5D3A3A3A33E
:1012000012BF4812354DEEFAEFFB02A6CF2409F5C6
:1012100082E438F5832274F01225B074F9122C2779
:101220008A0C8B0D8A828B83A3A3A3A3A3A3A3A35E
:10123000E060336401602F8A828B8312BF261246DE
:10124000CFE97022850C82850D83A3A3A3A3A3A35A
:10125000A3A3E0640370147402122C07AA0CAB0D54
:1012600012429DE97016790202942B850C82850D3D
:1012700083129E557402122E6512BF48E50C24118C
:1012800012DC98243412BFCE1235478A088B09AE7F
:1012900008AF09EE4F70030294297C347D00790079
:1012A00012348DAA18AB19850C82850D83A3A3A3D4
:1012B000A3A3A3A3A3A3E0F9124CE7851882851981
:1012C00083E0C0E0129430D0E0F0EE242EF50EE47E
:1012D0003FF50F7401122E65E0850E82850F83F0B5
:1012E0007901EEFAEFFB1241D7850C08850D0975DF
:1012F0000A007808122B927C1E7D00EE240BFAE483
:101300003FFB1234817403122BA9EE2432FAE43F1E
:10131000FBEE2434F8E43FF98A828B8312BF48E560
:101320000C2411FCE4350DFD8C828D8312AF2B242F
:101330003012BF42E50C12A44312DCB512EB0712C7
:101340002B928C828D8312DD568A828B8312BF266C
:101350001234817403122BA97402122E65129A1F83
:1013600012BF489016FA129438A3A3A3F09016FA6D
:10137000E004F01236318E828F8312A5E6242CF819
:10138000E43FF9E8FAE9FB7508FF750900850E826C
:10139000850F83E07808122D308A828B83E508F070
:1013A000EE242B1297CB7404122E65E4F0E50C2486
:1013B0001512DC98A2E074055007122E65740180A6
:1013C00004122E65E4F0EE2429F508E43FF50974D3
:1013D00004122BFF124D05E924FE8508828509833E
:1013E000F0EE24301297D512943F12235BE88E82E0
:1013F0008F83A3A3A3A3A3A3A3A3F012943F1223B9
:101400005B8B09EA4509600F8E828F83A3A3A3A398
:10141000A3A3A3A3E004F0EE242012B733440812E0
:101420009D1B1234E7790080027910740702D8CB33
:10143000EE12C4D43FF5832212D0B6A3A3A3228C0C
:10144000828D8312B884E0FA7B002274F41225B0F6
:10145000EAFEEBFF1236318E828F8312AC009019B8
:10146000F1E0F8EE242D12B733C39840030295B98A
:101470001295CB7012EE242D12B7330412AE72C047
:10148000E01297C1D0E0F012AE31FA790080010984
:10149000EE242E12B733F8E9C3985026750801756B
:1014A0000900E97808122D301295CB550860E0E963
:1014B0002AFA750801750900E97808122D30E0450F
:1014C00008F0EE242912B733FBEE2430F582E43F16
:1014D000F583EA8BF0A4F8ACF0E42CF9E098F8A3DB
:1014E000E099F9EBFCC3E89CE99400EE4031242933
:1014F00012B733F81295CB602C1294301295DCA3FE
:10150000E4F0EA7047EE242012B733442012BDA85D
:10151000C0E012AE60D0E012AE6AFCA3E0805512CB
:1015200097C274FFF090175AE0FC9019F41295D30B
:10153000ADF075F064A4FCABF075F064EDA42BFD88
:101540008E828F83A3A3ECF0A3ED80B5EE2420124E
:10155000B73354DF12AE5BEAF0FCEE2429F582E4E7
:101560003FF5831295D3FCADF0EE243212B7332C45
:10157000FCA3E03DFD12D526ECF0A3ED12CD95C005
:10158000E0EE2425F582E43FF583D0E0F0EE241C64
:10159000F582E43FF583E812AB3F90172012B2E0EA
:1015A000600BEAF912E618122796E9701BEE240B7D
:1015B000FAE43FFB124273800F7BE91297EE124D63
:1015C00041EEFAEFFB1241E3028382EE242B12B7C5
:1015D0009BF422E0F508EC8508F0A42212D0B6A313
:1015E000F02274F41225B090171E1296B012363104
:1015F0008A0A8B0B78FF79FF8020E0C39AFCA3E076
:101600009BFDC3EC98ED99500E8E828F83A3A3E0CF
:10161000C39AF8A3E09BF91296A3EE4F60598E820D
:101620008F8312BF26E50AC39AFAE50B9BFB8E82D5
:101630008F8312DD54C3EA9CEB9D8E828F83A3A31C
:1016400040B8A3A3A3A3E064027017129CD860095A
:10165000129CCC12BF261234ABEEFAEFFB1241E320
:101660008007EEFAEFFB1241EF7A017B00901A0D32
:10167000E0F91234E7802974FF68700374FF696031
:101680001F88088909E4F50AF50B7808122B8E7A71
:10169000017B00901A0DE0F912360D7404122BA98B
:1016A0000283828E828F83A3A3A3A3A3A3A3A3A356
:1016B000E0FEA3E0FF2274F31225B08A088B09EC48
:1016C000FAEDFB890C7C01E50824111297DE12412A
:1016D000DD8A0A8B0BAE0AAF0BEE4F70030297BC8C
:1016E000E50C60030297BC12CD741297E8686003A2
:1016F0000297BC12AE1F12B7568E828F83A3A3A38C
:10170000A3A3A3A3A3E0FAE89AE99400C365D033A6
:10171000401CE508241412B743F470127B001297A2
:10172000EE124D41EEFAEFFB1241E30297BCE508E1
:10173000241412B743F47043EE242BF8E43FF9E885
:10174000FAE9FBEE242E1297D57508FF7509008C77
:10175000828D83E07808122D308A828B83E508F031
:10176000EE242C1297CB8C828D831297E828F0EE12
:10177000242DF582E43FF583E48021E5082414F864
:10178000E43509F9E0C0E0EE242CF582E43FF5836E
:10179000D0E012BF30C0E01297C1D0E0F012363175
:1017A0008E828F8312A5E612943112B74CA312AB2E
:1017B0003F7A01FB901A0DE0F91234E77F05022809
:1017C00035EE242BF582E43FF58322F582E43FF5E4
:1017D00083E508F022F8E43FF9E8FCE9FD22F58210
:1017E000E43509F583E0F922E0F812AE3522EE2463
:1017F0002212B79BFAEE241412B79BF92274F0124E
:1018000025B074FB122C277403122E6512AB1CE951
:10181000851882851983F08A0A8B0B8A828B83A3B1
:10182000A3E0F9124D118A0E8B0FEA450F70077A6B
:10183000007B00029A067A127B001235478A088BD9
:1018400009EA45097003029A027C127D00790012B0
:10185000348D7401122BFF850A82850B83A3A3E0CC
:10186000F9124CE7E508240FFEE43509FF74021273
:101870002E65E08E828F83F07902AA08AB091241AF
:10188000D77403122E6512C51E129A2B129A392490
:1018900011129A0B850882850983A3A3A3A3A3A38E
:1018A000A3F0750CFF750D008E828F83E0780C120B
:1018B0002D30E508240C12CD78E50C12D8A512E6DF
:1018C00016E0C0E0E508240B12CD78D0E0F0E50A80
:1018D000129A15129A0EFAE508240D12CD78EAF044
:1018E000E50A12A443129A0E8AF0A4A9F02427FA5A
:1018F000E439FB1234A58A0C8B0DAE0CAF0DE50854
:10190000241012CD7812A478EE4F70030299F58E50
:10191000828F83741A12AB3F8E828F83A3A3F0A3AE
:10192000129A4D129A1F12CB86122E6512DD561294
:10193000D52E124CED850A82850B83A3A3A3E0C0AC
:10194000E012B737D0E0F090177712AF2B241012C7
:101950009A3312A40F350BF58312AF2B12C240E855
:10196000F0A3E9129A4D12AF2712D480E8F0A3E950
:10197000129A3FE0C0E0EE2414F582E43FF583D0F4
:10198000E0F0E50A240C129A0BC0E0EE12A40F3F1F
:10199000F583D0E0F07415122E6512BA74E0C0E041
:1019A00012DA53D0E012CD90C0E012D473D0E0121E
:1019B000A4A4C0E012AAB8D0E012B2E5C0E012AA16
:1019C0009FD0E0F07417122E65122E42EE241AF505
:1019D00082E43FF583122E4EEE2427F8E43FF9EE21
:1019E0002422129A3312BF14129A0EC0E012D53676
:1019F000D0E0F0800DAA08AB091241E3750800752C
:101A00000900AA08AB09740502D8CBF582E4350BAE
:101A1000F583E022EA129A19222410F582E42212B8
:101A20009A232212ACBAA3A3A3A32212B884A3A31D
:101A3000A3A322F582E43FF58312AB5BE50A2212F1
:101A40009A4322F0850A82850B83A3A322129A432C
:101A5000A3A3A3A32274F01225B074FE122C278531
:101A6000188285198312AB1C8A0E8B0F890DC20058
:101A7000EA129CDEE0F50C90172012B2E0600EA98D
:101A80000C12E618122796E96003029CAD7C021244
:101A90009CFA129CB2F91241DD8A088B09AE08AF9C
:101AA00009EE4F7058850E82850F83A3E0A2E040B7
:101AB00003029CAD7414122E651229B97416122EED
:101AC000651229C1A90D7406122E6512DD56AA0EE3
:101AD000AB0F1242017406122BA98A088B09AE08BB
:101AE000AF09EE4F7003029CAD8E828F83A3A3A338
:101AF000A3A3A3A3A3E50C129D1B1234E7AA0C8E8B
:101B0000828F83A3A3A3A3A3A3A3A3E024FFF8E44A
:101B100034FFF9E86A497002D200129CD8700302BF
:101B20009C69850E82850F83A3E0A2E05003750CAB
:101B300000129D08E50C98E499C365D033401CE081
:101B4000F8EE240E12B7332CF07508FF750900E883
:101B50007808122D30EE240C1297CB129CBB12EB9E
:101B600015122B9212BCE0EE240D12B733F508E5E6
:101B70000C8508F0A4FAABF012AADA2422F582E46C
:101B800038F583E02AFAA3E03BFB12348174031298
:101B90002BA9750801129CEC7808122D3012B73071
:101BA0004508F0A200506DEE240CFAE43FFB7508E6
:101BB000FF129CEC047808122D308A828B83E0455A
:101BC0000812AB2AF8E50CF508E88508F0A4F8A996
:101BD000F0129CC3FCE82CFCE439FD12AADA2420A4
:101BE000F582E438F583ECF0A3ED12BBA3F4702486
