:020000040000FA
:10000000021305022003FFFFFFFFFF02200BFFFF8B
:10001000FFFFFF020E67FFFFFFFFFF02201BFFFF36
:10002000FFFFFF022023FFFFFFFFFF02202BFFFF48
:10003000FFFFFF022033FFFFFFFFFF020EAAFFFFBB
:10004000FFFFFF022043FFFFFFFFFF02204BFFFFE8
:10005000FFFFFF022053FFFFFFFFFF02205BFFFFB8
:10006000FFFFFF022063FFFFFFFFFF02206BFFFF88
:10007000FFFFFF022073FFFFFFFFFF02207BFFFF58
:10008000FFFFFF022083FFFFFFFFFF02208BFFFF28
:10009000FFFF70DFFFFF040000000002000000C847
:1000A0000300030369A5020269A501000000000026
:1000B00004003273000074F812104C900393E06057
:1000C0001590030274FEF0900304744DF0A37405C0
:1000D000F07A0112068C7F0102116974F712104C3C
:1000E00074FF1212717E00801F851882851983E0CB
:1000F00064FE70069003877401F085188285198369
:10010000E0F8900384E068F07C017D00AA18AB1948
:10011000120E228B09EA450970030201F385188249
:10012000851983E064EF70027E07E0C0E0900387EA
:10013000E0FA900385E0F8EA28F8E43400F9740264
:1001400028F582740339F583D0E0F0900387E060EE
:100150009814600E14602C14603C14605214606893
:100160008098900384E4F0851882851983E09003D9
:1001700086F0C394809003874004E40200F974027F
:100180000200F9851882851983E0900382F09003BC
:100190008774030200F9851882851983E090038330
:1001A000F0900386E0601990038774040200F990D0
:1001B0000385E004F0F8900386E06860030200FA2B
:1001C00090038774050200F9900385E4F09003879B
:1001D000F0900384E0F8851882851983E068600355
:1001E0000200FA900382E0644D60030200FA1203F9
:1001F000288002EEF9740112123D7F020211697427
:10020000F712104C74FB121271EAFEEBFF75080432
:1002100075090078081212D574021212EE7A907BDA
:10022000007904120ECB740212123D12067E1213D4
:100230003FE0687003A3E069701285188285198316
:10024000E0F47003A3E0F4600302030874041212E4
:10025000E61206E48A088B09A808A9097402121399
:100260003FE8F0A3E9F0740412133FE0600879015D
:100270001200B6020321851882851983E068700395
:10028000A3E0697076851882851983E0F47003A372
:10029000E0F47019740212133F7410F0A37420F08C
:1002A0008518828519837410F0A37420F0750801F5
:1002B00075090078081212D574021212EE7A247BA6
:1002C00008120F4F740212123D75080478081212BA
:1002D000D574021212EE7A907B007904120ECB7460
:1002E0000212123D12067E12133FE0687003A3E073
:1002F000697004790280067904800279031200B6DD
:100300008E828F83741E80058E828F83E4F01206A6
:100310007E12133FE0687003A3E0697004790180E6
:1003200002790074050201F774E912104C74F81296
:100330001271900307E0FA900306E0F9FEEAFCE48C
:10034000CCFDEE2CED3408FF751001750F00750E15
:10035000068E088F097402780812129CC39508FC57
:10036000E49509FD74022CF51474033DF515E514AC
:100370002497F516E5153420F517EE2410F508E45A
:100380003FF509EEF50CEF5401F50D8E128F137445
:100390000978121212F685120A900383E01460574E
:1003A00014700302046F1470030204E61460102436
:1003B000FE70030205A11470030206510206617566
:1003C0000E03794E120C619003071206747402F04A
:1003D000A374401206727408120672F0A3F0741827
:1003E000C3940704F510AA10A90F12068CA90E7465
:1003F0000812123D02083E750E04794E120C61EE91
:10040000450D7005A90A120FB5C3EE9425EF9408A7
:10041000503FC3E5089424E50994084034E51424CA
:1004200096F8E5153420F988828983E0701E8516D8
:1004300082851783E070159003887401F0888289A3
:100440008374A5F08516828517838004900388E461
:10045000F075081075090078081212D57C087D0324
:10046000EEFAEFFB120F4F740212123D0203E67513
:100470000E05C3E50A947995E04006750F01020365
:10048000E675104075110078101212D57C097D03B5
:100490007402780C12129CAA0CAB0DA90A120ECB96
:1004A000740212123D900307E0A3F0900306E0A34C
:1004B000F0751043C3EE9425EF940840030203E661
:1004C000C3E5089424E509940850030203E6900369
:1004D00088E070030203E6A816A91788828983E4DE
:1004E000F0A3F00203E675080475090078081212FB
:1004F000D574021212EE7A907B007904120ECB743E
:100500000212123D740212133FE0F8A3E0F98518BD
:1005100082851983E0687003A3E0698518828519D4
:1005200083700BE0F47003A3E0F470578009E0F4EB
:100530007003A3E0F4700D8518828519837410F0A0
:10054000A37420F012067E12133FE8F0A3E9F075C1
:10055000080178081212D574021212EE7A247B0870
:10056000120F4F740212123D75080478081212D54A
:1005700074021212EE7A907B007904120ECB740290
:1005800012123D12067E12133FE0687003A3E06969
:100590007006750E010203E6750E02750F07020361
:1005A000E6900391E06007640260030203E6EAFF5D
:1005B0007A01790012068CE060030206458003127E
:1005C0000D22120D2CE970F7740412133F12066607
:1005D000740412133F780812132385080C85090D43
:1005E000850A0E850B0F9005A2780C1212C27404B6
:1005F00012133F780C121314E5084509450A450B00
:1006000070CE8EC2E5C554E04FF5C5740412133F99
:10061000120666740412133F780812132385080C1F
:1006200085090D850A0E850B0F9005A2780C121214
:10063000C2740412133F780C121314E508450945DF
:100640000A450B70CE7A01790012068C79080203F4
:10065000EFE9900393F070030203E6750E090203BD
:10066000E679060203EFE4F0A37426F0A3E4F0A316
:10067000F022F0A3E4F0A3F0A3F0A3F0A3228518E6
:1006800082851983E0F8A3E0F974022274F812104D
:100690004CEAFE900305E0D2E7F0E9A3F0EE900308
:1006A00003F08E0874042AFE7C028004E062080CC9
:1006B000ECFA3395E0FB74022AF58274033BF58370
:1006C000EEF8C3EA98EB9400A2D265D03340DDE5A2
:1006D00008F074012A0C3395E0FD7A027B03120EB8
:1006E000520200D674E912104C7582007583FE1216
:1006F00012048A168B177514007515008A828B8375
:10070000E4F0900391E07006D2AAD2AF80046402B4
:10071000700579001200B6750C00750D20750E007D
:10072000750F00900391E0600464027015120D22B1
:100730001200DBE9F87409686003020814790012FA
:1007400000B675080075090278081212D5740212F5
:1007500012EE850C08850D09AA08E5095407FB85EA
:100760000E0A850F0B740B7808121258A908120E86
:10077000CB740212123D7E007F009005AAC0828ECB
:1007800010EFF5113395E0F512F513850C08850D82
:1007900009850E0A850F0B780879101212AF9005A3
:1007A000A678081212C2758305D08278081211E566
:1007B000501D851882851983E5822EF582E5833FD9
:1007C000F583E0F9AA14AB151208438A148B150EB1
:1007D000EE70010FC3EF940240A09005AE780C12AA
:1007E00012C29005B2780C1211E54003020723797A
:1007F00000AA14AB1512084379001208438B159018
:100800000391E07004C2AFC2AAEA451570277AA529
:100810007BA58021E870030207427406687003021A
:1008200007427407687003020742851682851783A2
:100830007401F080BA7582007583021212047F1071
:10084000021169C008C0097C088A088B09740F78F6
:10085000081212F6E508F8EA25E0FAEB33FBE9A204
:10086000E7500474014AFAE8A2E0500874216AFAD9
:1008700074106BFBE9C333F91CEC70CDD009D008C0
:100880002274F812104C78007900802274942EF5AE
:1008900082E43403F583E08A828B83F0900414129F
:1008A0000A014005900414E4F008E870010990047E
:1008B00014E0FEA3E06E6007C3E89CE99D40CDE82C
:1008C000FAE9FB7F0102116974F712104C90049849
:1008D000E0F509A3E0F508F8E509C398F895E0F913
:1008E000E508C39509E8500B120AE3701178007906
:1008F00000801B247F500109C39CE99D50EF7A00C2
:100900007B008041E004F0D2E908E8700109C3E807
:100910009CE99D502C8A828B83E0C0E0900499E092
:10092000FE74182EF582E43404F583D0E0120AD365
:1009300090049AE4F0900499E0C3947F40C6E48068
:10094000C5E8FAE9FB7F02021169C082C083C2E9EF
:10095000900498E0F8A3E0686017741828F582E422
:100960003404F583E0F5C1900498120AFA4002E4D9
:10097000F0020D4074F812104C7800790090051DBB
:10098000E07055A3E0705175F900C28FC284A28354
:1009900040FCA28F4004A28350F8AEF9C28FA2831C
:1009A0005004D2848032EEC0E0E0FE1209F6D0E0BE
:1009B000F090051E120AFA40D9E4F080D51209F62B
:1009C000E08A828B83F090051D120A014005900594
:1009D0001DE4F008E870010990051DE0FEA3E06E3B
:1009E0006007C3E89CE99D40D4E8497006E4F090B4
:1009F000051DF00208BF749D2EF582E43404F583D2
:100A000022E004120AD7C394802274F812104C908A
:100A100005A0E0FEF890059FE0FFEEC39FE0500DBB
:100A2000C398F895E0F9120AE270188012C398F89A
:100A300095E0F9E8247F500109C39CE99D4004EC4E
:100A40004D70077A007B00020AD08A828B83E0F522
:100A5000F9A3AA82AB83780179008008E004F0084A
:100A6000E8700109C3E89CE99D50278A828B83E0E6
:100A7000C0E09005A0E0FE741F2EF582E43405F579
:100A800083D0E0120AD39005A0E0C3947F40CDE468
:100A900080CCC28FA28340FCC284A28F4004A28378
:100AA00050F890059F120AEDE0F5F9C28F90059F6E
:100AB000E0FAA3E06A90059F7005120AED80051226
:100AC0000AFA4002E4F0A28350D0D284E8FAE9FBAB
:100AD0000208C3120AD722F08A828B83A3AA82ABB0
:100AE0008322E824FF18E934FFF9E84922E0FA7488
:100AF0001F2AF582E43405F58322E004F0C39480D4
:100B00002274FB121271C2009005CA7808121323D6
:100B10009005CA7401F0A3F0A37469F0A374A5F062
:100B20009005B678081212877004D20080159005DF
:100B3000BA78081212876008E59D54186410700393
:100B4000022000120C87A2005003020C04AA18AB6A
:100B5000191201FFE97003020C04851882851983BC
:100B6000E0C3943C500CE0F8743CC398FA95E0FB69
:100B700080047A007B00120D45E97003020C04909A
:100B80000391E06401700C75F800C2AB539AF7D280
:100B9000EA805E79071200B68003120D22120D2C36
:100BA000E970F7740112133FE4F0A37426F0A3E494
:100BB000F0A3F0740112133F780812132385080C78
:100BC00085090D850A0E850B0F9005A2780C12126F
:100BD000C2740112133F780C121314E5084509453D
:100BE0000A450B70CE758600C2AAC28B539AFBC20F
:100BF000E990000174CDF0022000C2AF75C9AB7559
:100C0000C95B80FE750800750900750A00750B0048
:100C1000900391E0701BD2AAD2AF79051200B6E022
:100C20007003120D221200DBE9F874096870098064
:100C3000E9794E120C6180ED74016870E2E0701782
:100C4000120D229005BE78081212C29005C27808D3
:100C50001211E550EBC2AAC2AF75C9AB75C95B8072
:100C6000FEC082C08378109005A1E0C3995015752D
:100C7000B60FE5B4A2E750FAE5BBC39940F118E816
:100C800070EDE9F0020D40C082C08353BEFBE59DCC
:100C9000A2E650FA0078F8790100120AE270FA75BB
:100CA000C6807480659E70FA43BE049062707408BA
:100CB000F0794A120C6190000174F5F07403F5D5D7
:100CC00075D489A2A0E433900391F0A2E05029D218
:100CD0008453F3F753F3EF53FDF743FD10538FF7AE
:100CE00053F7DF43FC2043F10253F5DF75F820434F
:100CF000F4F0D2FED2AB802853FF3F85FFFF53F1C3
:100D0000FE43F30C53F2F375868075C48090049B08
:100D1000E4F0A3F075C2D875C50B75C402438640D4
:100D2000801E800312094AA2E940F922C082C083D2
:100D3000900498E0F8A3E0686004790180027900EB
:100D4000D083D0822274F112104C74FF1212717E83
:100D500000900391E06401706CC28490039274016E
:100D6000F07508388E098E0A8E0B7C017D00AA185A
:100D7000AB19120E228B0DEA450D6018851882857D
:100D80001983E06410602DE064EF70088E088E090E
:100D90008E0A8E0B85080C85090D850A0E850B0FB2
:100DA0009005A278081212C2E50C450D450E450FBC
:100DB00070347E01900391E064017056D2849003F8
:100DC00092E4F08051D2AAD2AF8A088B09E4F50AE6
:100DD000F50B9005C6780C1213237808790C120FC6
:100DE000CC79061200B6900391E06003020D6A12FE
:100DF0000D221200DBE9F874096870077906120009
:100E0000B680917407686084E8608974066870A48D
:100E10008082C2AFC2AAEEF9740112123D7F0802AD
:100E20001169C082C083900391E07005120881802F
:100E30001E900392E06015A28F500BE5F98A828B19
:100E400083F07A0180027A007B0080031209740229
:100E50000D40C082C083900391E070051208C880E5
:100E600003120A0A020D40C0E074F21210B29000A0
:100E700001E064CD7005122013802AE064F570242F
:100E8000E5C1C28BC0E0900415E0F8749428F582A7
:100E9000E43403F583D0E0F0900415120AFA40051B
:100EA000E4F08001007F01021111C0E074F2121021
:100EB000B2900001E064CD700512203B800BE0642D
:100EC000F5700512094A80010080DA74F612104CA0
:100ED000890A740F550AF508750900740B78081211
:100EE000129CEA2400F8EB3480F9E82400E9350983
:100EF000F985C709A2AFE433F508C2AFE50AC454C7
:100F00000FFAE5C754F84AF5C7740A12133FE0FA1E
:100F1000A3E0FB801C88828983E08C828D83F0882B
:100F2000828983A3A882A9838C828D83A3AC82AD9E
:100F300083EAFEEBFFEE24FF1AEF34FFFBEE4F7067
:100F4000D48509C7E508A2E092AF7F030211697456
:100F5000F712104CED900389F0ECA3F0A37462F04B
:100F6000A37473F0A3E0541FF0740912133FE0F56B
:100F700008A3E0F509E508333354FC90038EF074C0
:100F80000678081212F6E50890038DF090038F742E
:100F900012F0A37442F075D1FE75D601EA90627129
:100FA000F0EBA3F0906270E0D2E1F0E0A2E740FB4A
:100FB0007F02021169C082C083E9C333906272F07C
:100FC000906270E0D2E0F0D083D08222080808EA74
:100FD000C0E0EBC0E086F0E7A4FA180986F0E7A4C9
:100FE0002AFA180986F0E7A42AFA180986F0E7A475
:100FF0002AFA1986F0E7A4FBE5F02AFA190886F028
:10100000E7A42BFBE5F03AFA190886F0E7A42BFBDE
:10101000E5F03AFA18180986F0E7A4C5F02BFBE4CE
:101020003AFA1908E7C5F0C6A426F6E5F03BFBE45A
:101030003AFA1886F0E7A4F6E5F00826F6E43B084D
:10104000F6E43A08F6D0E0FBD0E0FA222518C58293
:10105000C0E0E51934FFC583C0E0E518C3958224DC
:10106000F910AF0885831985821880088583198552
:101070008218D2AFCEF0A3E520F0A37808E608F0FE
:10108000A3DEFAEFF0A3E58124FBF8E608F0A3E67F
:1010900008F0A30808E608F0A3E608F0A3158115F8
:1010A00081D0E0FED0E0F815811581E8C0E0EEC007
:1010B000E022C0D02518C582C0E0E51934FFC58301
:1010C000C0E0E518C3958224F310AF088583198525
:1010D00082188008858319858218D2AFC8F0A3E9E9
:1010E000F0A3EAF0A3EBF0A37908E709F0A3D8FA9C
:1010F000ECF0A3EDF0A3EEF0A3EFF0A3D0E0F0A3AB
:10110000D0E0F0A3D0E0F0A3E520F0A3E5F0F0A359
:1011100022851983851882E0C0E0A3E0F9A3E0FAF4
:10112000A3E0FBA37808E0F608A3DFFAE0FCA3E065
:10113000FDA3E0FEA3E0FFA3E0C0E0A3E0C0E0A3C6
:10114000E0F5D0A3E0F520A3E0A3F5F010AF08850B
:1011500083198582188008858319858218D2AFD0BB
:1011600082D083D0E0F8D0E032851983851882E000
:10117000A3FEE0A3F5207808E0A3F608DFFAE0A3D9
:10118000FFE0A3C0E0E0A3C0E0E0A3C0E0E0A3C0B4
:10119000E010AF088582188583198008858218853C
:1011A0008319D2AFD083D08222E490030278A17950
:1011B000038002F0A3D8FCD9FA7AA27B0590008EB6
:1011C000782979018015E493A3AD82AE838A828B5E
:1011D00083F0A3AA82AB838D828E83D8E9D9E712EC
:1011E0000B01121349C008C3E096F50808A3E09666
:1011F000420808A3E096420808A3E096450870015B
:10120000D3D00822C5822518C582C583351910AFF1
:1012100007F5198582188007F519858218D2AFC5A0
:1012200083222518F58210AF08F518400C15198097
:1012300008F51840021519D2AF8519832200C0D0D5
:10124000251810AF08F518500C05198008F518502E
:10125000020519D2AFD0D0226016080808C6C31301
:10126000C618C613C618C613C618C613C6D5E0EAF4
:1012700022251810AF08F518400C15198008F5182C
:1012800040021519D2AF22E066701008A3E0667024
:101290000A08A3E066700408A3E0662270042260D6
:1012A0000D18C6C333C608C633C6D5E0F41822E607
:1012B00027F60809E637F60809E637F60809E6379B
:1012C000F622E026F608A3E036F608A3E036F60894
:1012D000A3E036F62274028000C0E0F40412122269
:1012E000D0E0121332222518FAE43519FB22251812
:1012F000FCE43519FD22600C08C6C313C618C613DA
:10130000C6D5E0F42275D00075813F7518027519B5
:10131000030211A9E6F008A3E6F008A3E6F008A38B
:10132000E6F022E0F608A3E0F608A3E0F608A3E062
:10133000F622CAC0E0E6F0A308DAFAD0E0FA2225E5
:1013400018F582E43519F5832200000080FBFFFFC9
:10135000FFFFFFFFFFFFFFFFFFFFFFFFFFFFFFFF9D
:10136000FFFFFFFFFFFFFFFFFFFFFFFFFFFFFFFF8D
:10137000FFFFFFFFFFFFFFFFFFFFFFFFFFFFFFFF7D
:10138000FFFFFFFFFFFFFFFFFFFFFFFFFFFFFFFF6D
:0A1FF600CA05094338860000000008
:020000040003F7
:01FFF000F020
:020000040000FA
:10200000022C7A022219FFFFFFFFFFFFFFFFFFFFF5
:10201000FFFFFFFFFFFFFFFFFFFFFFFFFFFFFFFFD0
:10202000FFFFFFFFFFFFFFFFFFFFFF022A06FFFF8B
:10203000FFFFFFFFFFFFFFFFFFFFFFFFFFFFFFFFB0
:10204000FFFFFF022775FFFFFFFFFFFFFFFFFFFFFF
:10205000FFFFFF022153FFFFFFFFFFFFFFFFFFFF17
:10206000FFFFFFFFFFFFFFFFFFFFFF022920FFFF32
:10207000FFFFFFFFFFFFFFFFFFFFFFFFFFFFFFFF70
:10208000FFFFFF0221AA01FFFFFFFFFFFFFFFFFF8E
:10209000102010200100F8FE0700000100FFFF00E3
:1020A00000030400000F0100000300019651180016
:1020B000020000E331000000005F316132B3312BD8
:1020C000320000893100000000000000000000958F
:1020D0003100000000000000000000A13106FFFFF9
:1020E000FF010400000618000000E8030000FFFFE5
:1020F000D618018813000003E803000064006400A0
:10210000B801A0BB0D00A0BB0D0002020207040134
:102110000101051E02051E020A0A01010809080143
:1021200003B80B02803E0102FEFFE8030A0500012E
:10213000FFFF0A011401E00105030101FF0F10FE7A
:10214000FF504E00000000864D00000000FF000020
:1021500000FF00C0E074F2122595A2AFE433F50849
:10216000D2AFAFA7AEA1EE5F54106006122EDD75A0
:10217000A1EFEE5F54086008122EE375A1F78023EB
:10218000EEA2E092F0EFA2E082F05017906198E0AA
:10219000F890093BE0C398A2D265D0335002E8F032
:1021A00075A1FE751A00E5088066C0E074F212257C
:1021B00095A2AFE433FED2AF9061A4E0F8759B0026
:1021C000E59158540860087591F7122F318023E586
:1021D0009158541060087591EF122F378014E591D3
:1021E000A2E092F0E8A2E082F05007E0C2E0F01234
:1021F000308D9061A3E0F8E5E9585404600E123088
:102200006375E9FB906193E0A2E640F2751A00EE77
:10221000A2E092AF7F010225F4C0E074F21225958E
:10222000A2AFE433FED2AF9061A5E0F8E5BF585409
:1022300004600675BFFB1230A580D1C3E498F8E4B2
:1022400099F912227C8026C3E49AFAE49BFBE920E8
:10225000E7E912227CE498F8E499F922C3E498F8BB
:10226000E499F912227CE498F8E499F9C3E49AFA23
:10227000E49BFB22EB20E7CFE920E7E0B90010BBAD
:102280000008E88AF084F8AAF022E4FBC8FA22EBFE
:1022900070227B10C833C8C933C9335007C39AC3EF
:1022A000DBF280069A50012ADBEAC833F4C8C9334E
:1022B000F4C9FA2275F008E4C833C8C933C933C970
:1022C0009AC99B5004C92AC93BD5F0ECFBC833F42A
:1022D000C8E4C9FA2274F512252F74FA122AED7592
:1022E00008047509007808122A467404122AB77A7D
:1022F000F87B077903122DB77402122A59908107CF
:102300007808122CA87402122CFF7808122B18706F
:10231000497508027509007808122A467402122AC3
:10232000B77AF67B077903122DB77402122A598502
:102330001882851983E0F47003A3E0F4601C85180B
:1023400082851983E0F8A3E0F9888289837402F01A
:10235000A3F0A37469F0A374A5F0C2AF75D69F0271
:1023600000007406122A597F040227B8080808EAF8
:10237000C0E0EBC0E086F0E7A4FA180986F0E7A415
:102380002AFA180986F0E7A42AFA180986F0E7A4C1
:102390002AFA1986F0E7A4FBE5F02AFA190886F074
:1023A000E7A42BFBE5F03AFA190886F0E7A42BFB2B
:1023B000E5F03AFA18180986F0E7A4C5F02BFBE41B
:1023C0003AFA1908E7C5F0C6A426F6E5F03BFBE4A7
:1023D0003AFA1886F0E7A4F6E5F00826F6E43B089A
:1023E000F6E43A08F6D0E0FBD0E0FA22E4CFC0E011
:1023F000E4CEC0E0E4CDC0E0E4CCC0E075F020E67F
:1024000026F608E633F608E633F608E633F618183B
:1024100018EC33FCED33FDEE33FEEF33FFC3EC97E6
:1024200009ED9709EE9709EF97191919400FFFEC7D
:1024300097FC09ED97FD09EE97FE191906D5F0BF37
:10244000ECF709EDF709EEF709EFF7191919D0E0E4
:10245000FCD0E0FDD0E0FED0E0FF222518C582C010
:10246000E0E51934FFC583C0E0E518C3958224F880
:1024700010AF0885831985821880088583198582A5
:1024800018D2AFCEF0A3E520F0A37808E608F0A3B9
:10249000DEFAEFF0A3E58124FAF8E608F0A3E608F7
:1024A000F0A3E608F0A30808E608F0A3E608F0A306
:1024B00015811581D0E0FED0E0F8158115811581D8
:1024C000E8C0E0EEC0E022122CF4B90003022519A6
:1024D000E49004D1780D791A8002F0A3D8FCD9FADF
:1024E000781A9020867A01BA00028007E493A3F656
:1024F00008DAF97ADD7B1D90209478C07901801587
:10250000E493A3AD82AE838A828B83F0A3AA82ABCD
:10251000838D828E83D8E9D9E77582E875839874B4
:10252000071229E875828175834B74001229E8250A
:1025300018C582C0E0E51934FFC583C0E0E518C3C3
:10254000958224F910AF0885831985821880088543
:102550008319858218D2AFCEF0A3E520F0A37808C6
:10256000E608F0A3DEFAEFF0A3E58124FBF8E60825
:10257000F0A3E608F0A30808E608F0A3E608F0A335
:1025800015811581D0E0FED0E0F815811581E8C0F5
:10259000E0EEC0E022C0D02518C582C0E0E51934C5
:1025A000FFC583C0E0E518C3958224F310AF08850A
:1025B00083198582188008858319858218D2AFC84F
:1025C000F0A3E9F0A3EAF0A3EBF0A37908E709F0A0
:1025D000A3D8FAECF0A3EDF0A3EEF0A3EFF0A3D0B4
:1025E000E0F0A3D0E0F0A3D0E0F0A3E520F0A3E575
:1025F000F0F0A322851983851882E0C0E0A3E0F9FA
:10260000A3E0FAA3E0FBA37808E0F608A3DFFAE072
:10261000FCA3E0FDA3E0FEA3E0FFA3E0C0E0A3E095
:10262000C0E0A3E0F5D0A3E0F520A3E0A3F5F0100F
:10263000AF088583198582188008858319858218DB
:10264000D2AFD082D083D0E0F8D0E03275F0108ED7
:10265000218F22858226858325851882851983E02E
:10266000CEA3E0CF852682852583EBC9EAC8EDCBD2
:10267000ECCAC3E833C8E933C9EA33CAEB33CBC386
:10268000EA9EF524EB9FF523B35004AB23AA24EC78
:1026900033CCED33CDD5F0DAAE21AF2222D083D0CA
:1026A00082ECC0E0EDC0E0E493A3FCE493A3FDED75
:1026B0004C600D1227F8EC24FFFCED34FFFD80EF99
:1026C000E493A3FCE493A3FDED4C600D1228CBEC46
:1026D00024FFFCED34FFFD80EFD0E0FDD0E0FCE412
:1026E00093A3C0E0E493C0E022851983851882E0BB
:1026F000A3FEE0A3F5207808E0A3F608DFFAE0A344
:10270000FFE0A3C0E0E0A3C0E0E0A3C0E0E0A3C01E
:10271000E0E0A3C0E010AF08858218858319800827
:10272000858218858319D2AFD083D0820229EED05A
:1027300083D082E9C0E0E493A3C386F0C5F095F0AE
:10274000F908E493A386F0C5F095F0700BE493A329
:10275000C3994005E9048002A3E475F002A4258230
:10276000F582E5F03583F583D0E0F9E493A3C0E08A
:10277000E493C0E022C0E074F2122595A2AFE433E6
:10278000FED2AFC2C0901A88E0700BE5D1A2E4502F
:102790001D122E3B8018E5D1A2E3500675D1F71229
:1027A0002E11E5D1A2E4500675D1EF122E17EEA23C
:1027B000E092AF7F010225F4851983851882E0A39A
:1027C000FEE0A3F5207808E0A3F608DFFAE0A3FF17
:1027D000E0A3C0E0E0A3C0E0E0A3C0E0E0A3C0E06D
:1027E00010AF088582188583198008858218858333
:1027F00019D2AFD083D08222C0E0C3E4939608748C
:1028000001939618400FE49366700808740193666C
:102810001870007019A3A3C3E493960874019396EB
:1028200018A3A3400DD0E0D0E0D0E00226D9A3A3A6
:10283000A3A3A3A3D0E022D083D082C5F0E493A3C6
:10284000C5F0C395F0F5F0E493A3C395F04005E51A
:10285000F0048001E475F002A42582F582E5F035EC
:1028600083F583E493A3C0E0E493C0E02274048082
:102870000474028000CCC0E0EDC0E0E518C39CCC3D
:10288000AD1950011D10AF068C188D1980068C18DB
:102890008D19D2AF12296AD0E0FDD0E0FC2274027B
:1028A0008000CCC0E0EDC0E0E518C39CCCAD195071
:1028B000011D10AF068C188D1980068C188D19D249
:1028C000AF122948D0E0FDD0E0FC22C0E0C0F08883
:1028D000F0E4936670080874019366187000A8F01D
:1028E000A3A3700BD0F0D0E0D0E0D0E00226D9A3B3
:1028F000A3D0F0D0E022D083D082CCC0E0E493A378
:1029000060061229AA1470FAE493A36006122AD76B
:102910001470FAD0E0FCE493A3C0E0E493C0E0229A
:10292000C0E074F2122595758900C2C5901A88E03E
:10293000700E7A007B109009D1E0F912338D80037C
:10294000123C2D7F010225F4CAC0E0E493A3C582A6
:10295000CCC582C583CDC583F0A3C582CCC582C555
:1029600083CDC583DAE5D0E0CA22CAC0E0E0A3C5C2
:1029700082CCC582C583CDC583F0A3C582CCC58278
:10298000C583CDC583DAE6D0E0CA22C008C3E0968D
:10299000F50808A3E096420808A3E096420808A3B9
:1029A000E09645087001D3D00822C0E0E493A3D399
:1029B0009C5010E493A3C39C400AD0E0D0E0D0E048
:1029C000022913A3A3A3D0E02270090808082260FB
:1029D00016181818C6C333C608C633C608C633C689
:1029E00008C633C6D5E0EA22C09FF59FE473D09FA6
:1029F00022D083D082C09FE493C0E0740193C0E0F2
:102A0000740293F59F22C0E0C0D0E8C0E0A8A8D22D
:102A1000AFC2C7751A00E8A2E792AFD0E0F8D0D0F5
:102A2000D0E0322518F58210AF08F518400C1519C2
:102A30008008F51840021519D2AF85198322740455
:102A4000800A74038006740280027401C0E0F404FA
:102A5000122A23D0E0122CB72200C0D0251810AFC4
:102A600008F518500C05198008F51850020519D200
:102A7000AFD0D022BB0102E722C082C08389828A04
:102A800083BB0003E08002E493D083D082226016EF
:102A9000080808C6C313C618C613C618C613C61836
:102AA000C613C6D5E0EA222518F8E43519F922251F
:102AB00018FAE43519FB222518FCE43519FD22C368
:102AC000E0C696F608A3E0C696F608A3E0C696F61A
:102AD00008A3E0C696F622C0E0E493A36C7009D088
:102AE000E0D0E0D0E0022913A3A3D0E02225181003
:102AF000AF08F518400C15198008F5184002151993
:102B0000D2AF22E76670100809E766700A0809E785
:102B10006670040809E76622E066701008A3E066A4
:102B2000700A08A3E066700408A3E06622C3E0967A
:102B300008A3E09608A3E09608A3E096A2D265D089
:102B40003322C3E096F008A3E096F008A3E096F0E5
:102B500008A3E096F022C3E697F60809E697F60880
:102B600009E697F60809E697F622C3E493960874F7
:102B70000193960874029396087403939622E627AD
:102B8000F60809E637F60809E637F60809E637F6E3
:102B900022E026F608A3E036F608A3E036F608A3FE
:102BA000E036F622E493F608740193F60874029373
:102BB000F608740393F622E647F60809E647F60896
:102BC00009E647F60809E647F622E657F60809E659
:102BD00057F60809E657F60809E657F622E056F6D2
:102BE00008A3E056F608A3E056F608A3E056F6223E
:102BF000E056F008A3E056F008A3E056F008A3E082
:102C000056F022E026F008A3E036F008A3E036F004
:102C100008A3E036F022700422600D18C6C333C644
:102C200008C633C6D5E0F41822E4C396F608E49645
:102C3000F608E496F608E496F622C6F4C608C6F44A
:102C4000C608C6F4C608C6F4C622600D08C6A2E7C8
:102C500013C618C613C6D5E0F322C3E7960809E7E2
:102C6000960809E7960809E79622C3E09608A3E0CC
:102C70009608A3E09608A3E0962275D00075813FE0
:102C80007518D1751904000224C7600C08C6C31357
:102C9000C618C613C6D5E0F422E6F008A3E6F0088D
:102CA000A3E6F008A3E6F022E0F608A3E0F608A306
:102CB000E0F608A3E0F622CAC0E0E6F0A308DAFADC
:102CC000D0E0FA22EAF0A3EBF0A3ECF0A3EDF022BF
:102CD000E0FAA3E0FBA3E0FCA3E0FD22E0F8A3E020
:102CE000F9A3E0FAA3E0FB22E8F0A3E9F0A3EAF0FD
:102CF000A3EBF022E5C754F84401F5C7790122257A
:102D000018F582E43519F583221229F129D8051224
:102D100029F16ED8051229F1FED8051229F156D9EC
:102D2000051229F132DA051229F117DB051229F112
:102D30005CDB051229F1BDDB051229F13FDC051230
:102D400029F179DC051229F1D1DC051229F1F3DC36
:102D5000051229F18BDD051229F132DE051229F168
:102D600085DE051229F1B1DE051229F1F2DE051228
:102D700029F19FE0051229F183E1051229F134E2DE
:102D8000051229F18BA1071229F19CA1071229F143
:102D90003AA2071229F1F9FF011229F1EDA5071254
:102DA00029F154A2071229F164A2071229F179A28C
:102DB000071229F10AA3071229F1999F071229F195
:102DC0001DA0071229F185A0071229F1FCFF0112AD
:102DD00029F1DBFF021229F1EBFF021229F1EEFFCC
:102DE000021229F1F1FF021229F1F87F001229F1F4
:102DF000D496071229F1F696071229F16198071265
:102E000029F1E598071229F1C4A5071229F1CDA5EA
:102E1000071229F1D6A5071229F1E4A5071229F115
:102E2000BAC5061229F126C6061229F1EEC6061207
:102E300029F1CFC7061229F1D0C9061229F137CAE4
:102E4000061229F18ACA061229F19BCA061229F133
:102E5000ABCA061229F11DCB061229F133CB06129B
:102E600029F13ECB061229F14CCB061229F15ECB9B
:102E7000061229F171CB061229F19DCB061229F118
:102E800045CE061229F19CCE061229F1D8CE0612A3
:102E900029F1ECCE061229F105CF061229F1F6CF61
:102EA000061229F1D2D0061229F1E6D0061229F134
:102EB00082FE061229F1A6FE061229F1BFFE0612B5
:102EC00029F1FDFE061229F12DFF061229F15AFF04
:102ED000061229F164FF061229F1CAFF061229F130
:102EE000CDFF061229F1D7FF061229F1E4FF0612E1
:102EF00029F14DFD031229F16DFD031229F1ACFDFD
:102F0000031229F1CAFD031229F1E5FD031229F18B
:102F10004BFE031229F157FE031229F1B4FE0312EE
:102F200029F1C3FE031229F1E7FE031229F1A8FFDC
:102F3000031229F1B5FF031229F1C6FF031229F18B
:102F400074FF011229F18CFF011229F1B8FF01125F
:102F500029F163D6061229F1BDD7061229F1CBD784
:102F6000061229F1DED7061229F1F3D7061229F14C
:102F700008D8061229F11BD8061229F197D8061293
:102F800029F1FCD8061229F184D9061229F1FCD9BD
:102F9000061229F1D5DA061229F1E5DA061229F12D
:102FA000F4DA061229F12BA5071229F14FA5071211
:102FB00029F177A5071229F19FA5071229F1438D61
:102FC000071229F16A8D071229F1898D071229F15B
:102FD000ED8D071229F1798A071229F1928A0712D9
:102FE00029F19E8A071229F1B28A071229F1D08AA3
:102FF000071229F1DA8A071229F1E48A071229F166
:10300000F78A071229F1848B071229F1F38B071233
:1030100029F1228C071229F1708C071229F1BF8C3B
:10302000071229F1DA8C071229F1E48C071229F131
:10303000F58C071229F1388D071229F184FF02124D
:1030400029F1CFFF021229F11AA5061229F146A58E
:10305000061229F163A5061229F176A5061229F1B7
:1030600091A5061229F1EBA5061229F119A606125F
:1030700029F11FAA061229F170AB061229F1A2ABA1
:10308000061229F104AC061229F17EAD061229F1CF
:10309000A6AD061229F1BBAD061229F1CBAD061281
:1030A00029F10BAE061229F14DAE061229F15DAEE3
:1030B000061229F12F9C071229F1499C071229F1C8
:1030C000719C071229F18A9C071229F1AE9C071204
:1030D00029F1CC9C071229F1E39C071229F1119DDB
:1030E000071229F12C9D071229F11AA3071229F1C1
:1030F00060A3071229F1CA83071229F1DA830712A4
:1031000029F1E184071229F11585071229F141857A
:10311000071229F16485071229F18285071229F126
:10312000BC85071229F12586071229F16786071247
:1031300029F1AE86071229F1DB86071229F10687ED
:10314000071229F1C2F2061229F124F3061229F11D
:10315000CBF3061229F102F4061229F121E305123C
:1031600029F1D0E3051229F103E6051229F1DAE885
:10317000051229F16CEA051229F1CEEA051229F1AE
:103180004EEE051229F196EF051229F1D57E0012B7
:1031900029F1207F001229F1E48F071229F107920B
:1031A000071229F1BFFC041229F1E3FC041229F1F2
:1031B0005AFE041229F1FAD0061229F1B9D30612E7
:1031C00029F156D4061229F182D4061229F1B0D47D
:1031D000061229F1E5D4061229F10DD5061229F1BE
:1031E0006DD5061229F1208D061229F116910612CD
:1031F00029F11493061229F14294061229F122951D
:10320000061229F1D096061229F18598061229F1A5
:103210005199061229F1A599061229F1599207121E
:1032200029F16392071229F18492071229F1D9F04A
:10323000051229F1F8F5051229F15DF7051229F1BA
:1032400039F9051229F136FA051229F166FB051242
:1032500029F17EFC051229F199FD051229F1008062
:10326000051229F13880051229F1098B051229F17F
:10327000068C051229F1588D051229F1B58E05121B
:1032800029F18E8F051229F15C90051229F14391E5
:10329000051229F13292051229F1DA92051229F16B
:1032A0000A93051229F1BC94051229F132950512F1
:1032B00029F14B95051229F1AC96051229F16A976F
:1032C000051229F10998051229F1B298051229F180
:1032D0002099051229F1BE99051229F1419A05128A
:1032E00029F1799A051229F1909B051229F15E9C2A
:1032F000051229F10F9D051229F15EFE051229F133
:1033000088FE051229F19DFF051229F1A0FF051283
:1033100029F1CEA3071229F121A4071229F163A4F0
:10332000071229F173A4071229F12CBF061229F103
:103330006ABF061229F1D3BF061229F1F2BF0612A5
:1033400029F10BC0061229F1BDC0061229F1C6C031
:10335000061229F117C1061229F14DC1061229F1F1
:1033600064C1061229F1D0C1061229F160C2061209
:1033700029F196C2061229F1DAC2061229F13BC3DD
:10338000061229F16DC3061229F1E0C3061229F1D4
:1033900034C4061229F171C4061229F1A8C4061218
:1033A00029F1BAC4061229F1CCC4061229F104C5C8
:1033B000061229F150C5061229F18EC5061229F10F
:1033C00025DB061229F165DC061229F188DC0612DC
:1033D00029F199DC061229F1B1DE061229F1D1DEBC
:1033E000061229F19994071229F1CD94071229F1B7
:1033F0001595071229F17196071229F154EB021263
:1034000029F192EC021229F1CEEC021229F19DEE83
:10341000021229F1C7EE021229F15EF1021229F11E
:103420009EF1021229F133F3021229F1C8F30212BC
:1034300029F126F4021229F1B9F4021229F1F3F468
:10344000021229F135F5021229F1A8F6021229F12A
:103450002CF8021229F151FA021229F17FFA021214
:1034600029F1ABFA021229F1B4FA021229F10AFB8E
:10347000021229F19AFB021229F19DFE021229F192
:103480001FFF021229F17DA4071229F193A407124C
:1034900029F19DA4071229F1F9A4071229F165EE7B
:1034A000061229F17BEE061229F120EF061229F10E
:1034B0005FEF061229F17CEF061229F1ADEF06123B
:1034C00029F1FAEF061229F12EF0061229F169F01E
:1034D000061229F145F2061229F1B0F2061229F17D
:1034E0005F9D071229F1BE9D071229F1189E071250
:1034F00029F1869E071229F1F89E071229F1369FBD
:10350000071229F1779F071229F10AB7061229F14C
:1035100010B7061229F158B7061229F164B906123C
:1035200029F194B9061229F100BA061229F1BDBA9F
:10353000061229F1FEBA061229F130BB061229F152
:10354000BABB061229F1D1BB061229F1DEBB061265
:1035500029F1E8BB061229F188BD061229F195BEB2
:10356000061229F1F3BE061229F18DAE061229F1D9
:10357000A3AE061229F155AF061229F17FB006124B
:1035800029F174B1061229F111B2061229F14CB2D7
:10359000061229F1BEB2061229F11CB3061229F156
:1035A0002CB3061229F153B3061229F1A5B3061262
:1035B00029F10EB5061229F113B5061229F135B518
:1035C000061229F130DD031229F162DD031229F11F
:1035D000F4DD031229F162DF031229F15AE003122C
:1035E00029F1CFE1031229F1EBE1031229F13AE2CB
:1035F000031229F1CCE2031229F127E3031229F186
:103600003AE3031229F1A4E3031229F113E40312AC
:1036100029F1BCE4031229F1B1E5031229F10CE60A
:10362000031229F192E6031229F1FEE8031229F1AF
:10363000D5E9031229F113EB031229F194EB0312DC
:1036400029F1D8EB031229F1A8EC031229F12FED8F
:10365000031229F171ED031229F190ED031229F102
:10366000DBED031229F1F1ED031229F1B4EE03129F
:1036700029F1DAEF031229F1E5EF031229F13AF00B
:10368000031229F18FF0031229F1E9F0031229F155
:10369000F1F1031229F1A0F4031229F1C6F4031287
:1036A00029F1C7F5031229F1F4F5031229F173F694
:1036B000031229F14BF7031229F182F7031229F1C2
:1036C00005F8031229F11EF9031229F14EF903122C
:1036D00029F161F9031229F164F9031229F16DF955
:1036E000031229F188F9031229F1FBF9031229F1D8
:1036F00034FA031229F150FA031229F17CFA031269
:1037000029F1A3FA031229F1C7FA031229F16AFB7E
:10371000031229F1DDFB031229F120FC031229F128
:103720002AFC031229F161FC031229F17BFC03122C
:1037300029F198FC031229F1C7FC031229F1E6FCD8
:10374000031229F1FEFC031229F110FD031229F1E5
:103750009EA0071229F1AFA0071229F13AA1071282
:1037600029F123E5061229F161E5061229F1FAE5AE
:10377000061229F105E7061229F14DE9061229F191
:1037800082E9061229F148F8011229F197F801128D
:1037900029F155FA011229F128FC011229F166FCE0
:1037A000011229F13CFD011229F145FE011229F116
:1037B00067FE011229F1C3FE011229F144FF011233
:1037C00029F18C51001229F1AE51001229F1565302
:1037D000001229F19F53001229F10F54001229F110
:1037E0008C54001229F1F254001229F1F554001200
:1037F00029F13C55001229F1AD55001229F1585616
:10380000001229F15B56001229F1D356001229F15A
:103810001857001229F1225B001229F1805C001276
:1038200029F1B35C001229F1F95C001229F156600C
:10383000001229F1E960001229F19162001229F1C8
:10384000C163001229F1FC64001229F177650012AE
:1038500029F18B66001229F12767001229F13B67D5
:10386000001229F10468001229F13A69001229F1C5
:103870005A6B001229F18C6D001229F1686E00124A
:1038800029F1E870001229F1BE71001229F1E172EC
:10389000001229F14676001229F15676001229F11C
:1038A000BC77001229F16C78001229F1847900129A
:1038B00029F12F7B001229F1AF7B001229F1FA7C4C
:1038C000001229F1407D001229F11D7E001229F11C
:1038D000C29D051229F15D9E051229F1D09E0512A7
:1038E00029F1EB9E051229F18A9F051229F1D29F39
:1038F000051229F101A1051229F140A1051229F1B2
:10390000B7A1051229F108A2051229F16FA205122B
:1039100029F17AA3051229F19FA6051229F1B5A76D
:10392000051229F132A8051229F12EAA051229F152
:10393000D3AA051229F188AB051229F1EDAB0512C6
:1039400029F15CAC051229F172AD051229F171AEB5
:10395000051229F1ACAE051229F1C3AE051229F109
:1039600082AF051229F1C1AF051229F13CB0051251
:1039700029F1B5B1051229F157B3051229F1B7B4F0
:10398000051229F124B6051229F136B7051229F1DD
:10399000C3B7051229F133B8051229F153B905123D
:1039A00029F1B2BC041229F115BD041229F15DBD43
:1039B000041229F1A1BD041229F112BE041229F149
:1039C0006CBE041229F1A7BE041229F141BF0412F2
:1039D00029F19BBF041229F102C1041229F17BC114
:1039E000041229F1A2C1041229F1B4C2041229F16E
:1039F0009FC3041229F1ECC3041229F1FAC4041282
:103A000029F122C5041229F17EC6041229F18FC6BC
:103A1000041229F1A7C6041229F193C7041229F14F
:103A200082C8041229F185C9041229F1AFC9041210
:103A300029F1C7C9041229F1E2C9041229F121CAE6
:103A4000041229F141CA041229F16ACA041229F1A7
:103A500081CA041229F15BCB041229F1B5CB0412FF
:103A600029F167CE041229F197CF041229F1CDCFA5
:103A7000041229F1D7CF041229F1EECF041229F153
:103A80005FD0041229F14FD1041229F185D104121B
:103A900029F14FD2041229F1FED2041229F12CD3BC
:103AA000041229F16ED4041229F18DD4041229F1E3
:103AB0000CD5041229F148D5041229F186D5041237
:103AC00029F10FD6041229F17ED6041229F15DD70F
:103AD000041229F13BD9041229F110DA041229F158
:103AE00060DA041229F1C8DB041229F1C2DD0412E4
:103AF00029F16EE0041229F141E2041229F107E3F1
:103B0000041229F17BE3041229F19DE3041229F147
:103B1000ACE4041229F1A9E5041229F118E6041213
:103B200029F103EA061229F12EEC061229F1F6EC2E
:103B3000061229F14BED061229F1D1ED061229F1F9
:103B4000CBF6061229F1E9F6061229F12DF7061235
:103B500029F153F7061229F17AF7061229F192F7A3
:103B6000061229F1AAF7061229F154F8061229F1D2
:103B700096F8061229F1ABF8061229F1E5D20512E2
:103B800029F1CDF9061229F1D6F9061229F1DFF94A
:103B9000061229F1E8F9061229F1F2F9061229F1C3
:103BA0006FFA061229F125E0061229F19BE40612AC
:103BB00029F1B7E4061229F1BCE4061229F15A9959
:103BC000071229F10080071229F11680071229F146
:103BD000B481071229F1FF81071229F16B820712C4
:103BE00029F10DD8051229F19983071229F1AB8328
:103BF000071229F1D49A071229F15E87071229F1D9
:103C0000BA87071229F1FA87071229F1F3880712F8
:103C100029F11789071229F12C89071229F1438903
:103C2000071229F17A89071229F18A89071229F1E5
:103C3000A189071229F1C689071229F1568A0712AC
:103C400029F1CDFF051229F10080031229F13380FB
:103C5000031229F19A80031229F12681031229F116
:103C6000CD81031229F11582031229F13A82031240
:103C700029F15382031229F17982031229F19B82DF
:103C8000031229F1D982031229F12883031229F1A1
:103C90005183031229F1B083031229F1898403129D
:103CA00029F13F85031229F19D85031229F16386CD
:103CB000031229F1AD86031229F10487031229F1B9
:103CC0006F87031229F1AD87031229F103880312CC
:103CD00029F11F88031229F14A88031229F1598A10
:103CE000031229F19F8B031229F1CB8B031229F1C7
:103CF000FF8B031229F1208C031229F12F8C031260
:103D000029F13A8C031229F1EA8C031229F1598D19
:103D1000031229F1068E031229F1428E031229F1B2
:103D2000008F031229F10D90031229F15A9003120A
:103D300029F1E990031229F14391031229F18891A5
:103D4000031229F11794031229F17195031229F135
:103D5000BD98031229F19B99031229F1729A03125B
:103D600029F1869A031229F1AF9A031229F1209BB7
:103D7000031229F1B69B031229F1299C031229F1A0
:103D8000189D031229F13D9D031229F1A09E0312F3
:103D900029F1BE9E031229F1D19E031229F1359F0C
:103DA000031229F1449F031229F1CC9F031229F138
:103DB000E29F031229F1E6A0031229F1F3A00312F6
:103DC00029F1FCA0031229F1F6A2031229F126A47D
:103DD000031229F136A4031229F139A5031229F19E
:103DE000B5A5031229F1EEA5031229F126A70312A6
:103DF00029F16CA7031229F147A9031229F128AD73
:103E0000031229F13CAD031229F146AD031229F149
:103E100050AD031229F15AAD031229F164AD03121A
:103E200029F17DAD031229F187AD031229F101AE0D
:103E3000031229F10CAE031229F13BAE031229F152
:103E400063AE031229F16EAE031229F1BCAE031268
:103E500029F1C6AE031229F1D1AE031229F1F5AE54
:103E6000031229F119AF031229F176AF031229F1D8
:103E7000BCAF031229F1D8AF031229F15FB00312CE
:103E800029F196B0031229F1D5B0031229F122B11C
:103E9000031229F1A4B1031229F150B2031229F13E
:103EA0002CB4031229F19AB4031229F1C6B50312F6
:103EB00029F1ECB5031229F145B7031229F19DBA96
:103EC000031229F1D6BC031229F1B4BE031229F161
:103ED0004DBF031229F172C1031229F126C2031248
:103EE00029F15FC2031229F1C5C2031229F1CFC221
:103EF000031229F1F9C4031229F1DEC5031229F1D5
:103F000045C7031229F18DC7031229F141C80312D5
:103F100029F1E4C9031229F16BCB031229F18BCBF0
:103F2000031229F1DECB031229F1DECC031229F1B1
:103F300006CD031229F169CD031229F14CCE0312EB
:103F400029F1BECE031229F1D0CF031229F154D0AA
:103F5000031229F152D1031229F1E8D3031229F1F6
:103F600007D4031229F152D5031229F120D70312E5
:103F700029F174D7031229F12CD8031229F1DCD8C6
:103F8000031229F13FD9031229F104DA031229F1AE
:103F90009ADA031229F101DB031229F143DB031240
:103FA00029F174DB031229F1D4DC031229F100801A
:103FB000021229F13280021229F16B80021229F1DA
:103FC0006182021229F1A382021229F1878302126F
:103FD00029F1DF83021229F12285021229F16E856F
:103FE000021229F19A88021229F1188C021229F181
:103FF000608D021229F1F68D021229F1028E021251
:1040000029F1428E021229F1D78F021229F1CB90A9
:10401000021229F1F590021229F14C91021229F1B4
:10402000A591021229F11692021229F14B94021263
:1040300029F1E295021229F1B696021229F1FD97B3
:10404000021229F1559A021229F1269D021229F134
:10405000359D021229F1B99D021229F16E9E0212BC
:1040600029F1B19E021229F1FA9E021229F14E9F06
:10407000021229F1B39F021229F10FA0021229F1B5
:104080002BA0021229F15DA0021229F19CA00212BC
:1040900029F182A1021229F131A2021229F1B7A459
:1040A000021229F1EDA5021229F1D4A6021229F17A
:1040B00054A7021229F161AB021229F19FAB02123F
:1040C00029F106AC021229F139AC021229F1CCAC6B
:1040D000021229F1FFAC021229F15BAD021229F1A3
:1040E000A7AD021229F17AAE021229F141AF0212F4
:1040F00029F1DFAF021229F1E9B2021229F1FDB371
:10410000021229F1A8B7021229F1AAB8021229F164
:10411000ADB8021229F1DCB8021229F1DBBA0212A1
:1041200029F1B4BB021229F1D9BB021229F1F5BC65
:10413000021229F1ADBD021229F171BF021229F15B
:10414000D5BF021229F1FABF021229F134C00212BE
:1041500029F18FC0021229F163C1021229F151C263
:10416000021229F185C2021229F13BC3021229F180
:104170004CC5021229F1B7C5021229F1FFC502127E
:1041800029F138C6021229F1CAC6021229F123C840
:10419000021229F1ACCB021229F1A1CC021229F1B1
:1041A0009BCD021229F118CE021229F1EACE021299
:1041B00029F1C7D0021229F158D1021229F15CD29B
:1041C000021229F170D2021229F184D2021229F1CD
:1041D00098D2021229F1ACD2021229F1E2D20212D3
:1041E00029F112D3021229F19CD4021229F15AD5D5
:1041F000021229F1DED5021229F12FD6021229F17D
:10420000A8D6021229F1EED6021229F1D3D8021251
:1042100029F183D9021229F1B3D9021229F172DAF4
:10422000021229F10FDB021229F1BADC021229F184
:10423000A7DD021229F1E6DD021229F158DE021291
:1042400029F19DDF021229F150E0021229F184E0E8
:10425000021229F19CE0021229F13FE1021229F138
:104260002DE4021229F1F8E5021229F11CE60212EE
:1042700029F13AE6021229F109E7021229F136EB97
:10428000021229F1A7FA061229F1E7FA061229F11A
:10429000B3FC061229F1C2FC061229F1BBE6041296
:1042A00029F17FEB041229F1CDEB041229F10BEE79
:1042B000041229F1AFEF041229F13FF0041229F1A1
:1042C0009BF2041229F1A2F4041229F1F9F4041268
:1042D00029F1EDF6041229F13AF7041229F198F7C1
:1042E000041229F1BAF7041229F1C1F7041229F1D5
:1042F000D9F7041229F19DF8041229F17FF904126B
:1043000029F18481011229F1C681011229F11C874A
:10431000011229F16887011229F1AE87011229F1F2
:10432000FB88011229F16589011229F1AD89011279
:1043300029F11C8B011229F1618E011229F1868F5E
:10434000011229F13E9B011229F1C79B011229F1AB
:104350002F9F011229F18EA0011229F1E9A001126B
:1043600029F139A2011229F121A3011229F1C8A5CD
:10437000011229F149A7011229F1DAA7011229F145
:10438000DDA7011229F154A8011229F15EA801123A
:1043900029F16BA8011229F196A8011229F13CA973
:1043A000011229F12BAA011229F1E4AA011229F123
:1043B00067AB011229F185AB011229F19AAB011209
:1043C00029F1C3AB011229F1F0AB011229F12DAE95
:1043D000011229F10EAF011229F158AF011229F192
:1043E000E3AF011229F191B0011229F1C3B001121A
:1043F00029F10AB1011229F13DB1011229F191B15E
:10440000011229F1E2B1011229F1E7B1011229F1FA
:104410003BB2011229F1A4B2011229F172B30112C7
:1044200029F1BDB3011229F122B4011229F187B497
:10443000011229F123B5011229F17DB8011229F1E8
:10444000ABB9011229F14BBB011229F1A1BE011236
:1044500029F137BF011229F163C2011229F11EC3EC
:10446000011229F166C3011229F10DC5011229F1CA
:1044700021C5011229F12BC5011229F135C50112FF
:1044800029F141C5011229F160C5011229F1AEC718
:10449000011229F107C8011229F111C8011229F1ED
:1044A0001BC8011229F1A1C8011229F1F5C8011296
:1044B00029F102CA011229F172CA011229F17CCB39
:1044C000011229F1C5CB011229F16CCC011229F19D
:1044D0004CCD011229F119CE011229F14CCF011254
:1044E00029F189D0011229F18AD1011229F1A2D131
:1044F000011229F1D6D1011229F1E0D1011229F1DD
:10450000EAD1011229F1F5D1011229F113D20112D8
:1045100029F15BD2011229F1B9D2011229F1E0D2BD
:10452000011229F1F2D2011229F18DD3011229F1E0
:10453000C2D3011229F1C0D4011229F116D50112FA
:1045400029F105D6011229F13BD6011229F19ED697
:10455000011229F116D7011229F1BCD8011229F153
:10456000E4D9011229F1C2DA011229F1A1DB011209
:1045700029F122DC011229F1BDDC011229F1F2DD61
:10458000011229F184DE011229F1D8DE011229F18C
:1045900044DF011229F10AE0011229F15BE0011266
:1045A00029F1B3E0011229F184E1011229F1A7E117
:1045B000011229F156E2011229F178E2011229F1E2
:1045C000D9E2011229F127E5011229F12AE60112A7
:1045D00029F1EEE6011229F122E9011229F16CE933
:1045E000011229F1B7E9011229F112EA011229F1A8
:1045F0007FEA011229F1ADEA011229F1D1EA011293
:1046000029F106EB011229F133EB011229F179EBC3
:10461000011229F1D7EB011229F12BEC011229F13A
:1046200041ED011229F1EEEE011229F137EF0112ED
:1046300029F160EF011229F1F2EF011229F16AF07C
:10464000011229F178F0011229F19CF0011229F1EF
:10465000F9F0011229F114F1011229F1D5F1011239
:1046600029F101F2011229F144F2011229F1A7F214
:10467000011229F1A1F4011229F1CEF4011229F15C
:10468000C3F5011229F1C0F6011229F163F70112F5
:1046900029F1C399061229F1FB99061229F11C9AF6
:1046A000061229F1609A061229F1C49A061229F11C
:1046B000CE9A061229F1DE9A061229F1159B0612EE
:1046C00029F10D9F061229F11BA1061229F108A359
:1046D000061229F19FA3061229F141A4061229F11D
:1046E0007380041229F11C81041229F1F381041250
:1046F00029F1FB82041229F11B83041229F133846E
:10470000041229F1ED85041229F16086041229F1C1
:10471000FD86041229F11488041229F181880412FB
:1047200029F1BC88041229F11189041229F14C895C
:10473000041229F19989041229F1298A041229F114
:10474000B68A041229F18B8B041229F1648C0412AD
:1047500029F1F28C041229F1128D041229F13F8DF6
:10476000041229F1708D041229F1438E041229F1EB
:10477000538E041229F1A28E041229F1AF8E041275
:1047800029F1B88E041229F1288F041229F1888F9B
:10479000041229F1D38F041229F1EE8F041229F1AA
:1047A0001590041229F13290041229F13E9004125E
:1047B00029F1E991041229F10292041229F18B9254
:1047C000041229F19E92041229F1BD92041229F1DA
:1047D0005893041229F1C894041229F16F96041217
:1047E00029F1FE96041229F10197041229F171971B
:1047F000041229F18F97041229F13498041229F137
:104800007098041229F17398041229F1399904124D
:1048100029F19C99041229F1D599041229F14A9A97
:10482000041229F1689A041229F1B69A041229F1A6
:104830008B9B041229F1D99B041229F1279C0412A5
:1048400029F1B49C041229F1E99C041229F11E9D5E
:10485000041229F12C9D041229F18B9D041229F1D7
:10486000039E041229F1449E041229F1949E04121D
:1048700029F1BF9E041229F1D99E041229F1F39E59
:10488000041229F1CE9F041229F1D89F041229F1B4
:1048900013A0041229F123A0041229F12CA0041260
:1048A00029F184A0041229F198A0041229F1CEA1C3
:1048B000041229F1E1A1041229F1F8A1041229F14D
:1048C0000DA2041229F19BA2041229F103A30412E0
:1048D00029F1B6A3041229F1C1A3041229F111A5EB
:1048E000041229F12DA5041229F179A5041229F148
:1048F000E8A5041229F121A6041229F13BA604120D
:1049000029F19BA6041229F13AA7041229F185A7DF
:10491000041229F147AA041229F1FDAA041229F16F
:104920008DAB041229F1D5AD041229F1EDAD0412BD
:1049300029F1F0AD041229F1FCAD041229F110AEF9
:10494000041229F118AE041229F14BAE041229F118
:104950003EAF041229F1C9AF041229F15CB0041270
:1049600029F1D5B0041229F199B1041229F1BBB192
:10497000041229F154B2041229F1B1B2041229F13E
:10498000B4B2041229F1E1B2041229F1F6B2041210
:1049900029F170B3041229F1BCB4041229F1C7B58E
:1049A000041229F152B6041229F157B7041229F161
:1049B00017B8041229F148B8041229F16EB804128C
:1049C00029F177B8041229F1A5B8041229F13DB9EB
:1049D000041229F1F2B9041229F163BA041229F17F
:1049E0000ABB041229F191BB041229F1D0BB0412B5
:1049F00029F113BC041229F14DBC041229F116D17E
:104A0000051229F1B4D0051229F1F9CF051229F1C7
:104A10001ECE051229F162CD051229F132CD051203
:104A200029F1E2CC051229F17DCC051229F13CCC0B
:104A3000051229F11CCC051229F14ECB051229F1E2
:104A4000DACA051229F17DCA051229F119CA05121F
:104A500029F191C8051229F125C8051229F19FC72E
:104A6000051229F193C7051229F160C7051229F132
:104A7000C1C3051229F193C3051229F13DC30512E3
:104A800029F125C3051229F11AC3051229F109D606
:104A9000051229F1D7C2051229F1CBD5051229F14A
:104AA000A5D5051229F129D5051229F19AD40512A7
:104AB00029F14FD4051229F1E3D3051229F1EFC0F2
:104AC000051229F1D8C0051229F10EC0051229F1ED
:104AD00039BF051229F180D3051229F14DBD051208
:104AE00029F1B2BB051229F1A7BB051229F11EBBA2
:104AF000051229F16A83071229F1DABA051229F1A0
:104B000056D3051229F1B6BA051229F1E98C06121D
:104B100029F19E8C061229F1458C061229F1108C80
:104B2000061229F1DF8B061229F1AF8B061229F14B
:104B3000878B061229F10A8B061229F1EC8A0612DC
:104B400029F1BC8A061229F13C8A061229F15B86FA
:104B5000061229F13384061229F10282061229F184
:104B60007B81061229F12981061229F100800612A3
:104B700029F1B480061229F16D80061229F1B2F9EB
:104B80000600000080FBE4738F0001007C1E87009C
:104B900001007C1A35000400411E25000200451E5C
:104BA00026000200471E27000200491E28000100BF
:104BB000531E29000100541E84000400551A86006B
:104BC0000100EB1D2A000100551E2B000100561E9E
:104BD0002C0001005C1E2D000800621A2E0001004E
:104BE0005D1E2F0001005E1E300001005F1E3100BF
:104BF0000100601E320001006A1A330001006B1AC6
:104C000034000100611E360001006C1A38000100FA
:104C1000621E390001005B1E83000200791E6300E2
:104C20000100771A64000100571E65000100581E3C
:104C30006D000100781A710008005A1A6600010020
:104C4000781E43000100691E440002006A1E4500F0
:104C500001006C1E460002006D1E470008006F1A1E
:104C6000480001006F1E4B000100701E040001008F
:104C70007B1EA10001007F1E370001007E1E880000
:104C800001007D1E3C0001006D1A3D000100631E05
:104C900049000200711E67000100791A4D000200F0
:104CA000731E4E000100751E4F000200761E3E006E
:104CB0000100681E51000100641E52000100651EC3
:104CC00053000100671E540001006E1A000000002E
:104CD000000000013636010100010201000103015C
:104CE0000001040106060502000007010034080166
:104CF000000F090401010D0100FF0E08000017025A
:104D00000000190100FF1A0100011B0100FE1C0137
:104D100000081D0200001F01000120010001210206
:104D200000002301000F24020000260100012701DA
:104D30000008280200FF2A0100072B0102402C0175
:104D400000002D0100012E0100012F0100FF3001A4
:104D50000B1D310800003A0100083B01000F3C0127
:104D600000013D0100FF3E04000042040000460433
:104D700000004A0400004E040000520400005604E3
:104D800000005A0400000103710301030103010341
:104D900001030103220302030103100300030003C4
:104DA0000003000300030003000342030003240385
:104DB0000603000300030403120325032303250352
:104DC000230304030403000300030003440300035C
:104DD000000323030003650321003503810300035F
:104DE000050300030003000300032503230303025C
:104DF000710230016002110270020102020202021D
:104E00008002100261023A004100630273027202E2
:104E10006202430200021302380000020002040290
:104E20001202000200020002000204020402370023
:104E300037003C0244020002390000020002650211
:104E40000002350281020002050282028302000292
:104E50000300710030016000110070003102200376
:104E60005004800010006100000014006300730013
:104E70007200620043000000130006000000000002
:104E80000400120000000000000000000400040004
:104E9000370037003C024400000000000000000022
:104EA000650000003500810000000500000083005F
:104EB0000000010171010101010111010101310134
:104EC000010101018001100161013B001400630137
:104ED00073017201620143010001130106013D01EA
:104EE000350004011201000100010001000104016C
:104EF0000401330133013C01440132013600000159
:104F000000016501000135008101000105018201F8
:104F1000830100010304710402046004110470049D
:104F200002040204010402041004610400041404D5
:104F3000630473047204620443040004130406044B
:104F4000000400040404120400040004000400042B
:104F5000510464000004000400044404000400043C
:104F600000040004650400043504810464000504A1
:104F700000048304000436000100060000000F0056
:104F800000000000000000000000000003FFFF0020
:104F9000000403FFFF0000FFFF0FF4010005C4043D
:104FA0000320000100000B000000000000000003CF
:104FB000010F0000000000000000000000000000E1
:104FC00000000000000000000000000000000000E1
:104FD00000000000130067381F006D381F80733811
:104FE00000000F3901000F390200E9370280E33772
:104FF0000300EF370400F5370480FB370500013864
:1050000006000D3830002B38310025383200373893
:1050100033003D38350043383400493836004F38C6
:1050200011005B381400613815001F38FFFF0000C5
:105030000A00000002000000040000000800000058
:105040001000000020000000400000008000000070
:105050000001000000020000000400000008000041
:10506000001000000020000000400000014743063F
:1050700077430871430B9543105D3F0AA743024DE8
:10508000430565430753430C2F430D3B4364293DC0
:10509000FF000007ECFDFDFDECDCDCCCBCACAC9C07
:1050A0009C8C7C7C6C6C5C5C5C4C4C3C3C2C2C1C70
:1050B0001C03EAF5E5D5D5C5B5A595958585757526
:1050C0006565555545453535252515150500160FDA
:1050D00000000B150B020002220F3300000E0F0020
:1050E0000000000000000000000000000000005A66
:1050F0006967426565416C6C69616E63653039D082
:10510000D1D2D3D4D5D6D7D8D9DADBDCDDDEDF00F7
:105110000119161816161823030000034D4C4651AA
:10512000181A250502303016181920231A1C1E30B3
:10513000003C40423A3F3F392F4730303017181972
:1051400021301B1D1F300C0E020B040B0A07080038
:105150000F02040201010101090200BE040AE80372
:1051600000000E000000E8030C001E0000007F009D
:1051700005030004091E100A0C100803FF0C280088
:1051800004040209033C0C05080B081EC082C083FE
:105190009018CDE4F0A3F07CAB7D1B7AE77B17126F
:1051A0003501123D59123FAB123D5F02673474F274
:1051B00012245B74FE122AEDE9FF8A08EBFE8C09CB
:1051C000EF70357402650870167908123735E4F50A
:1051D0000AF50B780A122A46780A122A4A80557470
:1051E000016508600302531C79081237357B00EE15
:1051F000FAF9123DCB02531774016F600874026F05
:10520000600302531CEA60097403650860030252DC
:10521000B11241CDE9605374036508604D12334506
:105220008A0A8B0B780A122A46750A01780A122A12
:105230004A750A00780A122A4AE509F50A780A121C
:105240002A4AEEF50A780A122A4A90180112286DA5
:10525000901DEBE0F97C6F7D1A901E79127172122D
:105260003D83740A122A5902531779021237359076
:105270001DEBE0F9901801122CD0123D71E9F89065
:105280001811E0A2E34010E8700D9018D1E004F08E
:105290006404700312534474036508707C9018D240
:1052A000E0F9740129F0E9C39405406D125344807C
:1052B0006874016508706574016F790A703112377E
:1052C000357A007B04901C72E0F91234BFAA18AB47
:1052D000197950123B4985188285198312627C1214
:1052E000533E7900901C25127172123E13804412B5
:1052F0003735901E4F12286D7A007B20901806E0FB
:10530000F91234B37404122A59901DEBE0F9901885
:1053100001122CD0123DADE9F8E8601790817712A8
:10532000286D7A017B00901806E0F91234B37404FA
:10533000122A597402027C59F582E43FF583E8F0A1
:10534000A3E9F022901801E4F0A374F8F0A374FF2D
:10535000F0A37407F02274F612245BE9FFEAFE7AE8
:10536000D1F91233698A828B83E5824583702A7A68
:10537000027B0012334BEA4B700E7A107B009018C0
:1053800006E0F912338D80148A828B8374D1F0EF9A
:10539000A3F0EEF91233578003EFA3F00255A8747F
:1053A000F712245B89089004D1127C20901E37E00C
:1053B000F47003A3E0F4702C9009D1E0901E37F054
:1053C000A3E4F0801F8E828F831264F5600F8E82BB
:1053D0008F83A3A31264EFFAA9081237CB8E828FB2
:1053E00083127D2EEE4F70DD901E37E0F47003A324
:1053F000E0F4600A901E37E0FAA9081237CB124495
:105400006D9017D11260E31244677F010226E974A0
:10541000F012245B890B8C0C750900750800741060
:10542000122CFF1264EB7412122CFF125653804799
:105430001254D8F50EA3E0F50FAE08EE2EFEE433BD
:10544000FFEA2EF582EB126B3E650E7004A3E06559
:105450000F7019AE09EE2EFEE433FFEC2EF582ED4F
:105460003FF583E50EF0A3E50FF00509050AE50A0F
:10547000C3950C40BB0508E508C3950B5005750A9C
:105480000080EBA90980007F080226E974F4122449
:105490005B890B7D00740C122CFF1264EB80010DF4
:1054A000EDC3950B502E750A008002050AE50AC36C
:1054B0009C50ECED25E0FEE433FFEA2EF582EB3F55
:1054C0001277931254D865087004A3E0650970DB65
:1054D0007901800279008015AE0AEE2EFEE433FFDA
:1054E000E82EF582E93FF583E022122A597F040273
:1054F00026E90229EE74F612245B1255927003A37A
:10550000E06D701775080F7509187808122A46EEB5
:10551000FA1239157402122A59801F75080275098A
:10552000807808122A468C088D097808122A4612BB
:1055300055831239397404122A59806C74F6122476
:105540005B1255927003A3E06D701775081C750906
:10555000187808122A46EEFA12391B7402122A59D8
:10556000801F7508037509807808122A468C088DFB
:10557000097808122A461255831239397404122AFE
:10558000598025EE127C0F3FF583E0FD7C80126789
:10559000DF22EAFEEBFF1267F4FCE439FD9017D13D
:1055A000E06C227402122A597F020226E974F61274
:1055B000245B74FE122AED8A088B098518828519EE
:1055C00083E4F0A3F01260D812692BFBECFA888216
:1055D0008983A3A3E0F97F007E00600574FF6970F2
:1055E000047E8280459017D1E06A7003A3E06B705F
:1055F0001AAA18AB19124B33E9FA85188285198358
:1056000012672170027E83EAFF801F901A7CE0609F
:10561000046401700E123CE1E960047E89800B7E17
:10562000818007E0640270027E8012564DEEF9AA76
:1056300008AB09123921EF60118518828519831290
:105640006721600612716C1233F30255A38518822C
:10565000851983127953FD220229EE74F212245B1C
:10566000EAFEEBFF7508007509001267F0F50AE421
:1056700039F50B12446DEA650A7003EB650B701285
:10568000124B21E914F50879017A997B18124B1B0A
:105690008003750980EE240E126B3BF50C780C121A
:1056A0002A4A750C99750D18780C122A467808123A
:1056B0002A4A780A122A46E509F5087808122A4A81
:1056C00012656C126B3BF97A057B801239277407DF
:1056D000027C5974F612245BE9FF7E0080328A82D4
:1056E0008B83E0F508A3E0F8E4C8F9E50828E4397D
:1056F000F509EE25E0F8E433F9EC28F582ED39F50B
:1057000083E508F0A3E509F0EA2402FA50010B0E44
:10571000EEC39F40C90255A874E812245B74FE12C0
:105720002AED8A108B11750F00851882851983E484
:10573000F0A3F0F516F517125FE83511127C15127B
:105740007E0BFA8E828F83A3A3A3E0F9EAF508E427
:1057500039F509AA0AAB0B124509E9640170301248
:10576000758D122A4AE4F508F5097808122A467858
:1057700008122A4A780A122A467508807808122ADE
:105780004A125B091239277407122A59025AF3AADE
:105790000AAB0B124509E970469017D1E0650A7013
:1057A00004A3E0650B6038901A7CE06402702D124F
:1057B000758D122A4AE4F508F5097808122A467808
:1057C00008122A4A780A122A467508807808122A8E
:1057D0004A125B091239277407122A59025AF38EAA
:1057E000828F83A3A3A3A3E0F50BEE2405FE500153
:1057F0000FE50B602D127CBF1233ED8518828519E1
:1058000083EAF0A3EB126B4AE849601612564DEE9C
:10581000FAEFFBA90B1238078A0C8B0DAE0CAF0DFB
:105820008003750B00127CC6601E127CBF1233ED24
:105830008A168B17EA4517600FAC16AD17EEFAEF14
:10584000FBA90A1238078003750A009004D1805022
:105850008E828F83A3A3A3A3A3A3A3A3E4F0A3F0A7
:10586000EEFAEFFB851482851583A3A3E0F812649A
:10587000EFF9123357851282851383E0C0E0A80F39
:10588000749928F582E43418F583D0E0F0050FA26E
:10589000005007AA12AB131233F3851482851583C7
:1058A000E0F514A3E0F515E51445157003025A6FF1
:1058B0008514828515831264F560DF851482851551
:1058C00083A3A3A3A3A3A3A3A3E0A2E050CC851426
:1058D00082851583A3A3A3A312672185148285154E
:1058E00083A3A3601E1264F7FA79018514828515DB
:1058F00083A3A3A3A3125AFD124B868A128B13D241
:10590000008010125AFDA3A3A3A3E0F512A3E0F5B3
:1059100013C200E5124513700302588F8512828569
:105920001383A3E065087004A3E06509600F74FFAA
:105930006508700474FF6509600302588F85128240
:10594000851383A3A3A3A3A3A3A312287185128203
:10595000851383A3A3A3A3A3A3E0FC7402122CFFCB
:10596000127172A90B1237DD7402122A59E97038CC
:10597000851282851383A3A3A3A3A3A3A3A3A3A395
:10598000122871851282851383A3A3A3A3A3A3A3C3
:10599000A3A3E0FCAA16AB17A90A1237DD74021202
:1059A0002A59E9700302588FE50A250BC333240AEC
:1059B000FA7B0012334B8A0C8B0DAE0CAF0DEE4F01
:1059C00070030258758E828F8374D2F085108285A1
:1059D0001183A3A312779DE8127C32E50B127BEFB3
:1059E000A3A3A3E50AF0E50B6031125FE08E828F7E
:1059F000831260DE851882851983E0F50CA3E0F53B
:105A00000D750E00780C122A42AC0BEC2CFCE43322
:105A1000FD1233277403122A59800D8E828F83A3BF
:105A2000A3A3A3A3E4F0A3F0E50A7003025850A8CF
:105A30000BE828F8E433F9EE28F8EF39F9E8240AFE
:105A4000FAE439FB8E828F83A3A3A31260DE85164E
:105A50000C85170D750E00780C122A42AC0AEC2C3E
:105A6000FCE433FD1233277403122A59025860E50F
:105A70000F602512758D122A4A75089975091878D4
:105A800008122A46E50FF5087808122A4A9017D11D
:105A9000122871750800802DE510240BF582E4357D
:105AA00011F583E0702F12758D122A4A75089975C9
:105AB00009187808122A467508007808122A4A90B0
:105AC00017D11228717808122A4A125B0912392755
:105AD0007407122A59851882851983126721600676
:105AE00012716C1233F3E51645176007AA16AB174F
:105AF0001233F37402122A597F100226E9125B0155
:105B0000221270E3F583888222E5102402FCE4353A
:105B100011FDE5101264DF3511F583E0F97A067B9B
:105B2000802274F412245B74F4122AED8A088B0923
:105B3000ECFEEDFF740B122CFF7403F0122AAF126F
:105B400035011244678A0A8B0BAC0AAD0B74031241
:105B50002AAF1234FBE9600A125C536010E0640162
:105B6000600B8518828519837484025C178E828F7E
:105B700083A3A3A3A3A3A3A3A3E06010F4600D12C7
:105B80005C537013126B386003F4700B85188285B8
:105B900019837482025C17127958E064217002A3A1
:105BA000E0704D851882851983748C12628BE0F544
:105BB0000A780A122A4A125C5A1240B97401122A4F
:105BC00059E97054851882851983E4F0123711124F
:105BD0005C5370447401122AB712784F1240D7E90F
:105BE00070367D007C00790012784F1238DF8028F3
:105BF000126B38F50A780A122A4A125C5A1240BF10
:105C00007401122A59E98518828519837007E4F016
:105C100012371180037488F012755DF50A780A1244
:105C20002A4A7401122AA7880A890B780A122A467E
:105C3000E508126D7C35091262834480F50B780A01
:105C4000122A461266761238D37405122A59740C39
:105C50000254EA127968E0640322EE240BFCE43F6C
:105C6000FD8E828F83A3A3A3A3A3A3A3A3A31271D7
:105C7000AF8E828F83A3A3A3A3A3A3A3A3E0F92240
:105C8000C082C08374F3122AED851882851983E4DB
:105C9000F004122CFF1260E37403122CFFAA82ABF3
:105CA00083123C69AA18AB19123CA5740D122A592B
:105CB00002673474F612245BEAFEEBFF1279641279
:105CC0007BE712778B901817E058F508A3E059F599
:105CD00009E5084509601F7808122A469017D11275
:105CE0002871EE240E126B3BFD7C001267DB12392B
:105CF000337404122A590255A874EA12245B74DB27
:105D0000122AED8A148B15751200751300750A009E
:105D1000125FE83515F5831264F7F50EAC18AD196E
:105D20007A007B00799C123DE3901A7CE060046469
:105D30000170147A047900123CCFEAF50A851882C2
:105D4000851983E02A80088518828519837401F0FB
:105D5000E0F8E50EC3984003025F5DE0C3950EF5E1
:105D600009C394044003750903E50975F01AA4FA00
:105D7000ABF01233ED8A128B13EA45137003025F06
:105D800060750B00AE12AF13850E08025E107C0822
:105D90007D0079FF125FE0123333850C82850D831D
:105DA000A3A3A3A3E0702D850C82850D8312672128
:105DB000700912776B12600FE48010125FEDF090A3
:105DC0001C38E014C0E0125FC8D0E0F0125FCC12C3
:105DD000601E8032901C38E004C0E0125FC8D0E042
:105DE000126045C39403EE4003025E9D12783D7439
:105DF0000212604564017003025EAAEE2415125F70
:105E0000F01260007401F0EE241AFE50010F050B31
:105E1000E50BC395094003025F09E508C3950A40F5
:105E200003025EB3AA087B00123D118A0C8B0D059C
:105E300008901C25126031123501850C82850D8376
:105E4000125FF9F582E43FF583E8F0A3E9126023DD
:105E5000125FC874FF12604AA3A3A3A3A3A3E0C068
:105E6000E0125FBED0E0F07401122CFFE4F0850C6C
:105E700082850D831264EB7402122CFF12533E7460
:105E800001122AAF123C93E964016003025D8E7433
:105E900004122CFF125FDC123501025D9A125FEED4
:105EA00012604564036003025DFBEE241512776EF9
:105EB000025E01E50AC3950E40057508008051E5B4
:105EC0000EC3950AF5088048EE241512776E12600D
:105ED0001EF0901C38E014C0E0125FC8D0E01260E1
:105EE00023741D122CFFE0C0E0125FBED0E0F01260
:105EF0005FB612671F700512776B8003125FEDF0BB
:105F0000EE241AFE50010F050BE50BC39509505006
:105F1000740E122AB7AA087B007987123DE30508A0
:105F20007418122CFF1260311235017410122CFFFC
:105F3000125FDC123501740E122CFF125FF912533E
:105F400038901A7CE0600764016003025EC8125F4B
:105F5000CC126000740312600F74FF808175090019
:105F6000750A00780A122A4A7812122A467809120B
:105F70002A4AE50EF5097809122A4A7405122CFFFF
:105F8000E0FD7C00E514127AA43515FBE5141264DB
:105F9000DB3515F583E0F912396F7405122A59E5DE
:105FA0001245136007AA12AB131233F37425122A99
:105FB000597F0E0226E9EE2412F582E43F22EE24F8
:105FC00019F582E43FF5832212601422125FD27425
:105FD0000222EE2415F582E43FF58322AC82AD83E4
:105FE000EE240AFAE43FFB22EA127CAB22EE2414F0
:105FF000F582E43FF583740122126B55EE241222E0
:1060000012600422F0EE2416F582E43FF58322F0BC
:1060100012601422EE2418F582E43FF58322126008
:1060200004E422F0EE2417F582E43FF5837402F0D5
:10603000221277A3E8F0A3E9F07C397D1CEE24025C
:10604000FAE43FFB2212604AE022F0850C82850DC3
:1060500083A3A3A3A32274F612245B74F9122AED7E
:106060001260D4127E9C12333FEAF8EBF9ECFAEDA1
:10607000FB851882851983122CE88E828F83A3A357
:10608000A3A3E0C0E07404122CFFD0E0127BF3F86D
:106090007405122CFF7401F07406122CFF7401F0C9
:1060A0009017DBF09017E404127866FAA3E0FB90F7
:1060B00017DC1260E3E89017E5F0127C00E090171F
:1060C000DAF0AA18AB19123D77E96003123D7D742E
:1060D000070255A58A088B09127CAA350922A3A3B9
:1060E000A3A3A3EAF0A3EBF02274F212245B74FFE3
:1060F000122AED7508007E007F001243838A0A8B06
:106100000B1243838A0C8B0DA80CA90D8005050882
:106110001264E5E84970F7901A7CE060076401605A
:10612000030261F41243838A0C8B0DA80CA90D8025
:10613000031264E5E84960338882898312717290A2
:106140001C25E06A7003A3E06B600D12784839F5F6
:1061500083127172EA4B70D98882898312627CE063
:10616000687003A3E06970030261F47A167B001281
:1061700033ED8A0C8B0DAE0CAF0DEE4F6076901C9C
:10618000251264EB8E828F8312533E901C1A127775
:1061900076A3F01244F1E98E828F83A3A3A3A3A375
:1061A000F0901E55127776A3A3A3A3A3F07C397DAC
:1061B0001C12784F123501AA18AB197941123B49CC
:1061C000851882851983E060089017D11264EB80EE
:1061D0000478FE79FF8E828F83A3A3A3A3A3A3A336
:1061E000E8F0A3E912628BE50AF0A3E50BF08E0A52
:1061F0008F0B05089017E5E0F8E508C3985004797F
:10620000008027E508C398F9C39406400279057811
:1062100000800DE50A127849350B126283F50B08F0
:106220009017E5E0FAE8C39A40E975090078091289
:106230002A4A780A122A46E9F5097809122A4A9068
:1062400017E5E0F5097809122A4AAD087C007ADCE6
:106250007B179017DAE0F91239697405122A599000
:106260001A7CE060046401700BEE4F6007EEFAEFF9
:10627000FB1233F3123D7D7401027C59126B559071
:106280001C2522F583E0F50AA3E022F0EE12784106
:106290002274F012245B74FF122AED8A0A8B0B7EA3
:1062A000008E0E8E0F125FE8350BF5831264F7FF38
:1062B000AC18AD197A007B00799D123DE3851882F8
:1062C000851983E0F8EFC398400302636BE0C39F36
:1062D000FEC3940B40027E0AEE75F007A4FAABF001
:1062E0001233ED8A088B098A0E8B0FEA450F60790D
:1062F000750C00801A850882850983A3A3A3A3A334
:106300007403F0E5082407F50850020509050CE5BB
:106310000CC39E5056AC08AD09E50C2FFAE43400CE
:10632000FB798B123DE3850882850983A3A3A3A390
:10633000A3E014600814601314601F80B8850882FD
:10634000850983A3A3A3A3A3E480B7850882850955
:1063500083A3A3A3A3A3740180A8850882850983CE
:10636000A3A3A3A3A3740280997E007508007808F4
:10637000122A4A780E122A46EEF5087808122A4A9E
:10638000EFF5087808122A4A7405122CFFE0FD7C0C
:1063900000E50A127AA4350BFBE50A1264DB350B23
:1063A000F583E0F91239757405122A59E50E450F87
:1063B0006007AA0EAB0F1233F37401122A5902546C
:1063C0008774EE12245B74FE122AED8A0C8B0D7515
:1063D0001000751100125FE8350DF5831264F7F5B2
:1063E0000AAC18AD197A007B0079A31240C5851854
:1063F000828519831264EBC3E50A98E499502085DD
:106400001882851983A80AE0C398FEA3E09400FFD0
:10641000C3EE9404EF940040617E037F00805F7EB2
:1064200000750B00EEF97508007808122A4A7810FA
:10643000122A46E9F5087808122A4AE50AF508788A
:1064400008122A4A7405122CFFE0FDAC0BE50C1271
:106450007AA4350DFBE50C1264DB350DF583E0F90C
:1064600012397B7405122A59E51045116007AA10EC
:10647000AB111233F37402027C95EE4F60A3EEFA77
:10648000EFFBEA75F015A4FAA8F075F015EBA42857
:10649000FB1233ED8A088B098A108B11EA451160D3
:1064A00032750B00750E00C3E50E9EE49F4003029B
:1064B0006424AC08AD09A80AE50E28FAE43400FB10
:1064C00079A21240C5E5082415F508500205090512
:1064D0000E80D4750BB579000264261264DF222485
:1064E0000FF582E42212784839F583126B5522A306
:1064F000E0F5838882A3A3125B01E02274F61224E4
:106500005B74FF122AED126552127AE7A3A3A3A3CC
:10651000A3A3A3A3E0F9123D9BE985188285198303
:10652000F07508007808122A4A7401122AA7880810
:1065300089097808122A4675083575098078081285
:106540002A461265621238D37405122A5974010260
:1065500055A5EAFEEBFF12655A22EE2413F582E4FC
:106560003F22790112656CFAE43FFB22EE2402FC23
:10657000E43FFDEE240F2274F412245B74FA122A15
:10658000ED1260D4127C1EEEFAEFFB123C6FE96054
:10659000171244678A0A8B0BAC0AAD0BEEFAEFFBBD
:1065A0001234FBE964017013901A7CE070030266F8
:1065B000717401122CFFE4F0A380097401122CFF06
:1065C000EEF0A3EFF0901A7CE06402701785088269
:1065D000850983A3A3126B43E0687003A3E069609D
:1065E000030266718E828F83A3A3A3A3A3A3A3A395
:1065F000E0FEA2E650087403122CFF7401F0EEA234
:10660000E750087404122CFF7401F07405122CFF7B
:10661000E4126932F0F50A780A122A4A7401122A41
:10662000A7880A890B780A122A46750A34750B80E6
:10663000780A122A461266761238D37405122A593D
:10664000908103122CD012448B7A007B0012449765
:106650007A007B001244917401122AAF123DD1EEF0
:10666000A2E7400D7401122CFF1267217003124A39
:106670007F74060254EA7901E5082402FCE4350936
:10668000FDE508240FFAE43509FB2274F612245BB9
:1066900074FF122AEDEAFEEBFF901A7CE070119075
:1066A0001E5AE0700B8E828F83A3A312672170683D
:1066B0001279641264F7F50874FF650870037508B1
:1066C000FEA908123D89E9851882851983F01241D7
:1066D000CDE96005A908123A41901A7CE07005A93D
:1066E00008123A41EE240B126B3B702C75080078AF
:1066F00008122A4A7401122AA78808890978081200
:106700002A467508367509807808122A461265628D
:106710001238D37405122A5902654DF582E438F512
:1067200083126B55E84922C082C083901A7CE070C6
:1067300003123A47D083D0820229EE74F412245B0C
:1067400074EF122AEDEAFEEBFF1267F0F508E43968
:10675000F5099017D1E065087004A3E0650970524F
:10676000A818A919880A890B780A122A46750A11ED
:10677000750B00780A122A467C007D007A817B0026
:106780001234777404122A59E97027750A00780ABE
:10679000122A4A7401122AA7880A890B780A122A37
:1067A00046AC08AD091267DB12392D7403122A5961
:1067B0008024750A11750B80780A122A467808120F
:1067C0002A46EE240E126B3BFD7C841267DB1239E5
:1067D000397404122A5974110254EA1267DF22EE46
:1067E0002402FAE43FFBEE1264DF3FF583E0F92276
:1067F0001267F42212655A127B23FAA3E0F8E4C868
:10680000F9EA282274F112245B74EB122AED126566
:106810005212692BFAE4CAFBEC2AF508E43BF509AD
:106820009017D1E065087004A3E065096003026871
:10683000CD88828983A3A3E09410500F8882898336
:10684000A3A3E0851882851983800885188285199D
:10685000837410F0E0C0E07404122CFFD0E0127AD0
:10686000B7A982AA83890C8A0D750E00780C122AAA
:10687000427407122CFFE0FC7D007408122CFFAA62
:1068800082AB831233277403122A597404122AA785
:10689000880A890B780A122A46750A11750B007846
:1068A0000A122A467C007D007A817B0012347174C2
:1068B00004122A597404122CFFE090180F6005E0AE
:1068C000D2E48003E0C2E4126932E48008851882D1
:1068D0008519837484F0E0C0E07401122CFFD0E0CD
:1068E000F07402122CFFE508F07403122CFFE50887
:1068F000F0127C0A3F127594122A4A7402122AA7D7
:10690000880889097808122A46750814750980785C
:1069100008122A4679031265641238D37405122AC4
:10692000597415122A597F070226E9127B1FFCA30E
:10693000E022F08518828519832274F612245B7494
:10694000E0122AEDEAFEEBFF901C27E064086008E5
:10695000E064046003026B33AC18AD191238BB90CD
:106960001A7CE06402702F1244677402122CFFAC90
:1069700082AD831234FBE9601D12446D8A088B09D5
:10698000A808A909851882851983E0687003A3E027
:10699000697003026B3312463B7402122CFFAC8207
:1069A000AD8312716C124539E964017003026B33D7
:1069B0007418122AAF1244797402122CFFAC82AD03
:1069C000837418122AAF1234FBE9602F1244738AC1
:1069D000088B09A808A909851882851983E06870C1
:1069E00003A3E0696015851882851983126B431231
:1069F000533E7A1B7B1C794B123B4F901A7CE06014
:106A0000046401707512446D8A088B09A808A909ED
:106A1000EE2411126B3B687003A3E069605C7402A2
:106A2000122CFFAA82AB83123CF98A088B09A808B2
:106A3000A909E849602688828983A3A3A3A3E06407
:106A400001600D88828983A3A3A3A3E06402700C74
:106A50007402122CFFAA82AB83123D05901CB51262
:106A600067216016901E68E06401700E12716C90D0
:106A70001CB6E0F5838882124B86790012716C1285
:106A80003F27901C2512565312716C1245F3740B5C
:106A9000122CFFE4126B4A740C122CFF12533E743A
:106AA0000B122AAF123C93E9603F7C087D0079000D
:106AB0007418122AAF123333740E122CFFAC82AD4D
:106AC000837418122AAF1234FBE9601D7402122C71
:106AD000FFAC82AD83740E122CFFAA82AB83123CF2
:106AE00069740B122AAF123CA57402122CFFAC82FF
:106AF000AD83740E122CFFAA82AB83123C69740B17
:106B0000122AAF123C99E9602A740C122CFF126D04
:106B100082E0687003A3E069601985188285198393
:106B20001264EB740C122CFF12533E740B122AAF3A
:106B3000123CA574200255A5EE2414F582E43FF51D
:106B400083E022126B55901C1B22F0851882851958
:106B500083126B55221270E3F92274E812245B74DD
:106B6000F7122AED8A168B177F008F088F091238CB
:106B7000C18A128B13EA45137003026D527E0080A6
:106B80000DEE75F00CA4F8126D57123D050E85122E
:106B900082851383E0F8EEC3984003026C78750C8D
:106BA000FF750DFF750EFF750FFFEE75F00CA4F865
:106BB000A9F0126D57123CF9EA4B60D18A828B839F
:106BC000A3A3A3A3E06401600D8A828B83A3A3A384
:106BD000A3E0640270B7126E3A700C126E62122C4F
:106BE000A8126E47122ABFEE75F00CA4F8A9F0E5C2
:106BF0001228F582E513126E5312298B40837A0E08
:106C00007B001233ED8A0A8B0BEE75F00CA4F8A909
:106C1000F0E51228F582E51339F583A3AC82AD8344
:106C2000123501850A82850B83A3A3A3A3A3A3A383
:106C3000A3780C122C99E50A126D7C350BF583E4D0
:106C4000F0A3F0E5084509700E850A10850B118543
:106C50001008851109801DE510240CF8E43511F9A0
:106C600088828983E50AF0A3E50B127BE1E0F51049
:106C7000A3E0F5110F026B8DEF7003026D4B7408EA
:106C8000122CFF7402F0851682851783A3A3126D60
:106C90008212533E7E00EF75F00CA4FAABF0123373
:106CA000ED8A0C8B0DEA450D7003026D45804B8516
:106CB0000810850911EE75F00CA4F8A9F0E50C2870
:106CC000F50AE50D39F50BAC08AD09AA0AFB12353A
:106CD00001850882850983A3A3A3A3A3A3A3A31269
:106CE0002CDC850A82850B83A3A3A3A3A3A3A3A360
:106CF000122CE80E126D671233F3E508450970AFE8
:106D00007508007808122A4A75081F7509807808E6
:106D1000122A46780C122A46EFF97405122AB7E5B2
:106D200016240FFAE43517FB1239097405122A5993
:106D3000AA0CAB0D1233F3801285081085091112CD
:106D40006D671233F3E508450970EEAA12AB131212
:106D500033F37409025AF5E51228F582E51339F583
:106D600083A3AA82AB8322E510126D7C3511F583D3
:106D7000E0F508A3E0F509AA10AB1122240CF58276
:106D8000E422126B558518828519832274F012242F
:106D90005B1238C18A088B09AE08AF09EE4F700349
:106DA000026E377508008079750CFF750DFF750E42
:106DB000FF750FFFE50875F00CA4F8A9F0EE28F5B3
:106DC00082EF126D5E123CF9EA4B60538A828B832C
:106DD000A3A3A3A3E06401600D8A828B83A3A3A372
:106DE000A3E064027039126E3A700C126E62122CBB
:106DF000A8126E47122ABFE50875F00CA4F8A9F096
:106E0000EE28F582EF126E5312298B5012E50875A9
:106E1000F00CA4F8EE28F582EF126D5E123D050528
:106E2000088E828F83E0F8E508C3985003026DA8AE
:106E3000EEFAEFFB1233F3025487EA241BF582E4E7
:106E40003BF583E0640122EA2417F582E43BF583F5
:106E5000780C2239F583A3A3A3A3A3A3A3A3A378A8
:106E60000C22127DFB780C2274F112245B74F61252
:106E70002AEDEAFEEBFF7508009018CF126721702B
:106E8000507A377B001233ED9018CFEAF0A3EB1263
:106E9000762E60197C377D007900123333EEFCEFDB
:106EA000FD9018CF127172123885E9700B85188227
:106EB000851983748802701112797D1270AB740188
:106EC000F07C917D38901BA9127172123FBD027047
:106ED000A6E0C81270AB7402F0EEFCEFFD1275680C
:106EE000123885E9700C8518828519837488F075CD
:106EF0000801750A99750B18780A122A46127182D0
:106F000012287112797D2428127555FC1271B51260
:106F1000797D2414127555F91237D77404122A5941
:106F20001270B81270CF2431127555604312761862
:106F3000FAE433FB1233ED12794CCC24321270C1D7
:106F40006022750C99750D18750E00780C122A4286
:106F5000127618FCE433FD1271A012332774031269
:106F60002A59800C8518828519837488F075080168
:106F7000780A122A4612717612287112797D24112C
:106F8000127555FC12719712797D242B127555F9E3
:106F90001237D77404122A59E9F812797D24341271
:106FA00070CF2434127555603512760FFAE433FB36
:106FB0001233ED12794CCC24351270C16042750C3D
:106FC00099750D18750E00780C122A4212760FFC76
:106FD000E433FD12718E1233277403122A59E50827
:106FE000A2E040251270B812755570089018CF12A3
:106FF00075DB60157B007A00790012388B0270A671
:107000008518828519837488F085188285198374A0
:1070100086F07409122CFF7402127C48F8A3E0F980
:107020007401122CFFE8127AEFA3127596122A4A05
:107030007401122AA7880889097808122A46750857
:10704000207509807808122A4679017406122AB739
:10705000EEFAEFFB1238D37405122A591275BC7080
:10706000427409122CFF7402F01275CD122CFF121B
:107070007635122A4A7401122AA7880889097808E5
:10708000122A467508207509807808122A46790167
:107090007406122AB79018CF1271721238D3740581
:1070A000122A5912387F740A0269231270AF2224FF
:1070B0002EF582E438F583229018CF12758424319E
:1070C00022F582E43CF583E8F0A3E9F0EA4B22F5EF
:1070D00082E438F5831270DAC822E9F09018CF12F2
:1070E00070E322E0F8A3E022C082C0839018CF12A0
:1070F00067216075E0C8243512671B600612718E27
:107100001233F312797D243212671B60061271A0CC
:107110001233F312797D241212671B600912717603
:107120001271721233F312797D241512671B6006F7
:107130001271B51233F312797D242912671B60098D
:107140001271821271721233F312797D242C12673C
:107150001B60061271971233F39018CF12717212DE
:1071600033F39018CFE4F0A3F002673485188285DA
:1071700019831271AF221275812412F582E438F559
:1071800083221275812429F582E438F58322127551
:107190008124351271A922127581242C1271A92221
:1071A00012758124321271A922F582E438F583E048
:1071B000FAA3E0FB2212758124151271A92274F141
:1071C00012245BEAFEEBFF8C088D09750A018C0C1A
:1071D0008D0D750E00780C122A427C177D0012333B
:1071E000277403122A591277ACE508241112795C2E
:1071F000E06037127CBF1233ED8A0C8B0DA80CA90E
:107200000D1272D06021E50824121272BF122A42B8
:10721000E50824111272AF1272A112717212332793
:107220007403122A598003750A00E50824141279A0
:107230005CE06035127CBF1233ED8A0C8B0DA80C1C
:10724000A90DEE24151272D36052E50824151272AE
:10725000BF122A42E50824141272AF1272AB1271E7
:10726000721233277403122A59E50AA2E040281249
:107270005FB612671F600AEE1272A11271721233AA
:10728000F3EE2415F582E43F12671F600AEE1272D6
:10729000AB1271721233F3A90A026926750A0080D3
:1072A000CE1272A522125FB7F58322125FD322F5A8
:1072B00082E43509F583E025E0FCE433FDEE22F5B8
:1072C00082E43509F583E0F50CA3E0F50D780C2296
:1072D000EE2412F582E43FF583E8F0A3E9F0E849F3
:1072E0002274EE12245B74ED122AED890B8A0E8B48
:1072F0000F750C00750D00750AFF7510FF7511FFF5
:10730000750800750900851882851983E412762EA8
:1073100060177403650B60067402650B7010E0C89B
:107320002430127555650F600579000275507C9107
:107330007D387A007B00123FBD7401650B700A85B1
:1073400018828519837485803DE50B60067403659A
:107350000B70199018CF12759CF07403650B70298F
:10736000E50E6029851882851983801A7402650BE1
:10737000701BE50E9018CF700512759C800812796D
:10738000801275B37402F08004E50B601E1275A2C2
:1073900070191275C660051270BB800A1275DB6029
:1073A0000A12797D243412755514F01275C66020C6
:1073B000127795127618F8E433F99018CFE0FAA313
:1073C000E0CA24321275EC241D1275752425802E16
:1073D0001275DB602E9018CFE02417F508A3E03477
:1073E00000F50912760FF8E433F99018CFE0FAA30C
:1073F000E0CA24351275EC2406127575240E127538
:1074000055F50A7409122CFF7402126932E0600308
:107410000274BEE508450970030274BE1275A270BD
:10742000047E2280027E21850882850983A3A3121F
:1074300064EB7401122CFF12533E9018D3E0C0E0AD
:1074400012797D2430F582E438F583D0E0F07412AF
:10745000122CFF7403F0AC0CAD0D740A122AAF129B
:107460003501850882850983A3E0F50C780C122A82
:107470004A780A122A4A740C122AA7880C890D78B5
:107480000C122A467810122A46E5082406F50CE468
:107490003509F50D780C122A4612755DF97409123A
:1074A0002AB7EEFA7B001239457408122A597C91EA
:1074B0007D38901BA9127172123FBD02754E127574
:1074C000CD122CFF127635122A4A7401122AA7888F
:1074D0000889097808122A467508207509807808F5
:1074E000122A4679017406122AB79018CF127172C7
:1074F0001238D37405122A591275BC704E12797D58
:107500002419F582E4381264E97401122CFFE8F0C2
:10751000A31270D52418F582E438127594122A4A01
:107520007401122AA7880889097808122A46750862
:10753000207509807808122A4679017406122AB744
:107540001275681238D37405122A5912387F7901DE
:107550007413027C95F582E438F583E022E5081285
:107560007C0F3509F583E0229018CFE02417FAA3A9
:10757000E03400FB22F50CA3E03400F50D12758118
:10758000229018CF127588221270E3C822E51012DB
:107590007C0F3511F583E0F5087808221275AC747C
:1075A00001229018CF1275ACE06401221275881286
:1075B00075B322242FF582E438F5832212758112E7
:1075C00070AFE064022212761E9018CF229018CF7E
:1075D000125B01A3A3126B557401221275DF2212F4
:1075E00075882434F582E438F583E022F582E43AA4
:1075F000F583E028F8A3E039F9E824FEF582E934C0
:10760000FFF583E0F510A3E0F5119018CFE022908C
:1076100018CF1275DF25E02212761E25E022901881
:10762000CF1275882431F582E438F583E022127098
:10763000DBF9E84922E8F0A31270DAF5838882A327
:10764000E0F508780822C082C0837B007A85790142
:1076500012388B02673474F412245BECFEEDFFEAFF
:107660001264DB3BF583127C7E127C2612779D121E
:10767000533EEA127C0B3BF583127776F01277903B
:10768000850882F5831279728E828F83A3A3A3A3C8
:1076900012533FE5082402F50850020509FCAD0924
:1076A000EE2406FAE43FFB12350185088285098342
:1076B000A3A3A3A3A3A3A3A3E0C0E0127C0A3FF566
:1076C00083D0E0F0E5082409F50850020509F582A9
:1076D00085098312778BEE240F1253381277AC850D
:1076E0000882850983A3A3E0F8EE2411127857508D
:1076F000020509E86028127CBE1233ED8A0A8B0B62
:10770000A80AA90B1272D06015EE241212777B24FE
:1077100011126B3BF91238078A088B098007EE2497
:107720001112776EF0850882850983E0F812783CA3
:10773000E8127BA28582088583096028126B3812C3
:107740007CBE1233ED8A0A8B0BA80AA90BEE241516
:107750001272D3600FEE241512777B126B39F91277
:107760003807800412776BF00254EDEE2414F58292
:10777000E43FF583E422127C7EA322F582E43FF508
:1077800083127953FDAA08AB09EE22127976F8220A
:10779000127CA5F583E0F508A3E0F509221277A392
:1077A000A3A3221270E3F98E828F8322EE1272A5B8
:1077B000E4F0A3F0125FD2E4F0A3F02274F61224F6
:1077C0005BECFEEDFF127790AC08FDEEFAEFFB12DA
:1077D0003501850882850983127C69E5082409F54D
:1077E0000850020509F582850983127C84F0A3E91B
:1077F000127866F8EE2413127857500205097403C4
:10780000687022AC08AD0912784F123501850882E4
:10781000850983A3A3A3A3A3A3A3A3E0C0E0127835
:107820003CD0E08013850882850983127C61F58253
:10783000E43FF583E8F0A3E9F00255A8EE127841A1
:10784000221278493FF58322E82414F582E422EEDF
:10785000240BFAE43FFB22F582E43FF583E8F0E5F0
:10786000082403F50822127BA6A3E02274F2122456
:107870005BEAFEEBFF750A00EE2410126B3BC3942B
:107880000C400D127964127980240B127555F50A9B
:10789000A80AE828F8E433F9E8240DFAE439FB12E1
:1078A00033ED8A088B09EA450970030279451265B0
:1078B00056127C15F88A828B83127CE4600302796D
:1078C00045EEFCEFFDEA2403FAE43509FB1235012D
:1078D000EE2408FE50010F12796E85088285098317
:1078E000A312533FE508240B12795CE4F0E50A602B
:1078F00054E508240DF8E43509F98E828F83A3A39B
:10790000E0C0E0E508240B12795CD0E0127BF9C0FE
:10791000E0127958D0E0F0EE2404FE50010F850A01
:107920000B8E828F83127953FBEC888289831260DD
:10793000E4E82402F8500109EE2402FE50010F157C
:107940000BE50B70DCAA08AB09027C5CEAF8EBF9EA
:107950009018CFE0FCA3E022E508240CF582E43582
:1079600009F583221279682212655AF583228E82E4
:107970008F8312797622E0FAA3E0F9EA229018CFF9
:107980001275842274F612245B127AF86003027A6C
:107990009CE8127AA439FBEC2403FEE43DFF8A82C2
:1079A0008B83E05407F5088E828F83E054F84508F6
:1079B000F509127AB0A2E3E433F508A2E0E4333328
:1079C0003333F50874F7550945088E828F83127A90
:1079D000B0A2E4E433FAA2E0E433C4FA8E828F83E7
:1079E000E054EF4AF0E82403FAE439FBEC24040EF7
:1079F000E43DFF8A828B83E054F8F5088E828F8302
:107A0000E054074508F508127AB05407FA74F8559F
:107A1000084A8E828F83127AC88C828D83A3A3A397
:107A2000A3A3127AB7A3127CD3127ACE127AA91228
:107A30007ACE127CD3127ADF127AA9127ADFA312DD
:107A40007AA9A3A3A3A3A3A3A3A3A3F0E8240AF85A
:107A500050010988828983E0FEA3E0FBEEFAEC2462
:107A60000BF582E43DF5831260E388828983A3A34A
:107A7000E0C0E0EC240DF582E43DF583D0E0127A1D
:107A8000B7E0C0E0EC127C0B3DF583D0E0127AC881
:107A9000C0E0EC1264DB3DF583D0E0F00255A8FCB9
:107AA000EFFDE5082402FAE422E08C828D83A32214
:107AB000F08A828B83E022127ABB22127ABF22F0F4
:107AC00088828983A3A3A322127ABBA3E022127A1D
:107AD000D222A3A3A3A3A3A3127ABFA3A3A322A3E7
:107AE000A3127AD2A3A3221271AD8A828B8322F0D1
:107AF000A3E9F08E828F8322127CA5127B1F8C82D9
:107B00008D83127BE1A3A882A983E0FEA3E0FBEEB4
:107B10008C828D83A3F0A3EBF08C828D83E0221204
:107B20007B2322F5831270E3F988828983E0227433
:107B3000F112245B127DF6F508A3E0850882F58337
:107B4000E0F50BA3858208858309A3A3E0F50A125B
:107B50007C433400FB1233ED8A0C8B0DAE0CAF0D61
:107B6000EE4F60378E828F83E50BF08508828509A2
:107B700083E0FA127CB1E50A127BA2A3A3A982AA30
:107B800083890C8A0D880E780C122A42AC0A127C6A
:107B9000403FFB1233277403122A59EEFAEFFB021F
:107BA0006926127BA622F0850882850983A32274A8
:107BB000F712245BEA2413F8E43BF988828983E016
:107BC000FAA3E0F5838A82127CD4127BE1127BE770
:107BD000A3E0FA88828983A3127CDA12533F02540D
:107BE0000AF08882898322126B5588828983221247
:107BF0007C3922127C39A3E022127C4EA3A3E0221E
:107C0000E5081264DF3509F58322EE127C0F222489
:107C10000EF582E422127C1E8E828F83E022F58391
:107C2000E0FEA3E0FF22127C2BA322F08A828B834A
:107C3000A322F0A3E9127C3922127C52A3A3A3222F
:107C40007D00EE2404FAE422127C4EA3E022127C92
:107C50005222F08E828F83A322122A597F06022697
:107C6000E9127976F8EE240B22A3A3A3A3A3A3A37E
:107C7000A3127C7EA3A3A3A3A3A3A3A3F022E08EBD
:107C8000828F83221279768E828F83A3A3A3A3A3EC
:107C9000A3A3A3A322122A597F0A0226E98C088DE6
:107CA00009127CA522127CAA3B22EA2413F582E465
:107CB00022127E038E828F83A3127CF2A322F825E8
:107CC000E0FAE433FB228E828F83E0F50AA3AE82D2
:107CD000AF8322A3E08C828D8322A3E0F9EA8C8219
:107CE0008D83A322127C4EAE82AF8322F0EE24025B
:107CF000FE22F0A3E9127C52A32274F612245B1236
:107D00007C9DF583127D2E12796E8C828D83F0A37B
:107D1000E9127CEC50010F127A9F3509FB123501F4
:107D20008E828F83A3A3A3A3127D360255A8126B64
:107D300055E8FEE9FF22127EAFA3A3A3A3A3F0227E
:107D400074F212245B127DF6FEA3E0FFEA126D7C52
:107D50003BF583E0641F7004A3E0648070098E82A9
:107D60008F83A3AE82AF838E828F83E0F50BA3AEA9
:107D700082AF8375F00CA4A9F02401FAE439FB1258
:107D800033ED8A0C8B0DEA450D60648A828B83A3E8
:107D90008582088583098A828B83E50BF0750A004A
:107DA0008046EEFCEFFDAA08AB09123501EE24086F
:107DB000FE50010F7904FAEFFB12333FEAF8EBF9BA
:107DC000ECFAEDFB850882850983A3A3A3A3A3A3F3
:107DD000A3A3122CE8EE2404FE50010FE508240CA6
:107DE000F50850020509050AE50AC3950B40B3AA38
:107DF0000CAB0D027C5C127DFBE022127CAA3BF5F1
:107E00008322FAA3E0F8E4C8F9EA22127E0228F5F8
:107E10000AE439F50B8E828F83A3A3E02274F61255
:107E2000245B127C9D127E9C12333FEAF8EBF9EC46
:107E3000FAEDFB850882850983122CE88E828F83F8
:107E4000A3A3A3A3E0F8850882850983A3A3A3A322
:107E5000F0C394065005127EA6803D8508828509F0
:107E600083A3A3A3A3E064FE600E85088285098333
:107E7000A3A3A3A3E0F47021127EA6A3F0EE240630
:107E8000FE50010F850882850983A3A3A3A3E0F414
:107E90007007127EC0F0A3E9F00255A8127C1E798B
:107EA00004EEFAEFFB228E828F83A3127EAF22A311
:107EB000A3A3A3E0850882850983A3A3A3A3A32288
:107EC0008E828F83127976850882850983A3A3A386
:107ED000A3A3A3A32274F712245B74FF122AED7EDE
:107EE000008A828B83A3A3E06005146007802312BD
:107EF000318F80208A828B83A3A3E0FA8518828544
:107F000019837403F0AC18AD197B01796912314102
:107F100080027E02EEF97401122A597F010226E9DD
:107F200074ED12245B74FF122AED8B09851882858B
:107F300019837401F08A828B83E0F50DA3A3E0F529
:107F40000C8A828B83A3A3A3E0F50EEA2404F50830
:107F500050020509150DA90E124B398A0A8B0BEA3E
:107F6000450B607DE50D2406FAE43400FB12334B2B
:107F70008A108B11AE10AF11EE4F60658E828F8329
:107F80007423F0A3A3E50EF08E828F83A3A3A3E551
:107F90000DF0EE2406FAE43FFB8E828F83A3A3A3A9
:107FA000A3EAF0A3EBF0850810850911751200789B
:107FB00010122A42AC0D7D001233277403122A5985
:107FC000EEFAEFFB850A82850B83A3A3E0F8A3E01A
:107FD000F5838882E0F9123357851882851983E486
:107FE000F0AC18AD197B01AA0C796912314174010A
:107FF000122A597F0B0226E9851A87000229EEFF13
:108000000000000000000000000000000000000070
:108010000000000000000000000000000000000060
:10802000000000000000C73BD5480543ED42B73FC4
:108030004D40CD3589376D350D4A4F35AB2D00009C
:108040000000000000000000000000000000000030
:108050000000000000000000000000000000000020
:108060000000000000000000000000000000000010
:108070000000000000000000000000000000000000
:10808000000000000000000000FFFFFFFFFFFFFFF7
:10809000FFFFFFFFFFFFFFFFFFFFFFFFFFFFFFFFF0
:1080A000FF000800040002000100000000000000C2
:1080B00000020502000801740000000000008200B8
:1080C0003A003B0000000000000002000207010A25
:1080D0000000000000FF00FFFFFFFF9F0200000004
:1080E0000000FF080000001F000000640000009670
:1080F0005118006AAEE7FFE9FFFFFF01000000B87A
:108100000B0000000000000943388610270000041F
:1081100000000019E0FCFFF8FF0000E71F030080EB
:108120005101003C000000100E0000FEFFFFFFC8E0
:1081300000000088130000FA00000060EA0000322E
:10814000000000E204000058020000BC0200000031
:10815000F8FF0797511800E90300000B000000101A
:108160000000000000000000480000010000804006
:1081700001000014000000E80300003000000000CF
:108180000000000C74F712245BE9901C72F0901C44
:1081900027E4F01232F7901C8AE4F0A3F0901C73ED
:1081A000F0A3F01245DB901A7CE0600464017006D5
:1081B000123CC9123E911232FD901B95E4F0A3F0DF
:1081C000123B7F02B29F74F012245B74D3122AED2B
:1081D00085188285198312DDEC54806068901C72CA
:1081E000E0F91233638A088B09AE08AF09EE4F60DD
:1081F0004C7C0080010CEC75F003A4F8A9F0746CC1
:1082000028F582745039F583E493F46029E493F8F7
:108210008E828F83E06870DDEC75F003A4F8746DD6
:1082200028F582745039F583E493C0E0740193F526
:1082300083D082124B86EEFAEFFB12335112F0E537
:1082400064800286FF851882851983A3E05420602C
:10825000211244258A088B09AE08AF09EE4F600A47
:1082600012433BEEFAEFFB12335112F0E5642002A9
:1082700086FF901A7CE0640270308518828519832D
:10828000E0A2E05025901C2CE0640F7011790012E0
:10829000430BE96009901E41122CD012432385182C
:1082A00082851983E064010285E58518828519833A
:1082B000E05420700302859B7A207B00901C72E0C2
:1082C000F91234C5EA4B4C4D701A901C86122CDC06
:1082D000E8494A4B700E750801750900750A00756A
:1082E0000B00806A750C00750D00750E00750F008F
:1082F0001234D78A088B098C0A8D0B901C86122C9D
:10830000DCE8494A4B6031901C86780812298B4082
:108310000E750CFF750DFF750EFF750F7F801985AB
:10832000080C85090D8C0E8D0F901C86780C122A76
:10833000BF7401780C122A8E850C08850D09850EF4
:108340000A850F0BE5081289A670030284DA7C0007
:1083500079047A007B001243E98A0C8B0DAE0CAFD6
:108360000D0284217402122CFF74FFF07403122C8E
:10837000FF74FFF07404122CFF74FF12A234FAA3EE
:10838000E0FB7407122AB712D16C12444FE9640162
:10839000707112BE404480F8A3E0F97428122CFFDB
:1083A000E8F0A3E912EB2EE0C0E0742A122CFFD013
:1083B000E012B506540860167428122CFFA3E0449E
:1083C00001128715C0E0742C122CFFD0E0F012AD22
:1083D000FE12CA6A601512B278A3E0C812DDCDE0C1
:1083E000F87416122CFFE8F0A3E4F0908103122831
:1083F0006D7406122AB7740B122AAF123DF574047D
:10840000122A598E828F83A3A3A3A3A3A3A3A3A3FA
:108410007406128715F91243CB7405122CFF12DD76
:10842000DDEE4F70030284DA7C007904EEFAEFFB94
:108430001243E97405122CFFEAF0A3EB12DB891258
:108440008B06E4F50EF50F7808790C122C5A4021B2
:10845000EE2404F8E43FF985080C85090D8882892B
:1084600083C3E0950CF0A3E0950D12F1CB70AA80C8
:108470000C8E828F83A3A3A3A3E4F0A3F08E828F3C
:1084800083A3A3A3A3A3A3A3A3A3A3E064018E82B6
:108490008F83A3A3A3A3A3A37023E05404600302C8
:1084A00083648E828F83A3A3A3A3A3A3A3A3A37494
:1084B00006F07AB712870B12431D028419A3A3A3F7
:1084C000A3E060030283648E828F83A3A3A3A3A38C
:1084D000A3A3A3A37401F00284191243B97C007909
:1084E000017A007B001243E98B0DEA450D600C7A9E
:1084F000207B00901C72E0F912338D7C0079047AA5
:10850000007B001243E9EA4B7014804E8A828B8311
:10851000A3A3A3A312B990C3EE98EF99400B8A824C
:108520008B83A3A3A3A312DDDD7C0079041243E9AE
:108530008B0BA90BEA4970D4C3E5089EE5099F504F
:108540000DC3EE9508FEEF9509FFEE4F70147A20EB
:108550007B00901C72E0F912338D901C86129B25D3
:10856000802EEE2EFEEF33FF8E088F09E4F50AF51C
:108570000B7808122A3E7A207B00901C72E0F912D8
:1085800034B37404122A591234D7901C86122CC4A6
:10859000851882851983E06420804A901A7CE06007
:1085A00007640160030286BF851882851983E05441
:1085B00010600E123ECD851882851983E06410800C
:1085C00024E05440600E123F45851882851983E0EF
:1085D00064408011E054806012123D8F85188285BE
:1085E0001983E06480FAA3E00286FFA3E0540160EF
:1085F0000B1245B112F0E564010286FF85188285F1
:108600001983A3E054086047123E9D901A6AE06403
:10861000017034901A6BE0602EF508E4F509F50A54
:10862000F50B908177780C122CA87808790C12231E
:108630006C7808122A3E7A007B08901C72E0F912CE
:1086400034B97404122A5912F0E564080286FF85D1
:108650001882851983A3E054106013901C84E06095
:1086600005E4F0123E9D12F0E564100286FF8518C5
:1086700082851983A3E054406045901CAB12CA6CFC
:108680006036901E68E06401702E901CAC12C7A387
:10869000124B86901CB112CA6C600612C7A3124B13
:1086A0008690817712286D7A007B40901C72E0F9E9
:1086B0001234B97404122A5912F0E56440804085DE
:1086C0001882851983A3E05402600A1245AB12F0A8
:1086D000E56402802A851882851983A3E05404602A
:1086E0002112CE00901A7CE064027003124A79795C
:1086F00001901C2512D512123E1312F0E56404FB02
:1087000080047A007B00742D02DABA8E828F831285
:10871000F438E0F92212B50BA3A3E022C082C08393
:1087200074EA122AED7C167D007900AA18AB1912A2
:1087300033337408122CFF7402F0901C1B12D06C9F
:1087400012875C7409122CFF12D07F7413122CFF55
:10875000E412CF46123B6D741602B968E8F0A3E943
:10876000F0901C2512B9942274F712245B74DA126B
:108770002AEDEAFEEBFFEE4F602DAC18AD19124466
:108780004F7406122CFFE0601E7417122CFFE0FDE0
:108790007401122CFFE0FCEEFAEFFB790012426349
:1087A000E9600479A480027900742602B29C74F412
:1087B00012245B8A088B098A828B83A3A3A3A3A3B9
:1087C000A3E05440601A8A828B83128E59124509A5
:1087D000E960077AFF7BFF0288A912DB6502889CAB
:1087E000901A7CE0600764016003028891901C127B
:1087F000E0A2E140030288918A828B8312B28A123E
:10880000CD40A3A31288F2A3A312D8708508828B4F
:1088100083A3A3A3A3A3A3A3E0541060047940807F
:10882000027900750AFE750BFF780A122A46E508E0
:10883000241112CC5B122871EEFCEFFD8508828BAF
:1088400083128E59123EA37404122A59EE6A7002E2
:10885000EF6B6010E50812B97512C79B6A7003A32D
:10886000E06B703B750A00780A122A4A790212DB23
:108870006512C7A712454B7401122A597ECDEEFA34
:1088800085088285098312870F12431DE9604F8096
:108890005C901A7CE0640270E3901C1B12D5127489
:1088A000FE6A700374FF6B60D312DB6512DDEC129D
:1088B0004509E9850882850983600B12BB3612F4ED
:1088C0007FE4F0A3800312F46DF07C117D438508F2
:1088D0008285098312D512123B73E9FE70A0E50868
:1088E000450960097901AA08AB091243C5EEF902EE
:1088F000B482A3A3E0FA888289832274F612245BEF
:10890000E9FEEAFF7A0F7B0012334BEA4B601F8AC5
:10891000828B83740CF0EEA3A3F0EF8A828B831218
:10892000AFD3901C72E0F912335779008034EEF91E
:108930001243EF8A088B09A808A909E84960218831
:10894000828983A3A3A3A3A3A3A3A3A3740612E66C
:108950001FA3A3A3A3A3E0F9123F57EEF91243CB41
:10896000791002C89C74F412245B8A088B098C0A63
:108970008D0B901C2CE0640F70281289A560239049
:108980001C27E064086005E0640470167808122A69
:108990003E7A017B00901C72E0F91234B374041229
:1089A0002A5902B482EA4509450A450B2274F2129B
:1089B000245BEAFEEBFF8C088D09890A740E122CE9
:1089C000FF128B06850C82F583E4F0A3F0128B0E68
:1089D0001244E5E9602012D505124509E9640270E8
:1089E000158E828F83A3A3A3A3A3A3A3A3A312DBA8
:1089F0009712D07F8003750A00EE241D12B4F5147F
:108A0000602E14604314606414606C146048147029
:108A100003028A9A24FE7003028AB7147003028A42
:108A2000C0147003028AD3147003028AE1028AF729
:108A3000780C122A46AC08AD09EEFAEFFB123EB5EF
:108A40007402122A59028ADCAC08AD09EEFAEFFB77
:108A5000123EBB028B0112D505124509E9600302E3
:108A60008AF7EEFAEFFB123F09028B01A90AEEFA30
:108A7000EFFB1245518065EE241712A5A964027020
:108A800076E50A700A12E16E7003A3E0697072EE77
:108A9000FAEFFBA90A1244D9804212E16E7003A3D7
:108AA000E0697053EE241712A5A964027049EEFA2A
:108AB000EFFB1244C1804AEEFAEFFB1245CF804132
:108AC00012E16E7003A3E069702DEEFAEFFB124520
:108AD0005D802EEEFAEFFBA90A124569E9F50A80DE
:108AE00020901E68E064017009EEFAEFFB124575F4
:108AF000800F750A00800A750A007AD37B0012374E
:108B00006BA90A02AA26E0F50CA3E0F50D22EE24DB
:108B10001DF582E43FF58312B36DF92274F412243B
:108B20005B74D6122AED8A088B098A828B83A3A3F1
:108B3000E0F91243EF8A0A8B0BAE0AAF0BEE4F70CF
:108B400003028C4D850882850983A3A882A983E04E
:108B5000C0E012C4BED0E012F5AB64F1603385080A
:108B600082850983A3E064CD602785088285098317
:108B7000A3E0641A601B850882850983A3E064E989
:108B8000600F850882850983A3E064E16003028D9C
:108B90003E901A7CE0600764016003028C668E825E
:108BA0008F83A3A3A3A3A3A3A3E054087003028C01
:108BB000668E828F83A3A3A3A3A3A3A3A3A37405F9
:108BC000F0901A7CE0600464017053850882850986
:108BD00083A3E064E96047901CA712CA6C60061288
:108BE000C7A3124B86901CA912CA6C6031901C124C
:108BF000E0A2E1502912D13DA3A3A312B18788823C
:108C0000898312D51212460BEA4B601285088285C1
:108C10000983A3E0F9901CA912DB6B124B868E82AC
:108C20008F83A3A3A3A3A3A3A3A3A3E064027010B1
:108C30008E828F83A3A3A3A3A3A3A3A3A37406F0ED
:108C4000850882850983A3A3E0F91243CB1243B9B7
:108C5000901A7CE064027009901E47129AB7124382
:108C600023742A02B47F79001243C5E97003028D90
:108C70003E901A7CE0600764016003028D0C901C3A
:108C800012E0A2E14003028D0C12CA63607E8E8264
:108C90008F8312D5127404122AB712D16C12444F6A
:108CA000850882850983A3E064E97020128E44124E
:108CB0002A4A850882850983A3E0F50A780A122AE0
:108CC0004A12D8911244857402122A59740D122C3A
:108CD000FF12CF1812F0F012D07F7409122CFFE0AF
:108CE0006004794080027900740F122CFF12B18762
:108CF000740D122CFF12D512123EAFE9600E8E8257
:108D00008F83A3A3A3A3A3A3E04420F0EE2404F540
:108D10000AE43FF50B8E828F83A3A3A3A3A3A31220
:108D2000B18785088285098312AE1812D5121233D5
:108D300009850A82850B83EAF0A3EB028BC08508C4
:108D400082850983A3E0C0E07402122CFFD0E012F8
:108D5000F746F0128E3AE0C0E07403122CFFD0E028
:108D600012E915E0AA18AB19702E123DEF901A7C8B
:108D7000E06004640170247402122CFFE0701C1285
:108D80008E55124509E97036901CA712CA6C602EE8
:108D900012C7A3124B8680031244DF7402122CFF09
:108DA000E064E97019128E44122A4A750AE9780AB9
:108DB000122A4A12D8911244857402122A59901A22
:108DC0007CE0600764016003028C1E901C12E0A22C
:108DD000E14003028C1E8E828F83A3A3A3A3A3A3CF
:108DE000A3A3A3E0640270398E828F83A3A3A3A3FD
:108DF000A3A3E05404602A128E55124509E98E821D
:108E00008F83700F12DB6B74FFF0A312AE22740518
:108E1000028C3FA3A3A3A3A3A3A3A3A37403028CC5
:108E20003F850882850983A3E064E96003028C1E04
:108E3000EEFAEFFB124587028C1EE50812AFDD3516
:108E400009F583228E828F8312B994E8FAE9FB75C3
:108E50000A01780A228E828F8312B36DFAA3E0FB97
:108E60002274F212245BEAFEEBFF750A007508001B
:108E70008E828F83A3A3A3A3A3E0603B750A08128D
:108E8000D50579FF1240598B0DEA450D6010750A22
:108E90002C8E828F83A3A3A3A3A3E0D2E0F08E82C3
:108EA0008F83A3A3A3A3A3E0540364016003028FF1
:108EB00067430A11028F67EE241812A5A96046EED7
:108EC000241A12A5A96003F4701D12E16E7003A3A9
:108ED000E0697006750A22028F67901C27E064041F
:108EE0006003028F678019EE241B12B181EE241AF1
:108EF00012A5A9FAEE2419129BAB123F1BE9706769
:108F0000750801806212D505124509E964027003F3
:108F1000750A0112E16E7003A3E0697006E50AD2DA
:108F2000E1F50AE50A60158E828F83A3A3E070063F
:108F3000E50AD2E58004E50AD2E6F50A12D5051263
:108F40004509E964017006E50AD2E0F50A8E828FD0
:108F500083A3A3E06011128B0E1244E5E964016063
:108F600006E50AC2E0F50A901A7CE060046401702C
:108F700012E50AA2E1400CE508A2E04006E50AD2AB
:108F8000E7F50A028B0174F012245B74C1122AED1A
:108F9000EAFEEBFF85188285198374FEF0A304F0C6
:108FA000750E00750F00750D00901A7CE06402705C
:108FB0001C8E828F83A3A3A3A3E06011901E451291
:108FC000CA6C6009901E45129AB7124323740712A7
:108FD0002AB78E828F83A3A3A312CF1A12D51012A1
:108FE000444FE970030293CF78017409122CFFE01B
:108FF000C3940240027800740B122CFFE0C3940269
:10900000400278007410122CFFE064F87003A3E0B3
:10901000F470030293CF7410122CFFE064F9700314
:10902000A3E0F470030293CF7410122CFFE064FAF3
:109030007003A3E0F470030293CF7410122CFFE0CE
:1090400064FB7003A3E0F470030293CF740A122C44
:10905000FFE0F9901C15E06960030293CFE8A2E0FD
:1090600040030293CF901A7CE06402700B742B12C1
:109070002CFFE060030293CF12B9877426122CFFF5
:1090800012B878241C12B98A7414122CFF12D07FE3
:10909000740D122CFFE0601D741E122CFFE0FD7495
:1090A00008122CFFE0FC8E828F8312D510790112FA
:1090B0004263E9703D7407122AAF124335E9F50C9B
:1090C000740D122CFFE0702F901C0FE060297422A9
:1090D000550C642260217442550C6442701474244F
:1090E000122CFF129ACE600F7424122CFF129ADBFE
:1090F00060057ACF0293D1E9A2E6506C901A7CE029
:1091000060046401701B901C12E0A2E150137424EF
:10911000122CFF12B4FB1228F601010B3F9100CF75
:10912000937424122CFF12B4FB24FD601214600F00
:1091300024FD600B24FD600724FE60030293CF74BE
:1091400024122CFF129B10700F7424122CFFA312F8
:10915000C7A3A3E0640D60107407122AAF1245453F
:10916000E964017003029AA9EE242DF582E43FF52B
:109170008312A22B7003A3E06970217508007808A0
:10918000122A4A7808122A4AEE242F129BAB129A0E
:10919000E112D5121244857402122A59740D122C50
:1091A000FFE07003029260129AE112D51212460B90
:1091B0007402122CFF12BB43122CFF12CA6C7003F4
:1091C0000292F77408122CFFE0F88E828F83A3A31B
:1091D000E028F8A3E03400F9E8240D12EA77F874E7
:1091E00002122CFFE0F9A3E0F5838982A3A3A3E098
:1091F00068601BE8C0E07402122CFF129AAEA3A3B1
:10920000D0E0F07402122CFF129AD4129B2579043C
:109210007408122CFF12A5B5E02AF8A3E0340088E8
:1092200082F583A3AA82AB8312333F8A088B098C11
:109230000A8D0B7402122CFF129AD4780812298B13
:109240004003029AA99080FB7808122B91740212B5
:109250002CFF12DB6B12F6B4A3E50AF0A3E50BF0CA
:10926000901A7CE0640260030293A4901C27E064DF
:10927000046008E064096003029AA9E50CA2E540D5
:1092800003029332EE242F12A5A9C0E07404122C1D
:10929000FFD0E0129B36C0E07405122CFFD0E01224
:1092A0009B2EC0E07406122CFFD0E0F07418122C34
:1092B000FFE0640170267412122CFF129B057003EC
:1092C000A3E06970177410122CFF12D51212450911
:1092D000E9640270077418122CFFE4F0129B1B1251
:1092E000286D7408122AB7740B122AAF123DF57458
:1092F00004122A59029AA9901C6CE06401600302CE
:1093000092607424122CFF129ACE7009E50CA2E62A
:1093100050030292607414122CFFE0F47003A3E077
:10932000F4600CEEFCEFFD7407122AAF1243410209
:109330009AA9A2E64003029AA97424122CFF12D122
:109340004B7016741E122CFFE064027054740712E6
:109350002AAF79001244D980487424122CFF129A43
:10936000DB7014741E122CFFE06404703474071256
:109370002AAF1244CD802A7424122CFF129B107045
:109380000C79007407122AAF12455180147424120C
:109390002CFF12B4FD640C70087407122AAF12453A
:1093A00081029AA9E0600764016003029AA9901CF7
:1093B00012E0A2E14003029AA9742B122CFFE06094
:1093C000257412122CFF12D512123CE7E9700A7AAA
:1093D000D37B0012376B029AA98E828F83A3A312CC
:1093E0009AAEE0C2E5F07418122CFFE0601DEE2486
:1093F00002F8E43FF9E8FAE9FB12D15114F012D176
:1094000051F87418122CFFE8F07006E50CC2E7F56D
:109410000CE50CA2E35061750F10A2E25018740C19
:10942000122CFFE054E3F0740C122CFFE013131322
:10943000541FF8E0802CA2E4502A740C122CFFE098
:109440001313543F5407F86009740768600B18E859
:109450007007C3E50CC2E7F50CE8333354FCF8E0C1
:1094600054E348F0740C122CFFE0C0E08E828F832E
:10947000A3A312AEFCD0E0F0901C27E064046008C7
:10948000E0640960030295547410122CFF12E17B12
:109490007003A3E069601F7410122CFF12D5121222
:1094A0004509E96402600F740C122CFFE054036458
:1094B000016003029AA97409122CFFE07041EE24A6
:1094C0002F12A5A9C0E07404122CFFD0E0129B3625
:1094D000C0E07405122CFFD0E0129B2EC0E0740691
:1094E000122CFFD0E0129B1612286D7408122AB7B6
:1094F000740B122AAF123DF57404122A598052746B
:1095000024122CFF12D14B7016741E122CFFE06433
:1095100002703E7407122AAF79001244D980327467
:1095200024122CFF129ADB7014741E122CFFE064BC
:1095300004701E7407122AAF1244CD8014742412D2
:109540002CFF129B10700A79007407122AAF124583
:1095500051029AA97461550C7003029657E50CA24A
:10956000E0506912B17E7407122AAF123F4BE970C6
:109570005812447FE9F50D7418122CFFE0700F7437
:1095800012122CFF129B057003A3E069603EA90D27
:1095900012B17E7407122AAF123F51E96020E50C28
:1095A000A2E3500C85188285198374FFF0A380080C
:1095B0007410122CFF129AF8F0750E04800EE50C50
:1095C000C2E5F50C750D008003530C9FE50CA2E578
:1095D000503FEE242F12A5A9C0E07404122CFFD036
:1095E000E0129B36C0E07405122CFFD0E0129B2ED7
:1095F000C0E07406122CFFD0E0129B1612286D7486
:1096000008122AB7740B122AAF123DF57404122AFD
:1096100059E50CA2E6400302992AA818A91988085E
:1096200089097808122A46A90D129AC5122AAF1282
:1096300043297402122A59E9F50D700302992A741C
:1096400024122CFF12B4FB6401600302992A7410E7
:10965000450EF50E02992A7409122CFFE064017080
:109660005D7424122CFF12B4FB6405701EA818A9A7
:1096700019880889097808122A46129AC3122AAF53
:109680001243297402122A59029AA97424122CFF37
:10969000129B1070297410122CFF12D512123CE785
:1096A000E9601BA818A919880889097808122A46B0
:1096B000129AC3122AAF1243297402122A5974183B
:1096C000122CFFE070257409122CFFE06401700C6D
:1096D0007424122CFFE0F8129B10600CEEFCEFFDDE
:1096E0007407122AAF124341029AA91243BFE960DC
:1096F00003029AA9741F122CFFE07003029798745A
:1097000022122CFF12B1877421122CFFE0FA742070
:10971000122CFFE0F9123F1BE960707421122CFF3C
:10972000E0701A7410122CFF129AF812BB3B123C14
:10973000F38B09EA450960030299248048742212D8
:109740002CFF12D5127421122CFFE0F9123F15855F
:10975000188285198312DDEC7808740F122CFFE053
:1097600060027810740E122CFFE06004740828F870
:10977000740C122CFFE0600108088E828F83A3A373
:1097800012C21114F0750E40029924750800780871
:10979000122A4A790B0298DD7410122CFF12D06C39
:1097A00012D07F740B122CFFE060030298F8E50CD6
:1097B000A2E350030298F87409122CFFE0640170D0
:1097C00003029844790085188285198312D51212F4
:1097D0003F6F8A088B09A808A909E849601C88829C
:1097E0008983A3A3A3A3A3E064016058888289832B
:1097F000A3A3A3A3A3E06402604AEE242D12B181C7
:1098000085188285198312D51212460B8A828B83A2
:10981000E58245836015A3A3E0F9124629E9600BB0
:10982000C3940895E0C365D03340197412122CFF1D
:1098300012D512123CE7E970030298D3740B122C74
:10984000FF7404F07400F5087808122A4A74201294
:109850002CFFAC82AD837411122CFF12D512740C44
:10986000122CFFE0F9123F817401122A59E9600FAE
:10987000750E208E828F83A3A312B4FB543FF07425
:109880001F122CFFE060237410122CFF12B187749A
:1098900020122CFFAA82AB831244498518828519B5
:1098A0008312DDEC7440450EF50E7409122CFFE0B6
:1098B0006401601579007412122CFF12B1877410C4
:1098C000122CFF12D512123F21E50CA2E35037797A
:1098D0004080357508007808122A4A7902741112FE
:1098E0002CFF12B1877413122CFF12D51212454BA4
:1098F0007401122A59029AA9E50CA2E340030298C6
:1099000044744002984679007412122CFF12B187F9
:109910007410122CFF12D512123EAFE960067420AB
:10992000450EF50E12447FE9F50D851882851983E1
:10993000E064FE7003A3E0F47003750D00901A6DEF
:10994000E0640160030299DDEE241312A5A9F4700E
:1099500003A3E0F470030299DD7410122CFFC3E03E
:1099600094F9A3E094FF507512B9877412122CFF7A
:10997000E0687003A3E06960647412122CFF12D5D2
:1099800012123CF38A088B09A808A909E849604D1E
:1099900088828983A3A3A3A3E06401600D888289E0
:1099A00083A3A3A3A3E0640270337432122CFF7468
:1099B0000112E61AF8A3E0F9743D122CFF12D07FD1
:1099C0007432122AAF123C9FE960127435122CFFD8
:1099D000AA82AB83123D05E96003123711E50CA2A0
:1099E000E74003029AA9E50D7003029AA98E828FBF
:1099F00083A3A3A3A3E0FA7B001233ED7402122C1D
:109A0000FF12BB43122CFF12CA6C7003029AA98E7C
:109A1000828F83A312DB73122A428E828F83A3A3C9
:109A2000A3A3E0FC7D007405122CFF12D5121233A3
:109A3000277403122A597409122CFFE0C0E0742D18
:109A4000122CFFD0E0F07430122CFFE4F0A3F0747D
:109A50002D122AA7880889097808122A4675080055
:109A60007808122A4A780E122A46E50DF508780879
:109A7000122A4A12B8481228718E828F83A3A3A398
:109A8000A3E0F97408122CFF12B187740A122CFF9C
:109A900012D51212443D7408122A59E9600B74025F
:109AA000122CFF12D5121233F3743F02DABA129A53
:109AB000B22212C1F8A322E0F508A3E0AA08FBE451
:109AC000FCFD22790012B84C12B18B74092212B33A
:109AD0006D640622129AB2A3A3A32212B5016407F1
:109AE00022EE242BF582E43F129AEF12B84D22F5B4
:109AF00083E0FCA3E0FDEE22129AFC22E012AEF11C
:109B0000E8F0A3E92212B994EE241312A5AD68225D
:109B100012B501640322F0129B1B22EE2425F5826C
:109B2000E43FF58322E4F0A3F0A3F0A3F022F0EEEB
:109B3000243112A5AD22F0EE243012A5AD2274F42A
:109B400012245BEAFEEBFF8C088D09901A6AE06034
:109B50000F12E16E7003A3E0697005123E9D80480C
:109B6000790012D505123F6F8A828B83E582458387
:109B7000602EA3A3A3A3A3A3E054186023E50824A5
:109B80001C12CC5B12287112CC57122871EE2418CB
:109B9000129BAB129BB0123F877404122A598008A3
:109BA0007900129BB0123EC702B48212A5ADF92211
:109BB0008E828F83A3A3A3A3A3A3A3A3A3129AF12B
:109BC00012CD4512D1822274F012245B74E5122A60
:109BD000ED8A0E8B0FEA2402F50AE4350FF50B0A25
:109BE0000AFB123CF98A088B09AE08AF0975090116
:109BF000850E82850F83A3E0F50C750801AC0AADD4
:109C00000B7410122CFFAA82AB8312350174181248
:109C10002CFF74FEF0A304F0741A122CFF7402F0EF
:109C2000740D122CFFE4F0901B94E0700EEE4F7058
:109C30000AE50C70067509C3029E24901C27E06497
:109C40000860067509C2029E20850E82850F83A3D7
:109C5000A3A3A3A3A3A3A3A3A3E0A2E1500EA2E303
:109C60005005750804800C7508038007A2E35003B3
:109C7000750802EE4F7003029D188E828F83A3A396
:109C8000A3A3E06404600D8E828F83A3A3A3A3E04B
:109C90006403700C74046508602C74036508602606
:109CA0008E828F83A3A3A3A3E06402600D8E828FB4
:109CB00083A3A3A3A3E06401703774026508600660
:109CC00074016508701E8E828F8312D5121245278B
:109CD000E970458E828F8312B9907418122CFF128E
:109CE000D07F80348E828F83A3A3A3A3E06402601D
:109CF0000D8E828F83A3A3A3A3E06401700A8E82DA
:109D00008F8312D512123EE5E50E2402FAE4350FD8
:109D1000FB123D057E007F007418122CFFE064FEEC
:109D20007003A3E0F47048123CABE97042E50C60AC
:109D30001D901E8812D512124527E97011901E88B9
:109D400012B9907418122CFFE8F0A3E98020850E58
:109D500082850F83A3A3A3A3A3A3A3A3A3A3E054D8
:109D600002F9123ED97418122CFFEAF0A3EBF0743A
:109D700018122CFFE064FE7003A3E0F4700675096E
:109D8000C7029E20E50CF50A780A122A4A850E823F
:109D9000850F83A3A3A3A3A3A3A3A3A3A3E0F9E590
:109DA0000E2402FCE4350FFD7419122CFF12D5129B
:109DB000123E197401122A59E97065901CB512CA35
:109DC0006C60117418122CFF12D512901CB612C7B9
:109DD000A3124B86A908E50E2402FCE4350FFD749E
:109DE00018122CFF12D512123CD58A0A8B0BAE0A20
:109DF000AF0BEE4F601F7402650C700D8E828F8367
:109E0000A3A3A3A3A3E0D2E3F0741A122CFFE4F0FF
:109E1000750900800B7418122CFF74FEF0A304F077
:109E2000E50C700A7405122AAF123B5B8059901A38
:109E30007CE070477401650C7041901A59E0703BEA
:109E4000E50E2402F8E4350F129F22122CFFE4F0F5
:109E50007403122CFFE4F07404122CFFE4F0741A63
:109E6000122CFFE4F07C01A9087405122AAF1244F9
:109E7000C7AA18AB19123DD1029F1DAC0CA90874DA
:109E800005122AAF1244C7E9F8EE4F6053E50C60A3
:109E9000208E828F83A3A3A3A3A3E0D2E6F0740253
:109EA000650C700D8E828F83A3A3A3A3A3E0D2E5DC
:109EB000F0850E82850F83A3A3A3A3A3A3A3A3A3CB
:109EC000A3E0A2E6500D8E828F83A3A3A3A3A3E0F9
:109ED000D2E7F08E828F83A3A3A3A3A3A3E004F011
:109EE000E5097005E86036600AFC7D007A017B10A8
:109EF000123303EE4F600CE50E2402FAE4350FFB3B
:109F0000123D057418122CFFE064FE7003A3E0F408
:109F1000600B7418122CFF12D512123EE5741B024E
:109F2000DABAF985188285198312D08374022274F3
:109F3000F712245B74F7122AEDEAFEEBFF901C2760
:109F4000E06403600DE064016008E06409600302FE
:109F5000A0818E828F83A3E0600302A03C7C007D01
:109F6000007A027B0012330312A0868A828B83124E
:109F7000B990901C1812D07F7953123B4F901C2738
:109F8000E064096009901C2512D512124605851857
:109F900082851983740112CF467942123B4F901C7F
:109FA000277404F07401122AAF794A123B497401F4
:109FB000122AB77A1D7B1C123501901809E0640B38
:109FC00070057406F0800B7900901C2512D51212D2
:109FD0003E13901A7CE060046401701F901C1BE02B
:109FE00064FE7003A3E0F4602A79007401122AB7BA
:109FF000901C1B12D512123CD58018E0640270131D
:10A00000901C1812B1877A037B0012330312A7CF7A
:10A01000123303901C12E0A2E35004D2F08002C27B
:10A02000F012CF3C7952123B4F901A7CE0640270E0
:10A030004D901E41122CD01243238042FC7D007AA9
:10A04000037B10123303901A7CE06402701B90189B
:10A0500009E0640B7003740AF0901E64E4F0FA7B6C
:10A0600040901C72E0F91234BF8E828F83A3E0F916
:10A07000901C2512D512123E13901C27E4F01243B7
:10A080008F740902B29CEE2402FAE43FFB22C082E4
:10A09000C083901B9512CA6C7017901C27E024FB9C
:10A0A0006005146007800A901B9C802F901B9E8087
:10A0B0002AE8496008901B9612A5C2700C8A828B10
:10A0C00083A3E0F9123DFB801D901B9512D15564CE
:10A0D00002700512459F800E901CA512CA6C600686
:10A0E00012C7A3124B8602C35F74F012245B74E89C
:10A0F000122AEDEAFCEBFD8C828D83A3A3A3A37847
:10A1000008122CA87808122C3A901C287808122BD8
:10A11000F075097F75087F7900901C28780C122C47
:10A12000A8E9780C122A8EE50CA2E0502478009061
:10A130001C73800E8E828F83A3A3E06970010812C6
:10A14000B83E12B1DA70EDE8C39509500488098968
:10A150000809E9C3941B40C18C828D83A3A3A3A3E8
:10A16000122CDCE8494A4B6078EC2404FEE43DFF05
:10A170008E828F83122CDC901C28122CE87C187D98
:10A18000007900AA18AB191233338E828F83122CF8
:10A19000DC851882851983122CE87404122CFF7454
:10A1A00001F0901C2EE0C0E07405122CFFD0E0F00E
:10A1B0007407122CFFE412CF46123B618068901C9A
:10A1C0002512D512123E498A0A8B0BA80AA90B90B8
:10A1D0001C25E8F0A3E912A234687003A3E06960CB
:10A1E00026901C7312B1DA601E8E828F8312A22B0E
:10A1F0007003A3E069700B8E828F83A3A3E06508D0
:10A2000060BC12B83E80DDE508901C1AF012436B6A
:10A21000E96013901C27E4F0901BA012CA6C600642
:10A2200012C7A1124B86741802DABA12B994901CA4
:10A2300025E0682212DB91E02274F412245B74E8BA
:10A24000122AED8A828B83A3A3A3A3A3A3A3A3A310
:10A2500012B990E8FAE9FB7900901C287808122CD2
:10A26000A8E97808122A8EE508A2E05032E9FCEA53
:10A270002CF582E412B982F8901E87E0C398501F33
:10A28000750801750900750A00750B00E978081258
:10A2900029C97808122C3A901C287808122BF0094A
:10A2A000E9C3941B40B3901C28122CDCE8494A4BAC
:10A2B000604E7C187D007900AA18AB1912333390D8
:10A2C0001C28122CDC851882851983122CE8740452
:10A2D000122CFF7401F07407122CFF7401F0901C13
:10A2E0002EE0C0E07405122CFFD0E0F07407122CB1
:10A2F000FFE412CF46123B61901C277406F0801CCD
:10A30000901C27E4F0FCFD7A047B10123303901BB1
:10A31000A012CA6C600612C7A1124B86741802B450
:10A320007F74F512245B74D1122AED8A088B098A96
:10A33000828B83A3A3A3A3A3A3A3A3E0C3940F50DF
:10A340000302A5A18A828B83A3A3A312DDDD741C63
:10A35000122AB78A828B83A3A3A3A3A3A3A312A5C4
:10A36000BA12D5091243A1741C122CFFE0702E857D
:10A370000882850983A3A3A3A3A3A3A3A3E0C394F3
:10A380000B401A8E828F83A3A3A3A3A3A3A3A3E04E
:10A3900064027009EE240B12A5A9F4600302A5A1C2
:10A3A000741E122CFFE060076402600302A5A190F6
:10A3B0001C27E06402700302A486E06406700302B6
:10A3C000A486901B9512CA6C600812A5C270030285
:10A3D000A4BA901C27E064086008E06404600302EB
:10A3E000A5A1741E122CFF12A5B5A3A3A3A3A3A31A
:10A3F000A312DDDD901B95E0F8496009A3E012C1CE
:10A40000B064026077901C25E06E7003A3E06F607B
:10A410000302A5A174016A60167423122CFFAC829A
:10A42000AD837A397B1C1234FBE9600302A5A17A63
:10A43000007B02901C72E0F91234C5EA4B4C4D606F
:10A440000302A5A1901C28122CDC85188285198393
:10A45000122CE8901C2EE0C0E07404122CFFD0E017
:10A46000F07405122CFF7401F07406122CFF7402B4
:10A4700012CF46123D77E9600302A59EEEFAEFFB8C
:10A4800012459902A5A1901B9512CA6C702C7508F3
:10A49000007808122A4A7808122A4AEE2410F58217
:10A4A000E43FF58312CF1BA3A3A3A3A312B86A12A0
:10A4B000D5121244857402122A598E828F8312B9E2
:10A4C000907407122CFFE8F0A3E912AE2212B990A3
:10A4D0007409122CFF12B87812BE41C0E0740B123E
:10A4E0002CFFD0E0F0EE240B12E60C740F7808126B
:10A4F0002C8A740C122CFFE508F07420122CFFE05B
:10A50000C0E0740D122CFFD0E0F07422122CFFE09A
:10A51000C0E0740E122CFFD0E0F0741D122CFFE08E
:10A52000C0E07410122CFFD0E0F0741E122CFFE07B
:10A53000C0E0740F122CFFD0E0F0EE241012A5A999
:10A54000C0E07411122CFFD0E0F07421122CFFE057
:10A55000C0E07412122CFFD0E0F0742E122CFFE039
:10A56000C0E07413122CFFD0E0F07423122CFFA96A
:10A5700082AA8389088A09750A007808122A427C0F
:10A58000087D007417122CFFAA82AB831233277444
:10A5900003122A597407122AAF123E0D8003123D8E
:10A5A0007D742F02B51BEE240F12A5AD22F582E4B7
:10A5B0003FF583E02212BE24A322A3E0F98A828B16
:10A5C000832212D15C640122C082C08374C9122A22
:10A5D000ED1245B7901C27E06408601F905189E494
:10A5E00093901C09F0905189E493901C07F0901C03
:10A5F00030740112A740A30412A7407C237D007988
:10A60000007414122AAF123333901C38E0700974AE
:10A610001E122CFF74018006741E122CFFE412B966
:10A620009F740FF0901E8612CF467946123B4F74EE
:10A6300001122CFFE4F0901E55E0C0E07402122CD1
:10A64000FFD0E0F0901C15E0C0E07403122CFFD0A6
:10A65000E0F07404122CFFE4F07405122CFFE4F017
:10A660007407122CFFE4F0901C38E0C3940F500CD8
:10A67000E0C0E07406122CFFD0E080077406122CB4
:10A68000FF740FF07C397D1C7408122CFFAA82AB7A
:10A69000831235017C037D0079FF7410122CFFAA10
:10A6A00082AB83123333901C71E0C0E07413122C20
:10A6B000FFD0E012CBBA7401122AAF12439B7A7515
:10A6C0007B1C7945123B4F1244B5901C2CE0C0E036
:10A6D000741C122CFFD0E0F0901C2DE0C0E0741D23
:10A6E000122CFFD0E0F0901C1AE0C0E0741A122C7B
:10A6F000FFD0E01287607418122CFF12D07F7420F4
:10A70000122CFFE4F0901C2FE0C0E0741F122CFF0D
:10A71000D0E0F07434122CFFE4F07429122CFFE422
:10A72000F07A187B1C7953123B4F7A1B7B1C794BB8
:10A73000123B4F7414122AAF123B67743702B96888
:10A74000F0A3E4F0A3F0A3F022C082C0838A828B3E
:10A7500083A3E0901C276004E4F080707408F090FC
:10A760001C38E07028901BA012CA6C600879001297
:10A77000C7A3124B86901C2512B1877A057B001265
:10A780003303901C2512D512124605801879001249
:10A790003E07901C1812B1877A067B001233031211
:10A7A000A7CF123303901CAB12CA6C601F901E68B7
:10A7B000E06401701790817712286D7A007B4090D9
:10A7C0001C72E0F91234B97404122A5902C35F9062
:10A7D0001C1B12B18B7A047B00220229EE74F21248
:10A7E000245B74F8122AED8A0A8B0B8C0C8D0D8970
:10A7F00008908099AC18AD19740812296AC200AC8F
:10A800000AAD0BAA18AB191234FBE97002D2009002
:10A810001C738014AC0AAD0BEE240BFAE43FFB1260
:10A8200034FBE9701B12B83E12B1DA601EA2004080
:10A83000E38E828F83E0650C7004A3E0650D70E504
:10A840008E828F83A3A3E0650870DAEEFAEFFB74C3
:10A850000802AA23C082C083901C7302C35CC0821A
:10A86000C083901C73E4F0A302AB7C74F712245BEA
:10A87000901C7312F0EB800FEA2414F582E412DDD1
:10A88000DA1233F3EEFAEFFBEA4B70EC901C73E450
:10A89000F0A3F002B29F74F412245B8A088B09EAD9
:10A8A0002413F582E412C79B6403700DEA240BFAAB
:10A8B000E43509FB123CF9800FE06402707BEA1278
:10A8C0008E3C12D512123CF38A0A8B0BAE0AAF0BE8
:10A8D000EE4F6065850882850983A3E0700D8E8246
:10A8E0008F83A3A3A3A3A3A3E4804D64F1600C858D
:10A8F0000882850983A3E064E170258E828F83A39B
:10A90000A3A3A3A3A3E0640170168E828F8312D544
:10A9100012123EE5E508240BFAE43509FB123D0569
:10A920008E828F83A3A3A3A3A3A3E0600C8E828F48
:10A9300083A3A3A3A3A3A314F002B48274F21224EA
:10A940005B8A0C8B0DECFEEDFF890B8A828B8312E8
:10A95000CC66F0A3A882A9838A828B8312AA0312F1
:10A96000AFBBE0C454F0FA88828983E04A12BE7516
:10A97000850C828B83A3A312AA0312AA16E0333399
:10A9800054FC12AA0AE033333354F812AA0AA3E0A3
:10A99000A2E0E4331313FA88828983E04AF0EE24BC
:10A9A00003FE50010FE50C2407F508E4350DF50909
:10A9B000750A007808122A427C087D00EEFAEFFB47
:10A9C0001233277403122A59EE2408FE50010FE5B2
:10A9D0000C240FF508E4350DF5097808122A427C9D
:10A9E000037D00EEFAEFFB1233277403122A59E5B8
:10A9F0000BC3940F400BE50C12B96F350D12C4C494
:10AA0000F08023A3E08882898322FA88828983E008
:10AA10004A12AA16A322F0850C828B83A3A3A3A3B8
:10AA2000227403122A597F060226E974F212245B6B
:10AA3000EAFEEBFF8C0C8D0D8E828F83E08C828D75
:10AA40008312C4FAA882A983E0540F8C828D8312EA
:10AA5000F5AAC412C2F912BE6B12C30112F5A8A264
:10AA6000E2E4338C828D8312F5A7131313541F1263
:10AA7000C2F912F5A7A2E7E4338C828D83A3A3A3C6
:10AA8000A3A3A3F0EE2403FE50010F8E088F0975D7
:10AA90000A007808122A427C087D00E50C2407FA97
:10AAA000E4350DFB1233277403122A59EE2408FEF5
:10AAB00050010F8E088F097808122A427C037D000E
:10AAC000E50C240FFAE4350DFB1233277403122A28
:10AAD000598E828F83A3A3A3E0C0E012C1A8D0E067
:10AAE000F002AA2674F612245BEAFEEBFF8E828F38
:10AAF00083A3858208858309E0F9123E31850882A7
:10AB0000850983E064EB601E8E828F83A3E064E19D
:10AB100060148E828F83A3E064F1600A8E828F833B
:10AB2000A3E0641A70078E828F83A3E4F0901E4125
:10AB3000122CD01243237508017808122A4A8E82FB
:10AB40008F83A3E0F5087808122A4A7900901C2523
:10AB500012B187901C1B12D5121244857402122A5E
:10AB6000591243B902C89CC082C083E9901C857009
:10AB700003E4800274018004EAF0A3EBF002C35FF7
:10AB8000E0F902C35FC082C0837C117D438A828B5F
:10AB90008312D512123B7302C35F74F612245B90CA
:10ABA0001C85E0701B7C0079017A007B001243E970
:10ABB000EA4B600C8A828B8312CA6C6003124317C3
:10ABC00002C89CC082C08379041243E3E9F8905123
:10ABD00087E493C398401079FF1243E3E9F890515A
:10ABE00086E493C398500479018002790002C35F20
:10ABF00074F212245B8A0A8B0B8909C2008A828B49
:10AC000083A3A3A3A3A3A3A3A3E0F91243EF8A0CF6
:10AC10008B0DAE0CAF0D750801EE4F600302ACE179
:10AC2000850A82850B83A3A3A3A3A3A312B187855F
:10AC30000A82850B83A3A3A3A3A3A3A312AE181216
:10AC4000D5121243D78A0C8B0DAE0CAF0DEE4F70A0
:10AC50000302ADF68E828F83A3A3A3A3E4F0A3F037
:10AC6000E50A240CFAE4350BFB8A828B83E0C0E012
:10AC700012D4ADD0E0F0E50A12E8F8350B12B98E27
:10AC8000EE240D12D079124515EE240F12DDE6E503
:10AC90000A12B975350B12B98EEE241112D079E56E
:10ACA0000A241312E50EC0E012B848D0E0F0D2003A
:10ACB000EE240612BE3612AE0F12F5AB540460033A
:10ACC00002AD4F901E53E0F50A750B007407780A29
:10ACD000122C168E828F83A3A3A3A3A3A312AE0666
:10ACE000F08E828F83A3A3A3A3A3A3E0F50AA3E01E
:10ACF000F50B7407780A122C8AE50A5407FCE5095B
:10AD0000605C8E828F83A3A3A3A3A3A3A3A3A37436
:10AD10000212A23412B103600B901C1312BF2DA3B8
:10AD2000A312D07FEC700302ADC2EE240612B85914
:10AD300012AE0FF0EC24FFF50AE434FFF50B7407B4
:10AD4000780A122C168A828B8312AE06F080738EDC
:10AD5000828F83A3A3A3A3A3A3E044808082EC708B
:10AD600005750800805C8E828F83A3A3A3A3A3A391
:10AD7000E05420600C123345EA547F7900245F8050
:10AD8000198E828F83A3A3A3A3A3A3E05410601AF8
:10AD9000123345EA540F7900240A5001098E828F3C
:10ADA00083A3A3A3A3F0A3E9800D8E828F83A3A323
:10ADB000A3A37401F0A3E412AE22740412B08612AD
:10ADC000338DA200503312B866A3A3A3A3A3A3A3F9
:10ADD000A3A3E0F9EEFAEFFB1243DDE9601B12AD2D
:10ADE000FE12CA6A600912B27812D5121233F3EE5B
:10ADF000FAEFFB1233F3750800A90802AA26EE2425
:10AE00000FF582E43F22E0450AF0A3E0450B22E083
:10AE1000547FF0A3E054FC22A3E0F9850A82850B5D
:10AE2000832212AE262212B50FA3A3A32274F4121A
:10AE3000245B74F7122AED7E001243EFEA4B700395
:10AE400002AEEC8A828B83A3A3A3A3A3A3A3A3A391
:10AE5000E06406600302AEEC8A828B83A3A3A3A303
:10AE6000A3A3A3E0FF8A828B8312AEFCE0C0E07450
:10AE700008122CFFD0E012B36612AEF112D07F128E
:10AE8000440DEF5408606385188285198312B187D9
:10AE90007A007B001243D18B0BEA450B704C12F603
:10AEA000B0123B8B7C007D007A007B0080288E8274
:10AEB0008F8312B4FBF47003A3E0F4602D901C2583
:10AEC00012B86E12D512123B85E9641A601C7C0020
:10AED0007D00EEFAEFFB1243D18A0A8B0BAE0AAF6C
:10AEE0000BEE4F70C97900123B917E01EEF902B46E
:10AEF0007DF8A3E0F98518828519832212AF00221C
:10AF0000E0F8A3E0C82408F582E438F58322C08283
:10AF1000C0838A828B83E58245837009901C8A8076
:10AF2000068A828B83A3A312B13760258A828B8322
:10AF3000A3A3A3A3A3A3A3E0540860E5EC4D60156D
:10AF40008A828B8312B4FB6C7003A3E06D70D28095
:10AF5000047A007B0002C35F74F212245B8A088BC0
:10AF600009890AECFEEDFF7A147B001233EDEA4BFF
:10AF7000603D8A828B83A3A3A3A3A3A3A3A3A3E47B
:10AF800012B355A3E50A12AFC1A3A3EEF0A3EF12CB
:10AF9000AFC1E4F0A312B36012AFD38A828B8312E5
:10AFA000F6B8EA240F12AFB2A312AFBBF0A3F002BF
:10AFB000AA26F582E43BF583E4F02212CD20A3A378
:10AFC0002212AFC52212AFC922F08A828B83A3A3BB
:10AFD000A3A322A3F012AFDC12AFB522EA240BF533
:10AFE00082E42274F512245BEAFEEBFF890A8C08E6
:10AFF0008D09EE4F700302B0817401650A701279F9
:10B00000011243E3E9F8905188E493C398502280F9
:10B01000167404650A701479041243E3E9F8905138
:10B0200087E493C398500A791180587402650A70B6
:10B03000508E828F83A3A3A3A3A3A3A3A3A3E50AF4
:10B0400012DB9112F6B48E828F83A3A3E4F0A3F0F7
:10B05000901C8A12CA6C6018800312B99088828989
:10B0600083A3A312B13788828983A3A370EC8003E2
:10B07000901C8AEEF0A3EF12B08612338D79008017
:10B080000279C102B51EF07A207B00901C72E0F9B3
:10B0900022C082C083E9F87900901C8A801D8A82D0
:10B0A0008B83A3A3A3A3A3A3A3A3A3E068600574B6
:10B0B000FF687001098A828B83A3A312B13770DE07
:10B0C00002C35F74F712245BEA4B7005901C8A8000
:10B0D000068A828B83A3A312B13760208A828B8376
:10B0E000A3A3A3A3A3A3A3A3A3E06970E4EC6010AC
:10B0F0008A828B83E012B10370D780047A007B00D0
:10B1000002B29F12F477E0540422C082C083901CE4
:10B110008A80068A828B83A3A312B13760128A8247
:10B120008B83A3A3A3A3A3A3A3A3E06970E58004D7
:10B130007A007B0002C35F12D184EA4B2274F712BB
:10B14000245BEAFCEBFD901C8A80068A828B83A339
:10B15000A312B13760218A828B8312B4FB6C700317
:10B16000A3E06D70E68A828B8312B29212D87FA21E
:10B17000E0E43370D680047A007B0002B29FEE24B4
:10B1800013F582E43FF58312B18B22E0FCA3E0FDCE
:10B190002274F212245B8A0A8B0B8C0C8D0D7508BD
:10B1A00000750900EA450B602A901C8A80068E8291
:10B1B0008F83A3A312B1DA601AAC0CAD0DEEFAEFD7
:10B1C000FB850A82850B83124B86E9640170DF8E52
:10B1D000088F09AA08AB0902AA26E0FEA3E0FFEE49
:10B1E0004F2279000229EE74F712245B901C8A1218
:10B1F000B9907C007D00800DE8FCE9FD88828983A0
:10B20000A3A312B990E8496030EA687002EB697054
:10B21000E7901C8A12D512E86A7002E96B8882896D
:10B2200083A3A3700812B990901C8A800912B99068
:10B230008C828D83A3A312D07F806474F712245B69
:10B24000EAFEEBFFEE4F602E12440712B28612D5D3
:10B25000121233F38E828F8312D5121233F312AD92
:10B26000FE12CA6A600912B27812D5121233F3EED6
:10B27000FAEFFB1233F38027EE12B27D22240FF592
:10B2800082E43FF583228E828F8312B290F583226F
:10B29000E0F8A3E0C8241FF582E43822122A597F7F
:10B2A000010226E974F612245B8A828B8312DB6B1F
:10B2B00012E612901C8A12B9907D007C00803488BE
:10B2C000828983A3A3A3A3A3A3A3A3A3E06405707C
:10B2D000190C88828983E0FEA3E0F5838E82E06505
:10B2E000087004A3E0650970010D88828983A3A317
:10B2F00012B990E84970C8905184E493F8EDC3986E
:10B30000500890518312EAA6400F8A828B83A3A330
:10B31000A3A37401F0A3E48010901C13E0F812A51D
:10B32000BAA3A3A3A3E8F0A3E912B360740512B310
:10B3300055E0440812B366F47003A3E0F4600E9085
:10B340001C2512D8A9123B85E9641A7005790112EF
:10B350003B9102C89C12B3592212AFC9A3A3A322E6
:10B3600012B359A3A32212CD2012B36D2212C1F839
:10B37000E02274F612245B901C8A12DDDD80308E90
:10B38000828F83A3A312E61212B28612D512123351
:10B39000F38E828F8312D5121233F312B27812D544
:10B3A000121233F3EEFAEFFB1233F3AE08AF09EEED
:10B3B0004F70CC901C8AE4F0A3F002C89CC082C0FD
:10B3C00083EAFCEBFDEC4D6017EC24FBF582ED34D9
:10B3D000FF12CA6A700712B417E0F4600712335103
:10B3E00079058030901C72E0C0E012B417D0E0F014
:10B3F000905177E493F97A8C7B1C123387E96401CE
:10B4000070107A007B20901C72E0F912338D790065
:10B410008002790402C35FEC24FFF582ED34FFF56E
:10B42000832274F412245BA2AFE433F508C2AF9018
:10B430001C8C12B1DA603AEE24FBF582EF34FF1275
:10B44000CA6A7A007B20901C726007E0F912338D83
:10B450008005E0F9123393E4F50AF50B780A122A15
:10B4600046EEFCEFFD7A8C7B1C1233817402122AAB
:10B4700059E508A2E092AFEEFAEFFB8005740912DD
:10B480002A597F040226E974F512245B8A088B0985
:10B49000750A00901C8A80548E828F8312B4FB65DB
:10B4A000087004A3E06509703D8E828F83A3A3A377
:10B4B000A3E4F0A312B506540460118E828F83A317
:10B4C000A3A3A3A3A3A3A3E0F9123F578E828F8364
:10B4D000A3A3A3A3A3A3A3A3A37406F07AF0128744
:10B4E0000B12431D050A8E828F83A3A312B1DA705B
:10B4F000A7A90A8029F582E43FF583E0F812B50197
:10B500002212C1FAE02212B50BE02212B50F22F08E
:10B510008E828F83A3A3A3A3A3A322122A597F03FE
:10B520000226E974F012245B74D4122AEDEAFEEBD1
:10B53000FF750A00750B007508FE7509FF1243BF01
:10B54000E9600302B831EE241512A5A9604B901EE4
:10B5500070E0C43354E0F8E0333354FC48C0E012E8
:10B56000C4B4D0E012E6E1FAA3E0FB79FF1240593F
:10B570008B0DEA450D6015750A017508FF12A5A629
:10B580004404F0EE241512A5A9D2E0F0901A7CE054
:10B59000600464017003750B408E828F8312D51096
:10B5A000124509E96006EE241212CD32EE24131280
:10B5B000A5A9700D905175E493C0E012B848D0E091
:10B5C000F08E828F83E0A2E7500454038019EE24AA
:10B5D0001412A5A97012901C04E0C0E012B83ED06D
:10B5E000E0F0901C04E004F012F42B7016901E574B
:10B5F000E0600D901C0FE0700A8E828F83E0700374
:10B6000012CD2F901A7CE0600464017049901C12E6
:10B61000E0A2E15041E50AA2E040208E828F831231
:10B62000D510124509E9602E8E828F83E0600CEE02
:10B63000240B128B111244E5E9601B12A5A654409D
:10B64000700302B7E3EE241312F42E600302B7E393
:10B6500012A5A654FBF08E828F83E064017010EE79
:10B66000240B12B4F56402700612A5A64440F01231
:10B67000A5A65440600302B743E50AA2E0500302C6
:10B68000B743901A7CE060076401600302B74390FF
:10B690001C12E0A2E1400302B743E50BF50A780A69
:10B6A000122A4AEE2406FCE43FFD8E828F8312D5D7
:10B6B00010EE2412129BAB123F817401122A59E939
:10B6C000600CEE241212CD3212A5A64420F08E8218
:10B6D0008F83A3A3A3A3A3A3E06040EE2402F50EEF
:10B6E000E43FF50F850E8212B185EE2407FAE43FA0
:10B6F000FB1244498A088B09850E82850F83E06519
:10B70000087004A3E06509700C8E828F83A3A3A345
:10B71000A3A3A3E4F012A5A64440F08E828F83E099
:10B720006401600BA90B12B86A12D510123F21A94F
:10B730000B12B86612D510123EAFE9600612A5A62C
:10B740004420F0AC18AD19EEFAEFFB1244438A0A1C
:10B750008B0B74FE6508700474FF650970098E8296
:10B760008F83A3A312E612EA450B700302B8358E4D
:10B77000828F83E0C0E07401122CFFD0E0F07404EB
:10B78000122CFF12E250EE241E12B98A7402122CFF
:10B79000FF12D07F7401122AA7880C890D780C1231
:10B7A0002A46EE242012B851122A4A12B2781228E0
:10B7B00071EE240E12B851122A4A901C18122871E8
:10B7C0007408122CFFE0F9AC08AD0912443D74086E
:10B7D000122A59E9FE74106E705DAA0AAB0B12337F
:10B7E000F38054EE241312A5A9C0E07417122CFFA5
:10B7F000D0E012D4B8740F122CFF12B878240412BF
:10B80000B85912B9907411122CFFE8F0A3E912BED6
:10B8100099C0E07418122CFFD0E012E91012A5BBF9
:10B8200012B1877406122AAF123F51E9600302B6C3
:10B8300056791180047E10EEF9742C02DABAEE24E7
:10B8400014F582E43FF5832212B84C22EE12F498EC
:10B850002212A5ADF50C780C22F8E43FF9E8FAE9DC
:10B86000FB8A828B83228E828F83A3A3A3A312B130
:10B870008B8E828F8322A3A312D083EE22C082C03C
:10B880008374D7122AED9080007403122AB77426AD
:10B8900012296A8A828B83A3A3A3A312B990740E80
:10B8A000122CFF12F486A3A312B990740C122CFF71
:10B8B00012B99A12E8F812B982C0E0741A122CFF79
:10B8C000D0E0F012D71112B98E7420122CFF12B9E9
:10B8D0009A12CC5112B982C0E07408122CFFD0E049
:10B8E000F0EA241CF582E43B12B98E7412122CFF8C
:10B8F00012B99A12B97512B982C0E07409122CFFFC
:10B90000D0E0F012B96E12B982C0E07407122CFFB9
:10B91000D0E0F0EA241EF582E43B12B98E742412C2
:10B920002CFF12B99A2420F582E412B982C0E07487
:10B9300026122CFFD0E012B99F74FFF07401122C74
:10B94000FF74FFF07402122CFF74FFF09081031259
:10B95000286D7404122AB77407122AAF123DF574C9
:10B9600004122A5979007429122A5902C35FEA2461
:10B9700012F582E4222411F582E42274142AF5825D
:10B98000740B3BF583E022EE2413F582E43FF5834C
:10B9900012B99422E0F8A3E0F92212D083EA22122D
:10B9A000B9A322F08518828519832274F112245BD1
:10B9B00074EA122AED85188285198312DDEC8C0C4D
:10B9C0008D0D890E7509107A217B001233ED7402FA
:10B9D000122CFF12BB43122CFF12CA6C700302BB65
:10B9E0002F7508007C217D0079007402122CFFE085
:10B9F000FA1233337428122CFF12DDDD901A7CE02A
:10BA000060046401703EAA0CAB0D123CF38A0A8BF1
:10BA10000BA80AA90BE849602388828983A3A3A302
:10BA2000A3E06401600D88828983A3A3A3A3E064DB
:10BA3000037009EE5440700474044FFFEF54046027
:10BA400003750801901C2512D5127402122CFF12E6
:10BA5000BB362409F582E43812DDEA7425122CFF86
:10BA600012B9907413122CFF129F29122CFF12F49A
:10BA700062122CFF12F45CF0122CFF12DB6BE50C4F
:10BA8000F0A3E50DF07402122CFF12F444E50EF061
:10BA90007427122CFFE0F50A7402122CFF12F43402
:10BAA000E50A12BB3B7402122CFF12BB36241FF5B1
:10BAB00082E43812DDEA7408122CFF12E250740A94
:10BAC000122CFFE50AF0742B122CFF12DB6BC082E4
:10BAD000C083740E122CFFAC82AD83D083D08274ED
:10BAE0000512296A742A122CFFE0C0E07415122C8A
:10BAF000FFD0E0F0A9087402122AAF1243C5E9642E
:10BB0000017021901A7CE0600464017012E508A2C3
:10BB1000E0500CA90A1243EFEA4B6003124413757C
:10BB20000900800B7402122CFF12D5121233F3A9F4
:10BB300009741602D8B412C253C82212C238FAA32A
:10BB4000E0FB22EAF0A3EBF074022274F012245B13
:10BB500074FF122AEDEAFEEBFF8C088D098E828FAE
:10BB600083A37408F0EE241612A5A960088E828FB4
:10BB700083A37410F0EE241712A5A960098E828F9A
:10BB800083A3E02408F0EE241512A5A960088E8294
:10BB90008F83A3E004F08E828F83A3A3A3A3A3A328
:10BBA000E060198E828F83A3A3A3A3A3A3A3E0C302
:10BBB000332402F88E828F83A3E028F0EE24111242
:10BBC000A5A98518828519836004740E8001E4F0AC
:10BBD000901A7CE06402701E901E68E0640170168A
:10BBE0008E828F83E06401600D901E64E060071216
:10BBF000BE2C7401800412BE2CE412C234F98E8271
:10BC00008F83A3E012BE3F28298C828D83F0EE241F
:10BC10001112A5A96013901C10E0F9124269E9F80D
:10BC2000850882850983E029F0850882850983E0FB
:10BC3000C394754009750C00750D0002BE1BE0FA37
:10BC40007B001233ED8A0C8B0DEA450D700302BEAA
:10BC50001B8E828F83E0FA901C1512BE64740278EA
:10BC600008122C16EA4508FAAB09EE241212BE5E41
:10BC700074067808122C16A808EA48FCEBFDEE249E
:10BC80001512A5A96004780180027800EE2416FA46
:10BC9000E43FFBE4C8F9ED49FDEE241112A5A9F536
:10BCA00008880974097808122C16ED4509FD8A8266
:10BCB0008B8312BE64740B7808122C16ED4509FDB7
:10BCC000EE241712BE5E740C7808122C16ED45098E
:10BCD000FD8E828F83A3A3A3A3A3A312BE64740AC1
:10BCE0007808122C16ED4509FDEE242312BE5E7471
:10BCF0000D7808122C16ECF8ED4509F9E8850C8250
:10BD0000850D83F0E912BE6B850C82850D8312BE12
:10BD10008EF0EE240412BE3612BE5012BE8EA3A3C5
:10BD200012F48E12BE50A3A3A3A312BE99850C8257
:10BD3000850D83A3A3A3A3A3A3A3F0750B088A82F5
:10BD40008B83E06015EE241812B181E50C2408FA0B
:10BD5000E4350DFB123501750B10EE241712A5A961
:10BD60006019EE241A12B181A80BE50C28FAE4350B
:10BD70000DFB1235017408250BF50B8E828F83A302
:10BD8000A3A3A3A3A3E06054EE2407F50EE43FF5BC
:10BD90000F850E82F583E0C0E012BE47D0E012BEF0
:10BDA0007EE0C0E00812BE49D0E012BE7E12DB7316
:10BDB000122A42850E82850F83E012C1A1A80BE5ED
:10BDC0000C28FAE4350DFB1233277403122A598527
:10BDD0000E82850F83E0C333250BF50BEE2415127D
:10BDE000A5A96008C0E012BE47D0E0F012C4BE12A0
:10BDF000DB74122A4212BE40FC7D007403122CFF39
:10BE000012BE24E0F8E50C28F8E4350DF9E82AFA2A
:10BE1000E439FB1233277403122A59AA0CAB0D74B0
:10BE20000102DABAE0FA8E828F83A322EE2423F590
:10BE300082E43FF58322F8E43FF98882898322F87F
:10BE4000EE240D12A5AD22A80BE50C2812C1CC22C0
:10BE500012BE5422E0850C82850D83A3A322F582B5
:10BE6000E43FF583E0F50875090022A312BE75884A
:10BE7000828983E022F0EE2402F8E43FF922F00503
:10BE80000B8E828F83A3A3A3A3A3A3A3A322A3A305
:10BE900012E99CA312BE54A322F0EE241412A5AD05
:10BEA0002274F412245B74FD122AEDEAFEEBFF8C7F
:10BEB000088D097401122AA7880A890B780A122AA8
:10BEC000467402122AB7AA08AB09123EFD74021288
:10BED0002A59E9704F85188285198312CC66F0744F
:10BEE00001122CFF12BF2DE8F0A3E912C234602723
:10BEF000148E828F83A312C23412DAB17401122C11
:10BF0000FFE028F8A3E039F9E824FEF582E934FFE0
:10BF1000F58312D51280118E828F83A3E4F0AA08D4
:10BF2000AB0980047AFE7BFF740302B47F12B994DC
:10BF30008E828F83A3A32274F012245B74FD122AD5
:10BF4000ED85188285198312BB43122CFFE9F08C12
:10BF50000C8D0D750B017C267D007900AA0CAB0DB4
:10BF60001233337402122CFFE0C39408500302C151
:10BF70002FE0850C82850D83F0AC0CAD0D85188209
:10BF800085198312B4FBFA851882851983A312C719
:10BF9000A312C4EE124455E96003750B00851882A4
:10BFA00085198312DB6B12C1E7E0F9EA850C828503
:10BFB0000D83A3A3A3A3A3A3A3A3A312C246F583A4
:10BFC0008882A3A312C1E7A3A3E0F9EAF812D86715
:10BFD000E812C24612C1B0C0E012D85FD0E012C26F
:10BFE00034F8A3E0C82407F582E438F583E0C0E024
:10BFF00012C1A8D0E012C227740812C23DA3E060AB
:10C0000020851882851983E02408F8A3E03400F91C
:10C01000E50C241312C1CCE8F0A3E912D9DF2408FF
:10C02000F0850C82850D83A3A3A3A3A3A3A3A3E000
:10C03000602A850C82850D83A385820E85830F126D
:10C04000C1E1F8A3E03400F9E50C12CC51350D1232
:10C05000D07D850E82850F83E02408F012C1B4E400
:10C06000F012C1C4E4F0A312C227A3A3A3A3E0600B
:10C070001112C201850C82850D83A3A3A3A3A31271
:10C08000C258E50C12C1D4E0700302C11B12C201F8
:10C09000FA12C1B4EA12C258F8851882851983E0F1
:10C0A00028FBA3E034008B82F583E0F8E50C241A2A
:10C0B00012C1CCE812C258E8C39AE50C505812C11C
:10C0C000DBF8905178E493C39850047E0C8006E529
:10C0D0000C12C1DBFE850C82850D8312C1E0F508D0
:10C0E000A3E03400F509750A007808122A42EE121E
:10C0F000C1A17AE47B0D1233277403122A5912C1AD
:10C10000C474E4F0A3740DF0EEC333F8850E828599
:10C110000F83E028800412C1D4E4F0850C82850DE1
:10C1200083A3E0F8850C82850D83E0C398500479E1
:10C1300000806B12C1E0FAA3E03400FBE50C12E8CA
:10C14000DC350D12DDEA850C82850D83E0C398C0D5
:10C15000E012D857D0E012C23DE06040E50C241751
:10C16000FEE4350DFF8E828F83E024F2F0E50C248F
:10C170001DF8E4350DF988828983E0240EFAA3E0E6
:10C180003400FB8882898312DDEC901C10E0F912E8
:10C190004269E9F88E828F83E0C398F0A90B02DA36
:10C1A000B825E0FCE433FD22E50C241212C1CC22B8
:10C1B00012D16122E50C12C1BA222419F582E435AC
:10C1C0000DF58322E50C241B12C1CC22F582E43547
:10C1D0000DF5832212D9D912C1CF2212C1BAE022A1
:10C1E000A312C21EE02822A3A3E0FA8518828519B3
:10C1F0008312C1FAA3A3A322E0F8A3E0F583888207
:10C2000022850C82850D83A385820E85830F12C241
:10C210001EE028FAA3E034008A82F583E022E0F8E9
:10C220008518828519832212C22B22F0850C828503
:10C230000D83A32212C2382212B9A3E02212C22B0C
:10C24000A3A3A3A3A32212D08485188285198312E5
:10C25000C25322E0F8A3E022F0850E82850F83E02E
:10C2600004F02274F412245B8A088B09EA12C301D9
:10C27000A3A3F0EA1313543F12C2F9A3A3F0EAC434
:10C28000131312C30112C3147409780A122C8A12F0
:10C29000C308A3A3A3A3A3A3F0EB12C30A12C3135F
:10C2A000740A780A122C8AE50A5401C0E0EC12D90B
:10C2B000D93DF583D0E012C318740B780A122C8A8A
:10C2C00012C30812C311740C780A122C8A12C30804
:10C2D000A312C311740D780A122C8AE50A5401C006
:10C2E000E0EC2424F582E43DF583D0E0F0740E7890
:10C2F00008122C8AA90802B482540F8C828D83A361
:10C300002254038C828D8322E50A54018C828D8312
:10C3100022A3A3A3A3A3A3A3F08A0A8B0B22C08208
:10C32000C08379008A828B83A3A3A3A3A3A3E090F5
:10C330001C0F600EE070238A828B83A3A3E0701A27
:10C340008016E060158A828B8312D509901C18E054
:10C350006A7003A3E06B60027901800312D512D0EA
:10C3600083D0820229EE74F212245B8A0A8B0B8935
:10C370000CECFEEDFF8A828B8312C4EC12445585CF
:10C380000A82850B83A3A312C4E0E0F9EA8E828FB0
:10C3900083A3A3A3A3A3A3A3A3A312C4FF12C4E0D4
:10C3A000A3A3E0F9EAF812C4BEE812C4FFA3A3E015
:10C3B000C0E0EE12B9753FF583D0E0F0850A8285C2
:10C3C0000B83A3A3A3A3A3A3A3E0C0E0EE12B96FC2
:10C3D0003FF583D0E012C4FA740812DB89A3A3A34B
:10C3E000E06018E50A2408F8E4350BF9EE2413128E
:10C3F000D0798E828F83A3E02408F08E828F83A36E
:10C40000A3A3A3A3A3A3A3E060158E828F83A3128B
:10C41000C4CF12C4B4E8F0A3E912CF332408F08EDD
:10C42000828F83A3A3A3A3A3E0601F8E828F83A325
:10C43000858208858309E0F8E50A28F582E4350B52
:10C4400012C4C4A3A312CF3304F0EEFAEFFB1244DC
:10C450005BE9F50D70598E828F83A3A3A312CC6381
:10C46000A37014E0F8E50A28FAE4350BFBEE241D6E
:10C4700012DDE6E50C802812C4CFE8240EF8500146
:10C4800009EE241D12D079901C10E0F9124269E9DE
:10C49000F8850882850983E0F9E50CC39924F2C385
:10C4A00098C0E0EE2417F582E43FF583D0E0F0A9D0
:10C4B0000D02AA26EE2415F582E43FF5832212CD63
:10C4C00044F58322F583E08E828F83A3A3A3228584
:10C4D0008208858309E0F8E50A28F8E4350BF9229B
:10C4E000E0FA850A82850B83A3A3A322E0FAA3E0E6
:10C4F000F8E4C8F9EA28E439FB2212DB91A32212FE
:10C50000D084850A82850B83A3A3A3A322C082C003
:10C51000837A9A7B1C79E2123B497A9A7B1C02C38C
:10C520005FC082C083901C1802C35CC082C083902D
:10C530001C1B02C35CC082C083794A123B4902C300
:10C540005F74F612245B901CA2E0FE04F0EEF91278
:10C5500043EF8B09EA450970EDEE60EAF902C89CE9
:10C5600074F112245B74FE122AED851882851983FA
:10C57000ECF0A3EDF0EAFEEBFF890E750A00C200B5
:10C58000851882851983E0FC12460B8A088B097492
:10C5900011122CFFE0F50B7412122CFFE0F50CEADF
:10C5A00045097018E50C600302C697A90E8518822C
:10C5B00085198312C7A712462F02C78EE50C700398
:10C5C00002C660901A7CE060046401700E901CA7A3
:10C5D00012CA6C600612C7A3124B86E50B700D855C
:10C5E0000882850983E4F0D20002C6BA901A7CE082
:10C5F00060076401600302C6BA901C12E0A2E14029
:10C600000302C6BA901CA912CA6C600CA90BAA0836
:10C61000AB0912C7A3124B86850882850983E0FA0D
:10C6200012E8FE500109C3EA98E499A2D265D0331A
:10C630005009850882850983E004F0850882850910
:10C6400083E0F8905171E49368706F750A01EEFA17
:10C65000EFFB123F8D850882850983A3E4F0805AA1
:10C66000E50B701FEA2402F582E412C79BA80E288E
:10C67000F8E4340013E813F070098A828B83A3A3D3
:10C680007401F08A828B83A3A3E0F8901E26E0C396
:10C69000985051D200804D7401650C701DE50B60FF
:10C6A00019901A7CE060046401700F901C12E0A2E3
:10C6B000E15007EEFAEFFB123F8D901A7CE0640226
:10C6C00070227401650C701CE50B901CB96013E0BE
:10C6D00004F0901E54E0F8901CB9E0C39840057532
:10C6E0000A01E4F0E50AA2E07200400302C78E905E
:10C6F0001A7CE060046401703F901C12E0A2E150DB
:10C7000037EEFAEFFB123CF38A088B09A808A90957
:10C71000E8496024A200500D88828983A3A3A3A3C3
:10C72000A3E0C2E0F0E50AA2E0506388828983A317
:10C73000A3A3A3A3E0D2E0F0E50AA2E05050901A30
:10C740007CE060046401701D901C12E0A2E15015B1
:10C75000EEFAEFFB123CE1E9600BEEFAEFFB790039
:10C76000123E2B8029901C1BE06E7003A3E06F70BB
:10C770001DEEFAEFFB7901123E2B901A7CE0640269
:10C78000700C7A017B00901C72E0F91234BF7402C5
:10C7900002D8B474B12508F582740E3509F583E02A
:10C7A0002279C412C1FB22129AF1FAEFFB2274F42F
:10C7B00012245B8A088B098C0A8D0B9080FB780809
:10C7C000122B18700E7A017B00901C72E0F9123364
:10C7D0008D8031901E417808122C991289A560181D
:10C7E0007808122A3E7A017B00901C72E0F912341C
:10C7F000B37404122A59800C7A017B00901C72E0F9
:10C80000F91234BF02B482C082C083901E4502ABCD
:10C8100078C082C083901E4702AB7874F612245B06
:10C820007E0075080475091C7808122A467C6E7D06
:10C83000007A217B001234657402122A59E9640AD5
:10C8400070027E01123CBDE9640A7004EED2E1FE82
:10C85000901A7CE060046401700C123D2FE9640AB8
:10C860007004EED2E2FE9004ED12CA6C600F12C7A3
:10C87000A3124B86E9640A7004EED2E3FE12407DF7
:10C88000E9640A7004EED2E4FE123ABFE9640A7069
:10C8900004EED2E5FEEEF98003122A597F02022649
:10C8A000E974F612245B1232FD75080475091C78D0
:10C8B00008122A4675086E7509007808122A467C07
:10C8C000007D007A217B001234717404122A5912FF
:10C8D0003CC3901A7CE0600464017003123D359003
:10C8E00004EF12CA6C600612C7A3124B8612408373
:10C8F000123AD180A774F612245B74FF122AED7EDF
:10C900000075080475091C7808122A467C6E7D00A3
:10C910007A217B001234657402122A59E9600302FD
:10C92000C9DA7808122A4675086E8E097808122A24
:10C93000467C007D007A217B001234777404122A31
:10C9400059E9600302C9DA901C18E064FE7003A381
:10C95000E0F4700302C9DA7E01901C27E0640860ED
:10C9600005E06404706F851882851983EE12CF4646
:10C970007942123B4F7A2F7B1C7943123B4F7A2C22
:10C980007B1C7947123B4F7A1D7B1C794A123B4F27
:10C990007A1B7B1C794B123B4F7A257B1C795012FA
:10C9A0003B4F7A187B1C7953123B4F7A2D7B1C79B5
:10C9B00054123B4F7A1A7B1C79E1123B4F901C12A8
:10C9C000E0A2E35004D2F08002C2F012CF3C7952D0
:10C9D000123B4F80051232FD7E00123CB1901A7C52
:10C9E000E0600464017003123D479004F112CA6CC8
:10C9F000600612C7A3124B8612408FEEF974010233
:10CA0000C89974F612245BE9FEA2E050267508046A
:10CA100075091C7808122A4675086E750900780891
:10CA2000122A467C007D007A217B00123471740446
:10CA3000122A59EEA2E35003123CB7901A7CE06030
:10CA40000464017008EEA2E15003123D4DEEA2E233
:10CA5000500E9004F312CA6C600612C7A3124B86E4
:10CA600002C89C8E828F8312B290F58312B994E82B
:10CA7000492274F612245B74EC122AED7401122A16
:10CA8000B7901E86E0F97A757B1C1243A1740512DB
:10CA90002CFFE4F07407122CFFE4F07A04F9123C46
:10CAA000CF8A08905189E493FAC3E5089AEB940081
:10CAB0005050123CABE9704A90516412CB5E601545
:10CAC0007A047903123CCF905189E493FC9051642D
:10CAD00012CB6850087405122CFF7401F090516C51
:10CAE00012CB5E60157A027901123CCF905189E435
:10CAF00093FC90516C12CB6850087407122CFF7491
:10CB000001F0901E86E0F97C757D1C7401122AAF3D
:10CB100012439B7A757B1C7945123B4F7407122C8C
:10CB2000FFE070117405122CFFE0700985188285F2
:10CB30001983E480088518828519837401F0901E9A
:10CB400080E0F8901B94E058F8851882851983E0FE
:10CB50005812CF467941123B4F741402C899E4939E
:10CB6000F8740193F9E84922E493F8740193F9EC1D
:10CB7000C398F8E499F9C3EA98EB992274F7122460
:10CB80005B74ED122AEDE9FE901C71F0AC18AD1942
:10CB9000901E86E0F97A757B1C1243A17412122C48
:10CBA000FFEE12CBBAAA18AB1912439B7A757B1C05
:10CBB0007945123B4F741302B29CF0901E86E0F947
:10CBC0007C757D1C2274F412245B8A088B09901EEC
:10CBD00088E064FE7003A3E0F470737A167B0012A1
:10CBE000334B8A0A8B0BAE0AAF0BEE4F60608E821E
:10CBF0008F83740112CF2212CC65A360047402806B
:10CC0000027401F0EE240AF8E43FF9E508241D124D
:10CC1000CC5B12F0F012AA03F0A2E34009128E3AA4
:10CC200012D51212442BE50812CC51350912E9092C
:10CC3000123501EE241312CD32EEFAEFFB901C7286
:10CC4000E0F9123357128E3A12D4B112D07F02B4E7
:10CC5000822415F582E422E5082413F582E43509DF
:10CC6000F58322A3A3A3E08E828F832274F2122481
:10CC70005B74FD122AED8A088B09890A8C0B7401FA
:10CC8000122CFF740412CF461244EB8A0C8B0DAEAB
:10CC90000CAF0DEE4F607B12CD3B7407F0E508241E
:10CCA00013FAE43509FB8A828B8312DCA412CD20AF
:10CCB000A312DCA412CDF188828983A3A3A312DC82
:10CCC000ABE508240BF8E43509F912DC95E8F0A38C
:10CCD000E912DE7C12446712CF0A12DE7374036518
:10CCE0000A60067401650A700712CD267404800478
:10CCF00012CD26E4F0901E8812BF2D12D07F740151
:10CD0000650B700312CD2FEEFAEFFB123D65E9F9CA
:10CD100080027910901E8874FEF0A304F002AA210C
:10CD2000F08A828B8322EE12B27D7440F0A322EE51
:10CD30002411F582E43FF583E4F02212CD44F5831B
:10CD400012D88722EE240BF582E43F2274F41224D9
:10CD50005B8A088B097A007B04901C72E0F912341C
:10CD6000BF12CE00901C277409F01244678A0A8B08
:10CD70000BAC0AAD0B12CC5712D5121234FBE9647E
:10CD800001706B7A0F7B0012334B8A0A8B0BAE0A51
:10CD9000AF0BEE4F60588E828F837402F0E508125D
:10CDA000E8DC350912D87FFC88828983A3A3E0FBE5
:10CDB000EC8E828F83A3A312DDED8882898312CC4F
:10CDC0006312CDF1FAA3E0FB794A123B4F8508824A
:10CDD000850983A3A3A3A3A3A3E0700690180974F5
:10CDE00005F0EEFAEFFB901C72E0F912335702B433
:10CDF00082A3F0E5082415F582E43509F583E022E5
:10CE0000901B9712B994901E4712D083901B9912D1
:10CE1000B994901E4512D0832274F412245B74FDE1
:10CE2000122AED8A088B097401122CFF740212CFAA
:10CE3000461244EB8A0A8B0BAE0AAF0BEE4F70031F
:10CE400002CF0512F451E412CF27E0640170088884
:10CE5000828983A37420F0850882850983A3A3A314
:10CE6000A3A3E06401700988828983A3E0D2E6F07D
:10CE7000850882850983A3A3A3A3A3A3E06401700B
:10CE80000A88828983A3E0D2E7800512B84874013A
:10CE900012CF22E06401701E850882850983A3A356
:10CEA00012CA6C600312DC9D850882850983A3A3E6
:10CEB00012B99012D076850882850983A3A3A3A313
:10CEC000A3A3A3E064017009EE240F12DCA0A3E485
:10CED000F085088285098312D512124509E960069A
:10CEE00012A5A64404F0EE241712DCA01244671227
:10CEF000CF0A12CF3312CF1912B876FAEFFB123DD8
:10CF000065E9F98002791002BF28EE241AF582E45F
:10CF10003FF583EAF0A3EB22E0F8A3E0F98E828FDD
:10CF2000832212CF27A322F0850882850983A3A339
:10CF3000A3A322F0850882850983E022A2F0E433CE
:10CF4000851882851983F0AA18AB192274F512246A
:10CF50005B74F3122AED890AEAFEEBFF750800758F
:10CF600009007C0D7D007900AA18AB19123333EE4D
:10CF700012E8DC3FF58312D137741F58600C7AD366
:10CF80007B0012376B790002D067E8A2E550087485
:10CF90000C122CFF7401F0E8A2E75008740B122C5D
:10CFA000FF7401F0E8A2E6740A5008122CFF740125
:10CFB000F08008122CFFE0640170138E828F83A32F
:10CFC000A3A3A3A3A3A3E06030EE241380128E8258
:10CFD0008F83A3A3A3A3A3A3A3A3E0601CEE2415A4
:10CFE00012E60CE50845096010AC08AD09740212A0
:10CFF0002CFFAA82AB8312350112C4BE12D06C1270
:10D00000D07F740A122CFFE064017052901A7CE009
:10D01000605364017008901E63E070198047E064FB
:10D02000027012EE240B12B98A901C1BE068700388
:10D03000A3E069703012D505124509E97027E508AB
:10D040004509601A1244678A088B09AC08AD097457
:10D0500002122CFFAA82AB831234FBE96007AA18E4
:10D06000AB19123E25A90A740D02B51B12B994859D
:10D07000188285198322EE2418F582E43FF5831285
:10D08000D08322E8F0A3E9F02274F712245B74CD78
:10D09000122AEDEAFEEBFF8E828F8312D155A2E0B9
:10D0A000400302D13212D13DE054FE12ED39740D2D
:10D0B000122AB712D16C124461E97076742A122CCC
:10D0C000FF12D14B706C7C0D7D007900AA18AB1952
:10D0D0001233337416122CFF12D06C12D07F742AC4
:10D0E000122CFF12D137A2E55008740B122CFF74DA
:10D0F00001F0E8A2E75008740A122CFF7401F0E86E
:10D10000A2E65004742080027422122CFF12B18710
:10D110007402122CFFAA82AB831235018E828F8398
:10D12000A3A3E0C0E0740C122CFFD0E012CF461293
:10D130003E1F743302B29C129AB2E0F8228E828FA4
:10D140008312D887A3A3A3A3A3A32212B36D64045D
:10D15000228A828B83E0F8A312D15C22E012D16193
:10D1600022C82406F582E438F583E022EA241EF57D
:10D1700082E43BF583E0F9EA241FF582E43B12D117
:10D180008222F583E0FAA3E0FB22E9F87900740437
:10D1900068600A740A6860057403687002790102A5
:10D1A00029EE74F612245B8A828B837424F0A3A385
:10D1B0007401F0123D6B8A088B09AE08AF09EE4F7F
:10D1C000600D8E828F8312DE7A12446712DDE3EEE9
:10D1D000FAEFFB02C89CC082C083901C1502AB8092
:10D1E000C082C083901E8702AB80C082C083E9905A
:10D1F0001E8702AB7CC082C083901C8E7401F0E954
:10D20000A2E350037403F0E9A2E15004E0D2E2F09B
:10D2100002C35F74F612245B79007C008A088B09D4
:10D22000780812272FF8FF0748D246D246D246D2B6
:10D2300046D23ED242D248D23AD27C01800A7C0405
:10D2400080067C0280027C08901C8EE05C60047981
:10D25000028005EC6002790102C89C74F412245B20
:10D26000EAFEEBFF8908123CF98A0A8B0BA80AA98F
:10D270000BE849604188828983A3A3A3A3E06036B9
:10D28000C39405503174016508601A88828983A3AC
:10D29000A3A3A3E06401600D88828983A3A3A3A351
:10D2A000E06402700A8882898312D512123EE5EE8C
:10D2B000FAEFFB123D0502B48274F612245B8A82F7
:10D2C0008B83E07014A3A3A312CA6C600C8A828BB8
:10D2D0008312D50F1240DD80047A007B0002C89CC7
:10D2E000C082C083901C27E06408700312452D02A1
:10D2F000C35FC082C0837800E875F003A4FCA9F086
:10D30000E9FD12D3816A7003A3E06B70189051801D
:10D31000E493C0E074912CF582741C39F583D0E05D
:10D32000F079C5805908E8C3940340CC7800E875CB
:10D33000F003A4FCADF012D38164FE7003A3E0F40B
:10D34000601E08E8C3940340E57800E875F003A484
:10D35000FCADF074912CF582741C3DF583E07015E2
:10D36000E812E9A212DDEC905180E493888289836F
:10D37000F07900800908E8C3940340CF79C702C35D
:10D380005F74922CF582741C3DF583E022C082C04C
:10D39000837C00EC75F003A4F8A9F0749228F58260
:10D3A000741C12EA7A6A7003A3E06B700912ED1E16
:10D3B0006004790180090CECC3940340D679000223
:10D3C000C35F74F212245B74DD122AED8A088B09A4
:10D3D000750A00901A7CE060076401600302D4A61D
:10D3E000901C18E065087004A3E065097011EA4517
:10D3F00009700302D499750A0112453302D4A612AA
:10D400003CF38A0C8B0DAE0CAF0DEE4F700302D4C3
:10D41000998E828F83A3A3A3A3E06401600D8E8203
:10D420008F83A3A3A3A3E06402706E85188285197D
:10D4300083E412D4B8740B122CFFE8F0A3E912CFE6
:10D4400046123C9FE960528E828F8312D4B112D073
:10D450007F7403122CFFAC82AD837418122CFFAAC8
:10D4600082AB831235017900123ED97420122CFF51
:10D4700012DDEC7422122CFFE4F07C028E828F838A
:10D48000A3A3A3A3E0F9740D122AAF1244C7750A2F
:10D490000112D4AD129B25800D901C2512B187AAD4
:10D4A00008AB091245F3A90A742302AA2312E91A48
:10D4B0002212B994901E882212E6E5F8A3E0F92220
:10D4C000C082C08374FE122AED901A7CE06004646E
:10D4D00001702D7901123EDF851882851983EAF0EB
:10D4E000A3EB12DB81901C18E8F0A3E912CF467978
:10D4F00053123B4F85188285198312D5121236A517
:10D50000740202B9688E828F83A3A3A3A3A3A3A3EB
:10D51000A3A312D1842274F412245B74F3122AEDB3
:10D52000EAFEEBFF8C088D09750A12EE4F70057943
:10D530000002D600901C18E06E7003A3E06F701D0F
:10D540001244678A0A8B0BAC0AAD0BAA08AB09120E
:10D5500034FBE97005750A018003750A008518829D
:10D56000851983E4F004122CFFEEF0A3EF12CF46EE
:10D57000123C93E9602A7403122CFFAA82AB831237
:10D580003C6FE964017019750A017403122CFFAC39
:10D5900082AD83AA08AB091234FBE96003750A0067
:10D5A000901A7CE06004640170177412650A7011AF
:10D5B000AC08AD09EEFAEFFB123CDBE96003750A3B
:10D5C00000AC08AD09EEFAEFFB124611E9F8740A57
:10D5D000687005750A01801D74A0687012AC08ADF2
:10D5E00009EEFAEFFB124623EEFAEFFB1246357412
:10D5F00001650A70097900EEFAEFFB12453FA90AAE
:10D60000740D02B47F74F612245BEAFEEBFF890806
:10D61000901A7CE060046401701E12452DE508F547
:10D62000097809122A4A790DEEFCEFFD7AFD7BFF9D
:10D6300012454B7401122A5902C89C74F712245BDC
:10D64000EAFEEBFF8E828F83A3A3A3A3A3A3A3A3CE
:10D65000E0601312C4B4129BBD124539E964017035
:10D660000512C4BE80298E828F83A3A3A3A3A3A384
:10D67000A3E0602512B17E12D505124539E9640197
:10D6800070178E828F83A3A3A3A3A3A3A3A3A31224
:10D69000D51212452179018002790002B29F74F2FD
:10D6A00012245B74FD122AED8A088B09ECFEEDFF53
:10D6B000890A750B017401122CFF740412CF4612F3
:10D6C00044EBEA4B60467411122CFFE0601512DD4A
:10D6D000C3E412E2498A828B83E0D2E7F0EA2414A1
:10D6E00012AFB212D71112CD3E7403F0A3E50AF0C7
:10D6F000EE88828983A3A3F0EF88828983A3A3A302
:10D7000012CD2012F6B6123D65E9F50BA90B02AA5F
:10D710002112AFDC3B2274F112245B8A0C8B0D8941
:10D720000875090112E8DB350D12D87FF50E8882E5
:10D7300089831288F212D87012D857E06404600A04
:10D740007AD37B0012376B02D853E50E1228F6020B
:10D75000000264D7030B07D8030CEDD70DC5D70E15
:10D7600007D804D8901A7CE060076401600302D8EF
:10D7700007901C12E0A2E1400302D8077900EFFBFA
:10D78000123F6FEA4B60338A828B83A3A3A3A3A3C8
:10D79000A3E05418602412D8671228718A828B8300
:10D7A000A3A31228717900850C82850D8312D8A05D
:10D7B000123F877404122A59802E7901EEFAEFFB8A
:10D7C000123E378042901A7CE06004640170389009
:10D7D0001C12E0A2E15030EFFB12451BEEFAEFFB0A
:10D7E000124521E964C5701F750900801A901A7CE2
:10D7F000E0600464017010901C12E0A2E150081275
:10D8000036C98003750800E50C2409F50AE4350DD6
:10D81000F50BEEFCEFFDA90E850A82850B8312D570
:10D8200012123E4F850A82850B8312D512124509CA
:10D83000E9602012D85FE0C39402401712D8671243
:10D84000E17B7003A3E069600AE509A2E05004A946
:10D8500008800279008060E50C241712C1CC22E513
:10D860000C241112C1CC22E50C12AFDD12C1CF2263
:10D87000A3A3A3E0F8E4C8F9EA28FEE439FF2212E2
:10D88000D885A3E022F583E0F8A3E0F988828983B4
:10D8900022E50812ED183509F583E0F98A828B83B9
:10D8A000A3A3A3A3A3A3A3A3A312B18B8A828B8355
:10D8B00012D18422122A597F070226E974F0122419
:10D8C0005B74F3122AED7403122CFFECF0A3EDF05D
:10D8D0008A0E8B0F890B7E01EE122CFF740AF074F6
:10D8E0001D122CFFE0F50AE9700FE50AC333240A84
:10D8F000C0E0EE122CFFD0E0F0AA18AB191244EBF6
:10D900008A088B09EA4509700302D9D212AFDC35C7
:10D910000912DDDB8E828F837409F0E50BC433546A
:10D92000E0450AA3F0EE2402FE50010F7403122C0E
:10D93000FF12C7A7123501EE2408FE50010FE50BB8
:10D9400070377800741E122CFF12D5128025E81251
:10D95000C1A1EA2CF50CEB3DF50D850C82F5831287
:10D96000CC6612D9DF8E828F83A3F0EE2402FE50A4
:10D97000010F08E8C3950A40D5E508241712CC5BCF
:10D980007401F0124467E508241AF582E43509129F
:10D99000DDEA7405122AB7AA0EAB0F123C7BE960D0
:10D9A00019E508241612CC5B7401F07405122AA73D
:10D9B000E50812D9D9350912D07D850882850983F9
:10D9C000A3A3E50EF0A3E50FF0AA08AB09123D658D
:10D9D000E9FEEEF9740D02DABA2418F582E4221297
:10D9E000C22BE02274F012245B74F8122AED8A0E26
:10D9F0008B0F12E8DB350F12DC11F8741F58F50A93
:10DA0000880BA3AE82AF83EEFCEFFDAA18AB191210
:10DA10003501EE2408FE50010FAC18AD197A397BA0
:10DA20001C1234FBE9700302DAAD74E0550B70761A
:10DA3000AA0AEA2AFA7B001233ED8A088B09EA4522
:10DA400009606A7A00802B8E828F83E0FCA3E0F865
:10DA5000E4C8F9EC28E439FDEA12DAB1E50828F562
:10DA600082EB39F583ECF0A3EDF0EE2402FE5001D9
:10DA70000F0AEAC3950A40CF7808122A46780A129C
:10DA80002A4A7403122AB77900E50E12AFDD350F6A
:10DA9000F58312D5121245637403122A59AA08ABF2
:10DAA000091233F380077AD37B0012376B74088036
:10DAB0000925E0F8E433F9227403122A597F080299
:10DAC00026E974F012245B74FE122AED8518828513
:10DAD000198312DDEC890C8C0E8D0F90189512CAEB
:10DAE0006C607D7412122CFFE0F50B12DAB1E824A1
:10DAF0000EFAE439FB12334B8A088B09AE08AF09E2
:10DB0000EE4F605C8E828F8374D412DB818E828FA5
:10DB100083A3A3E8F0A3E912DB89E50CF0AC0EAD1A
:10DB20000FEE2405FAE43FFB12350112E8ECE50B99
:10DB3000F07413122CFF12DB74122A42AC0BEC2C83
:10DB4000FCE433FDEE240EFAE43FFB1233277403AA
:10DB5000122A59EEFAEFFB90189512DB6B124B86E6
:10DB6000740202DABA85088285098312C253F583EA
:10DB7000888222A3E0F508A3E0F509750A00780879
:10DB80002212C238F8A3E0F92212DB91A3A3A3A3C7
:10DB900022F08E828F832212B994850C82850D83A8
:10DBA0002274F612245B74F8122AED890812E8DB5D
:10DBB0003B12DC11F9741F59F88909A3AE82AF83B7
:10DBC000740168703EEEFCEFFDAA18AB1912350126
:10DBD000EE2408FE50010FAC18AD197A397B1C12E7
:10DBE00034FBE9602574E0550970188E828F83A399
:10DBF00012BE2412C4EE8E828F83E0F9124593A9DF
:10DC00000880097AD37B0012376B7900740802C848
:10DC100099F583E02401FEA3E03400FF8E828F8318
:10DC2000E02274F012245B74FD122AED8A088B093D
:10DC30008C0E8D0F890A750B017401122CFF740371
:10DC400012CF461244EB8A0C8B0DAE0CAF0DEE4F8B
:10DC5000603E12CD3B740BF0A3E50AF07413122C56
:10DC6000FF12DCA4A312DE7C12446712CF0A12DC7E
:10DC7000AB12DC95E50EF0A3E50F12DB9112F6B6C0
:10DC8000EE241312DCA0EEFAEFFB123D65E9F50B72
:10DC9000A90B02DAB8EE12D9D93FF58322EE241689
:10DCA00012DCB322E088828983A322F0EE241612CC
:10DCB000DCB322F582E43FF5837401F02274F012A4
:10DCC000245B74FD122AED7401122CFF12DDEC8529
:10DCD0001882851983E4F004122CFF12BB3612E877
:10DCE000DC3812DEC812DDDD7401122CFF12BB36E7
:10DCF00012CC5138F58312D512123CF9EA4B70035D
:10DD000002DDC08A828B83A3A3A3A3E0700302DD9C
:10DD1000C0C39403400302DDC0EEC3940F5003EF71
:10DD2000600B8518828519837401F0807512B96EB5
:10DD300012AFB5EE70229050307808122BA412DD8D
:10DD4000C37808122C999050307808122BA412E650
:10DD5000D77808122C99803BF50875090074027871
:10DD600008122C1674302508F582745012CC5E7897
:10DD70000C122BA49081237808122CA8780C790817
:10DD800012236C12DDC3780C122C9912E6D7780C92
:10DD9000122C99EA241BF582E43BF5837401F012FE
:10DDA0003711901E64E0FC851882851983E0F974B0
:10DDB00001122CFF12BB3612DDCD12D51212457B9B
:10DDC00002DAB8EA2417F582E43BF5832212DDD1AA
:10DDD00022240BF582E438F583223BF583E0FEA391
:10DDE000E0FF22EE241AF582E43FF583EAF0A3EB8C
:10DDF000F02274F012245B74F5122AED8A0E8B0F58
:10DE000089098C08750C017401122CFF740312CF60
:10DE1000461244EB8A0A8B0BAE0AAF0BEE4F604CF6
:10DE200012CD3B740C12F6BA88828983A3A3E5084D
:10DE300012DE7C12446712DDE37403122AB7AA0EC5
:10DE4000AB0F123C7BE9600B12DC9D7403122AA716
:10DE500012D0768E828F83A3A3E50EF0A3E50F1276
:10DE6000DE73EEFAEFFB123D65E9F50CA90C740BBD
:10DE700002DABA12F4927401F0227401F0EE24175F
:10DE800012DCB32274F612245B12E8DB3B12DEC80C
:10DE90001288F3E0702FEAA2E0502A901E64F07519
:10DEA000086475091E7808122A467508017509006C
:10DEB0007808122A467C007D007A517B001234716A
:10DEC0007404122A5902C89CF583E02401F8A3E0E7
:10DED0003400F9888289832274F612245B74DA1282
:10DEE0002AEDEAFEEBFF12CA6360548E828F831222
:10DEF000D512AC18AD1912D16C12444F7409122C02
:10DF0000FF12E17B7003A3E06960348E828F83127D
:10DF1000DB6B1228717508FE7509FF7808122A4616
:10DF2000741C122CFFE0F9740D122CFF12B18774CF
:10DF30000F122CFF12D512123F877404122A597443
:10DF40002602C89974F712245BE9FD7A007B0090E1
:10DF50001A7CE06004640170477C00800B12DFF7DC
:10DF6000E02AFAA3E03BFB0C90518912EAA650305C
:10DF7000EC75F01CA4F8AEF0EEF974E428F58274A8
:10DF80000912EA7AF460E074F028F5827409391213
:10DF9000CA6A60D3ED60C612DFF7E4F0A3F080C771
:10DFA0007C00800B12DFE4E02AFAA3E03BFB0C12BA
:10DFB000EAA3502DEC75F017A4F8AEF0EEF912F0CC
:10DFC0005F7003A3E0F460E6742928F582740B39CE
:10DFD00012CA6A60D9ED60CC12DFE4E4F0A3F080ED
:10DFE000CD02B29FEC75F017A4F8EEF9742928F56C
:10DFF00082740B39F58322EC75F01CA4F8EEF974E9
:10E00000F028F582740939F5832274F012245BE953
:10E01000FE8A088B09901C71E0C39E503B1244BBE2
:10E02000901CA312F6B8901C0BE0F50CE4F50DF56E
:10E030000EF50F9080EB7808122CA8780C79081256
:10E04000236C780C122A3E7A007B02901C72E0F955
:10E050001234B37404122A5902DABD74F612245B26
:10E06000EAFEEBFF901C8F801388828983E06E703C
:10E0700003A3E06F603A88828983A3A312CA6C70FD
:10E08000E87A047B001233ED8A088B09A808A909F5
:10E09000E849601C8882898312E250901C8F12D557
:10E0A0001288828983A3A312DDEC901C8F12D07F8B
:10E0B00002C89C74F412245B7E00901C8F80070EB3
:10E0C00088828983A3A312CA6C70F4EE25E0FAE477
:10E0D00033FB1233ED8A088B09EA4509700302E12C
:10E0E000687C00901C8F802A88828983E0F50AA3CF
:10E0F000E0F50BEC25E0FAE433FBE5082AF582E5D0
:10E10000093BF583E50AF0A3E50BF00C88828983CF
:10E11000A3A312CA6C70D1901C6D12E17B7003A393
:10E12000E0697808701C122A46EEF50A780A122A6D
:10E130004A7C397D1C7900901C6D12D51212456302
:10E14000801A122A46EEF50A780A122A4A7C397D8C
:10E150001C7900901C6D12D5121245577403122AB7
:10E1600059AA08AB091233F3123D7D02B4828E82A4
:10E170008F83A3A3A3A3A3A3A3A3A312B994901CC7
:10E1800018E06822C082C08380128A828B83A3A396
:10E1900012B990901C8F12D07F1233F3901C8F1203
:10E1A000B13770E602C35F74F512245B901C251230
:10E1B000E612901CA312B990901C2512D07F7AA36E
:10E1C0007B1C7950123B4F901CA312DDDD750A00B9
:10E1D000801212EB647003A3E06F600612EB701202
:10E1E00045FF050A12E23E501EE50A75F017A4F835
:10E1F000A9F012E9FE65087004A3E0650970D31266
:10E20000EA0712E25080DB901CA312DDDD90189724
:10E2100012CA6C60267A067B0012334BEA4B601BF5
:10E220008A828B8374D5F0A3A3E412AFBBA304123C
:10E23000E24990189712DB6B124B8602B51E905183
:10E2400079E493F8E50AC3982212AFC512E250228E
:10E25000EEF0A3EFF022C082C083901C18E064FEB1
:10E260007003A3E0F4600E901C12E0A2E1500612CD
:10E2700046171245BD02C35F74F012245B901C6602
:10E28000E06053F50CE4F50DF50EF50F908177780D
:10E2900008122CA8780C790812236C1233458A08CE
:10E2A0008B09A808A90990516EE49358F508A3E4D6
:10E2B0009359F509E4F50AF50B780C7908122B7ED1
:10E2C000780C122A3E7A007B01901C72E0F912341D
:10E2D000B97404122A5902DABD74F012245B74FE78
:10E2E000122AED7E007F008E0E8E0F123D17750AEA
:10E2F00000803BAA0A7B00123D118A088B09A808FE
:10E30000A909E849602688828983A3A3A3A3E060C2
:10E31000046404701788828983A3A3A3A3A3A3A37F
:10E32000A3A3A3E0F9124629E960010F050A905161
:10E330008912E24140BD1245ED851882851983128C
:10E34000DDEC7508008023AA087B001245F98A0AD3
:10E350008B0BA80AA90BE849600EE8240F12EA7794
:10E36000F9124629E960010E050812E51740D8EFB9
:10E370002EFE700302E47DF508750900740278082A
:10E38000122C16AA08AB091233ED8A0E8B0FEA4540
:10E390000F700302E47B750B00EEF508750900743D
:10E3A000027808122C16AC08AD0979FF12333375C8
:10E3B0000A008069AA0A7B00123D118A0C8B0DEAC3
:10E3C000450D60578A828B83A3A3A3A3E0600464F6
:10E3D0000470488A828B83A3A3A3A3A3A3A3A3A3AC
:10E3E000A3E0F9124629E9F96031050B850E08858D
:10E3F0000F097808122A46EEFD850C82850D83A34D
:10E40000A3A3A3A3A3A3A3A3E0FC850C82850D83F0
:10E4100012D5121245C37402122A59050A90518965
:10E4200012E2415006E50BC39F408975080012E5D2
:10E4300017504AAA087B001245F98A0A8B0BEA4555
:10E440000B6034EA240F12E50EF9124629E9F9604F
:10E4500026850E0C850F0D780C122A46EEFDE50A76
:10E46000240E12E50EFC850A82850B8312D512124A
:10E4700045C37402122A59050880B37E007F62905A
:10E480001C10E0600BF9124269E9F87454C398FF5C
:10E4900075F003EF84F5089420400375081F850E7E
:10E4A0000A850F0B750C00EF6005750C207F00E5E9
:10E4B00008C39E500585080980088E09E50CD2E640
:10E4C000F50CAC0AAD0BAA0CA9091245C9E9F50D6A
:10E4D000E50CA2E6401D15097800800BE50A24042E
:10E4E000F50A5002050B08E8C3950940EFE509CE8F
:10E4F000C39EFEE97006E50CA2E650A8E50E450FA6
:10E500006007AA0EAB0F1233F3A90D02DB60F58290
:10E51000E4350BF583E02285188285198312B994BE
:10E52000C3E50898E4992274F212245BE9FE750AA7
:10E5300000750B00740E122CFF12E6127F00801182
:10E5400085080A85090BE5082404F5085002050929
:10E550000FEFC39D400302E609850882850983E029
:10E56000F47003A3E0F4700302E5EBE50A450B60E9
:10E570000E850A82850B83C3E09AA3E09B50C18578
:10E58000088285098312F1C4EB9950B4A808A9093F
:10E5900088828983E0F47003A3E0F4600DE824042A
:10E5A000F85001090FEFC39D40E6880A890BE82463
:10E5B000FCF8E934FFF988828983128B06850A8288
:10E5C000850B83E50CF0A3E50D12E61A850A82851A
:10E5D0000B83A3A312E61FE0850A82850B83A3A306
:10E5E000A3F0C3E50898E5099940BF85088285092D
:10E5F0008312DDECEC850882850983A3A3F0EE8508
:10E600000882850983A3A3A3F002AA26F582E43F2A
:10E61000F583E0F508A3E0F5092212E624E02212D2
:10E62000E624A32212E99CA3A32274F312245B74B0
:10E63000FD122AED89088A09ECFEEDFF750C0175C3
:10E64000F003E9A42402C0E07401122CFFD0E01210
:10E65000CF461244EBEA4B607212D71112CD3E74D2
:10E6600008F0741F55084509A3F0E82402F850018A
:10E67000097C0080378E828F8312AA0412C4FA129A
:10E68000DCA412E6E1C454F05470FD8E828F83A3A3
:10E69000A3A3E054074D88828983A3A3F0E8240351
:10E6A000F8500109EE2404FE50010F0CECC395084C
:10E6B00040C38A828B83A3A374FCF0A374FFF0127F
:10E6C000E6D77401F0123D65E9F50CA90C7403124C
:10E6D0002A597F050226E9EA2413F582E43BF583F3
:10E6E0002212E6E522F08E828F83A3A3E02274F14A
:10E6F00012245B8A0A8B0B7508007AFE7BFF7CFE76
:10E700007DFFE50A12E8DC350B12D87FFE741F5E30
:10E71000F509E82402F50CE439F50DEEA2E74072A4
:10E72000E50A241712E50EF875F003E509A42402A2
:10E7300068705FE5096009850C82850D8312C4EC61
:10E740007F008029850C82850D83A3A3E05407F503
:10E750000EE50C2403F50C5002050DE8FC901C1886
:10E76000E0687003A3E0697003850E080FEFC3959E
:10E77000095029850C82850D8312C253FCE4CCFD1F
:10E78000E82CE43DF9850C82850D83A3A3E0548831
:10E7900060B27AD37B0012376B02E8D8E508700BC1
:10E7A000EEF91245D5E9700302E8D812E8E212D575
:10E7B00012123CF38A0C8B0DAE0CAF0DEE4F605A6B
:10E7C0008E828F83A3A3A3A3A3A3A3E4F09051718C
:10E7D00093F88E828F83A3A3A3A3A3A3A3A3E0C3D1
:10E7E00098402412E8FE5001097A027B001222743C
:10E7F000E88E828F83A3A3A3A3A3A3A3A3F0E5081A
:10E80000C39407500205088E828F83A3A3A3A3A3FA
:10E81000A3A3A3A3E508F002E8D87CFF7DFF12E8DC
:10E82000E212D5121245E18A0C8B0DAE0CAF0DEE43
:10E830004F704F1245E78A0C8B0DAE0CAF0DEE4FAB
:10E84000700302E8D87C177D00790012333312E898
:10E85000E212CF1812875C8E828F83A3A3A3A3A397
:10E86000A3A3A312B87612B27974AA12EFE65001EC
:10E87000097A027B0012227412E8ECE812E91074A3
:10E8800001F0905171E49312BE3FC398401912E811
:10E89000FE5001097A027B0012227412EFE0E508B3
:10E8A000C394075002050812EFD2E50812E915E4F7
:10E8B000F012A086123C6FE9701E850A82850B83D8
:10E8C000A3A3A3A3A3A3A3A3E0600DE50A12CC51C5
:10E8D000350B12E90912350102D8B7EA241DF58279
:10E8E000E422E50A12AFDD350BF5832212E8F022AF
:10E8F000EE12E8F83FF58322240DF582E4229051D0
:10E9000071E49379002401F822129AEF12A0872271
:10E91000F012EFD622F012E91A22EE12ED183FF5AE
:10E92000832274F712245BE9FE74FE6A700374FF9D
:10E930006B603574605E6460602EEEA2E5401CA2E0
:10E94000E6901C18500DC3E09AA3E09B501A790082
:10E9500002B29FC3E09AA3E09B40F3901C1812B947
:10E9600090C3EC98ED9940E6790180E474F71224A5
:10E970005B7E008008EE12EB691245FF0E12E9F48F
:10E9800040F37E00EE12E9A274FEF0A30412E99CAB
:10E99000E4F00EEEC3940340EB02B29FF08882894C
:10E9A000832275F003A4F8A9F0749128F8741C3937
:10E9B000F988828983A32274F712245B7E00800188
:10E9C0000E12E9F45027EE12EF21E06A7003A3E083
:10E9D0006B70ED12E9FE6C7003A3E06D600A74FFCA
:10E9E0006C700374FF6D70D812EB7080047A007B3A
:10E9F0000002B29F905179E493F8EEC3982212EA94
:10EA0000022212EA07E022741E28F582740B39F5FF
:10EA1000832274F612245B7CFF7DFF7AFE7BFF125B
:10EA200045E1EA4B70437508008039E50875F01739
:10EA3000A4F8A9F0742328F582740B12EA7A600C0A
:10EA4000742228F582740B12EA7A7016741428FE68
:10EA5000740B39FF8E828F8312D512123F8DEEFA1E
:10EA6000EFFB050812EA6C40C202C89C905179E4A1
:10EA700093F8E508C39822F582E439F583E022C0D3
:10EA800082C0837A007B007C00801012F0577003F4
:10EA9000A3E0F460050AEA70010B0C12EAA340EB54
:10EAA00002C35F905179E493F8ECC3982274F41296
:10EAB000245B8A088B09ECFEEDFF800B1245FFEE0C
:10EAC000FCEFFDAA08AB091245E1EA4B70EE02B477
:10EAD0008274F712245B7D007C0080020D0C12EA28
:10EAE000A3501C12F0577003A3E0F460F0EDF8EAB5
:10EAF000684B70E8EC75F017A4F812EB7080047A9C
:10EB0000007B0002B29F74F712245BEAFEEBFFEE7B
:10EB10004F60187C177D0079001233338E828F830B
:10EB200074FEF0A30412EB2EF0A3F002B29F12AE1B
:10EB300026A32274F712245BEAFEEBFF750800801F
:10EB40001BE50875F017A4F8A9F012EB647003A395
:10EB5000E06F600612EB701245FF050812EA6C4088
:10EB6000E002B29F12EA026E2275F017A4F8A9F033
:10EB7000741428FA740B39FB2274F412245B8A088B
:10EB80008B09ECFEEDFF901A7CE0600464017020BC
:10EB9000901C25E06E7003A3E06F7014123CF38AA2
:10EBA0000A8B0BA80AA90BE8496005E82408801A1B
:10EBB000EEFCEFFDAA08AB091245E18A088B09A813
:10EBC00008A909E8496009E8240DFAE439FB800442
:10EBD0007A007B0002B48274F412245BEAFEEBFF3D
:10EBE0008C0A8D0B750800750900802CE50912F060
:10EBF00047123C6FE9601FE50912F03B7003A3E088
:10EC00006F700375080AAC0AAD0B12F04E1234FB9C
:10EC1000E960034308A00509905179E493F8E509F8
:10EC2000C3985004E50860C402C2F474F412245B73
:10EC30007508008065AA087B00123D118A0A8B0BBB
:10EC4000AE0AAF0BEE4F60508E828F83A3A3A3A3B7
:10EC5000E0640160438E828F83A3A3A3A3E06402D8
:10EC60006036EE2407F582E43F12ED2A502A8E82A8
:10EC70008F83A3A3A3A3A3A3A3A3A3A3E412AE225E
:10EC800012DB8974FF12DB91F0A3F01237118E8230
:10EC90008F8312D512123F8D050890518912EA6FA9
:10ECA00040937E008052EE75F017A4F8AAF0EAF9BE
:10ECB00012F05F7003A3E0F4603D741428F8740B45
:10ECC00039F9E812ED183912ED2A502BEE75F017CC
:10ECD000A4F8EAF9741428F8740B39F9E8240FF54C
:10ECE00082E439F583E4F0E8240EF582E439F58313
:10ECF000E412ED39123F8D0E12E9F440A97A00EAD0
:10ED000075F003A4F8A9F012ED1E600214F00AEAEF
:10ED1000C3940340EA02B482240CF582E422749185
:10ED200028F582741C39F583E022F583E0F874013C
:10ED300028F0901C67E0C3982212F5AFFAA3E0FB1D
:10ED40002274F012245B8A0E8B0F8C0A8D0B750CCB
:10ED500000780079017EFE7FFF7410122CFF12E60E
:10ED6000128011123345E50CF5F0EA84E5F0F875F0
:10ED70000C0079007C00800B74142AF582740B124D
:10ED8000DDDA0C905179E493FAECC39A506AEC7591
:10ED9000F017A4FAADF0EDFB12B97B64FE7003A38B
:10EDA000E0F460DE12B97B650E7004A3E0650F60CD
:10EDB000D112B97B650A7004A3E0650B60C412B977
:10EDC0007B65087004A3E0650960B774222AF582A8
:10EDD000740B12B98260ABC3940850A6E06407605C
:10EDE00097E9050C709CE50CC3984096EDF97414F6
:10EDF0002AF582740B02EEB2901A7CE0600764017F
:10EE0000600302EEBA7C00800712EEE612DDDA0C37
:10EE1000905189E493FAECC39A400302EEBAEC7580
:10EE2000F01CA4FAADF0EDFB12EEE612B98264FE1E
:10EE30007003A3E0F460D812EEE612B982650E709A
:10EE400004A3E0650F60C812EEE612B982650A708D
:10EE500004A3E0650B60B812EEE612B98265087093
:10EE600004A3E0650960A874E92AF582740912B95F
:10EE700082609CC39408509774E42AF58274091246
:10EE8000B98264016089E06402608474E92AF582D1
:10EE9000740912B9826407700302EE09E9050C6077
:10EEA0000302EE0FE50CC398500302EE0FEDF912CA
:10EEB000EEE639F58312F0EB8022E50C6011E87084
:10EEC0000E7401650C600302ED63780102ED6F744E
:10EED000FE6E700374FF6F6006EEFAEFFB80047A3B
:10EEE000FE7BFF02DABD74E02AF58274092274F514
:10EEF00012245BEAFEEBFF8C088D09750A00800284
:10EF0000050A12E23E5017AC08AD09E50A12F047B7
:10EF10001234FBE960EAE50A12EF2112E25002B571
:10EF20001E75F017A4F8A9F012EF2C22741428F51E
:10EF300082740B39F58322E9F87907C3940D4004F4
:10EF400079018019E8C3940740047903800FE8C36E
:10EF50009403400479058005E8700279000229EEE7
:10EF600074F012245B8A0E8B0F8C0A8D0B890812A9
:10EF700045E78A0C8B0DAE0CAF0DEE4F60517C1740
:10EF80007D0079001233338E828F83E50EF0A3E586
:10EF90000F12EB2EE50AF0A3E50BF0E5086007126F
:10EFA000B278E508800512B2787401F0901C6CE02C
:10EFB0006401700612EFD2E4800512EFD2740712DA
:10EFC000EFE65001097A027B0012227412EFE00290
:10EFD000DABD12EFD622EE240EF582E43FF583224D
:10EFE00012E8F0E8F022F0905171E49379002401E6
:10EFF000F82274F712245BEAFEEBFF7508008033F9
:10F00000E50812F03B7003A3E06F601474FF6E70AC
:10F010000374FF6F701B12F05F7003A3E0F46011C4
:10F0200012F04E123C6FE97008E50812EB691245C8
:10F03000FF050812EA6C40C802B29F75F017A4F8E9
:10F04000A9F012F0656E2275F017A4F8A9F07416F5
:10F0500028FA740B39FB22EC75F017A4F8A9F0120A
:10F06000F06564FE2212EF2CE022C082C0837AFF9A
:10F070007BFF12463502C35FC082C083901CA5741B
:10F0800047F0A37446F0901CA7744DF0A37446F0AB
:10F09000901CA97453F0A3744602AB7C74F712243D
:10F0A0005BEAF8EBF9901B9512F0EBCA2406F582A7
:10F0B000E43AF583E0702B88828983A3A3A3A3A3FA
:10F0C000A3A3A3A3122871901B9512F0F0122CD0C9
:10F0D00088828983A3E0F9123E437402122A5912EE
:10F0E0003D7D02B29F851882851983E0FAA3E02254
:10F0F000E0FAA3E0F5838A8222C082C083901C6F6D
:10F1000012F1BBF0901C6F12CA6C700579011245A8
:10F110008D02C35F74F612245B74FC122AEDE9FEC3
:10F1200090517FE493700874E16E600302F1B6EAD7
:10F130002408F8E43BF98882898312F1BB12F1CBF1
:10F14000700E901C6FE4F0A3F0790112458D80667B
:10F15000901E7DE06060FA901C6F12F1C4E499503B
:10F1600055790012458D8A088B09AC08AD09ECF879
:10F17000EDF9E875F064A4F8AAF075F064E9A42A42
:10F18000F9901C6F12D51212227CE8941AE99400AF
:10F19000402490188F12CA6C601C901C6F12C253CE
:10F1A000129F22122CFFECF0A3ED12CF4690188F85
:10F1B00012DB6B124B86740402C899E02401F0A3A1
:10F1C000E034002212B994C3EA982212F5AFF8A3F2
:10F1D000E0F9E84922C082C08374F8122AED9080D9
:10F1E000A9AC18AD19740812296AAC18AD191234FB
:10F1F000FBE964017004790080027901740802B9A6
:10F200006874F612245BEAFEEBFF740C122CFF12FA
:10F21000D512743A6A7001EB6006743B6A4B701F3A
:10F22000740A122CFF1228718C088D097808122A92
:10F2300046EEFCEFFD1234777404122A59800279ED
:10F240000A02C89CC082C083901CAB741DF0A374DA
:10F250003DF0901CAD7423F0A3743DF0901E64E06B
:10F26000A2E05032901CAF7471F0A37446F0901C71
:10F27000B17477F0A37446F0901CB3747DF0A3745E
:10F2800046F0901CB57483F0A37446F0901CB774DC
:10F290006BF0A37446F0901CAF12CA6C600612C7E4
:10F2A000A3124B8602C35F74F412245B74E6122A25
:10F2B000ED8A088B097404122CFF7402F004122AE0
:10F2C000AF1244EB8A0A8B0BAE0AAF0BEE4F700302
:10F2D00002F42612F451746012F48E12DE7A124493
:10F2E0006712DDE38E828F83A3A3E508F0A3E5090F
:10F2F00012BE997012901C04E0C0E012B83ED0E03B
:10F30000F0901C04E004F012F42B7016901E57E0ED
:10F31000600D901C0FE0700A8E828F83E0700312E4
:10F32000CD2FAC18AD19EEFAEFFB1244438A088BCF
:10F3300009EA4509700302F41F7A217B001233EDBC
:10F340007406122CFF12DDEC7406122CFF12CA6C2C
:10F35000700302F4187C217D0079007406122CFFE2
:10F36000E0FA1233337401122AAF7950123B497418
:10F3700001122CFF12B9907406122CFF12F0EBCA86
:10F380002409F582E43A12D07D901C1812B99074C9
:10F3900017122CFF12D07F7406122CFF12F4627425
:10F3A00006122CFF12F45C12D4B87406122CFF1251
:10F3B000F0F012D07F7406122CFF12F46D12C234DA
:10F3C000C0E07406122CFF12F444D0E0F0EE240EDC
:10F3D00012B859E0C0E07406122CFF12F434D0E0E9
:10F3E000F07406122CFF12B28A12F6B8EE240F1235
:10F3F000B98A740C122CFF12F486E0C0E0740E126D
:10F400002CFFD0E0F07406122AAF1243B374061238
:10F410002CFF12D5121233F3AA08AB091233F3EE04
:10F42000FAEFFB1233F3741A02B47FEE241112A523
:10F43000AD64012212F43822E0F8A3E0C812ED18FE
:10F4400038F5832212C253C8241EF582E438F583AE
:10F450002212CD4412D8857404F0A32212AF007496
:10F46000022212C253C812DDD17402F022E012F45B
:10F47000777401F0A3E422F8A3E0C812F47F22120B
:10F48000E8F838F5832212D0838A828B832212F423
:10F490009222F0EE12F498222413F582E43FF583D1
:10F4A0002274F612245B7E0080197C047D0079FFB3
:10F4B000EEF5088D0974027808122C1612F73B122B
:10F4C00033330E90517012E9F740DF02C89C74F498
:10F4D00012245B74F7122AED7508008053E508F5D5
:10F4E0000A750B007402780A122C1612F59CEE2491
:10F4F0000212BE36E024FFF0A3E034FF12F5ABF8B1
:10F50000A3E0F97A0A7B0012227C8B0BEA450B7090
:10F510001D7408122CFF12F5B4122C1674B1250AB2
:10F52000F582740E350BF58312F74E123B850508F4
:10F5300090517012EA6F5061E508F50A750B00747E
:10F5400002780A122C1674B1250AF582740E12E59F
:10F5500011F47003A3E0F460D5E508F50A750B001B
:10F560007402780A122C1612F69812CA6A60030204
:10F57000F4DD7408122CFF12F5B4122C1612F59C4F
:10F580008E828F8312F74E123B8B7C047D0079FFB5
:10F59000EEFAEFFB123333809502B47D74B1250A85
:10F5A000FE740E350BFF22A3A3A3A312F5AF221204
:10F5B000E99CE0227402F0E508F50A750B0074027C
:10F5C000780A2274F012245B74F7122AED8A0E8BEB
:10F5D0000F7EFF7408122CFF740212B99FEAF0A389
:10F5E000EB12F751123B85E9641A700302F6947925
:10F5F000007419122CFF7808122CA8800874FF6E72
:10F600007002E9FE09905170E493F8E9C3985046FE
:10F61000E9F50C750D007402780C122C1612F6A385
:10F62000F47003A3E0F460D5E9F50C750D007402E5
:10F63000780C122C1612F6A3650E7004A3E0650F69
:10F6400070C2E9F50A750B007402780A122C1612C2
:10F65000F698F583802EE49369702C74FF6E602E0B
:10F66000EEF50C750D007402780C122C1674B12591
:10F670000CF8740E350DF988828983E50EF0A3E548
:10F680000F12E62412F6B87901740902DABA12F6FA
:10F69000B0123B8B790080F174B3250AF582740EA9
:10F6A000350B2274B1250CF582740E12C1CFE02205
:10F6B00012F75622A3A3A3A3E508F0A3E509F022BD
:10F6C00074F612245B74F7122AEDEAFEEBFF7A005F
:10F6D00080010A905170E493F8EAC3985058EAF513
:10F6E0000875090074027808122C1612C793F4707A
:10F6F00003A3E0F460DCEAF50875090074027808F9
:10F70000122C1612C7936E7003A3E06F70C47C04B2
:10F710007D0079FFEAF5088D0974027808122C162D
:10F7200012F73B1233337408122CFF740212F7469F
:10F7300012F751123B8B740902C89974B12508FA6B
:10F74000740E3509FB2212B9A3EEF0A3EF22129A30
:10F75000FCF012F75622901C25E0FCA3E0FDAA184D
:10F76000AB192274F012245B74FE122AED85188204
:10F7700085198312DDEC8C0A8D0B750800851882C3
:10F78000851983E0650A7004A3E0650B601785188E
:10F7900082851983E0FA12346B8A0C8B0DAE0CAFA4
:10F7A0000DEE4F700675080102F843AA0AAB0B1262
:10F7B000346B8A0C8B0DAC0CAD0DEC4D6007AA0AB6
:10F7C000AB0B12347DE4F50CF50D780C122A46EEE5
:10F7D000FCEFFDAA0AAB0B1234657402122A59E938
:10F7E0006061EEFAEFFB1233ED8A0E8B0FEA450FE4
:10F7F000604E780E122A468E0C8F0D780C122A4617
:10F800007C007D007404122CFF12D5121234777420
:10F8100004122A59E9701D780E122A46780C122A11
:10F82000467C007D00AA0AAB0B1234717404122AC4
:10F8300059E96003750801AA0EAB0F1233F3800378
:10F84000750810A90802DB6074F712245BE99018B0
:10F8500072F07A157B801239877A387B00901872A3
:10F86000E0F912398790189374B3F0A37437F090CD
:10F87000189174B9F0A37437F090188F74ADF0A399
:10F880007437F090187C7402F090187474FEF0A332
:10F8900004F07F010226E974F212245BEAFEEBFF1A
:10F8A0005480700302F9BB8052790012458D8A0A98
:10F8B0008B0B750C00780C122A4A7808122A4678AD
:10F8C0000A122A46901C6F12FD32901873E0F9124A
:10F8D00037A17405122A5990188AE0601790813F69
:10F8E00012286D7A087B00901872E0F91234B37414
:10F8F00004122A59AA08AB09123351901872E0F980
:10F900001233638A088B09E5084509700302F9B3CD
:10F91000850882850983E024CF603E14607E245FE1
:10F9200070D2E508240CF582E43509F583E0F50A88
:10F93000A3E0F50B780A12269D0000020038005063
:10F94000F9158047F9F4F8AA08AB0912379580A495
:10F95000AA08AB0912378F809B90187FE0C39404EC
:10F960005092901C2EE0F990814F122CD0123DE95C
:10F97000E9708185088285098312FEAE9018811294
:10F98000FC22850882850983A3A312FEAE9018830A
:10F9900012FC2290188A74FFF002F8F490188AE0A2
:10F9A000F4600302F8A9AA08AB0912379B90188AE1
:10F9B000E480E5EEFAEF648002FA49EEA2E0502519
:10F9C00090188EE0901C1AF07A8E7B1879E1123B29
:10F9D0004F1236ED901C6FE4F0A3F0790112458DC3
:10F9E000EE640180625402603990187D12FEB0E826
:10F9F00049602590187DE024FFF0A3E034FFF090EB
:10FA0000813B12286D7A027B00901872E0F9123463
:10FA1000B37404122A59800590187FE4F0EE640252
:10FA20008025EE5408602590188AE06017901889A8
:10FA3000E0F9901885122CD0123DE9E97006901873
:10FA40008AE014F0EE6408FAEFFB80047A007B0091
:10FA50007F060226E974F412245B74F7122AEDEA99
:10FA6000FEEBFFAC18AD191238C77404122CFFE07E
:10FA7000C39406505A12FC0F600302FBF174051286
:10FA80002CFFE0700302FBF1C39406400302FBF17C
:10FA90007404122CFFE0F9851882851983122CD08A
:10FAA000123DE9E9600302FBF112FBFB90187312AF
:10FAB000FEB612FC1F7405122CFFE014F0851882AC
:10FAC0008519837C857D18740912296A02FBF1E08F
:10FAD00064FE70767406122CFF12FC06400302FBD3
:10FAE000F17406122CFFE0F91244BB7900851882EC
:10FAF0008519837808122CA8E97808122A8EE5085F
:10FB0000A2E0400709E9C3941B40E2901C1AE06997
:10FB1000700302FBF1E990188EF0901C0BE075F079
:10FB200064A4F508A8F0E428F5093395E0F50AF592
:10FB30000B7808122A3E7A017B00901872E0F912C5
:10FB400034B37404122A5902FBF1E0F4705C7406B9
:10FB5000122CFF12FC06400302FBF17406122CFF6C
:10FB6000E0F91244BB851882851983122CDCE84920
:10FB70004A4B60278518828519837808122CA89033
:10FB80001C287808122B1860128518828519831298
:10FB90002CDC901C28122CE81236ED7407122CFF76
:10FBA000E0FAA3E0FB1237A7804712FC0F70428EE9
:10FBB000828F83A3A312FC1A7508007808122A4AC0
:10FBC0007808122A4AE4F5097808122A46780812B9
:10FBD0002A467808122A4690810312286D7D007CFF
:10FBE000807A747B1812FBFBF9123981740C122A8B
:10FBF000597409122A597F040226E9EE240FF5826E
:10FC0000E43FF583E022E0F8901C71E0C39822EE17
:10FC1000240BF582E43FF583E022E0F8A3E0F990BD
:10FC20001874E8F0A3E9F02274F712245B74FD1253
:10FC30002AEDEAFEEBFFAC18AD191238B585188233
:10FC4000851983E070187401122CFFE05440600E97
:10FC50008E828F83A3A3E0FAA3E0FB1237A774037D
:10FC6000122A5902F89274F212245B8A0C8B0D79D5
:10FC7000008A828B83A3A3A37808122CA8901C1A55
:10FC8000E07808122A8EE508A2E05008E0F8EA2899
:10FC900012FD23F97A00850C828B83A3A3A3780835
:10FCA000122CA8EA7808122A8EE508A2E0506AEA27
:10FCB000FCE50C2C12FD23C399505E901C6D12FCC8
:10FCC0001A7508107808122A4A780C122A469018D9
:10FCD0008312287190188112FD3279001237A174B5
:10FCE00005122A599018807401F090187FE0702056
:10FCF00090187D743CF0A3E4F090813B12286D7A5B
:10FD0000027B00901872E0F91234B37404122A597D
:10FD100090187FE004F002FA500AEAC3941B50F6F0
:10FD200002FC96F582E43BF583A3A3A3A3A3A3A3BC
:10FD3000E022E0FCA3E0FD7A747B182274EC12242C
:10FD40005B89118A128B13ECFEEDFF7510007508AC
:10FD50000075090079007416122CFFE0F50AA3E083
:10FD6000F50B850A82850B83A3A3A3780C122CA81C
:10FD7000E9780C122A8EE50CA2E05002051009E980
:10FD8000C3941B40DDE5106059FA7B001233ED8A05
:10FD9000088B09EA4509604A7A007900850A82855C
:10FDA0000B83A3A3A3780C122CA8E9780C122A8E3B
:10FDB000E50CA2E05025E9FCE50A2CF582E4350BC0
:10FDC000F583A3A3A3A3A3A3A3E0C0E0EAFCE508F3
:10FDD0002CF582E43BF583D0E0F00A09E9C3941BDB
:10FDE00040BA750C00780C122A4A7419122CFFE0E4
:10FDF000F50C780C122A4A7808122A467418122C2C
:10FE0000FF1228718E0C8F0D780C122A46850A82FB
:10FE1000850B83A3A3A312286DAD10850A82850BE1
:10FE200083A3A3E0FCAA12AB13A911123981740CAD
:10FE3000122A59E50845096007AA08AB091233F3ED
:10FE40007F0C0226E9C082C083901C6DE06A7003BB
:10FE5000A3E06B600B901C6DEAF0A3EBF01236EDA3
:10FE6000D083D0820229EE74F612245BEAFEEBFF07
:10FE70007A067B0012334BEA4B602E8A828B8374A6
:10FE800031F08E828F8312FEB08A828B83A3A3E827
:10FE9000F0A3E912FEB68A828B83A3A3A3A312FC6C
:10FEA00022901872E0F91233577F020226E9A3A3C9
:10FEB000E0F8A3E0F922F08E828F83A3A3E0F8A3F9
:10FEC000E0F92274F412245B8A088B097A227B0001
:10FED00012334B8A0A8B0BAE0AAF0BEE4F60628E69
:10FEE000828F837432F0850882850983E08E828F49
:10FEF00083A3A3F0850882850983A3122CDC8E825C
:10FF00008F83A3A3A3122CE8850882850983A3A36A
:10FF1000A3A3A3E0F508A3E0F509750A0078081289
:10FF20002A427C1B7D00EE2407FAE43FFB123327B4
:10FF30007403122A59EEFAEFFB901872E0F91233AB
:10FF40005702FBF6C082C083901880E060238A824B
:10FF50008B83A3A3A3E070198A828B83A3E0701123
:10FF6000901C6FE4F0A3F0790112458D901880E4A5
:10FF7000F002FE60C082C083122F4F122FD31230C6
:10FF8000B11230451230F3122EAD8025C082C083ED
:10FF9000A2AF5003122D93901DF9E070061230515C
:10FFA000122FD9122EB31230E79009877401F08016
:10FFB00000D083D0820229EE74F412245B74FC1208
:10FFC0002AEDE9FE741929C394085023AA18AB1925
:10FFD000122FC79080FB7808122CA88518828519EB
:10FFE000837808122C03AA18AB19EEF9122FCD74DE
:10FFF00004122A597F040226E90229EE0229EEFFA3
:020000040001F9
:10000000C082C083124AA3901BB674C9F0A3743F88
:10001000F0901BB874CFF0A3743FF0901BBA74D566
:10002000F0A3743FF0901BBC74DBF0A3743FF002AC
:10003000BBAD74F712245BE9FE901BA8E4F0EE90D0
:100040001BA7F0901E6D12ACF812BF487C6F7D1A92
:100050007AAB7B1B123501901E6FE0901BB3F090C2
:100060001BB4745AF0A3741A02914474F012245B06
:10007000EAFEEBFF548070030281DD901BA7E0F9DC
:100080001233638A088B09EA450970030281D6EAB4
:10009000241B12B743707CEA241F12B74364137009
:1000A00002A3E0706E8A828B83128257901BC61265
:1000B000BF26750A00750B00800D128FB312BF4862
:1000C0001233F3AA0EAB0FEA4B60488A828B83E0AF
:1000D000650C7004A3E0650D702C8A828B83A3A34A
:1000E000A3A3E0F50EA3E0F50FE50A450B8A828B8A
:1000F00083A3A3A3A360C3129E55850A82850B83A5
:10010000A3A3A3A380B78A0A8B0B8A828B8312BF17
:100110002280B4E508242A12B743FCE5082402F83B
:10012000E43509F9E8FAE9FB901BC6E012AE53E0AA
:10013000640270358A828B8312BF26800788828989
:1001400083129E51E849601C88828983E06A7003AB
:10015000A3E06B70E888828983A3A3E06C70DE1251
:10016000824C806BECF9124005850882850983E09A
:100170006401704FE508241812823F122A4A12CDFA
:100180007412286DE508241212823F122A4AE508EB
:10019000129DAD122A46E508240B12CD7812287163
:1001A000E50824171297DEE5082402FCE43509FD72
:1001B000E5082419FAE43509FB124B57740A122A90
:1001C00059800CE064027007AA08AB09124161AAC9
:1001D00008AB09123351EEFAEF64808058901A7C14
:1001E000E0600464017018EEA2E05013901BBE1290
:1001F000B2E0600612E618124B86EE64018034EE1F
:100200005402600C901E847401F0EE6402FA802C9B
:10021000EE54086023123FFF8B09EA4509701190E4
:100220001BC812C81A7A08FB901BA7E0F91234BF4A
:10023000EE6408FAEFFB80047A007B0002D8CEF56A
:1002400082E43509F583E0F50A780A22901E7512DA
:10025000BA6EA3A3A3F022A3A3E0F50CA3E0F50DCF
:100260002274F412245BEA4B901BBE602412AB1C78
:100270008A088B09E4F50AF50B7808122A3E7A0100
:100280007B00901BA7E0F91234B37404122A598042
:100290000FE4F0A3F07A01FB901BA7E0F91234BF42
:1002A00002838274F412245B8A088B098A828B830E
:1002B000A3A3A312AADD129A1538F583E02409FA44
:1002C0007B0012334B8A0A8B0BAE0AAF0BEE4F70DA
:1002D0000302836D8E828F83740212AB3F85088286
:1002E00085098312A5D3E8F0A3E912D0AFA3A3A395
:1002F000A3A3A3A3F0E5082403F8E435091283724D
:10030000129A153AF583129438F0EE2409FAE43F74
:10031000FB8E828F83A3A312BF6AF5838882E0A23B
:10032000E58E828F83A3A3A3A3A35004740180014D
:10033000E4F0E5082403F88882898312BF26EA12D4
:10034000B2713BF58312EB15122A42129A143B123A
:10035000BCE78E828F8312BF241233277403122AC4
:1003600059EEFAEFFB901BA7E0F91233578013F810
:10037000E43FF988828983E0FAA3E0CA227402127A
:100380002A597F040226E974F212245B8A088B0939
:10039000ECFAEDFB740E122CFFE0FC122D1B8A0C04
:1003A0008B0DAE0CAF0DEE4F6030AC08AD09122DC9
:1003B00009E96026AC08AD09EEFAEFFB122D0FE952
:1003C00070148E828F83129F3DFAEFFB123BDFAADF
:1003D00008AB09122D337900800279B402ADA27402
:1003E000F012245B74F6122AEDEAFEEBFF8C088D06
:1003F00009750FB3851882851983E4F0750E0080A6
:1004000002050E905173E493F8E50EC39840030281
:10041000850EAA0E7B00122D578A0A8B0BEA450B1C
:1004200060DF8A828B83A3A312851528F0F8C3EEC0
:1004300098EF940050CB7C157D007900AA08AB0999
:10044000123333850A82850B83A3A3A3A312C07E34
:10045000E0F8EEC3982925E0F8E433F9E50A28F539
:1004600082E50B39F583A3A3A3A3A3A3129A2BA31D
:10047000A3A3A3A312BF481244678A0C8B0DAC0C34
:10048000AD0DAA08AB09123501850A82850B83A33D
:10049000E06401700A12CD747401129A3F804474B2
:1004A00001122AB7850A82850B8312BF24122D3FC1
:1004B000E9603D7409122CFFE0C0E012CD74D0E079
:1004C000F07409122CFFE0640370137401122AB750
:1004D000E508240BFAE43509FB123501801274019A
:1004E000122CFF129E55E50812B86B350912BF4653
:1004F000850A82850B8312CD80129A3FA3A3E0C0A8
:10050000E0E508241412CD78D0E0F0750F00A90FB3
:10051000740A02D8CBA3A3A3E0F8851882851983B7
:10052000E02274F712245BE9FE8A828B83A3A3A3E3
:10053000A3A3A3E0540860338A828B83A3A3A3A35D
:10054000A3A3E0540260218A828B83A3A3A3A3A365
:10055000A3A3A3A3E06406600F74E96E600A74CDE0
:100560006E600574F06E7003123FE702A6CF74F060
:1005700012245B74EF122AED740F122CFF12AC00E0
:100580007408122CFFE9F0ECFEEDFF7405122CFF4D
:10059000E4128C0F128884122D277406122CFF127D
:1005A000AC007406122CFF12B2E070030288311204
:1005B0009CCCE0FA7406122CFFE0F9123E6185181B
:1005C0008285198312DD96F8A3E0F9E849700302E9
:1005D0008831EE2403F50AE43FF50BEE2406F50816
:1005E000E43FF5097C00850882F58312BF26850A61
:1005F00082850B83E0F9122D2D7403122CFF12ACAF
:1006000000850A82850B83E0C0E085188285198306
:10061000128892D0E012B3E4F9851882851983120A
:100620008FC612AF30128518FAA3E0CA2407F582EC
:10063000E43AF583E8F0A3E412C53A2406F582E42F
:1006400038F583E412DC9012AACE122A42EE129AF6
:10065000153F12BCE77403122CFF12AADD12920D93
:1006600012BF261233277403122A597429122CFF41
:1006700012C07412837712B3F73A12BF46742B126A
:100680002CFFE0C0E085188285198312B2A5D0E066
:10069000F07402122CFFE4F07425122CFF7808127B
:1006A0002CA80287877403122CFF12C12888828924
:1006B00083128879A3A3A312B8A3FB122D45850E3C
:1006C00082850F83A3EAF0A3EBF07403122CFF12D0
:1006D0008892A312887912BAABA2E6500F850E82D7
:1006E000850F83A3A3A3A3A3E0D2E1F07405122C8A
:1006F000FFE0706A850E82850F83129E54901C184D
:10070000E0687003A3E0697055850E82850F83A3AE
:10071000A3A31295DC750C00780C122A4A780812F3
:100720002A3E7429122CFFE0F50C780C122A4A7428
:1007300027122CFF122871901C2512287179007441
:1007400019122CFF12ACC41241DF740A122A598507
:100750000E82850F83A3A3A3A3A3E04405F0740234
:10076000122CFFE004FC8E828F83A3A3A3A3A3A378
:10077000E0128884122D2D7403122CFF12AC007429
:1007800002122CFFE004F07403122CFF12B2E0609E
:10079000687402122CFFE0FA7406122CFF129E55A8
:1007A000C3EA98E49950527402122CFF128BCC8544
:1007B0001882851983E028F8A3E039F9E8240FF5B9
:1007C0000EE439F50F850E82F583E4F07403122CE4
:1007D000FF12DD6EE0640160030286A57405122C31
:1007E000FF740112D8B5F07403122CFF12BB9D12D6
:1007F0008BF0E8F0A3E90286C98518828519831277
:10080000BF26123E678518828519831228717426C7
:10081000122CFFE0FD7425122CFFE0FC740A122C50
:10082000FFE0F9EEFAEFFB123FE17402122A598061
:10083000438E828F83A3A3A3E0C0E0740C122CFF2D
:10084000D0E0F012D47FE0C0E0740D122CFFD0E0B5
:10085000F07406122CFF12B2E07009740E122CFF15
:1008600074B98007740E122CFF7410F07409122AE8
:10087000AF1241D9741102D8CBE0850E82850F8367
:10088000A3A3A322FAA3E0FB8E828F83A3A3A3E0FA
:10089000F922E012C523A3A3A32274F012245B74EF
:1008A000E0122AED7405122CFFE9F07404122CFFFB
:1008B000ECF07403122CFFEDF08A0E8B0F743012E3
:1008C0002CFF128259AA0CFB123E557401122CFF08
:1008D000E9F0AA0CAB0D123E5B7402122CFFE9F09A
:1008E0007401122CFFE07003028BC78518828519F2
:1008F00083E480158E828F83A3A3A3A3A3E0D2E316
:10090000F0851882851983E00412D550F885188285
:10091000851983E0C3984003028BBE7401122CFF3B
:10092000E07003028BBE851882851983128BCCE59B
:100930000C28F8E50D39F9E8240FFEE439FF8E8222
:100940008F83A3A3A3A3A3E0A2E040B5C200901AA3
:100950007CE060046401704D8E828F83E0704612EB
:10096000BF25123CF38A088B09A808A909E8496049
:100970003488828983A3A3A3A3E06401600D8882E5
:100980008983A3A3A3A3E06403701A8E828F83A339
:10099000A3A3A3A3E0D2E7F0D2007402122CFFE0DD
:1009A0007003028901750800750A08750B0074034D
:1009B000122CFFE060037508207C087D007900742C
:1009C00006122AAF1233338E828F83E06040901C70
:1009D00068E06401701CE508D2E3F508750B108E21
:1009E000828F83129E547406122CFF12BF4C74FF28
:1009F000807C43080C750A0C8E828F83A3128BE8CF
:100A000012BF487406122CFF74FFF0A380607405B7
:100A1000122CFFE06009E508D2E6F508750A0A8E97
:100A2000828F83A3E064FE7003A3E0F4703074133C
:100A3000122CFF7404128C0FF8741E122CFFE81293
:100A4000AB3F7413122AAF123C9F7D007C007900EB
:100A50007416122CFFAA82AB831238DF80118E82AB
:100A60008F83129E547406122CFFE8F0A3E9F074F1
:100A700008122CFFE508F0129CC3C0E0740A122C87
:100A8000FFD0E0F0740B122CFF7401F07406122AF0
:100A9000AF1241677412122CFFE06003028B907456
:100AA0000E122CFF12B3DF8E828F83A3A3A3A3F0B9
:100AB000740E122CFF12AB00E50AF0A3E50BF074E4
:100AC00004122CFFE0C0E012AAAED0E012BAAB6074
:100AD00011901C68E0C0E0740E122CFF12AAF6D030
:100AE000E0F0740E122CFF129E55850C82850D834A
:100AF000A3A3128BD5241C12ABFA12DCA0128BDA42
:100B000012BA613912D48CC0E012AA95D0E012D585
:100B100045C0E0740E122CFF12A5C7D0E012D153CD
:100B2000C0E0740E122CFF12A5BDD0E0F0740E12BE
:100B30002CFF128BE8A3A3128BFC12D8AA128BD520
:100B4000242C12ABFA129CB2C0E012A5B3D0E0F094
:100B5000740E122CFF12BF26850E82850F83128B16
:100B6000DF2428F582E43B12BF46129CBB12EB1532
:100B7000122A4212BCE0EA12C4D43BF58312BF260B
:100B80001233277403122A597406122AAF12416DC8
:100B90008E828F83A3A3A3A3A3E0D2E0F0741212EA
:100BA0002CFFE060030288F4A20050087402122CAB
:100BB000FFE014F07401122CFFE0140289007900A8
:100BC000AA0CAB0D123FED742002D8CBE075F007F4
:100BD000A4F8A9F022A3A3A3A3A312BF2AE822A3E7
:100BE000A3A3A3129E59EA22E0128BF0A3A3A3228F
:100BF000F8A3E0F9850E82850F83A322E0FAA3E033
:100C0000FBE8242AF582E439F583EAF0A3EB22120B
:100C10008C132212CB98E02274F012245B74E81239
:100C20002AEDE9851882851983F08A0E8B0F8A8256
:100C30008B83A3A3A3A3A3A3A3A3E0F9123E7F8A5C
:100C4000088B09EA45097003028CECE50E12A6A791
:100C5000129CE71296B0851882851983E060030222
:100C60008CEF7C04850E82850F83A3A3A3A3A3A38B
:100C7000A3A3E0F9123E85EE4F60718E828F83123E
:100C80009E517407122CFF12CB8C129E55740912C0
:100C90002CFF12BDA4C0E07411122CFFD0E012D0C2
:100CA000BDA3129E4F740F122CFF12BF4874121274
:100CB0002CFFE412D8BDC8241FF582E438F5831256
:100CC000A6B3C413135403FC70027C048E828F837A
:100CD000E0F97808122A46742059FD744059F974D5
:100CE00003122AAF123FE17402122A5902D8C97CBA
:100CF00008850E82850F83A3A3A3A3A3A3A3A3E0C8
:100D0000F9123E858B0BEA450B7003028C77EE4F90
:100D100060DA851882851983E0F50C780C122A4A6E
:100D2000850882850983A3A3A3A3A3A3A3E0F50C4D
:100D3000780C122A4A8A828B83A3A3A3E0FB8A82BF
:100D4000850B8312DD558A82850B83E0FA8E828FB4
:100D500083A3A3E0F9124B5D7402122A59028C7B23
:100D600074F712245B74FA122AEDE9FE7801790116
:100D70007F00800379000F12AE29E0FCEFC39C5086
:100D800026EF75F007A4FC85F008AD08EA2CFCEB13
:100D90003DFD12A431E0A2E050DA540C60D6E0A28E
:100DA000E250D3780080CF8A828B83A3A3A3A3A32E
:100DB000A3E0703DE9A2E0400574016E70338A82C1
:100DC0008B83A3A3A3A3A3A3740112A49BE0C0E0FD
:100DD0007403122CFFD0E012A493E0C0E07404125C
:100DE0002CFFD0E0F07405122CFFE812C24B124128
:100DF000D9740602A6CCC082C0837901123FED02ED
:100E0000BBAD74F412245BEA4B901E846022E4F0C4
:100E10008A088B09F50AF50B7808122A3E7A027BBC
:100E200000901BA7E0F91234B37404122A59800F02
:100E30007401F07A027B00901BA7E0F91234BF0224
:100E4000838274F012245B74F3122AED7403122C63
:100E5000FFE4F0A3F0901BC61296B07401122CFFB1
:100E6000E4F0A312AB3204F0901C12E0A2E35003B2
:100E7000028F3D1234D7EAF8EBF9ECFAEDFB740976
:100E8000122CFF122CE87409122CFF7808122CA8DF
:100E9000901BC87808122ABF7405122CFF7808121C
:100EA0002C99128FBA7405122CFF7808122C6A50F4
:100EB000077A017B00028FAE7405122CFF780C12AA
:100EC0002CA8901E74E0F509780C79081223ECA880
:100ED0000CA90D901E75E0C398E4995003E08001C1
:100EE000E8851882851983F07409122CFF7808129E
:100EF0002CA8C008C009C00AC00B7405122CFF78CA
:100F00000C122CA8128FBA780C79081223ECE4F595
:100F10000AF50BD00FD00ED00DD00C780C7908123A
:100F20002B56901BC8780C122C998011128FB3127B
:100F3000BF48EEFAEFFB1233F3AE08AF09EE4F6095
:100F4000658E828F83128515C398502DEE2403F889
:100F5000E43FF9E0FA88828983E0C39AF060237461
:100F600003122CFF12A1787401122CFFEEF0A3EFF4
:100F700012C542FEA3E0FF80C48E828F83A3A3A389
:100F8000E4F08E828F8312EAD97401122CFF12B220
:100F9000E08E828F83A3A3A3A3609112CB5E122C59
:100FA000FF128FC680897403122CFF12BF26740DA6
:100FB00002D8CB129E59901BC622901E7312EAE1F2
:100FC000E4F50AF50B22128FCDA3A3A322E0FAA326
:100FD000E0F5838A82A32274F012245B8A088B09CD
:100FE000890A78007900901BC61296B012ACA960ED
:100FF0001E088E828F83A3A3A3A312ACAC6010083B
:10100000E87001098E828F831296ACEE4F70E390E8
:101010001E7612BF26C3E89AE99B40030290C87A65
:10102000067B001233ED8A0C8B0DA80CA90DE84944
:1010300070030290C888828983E508F0A3E509124D
:10104000A4AAA3E50AF012824C88828983A3A3A3F1
:10105000A3E4F0A3F012ACA9600D8E828F83A3A34A
:10106000A3A312BF48801F901BC612BF48901C123A
:10107000E0A2E340111234D7EAF8EBF9ECFAEDFB09
:10108000901BC8122CE8901C12E0A2E3503A7A0898
:101090007B00901BA7E0F91234C5EA4B4C4D702839
:1010A000901E73E0F508A3E085080CF50DE4F50E3D
:1010B000F50F780C122A3E7A087B00901BA7E0F906
:1010C0001234B97404122A5902D8CEC082C083E9FE
:1010D000901E85F0901BC07423F0A37440F0901B09
:1010E000C27435F0A37440F0901BC47447F0A3742D
:1010F00040F002BBAD74F712245BEAFEEBFF8908F7
:10110000EE4F7003122D93901BCC12B2E07008903A
:101110001BCC801E129E5588828983A3A3A3A3A300
:10112000A3A3A3A3129E5EA3A3A3A3A3A3A3A3A36A
:1011300070E2EEF0A3EF129148A3A3A3E4F0A31290
:101140009148E508F002A6CF12CB942274F712243E
:101150005BE9FD901BCC800D88828983A3A3A3A3A8
:10116000A3A3A3A3A312B2E0603488828983A3A3BC
:10117000A3A3A3A3A3E06D70DF88828983A3A3A3A5
:10118000A3E06A7003A3E06B70CE88828983A3A377
:10119000A3A3A3A3E06C70C0E8FAE9FB80047A0083
:1011A0007B0002A6CF74F712245B901BCC1296B082
:1011B000901BCC128BE3687002EB697019E0C812C7
:1011C000920D129E55901BCC12BF48901BCC1296CC
:1011D000B080301296A3EE4F60298E828F83A3A336
:1011E000A3A3A3128BDF687002EB6970E68A828B7F
:1011F00083A3A3A3A3A3A3A3A3A312A5D3A3A3A33E
:1012000012BF481233F3EEFAEFFB02A6CF2409F522
:1012100082E438F5832274F012245B74F9122AED0B
:101220008A0C8B0D8A828B83A3A3A3A3A3A3A3A35E
:10123000E060336401602F8A828B8312BF261245DF
:1012400009E97022850C82850D83A3A3A3A3A3A320
:10125000A3A3E0640370147402122AB7AA0CAB0DA6
:101260001240D7E97016790202942B850C82850D05
:1012700083129E557402122CFF12BF48E50C2411F4
:1012800012DC98243412BFCE1233ED8A088B09AEDB
:1012900008AF09EE4F70030294297C347D00790079
:1012A000123333AA18AB19850C82850D83A3A3A32F
:1012B000A3A3A3A3A3A3E0F9124B0F85188285195A
:1012C00083E0C0E0129430D0E0F0EE242EF50EE47E
:1012D0003FF50F7401122CFFE0850E82850F83F01D
:1012E0007901EEFAEFFB124011850C08850D0975A6
:1012F0000A007808122A427C1E7D00EE240BFAE4D4
:101300003FFB1233277403122A59EE2432FAE43FCA
:10131000FBEE2434F8E43FF98A828B8312BF48E560
:101320000C2411FCE4350DFD8C828D8312AF2B242F
:101330003012BF42E50C12A44312DCB512EB0712C7
:101340002A428C828D8312DD568A828B8312BF26BD
:101350001233277403122A597402122CFF129A1F97
:1013600012BF48901BA8129438A3A3A3F0901BA807
:10137000E004F01234D78E828F8312A5E6242CF875
:10138000E43FF9E8FAE9FB7508FF750900850E826C
:10139000850F83E07808122C168A828B83E508F08B
:1013A000EE242B1297CB7404122CFFE4F0E50C24EE
:1013B0001512DC98A2E074055007122CFF7401800E
:1013C00004122CFFE4F0EE2429F508E43FF509743B
:1013D00004122AAF124B2DE924FE85088285098369
:1013E000F0EE24301297D512943F12227CE88E82C0
:1013F0008F83A3A3A3A3A3A3A3A3F012943F1222BA
:101400007C8B09EA4509600F8E828F83A3A3A3A377
:10141000A3A3A3A3E004F0EE242012B733440812E0
:101420009D1B12338D790080027910740702D8CB8E
:10143000EE12C4D43FF5832212D0B6A3A3A3228C0C
:10144000828D8312B884E0FA7B002274F412245B4C
:10145000EAFEEBFF1234D78E828F8312AC00901E0F
:1014600069E0F8EE242D12B733C39840030295B912
:101470001295CB7012EE242D12B7330412AE72C047
:10148000E01297C1D0E0F012AE31FA790080010984
:10149000EE242E12B733F8E9C3985026750801756B
:1014A0000900E97808122C161295CB550860E0E97E
:1014B0002AFA750801750900E97808122C16E0452A
:1014C00008F0EE242912B733FBEE2430F582E43F16
:1014D000F583EA8BF0A4F8ACF0E42CF9E098F8A3DB
:1014E000E099F9EBFCC3E89CE99400EE4031242933
:1014F00012B733F81295CB602C1294301295DCA3FE
:10150000E4F0EA7047EE242012B733442012BDA85D
:10151000C0E012AE60D0E012AE6AFCA3E0805512CB
:1015200097C274FFF0901C08E0FC901E6C1295D3DB
:10153000ADF075F064A4FCABF075F064EDA42BFD88
:101540008E828F83A3A3ECF0A3ED80B5EE2420124E
:10155000B73354DF12AE5BEAF0FCEE2429F582E4E7
:101560003FF5831295D3FCADF0EE243212B7332C45
:10157000FCA3E03DFD12D526ECF0A3ED12CD95C005
:10158000E0EE2425F582E43FF583D0E0F0EE241C64
:10159000F582E43FF583E812AB3F901BCE12B2E038
:1015A000600BEAF912E618124B86E9701BEE240B69
:1015B000FAE43FFB1240AD800F7BE91297EE124B2D
:1015C00063EEFAEFFB12401D028382EE242B12B76A
:1015D0009BF422E0F508EC8508F0A42212D0B6A313
:1015E000F02274F412245B901BCC1296B01234D704
:1015F0008A0A8B0B78FF79FF8020E0C39AFCA3E076
:101600009BFDC3EC98ED99500E8E828F83A3A3E0CF
:10161000C39AF8A3E09BF91296A3EE4F60598E820D
:101620008F8312BF26E50AC39AFAE50B9BFB8E82D5
:101630008F8312DD54C3EA9CEB9D8E828F83A3A31C
:1016400040B8A3A3A3A3E064027017129CD860095A
:10165000129CCC12BF26123351EEFAEFFB12401D42
:101660008007EEFAEFFB1240297A017B00901E857D
:10167000E0F912338D802974FF68700374FF69608C
:101680001F88088909E4F50AF50B7808122A3E7AC2
:10169000017B00901E85E0F91234B37404122A59BC
:1016A0000283828E828F83A3A3A3A3A3A3A3A3A356
:1016B000E0FEA3E0FF2274F312245B8A088B09EC9E
:1016C000FAEDFB890C7C01E50824111297DE12402B
:1016D000178A0A8B0BAE0AAF0BEE4F70030297BC52
:1016E000E50C60030297BC12CD741297E8686003A2
:1016F0000297BC12AE1F12B7568E828F83A3A3A38C
:10170000A3A3A3A3A3E0FAE89AE99400C365D033A6
:10171000401CE508241412B743F470127B001297A2
:10172000EE124B63EEFAEFFB12401D0297BCE50888
:10173000241412B743F47043EE242BF8E43FF9E885
:10174000FAE9FBEE242E1297D57508FF7509008C77
:10175000828D83E07808122C168A828B83E508F04C
:10176000EE242C1297CB8C828D831297E828F0EE12
:10177000242DF582E43FF583E48021E5082414F864
:10178000E43509F9E0C0E0EE242CF582E43FF5836E
:10179000D0E012BF30C0E01297C1D0E0F01234D7D1
:1017A0008E828F8312A5E612943112B74CA312AB2E
:1017B0003F7A01FB901E85E0F912338D7F050226EA
:1017C000E9EE242BF582E43FF58322F582E43FF530
:1017D00083E508F022F8E43FF9E8FCE9FD22F58210
:1017E000E43509F583E0F922E0F812AE3522EE2463
:1017F0002212B79BFAEE241412B79BF92274F0124E
:10180000245B74FB122AED7403122CFF12AB1CE94B
:10181000851882851983F08A0A8B0B8A828B83A3B1
:10182000A3E0F9124B398A0E8B0FEA450F70077A45
:10183000007B00029A067A127B001233ED8A088B35
:1018400009EA45097003029A027C127D00790012B0
:1018500033337401122AAF850A82850B83A3A3E078
:10186000F9124B0FE508240FFEE43509FF7402124C
:101870002CFFE08E828F83F07902AA08AB09124018
:10188000117403122CFF12C51E129A2B129A3924BE
:1018900011129A0B850882850983A3A3A3A3A3A38E
:1018A000A3F0750CFF750D008E828F83E0780C120B
:1018B0002C16E508240C12CD78E50C12D8A512E6FA
:1018C00016E0C0E0E508240B12CD78D0E0F0E50A80
:1018D000129A15129A0EFAE508240D12CD78EAF044
:1018E000E50A12A443129A0E8AF0A4A9F02427FA5A
:1018F000E439FB12334B8A0C8B0DAE0CAF0DE508AF
:10190000241012CD7812A478EE4F70030299F58E50
:10191000828F83741A12AB3F8E828F83A3A3F0A3AE
:10192000129A4D129A1F12CB86122CFF12DD5612FC
:10193000D52E124B15850A82850B83A3A3A3E0C085
:10194000E012B737D0E0F0901C2512AF2B24101214
:101950009A3312A40F350BF58312AF2B12C240E855
:10196000F0A3E9129A4D12AF2712D480E8F0A3E950
:10197000129A3FE0C0E0EE2414F582E43FF583D0F4
:10198000E0F0E50A240C129A0BC0E0EE12A40F3F1F
:10199000F583D0E0F07415122CFF12BA74E0C0E0A9
:1019A00012DA53D0E012CD90C0E012D473D0E0121E
:1019B000A4A4C0E012AAB8D0E012B2E5C0E012AA16
:1019C0009FD0E0F07417122CFF122CDCEE241AF5D5
:1019D00082E43FF583122CE8EE2427F8E43FF9EE89
:1019E0002422129A3312BF14129A0EC0E012D53676
:1019F000D0E0F0800DAA08AB0912401D75080075F3
:101A00000900AA08AB09740502D8CBF582E4350BAE
:101A1000F583E022EA129A19222410F582E42212B8
:101A20009A232212ACBAA3A3A3A32212B884A3A31D
:101A3000A3A322F582E43FF58312AB5BE50A2212F1
:101A40009A4322F0850A82850B83A3A322129A432C
:101A5000A3A3A3A32274F012245B74FE122AED85C3
:101A6000188285198312AB1C8A0E8B0F890DC20058
:101A7000EA129CDEE0F50C901BCE12B2E0600EA9DB
:101A80000C12E618124B86E96003029CAD7C021230
:101A90009CFA129CB2F91240178A088B09AE08AF63
:101AA00009EE4F7058850E82850F83A3E0A2E040B7
:101AB00003029CAD7414122CFF12286D7416122CA4
:101AC000FF122871A90D7406122CFF12DD56AA0E02
:101AD000AB0F12403B7406122A598A088B09AE08D4
:101AE000AF09EE4F7003029CAD8E828F83A3A3A338
:101AF000A3A3A3A3A3E50C129D1B12338DAA0C8EE6
:101B0000828F83A3A3A3A3A3A3A3A3E024FFF8E44A
:101B100034FFF9E86A497002D200129CD8700302BF
:101B20009C69850E82850F83A3E0A2E05003750CAB
:101B300000129D08E50C98E499C365D033401CE081
:101B4000F8EE240E12B7332CF07508FF750900E883
:101B50007808122C16EE240C1297CB129CBB12EBB9
:101B600015122A4212BCE0EE240D12B733F508E537
:101B70000C8508F0A4FAABF012AADA2422F582E46C
:101B800038F583E02AFAA3E03BFB123327740312F3
:101B90002A59750801129CEC7808122C1612B730DD
:101BA0004508F0A200506DEE240CFAE43FFB7508E6
:101BB000FF129CEC047808122C168A828B83E04575
:101BC0000812AB2AF8E50CF508E88508F0A4F8A996
:101BD000F0129CC3FCE82CFCE439FD12AADA2420A4
:101BE000F582E438F583ECF0A3ED12BBA3F4702486
:101BF000EE240BF508E43FF509129CCC12BF2685B4
:101C00000882850983E0F9123357850882850983A4
:101C100074FF80541234D78E828F8312AC00901CD4
:101C200008E0FA901E6CE0F508EA8508F0A4FAAB2B
:101C3000F0F8EBF9901E69E0F508E88508F0A4F8E3
:101C4000ACF08508F0E9A42CF9EA28F8EB39F9E8BA
:101C500075F064A4F8AAF075F064E9A42AF98E82FC
:101C60008F83A3A3E8F0A3E9F0AA0C129D0812D970
:101C70009EE86A7001E9600CEE240C1295CE6004B7
:101C8000A2005029EE240E12B733C0E0E50E129CDC
:101C9000DED0E0F012B730C0E0E50E2414129CE470
:101CA000D0E0F0AC0EAD0F129CFA12409B74020211
:101CB000D8CBE50E2411129CE4E022E50E240E128E
:101CC0009CE422E50E2410129CE4E022129CD02217
:101CD000EE129A193FF5832212CB46E0F422241328
:101CE000129CE422F582E4350FF583227509001277
:101CF000B798F5F0E50C84E5F02285188285198304
:101D000012C280FAA3E0FB22EE240E12B79BF81257
:101D1000B798FCE82CF8E43400F922F07A017B0053
:101D2000901E85E0F922C082C083901E85E0F912E2
:101D3000335702BBAD74F412245BEAFEEBFF548010
:101D4000704BEEA2E0505F12402FEE6401FAEF807C
:101D5000528A828B83E06401702CEA12CD761228BD
:101D60006DEA129DAD122A46EA24121297DEEA2489
:101D700002FCE43509FDEA2419FAE43509FB1240B6
:101D8000417406122A59AA08AB09123351901E85D4
:101D9000E0F91233638A088B09EA450970B3EEFA59
:101DA000EF6480FB80047A007B00028382240FF5BD
:101DB0000AE43509F50B780A2274F212245B890BC8
:101DC0008A088B098A828B8312BF261240598B0D99
:101DD000EA450D600479B88073124077E9F89051B4
:101DE00076E493F9E8C399400479B2805F7A157B71
:101DF000001233ED8A0C8B0DAE0CAF0DEE4F70045C
:101E0000791080488E828F83E4F0129E68E50BF093
:101E1000750A007808122A427C127D00EE2403FA2B
:101E2000E43FFB1233277403122A59901BD012B2DD
:101E3000E07008901BD0800C129E55888289831216
:101E40009E5E70F412A478124089790002ADA2A3BC
:101E5000A3A3A3A3A3129E592212D8C4F92212BF8E
:101E60002AEA4B8882898322A312CED8A322C08279
:101E7000C083901BD080048C828D8312DD56EC4D84
:101E800060288C828D83A3A3E069600574FF69706C
:101E9000E68C828D83A3A3A3E06A7003A3E06B703A
:101EA000D6EC2403FAE43DFB80047A007B0002BBFD
:101EB000AD74F712245BE9FD74FE6D70047C018043
:101EC000027C00901BD080096D70027C01888289A1
:101ED0008312B2E0601F88828983A3A3A3E06A70A3
:101EE00003A3E06B70E7ECA2E088828983A3A3E000
:101EF00050D6F9800279FE02A6CF74F612245BE96F
:101F0000FF7E00901BD0802C88828983A3A3E06F82
:101F1000701E88828983A3129F3D25E0FCE433FD77
:101F2000EA2CF582EB3DF583E508F0A3E509F00E18
:101F30008882898312B2E070CFEEF9800CA3A312DD
:101F4000EAE1EE227402122A597F020226E974F7AE
:101F500012245BE9FE901BD0129E557C007D008010
:101F60000BE8FCE9FD88828983129E55E849603EB2
:101F700088828983A3A3E06E70E788828983A3A304
:101F8000A3E06A7003A3E06B70D7EC4D888289836D
:101F9000700812BF26901BD0800312A6BB12AC00A3
:101FA000E8FAE9FB1233F3124089790180027900E3
:101FB00002A6CF74F512245B890A901BD012BF26AB
:101FC0007E007F00801712ACB2E8F0A3E912BBA339
:101FD000F508A3E0F5091233F3AA08AB09EA4B6050
:101FE000288A828B83A3A3E0650A7010EE4F8A8251
:101FF0008B8370D2129E55901BD080CDEAFEEBFFF2
:102000008A828B8312BF2680D412408902DE53C09D
:1020100082C0837900901BD080010912BF268A827A
:102020008B83E582458370F202BBAD74F612245BAC
:10203000E4F508F5097808122A46905176E493757C
:10204000F013A4A9F012A16D1234657402122A597A
:10205000E9FE74096E7003124083029F3974F61210
:10206000245B74FE122AED851882851983E4F0A39F
:10207000F0A818A919880889097808122A4675084D
:10208000027509007808122A467C007D007A427B9E
:10209000001234717404122A59029F4474F51224F8
:1020A0005B74EB122AED851882851983E4F0A3F0A6
:1020B000901BD0807D8E828F83A3A3E0C0E074024A
:1020C000122CFFD0E0129E69A3A982AA8389088AF4
:1020D00009750A007808122A427C127D00740612E3
:1020E0002CFFAA82AB831233277403122A5974027D
:1020F000122AA7880889097808122A4675081375D4
:1021000009007808122A467404122CFF12B28D7549
:10211000F013A4F8AAF075F013E912A16912347152
:102120007404122A5985188285198312A1788E8227
:102130008F831296B0EE4F600302A0B5A818A919BC
:10214000880889097808122A4675080275090078F6
:1021500008122A467C007D007A427B00123471749A
:1021600004122A59741502DE50A42AF9E82402FC4C
:10217000E439FD7A427B0022E02401F0A3E0340040
:10218000F02274F412245B74EB122AED7E007F00BF
:10219000A818A919880889097808122A467508021A
:1021A0008E097808122A467C007D007A427B001254
:1021B00034777404122A59E9706E8E0880587402BC
:1021C000122AA7880A890B780A122A46750A1375FB
:1021D0000B00780A122A46E50875F013A4F8AAF055
:1021E00075F013E50912A1691234777404122A59A3
:1021F000E9701B7403122CFFAA82AB837402122CA9
:10220000FFE0F9124053E970050EEE70010F05086A
:10221000E50870020509851882851983129E55C349
:10222000E50898E509994096EEFAEFFB74150283EC
:102230007F74F612245B8C828D83A3A312A46AF0B0
:10224000EA12C4DA3BF583E0C0E012A43BD0E0F030
:1022500012A415129E5512A41F12A46AA3F0A3F093
:10226000EA241FF582E43BF5831296B0EC12A40F2A
:102270003DF58312A47812E4123BF58312A449A31E
:10228000A3A3A3A3A312A47488828983E0FE8C82F3
:102290008D8312A48B74035EFEC39403400302A4D7
:1022A00002EE600874026E600302A32C8C828D83A0
:1022B000E0540CFE740C6E700302A36BE0A2E440C9
:1022C0000D88828983E08C828D83A312A4AF740869
:1022D0006E600302A36B12A4297401F08A828B83BF
:1022E000A3A3A3A3A312B75070128C828D83E044E2
:1022F0000C12A493A3A312A44912A4748C828D83FC
:10230000E0A2E4402712A45312A47E50010912A4B3
:1023100053A3A3A3A3A3A3F0A3EF12A4A48C828D21
:1023200083A3A3A3F0E82403F850010988828983DA
:10233000E0C0E0EC2411F582E43DF583D0E012A486
:102340008B8C828D83E0A2E7507688828983E0FEC1
:102350008C828D8312A4AF74FC5E700C8C828D8392
:10236000A3E054036403701F02A40212A429E4F042
:10237000740C6E600302A2DC12A45912A47E400306
:1023800002A2FC0902A2FC8C828D83A3E0540360AC
:102390003288828983E0C0E0EC12A4433DF583D00B
:1023A000E012A4B08C828D83E05403640270148820
:1023B000828983E0C0E012A431D0E012A4B080038F
:1023C000A3E4F0EC12B2713D12BF46EC2410FEE41F
:1023D0003DFF12A415E0F5088E828F83E0C3982597
:1023E00008F508F0EA2417F8E43BF988828983E0CD
:1023F000C39508C0E012A41FD0E012BF30C39508F7
:10240000500A12A41FE4F012A43BE4F0029F4924F6
:1024100015F582E422EA241DF582E43BF58322ECE3
:10242000240DF582E43DF58322EC12B3F73DF583EC
:1024300022EC2414F582E43DF58322EC129A193D36
:10244000F583222413F582E422E0FEA3E0FF8C82D0
:102450008D832212A459A3A32288828983E0F508E0
:10246000A3E0FFE5088C828D8322E4F08C828D83CB
:10247000A3A3A322A3A3A3A3EEF0A3EFF022A3A3FD
:10248000A3A3F0A3EFF0E82402F82212A4AAA882E2
:10249000A9832212A49BA3A3A3A322F08A828B83E5
:1024A000A3A3A32212A4AAA3E02212BF39A322A3AA
:1024B00012A4AA08A9832274F412245B74F3122ACA
:1024C000ED8A0A8B0BECFEEDFF8E828F83E0540CBD
:1024D000F508E0A2E75006E508D2E7F508E508D2DE
:1024E000E1F50812B7507006E508D2E4F508E0A25D
:1024F000E55006E508D2E5F5087C087D007900AADC
:1025000018AB191233337402122CFFE50812DC8B5E
:10251000C0E07403122CFFD0E012AB32E50AF0A346
:10252000E50BF07405122CFF12C249124167740CBE
:10253000122CFFE070787408122CFF12AADD12BF73
:10254000143812D244C0E07408122CFF12A5C7D070
:10255000E012D153C0E07408122CFF12A5BDD0E0E8
:10256000F07408122CFF12A5D3128BFC12BDA81216
:10257000A5D9241112B733C0E012A5B3D0E0F0EE14
:10258000241412B733C0E07408122CFF12AADD2401
:1025900035F582E438F583D0E012AB22C0E0740850
:1025A000122CFF12AAE1D0E012C24B12416D740D41
:1025B00002837FE82432F582E439F5832212AAF1FE
:1025C00012D46338F5832212AAF12426F582E43866
:1025D000F58322129A23A3A322FAA3E0FBE8242C7A
:1025E000F582E439F583EAF0A3EBF0EE2274F712FA
:1025F000245B7E008A828B83A3A3A3A3A3A3A3A3AC
:10260000A3E06404600302A6A212B3EFE060030239
:10261000A6A212A6A63B12B2DE700302A6A2888270
:102620008983E05403707BE812B3F739F583E0FA4D
:102630008C828D83A3A3E0FBA3E0CB2411F582E47D
:102640003BF583E06A705B88828983A3A3A3A3A37D
:1026500012A6B7E06A7003A3E06B70468882898394
:1026600012A6B7A3A3E0FFA3E0CF240612B7336AF4
:102670007003A3E06B702B88828983A3A3E0F88C9E
:10268000828D83A3A3E0F9A3E0F5838982A3A3E06D
:1026900068600D8C828D8312A6B1540C64047002A4
:1026A0007E01EEF98029EA12A6AB22240FF582E41E
:1026B00022A3A312C28022A3A3A3A312BF2A8C82A7
:1026C0008D8322740C122CFFE0F9740D122A597FAD
:1026D000010226E974F612245B74FC122AEDEAFE6C
:1026E000EBFFECFAEDFB8A828B83A3E054036016C8
:1026F000901BC212B2E060577900EEFCEFFD12E6CB
:1027000018124B86804985188285198312A4787423
:1027100002122CFF12AC00AC18AD197AA17B40124A
:1027200043FB8A088B09A808A909E8496021888227
:102730008983A3A3A3A3A3A3A3A3A37406F07A00EE
:102740008882898312AADD12C4EFE0F912431D7456
:1027500004029F4674F212245B74F3122AEDEAFE1F
:10276000EBFF8E828F83A3A3A3A3A3A3A3A3A3A3FF
:10277000E0F50A901E84E0700579BA02AA92750805
:1027800001750900750C00750D007C087D0079004D
:10279000AA18AB191233337405122CFF740112AB53
:1027A00044540460127402122CFFE0D2E612AB44CF
:1027B00054087003750803E054106006744045081F
:1027C000F508E0540860227402122CFFE044C012A5
:1027D000AB445420600A7403122CFFE0D2E080085E
:1027E0007403122CFFE0D2E1F0EE241512B733127D
:1027F000AAC27003740169700674084508F5088E52
:10280000828F83A3A3A3A3A3A3A3A3E07016124460
:102810006D85188285198312AC007402122CFFE0BA
:10282000D2E2802C640F70107402122CFF12AB4C99
:1028300074044508F508807B8E828F83A3A3A3A32D
:10284000A3A3A3A3E064028E828F83700612BD9CB3
