:020000040027D3
:10B0000038B50025DFF8C84320E0A078904204BF9F
:10B0100022784D2A03D1607800F096F80546002189
:10B02000E1700EE0E06A40F634029042F7D2636AC3
:10B030009DF800201A54401C8842E06201D105208E
:10B04000E070A0789DF800104840A070684600F0BD
:10B050002BFA00283BD0E3789DF80000A16A092B69
:10B060000246EED8DFE803F0080F141707061F2288
:10B07000272CE6E7C9E7D5E7FE2AE2D10120E070F8
:10B080000020E062DDE7A0620020A0700220D7E788
:10B0900020700320D4E700296070D0D0FF2914BFAE
:10B0A00004200620CCE7A0620720C9E701EB0221BB
:10B0B000A1620820C4E701EB0241A1620920BFE7B9
:10B0C00011EB0261A1620CBF05200420B8E7280043
:10B0D00018BF012032BDF8B5BE4DBF4C29680094A1
:10B0E0008868B0F1A53F26D10A69CB68BB4F022022
:10B0F0009A42B6414FF0000CF60FC7F800C0C7F8EF
:10B1000000C00BD1B64EB34204D3401E04E05B1C1A
:10B110000028F7D11E787E609342F8D178683A68AB
:10B120000B6842EA002292B2934204D10422083111
:10B13000684600F076FB2A689068A04201D10120A1
:10B14000F2BD0020F2BD00002DE9F14F82B0DFF822
:10B1500080929DF80830D9F8242000200190002723
:10B160005B1E8046032B16469E481DD8DFE803F081
:10B170001D89B602202109F1040000F06DFB0120B9
:10B1800030707770B770F770307177710820B071D8
:10B19000F77137727772B072F772377306F10D017B
:10B1A000D9F82400091A0191A9E01578547805EB23
:10B1B0000425947805EB0445D47805EB0465331D2C
:10B1C0001C7893F801A093F802C01E1D04EB0A241A
:10B1D000DB7804EB0C44891B04EB036402EB010AEB
:10B1E0006119491EB5F5001F00916BD3814269D2E8
:10B1F000544567D3A5F500104FEAD02B0DE009F1B7
:10B2000004004FEADB010122405C02FA04F409F178
:10B210000402044354540BF1010B0098A0F50010F4
:10B22000C00A584513D309F104004FEADB010BF0C3
:10B230000704405CE040C007EDD44FEACB2000F5A6
:10B24000001000F0E1FA0028D9D04FF00108CAF14F
:10B25000040414F0030405D0FF22214606EB0A0083
:10B2600000F0FEFAB8F1000FA24448D1BAF1000F85
:10B2700045D052462946304600F0D3FA00283ED049
:10B2800020E015785178947805EB0125D17805EB0D
:10B29000044505EB0165331D1C7859789A781E1D0D
:10B2A00004EB0124D97804EB0244B5F5001F04EB4C
:10B2B000016407D36119491E81423CBF40F6350045
:10B2C000844202D34FF0010819E00CB36119491E02
:10B2D0000978FF2908BF641EF7D019E03D4D3E4CA8
:10B2E0002868009400F108010422684600F099FAE9
:10B2F00028688168A1420CBF01274FF00708019A16
:10B300009DF80800414600F00EF83846BDE8FE8F73
:10B3100022462946304600F0D7FAD9F82400361ADA
:10B32000A6190196EBE77FB5144600228DF80020A0
:10B33000FE25631C8DF8045001AAFF2B32BF537009
:10B34000FF2555704D258DF8065040F08000FF2BED
:10B350008DF8070002AD0AD313711D0C8DF80A5049
:10B36000180A1B0E8DF809008DF80B3003AD05F897
:10B37000011B01A82D1A012006E09DF80010135CA6
:10B3800059408DF80010401CA842F6D30020104E02
:10B3900007E0726A9DF80010125C51408DF80010B1
:10B3A000401CA042F5D3294601A800F054F800281B
:10B3B000F9D02CB1706A214600F04DF80028F9D080
:10B3C0000121684600F047F80028F9D07FBD000051
:10B3D000004000203040002005A0A00514700D4062
:10B3E0001C01200000B0270038B5002000F0E4FA6E
:10B3F0004FF4007000F000FB3E4C3F4D204600F043
:10B4000069FB41F6FF71204600F096FB01212046C2
:10B4100000F099FB00220221284600F099FB02214E
:10B42000284600F03BFD354A0121284600F0C4FBC8
:10B430000121284600F030FD00F0A8FA0146602303
:10B440004FF4E132204600F00DFB2046BDE83240CB
:10B4500000F033BB35E0F8B50C4629490A684B6863
:10B4600040F63206934208BF354604D09A423ABFAE
:10B47000F51A5519D51AA54201D20020F2BD1A4677
:10B480000025204B06E0475D9F54521CB24228BF66
:10B4900000226D1CA542F6D34A6000F012F8204647
:10B4A000F2BD144800F027BB38B50446114D2846BC
:10B4B00000F021FB20B1284600F026FB207001207F
:10B4C00032BD38B50F4C0E4D08E02868401C28608E
:10B4D00040F63201884224BF00202860286869684D
:10B4E000884205D0215C034800F018FB0028ECD10D
:10B4F00031BD000000C0004000900D4000410D40F3
:08B500009C5000206848002067
:10B80000000800207DC0270038B5124A1468542370
:10B810004FF400611A689047FFE700F00CF82846E3
:10B8200032BD70B50B4B1C6858252E68B04700F030
:10B8300002F8284670BD054604F00C00FFE70549F4
:10B840000A681306FCD422F00C021043086070470B
:10B850000000000008300D40002200F005B8000094
:10B8600062F30F2262F31F42401810F0030308D066
:10B87000C91A1FD3DB0748BF00F8012D28BF20F8E5
:10B88000022D130030B414461546103928BF20E9A4
:10B890003C00FAD8490728BF20E90C0048BF40F80F
:10B8A000042D890028BF20F8022D48BF00F8012D83
:10B8B00030BC7047C91818BF00F8012DCB0728BF4E
:10B8C00000F8012D7047000062B38B0708D0521EAC
:10B8D00011F8013B00F8013B00F024808B07F6D102
:10B8E000830740F0208000BF103A07D330B4B1E89E
:10B8F0003810103AA0E83810F9D230BC530724BFF2
:10B90000B1E80810A0E8081044BF51F8043B40F823
:10B91000043BD20724BF31F8022B20F8022B44BF8E
:10B920000B7803707047083A07D3B1E80810083A5B
:10B9300040F8043B40F804CBF7D25307E4E700009B
:10B9400070B50B00354D03D12B6843F400132B6009
:10B950002C68334B1C4008B944F08074002914BF94
:10B960004FF480360026344322432A604FF6FF749A
:10B97000686800F48030864218BF002C05D0102083
:10B9800000F032F86868641EF3E770BD254801686E
:10B99000002001F0070107290DD8DFE801F00405B8
:10B9A000060708090A0B0FE010E011E012E013E0AF
:10B9B00014E015E01C48704718490A6822F4E06258
:10B9C00042EA00220A6070471848704718487047DA
:10B9D000184870471848704718487047184870470B
:10B9E00018487047000000000138FDD170477047CB
:10B9F000154908200860FEE710B50FF25001FFE777
:10BA0000C0F3032251F822200124136800F00F0034
:10BA100004FA00F01843106010BD000000200D4033
:10BA2000F8FFFEFE04200D4090D003000048E8011E
:10BA30000024F40000127A0000093D0080841E00FA
:10BA400040420F0020A1070074200D4008200D4047
:10BA500018200D4028200D4038200D4048200D4072
:10BA6000A8200D40F8B504460E4617461D4600F0C6
:10BA700031F8B6EB071F04F1300005D2016841F040
:10BA8000200101607F0803E0026822F020020260CA
:10BA9000F600B6FBF7F0401C400804F124028109CF
:10BAA000116000F03F0004F12801086004F12C004F
:10BAB0000560002044F8180FF1BD00F12C010A6860
:10BAC00042F010020A6040F2013150F8303F0B435F
:10BAD0000360704700F118010A681307FCD400F1F5
:10BAE0002C010A6822F010020A6050F8303F114918
:10BAF0000B4003607047183000680009FFE700F052
:10BB0000010080F00100704700F118010A68D306B7
:10BB100001D4006870474FF0FF30704710B500F156
:10BB2000180213689C0602D40160012010BD002099
:10BB300010BD0000FEFCFFFF50F8382FFFE722EA9F
:10BB400001010160704700F6C87001607047000095
:10BB5000F0B500230FF280240FF29C250FF2B826D7
:10BB60000FF2D42721FA03FC5FEACC7C20D5DFF862
:10BB7000D0E170450CD0DFF8CCE170450BD0DFF898
:10BB8000C8E170450AD0DFF8C4E1704509D00BE088
:10BB900054F823C00AE055F823C007E056F823C044
:10BBA00004E057F823C001E0DFF8A4C1CCF800207E
:10BBB0005B1C082BD6D3F0BD10B50023DFF8804105
:10BBC000A0420CD0DFF87C41A04224D0DFF87841BD
:10BBD000A04240D0DFF87441A0425CD07AE0022954
:10BBE00008BF012376D0042908BF022372D0082998
:10BBF00008BF03236ED0102908BF04236AD0202970
:10BC000008BF052366D0402908BF062362D08029DB
:10BC100060D107235EE0012908BF08235AD002291A
:10BC200008BF092356D0042908BF0A2352D0082987
:10BC300008BF0B234ED0102908BF0C234AD020295F
:10BC400008BF0D2346D0402908BF0E2342D08029CB
:10BC500040D10F233EE0012908BF10233AD002292A
:10BC600008BF112336D0042908BF122332D0082977
:10BC700008BF13232ED0102908BF14232AD020294F
:10BC800008BF152326D0402908BF162322D08029BB
:10BC900020D117231EE0012908BF18231AD002293A
:10BCA00008BF192316D0042908BF1A2312D0082967
:10BCB00008BF1B230ED0102908BF1C230AD020293F
:10BCC00008BF1D2306D0402908BF1E2302D08029AB
:10BCD00008BF1F23136010BDF0B500230FF27804D6
:10BCE0000FF294050FF2B0060FF2CC0721FA03FC15
:10BCF0005FEACC7C20D5DFF848E070450CD0DFF857
:10BD000044E070450BD0DFF840E070450AD0DFF822
:10BD10003CE0704509D00BE054F823C00AE055F828
:10BD200023C007E056F823C004E057F823C001E021
:10BD3000DFF820C0CCF800205B1C082BD6D3F0BD68
:10BD400000900D4000A00D4000B00D4000C00D401F
:10BD500000400D4080400D4080400D4084400D402B
:10BD600088400D408C400D4090400D4094400D4067
:10BD700098400D409C400D40A0400D40A4400D4017
:10BD8000A8400D40AC400D40B0400D40B4400D40C7
:10BD9000B8400D40BC400D40C0400D40C4400D4077
:10BDA000C8400D40CC400D40D0400D40D4400D4027
:10BDB000D8400D40DC400D40E0400D40E4400D40D7
:10BDC000E8400D40EC400D40F0400D40F4400D4087
:10BDD000F8400D40FC400D4000400D4004400D4037
:10BDE00008400D400C400D4010400D4014400D40E7
:10BDF00018400D401C400D4020400D4024400D4097
:10BE000028400D402C400D4030400D4034400D4046
:10BE100038400D403C400D4040400D4044400D40F6
:10BE200048400D404C400D4050400D4054400D40A6
:10BE300058400D405C400D4060400D4064400D4056
:10BE400068400D406C400D4070400D4074400D4006
:10BE500078400D407C400D4030B5CB4300F5806408
:10BE6000D50725684CBF0D431D40256000F5846053
:10BE7000920747BF0268114301681940016030BD55
:10BE800004460D460222FFF7E7FF29462046BDE89B
:10BE900038400022FFF720BF38B5F1E738B5044637
:10BEA0000D460222FFF7D8FF29462046BDE838405C
:10BEB0000822FFF711BF000010B56FF07F44204645
:10BEC000441E20B1FFF7EDFA0028F8D0012010BD84
:10BED00010B500F035F816490820086000F038F871
:10BEE000FFF782FAFFF7E8FF10B9FFF7F4F850B94F
:10BEF000FFF7B0FAFFF784F80028F9D00D4CFFF7F0
:10BF0000A9FA641EFBD10C480168486900F004F8E6
:10BF1000BDE81040FFF76CBD01B40849086001BCE2
:10BF2000D0F800D04FF0FF3E406800477047000057
:10BF300008300D40444404003040002008ED00E08B
:10BF400080B500F015F800B10120C0B202BD0000BC
:10BF500080B50122C0210548FFF7BEFEBDE80840BC
:10BF6000002200210120FFF7EBBC000000C00D40C3
:10BF7000EFF3108072B6704719E050F8042BD30726
:10BF800044BFA9F101039A18091F0023042942F8AC
:10BF9000043BF9D25FEA817C134604D54FF0000CD4
:10BFA000A2F800C09B1CC90744BF0021197050F8BB
:10BFB000041B0029E1D1704730B50168846842183C
:10BFC000416802EB5103C9070BD54C4409E012F953
:10BFD000011B12F8015B002904F8015B05D5491C1F
:10BFE000F9D19A42F3D10C3030BD491EF1D5F8E7B2
:10BFF00010B5074979441831064C7C44163404E0E6
:10C000000A68081D114488470146A142F8D110BDB5
:10C01000080000002400000061FFFFFF7010000016
:10C02000344000200000000091FFFFFF5C00000092
:10C030001C0000000040002000F00BF8002801D098
:10C04000FFF7D6FF0020AFF30080FFF741FF00F0BD
:10C0500002F80120704700F001B80000074638469A
:10C0600000F002F8FBE7000080B5AFF30080024A61
:10C0700011001820ABBEFBE726000200AFF30080E2
:10C08000AFF30080FFF7D8FFDC000334400020F856
:06C0900000031C0120006A
:0CFFD400000000000000000000B8270042
:040000050027C07D93
:00000001FF
