:020000040000FA
:06000000020BCB020242DC
:03002B0002099532
:0300330002070FB2
:030043000208238D
:0300530002017730
:03005B000204B8E4
:03006B000206E9A1
:100083000201D60100F0FF0700080000FFFF000097
:10009300070400000F010147726F757000FF040031
:1000A300100502640A2FAC092FAC09C0C1C2C3C436
:1000B300C5C6C7C8C9CACBCCCDCECF5A69674265BE
:1000C30065416C6C69616E636530390100FFFFF255
:1000D300E0A1610000000000015B92E70CED0CF968
:1000E3000CF30C0020FD000206FFFF03010800DBF8
:1000F300177F1D0001080401030101037F91039190
:100103009101040200003118000000E8030000FF21
:10011300FFA9180103E803000064006400B801A00C
:10012300BB0D00A0BB0D0002020207040101010583
:100133001E02051E020A0A01010809080103B80B81
:1001430002803E0102FEFFE8030A050001FFFF0AE9
:10015300011401E0020000000105030101FF0F107B
:10016300FEFF182C00000000EC2A00000000FF0036
:100173000000FF00C0E074F1120459A2AFE433F5AC
:1001830009D2AF85A708AFA1EF5508FE74105E60D2
:1001930006120F2175A1EF74085E6008120F277510
:1001A300A1F78024EFA2E092F0E508A2E082F050EC
:1001B30017906198E0F89004ABE0C398A2D265D0A1
:1001C300335002E8F075A1FEE509A2E092AF7F0289
:1001D300020511C0E074F2120459A2AFE433FED257
:1001E300AF9061A4E0F8759B00E59158540860084E
:1001F3007591F7120F758023E591585410600875B7
:1002030091EF120F7B8014E591A2E092F0E8A2E057
:1002130082F05007E0C2E0F01210C59061A3E0F84D
:10022300E5E9585404600E12109B75E9FB90619345
:10023300E0A2E640F2EEA2E092AF7F01020511C018
:10024300E074F2120459A2AFE433FED2AF9061A579
:10025300E0F8E5BF585404600675BFFB1210DD805B
:10026300D4C3E498F8E499F91202A58026C3E49A6A
:10027300FAE49BFBE920E7E91202A5E498F8E49984
:10028300F922C3E498F8E499F91202A5E498F8E492
:1002930099F9C3E49AFAE49BFB22EB20E7CFE92028
:1002A300E7E0B90010BB0008E88AF084F8AAF0225E
:1002B300E4FBC8FA22EB70227B10C833C8C933C9E8
:1002C300335007C39AC3DBF280069A50012ADBEA54
:1002D300C833F4C8C933F4C9FA2275F008E4C83343
:1002E300C8C933C933C99AC99B5004C92AC93BD564
:1002F300F0ECFBC833F4C8E4C9FA22080808EAC0E2
:10030300E0EBC0E086F0E7A4FA180986F0E7A42A38
:10031300FA180986F0E7A42AFA180986F0E7A42A4E
:10032300FA1986F0E7A4FBE5F02AFA190886F0E744
:10033300A42BFBE5F03AFA190886F0E7A42BFBE5BA
:10034300F03AFA18180986F0E7A4C5F02BFBE43A53
:10035300FA1908E7C5F0C6A426F6E5F03BFBE43A34
:10036300FA1886F0E7A4F6E5F00826F6E43B08F66B
:10037300E43A08F6D0E0FBD0E0FA22E4CFC0E0E4B0
:10038300CEC0E0E4CDC0E0E4CCC0E075F020E626CA
:10039300F608E633F608E633F608E633F6181818D7
:1003A300EC33FCED33FDEE33FEEF33FFC3EC970983
:1003B300ED9709EE9709EF97191919400FFFEC977D
:1003C300FC09ED97FD09EE97FE191906D5F0BFEC70
:1003D300F709EDF709EEF709EFF7191919D0E0FC62
:1003E300D0E0FDD0E0FED0E0FF222510C582C0E0C2
:1003F300E51134FFC583C0E0E510C3958224F810EE
:10040300AF0885831185821080088583118582104A
:10041300D2AFCEF0A3E520F0A37808E608F0A3DE80
:10042300FAEFF0A3E58124FAF8E608F0A3E608F072
:10043300A3E608F0A30808E608F0A3E608F0A3156E
:10044300811581D0E0FED0E0F8158115811581E892
:10045300C0E0EEC0E022C0D02510C582C0E0E511A7
:1004630034FFC583C0E0E510C3958224F310AF08C1
:100473008583118582108008858311858210D2AF10
:10048300C8F0A3E9F0A3EAF0A3EBF0A37908E70926
:10049300F0A3D8FAECF0A3EDF0A3EEF0A3EFF0A3F2
:1004A300D0E0F0A3D0E0F0A3D0E0F0A3E520F0A3E8
:1004B300E5F0F0A322C0E0C0D0E8C0E0C082C08372
:1004C30090053DE004F090053EE004F090053BE02C
:1004D300F890053DE0C3985004D2938002C293E0A4
:1004E300C394644002E4F090053CE0F890053EE0DC
:1004F300C3985004C2818002D281E0C39464400255
:10050300E4F0D083D082D0E0F8D0D0D0E0328511AF
:1005130083851082E0C0E0A3E0F9A3E0FAA3E0FB47
:10052300A37808E0F608A3DFFAE0FCA3E0FDA3E06C
:10053300FEA3E0FFA3E0C0E0A3E0C0E0A3E0F5D0AA
:10054300A3E0F520A3E0A3F5F010AF0885831185A0
:1005530082108008858311858210D2AFD082D08328
:10056300D0E0F8D0E032120C63B900030205A8E42E
:10057300900301780D791B8002F0A3D8FCD9FA7A95
:100583000D7B1D90008678F279018015E493A3AD6D
:1005930082AE838A828B83F0A3AA82AB838D828E01
:1005A30083D8E9D9E775829F7583E174061209261A
:1005B3007582E97583287400120926E47375F010B7
:1005C3008E128F138582178583168510828511837A
:1005D300E0CEA3E0CF851782851683EBC9EAC8ED89
:1005E300CBECCAC3E833C8E933C9EA33CAEB33CB2C
:1005F300C3EA9EF515EB9FF514B35004AB14AA158B
:10060300EC33CCED33CDD5F0DAAE12AF1322D08379
:10061300D082ECC0E0EDC0E0E493A3FCE493A3FD3F
:10062300ED4C600D12072DEC24FFFCED34FFFD8033
:10063300EFE493A3FCE493A3FDED4C600D1207CE0E
:10064300EC24FFFCED34FFFD80EFD0E0FDD0E0FCB7
:10065300E493A3C0E0E493C0E02285118385108274
:10066300E0A3FEE0A3F5207808E0A3F608DFFAE0B4
:10067300A3FFE0A3C0E0E0A3C0E0E0A3C0E0E0A3E9
:10068300C0E0E0A3C0E010AF08858210858311802D
:1006930008858210858311D2AFD083D08202092CC2
:1006A300D083D082E9C0E0E493A3C386F0C5F0957C
:1006B300F0F908E493A386F0C5F095F0700BE4938A
:1006C300A3C3994005E9048002A3E475F002A425BD
:1006D30082F582E5F03583F583D0E0F9E493A3C096
:1006E300E0E493C0E022C0E074F2120459A2AFE444
:1006F30033FED2AFE589A2E15003120DE9758900FB
:10070300C2C5EEA2E092AF7F01020511C0E074F210
:10071300120459A2AFE433FED2AFE58BA2E050033B
:10072300120DE9758B00C2E880D8C0E0C3E493964C
:10073300087401939618400FE493667008087401D7
:1007430093661870007019A3A3C3E4939608740109
:10075300939618A3A3400DD0E0D0E0D0E002064D5D
:10076300A3A3A3A3A3A3D0E02274048008740380EB
:100773000474028000CCC0E0EDC0E0E510C39CCC63
:10078300AD1150011D10AF068C108D1180068C1019
:100793008D11D2AF12088AD0E0FDD0E0FC227402A2
:1007A3008000CCC0E0EDC0E0E510C39CCCAD11509F
:1007B300011D10AF068C108D1180068C108D11D287
:1007C300AF120868D0E0FDD0E0FC22C0E0C0F088A2
:1007D300F0E4936670080874019366187000A8F03B
:1007E300A3A3700BD0F0D0E0D0E0D0E002064DA37D
:1007F300A3D0F0D0E022D083D082CCC0E0E493A396
:1008030060061208E91470FAE493A36006120A283A
:100813001470FAD0E0FCE493A3C0E0E493C0E022B8
:10082300C0E074F2120459A2AFE433FED2AFC2C0E7
:10083300E5D1A2E45003120E91EEA2E092AF7F0144
:10084300020511A2E792D65002F40430F70663F0D2
:10085300FF05F0B3400384800384F40430D60563BA
:10086300F0FF05F022CAC0E0E493A3C582CCC582A1
:10087300C583CDC583F0A3C582CCC582C583CDC551
:1008830083DAE5D0E0CA22CAC0E0E0A3C582CCC5C2
:1008930082C583CDC583F0A3C582CCC582C583CD74
:1008A300C583DAE6D0E0CA22C008C3E096F508089B
:1008B300A3E096420808A3E096420808A3E0964501
:1008C300087001D3D008227009080808226016189E
:1008D3001818C6C333C608C633C608C633C608C607
:1008E30033C6D5E0EA22C0E0E493A3D39C5010E4DE
:1008F30093A3C39C400AD0E0D0E0D0E0020816A343
:10090300A3A3D0E022C5822510C582C5833511106B
:10091300AF07F5118582108007F511858210D2AFDC
:10092300C58322C09FF59FE473D09F22D083D082DA
:10093300C09FE493C0E0740193C0E0740293F59FF9
:10094300227404800A74038006740280027401C056
:10095300E0F40412095FD0E0120C26222510F58280
:1009630010AF08F510400C15118008F51040021562
:1009730011D2AF8511832200C0D0251010AF08F526
:1009830010500C05118008F51050020511D2AFD09C
:10099300D022C0E0C0D0E8C0E0A8A8D2AFC2C7E868
:1009A300A2E792AFD0E0F8D0D0D0E032BB0102E7AB
:1009B30022C082C08389828A83BB0003E08002E471
:1009C30093D083D082226016080808C6C313C618C2
:1009D300C613C618C613C618C613C6D5E0EA222521
:1009E30010F8E43511F9222510FAE43511FB22251C
:1009F30010FCE43511FD22C3E0C696F608A3E0C659
:100A030096F608A3E0C696F608A3E0C696F6222556
:100A13001010AF08F510400C15118008F5104002B6
:100A23001511D2AF22C0E0E493A36C7009D0E0D0DB
:100A3300E0D0E0020816A3A3D0E022E76670100816
:100A430009E766700A0809E76670040809E7662281
:100A5300E066701008A3E066700A08A3E0667004FD
:100A630008A3E06622C3E09608A3E09608A3E096F5
:100A730008A3E096A2D265D03322C3E697F608090D
:100A8300E697F60809E697F60809E697F622C3E41F
:100A930093960874019396087402939608740393CB
:100AA3009622C3E096F008A3E096F008A3E096F040
:100AB30008A3E096F022E657F60809E657F6080978
:100AC300E657F60809E657F622E056F608A3E0567D
:100AD300F608A3E056F608A3E056F622E026F0084F
:100AE300A3E036F008A3E036F008A3E036F022E0F6
:100AF30026F608A3E036F608A3E036F608A3E036A8
:100B0300F622E627F60809E637F60809E637F60877
:100B130009E637F622E056F008A3E056F008A3E012
:100B230056F008A3E056F022E647F60809E647F632
:100B33000809E647F60809E647F622700422600D25
:100B430018C6C333C608C633C6D5E0F41822E493E7
:100B5300F608740193F608740293F608740393F687
:100B630022E046F608A3E046F608A3E046F608A30B
:100B7300E046F622E046F008A3E046F008A3E0468C
:100B8300F008A3E046F022E4C396F608E496F608DC
:100B9300E496F608E496F622C3E7960809E7960872
:100BA30009E7960809E79622C6F4C608C6F4C608FC
:100BB300C6F4C608C6F4C622C3E09608A3E09608A6
:100BC300A3E09608A3E0962275D00075813F7510C7
:100BD3000175110300020569600D08C6A2E713C67B
:100BE30018C613C6D5E0F322E6F008A3E6F008A37F
:100BF300E6F008A3E6F022E0F608A3E0F608A3E097
:100C0300F608A3E0F622600C08C6C313C618C61381
:100C1300C6D5E0F422C2E9EAF5C1A2E950FC7A00A4
:100C23007B0022CAC0E0E6F0A308DAFAD0E0FA2299
:100C3300E0FAA3E0FBA3E0FCA3E0FD22E8F0A3E9D4
:100C4300F0A3EAF0A3EBF022E0F8A3E0F9A3E0FAC3
:100C5300A3E0FB22EAF0A3EBF0A3ECF0A3EDF02278
:100C6300E5C754F84401F5C77901222510F582E45C
:100C73003511F58322C2AF75D69F020000221209F7
:100C83002FC7F70212092F1FF80212092F41F8028A
:100C930012092FD1F80212092F5EF90212092FAAA5
:100CA300F90212092FD6F90212092F17FA021209B3
:100CB3002FB0FB0212092F8EFC0212092F6EFD02C8
:100CC30012092F02F80612092F1EF80612092F2EF9
:100CD300D40412092F61D40412092F9ED4041209DB
:100CE3002F61D60412092F66D90412092F99D9044A
:100CF30012092F8FDC0412092F65DF0412092FFF5D
:100D0300DF0412092F1BE30412092FEAE30412097B
:100D13002F64E50412092FE6E50412092F0AE704FC
:100D230012092F6BE90412092FF4E90412092FFEAB
:100D3300EB0412092F32EE0412092F6CEF0412098F
:100D43002F75EF0412092F86EF0412092FCFEF043A
:100D530012092F616B0012092F61700012092FC550
:100D6300700012092FE6710012092FE775001209AE
:100D73002F187A0012092F4E7C0012092F927C0043
:100D830012092FB27E0012092F6BF40612092F7C71
:100D9300F40612092F1AF50612092FFAFF01120998
:100DA3002FF2F90612092FD4F50612092FE4F506DE
:100DB30012092FFFF50612092F67F60612092F668F
:100DC300F20612092FEAF20612092F52F30612094C
:100DD3002F42FE0212092F61FE0212092FCEFE02DC
:100DE30012092F13FF0212092F6CFF0212092FD3CE
:100DF300B80612092FE8B80612092F68BA061209B5
:100E03002FA3BA0612092FBDBA0612092F35BB0646
:100E130012092FFDBB0612092F71BC0612092F8B75
:100E2300BC0612092FA2BC0612092FB5BC06120973
:100E33002FCDBC0612092FE2BC0612092F03BD06F3
:100E430012092F54BD0612092F23C20612092F318E
:100E5300C20612092FAAC20612092F83C30612095A
:100E63002F41C60612092F10F90612092F53AE0699
:100E730012092FC0AE0612092F78AF0612092FEE02
:100E8300AF0612092FE2B00612092F6BB206120940
:100E93002FD4B20612092F24B30612092F2DB3063D
:100EA30012092F3CB30612092F52B30612092F65FC
:100EB300B30612092F6EB30612092FEAF8051209B9
:100EC3002F16F90512092F12FC0512092F52FC05E2
:100ED30012092F8EFC0512092FA2FC0512092FBB44
:100EE300FC0512092FD8FD0512092F95FE051209DD
:100EF3002FA9FE0512092F04F10612092F28F10666
:100F030012092F41F10612092F7FF10612092FAFA3
:100F1300F10612092FDCF10612092F42F20612091B
:100F23002F45F20612092F4FF20612092F5CF20623
:100F330012092F5CE40612092F7CE40612092FBB69
:100F4300E40612092FD9E40612092FF4E406120964
:100F53002F5AE50612092F66E50612092FC3E50687
:100F630012092FD2E50612092FF6E50612092FB74B
:100F7300E60612092FC4E60612092FD5E606120962
:100F83002FB67F0012092FCE7F0012092FFA7F00A0
:100F930012092FCBBD0612092F25BF0612092F33C5
:100FA300BF0612092F46BF0612092F5BBF0612099F
:100FB3002F70BF0612092F83BF0612092FFFBF062A
:100FC30012092F64C00612092FFAC00612092FD383
:100FD300C10612092FE3C10612092FF2C106120935
:100FE3002F3BF50612092F5FF50612092F87F50629
:100FF30012092FAFF50612092FACE90612092FD3F8
:10100300E90612092FF1E90612092F57EA06120918
:101013002F15FD0312092F2EFD0312092F3AFD038D
:1010230012092F4EFD0312092F6CFD0312092F76AF
:10103300FD0312092F80FD0312092F93FD031209EB
:101043002F19FE0312092F8EFE0312092FBDFE0373
:1010530012092F0BFF0312092F5AFF0312092F75D1
:10106300FF0312092F7FFF0312092F90FF031209B9
:101073002FD3FF0312092FB3FF0212092F1894066F
:1010830012092F44940612092F61940612092F7432
:10109300940612092F8F940612092FE99406120958
:1010A3002F17950612092F28990612092F869A06DB
:1010B30012092FB89A0612092F1B9B0612092F87B4
:1010C3009C0612092FAF9C0612092FC49C06120915
:1010D3002FD49C0612092F149D0612092F569D0624
:1010E30012092F669D0612092FBDFE0512092FD77F
:1010F300FE0512092FFFFE0512092F18FF0512091D
:101103002F3CFF0512092F5AFF0512092F71FF0506
:1011130012092F9FFF0512092FBAFF0512092F8D00
:10112300F80612092FC2DA0612092FD2DA061209BB
:101133002FD7DB0612092F09DC0612092F39DC062B
:1011430012092F5CDC0612092F73DC0612092FAD7E
:10115300DC0612092F12DD0612092F54DD061209CF
:101163002F9BDD0612092FC8DD0612092FF3DD06BA
:1011730012092FF3FF0412092FF6FF0412092FF9A6
:10118300FF0412092F71F60612092FE6F60612095B
:101193002F03E70612092F23E70612092F37E80664
:1011A30012092F7EE90612092FA6C60612092FAFD0
:1011B300C60612092FB8C60612092FC1C6061209A0
:1011C3002FD9C60612092F00C70612092F56C706C4
:1011D30012092F69C70612092F7CC70612092F9F10
:1011E300C70612092FD0C70612092FFBC70612091B
:1011F3002FB0C80612092F65C90612092FC6C906E2
:1012030012092FA1EF0612092FD7EF0612092FF3A8
:10121300EF0612092F35F00612092F45F0061209C1
:101223002FDFF00612092FE9F00612092F01F1064C
:1012330012092F00800612092F0A800612092F3E79
:10124300800612092F87800612092F0881061209CA
:101253002F27810612092F40810612092FE08106EC
:1012630012092F95840612092F9E840612092FEF67
:10127300840612092F18850612092F2585061209DF
:101283002F90850612092F18860612092F608606ED
:1012930012092F9A860612092F0E870612092F3775
:1012A300870612092FB0870612092F08880612092C
:1012B3002F45880612092F7A880612092F8C880673
:1012C30012092F9E880612092FBD880612092FC600
:1012D300880612092F7A890612092FC28906120974
:1012E3002FFC890612092F3AEE0612092FFCEB0692
:1012F30012092F32EC0612092F7AEC0612092FD3AA
:10130300ED0612092FCDB00512092FFEB105120902
:101313002F35B20512092FE1B30512092F12B405B7
:1013230012092FA6B60512092FE6B60512092F7961
:10133300B80512092F18B90512092F70B90512093A
:101343002FF6B90512092F30BA0512092F72BA0503
:1013530012092FFCBB0512092F9BBD0512092FF69D
:10136300BF0512092F24C00512092F4DC00512090C
:101373002F56C00512092FACC00512092F47C1050E
:1013830012092F19C50512092FA7C50512092FDE4A
:10139300FF0312092FF4FF0312092FF1F6061209B6
:1013A3002F21CF0612092F37CF0612092FDBCF06C5
:1013B30012092F1AD00612092F37D00612092F68E7
:1013C300D00612092FB5D00612092FE9D00612094B
:1013D3002F24D10612092F2BD30612092F6BF306E4
:1013E30012092FCAF30612092F08F40612092F490E
:1013F300F40612092F00800412092F0C800412092D
:101403002FAD810412092FE9810412092FAF820441
:1014130012092F14830412092F7A830412092FF15E
:10142300830412092F32840412092FB2840412098F
:101433002FA0860412092FB1880412092FC889042A
:1014430012092F4E8A0412092FC98B0412092F1077
:101453008D0412092F698E0412092FF392041209C5
:101463002FDD930412092F5E940412092F83940431
:1014730012092FA8940412092F33950412092F512E
:10148300950412092F6F950412092FD5950412099B
:101493002FF9950412092F26960412092F42970457
:1014A30012092F27980412092FAD990412092F53FB
:1014B3009A0412092F9A9A0412092F149B041209F1
:1014C3002F979B0412092FFA9B0412092F579C0490
:1014D30012092F0B9D0412092F769D0412092FB2B6
:1014E3009D0412092F1B9E0412092F859F041209C4
:1014F3002F92A10412092F63A20412092F78A204C8
:1015030012092FB5A20412092F1EA30412092F4694
:10151300A30412092FB3A30412092F58A404120918
:101523002F7AA60412092F35A90412092F5EAA04E3
:1015330012092F89AE0412092F50AF0412092FE1AB
:10154300B00412092F8AB20412092FBFFE01120937
:101553002F35F00412092FC7F00412092F3EF104AE
:1015630012092FFCF40412092FB2F60412092F18E2
:10157300F90412092FB7FA0412092F76FD04120990
:101583002FA0FD0412092FD0FD0412092F3AFE04E7
:1015930012092FC6FE0412092FD7FE0412092FDEEB
:1015A300FE0412092F7BFF0412092FB8FF0412094E
:1015B3002F969D0612092F4F9E0612092F79A0061A
:1015C30012092FAAA00612092F23A20612092F9788
:1015D300A20612092FD0A20612092FF5A20612099C
:1015E3002F5BA30612092FF0A30612092F67A50686
:1015F30012092F00800512092F2F800512092FA928
:10160300800512092F0C820512092FFF820512098A
:101613002F79840512092F9E840512092FF0840562
:1016230012092F82850512092FCE850512092FE194
:10163300850512092F43860512092F808605120995
:101643002F6A870512092FC5870512092F258905DA
:1016530012092F0B8A0512092F508B0512092F35FA
:101663008C0512092FBC8C0512092FFE8C0512095B
:101673002F1D8D0512092F688D0512092F888D05E1
:1016830012092F458E0512092F638F0512092FD8D2
:101693008F0512092F20900512092F229105120997
:1016A3002FD2930512092FF8930512092F5F940582
:1016B30012092F84940512092FFB940512092FD3C5
:1016C300950512092F11960512092F9296051209F5
:1016D3002F80970512092F83970512092F8D9705E0
:1016E30012092F97970512092FB3970512092F1C7B
:1016F300980512092F55980512092F71980512099B
:101703002F98980512092FBC980512092FF79805F1
:1017130012092F6A990512092F9E990512092FA8FC
:10172300990512092FE3990512092F189A05120931
:101733002F379A0512092FABF70612092FC3F706A5
:1017430012092FFD7F0012092FC9A60612092F18AF
:10175300A70612092FD6A80612092F90AA06120966
:101763002FCEAA0612092FFAAB0612092F36AD06A1
:1017730012092F58AD0612092FA2AD0612092F2305
:10178300AE0612092F16D60312092F35D6031209F6
:101793002FD4D60312092F1DD70312092F79D7038C
:1017A30012092F00D80312092F5CD80312092F5FE7
:1017B300D80312092FA6D80312092F22D90312091D
:1017C3002FACD90312092FAFD90312092F2DDA0336
:1017D30012092F74DA0312092F85DF0312092F056B
:1017E300E10312092F42E10312092FEDE403120969
:1017F3002F26E60312092FF8E60312092FA6E703A3
:1018030012092FF7E70312092F70EA0312092F2B8E
:10181300ED0312092F2CEE0312092FEFF003120927
:101823002F5BF10312092F5EF20312092F93F503C5
:1018330012092FA3F50312092F06F70312092F57D5
:10184300F70312092F75F80312092F9DF9031209E3
:101853002F13FB0312092F49FB0312092F63FC0308
:1018630012092F04C60512092FA9C60512092F1D37
:10187300C70512092FB2C70512092F00C80512099F
:101883002F42C80512092FB5C80512092FCAC90569
:1018930012092F08CD0512092F26CE0512092FA7ED
:1018A300CE0512092FB6D00512092F62D1051209F0
:1018B3002FE5D10512092FCED20512092F9CD3058E
:1018C30012092FC6D50512092F1BD70512092F425E
:1018D300D80512092FCFD80512092FDCD905120913
:1018E3002F86B40412092FEEB40412092F36B5045F
:1018F30012092F72B50412092FEAB50412092F43F6
:10190300B60412092F7EB60412092FD4B6041209A5
:101913002F3CB80412092F63B80412092F76B904B7
:1019230012092F7CBA0412092FD7BA0412092FDE29
:10193300BB0412092F06BC0412092F52BD0412095D
:101943002F63BD0412092F7BBD0412092F8FBE0420
:1019530012092F96BF0412092F9FBF0412092FB635
:10196300BF0412092FF0BF0412092F0FC00412097C
:101973002F26C00412092F15C10412092F16C20401
:1019830012092F3EC20412092F48C20412092FB7AD
:10199300C20412092FA2C30412092F13C40412098B
:1019A3002F92C40412092FC9C40412092F5DC50460
:1019B30012092F36C70412092F36C80412092F92B1
:1019C300C80412092F0ACA0412092F9FCB04120953
:1019D3002F06CE0412092FE0CF0412092F8AD00458
:1019E30012092FC9F30212092F1ED10412092F293C
:1019F300D20412092F1CD30412092F8BD30412090A
:101A03002F4BDE0612092FFBDF0612092FC3E00658
:101A130012092F2BE10612092F13D70612092F31B2
:101A2300D70612092F75D70612092F9BD70612095D
:101A33002FC2D70612092FDAD70612092F7CD80630
:101A430012092FBED80612092FE6D90612092FEF65
:101A5300D90612092FF8D90612092F01DA0612093D
:101A63002F83F70212092F1BB40612092F59B80648
:101A730012092F67B80612092F6CB80612092FC670
:101A8300E20612092F47F80612092F7FF9061209F9
:101A93002F54F70612092F64F70612092FE9CA0615
:101AA30012092F48F90612092FD1F80612092FAB94
:101AB300F90612092FD4F90612092F00800312091F
:101AC3002F33800312092F9A800312092F268103D3
:101AD30012092FCD810312092F15820312092F3A00
:101AE300820312092F53820312092F7982031209E9
:101AF3002FB7820312092F06830312092F2F8303A3
:101B030012092F8E830312092F67840312092F1DD5
:101B1300850312092F7B850312092F4186031209BE
:101B23002F8B860312092FE2860312092F4D870399
:101B330012092F8B870312092FE1870312092FFD47
:101B4300870312092F28880312092F378A031209E2
:101B53002F7D8B0312092FA98B0312092FDD8B0312
:101B630012092FFE8B0312092F0D8C0312092F1854
:101B73008C0312092FC88C0312092F378D03120906
:101B83002FE48D0312092F208E0312092FDE8E03FB
:101B930012092FEB8F0312092F38900312092FC755
:101BA300900312092F21910312092F669103120941
:101BB3002FF5930312092F4F950312092F9B9803B7
:101BC30012092F79990312092F509A0312092F79B9
:101BD3009A0312092FEA9A0312092F809B03120911
:101BE3002F6F9C0312092F949C0312092FF79D0357
:101BF30012092F159E0312092F289E0312092FD4B1
:101C03009E0312092FE49E0312092FDA9F03120980
:101C13002F56A00312092F8FA00312092F9DA10392
:101C230012092FD9A10312092FB4A30312092F9567
:101C3300A70312092F9FA70312092FB3A7031209A2
:101C43002FBDA70312092FC7A70312092FD1A7037B
:101C530012092FEAA70312092FF4A70312092F640D
:101C6300A80312092F6FA80312092F97A8031209BB
:101C73002FA2A80312092FF0A80312092FFAA80311
:101C830012092F05A90312092F29A90312092F4DA0
:101C9300A90312092FAAA90312092FF0A9031209F4
:101CA3002F0CAA0312092F93AA0312092FCAAA03FE
:101CB30012092F09AB0312092F56AB0312092FD8B0
:101CC300AB0312092F84AC0312092F60AE03120970
:101CD3002FCEAE0312092FFAAF0312092F20B00340
:101CE30012092F79B10312092FD1B40312092F0A54
:101CF300B70312092FE8B80312092F81B903120998
:101D03002FA6BB0312092F5ABC0312092F93BC033E
:101D130012092FF9BC0312092F03BD0312092F2D3A
:101D2300BF0312092F38C00312092F80C003120901
:101D33002F34C10312092FD7C20312092F5EC40324
:101D430012092F7EC40312092FD1C40312092FD104
:101D5300C50312092FF9C50312092F5CC603120923
:101D63002F3FC70312092FB1C70312092FC3C8039B
:101D730012092F47C90312092F45CA0312092FDB82
:101D8300CC0312092FFACC0312092F45CE031209F3
:101D93002F13D00312092F67D00312092F1FD1036A
:101DA30012092FCCD10312092F25D20312092FEACE
:101DB300D20312092F80D30312092FE7D303120989
:101DC3002F29D40312092F5AD40312092FBAD5038A
:101DD30012092F66920112092F98920112092FD12D
:101DE300920112092FBC940112092FFE94011209CA
:101DF3002FE2950112092F3A960112092F7D9701BF
:101E030012092FC9970112092FF59A0112092F6997
:101E13009E0112092FB19F0112092F47A001120938
:101E23002F53A00112092F93A00112092F28A201F9
:101E330012092F1CA30112092F46A30112092F9D7A
:101E4300A30112092FF6A30112092F67A401120996
:101E53002F9CA60112092F33A80112092F07A901EC
:101E630012092F4EAA0112092FA6AC0112092F77CE
:101E7300AF0112092F86AF0112092F0AB00112090F
:101E83002FBFB00112092F02B10112092F60B10156
:101E930012092F7CB10112092FAEB10112092FEDE6
:101EA300B10112092FD3B20112092F82B301120912
:101EB3002F08B60112092F3EB70112092F25B801C9
:101EC30012092FA5B80112092FB2BC0112092FF074
:101ED300BC0112092F57BD0112092F8ABD01120936
:101EE3002F1DBE0112092F50BE0112092FEBBE0197
:101EF30012092F39BF0112092F0CC00112092FD368
:101F0300C00112092F71C10112092F7BC4011209EB
:101F13002F8FC50112092F35C90112092F37CA01A5
:101F230012092F3ACA0112092F69CA0112092F682F
:101F3300CC0112092F41CD0112092F66CD011209DF
:101F43002FE5CE0112092F64CF0112092F5DD001B5
:101F530012092F13D10112092F24D30112092F8F34
:101F6300D30112092FD7D30112092F32D401120939
:101F73002F0AD80112092FFFD80112092FF9D9010D
:101F830012092FCADA0112092FCEDB0112092FE23F
:101F9300DB0112092FF6DB0112092F2CDC011209D8
:101FA3002F5CDC0112092F1ADE0112092FAADE01B0
:101FB30012092F2EDF0112092F1FE10112092F4FE2
:101FC300E10112092F0EE20112092FABE2011209FE
:101FD3002F56E40112092F41E50112092F80E50173
:101FE30012092FF2E50112092F37E70112092FEA2F
:101FF300E70112092F1EE80112092F36E801120921
:102003002FD9E80112092FC7EB0112092F92ED0115
:1020130012092FB6ED0112092FD4ED0112092FA8D1
:10202300EE0112092FD5F20112092F38D306120936
:102033002F78D30612092F44D50612092F53D5063C
:1020430012092F6A9A0512092F2E9F0512092F8351
:102053009F0512092FC1A10512092F65A3051209B6
:102063002FF5A30512092F51A60512092F58A8050C
:1020730012092FAFA80512092FA3AA0512092FD5FC
:10208300AA0512092F0DAB0512092F33AB0512094F
:102093002F91AB0512092FB3AB0512092FBAAB056C
:1020A30012092FD2AB0512092F96AC0512092F8DF9
:1020B300AD0512092F00800212092F388002120980
:1020C3002F51850212092F97850212092FE98602E3
:1020D30012092F5B870212092FCA880212092FBE29
:1020E3008B0212092FE28C0212092F0097021209A8
:1020F3002F89970212092FE69A0212092FF59B02E4
:1021030012092F509C0212092F9E9D0212092F883B
:102113009E0212092F33A10212092FB9A20212093A
:102123002F46A30212092F49A30212092F74A302F7
:1021330012092F1FA40212092F0FA50212092FC87B
:10214300A50212092FE6A50212092FFBA502120907
:102153002F24A60212092F51A60212092F91A802B9
:1021630012092F5EA90212092FA3A90212092F1A1D
:10217300AA0212092FC8AA0212092FFAAA021209E7
:102183002F40AB0212092F73AB0212092FB8AB0217
:1021930012092F09AC0212092F0EAC0212092F6289
:1021A300AC0212092FCBAC0212092F94AD02120913
:1021B3002FDFAD0212092F44AE0212092FA0AE0287
:1021C30012092F3EAF0212092FAAB20212092FC51C
:1021D300B30212092F51B50212092F72B802120964
:1021E3002F14B90212092F25BC0212092FE0BC02D9
:1021F30012092F28BD0212092FD7BE0212092FEB95
:10220300BE0212092FF5BE0212092FFFBE021209E8
:102213002F0BBF0212092F33BF0212092F17C1025E
:1022230012092F70C10212092F7AC10212092F84D9
:10223300C10212092FF9C10212092F44C202120965
:102243002F45C30212092F9CC30212092FA6C402F1
:1022530012092FEFC40212092F9FC50212092F8200
:10226300C60212092F55C70212092FA7C802120965
:102273002FCAC90212092FC2CA0212092FDACA02CF
:1022830012092F11CB0212092F1BCB0212092F2681
:10229300CB0212092F44CB0212092F8CCB02120955
:1022A3002FEACB0212092F11CC0212092F23CC02E1
:1022B30012092FBECC0212092FF3CC0212092FE50B
:1022C300CD0212092F27CE0212092F0BCF021209BA
:1022D3002F32CF0212092F9FCF0212092F17D002DC
:1022E30012092F9BD10212092FC8D20212092F9D66
:1022F300D30212092F60D40212092F07D502120943
:102303002F4CD60212092F0AD70212092F76D702B1
:1023130012092F32D80212092F83D80212092FDD96
:10232300D80212092FAED90212092FD1D9021209EC
:102333002F92DA0212092FB4DA0212092F15DB02E7
:1023430012092F5DDD0212092F61DE0212092F1817
:10235300DF0212092F39E10212092F83E102120968
:102363002FCEE10212092F29E20212092F96E2026F
:1023730012092FC4E20212092FE8E20212092F1DEB
:10238300E30212092F4AE30212092F90E302120912
:102393002FE4E30212092F38E40212092F5BE5024E
:1023A30012092FFBE60212092F46E70212092F6FCB
:1023B300E70212092F02E80212092F7AE802120932
:1023C3002F88E80212092FACE80212092F03E90251
:1023D30012092F1EE90212092FDBE90212092F0746
:1023E300EA0212092F4AEA0212092FADEA02120980
:1023F3002F9DEC0212092FCAEC0212092FBCED0229
:1024030012092FC9EE0212092F82EF0212092F932C
:10241300ED0512092FCBED0512092FECED0512097D
:102423002F30EE0512092F94EE0512092F9EEE05AB
:1024330012092FAEEE0512092FE5EE0512092FDD65
:10244300F20512092FEBF40512092FD8F60512092C
:102453002F6FF70512092F11F80512092F06300007
:1024630012092FAF300012092F86310012092F8E67
:10247300320012092FAE320012092FC6330012099F
:102483002F80350012092FF3350012092F903600E3
:1024930012092FA7370012092F14380012092F4FE2
:1024A300380012092FA4380012092FDF380012094F
:1024B3002F2C390012092FBC390012092F493A0079
:1024C30012092F1E3B0012092FF73B0012092F851B
:1024D3003C0012092FA53C0012092FD23C0012091F
:1024E3002F033D0012092FD63D0012092FE63D00B0
:1024F30012092F353E0012092F423E0012092F4BBD
:102503003E0012092FBB3E0012092F1B3F00120988
:102513002F663F0012092F813F0012092FA83F00A9
:1025230012092FC53F0012092FD13F0012092F7C3A
:10253300410012092F95410012092F1E4200120972
:102543002F31420012092F50420012092FEB420093
:1025530012092F5B440012092F02460012092F9122
:10256300460012092F94460012092F04470012094E
:102573002F22470012092FC7470012092F034800D3
:1025830012092F06480012092FCC480012092F2FD9
:10259300490012092F68490012092FDD4900120969
:1025A3002FFB490012092F494A0012092F1E4B0025
:1025B30012092F6C4B0012092FBA4B0012092F4737
:1025C3004C0012092F7C4C0012092FB14C00120948
:1025D3002FBF4C0012092F1E4D0012092F964D00DC
:1025E30012092FD74D0012092F274E0012092F521F
:1025F3004E0012092F6C4E0012092F864E0012094D
:102603002F614F0012092F6B4F0012092FAC4F009F
:1026130012092F04500012092F18500012092F4ECF
:10262300510012092F63510012092FF151001209B1
:102633002F59520012092F0C530012092F17530060
:1026430012092F67540012092F83540012092FCF48
:10265300540012092F3E550012092F775500120915
:102663002F91550012092FF1550012092F90560092
:1026730012092FDB560012092F9D590012092F53FF
:102683005A0012092FE35A0012092F2B5D00120979
:102693002F435D0012092F465D0012092F525D0082
:1026A30012092F665D0012092F6E5D0012092FA11A
:1026B3005D0012092F945E0012092F1F5F0012099B
:1026C3002FB25F0012092F2B600012092FEF600059
:1026D30012092F11610012092FAA610012092F0795
:1026E300620012092F0A620012092F846200120984
:1026F3002FD0630012092FDB640012092F666500D7
:1027030012092F6B660012092F2B670012092F5C29
:10271300670012092F82670012092F8B67001209C5
:102723002FB9670012092F51680012092F0669009B
:1027330012092F77690012092F1E6A0012092FA5AB
:102743006A0012092FE46A0012092F276B0012098D
:102753002FADF30212092F3EF10212092F10F102DD
:1027630012092FDDF00212092F61F00212092FD294
:10277300930612092F9E930612092F4B93061209F3
:102783002FE3910612092F27910612092FC39006F2
:1027930012092FAF900612092F0C900612092F135E
:1027A3008F0612092F308E0612092F648B06120929
:1027B3002F7C8A0612092F288A0612092F78ED0525
:1027C30012092F6BED0512092F61ED0512092FE494
:1027D300EC0512092F9EEC0512092F3CEC0512099A
:1027E3002F8AE90512092F71E70512092F3EE70524
:1027F30012092FD0E60512092F90E60512092F784A
:10280300E60512092F10F70212092FBAF602120970
:102813002F59F60212092F8CF50212092FE9F4023F
:1028230012092F6CE60512092F39E60512092FBD8F
:10283300E30512092FBAE30512092F9CE3051209D8
:102843002F69E30512092F93E10512092FE9E0052A
:1028530012092FFADF0512092F38DE0512092F9D01
:10286300F40212092F94DC0512092F0BDA06120960
:102873002FFCDB0512092FB1DB0512092F1ADB052B
:1028830012092F74FE0112092F1FFE0112092FE7EF
:10289300FD0112092FBAFD0112092F92FD01120940
:1028A3002F28FD0112092F08FD0112092FE1FC0158
:1028B30012092F8DF90112092F3CF70112092FBEBE
:1028C300F40112092F0EF40212092F40F401120928
:1028D3002FF3F30112092FA7F30112092FF3F201CA
:1028E30012092F02D10400000080FB8F000100DADF
:1028F3001D87000100A91A350004009F1D25000251
:1029030000A31D26000200A51D27000200A71D2805
:10291300000100B11D29000100B21D8400040082E2
:102923001A860001001B1D2A000100B31D2B0001A4
:1029330000B41D2C000100BA1D2D0008008F1A2EB3
:10294300000100BB1D2F000100BC1D30000100BDB4
:102953001D31000100BE1D32000100971A33000132
:1029630000981A34000100BF1D36000100991A387F
:10297300000100C01D39000100B91D83000200D70A
:102983001D63000100A41A64000100B51D65000168
:1029930000B61D6D000100A51A71000800871A66B4
:1029A300000100D61D43000100C71D44000200C8FA
:1029B3001D45000100CA1D46000200CB1D4700084B
:1029C300009C1A48000100CD1D4B000100CE1D04E0
:1029D300000100D91DA1000100DD1D37000100DC4D
:1029E3001D88000100DB1D3C0001009A1A3D000117
:1029F30000C11D49000200CF1D67000100A61A4D4A
:102A0300000200D11D4E000100D31D4F000200D46F
:102A13001D3E000100C61D51000100C21D520001F0
:102A230000C31D53000100C51D540001009B1A0083
:102A33000000000000000136360101000102010020
:102A4300010301000104010606050200000701005D
:102A5300340801000F090401010D0100FF0E0800F5
:102A63000017020000190100FF1A0100011B0100F9
:102A7300FE1C0100081D0200001F010001200100CF
:102A830001210200002301000F240200002601009F
:102A93000127010008280200FF2A0100072B010279
:102AA300402C0100002D0100012E0100012F010027
:102AB300FF30010B1D310800003A0100083B010003
:102AC3000F3C0100013D0100FF3E040000420400F1
:102AD30000460400004A0400004E040000520400B3
:102AE30000560400005A04000001037103010301AE
:102AF3000301030103010322030203010310030083
:102B03000300030003000300030003000342030068
:102B13000324030603000300030403120325032312
:102B230003250323030403040300030003000344F6
:102B3300030003000323030003650321003503811E
:102B4300030003050300030003000300032503231D
:102B530003030271023001600211027002010202DA
:102B63000202028002100261023A00410063027312
:102B730002720262024302000213023800000200E2
:102B83000204021202000200020002000204020414
:102B930002370037003C0244020002390000020001
:102BA30002650200023502810200020502820283ED
:102BB300020002030471040204600411047004029D
:102BC30004020401040204100461040004140463F5
:102BD300047304720462044304000413040604002F
:102BE300040004040412040004000400040004515B
:102BF300046400000400040004440400040004000E
:102C03000400046504000435048104640005040021
:102C1300048304000403007100300160001100709C
:102C230000310220035004800010006100000014F2
:102C3300006300730072006200430000001300068B
:102C4300000000000004001200000000000000006B
:102C53000004000400370037003C02440000000079
:102C63000000000000650000003500810000000541
:102C73000000008300000001017101010101011145
:102C83000101013101010101018001100161013BD9
:102C93000014006301730172016201430100011317
:102CA3000106013D0135000401120100010001008C
:102CB30001000104010401330133013C01440132E9
:102CC30001360000010001650100013500810100AA
:102CD3000105018201830100012100100020812BE5
:102CE3001D21001100438100002100120020832CCC
:102CF3001D2100130020832D1D2100140020832E8D
:102D03001D2100150043813B03210016001A812F6A
:102D13001D210017001A81321D2100200018833D58
:102D23000321002100F183351D21002200F1834599
:102D33001D2100FDFF2181551D3600010006000005
:102D4300000F00000000000000000000000000036E
:102D5300FFFF00000403FFFF0000FFFF0FF401006B
:102D630005C4040320000100000B00000000000064
:102D7300000003010F00000000000000000000003D
:102D83000000000000000000000000000000000040
:102D930000000000000000DF141B15E5140714EB0E
:102DA300142115EB142D15F1140714EB1421150040
:102DB3000000000000000000000000000000000010
:102DC300000000F7140714FD14331503150714004E
:102DD3000000000000000000000000091545150F69
:102DE300150714091545150F150714FD143315158B
:102DF300150714130003181F0009181F800F18006C
:102E0300008D1801008D180200AF170280A9170367
:102E130000B5170400BB170480C1170500C71706C8
:102E230000D3173100E5173300EB173400F11736E1
:102E330000F717FFFF00000A000000020000000473
:102E43000000000800000010000000200000004007
:102E530000000080000000000100000002000000EC
:102E63000400000008000000100000002000000023
:102E730040000001F120062121081B210B2D211008
:102E8300851D02F720050F2107FD200CD9200DE534
:102E93002064991BFF000007ECFDFDFDECDCDCCC9E
:102EA300BCACAC9C9C8C7C7C6C6C5C5C5C4C4C3C8F
:102EB3003C2C2C1C1C03EAF5E5D5D5C5B5A5959589
:102EC300858575756565555545453535252515152F
:102ED3000500160F00000B150B020002220F330032
:102EE300000E0F5A6967426565416C6C69616E63D8
:102EF300653039C0C1C2C3C4C5C6C7C8C9CACBCCF3
:102F0300CDCECF0000000000000000000000000054
:102F1300000000303016181920231A1C1E303030E0
:102F230017181921301B1D1F30003C40423A3F3F08
:102F3300392F4730000119161816161823030000FD
:102F4300034D4C4651181A2505020C0E020B040BB7
:102F53000A0708000F02040201010101090200BE71
:102F6300040AE80300000E000000E8030C00280038
:102F730000007F0005030004091E100A0C10081E40
:102F8300030C280004040209033C0C05081508FF80
:102F9300E4F0A3F0A3F0A322122F93F022125D21F9
:102FA300240812443E22122FAD22E0F508E4F5096D
:102FB300F50AF50B22E824FBF582E934FFF58322B9
:102FC300F583122FC922E0F508A3E0F509221227A1
:102FD3003F740412097A7F0802065D7401F09004BD
:102FE300C3E0640F22740912097A7F0402065DA309
:102FF300A3E024F5C39413229004E3125F9B7A1495
:103003007B0022C082C083901BEC74BDF0A37424A8
:10301300F0A374CFF0A37424F0901BF074A5F0A375
:103023007424F0A3749FF0A37424F0A374DBF0A3BF
:103033007424F0A374E1F0A37424F0A374D5F0A373
:103043007424F0A3748DF0A37424F0901BFC74B16A
:10305300F0A37424F0A374B7F0A37424F0A374ABA7
:10306300F0A37424F0A374E7F0A37424F0901C0D70
:10307300124FFE600612544D1212FF901C0A1248A2
:10308300C37408F0A3E4F0A3F0901CB6F0901C0FF7
:10309300F07C0BFDF97A107B1C12124B7C0B7D002C
:1030A30079007A1B7B1C12124B02471B74F7120325
:1030B300ED74F7120A12EAFEEBFF12467974051259
:1030C30031747403F01231491231502430FCE43F5F
:1030D300FD8C828D83E08882898312315D600812C2
:1030E30039AA74FFF0A3F0EE242EE43F1C1CFD8CE0
:1030F300828D83A3E0C0E08A828B83124680D0E076
:1031030012315D88828983124F2F2403125ACA1207
:1031130013EF7408120C6E7403F09004D812077442
:1031230074021209F27903EEFAEFFB1226737402AA
:1031330012097AE9F5087007EEFAEFFB122559A98F
:103143000874090239B6EE2402FAE43F22FB8A82AC
:103153008B8312316C124B18EE22124F5B12316CBF
:10316300124B188C828D83E0221249D38A828B837F
:1031730022F0A3E4F012317C22EE240DF582E43F29
:10318300F5832274F01203EDEAFEEBFF8C0C8D0D38
:10319300890B1231491249CA7410120C6EE0F508FA
:1031A300A3E088828983F0E824FFF582E91235746D
:1031B300E508F0E824FEF582E9123574E50BF0909A
:1031C30004DDE0C0E0E824FDF582E9123574D0E0C7
:1031D300F09004DCE0C0E0E824FCF582E9123574E9
:1031E300D0E0F07412120C6E122FC5122FB8E5093D
:1031F300F0E824FAF8E934FFF988828983E508F0D6
:10320300EE2404FCE43FFD88088A828B83E0F50EFC
:103213008C828D83E0250EC39508124F5B124B14ED
:10322300850C82850D83A3A3A3A3A3A3A3A3E06417
:103233000370081249C4F0A3E480031235791231F4
:10324300777409F075081075091C750A007808125F
:103253000948123562121239740312097A7508FF8C
:103263007509FF780812094CAC0CAD0D7903EEFA21
:10327300EFFB122673740212097AE9F5087007EE60
:10328300FAEFFB122559A908022FD9C082C08390F7
:103293001C2CE0C39408400474078001E08A828BED
:1032A30083F033333354F8F902471B74F01203ED00
:1032B3008A088B09890A8C0E8D0F750C00A2AFE466
:1032C30033F50BC2AF901C2680451233AA503D1232
:1032D30033B964037036E50824F9F508E50934FFCA
:1032E300F5098E828F83A3A3E02405FCA3E03400B9
:1032F300FDAA08AB091213EFE50824FFF508E50959
:1033030034FFF5097410250CF50C150A12378712D2
:103313006A18E50A6004EE4F70B0E50BA2E092AFC5
:10332300A2AFE433F50BC2AF901C268038124F26B0
:10333300124120850882850983124F5B1233B0A3A3
:10334300A3E0C0E0E50824FFF582E509123574D057
:10335300E0F0E50824FEF508E50934FFF509050C5E
:10336300150A1237871235E160211233B9640270EE
:10337300F11233AAEE40B61247ADA2E550E4850E32
:1033830082850F837401F0E50A70D7E50BA2E09202
:10339300AF850882850983E50CF0E50824FFFAE58B
:1033A3000934FFFB022FD9123796A2E6221233B457
:1033B30022124F50A3228E828F83A3A3124684121C
:1033C30056872274F01203ED74F3120A1274031277
:1033D3000C6EE9F07402120C6EEAF08B0B8510820E
:1033E300851183E4F0041209EA12246FE9F89004CA
:1033F300C2E0292437F508FA7B001212698A0C8B84
:103403000DAE0CAF0DEE4F7003023559EE2402F5ED
:103413000EE43FF50FA808EE28F8E43FF9850E8285
:10342300850F831252FE9004C2E0F9FAC3E49AFABC
:1034330095E0FB850E82850F83E02AF50CA3E03B24
:10344300F50D9004C0122FC5750A007808120948BB
:10345300E9FC7D00AA0CAB0D121239740312097A30
:10346300AC10AD117401120C6EE0F9E50C24FFFAF7
:10347300E50D34FFFB1224758A828B83E4F0E50BA0
:10348300C454F0F9901CB7E0C4333354C0F890042B
:10349300BCE0A2E0E43313134849440FC0E0EA243C
:1034A300FFF582EB123574D0E0F0EA24FEF50CEB65
:1034B30034FFF50D7403120C6EE0F87402120C6EF7
:1034C300E0C454F048850C82850D83F0A80C850E6A
:1034D30082850F83125CEA2AC3988E828F83A3A30B
:1034E300A3A3F0850E82850F83E8F0A3E50DF01208
:1034F3003579123177E4F0740C120C6EE4F0750830
:103503001B75091C780812094812356212123974A6
:103513000312097A851082851183E06009EE240E77
:103523001247AF4408F012265BE9F9E4F508F50900
:10353300780812094C74061209F2EEFAEFFB122610
:1035430073740212097AE97006EEFAEFFB800BEE50
:10355300FAEFFB12126F7A007B00740D022FD67CF8
:103563000B7D00EE241BFAE43FFB22EE24FFF582E1
:10357300EF34FFF58322125A43E4F0A32274F212CC
:1035830003ED8A0C8B0DA2AFE433F50AC2AF7508C5
:1035930000750900901C26802C1237A15024850C3D
:1035A30082850D83A3A3125A4D8E828F83A3A31208
:1035B3005450122661E9600A123792C2E6F08E086F
:1035C3008F091237871235E170CFE5084509600688
:1035D30012367AD2E6F0E50AA2E092AF800DE0FE61
:1035E300A3E0FFEE4F22740212097A7F0602065D02
:1035F30074F01203ED8A0E8B0F8C0C8D0D750A007F
:10360300A2AFE433F50BC2AF7E007F00901C26808F
:1036130010AE08AF091236721247ADD2E7F0124569
:103623009A1245B0603412367AA2E750F1850882C7
:10363300850983A3A3120774AC0CAD0DAA0EAB0FBF
:10364300122667740212097AE960D3EE4F60C21240
:103653003A427006123685D2E4F0E50BA2E092AF4F
:10366300EE4F6006122553750A01A90A022FD912DB
:103673003796D2E4F0EE22E50812596D3509F58349
:10368300E0228E828F83A3A3124684E02274F21277
:1036930003ED74FE120A12750C00750D008510827D
:1036A300851183E4F0A3F0A2AF33F50AC2AF901CF7
:1036B30026126A188035EE24FBF582EF34FF122FB1
:1036C300C3780C12094CEEFCEFFD7A267B1C121218
:1036D3009F740212097AEEFCEFFDAA10AB111212CD
:1036E3008DAE08AF09901C2CE014F0EE4F602B1246
:1036F30037A1501DEE240BF8E43FF988828983E05B
:1037030024FFF0A3E034FFF088828983124FFE6028
:10371300A58E0C8F0D1237878097E50AA2E092AF32
:10372300901C2CE060319004C3E0640F6006901C91
:10373300B6E070237A047B1C12274B90924B12073E
:103743006C7A047B1C12273F740412097A80087474
:10375300F0124BB4122547AA10AB111212938A0828
:103763008B09AE08AF09EE4F601312248112379212
:10377300A2E28E828F83A350D674E980D40235E906
:103783008E0A8F0BEE24FBF582EF34FFF5832212B2
:10379300379622EE2411F582E43FF583E0221237B7
:1037A30096A2E72274F71203EDEAFEEBFF122481DF
:1037B30012467D1205BEE964019004DF700AE0241D
:1037C30001F8A3E0340080031245FDF9124D88127D
:1037D3004B14901C2CE070219004C3E0640F70190B
:1037E3007A047B1C12274B90924B12076C7A047B52
:1037F3001C12273F740412097AA8A8C2AF901C2C8C
:10380300E004F0E8A2E78004E508A2E092AF024CEE
:103813007774F71203EDEAFEEBFF123849F0122436
:1038230081EEFCEFFD7A267B1C121299A8A8C2AF89
:10383300901C2C1241739004C3E0640F7005790847
:10384300122613024C77123796C2E42274F712033E
:10385300ED74EA120A12EAFEEBFF9004BCE0603C4E
:103863008510828511837401F0120C6EE4123921E4
:10387300120C6EAA82AB831213EF123685C0E0746A
:103883000A120C6ED0E0125D06740B120C6EAA8243
:10389300AB8312268BAA10AB11121A677416023966
:1038A300B674F71203EDEAFEEBFF122463E9F97431
:1038B300DC69601E74DD69601974E469601474F373
:1038C30069600F74DE69600A74DF69600574DB691F
:1038D3007007EEFAEFFB122619024C7774F7120306
:1038E300ED74EB120A12EAFEEBFF85108285118359
:1038F3007406123921120C6EAA82AB831213EFEEF7
:103903002408FCE43FFD740A120C6EAA82AB8312F6
:10391300268BAA10AB11121A6774150239B6F0EE92
:103923002413FCE43FFD74022274F71203ED74F7D1
:10393300120A12EAFEEBFFEE24301247AF60651263
:103943004216AA10AB111213EF7408120C6E740313
:10395300F09004D81207741239AA1207749004EB7A
:10396300E0F974041209F2EEFAEFFB12246974040D
:1039730012097AE9F974DC69602374DD69601E74E5
:10398300E469601974F369601474DE69600F74DFAD
:1039930069600A74E869600574DB697007EEFAEF21
:1039A300FB122619023144EE242EF582E43FF583FF
:1039B30022740312097A024C7774F21203ED8A0C13
:1039C3008B0D750A00750B007508E7A2AFE433F59C
:1039D30009C2AF901C2680031237831235E160368B
:1039E3001237A150F3123A4270EEEE24321247AF6F
:1039F300F88A828B83A3A3E06870DD780A12094CEE
:103A0300EEFCEFFD7A267B1C12129F740212097AD8
:103A1300901C2CE014F0E509A2E092AFEE4F601386
:103A2300EEFAEFFB12248179F0EEFAEFFB1226197E
:103A3300750800A908AA0CAB0D1226190235EE125F
:103A4300317CE064012274F41203ED74F7120A125C
:103A5300EAFEEBFF8E828F83A3E064F37003023AE6
:103A6300F38E828F83A3E064DF7003023AF38E82C6
:103A73008F83A3E064E860788E828F83A3E064DBA6
:103A8300606E1224C3E9F508705EEE240E1247AF90
:103A93006056123AFD122505EA4B604C7408120C6D
:103AA3006E123B071207747508FF7509FF78081239
:103AB300094C8E828F83A3A3A3A3A3A3A3A3E0F99B
:103AC30074041209F2122469740412097AE9F508DC
:103AD30074F36508601274DF6508600C74E86508A8
:103AE300600674DB6508700F8E828F83A3E508F090
:103AF300EEFAEFFB1224CF022FE8EE240FFAE43F95
:103B0300FB790922740212545F74FFF0A3123B1471
:103B130022123B1822124F38A3A32274F11203ED91
:103B2300EAFEEBFF7508008E828F83A3A3A3A3A3F2
:103B3300A3122FF240037508E88E828F83A3A3A3F9
:103B4300A3A3A3A3A3A3A3E0C3941040057508E80C
:103B530080138E828F83A3A3A3A3A3A3A3A3A3A34F
:103B6300E0640F600B901C93E0540870037508E841
:103B7300EE240B1247AFF88E828F83A3A3A3A3A3D4
:103B8300A3A3A3A3A3E0C398500DEE240B1247AF46
:103B9300640F60037508E89004DCE0F47003A3E0AD
:103BA300F470037508EC7A237B001212F98A0A8BEE
:103BB3000BA80AA90B901C0D123BF160298E828F72
:103BC30083A3A3A982AA83890C8A0D750E00780C9E
:103BD3001209487C237D00901C0DE0FA12123974FF
:103BE3000312097A800375081AA908025A36124B80
:103BF30018E8492274F51203EDEAFEEBFF8E828F7B
:103C030083A3A3A3A3A3A3A3A3E09004C31263BEAC
:103C13009004DE1263A49004BE1263C3901CB7F039
:103C2300F9121023901CB7E06018EE2404FAE43F65
:103C3300FB795012100BEE2406FAE43FFB79E112F4
:103C4300100B901CB6122FDE600474018002740006
:103C5300901C0F1263AA1209487C0B7D007A107B1B
:103C63001C121239740312097AEE2418F508E43F82
:103C7300F50978081209487C0B7D007A1B7B1C022E
:103C8300492274F71203EDEAFEEBFF8E828F83A3C2
:103C9300E0700612544D1224C9124BAE12262502AF
:103CA3004C7774F71203EDEAFEEBFF901C0D124FF5
:103CB300FE600D12544D901C0DE4F0A3F01212FFA0
:103CC3008E828F837408124BB4121A67024C777476
:103CD300F61203ED901CB6E06013901C0FE0700D1C
:103CE300123CF312247BEA4B60031225590260262F
:103CF3009004BEE0FB9004DEE0FA9004C3E0F922F6
:103D030074F41203ED74E7120A12EAFEEBFF750B6B
:103D1300018E828F83A3A3A3A3A3A3A3E0A2E25054
:103D230068EE242BF582E43F125A4B124C3F1224C7
:103D330087E97055909140E064017005750B008030
:103D430048123DCF1209487C0B7D0074111209EA19
:103D5300121239740312097A12265BE9FA740E12ED
:103D630009E288088909780812094C750830750931
:103D730000780812094C123DC1120774125CD47901
:103D830001122679740612097A85108285118374CB
:103D930010123921120C6EAA82AB831213E3123D67
:103DA300C1125F97740B120C6E124B14740D120C2C
:103DB3006EE50B124962121A677419022FEA123D5B
:103DC300C522EE242BF582E43FF58322EE2408126C
:103DD30063B222C082C083901CB7E060031226CD79
:103DE30002471BC082C083901CAE74ECF0A3741B0B
:103DF300F0A374F0F0A3741BF0A374FCF0A3741B82
:103E0300F0901DF474B6F0A3742BF0901C98745DBD
:103E1300F0A37424F0901C317493F0A37424F090F5
:103E23001C337499F0A37424F0901C93E0440202B1
:103E3300424CC082C083EAFCEBFD7903024FA6C06B
:103E430082C08379080261A4C082C08374FE120A0F
:103E530012901C397441F0A37425F0901C3B743B01
:103E6300F0A37425F0800D7A267B1C12129312495D
:103E730058122649901C26124FFE70EB901C2812F4
:103E83004FFE600F7A287B1C121293124958122698
:103E93004980E9901C26E4F0A3F0901C2CF0A3F0D9
:103EA300A3F0901C47747DF0A37425F07402800284
:103EB300741112097A02471B74F61203EDE9FF74B9
:103EC3002C29F582E4342FF583E493FEFA7B001268
:103ED3001269EA4B6013EA2E1247F8E8F0A3E912DD
:103EE3005D26A3A3A3E4F0802C7A027B001212695F
:103EF300EA4B601D74212FF582E4342FF583E4939C
:103F03008A828B83F0A3741AF0901C8EE0F912124C
:103F1300757A007B00026026E9FC740629F8EAA2A0
:103F2300E0501EE875F00A84E5F0F96014740A287D
:103F3300C399F8E9C394054004740A28F8740B285C
:103F4300F8ECC394134004791480027906E82979C4
:103F5300002409F85001097A0A7B0012029DE8F94E
:103F630002092CC082C083901C93E05402600A12A1
:103F73001A6DE9600479018002790002471BC0824F
:103F8300C083901C93E054026016901C2CE0700CCC
:103F9300124FFB600BE0C81245A750047901800261
:103FA300790002471BC082C08390913DE0F8901CCA
:103FB3002EE0C398500512126980047A007B000238
:103FC300471BC082C083122649790002471BC08267
:103FD300C08374FE120A12851082851183EAF0A34E
:103FE300EB12414FA3A3A3A3A3E0600A14605D24D3
:103FF300FE60600240AE9004C3E0640F60181226B6
:104003001FE97012851082851183125450901C355C
:104013001246801205BE9004EBE0C0E08510828555
:104023001183124F08D0E012414F7414125987FCC8
:10403300A3E0FD7A287B1C12128DA8A8C2AF901CA6
:104043002E1241737920122613023EAF12411374CC
:104053001580D9124113A3A3A3A3E0604E12411309
:10406300123689C0E0851082851183125CF91241F2
:104073002DD0E01259872402F8A3E03400F9888296
:104083008983E02401FAA3E03400FB88828983EA70
:10409300F0A3EB1259871244478510828511836080
:1040A3001312412060051241364048AA10AB111289
:1040B3002649809512412060F21241365021124167
:1040C30043FA851082851183A3E0C82406124412A3
:1040D300F87457125140342FF583E4936A601485C2
:1040E3001082851183124120640870BF124143641A
:1040F3000870B812414314124157240AC0E08510D6
:1041030082851183124680D0E01241570402402F6A
:10411300851082851183A3E0F583888222124124CE
:10412300221245FDC812412DE0222406F582E4380F
:10413300F58322851082851183124124C3940A22B8
:104143008510828511831233B4A3E022124161F5F5
:1041530083888222124161C8240612443E22F085DC
:1041630010828511831245FD22A8A8C2AF901C2D91
:10417300E004F0E8A2E792AF22C082C083901C3D26
:10418300124FFE600812411A1205BE800279000226
:10419300471B74F71203EDEAFEEBFF12317C740147
:1041A3001247B7125A3B12315824351247AFC0E0B9
:1041B300EE2413F582E43FF583D0E0F0EE243612CB
:1041C30047AFC0E0EE2414F582E43FF583D0E0F07E
:1041D300EE24381247AFC0E0EE2418F582E43FF531
:1041E30083D0E0F0EE242FF582E43FF583120774C9
:1041F300124216EE24311247AFF9122673740212DB
:10420300097AE9F5087007EEFAEFFB122559A908B8
:10421300024C77EE2426FCE43FFD22C082C08312C9
:10422300261FE9600479208002790102471BC082BE
:10423300C083EA2411124242D2E0800DEA240DF534
:1042430082E43BF583E022F0A3F002471BC082C067
:104253008312423F640170111242DE400C8A828B4A
:1042630083A3E0F9122619806FEA2410124242A2B6
:10427300E650128A828B83A3E0F9901C37124680A2
:104283001205BE805312423F6401700D1242DE508C
:10429300088A828B83743080368A828B83A3E0649E
:1042A3001B8A828B83700474228024A3E0700D1216
:1042B300423FF87416125140342F800B12423FF8DC
:1042C3007421125140342FF583E4938A828B83F057
:1042D300901C8EE0F912127502471BEA2410F58236
:1042E300E43BF583E0A2E32274F71203EDE9FE1247
:1042F3004FFB700302440DEE6011741B6E7013E0EC
:10430300C8124410640570030243DB124416E4022E
:1043130043DF74E96E7061124436700B121A73E94D
:104323006005124451606179EE120F8D901C2F12BB
:104333004433901C2F603A124454901C2F700B127C
:10434300443314F012114302440D124446C2E712DF
:1043530045E31244106403700B125CF624111244FB
:1043630012D2E2F079ED120F8D1244261205BE80AF
:104373007512441974E9806474E16E703E121A7305
:10438300E9605512445170509004E5E0C0E0125CBE
:10439300F62412F582E438F583D0E0F09004D4E0FB
:1043A300C0E0901C2F124422124422D0E0F090046B
:1043B300D4E004F0790112112B804F741C6E701835
:1043C300901C2F125450901C3F1246801205BE9031
:1043D3001C2FE4F0A3F08032124416EEF0901C2F51
:1043E3001254501225471245C4E0548060109004C3
:1043F300EBE0F91210479004EAE0F912103B901C2D
:104403002FE4F0A3F07910122613024C77240D1237
:10441300443E22901C2F12441D22124688A32212CE
:104423004F4C22901C2F125454901C33124684225A
:10443300E0F8A3E0C8241212443E22F582E438F5E2
:1044430083E022E0F8A3E0C8241012443E22901C2B
:104453002F1245CBE054042274F41203ED750A00C5
:10446300750B00A2AFE433FEC2AF124FFB60030231
:10447300455012467D1205BEE94410F8901C268073
:104483000985080A85090B12459A1245B070030283
:10449300455012367A586870E8780A12094CAC080D
:1044A300AD097A267B1C12129F740212097A901CA2
:1044B3002FE508F0A3E5091245E31245A7500302CF
:1044C3004557901C2DE014F0EEA2E092AF901C2F04
:1044D300E0240EF8A3E03400F9E8FEE9FF8E828FB2
:1044E30083125450901C2F124149F912250BE99065
:1044F3001C2AF0A3125F18E054806018125CF624A3
:1045030013124412F9121047125CF62414124412C7
:10451300F912103B1245C4A3E05401605F901C2ABA
:10452300124FFE60451245DA60401245DAF8790011
:10453300901C2A1254501202A5E8C0E01245B8D0CC
:10454300E01245E8C3941340117402800FEEA2E019
:1045530092AF8037901C2C0244C87400C0E0901CBA
:1045630030E0C8124591D0E0800D1245B8740112B5
:1045730045E31245917401F07903800C901C2F12CE
:104583004446A2E1B3E433F912112B022FED241AAE
:10459300F582E438F58322E50824FBF582E5093446
:1045A300FFF5832212596D124441A2E722122FC94B
:1045B300E508450922125D1E2419F582E438F583C6
:1045C30022901C2F1245CB221245FDC81245D3223F
:1045D30012599738F58322125D1E241812443E2285
:1045E3001245F5C8221245F5F5838882A3A3A3A338
:1045F300E022F0901C2F1245FD22E0F8A3E0227484
:10460300F71203EDEAFEEBFF1226431247ACA2E3D7
:10461300400A123A42700590913B800390913CE02E
:10462300F9EEFCEFFD7A267B1C1212A5E96037EE4A
:10463300FAEFFB901C391246801205BEEE240E12CF
:1046430047AF5404701112416C124679A3E0540130
:104653007021122553801CEEFAEFFB901C31124699
:10466300801205BE800D8E828F83A374F1124BB42A
:10467300122547024C77125A4322901C3B12468460
:104683002212468822E0F8A3E0F5838882220247BB
:104693001474F71203EDEAFEEBFF7900901C93E02C
:1046A3005402700CEE24331247AF5404600279E8CD
:1046B300901C93E05460700CEE24331247AF540205
:1046C300600279E88E828F83A3A3A3A3E0F890917D
:1046D30041E0C398500279E8EE24311247AF700CE1
:1046E300EE242E1247AF700479F5800BE9700512A2
:1046F3002535E9F9E96007EEFAEFFB122619024CBA
:1047030077C082C0838A828B83740DF0121A67800C
:1047130007C082C083122553D083D08202092C7430
:10472300F41203EDEAFEEBFF8E828F83E4F0A31213
:1047330047B7540490913B7012E0F8901C2DE0C3EE
:1047430098401279F1122619022FEDE0F8901C2CF3
:10475300E0C39850EE1247BDA3E054016039EE2444
:10476300371247AFC39405403CEE24331247AF548E
:104773000570327A417B1C12274BEE2437F582E415
:104783003FF583122FA978081209447A417B1C1242
:10479300273F740412097AEEFAEFFB901C8EE0F9BE
:1047A30012127580A379E8809CEE2410F582E43F11
:1047B300F583E022F01247BDE022EE2433F582E4D4
:1047C3003FF5832274F61203EDE9FE2451FAE43433
:1047D30000FB121269EA4B6015EE8A828B83A3A356
:1047E300A3A3F0EA24511247F8124B1480047A0071
:1047F3007B00026026F8E43BF98A828B83A3A32221
:10480300024714C082C083901C4A74A7F0A3742586
:10481300F0A374D7F0A37425F0A374ADF0A37425AB
:10482300F0A374B3F0A37425F0A374D1F0A374259B
:10483300F0A374C5F0A37425F0A374BFF0A374258B
:10484300F0A374DDF0A37425F0A374E3F0A374253F
:10485300F0A374E9F0A37425F0A374F5F0A3742511
:10486300F0A374B9F0A37425F0A374A1F0A3742585
:10487300F0A3749BF0A37425F0901C6674CBF0A393
:104883007425F0A374EFF0A37425F0A37403F0A3CD
:104893007427F0A374FBF0A37425F0A37401F0A3B1
:1048A3007426F0901C8AE4F0901C8DF0901C761214
:1048B30048C37402F0901C7F1248C3740102424C37
:1048C3007413F0A37426F0A32274F51203ED74F1AC
:1048D300120A128510828511837402F07401120C7E
:1048E3006EE9F060047AFF7BFF7402120C6E126AA9
:1048F3009F75088275091C750A0078081209487C9F
:104903000B7D007407120C6EAA82AB8312123974EA
:104913000312097AAA10AB11121A67740F800512D9
:104923001239740312097A7F0302065D74F71203C6
:10493300ED74FD120A12851082851183740AF074D6
:1049430001120C6EE9F07402120C6EEA1249621243
:104953001A670239B4851082851183EAF0A3EBF05C
:10496300AA10AB112274F61203ED74F7120A12EABD
:10497300FEEBFF1249C41231747402124B05AA10E4
:10498300AB111213E3EE2431125AB21249CA8A82CE
:104993008B83E8F0A3E91247B7125AD712094C7474
:1049A300021209F279831A1AEFFB122673740212A8
:1049B300097AE9F5087007EEFAEFFB122559026050
:1049C3001F125A43740122FB8A828B831249D3221A
:1049D300E024FFF8A3E034FFF92274F01203ED1290
:1049E300655A120BFA7808790C1202FE780812093C
:1049F300447A797B1C022FD174F41203ED74C6122E
:104A03000A129004C3E0640F60108510828511833D
:104A1300742E12496212262580277A707B1C122776
:104A23004B122FFB1202A588088909E4F50AF50B3E
:104A330078081209447A707B1C12273F7404120908
:104A43007A743A022FEA74F51203EDEAFEEBFF8E55
:104A5300828F83A3E0F86003024AEEEE243012470C
:104A6300AF64026007E06403600278E8EE2426F591
:104A730082E43FF583122FF4400478E88070E870F5
:104A83006AEE2426FAE43FFB79E112100BEE24319F
:104A9300FAE43FFB795012100BEE24301247AF6457
:104AA300027014EE2428F582E43FF583125F979099
:104AB30004D2124B1480129004D274FEF0A3041299
:104AC3004B057AC97B041213EFEE241B123DD2125D
:104AD30009487C0B7D007A827B1C12123974031205
:104AE300097AEEFAEFFB122595E9F8E86011E88EF2
:104AF300828F83A3125F197417124BB412262502F7
:104B0300492AF0EE2428FCE43FFD22125F9B901D0E
:104B13000B124B1822E8F0A3E9F02274F61203ED0E
:104B230074F7120A12901C8DE0703B7401F0F912B5
:104B330010F5AA10AB1112265575088275091C7859
:104B43000812094C750801750900780812094C9080
:104B530004D812077474061209F27A03790512262F
:104B630079740612097A02602174F71203EDEAFEE2
:104B7300EBFF79011210FB8E828F83E064207004B7
:104B8300A374EBF0901C8DE0A2E25003C2E2F0E0CC
:104B9300A2E15008124DCA12258F800C8E828F839A
:104BA300742A124BB4122625024C778E828F83749B
:104BB3002CF0EEFAEFFB2274F41203ED74FE120AEA
:104BC30012EAFEEBFF79011210FB7A707B1C1227AD
:104BD3004B7A797B1C12274B124F14851082851157
:104BE30083124F42E0F50B7011AA10AB11795312E7
:104BF300100B124C3F794A12100B123DCF12094889
:104C03007C0B7D007A827B1C121239740312097AA1
:104C1300851082851183125450A90B122589901C8B
:104C23008DE0A2E1500C7A008E828F83A3E0F9120B
:104C3300258F901C8DE4F07402022FEAEE2413FA00
:104C4300E43FFB2274F71203EDEAFEEBFF8E828F43
:104C530083A374EBF0901C8DE0A2E150077A0079F6
:104C6300EB12258FEEFAEFFB1225C58007EEFAEF64
:104C7300FB1226C17F0102065D74F71203EDEAFE03
:104C8300EBFF79011210FB7A707B1C12274B7A79A8
:104C93007B1C12274B901C8AE4F0901C8DF07AFF4A
:104CA3007BFF8E828F83A3E0F912258980C674F778
:104CB3001203EDEAFEEBFF1225BF80B174F7120376
:104CC300EDEAFEEBFF79011210FB8E828F83A3A323
:104CD300A3A3E060047400800274EB124D1150032F
:104CE300C2E2F0E0A2E15008124E1312258F8014A5
:104CF300A2E050108E828F83742AF0A374EB124BC0
:104D0300B4122625EEFAEFFB12256B024C778E8246
:104D13008F83A3F0901C8DE0A2E22274F61203EDC0
:104D2300EAFEEBFF901C8DE0D2E1F079011210F561
:104D33008E828F83A3E0703C12265BE9FAEE240D8A
:104D4300F508E43FF509780812094C75080175095F
:104D530000780812094C124D88120774EE2402FCE5
:104D6300E43FFD7905122679740612097AE98E82E9
:104D73008F83A3F08E828F83A3E060067A00F912FB
:104D8300258F026026124D8C22EE240BF582E43F20
:104D9300F5832274F71203EDEAFEEBFF790112109B
:104DA300FB8E828F83E064207004A374EBF0901C6D
:104DB3008DE0A2E25003C2E2F0E0A2E15006124D00
:104DC300CA12258F024C77C2E1F07A008E828F835C
:104DD300A3E0F92274F71203EDEAFEEBFF79011267
:104DE30010FB7A707B1C12274B8E828F83A3A3A3A5
:104DF300A3E060047400800274EB124D115003C2EF
:104E0300E2F0E0A2E15006124E1312258F024D0785
:104E1300C2E1123B14A3E0A2E4E433FA8E828F834F
:104E2300A3E0F92274F71203EDEAFEEBFF79011216
:104E330010FB8E828F83A374EB124D165003C2E2D4
:104E4300F0E0A2E15006124DCA12258F024C77748E
:104E5300F71203EDEAFEEBFF7A707B1C12274BEE91
:104E6300FAEFFB1225E9024C7074F71203EDEAFE28
:104E7300EBFF7A707B1C12274BEEFAEFFB1225E94E
:104E8300024C7774F71203ED74EF120A12EAFEEB89
:104E9300FF125CD47AC97B041213DDE960628510CA
:104EA300828511837409F07401120C6E74EFF01291
:104EB3004F14F87402120C6EE8124F42A3A3E0C021
:104EC300E07404120C6ED0E0124F2F640870158E3C
:104ED300828F83A3A3124F08E0C0E07405120C6E07
:104EE300D0E080067405120C6EE4125D067406129F
:104EF3000C6EAA82AB8312268BAA10AB11121A670F
:104F030074110239B6125D212407F582E438F58362
:104F130022EE124F26125F9B88828983E0FCA3E076
:104F2300F9EC22125AC0FB8A828B8322124F33225E
:104F3300124F38E022F08E828F83A3A3A3A322F023
:104F4300A3E9124F5B124F4C22124F5022E0F8A3F9
:104F5300E0F5838882A3A322F08A828B8322C08216
:104F6300C0831226CD02471BC082C083901CAA7443
:104F73004AF0A3741CF0A37466F0A3741CF0901D94
:104F8300EE747AF0A3742CF0A37454F0A3742BF092
:104F9300901C967483F0A37425F0901C93E0440155
:104FA30002424C12263102471B74F61203ED74FEC3
:104FB300120A12901C8F124FFE60077A8F7B1C120D
:104FC3002649901C95E4F09017BA124FFE60248096
:104FD30007AA10AB11122649901C8EE0F912128118
:104FE3008A088B09A808A909851082851183123BB9
:104FF300F170DE7402026023901C2F125F9BE8495C
:105003002274F71203EDE9FA7B00901C8EE0F9128B
:1050130012AB024C7774F71203ED74F0120A12EA22
:10502300FCEBFDE9FE8C828D83E0F8744D12514058
:10503300342FF583E493C0E07401120C6ED0E0F0DA
:10504300640B700DEE8C828D83A3F01226AF025198
:105053003BE0700302513B640C600302512C741A51
:105063006E700B7404120C6EE4F0A302512B7404E3
:10507300120C6EECF0A3EDF0EC2432F582E43DF576
:1050830083E0C0E07403120C6ED0E0126279120C5C
:105093004B7406120C6E120C3F8C828D83125F8E42
:1050A300740A120C6EE8F0A3E9125145E054106043
:1050B30009851082851183E48017EC2412F582E4BC
:1050C3003DF583E0F89004E5E0C3988510828511EF
:1050D30083F0E0C0E0740C120C6ED0E0F0EC241509
:1050E300F582E43DF583E0C0E0740D120C6ED0E070
:1050F300F0EC2416F582E43DF583E0C0E0740E1273
:105103000C6ED0E0F0EC2417F582E43DF583E0C0AB
:10511300E0740F120C6ED0E0125145A3E05401600D
:10512300087401120C6E7411F07402120C6EEEF01E
:1051330074011209EA121A6774100239B628F5824B
:10514300E422F0EC1259973DF58322C082C083908C
:105153001C95E06403700479018002790002471B07
:1051630074F71203ED901C95E01251DE74EC28F5F0
:1051730082741D39F5831256C9C2E7F01251E5A3B3
:10518300E493FE25E0FCE433FD74EC2CF582741DFE
:105193003D125A4BEC4D6005EE901C95F08A828BC4
:1051A30083E025E0FCE433FDE82CF582E93DF5835B
:1051B300E493FCC4540F25E0F874A4125140341C4A
:1051C300F583124FFE700512269D800CEC540F12CE
:1051D30051E51246801205BE024C7725E0F8E43310
:1051E300F92225E0FCE82CF582E439F5832274F2F8
:1051F3001203ED74FE120A12890B8A088B091252EC
:10520300DFFA7B001212698A0C8B0DAE0CAF0DEE28
:105213004F602E8E828F83E50BF0A3E4F0F50A78BE
:10522300081209481252EC12314AFB121239740364
:1052330012097AEEFAEFFB901C8EE0F912127580D8
:1052430012851082851183E50BF0791AAA10AB1130
:105253001226190235E974F01203ED74FE120A12D4
:10526300890B8A0E8B0F1252DFF508FA7B0012129C
:10527300698A0C8B0DAE0CAF0DEE4F60468E828F9C
:1052830083E50BF0A3E4F0A808EE28F8E43FF98ED9
:10529300828F83A3A31252FE850E08850F09F50A98
:1052A30078081209481252EC123567121239740346
:1052B30012097AEEFAEFFB901C8EE0F9121275795F
:1052C300008014851082851183E50BF0791AAA10EA
:1052D300AB11122619791A7402022FD6744229F5DA
:1052E30082E4342FF583E49322A80B7437125140E0
:1052F300342FF583E493FC7D00EE22124B188E824B
:105303008F83A3A3A3A3E4F022C082C083E9901CEC
:105313008E02424C74F61203ED74FE120A12EAFE78
:10532300EBFFEE542070308039A8A8C2AF901C2E3A
:10533300E0141241758A828B83125440901C91129F
:105343006A9F122625851082851183E06415600704
:105353007A917B1C1226497A287B1C121293EA4B02
:1053630070C7EF54807012801C901C91126A9F12B8
:1053730026257A917B1C122649901C8EE0F9121285
:1053830081EA4B70E4EE5410600E85108285118320
:10539300742D124962122625EEA2E0500E8510826A
:1053A3008511837424124962122625EE5402600E7D
:1053B3008510828511837425124962122625EE54C5
:1053C30004600E85108285118374261249621226A9
:1053D30025EE5408600E85108285118374281249C6
:1053E30062122625EE544060107401120C6E1254A2
:1053F3005A742C124962122625EE548060107401EF
:10540300120C6E12545A742F124962122625901CE4
:105413008F124FFE6020A8A8C2AF901C8F12545069
:10542300901C8FE4F0A3124175126A9E1226257A0E
:10543300917B1C1226497A007B00024FF6125444DA
:1054430022E0851082851183F022901C0D125454A2
:1054530022E0FAA3E0FB22E412545F22F0851082DB
:1054630085118322C082C083901C91125F97EA68E2
:105473007002EB697007901C91E4F0A3F002471BE4
:1054830074F71203EDEAFEEBFFEE4F7003120D9B70
:10549300A2AFE433F508C2AF8E828F83124FFE6052
:1054A30028E824FBFAE934FFFB901C91125A4DE8DB
:1054B3006C7002E96D7007901C91E4F0A3F08E828A
:1054C3008F83E4F0A3F01212FF02380BC082C08373
:1054D300901CB87491F0A37426F0A374A3F0A37482
:1054E30026F0A374A9F0A37426F0A37465F0A37443
:1054F30025F0A374AFF0A37426F0A3745FF0A37434
:1055030025F0A3746BF0A37425F0901CC674DFF030
:10551300A37426F0A374B5F0A37426F0A374BBF0B0
:10552300A37426F0A374C7F0A37426F0A374C1F088
:10553300A37426F0901CB7E402424CC082C083904F
:1055430004D2E064FE7003A3E0F470097CC97D0417
:105553001213E3801C8A828B83A3A3A3A3A3A3A315
:10556300A37402F09004D2125F978A828B83124B4A
:105573001402471BC082C0839004DCC3E094FEA3E3
:10558300E094FF400479038002790202471BC08242
:10559300C0831256D28C828D8312568768703974F9
:1055A3000268701C8A828B831255E0E06870298A36
:1055B300828B83A31255E0A3E068701C7901801AE3
:1055C3007403687013EC2405FC50010DEA2405FAFA
:1055D30050010B1213E98002790002471BA3A3A316
:1055E300A3A3E0F88C828D83A3A3A3A3A32274F6C1
:1055F3001203ED7E00740A120C6EE012567BFF8AD2
:10560300828B83A3A3A3A3A3A3A3A3E06F70647458
:10561300026F704E8A828B83C082C08388828983A3
:10562300A3A3A3A3A3E0F50888828983A3A3A3A3C9
:10563300A3A3E0FBAA08D083D082E06A7003A3E0AF
:105643006B703088828983A3A3A3E0FA888289835D
:10565300A3A3A3A3E0F9EA6C7002E96D70157E01C0
:10566300801174036F700CE82405FCE439FD1213F8
:10567300E9E9FEEEF9026026F8A3E0F9888289835E
:1056830012568722A3E01313543F540322C082C04F
:10569300838A828B83A3A3A3A3A3A3A3A3E064020C
:1056A30070169004D21256C9687003A3E06970049F
:1056B3007901800F7900800BEAFCEBFD7AC97B044A
:1056C3001213DD02471B125F9B8A828B83E0228ABF
:1056D300828B83125687F82274F01203ED74FC1246
:1056E3000A12E9851082851183F07402120C6EECA4
:1056F300F0A3EDF08A0A8B0B7508007402120C6E8E
:10570300122FA0C0E07401120C6ED0E0125987A2D0
:10571300E75008750EFF750FFF800A9004D8E0F577
:105723000EA3E0F50F851082851183E0C2E71259BD
:105733008C5420600712595974088004125959E493
:1057430012598C54046007125964748080051259ED
:1057530064741012598C54106006125943E4800B80
:105763009004E5E0C0E0125943D0E012598CA2E066
:1057730050037508205408600674104508F5088A1C
:10578300828B83A3A3E024FFFEA3E034FFFFEA128E
:10579300594EC39402E0400F640B6009E0148E82FB
:1057A3008F8312597D74034508F508750900900429
:1057B300F8E0640170118A828B83A3A3A3A3E0C3DF
:1057C30094674003750910851082851183E0F50CF9
:1057D300750D00740E780C120B3EE50D4509F509A5
:1057E300E0640270199004DD12626EF09004DCE054
:1057F300C0E012356ED0E0F0EE24FEFE801CE064C3
:1058030003701DEE24F9FEEF34FFFF7CEC7D04EE04
:10581300FAEFFB1213EFEE24FF1EEF34FFFF8003BA
:10582300E0602F7401120C6EE060187414120C6E99
:10583300E0650E7004A3E0650F700874404508F539
:1058430008800F8E828F83E50FF012356EE50E12FE
:1058530059737401120C6EE0F50C750D00740A781F
:105863000C120B3EE50D4509F509E0640270237443
:1058730002120C6E1260E28E828F83F07402120C9D
:105883006E12368BC0E012356ED0E0F0EE24FEFED1
:105893008020E064037021EE24F9FEEF34FFFF74EF
:1058A30002120C6E125A4DEEFAEFFB1213EFEE24B6
:1058B300FF1EEF34FFFF8003E060197414120C6EB7
:1058C30012626DF07414120C6EE0C0E012356ED0EB
:1058D300E0125973EEF8EFF9E824FF1EE934FFFFF5
:1058E300E50A12594E70059004C880039004D4E071
:1058F300FA04F0EA88828983125F19E50912597D57
:105903008E828F83E508F0E50A2404F8E4350BF969
:10591300E50A2402FAE4350BFBEEFC8A828B83E072
:10592300F50888828983E02508C39C124F5BEEF05B
:10593300A3EFF0850A82850B83A3E4F0F9022FD449
:10594300EA2412F582E4350BF58322240DF582E473
:10595300350BF583E022EA2410F582E4350BF58359
:1059630022EA12596D350BF583222411F582E422C4
:10597300F0EE24FEFEEF34FFFF22F0EE24FF1EEFD5
:1059830034FFFF2212545FE022F0EA125997350BDD
:10599300F583E022240EF582E42274F11203ED7400
:1059A300FE120A12851082851183ECF0A3EDF089B3
:1059B3000B8A0E750A1A7415120C6E1268F61225EC
:1059C300058A0C8B0DAE0CAF0DEE4F605F74131296
:1059D3000C6EE0125A3BE8F0A3E9123177E50BF0C5
:1059E300750A0078081209481235621212397403D5
:1059F30012097A7411120C6E1207747402120C6E6F
:105A0300125A4DA90EEEFAEFFB1226737402120915
:105A13007AE9F50A7016E50B24F96003147006128F
:105A23003792D2E5F0EEFAEFFB122559A90A740278
:105A330012097A7F0702065DF8A3E0F9125A43229E
:105A4300EE1259973FF58322F583E0FCA3E0FD2294
:105A530074F61203ED74F7120A12EAFEEBFF7801F3
:105A6300EE24321247AF60027805124679E812310C
:105A7300747404125ACA1213E3EE242F125AB21288
:105A8300315024311247AF125AD712094C74021203
:105A930009F279031A1AEFFB122673740212097AB8
:105AA300E9F5087007EEFAEFFB12255902601FF5BE
:105AB30082E43FF583122FC9EE125AC0222402F862
:105AC300E43FF9E8FAE922F0EE2426FCE43FFDAADC
:105AD30010AB112288828983124F3304F078082295
:105AE30074F21203ED8A088B09ECFEEDFF8A828BB8
:105AF300837405F0EE24321247AF8A828B83A3A30B
:105B0300F0EA2403F50AE43509F50B850A82F583E7
:105B1300E0F50CA3E0F50DEE2425F582E43FF583D3
:105B2300120C4BE50C12596D350DF583120C3F1217
:105B33005CD4AA0CAB0D1213E3850A82850B831286
:105B430060E7FAA3E0FB88828983A3A3A3126A997F
:105B5300EE242F1247AFC0E0125CDCD0E0125D13DD
:105B63002415F582E438F583E4125D131245D3E47A
:105B7300125D06850A82850B83E02416FAA3E034BE
:105B830000FB12268B8E828F83A3A3A3A3A3A3A3BD
:105B9300E0C0E0850A82850B83125CF9240DF5824F
:105BA300E438F583D0E0125CFDFAA3E0FB850A82BA
:105BB300850B83125F97E8240BFCE439FD8A828B03
:105BC30083E08C828D83F0A3E4125D26E0F50B8CD9
:105BD300828D83A3E0450B125D26A3E0FCEA240338
:105BE300FA50010BECA2E7E433C0E0E8240FF5829E
:105BF300E439F583D0E0F074075C60047801800237
:105C0300780075F00374075CA428F8EA28FAE43BEB
:105C1300FBE5082405F8E43509F98A828B83E088DB
:105C2300828983125D26AA82AB83850882850983D4
:105C3300126A9988828983E0F50A25E0540EFCE50F
:105C43000AC4540FF50A750B007403780A120B3E4D
:105C5300E50A5438F8EC28F8EA28F8E43BF9850813
:105C630082850983A3A3A3A3A3A3A3A3A3E8F0A368
:105C7300E9124F2FFA8E828F83A3A3E02AFAA3E0BF
:105C83003400FBC3EA98EB9940288E828F83A3A349
:105C9300E0F8850882850983A3A3A3A3A3A3A3A3F1
:105CA300A3125CEAC39A28850882850983A3A3A368
:105CB3008016850882850983A3A3A3A3A3A3A3A313
:105CC300E4F0850882850983A3A3A3A3A3F0023587
:105CD300EEEE2413FCE43FFD22125CE022E82410E4
:105CE300F582E439F58322E0FA8E828F83A3A3A39E
:105CF300A3E022901C2F125D2122F08E828F83A3BA
:105D0300A3E022125D0A22F0EE2408FCE43FFD2208
:105D1300F0850A82850B83125D2122901C2F124588
:105D2300FDC822124F5BA32274F51203ED8C088D7C
:105D330009750A0078081209487C0B7D0002492284
:105D430002092CC082C083791812261902471BC08E
:105D530082C0838A828B83E0C3940B5003122697FD
:105D630002471BC082C083791980DE74F71203EDEA
:105D7300EAFEEBFF901C8F124FFE6010901C8F12F7
:105D830054501226A37A8F7B1C122649EEFAEFFB9E
:105D9300122643901C8FEEF0A3EFF0024C7774F7BA
:105DA3001203ED74DE120A12EAFEEBFF8E828F837A
:105DB300E024FD601124FE601524ED600924FA60DF
:105DC3000D14600A803D7416120C6EE4800774167D
:105DD300120C6E7401F0124216740B120C6EAA822E
:105DE300AB831213EF7413120C6E125E7C120C6EE3
:105DF300124B14740A120C6E125E88120C6E124B44
:105E03001480417416120C6E7402F0125CD4740B7D
:105E1300120C6EAA82AB831213EF7413120C6E1260
:105E23005E7C120C6E124B14740A120C6E125E8896
:105E3300120C6EE8F0A3E9125E76120C6EAA82AB26
:105E43008312268B851082851183740B125F19A32D
:105E5300E0C0E07401120C6ED0E0125E76120C6E9C
:105E6300AA82AB8312268BAA10AB11121A67742273
:105E73000239B6125D0A7417227403F09004DC121F
:105E83005F9B7402227402F09004D8125F9B741417
:105E93002274F71203EDEAFEEBFF8E828F83A3E0F9
:105EA300F5087036EE242F125F097003A3E06960D2
:105EB300037508E8EE2426FAE43FFB12266DE96039
:105EC30032EE2432F582E43FF583E4F0E508700A0C
:105ED300EEFAEFFB12267FE9F508E50860128E82E1
:105EE3008F83A3E508125F197419124BB412262588
:105EF300024C77EE24321247AF60D1901CB6E070AB
:105F0300CB7508E880D8F582E43FF583125F9B9058
:105F130004D8E06822E4F08E828F8322C082C0839B
:105F230074F1120A127402120C6E7404125D26E0EC
:105F3300C0E07403120C6ED0E0F0EA242FF582E483
:105F43003BF583125F97740D120C6E124B14EA2407
:105F530026FCE43BFD7404120C6EAA82AB8312137D
:105F6300E37404120C6EAA82AB8312266DE9600EF1
:105F7300125FA012100B9004D274FFF0A3F074020E
:105F83001209EA121A67740F023EB5A3A3A3A3A3CF
:105F9300A3A3A3A3125F9B221245FDF922851082BE
:105FA30085118374FFF0A3F0AA10AB117953227407
:105FB300F61203ED74E8120A12EAFEEBFF74021202
:105FC3000C6E7403F0EE2413F508E43FF509AC08F6
:105FD300FD7404120C6EAA82AB831213EF12368582
:105FE300C0E0740C120C6ED0E0125D06740D120C3E
:105FF3006EAA82AB8312268BAA08AB0912266DE91F
:10600300600E125FA012100B9004D274FFF0A3F085
:1060130074021209EA121A6774188004A908740931
:1060230012097A7F0202065D74F61203ED74D4122C
:106033000A12EAFEEBFF8E828F83A3A31260E2A211
:10604300E650179004D81260E7687003A3E0697004
:1060530009901CB7E060481226CD740B1209E27454
:1060630003120C6E123158FCEFFDAA10AB1112266D
:1060730085851082851183742B124962122625901F
:1060830004BDE060087408120C6EE0600E85108297
:106093008511837405124962121A67742C808190EA
:1060A30004E1E060B5124C3F12266DE970ACEE24BA
:1060B30008F508E43FF509780812094C75080175DD
:1060C3000900780812094C9004D81207747CC97D22
:1060D300047A037906122679740612097A80BC12AF
:1060E300441DE022125F9B123DC5E022C082C083A3
:1060F30074EF120A128510828511837409F07401FA
:10610300120C6E74EE124962121A67023EB374F7F0
:106113001203EDA2AFE433FFC2AFE96003120FF93C
:10612300120F879004EBE0F91210479004EAE0F9AC
:1061330012103B901CB7E0F91210239004D81254AC
:10614300501210299004DC12545012102F7AEC7B59
:10615300041210357E00126195124FFE6009126120
:10616300951246801205BE0EEEC3940740E812272F
:106173001B12260D901CD0E4F01224FF12264F7A36
:10618300DB7B04795212100BEFA2E092AF7900028D
:106193004C77EE1251DE749628F582741C39F58320
:1061A3002212262B02471BC082C083901CD174EBA2
:1061B300F0A37426F0A37409F0A37427F0A3740F5B
:1061C300F0A37427F0A374F1F0A37426F0A374FD75
:1061D300F0A37426F0A374F7F0A37426F0901CA424
:1061E30074B8F0A3741CF0A374C6F0A3741CF0A3DA
:1061F30074D1F0A3741CF0901C93E4F0A3F0120F7D
:106203008102471B02092C74F71203EDEAFEEBFF30
:106213008E828F83740712627412626EA3A312625A
:1062230074A312626DA3A3A3F08C828D83A3A31224
:106233000C4B8E828F83A3A3A3A3120C3F8E828F5A
:1062430083A3A3A3A3A3A3A3A3E4F0EC2418F5823D
:10625300E43DF583125F978E828F83A3A3A3A3A349
:10626300A3A3A3A3124B14024C77A3E08E828F83C4
:1062730022126279A322F08C828D83A3A3A3A3A30A
:106283002274F41203EDEAFEEBFF901CDE125F189A
:10629300A3A3A3A3A3A3E0C394064006901CDE74A8
:1062A300E8F08E828F83A3A3A3A3A3A3A3E0C39445
:1062B3000F40158E828F83A3A3A3A3A3A3E064033C
:1062C3006015901CDE74E8F08E828F83A3A3A3A3D2
:1062D300A3A3E06403700E901C93E0A2E040069039
:1062E3001CDE74E8F0EEFCEFFD7ADD7B1C1226E584
:1062F3008E828F83A3A37808120BFA740A7808128C
:1063030009C9901CF17808120BEB8E828F83A3A32B
:10631300A3A3A3A3A3E0901CF51263BE901CF612E3
:1063230063C3901CF71263A4901CF8F0EE240C12C4
:1063330047AF901CF9F0A3740AF09004EBE0901CB3
:10634300FBF0901CEE1248C374041263AA120948AE
:106353007C0B7D007AFC7B1C121239740312097AC0
:10636300901CDEE0702A8E828F83A3E07022901C43
:10637300DFE06006901CDE74EAF0901CDFE0F912A7
:1063830010538E828F837426F079041210EF8007E6
:106393008E828F837429F0EEFAEFFB122625022FEB
:1063A300EDF0124D8CE022F0EE240D1263B222F5D3
:1063B30008E43FF509750A007808221263C9E02250
:1063C3001263C9A3E022123B18A3A3A32274F412FD
:1063D30003ED74F7120A12EAFEEBFF901CDFE07084
:1063E30030901CFAE0640A6028121065E9C0E0905E
:1063F3001CFAE0F8901CE6E028F8A3E03400F9E882
:1064030024F5F582E9123574D0E0F0901CE5E00440
:10641300F0901CF17808120BFA740178081209C97C
:10642300901CF17808120BEB901CFAE004F0E508DD
:10643300A2E04006E0C3941E40D7E0641E7003024E
:1064430064CC7AFA7B1C79E112100B7408120C6E7F
:10645300740212545B74FFF0A3F0901CDFE060043D
:1064630064027009EEFAEFFB1226F78068E064011C
:10647300700679087A80800479077A837508FC7539
:10648300091C780812094CE4F508F5097808120983
:106493004C7508FF7509FF780812094C7406120938
:1064A300F2122679740612097AE9F874DB6860142B
:1064B30074E568600F74F368600A74DF68600574DC
:1064C300E8687011E8901CDEF08E828F83742912C5
:1064D3004BB4122625022FE874F01203ED75080160
:1064E300750900750A00750B00901CFAE078081214
:1064F30008CA7808120BAB901CE17808120B1890AD
:106503001CDFE06403700F12655A120BFA780879E6
:106513000C1202FE8035750801750900750A0075B5
:106523000B00901CF5E078081208CA9092337808A3
:10653300120AF290924B780C120BFA7808790C122B
:1065430002FE901CDFE0700312105F78081209440A
:106553007AE87B1C022FD19004E6122FAD90924B68
:10656300780C2274F11203ED74D4120A128A088B88
:1065730009901CDFE06402600DE064016008E064E0
:10658300056003026660901CDEE4F0740B1209E2FE
:106593007403120C6E124B14AC08AD09AA10AB11A4
:1065A300122685901CF6E0F8901CE5E0C398507124
:1065B300126A17901CE5E0F50A802D8E828F8312F4
:1065C3005F8E7414120C6EE0687003A3E069700FA1
:1065D300740B1209F2EEFAEFFB1213DDE9704215A8
:1065E3000AEE2421FE50010FE50A70CF740B120945
:1065F300E2880C890D750E00780C1209487C217D08
:1066030000901CE5E08CF0A4F8A9F0A3E028FAA31D
:10661300E039FB121239740312097A901CE5E00485
:10662300F09004BDE0600E7408120C6EE0700690EA
:106633001CF6E07007AA10AB11121A67901CF6E063
:106643006021901CE5E0F8901CF6E0687015850861
:10665300828509837429F0AA08AB098003126703B2
:10666300122625742C025A3374F61203ED74FE12AB
:106673000A128A088B09EA241BF582E43509F5839B
:10668300E064037072EA2424F582E43509F583E0BB
:1066930064037063EA2413FAE43509FB794A1210A0
:1066A3000B850882850983A3126A1712670F5001AD
:1066B3000FAA10AB11795012100B12670F50010F74
:1066C300AA10AB11794B12100BEEFAEFFB79E11222
:1066D300100B8E828F83A312671EF0A3E9125FAAA9
:1066E30012100B901CDEE4F085088285098374295F
:1066F300F0AA08AB098003126703122625024FF69E
:10670300901CDE74E8124F5B7429F0228E828F8313
:1067130012671E124B19EE2402FE22E0FAA3E0F9DF
:10672300EA85108285118322C082C0837AE87B1CAC
:1067330012274B12105979041210FB901CDFE064EE
:10674300037006901CDEE060097AFB7B1C79E11282
:10675300100B7ADD7B1C02470FC082C08374F512D5
:106763000A12EAFCEBFDAA10AB111226E574011222
:106773000C6E74FC124962121A67740B023EB5C0A8
:1067830082C08379070261A4C082C083901D07E49D
:10679300F0A3F0901D09F0A3F0901DF61267AE90E0
:1067A3001DFA1267AE901D0B02424AF0A3F0A374C8
:1067B300FFF0A3E4F02274F41203ED901D0BE4F058
:1067C300A3F0901D07124FFE602F901DF67808125C
:1067D3000BFA1268FD120A68501F120F098A088B00
:1067E300098C0A8D0B1268FD120A6850061268FDA7
:1067F300120BEB901D07124B0E901D09124FFE90CA
:106803001D0B601E124FFE60111268F0120BFA90FE
:106813001D09126900120A68500D901D09124B0ED2
:106823008005124FFE6021901DF67808120BFA9036
:106833001D0B126900120A68500E901D0B124422A0
:10684300120C33120F158003120F1B022FED74F479
:106853001203EDA2AFE433FEC2AF901D0B124FFE45
:1068630070030268E81268F0120BFA901DF67808BC
:10687300120A68500B120D9B901D0B124FFE6065A0
:10688300120F098A088B098C0A8D0B901D0B126954
:10689300001208AB504F9091C37808120BFA901D69
:1068A3000B126900120A685003120D9B901D0B1204
:1068B30068F612274B850882850983A3A3A3A3A3A4
:1068C300A3A3A3E0F9850882850983A3A3A3A3A3B4
:1068D300A3126B17EEA2E092AF1205BEA2AFE43390
:1068E300FEC2AF8093EEA2E092AF022FED124F53A0
:1068F300780822122FC9AA08FB22901D07124F4CB9
:1069030078082274F01203ED8A088B098C0A8D0B28
:106913007410120C6E801C9091C3780C120BFA8EBB
:10692300828F83A3A3780C120A685003120D9B8EE7
:10693300828F831235E160398E828F83A3A3780817
:10694300120ADF901D0B125F97EE687002EF6970F9
:10695300C69091C3780C120BFA8E828F83A3A3780F
:106963000C120A6850B18E828F83A3A3122F9B80CF
:10697300BE022FD974F31203EDA2AFE433F50CC2B8
:10698300AF901D09126A18901D07120774901DF627
:106993007808120BFA7808120B8AAA08AB09AC0A1A
:1069A300AD0B12272D740212097A802F901DF678F1
:1069B30008120BFA8E828F83A3A37808120A684009
:1069C30013901DF67808120BFA8E828F83A3A37897
:1069D30008120AA58E828F83126A18EE4F70CD902B
:1069E3001DFA7808120BFA901DF67808120A536004
:1069F30015901DFA120C4B901DF6120C3F901DF6CC
:106A0300120C33120F03122721E50CA2E092AF7F81
:106A13000502065DA3E0FEA3E0FF2274F01203ED7E
:106A2300A2AFE433FEC2AFECF8EDF9880C890D8C0C
:106A3300828D83800C850E0C850F0D850E82850F4C
:106A430083E0F50EA3E0F50FE50E450F601A850E02
:106A530082850F83A3A37808120BFA8A828B83A300
:106A6300A37808120A6850CD850C82850D83126ABB
:106A73009F8A828B83E50EF0A3E50FF08C828D83D2
:106A8300125F97EA687002EB697003122721EEA286
:106A9300E092AF022FD9A3A3A3A3A3A3EAF0A3EB8E
:106AA300F02274F41203EDEAFEEBFF740C120C6E89
:106AB300C082C083120F098A088B098C0A8D0BD000
:106AC30083D0827808120AF28E828F83A3A3780878
:106AD300120BEB7C077D1DEEFAEFFB122739022F19
:106AE300ED74F71203EDEAFEEBFF8C828D83A8822F
:106AF300A983126B17E58245836014EE65827003E8
:106B0300EF658370E9126B1F126A9F790180027926
:106B130000024C771254548A828B83221254548875
:106B23008289832274F71203EDEAFEEBFFA2AFE43E
:106B330033F508C2AF7C077D1D122745E9700B7C36
:106B4300097D1DEEFAEFFB122745901D0B125F978F
:106B5300EE687002EF69700312272102380B74F09C
:106B63001203ED7469120A127402120C6EECF0A394
:106B7300EDF0909089748D1209F2740A12088A90CC
:106B83008DA7740B1209F2744112088A908D6674F2
:106B93004112088A851082851183F0740B1209F261
:106BA300120D23E9F50F740A650F6006740D650F66
:106BB3007003027052740B1209E288088909750A7E
:106BC3000078081209487C027D007403120C6EE001
:106BD300F8744F120C6E1275D21212397403120923
:106BE3007A78081209487C027D0074091209EA12B6
:106BF3001239740312097A851082851183E0240205
:106C0300F07406120C6EE05407F87018A810A9115E
:106C130088088909780812094C744E1209F279041C
:106C2300741380387402687042A810A91188088907
:106C330009780812094C744E1209F27908740F127C
:106C43000C6EAA82AB83120D77740212097A78084C
:106C530012094C744E1209F279017417120C6EAAC0
:106C630082AB83120D77740212097A740C120C6EC4
:106C7300E0A2E55025A810A911880889097808120F
:106C8300094C744E1209F279027418120C6EAA821E
:106C9300AB83120D77740212097A740C120C6EE036
:106CA300A2E65025A810A9118808890978081209B5
:106CB3004C744E1209F27901741A120C6EAA82AB4B
:106CC30083120D77740212097A740C120C6EE0A20F
:106CD300E6400A740B120C6EE0A2E55025A810A939
:106CE3001188088909780812094C744E1209F2793F
:106CF30004741B120C6EAA82AB83120D77740212FA
:106D0300097A740C120C6EE0A2E65025A810A911A2
:106D130088088909780812094C744E1209F279100F
:106D2300741F120C6EAA82AB83120D7774021209C0
:106D33007A740B120C6EE0A2E64003026E4A7401F1
:106D4300120C6E127057120C6EE58228FEE4358326
:106D5300FF748D1209E28808890974011209E2742B
:106D630008120C6EE8F0A3E9F0A3E4F0742D120C02
:106D73006EA982AA83890C8A0D750E00780C1209FC
:106D8300487C0A7D00A908AA09AB0A1212457403BC
:106D930012097AE970457401120C6EE004F074086C
:106DA300120C6E1207707C017D00EEFAEFFB1212DB
:106DB30039740312097AA810A911880C890D780C6B
:106DC30012094C744E1209F2790A742F120C6EAA2E
:106DD30082AB83120D77740212097A7437120C6E28
:106DE300A982AA83890C8A0D780C1209487C0A7D32
:106DF30000A908AA09AB0A121245740312097AE919
:106E030070457401120C6EE004F07408120C6E12DB
:106E130007707C017D00EEFAEFFB12123974031246
:106E2300097AA810A91188088909780812094C74ED
:106E33004E1209F2790A7439120C6EAA82AB8312CC
:106E43000D77740212097A740C120C6EE0A2E04002
:106E530003026F0B7401120C6E127057120C6EE565
:106E63008228FEE43583FF74011209E28808890948
:106E73007441120C6EE0A2E050427401120C6E7465
:106E830001F078081209487C017D00EEFAEFFB124D
:106E93001239740312097AA810A911880C890D7884
:106EA3000C12094C744E1209F279047444120C6EDC
:106EB300AA82AB83120D77740212097A7441120C01
:106EC3006EE0A2E150427401120C6EE004F0780807
:106ED3001209487C017D00EEFAEFFB1212397403AC
:106EE30012097AA810A91188088909780812094C8F
:106EF300744E1209F279047448120C6EAA82AB83A1
:106F0300120D77740212097AA810A9118808890949
:106F1300780812094C744E1209F27901744C120C60
:106F23006EAA82AB83120D77740212097A740B1264
:106F33000C6EE054186418601D780812094C744EE6
:106F43001209F27901744D120C6EAA82AB83120DF1
:106F530077740212097A74A7120C6EE0FEA3E0FFA5
:106F63008E828F83E0FA7402120C6EE0F8A3E0F9CC
:106F7300E8497003027034851082851183E0F50BB4
:106F8300EA6004E024FEF0E0F87404120C6EE8F00A
:106F9300A3E4F08E828F83E0F87404120C6EE02871
:106FA300F0A3E03400F074041209E2880889097838
:106FB300081209487C027D007405120C6E127EAC27
:106FC300121239740312097A8E828F83E070187457
:106FD30002120C6EE02402F8A3E03400F9740212EA
:106FE3000C6EE8F0A3E9F0851082851183E024029A
:106FF300F0744C1209E2880889097808120948AC30
:107003000B7D008E828F83E0F87405120C6EE028EE
:10701300FAA3E03400FB121239740312097A8E8248
:107023008F83E060197404120C6EE08E828F83806C
:107033001BEA700A851082851183E02402F0851013
:1070430082851183E0F88E828F83E028F0A90F7484
:10705300970275CAE41271DDF804F0744C2274F4DB
:107063001203ED89097900E50960081460051460CD
:107073004A804A74116C4D7044750800740C120CEC
:107083006EE0FEA3E0FF740E120C6EE0F50AA3E0BF
:10709300F50B780A12094CEEFCEFFDE5082410FA13
:1070A300E43403FB120D53740212097AE9F9700BED
:1070B3000508E508C39406500480D779017F0402CC
:1070C300065D74F01203ED74FE120A128A0C8B0D26
:1070D3008C0E8D0F90925FAC10AD11740212088A62
:1070E300EA5407F8851082851183E054F848441860
:1070F300F054DFFAA3E0FB850C08850D09740378CF
:1071030008120C09E5085420F8EA48F8EBF9851051
:1071130082851183E8F0A3E9F0E50CC41354075406
:1071230003F97403698510828511837017E0D2E631
:10713300F0E0C2E7F074026970177401120C6EE09C
:10714300D2E08015E0C2E6F074016970E4E0D2E7B2
:10715300F07401120C6EE0C2E0F0E054F9F0850C1B
:1071630008E50854806005E0D2E38003E0C2E3F061
:10717300E97005E0D2E48003E0C2E4F0850D0985FF
:107183000E0A850F0B9092237808120ACCE5084566
:1071930009450A450B600F740269600A7401120CF9
:1071A3006EE0D2E580087401120C6EE0C2E5F07463
:1071B30009780C120C09E50C5403C39402E0400453
:1071C300D2E68002C2E6F0E0C2E71271DDFA740192
:1071D300120C6EE0FB74020275CAF08510828511F1
:1071E30083E02274F01203ED74B7120A12EAFEEB85
:1071F300FF908CA374081209F2744112088A851057
:1072030082851183F07403120C6EE4F0A3F0740210
:10721300120C6EE4F004120C6E740AF07406120C75
:107223006E74FFF0A3F08E828F837808120BFAE559
:1072330008131313541F5401C0E07405120C6ED0CD
:10724300E0F0AA08AB09AC0AAD0B120D5F74031290
:107253000C6EEAF0A3EB1275DB12094C740A1209E7
:10726300F2790274051209EA120D77740212097A8F
:107273008E828F837808120BFAE5085407F870188A
:10728300851082851183E024041275DB12094C7486
:107293000A1209F2790480197402687022A810A9ED
:1072A3001188088909780812094C740A1209F279BD
:1072B30008EE29FAE43FFB120D77740212097AA84B
:1072C30010A91188088909780812094C740A12094F
:1072D300F27901EE2410FAE43FFB120D77740212E7
:1072E300097AEE2432F50EE43FF50F8E828F837810
:1072F30008120BFAE508C413540754036402A810D8
:10730300A911880889097808601012094C740A12B7
:1073130009F27902AA0EAB0F800F12094C740A12FC
:1073230009F2790274081209EA120D77740212093C
:107333007A8E828F837808120BFA85080C85090DE3
:10734300740B780C120C09E50C333354FC541CF900
:1073530074097808120C09E508540349F8740212F9
:107363000C6EE048F074021209E288088909750A74
:107373000078081209487C017D007403120C6EE04A
:10738300F8740B120C6E1275D212123974031209AF
:107393007A851082851183E0041275DB12094C741F
:1073A3000A1209F27904EE241EFAE43FFB120D7768
:1073B300740212097A780812094C740A1209F279D4
:1073C30010EE2422FAE43FFB120D77740212097ABD
:1073D300EE2411F508E43FF509A810A911880A89DC
:1073E3000B780A12094C740A1209F27908AA08AB3D
:1073F30009120D77740212097AEE2419F50AE43F93
:10740300F50BA810A911880C890D780C12094C747E
:107413000A1209F27902AA0AAB0B120D777402124F
:10742300097A7C087D0079FFAA08AB0912124B8503
:107433000A82850B8374FFF0A3F0780C12094C7455
:107443000A1209F27908AA08AB09120D777402121D
:10745300097AA810A91188088909780812094C74B7
:107463000A1209F27902AA0AAB0B120D77740212FF
:10747300097A7C017D007403120C6EA3E05401FAB7
:107483007403120C6EE0333354014AF9851082857C
:107493001183E0FA7408120C6EE5822AFAE435834C
:1074A300FB12124B851082851183E004F0EE241B3E
:1074B300F50CE43FF50D780812094C740A1209F231
:1074C3007902AA0CAB0D120D77740212097A8E821F
:1074D3008F837808120BFAE508C41354075403F892
:1074E3007402686005740168701AA810A9118808ED
:1074F3008909780812094C740A1209F27902AA0E52
:10750300AB0F8019A810A9118808890978081209F6
:107513004C740A1209F2790274081209EA120D77FF
:10752300740212097A850C82850D8374FFF0A3F02F
:10753300780812094C740A1209F27902AA0CAB0DED
:10754300120D77740212097A780812094C740A1220
:1075530009F2790274081209EA120D77740212090A
:107563007A780812094C740A1209F27901EE24346C
:10757300FAE43FFB120D77740212097A85108285B3
:107583001183E0F87408120C6E1275D2740112099B
:10759300E288088909750A00E0541860087401122A
:1075A3000C6E74FFF078081209487C017D001212FA
:1075B30039740312097A7405120C6EE0F974081217
:1075C30009EA120D6B744912097A7F0802065DE518
:1075D3008228FAE43583FB22F0A810A911880889D0
:1075E3000978082274F01203ED7582FB7583FE128D
:1075F3000908E9851082F0908C2174421209F27413
:107603004112088A908B9F041209F2744112088A6E
:107613008A088B09F50A78081209487C417D0074B1
:10762300451209EA121239740312097A750B00E53F
:107633000B2410FEE43403FF74011209F2EEFAEF97
:10764300FB120D23E9F50F740A650F70030279E647
:10765300740D650F6003027720851082851183E026
:107663006401600302772074421209E288088909E1
:10767300780812094C750841750900780812094CFD
:107683007C007D00EEFAEFFB12137D740412097A7D
:10769300E9F50F75084975091B744D120C6EA98223
:1076A300AA83890C8A0D750E00780C1209487C0296
:1076B3007D00A908AA09AB0A121245740312097ABC
:1076C300E960030279DB7479120C6EA982AA8389BB
:1076D3000C8A0D780C1209487C027D00A908AA09BE
:1076E300AB0A121245740312097AE960030279DBCB
:1076F300747D120C6EA982AA83890C8A0D780C12F0
:1077030009487C027D00A908AA09AB0A1212457434
:107713000312097AE960030279DB0279E6908A9B16
:1077230074C41209F2744112088A908A5A7483123B
:1077330009F2744112088A74421209E2880889091D
:1077430078081209487C417D0074C71209EA1212B5
:1077530039740312097A74831209E2880889097853
:107763000812094C750841750900780812094C7C08
:10777300007D00EEFAEFFB121383740412097AE919
:10778300704074C4120C6EE05407F87483120C6ECC
:10779300E0540768702C7485120C6EA982AA838941
:1077A300088A0978081209487C087D0074C9120CFC
:1077B3006EA982AA837B00121245740312097AE927
:1077C3007018E50BC39405400579010279E8050BB0
:1077D300E50BC3940650030276328510828511832C
:1077E300E0703774011209EA1215AB74011209E251
:1077F30088088909780812094C75084175090078C9
:107803000812094C7C007D00EEFAEFFB12137D7425
:107813000412097AE9F50F0279E67442120C6EE05C
:10782300A2E640030279F4851082851183E0F9749E
:10783300011209F274421209EA120D7DE970030282
:107843007A147443120C6EE0A2E55027744D120CA7
:107853006EA982AA8389088A0978081209487C02DA
:107863007D00740F120C6EAA82AB8312123974035B
:1078730012097A7443120C6EE0A2E6505774021296
:107883000C6EE0D2E6F0744F120C6EA982AA8389C3
:10789300088A0978081209487C017D007411120CCA
:1078A3006EAA82AB83121239740312097A745412CA
:1078B3000C6EA982AA8389088A0978081209487C70
:1078C300107D007416120C6EAA82AB8312123974E7
:1078D3000312097A7442120C6EE0A2E55009740196
:1078E300120C6EE0D2E5F07450120C6EA982AA83DA
:1078F30089088A0978081209487C047D00741212E9
:107903000C6EAA82AB83121239740312097A748142
:10791300120C6EE0C0E07440120C6ED0E0F0748282
:10792300120C6EE0C0E07441120C6ED0E0F07401F2
:107933001209E288088909780812094C750841750B
:107943000900780812094C7C007D00EEFAEFFB1267
:10795300137D740412097AE9F50F75084975091B3B
:10796300740C120C6EA982AA83890C8A0D750E0001
:10797300780C1209487C027D00A908AA09AB0A12F7
:107983001245740312097AE9704E7438120C6EA909
:1079930082AA83890C8A0D780C1209487C027D0027
:1079A300A908AA09AB0A121245740312097AE970ED
:1079B30027743C120C6EA982AA83890C8A0D780C59
:1079C3001209487C027D00A908AA09AB0A121245D4
:1079D300740312097AE9600B7901901B49127EAC9A
:1079E3001222CBA90F75820575830112090802754E
:1079F300CD7443120C6EE0A2E0400302784574019B
:107A03001209F274421209EA120D83E96003027843
:107A130045790C80D074F01203ED74BB120A127412
:107A230002120C6EEAF0A3EBF0851082851183EC51
:107A3300F0A3EDF07E00A810A911880889098E0A29
:107A430074041209F2EE2410FAE43403FB120D233A
:107A5300E9F8740A6870057901027C3A740D68705C
:107A630003027C2E740F120C6EA982AA83890C8ADE
:107A73000D750E00780C1209487C027D00A908AA36
:107A830009AB0A121245740312097AE9704E743B6A
:107A9300120C6EA982AA83890C8A0D780C120948EC
:107AA3007C027D00A908AA09AB0A121245740312CD
:107AB300097AE97027743F120C6EA982AA83890C94
:107AC3008A0D780C1209487C027D00A908AA09AB2B
:107AD3000A121245740312097AE96077750B01786B
:107AE3000B120950790D7401120C6EE0FCA3E0FD3A
:107AF3007AFD7BFF1222D7740112097A85108285E1
:107B03001183E0F8A3E0F9900349E8F0A3E9F07CDE
:107B1300087D0079FF7A4B7B0312124B900353E4E9
:107B2300F01212638A0C8B0DA80CA90D7A8A7B02C2
:107B33001202A5E82405F50CE4F50DF50F780C12F7
:107B430009447A107B00901B20E0F91213B97404E6
:107B530012097A7402120C6EE0F8A3E0F9E8497096
:107B630003027C2E7426120C6EA982AA83890C8AC6
:107B73000D780C1209487C087D007405120C6E12F6
:107B83007C3F121245740312097AE96034742E1291
:107B93000C6EA982AA83890C8A0D780C1209487C81
:107BA300027D00A908AA09AB0A121245740312093F
:107BB3007AE9707778081209487C027D0074318075
:107BC3005B7430120C6EA982AA83890C8A0D780C1F
:107BD3001209487C087D007405120C6E127C3F125A
:107BE3001245740312097AE960417438120C6EA9C4
:107BF30082AA83890C8A0D780C1209487C027D00C5
:107C0300A908AA09AB0A121245740312097AE9708A
:107C13001A78081209487C027D00743B120C6EAA84
:107C230082AB83121239740312097A0EEEC39406DF
:107C33005003027A43790074450275CAE0F8A3E061
:107C4300F5838882A982AA837B002274F41203ED50
:107C53008A088B09890BECFAEDFB740C120C6EE0AD
:107C6300FEA3E0FF750A007808120948AC0B7D00FB
:107C73008E828F83E0F8EA28FAE43BFB1212397410
:107C83000312097A8E828F83E0250BF00270C07491
:107C9300F11203ED7469120A127406120C6EECF001
:107CA300A3EDF0E9FE908B5E74561209F274411253
:107CB300088A908B1D74151209F2744112088A9078
:107CC3009093740B1209F2740A12088A8A088B09BA
:107CD300F50A78081209487C417D0074591209EAB3
:107CE300121239740312097A7406120C6EE0F50845
:107CF300A3E0F50978081209487C417D0074181245
:107D030009EA121239740312097A7441120C6EA92A
:107D130082AA837403120C6EE9F0A3EAF0A3E4F0E1
:107D23007437120C6EA982AA837408120C6EE9F0E0
:107D3300A3EAF0A3E4F07478120C6EA982AA8389F3
:107D4300088A09740B1209E2851082851183E8F011
:107D5300A3E9F0A3E4F0EE780860621209487C0A14
:107D63007D00740B120C6E127EA512124574031261
:107D7300097AE96003027E3F7403120C6E120770E6
:107D83007C0A7D007403120C6E127EA512124574D8
:107D93000312097AE978086006120948027E8E12F6
:107DA30009487C0A7D007406120C6E127EA512121D
:107DB30045740312097A79007497027FAE12094859
:107DC3007C0A7D00740B120C6E127EA51212457490
:107DD3000312097AE97003027E667403120C6E12B1
:107DE30007707C0A7D00743A120C6EAA82AB831270
:107DF3001239740312097A85108285118312077070
:107E03007C0A7D007444120C6EAA82AB8312123971
:107E1300740312097A7408120C6E1207707C0A7DBF
:107E2300007403120C6E127EA5121245740312091C
:107E33007AE9600874151209EA1215AB7415120970
:107E4300E28808890978081209487C417D00740991
:107E5300120C6E127EAC121239740312097A790174
:107E6300027DBB78081209487C0A7D007406120C57
:107E73006E127EA5121245740312097AE970030289
:107E83007DB98510828511831207707C0A7D007489
:107E930044120C6EAA82AB83121239740312097A4C
:107EA300809AE0F9A3127EAC22E0FAA3E0FB2274ED
:107EB300F11203ED747E120A12ECFEEDFF908ADCE0
:107EC30074411209F2744112088A908DE8AC10AD26
:107ED30011744112088A8A088B09F50A7808120975
:107EE300487C417D0074441209EA1212397403126A
:107EF300097A8E088F0978081209487C417D00743D
:107F0300031209EA121239740312097A7442120C29
:107F13006EE0A2E04003027FAA7436120C6EE0A268
:107F2300E15003027FAA7478120C6EA982AA837BA4
:107F330000AC10AD118C088D097436120C6EE0A2E2
:107F4300E0890C8A0D8B0E780C40221209487C04C0
:107F53007D00743A120C6EAA82AB83121239740339
:107F630012097A7436120C6EE0D2E08020120948AE
:107F73007C047D00743E120C6EAA82AB831212390C
:107F8300740312097A7436120C6EE0D2E1F07808A9
:107F93001209487C417D00EEFAEFFB12123974039B
:107FA30012097A790180027900748212097A7F07B3
:107FB30002065DC082C083120F931210111210E9E2
:107FC30012107D121125120EF78025C082C083A2E4
:107FD300AF5003120D9B901D71E0700612108912B1
:107FE3001017120EFD12111F9004F77401F0800098
:0D7FF300D083D08202092C02092C02092C37
:108000000000000000000000000000000000000070
:10801000000000F800000000000000333000000005
:1080200000100C06100C060000000000000000000C
:1080300040C07840C0784000043F04043F0404007E
:10804000007088FC08300000001820FF211E00008E
:10805000F008F000E018000000211C031E211E00A3
:1080600000F00888700000001E2123241927211029
:1080700010160E00000000000000000000000000CC
:10808000000000E018040200000000071820400073
:1080900000020418E0000000004020180700000063
:1080A000404080F0804040000202010F01020200C7
:1080B000000000F0000000000101011F01010100AB
:1080C000000000000000000080B070000000000010
:1080D0000000000000000000000101010101010199
:1080E0000000000000000000003030000000000030
:1080F0000000000080601804006018060100000005
:1081000000E010080810E000000F102020100F0001
:10811000001010F8000000000020203F2020000088
:1081200000700808088870000030282422213000E0
:1081300000300888884830000018202020110E00E8
:108140000000C02010F8000000070424243F240091
:1081500000F80888880808000019212020110E0066
:1081600000E0108888180000000F112020110E0078
:1081700000380808C83808000000003F0000000070
:108180000070880808887000001C222121221C0031
:1081900000E010080810E0000000312222110F005A
:1081A000000000C0C00000000000003030000000EF
:1081B000000000800000000000008060000000005F
:1081C0000000804020100800000102040810200078
:1081D00040404040404040000404040404040400C3
:1081E0000008102040800000002010080402010058
:1081F000007048080808F000000000303601000058
:10820000C030C828E810E0000718272423140B000A
:108210000000C038E0000000203C23020227382084
:1082200008F8888888700000203F202020110E0068
:10823000C03008080808380007182020201008005F
:1082400008F808080810E000203F202020100F0048
:1082500008F88888E8081000203F20202320180014
:1082600008F88888E8081000203F2000030000007C
:10827000C03008080838000007182020221E02001D
:1082800008F808000008F808203F210101213F20DC
:10829000000808F8080800000020203F2020000007
:1082A00000000808F8080800C08080807F000000F7
:1082B00008F888C028180800203F20012638200030
:1082C00008F8080000000000203F20202020300097
:1082D00008F8F800F8F80800203F003F003F2000B1
:1082E00008F830C00008F808203F200007183F00B9
:1082F000E01008080810E0000F10202020100F00E8
:1083000008F808080808F000203F210101010000DA
:10831000E01008080810E0000F18242438504F001F
:1083200008F8888888887000203F2000030C3020DF
:1083300000708808080838000038202121221C001D
:10834000180808F8080818000000203F2000000066
:1083500008F808000008F808001F202020201F004F
:108360000878880000C83808000007380E010000AF
:10837000F80800F80008F800033C0700073C030079
:10838000081868808068180820302C03032C3020DF
:108390000838C800C83808000000203F200000004E
:1083A00010080808C83808002038262120201800A6
:1083B000000000FE020202000000007F404040007A
:1083C000000C30C000000000000000010638C000B2
:1083D00000020202FE000000004040407F0000005A
:1083E000000004020202040000000000000000007F
:1083F000000000000000000080808080808080807D
:108400000002020400000000000000000000000064
:1084100000008080808000000019242222223F205A
:1084200008F8008080000000003F112020110E009D
:108430000000008080800000000E1120202011002C
:10844000000000808088F800000E112020103F20DE
:108450000000808080800000001F22222222130062
:10846000008080F0888888180020203F20200000AD
:108470000000808080808000006B94949493600062
:1084800008F8008080800000203F210000203F206D
:1084900000809898000000000020203F202000006D
:1084A000000000809898000000C08080807F00005D
:1084B00008F8000080808000203F24022D3020003A
:1084C000000808F8000000000020203F20200000E5
:1084D0008080808080808000203F20003F20003FFF
:1084E0008080008080800000203F210000203F200D
:1084F0000000808080800000001F202020201F00BE
:10850000808000808000000080FFA12020110E00EC
:108510000000008080808000000E112020A0FF80DD
:10852000808080008080800020203F21200001008A
:1085300000008080808080000033242424241900DF
:10854000008080E0808000000000001F20200000EC
:108550008080000000808000001F202020103F202D
:10856000808080000080808000010E3008060100BD
:1085700080800080008080800F300C030C300F0062
:1085800000808000808080000020312E0E3120008D
:10859000808080000080808080818E7018060100BD
:1085A00000808080808080000021302C22213000DB
:1085B00000000000807C020200000000003F4040FC
:1085C00000000000FF00000000000000FF000000AD
:1085D0000002027C800000000040403F00000000DC
:1085E0000006010102020404000000000000000077
:1085F000000000000000000000000000000000007B
:10860000000000000000000000000000000000006A
:108610001060028C0000FE9292929292FE00000086
:1086200004047E01407E42427E427E42427E400001
:108630000000FC242424FC252624FC2424240400FB
:1086400040308F80844C55252525554C80808000F6
:108650001060028C00FE929292929292FE000000B4
:1086600004047E014448507F40407F50484440000D
:108670000000FC242424FC252624FC2424240400BB
:1086800040308F80844C55252525554C80808000B6
:108690004040424458C0407F40C05048464040009F
:1086A0008080402018070000003F40404040780094
:1086B00000FE424242FE0042A29E82A2C2BE0000D2
:1086C000806F080828CF00002FC8080828CF0000B6
:1086D00002E222223E00809E9292F292929E8000BE
:1086E000004382423E40474444447F444454E700B0
:1086F0000000FC242424FC252624FC24242404003B
:1087000040308F80844C55252525554C8080800035
:108710000000080808080808080808080800000001
:108720001010101010101010101010101010100059
:108730000824236AAA2AAA6A2A2A2AEA020200002C
:108740001011151515FF15151511100F3040F800F3
:10875000008060F807000000FF40201008040000BF
:10876000010000FF000402013F404040404078000B
:1087700004E45C44C400809EF0909F90909E800032
:10878000013F10107F201806914C300F30488400B4
:108790001060028C201808C838CF080828980000FC
:1087A00004047E01040201FF4021060A112040005A
:1087B0000000FC242424FC252624FC24242404007A
:1087C00040308F80844C55252525554C8080800075
:1087D00000004040404040FF40404040400000001A
:1087E000404040404040407F40404040404040008A
:1087F0001010FF100082BAEABA83BAEABA82000007
:1088000008180F04484A2AFF8A4A1A2F5A8A8800F1
:1088100000000000000002FE020000000000000056
:10882000000000000000407F400000000000000049
:108830000000000002FE020002FE02000000000034
:1088400000000000407F4000407F4000000000002A
:10885000000002FE020002FE020002FE0200000012
:108860000000407F4000407F4000407F400000000B
:108870000002FE0200021EE2000000E21E020000F2
:1088800000407F40000000011E601E01000000004B
:108890000040424242C27E42C24242424040000048
:1088A000804020100C0300003F404040407000001A
:1088B0002030AC6330201018A744A4140C00000032
:1088C000226722121202012124444891010202006F
:1088D000C808090EE808405E5050DF50505E400066
:1088E000206F201C131000FE027F027E82FE00001B
:1088F000202020FF202080F88040FF2010F0000082
:108900001030100F0808003F40405F424443780099
:10891000202020FF202000F80000FF404040000001
:108920001030100F0848407F40407F4040404000DA
:1089300007000A000C000D000E000F0010001100CF
:1089400012001300140019001B00000101010002B5
:1089500001020204000401040304040405040604E3
:1089600000050206030604060506060607060806B5
:1089700009060A060B060C060D060E060F06100663
:1089800011061206130604070009000B010B020B67
:10899000030BCEC2B6C83A202564A1E62C20CAAA91
:1089A000B6C83A20256425252C20434F323A202092
:1089B000256470706D2C20B9E2D5D5C7BFB6C83A12
:1089C00020256425252C20CDC1C8C0CAAAB6C83A26
:1089D00020256425250D0A00FFFFFFFFFFFFFFFF95
:1089E000FFFF00FFFFFFFFFFFFFFFFFFFFFFFFFF96
:1089F000FFFFFFFFFFFFFFFFFFFF00000000000081
:108A00000000000000000000000000000000000066
:108A1000000000000000000000FFFFFFFFFFFFFF5D
:108A2000FFFFFF00FFFFFFFFFFFFFFFFFFFFFFFF55
:108A3000FFFFFFFFFFFFFFFFFFFFFF000000000041
:108A40000000000000000000000000000000000026
:108A500000000000000000000000FFFFFFFFFFFF1C
:108A6000FFFFFFFF00FFFFFFFFFFFFFFFFFFFFFF15
:108A7000FFFFFFFFFFFFFFFFFFFFFFFF0000000002
:108A800000000000000000000000000000000000E6
:108A90000000000000000000000000FFFFFFFFFFDB
:108AA000FFFFFFFFFF00FFFFFFFFFFFFFFFFFFFFD5
:108AB000FFFFFFFFFFFFFFFFFFFFFFFFFF000000C3
:108AC00000000000000000000000000000000000A6
:108AD000000000000000000000000000FFFFFFFF9A
:108AE000FFFFFFFFFFFF00FFFFFFFFFFFFFFFFFF95
:108AF000FFFFFFFFFFFFFFFFFFFFFFFFFFFF000084
:108B00000000000000000000000000000000000065
:108B100000000000000000000000000000FFFFFF58
:108B2000FFFFFFFFFFFFFF00FFFFFFFFFFFFFFFF54
:108B3000FFFFFFFFFFFFFFFFFFFFFFFFFFFFFF0044
:108B40000000000000000000000000000000000025
:108B50000000000000000000000000000000FFFF17
:108B6000FFFFFFFFFFFFFFFF00FFFFFFFFFFFFFF14
:108B7000FFFFFFFFFFFFFFFFFFFFFFFFFFFFFFFF05
:108B800000000000000000000000000000000000E5
:108B9000000000000000000000000000000000FFD6
:108BA000FFFFFFFFFFFFFFFFFF00FFFFFFFFFFFFD4
:108BB000FFFFFFFFFFFFFFFFFFFFFFFFFFFFFFFFC5
:108BC000FF000000000000000000000000000000A6
:108BD0000000000000000000000000000000000095
:108BE000FFFFFFFFFFFFFFFFFFFF00FFFFFFFFFF94
:108BF000FFFFFFFFFFFFFFFFFFFFFFFFFFFFFFFF85
:108C0000FFFF000000000000000000000000000066
:108C10000000000000000000000000000000000054
:108C200000FFFFFFFFFFFFFFFFFFFF00FFFFFFFF52
:108C3000FFFFFFFFFFFFFFFFFFFFFFFFFFFFFFFF44
:108C4000FFFFFF0000000000000000000000000027
:108C50000000000000000000000000000000000014
:108C60000000FFFFFFFFFFFFFFFFFFFF00FFFFFF11
:108C7000FFFFFFFFFFFFFFFFFFFFFFFFFFFFFFFF04
:108C8000FFFFFFFF000000000000000000000000E8
:108C900000000000000000000000000000000000D4
:108CA000000000FFFFFFFFFFFFFFFFFFFF00FFFFD0
:108CB000FFFFFFFFFFFFFFFFFFFFFFFFFFFFFFFFC4
:108CC000FFFFFFFFFF0000000000000000000000A9
:108CD0000000000000000000000000000000000094
:108CE00000000000FFFFFFFFFFFFFFFFFFFF00FF8F
:108CF000FFFFFFFFFFFFFFFFFFFFFFFFFFFFFFFF84
:108D0000FFFFFFFFFFFF0000000000000000000069
:108D10000000000000000000000000000000000053
:108D20000000000000FFFFFFFFFFFFFFFFFFFF004D
:108D3000FFFFFFFFFFFFFFFFFFFFFFFFFFFFFFFF43
:108D4000FFFFFFFFFFFFFF0000000000000000002A
:108D50000000000000000000000000000000000013
:108D6000000000000000FFFFFFFFFFFFFFFFFFFF0D
:108D700000FFFFFFFFFFFFFFFFFFFFFFFFFFFFFF02
:108D8000FFFFFFFFFFFFFFFF0000000000000000EB
:108D900000000000000000000000000000000000D3
:108DA00000000000000000FFFFFFFFFFFFFFFFFFCC
:108DB000FF00FFFFFFFFFFFFFFFFFFFFFFFFFFFFC2
:108DC000FFFFFFFFFFFFFFFFFF00000000000000AC
:108DD0000000000000000000000000000000000093
:108DE0000000000000000000FFFFFFFFFFFFFFFF8B
:108DF000FFFF00FFFFFFFFFFFFFFFFFFFFFFFFFF82
:108E0000FFFFFFFFFFFFFFFFFFFF0000000000006C
:108E10000000000000000000000000000000000052
:108E20000000000000000000000000000000000042
:108E30000000000000000000000000000000000032
:108E40000000000000000000000000000000000022
:108E5000000000000000000000000000000005000D
:108E600006000800090016000201020203020003C6
:108E700001030105020500060106040B1406150690
:108E8000170600070107020703070009050900008C
:108E900000000000000000000000000000000000D2
:108EA00000000000000000000000000000000000C2
:108EB00000000000D3D0D6D5B6CBC9E8B1B8A2F235
:108EC000BCD3C8EBCDF8C2E7A3A1B5D8D6B7A3BA37
:108ED00025580D0A00D3D0D6D5B6CBC9E8B1B8A273
:108EE000F1BCD3C8EBCDF8C2E7A3A1B5D8D6B7A3E0
:108EF000BA25580D0A00BDD3CAD5B5BDD6D5B6CB57
:108F0000CAFDBEDDB0FCA3BA25730D0A003D26BB29
:108F100020A320B30DDF1D751EFF154F17FB13E1B6
:108F200027B7154E4D2D656E65726779206E6F748B
:108F300020757000D7E9BDA8CDF8C2E7B3C9B9A6BE
:108F4000A3A10D0A005465786173496E737472753C
:108F50006D656E7473005465786173496E737472D5
:108F6000756D656E747300537461727444657669CF
:108F70006365204552520000000000000000000020
:108F8000000000000000004F727068616E205265A2
:108F900073706F6E736500527370204E6F6E204D4C
:108FA00061746368656400FF000000000000000059
:108FB00000000000000000FF0000000000000000B2
:108FC000000000000000004173736F632052737053
:108FD000206661696C004173736F6320436E662085
:108FE0006661696C004D6174636820446573632039
:108FF0005265710000000000000000000000000049
:109000000000004D4F444520756E6B6E6F776E000B
:10901000000000000000000000000000000D0AB782
:10902000A2CBCDB3C9B9A6A3BA005A696742656598
:1090300020436F6F726400456E65726779204C65DE
:1090400076656C004E6574776F726B2049443A0008
:109050004E6F6E204D617463686564005363616E8A
:10906000204661696C65640000000000000000009B
:10907000000000002020202020202020202000FFB1
:10908000FFFFFFFFFFFFFFFFFFFFFFFFFFFFFFFFF0
:10909000FFFFFFFFFFFFFFFFFFFFFFFFFF000000DD
:1090A000000000000000004A69616F475F4F4646BC
:1090B00000000000000000000000004173736F63B7
:1090C00020436E6600000000000000000000000069
:1090D00000000000000000005273702053656E74A1
:1090E000004A69616F475F4F4E00546F6E465F4F95
:1090F0004646005375636365737300FF000000000C
:10910000000000FFFFFFFFFFFFFFFF000000000067
:10911000000000506172656E743A00FFFFFFFFFFB0
:10912000FFFFFF546F6E465F4F4E00FFFFFFFFFFD4
:10913000FFFFFF526F757465723A0005080500085D
:1091400001744661696C6564005A595F4F46460078
:109150005A59425F4F4E005A594B5F4F4E00464D91
:109160005F4F464600494545453A200042475F4F1C
:1091700046460042475F4F4E0000000000000000DE
:109180000003000700464D5F4F4E0082003A003B4F
:109190000003000600040011121314154332453277
:1091A00000433245310053656E7400140000000125
:1091B000000080000000FF0B000000FFFFFFFFE940
:1091C000030000000000004D415800FEFFFFFF9724
:1091D0005118001900000064000000F40100003C78
:1091E000000000E71F0300F8FF000019E0FCFF0487
:1091F00000000000E1F5050000FF00B80B000015BD
:10920000000000102700000A00000000FF0000FF1F
:10921000000000E204000058020000BC0200000050
:109220000002000000010000F8FF0760EA0000E80B
:109230000300000100000088130000983A0000C8F5
:109240000000003200000040010000300000004536
:1092500072003A2000300032004F0021003A000036
:1092600000000043000BC082C083122769901AD906
:1092700074F1F0A3741DF0901ADB74F7F0A3741D61
:10928000F0901ADD74FDF0A3741DF0901ADF7403E2
:10929000F0A3741EF002CD3A74F71203EDE9FE90CC
:1092A0001ACBE4F0EE901ACAF0901DCB12BE491210
:1092B000D0167C9C7D1A7ACE7B1A1213EF901DCDAE
:1092C000E0901AD6F0901AD77487F0A3741A02A30C
:1092D0009574F01203EDEAFEEBFF548070030294E4
:1092E00043901ACAE0F91212818A088B09EA4509EB
:1092F000700302943CEA241B12C8D0707CEA241F3D
:1093000012C8D064137002A3E0706E8A828B83123D
:1093100094B2901AE912CEAD750A00750B00800D5B
:1093200012A20412D0161212FFAA0EAB0FEA4B6063
:10933000488A828B83E0650C7004A3E0650D702C75
:109340008A828B83A3A3A3A3E0F50EA3E0F50FE528
:109350000A450B8A828B83A3A3A3A360C312B0A682
:10936000850A82850B83A3A3A3A380B78A0A8B0BEC
:109370008A828B8312CEA980B4E508242A12C8D031
:10938000FCE5082402F8E43509F9E8FAE9FB901A4B
:10939000E9E012BFE5E0640270358A828B8312CE69
:1093A000AD80078882898312B0A2E849601C888258
:1093B0008983E06A7003A3E06B70E888828983A3E5
:1093C000A3E06C70DE1294A7806BECF9121E2D8561
:1093D0000882850983E06401704FE508241812941F
:1093E0009A12095012D9D212076CE508241212946D
:1093F0009A120950E50812AFFE12094CE508240B39
:1094000012D9D6120774E508241712AA2FE50824EA
:1094100002FCE43509FDE5082419FAE43509FB12DC
:1094200028BF740A12097A800CE064027007AA0847
:10943000AB09121F4DAA08AB0912126FEEFAEF64C6
:1094400080804DEEA2E05013901AE112C4726006C3
:1094500012EDB21205BEEE640180335402600C902E
:109460001DE67401F0EE6402FA802CEE54086023CD
:10947000121E278B09EA45097011901AEB12D429A4
:109480007A08FB901ACAE0F91213C5EE6408FAEFE5
:10949000FB80047A007B0002E10EF582E43509F5D9
:1094A00083E0F50A780A22901DD312CBFBA3A3A375
:1094B000F022A3A3E0F50CA3E0F50D2274F412034F
:1094C000EDEA4B901AE1602412BC6D8A088B09E426
:1094D000F50AF50B78081209447A017B00901ACA44
:1094E000E0F91213B9740412097A800FE4F0A3F0C2
:1094F0007A01FB901ACAE0F91213C50295DD74F4E3
:109500001203ED8A088B098A828B83A3A3A312BC62
:109510002E12AC6638F583E02409FA7B001212693A
:109520008A0A8B0BAE0AAF0BEE4F70030295C88E02
:10953000828F83740212BC9085088285098312B7DA
:1095400024E8F0A3E912DA9DA3A3A3A3A3A3A3F0A5
:10955000E5082403F8E435091295CD12AC663AF516
:109560008312A689F0EE2409FAE43FFB8E828F83F2
:10957000A3A312CEDEF5838882E0A2E58E828F83DC
:10958000A3A3A3A3A3500474018001E4F0E508247D
:1095900003F88882898312CEADEA12C4033BF583B7
:1095A00012F2B412094812AC653B12CE748E828F4F
:1095B0008312CEAB121239740312097AEEFAEFFB62
:1095C000901ACAE0F91212758013F8E43FF9888204
:1095D0008983E0FAA3E0CA22740212097A7F0402A6
:1095E000065D74F21203ED8A088B09ECFAEDFB7448
:1095F0000E120C6EE0FC12281D8A0C8B0DAE0CAF07
:109600000DEE4F6030AC08AD091219E3E96026ACED
:1096100008AD09EEFAEFFB1228C5E970148E828FAF
:109620008312B14FFAEFFB122751AA08AB09122897
:10963000057900800279B402BF3474F01203ED742E
:10964000F6120A12EAFEEBFF8C088D09750FB3853E
:109650001082851183E4F0750E008002050E902FB4
:109660007AE493F8E50EC3984003029769AA0E7B4B
:1096700000120C998A0A8B0BEA450B60DF8A828BF9
:1096800083A3A312977028F0F8C3EE98EF940050CC
:10969000CB7C157D007900AA08AB0912124B850A14
:1096A00082850B83A3A3A3A312CF53E0F8EEC39844
:1096B0002925E0F8E433F9E50A28F582E50B39F5C8
:1096C00083A3A3A3A3A3A312AC7CA3A3A3A3A312CA
:1096D000D0161221F98A0C8B0DAC0CAD0DAA08AB7B
:1096E000091213EF850A82850B83A3E06401700AD7
:1096F00012D9D2740112AC90804474011209F2851F
:109700000A82850B8312CEAB120C81E9603D74098D
:10971000120C6EE0C0E012D9D2D0E0F07409120C45
:109720006EE06403701374011209F2E508240BFA69
:10973000E43509FB1213EF80127401120C6E12B0A3
:10974000A6E50812C9F8350912D014850A82850BDE
:109750008312D9DE12AC90A3A3E0C0E0E508241484
:1097600012D9D6D0E0F0750F00A90F740A02E10BF0
:10977000A3A3A3E0F8851082851183E02274F71279
:1097800003EDE9FE8A828B83A3A3A3A3A3A3E054E2
:109790000860338A828B83A3A3A3A3A3A3E054020C
:1097A00060218A828B83A3A3A3A3A3A3A3A3A3E083
:1097B0006406600F74E96E600A74CD6E600574F023
:1097C0006E7003121E0F02B82074F01203ED74EFD6
:1097D000120A12740F120C6E12BD517408120C6E24
:1097E000E9F0ECFEEDFF7405120C6EE4129E6012BF
:1097F0009ADF1228117406120C6E12BD51740612F3
:109800000C6E12C4727003029A8C12AF1DE0FA74CF
:1098100006120C6EE0F9121C8F85108285118312DE
:10982000E530F8A3E0F9E8497003029A8CEE2403CE
:10983000F50AE43FF50BEE2406F508E43FF5097C54
:1098400000850882F58312CEAD850A82850B83E000
:10985000F912280B7403120C6E12BD51850A828511
:109860000B83E0C0E0851082851183129AEDD0E071
:1098700012C576F985108285118312A21712C0C213
:10988000129773FAA3E0CA2407F582E43AF583E855
:10989000F0A3E412D3122406F582E438F583E4122F
:1098A000E42C12BC1F120948EE12AC663F12CE74B3
:1098B0007403120C6E12BC2E12A45E12CEAD1212E4
:1098C00039740312097A7429120C6E12CF49129559
:1098D000D212C5893A12D014742B120C6EE0C0E07B
:1098E00085108285118312C437D0E0F07402120C07
:1098F0006EE4F07425120C6E7808120BFA0299E2ED
:109900007403120C6E12CFFD88828983129AD4A33D
:10991000A3A312CA30FB120C87850E82850F83A386
:10992000EAF0A3EBF07403120C6E129AEDA3129AF4
:10993000D412CC38A2E6500F850E82850F83A3A3E4
:10994000A3A3A3E0D2E1F07405120C6EE0706A8567
:109950000E82850F8312B0A5901B49E0687003A3A7
:10996000E0697055850E82850F83A3A3A312A82DED
:10997000750C00780C1209507808120944742912E9
:109980000C6EE0F50C780C1209507427120C6E1254
:109990000774901B5612077479007419120C6E121A
:1099A000BE15121FA1740A12097A850E82850F83D3
:1099B000A3A3A3A3A3E04405F07402120C6EE00479
:1099C000FC8E828F83A3A3A3A3A3A3E0129ADF122A
:1099D000280B7403120C6E12BD517402120C6EE04F
:1099E00004F07403120C6E12C47260687402120CDC
:1099F0006EE0FA7406120C6E12B0A6C3EA98E499EF
:109A000050527402120C6E129E1D851082851183B5
:109A1000E028F8A3E039F9E8240FF50EE439F50F52
:109A2000850E82F583E4F07403120C6E12E508E0F3
:109A3000640160030299007405120C6E740112E057
:109A4000F5F07403120C6E12CD2A129E41E8F0A3B9
:109A5000E902992485108285118312CEAD121C95DE
:109A60008510828511831207747426120C6EE0FD36
:109A70007425120C6EE0FC740A120C6EE0F9EEFA1A
:109A8000EFFB121E09740212097A80438E828F83C3
:109A9000A3A3A3E0C0E0740C120C6ED0E0F012DDC2
:109AA000C9E0C0E0740D120C6ED0E0F07406120C28
:109AB0006E12C4727009740E120C6E74B980077441
:109AC0000E120C6E7410F074091209EA121F9B74C6
:109AD0001102E10BE0850E82850F83A3A3A322FA76
:109AE000A3E0FB8E828F83A3A3A3E0F922E012D22E
:109AF000FBA3A3A32274F01203ED74E0120A127404
:109B000005120C6EE9F07404120C6EECF074031282
:109B10000C6EEDF08A0E8B0F7430120C6E1294B432
:109B2000AA0CFB121C837401120C6EE9F0AA0CAB98
:109B30000D121C897402120C6EE9F07401120C6E85
:109B4000E07003029E18851082851183E480158ED3
:109B5000828F83A3A3A3A3A3E0D2E3F08510828521
:109B60001183E00412DE10F8851082851183E0C3B2
:109B7000984003029E0F7401120C6EE07003029E67
:109B80000F851082851183129E1DE50C28F8E50DC6
:109B900039F9E8240FFEE439FF8E828F83A3A3A353
:109BA000A3A3E0A2E040B5C2008E828F83E070469E
:109BB00012CEAC121B638A088B09A808A909E849D0
:109BC000603488828983A3A3A3A3E06401600D8825
:109BD000828983A3A3A3A3E06403701A8E828F8378
:109BE000A3A3A3A3A3E0D2E7F0D2007402120C6EE9
:109BF000E07003029B5C750800750A08750B007421
:109C000003120C6EE060037508207C087D0079006B
:109C100074061209EA12124B8E828F83E060409024
:109C20001B99E06401701CE508D2E3F508750B1080
:109C30008E828F8312B0A57406120C6E12CEC6747B
:109C4000FF807C43080C750A0C8E828F83A3129EC2
:109C50003912D0167406120C6E74FFF0A380607473
:109C600005120C6EE06009E508D2E6F508750A0AEF
:109C70008E828F83A3E064FE7003A3E0F4703074DF
:109C800013120C6E7404129E60F8741E120C6EE8AF
:109C900012BC9074131209EA121B0F7D007C00792C
:109CA000007416120C6EAA82AB8312186F80118E8C
:109CB000828F8312B0A57406120C6EE8F0A3E9F04F
:109CC0007408120C6EE508F012AF14C0E0740A12AA
:109CD0000C6ED0E0F0740B120C6E7401F07406126E
:109CE00009EA121F537412120C6EE06003029DE128
:109CF000740E120C6E12C5718E828F83A3A3A3A360
:109D0000F0740E120C6E12BC51E50AF0A3E50BF0D4
:109D10007404120C6EE0C0E012BBFFD0E012CC382D
:109D20006011901B99E0C0E0740E120C6E12BC47DB
:109D3000D0E0F0740E120C6E12B0A6850C82850D68
:109D400083A3A3129E26241C12BD4B12E43C129E38
:109D50002B12CBEE3912DDD6C0E012BBE6D0E012FA
:109D6000DE05C0E0740E120C6E12B718D0E012DAE5
:109D7000C5C0E0740E120C6E12B70ED0E0F0740E77
:109D8000120C6E129E39A3A3129E4D12E0EA129E8F
:109D900026242C12BD4B12AF03C0E012B704D0E052
:109DA000F0740E120C6E12CEAD850E82850F8312EA
:109DB0009E302428F582E43B12D01412AF0C12F22C
:109DC000B412094812CE6DEA12D2AC3BF58312CE22
:109DD000AD121239740312097A74061209EA121FBD
:109DE000598E828F83A3A3A3A3A3E0D2E0F07412C1
:109DF000120C6EE06003029B4FA200500874021226
:109E00000C6EE014F07401120C6EE014029B5B798E
:109E100000AA0CAB0D121E15742002E10BE075F0C8
:109E200007A4F8A9F022A3A3A3A3A312CEB1E8220A
:109E3000A3A3A3A312B0AAEA22E0129E41A3A3A364
:109E400022F8A3E0F9850E82850F83A322E0FAA30E
:109E5000E0FBE8242AF582E439F583EAF0A3EB225B
:109E6000129E642212D7F6E02274F01203ED74E819
:109E7000120A12E9851082851183F08A0E8B0F8AEF
:109E8000828B83A3A3A3A3A3A3A3A3E0F9121CAD76
:109E90008A088B09EA45097003029F3DE50E12B757
:109EA000F812AF3812A901851082851183E0600392
:109EB000029F407C04850E82850F83A3A3A3A3A3E6
:109EC000A3A3A3E0F9121CB3EE4F60718E828F83BF
:109ED00012B0A27407120C6E12D7EA12B0A674095F
:109EE000120C6E12CE92C0E07411120C6ED0E01201
:109EF000DAABA312B0A0740F120C6E12D01674124B
:109F0000120C6EE412E0FDC8241FF582E438F583DC
:109F100012B804C413135403FC70027C048E828FA5
:109F200083E0F9780812094C742059FD744059F9FE
:109F300074031209EA121E09740212097A02E10975
:109F40007C08850E82850F83A3A3A3A3A3A3A3A349
:109F5000E0F9121CB38B0BEA450B7003029EC8EEAE
:109F60004F60DA851082851183E0F50C780C1209B8
:109F700050850882850983A3A3A3A3A3A3A3E0F527
:109F80000C780C1209508A828B83A3A3A3E0FB8A6E
:109F900082850B8312E4EF8A82850B83E0FA8E823E
:109FA0008F83A3A3E0F91228CB740212097A029ED0
:109FB000CC74F71203ED74FA120A12E9FE780179F3
:109FC000017F00800379000F12BFBBE0FCEFC39C50
:109FD0005026EF75F007A4FC85F008AD08EA2CFCCC
:109FE000EB3DFD12B582E0A2E050DA540C60D6E001
:109FF000A2E250D3780080CF8A828B83A3A3A3A34D
:10A00000A3A3E0703DE9A2E0400574016E70338ABD
:10A01000828B83A3A3A3A3A3A3740112B5ECE0C016
:10A02000E07403120C6ED0E012B5E4E0C0E07404FA
:10A03000120C6ED0E0F07405120C6EE812D05012C3
:10A040001F9B740602B81DC082C0837901121E15C1
:10A0500002CD3A74F41203EDEA4B901DE66022E45F
:10A06000F08A088B09F50AF50B78081209447A0280
:10A070007B00901ACAE0F91213B9740412097A80AD
:10A080000F7401F07A027B00901ACAE0F91213C52E
:10A090000295DD74F01203ED74F3120A12740312C8
:10A0A0000C6EE4F0A3F0901AE912A9017401120CED
:10A0B0006EE4F0A312BC8304F0901B43E0A2E350D3
:10A0C0000302A18E1213D7EAF8EBF9ECFAEDFB7458
:10A0D00009120C6E120C3F7409120C6E7808120BE8
:10A0E000FA901AEB78081209FA7405120C6E7808C7
:10A0F000120BEB12A20B7405120C6E7808120BBB3C
:10A1000050077A017B0002A1FF7405120C6E780CD7
:10A11000120BFA901DD2E0F509780C790812037E33
:10A12000A80CA90D901DD3E0C398E4995003E080DA
:10A1300001E8851082851183F07409120C6E78088D
:10A14000120BFAC008C009C00AC00B7405120C6ECD
:10A15000780C120BFA12A20B780C790812037EE429
:10A16000F50AF50BD00FD00ED00DD00C780C790875
:10A17000120A7D901AEB780C120BEB801112A204DC
:10A1800012D016EEFAEFFB1212FFAE08AF09EE4F37
:10A1900060658E828F83129770C398502DEE2403D2
:10A1A000F8E43FF9E0FA88828983E0C39AF06023FB
:10A1B0007403120C6E12B2C97401120C6EEEF0A38D
:10A1C000EF12D31AFEA3E0FF80C48E828F83A3A375
:10A1D000A3E4F08E828F8312F2787401120C6E1257
:10A1E000C4728E828F83A3A3A3A3609112D7BC12E3
:10A1F0000C6E12A21780897403120C6E12CEAD740D
:10A200000D02E10B12B0AA901AE922901DD112F2B0
:10A2100080E4F50AF50B2212A21EA3A3A322E0FA02
:10A22000A3E0F5838A82A32274F01203ED8A088BDF
:10A2300009890A78007900901AE912A90112BDFA79
:10A24000601E088E828F83A3A3A3A312BDFD60109E
:10A2500008E87001098E828F8312A8FDEE4F70E32B
:10A26000901DD412CEADC3E89AE99B400302A31916
:10A270007A067B001212F98A0C8B0DA80CA90DE846
:10A2800049700302A31988828983E508F0A3E509D0
:10A2900012B5FBA3E50AF01294A788828983A3A3D1
:10A2A000A3A3E4F0A3F012BDFA600D8E828F83A306
:10A2B000A3A3A312D016801F901AE912D016901BE8
:10A2C00043E0A2E340111213D7EAF8EBF9ECFAED00
:10A2D000FB901AEB120C3F901B43E0A2E3503A7A3A
:10A2E000087B00901ACAE0F91213CBEA4B4C4D7070
:10A2F00028901DD1E0F508A3E085080CF50DE4F5E4
:10A300000EF50F780C1209447A087B00901ACAE007
:10A31000F91213BF740412097A02E10EC082C083DD
:10A32000E9901DE7F0901AE3744BF0A3741EF090CF
:10A330001AE5745DF0A3741EF0901AE7746FF0A331
:10A34000741EF002CD3A74F71203EDEAFEEBFF89BA
:10A3500008EE4F7003120D9B901AEF12C472700832
:10A36000901AEF801E12B0A688828983A3A3A3A3AC
:10A37000A3A3A3A3A312B0AFA3A3A3A3A3A3A3A325
:10A38000A370E2EEF0A3EF12A399A3A3A3E4F0A3BA
:10A3900012A399E508F002B82012D7F22274F7123E
:10A3A00003EDE9FD901AEF800D88828983A3A3A3B2
:10A3B000A3A3A3A3A3A312C472603488828983A336
:10A3C000A3A3A3A3A3A3E06D70DF88828983A3A3C3
:10A3D000A3A3E06A7003A3E06B70CE88828983A395
:10A3E000A3A3A3A3A3E06C70C0E8FAE9FB80047AFE
:10A3F000007B0002B82074F71203ED901AEF12A947
:10A4000001901AEF129E34687002EB697019E0C86F
:10A4100012A45E12B0A6901AEF12D016901AEF1284
:10A42000A901803012A8F4EE4F60298E828F83A399
:10A43000A3A3A3A3129E30687002EB6970E68A8220
:10A440008B83A3A3A3A3A3A3A3A3A312B724A3A310
:10A45000A312D0161212FFEEFAEFFB02B820240965
:10A46000F582E438F5832274F01203ED74F9120AD0
:10A47000128A0C8B0D8A828B83A3A3A3A3A3A3A30D
:10A48000A3E060336401602F8A828B8312CEAD1209
:10A490002295E97022850C82850D83A3A3A3A3A333
:10A4A000A3A3A3E06403701474021209F2AA0CAB14
:10A4B0000D121EEDE97016790202A67C850C8285CC
:10A4C0000D8312B0A67402120C6E12D016E50C2485
:10A4D0001112E434243412CF421212F98A088B0983
:10A4E000AE08AF09EE4F700302A67A7C347D007986
:10A4F0000012124BAA10AB11850C82850D83A3A309
:10A50000A3A3A3A3A3A3A3E0F912288385108285A4
:10A510001183E0C0E012A681D0E0F0EE242EF50E0B
:10A52000E43FF50F7401120C6EE0850E82850F83F7
:10A53000F07901EEFAEFFB121E39850C08850D0942
:10A54000750A0078081209487C1E7D00EE240BFA7B
:10A55000E43FFB121239740312097AEE2432FAE452
:10A560003FFBEE2434F8E43FF98A828B8312D01645
:10A57000E50C2411FCE4350DFD8C828D8312C0BDE9
:10A58000243012D010E50C12B59412E45112F2A648
:10A590001209488C828D8312E4F08A828B8312CE5A
:10A5A000AD121239740312097A7402120C6E12ACD5
:10A5B0007012D016901ACB12A689A3A3A3F0901AFA
:10A5C000CBE004F01213D78E828F8312B737242C7E
:10A5D000F8E43FF9E8FAE9FB7508FF750900850E14
:10A5E00082850F83E07808120B3E8A828B83E50810
:10A5F000F0EE242B12AA1C7404120C6EE4F0E50C8D
:10A60000241512E434A2E074055007120C6E740194
:10A610008004120C6EE4F0EE2429F508E43FF509FD
:10A6200074041209EA12289BE924FE850882850930
:10A6300083F0EE243012AA2612A6901202A5E88E0C
:10A64000828F83A3A3A3A3A3A3A3A3F012A6901214
:10A6500002A58B09EA4509600F8E828F83A3A3A30D
:10A66000A3A3A3A3A3E004F0EE242012C8C04408CF
:10A6700012AF6C1212AB790080027910740702E1FC
:10A680000BEE12D2AC3FF5832212DAA4A3A3A322CD
:10A690008C828D8312CA11E0FA7B002274F41203BB
:10A6A000EDEAFEEBFF1213D78E828F8312BD51901D
:10A6B0001DC7E0F8EE242D12C8C0C398400302A8BD
:10A6C0000A12A81C7012EE242D12C8C00412C00475
:10A6D000C0E012AA12D0E0F012BFC3FA79008001E4
:10A6E00009EE242E12C8C0F8E9C398502675080157
:10A6F000750900E97808120B3E12A81C550860E0A5
:10A70000E92AFA750801750900E97808120B3EE09C
:10A710004508F0EE242912C8C0FBEE2430F582E48F
:10A720003FF583EA8BF0A4F8ACF0E42CF9E098F85C
:10A73000A3E099F9EBFCC3E89CE99400EE403124D6
:10A740002912C8C0F812A81C602C12A68112A82DCC
:10A75000A3E4F0EA7047EE242012C8C0442012CED1
:10A7600096C0E012BFF2D0E012BFFCFCA3E080551F
:10A7700012AA1374FFF0901B39E0FC901DCA12A8B6
:10A7800024ADF075F064A4FCABF075F064EDA42B7F
:10A79000FD8E828F83A3A3ECF0A3ED80B5EE242081
:10A7A00012C8C054DF12BFEDEAF0FCEE2429F58296
:10A7B000E43FF58312A824FCADF0EE243212C8C0A9
:10A7C0002CFCA3E03DFD12DDE6ECF0A3ED12D9F385
:10A7D000C0E0EE2425F582E43FF583D0E0F0EE24DE
:10A7E0001CF582E43FF583E812BC90901AF112C484
:10A7F00072600BEAF912EDB21205BEE9701BEE248D
:10A800000BFAE43FFB121EC3800F7BE912AA3F1232
:10A8100028D1EEFAEFFB121E450295DDEE242B1235
:10A82000C928F422E0F508EC8508F0A42212DAA485
:10A83000A3F02274F41203ED901AEF12A90112137F
:10A84000D78A0A8B0B78FF79FF8020E0C39AFCA39C
:10A85000E09BFDC3EC98ED99500E8E828F83A3A3ED
:10A86000E0C39AF8A3E09BF912A8F4EE4F60598E6A
:10A87000828F8312CEADE50AC39AFAE50B9BFB8E5D
:10A88000828F8312E4EEC3EA9CEB9D8E828F83A3BA
:10A89000A340B8A3A3A3A3E06402701712AF29607A
:10A8A0000912AF1D12CEAD12126FEEFAEFFB121E9F
:10A8B000458007EEFAEFFB121E517A017B00901DD6
:10A8C000E7E0F91212AB802974FF68700374FF6926
:10A8D000601F88088909E4F50AF50B780812094415
:10A8E0007A017B00901DE7E0F91213B97404120994
:10A8F0007A0295DD8E828F83A3A3A3A3A3A3A3A330
:10A90000A3E0FEA3E0FF2274F31203ED8A088B0993
:10A91000ECFAEDFB890C7C01E508241112AA2F1238
:10A920001E3F8A0A8B0BAE0AAF0BEE4F700302AAD2
:10A930000DE50C600302AA0D12D9D212AA39686083
:10A940000302AA0D12BFB112C8E38E828F83A3A3A4
:10A95000A3A3A3A3A3A3E0FAE89AE99400C365D054
:10A9600033401CE508241412C8D0F470127B001286
:10A97000AA3F1228D1EEFAEFFB121E4502AA0DE5FE
:10A9800008241412C8D0F47043EE242BF8E43FF9E5
:10A99000E8FAE9FBEE242E12AA267508FF750900D5
:10A9A0008C828D83E07808120B3E8A828B83E508C7
:10A9B000F0EE242C12AA1C8C828D8312AA3928F066
:10A9C000EE242DF582E43FF583E48021E50824148C
:10A9D000F8E43509F9E0C0E0EE242CF582E43FF517
:10A9E00083D0E012CEB7C0E012AA12D0E0F012136A
:10A9F000D78E828F8312B73712A68212C8D9A312BC
:10AA0000BC907A01FB901DE7E0F91212AB7F0502C2
:10AA1000065DEE242BF582E43FF58322F582E43FC8
:10AA2000F583E508F022F8E43FF9E8FCE9FD22F5BA
:10AA300082E43509F583E0F922E0F812BFC722EE7F
:10AA4000242212C928FAEE241412C928F92274F01B
:10AA50001203ED74FB120A127403120C6E12BC6D19
:10AA6000E9851082851183F08A0A8B0B8A828B8399
:10AA7000A3A3E0F91228A78A0E8B0FEA450F7007EF
:10AA80007A007B0002AC577A127B001212F98A0816
:10AA90008B09EA4509700302AC537C127D007900F2
:10AAA00012124B74011209EA850A82850B83A3A353
:10AAB000E0F9122883E508240FFEE43509FF74024B
:10AAC000120C6EE08E828F83F07902AA08AB091215
:10AAD0001E397403120C6E12D2F612AC7C12AC8AC0
:10AAE000241112AC5C850882850983A3A3A3A3A3C8
:10AAF000A3A3F0750CFF750D008E828F83E0780C98
:10AB0000120B3EE508240C12D9D6E50C12E0E51232
:10AB1000EDB0E0C0E0E508240B12D9D6D0E0F0E5B6
:10AB20000A12AC6612AC5FFAE508240D12D9D6EA17
:10AB3000F0E50A12B59412AC5F8AF0A4A9F02427BC
:10AB4000FAE439FB1212698A0C8B0DAE0CAF0DE5DD
:10AB500008241012D9D612B5C9EE4F700302AC46C4
:10AB60008E828F83741A12BC908E828F83A3A3F07F
:10AB7000A312AC9E12AC7012D7E4120C6E12E4F069
:10AB800012DDEE122889850A82850B83A3A3A3E038
:10AB9000C0E012C8C4D0E0F0901B5612C0BD241013
:10ABA00012AC8412B560350BF58312C0BD12D045CE
:10ABB000E8F0A3E912AC9E12C0B912DDCAE8F0A316
:10ABC000E912AC90E0C0E0EE2414F582E43FF58396
:10ABD000D0E0F0E50A240C12AC5CC0E0EE12B560E7
:10ABE0003FF583D0E0F07415120C6E12CC01E0C07A
:10ABF000E012E1EFD0E012D9EEC0E012DDBDD0E00E
:10AC000012B5F5C0E012BC09D0E012C477C0E01262
:10AC1000BBF0D0E0F07417120C6E120C4BEE241A3D
:10AC2000F582E43FF583120C3FEE2427F8E43FF968
:10AC3000EE242212AC8412CE9B12AC5FC0E012DD77
:10AC4000F6D0E0F0800DAA08AB09121E4575080089
:10AC5000750900AA08AB09740502E10BF582E43519
:10AC60000BF583E022EA12AC6A222410F582E4227A
:10AC700012AC742212BE0BA3A3A3A32212CA11A367
:10AC8000A3A3A322F582E43FF58312BCACE50A221C
:10AC900012AC9422F0850A82850B83A3A32212AC06
:10ACA00094A3A3A3A32274F01203ED74FE120A125C
:10ACB00085108285118312BC6D8A0E8B0F890DC29F
:10ACC00000EA12AF2FE0F50C901AF112C472600E78
:10ACD000A90C12EDB21205BEE9600302AEFE7C02C1
:10ACE00012AF4B12AF03F9121E3F8A088B09AE0850
:10ACF000AF09EE4F7058850E82850F83A3E0A2E066
:10AD0000400302AEFE7414120C6E12076C7416121D
:10AD10000C6E120774A90D7406120C6E12E4F0AAE0
:10AD20000EAB0F121E63740612097A8A088B09AEE5
:10AD300008AF09EE4F700302AEFE8E828F83A3A38D
:10AD4000A3A3A3A3A3A3E50C12AF6C1212ABAA0C8E
:10AD50008E828F83A3A3A3A3A3A3A3A3E024FFF8BE
:10AD6000E434FFF9E86A497002D20012AF29700397
:10AD700002AEBA850E82850F83A3E0A2E050037570
:10AD80000C0012AF59E50C98E499C365D033401C10
:10AD9000E0F8EE240E12C8C02CF07508FF7509000B
:10ADA000E87808120B3EEE240C12AA1C12AF0C120B
:10ADB000F2B412094812CE6DEE240D12C8C0F50887
:10ADC000E50C8508F0A4FAABF012BC2B2422F58226
:10ADD000E438F583E02AFAA3E03BFB12123974034E
:10ADE00012097A75080112AF3D7808120B3E12C89D
:10ADF000BD4508F0A200506DEE240CFAE43FFB754F
:10AE000008FF12AF3D047808120B3E8A828B83E064
:10AE1000450812BC7BF8E50CF508E88508F0A4F8B5
:10AE2000A9F012AF14FCE82CFCE439FD12BC2B2471
:10AE300020F582E438F583ECF0A3ED12CD30F47008
:10AE400024EE240BF508E43FF50912AF1D12CEAD38
:10AE5000850882850983E0F91212758508828509C3
:10AE60008374FF80541213D78E828F8312BD51904A
:10AE70001B39E0FA901DCAE0F508EA8508F0A4FA4B
:10AE8000ABF0F8EBF9901DC7E0F508E88508F0A4F1
:10AE9000F8ACF08508F0E9A42CF9EA28F8EB39F9C8
:10AEA000E875F064A4F8AAF075F064E9A42AF98EB4
:10AEB000828F83A3A3E8F0A3E9F0AA0C12AF591282
:10AEC000E13AE86A7001E9600CEE240C12A81F60F8
:10AED00004A2005029EE240E12C8C0C0E0E50E12F4
:10AEE000AF2FD0E0F012C8BDC0E0E50E241412AFC1
:10AEF00035D0E0F0AC0EAD0F12AF4B121EB17402A4
:10AF000002E10BE50E241112AF35E022E50E240E0E
:10AF100012AF3522E50E241012AF35E02212AF2118
:10AF200022EE12AC6A3FF5832212D7A4E0F4222469
:10AF30001312AF3522F582E4350FF583227509002F
:10AF400012C925F5F0E50C84E5F022851082851103
:10AF50008312D058FAA3E0FB22EE240E12C928F87F
:10AF600012C925FCE82CF8E43400F922F07A017BC0
:10AF700000901DE7E0F922C082C083901DE7E0F950
:10AF800012127502CD3A74F41203EDEAFEEBFF548F
:10AF900080704BEEA2E0505F121E57EE6401FAEF94
:10AFA00080528A828B83E06401702CEA12D9D41219
:10AFB000076CEA12AFFE12094CEA241212AA2FEA19
:10AFC0002402FCE43509FDEA2419FAE43509FB12F0
:10AFD0001E69740612097AAA08AB0912126F901D35
:10AFE000E7E0F91212818A088B09EA450970B3EE8D
:10AFF000FAEF6480FB80047A007B000295DD240F69
:10B00000F50AE43509F50B780A2274F21203ED898A
:10B010000B8A088B098A828B8312CEAD121E818B1C
:10B020000DEA450D600479B88073121E8DE9F89021
:10B030002F7DE493F9E8C399400479B2805F7A15D3
:10B040007B001212F98A0C8B0DAE0CAF0DEE4F7017
:10B0500004791080488E828F83E4F012B0B9E50B3A
:10B06000F0750A0078081209487C127D00EE24036E
:10B07000FAE43FFB121239740312097A901AF312A0
:10B08000C4727008901AF3800C12B0A6888289836B
:10B0900012B0AF70F412B5C9121E9F790002BF340E
:10B0A000A3A3A3A3A3A312B0AA2212E104F922121C
:10B0B000CEB1EA4B8882898322A312DA76A322C01A
:10B0C00082C083901AF380048C828D8312E4F0ECAA
:10B0D0004D60288C828D83A3A3E069600574FF69AD
:10B0E00070E68C828D83A3A3A3E06A7003A3E06B58
:10B0F00070D6EC2403FAE43DFB80047A007B000266
:10B10000CD3A74F71203EDE9FD74FE6D70047C0115
:10B1100080027C00901AF380096D70027C018882A5
:10B12000898312C472601F88828983A3A3A3E06A03
:10B130007003A3E06B70E7ECA2E088828983A3A38D
:10B14000E050D6F9800279FE02B820EEF9800CA317
:10B15000A312F280EE22740212097A7F0202065DC7
:10B16000C082C0837900901AF380010912CEAD8AA3
:10B17000828B83E582458370F202CD3A74F6120326
:10B18000EDE4F508F509780812094C902F7DE49359
:10B1900075F013A4A9F012B2BE1213717402120951
:10B1A0007AE9FE74096E7003121E9902B14B74F6AF
:10B1B0001203ED74FE120A12851082851183E4F0E9
:10B1C000A3F0A810A91188088909780812094C75FC
:10B1D0000802750900780812094C7C007D007A424B
:10B1E0007B0012137D740412097A02B15674F512B1
:10B1F00003ED74EB120A12851082851183E4F0A32B
:10B20000F0901AF3807D8E828F83A3A3E0C0E07458
:10B2100002120C6ED0E012B0BAA3A982AA838908E8
:10B220008A09750A0078081209487C127D007406A4
:10B23000120C6EAA82AB83121239740312097A744B
:10B24000021209E288088909780812094C75081366
:10B25000750900780812094C7404120C6E12C41F90
:10B2600075F013A4F8AAF075F013E912B2BA12132C
:10B270007D740412097A85108285118312B2C98EF9
:10B28000828F8312A901EE4F600302B206A810A9B3
:10B290001188088909780812094C75080275090097
:10B2A000780812094C7C007D007A427B0012137DE5
:10B2B000740412097A741502E5EAA42AF9E8240252
:10B2C000FCE439FD7A427B0022E02401F0A3E03463
:10B2D00000F02274F41203ED74EB120A127E007F68
:10B2E00000A810A91188088909780812094C750866
:10B2F000028E09780812094C7C007D007A427B009E
:10B30000121383740412097AE9706E8E08805874DF
:10B31000021209E2880A890B780A12094C750A138D
:10B32000750B00780A12094CE50875F013A4F8AA09
:10B33000F075F013E50912B2BA12138374041209FE
:10B340007AE9701B7403120C6EAA82AB837402122A
:10B350000C6EE0F9121E7BE970050EEE70010F0510
:10B3600008E5087002050985108285118312B0A6D0
:10B37000C3E50898E509994096EEFAEFFB741502CB
:10B3800095DA74F61203ED8C828D83A3A312B5BBFC
:10B39000F0EA12D2B23BF583E0C0E012B58CD0E007
:10B3A000F012B56612B0A612B57012B5BBA3F0A329
:10B3B000F0EA241FF582E43BF58312A901EC12B5F3
:10B3C000603DF58312B5C912EBAC3BF58312B59A1B
:10B3D000A3A3A3A3A3A312B5C588828983E0FE8C8F
:10B3E000828D8312B5DC74035EFEC39403400302B6
:10B3F000B553EE600874026E600302B47D8C828DDA
:10B4000083E0540CFE740C6E700302B4BCE0A2E442
:10B41000400D88828983E08C828D83A312B60074EC
:10B42000086E600302B4BC12B57A7401F08A828B94
:10B4300083A3A3A3A3A312C8DD70128C828D83E023
:10B44000440C12B5E4A3A312B59A12B5C58C828D33
:10B4500083E0A2E4402712B5A412B5CF500109122F
:10B46000B5A4A3A3A3A3A3A3F0A3EF12B5F58C8265
:10B470008D83A3A3A3F0E82403F8500109888289EF
:10B4800083E0C0E0EC2411F582E43DF583D0E012C6
:10B49000B5DC8C828D83E0A2E7507688828983E0D8
:10B4A000FE8C828D8312B60074FC5E700C8C828DD3
:10B4B00083A3E054036403701F02B55312B57AE40A
:10B4C000F0740C6E600302B42D12B5AA12B5CF4011
:10B4D0000302B44D0902B44D8C828D83A3E0540362
:10B4E000603288828983E0C0E0EC12B5943DF58338
:10B4F000D0E012B6018C828D83E054036402701494
:10B5000088828983E0C0E012B582D0E012B6018063
:10B5100003A3E4F0EC12C4033D12D014EC2410FE9B
:10B52000E43DFF12B566E0F5088E828F83E0C39894
:10B530002508F508F0EA2417F8E43BF988828983A6
:10B54000E0C39508C0E012B570D0E012CEB7C39545
:10B5500008500A12B570E4F012B58CE4F002B15B49
:10B560002415F582E422EA241DF582E43BF58322CA
:10B57000EC240DF582E43DF58322EC12C5893DF5FE
:10B580008322EC2414F582E43DF58322EC12AC6AAC
:10B590003DF583222413F582E422E0FEA3E0FF8C34
:10B5A000828D832212B5AAA3A32288828983E0F523
:10B5B00008A3E0FFE5088C828D8322E4F08C828D65
:10B5C00083A3A3A322A3A3A3A3EEF0A3EFF022A33C
:10B5D000A3A3A3F0A3EFF0E82402F82212B5FBA87E
:10B5E00082A9832212B5ECA3A3A3A322F08A828BA3
:10B5F00083A3A3A32212B5FBA3E02212CEC0A322F1
:10B60000A312B5FB08A9832274F41203ED74F3129C
:10B610000A128A0A8B0BECFEEDFF8E828F83E054B8
:10B620000CF508E0A2E75006E508D2E7F508E508C2
:10B63000D2E1F50812C8DD7006E508D2E4F508E0AD
:10B64000A2E55006E508D2E5F5087C087D00790002
:10B65000AA10AB1112124B7402120C6EE50812E420
:10B6600027C0E07403120C6ED0E012BC83E50AF030
:10B67000A3E50BF07405120C6E12D04E121F53741A
:10B680000C120C6EE070787408120C6E12BC2E1244
:10B69000CE9B3812DBB6C0E07408120C6E12B718DD
:10B6A000D0E012DAC5C0E07408120C6E12B70ED0EA
:10B6B000E0F07408120C6E12B724129E4D12CE9652
:10B6C00012B72A241112C8C0C0E012B704D0E0F0AB
:10B6D000EE241412C8C0C0E07408120C6E12BC2E06
:10B6E0002435F582E438F583D0E012BC73C0E074F1
:10B6F00008120C6E12BC32D0E012D050121F5974D6
:10B700000D0295DAE82432F582E439F5832212BC81
:10B710004212DDAD38F5832212BC422426F582E4C4
:10B7200038F5832212AC74A3A322FAA3E0FBE82429
:10B730002CF582E439F583EAF0A3EBF0EE2274F7FE
:10B740001203ED7E008A828B83A3A3A3A3A3A3A3EA
:10B75000A3A3E06404600302B7F312C581E06003B1
:10B7600002B7F312B7F73B12C470700302B7F38845
:10B77000828983E05403707BE812C58939F583E040
:10B78000FA8C828D83A3A3E0FBA3E0CB2411F58286
:10B79000E43BF583E06A705B88828983A3A3A3A35B
:10B7A000A312B808E06A7003A3E06B704688828930
:10B7B0008312B808A3A3E0FFA3E0CF240612C8C0F9
:10B7C0006A7003A3E06B702B88828983A3A3E0F8DF
:10B7D0008C828D83A3A3E0F9A3E0F5838982A3A3E0
:10B7E000E068600D8C828D8312B802540C64047082
:10B7F000027E01EEF98029EA12B7FC22240FF582BD
:10B80000E422A3A312D05822A3A3A3A312CEB18CE7
:10B81000828D8322740C120C6EE0F9740D12097A79
:10B820007F0102065D74F61203ED74FC120A12EA3F
:10B83000FEEBFFECFAEDFB8A828B83A3E0540360FE
:10B8400016901AE512C47260577900EEFCEFFD12F3
:10B85000EDB21205BE804985108285118312B5C9EB
:10B860007402120C6E12BD51AC10AD117AB77B1E72
:10B8700012218D8A088B09A808A909E84960218846
:10B88000828983A3A3A3A3A3A3A3A3A37406F07A8B
:10B89000008882898312BC2E12D2C7E0F91220CD13
:10B8A000740402B15874F21203ED74F3120A12EA2E
:10B8B000FEEBFF8E828F83A3A3A3A3A3A3A3A3A3C3
:10B8C000A3E0F50A901DE6E0700579BA02BBE375C6
:10B8D0000801750900750C00750D007C087D007964
:10B8E00000AA10AB1112124B7405120C6E740112E7
:10B8F000BC95540460127402120C6EE0D2E612BCC5
:10B900009554087003750803E054106006744045B0
:10B9100008F508E0540860227402120C6EE044C07E
:10B9200012BC955420600A7403120C6EE0D2E080C1
:10B93000087403120C6EE0D2E1F0EE241512C8C0B8
:10B9400012BC137003740169700674084508F50889
:10B950008E828F83A3A3A3A3A3A3A3A3E070161235
:10B9600021FF85108285118312BD517402120C6E65
:10B97000E0D2E2802C640F70107402120C6E12BCC4
:10B980009D74044508F508807B8E828F83A3A3A352
:10B99000A3A3A3A3A3E064028E828F83700612CEBA
:10B9A0008AF08060A3A3A3A3A3A3A3A3E06403706E
:10B9B0000DAC10AD11EEFAEFFB121EED80468E823B
:10B9C0008F83A3A3A3A3A3A3A3A3E06401703590D3
:10B9D0001B99E060107402120C6E12BC9D75091068
:10B9E000750AFF80187402120C6EE0440C12BC83BE
:10B9F00074FDF0A374FFF074044508F5088E828F7F
:10BA0000831294B4EE241512C8C0A2E0503F740211
:10BA1000120C6EE0540C701B8E828F8312CEAD120E
:10BA2000199BE9700579BB02BBE37402120C6EE04E
:10BA3000D2E5F0EE241512C8C0A2E0501074021234
:10BA40000C6EE0540C64047004E0D2E5F0EE2411B6
:10BA500012C8C0C0E07404120C6ED0E012D05012B4
:10BA60001F53740C120C6EE0600302BBDC740812EE
:10BA70000C6E12BC51E508F0A3E509F012BC09E018
:10BA8000C0E012BBFFD0E0F012BBF0E0C0E07408F1
:10BA9000120C6E12BC2E12B59438F583D0E012CE83
:10BAA0009664017011901B99E0C0E07408120C6E4E
:10BAB00012BC47D0E0F07408120C6E12C0BD12BB6D
:10BAC000FAFAE8241CF582E439F583EA12BC90EE18
:10BAD0002415FAE43FFB8A828B8312E4F0E812CB50
:10BAE000EE39F58312BC6DEE241C12C8C0C0E01202
:10BAF000BBE6D0E012CD3012BC1370037401697044
:10BB0000137408120C6E12C571FAEE241D12C8C00F
:10BB1000F9121CB98E828F83A3A3A3A3A3A3A3A30B
:10BB2000A3E0C0E07408120C6E12B718D0E0F074F5
:10BB300008120C6E12B70EE50AF07408120C6E12A1
:10BB4000C41F2428F582E439F583E50CF0A3E50D44
:10BB500012BC7B129E4E12C92012B72A12BBFAC029
:10BB6000E0E82433F582E439F583D0E0F0EE241BDD
:10BB700012C8C0C0E07408120C6E12BC32D0E0F0E3
:10BB8000EE241A12C8C0C0E07408120C6E12BC2E4B
:10BB90002432F582E438F583D0E012BC7312BC1F66
:10BBA00012094812DDB312E4F0740B120C6E12CEBF
:10BBB00082121239740312097AEE241512C8C05485
:10BBC000406012901B0912C472600AAA10AB1112D5
:10BBD000EDB21205BEAA10AB11121F59740C120C53
:10BBE0006EE0F902BF2FE82420F582E439F58322C4
:10BBF000EE2419F582E43FF5832212DDC2E022E84B
:10BC00002412F582E439F58322EE2418F582E43F0C
:10BC1000F583225480F8A3E05401F974806822F57A
:10BC200008A3E0F509750A0078082212AF2112BCBA
:10BC3000422212BC422434F582E438F58322A3A3C5
:10BC4000A3A312E104C82212BC4212B56038F583E6
:10BC50002212C42312B7FC39F58322E0FC8A828BBE
:10BC600083E02CFCA3E03400FD8A828B83ECF0A3FC
:10BC7000EDF022F0EE241312C92822F0EE240D126A
:10BC8000C92822F08510828511832212C4507404C1
:10BC9000F0A3E4F022F0EE241512C92822E0D2E34A
:10BCA000F012BCA5228E828F8312CF51E8F0A3E957
:10BCB000F02274F71203ED8A828B83A3E064017093
:10BCC000047E6380027E648A828B83E0600D790546
:10BCD000122013E9F8EEC39824F3FE901B41E060B4
:10BCE0000CF9122013E9F8EEC39824F2FE02B7F320
:10BCF00074F61203ED74FE120A1285108285118308
:10BD000012BD51E9FEECFAEDFB90032D12C47260F6
:10BD100035A810A91188088909780812094C7D01F5
:10BD2000740E120C6EE0FCEEF990032D12D2F61296
:10BD300005BE740212097A8B09EA4509600479008C
:10BD4000800679B2800279B602B156F582E439F5FF
:10BD500083EAF0A3EBF02274F71203EDE9FE901AE8
:10BD6000D912C472601F7409120C6EE0F5087808CD
:10BD7000120950EEF9901AD912D2F61205BE7401CA
:10BD800012097A800279B602B82074F71203ED899D
:10BD900008ECFEEDFF79B5E508245F600C14603116
:10BDA00014601224F86045804E901ACC12BE03E84D
:10BDB000F0A3E9801990032F12BDFD603A90032F84
:10BDC00012D2F61205BE8E828F83EAF0A3EBF080CA
:10BDD00024901ADB12E4F0EC4D601CEEFCEFFD90B9
:10BDE0001ADB12D2F61205BEE9F9800B901AD712AF
:10BDF000BE151213EF790002B820901AE912CEB1E5
:10BE0000EA4B2212BE072212BE0B22E0F8A3E0F991
:10BE10008E828F832212E4F4EEFAEFFB2274F71283
:10BE200003EDE979B5245F600624F6600E80178C77
:10BE3000828D8312BE4912D0168009901AD712CE75
:10BE4000AD1213EF790002B82012B0AA901ACC22DA
:10BE500074F11203EDEAFEEBFF8C0A8D0B750801FD
:10BE6000901B49E06E7003A3E06F70141221F98AF1
:10BE70000C8B0DAC0CAD0DAA0AAB0B1213EF806648
:10BE80001222058A0C8B0DEE650C7003EF650D70A8
:10BE900009AA0AAB0B12220B804CAC0AAD0BEEFACE
:10BEA000EFFB121AEBE9F508901AA9E07038122797
:10BEB000FFE97032E508702E901AFDE06E7003A362
:10BEC000E06F7022EE4F601E750CF5750D1A750E41
:10BED00000780C1209487C087D00AA0AAB0B1212EC
:10BEE00039740312097AA90802EE9474F21203ED70
:10BEF000EAFEEBFF8C088D09750A011221F98A0C04
:10BF00008B0DAC0CAD0DEEFAEFFB1213E9E96401F9
:10BF1000700B901B4912CA0D12D016800EAC08ADE2
:10BF200009EEFAEFFB121AF1E9F50AA90A80057485
:10BF30000D12097A7F0602065D74F61203EDEAFE21
:10BF4000EBFF7A0D7B001212F9EA4B6061EE2424BC
:10BF500012E143F0EE242512E143A312BFED12E1FA
:10BF600049A3A312DDCE12BFD2F012BFC312BFDBB2
:10BF7000E8F0A3E912C00412BFDBA3A312D016128B
:10BF8000BFB112BFD2A3A3A3A3A3F0EE243312C860
:10BF9000C0C0E012BFBBD0E012DBBA12BFE5A3E81D
:10BFA000F0A3E912BFFCC0E012C581D0E0F002B1FD
:10BFB0005BEE242EF582E43FF58322EA12C9FC3BB6
:10BFC000F5832212BFC722EE242AF582E43FF583CF
:10BFD000E022E08A828B83A3A3A32212BFDF221276
:10BFE000DF23A3A32212BFDFA3A3A3A322F012BFC8
:10BFF000F222EE2426F582E43FF58322F0EE24328D
:10C0000012C92822F0EE242C12C9282274F412033B
:10C01000ED74FE120A12ECFEEDFFEE241612C8C0FB
:10C0200064057010EE2406FCE43FFD121EE7E97083
:10C030000302C0B4AC10AD1112DDEE1219A18510CF
:10C040008285118312C47260678E828F83E06401DF
:10C050007057E875F009A4F8AAF075F009E9A42A68
:10C06000F974FA28F8740639F9E8FAE9FB8A828B40
:10C07000837808120BFA12C16B120BBB4027851094
:10C080008285118312C0BD12C8C512C0C2780812C1
:10C090000BFA9092337808120AF28A828B8378081E
:10C0A000120BEB800779A2800D12D00D790080066B
:10C0B00079A1800279C80295D8A3A3A3A312B0AA3C
:10C0C000EE2212BCAC12C0C922EE2412F582E43F6B
:10C0D000F5832274F21203ED8A0C8B0DECFEEDFF5A
:10C0E00012C8C4E4F0A3F09091BB7808120BFA12C6
:10C0F000C16B120A53606312C162703378B3901B34
:10C1000040E07027901B72E06401701FEE24111252
:10C11000C8C0F9121FFB8A088B09A808A90912D008
:10C120000DE84960047800800278A18808802EE03C
:10C1300060046402700A121EF9E9F5087007801D98
:10C14000E064037010EEFCEFFDAA0CAB0D1219C5F4
:10C15000E9F50880087508A180037508A3A90802FD
:10C16000BF34EE240E12C92864012212C0C9780817
:10C170002274F01203ED74F5120A12EAFEEBFFEEE0
:10C18000240AFCE43FFD8C828D8312F27C12C409E8
:10C1900074031209F28E828F8312CEAD121EE7E96C
:10C1A000700302C26374011209F274031209EA12E5
:10C1B00019A17401120C6E12C472700302C263E8FA
:10C1C00075F009A4F8AAF075F009E9A42AF974F643
:10C1D00028FC740639FDE508240E12D9D6E4F004D3
:10C1E000120C6E12B0A6E50812B7F8350912D01479
:10C1F0008C828D83120C4BE508241212D9D6120CB6
:10C200003F9092337808120BFA8C828D8378081253
:10C210000ADF8C828D83780C120BFA90922F7808AB
:10C22000120BFA780C790812037EE5084509450AD5
:10C23000450B702F7401120C6E12C41F75F009A407
:10C24000F8AAF075F009E9A42AF974FE28F58274B9
:10C250000639F5837401F07A007B08901831E0F913
:10C260001212AB8E828F83A3A3A3A3A3A3A3A3A322
:10C27000A3E02406FCA3E03400FD8E828F8312CE5F
:10C28000AD121EE7121F8FE96042EE240A12AA26A1
:10C290008C828D8312BC51746812BC90E812C40366
:10C2A00039F5837402F0901B0F120C4B8C828D8336
:10C2B00012D2E912CE9B3CF583120C3F9092337858
:10C2C00008120BFA901B0F7808120ADF12C45D7077
:10C2D00066901AD712C417A3A3A3A3A3A3A3A3A3CF
:10C2E000A312CF3F1213E9E9701D1221F98A088BBE
:10C2F00009AC08AD09901AD712CEAD1213E9E97056
:10C3000006121F8FE960308E828F83A3A3A3A3A39D
:10C31000A3A3A3A3A312C41712CEAD1219CBE96035
:10C32000118E828F83A3A3A3A3A3A312C448E4F016
:10C33000A3F012C429E4F012C45D600302C3FE8EB0
:10C34000828F83A3A3A3A3A3A312F278901B40E040
:10C35000600302C3F3901B72E06401600302C3F345
:10C36000750A3A750B00780A12094C74021209E238
:10C37000880A890B780A12094C7C017D007A007BBF
:10C38000001223DF740412097AE97064E508240EB0
:10C3900012D9D6740112C477C0E0E508241112D96D
:10C3A000D6D0E0F0E508240F12D9D6743A12BC902A
:10C3B000901B0B120C4BE508241212D9D6120C3F1D
:10C3C0009092337808120BFA901B0B7808120ADF50
:10C3D0009092337808120BFA901B0B7808120A53CC
:10C3E00070117A007B02901831E0F91212AB8003D1
:10C3F00012C40912C45D700612CE5F74A1F0740BF2
:10C4000002E10B240EF582E422E50812B7FC35099F
:10C41000F583E4F0A3F02212E4F48E828F832212DB
:10C42000C4232212E104F9E8228E828F83A3A3A3FE
:10C43000A3A3A3A3A3A3A312C43B2212E104C82471
:10C440000EF582E438F58322A3A3A3A312C45022DD
:10C4500012E104C8240FF582E438F583228E828F1E
:10C4600083A3A3A3A3A3A312BC3E240FF582E438A5
:10C47000F58312C423492212E5382274F61203ED23
:10C48000EAFEEBFF7A237B001212F9EE240AF5088C
:10C49000E43FF50985088212BD4F7C237D007900B9
:10C4A00012124B85088285098312C472700302C57B
:10C4B00048EEFAEFFB121F0512C45D607412C563EB
:10C4C00064018E828F83A3A3A3A3A3A3700712C5C5
:10C4D00059740E802212C4727011121F8FE9700BF2
:10C4E0008E828F83A3A3E0A2E0500712C54F740D84
:10C4F000800512C54F740512DBBA5403640170073E
:10C5000012E4FA7405800B901B41E0C0E012E4FADB
:10C51000D0E012C576F5838882A3E0F91220138556
:10C52000088285098312BC2E12D2B238F583E980C5
:10C530001A85088285098312CEAD1212FF85088202
:10C54000850983E4F0A3800312D2CEF002B15B8EA2
:10C55000828F83A3A3A3A3A3A312BC3E12D2B83895
:10C56000F583228E828F83A3A3A3A3A3A3A3A3A354
:10C57000A312C43BE02212C57A2212E205F8A3E01E
:10C5800022EA12C5893BF58322240CF582E4227449
:10C59000F11203ED74E4120A128A0C8B0D8C088DD3
:10C5A000097A237B001212F98A0A8B0BAE0AAF0BB1
:10C5B000EE4F700302C8B31221FF8A0A8B0BA80A40
:10C5C000A90BE508241512C8D0687003A3E0698E92
:10C5D000828F837004740280027401F0E508240DD8
:10C5E000F8E43509F988828983E0FAC3E49AFA9578
:10C5F000E0FB12C8CC2AFAA3E03BFB8E828F83A318
:10C60000A3A3A312CED18E828F83A3A3F0EE242006
:10C61000F582E43FF583E4F0EE2421F582E43FF572
:10C6200083E4F0EEFAEFFB121FBF850882850983D1
:10C6300012C8DD70098E828F83A374058006901B5B
:10C640004112C8D9F0EE2417F50AE43FF50B8E82AB
:10C650008F83A3E0F9122013E9850A82850B83F00A
:10C66000EE2416F8E43FF9E508240EFAE43509FB58
:10C670008882898312BC5BE5082410FAE43509FB43
:10C68000850A82850B83E0FC88828983E0F88A82B0
:10C690008B83E0C398C39CF812E51AEEFCEFFDAA69
:10C6A0000CAB0D121EFFE9F50B8E828F83E0640246
:10C6B00070111221F98A088B09AC08AD0912DDEE60
:10C6C0001213EFE50B600302C8AA750C00750D008C
:10C6D000901AA9E064016005E064027049EE24202C
:10C6E00012C1656008EE242112C16570398E828FF7
:10C6F00083A3A3A312D2D912C8E3EE241612C8C092
:10C7000012C90AFAE439FB1212F98A0C8B0DEA45B8
:10C710000D601312F2AC12094812C8F1AA0C1212E1
:10C7200039740312097AEEFAEFFB121FCBE9F50B0D
:10C73000901AA9E064016008E06402600302C89DE9
:10C74000E9700302C89DE50C450D700302C8AA807C
:10C7500003850E0BEE242012C165600BEE2421121E
:10C76000C165600302C8A3850B0E850C08850D0901
:10C77000750A00780812094812C8F18E828F831258
:10C78000CEA9121239740312097AEE242012C8C0FD
:10C79000600D12C8C4746812BC90EE24208015EE9F
:10C7A000242112C8C0601512C8C47403F0A3740118
:10C7B000F0EE2421F582E43FF583E4F0EEFAEFFB9E
:10C7C000121FCBE9F50B708C7C137D007900740986
:10C7D0001209EA12124B741A120C6E740112C9205B
:10C7E00064687002A3E0704F8E828F8312C448E0A9
:10C7F0006405600302C7517C0879FF8E828F83A392
:10C80000A3A3A3E0242A12CF421212E1E97003028B
:10C81000C7517C087D0079FF74011209EA12124B9E
:10C8200074011209F27A007B0079AB121EE17419CF
:10C83000120C6E74FC801512C8C4E064037004A36B
:10C84000E0640170087419120C6E74FFF0E4F508CE
:10C85000F509780812094C74021209F27413120CCB
:10C860006EAA82AB83121F71740212097A8510823C
:10C87000851183E0602D74091209E288088909781E
:10C880000812094C750813750900780812094C7CC8
:10C89000007D0012137D740412097A8006E50C45B0
:10C8A0000D6007AA0CAB0D1212FFEEFAEFFB12128D
:10C8B000FF8003750B10A90B741C02EE91EE240C83
:10C8C00012C92822EE12B7FC3FF58322E508240E98
:10C8D000F582E43509F583E02212DAA422E054035C
:10C8E00064012212C8E722E0FAE82AF8E43400F9E9
:10C8F000228E828F83A312C91512C8E7EE24161266
:10C90000C92812C90AFCE439FD22FAE82AF8E439F8
:10C91000F9E8240422A3A3E0F88E828F83A3A32244
:10C92000F012C92522EE240FF582E43FF583E022C0
:10C93000790102092C74F41203EDEAFEEBFF8E82FA
:10C940008F83A3A3A3A3A3A3A3A312BC2E2424F584
:10C9500082E438F58312C8DD702A12C5637025128F
:10C96000CA1CE06405701D12CA1CA3E0F8740168BB
:10C970006005740668700712C4297402800512C429
:10C98000297403F0EE240A12D38312D2F6E4F0EEF7
:10C9900024081295CA2431F582E43AF583E0C0E018
:10C9A00012CA02D0E012CA30CA242EF582E43AF547
:10C9B00083E0C0E012CA02A3D0E012CF5DC812C962
:10C9C000F838F58312CA0D12A21712D0161221F9E7
:10C9D0008A0A8B0BAC0AAD0B85088285098312CFBE
:10C9E0003F1213EF85088285098312CEAD121FCB4B
:10C9F00012D37EF00295DDEE12C9FC22240BF582E3
:10CA0000E42285088285098312A21EA32212CA117C
:10CA10002212E104F9850882850983228E828F83A0
:10CA2000A3A3A3A3A3A3A3A312DABEF583888222A0
:10CA300012CEBBFAA3E02202C930C082C083901A92
:10CA4000FF740BF0A3741FF0901B017417F0A37414
:10CA50001FF0901B03741DF0A3741FF0901B05744E
:10CA600011F0A3741FF002CD3A74F41203EDEA241E
:10CA700008FEE43BFF8E828F8312C41F12D2BEE0F9
:10CA8000F50874035508F50912DC2012CC01E508FD
:10CA9000F0A3A882A983E50960097402650960030F
:10CAA00002CB52740C5508FC600A74086C60057463
:10CAB000046C7026740265097006E508A2E4401A49
:10CAC0008A828B83A3A3A3A3A3A3A3A312CC5512EF
:10CAD000DDAD3D12CBF4A308A983740C6C701C125D
:10CAE000CC51242812CC3D2428F582E43DF583A3C3
:10CAF00012DA83F0E82402F8500109740265097023
:10CB000006E508A2E4404B12CC51242A12CC3D2465
:10CB10002AF582E43DF583A312CBFB12CC5B12DA3B
:10CB20008312CC5BA31294AAE82404F8500109EC08
:10CB3000600F74086C600A740C6C600574046C708F
:10CB40001112D2DD2426F582E43C12CBF4A3A88294
:10CB5000A9838A828B83A3A3A3A3A3A3A3A312CC99
:10CB60002554037014E508A2E1400E12D2DD12CB69
:10CB7000EE3CF583E05480600812CC0B12CBF680BB
:10CB80001A901ACBE0C0E012CC0BD0E0F0901ACB98
:10CB900012CBF6901ACBE00412CEC0A3A882A983D0
:10CBA000E508A2E750458E828F8312CC25888289C2
:10CBB0008312CC3812CC2A5403603012D2DD2434D4
:10CBC000F582E43C12DA81F0E508A2E1501D8A8288
:10CBD0008B83A3A3A3A3A3A3A3A31295D22435F568
:10CBE00082E43A12DA81A3F0E824030295DD241EE0
:10CBF000F582E422F58312CBFBF022E08882898360
:10CC000022E0F8A3E0F988828983228A828B83A3B9
:10CC1000A3A3A3A3A3A3A3E0FCA3E0CC2432F582A7
:10CC2000E43CF58322E012CC2A22FCA3E0CC2425AC
:10CC3000F582E43CF583E02212DA7BE022F582E41F
:10CC40003DF58312CBFB12CC4A2212DA7B12CC5573
:10CC5000228E828F83E0FDA3E0CD22A312CC4A2452
:10CC60002CF582E43DF58322C082C0838A828B83C7
:10CC700012CD2AFC74035CF98A828B83A3A374010E
:10CC8000F0E960057402697061740C5CF8600A7404
:10CC90000868600574046870137402697005ECA27A
:10CCA000E440098A828B83A3A37402F0740C687039
:10CCB0000A8A828B83A3A3E02402F07402697005C0
:10CCC000ECA2E440258A828B83A3A3E02404F0E84D
:10CCD000600F740868600A740C68600574046870FA
:10CCE000098A828B83A3A3E004F0ECA2E7502A8A8E
:10CCF000828B83A3A3E00412CD30129AEEE054039A
:10CD000060178A828B83A3A3E004F0ECA2E15009B0
:10CD10008A828B83A3A3E004F08A828B83A3A3E09F
:10CD200004F0801685108285118312E50CA3E022A1
:10CD3000F08A828B83E02212097AD083D0820209A2
:10CD40002CC082C0838A828B83A3A3A3A3A3A3A3A3
:10CD5000A3A3A312C472600C8A828B83A3A312CEF6
:10CD6000A51212FF80D474F21203ED74F3120A12AA
:10CD7000EAFEEBFF740C120C6E7401F0121F298E88
:10CD8000828F83A3A3A3A3A3A3A3A3A3A312C47269
:10CD9000600612D2EF1205BE12C8BD600302CE308B
:10CDA0007C087D007900AA10AB1112124B7402129C
:10CDB0000C6E740112CE7B12CF4912CE92F8A3E012
:10CDC000C812EBAD38F583E02409C0E07404120CFE
:10CDD0006ED0E0F07405120C6E12D04E121F537418
:10CDE0000C120C6EE070497408120C6E12D7C274EB
:10CDF0000E12CE7B12E4EE850C82850D83A3AA82EF
:10CE0000AB831213EF12CEA112BFBB12F2B4120900
:10CE10004812EBAC3B12CE74E50C2409FAE4350D54
:10CE2000FB121239740312097AAA10AB11121F599E
:10CE30008E828F83A3A3A3A3A3A3A3A312C4726010
:10CE40000612CEA11212FFEEFAEFFB121F35740C80
:10CE5000120C6EE0C0E012CE5FD0E0F002BF2F12E5
:10CE6000CE6322EE240CF582E43FF58322E50E1218
:10CE7000AC6A350FF583E0FC7D0022129E6412D26D
:10CE8000FB2212DA8CFAA3E0FB2212CF4DE8F0A3CA
:10CE9000E922E8F0A3E912D804E0222412F582E4A2
:10CEA000228E828F83A3A3A3A3A3A3A3A312CEB195
:10CEB00022E0FAA3E0FB2212CEBB2212CEC0E02277
:10CEC000F0888289832212BCAC8E828F83A3A3A3B5
:10CED0002212CED522EAF0A3EB12CEC0E02212CE6F
:10CEE000D5F8A3E022C082C08374F9120A1212D0CE
:10CEF0001A240112CF427402120C6E12CEDEF9888F
:10CF0000828983A3A3A3A3A3A3A3A3A3E0FC8882F2
:10CF10008983A3A3A3A3A3A3A3A3A3A3E0FBECFAE6
:10CF20007404120C6E12BD5112D2D4C0E0740612F9
:10CF30000C6ED0E012D050121FA7740702CD37E05C
:10CF40002406FAA3E03400FB2212CF4D2212CF5167
:10CF500022E0F8A3E0F98510828511832212CEBB6E
:10CF6000F8A3E022C082C08374F4120A128A828B72
:10CF70008312B80224FA600A24FE600B24F960369A
:10CF8000806F121F41806A12D01A12EDB0A3E0F830
:10CF90007402120C6EE8F074026870118A828B833E
:10CFA000A3A312CFFD7403120C6E12D016AA10ABFD
:10CFB00011121FAD803B8A828B8312B0A0740512C0
:10CFC0000C6E12D03DC0E07407120C6ED0E012D08F
:10CFD0000712CF427408120C6E12CED1240A12CF5F
:10CFE000F6740A120C6E12D01674051209EA121F9A
:10CFF000B3740C02CD37F8A3E03400F922E0240228
:10D00000F8A3E03400F92212CEBB240222EE240F52
:10D01000F582E43FF58312BCAC228A828B83A3A302
:10D02000A3A3A3A312CF4D12D02B22E8F0A3E9F0C3
:10D03000EA2402F8E43BF988828983E02212D02BAB
:10D0400012A21FE0222424F582E43FF5832274011A
:10D05000F0AA10AB1122A3A312E511E02274F6127C
:10D0600003ED74E4120A12EAFEEBFF74011209F2F6
:10D070008E828F8312CEA7121EE774091209E288EE
:10D08000088909780812094C74021209F274031213
:10D0900009EA121F71740212097A851082851183C0
:10D0A000E060317419120C6EE07029901AA6E070DD
:10D0B000238E828F83A3A3A3A3A3E070178E828FF6
:10D0C0008312D10360388E828F83A3A312EDB1E067
:10D0D0006407602A8E828F83A3A3A3A3A3A3A3A321
:10D0E000E0700E12D10960097A347B011217438077
:10D0F0000DEEFAEFFB901B0712D2F61205BE741C60
:10D1000002B15812D0566406228E828F8312D056F6
:10D1100064052274F41203ED74FA120A12EAFEEBAB
:10D12000FF851082851183EEF0A3EF12D31224083D
:10D1300012D309240A12D30912D2C7E412D0501212
:10D140001F2F12CD24F5081221FF8A0A8B0BA80A83
:10D15000A90B85108285118312E4E1E0687003A3B6
:10D16000E069602EE508A2E55028851082851183CC
:10D17000A3E0FB901AFF12D2F61205BE851082853D
:10D18000118312BC2E240A12C46C700612CD24C264
:10D19000E5F012C8BD600302D2A77403120C6E74CE
:10D1A00036F07402120C6E12D2D9A3A3E028C0E0AC
:10D1B0007404120C6ED0E012D303C0E07405120C9C
:10D1C0006ED0E012D7FDF8A3E0F9E849601BE81241
:10D1D000D2B239F583E0FAE812D2B839F583E02A01
:10D1E000F87404120C6EE028F074031209EA121BA2
:10D1F000D58A088B09A808A909E849700302D29CBE
:10D200008E828F8312CEAD88828983A3A312BD51F3
:10D21000E812CE9B3912DBB6C0E0E812D2BED0E0F5
:10D2200012DAC5C0E0E82425F582E439F583D0E0C0
:10D2300012D31AC0E0E8242EF582E439F583D0E059
:10D24000F07402120C6EE0FA12D2D42AFCA3E0347D
:10D2500000FDE812D2AC39F58312BC6DE82431F53B
:10D2600082E439F583EA12D7FDFAA3E0FBEA4B60CA
:10D2700019E8242FFAE439FB8E828F83A3A312D2FC
:10D28000E112D2B83CF58312BC5B8E828F83A3A3DC
:10D29000A3A3A3A3A3A3E8F0A3E9800AEEFAEFFBFC
:10D2A000121F3512D2CEF074060295DA242FF582C1
:10D2B000E4222417F582E4222416F582E4222424B1
:10D2C000F582E439F5832212C58938F5832212CE1E
:10D2D0006374102212DC24E02212C917228A828B86
:10D2E00083A3A3A3A3A3A3A3A3E0FCA3E0CC22EE68
:10D2F000FAEFFB901B01E012D2FB22F8A3E0F583CA
:10D3000088822212D31FA3E022F582E438F583E459
:10D31000F0A312E538F8A3E0C82212D31FE02212CE
:10D32000E523A32274F61203EDEAFEEBFF12C8BD5B
:10D330007042121F298E828F83A3A3A3A3A3A3A34A
:10D34000A3A3A312C472600612D2EF1205BE12C8C4
:10D35000BD700B12CEA1121BCF12D37E8015EE240E
:10D360000812D38312CEAD1212FF8508828509837D
:10D37000E4F0A3F0EEFAEFFB121F3502B15B12CE20
:10D3800063E922F508E43FF509850882F5832274F4
:10D39000F41203ED8A088B09ECFEEDFF1221FF8ADF
:10D3A0000A8B0BA80AA90BEE241512C8C0687003DB
:10D3B000A3E069600EAA08AB0912199BE970047911
:10D3C000018011EEFCEFFDAA08AB09901B0512D2FB
:10D3D000F61205BE0295DD74F71203EDEA4B701FDD
:10D3E0007E007F0012D41050247C107D00EE2404B7
:10D3F000FAEF3401FB1213890EEE70E80F80E57C22
:10D40000107D008A828B8312D42012138902B820E7
:10D41000902F6FE493F8740193F9C3EE98EF99227B
:10D42000E02404FAE43401FB22E4F0A3F0A3F0A327
:10D43000F02274F11203ED74DF120A12EAFEEBFF20
:10D44000740D120C6E12D7D11209EA12124B8E8291
:10D450008F83A3A3E06404600302D4FC7405120C60
:10D460006E7422F0740D120C6EE0600302D7741219
:10D47000D7B8120C6E12D7E4120C6E740112D7FDDD
:10D48000C0E07406120C6ED0E0F012D7A012B0A665
:10D490007407120C6E12D7EAA3A3A3E0640170090B
:10D4A0007403120C6EE0D2E5F074011209EA121F47
:10D4B00053740D120C6EE0600302D7747409120CE1
:10D4C0006E12D7C2740512DBBA850C82850D83A358
:10D4D00012D31AF8A3E0F9E849700302D5BC12F29E
:10D4E000AC1209487C107D00E50C2402FAE4350DED
:10D4F000FB121239740312097A02D5CE8E828F8301
:10D50000A3A3E06401600B8E828F83A3A3E0640673
:10D51000707F901AA9E0706F1227FFE970298E8240
:10D520008F83A3A312F2B01209487C087D007AF51C
:10D530007B1A121239740312097A8E828F8312B009
:10D54000A6901AFD12D016901DB7E06402703874D0
:10D550000E1209E288088909780812094C7402122F
:10D5600009F28E828F8312CEA7121F7174021209E4
:10D570007A741E120C6EE07009851082851183E0AA
:10D58000700579B102D79B7405120C6E742302D416
:10D59000638E828F83A3A3E06402600B8E828F83ED
:10D5A000A3A3E06403700A7405120C6E741B02D40A
:10D5B00063740D120C6E74B3F002D7747C107D008E
:10D5C0007900E50C2402FAE4350DFB12124BE50C50
:10D5D0002412F50C5002050D8E828F83A3A3E06404
:10D5E00001600B8E828F83A3A3E06406700E8E828F
:10D5F0008F8312D7ACA385820C85830D8E828F8397
:10D6000012E4EAAA0CAB0D121ADFE50C2408F50CA3
:10D610005002050D8E828F83A3A3E0640460168EF2
:10D62000828F83A3A3E06401600B8E828F83A3A308
:10D63000E06406700FAC0CAD0D7A007B0079AB1284
:10D640001EDB800C8E828F83A3A3A3A3A312D7AC6F
:10D650008E828F8312CEAD122295E9600874091272
:10D660000C6E12BC8B740D120C6EE0600302D7744A
:10D670008E828F83A3A3E06404600302D759740EE3
:10D680001209E288088909780812094C7402120903
:10D69000F28E828F8312CEA7121F71740212097A42
:10D6A0008A088B09851082851183E0700F74FF65ED
:10D6B00008700474FF6509700302D77412C9F73F3C
:10D6C00012C470600A74011209EA121F3B800874C8
:10D6D000011209EA121F598E828F83A3A3A3A312FA
:10D6E00094B2750E00780C1209487C087D007419FC
:10D6F000120C6EAA82AB83121239740312097A7467
:10D700001E120C6EE0700C7420120C6EAA82AB8399
:10D71000121F65741E120C6E7401F0741F120C6ED1
:10D72000E4F07412120C6E12D7D9120C6E12D7D903
:10D730001209E2880A890B780A12094C750A1375D6
:10D740000B00780A12094C7C007D00AA08AB091274
:10D75000137D740412097A801B12C9F73F12C4703A
:10D76000600A74011209EA121F3B80087401120951
:10D77000EA121F59901AA9E0701A1227FFE97014D3
:10D780007C087D0079007AF57B1A12124B901AFD05
:10D79000E4F0A3F0740D120C6EE0F9742102EE9126
:10D7A00012D7A422EE12C9FC3FF58322A3A3A3E063
:10D7B000850C82850D83F0228E828F8312B0AA742D
:10D7C000012212DA8CF50CA3E0F50D850C82F583AD
:10D7D00022E4F07C08FDF90422E4F0A3F0A3F0A316
:10D7E000F0740E2212BCAC740322E8F0A3E912D745
:10D7F000F22212D7F62212E527A3A3A32212D804FD
:10D80000A3A3E02212D7F6A3A32274F01203ED74AF
:10D81000ED120A128A0E8B0F8C0A8D0B7EFF7FFF92
:10D820008C828D83E4F0EC450B6005EA450F7007B0
:10D830007AFF7BFF02D8EF75080075090080247419
:10D84000FF6E700374FF6F70127408120C6EAA8260
:10D85000AB831223D9E9700312D8F40508E50870E8
:10D86000020509902F71E493F8740193F9C3E50858
:10D8700098E509995075A810A911880C890D780CA4
:10D8800012094C750C13750D00780C12094C7C00B4
:10D890007D00E5082411FAE5093401FB12138374B5
:10D8A0000412097AAC0EAD0F7408120C6EAA82AB8A
:10D8B000831213E9E964017086850A82850B8374FB
:10D8C00001F07423120C6E12BDFD601CA810A9118A
:10D8D000880C890D750E00780C1209487C137D00A8
:10D8E000121239740312097A12D8F4EEFAEFFB74AB
:10D8F0001302E10BE5082411FEE5093401FF22744F
:10D90000F61203ED74F3120A12EAFEEBFF7C087DB7
:10D91000007900AA10AB1112124B12DA70120C6EC1
:10D92000740CF07405120C6E740112D9F360097452
:10D9300002120C6E742180077402120C6E740112B4
:10D94000D050121F53740C120C6EE07058740812F1
:10D950000C6E12DA88F508A3E0F509850882F583D4
:10D96000740612D31AFCA3E0FD850882850983A3FF
:10D97000AA82AB831213EF12D9C212D9DEA312D935
:10D98000EE850882850983A3A3A3A3A3A3A3A3A3CE
:10D99000A3129E60C0E0E508240B12D9D6D0E01295
:10D9A000D050121F598E828F83A3A3A3A3A3A3E0F9
:10D9B000700479008007740C120C6EE0F9740D028B
:10D9C000B15812D9C622EE2402F8E43FF9888289C0
:10D9D0008322E5082413F582E43509F58322E085E6
:10D9E0000882850983A3A3A3A3A3A3A3A32212B59B
:10D9F000FBE02212D7F2A3E02274F71203ED74F3D6
:10DA0000120A12EAFEEBFF7C087D007900AA10AB37
:10DA10001112124B12DA70120C6E7409F0740512A6
:10DA20000C6E740112D31A640170097402120C6E28
:10DA3000742180077402120C6E740112D050121FF0
:10DA400053740C120C6EE070247408120C6E12DA0F
:10DA5000B5740712DBBAFCA3E0FD88828983A3AA10
:10DA600082AB831213EFAA10AB11121F5902B81424
:10DA700012BCA574042212DA7BA322F08E828F835B
:10DA800022F58312CBFBA32212DA8C2212DA902227
:10DA9000E0F8A3E0C812D2AC38F583E02212DAAB8A
:10DAA00012DAA422E08E828F83A322F08508828579
:10DAB0000983A3A32212DABEF9888289832212DAAB
:10DAC00090F8A3E02212E51FE02274F61203ED7431
:10DAD000DF120A12EAFEEBFF8E828F83A3A3A3A3B9
:10DAE000A3E06404703A121F8FE970348E828F8332
:10DAF000A3A3E07030740E1209E28808890978083F
:10DB000012094C74021209F28E828F8312CEAA126D
:10DB10001F71740212097A851082851183E07005E5
:10DB200079C202DBB1740D120C6E12D7D11209EA60
:10DB300012124B740D120C6EE0706F12D7B8120CEB
:10DB40006EE8F0A3E912DBBA70097403120C6E746C
:10DB50002180077403120C6E7401F07406120C6EAF
:10DB60007401F07405120C6E740BF074011209EA62
:10DB7000121F53740D120C6EE0702F7409120C6E8C
:10DB800012DAB5741012DBC512D30388828983A31D
:10DB9000A312DAC5FCA3E0FDE82403FAE439FB1282
:10DBA00013EF74011209EA121F59740D120C6EE082
:10DBB000F9742102B158F583740112DBBE2212DA26
:10DBC0007BA3A3E02212DBBE88828983A322C082CA
:10DBD000C083121F23901B077447F0A3741FF00229
:10DBE000CD3AC082C0837C0879FF901AD712CEAD9F
:10DBF0001212E102CD3A74F71203EDE9FE12B7F703
:10DC00003B12C470601788828983A3E05403700DAF
:10DC1000EEFB12DC2012DC53E0F91228D102B8200E
:10DC200012DC2422E812C9FC39F58322C082C083A9
:10DC3000EAF8EBF988828983A3A3A3A3A3E0FB8876
:10DC4000828983A3A3A3A312DC53A3E0F91228D1F2
:10DC500002CD3AE0FA88828983A3A32274F01203EA
:10DC6000ED8A0C8B0D8C0E8D0F890B12AC6512E4B6
:10DC7000372430FA7B001212698A088B09AE08AF8C
:10DC800009EE4F700302DDA98E828F837401F08547
:10DC90000C08850D09750A0078081209487C177D63
:10DCA00000EE2419FAE43FFB121239740312097AC8
:10DCB000850E08850F0978081209487C097D00EE59
:10DCC0002402FAE43FFB121239740312097A741029
:10DCD000120C6E12C0BD240B12D0107412120C6EF6
:10DCE00012CC01E0C0E012C8C4D0E012B5F5C0E02B
:10DCF00012DDB3D0E012D9EEC0E012AF1DD0E0F0DB
:10DD00007414120C6EE0C0E012DDC9D0E012DDCE5A
:10DD1000E4F0A3F07415120C6E120C4BEE12B594D5
:10DD20003FF583120C3F12DDBDE50B12DE00A3A30D
:10DD300012C0B9240D12D0107419120C6EE0C0E09C
:10DD400012BC09D0E012E445E0602BEE2430FAE486
:10DD50003FFB12DDAC3F12DDD6F508A3E0F50978F4
:10DD600008120948E50C12AC66350D12CE74121279
:10DD700039740312097AEE241A12C8C05403601DC4
:10DD8000901AE712C472600CEEFAEFFB12EDB212B9
:10DD900005BE8015EEFAEFFB12126F800CEEFAEF63
:10DDA000FB901ACAE0F912127502E10EEE2427F573
:10DDB00082E422EE2411F582E43FF58322EE12DDA7
:10DDC000C22212D2B23FF58322EE12C0CA22F01252
:10DDD000DDAC3FF58322F583EAF0A3EBF0E50C24FC
:10DDE0000E12E44EE022EE12CBEE3FF58322EE243B
:10DDF00006FAE43FFB22EE241FF582E43FF583227E
:10DE000012DE0AA32212DE0AE02212F267A3A32284
:10DE1000F0E50C240B12E44EE02274F21203ED8ABA
:10DE20000C8B0D7A0F7B001212698A088B09AE08E1
:10DE3000AF09EE4F60428E828F83740512DE861228
:10DE4000C0BB240C12D010850C82850D8312F2B257
:10DE500012094812DE9E121239740312097A850CD7
:10DE600082850D83A3A3A3A3A3A3E0C0E012E1F7DF
:10DE7000D0E012DE7B12127502BF34F0EEFAEFFB37
:10DE8000901831E0F922F0850C82850D8312BE07CF
:10DE9000A3A312BCAC850C82850D83A3A3227C08AE
:10DEA0007D00EE2404FAE43FFB2274F41203ED8AB1
:10DEB000088B097A0D7B001212698A0A8B0BAE0A55
:10DEC000AF0BEE4F60438E828F83740712DF0CF826
:10DED0008E828F83A3A3A3A3F0740268701F8508AA
:10DEE0008285098312F2B11209487C087D00EE2474
:10DEF00005FAE43FFB121239740312097AEEFAEFC5
:10DF0000FB901831E0F91212750295DD12C57AF90D
:10DF10008E828F83A3A312BCAC850882850983A35C
:10DF2000A3E022F8A3E0F98A828B83A3A32274F0F2
:10DF30001203ED74C9120A128A0E8B0F7E0074014F
:10DF4000120C6EE412CD30FAA3E0FB122295E960C8
:10DF50000302E0E1901AA9E060047EB38043850EDD
:10DF600082850F83A3A3E064047006121F8FE9600B
:10DF7000047EB6802C74041209E2880889097808A6
:10DF800012094C74031209F2850E82850F8312CE9A
:10DF9000AA121F71740212097A7402120C6E12BD59
:10DFA000517A1E7B001212698A0C8B0DEE600302FF
:10DFB000E0628510828511837403F074171209F2F0
:10DFC0007416120C6EE0F9740C120C6EAA82AB83FC
:10DFD00012198F74271209E2880889097808120932
:10DFE0004C74191209E288088909780812094C7CD6
:10DFF000087D0074041209EA122019740412097AC7
:10E0000074271209E288088909750A00780812093C
:10E01000487C107D00850E82850F83A3A3A3A3A354
:10E0200012D2F6A982AA837B001212457403120948
:10E030007AE9602C7414120C6E12E11312094C75FB
:10E040000801750900780812094C7C107D007406DF
:10E05000120C6E12CEAD12137D740412097A800276
:10E060007EADE50C450D6079850C82850D837409C4
:10E0700012E0FDF9850C82850D83A3A3E8F0A3E9E6
:10E0800012E0E5850C82850D83A3A3A3A3F0E50C24
:10E09000241D12E44EEE12E0EA12F2B41209487C9A
:10E0A000087D00E50C2405FAE4350DFB12123974E5
:10E0B0000312097A850E82850F8312F2A112094894
:10E0C0007C107D00E50C240DFAE4350DFB121239AD
:10E0D000740312097AAA0CAB0D901831E0F91212F0
:10E0E000757437802612E0EFE02212E0EFA32212CF
:10E0F000E0F5A3A322F0850E82850F832212E0F5BE
:10E1000012E10422E0F8A3E022741812097A7F08D1
:10E1100002065D7402F0858208858309780822C0B2
:10E1200082C083901B167401F0A37420F0901B181A
:10E1300074F5F0A3741FF002CD3AE824FF18E93417
:10E14000FFF922F582E43FF583E08A828B83227413
:10E15000F51203ED12E40F850882F583E054078E73
:10E16000828F83A312E201131313541F5403C0E0E0
:10E1700012E1F7D0E012E201C4135407F50A790462
:10E18000A3AA82AB83121257EAF8EBF9ECFAEDFB83
:10E1900012DDC9120C3F12E1EF7405F0E50AA2E0AE
:10E1A000501AE5082405FCE43509FD12DDEE1213D2
:10E1B000EFEE241612C8C02408F0800C7C087D0005
:10E1C000790012DDEE12124B12C162701FEE24169E
:10E1D000F8E43FF988828983E0FAE5082A12C8D07A
:10E1E000C0E012DDB3D0E012CEB704F002E5EDEEF0
:10E1F00012D2B83FF58322EE240EF582E43FF58378
:10E200002212E20522F0850882850983E02274F259
:10E210001203ED8A088B09EA241612C8D0640D7027
:10E2200005750A018003750A008A828B83A3A3E027
:10E23000F88A828B83A3A3A3A312EBBEE50AC4339F
:10E2400054E0F9EA12C8CE33333354F8F88A828B9B
:10E2500083A3E048498E828F83F0A3AE82AF83EA26
:10E26000241212D9D612076CEEFAEFFB1212D574F3
:10E270000412097A8A0C8B0DAE0CAF0DE50AA2E0F0
:10E280005013E5082406FCE43509FD1213EFEE24D3
:10E2900008FE50010F12C8CC6401700CE50824116F
:10E2A00012C8D08E828F83F002BF3474F41203ED53
:10E2B00074C7120A1212E40F8E828F83E070051267
:10E2C0001FC5800CA3E0F8850882850983E048F02B
:10E2D00012DDC912076C74301209F28508828509B3
:10E2E00083E0F912DDEE121FEF740412097A8E82B8
:10E2F0008F83A3A3E0C0E07401120C6ED0E0F0EEB7
:10E30000241612C8C0C0E07402120C6ED0E012DAFB
:10E31000C5C0E07403120C6ED0E012E427C0E074B4
:10E3200004120C6ED0E012C92064017004A3E064F2
:10E33000017018740C1209F2EE242212C8C0F9EE12
:10E340002418FAE43FFB12198F800E740C1209F2A4
:10E3500012C8C412CEAD1219D7740C1209E2740A95
:10E36000120C6EE8F0A3E912BC8374FF12E42C6473
:10E37000027009851082851183E4800DE0640370CA
:10E38000438510828511837402F0741C1209E2889F
:10E390000A890B780A12094C740E1209E2880A895C
:10E3A0000B780A12094C7C087D0074041209EA12E9
:10E3B0002019740412097A741C1209E2740A120CEE
:10E3C0006E12D0168E828F83A3A3A3A31207747438
:10E3D0002E1209F274031209EA8E828F83E0F91279
:10E3E0002007740212097AE9FE85088285098312E2
:10E3F000EBB3741C1209EA12124B7C107D007900F9
:10E40000740C1209EA12124BEEF974390295DAEA29
:10E41000FEEBFF8E828F8312C915A3A3E028F508B7
:10E42000A3E03400F5092212DA76E022F0EE240EA1
:10E4300012C92822F582E412E451E022E50C12C54B
:10E440008912E45122F0E50C241012E44E22F582E8
:10E45000E4350DF5832274F01203ED74F8120A12FC
:10E46000E9FE8A088B0974106E7071901B15E085A7
:10E470001082851183F01213D77401120C6EEAF02A
:10E480001213D77402120C6EEBF01221F98A0C8B66
:10E490000D750E00780C1209487C027D007406127E
:10E4A0000C6EAA82AB83121239740312097A7808AF
:10E4B00012094C750A40750B00780A12094C740455
:10E4C0001209F279007A007B0012201F74041209ED
:10E4D0007A850882850983E0901B15F0740802E1B3
:10E4E0000BE0FAA3E0F5838A8222A3A3A3A3A3A34C
:10E4F00012E4F422E0FCA3E0FD228E828F83A3A32A
:10E50000A3A3A3A3A3A3A3A312E50C2212E511A323
:10E5100022E0F8A3E0F58388822212E51FF02212A0
:10E52000E5232212E52722F08E828F83A3A3A32264
:10E53000EAF0A3EB12E53822F0851082851183E022
:10E540002274F41203ED8A088B09780812094C75BD
:10E550000A11750B00780A12094C7C007D007A3A8A
:10E560007B00121383740412097AE97010901B0B5C
:10E57000120C4BE508241112D9D6120C3F0295DD7E
:10E5800074F51203ED74EF120A12E98510828511F9
:10E5900083F08A088B09750A0078081209487C10F4
:10E5A0007D007404120C6EAA82AB831212397403BC
:10E5B00012097AA810A91188088909780812094C4B
:10E5C000750811750900780812094C7C007D007AE5
:10E5D0003B7B0012137D740412097A7C117D007953
:10E5E00000AA10AB1112124B741112097A7F0302A8
:10E5F000065D74F01203ED74EB120A12E9FE7A1153
:10E600007B001212F98A088B09EA4509700302E7B8
:10E6100032780812094C750A11750B00780A120934
:10E620004C7C007D007A3B7B00121383740412093A
:10E630007AE9600302E71E850882850983E06E603F
:10E640000302E71E7A117B001212F98A0A8B0BEA89
:10E65000450B700302E71E780A12094C750C117500
:10E660000D00780C12094C7C007D007A3A7B001278
:10E670001383740412097AE9600302E70A78081226
:10E68000094C780C12094C7C007D007A3A7B001210
:10E69000137D740412097A901B727401F09091AF8B
:10E6A000780C120BFA901B0B780C120BBB400690E7
:10E6B0001B0B12D42985080C85090D750E00780CEA
:10E6C0001209487C117D0074031209EA1212397490
:10E6D0000312097A901B0B120C4B7411120C6E1260
:10E6E0000C3FA810A911880C890D780C12094C75E3
:10E6F0000C15750D00780C12094C7C007D007A8297
:10E700007B0012137D740412097A7C117D0079005C
:10E71000AA0AAB0B12124BAA0AAB0B1212FF7C1106
:10E720007D007900AA08AB0912124BAA08AB0912A6
:10E7300012FF741502E10B74F31203ED74FF120A59
:10E7400012890C8A098B08ECFEEDFFEBC43354E010
:10E75000F8EA33333354F8450C488E828F83F0A3A4
:10E76000AE82AF83740E120C6E12076CEEFAEFFBE2
:10E770001212D5740412097A8A0A8B0BAE0AAF0BF7
:10E78000E50860191221F98A0A8B0BAC0AAD0BEE71
:10E79000FAEFFB1213EFEE2408FE50010F7401652F
:10E7A00009703F750A3A750B00780A12094C740219
:10E7B0001209E2880A890B780A12094C7C017D0053
:10E7C0007A007B001223DF740412097AE9700D8548
:10E7D0001082851183E08E828F8380058E828F83E5
:10E7E000E4F0740112097A02AA0D74F71203ED899C
:10E7F00008ECFEEDFFEAFCEBFDEEFAEFFB1213EF87
:10E800007409120C6E12076CEE2408FAE43FFB1236
:10E8100012D5740412097A8A828B8302A393E9F8D1
:10E8200074020458F97402B900028004C333D9FC9D
:10E83000541CF902092C74F41203ED74FE120A122E
:10E840008908750A3A750B00780A12094C7403128C
:10E8500009E2880A890B780A12094C7C017D007A4A
:10E86000007B001223DF740412097AE970607401DE
:10E87000120C6EE06508604E750A3B750B00780A55
:10E8800012094C74021209E2880A890B780A1209EB
:10E890004C7C017D007A007B001223DF7404120996
:10E8A0007AE9702E851082851183E06508701FE07B
:10E8B000F87401120C6EE0C398500F851082851118
:10E8C00083E0F9121FE37E3A80067E3B80027E00E1
:10E8D0007F00EEFAEFFB0295D874F01203ED74D2CC
:10E8E000120A127403120C6EE9F07401120C6E120B
:10E8F000BD51EC851082851183F07404120C6EED0D
:10E90000F07406120C6E740E12C477C0E074051217
:10E910000C6ED0E0F07404120C6EE0C0E0740712CC
:10E920000C6ED0E0F0901B41E0C0E07408120C6E59
:10E93000D0E0F07409120C6E7401F07403120C6EC6
:10E94000E0600302EA2F75083A7509007808120999
:10E950004C74121209E288088909780812094C7C63
:10E96000117D007A007B001223DF740412097AE91A
:10E97000600302EA237411120C6EA882A983740E3C
:10E98000120C6E12D016901B0B7808120BFA850829
:10E990000C85090D850A0E850B0F909233780C12A9
:10E9A0000AF2901B0B780C120BEB780812094474D6
:10E9B00004120C6EE0F87405120C6EE028FCA3E063
:10E9C0003400FD7B017A01740C120C6EE0F9121F09
:10E9D000E9740412097A1221F98A088B09AC08AD8E
:10E9E0000974211209EA1213EF901B1312B2C99095
:10E9F0001B1312A20E902F657808120A91401590F1
:10EA000092337808120BFA901B0B7808120A5360A5
:10EA10000302EABE7A007B02901831E0F91212ABD1
:10EA200002EABE740E120C6EE4F0A3F002EABE8598
:10EA30001082851183E0F87401120C6EE02812CF69
:10EA4000F6E812EBAD39F583E0F9121FFB8A088B6B
:10EA500009A808A909743A6849600302EB16750809
:10EA60003A750900780812094C74121209E28808F4
:10EA70008909780812094C7C117D007A007B00120C
:10EA800023DF740412097AE9700302EB4E740E124C
:10EA90000C6EE4F0A312C477F87401120C6E12EB42
:10EAA000BE7408120C6EE0F88E828F83E048F0EEA0
:10EAB0002405FCE43FFD74211209EA1213EF8510CE
:10EAC00082851183E0F87401120C6E12EBBE8E8207
:10EAD0008F83A3A982AA8389088A09750A00780806
:10EAE0001209487C047D00742C120C6EAA82AB8340
:10EAF000121239740312097A8E828F83E0C0E07497
:10EB00002D120C6ED0E0F0740E120C6E12C47270E6
:10EB10005279A102EBA7743B6849600302EA8D7544
:10EB2000083B750900780812094C74121209E28832
:10EB3000088909780812094C7C117D007A007B0055
:10EB40001223DF740412097AE9600302EA8D74115A
:10EB5000120C6EA882A983740E120C6EE8F0A3E961
:10EB600002EA957401120C6E12077474231209F2F2
:10EB700074071209EA7405120C6EE0F9122007748A
:10EB80000212097AE9FE851082851183E0F874018A
:10EB9000120C6E12F28F12EBB37411120C6EAA8269
:10EBA000AB8312124BEEF9742E02E10BEA240DF541
:10EBB00082E422E054F8F07C107D00790022E02805
:10EBC000FEA3E03400FF2274F01203ED74E8120A91
:10EBD000127403120C6EE9F07404120C6E12BC6D08
:10EBE000EAFEEBFF7508007509008E828F83A3A3F0
:10EBF000A3A3A3A3A3A3A312D7BC120C6E12D01677
:10EC00007401120C6E12CEAD12242D901BEA7433D7
:10EC1000F0A3742412E427F88E828F83E028F50B8A
:10EC2000A3A3A3E0C394048E828F83A3A3E050091F
:10EC3000250BF50B750A008002F50A8E828F83A3DF
:10EC4000A3A3E0F9122013E9851082851183F074E3
:10EC500028120C6EE0F50EA3E0F50FAA0AA80BE54A
:10EC60000E28F8E4350FF9E82AF8E439F9740612A9
:10EC70000C6E12D7E4120C6E12C8D9A3A360030263
:10EC8000ED17E0C39404400375090174081209E20A
:10EC9000880C890D780C12094C7403120C6E120743
:10ECA00074E50BF50C750D00780C12094C780E12FA
:10ECB000094CEAF50C780C12094C12ED8312094C40
:10ECC0007B027410120C6E12E4F0740C120C6EE0E5
:10ECD000FAA909122451740C12097AE9F9600302A5
:10ECE000ED807800851082851183E0FAE8C39A40B0
:10ECF0000302ED80E8FA7408120C6E12EE99E0C07F
:10ED0000E07406120C6EE02AFCA3E034008C82F55D
:10ED100083D0E0F00880CDE0C3940440037508017F
:10ED200074081209E2880C890D780C12094C7403DE
:10ED3000120C6E120774E50BF50C750D00780C12B1
:10ED4000094C780E12094C7408120C6EE0FAE50AB0
:10ED50002AF50CE43400F50D780C12094C12ED8301
:10ED600012094C7B027410120C6E12E4F0740C1237
:10ED70000C6EE0FAA908122457740C12097AE9F90A
:10ED800002E109A80BE50E28F50AE4350FF50B782A
:10ED90000A2274F71203EDE9FE901B1612C472608A
:10EDA0000AEEF912EDB21205BE8002790102B82016
:10EDB000F8A312D2FD2274F71203EDE9FE901B189E
:10EDC00012C472600AEEF912EDB21205BE80027929
:10EDD0000002B82074F11203ED74E0120A127800F8
:10EDE000742F120C6E12A901EE2812C8C06436C02E
:10EDF000E0851082851183E58228F582E43583F56C
:10EE000083D0E012F2C040E07431120C6E12F2A610
:10EE100012094C8C0A8D0B780A12094CEAFCEBFDA6
:10EE2000790174041209EA12201F740412097A8508
:10EE3000080C85090D750E00780C1209487C107DB0
:10EE40000074131209EA121239740312097A780055
:10EE5000E8FAEE2A12C8C0645CC0E0851082851111
:10EE60008312EE99D0E012F2C040E5780812094C06
:10EE7000750880750900780812094C74141209F29B
:10EE8000790174041209EA12201F740412097A74B9
:10EE90002012097A7F0702065D12EE9D22E5822A82
:10EEA000F582E43583F5832274F01203ED74DF12EA
:10EEB0000A12E9851082851183F08A0C8B0D8C0E65
:10EEC0008D0F7431120C6E12F27C74037808120CE0
:10EED00009AA0874047808120C09AE08AF09EA54AC
:10EEE0000FF50B7C107D0079007433120C6E12CE7E
:10EEF000AD12124B851082851183E0606974331264
:10EF00000C6E12F2B41209487C107D0074041209D0
:10EF1000EA121239740312097A850C08850D0978F2
:10EF2000081209487C107D007436120C6E12CEADAA
:10EF3000121239740312097A7433120C6E12F29B96
:10EF40001209EA1220257800E8FAE50C2A12E434C6
:10EF5000FC7433120C6E12F2BD40ED7431120C6E63
:10EF6000E0248012B2CC850E0C850F0DEEF8EFF97F
:10EF7000E824FF1EE934FFFFE849606F7433120C88
:10EF80006E12F2B41209487C107D0074041209EA72
:10EF9000121239740312097A850C08850D09780854
:10EFA0001209487C107D007436120C6E12CEAD1220
:10EFB0001239740312097A7433120C6E12F29B1216
:10EFC00009EA1220257800850C82850D83E0FCE893
:10EFD000FA7433120C6E12F2C712F26785820C8536
:10EFE000830D08E8C39410508380DCE50B600302B6
:10EFF000F08E7433120C6E12F2B41209487C107D3C
:10F000000074041209EA121239740312097A7C0E90
:10F010007D0079007433120C6E12CEAD12124B7457
:10F0200033120C6E12D2F67480F07431120C6EA38F
:10F03000E0C0E07433120C6E12C437D0E0F07431CB
:10F04000120C6EE0C0E07433120C6E12C44CD0E0AF
:10F05000F078081209487C107D0074141209EA1235
:10F060001239740312097A7433120C6E12F29B1265
:10F0700009EA1220257800E8FA7411120C6E12F2D7
:10F0800070120C6E12F2BD400302F26280E9C3946A
:10F090000E7433500302F1B2120C6E12F2B4120964
:10F0A000487C107D0074041209EA121239740312AC
:10F0B000097A7C107D0079007433120C6E12CEAD8B
:10F0C00012124B750E00780C120948AC0B7D0074BF
:10F0D00036120C6E12CEAD121239740312097AA8D0
:10F0E0000B7433120C6E12F28878081209487C10E7
:10F0F0007D0074141209EA121239740312097A7429
:10F1000033120C6E12F29B1209EA1220257800E8E5
:10F11000FA7411120C6E12F270120C6E12F2BD40E3
:10F12000EE7433120C6E12F2A61209487C107D00A8
:10F1300074041209EA121239740312097A7C0E7DE2
:10F140000079007433120C6E12CEAD12124B743172
:10F15000120C6EA3E0C0E07433120C6E12C437D0F0
:10F16000E0F07431120C6EE0C0E07433120C6E12D9
:10F17000C44CD0E0F078081209487C107D0074146B
:10F180001209EA121239740312097A7433120C6EDE
:10F1900012F29B1209EA1220257800E8FA74111283
:10F1A0000C6E12F270120C6E12F2BD400302F2628B
:10F1B00080E9120C6E12F2B41209487C107D0074C2
:10F1C000041209EA121239740312097A7C0E7D00C6
:10F1D00079007433120C6E12CEAD12124B750E0004
:10F1E000780C120948AC0B7D007436120C6E12CEEE
:10F1F000AD121239740312097AA80B7433120C6E13
:10F2000012F2887431120C6EA3E0C0E07433120C59
:10F210006E12C437D0E0F07431120C6EE0C0E074AE
:10F2200033120C6E12C44CD0E0F078081209487CFE
:10F23000107D0074141209EA121239740312097A4B
:10F240007433120C6E12F29B1209EA122025780018
:10F25000E8FA7411120C6E12F270120C6E12F2BDFA
:10F2600040EE742102E10BF0850C82850D83A32210
:10F2700012EE9DE0FC743322A3A3A3A312F280221A
:10F28000E0F508A3E0F5092212F28F7480F022E085
:10F2900028FAA3E034008A82F5832212E4F4740190
:10F2A00022A3A3A3A3A312F2807808228E828F83C5
:10F2B000A3A3A3A312F280750A0078082212F2C752
:10F2C000F008E8C3941022E02AF9A3E03400898210
:10F2D000F583E06C2274F61203EDEAFEEBFF8C0876
:10F2E0008D0912242DAC08AD09EEFAEFFB12243380
:10F2F00002B15B74F21203ED8A0C8B0D8C0A8D0B3C
:10F300007A0B7B001212F98A088B09AE08AF09EE5E
:10F310004F606D90030112FE6B900301EEF0A3EFBE
:10F32000F0EE2402F508E43FF509850882F583E54F
:10F330000CF0A3E50D12F389E50AF0A3E50B12F337
:10F3400089A3A3743212F397740112F397A3F07494
:10F350000E120C6E12F985A3A3A3A3A3E8F0A312C7
:10F36000F39E90030512F95685088285098312FCE5
:10F37000C612279F85088285098312F722A3E9F028
:10F38000EEFAEFFB7F0602065D12F38D22F08E820D
:10F390008F83A3A3A3A32212F38DA3A3A322E9F037
:10F3A00090030112FD8C2274F61203EDEAFEEBFFCE
:10F3B0008E828F83E0F91228AD8B09EA450960043B
:10F3C00079028027E4F508F509780812094C7C00D9
:10F3D0007D00EEFAEFFB1228DD740212097A8B0928
:10F3E000EA4509700479108002790002FDB57F01B9
:10F3F00002065D74F21203EDE9FEEAFF8B081228A3
:10F40000A78A0C8B0DEA450D60337A047B0012123B
:10F4100069EA4B60288A828B8374FDF0A3E508F0CB
:10F42000EE8A828B83A3A3F0EF8A828B83A3A3A3AC
:10F43000F0850C82850D8312F4B712127502F384E5
:10F4400074F01203ED8A088C0E8D0F8B091228A719
:10F450008A0A8B0BAE0AAF0BEE4F604E7A077B0029
:10F46000121269EA4B60438A828B8374FEF0741136
:10F47000120C6EE08A828B83A3F08A828B83A3A313
:10F48000E509F07410120C6EE08A828B83A3A3A3AB
:10F4900012F4ADE50812F4ADA3E50EF0A3E50FF00C
:10F4A0008E828F8312F4B712127502FC98F08A8252
:10F4B0008B83A3A3A3A322A3A312FCB3F92274F00A
:10F4C0001203ED74F4120A127403120C6EEAF0A324
:10F4D000EBF0740A120C6EECF0A3EDF07407120C52
:10F4E0006E12F39E7401120C6E12F956851082850D
:10F4F000118374FEF07403120C6EE02402F8A3E092
:10F500003400F97405120C6E12F9567403120C6E65
:10F51000E02404F8A3E03400F97408120C6E12F928
:10F52000567403120C6E12F734702E79FE740812A2
:10F530000C6E12FCC3121E87E9851082851183F0C0
:10F5400064FE700302F71D1228A78A088B09AE0813
:10F55000AF09EE4F704402F71D7405120C6E12F4E1
:10F56000B974FF6970217401120C6E12FCBD700336
:10F5700002F71D7401120C6E12F7297421120C6E21
:10F580007808120BFA802B1228A78A088B09A80882
:10F59000A909E8FEE9FFE84960E18E828F83E0F97E
:10F5A0001228AD7401120C6EEAF0A3EBF080CC12BD
:10F5B000F729EE4F700302F71D80138E828F83E0D0
:10F5C000F91228AD7401120C6EEAF0A3EBF0750E7F
:10F5D000FE750FFF7401120C6E12FD81E8FCE9FD4F
:10F5E000EC4D8E828F83601A12FCA61205BEEA4B88
:10F5F000601D8A828B83E0F50EA3E0F50F1212FFE7
:10F60000800D12FCD56008A3E0F50EA3E0F50F74A1
:10F6100003120C6EE0F8A3E0C82408F582E438F584
:10F620008312F977E0FAE50E687003E50F6960135D
:10F63000EA7006E849707D800A74FF68700374FF01
:10F640006970717405120C6E12FCAFF50C74051222
:10F650000C6E12F724EAF07425120C6EE0F50D78AA
:10F660000D12095078081209447425120C6EE0F549
:10F670000D780D1209507424120C6E120774742444
:10F68000120C6E1207747414120C6E120774741339
:10F69000120C6EE0F9EEFCEFFD740F120C6E12FC12
:10F6A000C61228B9740C12097A7405120C6E12F77E
:10F6B00022E50CF07403120C6E12F73470338510CF
:10F6C00082851183E0F97408120C6E12FCC3121EBD
:10F6D00087E9851082851183F064FE60401228A7B7
:10F6E0008A0C8B0DAE0CAF0DEE4F600302F5BB80A4
:10F6F0002C7405120C6E12FCAFF470217401120C04
:10F700006E12FCAFF8A3E0F97401120C6E12F956F8
:10F710007401120C6EE0F849600302F5AF740C023C
:10F72000FC95E0F8A312FCCF2212FCCEA3A3E0FECE
:10F73000A3E0FF2212FCB3540C640C2274F01203F9
:10F74000ED74FD120A12E9851082851183F08A0892
:10F750008B098C0E8D0FEA240EF582E43509F583B2
:10F7600012F3A37401120C6E12F956EA2410F50A72
:10F77000E43509F50B850A82F583E02427FA7B003E
:10F780001212698A0C8B0DAE0CAF0DEE4F70030296
:10F79000F9458E828F83741A12F96612F977A3A342
:10F7A00012F95C12F98512F9567413120C6E12F9E3
:10F7B0004AEE2406FAE43FFB12288985088285096F
:10F7C00083A3A3A3E0C0E0EE240FF582E43FF5831A
:10F7D000D0E0F0850E82850F83E0C0E0EE2414F5C2
:10F7E00082E43FF583D0E0F0E508240CF582E435AF
:10F7F00009F583E0C0E0EE2415F582E43FF583D0FF
:10F80000E0F07417120C6E12FDD9E0C0E0EE241681
:10F81000F582E43FF583D0E0F088828983A3E0C0DD
:10F82000E0EE2417F582E43FF583D0E0F08882898A
:10F8300083A3A3E0C0E0EE2418F582E43FF583D073
:10F84000E0F07419120C6EE0C0E0EE2419F582E4C9
:10F850003FF583D0E0F0741A120C6E120C4BEE24BC
:10F860001AF582E43FF583120C3F851082851183DF
:10F87000E0C0E0EE241EF582E43FF583D0E0F0E541
:10F88000082415F582E43509F58312F9722424F56C
:10F8900082E43FF58312F95CA3A3A3A312F97224B7
:10F8A0001212F9507415120C6E12F972241012F91A
:10F8B00050EE241FF582E43FF583E4F0EE2420FCB3
:10F8C000E43FFD850A82850B83E08C828D83F0A363
:10F8D000E4F0741E120C6EE0C0E0EE2426F582E423
:10F8E0003FF583D0E0F0EE2422F8E43FF98C828DDE
:10F8F0008312FCC6EA4B6035EE2427FAE43FFB880E
:10F90000828983EAF0A3EBF07401120C6EE0F50833
:10F91000A3E0F509750A0078081209488C828D83E6
:10F9200012F94A121239740312097A8008888289FE
:10F9300083E4F0A3F0EEFAEFFB850E82850F8312CD
:10F94000F4B7121275740302FC95E0FCA3E0FD22EB
:10F95000F582E43FF583E8F0A3E9F022E8F0A3E9BB
:10F9600012F966A3A322F0850882850983A3A3A3C5
:10F97000A32212FD8CEE2212F97B22E0F8A3E0F91B
:10F980008E828F832212F97BA3A3A3A32274F01289
:10F9900003ED74DF120A128A0E8B0F8C088D098911
:10F9A0000AEC4509700302FA56EA2408FEE4350F12
:10F9B000FF8E828F83E0C0E07402120C6ED0E0F004
:10F9C000E9A2E350358E828F83E06402600302FA7D
:10F9D000561221FF8A0C8B0D850E82850F8312FC37
:10F9E000C6E50C6A7003E50D6B600F7C03790112AC
:10F9F0001D9DE9600579CD02FC938E828F83E0F82E
:10FA00007402686005740F68703F850E82850F83ED
:10FA100012FCC6122295E98E828F836025740FF046
:10FA2000E0C0E0740B120C6ED0E0F08E828F83E0A9
:10FA300064037027AC0EAD0F74031209EA1213EFC2
:10FA4000802AE0640F70D9800D74036860D274015D
:10FA50006860CDE860CA790202FC93850E82850F4A
:10FA60008312F3A37403120C6E12F956E50AA2E195
:10FA700074125009120C6E74FFF0A38071120C6E98
:10FA8000E4F0A3F090030112FCBD604A88828983F0
:10FA9000A3A312FCC6E5086A7003E5096B88828996
:10FAA0008370E4A3A3A3A312F3A3E8FCE9FDEC4D48
:10FAB000602485088285098312FCA61205BEEA4BE4
:10FAC000602D8A828B8312F3A37412120C6E12F9CA
:10FAD000561212FF801985088285098312FCD560B1
:10FAE0000EA312F3A37412120C6EE8F0A3E9F074E3
:10FAF00018120C6EE4F0A3F0E50AA2E4501C740B9B
:10FB0000120C6EE0F8740F686010740168600B747A
:10FB100018120C6E7404F0A3E4F0E50AA2E7500991
:10FB20007418120C6EE04410F0E50AA2E65012744C
:10FB300018120C6EE04401F07401120C6E74018016
:10FB4000067401120C6EE4F0E50AA2E25009741882
:10FB5000120C6EE04440F0851082851183E4F0E5DC
:10FB60000AA2E55009741B120C6E7404800D901DDE
:10FB70000DE0C0E0741B120C6ED0E0F07437120C74
:10FB80006E12FCAFC0E0741A120C6ED0E012FC9D35
:10FB9000C0E0740C120C6ED0E0F0850E82850F83ED
:10FBA000A3A3A3A3A3A3A3A3A3E0C0E0740D120C7B
:10FBB0006ED0E0F07431120C6E12F3A37410120CBC
:10FBC0006E12F9567433120C6EE0FEA3E0FF74144B
:10FBD000120C6EEEF0A3EFF07435120C6E12F3A35C
:10FBE0007416120C6E12F9567439120C6EE0C0E0E5
:10FBF000741C120C6ED0E012FC9DF91228AD8A82A2
:10FC00008B83E58245836012A3A3A3A3A312FCD533
:10FC1000600874031209EA1205BEAA10AB1112287B
:10FC20009BE9C39EE49F5019901AE312FCBD600D3E
:10FC300074031209EA12F7251205BE800C7E0280B9
:10FC40000A74031209EA121EC3E9FE740B120C6E49
:10FC5000E06402702F1221FF8A0C8B0DA80CA90DF5
:10FC60007403120C6EE0687003A3E0697016EEFB7B
:10FC70007437120C6E12FCAFFA850882850983E096
:10FC8000F91228D1EE700A7437120C6E12FCAF0410
:10FC9000F0EEF9742112097A7F0802065DF08508FA
:10FCA00082850983E022E0FA79028C828D83221218
:10FCB000FCB322E0F8A3E0F5838882E02212FD8CF9
:10FCC000E8492212FCCCE0FAA3E0FB22E0F8A3E032
:10FCD000F583888222A3A3A3A312FDDDE5824583D9
:10FCE00022C082C08390030180048A828B8312FC2D
:10FCF000C6EA4B600C8A828B83A3A312FCAF6970A7
:10FD0000E9D083D08202092C74F61203ED1228ADDB
:10FD10008A828B83E58245836007A3A312FCC68099
:10FD2000047A007B0002FDB574F41203EDEAFEEBE9
:10FD3000FF89081228AD8A0A8B0BAC0AAD0B7A003A
:10FD4000EC4D60308C828D8312FCD56014AA08794A
:10FD5000011205BE8E828F83EAF0A3EBF07A018058
:10FD60001B8C828D83A3A312FD818E828F83E8F08A
:10FD7000A3E980078E828F83E4F0A3F0EAF902FE04
:10FD8000BA12FCCCA3A3A3A312FD8C22E0F8A3E03B
:10FD9000F92274F71203ED8A828B83E06401700408
:10FDA0007E0880027E00A3AA82AB83121EC9E9C32B
:10FDB0009EF902F3EE7F0202065DC082C0839003CB
:10FDC0000112FDD9790080080912FCC68A828B8352
:10FDD000E582458370F202FD0112FDDD22E0F8A309
:10FDE000E0F98882898322C082C083E9FC90030104
:10FDF000802588828983A3A3E0FDA3E0F5838D821B
:10FE0000E0FDEC6003ED600BED8A828B83F0A3AA2A
:10FE100082AB838882898312FCBD70D602FD017497
:10FE2000F71203EDEAFEEBFFEC2408F8E43DF98855
:10FE3000828983E08E828F83A3A3A3A3A3A3A3A31A
:10FE4000F088828983E0640370051213EF80078CC9
:10FE5000828D8312FE6B8E828F83A3A3A3A3A3A3A1
:10FE6000A3A3A3A3E4F0A3F002F3EE12F97BE8F05E
:10FE7000A3E9F02274F41203EDEAFEEBFF1228ADC1
:10FE80008A088B09A808A909E849700D8E828F831A
:10FE90007432F0A37401F08021E82406F508E439F7
:10FEA000F509750A0078081209487C027D00EEFA0F
:10FEB000EFFB121239740312097A7F0402065D7493
:10FEC000F01203ED74FB120A127403120C6EEAF0C6
:10FED000A3EBF07402120C6EECF07401120C6EEDD8
:10FEE000F0890B7417120C6EE0F50EA3E0F50F8588
:10FEF0000E82F583E02403851082851183F0FEFADB
:10FF00007B001212F98A0C8B0DEA450D700302FF7B
:10FF1000C57415120C6E12FFEB8A828B83F0E9A375
:10FF2000F0850E82850F8312FFDC850E82850F839C
:10FF3000A3A982AA8389088A09750A007808120988
:10FF400048850E82850F83E0FC7D00E50C2403FAD2
:10FF5000E4350DFB121239740312097A780C120978
:10FF60004C8E08750900780812094C741D120C6E2D
:10FF700012FFCA120950E4F508780812094C7408F7
:10FF8000120C6E12FFCA1209507508007808120987
:10FF9000507508017808120950740C120C6E12FF8B
:10FFA000CA1209507C047D00740E120C6E12FFE51B
:10FFB000A90B12142B740B12097AE9FEAA0CAB0DD3
:10FFC0001212FF80027E1002FFD0E0F508780822AE
:10FFD000EEF9740512097A7F0802065DE08A828BC9
:10FFE00083A3A3F022E0FAA3E0FB2212FFF0E822B1
:0DFFF00012FFF5F922E0F8A3E02202092C2F
:020000040001F9
:1000000074F71203EDE9901BA3F0901B58E4F01273
:100010001191901BBBE4F0A3F0901BA4F0A3F0128D
:10002000235B121B39121CBF121197901AB8E4F00F
:10003000A3F0121A4902ACC674F01203ED74D31285
:100040000A1212D64054806068901BA3E0F9121285
:10005000818A088B09AE08AF09EE4F604C7C0080A6
:10006000010CEC75F003A4F8A9F0747628F58274FD
:100070002E39F583E493F46029E493F88E828F831C
:10008000E06870DDEC75F003A4F8747728F58274ED
:100090002E39F583E493C0E0740193F583D0821286
:1000A00005BEEEFAEFFB12126F1285266480028500
:1000B0001A851082851183A3E0542060211221B794
:1000C0008A088B09AE08AF09EE4F600A1220E5EEF0
:1000D000FAEFFB12126F128526642002851A851032
:1000E00082851183E0542070030283C97A207B004B
:1000F000901BA3E0F91213CBEA4B4C4D701A901BE6
:10010000B7120C4BE8494A4B700E7508017509008F
:10011000750A00750B00806A750C00750D00750E70
:1001200000750F001213D78A088B098C0A8D0B906B
:100130001BB7120C4BE8494A4B6031901BB778084B
:100140001208AB400E750CFF750DFF750EFF750F95
:100150007F801985080C85090D8C0E8D0F901BB7BB
:10016000780C1209FA7401780C1209C9850C0885FB
:100170000D09850E0A850F0BE508128754700302DE
:1001800083077C0079047A007B0012217B8A0C8B28
:100190000DAE0CAF0D02824E7402120C6E74FFF0A5
:1001A0007403120C6E74FFF07404120C6E74FF1260
:1001B000E55474071209F212CAA71221E1E9640199
:1001C000706E12B8124480F8A3E0F97428120C6E15
:1001D000E8F0A3E912E345E0C0E0742A120C6ED007
:1001E000E012AF21540860167428120C6EA3E0448C
:1001F0000112853EC0E0742C120C6ED0E0F012A803
:100200005912C871601212AC9F12D626E0F874160B
:10021000120C6EE8F0A3E4F09091C312076C740620
:100220001209F2740B1209EA121C29740412097AD9
:100230008E828F83A3A3A3A3A3A3A3A3A374061255
:10024000853EF912215D7405120C6E12D63AEE4FFE
:1002500070030283077C007904EEFAEFFB12217B26
:100260007405120C6EEAF0A3EB12BEBC1288B4E463
:10027000F50EF50F7808790C120B9B4021EE240443
:10028000F8E43FF985080C85090D88828983C3E06D
:10029000950CF0A3E0950D12E9D470AA800C8E8223
:1002A0008F83A3A3A3A3E4F0A3F08E828F83A3A3E1
:1002B000A3A3A3A3A3A3A3A3E064018E828F83A31C
:1002C000A3A3A3A3A37023E0540460030281988E28
:1002D000828F83A3A3A3A3A3A3A3A3A37406F07AEB
:1002E000B71285311220CD028246A3A3A3A3E060FA
:1002F000030281988E828F83A3A3A3A3A3A3A3A3A6
:10030000A37401F002824612214B7C0079017A002D
:100310007B0012217B8B0DEA450D600C7A207B005F
:10032000901BA3E0F91212AB7C0079047A007B00E9
:1003300012217BEA4B7014804E8A828B83A3A3A385
:10034000A312B26AC3EE98EF99400B8A828B83A303
:10035000A3A3A312D63A7C00790412217B8B0BA9AC
:100360000BEA4970D4C3E5089EE5099F500DC3EE22
:100370009508FEEF9509FFEE4F70157A207B0090EF
:100380001BA3E0F91212AB901BB712A2B1F0802EA2
:10039000EE2EFEEF33FF8E088F09E4F50AF50B7899
:1003A000081209447A207B00901BA3E0F91213B9CC
:1003B000740412097A1213D7901BB7120C578510C8
:1003C00082851183E064208037E05410600E121C97
:1003D000FB851082851183E064108024E054406026
:1003E0000E121D6D851082851183E064408011E03E
:1003F00054806012121BF3851082851183E06480A3
:10040000FAA3E002851AA3E05401600B1223311213
:100410008526640102851A851082851183A3E05424
:10042000086047121CCB901A97E064017034901A50
:1004300098E0602EF508E4F509F50AF50B90922F87
:10044000780C120BFA7808790C1202FE780812095F
:10045000447A007B08901BA3E0F91213BF740412C6
:10046000097A128526640802851A8510828511830F
:10047000A3E054106013901BB5E06005E4F0121C7B
:10048000CB128526641002851A851082851183A3FC
:10049000E054406045901BDC12C8736036901DC666
:1004A000E06401702E901BDD12C10B1205BE901B83
:1004B000E212C873600612C10B1205BE90922F1291
:1004C000076C7A007B40901BA3E0F91213BF740401
:1004D00012097A1285266440804085108285118336
:1004E000A3E05402600A12232B1285266402802A9C
:1004F000851082851183A3E05404602112C73690D1
:100500001AA9E0640270031228357901901B561273
:10051000CE23121C471285266404FB80047A007BDC
:1005200000742D02D2C0851082851183E0FAA3E009
:10053000228E828F8312D61E12EC3BE0F92212AF7C
:1005400026A3A3E022E8F0A3E9F0901B5612B26EB6
:100550002274F71203ED74DA120A12EAFEEBFFEED0
:100560004F602DAC10AD111221E17406120C6EE03B
:10057000601E7417120C6EE0FD7401120C6EE0FC2C
:10058000EEFAEFFB790012200DE9600479A48002F5
:100590007900742602ACC374F41203ED8A088B0947
:1005A0008A828B83A3A3A3A3A3A3E0544060508AB1
:1005B000828B83128BB6122295E960067AFF7BFF4D
:1005C0008016850882850983128BB674FE6A7003D3
:1005D00074FF6B700302869485088285098312BBC1
:1005E000AD12D646122295E98508828509837003EB
:1005F0000286A912D61A12EC73E4F0A30286AD901B
:100600001B43E0A2E140030286948A828B8312ACF2
:10061000B112C676A3A31286E0A3A312D15885080F
:10062000828B83A3A3A3A3A3A3A3E05410600479A4
:100630004080027900750AFE750BFF780A12094C9A
:100640001286D6120774EEFCEFFD8508828B8312AA
:100650008BB6121CD1740412097AEE6A7002EF6B29
:10066000600F1286D6E06A7003A3E06B6003028518
:10067000CB750A00780A120950790285088285092B
:100680008312AF14FCA3E0FDEEFAEFFB1222D77445
:100690000112097A7ECDEEFA8508828509831285DA
:1006A000351220CDE9601B802812EC64E4F07CC197
:1006B0007D2085088285098312CE23121A43E9FE24
:1006C00070D4E508450960097901AA08AB0912212F
:1006D00057EEF902A41AE50812BE6F3509F5832218
:1006E000A3A3E0FA888289832274F61203EDE9FE5F
:1006F000EAFF7A0F7B00121269EA4B601F8A828B35
:1007000083740CF0EEA3A3F0EF8A828B8312AA11FC
:10071000901BA3E0F912127579008034EEF91221D2
:10072000818A088B09A808A909E84960218882897B
:1007300083A3A3A3A3A3A3A3A3A3740612DE5BA313
:10074000A3A3A3A3E0F9121D7FEEF912215D791096
:1007500002BF2EEA4509450A450B2274F21203ED49
:10076000EAFEEBFF8C088D09890A740E120C6E12DA
:1007700088B4850C82F583E4F0A3F01288BC1222C1
:1007800077E9602012CE16122295E9640270158E68
:10079000828F83A3A3A3A3A3A3A3A3A312D45612BC
:1007A000C59B8003750A00EE241D12AF0E14602E47
:1007B00014604314606414606C1460481470030285
:1007C000884824FE700302886514700302886E1442
:1007D000700302888114700302888F0288A5780C48
:1007E00012094CAC08AD09EEFAEFFB121CE37402DF
:1007F00012097A02888AAC08AD09EEFAEFFB121CE6
:10080000E90288AF12CE16122295E960030288A58C
:10081000EEFAEFFB121D310288AFA90AEEFAEFFBE8
:100820001222DD8065EE241712A11464027076E5B1
:100830000A700A12D9987003A3E0697072EEFAEF99
:10084000FBA90A12226B804212D9987003A3E069B7
:100850007053EE241712A11464027049EEFAEFFBF4
:10086000122253804AEEFAEFFB12234F804112D935
:10087000987003A3E069702DEEFAEFFB1222E98075
:100880002EEEFAEFFBA90A1222F5E9F50A80209074
:100890001DC6E064017009EEFAEFFB1222FB800F27
:1008A000750A00800A750A007AD37B00121743A9E3
:1008B0000A02A50AE0F50CA3E0F50D22EE241DF5D1
:1008C00082E43FF58312AF18F92274F41203ED7439
:1008D000D6120A128A088B098A828B83A3A3E0F9B5
:1008E0001221818A0A8B0BAE0AAF0BEE4F70030206
:1008F00089DF850882850983A3A882A983E0C0E0F7
:1009000012BE75D0E012A88164F16033850882853B
:100910000983A3E064CD6027850882850983A3E06D
:10092000641A601B850882850983A3E064E9600F6F
:10093000850882850983A3E064E16003028AB28EA0
:10094000828F83A3A3A3A3A3A3A3E05408700302ED
:1009500089E78E828F83A3A3A3A3A3A3A3A3A374D6
:100960000512C879E064E96047901BD812C873602B
:100970000612C10B1205BE901BDA12C873603190CB
:100980001B43E0A2E1502912CA99A3A3A312B27C8F
:100990008882898312CE2312238BEA4B601285084A
:1009A00082850983A3E0F9901BDA12BBAD1205BE64
:1009B0008E828F83A3A3A3A3A3A3A3A3A3E0640214
:1009C00070108E828F83A3A3A3A3A3A3A3A3A37456
:1009D00006F0850882850983A3A3E0F912215D1240
:1009E000214B742A02A4177900122157E9700302DF
:1009F0008AB2901B43E0A2E14003028A8012C86AD7
:100A0000607E8E828F8312CE2374041209F212CA82
:100A1000A71221E1850882850983A3E064E970209B
:100A2000128BA1120950850882850983A3E0F50A7B
:100A3000780A12095012D178122217740212097A18
:100A4000740D120C6E12C86012E8FA12C59B74097C
:100A5000120C6EE06004794080027900740F120C71
:100A60006E12B27C740D120C6E12CE23121CDDE9D4
:100A7000600E8E828F83A3A3A3A3A3A3E04420F0E0
:100A8000EE2404F50AE43FF50B8E828F83A3A3A323
:100A9000A3A3A312B27C85088285098312A87312CE
:100AA000CE231211A3850A82850B83EAF0A3EB0201
:100AB0008961850882850983A3E0C0E07402120C75
:100AC0006ED0E012EF61F0128B97E0C0E074031279
:100AD0000C6ED0E012E126E0AA10AB117024121CBB
:100AE000237402120C6EE0701C128BB2122295E974
:100AF0007036901BD812C873602E12C10B1205BE3F
:100B000080031222717402120C6EE064E9701912F3
:100B10008BA1120950750AE9780A12095012D1788E
:100B2000122217740212097A901B43E0A2E14003DB
:100B30000289B08E828F83A3A3A3A3A3A3A3A3A39D
:100B4000E0640270398E828F83A3A3A3A3A3A3E0E2
:100B50005404602A128BB2122295E98E828F837020
:100B60000F12BBAD74FFF0A312A88674050289D1E1
:100B7000A3A3A3A3A3A3A3A3A374030289D185085A
:100B800082850983A3E064E960030289B0EEFAEF8D
:100B9000FB1223070289B0E50812D6313509F58327
:100BA000228E828F8312B26EE8FAE9FB750A017811
:100BB0000A228E828F8312AF18FAA3E0FB2274F20E
:100BC0001203EDEAFEEBFF750A007508008E828FB6
:100BD00083A3A3A3A3A3E0603B750A0812CE1679F2
:100BE000FF121E818B0DEA450D6010750A2C8E8256
:100BF0008F83A3A3A3A3A3E0D2E0F08E828F83A36D
:100C0000A3A3A3A3E0540364016003028CC7430AB7
:100C100011028CC7EE241812A1146049EE241A1296
:100C2000A1146003F4701D12D9987003A3E06970D9
:100C300006750A22028CC7901B58E0640460030208
:100C40008CC7801CEE241BF582E43F128CDC241A36
:100C500012A114FAEE241912976D121D43E9706760
:100C6000750801806212CE16122295E964027003A3
:100C7000750A0112D9987003A3E0697006E50AD2DB
:100C8000E1F50AE50A60158E828F83A3A3E0700662
:100C9000E50AD2E58004E50AD2E6F50A12CE16127C
:100CA0002295E964017006E50AD2E0F50A8E828F8A
:100CB00083A3A3E060111288BC122277E96401606B
:100CC00006E50AC2E0F50AE50AA2E1400CE508A241
:100CD000E04006E50AD2E7F50A0288AFF5831296EE
:100CE000C82274F01203ED74C1120A12EAFEEBFF7F
:100CF00085108285118374FEF0A304F07402120C37
:100D00006EE4F0A3F0750D0074071209F28E828F65
:100D100083A3A3A312C86212CE211221E1E97003BA
:100D2000028F7B78017409120C6EE0C394024002BA
:100D30007800740B120C6EE0C394024002780074C9
:100D400010120C6EE064F87003A3E0F47003028FDD
:100D50007B7410120C6EE064F97003A3E0F470036E
:100D6000028F7B7410120C6EE064FA7003A3E0F43F
:100D70007003028F7B7410120C6EE064FB7003A38F
:100D8000E0F47003028F7B740A120C6EE0F9901B82
:100D900046E0696003028F7BE8A2E04003028F7B9C
:100DA00012B2617426120C6E12B298241C12B26434
:100DB0007414120C6E12C59B740D120C6EE0601D43
:100DC000741E120C6EE0FD7408120C6EE0FC8E8234
:100DD0008F8312CE21790112200DE9703D74071224
:100DE00009EA1220DFE9F50C740D120C6EE0702F89
:100DF000901B40E060297422550C642260217442EB
:100E0000550C644270147424120C6E1296B2600F6A
:100E10007424120C6E1296A060057ACF028F7DE9C1
:100E2000A2E6505F901B43E0A2E174245011120C23
:100E30006E12AF141207F901010B5B8E007B8F124B
:100E40000C6E12AF1424FD601214600F24FD600BB1
:100E500024FD600724FE6003028F7B7424120C6E55
:100E60001296CF700E7424120C6E12C10AA3E064A5
:100E70000D601074071209EA1222D1E964017003AF
:100E800002968512968A129D957003A3E0697021DF
:100E900075080078081209507808120950EE242FBE
:100EA00012976D1296B812CE2312221774021209ED
:100EB0007A740D120C6EE07003028F5A1296B812FB
:100EC000CE2312238B8A0E8B0FEA450F7003028FFD
:100ED000857408120C6EE0F88E828F83A3A3E0283D
:100EE000F8A3E03400F9E8240D12E28EF88A828B30
:100EF00083A3A3A3E0686010E88A828B83A3A3A3E3
:100F000012AA0AF0A3F0A3F079047408120C6E126E
:100F1000A120E02AF8A3E034008882F583A3AA8206
:100F2000AB831212578A088B098C0A8D0B850E82AF
:100F3000850F83A3A3A3A378081208AB40030296EE
:100F4000859092337808120AF2850E82850F8312FB
:100F5000EEBDA3E50AF0A3E50BF0901B43E0A2E190
:100F60004003029685742B120C6EE0605B741212C3
:100F70000C6E12CE23121B57E9703F7AD37B0012FE
:100F80001743029685901B9DE0640170CD74241276
:100F90000C6E1296B27006E50CA2E640BD741412F7
:100FA0000C6EE0F47003A3E0F4600CEEFCEFFD7453
:100FB000071209EA1220EB0296858E828F83A3A383
:100FC00012BBADA3E0C2E5F07418120C6EE060171E
:100FD00012969412E8EB1412ED9D12A10DF87418FC
:100FE000120C6EE8F07006E50CC2E7F50CE50CA2F9
:100FF000E3506B7402120C6EE4F0A37410F0E50C75
:10100000A2E25018740C120C6EE054E3F0740C124F
:101010000C6EE0131313541FF8E0802CA2E4502A46
:10102000740C120C6EE01313543F5407F8600974EB
:101030000768600B18E87007C3E50CC2E7F50CE819
:10104000333354FCF8E054E348F0740C120C6EE0B7
:10105000C0E08E828F83A3A312A952D0E0F0901B30
:1010600058E064046008E06409600302913A741077
:10107000120C6E12D9A57003A3E069601F741012E0
:101080000C6E12CE23122295E96402600F740C12CA
:101090000C6EE05403640160030296857409120C1F
:1010A0006EE07041EE242F12A114C0E07404120C03
:1010B0006ED0E01296F8C0E07405120C6ED0E0120B
:1010C00096F0C0E07406120C6ED0E01296E512079E
:1010D0006C74081209F2740B1209EA121C297404C8
:1010E00012097A80527424120C6E12CA7C70167423
:1010F0001E120C6EE06402703E74071209EA790059
:1011000012226B80327424120C6E1296A07014742A
:101110001E120C6EE06404701E74071209EA12229B
:101120005F80147424120C6E1296CF700A790074CA
:10113000071209EA1222DD0296857461550C7003CC
:10114000029250E50CA2E0507912B27374071209B2
:10115000EA121D73E97068122211E9F50D74181274
:101160000C6EE070157412120C6E12C85B24131210
:10117000A114687003A3E0696048A90D12B27374EA
:10118000071209EA121D79E9602AE50CA2E3500C66
:1011900085108285118374FFF0A3800C7410120CEB
:1011A0006E1296D6E8F0A3E9F07402120C6EE044D9
:1011B00004F0800EE50CC2E5F50C750D00800353BC
:1011C0000C9FE50CA2E5503FEE242F12A114C0E0C5
:1011D0007404120C6ED0E01296F8C0E07405120C84
:1011E0006ED0E01296F0C0E07406120C6ED0E012E1
:1011F00096E512076C74081209F2740B1209EA12D0
:101200001C29740412097AE50CA2E6400302951E1B
:10121000A810A91188088909780812094CA90D128B
:1012200096A91209EA1220D3740212097AE9F50D7F
:10123000700302951E7424120C6E12AF14640160C8
:101240000302951E7402120C6EE04410F002951E0B
:101250007409120C6EE06401705D7424120C6E123D
:10126000AF146405701EA810A911880889097808B0
:1012700012094C1296A71209EA1220D3740212091D
:101280007A0296857424120C6E1296CF702974100F
:10129000120C6E12CE23121B57E9601BA810A91165
:1012A00088088909780812094C1296A71209EA12CF
:1012B00020D3740212097A7418120C6EE07025742F
:1012C00009120C6EE06401700C7424120C6EE0F8CC
:1012D0001296CF600CEEFCEFFD74071209EA1220A3
:1012E000EB029685122151E96003029685741F1264
:1012F0000C6EE070030293947422120C6E12B27C96
:101300007421120C6EE0FA7420120C6EE0F9121DBA
:1013100043E960737421120C6EE0701E7410120C9D
:101320006E1296D612B904FAA3E0FB121B638B0966
:10133000EA4509600302951880427422120C6E126D
:10134000CE237421120C6EE0F9121D3D12D64078A6
:1013500008740F120C6EE060027810740E120C6E9E
:10136000E06004740828F8740C120C6EE060010848
:10137000088E828F83A3A312BBDD14F07402120CBB
:101380006EE04440029517750800780812095079FC
:101390000B0294CE7410120C6E12C590740B120CCA
:1013A0006EE060030294E9E50CA2E350030294E9C5
:1013B0007409120C6EE06401607A790085108285F0
:1013C000118312CE23121D978A088B09A808A90938
:1013D000E849601C88828983A3A3A3A3A3E06401D6
:1013E000605288828983A3A3A3A3A3E0640260441C
:1013F00012968A12B52312CE2312238B8A828B83F4
:10140000E58245836015A3A3E0F91223A9E9600BE7
:10141000C3940895E0C365D03340197412120C6E62
:1014200012CE23121B57E970030294C4740B120CE2
:101430006E7404F07400F5087808120950742012D4
:101440000C6EAC82AD837411120C6E12CE23740C30
:10145000120C6EE0F9121DA9740112097AE96013E9
:101460007402120C6EE0442012B29DF812C10AE020
:10147000543FF0741F120C6EE060207410120C6E5A
:1014800012B27C7420120C6EAA82AB831221DB1282
:10149000D6407402120C6EE04440F07409120C6ED7
:1014A000E06401601579007412120C6E12B27C7443
:1014B00010120C6E12CE23121D49E50CA2E3503718
:1014C0007940803575080078081209507902741146
:1014D000120C6E12B27C7413120C6E12CE231222F6
:1014E000D7740112097A029685E50CA2E340030243
:1014F0009434744002943679007412120C6E12B255
:101500007C7410120C6E12CE23121CDDE96009747B
:1015100002120C6EE04420F0122211E9F50D851044
:1015200082851183E064FE7003A3E0F47003750DFF
:1015300000901A9AE0640160030295D1EE24131220
:10154000A114F47003A3E0F470030295D174101297
:101550000C6EC3E094F9A3E094FF507512B261746D
:1015600012120C6EE0687003A3E0696064741212DA
:101570000C6E12CE23121B638A088B09A808A909D6
:10158000E849604D88828983A3A3A3A3E064016036
:101590000D88828983A3A3A3A3E06402703374320D
:1015A000120C6E740112DE50F8A3E0F9743D120CB7
:1015B0006E12C59B74321209EA121B0FE960127495
:1015C00035120C6EAA82AB83121B75E960031217E9
:1015D00013E50CA2E74003029685E50D7003029621
:1015E000858E828F83A3A3A3A3E0FA7B001212F956
:1015F0008A0E8B0FEA450F70030296858E828F83C9
:10160000A312D4481209488E828F83A3A3A3A3E018
:10161000FC7D00121239740312097A7409120C6EDF
:10162000E0C0E0742D120C6ED0E0F07430120C6E3D
:10163000E4F0A3F0742D1209E288088909780812F1
:10164000094C75080078081209507405120C6E12C6
:101650000774E50DF508780812095012B243120715
:10166000748E828F83A3A3A3A3E0F97408120C6E77
:1016700012C10F1221CF740812097AE96007AA0E6D
:10168000AB0F1212FF743F02D2C0EE242DF582E49C
:101690003FF58322EE2402F8E43FF9888289832211
:1016A00012BBB3E0640722790012B24712B2807411
:1016B000092212AF18640622EE242BF582E43F12B1
:1016C00096C612B24822F583E0FCA3E0FDEE22129A
:1016D000BBB3E06403221296DA2212EDA8F985105A
:1016E0008285118322F0EE2425F582E43FF58322E2
:1016F000F0EE243112A11822F0EE243012A11822AB
:1017000074F41203EDEAFEEBFF8C088D09901A9732
:10171000E0600F12D9987003A3E0697005121CCB2A
:101720008048790012CE16121D978A828B83E5823B
:101730004583602EA3A3A3A3A3A3E054186023E5CD
:1017400008241C12C57F12077412C57B120774EEA1
:10175000241812976D129772121DAF740412097A31
:1017600080087900129772121CF502A41A12A118AF
:10177000F9228E828F83A3A3A3A3A3A3A3A3A3125F
:1017800096C812C67B12CABA2274F01203ED74E531
:10179000120A128A0E8B0FEA2402F50AE4350FF5BD
:1017A0000B0A0AFB121B698A088B09AE08AF097580
:1017B0000901850E82850F83A3E0F50C750801AC45
:1017C0000AAD0B7410120C6EAA82AB831213EF7465
:1017D00018120C6E74FEF0A304F0741A120C6E74DE
:1017E00002F0740D120C6EE4F0901AB7E0700EEE79
:1017F0004F700AE50C70067509C30299E6901B58F4
:10180000E0640860067509C20299E2850E82850FC0
:1018100083A3A3A3A3A3A3A3A3A3A3E0A2E1500E26
:10182000A2E35005750804800C7508038007A2E345
:101830005003750802EE4F70030298DA8E828F8390
:10184000A3A3A3A3E06404600D8E828F83A3A3A34C
:10185000A3E06403700C74046508602C74036508CD
:1018600060268E828F83A3A3A3A3E06402600D8E03
:10187000828F83A3A3A3A3E0640170377402650879
:10188000600674016508701E8E828F8312CE23124B
:1018900022B3E970458E828F8312B26A7418120CDB
:1018A0006E12C59B80348E828F83A3A3A3A3E064B2
:1018B00002600D8E828F83A3A3A3A3E06401700A4C
:1018C0008E828F8312CE23121D13E50E2402FAE4BA
:1018D000350FFB121B757E007F007418120C6EE032
:1018E00064FE7003A3E0F47048121B1BE97042E52C
:1018F0000C601D901DEA12CE231222B3E9701190E4
:101900001DEA12B26A7418120C6EE8F0A3E9802086
:10191000850E82850F83A3A3A3A3A3A3A3A3A3A33D
:10192000E05402F9121D077418120C6EEAF0A3EBD2
:10193000F07418120C6EE064FE7003A3E0F47006FD
:101940007509C70299E2E50CF50A780A1209508573
:101950000E82850F83A3A3A3A3A3A3A3A3A3A3E0A2
:10196000F9E50E2402FCE4350FFD7419120C6E1219
:10197000CE23121C4D740112097AE97065901BE6A2
:1019800012C87360117418120C6E12CE23901BE7EC
:1019900012C10B1205BEA908E50E2402FCE4350FA6
:1019A000FD7418120C6E12CE23121B458A0A8B0B83
:1019B000AE0AAF0BEE4F601F7402650C700D8E8285
:1019C0008F83A3A3A3A3A3E0D2E3F0741A120C6E37
:1019D000E4F0750900800B7418120C6E74FEF0A30D
:1019E00004F0E50C700A74051209EA121A31805BE2
:1019F000901AA9E070497401650C7043901A86E052
:101A0000703DE50E2402F8E4350F12C594740212FD
:101A10000C6EE4F07403120C6EE4F07404120C6E9D
:101A2000E4F0741A120C6EE4F07C01A9087405123B
:101A300009EA122259AA10AB11121C05029AE1AC54
:101A40000CA90874051209EA122259E9F8EE4F6050
:101A500053E50C60208E828F83A3A3A3A3A3E0D2BF
:101A6000E6F07402650C700D8E828F83A3A3A3A38E
:101A7000A3E0D2E5F0850E82850F83A3A3A3A3A3E1
:101A8000A3A3A3A3A3E0A2E6500D8E828F83A3A3FA
:101A9000A3A3A3E0D2E7F08E828F83A3A3A3A3A383
:101AA000A3E004F0E5097005E86036600AFC7D00FB
:101AB0007A017B1012119DEE4F600CE50E2402FAA4
:101AC000E4350FFB121B757418120C6EE064FE7087
:101AD00003A3E0F4600B7418120C6E12CE23121DD7
:101AE00013741B02D2C074F71203ED74F7120A12BA
:101AF000EAFEEBFF901B58E06403600DE0640160B8
:101B000008E064096003029BE88E828F83A3E06093
:101B100003029BBE7C007D007A027B0012119D12A5
:101B20009BED8A828B8312B26A901B4912C59B7906
:101B300053121A2B901B58E064096009901B56122F
:101B4000CE23122385851082851183740112C8A1CA
:101B50007942121A2B901B587404F074011209EA8E
:101B6000794A121A2574011209F27A4E7B1B12135C
:101B7000EF901834E0640B70057406F0800B790068
:101B8000901B5612CE23121C47901B4CE064FE7033
:101B900003A3E0F46010790074011209F2901B4C69
:101BA00012CE23121B45901B43E0A2E35004D2F057
:101BB0008002C2F012C8977952121A2B80278E82A7
:101BC0008F83A3AE82AF83FC7D007A037B1012115A
:101BD0009D8E828F83E0F9901B5612CE23121C47F4
:101BE000901B58E4F0122127740902ACC3EE2402C2
:101BF000FAE43FFB22C082C083901AB812C8737007
:101C000017901B58E024FB6005146007800A901AA7
:101C1000BF802F901AC1802AE8496008901AB91233
:101C2000A12D700C8A828B83A3E0F9121C2F801DDA
:101C3000901AB812CA826402700512231F800E9097
:101C40001BD612C873600612C10B1205BE02BD215D
:101C500074F01203ED74E8120A12EAFCEBFD8C82B8
