:020000040027D3
:10B0000038B50025DFF8C84320E0A078904204BF9F
:10B0100022784D2A03D1607800F096F80546002189
:10B02000E1700EE0E06A40F634029042F7D2636AC3
:10B030009DF800201A54401C8842E06201D105208E
:10B04000E070A0789DF800104840A070684600F0BD
:10B050002BFA00283BD0E3789DF80000A16A092B69
:10B060000246EED8DFE803F0080F141707061F2288
:10B07000272CE6E7C9E7D5E7FE2AE2D10120E070F8
:10B080000020E062DDE7A0620020A0700220D7E788
:10B0900020700320D4E700296070D0D0FF2914BFAE
:10B0A00004200620CCE7A0620720C9E701EB0221BB
:10B0B000A1620820C4E701EB0241A1620920BFE7B9
:10B0C00011EB0261A1620CBF05200420B8E7280043
:10B0D00018BF012032BDF8B5BE4DBF4C29680094A1
:10B0E0008868B0F1A53F26D10A69CB68BB4F022022
:10B0F0009A42B6414FF0000CF60FC7F800C0C7F8EF
:10B1000000C00BD1B64EB34204D3401E04E05B1C1A
:10B110000028F7D11E787E609342F8D178683A68AB
:10B120000B6842EA002292B2934204D10422083111
:10B13000684600F076FB2A689068A04201D10120A1
:10B14000F2BD0020F2BD00002DE9F14F82B0DFF822
:10B1500080929DF80830D9F8242000200190002723
:10B160005B1E8046032B16469E481DD8DFE803F081
:10B170001D89B602202109F1040000F06DFB0120B9
:10B1800030707770B770F770307177710820B071D8
:10B19000F77137727772B072F772377306F10D017B
:10B1A000D9F82400091A0191A9E01578547805EB23
:10B1B0000425947805EB0445D47805EB0465331D2C
:10B1C0001C7893F801A093F802C01E1D04EB0A241A
:10B1D000DB7804EB0C44891B04EB036402EB010AEB
:10B1E0006119491EB5F5001F00916BD3814269D2E8
:10B1F000544567D3A5F500104FEAD02B0DE009F1B7
:10B2000004004FEADB010122405C02FA04F409F178
:10B210000402044354540BF1010B0098A0F50010F4
:10B22000C00A584513D309F104004FEADB010BF0C3
:10B230000704405CE040C007EDD44FEACB2000F5A6
:10B24000001000F0E1FA0028D9D04FF00108CAF14F
:10B25000040414F0030405D0FF22214606EB0A0083
:10B2600000F0FEFAB8F1000FA24448D1BAF1000F85
:10B2700045D052462946304600F0D3FA00283ED049
:10B2800020E015785178947805EB0125D17805EB0D
:10B29000044505EB0165331D1C7859789A781E1D0D
:10B2A00004EB0124D97804EB0244B5F5001F04EB4C
:10B2B000016407D36119491E81423CBF40F6350045
:10B2C000844202D34FF0010819E00CB36119491E02
:10B2D0000978FF2908BF641EF7D019E03D4D3E4CA8
:10B2E0002868009400F108010422684600F099FAE9
:10B2F00028688168A1420CBF01274FF00708019A16
:10B300009DF80800414600F00EF83846BDE8FE8F73
:10B3100022462946304600F0D7FAD9F82400361ADA
:10B32000A6190196EBE77FB5144600228DF80020A0
:10B33000FE25631C8DF8045001AAFF2B32BF537009
:10B34000FF2555704D258DF8065040F08000FF2BED
:10B350008DF8070002AD0AD313711D0C8DF80A5049
:10B36000180A1B0E8DF809008DF80B3003AD05F897
:10B37000011B01A82D1A012006E09DF80010135CA6
:10B3800059408DF80010401CA842F6D30020104E02
:10B3900007E0726A9DF80010125C51408DF80010B1
:10B3A000401CA042F5D3294601A800F054F800281B
:10B3B000F9D02CB1706A214600F04DF80028F9D080
:10B3C0000121684600F047F80028F9D07FBD000051
:10B3D000004000203040002005A0A00514700D4062
:10B3E0001C01200000B0270038B5002000F0E4FA6E
:10B3F0004FF4007000F000FB3E4C3F4D204600F043
:10B4000069FB41F6FF71204600F096FB01212046C2
:10B4100000F099FB00220221284600F099FB02214E
:10B42000284600F03BFD354A0121284600F0C4FBC8
:10B430000121284600F030FD00F0A8FA0146602303
:10B440004FF4E132204600F00DFB2046BDE83240CB
:10B4500000F033BB35E0F8B50C4629490A684B6863
:10B4600040F63206934208BF354604D09A423ABFAE
:10B47000F51A5519D51AA54201D20020F2BD1A4677
:10B480000025204B06E0475D9F54521CB24228BF66
:10B4900000226D1CA542F6D34A6000F012F8204647
:10B4A000F2BD144800F027BB38B50446114D2846BC
:10B4B00000F021FB20B1284600F026FB207001207F
:10B4C00032BD38B50F4C0E4D08E02868401C28608E
:10B4D00040F63201884224BF00202860286869684D
:10B4E000884205D0215C034800F018FB0028ECD10D
:10B4F00031BD000000C0004000900D4000410D40F3
:08B500009C5000206848002067
:10B80000000800207DC0270038B5124A1468542370
:10B810004FF400611A689047FFE700F00CF82846E3
:10B8200032BD70B50B4B1C6858252E68B04700F030
:10B8300002F8284670BD054604F00C00FFE70549F4
:10B840000A681306FCD422F00C021043086070470B
:10B850000000000008300D40002200F005B8000094
:10B8600062F30F2262F31F42401810F0030308D066
:10B87000C91A1FD3DB0748BF00F8012D28BF20F8E5
:10B88000022D130030B414461546103928BF20E9A4
:10B890003C00FAD8490728BF20E90C0048BF40F80F
:10B8A000042D890028BF20F8022D48BF00F8012D83
:10B8B00030BC7047C91818BF00F8012DCB0728BF4E
:10B8C00000F8012D7047000062B38B0708D0521EAC
:10B8D00011F8013B00F8013B00F024808B07F6D102
:10B8E000830740F0208000BF103A07D330B4B1E89E
:10B8F0003810103AA0E83810F9D230BC530724BFF2
:10B90000B1E80810A0E8081044BF51F8043B40F823
:10B91000043BD20724BF31F8022B20F8022B44BF8E
:10B920000B7803707047083A07D3B1E80810083A5B
:10B9300040F8043B40F804CBF7D25307E4E700009B
:10B9400070B50B00354D03D12B6843F400132B6009
:10B950002C68334B1C4008B944F08074002914BF94
:10B960004FF480360026344322432A604FF6FF749A
:10B97000686800F48030864218BF002C05D0102083
:10B9800000F032F86868641EF3E770BD254801686E
:10B99000002001F0070107290DD8DFE801F00405B8
:10B9A000060708090A0B0FE010E011E012E013E0AF
:10B9B00014E015E01C48704718490A6822F4E06258
:10B9C00042EA00220A6070471848704718487047DA
:10B9D000184870471848704718487047184870470B
:10B9E00018487047000000000138FDD170477047CB
:10B9F000154908200860FEE710B50FF25001FFE777
:10BA0000C0F3032251F822200124136800F00F0034
:10BA100004FA00F01843106010BD000000200D4033
:10BA2000F8FFFEFE04200D4090D003000048E8011E
:10BA30000024F40000127A0000093D0080841E00FA
:10BA400040420F0020A1070074200D4008200D4047
:10BA500018200D4028200D4038200D4048200D4072
:10BA6000A8200D40F8B504460E4617461D4600F0C6
:10BA700031F8B6EB071F04F1300005D2016841F040
:10BA8000200101607F0803E0026822F020020260CA
:10BA9000F600B6FBF7F0401C400804F124028109CF
:10BAA000116000F03F0004F12801086004F12C004F
:10BAB0000560002044F8180FF1BD00F12C010A6860
:10BAC00042F010020A6040F2013150F8303F0B435F
:10BAD0000360704700F118010A681307FCD400F1F5
:10BAE0002C010A6822F010020A6050F8303F114918
:10BAF0000B4003607047183000680009FFE700F052
:10BB0000010080F00100704700F118010A68D306B7
:10BB100001D4006870474FF0FF30704710B500F156
:10BB2000180213689C0602D40160012010BD002099
:10BB300010BD0000FEFCFFFF50F8382FFFE722EA9F
:10BB400001010160704700F6C87001607047000095
:10BB5000F0B500230FF280240FF29C250FF2B826D7
:10BB60000FF2D42721FA03FC5FEACC7C20D5DFF862
:10BB7000D0E170450CD0DFF8CCE170450BD0DFF898
:10BB8000C8E170450AD0DFF8C4E1704509D00BE088
:10BB900054F823C00AE055F823C007E056F823C044
:10BBA00004E057F823C001E0DFF8A4C1CCF800207E
:10BBB0005B1C082BD6D3F0BD10B50023DFF8804105
:10BBC000A0420CD0DFF87C41A04224D0DFF87841BD
:10BBD000A04240D0DFF87441A0425CD07AE0022954
:10BBE00008BF012376D0042908BF022372D0082998
:10BBF00008BF03236ED0102908BF04236AD0202970
:10BC000008BF052366D0402908BF062362D08029DB
:10BC100060D107235EE0012908BF08235AD002291A
:10BC200008BF092356D0042908BF0A2352D0082987
:10BC300008BF0B234ED0102908BF0C234AD020295F
:10BC400008BF0D2346D0402908BF0E2342D08029CB
:10BC500040D10F233EE0012908BF10233AD002292A
:10BC600008BF112336D0042908BF122332D0082977
:10BC700008BF13232ED0102908BF14232AD020294F
:10BC800008BF152326D0402908BF162322D08029BB
:10BC900020D117231EE0012908BF18231AD002293A
:10BCA00008BF192316D0042908BF1A2312D0082967
:10BCB00008BF1B230ED0102908BF1C230AD020293F
:10BCC00008BF1D2306D0402908BF1E2302D08029AB
:10BCD00008BF1F23136010BDF0B500230FF27804D6
:10BCE0000FF294050FF2B0060FF2CC0721FA03FC15
:10BCF0005FEACC7C20D5DFF848E070450CD0DFF857
:10BD000044E070450BD0DFF840E070450AD0DFF822
:10BD10003CE0704509D00BE054F823C00AE055F828
:10BD200023C007E056F823C004E057F823C001E021
:10BD3000DFF820C0CCF800205B1C082BD6D3F0BD68
:10BD400000900D4000A00D4000B00D4000C00D401F
:10BD500000400D4080400D4080400D4084400D402B
:10BD600088400D408C400D4090400D4094400D4067
:10BD700098400D409C400D40A0400D40A4400D4017
:10BD8000A8400D40AC400D40B0400D40B4400D40C7
:10BD9000B8400D40BC400D40C0400D40C4400D4077
:10BDA000C8400D40CC400D40D0400D40D4400D4027
:10BDB000D8400D40DC400D40E0400D40E4400D40D7
:10BDC000E8400D40EC400D40F0400D40F4400D4087
:10BDD000F8400D40FC400D4000400D4004400D4037
:10BDE00008400D400C400D4010400D4014400D40E7
:10BDF00018400D401C400D4020400D4024400D4097
:10BE000028400D402C400D4030400D4034400D4046
:10BE100038400D403C400D4040400D4044400D40F6
:10BE200048400D404C400D4050400D4054400D40A6
:10BE300058400D405C400D4060400D4064400D4056
:10BE400068400D406C400D4070400D4074400D4006
:10BE500078400D407C400D4030B5CB4300F5806408
:10BE6000D50725684CBF0D431D40256000F5846053
:10BE7000920747BF0268114301681940016030BD55
:10BE800004460D460222FFF7E7FF29462046BDE89B
:10BE900038400022FFF720BF38B5F1E738B5044637
:10BEA0000D460222FFF7D8FF29462046BDE838405C
:10BEB0000822FFF711BF000010B56FF07F44204645
:10BEC000441E20B1FFF7EDFA0028F8D0012010BD84
:10BED00010B500F035F816490820086000F038F871
:10BEE000FFF782FAFFF7E8FF10B9FFF7F4F850B94F
:10BEF000FFF7B0FAFFF784F80028F9D00D4CFFF7F0
:10BF0000A9FA641EFBD10C480168486900F004F8E6
:10BF1000BDE81040FFF76CBD01B40849086001BCE2
:10BF2000D0F800D04FF0FF3E406800477047000057
:10BF300008300D40444404003040002008ED00E08B
:10BF400080B500F015F800B10120C0B202BD0000BC
:10BF500080B50122C0210548FFF7BEFEBDE80840BC
:10BF6000002200210120FFF7EBBC000000C00D40C3
:10BF7000EFF3108072B6704719E050F8042BD30726
:10BF800044BFA9F101039A18091F0023042942F8AC
:10BF9000043BF9D25FEA817C134604D54FF0000CD4
:10BFA000A2F800C09B1CC90744BF0021197050F8BB
:10BFB000041B0029E1D1704730B50168846842183C
:10BFC000416802EB5103C9070BD54C4409E012F953
:10BFD000011B12F8015B002904F8015B05D5491C1F
:10BFE000F9D19A42F3D10C3030BD491EF1D5F8E7B2
:10BFF00010B5074979441831064C7C44163404E0E6
:10C000000A68081D114488470146A142F8D110BDB5
:10C01000080000002400000061FFFFFF7010000016
:10C02000344000200000000091FFFFFF5C00000092
:10C030001C0000000040002000F00BF8002801D098
:10C04000FFF7D6FF0020AFF30080FFF741FF00F0BD
:10C0500002F80120704700F001B80000074638469A
:10C0600000F002F8FBE7000080B5AFF30080024A61
:10C0700011001820ABBEFBE726000200AFF30080E2
:10C08000AFF30080FFF7D8FFDC000334400020F856
:06C0900000031C0120006A
:0CFFD400000000000000000000B8270042
:020000040020DA
:10000000A06300206117220091172200951722009B
:10001000991722009917220099172200000000006A
:1000200000000000000000000000000099172200FE
:1000300099172200000000009917220005152200E0
:100040009917220099172200991722009917220068
:10005000000000009917220069C4200099172200AF
:1000600099172200000000000000000000000000BE
:1000700000000000000000009917220000000000AE
:1000800000000000000000009917220099172200CC
:100090009917220099172200991722009917220018
:1000A0009917220099172200314A2000974A200010
:1000B00099172200991722009917220099172200F8
:1000C00069182200EB492000991722009917220095
:1000D000991722000000000000000000000000004E
:1000E0000000000000000000000000000000000010
:1000F000991722000000000099172200000000005C
:10010000FFFFFFFFFFFFFFFFFFFFFFFFFFFFFFFFFF
:10011000FFFFFFFFFFFFFFFFFFFFFFFF7F58000014
:10012000FFFFFFFFA5A5A5A500002000FFAF27004A
:100130000000200010B5DFF8C00B0FF2B961DA4CF7
:1001400041650FF2F97181650FF27551E1620FF2AD
:10015000355121630FF6290161630FF65501A16343
:100160000FF2F971E1630FF2B93121640FF2B55169
:1001700041640FF20D6181640FF27551C1640FF695
:10018000B1010165206908B102F089FBDFF8BC0B01
:100190000B49A0600B22082020730020206181F809
:1001A00020002075002104F1150002F0C1FB04F1CC
:1001B0002000BDE810400B22002102F0B9BB000076
:1001C000284200203EB504460520E0820320207529
:1001D0006068401E6060411E616094F83A100170D2
:1001E00094F83A0010B14FF6FF7121876068411E04
:1001F0006160218F090A01706168208F087004F125
:100200002F01207AC01C2072684602F0CAFDDFF878
:10021000080AC38C03228DF8082003216A46204671
:1002200001F0E1FC050004BF204600F0B4FE2846C2
:100230003EBD70B50D46044661680498160A01F883
:10024000016D01F8020C01F8012CDFF8CC09428D98
:10025000120A01F8032C408D01F8040C180A01F869
:10026000050C01F8063D227A606861608218521A16
:100270002272287ADFF8301C03280CBF01200020EE
:10028000E0820B220920207504F1240002F038FBE3
:100290004FF6FF732A460321204601F0A4FC050017
:1002A00004BF204600F077FE284670BDDFF8FC1B37
:1002B000897A0829A8BF072101700078C006000EBE
:1002C000704700002DE9F04705460F46904602F0C2
:1002D0006FFD0026DFF8D49BD9F800A0441EA4418E
:1002E000E40F0AE0ED1F411D284602F05AFD1036CA
:1002F0005AF808AC6D1EF6B27F1EF8B280B10CE061
:100300009AF81900410606D5DAF804004178C1F3DD
:1003100081010329E6D05AF808ACBAF1000FEFD1F9
:100320000CB102F041FD02F043FD411E8941D9F8B4
:100330000000C90FF0B142685378C3F38103022B68
:1003400015D1437E5B060AD5927905F80129761C02
:100350004268537905F80139F6B27F1E07E0027E44
:10036000930604D5012388F80030FAB212B150F890
:10037000080CDFE709B102F017FD2E70681EBDE81A
:10038000F0872DE9F04385B08946002106468DF8B7
:10039000001090460DF10100FFF788FFDFF8785854
:1003A0000746287B3F184137FFB2384602F0F0FA83
:1003B00004004DD0E019606046EA09160020207262
:1003C0002A7B606851424718A968384602F098FABB
:1003D0009DF801106A46781EFFF774FF00217E4ADF
:1003E0000170137869789B0143EAC11343EA08134B
:1003F00043F00F0300F8013C00F8026D227A6168B7
:1004000060608A18121A00202272E08220758DF82E
:100410000C000B22DFF8F01B04F1240002F070FA4C
:100420009DF8000018B1E18A41F00801E1824FF621
:10043000FE71688D8842ACBF03210221002301AA0E
:10044000204601F0D0FB0028204602D002F0B2FA8C
:10045000002005B0BDE8F083F8B5074602F0A8FC1F
:10046000461EDFF8480A0468B641F60F00250EE084
:10047000617E080609D57968606801F063FB20B1E8
:10048000607E00F0BF006076254654F8084C002CD2
:10049000EED11DB1687E40F0400068761EB1BDE827
:1004A000F14002F081BCF1BDF86F00202DE9F84366
:1004B0008046894602F07CFC0026471EDFF8EC09E6
:1004C0000568BF41FF0F00240AE02C46617E207EB4
:1004D00041F0100140F080006176207655F8085C0C
:1004E0009DB1687E0106F9D56A684946404601F02B
:1004F00045FB0028F2D0002CE7D0207D012804D154
:100500006068017841F0100101700FB102F04CFCFD
:1005100014B100F0CDFC01263046BDE8F2830000A6
:100520002DE9F04182B00025009502F041FC00F079
:100530004BF80EE054F8088C2A462146384602F063
:1005400003FB2146684602F0BBFAB87A411E4446D6
:10055000B972CCB1607E010605D5608A401E60820A
:1005600080B20028E6D0254654F8084CF1E7FFF7A2
:1005700073FF607E410759BFF0206070E921617010
:10058000204600F0EAFB18E00EB102F00DFCB87A4C
:1005900098B1DFF88416487B0F281EBFDFF83C1B9C
:1005A00091F82000002808D1DFF8504C204602F0D6
:1005B000B8F83021204602F09BF8684602F09BFA1A
:1005C0000400D4D1BDE8F381DFF8147B3C68461EFB
:1005D000B641F60F70470000646F002070B5054605
:1005E000FFF73AFFDFF8C448DFF82C66A06C8047BD
:1005F0000128F08D08BF401C6882A07A002804BF43
:10060000717B0F2908D1DFF8F45B284602F089F8E6
:100610003021284602F06CF802F0CAFBA17A00F003
:100620002BF8A17218B1BDE8704002F0BDBB70BDDF
:1006300038B50446DFF87458607E00F0EF0060764D
:100640002046FFF709FF2146284602F06CFA02F027
:10065000AFFBA97A00F010F8A97208B102F0A4FB70
:10066000DFF8B405417B0F2904D1BDE832400820F2
:1006700001F080B831BD0000401E8041491CC00F10
:100680007047000010B5DFF890150446487886B032
:10069000A0B1012100208DF800108DF8010000F0BC
:1006A0003AF8616808788DF80A0004F10F010DF13D
:1006B0000B0001F0EFFB684602F086FC06B010BDAF
:1006C00010B50446FFF77EFDDC2818BFDD2808D0F2
:1006D000E42818BFF32804D0DE281CBFDF28DB285D
:1006E00005D101462046BDE8104001F07BB810BDA1
:1006F00010B586B0044606208DF8000000F00BF817
:1007000004F10F010DF10A0001F0C4FB684602F08C
:100710005BFC06B010BD04F11C010DF1020002F0FB
:1007200040BB000030B5044604F1380585B0A87818
:1007300020B304F12F0101A802F033FB6248017DD0
:100740000388009103228DF80C2001A92A882046F5
:10075000FFF76FFD0146DC2918BFDD290BD0E42926
:1007600018BFF32907D0DE2918BFDF2903D0E829F5
:1007700018BFDB2902D1204601F034F805B030BDA6
:100780002DE9F843804602F013FBE725DFF85079A6
:100790003C68461EB6414FF00009F60F02E0A14644
:1007A00054F8084C9CB1607E0106F8D5207D0128E4
:1007B00002BF94F83D1098F804008142EFD14A46F8
:1007C0002146384602F0C0F9B87A411EB9720EB11E
:1007D00002F0EAFA3CB12046FFF73EFEF021204647
:1007E00001F000F8002529464046BDE8F44300F03A
:1007F000F9BF000030B5054685B06878F32818BF0A
:10080000DF2822D0E82818BFDB281ED0284600F0B9
:1008100029F8040018D1287CB0B105F11101092094
:1008200000F08DF980B100F015F8A97A009101A9C6
:100830002B89FFF7FEFC0446F32C18BFDF2C03D0F6
:10084000E82C18BFDB2C03D16C70284600F076F83A
:1008500005B030BD02218DF80C104FF6FF72ADF8D7
:100860000420704738B504460025A07A0B381328B9
:10087000207B28BFE8251028A8BFE82501DA0F282B
:1008800005D0DFF874140A7A110758BFE825617B98
:10089000884202D20F2918BFE825DFF87C03418D7A
:1008A0004FF6FF72914208BFEC25242001F091FF22
:1008B000DFF8B01C086120B12422211D02F020F8CD
:1008C00000E01A25284632BD166D002070B504469A
:1008D000D14D207ADFF8946B6873607A85F82C002C
:1008E000E07AE870A07A307002F0BAFC307838B163
:1008F000211D502002F01CFEA11DE12002F018FE77
:10090000DFF8D817012081F8200004F10D01687B81
:10091000DFF8505C0F2814BF0120002028750B223F
:1009200005F1150001F0ECFF04F1180105F12000BC
:10093000BDE870400B2201F0E3BF000010B5044693
:10094000607820B9DFF81C1C0869FFF7BFFF2C2175
:1009500021702046BDE8104000F092BF10B5DFF8CE
:10096000041C0446086918B100220A6101F097FFCF
:10097000082020702046BDE8104002F025BB000092
:10098000DFF8581791F8200000B9704780B5DFF8FC
:100990006C18087D50B9A048C27890F82C10407BA4
:1009A000FFF7EFFC10B1BDE80240F4E201BD00002A
:1009B00030B5054689B0A87B0124410724D5E98ECE
:1009C00005F11C00FFF772FDF0B9DFF8641C4879EF
:1009D000012808BF002417D00B2205F10F0106A83B
:1009E00001F08EFF8C48418D4FF6FE729142ACBFF4
:1009F0000321022106A830220190009205F11C0279
:100A0000EB8E012001F0A2F910208DF8080005F10D
:100A10001C010DF10A0002F0ACF9E88EADF81400EB
:100A20008DF8164002A802F0CFFA09B030BD0000E0
:100A3000DFF8381A0878002818BF01F06EBB70473D
:100A4000AD4800F154010162DFF8441C416200F13D
:100A5000440181620FF220010164DFF8381C016655
:100A6000DFF8601C8167DFF8601CC167018941F015
:100A70000201018170470000030471040204600454
:100A8000110470040204020401040204100461044D
:100A90000004140463047304720462044304000435
:100AA00013040604000400040404120400040004F7
:100AB0000004000451046400000400040004440421
:100AC00000040004000400046504000435048104EB
:100AD000640005040004830400040000024611467B
:100AE000032000F014BF0146082000F0F1BE0FF211
:100AF000612010B5DFF8E845606482B00FF239205C
:100B0000A06404E0204601F0F6FF00F014F821682C
:100B10000029F7D1606828B1201D01F0ECFF00F03A
:100B20000AF8F7E72060A072E07220730FF2D1504C
:100B3000E06213BD00000090684600F0ABBF38B51E
:100B400004460FF2C050055D284601F021FF20B198
:100B5000411941600021017232BD022001F018FFED
:100B600058B10FF2C451095D01701A21417001465C
:100B7000DFF86C05007C01F02CFF002032BD831DE6
:100B8000C907DBB210D50A2193FBF1F10A2202FB5F
:100B90001131C9B241B10A335B1ADBB20529A4BFD6
:100BA0000A33DBB20B33DBB21328ACBF14200620B0
:100BB000C318DBB209330A2093FBF0F0C0B27047D0
:100BC00080B54D48017A880704D502F0FCFA10B1CF
:100BD000012002BD002002BD4748017A88070CD5DC
:100BE000B24A907A38B9DFF8F404C06F28B1407E79
:100BF00010F0800002D00120704700207047AB4900
:100C0000DFF82C3A0A7B99788A4238BF01F0C0BEDF
:100C10000020704700000000F06C002080B500F05C
:100C200039FF002002BD31B5017BA04C21B1012963
:100C300026D0032926D037E0DFF8905C687B0F28A8
:100C40001EBF2D498A7A032A02D00098E16B88479B
:100C5000009995F83A008873142000990870201DB7
:100C6000009901F02DFF02F0A3F8217BFFF704FDAE
:100C7000217308B102F098F8202000F07BFD31BD0F
:100C80001520EAE70146087A70B14868401C4860C0
:100C9000009910F8012D4A73009AD07D0028507BEE
:100CA00005D008B10A2812DBFFF746FF31BD48B175
:100CB0000A2807DA0FF25845137A291811F8011C8F
:100CC0008B4204D0082804BF117A0829ECD11046C1
:100CD000017A4A1E02720099487B0A300870009817
:100CE000417B491C4173BAE7DFF8F403C06C00286C
:100CF00018BF004770470000A842002038B50446DE
:100D00000120207504F13C004188638FE18204F1E9
:100D100030020179E17641792177C17984F8201098
:100D20000178204600F05FFF050004BF204600F078
:100D300032F9284632BD0000DFF84C0C817A0329D5
:100D400001D1202070470120704700007517200056
:100D5000417E41F001014176704710B5027D017E70
:100D6000012A03D10B0701D441787EE14C06DFF85C
:100D7000703304D54078196CBDE810400847012A4B
:100D800003D1090748BF30210BD441781B2908BF84
:100D9000222106D000290CBF0FF280310FF28831DA
:100DA000895C01700146BDE81040187C01F011BE5D
:100DB00070B5DFF828430646E06F002872D0310096
:100DC000DFF8C85B04D01B2E05D1017D052953D067
:100DD0000022427052E0E92E2ED1807E30B902F01E
:100DE000FBF918B1E06F817D48072ED5EE2002F0A7
:100DF000EFFCE16F887EE8B18A7D530705D4401E81
:100E00008876BDE8704002F0A2BD087E00F07F0049
:100E10000876E06F017D032903D1427E42F004028F
:100E20004276ED2002F0D4FCDFF85C1BE06FCA6F65
:100E3000904726E04E7021E0E12E15D102F0CCF96A
:100E4000D0B1E06F817D480716D4E16FA87C887629
:100E5000E16F4A68287890702878401C287001203B
:100E6000BDE8704002F0D1BC1C2E05D10F490A6DBF
:100E700090470020E06770BDE06F4670E06FFFF7BD
:100E80006CFFE06F817D080605D5287E02F034FAFC
:100E9000E87D02F0F8F90020E0671020BDE870401E
:100EA00000F068BC70BD00000D700020746E002062
:100EB0002DE9F04101F07CFF884E441EA441F06F03
:100EC000E40F00284FF000085FD1854FB86C8047D1
:100ED0003D6840F0100002E0A84655F8085C002D7F
:100EE00053D0697E01408142F6D1424629463846B8
:100EF00001F02AFEF567697E08062CD4F87A411EB7
:100F0000F9720CB101F050FFF46FE18A207AFFF71B
:100F100036FE3881A07D010606D5E07E02F0ECF9B0
:100F2000F06F007F02F0AFF9F26FD08AC10520D5D3
:100F3000398900291CBF92F82000002811D090FBAD
:100F4000F1F082F82100F06F10F8081F1329ACBFF0
:100F50000221002103E0B87A411EB972D1E78176FF
:100F600005E0012082F82100F16F81F822000320C2
:100F700005E0107E400800F0010080F00100BDE8AF
:100F8000F04102F042BCBDE8F081002CFBD0BDE88E
:100F9000F04101F009BF38B5044600F074FD217E30
:100FA000DFF88C060A0704D4217D012908BF0278E6
:100FB00000D042784A4D2146284601F0DEFDD8B1E6
:100FC000696C20468847A07D41070ED401F0F0FEF1
:100FD000E97AFFF751FBE97208B101F0E5FEE08A1A
:100FE000C1050FD4BDE8314062E7DFF89C198A6F74
:100FF0002046BDE832401047F12060702046BDE831
:101000003240AAE631BD00001870002050E710B54C
:101010000446DFF8740900890021820704F13803CF
:1010200003D4DA88520748BFE82110F0600F03D1DB
:10103000DA88900748BFE821DFF8F4058279207A42
:1010400082421A7938BFE821002A02BF18780028A6
:10105000F52107D0080003D12046FFF74FFE0146D7
:10106000080001D0204600E010BDBDE81040B9E303
:101070000D21017001F0A8BF38B504460020207092
:101080006070DFF8AC15E08F0978154D420707D482
:10109000EA7A8A4207D3F1212046BDE83440A1E331
:1010A000AA7A8A42F7D2C10510D594F842100529D0
:1010B00012DB10F0050F0FD105F1240001F031FB18
:1010C00094F8421005F1240001F012FB287C21461F
:1010D000BDE8344001F07DBCE821DDE72842002076
:1010E000746E002010B5044604F15C0080B201F07B
:1010F0004FFC18B100F15C010472416010BD0000AA
:10110000D6E6000000464A4C4449494339513A006A
:10111000020402010101010902000000303016182A
:101120001920231A1C1E3000303017181921301BCB
:101130001D1F3000DFF8040C0FF26911016000225E
:101140000FF2913141600FF2E11181600FF219212C
:10115000C1600FF2293101610FF2DD2141610FF20F
:10116000B52181610FF2C131C1610FF219410162F4
:101170000FF2694141620FF2A14181620FF21D211C
:10118000C1620FF2ED0101630FF2D10141630FF271
:10119000E12181630FF26941C163DFF8A41B01649F
:1011A0000FF2914141640FF2F1418164DFF8940B39
:1011B00000F15C010A70CA7002220FF2B95140F8C6
:1011C0003C1F0161027101210175704700B585B0B6
:1011D00002228DF800208DF8010008B14FF6FF7152
:1011E000ADF802100B22DFF8601B01A801F088FBAC
:1011F000684601F0E9FE05B000BD0000F86F002070
:1012000080B50A228DF801008DF800208DF80210BB
:10121000684601F0D9FE01BD3EB504460120E082DA
:1012200004F1320102202075684601F0A2FD6068D9
:10123000A38F94F83E10401E606001706A46207AC9
:10124000401C20728321204600F0CDFC050004BF25
:101250002046FFF7A0FE28463EBD0000DFF86C26C2
:1012600092F8351030204143DFF8680C01F040BAA5
:1012700030B5DFF85846607B0F2893B006D02E219A
:101280008DF80010684600F0FBFA09E000F0E8F87D
:10129000608E1421B0FBF1F105F1340001F028FA61
:1012A00013B030BD38B504466078010032D104F186
:1012B0003205297A02291CBF0329E82094F82F104F
:1012C0000B39132913D2010024D104F12F01E1209D
:1012D00002F02EF904F13C01502002F029F9297A9C
:1012E000DFF8E805022904D12A88028408E0E82012
:1012F00012E04FF6FE7101841630294601F051FDCF
:101300000B2204F12401DFF8400A01F0F9FA20462B
:10131000FFF782FF010006D0607017202070204682
:10132000BDE83240ACE231BD10B5DFF8184A94F8A0
:101330005F0086B0A8B9012184F85F10012002F097
:1013400026FC02A800F0EFFBDFF8802504F1540032
:101350000121019000910321D38C02AA052000F005
:10136000F5FC06B010BD000010B500F0FDF82178C6
:10137000202904BFEB20607000F0EEF844BF01F0BC
:10138000FB0180F85F1000F0E3F800D5F0E02A20C0
:1013900020702046BDE8104072E2000070B504469F
:1013A00082B0012002F004FC00F05AF805F144007C
:1013B00001F0B7F900F027F8ADF800106068867802
:1013C000300008D16946532002F0B2F804F11C0144
:1013D0004A2002F0ADF80B2204F10F0105F1540090
:1013E00001F08EFABDF800103046FFF7EFFE95F8D9
:1013F0005F00810703D560780021FFF701FF00201F
:1014000085F85F0073BD60680178407801EB0021CA
:101410007047000010B50446EB206070DFF8640BE5
:1014200090F85F20900703D50021EB20FFF7E8FE3E
:101430004FEA0400BDE8104038B500F095F800F020
:101440000FF805F1440001F06CF905F15C00002192
:101450000170C1704FF6FF716078BDE83440B5E6A9
:10146000DFF8205B05F1340001F05BB9646F002008
:1014700010B50446FFF7CEFFC8E0000010B500F03D
:1014800073F8207A002814BF0020EB20607000F071
:1014900063F844BF01F0FB0180F85F1000F058F8DA
:1014A0000BD501F0FD0180F85F1000F091F8ACBFA2
:1014B00001210021FFF7A4FE08E0C80706D52A2075
:1014C0002070EB206070204600F0DAF92046BDE87D
:1014D0001040CDE51CB50446DFF8680890F85F10B1
:1014E00041F0020180F85F10012002F050FB6078AB
:1014F00098B9DFF8D813488D4FF6FE729042ACBF12
:101500000321022104F11000012201900092221D0A
:10151000E389052000F01AFC6070607818B1BDE81E
:101520001C4000216CE613BD10B500F01DF82178B9
:10153000202904BFEB20607000F00EF844BF01F0DA
:10154000FB0180F85F1000F003F800D510E010BD3B
:1015500090F85F108A077047DFF8280A90F85F104C
:101560004A077047F86F00200446012002F020BBB4
:1015700001F0FD0180F85F1000216078BDE81040A7
:101580003EE6000038B5FFF7EFFFFFF769FF207A6E
:10159000002814BF0020EB20607095F85F00410721
:1015A00044BF00F0FB0085F85F0095F85F008107FD
:1015B0000AD500F0FD0085F85F0000F009F8ACBF27
:1015C00001210021FFF71CFE2046BDE832404FE517
:1015D000A07B00F0100001286078704710B5FFF77D
:1015E000C3FFEB216170FFF7B7FF44BF01F0FB01C0
:1015F00080F85F10FFF7ACFF00D5B9E710BD000021
:1016000010B500F010F82046FFF7E8FF2046BDE8CF
:10161000104000F011BD000010B500F004F82046A5
:10162000BDE81040DAE70446DFF8D40B01F079B8E2
:101630005818220010B5044686B004F11C01DFF8EA
:10164000C80B01F083FB08B3EF2009218DF80100DE
:101650008DF80010FFF7D7FEADF802106068017931
:101660008DF80410207A082804D16168C8798DF8B3
:10167000050002E000218DF8051004F10F010DF1C5
:10168000060000F007FC684601F09EFC06B010BDA5
:10169000247000203501200000F03FBDBA48DFF87B
:1016A0009C1681613831C1610FF2200141630FF254
:1016B000D0018163DFF8541BC165018941F001014C
:1016C00001817047DD052000310620000101710114
:1016D000010101011101010131010101010180013B
:1016E000100161013B00140063017301720162018A
:1016F00043010001130106013D01350004011201FF
:101700000001000100010001040104013301330163
:101710003C01440132013600000100016501000175
:1017200035008101000105018201830100010000F3
:10173000024611460220EAE001460620C8E010B544
:10174000914C206882B010B1204600F0A3F900212E
:10175000A172DFF8BC1A086858B102E0684600F0D0
:1017600099F9DFF8840B007C01F060F90028009003
:10177000F4D113BD0146DFF8700B007C01F01FBAF5
:1017800003027102300160021102700201020202C2
:1017900002028002100261023A00410063027302F9
:1017A00072026202430200021302380000020002C9
:1017B00004021202000200020002000204020402FB
:1017C000370037003C0244020002390000020002E8
:1017D00065020002350281020002050282028302D4
:1017E0000002000000B585B003780FF27C02D25CE5
:1017F0008DF800200B2A03D1417000F06DFB31E021
:1018000082B30C2A29D11A2902D10020019024E0A8
:10181000019090F83D208DF80220C2680292028A61
:10182000ADF80C20827DD30648BF002204D4274A9D
:1018300092F83430827E9A1A8DF80E20427F8DF80D
:101840000F20827F8DF81020C27F8DF81120C08A72
:10185000C20544BF11228DF800208DF801106846A2
:1018600001F0B2FB05B000BD0C0E020B040B0A0721
:1018700008000F009648817A481E8041C00F7047CB
:1018800038B5934A937A02F1300102F1300551F8EC
:101890002330017801F07F01017003EB41014C78A6
:1018A00055F8241001B19472047813F81430190912
:1018B00002EB8102D16811B9BDE83240EFE203F0DA
:1018C0000F0351F82310BDE834400847F06C0020A6
:1018D00070B505460FF2840082B0405D0E4601F0FF
:1018E00057F804000CD0257000210FF27C006170C5
:1018F0003146425D201D01F003F800F03BF873BD56
:101900008DF800501A216846FFF76CFF73BDF8B5DB
:1019100007460FF24800C65D0D46304601F038F824
:10192000040012D02770002060702946A019606062
:10193000002020720FF23000C25D04F1240000F09C
:10194000DFFF00F017F80020F2BD8DF800701A21BB
:101950006846FFF747FF1A20F2BD000000055957FF
:10196000515C1C202807020000011C181A18181CC2
:1019700024030000DFF87009007C214601F029B83B
:10198000DFF8641908747047A8420020126D002027
:10199000F8B50E46B0064E4DDFF84C7919D41DE06F
:1019A00001F006FA397B401E80414A1EC00F3A738F
:1019B00008B101F0F9F920788DF800006C6020463C
:1019C000FFF75EFF9DF8000015281CBF281D00F0E2
:1019D00061F8381D01F08FF80400E1D1300406D41D
:1019E0000AE06860FFF74CFF281D00F053F8387CD0
:1019F00001F01CF80028F4D1F00602D52D2000F0EB
:101A00003EF8F00702D5242000F039F8B00702D5DF
:101A1000252000F034F8700702D5262000F02FF8BA
:101A2000300702D5282000F02AF8700607D50020DC
:101A30008DF801002C218DF8001000F022F83006FE
:101A400007D500208DF801002F218DF8001000F03F
:101A500018F8286888B101F0ABF9401E2C68804165
:101A60000021C00F296008B101F09EF96C6020468A
:101A7000FFF706FF281D00F00DF80020F2BD8DF8DD
:101A800000006846FCE612494A68824204BF002012
:101A90004860704738B5040008BF02F027F901F02C
:101AA00087F9451EAD412168ED0F59B1084A5368C9
:101AB000A1F108008B4204BF002151600021216088
:101AC00000F0EDFE1DB1BDE8314001F06DB931BD52
:101AD000A8420020DFF8540B0FF2C13141600FF231
:101AE000CD3181600FF2C931C160DFF8441B016163
:101AF0000FF2E5314161DFF8681B8161DFF8641B9B
:101B0000C1610FF2017181630FF28D41C1630FF268
:101B1000E94101640FF27D5141640FF21D5181646E
:101B2000002101707047DFF8841B0A8C4FF6FE73AA
:101B30009A4204BF163101F01CB902220272098CCC
:101B40000180704742784B78C2F38102C3F381036E
:101B50009A4211D1022A09D142794B799A4202BFA5
:101B600080798979884207D101207047032A03D1FF
:101B7000491D401D01F007B90020704738B5547861
:101B8000057A0023C4F38104AC4218D1022C10D191
:101B900054799579008804EB0524A4B2A0420ED1B3
:101BA000D078127900EB022080B2814207D1012364
:101BB00005E0032C03D1511D01F0E5F8034618465A
:101BC00032BD017ADFF8E42A022907D1128C00889D
:101BD000824201D10120704700207047014602F186
:101BE000160001F0B3B82DE9F84F92469946002748
:101BF000DFF8B82A9AF8084002F114060B064CBF29
:101C00004FF6FF78B6F81280054601F07F018DF897
:101C10000010A87D81064CBF082000202876A87DF2
:101C200041074CBF80201020687602F13400A97D66
:101C3000CB064CBF00210178A976E98ACB0748BFC3
:101C40002027090769682B7D48BF47F01007491E08
:101C5000022B07DB0B2B1CBF5B1E01F8013947F081
:101C6000030700E01F43407D012804D12B7A672B36
:101C7000A8BF47F480579DF8000047EA8037022844
:101C8000BFB207D1F08A000A0870F28A01F8012C6D
:101C9000891E0AE0032808D1A1F1070B02F13C01DB
:101CA000584601F07EF8ABF101019DF8000058B1F3
:101CB00024B1C84508BF47F0400705D04FEA2820A7
:101CC000087001F8018C891E47EA8427022CBFB2F4
:101CD00009D1BAF80000000A01F80109BAF8002099
:101CE00001F8012909E0032C07D1A1F107085146A9
:101CF000404601F056F8A8F101012CB14FEA192035
:101D0000087001F8019C891E287D4A1E18B9307898
:101D1000431C337002E0B07B431CB3730870380A75
:101D2000107002F8017D297A68686A604118891A82
:101D3000297200206870BDE8F28F0000186F002043
:101D40007D242000BC6D0020106E00202DE9F0479E
:101D5000099F8A460546904699463946FEF7EFFEAA
:101D60001A2604001AD00898E08225750B223946FD
:101D700004F1240000F0C4FD4B4642465146204683
:101D8000FFF731FF060009D1ED1F012D03D8607E5A
:101D900040F0200060762046FFF7FDF83046BDE8B1
:101DA000F0873EB5044604F13C050121687800B196
:101DB00005210420E182207504F13001684600F01D
:101DC000D8FF6068638F401E60606A4629780170A2
:101DD0000321207A401C20722046FFF704FF0500F3
:101DE00004BF2046FFF7D7F828463EBD70B504462D
:101DF0000D460520207005F13A06F078A070606865
:101E0000296B416105F11C0100F0B3FF6068E98EA8
:101E1000418131784174002160680176C17305F118
:101E20000F016068193000F035F86168A87B88738D
:101E30006868626801789181437841EA0321918161
:101E40008178C01CCB0918BF0123137411F007025D
:101E500001F0070118BF012201EB41015118C9B27D
:101E6000084410F8011B2172E060217A4A004908F9
:101E700002F00E0201F03801891808446061297AE5
:101E80006A685318834227BF081A1018002020726E
:101E9000207470BD0B2200F033BD00007047017844
:101EA0000B29BCBF1821FFF79DBC7047192199E48D
:101EB00038B5DFF8A8580446286828B11921FFF77B
:101EC00091FC2846FFF7E6FD2046FFF7DCFD2C607D
:101ED00031BD0000006E002030B5044689B0207886
:101EE000DFF87C58032808D0052812D0182804D021
:101EF0001E2818BF1F280CD01CE000208DF81800E9
:101F000004F12F0103A800F04CFF03218DF81410F9
:101F10000AE001218DF8181003A804F12F0100F048
:101F200040FF03208DF8140000F02EF8E88CADF887
:101F3000160015E002218DF8181003A804F11C0109
:101F400000F02FFF03208DF8140000F01DF804F1BD
:101F50000F01E88CADF816000DF11900FFF79AFF9C
:101F60000B208DF800000DF1190061788DF801103B
:101F700004F10F01FFF78EFF684601F025F809B064
:101F800030BD0000BC6D00200221688DADF802005C
:101F90008DF80A107047000038B5044665782800AF
:101FA00014D1DFF80817608FCA8C904218BFE8255B
:101FB00004F13000FFF705FE90B1002184F83D10D8
:101FC000280003D12046FFF7ECFE0546280006D086
:101FD0006570192020702046BDE8324050E431BDC4
:101FE00094F83D000028EBD0DFF8781791F8200036
:101FF0000028E5D1E825EBE710B586B004218DF87F
:10200000041000F1300142788DF80520428FADF8C0
:1020100010200DF1060000F0ACFE0DF10600FFF7F8
:10202000D0FD20B100F02DF8DFF83407048401A8BA
:1020300000F0CAFF06B010BD10B588B004460320FA
:102040008DF8040004F11C010DF1060000F0A9FE5A
:10205000616808788DF80E0004F10F010DF10F0092
:10206000FFF718FF04F11C00FFF7ABFD20B100F0F3
:1020700008F8DFF8EC06048401A800F0A5FF08B01A
:1020800010BD4FF6FF74ADF800406946532001F0D3
:102090004FBA000030B5054691B06868DFF80C46CD
:1020A0004178480609D5E08CE98E884205D1DFF8F1
:1020B0007C150878D0B100F030F808A9039102A887
:1020C0002946FFF793FE2B208DF8080002A8FFF7A2
:1020D000D7FBA07810B19DF8180028B105218DF824
:1020E000081002A800F070FF11B030BD94F8300065
:1020F0000028E2D005F11C00FFF763FD0028DCD1C9
:1021000005F10F0001210190009104F11602E38C0A
:1021100003210620FFF71AFEE6E700B585B0092087
:102120008DF80000EE218DF80110684600F04CFF9C
:1021300005B000BDF8B5054600F03AFE441EA441C6
:10214000E40F0DB101F0B6F9DFF8605501F023FBA3
:1021500005F139060027707801F0CEF83078DFF805
:10216000CC6401F090F8307801F07AF8E88C01F056
:1021700082F8688D01F080F805F13C0001F07EF8EE
:10218000DFF8D80500EB8700C06D00B180477F1CE9
:10219000072FF5DB00F0E4F9FFF7D1FA00207070AB
:1021A000FEF7A5FCFFF796FC05F12901522001F08E
:1021B000BFF90CB100F0F8FD0020F2BDDFF86C04AF
:1021C0000FF26D010162021D0FF2393141620FF20F
:1021D0006D3181620FF21511C1620FF205210163A9
:1021E0000FF2B9114163DFF87415CA6000F13802CB
:1021F000203048610A610020088101F0BDBA00006A
:10220000F06D002070470000066D002035112000A1
:10221000EC730020072202700A7A82708A7AC270F8
:102220004A68426000220272C969C16070470000BA
:1022300038B50446DFF8305500206870207A06284B
:10224000A4BFE8216970607A0E2804DD217A032991
:1022500004D0E8206870207A032806D1DFF8FC1447
:10226000087AC1075CBFE821697021462846FFF75C
:10227000D1FF6068800A286205F12400617A01704C
:10228000E17A4170217B8170617BC170A17B01711A
:102290000A214171DFF8141491F83A2082710B225F
:1022A000DFF8C804A86104F10F010420287705F1C4
:1022B0002B0000F025FB6978002904BF6078002816
:1022C0000BD1A87808B1EA21697001F058F82620EE
:1022D0002070042001F045FC01E0292020702046F8
:1022E000BDE83240FFF7CCBA746E002070B5DFF85D
:1022F00078540446A87886B070B995F829100A2950
:102300000AD001F081F8E96895F82920114401F814
:102310000B0C287A401C2872286A95F8291040086E
:102320002862491CC00785F8291002D4C9B21E29A9
:10233000F2DBC9B21E292CD005F12901E12001F000
:10234000F7F802208DF810004FF6FF73A878ADF86B
:102350000830002818BF022803D1204600F01EF8DC
:1023600019E0012805F12B0207BF08208021072072
:10237000832101920026009602AAFFF7E7FCDB28E2
:1023800018BFE52804D0F3281CBFDF28E82802D1B5
:10239000687000F0B2F806B070BD000038B5DFF824
:1023A000C843606804F1240101254A7905FA02F264
:1023B000904360603022A078032804D1DFF8A03376
:1023C00093F8355002E009788D406D1C554308B9EB
:1023D00001F018F8294604F11000BDE8344087E107
:1023E000F0B5DFF884530446A87802281CBF012802
:1023F00005288FB03CD1002006A96870019168467D
:102400002146FFF7F3FC2E7A95F8250086421BD271
:10241000EF680BE07889BDF82210884204D106A944
:10242000384600F093FC78B9761E2437F0B20028C5
:10243000F0D12E7AEB682422564306A9981900F0B1
:102440005FFA297A491C2972DFF81423907828B1A1
:102450009DF8101011B995F8250010B9684600F0E4
:10246000B3FD95F8250038B1297A814204D101E005
:10247000E820687000F041F80FB0F0BD70B5044678
:1024800004F1240082B00178DFF8DC52032904BF94
:10249000827A032A2CD104F11C014A2001F048F869
:1024A00060680178427801EB0221ADF80010861CCB
:1024B0006946502001F03CF83078717800EB01203B
:1024C000ADF8000069464B2001F032F8B61C3146E9
:1024D000E12001F02DF8701C0178407801EB00211B
:1024E000ADF800105320694601F022F8002000E00A
:1024F000E820687000F001F873BD292020702046A4
:10250000FFF7BEB910B5DFF8604204F1100000F02B
:1025100008F900F051FF042001F04AFBA1780329DB
:1025200004BF6078002804D004F12A01E12000F003
:10253000FFFF2046BDE8104000F046BD00B585B065
:1025400001466846FFF766FEFC218DF801106846DB
:1025500000F03AFD05B000BD01460720FFF7B8B90D
:1025600083480021016041604FF47F018160C160B8
:1025700000210161704710B57D4C0020206120686A
:1025800068B14068A168884209DA01F0ECFB216873
:102590004A688242B8BF02464A60206820612069CA
:1025A000616831B118B14A684068824202DA21613B
:1025B00000E040B12069A1684068884203DABDE8C4
:1025C000104001F0F8BBBDE8104001F01ABCF8B5AE
:1025D00000F0EEFB664D441EA4412869E40F10B3E1
:1025E000A9684068814203DA01F080FB2869D0B114
:1025F00001F0B9FB29694968884214D3002948BF12
:1026000001F074FB2E69304600F08BF8377BB6681A
:102610000CB100F0C9FB3846B04700F0C9FB441EBE
:10262000A441E40FE2E704B194E0F1BD646F00203F
:102630000F10200038B505460C460EE04C49606886
:102640000A692818944202D1002848BF002060601F
:10265000002848BF01F04AFB2468002CEED131BDB0
:102660000D1020007110200070B5414E00F0A0FB4D
:1026700074683168451EB068AD414042FFF7DAFF2B
:10268000B168ED0F05E060688842A4BF401A606041
:102690002468002CF7D1F06881421CBFB06001F0C3
:1026A00049FBFFF768FF05B11EE070BDF06C00202C
:1026B00070B504460D4600F07BFB461EB641286807
:1026C000F60F294630B1626843689A42A4BF0146BA
:1026D0000068F7DA0C6020602868A04208BFFFF7A6
:1026E0004AFF06B100E070BDBDE8704000F05CBB81
:1026F00038B504460D4601F036FB451965602046A5
:10270000BDE834401A49D3E70A6801E011461A4689
:102710002AB113688242F9D10B6001207047002072
:10272000704770B5044600F043FB114E451E31461C
:102730002046AD41FFF7E8FFED0F18B9311D2046E7
:10274000FFF7E2FF3069844208BFFFF714FF05B1CD
:10275000CAE770BDBDE8F14000F026BBA8420020EA
:10276000F06C002028420020AC700020751720007B
:10277000284300205E4841F2FC72002181525D49ED
:1027800008604FF42771018000F5277048F20401BA
:10279000018041F25C518180704738B5012000F022
:1027A00018F8050008BF01F0A1FA00F001FB51493B
:1027B000441EA441281F0860E40F284600F06FF86B
:1027C0004D48012101701CB1BDE8314000F0ECBA68
:1027D00031BD2DE9F04200240025061D16F003004E
:1027E0001CBF311D0E1A00F0E3FA424FD7F800C0AB
:1027F000431E414800789B41DB0F10B1B6B2112E49
:1028000007D26246D2F800E0CEF3C03119B10025FC
:1028100023E03A4AF6E7B6B2CDB121684FEAD139A2
:102820007144C1F30E0141EAC9312160C1F30E01C7
:10283000B14212DB34B32268C2F30E05AD1BADB258
:10284000082D13D3A55346F40046268011E0CEF39D
:102850000E01B14221DA012514461168C1F30E01BF
:102860000A4411880029CDD100240BE042F4004233
:10287000226030B1A44504D12068C0F30E002118B5
:102880003960241D0BB100F08FFA14F0030018BF5B
:1028900001F02CFA2046BDE8F0821446CAE710B5D4
:1028A00013498842044603D301F5C051884201D33D
:1028B00001F01CFA54F8040CC0F3C03008B901F060
:1028C00015FA00F075FA54F8041C0A4A21F4004184
:1028D000401E44F8041C80411368C00F211F994218
:1028E00038BF116018B1BDE8104000F05DBA10BDEE
:1028F000A0430020A06300206B740020404600200D
:1029000003E011F8013B00F8013B13465A1E002B6F
:10291000F7D1704710B513465A1E3BB110F8013B72
:1029200011F8014BA342F6D0002010BD012010BDCC
:1029300010B5044610460A460146204601F076FAD4
:10294000204610BD01460878497800EB012080B28E
:10295000704702460229107803D1517800EB01201C
:102960007047032906D15178927800EB012000EBE3
:1029700002407047042908D15178937800EB012078
:10298000D17800EB034000EB0160704701F0C0BA62
:1029900010B5040001D1002010BD04F1080080B280
:1029A000FFF717FF28B1002101608480FF218171AA
:1029B000083010BD80B508B9052002BD10F8021C12
:1029C000FF2901D0042002BD0838FFF768FF00206E
:1029D00002BD0022FFE738B50446A1B1DFF8583345
:1029E0001D78A84204D30846FFF7E4FF032032BD58
:1029F000A1F108031868002804BF9D79FF2D04D0B9
:102A00000846FFF7D7FF052032BD012A9C71DFF889
:102A10002C0302D100F087F801E000F051F84FF4E8
:102A20000041204600F0CBF8002032BD2DE9F041F6
:102A3000804600F0BDF900260024DFF80053471E51
:102A4000BF412868FF0F58B110F8021C414502D061
:102A50001CB9064601E0A4B9044650F8080CF2E798
:102A60004FF40041404600F0C1F824B132462146FF
:102A7000284600F069F80FB100F096F92046BDE84D
:102A8000F0814FF40041404600F099F8EEE770B550
:102A900005460E4600F08CF9A8490C68401E80419E
:102AA000C00F44B114F8021CA94206BF2178B142FC
:102AB00054F8084CF5D108B100F076F9204670BD05
:102AC00038B500F014F8421E9241002045F8080C79
:102AD000D20F216811B9256006E0014651F8080CB3
:102AE0000028FAD141F8085C02B129E031BD044662
:102AF0000D4600F05DB938B5044600F059F90025DF
:102B0000411E89412068C90F40B10546A5F1080062
:102B10000268226000220260FF22827109B100F087
:102B200043F9284632BD38B5FFF7E1FF401E216862
:102B300045F8081C8041C00F256000D000E031BD81
:102B4000BDE8314000F030B970B500F033F8401EF8
:102B5000A5F10801804123680A68C00F9D420CBF9F
:102B6000226046F8082C00220A60FF228A7118B100
:102B7000BDE8704000F018B970BDF8B500F01AF863
:102B80000027421E92412168D20F21B925600BE037
:102B9000F1B251B1014651F8080C761E0028F7D168
:102BA000F6B216B141F8085C01270AB100F0FCF852
:102BB0003846F2BD04460D46164600F0F9B838B561
:102BC00000F02CF810D200F0F3F85D49096831F8F4
:102BD0001520401E8041144321F81540C00F08B154
:102BE00000F0E2F8002032BD032032BD38B500F01D
:102BF00015F811D200F0DCF85149096831F81520B8
:102C0000401E22EA0404804121F81540C00F18BF7D
:102C100000F0CAF8002032BD032032BD0C46464900
:102C20000A7890420546704780B5FF2803D100F02E
:102C3000BBF8002002BD072002BD80B5FF2803D1EC
:102C400000F0B6F8002002BD072002BD80B5FFF7F6
:102C500091FD3A490020086001F05CF901F050FA5A
:102C600001F058FAFFF799FD002002BD80B500F091
:102C700001F8FCE72DE9F04101F0BEFA2E48304D95
:102C8000017800242A68E4B232F8140018B9641CF0
:102C9000E0B28842F6D3E0B288422AD2E4B200F031
:102CA00087F82968264631F81680401E80410022A8
:102CB00021F81620C00F08B100F076F8214F224A03
:102CC0003C70414652F82620204690470446FF209B
:102CD000387000F06DF8296831F81620401E8041E8
:102CE000144321F81640C00F18B1BDE8F04100F0C0
:102CF0005BB8BDE8F08101700A0A42700A0C090E47
:102D00008270C170001D704701700A0A090C427080
:102D10008170C01C704710B548B1002300E05B1CF7
:102D2000DCB2944205D2DBB2C45C8C42F7D0002006
:102D300010BD012010BD0000F6372000E873002010
:102D4000EC7300206F43002078412000027A0B7A58
:102D50009A420CD15AB1022A05D1008809888842CA
:102D600005D101207047032A08BF00F00CB80020ED
:102D700070470A7A0272032A04BF0822FFF7C0BD17
:102D800009880180704710B5082210F8013B11F83E
:102D9000014BA34203D1521EF7D1012010BD0020E8
:102DA00010BD0822FFF7ACBD80B501F02BFA02E0A0
:102DB00080B501F023FA00B10120C0B202BD10B508
:102DC0000FF22412830852F823201368C00000F089
:102DD0001800FF248440A34381401943116010BDB3
:102DE00004283D4903D1086840F480300BE00528F1
:102DF00004D10A6842F400320A607047062804D100
:102E0000086840F48020086070470F2805D13348D7
:102E1000016841F00201016070470CD90FF26C1398
:102E2000A0F110011038400953F82000012201F0F0
:102E30001F018A40026070470428274903D10868AF
:102E400020F480300BE0052804D10A6822F4003217
:102E50000A607047062804D1086820F480200860C2
:102E600070470F2805D11D48016821F0020101605B
:102E700070470CD90FF22813A0F110011038400947
:102E800053F82000012201F01F018A4002607047C0
:102E90000E28134904D1086840F0006008607047AC
:102EA0000F2804D10A6842F000720A6070470CD9FA
:102EB0000FF20013A0F110021038400953F820005F
:102EC000012102F01F02914001607047054801682E
:102ED00041F001010160704724ED00E010E000E0E6
:102EE00004ED00E098200D400000000018ED00E027
:102EF0001CED00E020ED00E000E400E004E400E070
:102F000008E400E00CE400E010E400E014E400E079
:102F100018E400E01CE400E020E400E024E400E029
:102F200028E400E02CE400E030E400E034E400E0D9
:102F300038E400E03CE400E040E400E044E400E089
:102F400048E400E04CE400E050E400E054E400E039
:102F500058E400E05CE400E060E400E064E400E0E9
:102F600068E400E06CE400E070E400E074E400E099
:102F700078E400E07CE400E080E400E084E400E049
:102F800088E400E08CE400E090E400E000E100E090
:102F900004E100E008E100E00CE100E010E100E005
:102FA00080E100E084E100E088E100E08CE100E005
:102FB00090E100E080E200E084E200E088E200E0EE
:102FC0008CE200E090E200E02DE9F14382B0067867
:102FD0000FF25820855DADF80050002D4DD00D2E1C
:102FE0004FF6FF7911D16946532000F082FABDF8FF
:102FF00000004FF6FE7188421FBF48450299087ACB
:10300000002800F0B1800C4673E0052E4FF0240834
:1030100004D102990A7C243250190DE0072E0DD1FB
:103020000299887820B905F11B01ADF8001005E080
:103030000A7A284608FB0200ADF80000BDF800003F
:10304000FFF7A6FC04001CD10C2E16D1029948688B
:10305000002812D0FFF7ACFE471E0298BF41001DAA
:10306000FEF718FDBDF80000FFF792FCFF0F04000B
:1030700004D1002F01D0FFF797FE99E00FB1FFF7C1
:1030800093FE02992A462046FFF73AFC052E12D1FC
:103090006168242204F11800FFF732FC04F11800E3
:1030A0006060227C61692430FFF72AFC606800F1CF
:1030B000240161611DE0072E1BD155480568C5B18B
:1030C00000210160A07830B904F11001E1601B22F9
:1030D000E068294608E004F11000E0602946207A03
:1030E00008FB00F204F11000FFF70AFC2846FFF786
:1030F000D6FB4848016819B12046884700284DD1C1
:103100000D2E454834D1029949680A784978C2F3AE
:10311000830302F00302022A0ADA404A957CAB429A
:1031200001BF11F0C00F029991F82420022A09D0A2
:10313000032B19D1029A0121117000780299FFF72F
:1031400048FC35E094F83B0004F13A0100F046F801
:103150000298C18C49451CD141688879022818DB46
:10316000204601F05AFA18B302A8FEF793FC1FE0BC
:103170000C2E1FD1029841781A291CBF60680028C4
:1031800007D0807DC10704D5207C04F10F0100F039
:1031900025F8234800782146FFF71BFC0C2E18BFAA
:1031A000112E05D10299486810B1081DFEF772FC76
:1031B000BDE8F783112EECD1002121702146007863
:1031C000FFF707FCEEE717480078002814BF012836
:1031D00001F0A8B90020704700207047124A127809
:1031E000A2B10B783228B8BF322002DB6F28A8BF0B
:1031F0006E20012A05D1323858433C2290FBF2F36D
:103200009BB2B3F5807FA8BFFF230B70704700000F
:10321000A87300201874002010720020786C002021
:10322000BC730020DC4100207C74002000161000DC
:1032300000181510020002241440000010140000B1
:1032400063480B218170FF214170C170017070478C
:1032500080B500F0B1F8BDE80140D5E001F0F6BA64
:103260005C490A68030018BF012322F0020242EA07
:1032700043020A607047A4E05749A3E001460822D0
:10328000564801F081BC70B5554D2E78044640B2C9
:1032900071B28142B8BF344604DB69784AB29042C9
:1032A000B8BF0C46FFF784FD401E494A8041361BDB
:1032B000B61CF6B2C00FA95DD17008B1FFF774FD5E
:1032C00000F002F8204670BD38B5FFF771FD404AA6
:1032D000D378411E89411078C90F834209D0414CEF
:1032E000207830B9404D2C78200602D43F48137026
:1032F000036001B117E031BD38B50446A4F10B00FD
:10330000122828BF00F0F2FCFFF752FD3049364A80
:103310008C70451EAD411078ED0F08B900F007F82C
:1033200005B100E031BDBDE83140FFF73DBD10B54E
:103330002D49087808B100F0D9FCFFF739FD244C7D
:10334000A1786278401E8041C00F914211D0617017
:1033500008B1FFF729FD00F097FC6078244900EBE5
:1033600080002C38086001F074FCBDE8104000F0CB
:103370004CBC18B1BDE81040FFF716BD10BD38B504
:103380001C490446087808B100F0B0FC1A4D2878B2
:1033900008B100F0ABFC20000CBF0120032C09D0C9
:1033A000012C1CBF022C00F0A1FC1449FF220A6072
:1033B00002204A60287031BD0F4900200870104972
:1033C000C88C0E4900F0FF020A60000A486070478E
:1033D000DC73002000860840D0850840A88508409E
:1033E00014182200CE710020E071002040860840B1
:1033F0003C8608406C430020CD710020C885084001
:10340000F06C002001F06FBB80B501F076FBBDE8E9
:103410000240493840B210F1570FB8BF6FF0560064
:1034200002DB0B28A8BF0A205730C0EB0020612127
:1034300090FBF1F0C0B27047EDE7F0B403461868B6
:103440009D681A18586802EB5004C00721D54D44F6
:103450001FE0F0BC03F10C00704712F8017B05F887
:10346000017B491EF9D1A0B1B60812F8011B06F084
:103470000306032E08BF12F8016B01EB0621494237
:10348000801C294405D011F8016B05F8016B401E22
:10349000F9D1A242DDD012F8016B16F0030104BF8E
:1034A00012F8011BC91C30090F28DAD112F8010BE0
:1034B0000F30D6E710B5664C0FF29C1120466C22F7
:1034C00001F00EFF1434FFF7C9FEA073FFF7C6FE2C
:1034D000207010BDA0F140021E2A38BF403804D32E
:1034E000A0F1E0010F2902D23E30C0B270472D207A
:1034F000704770B50D46FFF7EDFF06462D2E01D142
:10350000F42070BDFFF754FC514B441E0FF2B41071
:1035100000EB860110F826004A78A44119182846C5
:10352000FFF7EEF9E40F0CB1FFF73EFC002070BD91
:103530002DE9F0410746F12F0D46DFF8148111D136
:10354000297801290AD1022000F032FB3846FFF722
:10355000C1FF2D28014612D1F42076E0022000F0B0
:1035600000FBF3E7F02F05D128783A490870FFF700
:1035700077FEEBE7452FE9D1C8F8085064E00FF279
:10358000441000EB8106B178002904BFF0780028D0
:1035900014D0F278914208BFFB2056D0582F05D1A5
:1035A00028888F3846F22241884205D22878B1789F
:1035B000884228BF824201D2E82046E0FFF7F8FBAC
:1035C0007278441E307829464044A441FFF798F9A8
:1035D000E40F0CB1FFF7E8FB502F08F12A0010D0E0
:1035E000522F17D0532F11D0E02F27D0E12F1CD00E
:1035F000E22F1ED0E52F25D0E62F04BF2978C17712
:1036000022E0B8F82600FFF736FE1DE00088FFF73D
:1036100033FE19E098F8290018B1022000F0A1FA51
:1036200012E0022000F0C4FA0EE0007CFFF764FE16
:103630000AE008F13C00FFF721FE05E0C07BFFF740
:1036400022FE01E0297881770020BDE8F0810000AA
:10365000F06C0020646F00203600010006000000BE
:1036600000000000000F000000000000000000004B
:103670000000000000000300FFFF00000403FFFF44
:103680000000FFFF0F00F4010005C4040320000147
:1036900000000B0000000000000000000300010F0C
:1036A000000000000000000000000000000000001A
:1036B000000000000000000000000000000000000A
:1036C0000000000000013636010100010201000186
:1036D0000301000104010606080400000C01003487
:1036E0000D01000F10040101140100FF1608000075
:1036F00020020000220100FF23010001240100FE3E
:10370000250100082602000028010001290100010E
:103710002A0200002C01000F2E02000030010001DF
:1037200031010008320200FF340100073501024078
:10373000360100003701000138010001390100FFA6
:103740003A010B1D3C080000460100084701000F2C
:1037500048010001490100FF4C0400005004000032
:1037600054040000580400005C04000060040000E1
:10377000640400006804000080B500F0C7FFFFF794
:103780005FFD00F0E9F901F035FA00F035F8BDE829
:10379000014000F0ADBA80B5FFF70AFB18B9FFF79A
:1037A00003FB00F0A3FA0849087818B901F047FABA
:1037B000FFF74EFD00F0B4FA01F0BEFD0349012011
:1037C00081F8480001BD00006C430020F06C00202F
:1037D00010B50446A4F1E700082882B00AD2694671
:1037E0002046FFF786FE0098401C00906946204660
:1037F000FFF79EFE13BD0C00DFF8340300210170BB
:10380000C1710FF2A9210161704738B5DFF820437B
:103810000546207808B100F069FA01212170C549F8
:10382000087818B1BDE832401D205AE1657028467D
:103830000228C14D02D101F048FE19E000281CBF4A
:10384000012800F053FA002020712968BB488A7DC6
:10385000510661784CBF90F8462090F8252021B998
:10386000C07810B1022AC8BF0222A27000F03BF853
:10387000E179B1B9286808B900F038FA2868B04B86
:103880004268117801F02001A17191786171017A8B
:10389000501E8A1C0270491CEE221A60C9B201F047
:1038A00087F9FFF785FAA7490A78451EA6480078E8
:1038B000AD41ED0F024307D1832020700DB1FFF71A
:1038C00073FABDE8314023E0202804D10E2104F131
:1038D0000800FEF70DFF022020701DB1BDE8314049
:1038E000FFF762BA31BD80B5FFF7B8FC904B93F992
:1038F000022001219140491E0840D870587818B91B
:10390000BDE8014001F093BDBDE8014001F080BD7C
:103910008E488D4A016849084900016000201070F6
:1039200083494878022808BF01F0D5BD10B5804C06
:10393000607840B9FDF7D8F9E178814203D3BDE85A
:1039400010401C20CDE0BDE8104001F093BD10B543
:10395000774C0120E071ED20FFF73AFF6078BDE879
:10396000104052E780B57749774B0A7818780243C0
:1039700018BF00F0BBF9FFF71BFA6D490A78401E2B
:103980008041C00F022A07D183230B7008B1FFF7D3
:103990000BFABDE80140BBE718B1BDE80140FFF7F5
:1039A00003BA01BD10B5624C607800281CBF012825
:1039B00000F09CF90420207000F039F92079644966
:1039C000401C2071C0B20A78824203D2BDE8104088
:1039D000E12086E0487BA1784A1C8242B8BF481C9F
:1039E000A070FFF780FF83202070BDE810409DE7A6
:1039F00010B5FFF7DDF94E490A78441EA441E40FE3
:103A0000832A0ED1887940B985220A700CB1FFF75C
:103A1000CBF9BDE81040002063E08620087001F07B
:103A2000B1FD04B13DE010BDF8B504460D46FFF709
:103A3000BFF93F4F461EB6413878F60F862812D19F
:103A40008721397001F00DFE0EB1FFF7ADF97879DD
:103A5000844204D1002D0CBF00201B2000E0E9208F
:103A6000BDE8F2403DE01EB1BDE8F140FFF79CB972
:103A7000F1BD10B5FFF79CF9441E2D480178A44113
:103A8000E40F86290AD18722027001F0EAFD0CB109
:103A9000FFF78AF9BDE81040E92022E004B100E018
:103AA00010BDBDE81040FFF77FB90000264810B5F3
:103AB00001781F4C20290ED124490A68520852006F
:103AC0000A60002101702178022901BF1D4A107887
:103AD0000028FFF747FF04F10800BDE81040FEF79B
:103AE00020BE10B50446124800211B2CC171017084
:103AF00004D01848017801F0FE01017000F097F839
:103B0000FFF7E2FBFFF713FC2046BDE81040FDF78E
:103B10004FB910B5084C206808B900F0E7F800F07C
:103B200036F92168C86000F0AAFE2268108210BD34
:103B3000E07100206C430020A4420020F06C0020C3
:103B400038880840CC710020CE7100209086084053
:103B5000146D00203F7200205E480021417001700A
:103B6000704738B5050008BF00F0C0F8FFF720F92E
:103B7000441E58484178A4410D43457000F070F848
:103B8000E40F1CB1BDE83140FFF70EB931BD10B5EF
:103B9000040008BF00F0AAF8FFF70AF94D494A7877
:103BA000401E80411443C00F4C7000B13BE010BD7B
:103BB00010B5040008BF00F099F8FFF7F9F845497F
:103BC0004A78401E84F0FF0480411440C00F4C70BE
:103BD00008B1FFF7E9F8BDE8104028E080B5FFF72D
:103BE000E7F83C49401E804100224A700A70EF22EB
:103BF00039490A60ED220A60C00F0A6008B1FFF778
:103C0000D3F8BDE8014001F024B810B5FFF7D0F8B3
:103C10003049441EA4414878E40F08B100F020F870
:103C200004B100E010BDBDE81040FFF7BDB810B50D
:103C3000FFF7BEF82749441EA4414878E40F60B955
:103C400026490A78100608D42549087828B9254A53
:103C50001178080658BF00F017F804B1E3E710BD6B
:103C600080B5FFF7A5F81B4A411E89411078C90F9E
:103C700020B901231370E3221748026019B1BDE88F
:103C80000140FFF791B801BD70B5FFF791F81149F8
:103C9000451EAD410878ED0FA8B10022124E0A7002
:103CA000EF207060ED2070607060FFF781F8441EB7
:103CB000A4412A20FFF7ECF86FF00400E40F306015
:103CC0000CB1FFF771F81DB1BDE87040FFF76CB89B
:103CD00070BD00003E72002038880840CC71002082
:103CE000CE710020E0710020348808407047000049
:103CF00080B5002000F003FE4FF47F0000F01AF8BA
:103D000047486FF0080141606FF01002016841F010
:103D1000080101604260016841F01001016001BDCD
:103D20003F48016821F010010160026822F008029A
:103D30000260DDE738B5054600F0B4FDA84228BFB3
:103D4000FFF7D4FFFFF734F8441E364805602846D5
:103D5000A44100F014FEE40F04B100E031BDBDE861
:103D60003140FFF721B838B5FFF722F8441EA441CF
:103D700000F098FDE40F05460CB1FFF715F829484F
:103D800001688D4201D3002032BD284632BD38B5CE
:103D9000FFF70EF8441EA44100F096FDE40F05461F
:103DA0000CB1FFF701F81F4801688D4201D30020D4
:103DB00032BD284632BD70B51A4D0446286884428B
:103DC00028BFFFF793FFFEF7F3FF6C60461E204607
:103DD000B64100F0B4FD00F065FDF60F84420AD153
:103DE00011496FF0100008600EB1FEF7DDFFBDE86D
:103DF0007040FEF7ECBB1EB1BDE87040FEF7D4BFCB
:103E000070BD7047FEF7E3BB80B500F07FFEBDE8F4
:103E10000140FEF729BC034800687047000000001D
:103E200008880840547300200C88084062F30F2271
:103E300062F31F42401810F0030308D0C91A1FD3C1
:103E4000DB0748BF00F8012D28BF20F8022D130022
:103E500030B414461546103928BF20E93C00FAD882
:103E6000490728BF20E90C0048BF40F8042D89000D
:103E700028BF20F8022D48BF00F8012D30BC704744
:103E8000C91818BF00F8012DCB0728BF00F8012D75
:103E90007047000080B568B9FF20FEF7CEFE002114
:103EA000002001F025FC1649164A00200870012167
:103EB000117001BD144A0FF2410100201070BDE8DD
:103EC000044001F015BC70B5104E0D463178FF2945
:103ED00004460DD00420FEF75BFD38B1C02101700F
:103EE0008570C47001463078FEF773FD002070BD08
:103EF000012070BD00000000810801F00101E2E72F
:103F0000887200207D7400206A7400206E430020B7
:103F100000F0A7BC794900204860704770B504469E
:103F20000D46164600F018F808B1466070BD102026
:103F3000FEF74FFC78B18472058146600021016074
:103F4000C1606E490A6812B9086070BD0A461168FE
:103F50000029FBD1106070BD02466848006828B196
:103F600003898B4204BF837A9342F7D17047F8B537
:103F700004460E461746FEF71BFF3A463146451EDD
:103F80002046AD41FFF7CAFFED0F04460DB1FEF725
:103F90000BFF0CB10020F2BD0820F2BDF8B50446BD
:103FA0000D461646FEF704FF471E324629462046B8
:103FB000BF41FFF7B3FFFF0F040018BFE6600FB16A
:103FC000FEF7F2FE0CB10020F2BD0820F2BD70B584
:103FD00004460D46FEF7ECFE461E29462046B64135
:103FE000FFF7BAFFF60F04001CBF002020810EB1BE
:103FF000FEF7DAFE0CB1002070BD062070BDF8B5EA
:1040000004460D46FEF7D4FE0026471E29462046EC
:10401000BF41FFF7A1FFFF0F00B146680FB1FEF7E8
:10402000C3FE3046F2BD2DE9F14181B0334FFEF7BA
:10403000BFFE7A680199401E80418A18C00F7A60DD
:1040400008B1FEF7B1FE3E68002E51D04FF00008D7
:10405000FEF7AEFE0024451EAD41BDF80600ED0F93
:10406000002804BF9DF80500002807D130799DF88D
:104070000420904202D3801A307106E070680199E2
:1040800081423ABF401A70607460B08860B9F188AC
:1040900061B9F06800281CBF318900290AD0B07AC4
:1040A000FEF78DFDF0687060B08808B9F18809B13D
:1040B000308940B93068B8F1000F0CBF3860C8F8DB
:1040C0000000344600E0B04636680DB1FEF76CFEE5
:1040D00064B1A188002904BFE088002803D12189A8
:1040E000A07AFEF76CFD2046FEF7D9FB002EAFD17B
:1040F000BDE8F381014840687047000084730020E8
:10410000034800218171018070470149887170471F
:104110007C73002080B51820FEF75BFB1549086012
:1041200018220021FEF704FC002001F0E3FA012030
:10413000FDF726FC022001F029FC032003F02AFDF4
:10414000042003F087FE052004F08CFA062004F01A
:1041500075FD072006F096F8082006F095FA09206C
:1041600006F0C6FC0A2007F091FFBDE802400B20D4
:1041700000F01AB8EC730020FF56200091192000BF
:10418000D9592000A17B2000857E20006F8B200064
:10419000E38C2000BBA220009BA62000BDB720001E
:1041A000F9BE2000BD41200012490870704780B55B
:1041B00007F0A8FFBDE8014008F078B938B50C4613
:1041C00020040BD50B4D01E0FEF7F4FB2878FEF739
:1041D0002DFC0028F8D184F4004032BDA00602D5A1
:1041E00084F0200032BDE00602D584F0100032BD1C
:1041F000002032BD6374002008F05AB9EFF310803C
:1042000072B67047EFF3108062B67047DFF8D014D3
:1042100000200860704780B503F059F860B90022AB
:10422000012100F03DF900281CBF0168002903D0DE
:10423000BDE8024001F0B3BD01BD80B5042000F02F
:1042400020F9DFF8A0140A78824207D3FF2000F09B
:1042500018F9DFF894140A78824201D2012002BDD5
:10426000002002BD2DE9F04107468846387B00F06A
:1042700029F900250446012624BB7A89397B386850
:1042800000F0B9F8040062D025810125387C207443
:10429000788A608207F1100009F011F96061388BAB
:1042A00061892083B87EA0764FF67F40014061810E
:1042B00048074FBF41F08001DFF83004027841EA3F
:1042C000C21161816289D009B8F1000F00F00700C6
:1042D00012D00221617321688B7B590703D5DFF867
:1042E00010140B8A238120B34FF67F410A40401EF1
:1042F00042EAC01262811CE008B9002619E090066B
:1043000005D5FEF743FB00F07F005F3008E0D006E4
:1043100005D5FEF73BFB00F00F000A3000E001205E
:104320002081202104206073DFF8C8030078FEF7A5
:1043300046FC6DB12289617B204600F06FF838B1F0
:10434000606908B1FEF7ABFA2046FEF7A8FA00262E
:104350003046BDE8F0813EB500F0B4F800240028F6
:1043600033D0417B062930D1016844890A7A8DF81F
:10437000082001680A88ADF8002000F0E7F8200561
:1043800022D5BDF80010002000F021F8E0B9DFF8D8
:104390006053A98C68460AF070FC002100200CE0F4
:1043A000206801884FF6FF7291420DD0A98C0AF067
:1043B00062FC1A2808D00021204600F008F804000A
:1043C000EED100200AF05BFC012420463EBD58B12E
:1043D000406868B142891305FAD50A001EBF026819
:1043E00013888B4204D0F3E7DFF8F4020068F0E7AB
:1043F00070470120704770B504460D4616461C20D4
:10440000FEF7E7F948B10021417305734681018148
:104410008173C17304604161416070BD70B5040077
:104420000D4616462BD0012D284606D100F029F85E
:10443000B1490A7882420CD207E0042D07D100F07E
:1044400020F8A8490A78824203D2112070BD022DBB
:1044500015D10020606065732681A148016831B1E3
:1044600000E0014648680028FBD14C6000E0046091
:10447000A04800782021FEF7A2FB002070BDC120DB
:1044800070BD974909680246002005E04B7B4968EA
:10449000934214BFFF2A401C0029F7D1C0B27047D5
:1044A00010B558B1406860B1437B8B42FAD113001C
:1044B00007D003689C7B630703D5F3E7884800684F
:1044C000F1E710BD01468648006800E0406800281A
:1044D0001CBF027B8A42F9D17047014680480068C0
:1044E00000E0406850B1026813888B42F9D1126A2B
:1044F0001378527803EB0223DB05F2D47047F8B54A
:104500000546002728000E460AD07548046800E0DA
:1045100064682CB131462046A8470128F8D12746C7
:104520003846F2BD0020704710B56D4A1368194631
:10453000002401E00C46496839B18142FAD148684B
:10454000994201D1106010BD606010BD10B504002B
:1045500011D0FFF7E9FF2068006AFEF7A0F9206894
:10456000FEF79DF9606908B1FEF799F92046BDE8AC
:104570001040FEF794B910BD70B50168584B0A8819
:1045800019680023002409E04D7B052D01BF641C40
:104590000E6835889542496808BF5B1C0029F3D135
:1045A000564A53491578DBB2AB423FBF544B1D7896
:1045B000E4B2AC422CBF01220A8A02814FF6FF739B
:1045C00005224273428942F40062428100680288F7
:1045D0009A4204D0898C0AF04EFB1A2804D1BDE817
:1045E000704001200AF04BBB70BD70B53C4D2C688B
:1045F000002C0EE021686668086AFEF750F9206812
:10460000FEF74DF96069FEF74AF92046FEF747F9D3
:104610003400EFD10020286070BD10B501000AD031
:10462000A1F108021068002804BF9379FF2B04D081
:104630000846FEF7BFF9052010BD2E4C207890717A
:10464000304802783048FEF798FA012806D12078E1
:104650004FF40051FEF7B3FA002010BD042010BD46
:1046600070B5FEF7A5FB284E3468451EAD41ED0F31
:104670008CB1204854F8081C007800294FF40051F0
:1046800002D0FEF79CFA01E0FEF7B0FA00222146C4
:104690003046FEF759FA0DB1FEF786FB204670BD95
:1046A00070B505460E480468002614E021680A88A3
:1046B000AA420FD100202081A07A410744BF207B6D
:1046C0000BF07AFC06216173F0212068407B01F039
:1046D000C8FB761C6468002CE8D1F0B270BD000005
:1046E00048740020F6152200F715220077430020B9
:1046F000786C0020BC730020F5152200F91522000B
:10470000FA152200051622004C740020F0B5DFF8DF
:10471000300489B0142101603F2181605521C160BE
:10472000FC21DFF82044DFF82054DFF82074DFF8A4
:104730000C6461638521E1670121416115214162BA
:104740000021A967102101630E21416303218163C8
:104750000920786504210B200860FF2139602A2098
:104760008021FEF72CFB80212B20FEF728FB2A203E
:10477000FEF736FB2B20FEF733FB80213120FEF7BE
:104780001EFBDFF8CC030168090C3160FEF710FB5B
:10479000401E80410221F9670022DFF8B8130A6049
:1047A0002822C00F4A6008B1FEF7FEFADFF8A8031E
:1047B00001680A03FAD5386F40F003003867386F94
:1047C0004107FCD5386F40F00A0038673120FEF70A
:1047D00007FB48202060FFF743FA206CC107FCD597
:1047E00000211020A26F53084941401E89B2F9D11F
:1047F000002914BFB1F5607F4BF6BE21DFF85C03E2
:1048000001F0FF02026009120160716869B10022C3
:1048100000230820A66F77085B41401EFAD1684646
:104820008354521C202AF3DB8847FFF72DFA4020DF
:1048300020600021206840F020002060296069602D
:10484000A960E9602961696109B0F0BDDFF8100372
:10485000016821F00C0141F0040101608069C0B2DF
:104860007047DFF8FC02016821F00C0141F00401FF
:1048700001608169406900EB012080B2704710B58A
:10488000FEF796FADFF8DC12401E804101220A6032
:10489000C00F8A684C6844EA022408B1FEF784FA23
:1048A000A0B210BD80B5FEF783FA00F005F84A68A3
:1048B0004B698DF8003014E0DFF8A812401E8041EB
:1048C00000220A60C00F704780B5FEF771FADFF86A
:1048D0009412401E804110220A60C00F4A698DF870
:1048E00000200A698DF801200022C9688DF80210A5
:1048F0008DF8032008B1FEF757FA009802BD01B504
:10490000000E18BFFFF7F2F9FFF7CCFF964AD16807
:1049100040180099401AD060FEF74AFAFFF7CCFF22
:104920009DF800204A619DF801200A619DF802204F
:10493000CA6018B1BDE80140FEF736BA01BD11B535
:10494000002481B0000E18BFFFF7D0F9FEF730FA4F
:1049500000F036F8D30604D50A6822F010020124CC
:104960000A60302300F032F86FF010024A601CB188
:104970000A6842F010020A6000B132E013BD11B5BE
:10498000002481B0000E18BFFFF7B0F9FEF710FA4F
:1049900000F016F8130704D50A6822F00802012473
:1049A0000A60202300F012F84A6822F008024A60E8
:1049B0001CB10A6842F008020A6000B111E013BDA0
:1049C0006A490A68401E8041C00F70478B609DF89D
:1049D0000420CA619DF805208A619DF806204A617D
:1049E0007047BDE81340FEF7DFB938B55F4C256866
:1049F00060680540E80604D5FFF704FA6FF0100080
:104A00006060280704D5FFF7FFF96FF008000DE09C
:104A1000E8070CD556485749006891F9002043B281
:104A20009A42B8BF1A460A706FF00100606031BD4B
:104A300070B5514C514D666C2A20FEF729FA296851
:104A40003140080705D56FF00800286000F014FE1B
:104A500013E028683040C00605D56FF010002860CC
:104A600000F011FE09E028680640F00705D5606CEB
:104A700040084000606400F09FFB206C69680840BB
:104A8000400707D500F025F96FF004006860206842
:104A90004106F7D470BD10B539490C682B20FEF7DC
:104AA000F7F9384801682140490603D56FF0400105
:104AB000016010BD01682140C90708D56FF00101F0
:104AC0000160FFF78BF8BDE81040FFF7C9B8016837
:104AD0000C40610706D56FF004010160BDE810408D
:104AE00000F0B3BB10BD23496FF07F0008701F4872
:104AF000016841F00101016070471C4801684908E4
:104B0000490001601B4890F90000704738B5FEF776
:104B10004FF9154D441EA4412878E40F28B9FFF73A
:104B20007AF9E9684018E86001E0002028701CB1BB
:104B3000BDE83140FEF738B931BD00005C7300209C
:104B4000A486084024860840908508409487084041
:104B5000F80F28001488084004200D4014700D4000
:104B600000700D40108808406872002008880840D6
:104B700060860840677400204C86084030880840F2
:104B8000948608402C88084004E011F8013B40F866
:104B9000043B521ED3B2002BF7D1704704E050F80B
:104BA000043B01F8013B521ED3B2002BF7D17047F2
:104BB00038B504460D0008BFFFF798F814F8010B4C
:104BC0000B4908606D1EE8B20028F7D131BD38B539
:104BD00004460D0008BFFFF789F80548016804F88E
:104BE000011B6D1EE8B20028F7D131BD00000000A6
:104BF00028880840DFF888060021C1724161818061
:104C00000FF2F5010161002181718181817370478B
:104C100038B5DFF8705605202860FEF7C9F800F0B7
:104C200053F8DFF864166FF00400E40F08600CB16D
:104C3000FEF7BAF8E86B40F00400E86331BD80B5D8
:104C4000FEF7CCFFDFF8381600204871BDE80240BF
:104C500000E310B5DFF8284601206073207B18B907
:104C600000F003F80021617310BD38B5DFF81406B9
:104C7000DFF81456016C49084900016405220260FE
:104C8000ED2068606860FEF793F800F01DF86FF0A3
:104C90000400E40F28600CB1FEF786F8DFF8E04569
:104CA000606918B104F11400FBF7B8FF0FF2490076
:104CB00021792061A079014305D000212171A171E2
:104CC000BDE8314085E231BD441EA4412A20FEF7F3
:104CD000DFB810B5DFF8A845607B58B90121217312
:104CE0002069804700202073607B18B1FFF7BDFF6B
:104CF0000021617310BD00002DE9F84FDFF88075C9
:104D00003879002508B1FEF7F1FF81213971DFF80C
:104D10007C15087838B1DFF87845606A010606D45A
:104D2000606A410603D43D7100F053FA54E100F08B
:104D300011FCA06EDFF85C9540084000A066BD71D4
:104D400004217879B8723846FFF741FF387800F0CF
:104D50007F00C01EF871C0B27D28BEBF787800F019
:104D6000070104296BDA00F00700022804BFF87A73
:104D70000028DFF824653AD100F07CF9FEF718F836
:104D80003178B0F1010868EB080886294FEAD87439
:104D900029D1DFF80855286808B9FEF7A7FF9DF963
:104DA0000000A0F149069DF8010000F07F09494686
:104DB00070B2FEF741FB29684877286880F81E909A
:104DC0002968CE770CB1FDF7EFFF9DF801000106D1
:104DD00006D57978F87801F01001FEF725FE33E06A
:104DE000FEF747FE30E07CB3FDF7DEFF2CE03078C5
:104DF000862808BFFEF73DFE7A78B97A71B1F87A55
:104E000060B9012935D0022902D112F0070F30D143
:104E1000032903D102F0070003282AD1B978DFF86B
:104E20008034C1F381008DF800004FEA91180146EB
:104E3000186860B9B8F1010F18BF012907D1ED203A
:104E4000C9F80800C9F8080000F0A2F9C4E00FF2A0
:104E50006C40465C10F808008619B8F1000FF6B2F5
:104E600003D0500644BFB61EF6B2F879B11C884292
:104E700002DA00F0B7F9AFE0801B801E78721107EC
:104E800048BF2525C0B245194C35A8B2FBF7B7FE7F
:104E9000786118B9E820C9F80800EAE7F87A4FF015
:104EA000000A18B9797801F02001B971B879A8B36E
:104EB000FDF77EFFB0F1010B787800F007006BEB97
:104EC0000B0B03284FEADB7B0CD1FBF785FE002898
:104ED00072D1DFF8D0130878002869D00BF052FCAB
:104EE000FE2869D0206820F004002060FDF760FFF4
:104EF000451EAD412A20FDF7CBFF6FF00100ED0FFD
:104F0000C9F800000DB1FDF74FFFA06E40F00100A1
:104F1000A066BBF1000F18BFFDF746FF786900F1EE
:104F20004C0141600164797A01727869017A80F8F4
:104F300044107878010711D57869032180F844106E
:104F4000796901F14000791C02790068FDF7D8FC0D
:104F5000786950F8401F027911440160786980F83F
:104F6000248078699DF8001080F82E10FFF7ACFCC3
:104F700079690863FFF783FC79698886787800F09F
:104F8000070008737969F87881F83D007978B87876
:104F9000C0F3011001F0780108434AEA0001786982
:104FA00081737EB90FF2F901396100F066F813E000
:104FB000FBF706FE002895D020684FF0040A40F069
:104FC000040092E73E727978387A0A0758BF401E8B
:104FD000A0620FF209003861BDE8F18F30B5A84C2E
:104FE000207A85B008B9FEF781FE00F042F8A0787B
:104FF0006946C0F38100C8B162699DF800304D7800
:1050000003EB052313870328138FD38608D10DF1F3
:10501000020102F12600FDF7C4FE0DF10A0105E0D0
:105020008878C97800EB0120D08401A9A078800994
:1050300015D06269937B5D0605D40D784B7805EB3E
:105040000325D586891C032804D102F11C00FDF735
:10505000A8FE04E00878497800EB01209083002046
:105060006169C8750FF23900206100F006F805B0DB
:1050700030BD217A6846FFF7AABD8149814A487A46
:1050800028B9012010600FF23D0008617047102818
:10509000A8BF10200872087A401E106070470000F8
:1050A00010B5774C6269217A106CFFF790FD616949
:1050B000207A0A6C02440A64617A081A6072BDE8B8
:1050C0001040DAE72DE9F8436D4D02212846FFF73D
:1050D0007EFD6E78002406F0800630006C4F02D111
:1050E000E87A02283FD1E720FEF772FB0220287100
:1050F000FEF79DFD2857A0F14909687800F07F0868
:1051000041464FFA89F0FEF797F9696981F83A004C
:10511000686980F83C90696981F83B80696991F819
:1051200044304A6801F14C000864087A1B1AD01810
:105130004860897B4A0706D50078042803D039687F
:1051400021F004013960574A107818B10BF022FBA6
:1051500000B104246869817B34430C43847368691B
:10516000FBF761FD0BE0E820FEF732FBB86E40086C
:105170004000B866AC7105F11400FBF74FFD00204C
:1051800068610520B8624848C5F81000BDE8F143E1
:10519000464801684A0606D50068010603D444481B
:1051A000ED210160016000213548017180790028FE
:1051B00008BF00F00EB8704710B5314C0020A07148
:1051C0003C48FDF7AEFA207910B9BDE8104000E088
:1051D00010BD80B5FEF72BFDFEF776F8BDE8014067
:1051E000FEF7C0BB10B5264C2F492069884218BF76
:1051F000FEF77CFDE07910B9BDE81040C8E7102843
:10520000A8BF102020721F49207A401E08600FF2AC
:105210000901216110BD00001FB5194CFFF729FFDE
:10522000E179207A081AE071C2B2164932B1C0B2EF
:10523000102809DA2072401E08601FBD0520086092
:1052400019482061FFF7A4FF1FBD0D48817B491C51
:105250008173FEE410B50A49174CC872010005D1EC
:1052600000202060206840F0090007E002281CBFF1
:105270000128FEF73BFD206840084000206010BD7B
:10528000C871002050860840348808403E720020D3
:105290002886084030880840E0710020A4420020A1
:1052A0005C73002065740020F94C20004C86084097
:1052B00038880840E87100200086084000BE040AD3
:1052C00062B38B0708D0521E11F8013B00F8013B76
:1052D00000F024808B07F6D1830740F0208000BFC8
:1052E000103A07D330B4B1E83810103AA0E83810BB
:1052F000F9D230BC530724BFB1E80810A0E8081069
:1053000044BF51F8043B40F8043BD20724BF31F8B6
:10531000022B20F8022B44BF0B7803707047083A29
:1053200007D3B1E80810083A40F8043B40F804CB32
:10533000F7D25307E4E7000038B5134C207878B96A
:1053400031BD012818BFFEF7D1FC2868010358BF02
:10535000FEF7CCFC00202070BDE83140FEF755BCC4
:105360000A4D29680A03FBD509490A6842F003027D
:105370000A600B685A07FCD50228E2D10BF0ACFAA0
:10538000FFF746FCE6E700006C43002004200D40D8
:105390000488084010B5FDF70BFDDFF82813401E08
:1053A000804100220A60C00F4A688C6808B1FDF78E
:1053B000FBFC2406600E10BD38B5DFF80003016861
:1053C000CA0648BFFEF792FCDFF8FC02DFF8FC5289
:1053D000012101670160E220A860FF20A860FDF7BD
:1053E000E7FC00F039F96FF01000E40F28600CB111
:1053F000FDF7DAFCFDF7DCFC00F02EF96FF0080099
:10540000E40F28601CB1BDE83140FDF7CDBC31BDD3
:1054100080B5FFF7D1FFAA48BC210160B821016027
:105420000F210160D0210160016001600EE080B5B4
:10543000FFF7C2FFA248BC21016017210160812152
:10544000016010210160D2210160812101601021E1
:105450000160D2210160D92101600121016009218F
:105460000160BA21016001210160C5210160D221E2
:10547000016001BD38B500F069F8954C11606FF01E
:1054800002002060FDF794FC411E8941002060600D
:10549000C90F9048A268E3680568122DDBB204D2F8
:1054A000D2B253EA020008BF521C03206060D2B29D
:1054B000A260E36009B1FDF777FC804800F03DF899
:1054C000FEF7CEFBE120E06231BD80B5FFF774FF4F
:1054D0007B48BC21BEE72DE9F0417A4D7748DFF8E3
:1054E000F88100F02AF8FDF763FC441EA441002077
:1054F0002860E40F68686E69F6B206F00F07C7F11E
:105500000F07FFB2C8F80070FEF768FB734901206F
:105510000870E121A96200202860686868698642F5
:1055200004D0022FA4BF7F1EC8F800701CB1BDE8D4
:10553000F041FDF739BCBDE8F081016841F0100190
:105540000160026842F00802026070476448624AE3
:10555000017870475C49086800B1704780B55748CA
:105560000168CA060DD5026822F0100202600168C7
:105570000A0705D5026822F008020260FEF7C9FAA0
:10558000B2E001BD2DE9F8434C4D2868C10648BF83
:10559000FEF7ACFBFFF7FEFE804652480478142C61
:1055A000D8BFFEF7A3FB4444143CE4B2142094FBA0
:1055B000F0F9494E00FB194409F101010220E4B25F
:1055C000B0605FFA81F9C6F80090142CC8BFFEF7EE
:1055D0008DFB3F4F6FF002003860FDF7E9FB401E86
:1055E000804103217960C00F3A490A686402122A97
:1055F00002D2A1B201B90124A4B204F0FF01B96042
:10560000240AFC6008B1FDF7CFFBE220F862FF201E
:10561000F862FDF7CDFB00F01FF86FF01000E40F0B
:1056200078620CB1FDF7C0FBBC20F862E121B82024
:10563000F862D220F862286840F010002860F96211
:10564000FFF7A8FE404505DA3068484502D13068CA
:10565000401E3060BDE8F183441EA4412A20FDF7BE
:1056600017BC1648016821F010010160E2221448BD
:105670000260FF21016070471048016821F00801B5
:105680000160FEF746BA80B50C48016821F01001B0
:1056900001600D49086800B926E00A68012A03D1B3
:1056A000BDE80140FEF77EB90868022818BFFEF782
:1056B0001DFBBDE80140FEF7DCB900009086084004
:1056C0003888084010880840908708403088084093
:1056D0000C8808405C730020888708403E720020D8
:1056E000E3710020F06C0020BDE80140FEF780B9B6
:1056F00070470000A34908701021FDF760BA70B52B
:105700000D4628048CB09F4E15D4680431D50BF09B
:105710008FF918B10BF0C4F90BF072F985F48045DC
:10572000D1E020460BF0B6FC02E020460CF0BAFDBA
:105730002046FDF73FF93078FDF778F9040000F0D6
:10574000C5802078012808D01A280AD0D1280CD08A
:10575000D328EAD0FD28E4D0EAE760680BF0A0F98E
:10576000E6E720460BF0AAFCE2E720460CF054FCEA
:10577000DEE7A80407D50BF05BF908B10BF090F950
:1057800085F400559FE0E8047F4C23D5A06848B914
:10579000201DFDF7B0F9A060E06018B14078401D11
:1057A000608001E0A06890B16288E168002006F0A6
:1057B00081FE6188091A618089B229B9A068FDF764
:1057C000F9F80020A06002E0E1680844E06085F498
:1057D000805578E0280505D500200DF07FF885F488
:1057E000006570E0680505D501200DF077F885F4B7
:1057F000806568E0A80505D502200DF06FF885F4F6
:10580000007560E0E80505D503200DF067F885F424
:10581000807558E0E8064ED5207808BB01218DF848
:105820000010042000218DF801008DF802100520E1
:10583000AA21ADF80400ADF80C1078200521ADF8D0
:1058400018008DF8061001200FF215118DF82000B8
:105850000A910020694606F02AFE30780DF050F8D3
:105860000022022140F601700DF002FD002202210B
:1058700040F602700DF0FCFC0022022140F603709D
:105880000DF0F6FC0022022140F604700DF0F0FC51
:105890000022102140F605700DF0EAFC00221021D4
:1058A00040F606700DF0E4FC0BF01EFD0DF000F864
:1058B00085F0100507E0280704D50BF0B3F985F053
:1058C000080500E0002528460CB070BD85F40045B1
:1058D000F9E780B52C4B1A7832B9491D88B2FDF72B
:1058E00057F870B1401C02BD00F0E0006028084687
:1058F00003D1BDE802400BF01DB8BDE802400BF03B
:105900002CB802BD70B5204D04462878B0B9267871
:10591000F61CF1B220460CF0F6FFF6B2611EA0555F
:10592000FE2004F8010C281DFDF7CAF8BDE8704000
:10593000144800784FF48051FDF741B9607800F0C9
:10594000E000602804D12046BDE870400BF009B8A3
:105950002146281DFDF7B4F8BDE870400BF03DB8B6
:10596000084A127801291CBF0229042902D01029F3
:1059700003D0704711460CF0D5BF4FF4805110464C
:10598000FDF71DB9687400208872002010B5DFF89B
:10599000C818DFF8C8480870002084F826000DF009
:1059A000FBFDFEF733FC0020606708F024FCDFF805
:1059B000B0080078002818BF012803D10DF08EFE32
:1059C00009F092F90DF0FCFDDFF89818002008604E
:1059D000BDE8104009F04AB92DE9F041DFF87878C8
:1059E00038780E4631048EB01CD5FDF71FF8040040
:1059F00015D000200FF2D02100E0401CC0B20246BA
:105A000011F83230FF2B07D02578AB42F5D1091DB4
:105A1000204651F8321088472046FCF7CBFF86F429
:105A200000403BE1B1040BD5FEF71AFE040004D0A0
:105A300000F02CFC2046FCF7BDFF86F400502DE161
:105A4000DFF81C48DFF820582178022910D1F3072D
:105A50000ED5287A0F2808D1002000F06EF920B169
:105A6000DFF80808006800F01FFA86F0010015E171
:105A7000B30640F195802021FEF7C1FA796808430A
:105A800008BF01250DD0FEF735FB014678680025DB
:105A900028B1814232BF6FF000450D1A6D08002D0C
:105AA0003CD000F045F9044637E0FF208DF80000B7
:105AB0008DF8010001AA4FF0FF308DF80200206838
:105AC000C17F006A06F079FF01281BD1608A40F08F
:105AD0008000ADF83200A17B8DF83410A17A0A075E
:105AE00006D540F48070ADF832000DA9207B887097
:105AF000606910B1007BADF814000022694601A86E
:105B00000EF02FFB06206073207BFEF724FC03E0E1
:105B10000028CAD1012060734446002C00F0C180E7
:105B2000002204212046FEF7BBFC80462089A842C3
:105B30002CBF401B0020208120890028ECD1A07BB5
:105B40000128E5D1A17A4A07E2D406206073B72183
:105B50002068407B00F085F9DEE7048903E00289D4
:105B6000944288BF144600220421FEF799FC0028C5
:105B7000F5D1A9B23878A14202D2651BA9B221B9E8
:105B80002021FDF71CF8002006E02C04E20B202168
:105B9000FEF7EDF9FEF7AEFA786086F020007DE0C2
:105BA000002918BF012959D1F00604D509F057FC86
:105BB00086F0100072E0700604D50AF0C1F886F095
:105BC00040006BE0300604D50EF0B1FD86F0800099
:105BD00064E0F00504D508F0F2F886F480705DE02A
:105BE000300515D509F051F9DFF88406017801294F
:105BF0000BD1DFF8802612783AB14FF47A70424325
:105C000038784FF40061FEF7C9F986F4006045E08A
:105C1000F00408D5787818B10021797009F035F9C9
:105C200086F480503AE0700418D5DFF84C0600681E
:105C300088B1DFF848160A78012A0CD18047DFF8CE
:105C40004006006800B1804738784FF47A724FF40C
:105C50008041FEF7A3F986F480401FE0B00504D52B
:105C600008F076F886F4007018E0700515D5DFF8B6
:105C70001406008807F0BBF8DFF80C16088807F058
:105C8000B2F82078022808BF05F0B7F9288801216A
:105C90000EF07DFB86F4806000E000200EB0BDE8D1
:105CA000F081FEF7B8FA002201210020FEF7F8FB90
:105CB00018B138782021FCF782FF00F039F800286D
:105CC0007FF44BAF68E700000100000099692000F5
:105CD000060000000B712000080000009F702000EB
:105CE0000B0000008571200010000000E5FF20007F
:105CF0000A0000007F72200002000000996B200063
:105D0000050000005F6E200007000000AF6C20005F
:105D10000C000000C15F20000D0000008D6220001B
:105D200064000000893B2100FF000000000000002B
:105D3000002204210020FEF7B3BB00B587B0182273
:105D400001F03EF8DFF81405418B808CADF80010AF
:105D50000222ADF80A0000218DF808208DF81410F9
:105D6000684608F04AFF07B000BD10B50C008EB0C1
:105D700012D001466A46204606F01FFE9DF8060036
:105D800050B19DF81C309DF80120214600200FF0F5
:105D90004EFA08B1A42000E000200EB010BD70B58E
:105DA000044682B0618948064FF6FE750AD521681F
:105DB000088807F04BFB10B14FF6FF703AE02068FF
:105DC000008835E0DFF898241078002818BF0128F3
:105DD0002AD1DFF88824937B9A0725D52068026AA8
:105DE00016795279C9044CBF4021002106EB0226E6
:105DF0000091228B00882B46B1B209F06BF8B2B249
:105E000090421CBF228B904212D12068018800234F
:105E10000222B0B207F09CFCCD252068407B2946C9
:105E200000F01FF8B0B11AE00228F5D106F0E5FE47
:105E3000A842F1D02168088007F008FB01462068DD
:105E40004A1E9241D20FC281DFF8441B08F0DCFEEB
:105E50000500E2D11CB101212046FEF703FA2846D5
:105E600076BD38B504460D461420FCF791FD68B1A7
:105E70000C21017084700021817345700146DFF8A8
:105E8000D8030078FCF7A5FD002032BD2046FEF7C0
:105E900019FB38B106214173007B0AF08DF82046CA
:105EA000FEF759FA102032BD0246DFF8E80A817980
:105EB0000F290BD152B10078082818BF042805D14A
:105EC000DFF8940300780121FEF751B87047000015
:105ED000F8B50446164600200D4630801F46A16ADC
:105EE000087807F07CFA38B1608907F0AFFA022829
:105EF00002D16089308000E00027A16ADFF85C03EE
:105F00000A78521E0A2A55D8DFE802F0060C1A1F3A
:105F1000112D54383C444A0032462946204609F0A7
:105F2000A2F83BE02946204609F073F946E0608973
:105F300007F08CFA00283DD1204609F001FD3DE034
:105F40003946204607F02BFC28E0217F022931D179
:105F5000390003D16189C08A81422FD12146384658
:105F600007F0A2F91AE06189C08A814204BF207F4C
:105F700002281FD1204607F09DF81FE0204608F0B8
:105F800085F81BE06189C08A814213D1204607F061
:105F9000C6FC13E02146384607F034FD07460DE005
:105FA000B6480178012918BF002707D1204607F01D
:105FB00078FD03E0D3200FF08DF900273846F2BDBD
:105FC0002DE9F041054690B0A878A54EFEF77AFA83
:105FD00004003DD06878DFF8B47BDFF88082E0739E
:105FE0006878F12818BFCD2804D01A281CBFE928EA
:105FF000E12870D13078002818BF012835D1608998
:10600000010532D5052161733078002818BF0128B9
:1060100016D16878E92813D0386800B18047DFF8D6
:10602000707B386860B198F80E10880708D5206832
:106030004189008808F09CF910B169783A68904766
:10604000607B022804BF06216173A878FEF783F9FC
:10605000FEF7E1F83078022804D1DFF8381B088811
:10606000FFF722FF10B0BDE8F08100212046FEF7C7
:10607000F9F880B33078002818BF012824D198F8A7
:106080000E00810720D52168086AE8B1C97F03AAFC
:1060900006F093FC6B78E92B01D100F066F82168DB
:1060A000BDF8160008809DF81100BDF818100028F2
:1060B000BDF8160014BF4022002208F06EFF18B190
:1060C000608940F0200060816289697820890DF044
:1060D000F6FA208198E768788DF808000194A87B8B
:1060E0008DF80900207C002801A812D10DF0BCFF1A
:1060F0003078002818BF01280DD19DF8080050B94C
:106100002168088807F0A2F928B9386818B18047D3
:1061100001E007F026F99DF80830E92B01D100F0E5
:1061200024F83078002818BF012889D198F80E008B
:10613000810785D5607B022810D1A17A48070DD54B
:106140002068008807F082F930B921684FF6FF70A7
:1061500008800520607378E70320FBE76878E9286A
:1061600002D1204607F018FD6AE72068012100915E
:106170004189EA7B008806F056BD2DE9F0410646CC
:1061800000257079002490B17189FF200FF066FA24
:10619000082520B1707940F001002C2570717079CC
:1061A00000F00300012848D145F0110545E0707F5B
:1061B000DFF84C7B06F12408C0B196F821100029C5
:1061C00018BFFF2909D170893988884208BF222564
:1061D00033D0387C042830D106E0D8F8002096F877
:1061E000200009F07FFC40BB012426E0708907F005
:1061F0002DF902287189388808BF0125814208BF1E
:1062000045F00205280006D0B07800280CBF45F004
:10621000200545F04005084607F018F90128B07838
:1062200008BF45F0010540B1D8F80410087807F020
:10623000D6F8012818BF05F0FE05094800780028A7
:1062400018BF012804D1A80702D40CB945F0800575
:106250002846BDE8F0810000BC730020786C002067
:10626000DC410020407400209C6C0020E0410020B4
:106270007374002074740020AC7100208C430020E3
:10628000B87100205E740020607400202DE9F04F8A
:1062900095B005464FF6FE70ADF810004FF0000ABD
:1062A000DFF89C0B01780229D04608D1287A002813
:1062B0001FBFDFF8901B08880028FFF7F5FD297A3B
:1062C000686805AA06F079FB002871D09DF81600D1
:1062D000012401289DF81800C8BF00240128BDF83A
:1062E0001E00C8BF00244FF6F87188421CBF4FF64D
:1062F000F971884207D04FF6FA7188421CBF4FF6F9
:10630000FB71884200D1002407F083F89DF8171034
:1063100081424DD1002C4BD0DFF8240B01780229AB
:106320000EAE02D1707B002842D1A98B3181E88C5E
:10633000ADF822009DF81A0040B19DF830309DF86C
:106340001520696801200EF072FFD0B905A8FFF78B
:1063500014FF9DF81A10DFF8F0BA814699B99BF83E
:106360000B0000281CBF09F0220122290BD009F0E4
:106370004200422805D170680178062918BF072914
:1063800001D0CF20BCE019F040008DF8040028D0E7
:10639000DFF8AC1A0878002818BF012809D19BF84B
:1063A0000E00810705D570680078401E0A280BD9B9
:1063B000A5E070680078032818BF042804D00728D7
:1063C0001CBF0A280C28F3D170680178032904BF88
:1063D00040780D2805D005A807F09FF9012800F0A6
:1063E0009882288FBBF82410884205F13A0707D11C
:1063F000CDF800A03A78E98EA88B002306F013FCB4
:106400009DF81A00E8B1E98EA88B07F0B1FF0400EF
:106410003CD068689DF815100144487BE1788142C2
:106420001CBFE070C4F804A06868421C9DF8150009
:1064300004211044FCF78DFA616888424FD3401C58
:106440006060DFF8FC090078022849D19BF826003B
:10645000042818BF092842D15FEA896029D500F0D5
:1064600065FAB8788DF802009DF82600012802BF71
:10647000BDF82000A98B884207D1BDF81E0006F0A8
:10648000E5FF022801D18DF826A09EE09BF86C0064
:106490000128D6D171680A78062A03D19DF8040034
:1064A0000028CED1BDF822004FF6FF71884216D0E9
:1064B00021E19DF80400002811D0716808780428B3
:1064C00000F08D80072800F09580032808BF002188
:1064D00000F09B800C2802D105A807F044FB18E2CD
:1064E000002818BF0128FAD19BF80E008107F6D5C5
:1064F000707B68B1BDF820000DF0E5F918B9D32024
:106500000EF0E8FE05E26868417801F0DF014170B5
:106510009DF8260040B1686881794A1E82716868DA
:1065200080798DF8260008B909F07F095FEA0970C3
:1065300029D55FEA49704FF4805A0AD59DF81910A1
:1065400001F0E3018DF8191041EAD1018DF819101D
:1065500015E05FEAC96012D59DF81900C0F3820109
:106560000A0004D0072904D0491ECAB20AB909F0AA
:106570007F0900F0E30040EA81008DF819006968A6
:106580009DF8190008729BF82600042818BF0928F6
:106590003FD1BDF81E00BBF81610884209D006F0A6
:1065A00055FF02281EBF9DF8190000F003000128C6
:1065B00010D19DF8160070B939788DF800107878F0
:1065C0008DF80100B8788DF8020069462A6B05A89D
:1065D0000DF0C7FD9DE170680078042808D19DF892
:1065E0003000022803D105A9002006F05DFE90E1ED
:1065F000072807D19DF83000042802D105A806F02D
:10660000C7FD86E10328FCD1002105A807F0C7F8E3
:106610007FE119F0610009F008044BD05FEAC9710D
:1066200028D5A98B05A809F0C5FB08BB06F0EDFA33
:1066300080469DF82600002802BFBDF82000A98BE7
:10664000884217D0A98B424605A809F0FDFB50B13E
:10665000002C14BF4FF6FF70BDF81E00ADF81000FF
:106660004AF0040A06E009F0DF094FF0000801E0F3
:1066700009F09F095FEA896009D500F057F969467A
:10668000B8788DF8020005A82A6B0DF06AFD5FEA64
:1066900049600ED5A98B434604AA05A8FFF718FC4C
:1066A0000028804605D070680178012901D14AF0A0
:1066B000100AD3E000F030F902BF71680A78052AA9
:1066C00002D100F02DF924E1012802BF70680178A1
:1066D000032906D1BDF81E000DF0F5F808B100F051
:1066E0001FF99DF8260058B900F016F902BF71682D
:1066F0000878032803D0294605A800F01EF908E110
:10670000FDF79BFD0028FAD19DF83100002834D018
:106710000E9A9DF835109DF8340009F0E3F948B35E
:106720009DF835004AF0400440B9BDF81E00ADF8B0
:1067300010000DF0E0F800281BD119E00E9909F0C7
:10674000CCF9ADF8100008219DF81C0000B1102113
:106750009DF81B0008B10831C9B29DF8190008B1B5
:10676000491CC9B2491C6868C9B2425C531E4354F3
:10677000A24670E000230B2259E0BDF81E00ADF8E0
:1067800010009DF81800002808BF002C56D100F01A
:10679000C3F81ED0BDF81000002109F00DFD20B196
:1067A0004079012818BF022813D0298FBDF81000A6
:1067B00007F0DEFD28B1807807F016FF08B1082841
:1067C00007DBBDF820000DF07EF870B304208DF8D3
:1067D00018000023BDF81E109DF818000DF13102BD
:1067E00009F07DFD30B16868017801F03F014AF0A1
:1067F000200A01709DF8310040B1BDF81E100DA8AF
:1068000006F0B9F8ADF810004AF0400A00F084F83C
:1068100006D0BDF82010BDF81E00002209F080F956
:10682000002C14BF402200220CE000230222BDF8FD
:106830001E10BDF8200006F08BFF6AE0002CC8D0C7
:106840004023C7E7BDF82010BDF81E0008F0A5FBE7
:1068500008B14AF0200A06F0D8F98046BDF81000C9
:106860004FF6FE718842DFF8741A087808BF4FF0BF
:106870000008012826D1A98B4FF6FF70814221D054
:10688000BDF81E004FF6F87290421BDCBDF82000E8
:10689000814217D00DF02FF8A0B10179012918BF5E
:1068A00002290FD101218DF800104088ADF80C00AD
:1068B00068460FF020F928B101A80DF04DF808B195
:1068C00003F044FC5FEA096023D5B8F1000F20D043
:1068D000287AFBF77EFF04001BD02A7A6968FCF750
:1068E0000FF89DF816008DF84800002112A81391AA
:1068F00003900291CDF804A0CDF800802B7AAA8BEA
:10690000BDF81010204605F01AFF10B12046FBF725
:10691000C6FF15B0BDE8F08F9DF81600012870473E
:10692000A98B002304AA05A8FFF7D2BA38788DF8FE
:10693000000079788DF80110704738B50D4604468F
:10694000DFF89C196289087840B1DFF8FC34D88AF6
:10695000824203D1BDE8314008F097BA00211046C9
:1069600009F02AFC00281CBF807910F0180F08D00D
:10697000E88C0090AB8B627F6189A08909F0F2FC02
:1069800031BD6189A089BDE83840002208F038BDDA
:106990006B5D20009E6C00202DE9F047064688B014
:1069A000B01C0CF0ABFF044675780127B11C0DF14B
:1069B0001300FCF7F6F902208DF81E004FF6FE7961
:1069C000DFF820291078ADF81C900021002808BFBE
:1069D000002C4FF001088DF8101003D115B94FF0BD
:1069E000C3087BE0DFF8600490F82610082918BF80
:1069F0004FF0C20871D1B07A810704D5000754BFA7
:106A00000327042702E0000748BF02271CB32079B0
:106A1000042818BF032803D1042F18BF032F07D061
:106A2000022818BF01280DD1022F18BF012F07D14E
:106A3000208806F087FD70B92088ADF81C000AE0B8
:106A4000022801D0012802D1208808F0F5FDB01CF1
:106A50000CF082FF0024BDF81C00484514D10FF053
:106A6000CFF888B94DB1DFF880A8BAF8000006F079
:106A700069FD10B9BAF8000004E0B07A00F0020035
:106A800008F0A0FDADF81C00BDF81C00484508BF8B
:106A90004FF0C70821D0B27A2B46B11C0DF079FC1B
:106AA000D8B9DFF84808016811B1BDF81C00884763
:106AB000BDF81C003A46B11C0CF031FE04000AD0AF
:106AC000022D03D1607940F00800607100218DF83B
:106AD0001E10884601E0ADF81C901DB902A808F010
:106AE00050F823E0DFF858130878002808BF012D7C
:106AF00017D1DFF8FC17087898B9B21C0021009272
:106B00008DF804008DF805108DF806008DF81E1024
:106B10000122394602A806F0FBFA68460DF0B1FFE3
:106B200031E02A46394602A806F0F2FA01469CB145
:106B300045B1607940F040006071022D04BF40F023
:106B400020006071B07A420603D5607940F0800081
:106B50006071A079401CA07151EA080013D0B8F10F
:106B6000000F41F2010018BF414600D109B10CF0FD
:106B7000A5FD14B1B01C0CF0EFFEBDF81C0048459B
:106B800018BF08F059FD08B0BDE8F087B0720020CA
:106B9000B472002056430020FEB5AB4C074694F873
:106BA000260003281CBF0128092840F07F8079783F
:106BB000A34DDFF84067002958D102200CF07EFD7C
:106BC0007988E1825320B91C07F0C6FF94F82600AB
:106BD00009281CBFA08C07F0B6FB01208DF800002F
:106BE0006946422007F0B8FF042084F8260001A976
:106BF0004A2007F0A3FF01A904F11C00FCF7D1F81B
:106C000030780B2802D10621317003E0A08C0021DE
:106C10000DF0BDFB2878002818BF012809D1608B32
:106C20004FF6FE7188420ED0002201A90CF077FDCC
:106C300009E0022807D1E18A03200CF03FFD618BB7
:106C400004200CF03BFDA07BC00800F001008DF893
:106C500000006946522007F07FFF2878022823D1E0
:106C6000DFF894160868FFF71FF91DE041F20300F2
:106C70000CF024FD287802280FD13178DFF87C262B
:106C80000B2904BF0A203070DFF87416002008704A
:106C90004FF480411078FDF79AF97978A08C0DF0C7
:106CA00076FB002084F8260000F05FFAF7BDDFF8DD
:106CB0005416096889B9644A92F82630052B02D027
:106CC000062B05D009E0DFF840160968B1B1084786
:106CD000DFF83826116889B10847002919BF89797A
:106CE000012940780DF04BBB022908BF06F0EBBF2D
:106CF000DFF81C160968002918BF08477047000014
:106D00008E6C00202DE9F0414F4E06F1280788B027
:106D1000054638686A6820EA02027F23F86C3A6008
:106D20009846002122FA01F4E40714D54FF0000C34
:106D3000044606E094F802E0A4698E4508BF0CF111
:106D4000010C002CF6D15FFA8CF45FFA83FE7445D7
:106D50003CBF63468846491C1B29E3DB696851B187
:106D6000396000F02CF8012069688DF8040000916A
:106D700000F06CF822E0044606E00DF07BFBB084E6
:106D8000218881420CD0FC6C54B1B08C21888142A6
:106D900002BFA1785FFA88F29142EED0A469F3E7CE
:106DA00086F8188000F0FAF840B1002086F8260036
:106DB000DFF86005016809B1C42088473CE01C2267
:106DC00000216846FBF7B4BD2DE9F04188B0C468E6
:106DD000DFF87480002508F128073868E840C0070C
:106DE00009D5665D06F018FBB04204D2386801216F
:106DF000A940884338606D1C1B2DEEDB386870B1EC
:106E0000FFF7DDFF3868009001218DF804108DF840
:106E1000071000F01BF8062088F826000CE088F820
:106E20002600002141F204000CF048FCDFF8E404E5
:106E3000016809B1C420884708B0BDE8F0810000AE
:106E4000DC41002054430020786C00200021B879F8
:106E50008DF805008DF80710684607F096BE70B5EE
:106E600005468EB0297C0E296CDD6C68686908AA1D
:106E700000F0D8F99DF82010002921D1287C0A289B
:106E800060DD217A022904BF207BFF2818D19DF8FC
:106E90002210002918BF022912D1DFF87C24DFF864
:106EA0006404006802F12405AB78022B18BF062B9E
:106EB0000ED010B18679012E12D0082B18BF042BEA
:106EC0006AD1648900283ED08679022E3BD15DE0EC
:106ED00030B90090627C61892088002305F0A3FE10
:106EE0002088ADF8080008226189ADF80A100DF17C
:106EF0002701A07B8DF80C00A089C00B8DF80D0038
:106F00009DF824008DF80E009DF826008DF80F00E6
:106F10009DF821008DF811009DF822008DF81000D9
:106F2000607C8DF812009DF825008DF813009DF807
:106F300032008DF814000DF11500FBF7E1FC02A8FA
:106F40000DF023FA28E02888A04225D1012906D097
:106F50000DF1270102F13900FBF715FFE0B9DFF869
:106F60009C0300784FF40071FDF749F8A0B96868F8
:106F7000A97A00908DF8041001208DF805000221F7
:106F80008DF8061068460DF00FFB18B9204606F084
:106F900085FE01E00DF032FB0EB070BDF0B58FB094
:106FA00006F022FFDFF8704304F1260604F13005F5
:106FB0003078082807D0DFF8641308786071E07033
:106FC0000120286068602422002106A8FBF7B0FC9D
:106FD000287AD34F411E8941C90F0F208DF8221006
:106FE0008DF8000038706946462007F0B5FDCD49A0
:106FF0000A788DF8052000208DF8040006F009FAC3
:107000008DF8060004F1390100208DF807008DF895
:1070100008008DF80A00287A0F28A8BF0F208DF8E5
:1070200009000DF10B00FBF7BCFE0322FF210DF15F
:107030001300FBF77DFC94F872003A788DF8160087
:10704000391D01A800F0C3F8391D452007F084FD63
:1070500005F0B0FFB0798DF820000021F0798DF8AF
:1070600021008DF824108DF838108DF82D1004F1C2
:107070001601207E8DF81E00A08CADF81C00707AE1
:107080008DF82300532007F067FD04F11A014B200F
:1070900007F062FD06A807F09DFD0FB0F0BD10B52A
:1070A0009D4C407804F1260110B100220A7010BDF9
:1070B0000822887C0A7058B99649096801B1884746
:1070C000A18C05200CF0FAFAA08C07F03CF90AE03C
:1070D00000200DF058F9E18A06200CF0EFFA618BE0
:1070E00004200CF0EBFA9049086868B18F4A1178D7
:1070F000012909D181480078BDE810404FF47A7227
:107100004FF48041FCF74ABF10BD70472DE9FC41A8
:1071100090460FF224220646D2E90034CDE900342D
:107120000F4631466846FBF72EFE002400B90124C5
:107130007948456F7DB134B1314605F10C00FBF75C
:1071400022FE18B905E02888B84202D1A878404547
:1071500001D0AD69EEE72846BDE8F6816E48406F84
:1071600070476D4900204867704738B56A4C606FBA
:10717000002803E08569FBF792FB2800FAD1002084
:10718000606731BD38B50546287D032804D105F177
:107190000C000CF0B3FB04E0022817D1A8890CF016
:1071A000AAFB040012D0687878B1F12812BFE12858
:1071B000A079012806D1208808F03EFA05F10C00DC
:1071C0000CF0CAFBA07908B1401EA07131BD70B5AA
:1071D0000446154620780870CE1C60784870A27866
:1071E00040EA02104870E0788870227940EA820014
:1071F0008870627940EAC2008870A27940EAC210C1
:1072000088700822E11D3046FBF77AFB083603221E
:1072100004F10F013046FBF773FB0F2DA4BFA07CD8
:10722000F07070BD38B50546144615F8010B207096
:107230000822287800F00F00607015F8011B09097A
:10724000A170287800F00300E0702878C0F3800077
:1072500020712878C0F3C300607115F8010BC009D4
:10726000A0712946E01DFBF74BFB08350322294698
:1072700004F10F00FBF744FBE878A07431BD10B5B2
:10728000044682B060780DF0ADF86078EB2818BF46
:10729000E12803D0F12818BF1A2801D1002060701E
:1072A00015480068FEF700FE1B48012100910022EE
:1072B000818C6378408B05F0B6FCBDE81340FCF789
:1072C000AABF01001A4818BF012101707047184871
:1072D000007870470068174907F096BC7674002064
:1072E000737400205C74002066430020C07100208D
:1072F000727400202D410020E0410020BC7300206A
:107300008843002040740020487300204C73002004
:10731000AC72002050730020786C0020F41522001D
:107320001442002079430020AC7100208C430020DF
:10733000827400206B5D2000FFFFFFFFFFFFFFFF57
:107340002DE9F04F8BB00021054603910C2204A8D3
:1073500005F1240701264FF00009CDF81C90FBF73A
:10736000E7FA17F8010B8DF8109000F003018DF883
:107370000010CA468109C00901F00101C007CB46CF
:107380000291C84615D539460A78029C4FEA921BED
:107390007F1C02260BF00103234260D102F007029A
:1073A0008DF810200BF0010B0878C0F3C108C0F372
:1073B000401A9DF80040012C18D09DF8100038B9F3
:1073C0000422394605A8FBF79BFA3F1D361D0DE048
:1073D000022801BF17F8019B761C287C032805D1E1
:1073E000082205F1080105A8FBF78AFAB8F1010F98
:1073F00013DD0422394603A8FBF782FA381D0190F9
:10740000042205F12100817801988E1B083EF6B216
:10741000811907A8FBF774FA04E005F1210101972F
:107420008878861B012C1BD1B8F1000F17D1019869
:107430000178F02913DA029848B900218DF820105C
:1074400009909DF800306A6808A800F03EFAF6B28C
:1074500006F1440080B2FBF79BFA040004D16BE014
:10746000B8F1010FF3D167E0042020700A22002058
:10747000607004F124070120207595F820006075E4
:1074800095F82100A07505F121004178E17504F11E
:10749000180005F10801FBF733FAA88B60849DF80A
:1074A0001000387087F8018087F802A00298F87001
:1074B00087F804B00598B86087F80C900398386195
:1074C0000798B8610020387500F03AFB2071002061
:1074D000A060FF20E060686820612020FBF758FA78
:1074E000050003D12046FBF765FA25E0DFF828B94F
:1074F0000BF10401204600F0FAFA0720287032460A
:10750000002068702079287704F141000199FBF789
:10751000F7F93E7785F8109085F815A085F8148066
:107520000C220398A86104A9281DFBF7E9F99BF830
:1075300000002946FBF74DFA0BB0BDE8F08F70B59F
:10754000052882B00C461CD10026DFF8CC0800EBE1
:107550008605A9688A7CA24210D105218DF8021007
:107560008DF80340C16809B16846884768460EF047
:10757000E9FCA868FBF71EFA0020A860761C012E23
:10758000E3DB73BD2DE9F84F05464FF00108E878BD
:107590000024C107A146C24674D50322FF2105F18C
:1075A0001300FBF7C5F92879002867D1E97801F0C5
:1075B000DF010420E970A3460090DFF85C0800EBCF
:1075C0008B070026B868002873D001792A79914288
:1075D00070D1009A05F108010830FBF79BF90028EB
:1075E00068D0A87800284FD12979022907D1E878F6
:1075F000810604D5B968287C0A7C90425AD10126BC
:10760000B14626431AD00420FBF7C2F9060015D074
:107610000020707006203070B868817CF170B86806
:10762000FBF7C8F90020002CB8603FD00120B070F3
:107630004FF0000ABD60314600F04AF8B9F1000F82
:1076400038D0BBF1000F40DD59EA04043DD10420DD
:10765000FBF79EF9010038D0002048700620087022
:10766000A87CC8705FFA88F058BBA87838B3DFF8F8
:10767000A8274FF0000A9560022023E0022808BFE7
:10768000082098D0012021E0B968087910B90124B8
:10769000A146B6E7E878820603D5287C097C8842B3
:1076A00008D1002C0CBF01240126AAE70420B070E9
:1076B000C1E7D8461BF1010B7FF77FAFC1E704207C
:1076C00000E00020887000F003F85046BDE8F28F1B
:1076D000DFF844070078FBF77CB90000FEB50746E9
:1076E000F87800F04BFA040057D0B878DFF8286734
:1076F000032804F124053AD8DFE800F0190902054F
:10770000042020751EE000F049F818B90FE000F0E1
:1077100045F848B10320207521463078FBF759F928
:10772000321D2146002005E0687FF02805DB321D70
:107730002146012000F036F8F7BD6878411E8941E6
:10774000C90F217504F14201687F2875287F421E08
:107750002A7704F14100D2B2FBF7D2F83078214603
:10776000FBF737F9321D2146002000F01BF828797D
:1077700098B129788DF80010287810B9A96801917E
:1077800005E0082204F1180101A8FBF7B9F8226905
:10779000297B0023684600F098F8F7BD07F11C012B
:1077A000204688E238B515462A683AB194688A427C
:1077B00007D110B11046FBF7FDF82C6031BD224611
:1077C0001C46002C18BF002AF8D0A3688C42F6D1C2
:1077D00000289360F2D02046BDE83240FBF7EAB8BB
:1077E0002DE9F84F884602215FEAD81491460170CE
:1077F00008D003210170C9F3C101022912BF032976
:107800000B21017018F0030A1F4606D13A7801785F
:10781000022A0CBF491C091D01700D9D01786918D1
:107820000170C8B2FAF7D5FF5FEA000B4AD05E4696
:1078300006F8018B0CB106F8019BBAF1000F13D1C9
:107840003978022908BF0A980CD0786806F8010B2D
:107850007868000A06F8010B7968090C06F8011B24
:107860007868000E06F8010B8CB1C9F3C10002283C
:1078700018BF03280BD10B9830700B98000A70705A
:107880000B98000CB0700B98000EF070361D0F981E
:1078900006F8010B2A460E993046FBF731F87019AD
:1078A00084B1C9F3C101022918BF03290AD10C9977
:1078B00001700C99090A41700C99090C81700C999E
:1078C000090EC1705846BDE8F28F2DE9F0478EB021
:1078D0000D4604460021ADF81810904620789946D0
:1078E00020BB04270026DFF830A50AF1080050F875
:1078F0002600A8B101792278914211D13A46211D82
:107900000830FBF707F858B1217802290BD1FF2D79
:107910001FBF0AF1080252F826100A7C954202D0D5
:10792000761C012EE1DB012E04D15DE002285BD143
:107930000827D7E700208DF830004FF6FF740AEBD8
:107940008605ADF81C4002208DF824000020A968AF
:10795000B9F1010FC8700CD10120002103900291F0
:1079600000220023019200930121002000F03FF843
:107970000DE0802001218DF81800039100220023E2
:10798000029201920093494606A800F030F8A968D7
:107990004A7C0592002301F11702049200268A7D99
:1079A0000392029301960B1D0A7C0092014600226D
:1079B0000DF11900FFF714FF0646A868CDF81080F6
:1079C00007AB817C0391029600949DF819100191F8
:1079D000DFF848148A8CC0780AA90EF00CFB012845
:1079E00004BF3046FAF75BFF0EB0BDE8F08710B574
:1079F00041F00C010AB141F0400170B1029C039AC0
:107A000043EAC403049C43EA4213059A43EA8413FD
:107A100043EAC21341F080010370084610BD2DE90E
:107A2000F041150086B080460C4642D002202870F6
:107A300008F12407387808B9062002E0022801D1AD
:107A4000032028702878001D2870002103913879C0
:107A50000290B8780190787800903B78FA7804A882
:107A6000FFF7C5FF06467878032814D12878FAF77F
:107A7000B0FE2060DCB120680670841C9DF81010F8
:107A800041703878B8B9042208F12C012046FAF781
:107A900037FF241D18E002280BD12878397F0818F9
:107AA0002870C0B2FAF795FE002C2060E3D10120C7
:107AB0001AE0022018E0022806D1012208F1300164
:107AC0002046FAF71DFF641C042208F13401204609
:107AD000FAF716FF7878022805D13A7F08F14101BC
:107AE000201DFAF70DFF002006B0BDE8F081DFF899
:107AF00028335A680AB9086070470A6800E00A46E5
:107B000091680029FBD1906070470146C2484068E7
:107B100030B102798A4218BF002818BF8068F8D1B6
:107B2000704738B50024BC4800EB8405A86818B13C
:107B3000FAF740FF0020A860641C012CF3DB31BD84
:107B400070B500240025B64928B1012804BF0FF202
:107B500041054C1C02E00FF225050C46280018BF19
:107B6000002C01D1002070BD2678701C207030469A
:107B7000A8470028F8D13000F6D070BD0146A648CD
:107B8000406820B102798A4218BF8068F9D17047F5
:107B900000207047A0490870002088604860704746
:107BA00038B50C46200404D500F036F884F40040C3
:107BB00032BDE00704D50EF009FA84F0010032BDB1
:107BC000A007984D05D5286800B1804784F00200D1
:107BD00032BD600705D5686800B1804784F00400B5
:107BE00032BD200705D5A86800B1804784F00800A1
:107BF00032BDE0060ED5E86848B1827A811C008863
:107C000001230EF0EFFBE9684FF6FE70088084F068
:107C1000100032BD002032BD70B57F4E3078FAF7CB
:107C200005FF0125040045D0217819B9A1786078B5
:107C30000EF03BFA2078012804BF20460EF038FAF7
:107C40002178022904BF2046FFF77AFB2078082814
:107C500004BF2046FFF742FD2178052903D12046C5
:107C6000FFF790FC05462078042809D1316921B13D
:107C700020468847050018BF012520460EF0F8F879
:107C80002078062806D1F16809B1204688472046A9
:107C90000EF058F92078072806D1716909B12046FD
:107CA000884720460EF05CF925B12046BDE87040BB
:107CB000FAF780BE70BD2DE9F04395B080460E46C0
:107CC000002407948DF818400CA810210FF02EFA0C
:107CD00008F124054FF001096878032811D1287FA5
:107CE000001D80B2FAF775FD040000F090802A7F35
:107CF00008F14101FAF704FE287FA9692044FAF748
:107D0000FAFF29788DF8201011B9A968099107E0C8
:107D1000022905D1082208F1180109A8FAF7F0FD97
:107D20002F6905208DF83C009DF8200040B9099985
:107D30000DA8FAF7E0FF09990CA8FAF7DCFF08E0B4
:107D40009DF82000022808D1082209A90CA8FAF7FA
:107D5000D7FD39460EA8FAF7CEFF06AA07A9404676
:107D6000FFF75DFEFBF724F8471E3046BF4104F0E5
:107D7000D5F92D492D480860FF0F6978032926D1D0
:107D80000220059010AA07989DF8181001900492FF
:107D9000039602912346287F001D80B200900CAA12
:107DA000042101200FF0F0F95FEA00090CD12A7FCD
:107DB000214608F14100FAF7A3FD287F211804228B
:107DC00008F13C00FAF79CFD2046FAF768FD687858
:107DD000022816D1A9690BA8FAF78DFF022010A975
:107DE0000590049104229DF81810079802910190C3
:107DF000009203960BAB0CAA042100200FF0C4F9EB
:107E000081460FB1FAF7D0FF0798FAF748FD4846C8
:107E100015B0BDE8F083000010720020786C0020DF
:107E20005A740020C8720020D873002025C1200099
:107E300080B50FF0D7F9DFF8FC070FF2B111016040
:107E40000FF2E11141600FF2852181600FF29D2157
:107E5000C16001BD10B5DFF8E047207000216170FE
:107E6000DFF8D8070188A18004F11800DFF8D017E7
:107E7000FAF797FFDFF8CC17DFF8CC070A78A27083
:107E8000A06010BD2DE9F0430F46380485B0DFF83F
:107E9000A8672CD53078FAF7C9FD050024D0A87F53
:107EA000002804BF698C132948D1B5F802803069D5
:107EB000002402E0FAF7F3FC484600283ED002888E
:107EC0004168424505D1002C894614BF616031618B
:107ED000F0E704460846F0E7022804BF284610F001
:107EE000EDFB2846FAF766FD87F4004023E0DFF853
:107EF0005C070078002818BF012807D1F80705D5CE
:107F0000F06800B1804787F0010014E0B80704D59D
:107F10000120F07087F002000DE038070AD500F06C
:107F2000F5FA20B9706108213078FCF750F887F035
:107F3000080000E0002005B0BDE8F08395F831109E
:107F4000A81C00F028FB0028CBD128780128C3D139
:107F5000687E039005F1100368690290A91CE87C13
:107F60000190287E009005F11C00AA8911F07AF892
:107F7000B7E7DFF8C4360200187803D0D9600121D2
:107F8000FBF7F5BF0021D9600121FCF720B838B517
:107F900005466968087D1030C0B2FAF7F9FC0400A4
:107FA00022D0022121700020607028886081A8788A
:107FB00020736868017D217204F1100060606868B8
:107FC000017811F0200018BF012060726868027DFE
:107FD00001696068FAF794FC2146BDE83440DFF897
:107FE00058060078FAF7F5BC31BD000038B50D46EB
:107FF00011461A460FF01FFA040011D029460FF05F
:10800000D6F968B1294620460FF0E4F930B9658801
:1080100020460FF0C3F928460FF0BEFA002032BD0B
:10802000B42032BD2DE9FE4380460F464FF0B30920
:108030000025002600E0761CDFF814160A78F0B25E
:1080400090423FD20FF057FB0400F6B2F3D06079B4
:108050004519EDB2A845EEDA182200213846FAF7A4
:1080600067FC6079A8EB05084044C0B204EB40010E
:10807000CA887A8104F0B4FD01463846FAF791FEC9
:108080006078012803D101213975608813E0608888
:1080900069460FF0BAFA78B19DF8080038759DF876
:1080A0000800032805D1694607F10C00FAF779FEAC
:1080B00002E0BDF80000B881207838724FF0000966
:1080C0002079B8754846BDE8FE8300004289130751
:1080D0000BD5920708D5427B062A18BFE92903D0A1
:1080E000CD2918BFF02900D18FE170472DE9F84F55
:1080F0000E4686B08146F188F07892460FF006FA77
:108100005FEA00084FF0000B6BD0317DC0B211F078
:108110004FFA050065D0129FF188F07800220FF029
:1081200014FA0446F0786871F088E880B07D6881C0
:1081300085F808B0327D3169E868FAF7E1FB1398F9
:108140006882149828751297049500272546002DFB
:108150005CD047455ADA049800F1160101EBC704D8
:10816000002121706878012805D06988E17168884C
:108170000FF05BFA03E020704FF0010B688860801D
:108180002879207131784A0603D5A17941F002019E
:10819000A1715FEA0B0101BF6188DFF8B824D38ABF
:1081A000994215D1B07000201299039002910022DB
:1081B0009DF84400DFF89C140092019053468A8C8D
:1081C0004946304611F0B3FAA07940F00500A0719D
:1081D0007F1CF188F078FAB20FF0B7F90546FFB2CC
:1081E000B5E7F0788DF80300B8F1000FB07D8DF899
:1081F000040007BFB9208DF8050010218DF8051087
:10820000684611F08FFA07B0BDE8F08F049D28464C
:1082100011F0E2F9119B109A9DF818100095304664
:1082200000F001F8EFE72DE9FE4F8CB00746189CEF
:10823000204611F093F98146204611F0A4F98246B8
:108240005FEA090000F0DE809DF838209DF83410C8
:108250009DF830008DF8300000238DF834108DF833
:1082600038208DF800305BE041F00801A97152E040
:10827000ADF804008DF806B00121387D8DF80800B6
:108280008DF8091001A810F051FA9DF8180098BB5C
:108290000498417D69710498C6829DF83410417636
:1082A000287828B1DFF8AC1391F8680004990877B2
:1082B000049861890185618A4185217D80F82C10AF
:1082C0000499607981F83A000499287981F83B0093
:1082D0000498F988C1873989A0F84010797D80F821
:1082E00049100498B98881873A7D3969406CFAF75A
:1082F00007FB01A810F07EFAA97941F00101A971EC
:108300009DF818000028AFD1B8F1000F18BFAAF1EE
:10831000010AA9F101099DF80000401C8DF8000038
:108320009DF80010207C814268D25FFA89F0002815
:1083300064D004EBC10101F11605A879C107EAD4A4
:10834000C2480078002818BF01284FF0000814D157
:10835000287890B968880BF0CEFA70B100790128BE
:1083600018BF032809D1A87940F08000A8714FF008
:1083700001085FFA8AF00028CDD09DF838004FF050
:10838000000B082608B14FF0200B0C22002101A899
:10839000FAF7CEFA2878B0B1AE4991F86800012812
:1083A00009D16888ADF80400FF214BF0080B41F2B9
:1083B000080629715EE76888B8804BF00C0B0C2624
:1083C0004FF6FF7054E79DF8301011B14BF0400BA1
:1083D0000A2668884FF6FE718842F3D104208DF892
:1083E0001C0007A8E979ADF828100DF084FB0023E4
:1083F0000022002108A80DF004FF3BE700212046E1
:1084000000F048F80FB0BDE8F08FF0B5064689B02F
:10841000307B0F4611F02CF9050025D07469380027
:1084200024D1317B0422284611F038F9E4B1A08828
:10843000ADF80E000021E088ADF81000207A8DF82C
:108440001C00E86806908DF81D103068016A0A78F3
:108450002178920901F0200308BF0422009501F061
:10846000400102A8FFF7DFFE09B0F0BD317B082212
:10847000284611F013F90028D8D0002CF4D0019729
:108480006989C9B20091037942880178A07810F017
:10849000CBFDCCE77CB502460B4601200124002130
:1084A000157CA9420FDA02EBC1052D7FEE0701D43E
:1084B000002405E015F00C0FFAD06D0748BF00202E
:1084C000491CC9B2ECE7117A79B90CB9012B0CD16E
:1084D0000121117251798DF8031051898DF8050031
:1084E0008DF80410684611F01DF973BD0121D1E724
:1084F00051490200087804D00023CB700221FBF719
:1085000036BD0122CA700221FBF761BD2DE9F84397
:108510005048494F817B002600253C6908074FF0F1
:10852000010820D4FBF7E6FD4B497A690B88821AD3
:108530009A4238BF01202CD3DFF820E19EF80010CA
:10854000B2FBF3FC1FFA8CFC614503FB1C2234BF19
:1085500088465FFA8CF892B2801A786103E0204670
:10856000FAF79DF94C469CB1E07861688045B4BF4C
:10857000A0EB08000020E070E07828B9002D8946C3
:1085800014BF69603961EAE72546761C0C46EAE7C4
:10859000B0B2BDE8F283F8B50D46274F3C690246FC
:1085A0002046117A022923D1168800E0406808B3DA
:1085B0000188B14204BF8178A942F7D127490A78DE
:1085C000C2700120F2BD3861A87B010702D4FBF71D
:1085D00091FD7861A87B01070AD538780821FBF75F
:1085E0000EFD28B91C48028838780821FBF7D6FC14
:1085F0000020F2BD00212CB10121606810B1491C9E
:108600000400FAD11648028889B29142F0D20820BB
:10861000FAF7DFF80028EBD0068085700F490D4D82
:108620000A78C2700022426039690029CBD06060AC
:10863000D0E70000B8720020F44100205C43002025
:108640009C7300208F43002094730020DC410020A5
:108650005C162200786C00206043002091430020CB
:1086600062430020DFF8B415DFF8B4250870DFF8A6
:10867000B4150FF28D0008600FF261210FF2E54092
:108680001160DFF8A4251060704738B504000D466E
:1086900008BFFBF72BFBDFF88405416811B9446084
:1086A00004E00146C8680028FBD1CC600020E060EF
:1086B000A57131BD10B50346DFF86005406800E0E4
:1086C000C06838B1C4799C4201BF84888C428479E7
:1086D0009442F5D110BD10B5DFF840154C68A042AA
:1086E00003D1E4684C6006E00C4624B1E1688142A5
:1086F000FAD1C168E160FAF7D2F8204610BD000057
:108700007CB50546287A002818BF01280CD0288897
:1087100004F09CFE40B9287A032807D10DF102012C
:1087200028460FF0C5FA20B9022076BD2888ADF89A
:108730000200688A443080B2FAF74BF8040060D037
:1087400044220021FAF7F4F8A87A694610F0E6FE10
:1087500004F134069DF80000B07101219DF801007C
:1087600070712046FFF791FF2422294604F1100082
:10877000FAF7C6F804F14400F060688A30816A8A2A
:108780006969F068FAF7BCF8BDF80200A080DFF86C
:108790009C040178E171491C0170FBF7ABFC20805F
:1087A000FF2196F905008140F170F078B07000204B
:1087B0008DF80400297E11F0010018BF01208DF80A
:1087C000050001A810F061FE801E307031783089FC
:1087D00090FBF1F020723178308990FBF1F201FBCF
:1087E000120010B1207A401C20720121208D40F02F
:1087F00008002085DFF824040078FAF7E0F900206B
:1088000076BD102076BDF8B50446FBF773FC2080DA
:1088100004F12A03DFF81814987B0A78904258D2A2
:108820001A7BFF2A03D1401C9873587B1873DA7A9D
:10883000197BDD7B002000E0401CA8420ADA81F0B1
:10884000FF06C640F607F7D58218012505FA00F0A5
:1088500008431873997A5D8AD2B201FB1255ADB202
:108860008D420ED3187BFF280D460CD01E7C218D27
:108870006680100011D141F020012185207A216C01
:1088800014E0FF201873DFF8AC03DFF8AC7306794F
:1088900039784E4364204643E9E74FF6DF700140E4
:1088A000218510469E7A216C5643314418716162CD
:1088B000EDB2E079D8706584DFF86003816811B1AA
:1088C0001046884748B904F11000BDE8F2400FF0A7
:1088D00047B81978A07EE9223CE0F1BDF8B505461D
:1088E0001646687D0122FFF7E5FE040031D0002E18
:1088F00001BFE87D04F12A06F17A884229D1F37B91
:10890000277A297E1818B84205DBFF2903D1317870
:10891000A07E00221EE0FF290CD1FF2000FA03F305
:108920003373307BF17A7073F07B41180020F17261
:10893000B07302E07173287E3073FBF7DBFB20809D
:108940000121307C6080BDE8F440B4480078FAF73B
:1089500036B9F1BD10F055FB2046BDE8F240BAE64D
:108960002DE9F84306468846B0781746994610F038
:108970006FFD050008BF00205AD01C20F9F729FF21
:10898000040054D01C220021F9F7D2FFB0786946C8
:1089900010F0C4FD9DF80100207502212046FFF76C
:1089A00074FEB8F80000A080FF21707DE07194F99A
:1089B000140081406174686801782174307DA0746E
:1089C000F17D4843303080B2F9F7E2FF0500A56140
:1089D00029D01A2028704146002068706880F088ED
:1089E000A880A81D10F08AFDF078E8739148818C6A
:1089F000298205F12400718B018171896982B17826
:108A00002975317B69753978A9757978E975B978EF
:108A1000297685F819900899E96105F130014160DE
:108A2000B17D017003E02046FFF755FE002420468B
:108A3000BDE8F2832DE9F84F0746DFF8E0B1FE7D8F
:108A40008846DBF8081091469A46002421B130464A
:108A50008847002840F08380B8F80010787D022213
:108A6000FFF728FE050012D17878C10777D50A985C
:108A7000009053464A4641463846FFF771FF0500CD
:108A80006DD02E7201219BF80000FAF798F8287A31
:108A9000401E8642287C08BF0124FF284BD07978ED
:108AA000C807287DE97C48BF0026421896424FF04F
:108AB000FF0904DB411809FA00F0E9746874A86939
:108AC000836AA87C3A7D396970431844F9F718FF26
:108AD000297D6B7C304690FBF1F24FF0010C01FBDD
:108AE00012000CFA00F018436874ACB101FB12617B
:108AF000491C09FA01F108436874A969AA7C387D08
:108B000006FB0202CA84687CFF2805D1287CF9F79D
:108B100060FF85F810900EE0FBF7ECFA2880464BDA
:108B200044480279187842434148017801FB022207
:108B3000642042436A80E87C297D0918491E8E42E0
:108B40001CBF6A7CFF2A00D04CB1F8753946687C9E
:108B50003876B8F80000BDE8F44F10F0C7BFBDE8A4
:108B6000F18F000001462D480078F9F732BFF8B5C3
:108B70000D462804294E19D4E80744D57468FBF73C
:108B8000B9FA4FF6FF7780B23A461FE02078012805
:108B900009D16169009104F11002E37CA11C04F188
:108BA0001C00FFF747FF2046F9F704FF3078F9F77C
:108BB0003DFF0400EAD185F40040F2BDA1EB0C03B7
:108BC0009342E468BCBFA1EB0C0292B2ECB12188E5
:108BD000411A1FFA81FC61888C45EFDBA0790228DD
:108BE00009D1217CFF291CBFA069F9F7E3FE2046CB
:108BF000FFF771FD02E02046FFF705FE3078012106
:108C0000F9F7DDFF07E00020F2BDBA4203D030786B
:108C10000121FBF7ACF985F00100F2BD3C430020D7
:108C2000307400202C74002034740020F5410020A2
:108C30008D430020786C00208E43002010B5DFF8B3
:108C4000544CE073022020724FF6FE70208003F037
:108C5000C7FF10F0E1FF04F1500010F09FF900F0A1
:108C60009EFA01F09DFABDE8104058E330B5DFF8F8
:108C7000045B0446287885B028B9DFF8FC0A01892E
:108C800041F001010181204612F0F4FEE4B1DFF869
:108C9000EC0A90F84110B9B9287840B1DFF86C1BA4
:108CA0000A78012A10D1DFF8683B187860B169466C
:108CB000622013F0FDFC002168460CF0F9F800205A
:108CC0000CF00DF900F06BFDDFF8C85B686C30B19B
:108CD000686C0468F9F7E3FD002C6C64F8D105B00A
:108CE00030BD70B504460D462804DFF8A86B16D4D5
:108CF000E8071CD5012001F076FADFF87C0A00783D
:108D0000F17C0F230F2200F0070010F098FF85F090
:108D1000010070BD00F060FA2046F9F74BFEF07BD1
:108D2000F9F784FE0400F5D185F4004070BDDFF84A
:108D3000440A0078717C002818BF012826D1A807B2
:108D400004D500F082F985F0020070BDA80616D5A2
:108D5000307C70B9062904BF072001F044FA0020D6
:108D6000FBF7D3F9DFF8740B0178012908BF01F094
:108D70004AFAF07B00F068FC85F0200070BD6804C2
:108D800004D501F0C0F985F4804070BDA80419D560
:108D90000C2907D1022001F026FA01F06BF9DFF867
:108DA000400B06E00C2001F01EFA01F073F9DFF829
:108DB000340B0268F07B4FF40051FBF7D8F885F4D0
:108DC000005070BDE80612D5084611F008F8DFF82B
:108DD000180B0178012907D1DFF8100B0078642205
:108DE0004FF40061FBF7C3F885F0100070BD280751
:108DF00002D585F0080070BDE80511D5DFF87C09C3
:108E000090F82600082818BF042806D10F2004F087
:108E1000ACF80221002013F036FE85F4807070BD9E
:108E2000680705D50221FF2013F02DFE13F092FFF5
:108E300029462046BDE87040DFF8380970B5007853
:108E4000002818BF01280D461DD168061BD5DFF884
:108E5000446A706CA0B1808812F04FFE706C046898
:108E6000F9F71DFD74645CB1E28802E0E088801AC5
:108E7000E0802468002CF9D1F07B4021FBF777F8E3
:108E800085F0400070BD28060DD500F0E5FB00F030
:108E90001EF9012002F06FFD0121032002F0E8F825
:108EA00085F0800070BDA80504D500F0FEFB85F4B8
:108EB000007070BD280504D513F064FC85F40060D3
:108EC00070BD680504D513F089FC85F4806070BD21
:108ED000002070BD2DE9F04FDFF8B8498046607C76
:108EE00083B089460126002520B98DF8005013F083
:108EF0008AFD01E08DF800606946522005F02CFEE5
:108F000013F0C0FFDFF870A8DFF870789AF802005D
:108F1000B873607D022838D1657503F06CFF03F0EB
:108F20009EFF13F0B9FC012E4FF6FF7B4BD100F0F2
:108F300069F8F9F72BFD00F07F05DFF8380B0168C1
:108F4000E163FF20022113F09EFD012014F0D6FC06
:108F50004FF6FE70F8827883A7F824B0082200212B
:108F600007F13900F9F7E4FC002004F082F8DFF89B
:108F7000040801784544643501291AD1B9F1010F7B
:108F800011D1002013F059FC13E000F02FF8002855
:108F90000646C2D100F0CDF8064697F91800012127
:108FA0008140E163BFE7082200F0FAFB684613F056
:108FB00044FC3B467422002121200AF098F902214A
:108FC000002013F060FD3046FFF750FED84506D074
:108FD0000120607400F060FCA8B201F01EF89AF85D
:108FE000020004F025FA3046BDE8FE8F10B513F0FC
:108FF0003BFD0024800703D5002002F0BCFC0124C7
:10900000204610BD10B5DFF87017DFF868070A7842
:109010000078DFF8804802F0F80210B902200A70E8
:1090200011E0012808BF42F0010203D0022802D15A
:1090300042F002020A70DFF8E00A05F095FB10B179
:1090400004210320A174E07410BD10B5DFF844487A
:10905000207C38BB617C08291CD100F0C2FF0920AC
:1090600001F0C1F8DFF8AC0A0078052805D101202D
:1090700002F040F900F0F0FA04E0072804BF0121F3
:1090800001F0F6FFDFF854080178012905D101F05D
:10909000BAF802E0E07B00F0D7FABDE8104000200B
:1090A000FBF733B804F0B8F91030FF280ADA04F0FF
:1090B000B3F91030C0B204F0B3F9E07BBDE8104062
:1090C00000F0B2BFBDE81040002002F013B938B57F
:1090D000DFF8D048607C052826D100F0CFFB0620C1
:1090E00001F081F8DFF88C06DFF88C560078002854
:1090F00018BF012805D1287800F0AAFA01D000F0A5
:109100009EFA01F023F800F0D0FA00F0D5FFA8781D
:10911000010704D5DFF8C4170878012808D1206CAE
:10912000BDE8324003F049BEBDE8314001F00EB861
:1091300031BD70B503F05FFE04002CD103F0A9FE31
:10914000DFF83056E8B103F054FDDFF8482710800F
:1091500028B9DFF82406017801F0F80101702B78B6
:10916000DFF81806022B03BF0321002680F82660D3
:109170000121D17400F1390102F14800F9F711FE23
:1091800000E00924DFF8700A00210180287810B976
:10919000012000F045FB200018BF012070BD00B584
:1091A00085B0112200F0FCFA6A46112181200AF0F4
:1091B0005FF878B96B461122002181200AF090F9FE
:1091C00040B99DF8000028B1DFF8AC05017841F006
:1091D0001001017005B000BD10B5DFF898450278A8
:1091E0002178012A16D0022A32D01A2A04D0D32A92
:1091F00006D0FD2A07D03BE0BDE810400DF0E5BEEB
:10920000BDE8104038E0DFF8F419096899B3BDE80B
:1092100010400847DFF88C07427C022A2BD1012935
:1092200018BF022927D102F076F848B102F07BF886
:1092300008B32078022803D1BDE8104001F0DDBE5C
:10924000FDF78CFF00B10120BDE8104002F09FB88F
:10925000012918BF02290ED1DFF8B80800780728C5
:1092600012BF0828012101F003FFBDE81040E9E02A
:10927000BDE810407AE010BD10B5044688B0E18921
:10928000DFF8F0040078B1F1200232D0521E012A3A
:1092900015D947F6DF73D21A012A03D9213A012AD8
:1092A00016D93AE0204611F0A8FF040035D0207806
:1092B00018B96088211D11F017F820462BE0694687
:1092C000204611F079FF6946204610F0A6FF24E001
:1092D00018BBDFF8FC2A1068F8B148F22103994264
:1092E000A169627C09780CBF0320022011F03DFEC9
:1092F00013E090B96946204611F01EFF684611F050
:1093000026FD9DF8120010B10598F9F7C8FA9DF8EE
:10931000180010B10798F9F7C2FA08B010BD10B5DF
:10932000DFF87045E07B48F201010DF0DBFDE07BEA
:109330004FF400410DF0D6FDE07B48F221010DF025
:10934000D1FDE07B48F222010DF0CCFDE07B202135
:109350000DF0C8FDE07B21210DF0C4FDE07BBDE8F0
:10936000104022210DF0BEBD0000000010B586B0F7
:109370000446DFF8000421780078091F05295BD82E
:10938000DFE801F0030B5A445449012818BF0228B2
:1093900052D1204612F010FC4EE000284CD120465D
:1093A00012F0C2FC0FF2940103A8D1E90023C0E936
:1093B0000023211D08220DF10200F9F7A1FAA0896E
:1093C000ADF80000082203A90DF10200F9F7A2FA96
:1093D00090B1DFF8004A20781021FAF710FE58B358
:1093E0000C22DFF8F4196846F9F794FA20B32078D4
:1093F0001021FAF7ECFD1FE0DFF8F00A0268DAB19D
:10940000BDF800100DF10200904715E0A0B920460C
:1094100012F0CDFC10E0002801BF607F0028601D25
:1094200001F0C8FC204612F0CEFC05E0012812BF76
:109430000228204612F0C8FC06B010BDFF00000054
:10944000000000002DE9F041DFF85855DFF82C83CB
:10945000697C287CC74EC84C032908F1260706D032
:109460000A2947D1217801F0070101294BD10028B1
:109470003BD1E87B00F0E8F8012000F0D1F920B9F9
:10948000052000F0B0FE012030E03078697C002833
:1094900014BF01280A2905D100F0D9F812D00821FB
:1094A00039700FE003290DD100F006FEDFF86406E5
:1094B0000178022906D1012002F05DFA0121022083
:1094C00001F0D6FD062000F08EFE3078002818BF8F
:1094D00001284FD100F0BBF800F0AF80BDE8F041AB
:1094E0000022002100200BF0C7BA0020BDE8F041A7
:1094F00002F007B8042918BF0E2904D00F2918BF9D
:109500000D2940F09180002840D12875012000F0FD
:1095100087F938B9052000F066FEBDE8F04142F257
:1095200010709BE1062000F05EFEE87BDFF8AC7374
:109530004FF40051FAF74BFDA178080709D53878A8
:1095400038B903F03AFC002003F04DFC002003F092
:109550004EFC3078002818BF012804D100F077F8BD
:1095600001D000F06CF800F0A7FDA078010702D54B
:109570003978012961D1E87C032806BFDFF81C1A7D
:109580000888286CBDE8F04103F017BCE87C01288E
:109590001CD1287D401C2875C0B203280EDCB8F809
:1095A00024004FF6FF71884202D10021E97432E0B5
:1095B0000320E8740120A87304202BE0DFF8140ACC
:1095C0000178012927D10022EA7424E0032804BF8E
:1095D000307802281FD10120A8730321E9740020EC
:1095E0003870DFF8CC1AA87C042802D1E9630D207A
:1095F00010E00D280AD10020F87600F0C1F898F9A3
:10960000180001218140E9630E2003E00E2802D1F9
:10961000E9630F20A87404F0EEFD0AF0EFFFF9F7FC
:10962000B5F9BDE8F041BFE139B100F045FDE87B97
:10963000BDE8F0411021F9F7C2BABDE8F08100227F
:10964000002100200BF018BA1021F9F7B8BA2078E1
:1096500000F00700022870473EB50024474D00E0A7
:10966000641CDFF8501A0A78E0B290421CD2E4B2CF
:1096700004F1750000F053F880B209F031FF00F0FA
:1096800052F888B90822002101A8F9F744FB002804
:10969000E6D0082205F1390101A8F9F731F90020D7
:1096A0000090753400F0B6F837BD70B58AB003A8E5
:1096B0000BF0F3FB03AB00F06DF800242F4D00E03E
:1096C000641CDFF8F00901788C4210DA04F17506A9
:1096D00000F025F8B0B209F003FF00F024F80028EC
:1096E000EED00898009000F01AF8B0B20AE0082214
:1096F000FF2101A8F9F71CF908980090743400F0D4
:109700000EF8A0B209F0F3FDDFF8EC140020088099
:109710001822002103A8F9F70BF90AB070BD6B46B7
:109720000C2200217047082201A905F13900F9F740
:10973000F1B810B56C4C234601220021322009F00B
:10974000CFFEDFF8043A01220021332009F0C8FEE1
:10975000664821780078012906D1BDE810406422CE
:109760004FF40061FAF703BCBDE810404FF400610C
:10977000FAF72DBCDC41002078720020786C0020C4
:1097800000B587B0182200F00BF86B4600F002F825
:1097900007B000BD18220021822009F0A8BD1022C8
:1097A00000216846F9F7C4B870B584B00025DFF829
:1097B000CC690CE0FFF7B3FFA0B209F091FE0822DC
:1097C00001A906F13900F9F7A5F850B96D1CDFF8C9
:1097D000E4281178EDB28D4205F17504EAD30099C1
:1097E00091B1DFF8E019087870B9012200980A7089
:1097F00000F2E240DFF8E4190090086000F00AF897
:10980000DFF8F413002008807FBD00007B430020B8
:10981000787400206B460C220021A0B209F067BDCD
:1098200010B58AB0FFF7C0FF04AB182200218220D8
:1098300009F056FE002470B9FFF7B1FF1022694607
:109840000DF11100F9F766F828B91822002104A8D3
:10985000F9F76EF8012420460AB010BD38B5514D15
:109860000446E87B0421FAF7CAFB30B9E87B2246BC
:10987000BDE838400421FAF77ABB31BD10B5494C38
:10988000E07B0421FAF7A3FBE07BBDE81040042154
:10989000F9F7ACB91C41002010B5DFF88849002069
:1098A000207022460121852009F0E2FC38B92346C8
:1098B000BDE8104001220021852009F011BE10BD35
:1098C00001210128DFF85C3908BF03211970FFE787
:1098D00001220021852009F00ABD00008C430020F0
:1098E000F0410020EC41002073740020BC73002084
:1098F000F8B50546FFF7E4FF41F288342046FEF74D
:10990000F7FDDFF824793878002818BF01280BD13B
:10991000DFF8186930784FF48071FAF758FB307827
:109920004FF48071F9F762F938781E4E02281AD187
:10993000012D0FD1DFF8F818DFF8F8280868306437
:10994000DFF8F40801881180DFF8F028DFF8F0185C
:1099500010880880002003F030FA002003F047FA56
:10996000002003F040FA012D17D10220707403206B
:10997000F0740120B07306F14800DFF8004804F1EC
:109980003901F9F70EFA022084F826000AF036FEB3
:10999000F8F7FCFFBDE8F24006E02046BDE8F240E3
:1099A0005CE700001C41002000F07F00643080B2C2
:1099B00033E32DE9F04104460D4686B090461F463C
:1099C000284611F00AFF284611F040FDDFF87468C0
:1099D000306850B103218DF80810082229466846E6
:1099E000F8F78EFF31686846884700F08DF918BF98
:1099F00001282FD10020ADF80400ADF80640022068
:109A000002958DF80C000FBB0FF093FAF0B904AA81
:109A10000021AB200EF0D9F80022694628460FF04D
:109A2000B7F8DFF824080178012904BF9DF8000089
:109A3000002805D100218DF80D1001A80FF0EAF8DB
:109A400001208DF80D0001A80FF0E4F841462846EA
:109A500003F01BFD0021204606F0A2F8DFF81C07EA
:109A6000818C204604F039FC00F0BBFA06B0BDE85A
:109A7000F0810000147400200AF064BD2DE9FC415F
:109A80000546089C09980E4690461F4600F0DEFAEF
:109A9000019400972A46DFF8B407837831464046A0
:109AA0000AF089FFBDE8F6812DE9F04180461646AF
:109AB0000F461D463046F8F76BFF04000ED0002E0F
:109AC00018BF002D03D032462946F8F719FF27703A
:109AD00021464046BDE8F041F8F77BBFBDE8F08184
:109AE00011B5DFF86C47207B81B020B100212173D4
:109AF00010F046FD0CE0216A11B101A8884707E08B
:109B00008DF801006B46E07B02220121FFF7CCFFBC
:109B1000002016BD204000200C42002070B5DFF868
:109B20003047002886B020745FD1012001F023FF68
:109B3000DFF8F456297821B9607C38B9082000F0A4
:109B400052FB2878002818BF01284ED101A8102107
:109B50000DF0ECFA0FF0EDF9002846D0DFF81C56B6
:109B600005F1390004F000FE28B9DFF8EC1605F124
:109B70003900F9F716F90021F02004F0EDFF05F1A6
:109B80001601532004F0E8FF05F10E06694630780F
:109B9000C00800F001008DF80000522004F0DCFF46
:109BA0000820307603F006FAFFF7FEFDDFF82C16EA
:109BB000086808B901220A604FF44071E07BF8F7A9
:109BC000FEFF01A812F04FF9002101A80BF070F977
:109BD00095F8410008B90BF082F91022002101A884
:109BE000F8F7A6FE012001F085FBE07B0221F8F7E3
:109BF000E6FF06B070BD0000C47300200C710020A9
:109C0000F8B50446DFF84806416A19B12046BDE8B8
:109C1000F4400847DFF8446635682F4609E0288895
:109C20006188884202BFA8782179884216D02F46E1
:109C3000AD69002DF3D11C20F8F7CBFD050062D0F3
:109C40001C220021F8F774FE4FF6FE702881FF20D9
:109C5000E872306800280CBF3560BD61607AA87179
:109C6000207A68712079A87060882880207B287508
:109C7000207A012806D004F10D0105F10C00F9F756
:109C800090F805E00822FF2105F10C00F8F750FEDE
:109C9000DFF8CC05A27A0178914234D260790128AC
:109CA00002D001F038FB70B3A07AAA7A0021824278
:109CB00003D2E07A142806DB06E0904204D1E27A6F
:109CC000E87A824200D2012100F01EF814BF012878
:109CD000A07902D0022801D1E07928B9DFF89C24CC
:109CE0002088538B984206D129B120882881A07AF8
:109CF000A872E07AE872E07908B101212971A079AF
:109D000008B10121E970F1BDDFF81C0500780028D9
:109D1000704710B5DFF838452074002801BF607C1B
:109D20000028062000F05FFAE07BBDE8104020210B
:109D3000F8F745BFF0B5DFF81855DFF840640F00BD
:109D400083B02F7428D1DFF8E004017802291ED1F6
:109D500004F051FA04F089FA040018D01C22002102
:109D6000F8F7E6FD708B208006F11C01A01CF9F7C6
:109D700018F8B08C6081AA20A074DFF8E80400789D
:109D8000401C00EBD0704010207401206074687C8F
:109D900010B9032000F027FAA96A49B1F08AADF89A
:109DA00002008DF80070708BADF80400684688479B
:109DB000E87B002302220221FFF776FEF7BD01B502
:109DC000DFF88C04416B09B16846884701BD00008B
:109DD000A870002010720020D472002038B505460B
:109DE000DFF88404046800F0B1F9DFF86404C07B94
:109DF000FFF72AFC10E06168087860B10420F8F7EA
:109E0000C7FD010007D0D62008704D806068426809
:109E10001078F8F7DEFD2468002CECD1BDE8314065
:109E20004AE170B5DFF828640546F07B1C46042142
:109E3000FAF7E5F808B1012070BD00F087F92000BD
:109E40001CBF012C022C23D10820F8F7C2FC04000F
:109E500001D1102070BD716C11B9746404E0014629
:109E600008680028FBD10C60F07B4021FAF7C7F8A6
:109E7000C0F5167000212160E080A58080B2B0F5A9
:109E8000167F05D1F07B4FF416724021FAF76FF878
:109E9000002070BDE0B5ADF8000001918DF80820FC
:109EA000DFF8AC03C16977E110B5044602F098FE13
:109EB0000146A01CF8F767FF01280AD1DFF89003DC
:109EC000C16A11B12046884778B9E07ABDE81040F0
:109ED0000EE5FFF719FF18BF012806D1E37AA27A31
:109EE0002088A11CBDE8104063E510BD3C74002033
:109EF00038B50446A07A012830D100218DF802102F
:109F0000207BDFF82453D0B928788DF80110002881
:109F100018BF012803D1E17A8DF800100AE0022869
:109F200008D1002002F063FF002002F05CFF002057
:109F30008DF8000001F052F868460AF0EFFD28782D
:109F4000022804BF002002F038FF207BFFF7D0FC7E
:109F50000DF10201522004F0FFFD18E002F04DFE69
:109F600001462088E27A88420DD1012A07D0B749FC
:109F70000B7803F00703022B05D101202073207B0F
:109F8000FFF7B6FC03E0237BA11CFFF712FDB048EE
:109F9000016B09B12046884731BD000058430020BD
:109FA000A1490A78022A00D0704780B5012802BF73
:109FB000A749087D00280CD104F01DF901F0ABF988
:109FC00018B9BDE8024001F09CBABDE8014001F0BB
:109FD00014B801BDF641002004F057BF704702F0ED
:109FE00008BE80B500F029F800B92CE001BDC28997
:109FF000110400D5704700B583B0017B61B9132A05
:10A000000AD0017C019142F400420092811C407C04
:10A01000002384220CF054FC07BD02008C48C07B56
:10A020001CBF0121F9F7A3BF0121F8F7C8BD80B516
:10A0300000F003F800B906E001BD854AD07B4FF47B
:10A040008071F9F7DCBFBDE801407FE07F498A7885
:10A0500093070ED57F4B1A7890420AD0087800F00B
:10A06000F80040F0020008700C228A700C2003F007
:10A07000DFB9704780B57648417C012918BF0229B5
:10A0800006D1012141730020FFF7C7FF012002BD67
:10A09000002002BD6E48417C01291CBF02290C2909
:10A0A00003D1002141730120704700207047000058
:10A0B00000F8FF07FB1522001CB50020FEF718FA78
:10A0C00002F08EFD044602F094FD60498A78002378
:10A0D00021460CF087F90020FEF70AFA5248017871
:10A0E000022902BF614A107801280BD1684602F0AC
:10A0F00088FD02F082FD5E495E4A0B78127869465F
:10A1000003F0ACFC13BD10B586B002A809F068FFDF
:10A11000040017D09DF8080088B10F218DF81410A5
:10A120001F224FF6FC7000210092ADF80C00019147
:10A1300023469DF80820504803A90CF06FF92046EB
:10A14000F8F7ADFB06B010BD7474002036494048E6
:10A150000978C07B022907D0002918BF012907D13F
:10A1600006498A7B910703D44FF48071F8F727BD25
:10A170004FF42F724FF48071F9F7F9BE786C00201C
:10A18000401C80B2704700B583B0ADF800008DF878
:10A19000021001922E48816909B16846884707BDBF
:10A1A000002000212A4A02EB8002401C092891610C
:10A1B000F8DB7047092803DA254A02EB80000FE03C
:10A1C0000220704770740020092804DA204A02EB4C
:10A1D0008000002104E0022070470000C8730020C6
:10A1E0008161002070471A4A517C814204D050742A
:10A1F0001021D07BF8F7E3BC704720490860704716
:10A200001F490860704780B5F8F7C0FB42F2107133
:10A210000840BDE808400A180D48C07B4FF4804153
:10A22000F9F7A5BE71740020DC410020BC7300204A
:10A23000E04100205E74002056430020544300207B
:10A2400060740020987100209243002078720020F2
:10A250001C410020794300206C730020EC6C00202E
:10A260006D43002006162200044000208C4300208D
:10A27000777400208B43002084410020F0410020AF
:10A28000EC41002010B5DFF8F443207648F21501C8
:10A290000CF028FE207E38210CF024FE0FF27930DD
:10A2A000E0620FF2AD30A0620FF245306062022032
:10A2B00020754FF6FE70A08110BDF8B5DFF8BC63C5
:10A2C000DFF8BC43307E0D46290404F1180731D570
:10A2D00016E0204600F0EBF80EE0B07E04280BDA22
:10A2E000B97DDFF8A0030AF0E5FC28B96088308466
:10A2F000A0887084FF2070712046F8F75BFB307EE9
:10A30000F8F794FB04004BD020783128E5D03228B0
:10A31000DFD0D328F0D1E089382807D048F21501E2
:10A320008842E9D1204600F0B1F8E5E7204600F088
:10A330003AF8E1E7E90711D5307F387006F11C01E2
:10A34000E12004F009FCFFF772FE0020A4F8700081
:10A35000012003F043FC85F00100F2BDA9070ED5F2
:10A36000F18B39B1491EF1834EF660220221F9F7D3
:10A37000FEFD01E00020B07685F00200F2BD280766
:10A380000CD5707938B1317930680AF093FC10B986
:10A390007079411E717185F00800F2BD0020F2BD98
:10A3A00085F40040F2BD70B58AB0064606A911F0EA
:10A3B00002F89DF81C10B14C06291CDA307B0028ED
:10A3C0005CD19DF81D00002858D0062856DA069862
:10A3D0000AF070FC002851D1707C60767088A081F2
:10A3E0009DF81D00411E8DF81D1006A890E82C0058
:10A3F00084E82C0042E0FE29A14D19D100F040F87C
:10A400003CD202F036FE00200699C140C90703D4B1
:10A41000401CC0B21B28F7DB297E81422ED020775A
:10A420006420EA794243207E0121F9F7A0FD25E06E
:10A43000FF2911D100F024F820D202F01AFE06986C
:10A4400000281FBFA96A8142A862FFF7F0FDBDF88E
:10A45000200000F0C3F811E0307B78B97188A18149
:10A460000590002100230190049103910293009133
:10A470008022707C04F10C010CF0F4FC0AB070BD79
:10A480009DF81E0095F872108142704710B582B099
:10A490000446694610F040FF9DF8000030B99DF871
:10A4A0000200410644BF608800F098F813BD7CB5F7
:10A4B000724D697904467248FF2900F16E0616D183
:10A4C000007E62680021C240D20744BF04F1080147
:10A4D000095C00206268C240D20704D504F108027A
:10A4E000125C8A421BDB401C1A28F3DD32E000209C
:10A4F00003F074FB0021034601917288687E00948A
:10A5000005F10C0100F029F8687938B1287E02B015
:10A51000BDE8704032220821F9F729BD73BD3088AB
:10A520006B8C2A8CA88100941020019005F10C01FD
:10A53000002000F012F80120E876A87E38B93C210E
:10A54000E9834EF66022287E0221F9F710FDA87EED
:10A55000401CA8760021697173BD2DE9F04786B0D3
:10A5600081460E9E8A461746984600250024002004
:10A570007168C140C90748BF6D1C401C1B28F7DB30
:10A58000E8B288B1F8F725F904000DD000210020C9
:10A590007268C240D20704D53218C9B2127A625426
:10A5A000491C401C1B28F3DB0F9A049200230593DF
:10A5B0000394EDB20295CDF8048000977368B278E9
:10A5C000514648460CF04EFC2CB1204606B0BDE882
:10A5D000F047F8F764B906B0BDE8F0872849B1F84C
:10A5E0006E2082421CBFA1F86E00FFF720BD7047AD
:10A5F00010B504460620F8F7CBF960B1312101709F
:10A60000218841806188818001461C48007EBDE828
:10A610001040F8F7DEB910BD38B505462420F8F72C
:10A62000B7F9040012D0322121701B222878A070C3
:10A630006868606004F10800A968F8F761F92146CC
:10A64000BDE834400D48007EF8F7C3B931BD0000C5
:10A6500010B50A4CE27E014672B1C878002804BFEA
:10A660004978002908D1064B0022A3F87020012068
:10A6700003F0B4FA0021E17610BD0000E470002080
:10A68000786C002000F8FF07DFF858140870DFF836
:10A6900058140FF2E9100860704770B50D46280491
:10A6A00082B0DFF8406432D4E8072ED5707800F02D
:10A6B0006FF804000BD001218DF80010522069467C
:10A6C00004F04AFA0020FCF7FCFD0020B0700220E4
:10A6D000F8F75EF930B13321017044700146F0782B
:10A6E000F8F777F985F0010076BD0D2809D12046ED
:10A6F00000F07AF905E020780C28F6D1204600F029
:10A700006DF92046F8F756F901E0002076BD307863
:10A71000F8F78CF90400EED185F4004076BD38B529
:10A7200004460D461C2200212846F8F701F9207F37
:10A730002875E189A06A6981411C02782A7002F0BB
:10A74000030003281AD102F00C02082A0CBF0120D2
:10A7500000200C2A287305D108784A7800EB0220E3
:10A76000A880891C08784A7800EB0220E880881CC1
:10A770000178427801EB02212981811C2961287D21
:10A78000411AA06A41182975207F411A697331BDA9
:10A7900001B582B00220F9F774FE60B904F08FFAB7
:10A7A00048B102A9E12004F0D7F900F006F8CD493C
:10A7B000002088700EBD01200EBD01208DF8000024
:10A7C0006946522004F0C8B938B5C64D0446A87889
:10A7D00008B1012032BD00F03FF89DF80100A04211
:10A7E00001D1002032BD0120A870FCF76AFD0020D5
:10A7F000FFF7E4FF2046FFF7CBFF30B128786C70FD
:10A8000064220121F9F7B3FBBA2032BD38B5B54C4B
:10A81000A07808B1012032BD00F01EF8B34D9DF8BC
:10A820000100297E884201D1002032BD0120A070A4
:10A83000694600208DF80000522004F08DF905F1E2
:10A840001801E12004F088F9FFF7B7FF0020FCF7BA
:10A8500038FD0020A07032BD0DF10101E12004F0AF
:10A860006DB9FE2901D10120704700207047426870
:10A870009C491378CB7000780871704780B50178D7
:10A880000D2908BF416803D00C2913D141684968DC
:10A8900081B10A7802F00302032A02BF897801F02D
:10A8A0000301032906D101468E480078F8F791F894
:10A8B000012002BD002002BDF0B58A490546887816
:10A8C000002789B0002804BFEB7AFE2B19D124227F
:10A8D00000216846F8F72CF8297E11F00D0F75D18C
:10A8E000287A002872D08DF808000326287A0F28CD
:10A8F00009D102208DF808000B262988ADF8001038
:10A9000019E0012066E0022803D12888ADF8000094
:10A9100011E0032804D129466846F8F742FA0AE014
:10A92000012808D102204FF6FF718DF80800ADF81C
:10A9300000100F262F88012006F00C010C29698ACF
:10A9400008BF03200818801D8DF81F00C0B2F7F75C
:10A9500040FF04003CD0A01C06F00C0108940C2918
:10A9600000F8016B03D107703F0A4770801CE9892A
:10A97000017006F00C06E989090A4170298A817084
:10A98000298A090AC170001D6A8A6969F7F7B8FF48
:10A9900002F03FFD800040F0030020700321000A18
:10A9A0006070A889ADF80A008DF80C10A87E8DF8AB
:10A9B0000D00701E8041C00FADF80E00684604F017
:10A9C00053F905462046F7F76AFF02E0B62500E096
:10A9D0001025284609B0F0BD5D2070474278817887
:10A9E000404800790EF00DBB70B504469CB0257A46
:10A9F0006668342200210FA8F7F79AFF8DF83C50C3
:10AA00003078727800EB02200FA980B202F05CF877
:10AA100002208DF83D00B11C19919DF83C00811E6B
:10AA20008DF8581004F11C01E08CADF84A0005A81F
:10AA3000F8F79FF99DF83E00032850D102F0E9FC99
:10AA40009DF83F10814204BF9DF84000002846D188
:10AA50009DF84100002804BF9DF8420000283ED127
:10AA60009DF85900002804BF9DF84300002836D106
:10AA70009DF8440098BB08A90FA8FFF750FE9DF869
:10AA8000200000F00301032929D100F00C00042864
:10AA900025D09DF82000810621D401061FD411493C
:10AAA00008798DF82200FE218DF8231004F13A0078
:10AAB00004AB01788DF81010002142788DF8112038
:10AAC00080788DF812000391206B0290019105A906
:10AAD0009DF84F00009008A8E28E0EF028FE1CB0F2
:10AAE00070BD00007043002018740020786C0020B6
:10AAF00080B5DFF8041BDFF8143B08771A782AB911
:10AB0000C97B19B1DFF8083B02221A7048F2020132
:10AB10000CF0E8F9DFF8140B13F03BF9DFF8101B29
:10AB2000DFF8100BDFF8102B0860DFF8101BDFF8E0
:10AB3000100B1160DFF80C2BDFF80C1B1060DFF836
:10AB40000C2BDFF85C0B1160DFF8582BDFF8581B7B
:10AB50001060DFF8582BDFF8580B1160DFF8802BFE
:10AB6000DFF8801B1060DFF8802BDFF8800B1160AE
:10AB7000DFF87C2B1060BDE8014012F0EBB910B596
:10AB800004461020F7F725FE58B121780170846043
:10AB9000DFF8181C416000210173BDE810400EF081
:10ABA000FDB910BD30B583B00C46002510B10DF0D5
:10ABB00081FE09E03CB100F01BFA6946204600F036
:10ABC00005F8054600E0022528463EBD70B50C4656
:10ABD000DFF8381ADFF8383A0A7805461878024361
:10ABE00086B008BF01201ED0002D18BF002C0CD04D
:10ABF0006A461021284600F0C5FFBDF8006005F147
:10AC00001000F7F79FFE864201D002200BE001A85A
:10AC1000009090232A460021002013F0A7F9214636
:10AC200001A80DF070FE06B070BDDFF8CC194874B5
:10AC30007047F0B506464FF6FE700C46864214BFCC
:10AC4000002C022085B039D0DFF8AC797D6A75B967
:10AC50001020F7F7BEFD0028786237D0387F4FF418
:10AC60007A724FF40061F9F799F97D6A0DE000F00E
:10AC70002FF830B9E86818B3054600F029F8002825
:10AC8000F8D0387CA87218E00546B86A58B1082296
:10AC9000A91C0DF10500F7F733FE002000F0B6F80F
:10ACA000387F00F083F80020E8600822387CA87222
:10ACB0002E802146A81CF7F723FE002005B0F0BD2A
:10ACC0001020F7F786FD0028E860DDD10120F5E7C8
:10ACD0000822A91C2046F7F71DBEF0B5DFF8185969
:10ACE0006C6A002C8BB05AD0DFF8146CA07A002864
:10ACF0001FBF401EA072C0B200284BD1687C88B133
:10AD000000238DF800300822A11C01A8F7F7F8FDF8
:10AD100068460AF0C0FE28B12288BDF8020001A9E9
:10AD200011F0C9FAA01C10F091FB002201A9A01C8F
:10AD30000DF02EFF07469DF80400012816D11422BD
:10AD4000002105A8F7F7F4FDFF208DF8240040F25C
:10AD50001111781A80B20C214843321D0021115084
:10AD6000315005AB1422384608F0C1FAA86A70B118
:10AD70000822A11C0DF10900F7F7C2FD02208DF891
:10AD8000080002A900910923287F00F00FF820464F
:10AD900000F042F8E468002CA8D1686A20B9287F46
:10ADA0004FF40061F9F713F90BB0F0BD002209214F
:10ADB00000F099BE7FB5DFF84068746A0546002C44
:10ADC00018BF002D0FD008222946A01CF7F7A2FDBE
:10ADD00050B9E468002CF6D1706A20B9307F4FF486
:10ADE0000061F9F7F4F87FBDB06A58B10822A11CE0
:10ADF0000DF10500F7F784FD012000F007F8307F22
:10AE0000FFF7D4FF204600F007F8E5E78DF80400CF
:10AE100001A900910923704770B5DFF8DC67736AF8
:10AE200005460822A91C981CF7F774FD0028746ACF
:10AE300004D0E068706220460DE0E4687CB1E06810
:10AE40000822A91C801CF7F765FD0028F5D0E068F2
:10AE5000C168E1602846F7F722FD002070BD02209E
:10AE600070BDDFF89417C8730028DFF8A41714BF6B
:10AE7000022001200870704770B5DFF87C47DFF8CA
:10AE80008C6700F0C605E07A86B020B9207F0421E7
:10AE9000F9F7B5F8B8B13178022902D1E07A810624
:10AEA00010D4A07B48B1A90707D500F023FC0121ED
:10AEB000042000F0DDF885F00205E07A05F03F059A
:10AEC0000543E57275E0E07A05F03F052843E0723E
:10AED000607F00285ED10121617704F10E03012219
:10AEE0000021552008F0FCFAA07B012852D13078CF
:10AEF000012818BF02283DD1DFF8A00A0068082207
:10AF00000021F7F708FF002834D10EF012F80028CE
:10AF100030D140F211166B4601221021304608F064
:10AF2000DFFADFF87C1A087800281EBF9DF80000C1
:10AF3000FD2802281ED01422002101A8F7F7F8FCF2
:10AF4000FF208DF8140001AB14220021304608F0D8
:10AF5000CEF9DFF8AC09002101604160A17304F172
:10AF60000E030122552008F0C2F90321FF2011F041
:10AF70008AFD18E00720207645F01005E07A0543A9
:10AF8000E57200210020FDF7A5FF90B1002000F040
:10AF9000F2FC03E0E07A30B9072121760021072096
:10AFA00000F066F805E0002020760421207FF7F706
:10AFB00006FE06B070BD1CB58DF8050001AC00940E
:10AFC00001208DF804000323DFF82C46207F0022A7
:10AFD0000A21B1E2DFF820168874704780B500209E
:10AFE00000F0C9FCBDE804400321FF2011F04BBD77
:10AFF000082200216846F7F79BBC10B5DFF80C0665
:10B00000017802291DD1DFF8F04501E000F097FA40
:10B01000206A0028FAD1FCF7A8F8207E082804D07E
:10B02000012808BF002109D0E0760820207609F029
:10B03000E3FB0A20FFF7D7F800210820BDE8104005
:10B0400016E010BD80B5DFF8C405017802290BD1E8
:10B05000DFF8E81A887B38B1097E082904D100217D
:10B060000020FDF737FF00B1012002BD0000000005
:10B070007CB5DFF884450246207E90420D4604D020
:10B08000082804BFE07E062825D1DFF88065237FED
:10B090003078521E072A014664D8DFE812F03E00DD
:10B0A000AE00080064007F001401C900F900012906
:10B0B00018BF022956D1322204211846F8F757FF4B
:10B0C00055B10120207601E000F039FA206A00280D
:10B0D000FAD100F004F973BD00208DF8000000F0F3
:10B0E000FEF80220A072002101208DF805002176D3
:10B0F0006946E07A00F0FD00E072522003F02CFD7A
:10B10000FFF76CFF09F02DFD0020FFF76CF8206AB7
:10B11000002827D000F013FAF9E7012918BF022907
:10B1200020D17DB10321002011F0ADFC0420207658
:10B130003222207F0421F8F71AFF00F0D0F800F047
:10B14000CDFC73BD012007218DF80500A1721846C2
:10B1500000F0C5FC0020E07241F28832207F02211D
:10B16000F8F705FFAFE001228DF805206DB1002052
:10B17000A072012904BF0720FFF735F830780228B4
:10B1800006D10620FFF72FF802E008B90220A072CE
:10B1900000F0A9F8E07A00F0FD0093E002228DF8BB
:10B1A000052075B10020A072032111F06CFC3078ED
:10B1B000012804BF0720FFF716F83078B8B9092036
:10B1C00013E00822002818BF0129A2720FD1A07B2A
:10B1D00068B900218DF800105220694603F0BCFCCC
:10B1E000FFF7FCFE09F0BDFC0020FEF7FCFF00F0BD
:10B1F0007AF8E07A00F0FB0064E00020FCF761F8E8
:10B2000004208DF805006DB10020608130780128A0
:10B2100004BF0720FEF7E7FF3078022804BF0620AE
:10B22000FEF7E1FF00F05FF8E07A00F0FE0049E091
:10B2300000228DF80520BDB110B90920FEF7D3FF1B
:10B240003078022804D100F04AF80620FEF7CBFF40
:10B25000FEF7AAFA0D20A072C82200202076042151
:10B26000207FF8F784FE0FE002290BD1A07B48B1C4
:10B27000E07A40F020000521E0728DF805100A20E8
:10B28000FEF7B1FF0220A072E07A00F0EF0019E0B3
:10B29000052202298DF8052015D17DB1E07E2076AA
:10B2A0000020E07600F01BF8E07A00F0DF00E072AA
:10B2B0000D21A1720620FEF796FF04E0E07AA1724C
:10B2C00040F02000E07201A9A07A8DF804000091FE
:10B2D0000323207F00220A2100F005FC73BD4FF4F8
:10B2E0007A7001F06ABD002020763222207F04218E
:10B2F000F8F73DBE08B101210BE0BF4A917F00295C
:10B300001CBF1068002803D00021917700209FE126
:10B3100000210520ACE6DFF82408807B7047DFF8C9
:10B320001C08407C704738B50020FEF779FA0025EC
:10B3300001280CBF04200E20FEF755FFDFF800485F
:10B34000E08A4FF6FE718842A08C08BF01254FF6B7
:10B35000FF71884208BF012517D0280015D10120B0
:10B360008DF800006946522003F0F6FB0120FEF73D
:10B3700057FADFF8D057217E0128284602D109F07C
:10B3800084FA01E009F083FA0546284632BD1CB56F
:10B3900000218DF80410984C28B101A800900123D9
:10B3A000207F0022C7E0A17F00291CBF2068002861
:10B3B00007D00021A17700F02DF93220FEF72DFEF5
:10B3C00013BD00210320FFF753FE13BD2DE9F84FF5
:10B3D000DFF86867FBF7C2FE30620027FBF7C1FEAB
:10B3E000306ABB46044601E0A4697F1C002CFBD1F7
:10B3F000002865D0726B0AB1F9B290470025DFF8DA
:10B400004097DFF84087346A002C56D04FF0000A8E
:10B4100041E0022801D12079B0B3617999F8120096
:10B42000814235D1DFF82017A079097888422FD0E2
:10B43000012908BF022803D0022908BF012801D131
:10B440004FF0010B25BB1FE0DFF8000700884FF627
:10B45000FF7188421CBF2188814215D1B9F81A00BA
:10B460002189814203D14FF6FE718842D5D1DFF8A0
:10B47000E0060078002818BF0128CAD1BBF1000FF0
:10B48000C9D1E0780028C8D1204600F058F87F1EC6
:10B49000A4690AF1010A5FFA8AF0F9B288420CD273
:10B4A000404603F061F90128CED104F10C01404679
:10B4B000F7F769FC0028D1D1E6E76D1C012DA2DD6C
:10B4C000BDE8F18F1CB5DFF87446206A68B1012130
:10B4D000A17600F04DF898B101208DF80400206AA3
:10B4E00000F02DF801A8009004E001A9A0768DF8E5
:10B4F000040000910123207F0122032100F0F3FAD0
:10B5000013BD1CB5DFF834460321A17201218DF86B
:10B51000041008B100220AE0E07F0328B8BF401CF5
:10B5200003DB206A00F00BF80020E077012201A87D
:10B5300000900123207F032100F0D5FA13BDDFF82E
:10B54000FC3510B51C6A82B0214601E00A468969C3
:10B5500061B18142FAD1A14207BFA069186288692E
:10B5600090610846F7F79BF9002016BD022016BD32
:10B5700030B5044683B00320FEF735FEA079DFF82E
:10B58000D455FEF763FDE07AAB78019020890090F6
:10B59000A278218804F10C0009F00DFA040028D1EA
:10B5A000A878010716D519490878002818BF01287E
:10B5B00006D0022802BFDFF8A0150878002818D1AD
:10B5C000002001F0FAFB002001F00DFC002001F04A
:10B5D0000EFC0EE0DFF88415087850B9DFF88025FE
:10B5E000DFF8800511680160DFF87C05008801F054
:10B5F000E4FB20463EBD000008400020DFF83C256B
:10B6000008B151607047116070470000DC410020B4
:10B610007D430020DFF85435DFF8541518600860CA
:10B6200004220021842007F062BE000031BB20000C
:10B630001C72002091DD21003874002055CF2100BC
:10B64000D7DD2100C87200201DD02100CC7200205F
:10B6500010B5DFF8E8140446887F00281CBF48684E
:10B66000002802D1002088770868FFF7D3FFDFF8B1
:10B67000FC14086858B1DFF8D824117801290CBFF0
:10B68000002C0021BDE810406420FDF723BC002CF5
:10B69000BDE8104019BF0021032000210520E7E488
:10B6A000A1DD2100D072002011DB210020720020DA
:10B6B00015DC210030B5DFF8845483B000246976AE
:10B6C00018B100F053F9EC7400E0012401A80090D7
:10B6D0000123287F2246012100F005FA37BD000032
:10B6E00024720020170722003C740020E87200201A
:10B6F000D4720020E0B54FF6FC700F21ADF80000C9
:10B700008DF8081000230122B42168460BF0B1F92E
:10B7100007BD38B5DFF83854DFF820442978E07ADF
:10B72000022901D1820640D4820722D50420207646
:10B73000207BC20739D5A07B30B1FFF7DBFF0121A9
:10B740000420FFF795FC0FE0012918BF02290BD157
:10B750000120A07700F02CF8032020760120FFF7CD
:10B7600077FF0120FFF727FC2878F0B9002104209B
:10B7700018E0400719D505202076207B81070FD5DA
:10B78000A07B68B90121A17700F012F8052020768E
:10B790000020FFF75DFFBDE832400220FFF70BBC41
:10B7A00000210520BDE8344062E431BD6C74002006
:10B7B0000422002104F11800F7F7BAB8F0B50D46DD
:10B7C000680783B0DFF8746321D5307E30B101287B
:10B7D00007D0042809D006280ED015E0FFF799FFFE
:10B7E00012E00121FFF766FF0EE0FFF783FF012162
:10B7F0000420FFF73DFC07E00020B07230763222D3
:10B80000307F0421F8F7B3FB85F00400FEBD280467
:10B81000DFF83C732CD43878EA0448D5012818BFE7
:10B82000022841D1307E01283AD0032804BFB07EDF
:10B83000022839D10121B1760020FFF762FE33E002
:10B840003878002804BF217809290ED1B16AA01CDC
:10B8500088470AE00A28F3D1F07A2071F16A09B129
:10B86000A01C8847A01C12F0EAFC2046F7F7A2F8BB
:10B87000307FF7F7DBF804003ED02078D32808D1DA
:10B88000E08948F202018842EFD1204600F03AF800
:10B89000EBE7327E9042DDD1204600F083F8E4E70A
:10B8A000717E0020FFF706FF85F48050FEBD2A065A
:10B8B00002D585F08000FEBDAA0713D5012818BF68
:10B8C00002280CD1FFF794FB002000F054F86846E2
:10B8D00009F0D7F818B1307F0221F7F770F985F039
:10B8E0000200FEBD290505D508B9FFF7F6F985F474
:10B8F0000060FEBD0020FEBD85F40040FEBD0000DE
:10B900009866002030B52649044608788BB058B3B5
:10B91000DFF82852287E012826D10DF00AFB0028E6
:10B9200004BF608800281FD100F020F805A9204638
:10B930000FF096FCBDF82000400A152804DB022118
:10B940000120FFF7B7FE0FE0FD208DF8100004ABDB
:10B950000122102140F2111007F0C9FC0020A87448
:10B9600001210120FFF784FB0BB030BD287F4FF48D
:10B970008051F8F72CBB714A917B814201D1517FF4
:10B9800059B9010004BF0023D372907302F10E0372
:10B9900001220021552007F0AABC7047FC4100207D
:10B9A0007543002030B585B00178644C012936D04C
:10B9B000032909D166490978012918BF022903D151
:10B9C000817811B1012909D086E0407810B9FFF7DC
:10B9D000FDFC21E00020FFF7DAFC7DE0407820B993
:10B9E0000221A17640F6B83271E001F002F94FF67B
:10B9F000FE75604CA84204BF2088A84206D0ADF86E
:10BA0000005025806946532003F0A6F802F0F3FBAE
:10BA100008F0F4FD00202074FFF754FD5CE04C4971
:10BA20000978012918BF022956D1407840B1E07C3D
:10BA3000217D401CE074C0B2814201D2002124E08B
:10BA4000607E012841F2883504D045D303282ED0EA
:10BA50001FD341E048490878A8B10DF06AFA88B9C7
:10BA6000607D58B902218DF80810ADF80000002360
:10BA70000222002168460AF0BAFB25E0206B58B389
:10BA8000804729E00120A07401210120FFF7F0FA8E
:10BA900022E000208DF8000004218DF80110684696
:10BAA0000DF012F900F01AF8344802680FE002AA0B
:10BAB0000021AB200CF089F802A8009004218DF839
:10BAC000041068460DF03BF900F008F82A46207F84
:10BAD0004FF48051F8F74BFA05B030BD207F4FF49A
:10BAE0008051F8F774BA2DE9F0410E461D001CBFD5
:10BAF000069900298046174612D0A81CC0B2F6F756
:10BB000047FF04000CD006992A46A01CF6F7F8FE61
:10BB10002670677021464046BDE8F041F6F759BFF0
:10BB2000BDE8F08116490878401C0870C0B2704723
:10BB3000024AD17A012001B100207047084000205C
:10BB4000786C002064410020794300206443002089
:10BB5000DC410020787200208C4300202F4100201F
:10BB6000E04100205C410020584300201474002074
:10BB7000584100208E6C002075430020D8410020E1
:10BB8000E772002070B582B004460D4616466A463C
:10BB90000DF10201304600F00AF8BDF80030BDF8A2
:10BBA00002202946204600F029F8308073BD10B5E8
:10BBB0004FF6FF730B800380102103885C08DB07BE
:10BBC00044BF84F4084484F01004491E0480F4D176
:10BBD0000088108010BD10B502460123491E0020C8
:10BBE00003FA01F106E00A421CBF184380B20904BF
:10BBF0005B00490C8CB2002CF5D110BDF8B50446A1
:10BC00000D461746002615E014F8010B0821FFF732
:10BC1000E2FF8021BFB207F400427F00084218BF54
:10BC200082F400421AB187F4805787F0210749084F
:10BC3000F0D1761CB6B2AE42E6D31021B8B2FFF70F
:10BC4000CAFF80F47F4080F0FF00F2BD11F082B89F
:10BC500080B56A460121872000F0FFF89DF80010AA
:10BC6000032908DB02208DF8000000220221E220D7
:10BC700000F026FA01BD00208DF800000021DFF859
:10BC800068241078FDF726F901BD2DE9F241202640
:10BC9000002887B01446DFF85474DFF8545461D09C
:10BCA000A88A4FF6FF78404518D1F4B103218DF8EA
:10BCB000181004A82146F7F774F82B79BDF81C106A
:10BCC00004AA18460BF065FF060007D100230022E6
:10BCD000002120460AF095FA00F052F8BDF81C2029
:10BCE0003146E12000F0ECF947E0E868ADF810805B
:10BCF00002268DF818600369027B07A901200EF067
:10BD0000BBF838B107AB009300200390029001907C
:10BD1000012310E0E8688368C27907A901200EF0CA
:10BD2000ABF80028DAD0002007A9012200230390F5
:10BD30000291019200934146E868428804A80AF003
:10BD4000A3FA06463000C9D1DFF8A8030288287894
:10BD50004FF40051F8F70BF9BDF81C00A8820CE075
:10BD60000BF01CFBE868BDF81C10007800220BF0FB
:10BD7000ECFB0028F4D100F003F808B0BDE8F08136
:10BD80003878FA224FF48071F8F7F1B8E0B5022262
:10BD90008DF80820ADF800000023002268460AF064
:10BDA00068FE0EBD38B5DFF84853044628784FF4D6
:10BDB0008041F8F70CF9E9680878210004D1BDE862
:10BDC000344000210DF06DBB01210DF06AFBFF2C0A
:10BDD0000DD0412CA8BF40244FF47A7044432878FA
:10BDE0002246BDE838404FF48041F8F7C0B831BD75
:10BDF000F0B587B00D464FF6FE710D9C8842164691
:10BE00001F4603D100208DF8180009E00221ADF88B
:10BE100010008DF8181001F019FB08B104F0EF04C0
:10BE20000021ADF81A10B2490E98CA681378039031
:10BE30008DF819300CA801900294009733462A46D9
:10BE4000091D04A80DF0DCF9010004D09DF8302094
:10BE5000E02000F035F907B0F0BD70B504460D469E
:10BE6000164607F025FAC2B2954201DA012070BDEC
:10BE700033462046BDE87040002107F031BB134631
:10BE80000A46002107F033BA0B4607289A491FD803
:10BE9000DFE800F004070A0D101316190122974974
:10BEA00013E00822964910E0022216310DE002222A
:10BEB0001A310AE008221C3107E00122183104E09F
:10BEC0000222243101E0082239311846F6F718BD64
:10BED000704710B501280C4607D12046BDE8104038
:10BEE0000023002200210AF08CB910BD12F092BA92
:10BEF00012F095BA12F09FBA70B506460D462804A6
:10BF000082B048D50AE06078FFF7F0FF03E061787F
:10BF10006088FFF7EFFF2046F6F74CFD3046F6F756
:10BF200085FD04006CD020781A2817D0D1281CD0A9
:10BF3000D22828D0D32808D0E02828D0E128E6D07D
:10BF4000E228E0D0FD2804D0E5E7204600F05BF8C9
:10BF5000E1E76178E078FFF7CBFFDCE7A36AE28CEA
:10BF6000A188E08812F095FAD5E7607806281CBF12
:10BF70000728092801D10020C6E7002818BF01289A
:10BF8000C9D12220C0E7608812F061FAC3E7608857
:10BF90006178C0B2DFE76804554C07D5E0680078E7
:10BFA00000210DF07EFA85F4804076BDA80409D505
:10BFB000A08A2121FFF79EFF4FF6FF70A08285F433
:10BFC000005076BDE80419D50021082012F08FFA40
:10BFD0006A4601210320FFF740FF9DF8000041075A
:10BFE00002D5FFF735FE06E04FF4FA733222002146
:10BFF000022012F07EFA85F4805076BD002076BDD6
:10C0000085F4004076BD70B584B0C1894FF400421C
:10C01000891A02D0891F0AD07FBD0FF0EEF8040004
:10C0200033D0221DA11C012012F01BFA2AE00FF0D0
:10C030005BF9040029D02E4DA98A4FF6FF76B14254
:10C0400020D002208DF808006A466088ADF8000014
:10C05000E868637900780BF09CFD98B928784FF474
:10C060000051F7F7B4FF21480078FFF78AFE608897
:10C070000023002200210AF0F3F8A88A002112F020
:10C08000DAF9AE822046F6F70AFC7FBD10B5184CEF
:10C09000E2682070A4604FF6FF70A08200210020AB
:10C0A000207110780DF0FDF920784FF400410AF06E
:10C0B00019FF2078BDE8104048F206010AF012BFCF
:10C0C00070B504460D4616460420F6F761FC48B1EB
:10C0D0000470457046800146BDE870400448007811
:10C0E000F6F777BC70BD0000944300202B41002080
:10C0F00028720020F8410020786C00202D4100209B
:10C100006C7300200448016841F00101016042683D
:10C1100042F003024260704780B70840002112F0ED
:10C12000E9B9000080B500200090012300220846F4
:10C1300012F04AFA00BF12F08CFA0028FAD0FFE79A
:10C14000BDE8014012F090BA10B540F2012010F0A5
:10C1500026FEDFF8344302220221204612F0C4FA00
:10C16000CA4A0121204612F0F3FA0121204612F0BA
:10C170006CFC0221204612F06AFCBDE8104030E160
:10C1800070B5C34C0D46217809B100F0B8F8687855
:10C19000042801DD042070BDA889F6F71AFB206190
:10C1A00050B1288BF6F715FBE06138B9206918B15A
:10C1B000F6F775FB00202061032070BDA87898B1C8
:10C1C000B44E01220821304612F08EFA0821304682
:10C1D00012F03DFCB04EB14A0121304612F0B8FADF
:10C1E0000121304612F031FC1620F6F7F9FD01204E
:10C1F0002070AB4E68786070A878A070A989A88874
:10C20000814238BF0020A080A879A071A181288B2D
:10C21000208395F8200084F82000A86AA06210F01E
:10C220006FFD0FF29821627851F8222001466023B9
:10C23000304612F04BFC00220021304612F042FC46
:10C24000304612F08CFC7221304612F0B4FC7221A0
:10C25000304612F0ADFCA87820B19248016841F454
:10C2600040410160304612F05CFC002070BDF8B522
:10C27000874DAE8AEF8A287800283FD0F6F798FDE0
:10C28000441EA44100F0BAF800F0D7F8E40F0CB156
:10C29000F6F78AFD002000F00EF9A9890024401C61
:10C2A0008842686AA8BF012450B1F7F723FF696A82
:10C2B000AA79401A824203D20020686244F0040442
:10C2C000002000F0F8F8AA89A988521A764990420D
:10C2D0000878A8BF44F00204002808BFBE4203D17A
:10C2E00001220A7044F01004002C1CBFAA6A002A24
:10C2F00004D02146BDE8F84000201047F1BD10B53C
:10C300006748634C12F01AFC207830B12069F6F7C8
:10C31000C6FAE069F6F7C3FA2FE710BD70B55C4DB9
:10C3200028780C461646D8B1002000F0C4F83246F2
:10C330000646964288BF1646298900200BE02A69E6
:10C3400089B280B2525C2254491CAB898AB29A42AB
:10C3500028BF0021401C82B2B242F0D3298130466E
:10C3600070BDF8B54A4F3878144670B1BA8AFB8A66
:10C37000388B934208BF024605D09A42BABFC31A0F
:10C38000D218D21A92B2A24201D20020F2BD464B7C
:10C3900000221A70FD8A09E0FE698B5CADB273550C
:10C3A0006D1CABB2834228BF0025521CA242F3DBB6
:10C3B000F6F7FEFC461EFD82B64100F03EF8F60F91
:10C3C0000EB1F6F7F1FC2046F2BD314A5089B2F9C0
:10C3D0000810401A00B2002844BF9189081880B2A2
:10C3E00070472B48002101700181418101618182E8
:10C3F000C182C161416280F82010704770B5244C41
:10C40000274E65890BE0304612F0BBFB2169ADB2C7
:10C4100048556D1CA189A8B2884228BF0025304626
:10C4200012F0A6FB0028EED16089A9B2884203D0A1
:10C430006581F7F75FFE606270BD70B5144CA58A28
:10C44000E68A05E06D1C218BA8B2884228BF002532
:10C45000ADB2B54206D0E1691148495D12F09BFBCF
:10C460000028EFD1A58270BD10B50D4C502120469B
:10C4700012F0A1FBFFF7C2FF2221204612F09BFB26
:10C48000BDE81040D9E7000000900D4008410D4084
:10C490001471002000C00D4000A00D4004410D406B
:10C4A00000D0004030D00040647400204CE667E6C5
:10C4B000DDE633E755E788E700000000802500004F
:10C4C000004B00000096000000E1000000C20100E7
:10C4D0002DE9F04794B00546F7F7AFFE00274FF679
:10C4E000FE780028BA46C14640F0EC80287FDFF88D
:10C4F000BC4BE0B1DFF8B81B08786988420142EA1A
:10C5000080022A77FF2009F0A9F850B1E88A40F0AC
:10C510000400E8820127287F40F001004FF6FF79F0
:10C5200028772078002814BF01284FF0400A688837
:10C5300000F08CFF08B100206876A87E18B9DFF8FB
:10C54000CC1B0A78AA762878DFF8406C010603D560
:10C5500000F00300287006E0E87E20B93178E97623
:10C560003078401C3070297E01290BD1DFF8A42CD3
:10C57000107828B1F17A002904BF2878002801D169
:10C58000002129762078002818BF012818D1B07B17
:10C59000810715D557B9688800F058FF80B1287811
:10C5A00020B12969087800F01AFF48B1E98AA87E0D
:10C5B0004A0674D5012872D14FF6FB700140E9821A
:10C5C0002878012802BF29690878022803D1E98A5E
:10C5D00041F04001E982A87D410639D4002F37D1CE
:10C5E0002078002818BF012832D1B07B81072FD5D1
:10C5F0006988687E5346AA1D03F071FE28B10020A9
:10C600006876E88A40F02000E882A87970B16988ED
:10C6100005F1080000F0AFF969888146884204BF3F
:10C620000020A871E88A40F04000E88229780129BA
:10C6300004D0A9886888524603F072FAA9886888ED
:10C64000524602F0AAFC18B1E88A40F02000E882C5
:10C6500004A9284600F0E7F8C145044608BFB5F82C
:10C6600002908CB328789DF810308DF81400069550
:10C6700005A9688DADF816000391494695F82C0080
:10C680000290E88A0190687D00902046F28A00F0CE
:10C6900056F80546102D18D101F08EFC15E08DF8E6
:10C6A0002E006888ADF82600A888ADF82800E87E3E
:10C6B0008DF82F006A7DA98807A803F0C5FB002824
:10C6C0007FF47EAF112001E01025284614B0BDE8AC
:10C6D000F08710B58EB0044601A834210AF026FD7B
:10C6E000A188ADF8101000226088ADF80E006946F0
:10C6F000207D8DF8200020690B90207F8DF80900A7
:10C70000208DADF81400207E8DF80A00607E8DF833
:10C710000800608DADF8320094F82C008DF83400DC
:10C72000FF208DF800008DF801004FF0FF308DF8EC
:10C73000020001A807F015FD00200EB010BD2DE984
:10C74000F047044688B0884691469A462420102532
:10C75000F6F73FF80028009061D0242201F02EFD6A
:10C76000DFF8487938780026002818BF012813D14F
:10C77000404607F0C0F858B10079012818BF0328D7
:10C7800006D1119841065CBF40F48060ADF84400CA
:10C790001198410548BF0126DFF8F009818C009807
:10C7A0004181ADF818900220009908730099087231
:10C7B0000098A0F80080009981F81FA000991098B7
:10C7C00048733146009A14621198ADF80A00109827
:10C7D0008DF80C001398D0E9002312988DF81A00F8
:10C7E000CDE904236846F7F73DFD012814D13878D8
:10C7F000002818BF01280DD166B11098F7F762FE26
:10C80000040007D020680088F7F7F3FD10B1204638
:10C81000F7F7B2FE002502E00098F6F740F8284648
:10C8200008B0BDE8F087F8B505460C46687F0821DA
:10C8300000B11021A87F00B10831287F00B1491C48
:10C84000A87918B12A7A5200921C51186970287E72
:10C850000028DFF85808017814BF0E2600260229A8
:10C8600002BFDFF8C42B1078012808D129780129EC
:10C8700005D0DFF8D40B007810B1012000E00020D3
:10C8800085F83400297D6878DFF80079411871183F
:10C890002170297E29B1387B08F0D1FC217840181D
:10C8A000207020787528A8BF002462DAF5F791FF80
:10C8B00004005ED06A7E2878B97C920140EA81004B
:10C8C00002F0C002297F104301B1012140EA01209A
:10C8D000297E6A7F40EA4120A97F40EAC220AA79E6
:10C8E00040EA013095F8341040EA822040EA4130B5
:10C8F00080B220700827000A60706888A07068887D
:10C90000000AE070A8882071A888000A6071A87EDB
:10C91000A071E87EE071687F28B1296A04F10800FF
:10C92000F6F73FFA1027A87F28B1696AE019F6F7F1
:10C9300038FA0837FFB2A87980B1297AE1557F1C0F
:10C94000FFB2687AE0557F1C2A7AE968FFB252008C
:10C95000E019F5F7D5FF287A07EB4007287F08B1E3
:10C96000FFB2E05568782A7D296920443044F5F704
:10C97000C7FF2046F2BD30B583B004460D4601AA7C
:10C980006946284602F086FFA0B99DF80000207095
:10C99000019860609DF8000048B1401E60709DF8ED
:10C9A0000010019800EB410232F8020C3EBD6070AD
:10C9B00028463EBD4FF6FE703EBD2DE9F8430646C3
:10C9C0000F461446342200212046F5F7B1FF082F08
:10C9D0004FF0010863DB27703078727800EB02209B
:10C9E000214680B200F070F808B14FF00008B0782E
:10C9F000F17800EB012060817179307900EB012042
:10CA0000A081B079A074F079E07408206070E079BA
:10CA100028B1607806F10801083061616070207A01
:10CA200028B16178607831440830A16160700021DC
:10CA300004F1240784F820103960607920B160780F
:10CA4000315C6171401C6070607F20B36078411C74
:10CA50006170355C84F82050481CC9B26070715C0C
:10CA600084F82110A94214D2DFF88C1BDFF8B89BA0
:10CA70000A78AA42C0B234BF18256D0031182A4680
:10CA80004846F5F73DFFC7F8009060782D186570AF
:10CA900001E00020607761782078884201D2002090
:10CAA00010E072187A60411AA079217748B10E39E6
:10CAB000217702F10E00786000F08DF8217F081ACE
:10CAC00020774046BDE8F28300F003028A70030A33
:10CAD000C0F38302CA7003F001030206920F0A71C9
:10CAE0004B71420A02F001028A71C30A820A02F003
:10CAF000010203F001034A77CB71020B430B02F0F2
:10CB0000010203F001030A7281F83130800B704793
:10CB100010B5DFF8C44BE17A034600209A792AB1B8
:10CB2000002904BF9978002907D105E000291EBF1C
:10CB30005989E28A914200D0012010BDF8B506461D
:10CB40000C4630781546727800EB0220294680B2F8
:10CB5000FFF7BAFFB178F07801EB002169813079F5
:10CB6000717900EB0120A881B079A874F079E8749C
:10CB700008206870E87928B1687806F10801083063
:10CB800069616870287A28B169786878314408301A
:10CB9000A9616870687920B16878315C6971401C5E
:10CBA00068702846FFF7B4FF070012D16978A879AA
:10CBB000721818B9641AAA622C770AE002F10E0002
:10CBC000A86200F008F86978641AA4F10E02101A3D
:10CBD00028773846F2BDDFF8000B007B08F02FBB4A
:10CBE00010B5DFF8F84A2146E22001F0A7FF204601
:10CBF00010BDDFF8E40AC08A7047DFF8DC0A408B1A
:10CC0000704701464A2001F099BF38B5DFF8D04A95
:10CC10002578681C20702846F7F754FC0028F7D1C7
:10CC20002800F5D032BD2DE9F24FDDF828A083466B
:10CC300090461C4601F09CFB00260500DFF86C04C2
:10CC4000DFF848750078B1460AD15FEA0A024BD195
:10CC5000BDF8001042465846BDE8F84F01F0D5BC7B
:10CC60005FEA0A022DD0002818BF012804D1DFF89E
:10CC7000740A806800B180470CB92C7031E000F074
:10CC800025FD18BF01283DD1B87B81073AD5DFF8D3
:10CC9000541ACA6812B1214628469047DFF8480A5C
:10CCA00000782978421C9142BCBF491C2970297820
:10CCB000814227D1584603F07AFB012685F801907E
:10CCC00020E044B9A87840440004400CA870A8783B
:10CCD00008B90121A970DFF8140AAA7801789142F5
:10CCE00010D24FF001090DE0BAF1010F0AD14CB199
:10CCF000002818BF012805D1B87B810744BF5846DA
:10CD000003F055FBDFF8DC09DFF8A0230178107889
:10CD1000022808BFBAF1010F09D13CB1DFF86C5B02
:10CD20002A78491CCBB2934201D301260021DFF8B7
:10CD3000B439197056EA09013DD0002818BF0128FE
:10CD400013D1B87B810710D5584606F0D4FD60B1E9
:10CD5000B9F1000F03D0417901F0FE01417156B3E2
:10CD6000417941F00101417100E026B300F0AEFCD1
:10CD700018BF01280CD1B87B810709D5584606F0A9
:10CD800094FD28B15946BDE8F44F002007F028BBB8
:10CD9000798B8B450FD15946012007F021FBC34801
:10CDA0000178022907D1BDE8F44FDFF8E80B0078DD
:10CDB0000121F7F70CB9BDE8F18FDFF8D82B137814
:10CDC000012803D101211846F5F7F9BEDFF8201C30
:10CDD000086020B1024601211846F7F7C8B80121C2
:10CDE0001846F7F7F4B8DFF80C1C08807047DFF836
:10CDF000081C0880704710B5DFF8902374212120AB
:10CE000006F036FA00240A2808BF012408F03EFF85
:10CE10000A2800F022FF08BF44F00204002818BFCF
:10CE2000012805D106F0DAFE0A2808BF44F0040400
:10CE3000DFF8200C006820B180470A2808BF44F0C2
:10CE4000080408F081FC0A2808BF44F010040FF021
:10CE500051F90A2808BF44F02004204610BD80B5CF
:10CE600006F0AEFB00F09FF808F021FFDFF8A80302
:10CE70000078002814BF012806F0CAFEDFF8D80B9E
:10CE8000006800B1804708F071FCBDE801400FF078
:10CE9000E1B938B5BD4D2A467421212006F0E8F9E4
:10CEA000002400284FD12B4674220021212006F0B7
:10CEB00017FB002847D1E88A4FF6FE71884242D01E
:10CEC00095F826000124082818BF042838D18DF8C9
:10CED00000406946422001F03FFE05F12F0143204A
:10CEE00001F03AFE05F12C01472001F035FE05F175
:10CEF0001C014A2001F030FE05F11A014B2001F01F
:10CF00002BFE05F12401502001F026FE05F116014B
:10CF1000532001F021FE05F12D01542001F01CFEEB
:10CF200005F11801E12001F017FEA87BC00800F010
:10CF300001008DF800006946522001F00DFE02E06C
:10CF400006F03EFB002408F06FFEB348007800288E
:10CF500014BF012806F04CFFDFF8A80B006800B1F1
:10CF6000804708F03DFC204632BD10B50446E0077E
:10CF700001D500F018F8210748BF08F06AFEA6485E
:10CF80000078002818BF012803D1A00748BF06F089
:10CF9000D2FF600706D5DFF8F00B006810B1BDE8DE
:10CFA0001040004710BDDFF83037742200212120E7
:10CFB00006F09DB9F0B5DFF8506BDFF8D05B317843
:10CFC00087B001AA2846FAF72DF900208DF808004D
:10CFD0008DF80A00042106F08BFBDFF8B41B0F78F4
:10CFE000B8421ED208F00CFED8B9DFF8A80B0488AE
:10CFF00034B10421032006F07BFB3C1BA04202DA83
:10D0000001208DF80800DFF8CC1B0C8834B1022118
:10D01000012006F06DFB3F1BB84202DA01208DF8BB
:10D020000A002946327801A8FAF7D1F829464520A6
:10D0300001F092FD9DF80A0030B99DF8081001B189
:10D0400001218DF8001002E001208DF80000DFF8CA
:10D05000882BDFF80C4C137820789DF800100340E3
:10D0600019408DF800104120694601F075FD07B0A8
:10D07000F0BD70B504464548DFF88C6ADFF80C5BFC
:10D0800080F8724086B031786A462846FAF7CAF8C6
:10D0900032788DF8124029466846FAF798F8294602
:10D0A000452001F059FD06B070BD0000DC410020B4
:10D0B0009043002070B5DFF8AC6B318805464FF621
:10D0C000FE70814220D11620F5F762FC04001BD0CF
:10D0D00001212170A87900B102216170A86A40780D
:10D0E000A07200075CBFA889F7F7DAFAA969A01C4B
:10D0F000F5F757FE0020E0742146DFF89808007825
:10D10000F5F767FCA889308070BD00001216220078
:10D110002DE9F04182B00F46042106468DF801103A
:10D120009046684600F064F90400DFF8385B26D0CA
:10D13000206907210170B18A4170B18A090A8170A2
:10D14000B17DC1700120607706F10B0020620120E3
:10D15000A077FFF745FD60620120A076032F16BF80
:10D16000012F4FF488604020E082B8F1010F288839
:10D17000608004BF0020207600F041FC00E0102019
:10D180004FF6FE712980BDE8F6810000786C002022
:10D1900070B5DFF80058064628784FF48061F6F73E
:10D1A00016FFDFF8A41BDFF850080A880280DFF8BA
:10D1B0009C0BDFF8402801889C481180092280F8E8
:10D1C0002620FFF70DFD01467069F5F7DCFD01280B
:10D1D0001ED11020F5F7DCFB040019D002202070CE
:10D1E000B06A4178827801EB02216180C07860707A
:10D1F0004A20B16901F0B0FCB07918B9DFF8E42B2E
:10D200000521117021462878BDE87040F5F7E1BB93
:10D2100070BD00007B430020DC41002038B50221B6
:10D2200005468DF80110684600F0E2F8040039D098
:10D2300020690421017000214170297A012904BF6D
:10D2400020224270697A012903D1427842F04002DB
:10D250004270A97A012904D1427842F080024270DA
:10D2600001E00120A076697A012904D1686800B143
:10D27000617768682062E87A012804BF0121E182B1
:10D28000288800F0E3F818B1E08A40F00400E0825A
:10D290000121A177FFF7A4FC60622888608000F07C
:10D2A000AEFB32BD102032BD7FB505460E4600F004
:10D2B00091F8B16A4978002411F01F0003D000F002
:10D2C0006BFB00204BE0880644BF01208DF80C006A
:10D2D000080644BF01208DF80B00480603D5012045
:10D2E0008DF80A0003E09DF80A10012903D1F079B6
:10D2F00050B1746902E0307A30B1B46924B121468A
:10D300000DF10200F5F74DFDB089ADF800009DF874
:10D310000A0001281FD1DFF8041B0978F1B10129A7
:10D3200002BFDFF8FC2A1078002817D0022905D1A7
:10D33000DFF8A413B0894A8B90420FD1708900F0B6
:10D3400085F858B93CB1FFF74BFC01460DF10200DE
:10D35000F5F719FD10B1684607F01FF8284604B02C
:10D3600070BD10B5044692B021684A89D0072FD508
:10D370004FF6FE7002404A8104AA0868C17F006A25
:10D38000FFF7DCFB002802BF0E98017804291FD1AB
:10D3900000F020F8BDF81A00ADF800000E984078B3
:10D3A000810644BF01218DF80B10010644BF012105
:10D3B0008DF80A1040064CBF09990A990DF1020038
:10D3C000F5F7EFFC20798DF80C00684606F0E3FFD6
:10D3D00012B010BD0E2200216846F5F7A9BA014629
:10D3E000002004291CBF0A29032900D1012070470D
:10D3F00010B5382101700121817007F083F8040015
:10D4000005D001202070A077FFF7EAFB606220467C
:10D4100010BDB148807C7047DFF88C0B00787047F6
:10D42000DFF8841B087070478C430020786C002064
:10D430000121020748BF03218007DFF8700B48BFB6
:10D4400041F00401017070478843002001464FF607
:10D45000F87300200022C91A03290BD9091F05D02F
:10D46000491E05D0891E06D1012204E0042202E0F3
:10D47000022200E00822DFF8341B0B78134201D0AF
:10D480000220704702B10120704738B504460D46AE
:10D4900006F034FA00281CBF017900290ED00429B7
:10D4A0000CDC012D1CBF0129022902D1008802F0E9
:10D4B000C3F82046BDE8324006F04EBA31BD0178CF
:10D4C00021B94068002818BF0AF00ABC0020704744
:10D4D000814991F82620082A08BF00F046B8704715
:10D4E00010B501460023DFF8C82A901C30F823004D
:10D4F000884216D05B1C022BF7DD00234FF6FE742A
:10D50000901C30F82300A0420FD05B1C022BF7DDEB
:10D51000002312F8230040B15B1C022BF9DDC72069
:10D5200010BD00F009F8C52010BD901C20F8231094
:10D5300000F002F8002010BDDFF8780A017802F848
:10D540002310704710B50022DFF8643A03EB820124
:10D550004C88844202D113F8221021B9521C022AAD
:10D56000F4DD002010BD012010BDF0B5054600F02F
:10D5700074FB0026002818BF01288BB039D1564F04
:10D58000F98A2846884205D128002ED000F036F8C6
:10D5900001262EE006F0AFF9040026D020790128FC
:10D5A00018BF022821D18DF8006068466188ADF867
:10D5B0000C1008F0A0FAC0B12088DFF8A816088087
:10D5C00001A90DF11B00F5F7ECFB002001F0FAFFBB
:10D5D000ADF824008DF826600222217904A8FFF717
:10D5E00097FD00200126E06003E0B98C284600F09A
:10D5F00074FE30460BB0F0BD0416220080B500F07A
:10D6000065F818BF01280ED1012001F0F0FF324962
:10D61000ADF80000C8826946532001F09DFABDF8BC
:10D620000000FCF7DBFB01BDF87100207FB505466B
:10D63000122628000C4608BF002045D02649CA8A79
:10D64000954208D1FFF7CCFA01462046F5F79BFB3F
:10D65000461EB641F60F00208DF80000ADF80250CE
:10D66000684608F0E4F958B101A808F068F9012803
:10D6700006D101A92046F5F786FB012600B1002658
:10D6800000F024F814BF0128122E05D121462846A7
:10D6900006F0D3F800B100262146284600F084FEAB
:10D6A0000A2808BF01260AD0A02806D1214628460C
:10D6B00000F07FFF284600F0CFFF012E03D10021AC
:10D6C000284600F015F8304604B070BDDFF84C076E
:10D6D0000078002870470000786C0020AC730020B0
:10D6E0007F740020A8720020061622006D430020DF
:10D6F00038B50446FFF7EAFF18BF01280D460BD1E5
:10D700002046FFF732FF2B46214601B0BDE83040EE
:10D710000D224FF6FD701BE031BD10B50446207A96
:10D7200038B1A169A089FFF781FF012808BFA0894E
:10D7300008D0E07950B161696089FFF777FF01286F
:10D7400004D16089FFF7CCFE012010BD002010BD80
:10D750002DE9F04182B00D46042104468DF80110F8
:10D7600016461F4600F09BF94FF00108A0B147B1E3
:10D770000021817785800022017841F080010170CD
:10D78000C276032201690A708D704E702D0ACD7029
:10D79000448006F08BFE80464046BDE8F6812DE9C8
:10D7A000F84304468846A06A90F801908578217F66
:10D7B000C0780126042905EB002502D000F0ECF822
:10D7C00061E0DFF85816DFF8DC7B0878B9F1020F6A
:10D7D0000AD9A9F10302082A42D9093A34D0521EC3
:10D7E00021D0521E3CD039E0002818BF012837D183
:10D7F000B87B810734D50021A8B202F0DDFC0028F7
:10D800001CBF817911F0180F08D0A1890091002266
:10D8100043886189008802F0A5FD13E00121A8B2C8
:10D8200006F0F3FD1CE0002818BF012818D1B87BD2
:10D83000810715D5A8B2FFF74BFEA8B2FFF750FE3F
:10D84000C5280DD100260BE0002818BF012807D1FC
:10D85000B87B810704D5FCF7BFFB01E04FF000085F
:10D860006089AAB2494606F007FE6089FFF7EEFD1F
:10D8700048B1A07C012806DDA189F88A81421CBF3D
:10D88000002E404600D10020BDE8F28378430020FE
:10D890002DE9F04784B005460A208DF801008A463C
:10D8A00001271E465FEA0A009046B14604D14FEABE
:10D8B00049000A308DF8010000F0F1F804002AD088
:10D8C00020690921017046EA4A1646704146861CC5
:10D8D0003046F5F766FABAF1000F06F1080111D1EA
:10D8E0000C980C9000220BE00C9830F8120001F814
:10D8F000010B0C9830F81200000A01F8010B521CC1
:10D900004A45F1DB00F0C8F800F022F900F025F9F3
:10D9100000F075F80746384604B0BDE8F0872DE9F9
:10D92000F041054684B0A86A10F8018F441C2146D6
:10D9300001A8F5F736FA01A9DFF86C0BF5F723FA21
:10D9400008F01F0604F1080708B318F0E00F1CD117
:10D950007000F4F73EFF040019D0002007E03A7889
:10D960007B7802EB032224F81120BF1C401CC0B2BC
:10D970000146B142F3DB00943346A88901AA002195
:10D9800000F00DF800F018FB01E000F005F8BDE82C
:10D99000FF810000BC730020D32007F09BBC2DE961
:10D9A000F843DFF8087B88463968054691461E46ED
:10D9B000D9B170000E3080B2F4F7EAFF040014D041
:10D9C000D4212170658084F804804946601DF5F7F4
:10D9D000E8F966737200089904F10E00F4F790FFFD
:10D9E00039682046BDE8F4430847BDE8F1830000EC
:10D9F000E04100205443002056430020A7762046F3
:10DA000006F054BD7CB50446886A10F8016F06F034
:10DA10001F01451C012917D129466846F5F7C1F9B0
:10DA20006946DFF8840AF5F7AEF9083578B116F0E3
:10DA3000E00F09D16878A97800EB012081B228783D
:10DA400000F012F9204676BDFFF7A6FF002076BD54
:10DA5000000000009C710020A07100202DE9F84317
:10DA600000F070F89146984600F019F8012704007C
:10DA70000DD020690B21017080F8019000F00AF8A8
:10DA80006062677726626580FFF7B8FF0746384611
:10DA9000BDE8F28380F80280A777FFF7A1B8684657
:10DAA000A6E4F8B505460026A86A10F8014F4778A5
:10DAB000A86905F023FF00281CBF017900291FD0A9
:10DAC00003291DDA0F2C00DA0FB1012610E00675CC
:10DAD000002CDFF8801B0FBF0A6851F824203C217E
:10DAE0004A430121C261826180F82010FCF72EFBBD
:10DAF000DFF8E40B0278A8893146BDE8F84005E07C
:10DB0000F1BD0000A4710020144200202DE9F04175
:10DB100084B000F017F89046FFF7C1FF012704001A
:10DB20000CD020690C2101704670FFF7B3FF00F0A4
:10DB30000FF800F012F8FFF761FF0746384604B00F
:10DB4000BDE8F0810E46032105468DF801107047AF
:10DB5000606201A9284607F00EBF10B1677701A8DF
:10DB6000206265807047806A401C4178007848B91F
:10DB7000CA0707D5DFF8603B197001220021512048
:10DB800005F0B5BB70470000A871002018420020C6
:10DB9000F4152200FE15220010B504468EB021684F
:10DBA000086AA8B1C97F01AAFEF707FFDFF8AC0B2E
:10DBB000BDF80E10C28A91420AD0226810889DF8E2
:10DBC000212000904FF6FE73BDF8100002F0CAFB52
:10DBD0000EB010BDFC1522005C74002070B501462B
:10DBE00000F03BF80022002818BF01282BD10023A9
:10DBF000DFF8040B0478A34225DA2425DFF8604B14
:10DC00005D432C442079FF281CBF208A002805D0C2
:10DC10000D0007BF821892B2002020825B1CE7E74C
:10DC20001C2058434FF6FE76255AB5421EBF2518D4
:10DC3000288B002805D00E0007BF821892B2002062
:10DC400028835B1C02E00023DFF8184BDFF8900B01
:10DC50000578AB42E4DB104670BD70480078704731
:10DC60009A4300206643002038B5DFF838570C4649
:10DC700095F87210814210D2FFF7FBF9DFF8640BC0
:10DC8000DFF8643B04806420EA7942431878BDE8F9
:10DC900038404FF40071F6F76AB931BD38B5DFF896
:10DCA0004C5B0446286803E00188A1420AD0406822
:10DCB0000028F9D10820F4F78CFD18B104802968F8
:10DCC0004160286031BD70B5DFF8206B306882B0EC
:10DCD000002501E040686D1C0028FBD1EDB2680012
:10DCE000F4F777FD04001ED03068002105E00288BB
:10DCF000C9B224F81120491C40680028F7D1DFF888
:10DD00005C1AB1F86E00CA8A009490422B4601F169
:10DD1000390203D10021FFF742FE02E00021FFF7A4
:10DD2000B7FD00F049F9BDE8734006F067BC10B5D7
:10DD3000DFF8B84A03E041682160F4F7B0FD2068DD
:10DD40000028F8D110BD00005E740020607400202F
:10DD5000F8B5DFF85006DFF88C7A848C3988818436
:10DD60005020394600F0F8FE3D88002600F098FB70
:10DD70008E420FDA1C22DFF8EC19724388184189B1
:10DD8000A14204D0A94203D000F0D1FA00E04581BD
:10DD9000761CEBE7DFF8C85B3C88286870B106208A
:10DDA000F4F7F6FD50B1D521017084800021817017
:10DDB0000121C1702968BDE8F4400847F1BDDFF8D2
:10DDC0009C09C18A4FF6FE72914200D1704780B51E
:10DDD000807B810704D500F00FFBBDE8014021E006
:10DDE00001BD00002D41002010B5DFF8B80590F806
:10DDF000664094B14FF47A704443F4F7C7FDDFF8FE
:10DE0000642B118808400219DFF8DC090078BDE8AE
:10DE100010404FF48071F6F7C1B810BDDC4100200E
:10DE2000874300202DE9F84F05F013FE0027002559
:10DE3000002400260EE005F0F1FDF6B248B10179AC
:10DE4000002918BF042904D1807A00F0CDFB00B16D
:10DE50006D1C761CDFF8A00890F800B0F0B25845B1
:10DE6000E9D300F022FA8146002609E0304600F0AE
:10DE700041FA20B1807C00F0B7FB00B17F1C761C1A
:10DE8000F6B24E45F2DB7F19F8B2002842D0FFB25D
:10DE9000B800F4F79EFC04003BD0BA00FF21F4F771
:10DEA00047FD4FF0000A0026A046F0B258453EBF9D
:10DEB0005FFA8AF0E9B288426FD2F6B2304605F0D6
:10DEC000ADFD040011D02079002818BF04280CD122
:10DED000A07A00F089FB010007D00097627A2088C1
:10DEE000434600F06CF80AF1010A761CDDE7304683
:10DEF00000F000FA04000AD0A07C00F075FB0100DD
:10DF000005D00097627C2088434600F058F8761CC4
:10DF100044E00027DFF84408007B4FF0620820B19E
:10DF200007F08DF98046C8F154085FFA88F803209D
:10DF300098FBF0F6F6B2202EA8BF1F26A3460025B8
:10DF40005FEA08001CBF20254FF00008F9B28E429E
:10DF500031BFB246FFB2BA4645F040055A4629469F
:10DF6000504600F05DF8814668060BD4AAF1010026
:10DF7000C1B2002002E00BF1040B401CC0B2884289
:10DF8000F9DB7F1AB9F1000F01D16806D7D50CB1C2
:10DF900000F012F84846BDE8F28F0026F6B24E4572
:10DFA000A5DB4446B6E70000994300207E740020BC
:10DFB0003C7300200B1622002046F4F770BCF0B52D
:10DFC0000D460446164605991F46002000224FF6CE
:10DFD000FF7C02E038463F1D521CD3B28B421ED25A
:10DFE0003B88634518D010B10088A042F2D29C4211
:10DFF000F0D23B461888604504D0521C1B1DD0B29D
:10E000008842F7D3184633F8041D01809F4299785F
:10E010008170D978C170F5D33C80BE70FD70F0BDC1
:10E02000F8B5044604EB4400801C8DF801000E4650
:10E030001546FFF734FD012730B30269082111703E
:10E0400004F01F010E435670911C002212E02B8831
:10E0500001F8013B521C2B881B0A01F8013BAB78ED
:10E06000EE781B0106F0070603F070031E4301F86B
:10E07000016B2D1DD3B2A342E9D34FF6FC71418051
:10E08000877606F013FA07463846F2BD2DE9F843C5
:10E0900006460025B26A5478921C4FF6FE73270696
:10E0A000194604F01F002BD400EB400C377F0CF115
:10E0B000020C5FFA8CFC674522D118B113785778AF
:10E0C00003EB0723DFF86C79B7F81690AC4609E04C
:10E0D000D21C1FFA81F80EF0070EC84508BF75461E
:10E0E0000CF1010C5FFA8CFC844541DA117892F84E
:10E0F00001E001EB0E2192F802E01EF0880FE7D05C
:10E10000BDE8F243D32007F0E5B8B0894FF6FF71C0
:10E1100000F090F804000FD100F0A7F8040025D01B
:10E1200000F04BF8B0892080B88C6081AA20A074E0
:10E1300000F087FA01206074DFF8FC08227C017887
:10E140008A4204D300F033F82174B8BF454600205A
:10E1500020736574A01C07F0F2FB38B9307A28B13F
:10E16000B169A01CBDE8F443F4F71BBEBDE8F18320
:10E17000280006D1224689B298B200F022F8002881
:10E18000F4D0B08905F0B7FB002805F10108BCD038
:10E190000021C171DFF8A018027A09788A4204D3FD
:10E1A00000F005F80172B8BF45464572DEE7491C2C
:10E1B00001EBD1714910072D70471C220021F4F7A3
:10E1C000B7BB4FF6FE7310B598421CBF02F0600358
:10E1D000602B0ED0DFF85C38DB8A940607D4520639
:10E1E00003D5834205D2002010BD8342FBD3994260
:10E1F000F9D3012010BD38B50024DFF8685505E0DB
:10E200001C206043284400F092F8641CDFF8D0150D
:10E2100008788442F4DB0020DFF8201801EB80034B
:10E220004FF6FE725A80002201F82020401C02287E
:10E23000F4DD31BD30B502460023DFF82845DFF8B4
:10E2400000080578AB420EDA1C205843255A954247
:10E2500007D1204445898D421CBF4FF6FF75A94266
:10E2600002D05B1CEBE7002030BD38B54FF6FF71E4
:10E270004FF6FE70FFF7DEFFB0B900240FE01C225E
:10E28000DFF8E01462438D18AA7C002A1CBF697C69
:10E29000002903D1288802F08AF82846641CDFF898
:10E2A000A0170A789442EADB32BD30B50020002185
:10E2B000DFF8B02409E0C9B21C234B434FF6FE75CA
:10E2C000D45AAC4218BF401C491CDFF8744725786B
:10E2D000CBB2AB42EFD380B230BD38B504460D4669
:10E2E00003E000F024F829462046FFF7A3FF0028AA
:10E2F000F7D131BD70B500210022DFF8683401E0AC
:10E30000491C521CDFF838572E78D4B2B4420CD2D4
:10E31000D2B21C2454434FF6FE751E5BAE42F0D0C1
:10E32000CDB28542ECD1181970BD002070BD10B57A
:10E33000040007D0FFF741FF4FF6FE7020804FF634
:10E34000FF70608110BD38B5044600250AE01C212D
:10E35000DFF81004694308444189A14218BFFFF760
:10E36000E6FF6D1CDFF8D80601788D42EFDB31BD8A
:10E3700038B50446FFF771FC0D46002811BF01288F
:10E38000DFF8B0168A8C954205D1204605F0B3FA25
:10E3900008B1083032BD29462046FFF74BFF00B1D7
:10E3A000103032BD786C00202DE9F04700278146FF
:10E3B0008A46B846DFF8AC4300F072F8884518DAB0
:10E3C000380016D11C2606FB08F6A519A81C07F074
:10E3D000B6FA58B1A15B494508BF47F00A07514654
:10E3E000A81CF4F7D0FC08B147F0A00708F1010819
:10E3F000E2E7F8B2BDE8F0877CB50026DFF85C53B1
:10E400001FE005F00BFB04001EBF20790128022845
:10E41000F6B215D0E079411CE17195F867108142A0
:10E420000ED20020A0726072208801F0C0FF208808
:10E43000694607F0A0FA684605F08EFAFBF786FEFB
:10E44000761CAD490A78F0B29042DAD3002416E087
:10E450001C21C448614308444FF6FE720188914272
:10E460000CD0017B4A1C027395F867208A4205D2C2
:10E47000002181744174008801F099FF641C00F050
:10E480000FF88C42E4DB0021DFF8B02512F8210000
:10E4900010B1401E02F82100491C0229F6DD73BDAF
:10E4A000DFF89C0501787047B16C002004740020EF
:10E4B0002DE9F0478246884600204FF6FE749146CB
:10E4C000844601212546A74E10E0F4F75FFAC0B25A
:10E4D00090FBF7FC07FB1C0C5FFA8CFC04E0C7B256
:10E4E000012FF2D14FF0010C00200021002301E0A8
:10E4F000F55B5B1CBA4A1278934248DA1C2202FB95
:10E5000003F7F25BA24218BF5245F2D042451FBF4B
:10E510004A45F219527C002AEBD0072AE9DCE7D001
:10E52000401C0029E5D1C0B26045E2DBF05B2CE085
:10E53000BEF800505B1C704A127893422FDA2427F1
:10E54000DFF81CE25F43BE44BEF80020A24218BFC1
:10E550005245EFD042451EBF4A459EF80920002A89
:10E56000E8D0072AE6DC9EF80420012A18BF022A18
:10E57000E0D09EF80920072ADAD0401C0029D9D122
:10E58000C0B26045D6DBBEF80000BDE8F087DFF81A
:10E59000B4241278002A14BF012A0023CBD0C1B2C0
:10E5A00011B1BCF1000F9AD0A54214BF28462046F5
:10E5B000EBE72DE9F041044688460027694D00E06D
:10E5C0007F1CDFF87C140A78F8B290420AD2FFB2BE
:10E5D0001C267E43A8194146801CF4F7D4FB002872
:10E5E000EED0AC53BDE8F081014607200D2901DBD8
:10E5F00001207047072901DB03207047032901DB55
:10E600000520704701B900207047F8B505460E4651
:10E610001746FFF72AFE040012D0FFF7CEFD3800A0
:10E62000258008BF0127DFF80C046681A77490F8E5
:10E630006C1001290CBF00200720607400F001F865
:10E64000F1BDDFF8F4030078401C00EBD0704010FF
:10E65000207470471C162200F8B505460026414C70
:10E6600015E01C207043215AA94207D04FF6FF72D3
:10E6700095420BD14FF6FE72914207D02718B81C75
:10E6800007F05DF910B93846FFF751FE761CFFF729
:10E6900007FF8E42E5DBF1BD4FF6FF70DCE7DFF8E8
:10E6A000A8030FF2150141600FF2310181600FF2F2
:10E6B0004D01C1607047000080B5DFF890231368FA
:10E6C000997941B9C2681968407805F0B0FEBDE893
:10E6D000014005F093BF01BD88430020DFF85403DB
:10E6E000B0F87010491CA0F8701089B2002904BF5E
:10E6F0000120FFF773BA7047F415220010B5DFF858
:10E7000050330A46197882B009B9E12A25D1018926
:10E71000124A491C018189B231B90020A2F8700067
:10E720000120FFF75BFA13BDCA490878A8B1B2F817
:10E730007040A04211D20020FFF750FA64214143FB
:10E7400091FBF4F11A2908DBC349096829B1ADF836
:10E750000200ADF800406846884713BD786C002081
:10E76000A46300207868002000B583B069460022C9
:10E77000C1E90022F4F707FB012801D100200EBDFA
:10E7800001200EBD10B53A2B18BF3B2B1C4607D1FC
:10E7900013460A4601462046BDE8104004F0A0BEDC
:10E7A0000A2010BDAD48AE490160AE494160AE4996
:10E7B0000A78D3070ED50FF2151181600FF23111CF
:10E7C000C1600FF2B51101610FF21D2141610FF21D
:10E7D000210181618068002818BF00477047000050
:10E7E0000316220058740020BC73002024740020FB
:10E7F00070B58AB0022105468DF8051001A8FEF714
:10E80000F7FD040060D020698A4E04210170602168
:10E8100041700120A076A077FEF7E2F96062658082
:10E82000E07E20B93178E1763078401C3070217E6E
:10E8300001290AD18D4A107828B1F17A002904BF44
:10E840002078002801D10021217669462046FDF775
:10E85000EAFF050036D02420F3F7BBFF029070B327
:10E860002422FFF7ABFC0DF10201502000F066F905
:10E870000299BDF8020048810221F08AADF820001B
:10E880000298017302980172029861880180012048
:10E890000299C88102999DF80000C8770299607DAD
:10E8A000487302980562E18AADF81210607D8DF818
:10E8B000140002A8F8F70EFD0298F3F7F0FF2846BF
:10E8C000F3F7EDFFFFF778FB0AB070BD38B5002411
:10E8D000674D07E0E4B20422FF2105EB8400F4F762
:10E8E00027F8641C63490A78E0B29042F2D331BD44
:10E8F0002DE9F04184B000274E4CDFF874814FF6CB
:10E90000FF755C4801788F4227DA38F82710A94252
:10E9100021D008EB8706708888B1281870800A21FA
:10E9200080B290FBF1F10A2202FB110098B902209B
:10E930008DF8080000F018F800F09DF90BE00222B5
:10E940008DF8082000F010F800F097F90422FF215C
:10E950003046F3F7EDFF7F1CD3E7BDE8FF810000F1
:10E96000087400201416220038F82700A18CADF896
:10E970000000684670470000FEB5044602202D4F97
:10E980008DF808000E46B98CADF80040684600F0DE
:10E9900072F9FF251A281AD03649354A097800201D
:10E9A00003E0FF2D08BF0546401C884211DA32F80B
:10E9B00020304FF6FF7C6345F3D0A342F4D1911C85
:10E9C00021F820600DE0B98C684600F056F900206F
:10E9D000FEBD06D1FF2DF6D022F82540901C20F870
:10E9E00025600120FEBD00003EB52249204B09787C
:10E9F00004460020884209DA33F820204FF6FF75DC
:10EA0000AA4201D0A24201D0401CF3E788420FDAAB
:10EA10000422FF2103EB8000F3F78AFF02218DF827
:10EA20000810ADF800400348818C684600F025F9D5
:10EA300037BD0000786C0020061622003C730020D1
:10EA400003162200DC410020A87200204074002040
:10EA50000C1622009643002008710020AC710020A3
:10EA6000D93A21006B3B2100884300207B430020E2
:10EA700040720020161622002DE9F041002788423E
:10EA800005460E4603D004F013FC804608B9012762
:10EA900025E0304604F00CFC01001CBF304604F0B9
:10EAA00059FD00224146304604F0E2FBB8B1404631
:10EAB000F3F78FFE040011D023464246002128467A
:10EAC00004F00EFD30B9234642460021304604F0E2
:10EAD0000EFC00B10127FFF76FFA00E0102738465F
:10EAE000BDE8F08110B5F3F769FBF2F7D7FDF1F758
:10EAF000A7FF012000F006F80446FF20F4F79DF878
:10EB0000204610BD38B5010018BF01210846F3F7B3
:10EB100011FB044600208DF8000069465620F4F7EA
:10EB200007FD6B496B4DE220F4F702FD686818B1F0
:10EB3000F3F7B5FE00206860204632BD80B5E228BC
:10EB40000A4605D162491046F4F72BF9002002BDB0
:10EB5000BDE80440F4F7CDBC38B504460D46E22CC0
:10EB600004BF5B48F4F71DF929462046BDE8344050
:10EB7000F4F7DEBC80B500210172F2F7D9FD002068
:10EB800002BD00210172F1F7A9BF38B500F099F874
:10EB900008B1FC2032BD207903280DD068B91B20B4
:10EBA000F3F717FE686098B11B220021F3F7C0FE4F
:10EBB000686800F10B01A1618EE0E0790028FBD0CC
:10EBC00024214843F3F705FEA06100286860F3D1D3
:10EBD0001A2032BD10B582B0012204468DF8002003
:10EBE00069465220F4F7A4FC0022627584F82020C4
:10EBF0002046F1F778FF002016BD80B50021017591
:10EC0000F2F79AFD002002BD70B505460E466A7FF8
:10EC1000297FE87FF2F766FA040023D01422294600
:10EC200004F13000F3F76CFEEA7F296A6068F3F7BD
:10EC300067FE0B2205F1140104F12400F3F760FED6
:10EC400030001CBF207A002807D0616829B1B04786
:10EC500018B12046F3F7AEFE04E02046F2F70CFAB6
:10EC6000002070BD1A2070BD0021CDE780B501F0F5
:10EC7000B3FC002002BD01F0CABC01F05EBD80B54E
:10EC800001F070FD002002BD38B504460D4600229B
:10EC900000210020F2F726FA80B100F12C010222B7
:10ECA0000A740A738C8000224A74CD8131224A8210
:10ECB00000220A70BDE83240F2F7DEB931BDF2F74A
:10ECC000D9BD0446034D206828606868704700007D
:10ECD0006C730020A47300200021A1712046F3F77B
:10ECE0003BFC002032BD000038B501F07AFB00216A
:10ECF0004FF6FE7009E0DFF8FC2A02EBC1020023A8
:10ED00005080537053601370491CDFF8802B1378C8
:10ED10009942F0DB002108E00A22DFF8743B4A4305
:10ED20001A44002350801372491CDFF8982B137883
:10ED30009942F1DB0021DFF8902BDFF8904B03E0E4
:10ED4000C9B222F83100491C2578CBB2AB42F7D3C7
:10ED5000DFF87C0BDFF87C2B0178DFF8DC0B11701F
:10ED60004FF47A72BDE8384000781021F5F716B9F3
:10ED70002DE9FF4706460D46E8079146DFF8587B28
:10ED800008D5A8074FF6FC7654BF45F0080545F0B6
:10ED9000100530E0304601F081FAF98A884205D04A
:10EDA0002A460221304601F041FA08B9002069E004
:10EDB0002B4602224FF6FE71304600F03FFC002841
:10EDC0005FD105F0DF05680615D402A9304606F0CC
:10EDD000D2FD45F0200868B9B98C3046FFF72AFA11
:10EDE000040008D0A01C06F0AAFD20B1A11C02A8B6
:10EDF000F3F7D7FF4546DFF8444BFB8A94F800A0B1
:10EE00000120009000225146184600F0FDFE0AF154
:10EE100001012170A8BBA8064CBF0E2006208DF86A
:10EE2000050001A8FEF7E4FA040028D00120A0772D
:10EE3000FDF7D6FE606201212069017005F07801BE
:10EE40004170C67000214171360AA90680F802A0FF
:10EE5000067103D502A9801DF3F7A3FF4FF6FD70DD
:10EE600060805FEA090006D0DFF8A41B0A789145AC
:10EE700038BF84F81A90204605F018FB02E01020F5
:10EE800000E0C72004B0BDE8F08710B5DFF8A84A5D
:10EE900020784FF48051F5F7B2F820B1DFF8740B09
:10EEA0000121017010BDDFF8701BDFF8700B0B78CB
:10EEB0000278012B0CBF012103210020FFF758FF2E
:10EEC000DFF85C0B02882078BDE810404FF48051D9
:10EED000F5F74DB82DE9F84305460E461746984616
:10EEE000FEF7B4FA10B14FF6FF7046E0DFF8340BCE
:10EEF000017802293DD1DFF8302B1178284601F046
:10EF000013FBA0BB00F0ABF8089901F055F9040021
:10EF10002FD0607901284FF6FE791AD1A179608847
:10EF200011F0180F0ED0DFF8042B117821718642F2
:10EF30001CBF8742804509D1424639463046FFF71B
:10EF4000B7FA03E0DFF890190A7D2271484506D030
:10EF500013E0032806D0042808BF48460DD0607986
:10EF6000022806D00721284601F0DEFA08B128461B
:10EF700003E02846BDE8F24301E0BDE8F28310B5A6
:10EF8000044604F092FC18B9204604F0AAFC08B12B
:10EF9000204610BD4FF6FE7010BD2DE9F843054622
:10EFA00088469146FEF752FA0026002854D100F018
:10EFB00056F8494601F000F9040020D06079032892
:10EFC00015D1A079022710F0180F30D1002140464A
:10EFD00001F064F9DFF80019CA8A904231D1DFF8F4
:10EFE000240C027849462846FFF7C2FE33E0012888
:10EFF00032D16088072101F097FA68BBE1E7284623
:10F00000FFF7BDFF04F077FC30B34179CA0723D581
:10F0100001278A0707D501222946404600F0F0F96A
:10F020000028D3D118E041F002014171CEE7608899
:10F0300000904FF6FE7300222946404601F092F9F7
:10F0400009E03A462946404600F0DAF920B9494637
:10F05000284600F0A5FD01263046BDE8F2830021D8
:10F06000284601F01BB92DE9F04FDFF86C6889B034
:10F0700088460546B18C91464046FFF779F9040071
:10F080004FF0060A02D06078002864D0A86A90F891
:10F0900001B081788DF80C10C778007907EB002754
:10F0A000404600F092FDA96A4A7980188DF8040064
:10F0B0005FEA8B6048BF4FF00E0A1BF0870F06D146
:10F0C0000BF01800182802D0297F514503D0D32017
:10F0D00006F000F93FE0002000F08DF803280BF067
:10F0E000780B38D04FF6FF7A88BB1BF0180F34D05E
:10F0F0004BF0010B5FEACB6048BF4BF0020BA889D5
:10F10000594601F059F800281CBF817911F0180FF9
:10F110000FD0417901290CD15CB1B18C4088FFF747
:10F1200027F900281CBF4078002802D06178884267
:10F1300011D300F069F850B9A9F800A00021287A8D
:10F1400000B1A9699DF80420A88905F06EF9B9F805
:10F150000000504510D000204AE0707B08B100F05C
:10F1600053F85B4600224FF6FE71B8B200F066FA23
:10F170000028ECD1A9F800A0012000F03CF8594685
:10F18000B8B201F08BF8F18A88422BD1B8B204F002
:10F19000B2FB48B10079012818BF022804D104A9A4
:10F1A000B8B206F0E8FB05E0FDF71AFD014604A839
:10F1B000F3F7F7FD287A012803D1A96906A8F3F728
:10F1C000F0FDA86A9DF80C30417804A841F03001A8
:10F1D000019006AA029100920022A889B9B200F01B
:10F1E000A1F8B8E7A96A9DF804004871FDF70DFD84
:10F1F00009B0BDE8F08F00909DF804209DF80C1038
:10F20000A889434600F000BDA8895B46012241461B
:10F2100014E22DE9F04F0646DFF8BC960846B9F82F
:10F22000241087B0FFF7A4F8082458B1417849B9F1
:10F23000DFF87C2B1178491C01EBD171491001706A
:10F2400007214170B16ACD7808794A794F7891F8F1
:10F25000028091F807B005EB0025887902EB002ABF
:10F26000F80648BF1024B80644BF0834E4B237F0AB
:10F27000700004BF327FA24203D0D32006F02AF8E8
:10F2800047E007F07007FA0606D5083105A8F3F73E
:10F2900088FD082007F0EF07B90608D5B16A0844D1
:10F2A00000F1080103A8F3F77CFD07F0DF074146F2
:10F2B000A8B200F068FFDFF80C26117888420CDA5B
:10F2C0000A214843DFF8C8158B1D1B5C9B4520D2E3
:10F2D000891D01F800B0002000E00420B9F81620D4
:10F2E000A9B2914213D018B900F016F888B901E01C
:10F2F00004280ED103A805A9019000910297434666
:10F300005A461FFA8AF1A8B200F00CF801E000F0AA
:10F3100003F807B0BDE8F08FB1893B4601221FFA20
:10F320008AF08BE12DE9FE4F8B46994606469046C2
:10F33000494600F028FFDFF88C251178884207DA6B
:10F340000A21DFF84C3548431844B0F804A001E026
:10F350004FF6FE7A08200E9D8DF80100E80644BFA6
:10F3600010208DF80100A80604D59DF80100083092
:10F370008DF801006846FEF73BF804003ED00120FE
:10F38000A077FDF72DFC606201A9504606F0F3FA64
:10F3900018B10120607701A806E0E80605D55645BA
:10F3A00003D1012060770C98206227690220387011
:10F3B0007D7087F80290FE704FEA1B20360A3E717E
:10F3C00087F805B0B871504600F0FFFB4044F87173
:10F3D0000020E90605D50C9907F10800F3F7E1FCD8
:10F3E0000820A90605D50D9907F108021044F3F786
:10F3F000D8FCA4F802A0204605F058F8BDE8F78F25
:10F40000F8B5DFF8D4640C46F18A01258842074636
:10F4100004D000232146FEF79BF90546002138461B
:10F4200000F03CFFF18A884217D10021204600F00D
:10F43000C3FE00281CBF817911F0180F09D04FF6C8
:10F44000FE72009200224388F18A008800F08AFF51
:10F4500003E00121204604F0D8FF2846F2BDF8B5AC
:10F46000DFF8D444DFF84C5B20781021F4F7C7FDB7
:10F4700028B920784FF47A721021F4F78FFDDFF865
:10F4800054040178491E0170C9B229BBDFF8402439
:10F4900011780170002205210020F5F701F8040021
:10F4A00019E0002205212046F4F7FAFF06462089DC
:10F4B00080B1401E208180B260B9A07A410744BF6C
:10F4C000207B00F079FD06206073F0212068407BEE
:10F4D000F6F7C7FC3400E4D100264FF6FE741AE0BC
:10F4E0002879002818BFFF2813D0401E2871C0B209
:10F4F00078B96879032804D1298868880222FFF73F
:10F500007FFF6879012804D02C8000216C8069710C
:10F51000A971761C0835DFF8C81A0A78F0B2904253
:10F52000DED300260FF259050AE0F5F70FF8394649
:10F530002846F4F7E4FF0028F7D17C803870761C69
:10F54000DFF8800301788E420BDA0A22DFF84013DD
:10F5500072438F18387A401E3872C0B20028EED13C
:10F56000E5E70021A34A06E012F8310010B1401E81
:10F5700002F83100491CC54803789942F4DBF1BD1B
:10F5800030B50C4600258DB0002C1EBF0168086AFE
:10F59000002814D0C97F6A46FDF70FFABDF80C00A9
:10F5A0006188884204BF9DF80200012807D10A98AB
:10F5B0000178012901BF80782178884201252846F9
:10F5C0000DB030BD10B550B900F011F804464FF63B
:10F5D000FE718C4207D1DFF8DC1B087818B10120DE
:10F5E00000F005F80446FDF7E5FC204610BD30B5F7
:10F5F00085B0B94CF3F7CAF9E18A88420546F9D0DB
:10F60000FDF7FBFA8542F5D02846FDF71FFF0028DD
:10F61000F0D12800EED000208DF80000ADF80250A7
:10F62000684606F004FA0028E4D14FF6FE708542E1
:10F63000E0D0284605B030BDFDF7BCBC2DE9F04E4A
:10F6400005464FF6FC7085420C4617461E465BD0B9
:10F6500000212846A04D00F021FEE98A8842834619
:10F6600001D1700650D53146584600F0A5FDDFF8AF
:10F670007019DFF840A991F8009000284BD10021C3
:10F680004FF6FE7000F098FD002844D116F0180FD8
:10F690000BD048453BDA0AF1060212F8302012F08E
:10F6A000180F18BF401CF4D131E002202DE0297D55
:10F6B00047E04279012A27D0837913F0180F08BF59
:10F6C000E97C017147711FE0C0B20AEBC0013388C9
:10F6D0004A889A423ED0401CC1B24945F4D339D140
:10F6E0001C2200213046F3F723F93480A88C708166
:10F6F000AA20B07401207074DFF8B4060078401CB2
:10F7000000EBD070401030740020BDE8F08E48450A
:10F71000CBDA0AEBC0004FF6FE71A0F800B08C42C5
:10F7200018BF4480F10748BF46F00406BF49867100
:10F73000012F0978BDD101224271827912F0180F90
:10F74000B5D001712046A98CFEF712FE0028DBD14E
:10F75000002700E07F1CDFF8D00A01788F42D3DA5F
:10F760001C22DFF8F41B7A4300208E18B4E7F8B5AA
:10F770000C46DFF8241B15460A789442064601D34E
:10F780000520F2BD2A462146FAF7FDFC304600F07E
:10F79000A5F83E490F78B84204BF4FF6FE7000F05E
:10F7A0009DF8B84223DA134901EBC007786808B125
:10F7B000F3F775F8200006D06000F3F70AF87860D8
:10F7C00018B90120F2BD002078607E807C70DFF8DF
:10F7D0008C1B08783870787800281CBF786800285F
:10F7E00003D062002946F3F78BF80020F2BD072012
:10F7F000F2BD00005C6D00202DE9F8430D46DFF8F6
:10F80000981A90460A780446954228BF052038D2B7
:10F8100000F064F81D49DFF8F49B0E78B0424FF613
:10F82000FE7713D1384600F059F8B0420ED199F85E
:10F8300000200020012106E019F8313093423CBF3E
:10F840001A460846491CB142F6DBC0B209EBC006B5
:10F850007780706818B1F3F722F8002070602800F4
:10F8600008D06800F2F7B5FF706060B16A004146E9
:10F87000F3F746F874807570DFF8E00A01783170AC
:10F880000020BDE8F2830120FBE700000116220002
:10F89000C86E002038B50C46154600F01FF8DFF89A
:10F8A000C02A13789842014609D2DFF8600B00EBBA
:10F8B000C1004178217040682860002032BD0420DA
:10F8C00032BD000002162200B06F0020091622008F
:10F8D000F815220081740020786C002038B5DFF81C
:10F8E000801ADFF8282B097800248C420DDA931C4B
:10F8F00033F83430834218BF641CF6D105E0287811
:10F90000002818BF641C07D10AE08C4204BF4FF6E0
:10F91000FE7398420DD100248C4202EBC405EEDB4D
:10F920008C4206DA68686B8018B1F2F7B8FF0020E5
:10F930006860E0B232BD0000BC730020807400201B
:10F940002DE9F043064685B0B06ADFF8C49A4478E2
:10F950009CB1DFF844190A78801C944255DA0021E2
:10F9600007E00378457803EB052329F81230801C63
:10F97000491CC9B20A46A242F3DBDFF8A80BC28ACF
:10F980007089904206D1B0894A46214605B0BDE84B
:10F99000F043ECE6B17CC1B30027A046002100E0B3
:10F9A000491CC9B20B46A34205DA39F81330934219
:10F9B000F6D188460127002100F0FEFB050014D097
:10F9C0006879012811D1A97911F0180F0DD06A8832
:10F9D0004946204600F01EFD08B9012F05D1B08927
:10F9E0004A46214600F026FD6880B37C581EB0745C
:10F9F000CDF8089001200390CDF80480F07C0090B1
:10FA0000B269B189708900F013F805B0BDE8F083E0
:10FA100012162200BD73002075740020854300205B
:10FA20000E16220084430020071622001016220022
:10FA30002DE9F04782B080460D9F0B9C38001ABF1D
:10FA40006000001D02208DF80100894616469A4686
:10FA50006846FDF7CDFC05003DD0A5F80280A5F86D
:10FA6000049085F81AA00A98E876A87F012809D1A1
:10FA7000FDF7BFF8A988814204D0002E12BF6E6244
:10FA80000020A8772969052008700FB94C701FE085
:10FA90000C98621C4A708E1C00210C900CE00C9893
:10FAA000028806F8012B491C0C9A921C0C9232F821
:10FAB000023D1B0A06F8013BC8B2A042EFD3FDF796
:10FAC00098F806F8010BFDF794F8000A06F8010B08
:10FAD000284604F0EBFCBDE8F38701EB400030F86A
:10FAE000020C7047F8B50D46DFF8AC1716460A78D9
:10FAF000904204460DD20027F8B2A0420BD2FDF787
:10FB000078F8FFB236F81710814218BF7F1CF3D186
:10FB100001E00020F2BDFFB2AF42FAD10120F2BDF8
:10FB2000F0B589B005460E461446FDF78FFC002758
:10FB300008B1002032E0FFF792FA214600F03CFBCA
:10FB400004002AD0A079410727D5FDF752F8864254
:10FB500008BF03970FD0304603F0B5FE012815D13A
:10FB600004208DF81000ADF8126004A805F05FFFC6
:10FB700001280BD10390DFF8E80903780297019779
:10FB8000009705AA31462846FFF752FFA079810762
:10FB90005CBF00F0FB00A0710127384609B0F0BD42
:10FBA00010B50C46002100F079FB214600F004FB63
:10FBB00048B14FF6FE710180418000210171417111
:10FBC0008171002010BD042010BD70B5DFF894696C
:10FBD000327A0725A2B9B18CFEF7CAFB04000FD018
:10FBE000717BA078012905D1FEF7FEFC657885427E
:10FBF00003D201E0FEF7F8FC0546280008BF072500
:10FC0000284670BD111622002DE9F84F0A9C804647
:10FC10008A4617461D4600F0B6FADFF84C19DFF8A1
:10FC20004CB991F800900A2648450ADA70435844C6
:10FC3000C279974203D2E4B1C771858019E00320ED
:10FC400018E000214FF6FE7000F09DFA484508BF0D
:10FC500002200FD06CB170435844FF21A0F80280FD
:10FC600085808171C77180F800A0DFF8F818CA7C20
:10FC700002720020BDE8F28F38B502460846002126
:10FC80005171DFF8EC28DFF8EC38127800E0491CFD
:10FC9000CCB29442C9B207D25C5C057BAC42F6D1CF
:10FCA000BDE83240F4F768BC04D10621417300215D
:10FCB000006840E031BD38B50546A878411EA970FE
:10FCC0006879F4F7FFFB040034D0A87850B9617B61
:10FCD000022904D006206073F02120682BE0062062
:10FCE000607331BDA879E8B1287918B3E978491E65
:10FCF000E970C9B2F1B9DFF86C184A78EA70401EB1
:10FD00002871617B032915D1C0B270B104206073E2
:10FD1000F2F73CFE00F00F00401C20812021BDE8DE
:10FD200034402BE2607B032804D121462846BDE8FD
:10FD30003440A1E731BD407BBDE83440F6F791B8CF
:10FD400010B5002200240AE0E4B2DFF82C0800EB32
:10FD5000C400817811B1FFF7AEFF0122641CDFF807
:10FD600010180B78E0B29842EED3DFF810482078F4
:10FD700052B14021F4F743F9C8B92078BDE81040EA
:10FD800064224021F4F70AB94021F4F720F9DFF8A2
:10FD9000F007017801290AD100220270DFF8E40798
:10FDA000007805F09CF8BDE81040FAF7CFB910BD17
:10FDB0000616220070B50C460246DFF8BC5700213B
:10FDC0000BE0E879D37C984202BF28889389984257
:10FDD00001D1A87820BB491C0835DFF894070078CA
:10FDE000CBB28342EDD31BD1002070BD491C8142B0
:10FDF0000BDA24234B43D6183679FF2EF6D0D35A8C
:10FE0000A342F3D1A9794A1EAA71DFF81C24117804
:10FE10004018A9798842BCBF0020A871012070BD9C
:10FE2000A8790028FAD0DFF8FC26918C2046FEF74E
:10FE300001FA10B1A879411EA9710021DFF8480725
:10FE4000DFF848270078D2E72DE9F0478146DFF850
:10FE5000D80382B003788DF8003001270D4607FAE9
:10FE600003F8DFF8141700260027DFF8040790F8DE
:10FE700000C067457DDA887800281CBF7F1C0831E8
:10FE8000F3D176E02F468E710025DFF898E6DFF893
:10FE9000FC46DFF8F40603789D426EDA24206843BE
:10FEA000235ABB421CBFBEF816A0534514D02044B1
:10FEB0000079042818BF00280BD0012811BF03289F
:10FEC000B9F80A004FF6FF73984205D148EA0606D2
:10FED00002E08B795B1C8B716D1C4FEA4808D8E7F8
:10FEE0001C21DFF8740471430844018849451CBF94
:10FEF0004FF6FE75A9420DD04189BEF82450A942A3
:10FF000008D1417C00291CBF807C002802D0B9792F
:10FF1000491CB971761C9DF800008642E0DBDFF8D1
:10FF20007006BD790078A84238BFB871B87900284A
:10FF30001CBFA57C012D0EBF00209EF80200401CB6
:10FF400038719EF80700B8709EF80100F870A0891B
:10FF500038807A71E07CF871E3B10027DFF814167D
:10FF6000674510DAC85D70B1904218BF7F1CF7D1A9
:10FF700009E0674586D1002019E04C46B946334672
:10FF80000F460026C7E7674504DACA55DFF80406BE
:10FF900040F827304021DFF8E4753878F4F72FF87F
:10FFA00020B9387864224021F3F7F8FF0120BDE83A
:10FFB000F6870000386A002030B50021DFF8B4254C
:10FFC00000E0491CDFF8A8452578CBB2AB4205D24A
:10FFD000C9B2535C8342F4D10020505430BD0000BC
:10FFE00000162200F8B50446A07A02285FD1DFF897
:10FFF000A815DFF8A825A07B0B7892F800C0002890
:020000040021D9
:100000003AD1DFF89C15096800291EBFDFF8945526
:10001000286800282AD0DFF890653268002A1EBFC1
:10002000DFF888753868002820D0012B1ED15FEAE0
:10003000CC701BD560888847C0B9DFF87405DFF83D
:10004000741500782A6800280FBF096851F820103D
:100050003C20414360889047012828D1608831685E
:10006000884760883968BDE8F44008476088BDE883
:10007000F840012201211BE0DFF83C150868B0B10F
:10008000012B14D15FEACC7011D50420F2F780FC6B
:1000900068B164210170012141706188418001468D
:1000A000BDE8F440DFF8D4040078F2F792BCF1BD6B
:1000B0002DE9F04782460D469046F4F70EFA04000B
:1000C0004DD1002D4FD05848DFF8C02400780121D1
:1000D00001FA00F00027002101E0491C4000DFF890
:1000E000A8341D78A94209DA24234B43D5182D7969
:1000F000FF2DF2D0D35A5345EFD107460026DFF843
:100100009454DFF870940020DFF864140C78A64251
:1001100024DA19F8061000291CBF55F826203A42A7
:100120000ED00846F4F7CEF908B9002008E0417B6C
:100130000529FAD155F82620BA4345F82620264647
:10014000761CF6B2E0E72068A0F800A001206073FA
:100150002021BDE8F04711E0BDE8F087044614B166
:10016000607B0528EFD0B8F1000FF5D05046BDE810
:10017000F047DFF8F013898CFEF786BDDFF8FC034B
:100180000078F2F71CBD30B502460020DFF8DC3302
:10019000DFF8D4432578A84209DA0A2444431D191C
:1001A0006D88954206BF1C5D8C42401CF0D1C0B2E8
:1001B00030BD00000A162200F8B5DFF80024DFF891
:1001C0000064157801F0400100244FF6FE73AC4244
:1001D00018DA36F83470874208D1984212D006EB0C
:1001E000C407BA7902F040028A4218D0641CEEE7D4
:1001F00006EBC4021079002818BF641C07D108E080
:100200000020F2BDAC4208BF984208D10024AC42A5
:10021000EEDBAC42BCBF36F83400FFF7C1FCAC42A9
:10022000EEDA06EBC400F2BD03162200F8B5044670
:10023000DFF8900307780D46012D164604D13946A4
:10024000204600F071F920BB0021204600F026F87E
:100250003146FFF7B1FF012D05D010B14079A8421A
:1002600017D00120F2BD20B14179A94208BF4588CD
:1002700005D07006F5D401E0A542F2D025464FF630
:10028000FE708542EDD03946284600F04DF9002831
:10029000F2D00020F2BD00000416220038B504465A
:1002A0004806A04D07D52146FF2005F0D7F990B9A3
:1002B0004FF6FE7032BDDFF810030078002818BF3B
:1002C00001280AD1204603F016FB30B1007901283D
:1002D00018BF022801D1E88A32BD204632BD70B570
:1002E000022882B00D4614461E4615D0042818BFB9
:1002F00001280FD1324601212846FFF797FF48B168
:1003000054B12846FFF7EAFA15490A78904203D219
:1003100001202070002076BD00212846FFF74CFF09
:1003200000281CBF817911F0180F0BD04FF6FE7218
:10033000009243887B490088C98A002200F012F8A5
:10034000012076BDA148027831462846FEF710FD0F
:100350000028DFD1F4E70000786800208643002001
:1003600001162200F8B505460E461F4612B10023BD
:100370000B2216E000213046FFF71EFF040015D0C7
:10038000A079C10712D506982A463946FEF790F89B
:100390004FF6FE71884209D0608000230C22294666
:1003A000304601B0BDE8F040FDF7D2B9F1BD30B53F
:1003B000834900220FE08B79DC070AD44B88834203
:1003C00004BF4B79012B04D103244FF6FE734C710B
:1003D0004B80521C0831794C2578D3B2AB42EAD31A
:1003E00030BD30B57648754C00214FF6FE7207E0FF
:1003F000028000234280037143718371491C0830DD
:100400002578CBB2AB42F3D330BD00005C6D002049
:10041000F871002010B5002300E05B1CDCB28442C0
:1004200006D2DBB231F813409442F6D1012010BD60
:10043000002010BD2DE9F84F81468A4693460026DC
:1004400000240120DFF888810EE0F2F79FFAC0B2A5
:1004500090FBF6F406FB1404E4B203E0F6B2012EBE
:10046000F3D10124002600200027009000E07F1C2B
:10047000584801788F4249DA1C257D434FF6FE70BB
:1004800038F80520824218BF4A45F0D059465046F8
:10049000FFF7C0FF0028EAD108EB0500407C0028E8
:1004A000E5D00728E3DA0098761C0028DFD1F6B201
:1004B000A642DCDB38F8050032E07F1C32480178C8
:1004C0008F4227DA242231497A438D184FF6FE7085
:1004D0002A88824218BF4A45EFD059465046FFF756
:1004E00099FF0028E9D1687A0028E6D00728E4DAE5
:1004F0002879012818BF0228DFD00098761C002830
:10050000DBD1F6B2A642D8DB288809E0009800903B
:100510000027D3E7F0B208B1002C9FD04FF6FE7051
:10052000BDE8F28F786C002070B50E4E0D46B18C90
:10053000FDF71EFF040011D0A078FEF755F8014624
:10054000607858B10A0009D0727B012A02D1884232
:1005500038BF0846854201D3012070BD002070BD20
:1005600012162200786C002002162200C86E0020AD
:100570000916220000730020B06F0020BC73002019
:100580007A7400207B740020F4152200A4630020FC
:1005900008162200687100208C4300208843002048
:1005A000B0710020BC710020C4710020C071002017
:1005B0008A4300201C162200AC7100200016220085
:1005C000386A002007162200DC41002011162200A4
:1005D0007868002003162200B548002101600168F8
:1005E00041F009010160426A42F0200242628168E2
:1005F00041F001018160816841F002018160816800
:1006000041F0040181600120AA49087070472DE97A
:10061000F041040084B00F4604D0207A022818BFAD
:10062000032801D0E82080E0204600F0BFF8FF2832
:1006300018BF1E2079D1257A00F029F9064600F06E
:100640002BF9022D40EA060129D1002505EBD571D1
:100650004910490020FA01F2D30703D426FA05F124
:10066000C90702D56D1C182DF0DBEDB2182D20D175
:10067000207A022822D0217A8F48022920D18DF8B1
:10068000047001A93F0A4F7000EB051022888A70A0
:100690002288120ACA700422F4F776FA16E00025BE
:1006A00003206A0090400142DFD06D1C0C2DF7DB67
:1006B000DBE70C2D04BF207A0328DCD11A2034E0BC
:1006C0000822214600EB4510F4F75EFA207A012754
:1006D00002280AD1DFF8E48100F02AF8032102A8F9
:1006E000F2F737F907FA05F60FE0DFF8D48100F0EA
:1006F0001FF8032102A8F2F72CF969006E0007FA2F
:1007000001F1761C084307FA06F646EA000168463E
:10071000F2F7FAFA032269464046F4F735FA227AEC
:100720000121284600F081F8002004B0BDE8F081E6
:10073000032202A94046F4F731BA10B5040009D0EB
:10074000207A022818BF032804D1204600F02EF892
:10075000FF2801D1E82010BD227A002100F065F8C1
:10076000002010BD0128574904D10A6842F0040254
:100770000A6004E00B6823F0040300200B60524978
:100780000870704750480178012901D1FE20704758
:10079000FF2070474C49087808B1012070474B4949
:1007A00008680006800F00F0010070472DE9FE4345
:1007B0000646307A022811D18DF800100424090A67
:1007C0008DF80110012531888DF802103088000A5B
:1007D0008DF803006E4600F05AF803E000F05CF874
:1007E000082402258046002728FA07F0C00713D501
:1007F00097FBF5F95FFA89F904FB09F32E482246C5
:1008000001A900EB8300F4F7C9F9224601A930469B
:10081000F2F780F8012806D0EF19FFB2182FE3DBBA
:10082000FF20BDE8FE834846FBE7F8B504460120FB
:100830006500012900FA05F500FA04F4244E254F5D
:100840000BD1022A04D100F022F844EA00010AE0A8
:1008500000F022F845EA000110E0022A0AD100F077
:1008600016F820EA04016846F2F74EFA03226946B8
:10087000384609E000F010F820EA05016846F2F772
:1008800043FA032269463046F4F77EF9F1BD80B59C
:10089000032269460F4803E080B5032269460C48ED
:1008A000F4F77CF903216846F2F753F802BD000023
:1008B0000086084065740020008408409C8508403C
:1008C0009085084028860840667400208C85084082
:1008D000188608400C86084010B51248124C016872
:1008E00041F04501016011480168122912D21048F7
:1008F000C18C01F0FF022262090A6162418D01F0A0
:10090000FF02A262090AE162082200F13C012046CE
:10091000F4F73AF90020A065A06D40F00900A06549
:1009200010BD000094860840A88508405C73002034
:10093000F06C002080B5F2F73BFA49490A79401E75
:100940008041C00F052A03D108B1F2F72DFA81E0EA
:1009500008B1F2F729FA002002BDC01C80B2F2F7FC
:1009600017B82DE9F8430646F2F722FA3C4C451E2B
:10097000AD412079ED0F052827D1DFF8DC9020214B
:1009800048460EF049F800BB032020712022307841
:1009900000F10308202148460EF042F800274FF4EA
:1009A0007A74DFF8B89004E0694648460EF012F910
:1009B0007F1C474509D206E0F15D48460EF0FEF87F
:1009C000641E0128F0D0002CF6D10DB1F2F7ECF93D
:1009D0003046F1F7EFFFBDE8F18310B5F2F7E8F923
:1009E0001F49441EA4410879E40F30B902220A715C
:1009F0002021002218480EF013F804B114E010BDB5
:100A000010B5F2F7D5F9441E15480179A441E40F59
:100A1000042906D100220271202120220E480DF067
:100A2000FFFF04B100E010BDBDE81040F2F7BCB913
:100A300080B5F2F7BDF90A4A411E89411079C90F04
:100A400018B109B1F2F7B0F904E009B1F2F7ACF965
:100A5000002002BD034802BD00C00D4000800040E0
:100A600024730020786B00202DE9F04105460E46E6
:100A700017469846394605F0E000F4F72AFF0400CF
:100A80000CD027706570A6703A464146E01CF1F71D
:100A900037FF2046BDE8F041F4F734BFBDE8F081F0
:100AA00080B541788DF8011082788DF802200278A7
:100AB000FB2A03DB04208DF8000010E001F01F0189
:100AC000162909DA0D4A52F821100A0004D0884785
:100AD0008DF8000018B901BD01218DF800109DF8B6
:100AE000010000F0E000202805D16B460322002120
:100AF0006020FFF7B9FF01BD00000000A440002006
:100B000007E00B8800F8013B31F8023B1B0A00F8B4
:100B1000013B13465A1EDBB2002BF2D1704770B571
:100B200005460C46287808F093FC002608B1B82644
:100B30005DE0002C5BD02878207026731420F1F73C
:100B400048FE0028A06051D015F8011B01702878DC
:100B50006978A26800EB01205080A81CA368017886
:100B6000427801EB02219980451DA2688178937932
:100B700001F00F0103F0F00319439171A2680179AC
:100B8000D171A068C079A0B14000F1F722FEA16840
:100B90008860A268906858B10020A168CB79C2B281
:100BA0009A4206D22A786B78896800F033F8F4E725
:100BB0001026A16815F8010B0873A068007BC0B16E
:100BC0004000F1F706FEA1680861A268106958B1FB
:100BD0000020A1680B7BC2B29A420AD22A786B78B5
:100BE000096900F017F8F4E7102604E010263046F3
:100BF00070BD102EFBD1A068806808B1F1F74FFEE0
:100C0000A168087B10B10869F1F749FEA068F1F707
:100C100046FEECE702EB0322C0B221F81020AD1C27
:100C2000401C704738B5DFF8B446206801E005463F
:100C3000006890B1017B491E0173C9B20029F6D149
:100C400021688142016803D12160F1F728FEECE7B9
:100C50002960F1F724FE2868EBE7606848B1C17E9F
:100C6000491EC176C9B221B96068F1F718FE0020AB
:100C700060602168002904BF606800280ED0DFF89A
:100C8000604620784FF47A720821F3F770F928B1A2
:100C90002078BDE834400821F1F791BF31BD000054
:100CA000F0B5064685B0B4780025200014D0012C9C
:100CB00018BF022C3ED0032C40D0042C2DD0102C79
:100CC00040D0112C6ED0122C68D0132C00F09B80D9
:100CD000142C00F0A980C0E010208DF80000B77837
:100CE000F1F777FD040014D0DFF8F4156160F01C13
:100CF0002146FFF714FF8DF8000020B9204608F0C8
:100D00004DF98DF800009DF8000010B12046F1F774
:100D1000C6FD6B46012239469BE010208DF800008D
:100D2000B478F07808F04CF98DF800006B46012299
:100D300021468EE0304600F094F88FE0304600F017
:100D40003BF98BE0F078032821D8DFE800F01D198B
:100D50000C02301DF1F7F6FDB179F9F782FD401E66
:100D60008041C00F14E0307908F072FB20B1F9F730
:100D70007EFD8DF800500DE001218DF8001009E096
:100D80003079F9F721FD03E0F9F740FD00E002209A
:100D90008DF800006B46012210215AE0304600F029
:100DA00054FA5BE001208DF81000F01CF1F7CAFD49
:100DB000DFF8284572790346606818B910208DF86D
:100DC00010001CE00768A2B9817E0391417E029168
:100DD000009700F118010191C38A828A0169001D00
:100DE00008F00EFA8DF810006068F1F758FD6560A4
:100DF00005E0B11DF818F1F783FD8DF8105004AB34
:100E00000122112125E030798DF8020071798DF8E9
:100E100003100DF10201F07808F092FB8DF800004C
:100E20006B460122132114E00FF2B8400188ADF89F
:100E300002100DF10201F07808F070FB9DF802003D
:100E40008DF800006B469DF803008DF80100032229
