###############################################################################
#
# IAR C/C++ Compiler V10.10.1.4655 for 8051               17/Apr/2025  03:58:47
# Copyright 2004-2017 IAR Systems AB.
# Standalone license - IAR Embedded Workbench for 8051
#
#    Core               =  plain
#    Code model         =  banked
#    Data model         =  large
#    Calling convention =  xdata reentrant
#    Constant location  =  data_rom
#    Dptr setup         =  1,16
#                          
#    Source file        =  
#        C:\Texas Instruments\Z-Stack 3.0.1 A Git\Z-Stack
#        3.0.1\Components\stack\bdb\bdb.c
#    Command line       =  
#        -f C:\Users\NING\AppData\Local\Temp\EWDE49.tmp ("C:\Texas
#        Instruments\Z-Stack 3.0.1 A Git\Z-Stack
#        3.0.1\Components\stack\bdb\bdb.c" -D SECURE=1 -D TC_LINKKEY_JOIN -D
#        NV_INIT -D NV_RESTORE -D ZTOOL_P1 -D xMT_TASK -D xMT_APP_FUNC -D
#        xMT_SYS_FUNC -D xMT_ZDO_FUNC -D xMT_ZDO_MGMT -D xMT_APP_CNF_FUNC -D
#        LCD_SUPPORTED=DEBUG -D MULTICAST_ENABLED=FALSE -D ZCL_READ -D
#        ZCL_DISCOVER -D ZCL_WRITE -D ZCL_BASIC -D ZCL_IDENTIFY -D ZCL_ON_OFF
#        -D ZCL_GROUPS -D HAL_UART_DMA_RX_MAX=50 -lC "C:\Texas
#        Instruments\Z-Stack 3.0.1 A Git\Z-Stack
#        3.0.1\Projects\zstack\HomeAutomation\SampleSwitch\CC2530DB\CoordinatorEB\List"
#        -lA "C:\Texas Instruments\Z-Stack 3.0.1 A Git\Z-Stack
#        3.0.1\Projects\zstack\HomeAutomation\SampleSwitch\CC2530DB\CoordinatorEB\List"
#        --diag_suppress Pe001,Pa010 -o "C:\Texas Instruments\Z-Stack 3.0.1 A
#        Git\Z-Stack
#        3.0.1\Projects\zstack\HomeAutomation\SampleSwitch\CC2530DB\CoordinatorEB\Obj"
#        -e --debug --core=plain --dptr=16,1 --data_model=large
#        --code_model=banked --calling_convention=xdata_reentrant
#        --place_constants=data_rom --nr_virtual_regs 8 -f "C:\Texas
#        Instruments\Z-Stack 3.0.1 A Git\Z-Stack
#        3.0.1\Projects\zstack\HomeAutomation\SampleSwitch\CC2530DB\..\..\..\Tools\CC2530DB\f8wCoord.cfg"
#        (-DCPU32MHZ -DROOT=__near_func -DMAC_CFG_APP_PENDING_QUEUE=TRUE
#        -DMAC_CFG_TX_DATA_MAX=5 -DMAC_CFG_TX_MAX=8 -DMAC_CFG_RX_MAX=5
#        -DZDO_COORDINATOR -DRTR_NWK) -f "C:\Texas Instruments\Z-Stack 3.0.1 A
#        Git\Z-Stack
#        3.0.1\Projects\zstack\HomeAutomation\SampleSwitch\CC2530DB\..\..\..\Tools\CC2530DB\f8wConfig.cfg"
#        (-DZIGBEEPRO -DSECURE=1 -DZG_SECURE_DYNAMIC=0 -DREFLECTOR
#        -DDEFAULT_CHANLIST=0x00000800 -DZDAPP_CONFIG_PAN_ID=0xFFFF
#        -DNWK_START_DELAY=100 -DEXTENDED_JOINING_RANDOM_MASK=0x007F
#        -DBEACON_REQUEST_DELAY=100 -DBEACON_REQ_DELAY_MASK=0x00FF
#        -DLINK_STATUS_JITTER_MASK=0x007F -DROUTE_EXPIRY_TIME=30
#        -DAPSC_ACK_WAIT_DURATION_POLLED=3000 -DNWK_INDIRECT_MSG_TIMEOUT=7
#        -DMAX_RREQ_ENTRIES=8 -DAPSC_MAX_FRAME_RETRIES=3
#        -DNWK_MAX_DATA_RETRIES=2 -DMAX_POLL_FAILURE_RETRIES=2 -DMAX_BCAST=9
#        -DAPS_MAX_GROUPS=16 -DMAX_RTG_ENTRIES=40 -DNWK_MAX_BINDING_ENTRIES=4
#        -DMAX_BINDING_CLUSTER_IDS=4 -DDEFAULT_KEY={0} -DMAC_MAX_FRAME_SIZE=116
#        -DZDNWKMGR_MIN_TRANSMISSIONS=20 "-DCONST=const __code"
#        -DGENERIC=__generic -DRFD_RCVC_ALWAYS_ON=FALSE -DPOLL_RATE=1000
#        -DQUEUED_POLL_RATE=100 -DRESPONSE_POLL_RATE=100 -DREJOIN_POLL_RATE=440
#        -DREJOIN_BACKOFF=900000 -DREJOIN_SCAN=900000 -DENABLE_LED4_DISABLE_S1)
#        -f "C:\Texas Instruments\Z-Stack 3.0.1 A Git\Z-Stack
#        3.0.1\Projects\zstack\HomeAutomation\SampleSwitch\CC2530DB\..\..\..\Tools\CC2530DB\f8wZCL.cfg"
#        -I "C:\Texas Instruments\Z-Stack 3.0.1 A Git\Z-Stack
#        3.0.1\Projects\zstack\HomeAutomation\SampleSwitch\CC2530DB\" -I
#        "C:\Texas Instruments\Z-Stack 3.0.1 A Git\Z-Stack
#        3.0.1\Projects\zstack\HomeAutomation\SampleSwitch\CC2530DB\..\Source\"
#        -I "C:\Texas Instruments\Z-Stack 3.0.1 A Git\Z-Stack
#        3.0.1\Projects\zstack\HomeAutomation\SampleSwitch\CC2530DB\..\..\Source\"
#        -I "C:\Texas Instruments\Z-Stack 3.0.1 A Git\Z-Stack
#        3.0.1\Projects\zstack\HomeAutomation\SampleSwitch\CC2530DB\..\..\..\ZMain\TI2530DB\"
#        -I "C:\Texas Instruments\Z-Stack 3.0.1 A Git\Z-Stack
#        3.0.1\Projects\zstack\HomeAutomation\SampleSwitch\CC2530DB\..\..\..\..\..\Components\hal\include\"
#        -I "C:\Texas Instruments\Z-Stack 3.0.1 A Git\Z-Stack
#        3.0.1\Projects\zstack\HomeAutomation\SampleSwitch\CC2530DB\..\..\..\..\..\Components\hal\target\CC2530EB\"
#        -I "C:\Texas Instruments\Z-Stack 3.0.1 A Git\Z-Stack
#        3.0.1\Projects\zstack\HomeAutomation\SampleSwitch\CC2530DB\..\..\..\..\..\Components\mac\include\"
#        -I "C:\Texas Instruments\Z-Stack 3.0.1 A Git\Z-Stack
#        3.0.1\Projects\zstack\HomeAutomation\SampleSwitch\CC2530DB\..\..\..\..\..\Components\mac\high_level\"
#        -I "C:\Texas Instruments\Z-Stack 3.0.1 A Git\Z-Stack
#        3.0.1\Projects\zstack\HomeAutomation\SampleSwitch\CC2530DB\..\..\..\..\..\Components\mac\low_level\srf04\"
#        -I "C:\Texas Instruments\Z-Stack 3.0.1 A Git\Z-Stack
#        3.0.1\Projects\zstack\HomeAutomation\SampleSwitch\CC2530DB\..\..\..\..\..\Components\mac\low_level\srf04\single_chip\"
#        -I "C:\Texas Instruments\Z-Stack 3.0.1 A Git\Z-Stack
#        3.0.1\Projects\zstack\HomeAutomation\SampleSwitch\CC2530DB\..\..\..\..\..\Components\mt\"
#        -I "C:\Texas Instruments\Z-Stack 3.0.1 A Git\Z-Stack
#        3.0.1\Projects\zstack\HomeAutomation\SampleSwitch\CC2530DB\..\..\..\..\..\Components\osal\include\"
#        -I "C:\Texas Instruments\Z-Stack 3.0.1 A Git\Z-Stack
#        3.0.1\Projects\zstack\HomeAutomation\SampleSwitch\CC2530DB\..\..\..\..\..\Components\services\saddr\"
#        -I "C:\Texas Instruments\Z-Stack 3.0.1 A Git\Z-Stack
#        3.0.1\Projects\zstack\HomeAutomation\SampleSwitch\CC2530DB\..\..\..\..\..\Components\services\sdata\"
#        -I "C:\Texas Instruments\Z-Stack 3.0.1 A Git\Z-Stack
#        3.0.1\Projects\zstack\HomeAutomation\SampleSwitch\CC2530DB\..\..\..\..\..\Components\stack\af\"
#        -I "C:\Texas Instruments\Z-Stack 3.0.1 A Git\Z-Stack
#        3.0.1\Projects\zstack\HomeAutomation\SampleSwitch\CC2530DB\..\..\..\..\..\Components\stack\bdb\"
#        -I "C:\Texas Instruments\Z-Stack 3.0.1 A Git\Z-Stack
#        3.0.1\Projects\zstack\HomeAutomation\SampleSwitch\CC2530DB\..\..\..\..\..\Components\stack\gp\"
#        -I "C:\Texas Instruments\Z-Stack 3.0.1 A Git\Z-Stack
#        3.0.1\Projects\zstack\HomeAutomation\SampleSwitch\CC2530DB\..\..\..\..\..\Components\stack\nwk\"
#        -I "C:\Texas Instruments\Z-Stack 3.0.1 A Git\Z-Stack
#        3.0.1\Projects\zstack\HomeAutomation\SampleSwitch\CC2530DB\..\..\..\..\..\Components\stack\sapi\"
#        -I "C:\Texas Instruments\Z-Stack 3.0.1 A Git\Z-Stack
#        3.0.1\Projects\zstack\HomeAutomation\SampleSwitch\CC2530DB\..\..\..\..\..\Components\stack\sec\"
#        -I "C:\Texas Instruments\Z-Stack 3.0.1 A Git\Z-Stack
#        3.0.1\Projects\zstack\HomeAutomation\SampleSwitch\CC2530DB\..\..\..\..\..\Components\stack\sys\"
#        -I "C:\Texas Instruments\Z-Stack 3.0.1 A Git\Z-Stack
#        3.0.1\Projects\zstack\HomeAutomation\SampleSwitch\CC2530DB\..\..\..\..\..\Components\stack\zcl\"
#        -I "C:\Texas Instruments\Z-Stack 3.0.1 A Git\Z-Stack
#        3.0.1\Projects\zstack\HomeAutomation\SampleSwitch\CC2530DB\..\..\..\..\..\Components\stack\zdo\"
#        -I "C:\Texas Instruments\Z-Stack 3.0.1 A Git\Z-Stack
#        3.0.1\Projects\zstack\HomeAutomation\SampleSwitch\CC2530DB\..\..\..\..\..\Components\zmac\"
#        -I "C:\Texas Instruments\Z-Stack 3.0.1 A Git\Z-Stack
#        3.0.1\Projects\zstack\HomeAutomation\SampleSwitch\CC2530DB\..\..\..\..\..\Components\zmac\f8w\"
#        -I "C:\Texas Instruments\Z-Stack 3.0.1 A Git\Z-Stack
#        3.0.1\Projects\zstack\HomeAutomation\SampleSwitch\CC2530DB\MY_Hardware\"
#        -Ohz --require_prototypes)
#    Locale             =  Chinese (Simplified)_China.936
#    List file          =  
#        C:\Texas Instruments\Z-Stack 3.0.1 A Git\Z-Stack
#        3.0.1\Projects\zstack\HomeAutomation\SampleSwitch\CC2530DB\CoordinatorEB\List\bdb.lst
#    Object file        =  
#        C:\Texas Instruments\Z-Stack 3.0.1 A Git\Z-Stack
#        3.0.1\Projects\zstack\HomeAutomation\SampleSwitch\CC2530DB\CoordinatorEB\Obj\bdb.r51
#
###############################################################################

C:\Texas Instruments\Z-Stack 3.0.1 A Git\Z-Stack 3.0.1\Components\stack\bdb\bdb.c
      1          /**************************************************************************************************
      2            Filename:       bdb.c
      3            Revised:        $Date: 2016-02-25 11:51:49 -0700 (Thu, 25 Feb 2016) $
      4            Revision:       $Revision: - $
      5          
      6            Description:    This file contains the Base Device Behavior functions and attributes.
      7          
      8          
      9            Copyright 2006-2015 Texas Instruments Incorporated. All rights reserved.
     10          
     11            IMPORTANT: Your use of this Software is limited to those specific rights
     12            granted under the terms of a software license agreement between the user
     13            who downloaded the software, his/her employer (which must be your employer)
     14            and Texas Instruments Incorporated (the "License").  You may not use this
     15            Software unless you agree to abide by the terms of the License. The License
     16            limits your use, and you acknowledge, that the Software may not be modified,
     17            copied or distributed unless embedded on a Texas Instruments microcontroller
     18            or used solely and exclusively in conjunction with a Texas Instruments radio
     19            frequency transceiver, which is integrated into your product.  Other than for
     20            the foregoing purpose, you may not use, reproduce, copy, prepare derivative
     21            works of, modify, distribute, perform, display or sell this Software and/or
     22            its documentation for any purpose.
     23          
     24            YOU FURTHER ACKNOWLEDGE AND AGREE THAT THE SOFTWARE AND DOCUMENTATION ARE
     25            PROVIDED "AS IS" WITHOUT WARRANTY OF ANY KIND, EITHER EXPRESS OR IMPLIED,
     26            INCLUDING WITHOUT LIMITATION, ANY WARRANTY OF MERCHANTABILITY, TITLE,
     27            NON-INFRINGEMENT AND FITNESS FOR A PARTICULAR PURPOSE. IN NO EVENT SHALL
     28            TEXAS INSTRUMENTS OR ITS LICENSORS BE LIABLE OR OBLIGATED UNDER CONTRACT,
     29            NEGLIGENCE, STRICT LIABILITY, CONTRIBUTION, BREACH OF WARRANTY, OR OTHER
     30            LEGAL EQUITABLE THEORY ANY DIRECT OR INDIRECT DAMAGES OR EXPENSES
     31            INCLUDING BUT NOT LIMITED TO ANY INCIDENTAL, SPECIAL, INDIRECT, PUNITIVE
     32            OR CONSEQUENTIAL DAMAGES, LOST PROFITS OR LOST DATA, COST OF PROCUREMENT
     33            OF SUBSTITUTE GOODS, TECHNOLOGY, SERVICES, OR ANY CLAIMS BY THIRD PARTIES
     34            (INCLUDING BUT NOT LIMITED TO ANY DEFENSE THEREOF), OR OTHER SIMILAR COSTS.
     35          
     36            Should you have any questions regarding your right to use this Software,
     37            contact Texas Instruments Incorporated at www.TI.com.
     38          **************************************************************************************************/
     39          
     40          /*********************************************************************
     41           * INCLUDES
     42           */
     43          
     44          #include "bdb.h"
     45          #include "ZDApp.h"
     46          #include "OSAL.h"
     47          #include "ZDConfig.h"
     48          #include "hal_led.h"
     49          #include "ZDObject.h"
     50          #include "OSAL_Nv.h"
     51          #include "AddrMgr.h"
     52          #include "ZDSecMgr.h"
     53          #include "nwk.h"
     54          #include "nwk_util.h"
     55          #include "ssp_hash.h"
     56          #ifdef BDB_REPORTING
     57          #include "bdb_Reporting.h"
     58          #endif 
     59          
     60          #if !defined (DISABLE_GREENPOWER_BASIC_PROXY) && (ZG_BUILD_RTR_TYPE)
     61          #include "gp_interface.h"
     62          #include "gp_common.h"
     63          #include "dgp_stub.h"
     64          #endif
     65          
     66          #include "bdb_interface.h"
     67          
     68          #if defined ( INTER_PAN ) 
     69          #if defined ( BDB_TL_INITIATOR )  
     70          #include "bdb_touchlink_initiator.h"
     71          #endif
     72          #if defined ( BDB_TL_TARGET )  
     73          #include "bdb_touchlink_target.h"
     74          #endif
     75          #endif
     76             
     77          #if defined ( INTER_PAN ) && ( defined ( BDB_TL_INITIATOR ) || defined ( BDB_TL_TARGET ) )
     78            #include "bdb_touchlink.h"
     79          #endif
     80           
     81          #ifdef MT_APP_CNF_FUNC
     82          #include "MT_APP_CONFIG.h"
     83          #endif
     84             
     85           /*********************************************************************
     86           * MACROS
     87           */
     88          //This is actually the channels used
     89          #define vScanChannels  zgDefaultChannelList
     90             
     91           /*********************************************************************
     92           * CONSTANTS
     93           */
     94          
     95          #define NUMBER_OF_CHANNELS     16
     96          
     97          #define CHANNEL_11_MASK_POS    11
     98          #define CHANNEL_26_MASK_POS    26
     99             

   \                                 In  segment XDATA_Z, align 1, keep-with-next
    100          uint8 bdb_FB_InitiatorCurrentCyclesNumber = 0; //last cycle is #1 (i.e. cycles-left = (bdb_FB_InitiatorCurrentCyclesNumber - 1))
   \                     bdb_FB_InitiatorCurrentCyclesNumber:
   \   000000                DS 1
   \   000001                REQUIRE __INIT_XDATA_Z
    101          
    102          /*********************************************************************
    103           * TYPEDEFS
    104           */
    105           
    106           
    107           /*********************************************************************
    108           * GLOBAL VARIABLES
    109           */
    110          

   \                                 In  segment XDATA_Z, align 1, keep-with-next
    111          byte bdb_TaskID;
   \                     bdb_TaskID:
   \   000000                DS 1
   \   000001                REQUIRE __INIT_XDATA_Z

   \                                 In  segment XDATA_I, align 1, keep-with-next
    112          bdbAttributes_t bdbAttributes = BDB_ATTRIBUTES_DEFAULT_CONFIG;
   \                     bdbAttributes:
   \   000000                DS 18
   \   000012                REQUIRE `?<Initializer for bdbAttributes>`
   \   000012                REQUIRE __INIT_XDATA_I

   \                                 In  segment XDATA_Z, align 1, keep-with-next
    113          epList_t *bdb_HeadEpDescriptorList = NULL;
   \                     bdb_HeadEpDescriptorList:
   \   000000                DS 2
   \   000002                REQUIRE __INIT_XDATA_Z

   \                                 In  segment XDATA_Z, align 1, keep-with-next
    114          epList_t *bdb_CurrEpDescriptorList = NULL;
   \                     bdb_CurrEpDescriptorList:
   \   000000                DS 2
   \   000002                REQUIRE __INIT_XDATA_Z
    115          

   \                                 In  segment XDATA_Z, align 1, keep-with-next
    116          bdbFindingBindingRespondent_t *pRespondentHead = NULL;
   \                     pRespondentHead:
   \   000000                DS 2
   \   000002                REQUIRE __INIT_XDATA_Z

   \                                 In  segment XDATA_Z, align 1, keep-with-next
    117          bdbFindingBindingRespondent_t *pRespondentCurr = NULL;
   \                     pRespondentCurr:
   \   000000                DS 2
   \   000002                REQUIRE __INIT_XDATA_Z

   \                                 In  segment XDATA_Z, align 1, keep-with-next
    118          bdbFindingBindingRespondent_t *pRespondentNext = NULL;
   \                     pRespondentNext:
   \   000000                DS 2
   \   000002                REQUIRE __INIT_XDATA_Z
    119          

   \                                 In  segment XDATA_Z, align 1, keep-with-next
    120          bdbCommissioningProcedureState_t bdbCommissioningProcedureState; 
   \                     bdbCommissioningProcedureState:
   \   000000                DS 4
   \   000004                REQUIRE __INIT_XDATA_Z

   \                                 In  segment XDATA_Z, align 1, keep-with-next
    121          bool bdb_initialization = FALSE;  //Variable to tell if the initialization process has been started
   \                     bdb_initialization:
   \   000000                DS 1
   \   000001                REQUIRE __INIT_XDATA_Z
    122          
    123          //Nwk formation and nwk steering for nodes not in nwk

   \                                 In  segment XDATA_I, align 1, keep-with-next
    124          bool vDoPrimaryScan = TRUE;
   \                     vDoPrimaryScan:
   \   000000                DS 1
   \   000001                REQUIRE `?<Initializer for vDoPrimaryScan>`
   \   000001                REQUIRE __INIT_XDATA_I
    125          

   \                                 In  segment XDATA_I, align 1, keep-with-next
    126          uint8 zgBdbInstallCodeCRC[INSTALL_CODE_LEN + INSTALL_CODE_CRC_LEN] = {0x83,0xFE,0xD3,0x40,0x7A,0x93,0x97,0x23,0xA5,0xC6,0x39,0xB2,0x69,0x16,0xD5,0x05,0xC3,0xB5};
   \                     zgBdbInstallCodeCRC:
   \   000000                DS 18
   \   000012                REQUIRE `?<Initializer for zgBdbInstallCodeCRC>`
   \   000012                REQUIRE __INIT_XDATA_I
    127          
    128          //Pointer of the nwk being tried in association process
    129          #if (ZG_BUILD_JOINING_TYPE)
    130          static networkDesc_t *pBDBListNwk = NULL;
    131          #endif
    132          

   \                                 In  segment XDATA_Z, align 1, keep-with-next
    133          uint8 bdb_ZclTransactionSequenceNumber=0x00;
   \                     bdb_ZclTransactionSequenceNumber:
   \   000000                DS 1
   \   000001                REQUIRE __INIT_XDATA_Z
    134          

   \                                 In  segment XDATA_Z, align 1, keep-with-next
    135          bool touchLinkTargetEnabled = FALSE;
   \                     touchLinkTargetEnabled:
   \   000000                DS 1
   \   000001                REQUIRE __INIT_XDATA_Z
    136          
    137           /*********************************************************************
    138           * EXTERNAL VARIABLES
    139           */
    140          
    141          extern devStartModes_t devStartMode;
    142          extern bool  requestNewTrustCenterLinkKey;
    143          extern uint32 requestLinkKeyTimeout;
    144          extern uint32 ZDApp_SavedPollRate;
    145          
    146          #if (BDB_FINDING_BINDING_CAPABILITY_ENABLED==1)
    147          extern bdbGCB_IdentifyTimeChange_t pfnIdentifyTimeChangeCB;
    148          extern uint8 bdbIndentifyActiveEndpoint;
    149          #endif
    150          
    151          extern bdbFindingBindingRespondent_t *pRespondentNext;
    152          
    153          #ifndef DISABLE_GREENPOWER_BASIC_PROXY
    154          extern ZDO_DeviceAnnce_t aliasConflictAnnce;
    155          #endif
    156          
    157          /*********************************************************************
    158           * EXTERNAL FUNCTIONS
    159           */
    160          
    161          extern void ZDApp_ResetTimerStart( uint16 delay );
    162          extern void ZDApp_NodeProfileSync( uint8 stackProfile );
    163          extern uint8 ZDApp_RestoreNwkKey( uint8 incrFrmCnt );
    164          extern uint8 ZDApp_ReadNetworkRestoreState( void );
    165          
    166          extern bdbFindingBindingRespondent_t* bdb_getRespondentRetry(bdbFindingBindingRespondent_t* pRespondentHead);
    167          extern void bdb_ProcessSimpleDesc( zdoIncomingMsg_t *msgPtr );
    168          extern void bdb_ProcessIEEEAddrRsp(zdoIncomingMsg_t *pMsg);
    169          
    170          /*********************************************************************
    171           * LOCAL VARIABLES
    172           */
    173          #if (ZG_BUILD_JOINING_TYPE)
    174            static uint8 bdb_nwkAssocRetriesCount = 0;
    175          #endif
    176          #if (ZG_BUILD_COORDINATOR_TYPE)

   \                                 In  segment XDATA_Z, align 1, keep-with-next
    177            static bdb_joiningDeviceList_t *bdb_joiningDeviceList = NULL;
   \                     bdb_joiningDeviceList:
   \   000000                DS 2
   \   000002                REQUIRE __INIT_XDATA_Z
    178          #endif
    179            
    180          #if (BDB_FINDING_BINDING_CAPABILITY_ENABLED==1) 
    181          //Latch to save the status success of any attempt in the periodic F&B process  

   \                                 In  segment XDATA_Z, align 1, keep-with-next
    182          static uint8 bdb_FBStateSuccessLatch = FALSE;
   \                     bdb_FBStateSuccessLatch:
   \   000000                DS 1
   \   000001                REQUIRE __INIT_XDATA_Z
    183          #endif
    184           /*********************************************************************
    185           * LOCAL FUNCTIONS
    186           */
    187          static void bdb_ProcessOSALMsg(bdbInMsg_t *msgPtr);
    188          void bdb_NotifyCommissioningModeStart(uint8 commissioningMode);
    189          static void bdb_processZDOMgs(zdoIncomingMsg_t *pMsg);
    190          
    191          #if (ZG_BUILD_JOINING_TYPE)
    192          static void bdb_requestTCStackVersion(void);
    193          static void bdb_requestTCLinkKey(void);
    194          static void bdb_requestVerifyTCLinkKey(void);
    195          static void bdb_tryNwkAssoc(void);
    196          #endif
    197          
    198          
    199          static void bdb_processTimeout(void);
    200          static void bdb_startResumeCommissioningProcess(void);
    201          static void bdb_nwkSteeringDeviceOnNwk(void);
    202          static void bdb_nwkJoiningFormation(bool isJoining);
    203          
    204          #if !defined (DISABLE_GREENPOWER_BASIC_PROXY) && (ZG_BUILD_RTR_TYPE)
    205          static uint8 gp_ChangeChannelReq(void);
    206          static void gp_CBInit(void);
    207          #endif
    208          
    209          
    210          #if (ZG_BUILD_COORDINATOR_TYPE)
    211          static void bdb_TCProcessJoiningList(void);
    212          static ZStatus_t bdb_TCJoiningDeviceFree(bdb_joiningDeviceList_t* JoiningDeviceToRemove);
    213          #endif
    214          #if (ZG_BUILD_COORDINATOR_TYPE)

   \                                 In  segment XDATA_Z, align 1, keep-with-next
    215          static bdbGCB_TCLinkKeyExchangeProcess_t  pfnTCLinkKeyExchangeProcessCB = NULL;
   \                     pfnTCLinkKeyExchangeProcessCB:
   \   000000                DS 2
   \   000002                REQUIRE __INIT_XDATA_Z
    216          #endif

   \                                 In  segment XDATA_Z, align 1, keep-with-next
    217          static bdbGCB_CommissioningStatus_t       pfnCommissioningStatusCB = NULL; 
   \                     pfnCommissioningStatusCB:
   \   000000                DS 2
   \   000002                REQUIRE __INIT_XDATA_Z
    218          #if (ZG_BUILD_JOINING_TYPE)
    219          static bdbGCB_CBKETCLinkKeyExchange_t     pfnCBKETCLinkKeyExchange = NULL;
    220          static bdbGCB_FilterNwkDesc_t             pfnFilterNwkDesc = NULL;   
    221          #endif
    222          
    223          
    224          
    225          void bdb_calculateCCITT_CRC (uint8 *Mb, uint32 msglen, uint16 *crc);
    226          void bdb_crcInit(uint16 *crc, uint16 *crcinit_direct, uint16 *crcinit_nondirect);
    227          uint16 bdb_crcReflect (uint16 crc, uint16 bitnum);
    228          uint16 bdb_crcBitByBitFast(uint8 * p, uint32 len, uint16 crcinit_direct, uint16 crcinit_nondirect);
    229          void bdb_ProcessNodeDescRsp(zdoIncomingMsg_t *pMsg);
    230          
    231          /*********************************************************************
    232           * PUBLIC FUNCTIONS
    233           *********************************************************************/
    234          void bdb_filterNwkDisc(void);
    235          ZStatus_t bdb_joinProcess(networkDesc_t *pChosenNwk);
    236          
    237          ZStatus_t bdb_TCAddJoiningDevice(uint16 parentAddr, uint8* JoiningExtAddr);
    238          void bdb_TCjoiningDeviceComplete(uint8* JoiningExtAddr);
    239          
    240           /*********************************************************************
    241           * @fn          bdb_Init
    242           *
    243           * @brief       Initialization function for the Base Device Behavior.
    244           *
    245           * @param       task_id - bdb_TaskID Task ID
    246           *
    247           * @return      none
    248           */

   \                                 In  segment BANKED_CODE, align 1, keep-with-next
    249          void bdb_Init( byte task_id )
   \                     bdb_Init:
    250          {
   \   000000   74F7         MOV       A,#-0x9
   \   000002   12....       LCALL     ?BANKED_ENTER_XDATA
   \   000005                ; Saved register size: 9
   \   000005                ; Auto size: 0
   \   000005   E9           MOV       A,R1
   \   000006   FE           MOV       R6,A
    251            bdb_TaskID = task_id;
   \   000007   90....       MOV       DPTR,#bdb_TaskID
   \   00000A   F0           MOVX      @DPTR,A
    252              
    253          #if (ZG_BUILD_COORDINATOR_TYPE)
    254            if(ZG_DEVICE_COORDINATOR_TYPE)
    255            {
    256              if(bdbAttributes.bdbJoinUsesInstallCodeKey)
   \   00000B   90....       MOV       DPTR,#bdbAttributes + 15
   \   00000E   E0           MOVX      A,@DPTR
   \   00000F   6006         JZ        ??bdb_Init_0
    257              {
    258                zgAllowInstallCodes = ZG_IC_MUST_USED;
   \   000011   90....       MOV       DPTR,#zgAllowInstallCodes
   \   000014   7402         MOV       A,#0x2
   \   000016   F0           MOVX      @DPTR,A
    259              }
    260            }
    261          #endif
    262            
    263          #if defined ( INTER_PAN ) && defined ( BDB_TL_INITIATOR )  
    264            touchLinkInitiator_InitDevice( );
    265          #endif
    266          
    267          #if (BDB_REPORTING)
    268            bdb_RepInit();
    269          #endif  
    270            
    271            //Register ZDO callbacks
    272            ZDO_RegisterForZDOMsg ( task_id, Node_Desc_rsp );
   \                     ??bdb_Init_0:
   \   000017                ; Setup parameters for call to function ZDO_RegisterForZDOMsg
   \   000017   7A02         MOV       R2,#0x2
   \   000019   7B80         MOV       R3,#-0x80
   \   00001B   12....       LCALL     `??ZDO_RegisterForZDOMsg::?relay`; Banked call to: ZDO_RegisterForZDOMsg
    273          #if (BDB_FINDING_BINDING_CAPABILITY_ENABLED==1)  
    274            ZDO_RegisterForZDOMsg ( task_id, IEEE_addr_rsp );
   \   00001E                ; Setup parameters for call to function ZDO_RegisterForZDOMsg
   \   00001E   7A01         MOV       R2,#0x1
   \   000020   7B80         MOV       R3,#-0x80
   \   000022   EE           MOV       A,R6
   \   000023   F9           MOV       R1,A
   \   000024   12....       LCALL     `??ZDO_RegisterForZDOMsg::?relay`; Banked call to: ZDO_RegisterForZDOMsg
    275            ZDO_RegisterForZDOMsg ( task_id, Simple_Desc_rsp );
   \   000027                ; Setup parameters for call to function ZDO_RegisterForZDOMsg
   \   000027   7A04         MOV       R2,#0x4
   \   000029   7B80         MOV       R3,#-0x80
   \   00002B   EE           MOV       A,R6
   \   00002C   F9           MOV       R1,A
   \   00002D   12....       LCALL     `??ZDO_RegisterForZDOMsg::?relay`; Banked call to: ZDO_RegisterForZDOMsg
    276          #endif
    277            
    278          #if !defined (DISABLE_GREENPOWER_BASIC_PROXY) && (ZG_BUILD_RTR_TYPE)
    279            gp_RegisterGPChangeChannelReqForBDBCB(gp_ChangeChannelReq);
   \   000030                ; Setup parameters for call to function gp_RegisterGPChangeChannelReqForBDBCB
   \   000030   7A..         MOV       R2,#`??gp_ChangeChannelReq::?relay` & 0xff
   \   000032   7B..         MOV       R3,#(`??gp_ChangeChannelReq::?relay` >> 8) & 0xff
   \   000034   12....       LCALL     `??gp_RegisterGPChangeChannelReqForBDBCB::?relay`; Banked call to: gp_RegisterGPChangeChannelReqForBDBCB
    280            gp_CBInit();
   \   000037   90....       MOV       DPTR,#GP_DataCnfGCB
   \   00003A   74..         MOV       A,#`??GP_DataCnf::?relay` & 0xff
   \   00003C   F0           MOVX      @DPTR,A
   \   00003D   A3           INC       DPTR
   \   00003E   74..         MOV       A,#(`??GP_DataCnf::?relay` >> 8) & 0xff
   \   000040   F0           MOVX      @DPTR,A
   \   000041   90....       MOV       DPTR,#GP_endpointInitGCB
   \   000044   74..         MOV       A,#`??gp_endpointInit::?relay` & 0xff
   \   000046   F0           MOVX      @DPTR,A
   \   000047   A3           INC       DPTR
   \   000048   74..         MOV       A,#(`??gp_endpointInit::?relay` >> 8) & 0xff
   \   00004A   F0           MOVX      @DPTR,A
   \   00004B   90....       MOV       DPTR,#GP_expireDuplicateFilteringGCB
   \   00004E   74..         MOV       A,#`??gp_expireDuplicateFiltering::?relay` & 0xff
   \   000050   F0           MOVX      @DPTR,A
   \   000051   A3           INC       DPTR
   \   000052   74..         MOV       A,#(`??gp_expireDuplicateFiltering::?relay` >> 8) & 0xff
   \   000054   F0           MOVX      @DPTR,A
   \   000055   90....       MOV       DPTR,#GP_stopCommissioningModeGCB
   \   000058   74..         MOV       A,#`??gp_stopCommissioningMode::?relay` & 0xff
   \   00005A   F0           MOVX      @DPTR,A
   \   00005B   A3           INC       DPTR
   \   00005C   74..         MOV       A,#(`??gp_stopCommissioningMode::?relay` >> 8) & 0xff
   \   00005E   F0           MOVX      @DPTR,A
   \   00005F   90....       MOV       DPTR,#GP_returnOperationalChannelGCB
   \   000062   74..         MOV       A,#`??gp_returnOperationalChannel::?relay` & 0xff
   \   000064   F0           MOVX      @DPTR,A
   \   000065   A3           INC       DPTR
   \   000066   74..         MOV       A,#(`??gp_returnOperationalChannel::?relay` >> 8) & 0xff
   \   000068   F0           MOVX      @DPTR,A
   \   000069   90....       MOV       DPTR,#GP_DataIndGCB
   \   00006C   74..         MOV       A,#`??GP_DataInd::?relay` & 0xff
   \   00006E   F0           MOVX      @DPTR,A
   \   00006F   A3           INC       DPTR
   \   000070   74..         MOV       A,#(`??GP_DataInd::?relay` >> 8) & 0xff
   \   000072   F0           MOVX      @DPTR,A
   \   000073   90....       MOV       DPTR,#GP_SecReqGCB
   \   000076   74..         MOV       A,#`??GP_SecReq::?relay` & 0xff
   \   000078   F0           MOVX      @DPTR,A
   \   000079   A3           INC       DPTR
   \   00007A   74..         MOV       A,#(`??GP_SecReq::?relay` >> 8) & 0xff
   \   00007C   F0           MOVX      @DPTR,A
   \   00007D   90....       MOV       DPTR,#GP_CheckAnnouncedDeviceGCB
   \   000080   74..         MOV       A,#`??gp_CheckAnnouncedDevice::?relay` & 0xff
   \   000082   F0           MOVX      @DPTR,A
   \   000083   A3           INC       DPTR
   \   000084   74..         MOV       A,#(`??gp_CheckAnnouncedDevice::?relay` >> 8) & 0xff
   \   000086   F0           MOVX      @DPTR,A
   \   000087   90....       MOV       DPTR,#GP_aliasConflictAnnce
   \   00008A   74..         MOV       A,#aliasConflictAnnce & 0xff
   \   00008C   F0           MOVX      @DPTR,A
   \   00008D   A3           INC       DPTR
   \   00008E   74..         MOV       A,#(aliasConflictAnnce >> 8) & 0xff
   \   000090   F0           MOVX      @DPTR,A
   \   000091                ; Setup parameters for call to function gp_endpointInit
   \   000091   12....       LCALL     `??gp_endpointInit::?relay`; Banked call to: gp_endpointInit
    281          #endif
    282          }
   \   000094   02....       LJMP      ?Subroutine0 & 0xFFFF

   \                                 In  segment BANKED_CODE, align 1, keep-with-next
   \                     ?Subroutine0:
   \   000000   7F01         MOV       R7,#0x1
   \   000002   02....       LJMP      ?BANKED_LEAVE_XDATA
    283          
    284          /*********************************************************************
    285           * @fn      bdb_RegisterSimpleDescriptor
    286           *
    287           * @brief   Register the Simple descriptor. This function also registers 
    288           *          the profile's cluster conversion table.
    289           *
    290           * @param   simpleDesc - a pointer to a valid SimpleDescriptionFormat_t, must not be NULL.
    291           *
    292           * @return  none
    293           */

   \                                 In  segment BANKED_CODE, align 1, keep-with-next
    294          void bdb_RegisterSimpleDescriptor( SimpleDescriptionFormat_t *simpleDesc )
   \                     bdb_RegisterSimpleDescriptor:
    295          {
   \   000000                REQUIRE ?V0
   \   000000                REQUIRE ?V1
   \   000000   74F6         MOV       A,#-0xa
   \   000002   12....       LCALL     ?BANKED_ENTER_XDATA
   \   000005                ; Saved register size: 10
   \   000005                ; Auto size: 0
   \   000005   EA           MOV       A,R2
   \   000006   FE           MOV       R6,A
   \   000007   EB           MOV       A,R3
   \   000008   FF           MOV       R7,A
    296            endPointDesc_t *epDesc;
    297          
    298            // Register the application's endpoint descriptor
    299            //  - This memory is allocated and never freed.
    300            epDesc = osal_mem_alloc( sizeof ( endPointDesc_t ) );
   \   000009                ; Setup parameters for call to function osal_mem_alloc
   \   000009   7A07         MOV       R2,#0x7
   \   00000B   7B00         MOV       R3,#0x0
   \   00000D   12....       LCALL     `??osal_mem_alloc::?relay`; Banked call to: osal_mem_alloc
    301            if ( epDesc )
   \   000010   EA           MOV       A,R2
   \   000011   4B           ORL       A,R3
   \   000012   6023         JZ        ??bdb_RegisterSimpleDescriptor_0
    302            {
    303              // Fill out the endpoint description.
    304              epDesc->endPoint = simpleDesc->EndPoint;
   \   000014   8E82         MOV       DPL,R6
   \   000016   8F83         MOV       DPH,R7
   \   000018   E0           MOVX      A,@DPTR
   \   000019   8A82         MOV       DPL,R2
   \   00001B   8B83         MOV       DPH,R3
   \   00001D   F0           MOVX      @DPTR,A
    305              epDesc->task_id = &zcl_TaskID;   // all messages get sent to ZCL first
   \   00001E   A3           INC       DPTR
   \   00001F   A3           INC       DPTR
   \   000020   74..         MOV       A,#zcl_TaskID & 0xff
   \   000022   F0           MOVX      @DPTR,A
   \   000023   A3           INC       DPTR
   \   000024   74..         MOV       A,#(zcl_TaskID >> 8) & 0xff
   \   000026   12....       LCALL     ?Subroutine13 & 0xFFFF
    306              epDesc->simpleDesc = simpleDesc;
   \                     ??CrossCallReturnLabel_6:
   \   000029   EE           MOV       A,R6
   \   00002A   F0           MOVX      @DPTR,A
   \   00002B   A3           INC       DPTR
   \   00002C   EF           MOV       A,R7
   \   00002D   12....       LCALL     ?Subroutine13 & 0xFFFF
    307              epDesc->latencyReq = noLatencyReqs;
   \                     ??CrossCallReturnLabel_7:
   \   000030   A3           INC       DPTR
   \   000031   A3           INC       DPTR
   \   000032   E4           CLR       A
   \   000033   F0           MOVX      @DPTR,A
    308          
    309              // Register the endpoint description with the AF
    310              afRegister( epDesc );
   \   000034                ; Setup parameters for call to function afRegister
   \   000034   12....       LCALL     `??afRegister::?relay`; Banked call to: afRegister
    311            }
    312          }
   \                     ??bdb_RegisterSimpleDescriptor_0:
   \   000037   80..         SJMP      ??Subroutine37_0

   \                                 In  segment BANKED_CODE, align 1, keep-with-next
   \                     ?Subroutine13:
   \   000000   F0           MOVX      @DPTR,A
   \   000001   8A82         MOV       DPL,R2
   \   000003   8B83         MOV       DPH,R3
   \   000005   A3           INC       DPTR
   \   000006   A3           INC       DPTR
   \   000007   A3           INC       DPTR
   \   000008   A3           INC       DPTR
   \   000009   22           RET

   \                                 In  segment BANKED_CODE, align 1, keep-with-next
   \                     ??Subroutine37_0:
   \   000000   7F02         MOV       R7,#0x2
   \   000002   02....       LJMP      ?BANKED_LEAVE_XDATA
    313          
    314          #if (BDB_FINDING_BINDING_CAPABILITY_ENABLED==1)  
    315          /*********************************************************************
    316           * @fn      bdb_ZclIdentifyCmdInd
    317           *
    318           * @brief   Callback from the ZCL General Cluster Library when
    319           *          it received an Identity Command for this application.
    320           *
    321           * @param   identifyTime - the number of seconds to identify yourself
    322           * @param   endpoint - destination endpoint
    323           *
    324           * @return  none
    325           */

   \                                 In  segment BANKED_CODE, align 1, keep-with-next
    326          void bdb_ZclIdentifyCmdInd( uint16 identifyTime, uint8 endpoint )
   \                     bdb_ZclIdentifyCmdInd:
    327          {
   \   000000                REQUIRE ?V0
   \   000000                REQUIRE ?V1
   \   000000                REQUIRE ?V2
   \   000000                REQUIRE ?V3
   \   000000   74F4         MOV       A,#-0xc
   \   000002   12....       LCALL     ?BANKED_ENTER_XDATA
   \   000005                ; Saved register size: 12
   \   000005                ; Auto size: 8
   \   000005   74F8         MOV       A,#-0x8
   \   000007   12....       LCALL     ?ALLOC_XSTACK8
   \   00000A   8A..         MOV       ?V0,R2
   \   00000C   8B..         MOV       ?V1,R3
   \   00000E   E9           MOV       A,R1
   \   00000F   FE           MOV       R6,A
    328            zclAttrRec_t identifyAttrRec;
    329            
    330            if ( zclFindAttrRec( endpoint, ZCL_CLUSTER_ID_GEN_IDENTIFY,
    331                                ATTRID_IDENTIFY_TIME, &identifyAttrRec ) )
   \   000010                ; Setup parameters for call to function zclFindAttrRec
   \   000010   A8..         MOV       R0,?XSP + 0
   \   000012   A9..         MOV       R1,?XSP + 1
   \   000014   88..         MOV       ?V2,R0
   \   000016   89..         MOV       ?V3,R1
   \   000018   78..         MOV       R0,#?V2
   \   00001A   12....       LCALL     ?PUSH_XSTACK_I_TWO
   \   00001D   7C00         MOV       R4,#0x0
   \   00001F   7D00         MOV       R5,#0x0
   \   000021   7A03         MOV       R2,#0x3
   \   000023   7B00         MOV       R3,#0x0
   \   000025   EE           MOV       A,R6
   \   000026   F9           MOV       R1,A
   \   000027   12....       LCALL     `??zclFindAttrRec::?relay`; Banked call to: zclFindAttrRec
   \   00002A   7402         MOV       A,#0x2
   \   00002C   12....       LCALL     ?DEALLOC_XSTACK8
   \   00002F   E9           MOV       A,R1
   \   000030   605C         JZ        ??bdb_ZclIdentifyCmdInd_0
    332            {
    333              //If we are processing an actual change
    334              if(*(uint16*)identifyAttrRec.attr.dataPtr != identifyTime)
   \   000032   7406         MOV       A,#0x6
   \   000034   12....       LCALL     ?XSTACK_DISP0_8
   \   000037   12....       LCALL     ?Subroutine23 & 0xFFFF
   \                     ??CrossCallReturnLabel_25:
   \   00003A   E0           MOVX      A,@DPTR
   \   00003B   65..         XRL       A,?V0
   \   00003D   7004         JNZ       ??bdb_ZclIdentifyCmdInd_1
   \   00003F   A3           INC       DPTR
   \   000040   E0           MOVX      A,@DPTR
   \   000041   65..         XRL       A,?V1
   \                     ??bdb_ZclIdentifyCmdInd_1:
   \   000043   6049         JZ        ??bdb_ZclIdentifyCmdInd_0
    335              {
    336                if ( identifyTime > 0 )
   \   000045   E5..         MOV       A,?V0
   \   000047   45..         ORL       A,?V1
   \   000049   8882         MOV       DPL,R0
   \   00004B   8983         MOV       DPH,R1
   \   00004D   6020         JZ        ??bdb_ZclIdentifyCmdInd_2
    337                {
    338                  *((uint16*)identifyAttrRec.attr.dataPtr) = identifyTime;
   \   00004F   E5..         MOV       A,?V0
   \   000051   F0           MOVX      @DPTR,A
   \   000052   A3           INC       DPTR
   \   000053   E5..         MOV       A,?V1
   \   000055   F0           MOVX      @DPTR,A
    339                  osal_start_timerEx( bdb_TaskID, BDB_IDENTIFY_TIMEOUT, 1000 );
   \   000056                ; Setup parameters for call to function osal_start_timerEx
   \   000056   90....       MOV       DPTR,#__Constant_3e8
   \   000059   12....       LCALL     ?PUSH_XSTACK8_X_FOUR
   \   00005C   7A00         MOV       R2,#0x0
   \   00005E   7B20         MOV       R3,#0x20
   \   000060   90....       MOV       DPTR,#bdb_TaskID
   \   000063   E0           MOVX      A,@DPTR
   \   000064   F9           MOV       R1,A
   \   000065   12....       LCALL     `??osal_start_timerEx::?relay`; Banked call to: osal_start_timerEx
   \   000068   7404         MOV       A,#0x4
   \   00006A   12....       LCALL     ?DEALLOC_XSTACK8
   \   00006D   800F         SJMP      ??bdb_ZclIdentifyCmdInd_3
    340                }
    341                else if ( identifyTime <= 0 )
    342                {
    343                  *((uint16*)identifyAttrRec.attr.dataPtr) = 0;
   \                     ??bdb_ZclIdentifyCmdInd_2:
   \   00006F   E4           CLR       A
   \   000070   F0           MOVX      @DPTR,A
   \   000071   A3           INC       DPTR
   \   000072   F0           MOVX      @DPTR,A
    344                  osal_stop_timerEx( bdb_TaskID, BDB_IDENTIFY_TIMEOUT );
   \   000073                ; Setup parameters for call to function osal_stop_timerEx
   \   000073   FA           MOV       R2,A
   \   000074   7B20         MOV       R3,#0x20
   \   000076   90....       MOV       DPTR,#bdb_TaskID
   \   000079   E0           MOVX      A,@DPTR
   \   00007A   F9           MOV       R1,A
   \   00007B   12....       LCALL     `??osal_stop_timerEx::?relay`; Banked call to: osal_stop_timerEx
    345                }
    346                
    347                if(pfnIdentifyTimeChangeCB != NULL)
   \                     ??bdb_ZclIdentifyCmdInd_3:
   \   00007E   90....       MOV       DPTR,#pfnIdentifyTimeChangeCB
   \   000081   12....       LCALL     ??Subroutine46_0 & 0xFFFF
   \                     ??CrossCallReturnLabel_52:
   \   000084   6008         JZ        ??bdb_ZclIdentifyCmdInd_0
    348                {
    349                  pfnIdentifyTimeChangeCB(endpoint);
   \   000086                ; Setup parameters for indirect call
   \   000086   EE           MOV       A,R6
   \   000087   F9           MOV       R1,A
   \   000088   12....       LCALL     ??Subroutine48_0 & 0xFFFF
    350                }
    351              }
    352            }
   \                     ??CrossCallReturnLabel_78:
   \   00008B   12....       LCALL     ?CALL_IND
    353          }
   \                     ??bdb_ZclIdentifyCmdInd_0:
   \   00008E   7408         MOV       A,#0x8
   \   000090   02....       LJMP      ??Subroutine42_0 & 0xFFFF

   \                                 In  segment BANKED_CODE, align 1, keep-with-next
   \                     ?Subroutine33:
   \   000000   E0           MOVX      A,@DPTR
   \   000001   F8           MOV       R0,A
   \   000002   A3           INC       DPTR
   \   000003   E0           MOVX      A,@DPTR
   \   000004   F9           MOV       R1,A
   \   000005   22           RET

   \                                 In  segment BANKED_CODE, align 1, keep-with-next
   \                     ??Subroutine42_0:
   \   000000   12....       LCALL     ?DEALLOC_XSTACK8
   \   000003                REQUIRE ??Subroutine43_0
   \   000003                ; // Fall through to label ??Subroutine43_0

   \                                 In  segment BANKED_CODE, align 1, keep-with-next
   \                     ??Subroutine43_0:
   \   000000   7F04         MOV       R7,#0x4
   \   000002   02....       LJMP      ?BANKED_LEAVE_XDATA

   \                                 In  segment BANKED_CODE, align 1, keep-with-next
   \                     ?Subroutine23:
   \   000000   12....       LCALL     ?Subroutine33 & 0xFFFF
   \                     ??CrossCallReturnLabel_73:
   \   000003   8882         MOV       DPL,R0
   \   000005   8983         MOV       DPH,R1
   \   000007   22           RET

   \                                 In  segment BANKED_CODE, align 1, keep-with-next
   \                     ??Subroutine46_0:
   \   000000   12....       LCALL     ?Subroutine33 & 0xFFFF
   \                     ??CrossCallReturnLabel_74:
   \   000003   E8           MOV       A,R0
   \   000004   49           ORL       A,R1
   \   000005   22           RET

   \                                 In  segment BANKED_CODE, align 1, keep-with-next
   \                     ??Subroutine48_0:
   \   000000   E0           MOVX      A,@DPTR
   \   000001   F583         MOV       DPH,A
   \   000003   8882         MOV       DPL,R0
   \   000005   22           RET
    354          #endif
    355          
    356          
    357          #if (ZG_BUILD_JOINING_TYPE) 
    358           /*********************************************************************
    359           * @fn          bdb_setActiveCentralizedLinkKey
    360           *
    361           * @brief       Set the active centralized key to be used, Global or IC derived.
    362           *
    363           * @param       useGlobal - If TRUE, then use default TC link key, if FALSE use 
    364           *                          pBuf as source for IC key derived input
    365           * @param       pBuf - The expected format and length of the IC is defined by 
    366           *                     BDB_INSTALL_CODE_USE
    367           *
    368           * @return      ZStatus_t - ZFailure when no valid BDB_INSTALL_CODE_USE is used
    369           *                          ZInvalidParameter when IC buffer is null
    370           */
    371          ZStatus_t bdb_setActiveCentralizedLinkKey(bool useGlobal, uint8* pBuf)
    372          {
    373            ZStatus_t Status = ZSuccess;
    374            uint8 extAddr[Z_EXTADDR_LEN];
    375            
    376            if(useGlobal)
    377            {
    378              //Set the default key to be used in centralized networks as defaultTCLinkKey
    379              APSME_SetDefaultKey();
    380            } 
    381            else
    382            {
    383              if(pBuf != NULL)
    384              {
    385            #if (BDB_INSTALL_CODE_USE==BDB_INSTALL_CODE_USE_IC_CRC)
    386                
    387                osal_memset(extAddr,0x00,Z_EXTADDR_LEN);
    388                
    389                //Set the install code as default key
    390                Status = bdb_addInstallCode(pBuf,extAddr);
    391              
    392            #elif (BDB_INSTALL_CODE_USE==BDB_INSTALL_CODE_USE_KEY)
    393          
    394                //Set the key as global default
    395                APSME_AddTCLinkKey(pBuf,extAddr);
    396            #else
    397              
    398                //BDB_INSTALL_CODE_USE not supported
    399                Status = ZFailure;
    400            #endif
    401              }
    402              else
    403              {
    404                Status = ZInvalidParameter;
    405              }
    406            }
    407            return Status;
    408          }
    409          #endif
    410          
    411          
    412              
    413            
    414          /******************************************************************************
    415           * @fn          bdb_addInstallCode
    416           *
    417           * @brief       Interface to add an install codes and adds a APS TC Link key.
    418           *
    419           * @param       pInstallCode - [in] Install Code with CRC (buffer size of 18 bytes).
    420           *              pExt - [in] Extended address of the node.
    421           *
    422           * @return      ZStatus_t
    423           */

   \                                 In  segment BANKED_CODE, align 1, keep-with-next
    424          ZStatus_t bdb_addInstallCode(uint8* pInstallCode, uint8* pExt)
   \                     bdb_addInstallCode:
    425          {
   \   000000                REQUIRE ?V0
   \   000000                REQUIRE ?V1
   \   000000                REQUIRE ?V2
   \   000000                REQUIRE ?V3
   \   000000                REQUIRE ?V4
   \   000000                REQUIRE ?V5
   \   000000   74F2         MOV       A,#-0xe
   \   000002   12....       LCALL     ?BANKED_ENTER_XDATA
   \   000005                ; Saved register size: 14
   \   000005                ; Auto size: 16
   \   000005   74F0         MOV       A,#-0x10
   \   000007   12....       LCALL     ?ALLOC_XSTACK8
   \   00000A   EA           MOV       A,R2
   \   00000B   FE           MOV       R6,A
   \   00000C   EB           MOV       A,R3
   \   00000D   FF           MOV       R7,A
   \   00000E   8C..         MOV       ?V2,R4
   \   000010   8D..         MOV       ?V3,R5
    426            uint8  hashOutput[16];
    427            uint16 CRC;
    428            
    429          #if (ZG_BUILD_COORDINATOR_TYPE)
    430            if(ZG_DEVICE_COORDINATOR_TYPE)
    431            {
    432              if(zgAllowInstallCodes == ZG_IC_NOT_SUPPORTED)
   \   000012   90....       MOV       DPTR,#zgAllowInstallCodes
   \   000015   E0           MOVX      A,@DPTR
   \   000016   7004         JNZ       ??bdb_addInstallCode_0
    433              {
    434                return ZFailure;
   \   000018   7901         MOV       R1,#0x1
   \   00001A   805D         SJMP      ??bdb_addInstallCode_1
    435              }
    436            }
    437          #endif
    438                 
    439            if((pInstallCode == NULL) || (pExt == NULL))
   \                     ??bdb_addInstallCode_0:
   \   00001C   EE           MOV       A,R6
   \   00001D   4F           ORL       A,R7
   \   00001E   6020         JZ        ??bdb_addInstallCode_2
   \   000020   EC           MOV       A,R4
   \   000021   45..         ORL       A,?V3
   \   000023   601B         JZ        ??bdb_addInstallCode_2
    440            {
    441              return ZInvalidParameter;
    442            }
    443            
    444            CRC = bdb_GenerateInstallCodeCRC(pInstallCode);
   \   000025                ; Setup parameters for call to function bdb_GenerateInstallCodeCRC
   \   000025   12....       LCALL     `??bdb_GenerateInstallCodeCRC::?relay`; Banked call to: bdb_GenerateInstallCodeCRC
   \   000028   8A..         MOV       ?V0,R2
   \   00002A   8B..         MOV       ?V1,R3
    445            //Validate CRC
    446            if(CRC != osal_build_uint16(&pInstallCode[INSTALL_CODE_LEN]))
   \   00002C                ; Setup parameters for call to function osal_build_uint16
   \   00002C   EE           MOV       A,R6
   \   00002D   2410         ADD       A,#0x10
   \   00002F   FA           MOV       R2,A
   \   000030   E4           CLR       A
   \   000031   3F           ADDC      A,R7
   \   000032   FB           MOV       R3,A
   \   000033   12....       LCALL     `??osal_build_uint16::?relay`; Banked call to: osal_build_uint16
   \   000036   EA           MOV       A,R2
   \   000037   65..         XRL       A,?V0
   \   000039   7003         JNZ       ??bdb_addInstallCode_3
   \   00003B   EB           MOV       A,R3
   \   00003C   65..         XRL       A,?V1
   \                     ??bdb_addInstallCode_3:
   \   00003E   6004         JZ        ??bdb_addInstallCode_4
    447            {
    448              return ZInvalidParameter;
   \                     ??bdb_addInstallCode_2:
   \   000040   7902         MOV       R1,#0x2
   \   000042   8035         SJMP      ??bdb_addInstallCode_1
    449            }
    450          
    451            sspMMOHash (NULL, 0, pInstallCode,(INSTALL_CODE_LEN + INSTALL_CODE_CRC_LEN) * BITS_PER_BYTE, hashOutput);
   \                     ??bdb_addInstallCode_4:
   \   000044                ; Setup parameters for call to function sspMMOHash
   \   000044   A8..         MOV       R0,?XSP + 0
   \   000046   A9..         MOV       R1,?XSP + 1
   \   000048   88..         MOV       ?V0,R0
   \   00004A   89..         MOV       ?V1,R1
   \   00004C   78..         MOV       R0,#?V0
   \   00004E   12....       LCALL     ?PUSH_XSTACK_I_TWO
   \   000051   75..90       MOV       ?V0,#-0x70
   \   000054   75..00       MOV       ?V1,#0x0
   \   000057   78..         MOV       R0,#?V0
   \   000059   12....       LCALL     ?PUSH_XSTACK_I_TWO
   \   00005C   EE           MOV       A,R6
   \   00005D   FC           MOV       R4,A
   \   00005E   EF           MOV       A,R7
   \   00005F   FD           MOV       R5,A
   \   000060   7900         MOV       R1,#0x0
   \   000062   7A00         MOV       R2,#0x0
   \   000064   7B00         MOV       R3,#0x0
   \   000066   12....       LCALL     `??sspMMOHash::?relay`; Banked call to: sspMMOHash
   \   000069   7404         MOV       A,#0x4
   \   00006B   12....       LCALL     ?DEALLOC_XSTACK8
    452          
    453            return APSME_AddTCLinkKey(hashOutput,pExt);
   \   00006E                ; Setup parameters for call to function APSME_AddTCLinkKey
   \   00006E   AC..         MOV       R4,?V2
   \   000070   AD..         MOV       R5,?V3
   \   000072   AA..         MOV       R2,?XSP + 0
   \   000074   AB..         MOV       R3,?XSP + 1
   \   000076   12....       LCALL     `??APSME_AddTCLinkKey::?relay`; Banked call to: APSME_AddTCLinkKey
   \                     ??bdb_addInstallCode_1:
   \   000079   7410         MOV       A,#0x10
   \   00007B   12....       LCALL     ?DEALLOC_XSTACK8
   \   00007E                REQUIRE ?Subroutine3
   \   00007E                ; // Fall through to label ?Subroutine3
    454          }    

   \                                 In  segment BANKED_CODE, align 1, keep-with-next
   \                     ?Subroutine3:
   \   000000   7F06         MOV       R7,#0x6
   \   000002   02....       LJMP      ?BANKED_LEAVE_XDATA
    455              
    456          
    457          #if (ZG_BUILD_COORDINATOR_TYPE)
    458           /*********************************************************************
    459           * @fn      bdb_RegisterTCLinkKeyExchangeProcessCB
    460           *
    461           * @brief   Register a callback to receive notifications on the joining devices 
    462           *          and its status on TC link key exchange
    463           *
    464           * @param   bdbGCB_TCLinkKeyExchangeProcess - application callback 
    465           *          (extended address of device, status: 0 = Joining, 1 = TC link key exchange success, 2 = TC link key exchange failed)
    466           *
    467           * @return  none
    468           */

   \                                 In  segment BANKED_CODE, align 1, keep-with-next
    469          void bdb_RegisterTCLinkKeyExchangeProcessCB(bdbGCB_TCLinkKeyExchangeProcess_t bdbGCB_TCLinkKeyExchangeProcess)
   \                     bdb_RegisterTCLinkKeyExchangeProcessCB:
    470          {
   \   000000   C082         PUSH      DPL
   \   000002   C083         PUSH      DPH
   \   000004                ; Saved register size: 2
   \   000004                ; Auto size: 0
    471            if(bdbGCB_TCLinkKeyExchangeProcess != NULL)
   \   000004   EA           MOV       A,R2
   \   000005   4B           ORL       A,R3
   \   000006   6008         JZ        ??bdb_RegisterTCLinkKeyExchangeProcessCB_0
    472            {
    473              pfnTCLinkKeyExchangeProcessCB = bdbGCB_TCLinkKeyExchangeProcess;
   \   000008   90....       MOV       DPTR,#pfnTCLinkKeyExchangeProcessCB
   \   00000B   EA           MOV       A,R2
   \   00000C   F0           MOVX      @DPTR,A
   \   00000D   A3           INC       DPTR
   \   00000E   EB           MOV       A,R3
   \   00000F   F0           MOVX      @DPTR,A
    474            }
    475          }
   \                     ??bdb_RegisterTCLinkKeyExchangeProcessCB_0:
   \   000010   02....       LJMP      ??Subroutine40_0 & 0xFFFF

   \                                 In  segment BANKED_CODE, align 1, keep-with-next
   \                     ??Subroutine40_0:
   \   000000   D083         POP       DPH
   \   000002   D082         POP       DPL
   \   000004   02....       LJMP      ?BRET
    476          
    477          
    478          
    479           /*********************************************************************
    480           * @fn          bdb_setTCRequireKeyExchange
    481           *
    482           * @brief       Set the bdb_setTCRequireKeyExchange attribute
    483           *
    484           * @param       isKeyExchangeRequired - True if TC will remove devices that do 
    485           *              not perform key exchange after bdbTrustCenterNodeJoinTimeout, 
    486           *              False to not remove devices.
    487           *
    488           * @return      none
    489           */

   \                                 In  segment BANKED_CODE, align 1, keep-with-next
    490          void bdb_setTCRequireKeyExchange(bool isKeyExchangeRequired)
   \                     bdb_setTCRequireKeyExchange:
    491          {
   \   000000   C082         PUSH      DPL
   \   000002   C083         PUSH      DPH
   \   000004                ; Saved register size: 2
   \   000004                ; Auto size: 0
    492            bdbAttributes.bdbTrustCenterRequireKeyExchange = isKeyExchangeRequired;
   \   000004   E9           MOV       A,R1
   \   000005   90....       MOV       DPTR,#bdbAttributes + 17
   \   000008   02....       LJMP      ??Subroutine39_0 & 0xFFFF
    493          }

   \                                 In  segment BANKED_CODE, align 1, keep-with-next
   \                     ??Subroutine39_0:
   \   000000   F0           MOVX      @DPTR,A
   \   000001                REQUIRE ??Subroutine40_0
   \   000001                ; // Fall through to label ??Subroutine40_0
    494          
    495          
    496          
    497           /*********************************************************************
    498           * @fn          bdb_TCAddJoiningDevice
    499           *
    500           * @brief       Add a joining device to the list of devices that must request a 
    501           *              key before bdbTrustCenterNodeJoinTimeout.
    502           *
    503           * @param       parentAddr - Address of the parent device
    504           * @param       JoiningExtAddr - IEEE address of the joining device
    505           *
    506           * @return      ZStatus_t - ZFailure No memory to allocate the device in the list
    507           *                          ZInvalidParameter
    508           */

   \                                 In  segment BANKED_CODE, align 1, keep-with-next
    509          ZStatus_t bdb_TCAddJoiningDevice(uint16 parentAddr, uint8* JoiningExtAddr)
   \                     bdb_TCAddJoiningDevice:
    510          {
   \   000000                REQUIRE ?V0
   \   000000                REQUIRE ?V1
   \   000000                REQUIRE ?V2
   \   000000                REQUIRE ?V4
   \   000000                REQUIRE ?V5
   \   000000                REQUIRE ?V6
   \   000000   74F1         MOV       A,#-0xf
   \   000002   12....       LCALL     ?BANKED_ENTER_XDATA
   \   000005                ; Saved register size: 15
   \   000005                ; Auto size: 11
   \   000005   74F5         MOV       A,#-0xb
   \   000007   12....       LCALL     ?ALLOC_XSTACK8
   \   00000A   85..82       MOV       DPL,?XSP + 0
   \   00000D   85..83       MOV       DPH,?XSP + 1
   \   000010   EA           MOV       A,R2
   \   000011   F0           MOVX      @DPTR,A
   \   000012   A3           INC       DPTR
   \   000013   EB           MOV       A,R3
   \   000014   12....       LCALL     ?Subroutine15 & 0xFFFF
    511            bdb_joiningDeviceList_t* tempJoiningDescNode;
    512            
    513            if((parentAddr == INVALID_NODE_ADDR) || (JoiningExtAddr == NULL))
   \                     ??CrossCallReturnLabel_10:
   \   000017   64FE         XRL       A,#0xfe
   \   000019   7003         JNZ       ??bdb_TCAddJoiningDevice_0
   \   00001B   A3           INC       DPTR
   \   00001C   E0           MOVX      A,@DPTR
   \   00001D   F4           CPL       A
   \                     ??bdb_TCAddJoiningDevice_0:
   \   00001E   6004         JZ        ??bdb_TCAddJoiningDevice_1
   \   000020   EC           MOV       A,R4
   \   000021   4D           ORL       A,R5
   \   000022   7005         JNZ       ??bdb_TCAddJoiningDevice_2
    514            {
    515              return ZInvalidParameter;
   \                     ??bdb_TCAddJoiningDevice_1:
   \   000024   7902         MOV       R1,#0x2
   \   000026   02....       LJMP      ??bdb_TCAddJoiningDevice_3 & 0xFFFF
    516            }
    517            
    518            //If the list was empty and element was allocated, then start the timer
    519            if(bdb_joiningDeviceList == NULL)
   \                     ??bdb_TCAddJoiningDevice_2:
   \   000029   8C..         MOV       ?V0,R4
   \   00002B   8D..         MOV       ?V1,R5
   \   00002D   75..00       MOV       ?V2,#0x0
   \   000030   90....       MOV       DPTR,#bdb_joiningDeviceList
   \   000033   12....       LCALL     ??Subroutine46_0 & 0xFFFF
   \                     ??CrossCallReturnLabel_53:
   \   000036   7033         JNZ       ??bdb_TCAddJoiningDevice_4
    520            {
    521              bdb_joiningDeviceList = osal_mem_alloc(sizeof(bdb_joiningDeviceList_t));
   \   000038                ; Setup parameters for call to function osal_mem_alloc
   \   000038   7A0D         MOV       R2,#0xd
   \   00003A   7B00         MOV       R3,#0x0
   \   00003C   12....       LCALL     `??osal_mem_alloc::?relay`; Banked call to: osal_mem_alloc
   \   00003F   90....       MOV       DPTR,#bdb_joiningDeviceList
   \   000042   12....       LCALL     ?Subroutine11 & 0xFFFF
    522              if(bdb_joiningDeviceList == NULL)
   \                     ??CrossCallReturnLabel_4:
   \   000045   7003         JNZ       $+5
   \   000047   02....       LJMP      ??bdb_TCAddJoiningDevice_5 & 0xFFFF
    523              {
    524                return ZFailure;
    525              }
    526             
    527              osal_start_reload_timer(bdb_TaskID,BDB_TC_JOIN_TIMEOUT,1000);
   \   00004A                ; Setup parameters for call to function osal_start_reload_timer
   \   00004A   90....       MOV       DPTR,#__Constant_3e8
   \   00004D   12....       LCALL     ?PUSH_XSTACK8_X_FOUR
   \   000050   7A00         MOV       R2,#0x0
   \   000052   7B08         MOV       R3,#0x8
   \   000054   90....       MOV       DPTR,#bdb_TaskID
   \   000057   E0           MOVX      A,@DPTR
   \   000058   F9           MOV       R1,A
   \   000059   12....       LCALL     `??osal_start_reload_timer::?relay`; Banked call to: osal_start_reload_timer
   \   00005C   7404         MOV       A,#0x4
   \   00005E   12....       LCALL     ?DEALLOC_XSTACK8
    528              tempJoiningDescNode = bdb_joiningDeviceList;
   \   000061   90....       MOV       DPTR,#bdb_joiningDeviceList
   \   000064   E0           MOVX      A,@DPTR
   \   000065   FE           MOV       R6,A
   \   000066   A3           INC       DPTR
   \   000067   E0           MOVX      A,@DPTR
   \   000068   02....       LJMP      ??bdb_TCAddJoiningDevice_6 & 0xFFFF
    529            }
    530            //if the list was not empty then add the entry at the end of the list
    531            else
    532            {
    533              tempJoiningDescNode = bdb_joiningDeviceList;
   \                     ??bdb_TCAddJoiningDevice_4:
   \   00006B   12....       LCALL     ?Subroutine34 & 0xFFFF
    534              
    535              //Validate that this is not already in the list... somehow
    536              if(osal_memcmp(JoiningExtAddr,tempJoiningDescNode->bdbJoiningNodeEui64,Z_EXTADDR_LEN))
   \                     ??CrossCallReturnLabel_89:
   \   00006E                ; Setup parameters for call to function osal_memcmp
   \   00006E   8E82         MOV       DPL,R6
   \   000070   8F83         MOV       DPH,R7
   \   000072   A3           INC       DPTR
   \   000073   A3           INC       DPTR
   \   000074   A982         MOV       R1,DPL
   \   000076   AA83         MOV       R2,DPH
   \   000078   89..         MOV       ?V4,R1
   \   00007A   8A..         MOV       ?V5,R2
   \   00007C   75..00       MOV       ?V6,#0x0
   \   00007F   78..         MOV       R0,#?V4
   \   000081   12....       LCALL     ?PUSH_XSTACK_I_THREE
   \   000084   7C08         MOV       R4,#0x8
   \   000086   7D00         MOV       R5,#0x0
   \   000088   A9..         MOV       R1,?V0
   \   00008A   AA..         MOV       R2,?V1
   \   00008C   AB..         MOV       R3,?V2
   \   00008E   12....       LCALL     `??osal_memcmp::?relay`; Banked call to: osal_memcmp
   \   000091   7403         MOV       A,#0x3
   \   000093   12....       LCALL     ?DEALLOC_XSTACK8
   \   000096   E9           MOV       A,R1
   \   000097   7038         JNZ       ??bdb_TCAddJoiningDevice_7
    537              {
    538                //The device added is already in the list, refresh its time and do nothing else
    539                tempJoiningDescNode->NodeJoinTimeout = bdbAttributes.bdbTrustCenterNodeJoinTimeout;
    540                return ZSuccess;
    541              }
    542              
    543              while(tempJoiningDescNode->nextDev != NULL)
   \                     ??bdb_TCAddJoiningDevice_8:
   \   000099   EE           MOV       A,R6
   \   00009A   240B         ADD       A,#0xb
   \   00009C   FE           MOV       R6,A
   \   00009D   5001         JNC       ??bdb_TCAddJoiningDevice_9
   \   00009F   0F           INC       R7
   \                     ??bdb_TCAddJoiningDevice_9:
   \   0000A0   12....       LCALL     ??Subroutine45_0 & 0xFFFF
   \                     ??CrossCallReturnLabel_67:
   \   0000A3   6033         JZ        ??bdb_TCAddJoiningDevice_10
    544              {
    545                tempJoiningDescNode = tempJoiningDescNode->nextDev;
   \   0000A5   E8           MOV       A,R0
   \   0000A6   FE           MOV       R6,A
   \   0000A7   E9           MOV       A,R1
   \   0000A8   FF           MOV       R7,A
    546                
    547                //Validate that this is not already in the list... somehow
    548                if(osal_memcmp(JoiningExtAddr,tempJoiningDescNode->bdbJoiningNodeEui64,Z_EXTADDR_LEN))
   \   0000A9                ; Setup parameters for call to function osal_memcmp
   \   0000A9   8E82         MOV       DPL,R6
   \   0000AB   8F83         MOV       DPH,R7
   \   0000AD   A3           INC       DPTR
   \   0000AE   A3           INC       DPTR
   \   0000AF   A982         MOV       R1,DPL
   \   0000B1   AA83         MOV       R2,DPH
   \   0000B3   89..         MOV       ?V4,R1
   \   0000B5   8A..         MOV       ?V5,R2
   \   0000B7   78..         MOV       R0,#?V4
   \   0000B9   12....       LCALL     ?PUSH_XSTACK_I_THREE
   \   0000BC   7C08         MOV       R4,#0x8
   \   0000BE   7D00         MOV       R5,#0x0
   \   0000C0   A9..         MOV       R1,?V0
   \   0000C2   AA..         MOV       R2,?V1
   \   0000C4   AB..         MOV       R3,?V2
   \   0000C6   12....       LCALL     `??osal_memcmp::?relay`; Banked call to: osal_memcmp
   \   0000C9   7403         MOV       A,#0x3
   \   0000CB   12....       LCALL     ?DEALLOC_XSTACK8
   \   0000CE   E9           MOV       A,R1
   \   0000CF   60C8         JZ        ??bdb_TCAddJoiningDevice_8
    549                {
    550                  //The device added is already in the list, refresh its time and do nothing else
    551                  tempJoiningDescNode->NodeJoinTimeout = bdbAttributes.bdbTrustCenterNodeJoinTimeout;
   \                     ??bdb_TCAddJoiningDevice_7:
   \   0000D1   12....       LCALL     ?Subroutine24 & 0xFFFF
   \                     ??CrossCallReturnLabel_28:
   \   0000D4   F0           MOVX      @DPTR,A
    552                  return ZSuccess;
   \   0000D5   02....       LJMP      ??bdb_TCAddJoiningDevice_11 & 0xFFFF
    553                }
    554              }
    555              
    556              tempJoiningDescNode->nextDev = osal_mem_alloc(sizeof(bdb_joiningDeviceList_t));
   \                     ??bdb_TCAddJoiningDevice_10:
   \   0000D8                ; Setup parameters for call to function osal_mem_alloc
   \   0000D8   7A0D         MOV       R2,#0xd
   \   0000DA   7B00         MOV       R3,#0x0
   \   0000DC   12....       LCALL     `??osal_mem_alloc::?relay`; Banked call to: osal_mem_alloc
   \   0000DF   8A..         MOV       ?V4,R2
   \   0000E1   8B..         MOV       ?V5,R3
   \   0000E3   A8..         MOV       R0,?V4
   \   0000E5   A9..         MOV       R1,?V5
   \   0000E7   12....       LCALL     ??Subroutine49_0 & 0xFFFF
    557              if(tempJoiningDescNode->nextDev == NULL)
   \                     ??CrossCallReturnLabel_86:
   \   0000EA   7005         JNZ       ??bdb_TCAddJoiningDevice_12
    558              {
    559                return ZFailure;
   \                     ??bdb_TCAddJoiningDevice_5:
   \   0000EC   7901         MOV       R1,#0x1
   \   0000EE   02....       LJMP      ??bdb_TCAddJoiningDevice_3 & 0xFFFF
    560              }
    561              
    562              tempJoiningDescNode = tempJoiningDescNode->nextDev;
   \                     ??bdb_TCAddJoiningDevice_12:
   \   0000F1   E8           MOV       A,R0
   \   0000F2   FE           MOV       R6,A
   \   0000F3   E9           MOV       A,R1
   \                     ??bdb_TCAddJoiningDevice_6:
   \   0000F4   FF           MOV       R7,A
   \   0000F5   90....       MOV       DPTR,#pfnTCLinkKeyExchangeProcessCB
    563            }
   \   0000F8   12....       LCALL     ??Subroutine46_0 & 0xFFFF
   \                     ??CrossCallReturnLabel_54:
   \   0000FB   6053         JZ        ??bdb_TCAddJoiningDevice_13
    564            
    565            if(pfnTCLinkKeyExchangeProcessCB)
    566            {
    567              bdb_TCLinkKeyExchProcess_t bdb_TCLinkKeyExchProcess;
    568              osal_memcpy(bdb_TCLinkKeyExchProcess.extAddr,tempJoiningDescNode->bdbJoiningNodeEui64, Z_EXTADDR_LEN);
   \   0000FD                ; Setup parameters for call to function osal_memcpy
   \   0000FD   8E82         MOV       DPL,R6
   \   0000FF   8F83         MOV       DPH,R7
   \   000101   A3           INC       DPTR
   \   000102   A3           INC       DPTR
   \   000103   A982         MOV       R1,DPL
   \   000105   AA83         MOV       R2,DPH
   \   000107   89..         MOV       ?V4,R1
   \   000109   8A..         MOV       ?V5,R2
   \   00010B   75..00       MOV       ?V6,#0x0
   \   00010E   78..         MOV       R0,#?V4
   \   000110   12....       LCALL     ?PUSH_XSTACK_I_THREE
   \   000113   7C08         MOV       R4,#0x8
   \   000115   7D00         MOV       R5,#0x0
   \   000117   7406         MOV       A,#0x6
   \   000119   12....       LCALL     ?XSTACK_DISP0_8
   \   00011C   AA82         MOV       R2,DPL
   \   00011E   AB83         MOV       R3,DPH
   \   000120   12....       LCALL     `??osal_memcpy::?relay`; Banked call to: osal_memcpy
   \   000123   7403         MOV       A,#0x3
   \   000125   12....       LCALL     ?DEALLOC_XSTACK8
    569              bdb_TCLinkKeyExchProcess.status = BDB_TC_LK_EXCH_PROCESS_JOINING;
   \   000128   7402         MOV       A,#0x2
   \   00012A   12....       LCALL     ?XSTACK_DISP0_8
   \   00012D   E4           CLR       A
   \   00012E   F0           MOVX      @DPTR,A
    570              
    571              bdb_SendMsg(bdb_TaskID, BDB_TC_LINK_KEY_EXCHANGE_PROCESS, BDB_MSG_EVENT_SUCCESS,sizeof(bdb_TCLinkKeyExchProcess_t),(uint8*)&bdb_TCLinkKeyExchProcess);
   \   00012F                ; Setup parameters for call to function bdb_SendMsg
   \   00012F   7402         MOV       A,#0x2
   \   000131   12....       LCALL     ?XSTACK_DISP100_8
   \   000134   88..         MOV       ?V4,R0
   \   000136   89..         MOV       ?V5,R1
   \   000138   78..         MOV       R0,#?V4
   \   00013A   12....       LCALL     ?PUSH_XSTACK_I_TWO
   \   00013D   7C09         MOV       R4,#0x9
   \   00013F   7B00         MOV       R3,#0x0
   \   000141   7A09         MOV       R2,#0x9
   \   000143   90....       MOV       DPTR,#bdb_TaskID
   \   000146   E0           MOVX      A,@DPTR
   \   000147   F9           MOV       R1,A
   \   000148   12....       LCALL     `??bdb_SendMsg::?relay`; Banked call to: bdb_SendMsg
   \   00014B   7402         MOV       A,#0x2
   \   00014D   12....       LCALL     ?DEALLOC_XSTACK8
    572            }
    573            
    574            tempJoiningDescNode->nextDev = NULL;
   \                     ??bdb_TCAddJoiningDevice_13:
   \   000150   12....       LCALL     ?Subroutine29 & 0xFFFF
   \                     ??CrossCallReturnLabel_35:
   \   000153   E4           CLR       A
   \   000154   F0           MOVX      @DPTR,A
   \   000155   A3           INC       DPTR
   \   000156   F0           MOVX      @DPTR,A
    575            tempJoiningDescNode->NodeJoinTimeout = bdbAttributes.bdbTrustCenterNodeJoinTimeout;
   \   000157   12....       LCALL     ?Subroutine24 & 0xFFFF
   \                     ??CrossCallReturnLabel_29:
   \   00015A   12....       LCALL     ?Subroutine15 & 0xFFFF
    576            tempJoiningDescNode->parentAddr = parentAddr;
   \                     ??CrossCallReturnLabel_11:
   \   00015D   F8           MOV       R0,A
   \   00015E   A3           INC       DPTR
   \   00015F   E0           MOVX      A,@DPTR
   \   000160   F9           MOV       R1,A
   \   000161   12....       LCALL     ?Subroutine31 & 0xFFFF
    577            osal_memcpy(tempJoiningDescNode->bdbJoiningNodeEui64, JoiningExtAddr, Z_EXTADDR_LEN);
   \                     ??CrossCallReturnLabel_101:
   \   000164                ; Setup parameters for call to function osal_memcpy
   \   000164   78..         MOV       R0,#?V0
   \   000166   12....       LCALL     ?PUSH_XSTACK_I_THREE
   \   000169   7C08         MOV       R4,#0x8
   \   00016B   7D00         MOV       R5,#0x0
   \   00016D   EE           MOV       A,R6
   \   00016E   2402         ADD       A,#0x2
   \   000170   FA           MOV       R2,A
   \   000171   E4           CLR       A
   \   000172   3F           ADDC      A,R7
   \   000173   FB           MOV       R3,A
   \   000174   12....       LCALL     `??osal_memcpy::?relay`; Banked call to: osal_memcpy
   \   000177   7403         MOV       A,#0x3
   \   000179   12....       LCALL     ?DEALLOC_XSTACK8
    578            
    579            return ZSuccess;
   \                     ??bdb_TCAddJoiningDevice_11:
   \   00017C   7900         MOV       R1,#0x0
   \                     ??bdb_TCAddJoiningDevice_3:
   \   00017E                REQUIRE ?Subroutine5
   \   00017E                ; // Fall through to label ?Subroutine5
    580          }

   \                                 In  segment BANKED_CODE, align 1, keep-with-next
   \                     ?Subroutine5:
   \   000000   740B         MOV       A,#0xb
   \   000002   12....       LCALL     ?DEALLOC_XSTACK8
   \   000005   7F07         MOV       R7,#0x7
   \   000007   02....       LJMP      ?BANKED_LEAVE_XDATA

   \                                 In  segment BANKED_CODE, align 1, keep-with-next
   \                     ?Subroutine24:
   \   000000   90....       MOV       DPTR,#bdbAttributes + 16
   \   000003   E0           MOVX      A,@DPTR
   \   000004   8E82         MOV       DPL,R6
   \   000006   8F83         MOV       DPH,R7
   \   000008   A3           INC       DPTR
   \   000009   A3           INC       DPTR
   \   00000A   A3           INC       DPTR
   \   00000B   A3           INC       DPTR
   \   00000C   A3           INC       DPTR
   \   00000D   A3           INC       DPTR
   \   00000E   A3           INC       DPTR
   \   00000F   A3           INC       DPTR
   \   000010   A3           INC       DPTR
   \   000011   A3           INC       DPTR
   \   000012   22           RET

   \                                 In  segment BANKED_CODE, align 1, keep-with-next
   \                     ?Subroutine15:
   \   000000   F0           MOVX      @DPTR,A
   \   000001   85..82       MOV       DPL,?XSP + 0
   \   000004   85..83       MOV       DPH,?XSP + 1
   \   000007   E0           MOVX      A,@DPTR
   \   000008   22           RET

   \                                 In  segment BANKED_CODE, align 1, keep-with-next
   \                     ?Subroutine29:
   \   000000   EE           MOV       A,R6
   \   000001   240B         ADD       A,#0xb
   \   000003   F582         MOV       DPL,A
   \   000005   E4           CLR       A
   \   000006   3F           ADDC      A,R7
   \   000007   F583         MOV       DPH,A
   \   000009   22           RET

   \                                 In  segment BANKED_CODE, align 1, keep-with-next
   \                     ?Subroutine11:
   \   000000   EA           MOV       A,R2
   \   000001   F0           MOVX      @DPTR,A
   \   000002   A3           INC       DPTR
   \   000003   EB           MOV       A,R3
   \   000004   F0           MOVX      @DPTR,A
   \   000005   90....       MOV       DPTR,#bdb_joiningDeviceList
   \   000008   12....       LCALL     ?Subroutine33 & 0xFFFF
   \                     ??CrossCallReturnLabel_71:
   \   00000B   E8           MOV       A,R0
   \   00000C   49           ORL       A,R1
   \   00000D   22           RET

   \                                 In  segment BANKED_CODE, align 1, keep-with-next
   \                     ??Subroutine45_0:
   \   000000   8E82         MOV       DPL,R6
   \   000002   8F83         MOV       DPH,R7
   \   000004                REQUIRE ??Subroutine46_0
   \   000004                ; // Fall through to label ??Subroutine46_0

   \                                 In  segment BANKED_CODE, align 1, keep-with-next
   \                     ??Subroutine49_0:
   \   000000   12....       LCALL     ?Subroutine31 & 0xFFFF
   \                     ??CrossCallReturnLabel_103:
   \   000003   E8           MOV       A,R0
   \   000004   49           ORL       A,R1
   \   000005   22           RET

   \                                 In  segment BANKED_CODE, align 1, keep-with-next
   \                     ?Subroutine34:
   \   000000   90....       MOV       DPTR,#bdb_joiningDeviceList
   \   000003                REQUIRE ??Subroutine50_0
   \   000003                ; // Fall through to label ??Subroutine50_0

   \                                 In  segment BANKED_CODE, align 1, keep-with-next
   \                     ??Subroutine50_0:
   \   000000   E0           MOVX      A,@DPTR
   \   000001   FE           MOV       R6,A
   \   000002   A3           INC       DPTR
   \   000003   E0           MOVX      A,@DPTR
   \   000004   FF           MOV       R7,A
   \   000005   22           RET

   \                                 In  segment BANKED_CODE, align 1, keep-with-next
   \                     ?Subroutine31:
   \   000000   8E82         MOV       DPL,R6
   \   000002   8F83         MOV       DPH,R7
   \   000004                REQUIRE ??Subroutine52_0
   \   000004                ; // Fall through to label ??Subroutine52_0

   \                                 In  segment BANKED_CODE, align 1, keep-with-next
   \                     ??Subroutine52_0:
   \   000000   E8           MOV       A,R0
   \   000001   F0           MOVX      @DPTR,A
   \   000002   A3           INC       DPTR
   \   000003   E9           MOV       A,R1
   \   000004   F0           MOVX      @DPTR,A
   \   000005   22           RET
    581          
    582          /****************************************************************************
    583           * @fn          bdb_TCProcessJoiningList
    584           *
    585           * @brief       Process the timer to handle the joining devices if the TC link 
    586           *              key is mandatory for all devices
    587           *
    588           * @param       none
    589           *
    590           * @return      none
    591           */

   \                                 In  segment BANKED_CODE, align 1, keep-with-next
    592          void bdb_TCProcessJoiningList(void)
   \                     bdb_TCProcessJoiningList:
    593          {
   \   000000                REQUIRE ?V0
   \   000000                REQUIRE ?V1
   \   000000                REQUIRE ?V2
   \   000000                REQUIRE ?V4
   \   000000                REQUIRE ?V5
   \   000000                REQUIRE ?V6
   \   000000                REQUIRE ?V7
   \   000000   74F0         MOV       A,#-0x10
   \   000002   12....       LCALL     ?BANKED_ENTER_XDATA
   \   000005                ; Saved register size: 16
   \   000005                ; Auto size: 42
   \   000005   74D6         MOV       A,#-0x2a
   \   000007   12....       LCALL     ?ALLOC_XSTACK8
    594            bdb_joiningDeviceList_t* tempJoiningDescNode;
    595            
    596            if(bdb_joiningDeviceList)
   \   00000A   90....       MOV       DPTR,#bdb_joiningDeviceList
   \   00000D   12....       LCALL     ??Subroutine46_0 & 0xFFFF
   \                     ??CrossCallReturnLabel_55:
   \   000010   7003         JNZ       $+5
   \   000012   02....       LJMP      ??bdb_TCProcessJoiningList_0 & 0xFFFF
    597            {
    598              tempJoiningDescNode = bdb_joiningDeviceList;
   \   000015   90....       MOV       DPTR,#bdb_joiningDeviceList
   \   000018   E0           MOVX      A,@DPTR
   \   000019   F5..         MOV       ?V6,A
   \   00001B   A3           INC       DPTR
   \   00001C   E0           MOVX      A,@DPTR
   \   00001D   F5..         MOV       ?V7,A
    599            
    600              while(tempJoiningDescNode)
    601              {
    602                if(tempJoiningDescNode->NodeJoinTimeout)
   \                     ??bdb_TCProcessJoiningList_1:
   \   00001F   E5..         MOV       A,?V6
   \   000021   240A         ADD       A,#0xa
   \   000023   F582         MOV       DPL,A
   \   000025   E4           CLR       A
   \   000026   35..         ADDC      A,?V7
   \   000028   F583         MOV       DPH,A
   \   00002A   E0           MOVX      A,@DPTR
   \   00002B   6007         JZ        ??bdb_TCProcessJoiningList_2
    603                {
    604                  tempJoiningDescNode->NodeJoinTimeout--;
   \   00002D   14           DEC       A
   \   00002E   F0           MOVX      @DPTR,A
    605                }
    606                
    607                if(tempJoiningDescNode->NodeJoinTimeout == 0)
   \   00002F   6003         JZ        $+5
   \   000031   02....       LJMP      ??bdb_TCProcessJoiningList_3 & 0xFFFF
    608                {
    609                  //Check if the key exchange is required 
    610                  if(bdb_doTrustCenterRequireKeyExchange())
   \                     ??bdb_TCProcessJoiningList_2:
   \   000034   E5..         MOV       A,?V6
   \   000036   2402         ADD       A,#0x2
   \   000038   FE           MOV       R6,A
   \   000039   E4           CLR       A
   \   00003A   35..         ADDC      A,?V7
   \   00003C   FF           MOV       R7,A
   \   00003D   8E..         MOV       ?V0,R6
   \   00003F   8F..         MOV       ?V1,R7
   \   000041   75..00       MOV       ?V2,#0x0
   \   000044   90....       MOV       DPTR,#bdbAttributes + 17
   \   000047   E0           MOVX      A,@DPTR
   \   000048   604E         JZ        ??bdb_TCProcessJoiningList_4
    611                  {
    612                      AddrMgrEntry_t entry;
    613                      
    614                      entry.user = ADDRMGR_USER_DEFAULT;
   \   00004A   740A         MOV       A,#0xa
   \   00004C   12....       LCALL     ?XSTACK_DISP0_8
   \   00004F   E4           CLR       A
   \   000050   F0           MOVX      @DPTR,A
    615                      osal_memcpy(entry.extAddr,tempJoiningDescNode->bdbJoiningNodeEui64, Z_EXTADDR_LEN);
   \   000051                ; Setup parameters for call to function osal_memcpy
   \   000051   78..         MOV       R0,#?V0
   \   000053   12....       LCALL     ?PUSH_XSTACK_I_THREE
   \   000056   7C08         MOV       R4,#0x8
   \   000058   7D00         MOV       R5,#0x0
   \   00005A   7410         MOV       A,#0x10
   \   00005C   12....       LCALL     ?XSTACK_DISP0_8
   \   00005F   AA82         MOV       R2,DPL
   \   000061   AB83         MOV       R3,DPH
   \   000063   12....       LCALL     `??osal_memcpy::?relay`; Banked call to: osal_memcpy
   \   000066   7403         MOV       A,#0x3
   \   000068   12....       LCALL     ?DEALLOC_XSTACK8
    616                      
    617                      if(AddrMgrEntryLookupExt(&entry))
   \   00006B                ; Setup parameters for call to function AddrMgrEntryLookupExt
   \   00006B   740A         MOV       A,#0xa
   \   00006D   12....       LCALL     ?XSTACK_DISP101_8
   \   000070   12....       LCALL     `??AddrMgrEntryLookupExt::?relay`; Banked call to: AddrMgrEntryLookupExt
   \   000073   E9           MOV       A,R1
   \   000074   6022         JZ        ??bdb_TCProcessJoiningList_4
    618                      {
    619                        ZDSecMgrAPSRemove(entry.nwkAddr,entry.extAddr,tempJoiningDescNode->parentAddr);
   \   000076                ; Setup parameters for call to function ZDSecMgrAPSRemove
   \   000076   85..82       MOV       DPL,?V6
   \   000079   85..83       MOV       DPH,?V7
   \   00007C   12....       LCALL     ?PUSH_XSTACK8_X_TWO
   \   00007F   740F         MOV       A,#0xf
   \   000081   12....       LCALL     ?XSTACK_DISP0_8
   \   000084   AC82         MOV       R4,DPL
   \   000086   AD83         MOV       R5,DPH
   \   000088   740D         MOV       A,#0xd
   \   00008A   12....       LCALL     ?XSTACK_DISP0_8
   \   00008D   12....       LCALL     ??Subroutine51_0 & 0xFFFF
    620                      }
    621                  }
   \                     ??CrossCallReturnLabel_91:
   \   000090   12....       LCALL     `??ZDSecMgrAPSRemove::?relay`; Banked call to: ZDSecMgrAPSRemove
   \   000093   7402         MOV       A,#0x2
   \   000095   12....       LCALL     ?DEALLOC_XSTACK8
    622                  
    623                  //Expired device either is legacy device not using the TCLK entry or got 
    624                  //removed from the network because of timeout, eitherway it is not using
    625                  //TCLK entry neither the Security user in the address manager, so free the entry
    626                  //in both tables.
    627                  
    628                  uint16 keyNvIndex;
    629                  uint16 index;        
    630                  APSME_TCLKDevEntry_t TCLKDevEntry;
    631                  uint8 found;
    632                  
    633                  //Remove the entry in address manager
    634                  ZDSecMgrAddrClear(tempJoiningDescNode->bdbJoiningNodeEui64);
   \                     ??bdb_TCProcessJoiningList_4:
   \   000098                ; Setup parameters for call to function ZDSecMgrAddrClear
   \   000098   EE           MOV       A,R6
   \   000099   FA           MOV       R2,A
   \   00009A   EF           MOV       A,R7
   \   00009B   FB           MOV       R3,A
   \   00009C   12....       LCALL     `??ZDSecMgrAddrClear::?relay`; Banked call to: ZDSecMgrAddrClear
    635                  
    636                  //search for the entry in the TCLK table
    637                  keyNvIndex = APSME_SearchTCLinkKeyEntry(tempJoiningDescNode->bdbJoiningNodeEui64,&found, NULL);
   \   00009F                ; Setup parameters for call to function APSME_SearchTCLinkKeyEntry
   \   00009F   E4           CLR       A
   \   0000A0   F5..         MOV       ?V4,A
   \   0000A2   F5..         MOV       ?V5,A
   \   0000A4   78..         MOV       R0,#?V4
   \   0000A6   12....       LCALL     ?PUSH_XSTACK_I_TWO
   \   0000A9   7402         MOV       A,#0x2
   \   0000AB   12....       LCALL     ?XSTACK_DISP102_8
   \   0000AE   EE           MOV       A,R6
   \   0000AF   FA           MOV       R2,A
   \   0000B0   EF           MOV       A,R7
   \   0000B1   FB           MOV       R3,A
   \   0000B2   12....       LCALL     `??APSME_SearchTCLinkKeyEntry::?relay`; Banked call to: APSME_SearchTCLinkKeyEntry
   \   0000B5   7402         MOV       A,#0x2
   \   0000B7   12....       LCALL     ?DEALLOC_XSTACK8
   \   0000BA   8A..         MOV       ?V4,R2
   \   0000BC   8B..         MOV       ?V5,R3
   \   0000BE   AE..         MOV       R6,?V4
   \   0000C0   AF..         MOV       R7,?V5
    638                  
    639                  //If found, erase it.
    640                  if(found == TRUE)
   \   0000C2   85..82       MOV       DPL,?XSP + 0
   \   0000C5   85..83       MOV       DPH,?XSP + 1
   \   0000C8   E0           MOVX      A,@DPTR
   \   0000C9   6401         XRL       A,#0x1
   \   0000CB   7070         JNZ       ??bdb_TCProcessJoiningList_5
    641                  {
    642                    osal_memset(&TCLKDevEntry,0,sizeof(APSME_TCLKDevEntry_t));
   \   0000CD                ; Setup parameters for call to function osal_memset
   \   0000CD   7C13         MOV       R4,#0x13
   \   0000CF   7D00         MOV       R5,#0x0
   \   0000D1   7900         MOV       R1,#0x0
   \   0000D3   7417         MOV       A,#0x17
   \   0000D5   12....       LCALL     ?XSTACK_DISP101_8
   \   0000D8   12....       LCALL     `??osal_memset::?relay`; Banked call to: osal_memset
    643                    TCLKDevEntry.keyAttributes = ZG_DEFAULT_KEY;
   \   0000DB   7427         MOV       A,#0x27
   \   0000DD   12....       LCALL     ?XSTACK_DISP0_8
   \   0000E0   74FF         MOV       A,#-0x1
   \   0000E2   F0           MOVX      @DPTR,A
    644                    
    645                    //Increase the shift by one. Validate the maximum shift of the seed which is 15
    646                    index = keyNvIndex - ZCD_NV_TCLK_TABLE_START;
   \   0000E3   EE           MOV       A,R6
   \   0000E4   24EF         ADD       A,#-0x11
   \   0000E6   F8           MOV       R0,A
   \   0000E7   EF           MOV       A,R7
   \   0000E8   34FE         ADDC      A,#-0x2
   \   0000EA   F9           MOV       R1,A
    647                    
    648                    TCLinkKeyFrmCntr[index].rxFrmCntr = 0;
   \   0000EB   E8           MOV       A,R0
   \   0000EC   75F009       MOV       B,#0x9
   \   0000EF   A4           MUL       AB
   \   0000F0   F8           MOV       R0,A
   \   0000F1   AAF0         MOV       R2,B
   \   0000F3   75F009       MOV       B,#0x9
   \   0000F6   E9           MOV       A,R1
   \   0000F7   A4           MUL       AB
   \   0000F8   2A           ADD       A,R2
   \   0000F9   F9           MOV       R1,A
   \   0000FA   74..         MOV       A,#TCLinkKeyFrmCntr & 0xff
   \   0000FC   28           ADD       A,R0
   \   0000FD   F8           MOV       R0,A
   \   0000FE   74..         MOV       A,#(TCLinkKeyFrmCntr >> 8) & 0xff
   \   000100   39           ADDC      A,R1
   \   000101   F9           MOV       R1,A
   \   000102   8882         MOV       DPL,R0
   \   000104   8983         MOV       DPH,R1
   \   000106   A3           INC       DPTR
   \   000107   A3           INC       DPTR
   \   000108   A3           INC       DPTR
   \   000109   A3           INC       DPTR
   \   00010A   12....       LCALL     ?Subroutine10 & 0xFFFF
    649                    TCLinkKeyFrmCntr[index].txFrmCntr = 0;
   \                     ??CrossCallReturnLabel_47:
   \   00010D   8882         MOV       DPL,R0
   \   00010F   8983         MOV       DPH,R1
   \   000111   12....       LCALL     ??Subroutine38_0 & 0xFFFF
    650                    
    651                    //Update the entry
    652                    osal_nv_write(keyNvIndex,0,sizeof(APSME_TCLKDevEntry_t), &TCLKDevEntry );
   \                     ??CrossCallReturnLabel_45:
   \   000114                ; Setup parameters for call to function osal_nv_write
   \   000114   7417         MOV       A,#0x17
   \   000116   12....       LCALL     ?XSTACK_DISP100_8
   \   000119   88..         MOV       ?V4,R0
   \   00011B   89..         MOV       ?V5,R1
   \   00011D   78..         MOV       R0,#?V4
   \   00011F   12....       LCALL     ?PUSH_XSTACK_I_TWO
   \   000122   75..13       MOV       ?V4,#0x13
   \   000125   75..00       MOV       ?V5,#0x0
   \   000128   78..         MOV       R0,#?V4
   \   00012A   12....       LCALL     ?PUSH_XSTACK_I_TWO
   \   00012D   7C00         MOV       R4,#0x0
   \   00012F   7D00         MOV       R5,#0x0
   \   000131   EE           MOV       A,R6
   \   000132   FA           MOV       R2,A
   \   000133   EF           MOV       A,R7
   \   000134   FB           MOV       R3,A
   \   000135   12....       LCALL     `??osal_nv_write::?relay`; Banked call to: osal_nv_write
   \   000138   7404         MOV       A,#0x4
   \   00013A   12....       LCALL     ?DEALLOC_XSTACK8
    653                  }
    654                  
    655                  if(pfnTCLinkKeyExchangeProcessCB)
   \                     ??bdb_TCProcessJoiningList_5:
   \   00013D   90....       MOV       DPTR,#pfnTCLinkKeyExchangeProcessCB
   \   000140   12....       LCALL     ??Subroutine46_0 & 0xFFFF
   \                     ??CrossCallReturnLabel_56:
   \   000143   6042         JZ        ??bdb_TCProcessJoiningList_6
    656                  {
    657                    bdb_TCLinkKeyExchProcess_t bdb_TCLinkKeyExchProcess;
    658                    osal_memcpy(bdb_TCLinkKeyExchProcess.extAddr,tempJoiningDescNode->bdbJoiningNodeEui64, Z_EXTADDR_LEN);
   \   000145                ; Setup parameters for call to function osal_memcpy
   \   000145   78..         MOV       R0,#?V0
   \   000147   12....       LCALL     ?PUSH_XSTACK_I_THREE
   \   00014A   7C08         MOV       R4,#0x8
   \   00014C   7D00         MOV       R5,#0x0
   \   00014E   7405         MOV       A,#0x5
   \   000150   12....       LCALL     ?XSTACK_DISP0_8
   \   000153   AA82         MOV       R2,DPL
   \   000155   AB83         MOV       R3,DPH
   \   000157   12....       LCALL     `??osal_memcpy::?relay`; Banked call to: osal_memcpy
   \   00015A   7403         MOV       A,#0x3
   \   00015C   12....       LCALL     ?DEALLOC_XSTACK8
    659                    bdb_TCLinkKeyExchProcess.status = BDB_TC_LK_EXCH_PROCESS_EXCH_FAIL;
   \   00015F   7401         MOV       A,#0x1
   \   000161   12....       LCALL     ?XSTACK_DISP0_8
   \   000164   7402         MOV       A,#0x2
   \   000166   F0           MOVX      @DPTR,A
    660                    
    661                    bdb_SendMsg(bdb_TaskID, BDB_TC_LINK_KEY_EXCHANGE_PROCESS, BDB_MSG_EVENT_SUCCESS,sizeof(bdb_TCLinkKeyExchProcess_t),(uint8*)&bdb_TCLinkKeyExchProcess);
   \   000167                ; Setup parameters for call to function bdb_SendMsg
   \   000167   14           DEC       A
   \   000168   12....       LCALL     ?XSTACK_DISP100_8
   \   00016B   88..         MOV       ?V0,R0
   \   00016D   89..         MOV       ?V1,R1
   \   00016F   78..         MOV       R0,#?V0
   \   000171   12....       LCALL     ?PUSH_XSTACK_I_TWO
   \   000174   7C09         MOV       R4,#0x9
   \   000176   7B00         MOV       R3,#0x0
   \   000178   7A09         MOV       R2,#0x9
   \   00017A   90....       MOV       DPTR,#bdb_TaskID
   \   00017D   E0           MOVX      A,@DPTR
   \   00017E   F9           MOV       R1,A
   \   00017F   12....       LCALL     `??bdb_SendMsg::?relay`; Banked call to: bdb_SendMsg
   \   000182   7402         MOV       A,#0x2
   \   000184   12....       LCALL     ?DEALLOC_XSTACK8
    662                  }
    663                 
    664                  //Free the device from the list
    665                  bdb_TCJoiningDeviceFree(tempJoiningDescNode);
   \                     ??bdb_TCProcessJoiningList_6:
   \   000187                ; Setup parameters for call to function bdb_TCJoiningDeviceFree
   \   000187   AA..         MOV       R2,?V6
   \   000189   AB..         MOV       R3,?V7
   \   00018B   12....       LCALL     `??bdb_TCJoiningDeviceFree::?relay`; Banked call to: bdb_TCJoiningDeviceFree
    666                }
    667                tempJoiningDescNode = tempJoiningDescNode->nextDev;
   \                     ??bdb_TCProcessJoiningList_3:
   \   00018E   E5..         MOV       A,?V6
   \   000190   240B         ADD       A,#0xb
   \   000192   F582         MOV       DPL,A
   \   000194   E4           CLR       A
   \   000195   35..         ADDC      A,?V7
   \   000197   F583         MOV       DPH,A
   \   000199   E0           MOVX      A,@DPTR
   \   00019A   F5..         MOV       ?V6,A
   \   00019C   A3           INC       DPTR
   \   00019D   E0           MOVX      A,@DPTR
   \   00019E   F5..         MOV       ?V7,A
    668              }
   \   0001A0   E5..         MOV       A,?V6
   \   0001A2   45..         ORL       A,?V7
   \   0001A4   6003         JZ        $+5
   \   0001A6   02....       LJMP      ??bdb_TCProcessJoiningList_1 & 0xFFFF
    669            }
    670          
    671            //we are done with the list
    672            if(bdb_joiningDeviceList == NULL)
   \   0001A9   90....       MOV       DPTR,#bdb_joiningDeviceList
   \   0001AC   12....       LCALL     ??Subroutine46_0 & 0xFFFF
   \                     ??CrossCallReturnLabel_57:
   \   0001AF   700C         JNZ       ??bdb_TCProcessJoiningList_7
    673            {
    674              osal_stop_timerEx(bdb_TaskID,BDB_TC_JOIN_TIMEOUT);
   \                     ??bdb_TCProcessJoiningList_0:
   \   0001B1                ; Setup parameters for call to function osal_stop_timerEx
   \   0001B1   7A00         MOV       R2,#0x0
   \   0001B3   7B08         MOV       R3,#0x8
   \   0001B5   90....       MOV       DPTR,#bdb_TaskID
   \   0001B8   E0           MOVX      A,@DPTR
   \   0001B9   F9           MOV       R1,A
   \   0001BA   12....       LCALL     `??osal_stop_timerEx::?relay`; Banked call to: osal_stop_timerEx
    675            }
    676          }
   \                     ??bdb_TCProcessJoiningList_7:
   \   0001BD   742A         MOV       A,#0x2a
   \   0001BF   02....       LJMP      ?Subroutine6 & 0xFFFF

   \                                 In  segment BANKED_CODE, align 1, keep-with-next
   \                     ?Subroutine10:
   \   000000   E4           CLR       A
   \   000001                REQUIRE ??Subroutine38_0
   \   000001                ; // Fall through to label ??Subroutine38_0

   \                                 In  segment BANKED_CODE, align 1, keep-with-next
   \                     ??Subroutine38_0:
   \   000000   F0           MOVX      @DPTR,A
   \   000001   A3           INC       DPTR
   \   000002   F0           MOVX      @DPTR,A
   \   000003   A3           INC       DPTR
   \   000004   F0           MOVX      @DPTR,A
   \   000005   A3           INC       DPTR
   \   000006   F0           MOVX      @DPTR,A
   \   000007   22           RET

   \                                 In  segment BANKED_CODE, align 1, keep-with-next
   \                     ??Subroutine51_0:
   \   000000   E0           MOVX      A,@DPTR
   \   000001   FA           MOV       R2,A
   \   000002   A3           INC       DPTR
   \   000003   E0           MOVX      A,@DPTR
   \   000004   FB           MOV       R3,A
   \   000005   22           RET

   \                                 In  segment BANKED_CODE, align 1, keep-with-next
   \                     ?Subroutine6:
   \   000000   12....       LCALL     ?DEALLOC_XSTACK8
   \   000003   7F08         MOV       R7,#0x8
   \   000005   02....       LJMP      ?BANKED_LEAVE_XDATA
    677          
    678          
    679          
    680          /****************************************************************************
    681           * @fn          bdb_TCjoiningDeviceComplete
    682           *
    683           * @brief       This function frees a joining device from the list that has 
    684           *              finished TC link key exchange process
    685           *
    686           * @param       JoiningExtAddr - Extended address of the device
    687           *
    688           * @return      none
    689           */

   \                                 In  segment BANKED_CODE, align 1, keep-with-next
    690          void bdb_TCjoiningDeviceComplete(uint8* JoiningExtAddr)
   \                     bdb_TCjoiningDeviceComplete:
    691          {
   \   000000                REQUIRE ?V0
   \   000000                REQUIRE ?V1
   \   000000                REQUIRE ?V2
   \   000000                REQUIRE ?V4
   \   000000                REQUIRE ?V5
   \   000000                REQUIRE ?V6
   \   000000   74F1         MOV       A,#-0xf
   \   000002   12....       LCALL     ?BANKED_ENTER_XDATA
   \   000005                ; Saved register size: 15
   \   000005                ; Auto size: 11
   \   000005   74F5         MOV       A,#-0xb
   \   000007   12....       LCALL     ?ALLOC_XSTACK8
   \   00000A   85..82       MOV       DPL,?XSP + 0
   \   00000D   85..83       MOV       DPH,?XSP + 1
   \   000010   12....       LCALL     ?Subroutine11 & 0xFFFF
    692            bdb_joiningDeviceList_t* tempJoiningDescNode;
    693            
    694            if((bdb_joiningDeviceList != NULL) && (JoiningExtAddr != NULL))
   \                     ??CrossCallReturnLabel_5:
   \   000013   7003         JNZ       $+5
   \   000015   02....       LJMP      ??bdb_TCjoiningDeviceComplete_0 & 0xFFFF
   \   000018   85..82       MOV       DPL,?XSP + 0
   \   00001B   85..83       MOV       DPH,?XSP + 1
   \   00001E   12....       LCALL     ??Subroutine46_0 & 0xFFFF
   \                     ??CrossCallReturnLabel_58:
   \   000021   7003         JNZ       $+5
   \   000023   02....       LJMP      ??bdb_TCjoiningDeviceComplete_0 & 0xFFFF
    695            {
    696              tempJoiningDescNode = bdb_joiningDeviceList;
   \   000026   12....       LCALL     ?Subroutine34 & 0xFFFF
   \                     ??CrossCallReturnLabel_90:
   \   000029   8E82         MOV       DPL,R6
   \   00002B   8F83         MOV       DPH,R7
   \   00002D   A3           INC       DPTR
   \   00002E   A3           INC       DPTR
   \   00002F   A982         MOV       R1,DPL
   \   000031   AA83         MOV       R2,DPH
   \   000033   89..         MOV       ?V0,R1
   \   000035   8A..         MOV       ?V1,R2
   \   000037   75..00       MOV       ?V2,#0x0
   \   00003A                ; Setup parameters for call to function osal_memcmp
   \   00003A   85..82       MOV       DPL,?XSP + 0
   \   00003D   85..83       MOV       DPH,?XSP + 1
   \   000040   E0           MOVX      A,@DPTR
   \   000041   F5..         MOV       ?V4,A
   \   000043   A3           INC       DPTR
   \   000044   E0           MOVX      A,@DPTR
   \   000045   F5..         MOV       ?V5,A
   \   000047   75..00       MOV       ?V6,#0x0
   \   00004A   78..         MOV       R0,#?V4
   \   00004C   12....       LCALL     ?PUSH_XSTACK_I_THREE
   \   00004F   7C08         MOV       R4,#0x8
   \   000051   7D00         MOV       R5,#0x0
   \   000053   AB..         MOV       R3,?V2
    697              
    698              while(tempJoiningDescNode != NULL)
    699              {
    700                if(osal_memcmp(tempJoiningDescNode->bdbJoiningNodeEui64,JoiningExtAddr,Z_EXTADDR_LEN))
   \   000055   12....       LCALL     `??osal_memcmp::?relay`; Banked call to: osal_memcmp
   \   000058   7403         MOV       A,#0x3
   \   00005A   12....       LCALL     ?DEALLOC_XSTACK8
   \   00005D   E9           MOV       A,R1
   \   00005E   6053         JZ        ??bdb_TCjoiningDeviceComplete_1
    701                {
    702                  if(pfnTCLinkKeyExchangeProcessCB)
   \   000060   90....       MOV       DPTR,#pfnTCLinkKeyExchangeProcessCB
   \   000063   12....       LCALL     ??Subroutine46_0 & 0xFFFF
   \                     ??CrossCallReturnLabel_59:
   \   000066   6042         JZ        ??bdb_TCjoiningDeviceComplete_2
    703                  {
    704                    bdb_TCLinkKeyExchProcess_t bdb_TCLinkKeyExchProcess;
    705                    osal_memcpy(bdb_TCLinkKeyExchProcess.extAddr,tempJoiningDescNode->bdbJoiningNodeEui64, Z_EXTADDR_LEN);
   \   000068                ; Setup parameters for call to function osal_memcpy
   \   000068   78..         MOV       R0,#?V0
   \   00006A   12....       LCALL     ?PUSH_XSTACK_I_THREE
   \   00006D   7C08         MOV       R4,#0x8
   \   00006F   7D00         MOV       R5,#0x0
   \   000071   7406         MOV       A,#0x6
   \   000073   12....       LCALL     ?XSTACK_DISP0_8
   \   000076   AA82         MOV       R2,DPL
   \   000078   AB83         MOV       R3,DPH
   \   00007A   12....       LCALL     `??osal_memcpy::?relay`; Banked call to: osal_memcpy
   \   00007D   7403         MOV       A,#0x3
   \   00007F   12....       LCALL     ?DEALLOC_XSTACK8
    706                    bdb_TCLinkKeyExchProcess.status = BDB_TC_LK_EXCH_PROCESS_EXCH_SUCCESS;
   \   000082   7402         MOV       A,#0x2
   \   000084   12....       LCALL     ?XSTACK_DISP0_8
   \   000087   7401         MOV       A,#0x1
   \   000089   F0           MOVX      @DPTR,A
    707                    
    708                    bdb_SendMsg(bdb_TaskID, BDB_TC_LINK_KEY_EXCHANGE_PROCESS, BDB_MSG_EVENT_SUCCESS,sizeof(bdb_TCLinkKeyExchProcess_t),(uint8*)&bdb_TCLinkKeyExchProcess);
   \   00008A                ; Setup parameters for call to function bdb_SendMsg
   \   00008A   04           INC       A
   \   00008B   12....       LCALL     ?XSTACK_DISP100_8
   \   00008E   88..         MOV       ?V0,R0
   \   000090   89..         MOV       ?V1,R1
   \   000092   78..         MOV       R0,#?V0
   \   000094   12....       LCALL     ?PUSH_XSTACK_I_TWO
   \   000097   7C09         MOV       R4,#0x9
   \   000099   7B00         MOV       R3,#0x0
   \   00009B   7A09         MOV       R2,#0x9
   \   00009D   90....       MOV       DPTR,#bdb_TaskID
   \   0000A0   E0           MOVX      A,@DPTR
   \   0000A1   F9           MOV       R1,A
   \   0000A2   12....       LCALL     `??bdb_SendMsg::?relay`; Banked call to: bdb_SendMsg
   \   0000A5   7402         MOV       A,#0x2
   \   0000A7   12....       LCALL     ?DEALLOC_XSTACK8
    709                  }        
    710                  
    711                  bdb_TCJoiningDeviceFree(tempJoiningDescNode);
   \                     ??bdb_TCjoiningDeviceComplete_2:
   \   0000AA                ; Setup parameters for call to function bdb_TCJoiningDeviceFree
   \   0000AA   EE           MOV       A,R6
   \   0000AB   FA           MOV       R2,A
   \   0000AC   EF           MOV       A,R7
   \   0000AD   FB           MOV       R3,A
   \   0000AE   12....       LCALL     `??bdb_TCJoiningDeviceFree::?relay`; Banked call to: bdb_TCJoiningDeviceFree
    712                  break;
   \   0000B1   800D         SJMP      ??bdb_TCjoiningDeviceComplete_3
    713                }
    714                tempJoiningDescNode = tempJoiningDescNode->nextDev;
   \                     ??bdb_TCjoiningDeviceComplete_1:
   \   0000B3   12....       LCALL     ?Subroutine29 & 0xFFFF
    715              }
   \                     ??CrossCallReturnLabel_36:
   \   0000B6   12....       LCALL     ??Subroutine50_0 & 0xFFFF
   \                     ??CrossCallReturnLabel_87:
   \   0000B9   EE           MOV       A,R6
   \   0000BA   4F           ORL       A,R7
   \   0000BB   6003         JZ        $+5
   \   0000BD   02....       LJMP      ??CrossCallReturnLabel_90 & 0xFFFF
    716             
    717              if(bdb_joiningDeviceList == NULL)
   \                     ??bdb_TCjoiningDeviceComplete_3:
   \   0000C0   90....       MOV       DPTR,#bdb_joiningDeviceList
   \   0000C3   12....       LCALL     ??Subroutine46_0 & 0xFFFF
   \                     ??CrossCallReturnLabel_60:
   \   0000C6   700C         JNZ       ??bdb_TCjoiningDeviceComplete_0
    718              {
    719                osal_stop_timerEx(bdb_TaskID,BDB_TC_JOIN_TIMEOUT);
   \   0000C8                ; Setup parameters for call to function osal_stop_timerEx
   \   0000C8   7A00         MOV       R2,#0x0
   \   0000CA   7B08         MOV       R3,#0x8
   \   0000CC   90....       MOV       DPTR,#bdb_TaskID
   \   0000CF   E0           MOVX      A,@DPTR
   \   0000D0   F9           MOV       R1,A
   \   0000D1   12....       LCALL     `??osal_stop_timerEx::?relay`; Banked call to: osal_stop_timerEx
    720              }
    721            }
    722          }
   \                     ??bdb_TCjoiningDeviceComplete_0:
   \   0000D4   02....       LJMP      ?Subroutine5 & 0xFFFF
    723          
    724          
    725          
    726          /****************************************************************************
    727           * @fn          bdb_TCJoiningDeviceFree
    728           *
    729           * @brief       This function frees a joining device from the list.
    730           *
    731           * @param       ZSuccess - If the device was found and erased
    732           * @param       ZInvalidParameter - Not found
    733           *
    734           * @return      none
    735           */

   \                                 In  segment BANKED_CODE, align 1, keep-with-next
    736          ZStatus_t bdb_TCJoiningDeviceFree(bdb_joiningDeviceList_t* JoiningDeviceToRemove)
   \                     bdb_TCJoiningDeviceFree:
    737          {
   \   000000                REQUIRE ?V0
   \   000000                REQUIRE ?V1
   \   000000                REQUIRE ?V2
   \   000000                REQUIRE ?V4
   \   000000                REQUIRE ?V5
   \   000000   74F2         MOV       A,#-0xe
   \   000002   12....       LCALL     ?BANKED_ENTER_XDATA
   \   000005                ; Saved register size: 14
   \   000005                ; Auto size: 0
   \   000005   8A..         MOV       ?V4,R2
   \   000007   8B..         MOV       ?V5,R3
   \   000009   8A82         MOV       DPL,R2
   \   00000B   8B83         MOV       DPH,R3
   \   00000D   A3           INC       DPTR
   \   00000E   A3           INC       DPTR
   \   00000F   A982         MOV       R1,DPL
   \   000011   AA83         MOV       R2,DPH
   \   000013   89..         MOV       ?V0,R1
   \   000015   8A..         MOV       ?V1,R2
   \   000017   75..00       MOV       ?V2,#0x0
   \   00001A                ; Setup parameters for call to function osal_memcmp
   \   00001A   78..         MOV       R0,#?V0
   \   00001C   12....       LCALL     ?PUSH_XSTACK_I_THREE
   \   00001F   7C08         MOV       R4,#0x8
   \   000021   7D00         MOV       R5,#0x0
   \   000023   90....       MOV       DPTR,#bdb_joiningDeviceList
   \   000026   12....       LCALL     ?Subroutine22 & 0xFFFF
    738            bdb_joiningDeviceList_t* descCurrent;
    739            bdb_joiningDeviceList_t* descPrev;
    740            
    741            //validate empty list?
    742            
    743            //Is it the first?
    744            if(osal_memcmp(bdb_joiningDeviceList->bdbJoiningNodeEui64, JoiningDeviceToRemove->bdbJoiningNodeEui64, Z_EXTADDR_LEN))
   \                     ??CrossCallReturnLabel_23:
   \   000029   12....       LCALL     `??osal_memcmp::?relay`; Banked call to: osal_memcmp
   \   00002C   7403         MOV       A,#0x3
   \   00002E   12....       LCALL     ?DEALLOC_XSTACK8
   \   000031   E9           MOV       A,R1
   \   000032   90....       MOV       DPTR,#bdb_joiningDeviceList
   \   000035   6011         JZ        ??bdb_TCJoiningDeviceFree_0
    745            {
    746              descCurrent = bdb_joiningDeviceList;
   \   000037   12....       LCALL     ??Subroutine51_0 & 0xFFFF
    747              bdb_joiningDeviceList = bdb_joiningDeviceList->nextDev;
   \                     ??CrossCallReturnLabel_92:
   \   00003A   90....       MOV       DPTR,#bdb_joiningDeviceList
   \   00003D   12....       LCALL     ?Subroutine21 & 0xFFFF
   \                     ??CrossCallReturnLabel_21:
   \   000040   90....       MOV       DPTR,#bdb_joiningDeviceList
   \   000043   12....       LCALL     ??Subroutine52_0 & 0xFFFF
    748              osal_mem_free( descCurrent );
   \                     ??CrossCallReturnLabel_98:
   \   000046                ; Setup parameters for call to function osal_mem_free
   \   000046   8035         SJMP      ??bdb_TCJoiningDeviceFree_1
    749              return ZSuccess;
    750            }
    751            
    752            descPrev = NULL;
    753            descCurrent = bdb_joiningDeviceList;
    754            
    755            while(descCurrent != NULL)
    756            {
    757              if(osal_memcmp(descCurrent->nextDev->bdbJoiningNodeEui64, JoiningDeviceToRemove->bdbJoiningNodeEui64, Z_EXTADDR_LEN))
    758              {
    759                descPrev = descCurrent;
    760                break;
    761              }
    762              descCurrent = descCurrent->nextDev;
   \                     ??bdb_TCJoiningDeviceFree_0:
   \   000048   12....       LCALL     ?Subroutine19 & 0xFFFF
   \                     ??CrossCallReturnLabel_14:
   \   00004B   6037         JZ        ??bdb_TCJoiningDeviceFree_2
   \   00004D   EA           MOV       A,R2
   \   00004E   240B         ADD       A,#0xb
   \   000050   FE           MOV       R6,A
   \   000051   E4           CLR       A
   \   000052   3B           ADDC      A,R3
   \   000053   FF           MOV       R7,A
   \   000054                ; Setup parameters for call to function osal_memcmp
   \   000054   78..         MOV       R0,#?V0
   \   000056   12....       LCALL     ?PUSH_XSTACK_I_THREE
   \   000059   7C08         MOV       R4,#0x8
   \   00005B   7D00         MOV       R5,#0x0
   \   00005D   8E82         MOV       DPL,R6
   \   00005F   8F83         MOV       DPH,R7
   \   000061   12....       LCALL     ?Subroutine22 & 0xFFFF
   \                     ??CrossCallReturnLabel_24:
   \   000064   12....       LCALL     `??osal_memcmp::?relay`; Banked call to: osal_memcmp
   \   000067   7403         MOV       A,#0x3
   \   000069   12....       LCALL     ?DEALLOC_XSTACK8
   \   00006C   E9           MOV       A,R1
   \   00006D   8E82         MOV       DPL,R6
   \   00006F   8F83         MOV       DPH,R7
   \   000071   60D5         JZ        ??bdb_TCJoiningDeviceFree_0
    763            }
    764            if(descPrev == NULL)
    765            {
    766              //Not found
    767              return ZInvalidParameter;
    768            }
    769            
    770            descPrev->nextDev = descPrev->nextDev->nextDev;
   \   000073   12....       LCALL     ?Subroutine21 & 0xFFFF
   \                     ??CrossCallReturnLabel_22:
   \   000076   12....       LCALL     ?Subroutine31 & 0xFFFF
    771              
    772            osal_mem_free( JoiningDeviceToRemove );
   \                     ??CrossCallReturnLabel_102:
   \   000079                ; Setup parameters for call to function osal_mem_free
   \   000079   AA..         MOV       R2,?V4
   \   00007B   AB..         MOV       R3,?V5
   \                     ??bdb_TCJoiningDeviceFree_1:
   \   00007D   12....       LCALL     `??osal_mem_free::?relay`; Banked call to: osal_mem_free
    773            return ZSuccess;
   \   000080   7900         MOV       R1,#0x0
   \   000082   8002         SJMP      ??bdb_TCJoiningDeviceFree_3
   \                     ??bdb_TCJoiningDeviceFree_2:
   \   000084   7902         MOV       R1,#0x2
   \                     ??bdb_TCJoiningDeviceFree_3:
   \   000086   02....       LJMP      ?Subroutine3 & 0xFFFF
    774          
    775          }

   \                                 In  segment BANKED_CODE, align 1, keep-with-next
   \                     ?Subroutine22:
   \   000000   12....       LCALL     ?Subroutine35 & 0xFFFF
   \                     ??CrossCallReturnLabel_41:
   \   000003   A982         MOV       R1,DPL
   \   000005   AA83         MOV       R2,DPH
   \   000007   7B00         MOV       R3,#0x0
   \   000009   22           RET

   \                                 In  segment BANKED_CODE, align 1, keep-with-next
   \                     ?Subroutine21:
   \   000000   E0           MOVX      A,@DPTR
   \   000001   F8           MOV       R0,A
   \   000002   A3           INC       DPTR
   \   000003   E0           MOVX      A,@DPTR
   \   000004   C8           XCH       A,R0
   \   000005   240B         ADD       A,#0xb
   \   000007   F582         MOV       DPL,A
   \   000009   E4           CLR       A
   \   00000A   38           ADDC      A,R0
   \   00000B   F583         MOV       DPH,A
   \   00000D   12....       LCALL     ?Subroutine33 & 0xFFFF
   \                     ??CrossCallReturnLabel_72:
   \   000010   22           RET

   \                                 In  segment BANKED_CODE, align 1, keep-with-next
   \                     ?Subroutine36:
   \   000000   E0           MOVX      A,@DPTR
   \   000001   F8           MOV       R0,A
   \   000002   A3           INC       DPTR
   \   000003   E0           MOVX      A,@DPTR
   \   000004   F583         MOV       DPH,A
   \   000006   8882         MOV       DPL,R0
   \   000008   22           RET

   \                                 In  segment BANKED_CODE, align 1, keep-with-next
   \                     ?Subroutine35:
   \   000000   12....       LCALL     ?Subroutine36 & 0xFFFF
   \                     ??CrossCallReturnLabel_44:
   \   000003   A3           INC       DPTR
   \   000004   A3           INC       DPTR
   \   000005   22           RET

   \                                 In  segment BANKED_CODE, align 1, keep-with-next
   \                     ?Subroutine19:
   \   000000   E0           MOVX      A,@DPTR
   \   000001   FA           MOV       R2,A
   \   000002   A3           INC       DPTR
   \   000003   E0           MOVX      A,@DPTR
   \   000004   FB           MOV       R3,A
   \   000005   EA           MOV       A,R2
   \   000006   4B           ORL       A,R3
   \   000007   22           RET
    776          
    777           /*********************************************************************
    778           * @fn          bdb_setJoinUsesInstallCodeKey
    779           *
    780           * @brief       Set BDB attribute bdbJoinUsesInstallCodeKey.
    781           *
    782           * @param       set - If TRUE only devices with IC register in TC can join the 
    783           *              nwk, otherwise devices may or not have a IC register
    784           *
    785           * @return      none
    786           */

   \                                 In  segment BANKED_CODE, align 1, keep-with-next
    787          void bdb_setJoinUsesInstallCodeKey(bool set)
   \                     bdb_setJoinUsesInstallCodeKey:
    788          {
   \   000000   C082         PUSH      DPL
   \   000002   C083         PUSH      DPH
   \   000004                ; Saved register size: 2
   \   000004                ; Auto size: 0
    789            bdbAttributes.bdbJoinUsesInstallCodeKey = set;
   \   000004   E9           MOV       A,R1
   \   000005   90....       MOV       DPTR,#bdbAttributes + 15
   \   000008   F0           MOVX      @DPTR,A
    790            if(set)
   \   000009   90....       MOV       DPTR,#zgAllowInstallCodes
   \   00000C   6004         JZ        ??bdb_setJoinUsesInstallCodeKey_0
    791            {
    792              zgAllowInstallCodes = ZG_IC_MUST_USED;
   \   00000E   7402         MOV       A,#0x2
   \   000010   8002         SJMP      ??bdb_setJoinUsesInstallCodeKey_1
    793            }
    794            else
    795            {
    796              zgAllowInstallCodes = ZG_IC_SUPPORTED_NOT_REQUIRED;
   \                     ??bdb_setJoinUsesInstallCodeKey_0:
   \   000012   7401         MOV       A,#0x1
    797            }
   \                     ??bdb_setJoinUsesInstallCodeKey_1:
   \   000014   02....       LJMP      ??Subroutine39_0 & 0xFFFF
    798          }
    799          #endif
    800          
    801           /*********************************************************************
    802           * @fn          bdb_StartCommissioning
    803           *
    804           * @brief       Start the commissioning process setting the commissioning mode given.
    805           *
    806           * @param       mode - refer to bdbCommissioningMode
    807           *
    808           * @return      none
    809           */

   \                                 In  segment BANKED_CODE, align 1, keep-with-next
    810          void bdb_StartCommissioning(uint8 mode)
   \                     bdb_StartCommissioning:
    811          {
   \   000000                REQUIRE ?V0
   \   000000                REQUIRE ?V2
   \   000000                REQUIRE ?V3
   \   000000   74F4         MOV       A,#-0xc
   \   000002   12....       LCALL     ?BANKED_ENTER_XDATA
   \   000005                ; Saved register size: 12
   \   000005                ; Auto size: 20
   \   000005   74EC         MOV       A,#-0x14
   \   000007   12....       LCALL     ?ALLOC_XSTACK8
   \   00000A   89..         MOV       ?V0,R1
    812            //Application cannot request to set the device in initialization mode or parent lost
    813            mode &= ~(BDB_COMMISSIONING_MODE_INITIALIZATION | BDB_COMMISSIONING_MODE_PARENT_LOST);
    814              
    815          #ifdef BDB_TL_INITIATOR
    816            if ( touchlinkFNReset == TRUE )
    817            {
    818              return;
    819            }
    820          #else
    821            //Commissioning mode used only for initiator
    822            mode &= ~BDB_COMMISSIONING_MODE_INITIATOR_TL;
   \   00000C   53..CE       ANL       ?V0,#0xce
    823          #endif
    824            
    825          #if (BDB_FINDING_BINDING_CAPABILITY_ENABLED==0)    
    826            //Commissioning mode used only for devices with F&B
    827            mode &= ~BDB_COMMISSIONING_MODE_FINDING_BINDING;
    828          #endif
    829           
    830            //If we have running process or the machine state is triggered, then just append and it will be excecuted
    831            if((bdbAttributes.bdbCommissioningMode) || (osal_get_timeoutEx(bdb_TaskID,BDB_CHANGE_COMMISSIONING_STATE)))
   \   00000F   90....       MOV       DPTR,#bdbAttributes + 11
   \   000012   E0           MOVX      A,@DPTR
   \   000013   7012         JNZ       ??bdb_StartCommissioning_0
   \   000015                ; Setup parameters for call to function osal_get_timeoutEx
   \   000015   7A04         MOV       R2,#0x4
   \   000017   7B00         MOV       R3,#0x0
   \   000019   90....       MOV       DPTR,#bdb_TaskID
   \   00001C   E0           MOVX      A,@DPTR
   \   00001D   F9           MOV       R1,A
   \   00001E   12....       LCALL     `??osal_get_timeoutEx::?relay`; Banked call to: osal_get_timeoutEx
   \   000021   EA           MOV       A,R2
   \   000022   4B           ORL       A,R3
   \   000023   4C           ORL       A,R4
   \   000024   4D           ORL       A,R5
   \   000025   6027         JZ        ??bdb_StartCommissioning_1
    832            {
    833          #if ZG_BUILD_ENDDEVICE_TYPE
    834              if(ZG_DEVICE_ENDDEVICE_TYPE)
    835              {
    836                //Devices with parent lost are not allowed to perform actions
    837                if(bdbAttributes.bdbCommissioningMode & BDB_COMMISSIONING_MODE_PARENT_LOST)
    838                {
    839                  return;
    840                }
    841              }
    842          #endif
    843              
    844              //If we are on the network and got requested to do nwk steering, we do not need to wait other process, 
    845              // just send permit joining and report the application
    846              if((bdbAttributes.bdbNodeIsOnANetwork) && (mode & BDB_COMMISSIONING_MODE_NWK_STEERING))
   \                     ??bdb_StartCommissioning_0:
   \   000027   90....       MOV       DPTR,#bdbAttributes + 14
   \   00002A   E0           MOVX      A,@DPTR
   \   00002B   6013         JZ        ??bdb_StartCommissioning_2
   \   00002D   E5..         MOV       A,?V0
   \   00002F   A2E1         MOV       C,0xE0 /* A   */.1
   \   000031   500D         JNC       ??bdb_StartCommissioning_2
    847              {
    848                bdb_nwkSteeringDeviceOnNwk();
   \   000033                ; Setup parameters for call to function bdb_nwkSteeringDeviceOnNwk
   \   000033   12....       LCALL     `??bdb_nwkSteeringDeviceOnNwk::?relay`; Banked call to: bdb_nwkSteeringDeviceOnNwk
    849                bdb_reportCommissioningState(BDB_COMMISSIONING_STATE_STEERING_ON_NWK, TRUE);
   \   000036                ; Setup parameters for call to function bdb_reportCommissioningState
   \   000036   7A01         MOV       R2,#0x1
   \   000038   7904         MOV       R1,#0x4
   \   00003A   12....       LCALL     `??bdb_reportCommissioningState::?relay`; Banked call to: bdb_reportCommissioningState
    850                
    851                //Clean nwk steering
    852                mode ^= BDB_COMMISSIONING_MODE_NWK_STEERING; 
   \   00003D   63..02       XRL       ?V0,#0x2
    853              }
    854              
    855              //add the remaining valid commissioning modes requested, those will be process when bdb finish its current process
    856              bdbAttributes.bdbCommissioningMode |= mode & BDB_COMMISSIONING_MODES;
   \                     ??bdb_StartCommissioning_2:
   \   000040   743F         MOV       A,#0x3f
   \   000042   55..         ANL       A,?V0
   \   000044   F8           MOV       R0,A
   \   000045   90....       MOV       DPTR,#bdbAttributes + 11
   \   000048   E0           MOVX      A,@DPTR
   \   000049   48           ORL       A,R0
   \   00004A   F0           MOVX      @DPTR,A
    857              return;      
   \   00004B   02....       LJMP      ??bdb_StartCommissioning_3 & 0xFFFF
    858            }
    859          
    860            //Save the commissioning modes valid requested
    861            bdbAttributes.bdbCommissioningMode |= mode & BDB_COMMISSIONING_MODES;
   \                     ??bdb_StartCommissioning_1:
   \   00004E   743F         MOV       A,#0x3f
   \   000050   55..         ANL       A,?V0
   \   000052   FE           MOV       R6,A
   \   000053   90....       MOV       DPTR,#bdbAttributes + 11
   \   000056   E0           MOVX      A,@DPTR
   \   000057   4E           ORL       A,R6
   \   000058   F0           MOVX      @DPTR,A
    862            
    863            
    864            //Start processing the initialization, once per power cycle.
    865            if(!bdb_initialization)
   \   000059   90....       MOV       DPTR,#bdb_initialization
   \   00005C   E0           MOVX      A,@DPTR
   \   00005D   6003         JZ        $+5
   \   00005F   02....       LJMP      ??bdb_StartCommissioning_4 & 0xFFFF
    866            {
    867              bdb_initialization = TRUE;
   \   000062   7401         MOV       A,#0x1
   \   000064   12....       LCALL     ?Subroutine14 & 0xFFFF
    868              
    869          #ifdef BDB_REPORTING
    870              //Delete NV data if startup was with factory reset
    871              if(ZDO_INITDEV_NEW_NETWORK_STATE == ZDApp_ReadNetworkRestoreState())
    872              {
    873                //Factory reset bdb reporting NV data
    874                uint16 attrRepNvLen = osal_nv_item_len( ZCD_NV_BDBREPORTINGCONFIG );
    875                if ( attrRepNvLen > 0 )
    876                {
    877                  osal_nv_delete( ZCD_NV_BDBREPORTINGCONFIG, attrRepNvLen );
    878                }
    879              }
    880          
    881              //Construct the Endpoint-cluster array
    882              bdb_RepConstructReportingData();
    883          #endif //BDB_REPORTING
    884              
    885              osal_nv_read(ZCD_NV_BDBNODEISONANETWORK,0,sizeof(bdbAttributes.bdbNodeIsOnANetwork),&bdbAttributes.bdbNodeIsOnANetwork);
   \                     ??CrossCallReturnLabel_8:
   \   000067   12....       LCALL     ?PUSH_XSTACK_I_TWO
   \   00006A   75..01       MOV       ?V2,#0x1
   \   00006D   75..00       MOV       ?V3,#0x0
   \   000070   78..         MOV       R0,#?V2
   \   000072   12....       LCALL     ?PUSH_XSTACK_I_TWO
   \   000075   7C00         MOV       R4,#0x0
   \   000077   7D00         MOV       R5,#0x0
   \   000079   7A55         MOV       R2,#0x55
   \   00007B   7B00         MOV       R3,#0x0
   \   00007D   12....       LCALL     `??osal_nv_read::?relay`; Banked call to: osal_nv_read
   \   000080   7404         MOV       A,#0x4
   \   000082   12....       LCALL     ?DEALLOC_XSTACK8
    886              
    887              //Are we on a network
    888              if(bdbAttributes.bdbNodeIsOnANetwork == TRUE)
   \   000085   90....       MOV       DPTR,#bdbAttributes + 14
   \   000088   E0           MOVX      A,@DPTR
   \   000089   6401         XRL       A,#0x1
   \   00008B   6003         JZ        $+5
   \   00008D   02....       LJMP      ??bdb_StartCommissioning_4 & 0xFFFF
    889              {
    890          #ifdef ZG_BUILD_JOINING_TYPE
    891                //Only for joining devices validate the joining procedure
    892                if(ZG_DEVICE_JOINING_TYPE)
   \   000090   90....       MOV       DPTR,#zgDeviceLogicalType
   \   000093   E0           MOVX      A,@DPTR
   \   000094   6401         XRL       A,#0x1
   \   000096   6008         JZ        ??bdb_StartCommissioning_5
   \   000098   E0           MOVX      A,@DPTR
   \   000099   6402         XRL       A,#0x2
   \   00009B   6003         JZ        $+5
   \   00009D   02....       LJMP      ??bdb_StartCommissioning_6 & 0xFFFF
    893                {
    894                  //If we got into a network
    895                  if(!osal_isbufset( AIB_apsTrustCenterAddress, 0x00, Z_EXTADDR_LEN ))
   \                     ??bdb_StartCommissioning_5:
   \   0000A0                ; Setup parameters for call to function osal_isbufset
   \   0000A0   7C08         MOV       R4,#0x8
   \   0000A2   7900         MOV       R1,#0x0
   \   0000A4   90....       MOV       DPTR,#AIB_apsTrustCenterAddress
   \   0000A7   12....       LCALL     ??Subroutine51_0 & 0xFFFF
   \                     ??CrossCallReturnLabel_93:
   \   0000AA   12....       LCALL     `??osal_isbufset::?relay`; Banked call to: osal_isbufset
   \   0000AD   E9           MOV       A,R1
   \   0000AE   6003         JZ        $+5
   \   0000B0   02....       LJMP      ??bdb_StartCommissioning_6 & 0xFFFF
    896                  {
    897                    //Which is not distributed
    898                    if(!APSME_IsDistributedSecurity())
   \   0000B3                ; Setup parameters for call to function APSME_IsDistributedSecurity
   \   0000B3   12....       LCALL     `??APSME_IsDistributedSecurity::?relay`; Banked call to: APSME_IsDistributedSecurity
   \   0000B6   E9           MOV       A,R1
   \   0000B7   6003         JZ        $+5
   \   0000B9   02....       LJMP      ??bdb_StartCommissioning_6 & 0xFFFF
    899                    {
    900                      uint8 keyAttributes;
    901                      osal_nv_read(ZCD_NV_TCLK_TABLE_START, osal_offsetof(APSME_TCLKDevEntry_t,keyAttributes), sizeof(uint8), &keyAttributes);
   \   0000BC                ; Setup parameters for call to function osal_nv_read
   \   0000BC   A8..         MOV       R0,?XSP + 0
   \   0000BE   A9..         MOV       R1,?XSP + 1
   \   0000C0   88..         MOV       ?V2,R0
   \   0000C2   89..         MOV       ?V3,R1
   \   0000C4   78..         MOV       R0,#?V2
   \   0000C6   12....       LCALL     ?PUSH_XSTACK_I_TWO
   \   0000C9   75..01       MOV       ?V2,#0x1
   \   0000CC   75..00       MOV       ?V3,#0x0
   \   0000CF   78..         MOV       R0,#?V2
   \   0000D1   12....       LCALL     ?PUSH_XSTACK_I_TWO
   \   0000D4   7C10         MOV       R4,#0x10
   \   0000D6   7D00         MOV       R5,#0x0
   \   0000D8   7A11         MOV       R2,#0x11
   \   0000DA   7B01         MOV       R3,#0x1
   \   0000DC   12....       LCALL     `??osal_nv_read::?relay`; Banked call to: osal_nv_read
   \   0000DF   7404         MOV       A,#0x4
   \   0000E1   12....       LCALL     ?DEALLOC_XSTACK8
    902                      //If we must perform the TCLK exchange and we didn't complete it, then reset to FN
    903                      if(requestNewTrustCenterLinkKey && (keyAttributes != ZG_NON_R21_NWK_JOINED) && (keyAttributes != ZG_VERIFIED_KEY))
   \   0000E4   90....       MOV       DPTR,#requestNewTrustCenterLinkKey
   \   0000E7   E0           MOVX      A,@DPTR
   \   0000E8   7003         JNZ       $+5
   \   0000EA   02....       LJMP      ??bdb_StartCommissioning_6 & 0xFFFF
   \   0000ED   85..82       MOV       DPL,?XSP + 0
   \   0000F0   85..83       MOV       DPH,?XSP + 1
   \   0000F3   E0           MOVX      A,@DPTR
   \   0000F4   64FD         XRL       A,#0xfd
   \   0000F6   607B         JZ        ??bdb_StartCommissioning_6
   \   0000F8   E0           MOVX      A,@DPTR
   \   0000F9   6402         XRL       A,#0x2
   \   0000FB   6076         JZ        ??bdb_StartCommissioning_6
    904                      {
    905                        //Force to initialize the entry
    906                        APSME_TCLKDevEntry_t APSME_TCLKDevEntry;
    907                        
    908                        osal_memset(&APSME_TCLKDevEntry,0,sizeof(APSME_TCLKDevEntry_t));
   \   0000FD                ; Setup parameters for call to function osal_memset
   \   0000FD   7C13         MOV       R4,#0x13
   \   0000FF   7D00         MOV       R5,#0x0
   \   000101   7900         MOV       R1,#0x0
   \   000103   7401         MOV       A,#0x1
   \   000105   12....       LCALL     ?XSTACK_DISP101_8
   \   000108   12....       LCALL     `??osal_memset::?relay`; Banked call to: osal_memset
    909                        APSME_TCLKDevEntry.keyAttributes = ZG_DEFAULT_KEY;
   \   00010B   7411         MOV       A,#0x11
   \   00010D   12....       LCALL     ?XSTACK_DISP0_8
   \   000110   74FF         MOV       A,#-0x1
   \   000112   F0           MOVX      @DPTR,A
    910                        osal_nv_write(ZCD_NV_TCLK_TABLE_START, 0, sizeof(APSME_TCLKDevEntry_t), &APSME_TCLKDevEntry);
   \   000113                ; Setup parameters for call to function osal_nv_write
   \   000113   7401         MOV       A,#0x1
   \   000115   12....       LCALL     ?XSTACK_DISP100_8
   \   000118   88..         MOV       ?V2,R0
   \   00011A   89..         MOV       ?V3,R1
   \   00011C   78..         MOV       R0,#?V2
   \   00011E   12....       LCALL     ?PUSH_XSTACK_I_TWO
   \   000121   75..13       MOV       ?V2,#0x13
   \   000124   75..00       MOV       ?V3,#0x0
   \   000127   78..         MOV       R0,#?V2
   \   000129   12....       LCALL     ?PUSH_XSTACK_I_TWO
   \   00012C   7C00         MOV       R4,#0x0
   \   00012E   7D00         MOV       R5,#0x0
   \   000130   7A11         MOV       R2,#0x11
   \   000132   7B01         MOV       R3,#0x1
   \   000134   12....       LCALL     `??osal_nv_write::?relay`; Banked call to: osal_nv_write
   \   000137   7404         MOV       A,#0x4
   \   000139   12....       LCALL     ?DEALLOC_XSTACK8
    911                        TCLinkKeyFrmCntr[0].txFrmCntr = 0;
   \   00013C   90....       MOV       DPTR,#TCLinkKeyFrmCntr
   \   00013F   12....       LCALL     ?Subroutine10 & 0xFFFF
    912                        TCLinkKeyFrmCntr[0].rxFrmCntr = 0;
   \                     ??CrossCallReturnLabel_48:
   \   000142   A3           INC       DPTR
   \   000143   12....       LCALL     ??Subroutine38_0 & 0xFFFF
    913                        
    914                        
    915                        //reset the device parameters to FN
    916                        bdbAttributes.bdbNodeIsOnANetwork = FALSE;
   \                     ??CrossCallReturnLabel_46:
   \   000146   90....       MOV       DPTR,#bdbAttributes + 14
   \   000149   12....       LCALL     ?Subroutine14 & 0xFFFF
    917                        osal_nv_write(ZCD_NV_BDBNODEISONANETWORK,0,sizeof(bdbAttributes.bdbNodeIsOnANetwork),&bdbAttributes.bdbNodeIsOnANetwork);
   \                     ??CrossCallReturnLabel_9:
   \   00014C   12....       LCALL     ?PUSH_XSTACK_I_TWO
   \   00014F   75..01       MOV       ?V2,#0x1
   \   000152   75..00       MOV       ?V3,#0x0
   \   000155   78..         MOV       R0,#?V2
   \   000157   12....       LCALL     ?PUSH_XSTACK_I_TWO
   \   00015A   7C00         MOV       R4,#0x0
   \   00015C   7D00         MOV       R5,#0x0
   \   00015E   7A55         MOV       R2,#0x55
   \   000160   7B00         MOV       R3,#0x0
   \   000162   12....       LCALL     `??osal_nv_write::?relay`; Banked call to: osal_nv_write
   \   000165   7404         MOV       A,#0x4
   \   000167   12....       LCALL     ?DEALLOC_XSTACK8
    918                        zgWriteStartupOptions(ZG_STARTUP_SET, ZCD_STARTOPT_DEFAULT_CONFIG_STATE | ZCD_STARTOPT_DEFAULT_NETWORK_STATE);
   \   00016A                ; Setup parameters for call to function zgWriteStartupOptions
   \   00016A   7A03         MOV       R2,#0x3
   \   00016C   79FF         MOV       R1,#-0x1
   \   00016E   12....       LCALL     `??zgWriteStartupOptions::?relay`; Banked call to: zgWriteStartupOptions
    919                        
    920                        //Then start the commissioning process requested
    921                        bdbCommissioningProcedureState.bdbCommissioningState = BDB_COMMISSIONING_STATE_START_RESUME;
   \   000171   803B         SJMP      ??bdb_StartCommissioning_7
    922                        osal_set_event( bdb_TaskID, BDB_CHANGE_COMMISSIONING_STATE );
    923                        return;
    924                      }
    925                    }
    926                  }
    927                }
    928          #endif //ZG_BUILD_JOINING_TYPE
    929                
    930                //Set the initialization
    931                bdbAttributes.bdbCommissioningMode |= BDB_COMMISSIONING_MODE_INITIALIZATION;
    932                bdbCommissioningProcedureState.bdbCommissioningState = BDB_INITIALIZATION;
   \                     ??bdb_StartCommissioning_6:
   \   000173   90....       MOV       DPTR,#bdbCommissioningProcedureState
   \   000176   7407         MOV       A,#0x7
   \   000178   F0           MOVX      @DPTR,A
    933                bdbAttributes.bdbCommissioningMode |= mode & BDB_COMMISSIONING_MODES;
   \   000179   7410         MOV       A,#0x10
   \   00017B   4E           ORL       A,R6
   \   00017C   F8           MOV       R0,A
   \   00017D   90....       MOV       DPTR,#bdbAttributes + 11
   \   000180   E0           MOVX      A,@DPTR
   \   000181   48           ORL       A,R0
   \   000182   F0           MOVX      @DPTR,A
    934                
    935                if(ZDOInitDevice(0) == ZDO_INITDEV_RESTORED_NETWORK_STATE)
   \   000183                ; Setup parameters for call to function ZDOInitDeviceEx
   \   000183   7900         MOV       R1,#0x0
   \   000185   7A00         MOV       R2,#0x0
   \   000187   7B00         MOV       R3,#0x0
   \   000189   12....       LCALL     `??ZDOInitDeviceEx::?relay`; Banked call to: ZDOInitDeviceEx
   \   00018C   E9           MOV       A,R1
   \   00018D   602F         JZ        ??bdb_StartCommissioning_3
    936                {
    937          #ifdef BDB_REPORTING
    938                  //Mark the clusterEndpoint entries that have binding, starts reporting if at least one entry was marked
    939                  bdb_RepUpdateMarkBindings();
    940          #endif
    941                  return;
    942                }
    943                bdb_setNodeIsOnANetwork(FALSE);  
   \   00018F                ; Setup parameters for call to function bdb_setNodeIsOnANetwork
   \   00018F   7900         MOV       R1,#0x0
   \   000191   12....       LCALL     `??bdb_setNodeIsOnANetwork::?relay`; Banked call to: bdb_setNodeIsOnANetwork
    944                //Not in the network
    945                bdb_reportCommissioningState(BDB_INITIALIZATION,FALSE);
   \   000194                ; Setup parameters for call to function bdb_reportCommissioningState
   \   000194   7A00         MOV       R2,#0x0
   \   000196   7907         MOV       R1,#0x7
   \   000198   800F         SJMP      ??bdb_StartCommissioning_8
    946                return;
    947              }
    948            }
    949          
    950            //Got requested only to initialize, if so, report that it failed
    951            if(bdbAttributes.bdbCommissioningMode == 0)
   \                     ??bdb_StartCommissioning_4:
   \   00019A   90....       MOV       DPTR,#bdbAttributes + 11
   \   00019D   E0           MOVX      A,@DPTR
   \   00019E   700E         JNZ       ??bdb_StartCommissioning_7
    952            {
    953              //Set the initialization state and report it to fail
    954              bdbCommissioningProcedureState.bdbCommissioningState = BDB_INITIALIZATION;
   \   0001A0   90....       MOV       DPTR,#bdbCommissioningProcedureState
   \   0001A3   7407         MOV       A,#0x7
   \   0001A5   F0           MOVX      @DPTR,A
    955              bdb_reportCommissioningState(BDB_INITIALIZATION,FALSE);
   \   0001A6                ; Setup parameters for call to function bdb_reportCommissioningState
   \   0001A6   7A00         MOV       R2,#0x0
   \   0001A8   F9           MOV       R1,A
   \                     ??bdb_StartCommissioning_8:
   \   0001A9   12....       LCALL     `??bdb_reportCommissioningState::?relay`; Banked call to: bdb_reportCommissioningState
    956              return;
   \   0001AC   8010         SJMP      ??bdb_StartCommissioning_3
    957            }
    958          
    959            
    960            //Start the commissioning process
    961            bdbCommissioningProcedureState.bdbCommissioningState = BDB_COMMISSIONING_STATE_START_RESUME;
   \                     ??bdb_StartCommissioning_7:
   \   0001AE   90....       MOV       DPTR,#bdbCommissioningProcedureState
   \   0001B1   E4           CLR       A
   \   0001B2   F0           MOVX      @DPTR,A
    962            osal_set_event( bdb_TaskID, BDB_CHANGE_COMMISSIONING_STATE );
   \   0001B3                ; Setup parameters for call to function osal_set_event
   \   0001B3   7A04         MOV       R2,#0x4
   \   0001B5   FB           MOV       R3,A
   \   0001B6   90....       MOV       DPTR,#bdb_TaskID
   \   0001B9   E0           MOVX      A,@DPTR
   \   0001BA   F9           MOV       R1,A
   \   0001BB   12....       LCALL     `??osal_set_event::?relay`; Banked call to: osal_set_event
    963          }
   \                     ??bdb_StartCommissioning_3:
   \   0001BE   7414         MOV       A,#0x14
   \   0001C0   02....       LJMP      ??Subroutine42_0 & 0xFFFF

   \                                 In  segment BANKED_CODE, align 1, keep-with-next
   \                     ?Subroutine14:
   \   000000   F0           MOVX      @DPTR,A
   \   000001                ; Setup parameters for call to function osal_nv_read
   \   000001                ; Setup parameters for call to function osal_nv_write
   \   000001   75....       MOV       ?V2,#(bdbAttributes + 14) & 0xff
   \   000004   75....       MOV       ?V3,#((bdbAttributes + 14) >> 8) & 0xff
   \   000007   78..         MOV       R0,#?V2
   \   000009   22           RET
    964          
    965          
    966           /*********************************************************************
    967           * @fn          bdb_NotifyCommissioningModeStart
    968           *
    969           * @brief       Notify the user about a commissioning method just started
    970           *
    971           * @param       commissioningMode
    972           *
    973           * @return      none
    974           */

   \                                 In  segment BANKED_CODE, align 1, keep-with-next
   \                     ?Subroutine1:
   \   000000   12....       LCALL     ?DEALLOC_XSTACK8
   \   000003                REQUIRE ??Subroutine37_0
   \   000003                ; // Fall through to label ??Subroutine37_0

   \                                 In  segment BANKED_CODE, align 1, keep-with-next
    975          void bdb_NotifyCommissioningModeStart(uint8 commissioningMode)
   \                     bdb_NotifyCommissioningModeStart:
    976          {
   \   000000                REQUIRE ?V0
   \   000000                REQUIRE ?V1
   \   000000   74F6         MOV       A,#-0xa
   \   000002   12....       LCALL     ?BANKED_ENTER_XDATA
   \   000005                ; Saved register size: 10
   \   000005                ; Auto size: 3
   \   000005   74FD         MOV       A,#-0x3
   \   000007   12....       LCALL     ?ALLOC_XSTACK8
    977            bdbCommissioningModeMsg_t bdbCommissioningModeMsg;
    978          
    979            bdbCommissioningModeMsg.bdbCommissioningMode = commissioningMode;
   \   00000A   7401         MOV       A,#0x1
   \   00000C   12....       LCALL     ?XSTACK_DISP0_8
   \   00000F   E9           MOV       A,R1
   \   000010   12....       LCALL     ??Subroutine47_0 & 0xFFFF
    980            bdbCommissioningModeMsg.bdbCommissioningStatus = BDB_COMMISSIONING_IN_PROGRESS;
   \                     ??CrossCallReturnLabel_77:
   \   000013   7401         MOV       A,#0x1
   \   000015   12....       LCALL     ?Subroutine9 & 0xFFFF
    981            //Remaining commissioning modes are set just before the call to the application to avoid race conditions
    982          
    983            bdb_NotifyApp((uint8*)&bdbCommissioningModeMsg);
   \                     ??CrossCallReturnLabel_0:
   \   000018   12....       LCALL     ?PUSH_XSTACK_I_TWO
   \   00001B   7C03         MOV       R4,#0x3
   \   00001D   7B00         MOV       R3,#0x0
   \   00001F   7A0A         MOV       R2,#0xa
   \   000021   90....       MOV       DPTR,#bdb_TaskID
   \   000024   E0           MOVX      A,@DPTR
   \   000025   F9           MOV       R1,A
   \   000026   12....       LCALL     `??bdb_SendMsg::?relay`; Banked call to: bdb_SendMsg
   \   000029   7402         MOV       A,#0x2
   \   00002B   12....       LCALL     ?DEALLOC_XSTACK8
    984          }
   \   00002E   7403         MOV       A,#0x3
   \   000030   02....       LJMP      ?Subroutine1 & 0xFFFF

   \                                 In  segment BANKED_CODE, align 1, keep-with-next
   \                     ?Subroutine9:
   \   000000   F0           MOVX      @DPTR,A
   \   000001                ; Setup parameters for call to function bdb_SendMsg
   \   000001                ; Setup parameters for call to function bdb_SendMsg
   \   000001                ; Setup parameters for call to function bdb_SendMsg
   \   000001                ; Setup parameters for call to function bdb_SendMsg
   \   000001   A8..         MOV       R0,?XSP + 0
   \   000003   A9..         MOV       R1,?XSP + 1
   \   000005   88..         MOV       ?V0,R0
   \   000007   89..         MOV       ?V1,R1
   \   000009   78..         MOV       R0,#?V0
   \   00000B   22           RET

   \                                 In  segment BANKED_CODE, align 1, keep-with-next
   \                     ??Subroutine47_0:
   \   000000   F0           MOVX      @DPTR,A
   \   000001   85..82       MOV       DPL,?XSP + 0
   \   000004   85..83       MOV       DPH,?XSP + 1
   \   000007   22           RET
    985          
    986          
    987          
    988          #if (ZG_BUILD_JOINING_TYPE)
    989           /*********************************************************************
    990           * @fn          bdb_setNodeJoinLinkKeyType
    991           *
    992           * @brief       Set the key type in use in the network joined. Global centralized key is used by default
    993           *
    994           * @param       none
    995           *
    996           * @return      none
    997           */
    998          void bdb_setNodeJoinLinkKeyType(uint8 KeyType)
    999          {
   1000            bdbAttributes.bdbNodeJoinLinkKeyType = KeyType;
   1001          }
   1002          #endif
   1003          
   1004           /*********************************************************************
   1005           * @fn          bdb_setFN
   1006           *
   1007           * @brief       Set configuration for FN. This FN configuration will be perfome 
   1008           *              upon call to ZDOInitDevice
   1009           *
   1010           * @param       none
   1011           *
   1012           * @return      none
   1013           */

   \                                 In  segment BANKED_CODE, align 1, keep-with-next
   1014          void bdb_setFN(void)
   \                     bdb_setFN:
   1015          {
   \   000000   C082         PUSH      DPL
   \   000002   C083         PUSH      DPH
   \   000004                ; Saved register size: 2
   \   000004                ; Auto size: 0
   1016            bdb_setNodeIsOnANetwork(FALSE);
   \   000004                ; Setup parameters for call to function bdb_setNodeIsOnANetwork
   \   000004   7900         MOV       R1,#0x0
   \   000006   12....       LCALL     `??bdb_setNodeIsOnANetwork::?relay`; Banked call to: bdb_setNodeIsOnANetwork
   1017          
   1018          #if defined ( INTER_PAN ) && defined ( BDB_TL_INITIATOR )
   1019              touchLink_InitFreeRanges( TRUE );
   1020              touchLink_UpdateNV( TOUCHLINK_UPDATE_NV_RANGES );
   1021          #endif
   1022          #if defined ( INTER_PAN ) && defined ( BDB_TL_TARGET ) 
   1023              touchLink_InitFreeRanges( FALSE );
   1024              touchLink_UpdateNV( TOUCHLINK_UPDATE_NV_RANGES );
   1025          #endif
   1026          
   1027            //Set the device as factory new
   1028            zgWriteStartupOptions(ZG_STARTUP_SET, ZCD_STARTOPT_DEFAULT_CONFIG_STATE | ZCD_STARTOPT_DEFAULT_NETWORK_STATE);
   \   000009                ; Setup parameters for call to function zgWriteStartupOptions
   \   000009   7A03         MOV       R2,#0x3
   \   00000B   79FF         MOV       R1,#-0x1
   \   00000D   12....       LCALL     `??zgWriteStartupOptions::?relay`; Banked call to: zgWriteStartupOptions
   1029          }
   \   000010   80..         SJMP      ??Subroutine40_0
   1030          
   1031           /*********************************************************************
   1032           * @fn          bdb_resetLocalAction
   1033           *
   1034           * @brief       Application interface to perform BDB Reset to FN.
   1035           *
   1036           * @param       none
   1037           *
   1038           * @return      none
   1039           */

   \                                 In  segment BANKED_CODE, align 1, keep-with-next
   1040          void bdb_resetLocalAction(void)
   \                     bdb_resetLocalAction:
   1041          {
   \   000000   C082         PUSH      DPL
   \   000002   C083         PUSH      DPH
   \   000004                ; Saved register size: 2
   \   000004                ; Auto size: 0
   1042            //Process reset as nwk leave if the device is on the network and is able to process it
   1043            if((ZG_BUILD_JOINING_TYPE) && (bdbAttributes.bdbNodeIsOnANetwork) && (!(bdbAttributes.bdbCommissioningMode & BDB_COMMISSIONING_MODE_PARENT_LOST)))
   1044            {
   1045              NLME_LeaveReq_t leaveReq;
   1046              // Set every field to 0
   1047              osal_memset( &leaveReq, 0, sizeof( NLME_LeaveReq_t ) );
   1048              
   1049              bdb_setFN();
   1050                
   1051              NLME_LeaveReq( &leaveReq );
   1052              
   1053              return;
   1054            }
   1055            else
   1056            {
   1057              bdb_setFN();
   \   000004                ; Setup parameters for call to function bdb_setFN
   \   000004   12....       LCALL     `??bdb_setFN::?relay`; Banked call to: bdb_setFN
   1058              
   1059              ZDApp_ResetTimerStart( 500 );
   \   000007                ; Setup parameters for call to function ZDApp_ResetTimerStart
   \   000007   7AF4         MOV       R2,#-0xc
   \   000009   7B01         MOV       R3,#0x1
   \   00000B   12....       LCALL     `??ZDApp_ResetTimerStart::?relay`; Banked call to: ZDApp_ResetTimerStart
   1060            }
   1061          }
   \   00000E   80..         SJMP      ??Subroutine40_0
   1062          
   1063          
   1064           /*********************************************************************
   1065           * @fn          bdb_parentLost
   1066           *
   1067           * @brief       Notify bdb that connection with parent is lost
   1068           *
   1069           * @return      none
   1070           */

   \                                 In  segment BANKED_CODE, align 1, keep-with-next
   1071          void bdb_parentLost(void)
   \                     bdb_parentLost:
   1072          {
   \   000000                ; Saved register size: 0
   \   000000                ; Auto size: 0
   1073          #if ZG_BUILD_ENDDEVICE_TYPE
   1074            if(ZG_DEVICE_ENDDEVICE_TYPE)
   1075            {
   1076              while(pBDBListNwk)
   1077              {
   1078                bdb_nwkDescFree(pBDBListNwk);
   1079              }
   1080              
   1081              nwk_desc_list_free();  
   1082              if(bdbCommissioningProcedureState.bdbCommissioningState != BDB_PARENT_LOST)
   1083              {
   1084                //If parent lost during TCLK exchange, then report TCLK exchange fail
   1085                if(bdbCommissioningProcedureState.bdbCommissioningState == BDB_COMMISSIONING_STATE_TC_LINK_KEY_EXCHANGE)
   1086                {
   1087                  bdb_reportCommissioningState(BDB_COMMISSIONING_STATE_TC_LINK_KEY_EXCHANGE, FALSE);
   1088                  return;
   1089                }
   1090                bdbCommissioningProcedureState.bdb_ParentLostSavedState = bdbCommissioningProcedureState.bdbCommissioningState;
   1091                
   1092              }
   1093              bdbCommissioningProcedureState.bdbCommissioningState = BDB_PARENT_LOST;
   1094              NLME_OrphanStateSet();
   1095              ZDApp_ChangeState( DEV_NWK_ORPHAN );
   1096              bdb_reportCommissioningState(BDB_PARENT_LOST,FALSE);
   1097            }
   1098          #endif
   1099          }
   \   000000   02....       LJMP      ?BRET
   1100          
   1101          
   1102          
   1103          
   1104          
   1105           /*********************************************************************
   1106           * @fn          bdb_NetworkRestoredResumeState
   1107           *
   1108           * @brief       Restore the state of child device after parent lost
   1109           *
   1110           * @return      none
   1111           */

   \                                 In  segment BANKED_CODE, align 1, keep-with-next
   1112          void bdb_NetworkRestoredResumeState(void)
   \                     bdb_NetworkRestoredResumeState:
   1113          {
   \   000000                ; Saved register size: 0
   \   000000                ; Auto size: 0
   1114          #if (BDB_FINDING_BINDING_CAPABILITY_ENABLED==1)   
   1115          #if ZG_BUILD_ENDDEVICE_TYPE
   1116            if(ZG_DEVICE_ENDDEVICE_TYPE)
   1117            {
   1118              uint8 restoreSimpleDesc = FALSE;
   1119              //If restored when F&B still enabled, then restore the simple descriptors attempts
   1120              if(bdbCommissioningProcedureState.bdbCommissioningState == BDB_COMMISSIONING_STATE_FINDING_BINDING)
   1121              {
   1122                bdbFindingBindingRespondent_t  *pRespondentTemp = NULL;
   1123                
   1124                pRespondentTemp = pRespondentHead;
   1125                
   1126                while(pRespondentTemp != NULL)
   1127                {
   1128                  if(pRespondentTemp->attempts & FINDING_AND_BINDING_PARENT_LOST)
   1129                  {
   1130                    pRespondentTemp->attempts &= ~FINDING_AND_BINDING_PARENT_LOST;
   1131                    restoreSimpleDesc = TRUE;
   1132                  }
   1133                  pRespondentTemp = pRespondentTemp->pNext;
   1134                }
   1135              }
   1136              if(restoreSimpleDesc)
   1137              {
   1138                //Restore the simple Descriptor sending after 1 second of restoring the network
   1139                osal_start_timerEx(bdb_TaskID,BDB_RESPONDENT_PROCESS_TIMEOUT, 1000);
   1140              }
   1141            }
   1142          #endif
   1143          #endif
   1144          }
   \   000000   02....       LJMP      ?BRET
   1145          
   1146          #if ZG_BUILD_ENDDEVICE_TYPE
   1147           /*********************************************************************
   1148           * @fn          bdb_ZedAttemptRecoverNwk
   1149           *
   1150           * @brief       Instruct the ZED to try to rejoin its previews network
   1151           *
   1152           * @return      success if the attempt is being excecuted
   1153           *              False if device do not have nwk parameters to perform this action
   1154           */
   1155          uint8 bdb_ZedAttemptRecoverNwk(void)
   1156          {
   1157            if(ZG_DEVICE_ENDDEVICE_TYPE)
   1158            {
   1159              if(bdbAttributes.bdbNodeIsOnANetwork)
   1160              {
   1161                if(bdbCommissioningProcedureState.bdbCommissioningState == BDB_PARENT_LOST)
   1162                {
   1163                  if(ZDOInitDevice(0) == ZDO_INITDEV_RESTORED_NETWORK_STATE)
   1164                  {
   1165                    return ZSuccess;
   1166                  }
   1167                }
   1168              }
   1169            }
   1170            return ZFailure;
   1171          }
   1172          
   1173          #endif
   1174          
   1175           /*********************************************************************
   1176           * @fn          bdb_reportCommissioningState
   1177           *
   1178           * @brief       Process the result of a BDB main state attempt.
   1179           *
   1180           * @param       bdbCommissioningState - MainState that is issuing fail
   1181           * @param       didSuccess - TRUE if the main state were success, FALSE otherwise
   1182           *
   1183           * @return      none
   1184           */

   \                                 In  segment BANKED_CODE, align 1, keep-with-next
   1185          void bdb_reportCommissioningState(uint8 bdbCommissioningState,bool didSuccess)
   \                     bdb_reportCommissioningState:
   1186          {
   \   000000                REQUIRE ?V0
   \   000000                REQUIRE ?V1
   \   000000   74F6         MOV       A,#-0xa
   \   000002   12....       LCALL     ?BANKED_ENTER_XDATA
   \   000005                ; Saved register size: 10
   \   000005                ; Auto size: 4
   \   000005   74FC         MOV       A,#-0x4
   \   000007   12....       LCALL     ?ALLOC_XSTACK8
   \   00000A   E9           MOV       A,R1
   \   00000B   FE           MOV       R6,A
   \   00000C   EA           MOV       A,R2
   \   00000D   FF           MOV       R7,A
   1187            bdbCommissioningModeMsg_t bdbCommissioningModeMsg;
   1188            //Process only if we are in that state, or if we are on parent lost and processing F&B
   1189            if((bdbCommissioningProcedureState.bdbCommissioningState == bdbCommissioningState)
   1190               || ((bdbCommissioningProcedureState.bdbCommissioningState == BDB_PARENT_LOST) && (bdbCommissioningProcedureState.bdb_ParentLostSavedState == BDB_COMMISSIONING_STATE_FINDING_BINDING)))
   \   00000E   90....       MOV       DPTR,#bdbCommissioningProcedureState
   \   000011   E0           MOVX      A,@DPTR
   \   000012   6E           XRL       A,R6
   \   000013   6013         JZ        ??bdb_reportCommissioningState_0
   \   000015   E0           MOVX      A,@DPTR
   \   000016   6408         XRL       A,#0x8
   \   000018   6003         JZ        $+5
   \   00001A   02....       LJMP      ??bdb_reportCommissioningState_1 & 0xFFFF
   \   00001D   90....       MOV       DPTR,#bdbCommissioningProcedureState + 3
   \   000020   E0           MOVX      A,@DPTR
   \   000021   6406         XRL       A,#0x6
   \   000023   6003         JZ        $+5
   \   000025   02....       LJMP      ??bdb_reportCommissioningState_1 & 0xFFFF
   1191            {
   1192              switch(bdbCommissioningState)
   \                     ??bdb_reportCommissioningState_0:
   \   000028   EE           MOV       A,R6
   \   000029   24FE         ADD       A,#-0x2
   \   00002B   7003         JNZ       $+5
   \   00002D   02....       LJMP      ??bdb_reportCommissioningState_2 & 0xFFFF
   \   000030   24FE         ADD       A,#-0x2
   \   000032   6012         JZ        ??bdb_reportCommissioningState_3
   \   000034   14           DEC       A
   \   000035   6056         JZ        ??bdb_reportCommissioningState_4
   \   000037   14           DEC       A
   \   000038   7003         JNZ       $+5
   \   00003A   02....       LJMP      ??bdb_reportCommissioningState_5 & 0xFFFF
   \   00003D   14           DEC       A
   \   00003E   7003         JNZ       $+5
   \   000040   02....       LJMP      ??bdb_reportCommissioningState_6 & 0xFFFF
   \   000043   02....       LJMP      ??bdb_reportCommissioningState_7 & 0xFFFF
   1193              {
   1194          #if (ZG_BUILD_JOINING_TYPE)
   1195                case BDB_COMMISSIONING_STATE_JOINING:
   1196                  if(ZG_DEVICE_JOINING_TYPE)
   1197                  {
   1198                    //Prepare for the next state or commissioning mode to be excecuted
   1199                    osal_start_timerEx(bdb_TaskID,BDB_CHANGE_COMMISSIONING_STATE,50);
   1200          
   1201                    if(didSuccess)
   1202                    {
   1203                      //Next state is TC link key exchange
   1204                      bdbCommissioningProcedureState.bdbCommissioningState = BDB_COMMISSIONING_STATE_TC_LINK_KEY_EXCHANGE;
   1205                      //Free the list of nwk discovered
   1206                      while(pBDBListNwk)
   1207                      {
   1208                        bdb_nwkDescFree(pBDBListNwk);
   1209                      }
   1210                      
   1211                      //Set the poll rate of the ZED joining device to 1 second to allow TCLK 
   1212                      //exchange be perfomed successfully in cases in which application has a 
   1213                      //slow pollrate
   1214                      NLME_SetPollRate(TCLK_POLL_RATE);
   1215                      
   1216                      //No notification in this step
   1217                      return;
   1218                    } 
   1219                    else
   1220                    {
   1221                      uint8 temp = FALSE;
   1222                      //If fail, then restore poll rate
   1223                      NLME_SetPollRate(POLL_RATE);
   1224                      bdbAttributes.bdbCommissioningStatus = BDB_COMMISSIONING_NO_NETWORK;
   1225                      bdbCommissioningModeMsg.bdbCommissioningMode = BDB_COMMISSIONING_NWK_STEERING;
   1226                      bdbCommissioningProcedureState.bdbCommissioningState = BDB_COMMISSIONING_STATE_START_RESUME;
   1227                      bdbAttributes.bdbCommissioningMode &= ~BDB_COMMISSIONING_MODE_NWK_STEERING;
   1228                      
   1229                      //Turn off the radio
   1230                      ZMacSetReq(ZMacRxOnIdle, &temp);
   1231                      //Set the device to FN, to start as new for subsequent attempts
   1232                      bdb_setFN();
   1233                      NLME_ResetRequest();
   1234                      ZDApp_ChangeState( DEV_HOLD );
   1235                      
   1236                      //Free the list of nwk discovered
   1237                      while(pBDBListNwk)
   1238                      {
   1239                        bdb_nwkDescFree(pBDBListNwk);
   1240                      }
   1241                    }
   1242                  }
   1243                break;
   1244          
   1245                case BDB_COMMISSIONING_STATE_TC_LINK_KEY_EXCHANGE:
   1246                  if(ZG_DEVICE_JOINING_TYPE)
   1247                  {
   1248                    if(didSuccess)
   1249                    {
   1250                      //Clear any setting that would set the device as FN
   1251                      zgWriteStartupOptions(ZG_STARTUP_CLEAR, ZCD_STARTOPT_DEFAULT_CONFIG_STATE | ZCD_STARTOPT_DEFAULT_NETWORK_STATE);            
   1252                      
   1253                      //Next state is nwk steering on the nwk (permit joining)
   1254                      bdbCommissioningProcedureState.bdbCommissioningState = BDB_COMMISSIONING_STATE_STEERING_ON_NWK;
   1255                      osal_start_timerEx(bdb_TaskID,BDB_CHANGE_COMMISSIONING_STATE, 50);
   1256                      
   1257                      //Set the poll rate to the application default after TCLK success
   1258                      NLME_SetPollRate(POLL_RATE);
   1259          
   1260                      osal_stop_timerEx( bdb_TaskID, BDB_PROCESS_TIMEOUT );
   1261                      //No notification to the user is needed
   1262                      return;
   1263                    }
   1264                    else
   1265                    {
   1266                      bdbCommissioningModeMsg.bdbCommissioningMode = BDB_COMMISSIONING_NWK_STEERING;
   1267                      bdbAttributes.bdbCommissioningStatus = BDB_COMMISSIONING_TCLK_EX_FAILURE;
   1268                      
   1269                      osal_stop_timerEx( bdb_TaskID, BDB_PROCESS_TIMEOUT);
   1270                     
   1271                      //No process shall be attempted after this fail
   1272                      bdbAttributes.bdbCommissioningMode = 0;
   1273                      
   1274                      //Fill the context for the user notification
   1275                      osal_start_timerEx(bdb_TaskID,BDB_TC_LINK_KEY_EXCHANGE_FAIL,BDB_TC_LINK_KEY_EXCHANGE_FAIL_LEAVE_TIMEOUT);
   1276                    }
   1277                  }
   1278                break;
   1279          #endif
   1280                
   1281                case BDB_COMMISSIONING_STATE_STEERING_ON_NWK:
   1282                  bdbCommissioningModeMsg.bdbCommissioningMode = BDB_COMMISSIONING_NWK_STEERING;
   \                     ??bdb_reportCommissioningState_3:
   \   000046   7401         MOV       A,#0x1
   \   000048   12....       LCALL     ?XSTACK_DISP0_8
   \   00004B   7401         MOV       A,#0x1
   \   00004D   F0           MOVX      @DPTR,A
   1283                  if(didSuccess)
   \   00004E   EF           MOV       A,R7
   \   00004F   90....       MOV       DPTR,#bdbAttributes + 10
   \   000052   6011         JZ        ??bdb_reportCommissioningState_8
   1284                  {
   1285                    bdbAttributes.bdbCommissioningStatus = BDB_COMMISSIONING_SUCCESS;
   \   000054   E4           CLR       A
   \   000055   F0           MOVX      @DPTR,A
   1286                    
   1287          #if (ZG_BUILD_RTR_TYPE)          
   1288                    //Update ZDApp state
   1289                    if(ZG_DEVICE_RTRONLY_TYPE)
   \   000056   90....       MOV       DPTR,#zgDeviceLogicalType
   \   000059   E0           MOVX      A,@DPTR
   \   00005A   6401         XRL       A,#0x1
   \   00005C   700A         JNZ       ??bdb_reportCommissioningState_9
   1290                    {          
   1291                      ZDApp_ChangeState( DEV_ROUTER );
   \   00005E                ; Setup parameters for call to function ZDApp_ChangeState
   \   00005E   7907         MOV       R1,#0x7
   \   000060   12....       LCALL     `??ZDApp_ChangeState::?relay`; Banked call to: ZDApp_ChangeState
   \   000063   8003         SJMP      ??bdb_reportCommissioningState_9
   1292                    }
   1293          #endif
   1294          #if (ZG_BUILD_ENDDEVICE_TYPE)
   1295                    if(ZG_DEVICE_ENDDEVICE_TYPE)
   1296                    {
   1297                      ZDApp_ChangeState( DEV_END_DEVICE );
   1298                    }
   1299          #endif
   1300                  }
   1301          #if (ZG_BUILD_COORDINATOR_TYPE)
   1302                  else
   1303                  {
   1304                    if(ZG_DEVICE_COORDINATOR_TYPE)
   1305                    {
   1306                      bdbAttributes.bdbCommissioningStatus = BDB_COMMISSIONING_NO_NETWORK;
   \                     ??bdb_reportCommissioningState_8:
   \   000065   7402         MOV       A,#0x2
   \   000067   F0           MOVX      @DPTR,A
   1307                    }
   1308                  }
   1309          #endif
   1310                  
   1311                  bdbCommissioningProcedureState.bdbCommissioningState = BDB_COMMISSIONING_STATE_START_RESUME;
   \                     ??bdb_reportCommissioningState_9:
   \   000068   90....       MOV       DPTR,#bdbCommissioningProcedureState
   \   00006B   E4           CLR       A
   \   00006C   F0           MOVX      @DPTR,A
   1312                  osal_start_timerEx(bdb_TaskID,BDB_CHANGE_COMMISSIONING_STATE,50);
   \   00006D                ; Setup parameters for call to function osal_start_timerEx
   \   00006D   90....       MOV       DPTR,#__Constant_32
   \   000070   12....       LCALL     ?PUSH_XSTACK8_X_FOUR
   \   000073   7A04         MOV       R2,#0x4
   \   000075   7B00         MOV       R3,#0x0
   \   000077   90....       MOV       DPTR,#bdb_TaskID
   \   00007A   E0           MOVX      A,@DPTR
   \   00007B   F9           MOV       R1,A
   \   00007C   12....       LCALL     `??osal_start_timerEx::?relay`; Banked call to: osal_start_timerEx
   \   00007F   7404         MOV       A,#0x4
   \   000081   12....       LCALL     ?DEALLOC_XSTACK8
   1313                  bdbAttributes.bdbCommissioningMode &= ~BDB_COMMISSIONING_MODE_NWK_STEERING;
   \   000084   90....       MOV       DPTR,#bdbAttributes + 11
   \   000087   E0           MOVX      A,@DPTR
   \   000088   C2E1         CLR       0xE0 /* A   */.1
   \   00008A   02....       LJMP      ??bdb_reportCommissioningState_10 & 0xFFFF
   1314                break;
   1315                
   1316                case BDB_COMMISSIONING_STATE_FORMATION:
   1317                  bdbCommissioningModeMsg.bdbCommissioningMode = BDB_COMMISSIONING_FORMATION;
   \                     ??bdb_reportCommissioningState_4:
   \   00008D   7401         MOV       A,#0x1
   \   00008F   12....       LCALL     ?XSTACK_DISP0_8
   \   000092   7402         MOV       A,#0x2
   \   000094   F0           MOVX      @DPTR,A
   1318          
   1319                  if(didSuccess)
   \   000095   EF           MOV       A,R7
   \   000096   90....       MOV       DPTR,#bdbAttributes + 10
   \   000099   6019         JZ        ??bdb_reportCommissioningState_11
   1320                  {
   1321                    bdbAttributes.bdbCommissioningStatus = BDB_COMMISSIONING_SUCCESS;
   \   00009B   E4           CLR       A
   \   00009C   F0           MOVX      @DPTR,A
   1322          
   1323                    //Clear any setting that would set the device as FN
   1324                    zgWriteStartupOptions(ZG_STARTUP_CLEAR, ZCD_STARTOPT_DEFAULT_CONFIG_STATE | ZCD_STARTOPT_DEFAULT_NETWORK_STATE);          
   \   00009D                ; Setup parameters for call to function zgWriteStartupOptions
   \   00009D   7A03         MOV       R2,#0x3
   \   00009F   F9           MOV       R1,A
   \   0000A0   12....       LCALL     `??zgWriteStartupOptions::?relay`; Banked call to: zgWriteStartupOptions
   1325                    
   1326                     //Update ZDApp State
   1327          #if (ZG_BUILD_RTR_TYPE)
   1328                    if(ZG_DEVICE_RTRONLY_TYPE)
   \   0000A3   90....       MOV       DPTR,#zgDeviceLogicalType
   \   0000A6   E0           MOVX      A,@DPTR
   \   0000A7   6401         XRL       A,#0x1
   \   0000A9   7005         JNZ       ??bdb_reportCommissioningState_12
   1329                    {          
   1330                      ZDApp_ChangeState( DEV_ROUTER );
   \   0000AB                ; Setup parameters for call to function ZDApp_ChangeState
   \   0000AB   7907         MOV       R1,#0x7
   \   0000AD   12....       LCALL     `??ZDApp_ChangeState::?relay`; Banked call to: ZDApp_ChangeState
   1331                    }
   1332          #endif    
   1333          #if (ZG_BUILD_COORDINATOR_TYPE)
   1334                    if(ZG_DEVICE_COORDINATOR_TYPE)
   1335                    {          
   1336                      ZDApp_ChangeState( DEV_ZB_COORD );
   \                     ??bdb_reportCommissioningState_12:
   \   0000B0                ; Setup parameters for call to function ZDApp_ChangeState
   \   0000B0   7909         MOV       R1,#0x9
   \   0000B2   802C         SJMP      ??bdb_reportCommissioningState_13
   1337                    }     
   1338          #endif
   1339                  }
   1340                  else
   1341                  {
   1342                    bdbAttributes.bdbCommissioningStatus = BDB_COMMISSIONING_FORMATION_FAILURE;
   \                     ??bdb_reportCommissioningState_11:
   \   0000B4   7408         MOV       A,#0x8
   \   0000B6   F0           MOVX      @DPTR,A
   1343                    //If not on the nwk, then restart the nwk parameters
   1344          #if (ZG_BUILD_RTR_TYPE)
   1345                    if(ZG_DEVICE_RTR_TYPE)
   \   0000B7   90....       MOV       DPTR,#zgDeviceLogicalType
   \   0000BA   E0           MOVX      A,@DPTR
   \   0000BB   6004         JZ        ??bdb_reportCommissioningState_14
   \   0000BD   6401         XRL       A,#0x1
   \   0000BF   7022         JNZ       ??bdb_reportCommissioningState_15
   1346                    {           
   1347                      if(!bdbAttributes.bdbNodeIsOnANetwork)
   \                     ??bdb_reportCommissioningState_14:
   \   0000C1   90....       MOV       DPTR,#bdbAttributes + 14
   \   0000C4   E0           MOVX      A,@DPTR
   \   0000C5   701C         JNZ       ??bdb_reportCommissioningState_15
   1348                      {
   1349                        uint8 temp = FALSE;
   \   0000C7   7403         MOV       A,#0x3
   \   0000C9   12....       LCALL     ?XSTACK_DISP0_8
   \   0000CC   E4           CLR       A
   \   0000CD   F0           MOVX      @DPTR,A
   1350                        //Turn off the radio
   1351                        ZMacSetReq(ZMacRxOnIdle, &temp);
   \   0000CE                ; Setup parameters for call to function ZMacSetReq
   \   0000CE   7403         MOV       A,#0x3
   \   0000D0   12....       LCALL     ?XSTACK_DISP101_8
   \   0000D3   7952         MOV       R1,#0x52
   \   0000D5   12....       LCALL     `??ZMacSetReq::?relay`; Banked call to: ZMacSetReq
   1352                        //Set the device to FN, to start as new for subsequent attempts
   1353                        bdb_setFN();
   \   0000D8                ; Setup parameters for call to function bdb_setFN
   \   0000D8   12....       LCALL     `??bdb_setFN::?relay`; Banked call to: bdb_setFN
   1354                        NLME_ResetRequest();
   \   0000DB                ; Setup parameters for call to function NLME_ResetRequest
   \   0000DB   12....       LCALL     `??NLME_ResetRequest::?relay`; Banked call to: NLME_ResetRequest
   1355                        ZDApp_ChangeState( DEV_HOLD );
   \   0000DE                ; Setup parameters for call to function ZDApp_ChangeState
   \   0000DE   7900         MOV       R1,#0x0
   \                     ??bdb_reportCommissioningState_13:
   \   0000E0   12....       LCALL     `??ZDApp_ChangeState::?relay`; Banked call to: ZDApp_ChangeState
   1356                      }
   1357                    }
   1358          #endif
   1359                  }
   1360                  bdbCommissioningProcedureState.bdbCommissioningState = BDB_COMMISSIONING_STATE_START_RESUME;
   \                     ??bdb_reportCommissioningState_15:
   \   0000E3   90....       MOV       DPTR,#bdbCommissioningProcedureState
   \   0000E6   E4           CLR       A
   \   0000E7   F0           MOVX      @DPTR,A
   1361                  osal_start_timerEx(bdb_TaskID,BDB_CHANGE_COMMISSIONING_STATE,50);
   \   0000E8                ; Setup parameters for call to function osal_start_timerEx
   \   0000E8   90....       MOV       DPTR,#__Constant_32
   \   0000EB   12....       LCALL     ?PUSH_XSTACK8_X_FOUR
   \   0000EE   7A04         MOV       R2,#0x4
   \   0000F0   7B00         MOV       R3,#0x0
   \   0000F2   90....       MOV       DPTR,#bdb_TaskID
   \   0000F5   E0           MOVX      A,@DPTR
   \   0000F6   F9           MOV       R1,A
   \   0000F7   12....       LCALL     `??osal_start_timerEx::?relay`; Banked call to: osal_start_timerEx
   \   0000FA   7404         MOV       A,#0x4
   \   0000FC   12....       LCALL     ?DEALLOC_XSTACK8
   1362                  bdbAttributes.bdbCommissioningMode &= ~BDB_COMMISSIONING_MODE_NWK_FORMATION;
   \   0000FF   90....       MOV       DPTR,#bdbAttributes + 11
   \   000102   E0           MOVX      A,@DPTR
   \   000103   C2E2         CLR       0xE0 /* A   */.2
   \   000105   02....       LJMP      ??bdb_reportCommissioningState_10 & 0xFFFF
   1363                break;  
   1364                
   1365          
   1366                case BDB_COMMISSIONING_STATE_FINDING_BINDING:
   1367          #if (BDB_FINDING_BINDING_CAPABILITY_ENABLED==1) 
   1368                  bdbCommissioningModeMsg.bdbCommissioningMode = BDB_COMMISSIONING_FINDING_BINDING;
   \                     ??bdb_reportCommissioningState_5:
   \   000108   7401         MOV       A,#0x1
   \   00010A   12....       LCALL     ?XSTACK_DISP0_8
   \   00010D   7403         MOV       A,#0x3
   \   00010F   F0           MOVX      @DPTR,A
   1369          
   1370                  //Do not notify the status if we have another identify to send
   1371                  if(bdbAttributes.bdbCommissioningStatus == BDB_COMMISSIONING_SUCCESS)
   \   000110   90....       MOV       DPTR,#bdbAttributes + 10
   \   000113   E0           MOVX      A,@DPTR
   \   000114   7006         JNZ       ??bdb_reportCommissioningState_16
   1372                  {
   1373                    //Success at least once during F&B as initiator, mark it
   1374                    bdb_FBStateSuccessLatch = TRUE;
   \   000116   90....       MOV       DPTR,#bdb_FBStateSuccessLatch
   \   000119   7401         MOV       A,#0x1
   \   00011B   F0           MOVX      @DPTR,A
   1375                  }        
   1376                  
   1377                  //Will we process another indentify?
   1378                  if(((FINDING_AND_BINDING_PERIODIC_ENABLE == FALSE) || (bdb_FB_InitiatorCurrentCyclesNumber == 0)) && (bdb_getRespondentRetry(pRespondentHead) == NULL) && (osal_get_timeoutEx( bdb_TaskID, BDB_RESPONDENT_PROCESS_TIMEOUT) == 0))
   \                     ??bdb_reportCommissioningState_16:
   \   00011C   90....       MOV       DPTR,#bdb_FB_InitiatorCurrentCyclesNumber
   \   00011F   E0           MOVX      A,@DPTR
   \   000120   6003         JZ        $+5
   \   000122   02....       LJMP      ??bdb_reportCommissioningState_1 & 0xFFFF
   \   000125                ; Setup parameters for call to function bdb_getRespondentRetry
   \   000125   12....       LCALL     ?Subroutine25 & 0xFFFF
   \                     ??CrossCallReturnLabel_96:
   \   000128   12....       LCALL     `??bdb_getRespondentRetry::?relay`; Banked call to: bdb_getRespondentRetry
   \   00012B   8B..         MOV       ?V1,R3
   \   00012D   EA           MOV       A,R2
   \   00012E   45..         ORL       A,?V1
   \   000130   6003         JZ        $+5
   \   000132   02....       LJMP      ??bdb_reportCommissioningState_1 & 0xFFFF
   \   000135                ; Setup parameters for call to function osal_get_timeoutEx
   \   000135   7A00         MOV       R2,#0x0
   \   000137   7B40         MOV       R3,#0x40
   \   000139   90....       MOV       DPTR,#bdb_TaskID
   \   00013C   E0           MOVX      A,@DPTR
   \   00013D   F9           MOV       R1,A
   \   00013E   12....       LCALL     `??osal_get_timeoutEx::?relay`; Banked call to: osal_get_timeoutEx
   \   000141   EA           MOV       A,R2
   \   000142   4B           ORL       A,R3
   \   000143   4C           ORL       A,R4
   \   000144   4D           ORL       A,R5
   \   000145   6003         JZ        $+5
   \   000147   02....       LJMP      ??bdb_reportCommissioningState_1 & 0xFFFF
   1379                  {
   1380                    // Dealocate respondent list and clean all the F&B process
   1381                    pRespondentCurr = NULL;
   \   00014A   90....       MOV       DPTR,#pRespondentCurr
   \   00014D   E4           CLR       A
   \   00014E   F0           MOVX      @DPTR,A
   \   00014F   A3           INC       DPTR
   \   000150   F0           MOVX      @DPTR,A
   1382                    pRespondentNext = NULL;
   \   000151   90....       MOV       DPTR,#pRespondentNext
   \   000154   F0           MOVX      @DPTR,A
   \   000155   A3           INC       DPTR
   \   000156   F0           MOVX      @DPTR,A
   1383                    bdb_zclRespondentListClean( &pRespondentHead );
   \   000157                ; Setup parameters for call to function bdb_zclRespondentListClean
   \   000157   7A..         MOV       R2,#pRespondentHead & 0xff
   \   000159   7B..         MOV       R3,#(pRespondentHead >> 8) & 0xff
   \   00015B   12....       LCALL     `??bdb_zclRespondentListClean::?relay`; Banked call to: bdb_zclRespondentListClean
   1384                    osal_stop_timerEx( bdb_TaskID, BDB_RESPONDENT_PROCESS_TIMEOUT );
   \   00015E                ; Setup parameters for call to function osal_stop_timerEx
   \   00015E   7A00         MOV       R2,#0x0
   \   000160   7B40         MOV       R3,#0x40
   \   000162   90....       MOV       DPTR,#bdb_TaskID
   \   000165   E0           MOVX      A,@DPTR
   \   000166   F9           MOV       R1,A
   \   000167   12....       LCALL     `??osal_stop_timerEx::?relay`; Banked call to: osal_stop_timerEx
   1385                    
   1386                    //Report success if in any of the attempts we got success, regardless that we did receive no rsp on the last attempt
   1387                    if(bdb_FBStateSuccessLatch && (bdbAttributes.bdbCommissioningStatus == BDB_COMMISSIONING_FB_NO_IDENTIFY_QUERY_RESPONSE))
   \   00016A   90....       MOV       DPTR,#bdb_FBStateSuccessLatch
   \   00016D   E0           MOVX      A,@DPTR
   \   00016E   600A         JZ        ??bdb_reportCommissioningState_17
   \   000170   90....       MOV       DPTR,#bdbAttributes + 10
   \   000173   E0           MOVX      A,@DPTR
   \   000174   640B         XRL       A,#0xb
   \   000176   7002         JNZ       ??bdb_reportCommissioningState_17
   1388                    {
   1389                      bdbAttributes.bdbCommissioningStatus = BDB_COMMISSIONING_SUCCESS;
   \   000178   E4           CLR       A
   \   000179   F0           MOVX      @DPTR,A
   1390                    }
   1391                    
   1392                    //Set default state
   1393                    bdb_FBStateSuccessLatch = FALSE;
   \                     ??bdb_reportCommissioningState_17:
   \   00017A   90....       MOV       DPTR,#bdb_FBStateSuccessLatch
   \   00017D   E4           CLR       A
   \   00017E   F0           MOVX      @DPTR,A
   1394                    
   1395                    //Resume BDB machine state only if we were in F&B, if we were on parent lost, only clean the commissioning mode and remove from bdb_ParentLostSavedState
   1396                    if(bdbCommissioningProcedureState.bdbCommissioningState == BDB_COMMISSIONING_STATE_FINDING_BINDING)
   \   00017F   90....       MOV       DPTR,#bdbCommissioningProcedureState
   \   000182   E0           MOVX      A,@DPTR
   \   000183   6406         XRL       A,#0x6
   \   000185   701B         JNZ       ??bdb_reportCommissioningState_18
   1397                    {
   1398                      bdbCommissioningProcedureState.bdbCommissioningState = BDB_COMMISSIONING_STATE_START_RESUME;
   \   000187   E4           CLR       A
   \   000188   F0           MOVX      @DPTR,A
   1399                      osal_start_timerEx(bdb_TaskID,BDB_CHANGE_COMMISSIONING_STATE,50); 
   \   000189                ; Setup parameters for call to function osal_start_timerEx
   \   000189   90....       MOV       DPTR,#__Constant_32
   \   00018C   12....       LCALL     ?PUSH_XSTACK8_X_FOUR
   \   00018F   7A04         MOV       R2,#0x4
   \   000191   7B00         MOV       R3,#0x0
   \   000193   90....       MOV       DPTR,#bdb_TaskID
   \   000196   E0           MOVX      A,@DPTR
   \   000197   F9           MOV       R1,A
   \   000198   12....       LCALL     `??osal_start_timerEx::?relay`; Banked call to: osal_start_timerEx
   \   00019B   7404         MOV       A,#0x4
   \   00019D   12....       LCALL     ?DEALLOC_XSTACK8
   \   0001A0   800A         SJMP      ??bdb_reportCommissioningState_19
   1400                    }
   1401                    else if(bdbCommissioningProcedureState.bdb_ParentLostSavedState == BDB_COMMISSIONING_STATE_FINDING_BINDING)
   \                     ??bdb_reportCommissioningState_18:
   \   0001A2   90....       MOV       DPTR,#bdbCommissioningProcedureState + 3
   \   0001A5   E0           MOVX      A,@DPTR
   \   0001A6   6406         XRL       A,#0x6
   \   0001A8   7002         JNZ       ??bdb_reportCommissioningState_19
   1402                    {
   1403                      bdbCommissioningProcedureState.bdb_ParentLostSavedState = BDB_COMMISSIONING_STATE_START_RESUME;
   \   0001AA   E4           CLR       A
   \   0001AB   F0           MOVX      @DPTR,A
   1404                    }
   1405                    
   1406                    bdbAttributes.bdbCommissioningMode &= ~BDB_COMMISSIONING_MODE_FINDING_BINDING;
   \                     ??bdb_reportCommissioningState_19:
   \   0001AC   90....       MOV       DPTR,#bdbAttributes + 11
   \   0001AF   E0           MOVX      A,@DPTR
   \   0001B0   C2E3         CLR       0xE0 /* A   */.3
   \   0001B2   02....       LJMP      ??bdb_reportCommissioningState_10 & 0xFFFF
   1407                  }
   1408                  else
   1409                  {
   1410                    return;
   1411                  }
   1412          
   1413          #endif
   1414                break;     
   1415                case BDB_COMMISSIONING_STATE_TL:
   1416                  // Set NWK task to run
   1417                  nwk_setStateIdle( FALSE );
   \                     ??bdb_reportCommissioningState_2:
   \   0001B5                ; Setup parameters for call to function nwk_setStateIdle
   \   0001B5   7900         MOV       R1,#0x0
   \   0001B7   12....       LCALL     `??nwk_setStateIdle::?relay`; Banked call to: nwk_setStateIdle
   1418                  bdbCommissioningModeMsg.bdbCommissioningMode = BDB_COMMISSIONING_TOUCHLINK;
   \   0001BA   7401         MOV       A,#0x1
   \   0001BC   12....       LCALL     ?XSTACK_DISP0_8
   \   0001BF   7404         MOV       A,#0x4
   \   0001C1   F0           MOVX      @DPTR,A
   1419                  if(didSuccess)
   \   0001C2   EF           MOV       A,R7
   \   0001C3   6014         JZ        ??bdb_reportCommissioningState_20
   1420                  {
   1421                    bdbAttributes.bdbCommissioningStatus = BDB_COMMISSIONING_SUCCESS;
   \   0001C5   90....       MOV       DPTR,#bdbAttributes + 10
   \   0001C8   E4           CLR       A
   \   0001C9   F0           MOVX      @DPTR,A
   1422                    bdbAttributes.bdbCommissioningMode = BDB_COMMISSIONING_MODE_IDDLE;
   \   0001CA   A3           INC       DPTR
   \   0001CB   F0           MOVX      @DPTR,A
   1423                    
   1424                    //Update ZDApp state
   1425          #if (ZG_BUILD_RTR_TYPE)
   1426                    if(ZG_DEVICE_RTRONLY_TYPE)
   \   0001CC   90....       MOV       DPTR,#zgDeviceLogicalType
   \   0001CF   E0           MOVX      A,@DPTR
   \   0001D0   6401         XRL       A,#0x1
   \   0001D2   7005         JNZ       ??bdb_reportCommissioningState_20
   1427                    {          
   1428                      ZDApp_ChangeState( DEV_ROUTER );
   \   0001D4                ; Setup parameters for call to function ZDApp_ChangeState
   \   0001D4   7907         MOV       R1,#0x7
   \   0001D6   12....       LCALL     `??ZDApp_ChangeState::?relay`; Banked call to: ZDApp_ChangeState
   1429                    }
   1430          #endif
   1431          #if (ZG_BUILD_ENDDEVICE_TYPE)
   1432                    if(ZG_DEVICE_ENDDEVICE_TYPE)
   1433                    {
   1434                      ZDApp_ChangeState( DEV_END_DEVICE );
   1435                    }
   1436          #endif          
   1437                  }
   1438                  //The fail status is already set from the calling function to report commissioning process
   1439                  
   1440                  // The commissioning FAIL status is set before calling the bdb_reportCommissioningState
   1441                  bdbCommissioningProcedureState.bdbCommissioningState = BDB_COMMISSIONING_STATE_START_RESUME;
   \                     ??bdb_reportCommissioningState_20:
   \   0001D9   90....       MOV       DPTR,#bdbCommissioningProcedureState
   \   0001DC   E4           CLR       A
   \   0001DD   F0           MOVX      @DPTR,A
   1442                  osal_start_timerEx(bdb_TaskID,BDB_CHANGE_COMMISSIONING_STATE,50); 
   \   0001DE                ; Setup parameters for call to function osal_start_timerEx
   \   0001DE   90....       MOV       DPTR,#__Constant_32
   \   0001E1   12....       LCALL     ?PUSH_XSTACK8_X_FOUR
   \   0001E4   7A04         MOV       R2,#0x4
   \   0001E6   7B00         MOV       R3,#0x0
   \   0001E8   90....       MOV       DPTR,#bdb_TaskID
   \   0001EB   E0           MOVX      A,@DPTR
   \   0001EC   F9           MOV       R1,A
   \   0001ED   12....       LCALL     `??osal_start_timerEx::?relay`; Banked call to: osal_start_timerEx
   \   0001F0   7404         MOV       A,#0x4
   \   0001F2   12....       LCALL     ?DEALLOC_XSTACK8
   1443                  //Clear the event
   1444                  bdbAttributes.bdbCommissioningMode &= ~BDB_COMMISSIONING_MODE_INITIATOR_TL;
   \   0001F5   90....       MOV       DPTR,#bdbAttributes + 11
   \   0001F8   E0           MOVX      A,@DPTR
   \   0001F9   C2E0         CLR       0xE0 /* A   */.0
   \   0001FB   8042         SJMP      ??bdb_reportCommissioningState_10
   1445                  
   1446                break;
   1447                
   1448                case BDB_INITIALIZATION:
   1449                  //Notify user about successfull initialization
   1450                  bdbCommissioningModeMsg.bdbCommissioningMode = BDB_COMMISSIONING_INITIALIZATION;
   \                     ??bdb_reportCommissioningState_6:
   \   0001FD   7401         MOV       A,#0x1
   \   0001FF   12....       LCALL     ?XSTACK_DISP0_8
   \   000202   E4           CLR       A
   \   000203   F0           MOVX      @DPTR,A
   1451                  if(didSuccess)
   \   000204   EF           MOV       A,R7
   \   000205   602C         JZ        ??bdb_reportCommissioningState_21
   1452                  {
   1453                    //Update ZDApp state
   1454          #if (ZG_BUILD_COORDINATOR_TYPE)
   1455                    if(ZG_DEVICE_COORDINATOR_TYPE)
   1456                    {          
   1457                      ZDApp_ChangeState( DEV_ZB_COORD );
   \   000207                ; Setup parameters for call to function ZDApp_ChangeState
   \   000207   7909         MOV       R1,#0x9
   \   000209   12....       LCALL     `??ZDApp_ChangeState::?relay`; Banked call to: ZDApp_ChangeState
   1458                    }
   1459          #endif          
   1460          #if (ZG_BUILD_ENDDEVICE_TYPE)
   1461                    if(ZG_DEVICE_ENDDEVICE_TYPE)
   1462                    {
   1463                      uint32 pollrate = POLL_RATE;
   1464                      NLME_SetPollRate(pollrate);
   1465                      ZDApp_ChangeState( DEV_END_DEVICE );
   1466                      
   1467                    }
   1468          #endif          
   1469                    ZDApp_RestoreNwkSecMaterial();
   \   00020C                ; Setup parameters for call to function ZDApp_RestoreNwkSecMaterial
   \   00020C   12....       LCALL     `??ZDApp_RestoreNwkSecMaterial::?relay`; Banked call to: ZDApp_RestoreNwkSecMaterial
   1470                    bdbAttributes.bdbCommissioningStatus = BDB_COMMISSIONING_NETWORK_RESTORED;
   \   00020F   90....       MOV       DPTR,#bdbAttributes + 10
   \   000212   740D         MOV       A,#0xd
   \   000214   F0           MOVX      @DPTR,A
   1471                    bdbCommissioningProcedureState.bdbCommissioningState = BDB_COMMISSIONING_STATE_START_RESUME;
   \   000215   90....       MOV       DPTR,#bdbCommissioningProcedureState
   \   000218   E4           CLR       A
   \   000219   F0           MOVX      @DPTR,A
   1472                    osal_start_timerEx(bdb_TaskID,BDB_CHANGE_COMMISSIONING_STATE,200);
   \   00021A                ; Setup parameters for call to function osal_start_timerEx
   \   00021A   90....       MOV       DPTR,#__Constant_c8
   \   00021D   12....       LCALL     ?PUSH_XSTACK8_X_FOUR
   \   000220   7A04         MOV       R2,#0x4
   \   000222   7B00         MOV       R3,#0x0
   \   000224   90....       MOV       DPTR,#bdb_TaskID
   \   000227   E0           MOVX      A,@DPTR
   \   000228   F9           MOV       R1,A
   \   000229   12....       LCALL     `??osal_start_timerEx::?relay`; Banked call to: osal_start_timerEx
   \   00022C   7404         MOV       A,#0x4
   \   00022E   12....       LCALL     ?DEALLOC_XSTACK8
   \   000231   8006         SJMP      ??bdb_reportCommissioningState_22
   1473                  }
   1474                  else
   1475                  {
   1476          #if (ZG_BUILD_ENDDEVICE_TYPE)                   
   1477                    if(ZG_DEVICE_ENDDEVICE_TYPE)
   1478                    {
   1479                      if(bdb_isDeviceNonFactoryNew())
   1480                      {
   1481                        //Notify the user about losing parent
   1482                        bdbCommissioningModeMsg.bdbCommissioningMode = BDB_COMMISSIONING_PARENT_LOST;
   1483                        bdbAttributes.bdbCommissioningMode |= BDB_COMMISSIONING_MODE_PARENT_LOST;
   1484                        
   1485                        //Update ZDApp state
   1486                        ZDApp_ChangeState( DEV_NWK_ORPHAN );
   1487                      }
   1488                    }
   1489          #endif
   1490                    bdbAttributes.bdbCommissioningStatus = BDB_COMMISSIONING_NO_NETWORK;
   \                     ??bdb_reportCommissioningState_21:
   \   000233   90....       MOV       DPTR,#bdbAttributes + 10
   \   000236   7402         MOV       A,#0x2
   \   000238   F0           MOVX      @DPTR,A
   1491                  }
   1492                  bdbAttributes.bdbCommissioningMode &= ~BDB_COMMISSIONING_MODE_INITIALIZATION;
   \                     ??bdb_reportCommissioningState_22:
   \   000239   90....       MOV       DPTR,#bdbAttributes + 11
   \   00023C   E0           MOVX      A,@DPTR
   \   00023D   C2E4         CLR       0xE0 /* A   */.4
   \                     ??bdb_reportCommissioningState_10:
   \   00023F   F0           MOVX      @DPTR,A
   1493          
   1494                break;
   1495          #if (ZG_BUILD_ENDDEVICE_TYPE)     
   1496                case BDB_PARENT_LOST:
   1497                  bdbCommissioningModeMsg.bdbCommissioningMode = BDB_COMMISSIONING_PARENT_LOST;
   1498                  if(ZG_DEVICE_ENDDEVICE_TYPE)
   1499                  {
   1500                    if(didSuccess)
   1501                    {
   1502                      uint32 pollrate = POLL_RATE;
   1503                      bdbCommissioningProcedureState.bdbCommissioningState = bdbCommissioningProcedureState.bdb_ParentLostSavedState;  
   1504                      bdbCommissioningProcedureState.bdb_ParentLostSavedState = 0;
   1505                      NLME_SetPollRate(pollrate);
   1506                      bdbAttributes.bdbCommissioningMode &= ~BDB_COMMISSIONING_MODE_PARENT_LOST;
