###############################################################################
#
# IAR C/C++ Compiler V10.10.1.4655 for 8051               17/Apr/2025  03:58:53
# Copyright 2004-2017 IAR Systems AB.
# Standalone license - IAR Embedded Workbench for 8051
#
#    Core               =  plain
#    Code model         =  banked
#    Data model         =  large
#    Calling convention =  xdata reentrant
#    Constant location  =  data_rom
#    Dptr setup         =  1,16
#                          
#    Source file        =  
#        C:\Texas Instruments\Z-Stack 3.0.1 A Git\Z-Stack
#        3.0.1\Components\stack\zcl\zcl_general.c
#    Command line       =  
#        -f C:\Users\NING\AppData\Local\Temp\EWF71B.tmp ("C:\Texas
#        Instruments\Z-Stack 3.0.1 A Git\Z-Stack
#        3.0.1\Components\stack\zcl\zcl_general.c" -D SECURE=1 -D
#        TC_LINKKEY_JOIN -D NV_INIT -D NV_RESTORE -D ZTOOL_P1 -D xMT_TASK -D
#        xMT_APP_FUNC -D xMT_SYS_FUNC -D xMT_ZDO_FUNC -D xMT_ZDO_MGMT -D
#        xMT_APP_CNF_FUNC -D LCD_SUPPORTED=DEBUG -D MULTICAST_ENABLED=FALSE -D
#        ZCL_READ -D ZCL_DISCOVER -D ZCL_WRITE -D ZCL_BASIC -D ZCL_IDENTIFY -D
#        ZCL_ON_OFF -D ZCL_GROUPS -D HAL_UART_DMA_RX_MAX=50 -lC "C:\Texas
#        Instruments\Z-Stack 3.0.1 A Git\Z-Stack
#        3.0.1\Projects\zstack\HomeAutomation\SampleSwitch\CC2530DB\CoordinatorEB\List"
#        -lA "C:\Texas Instruments\Z-Stack 3.0.1 A Git\Z-Stack
#        3.0.1\Projects\zstack\HomeAutomation\SampleSwitch\CC2530DB\CoordinatorEB\List"
#        --diag_suppress Pe001,Pa010 -o "C:\Texas Instruments\Z-Stack 3.0.1 A
#        Git\Z-Stack
#        3.0.1\Projects\zstack\HomeAutomation\SampleSwitch\CC2530DB\CoordinatorEB\Obj"
#        -e --debug --core=plain --dptr=16,1 --data_model=large
#        --code_model=banked --calling_convention=xdata_reentrant
#        --place_constants=data_rom --nr_virtual_regs 8 -f "C:\Texas
#        Instruments\Z-Stack 3.0.1 A Git\Z-Stack
#        3.0.1\Projects\zstack\HomeAutomation\SampleSwitch\CC2530DB\..\..\..\Tools\CC2530DB\f8wCoord.cfg"
#        (-DCPU32MHZ -DROOT=__near_func -DMAC_CFG_APP_PENDING_QUEUE=TRUE
#        -DMAC_CFG_TX_DATA_MAX=5 -DMAC_CFG_TX_MAX=8 -DMAC_CFG_RX_MAX=5
#        -DZDO_COORDINATOR -DRTR_NWK) -f "C:\Texas Instruments\Z-Stack 3.0.1 A
#        Git\Z-Stack
#        3.0.1\Projects\zstack\HomeAutomation\SampleSwitch\CC2530DB\..\..\..\Tools\CC2530DB\f8wConfig.cfg"
#        (-DZIGBEEPRO -DSECURE=1 -DZG_SECURE_DYNAMIC=0 -DREFLECTOR
#        -DDEFAULT_CHANLIST=0x00000800 -DZDAPP_CONFIG_PAN_ID=0xFFFF
#        -DNWK_START_DELAY=100 -DEXTENDED_JOINING_RANDOM_MASK=0x007F
#        -DBEACON_REQUEST_DELAY=100 -DBEACON_REQ_DELAY_MASK=0x00FF
#        -DLINK_STATUS_JITTER_MASK=0x007F -DROUTE_EXPIRY_TIME=30
#        -DAPSC_ACK_WAIT_DURATION_POLLED=3000 -DNWK_INDIRECT_MSG_TIMEOUT=7
#        -DMAX_RREQ_ENTRIES=8 -DAPSC_MAX_FRAME_RETRIES=3
#        -DNWK_MAX_DATA_RETRIES=2 -DMAX_POLL_FAILURE_RETRIES=2 -DMAX_BCAST=9
#        -DAPS_MAX_GROUPS=16 -DMAX_RTG_ENTRIES=40 -DNWK_MAX_BINDING_ENTRIES=4
#        -DMAX_BINDING_CLUSTER_IDS=4 -DDEFAULT_KEY={0} -DMAC_MAX_FRAME_SIZE=116
#        -DZDNWKMGR_MIN_TRANSMISSIONS=20 "-DCONST=const __code"
#        -DGENERIC=__generic -DRFD_RCVC_ALWAYS_ON=FALSE -DPOLL_RATE=1000
#        -DQUEUED_POLL_RATE=100 -DRESPONSE_POLL_RATE=100 -DREJOIN_POLL_RATE=440
#        -DREJOIN_BACKOFF=900000 -DREJOIN_SCAN=900000 -DENABLE_LED4_DISABLE_S1)
#        -f "C:\Texas Instruments\Z-Stack 3.0.1 A Git\Z-Stack
#        3.0.1\Projects\zstack\HomeAutomation\SampleSwitch\CC2530DB\..\..\..\Tools\CC2530DB\f8wZCL.cfg"
#        -I "C:\Texas Instruments\Z-Stack 3.0.1 A Git\Z-Stack
#        3.0.1\Projects\zstack\HomeAutomation\SampleSwitch\CC2530DB\" -I
#        "C:\Texas Instruments\Z-Stack 3.0.1 A Git\Z-Stack
#        3.0.1\Projects\zstack\HomeAutomation\SampleSwitch\CC2530DB\..\Source\"
#        -I "C:\Texas Instruments\Z-Stack 3.0.1 A Git\Z-Stack
#        3.0.1\Projects\zstack\HomeAutomation\SampleSwitch\CC2530DB\..\..\Source\"
#        -I "C:\Texas Instruments\Z-Stack 3.0.1 A Git\Z-Stack
#        3.0.1\Projects\zstack\HomeAutomation\SampleSwitch\CC2530DB\..\..\..\ZMain\TI2530DB\"
#        -I "C:\Texas Instruments\Z-Stack 3.0.1 A Git\Z-Stack
#        3.0.1\Projects\zstack\HomeAutomation\SampleSwitch\CC2530DB\..\..\..\..\..\Components\hal\include\"
#        -I "C:\Texas Instruments\Z-Stack 3.0.1 A Git\Z-Stack
#        3.0.1\Projects\zstack\HomeAutomation\SampleSwitch\CC2530DB\..\..\..\..\..\Components\hal\target\CC2530EB\"
#        -I "C:\Texas Instruments\Z-Stack 3.0.1 A Git\Z-Stack
#        3.0.1\Projects\zstack\HomeAutomation\SampleSwitch\CC2530DB\..\..\..\..\..\Components\mac\include\"
#        -I "C:\Texas Instruments\Z-Stack 3.0.1 A Git\Z-Stack
#        3.0.1\Projects\zstack\HomeAutomation\SampleSwitch\CC2530DB\..\..\..\..\..\Components\mac\high_level\"
#        -I "C:\Texas Instruments\Z-Stack 3.0.1 A Git\Z-Stack
#        3.0.1\Projects\zstack\HomeAutomation\SampleSwitch\CC2530DB\..\..\..\..\..\Components\mac\low_level\srf04\"
#        -I "C:\Texas Instruments\Z-Stack 3.0.1 A Git\Z-Stack
#        3.0.1\Projects\zstack\HomeAutomation\SampleSwitch\CC2530DB\..\..\..\..\..\Components\mac\low_level\srf04\single_chip\"
#        -I "C:\Texas Instruments\Z-Stack 3.0.1 A Git\Z-Stack
#        3.0.1\Projects\zstack\HomeAutomation\SampleSwitch\CC2530DB\..\..\..\..\..\Components\mt\"
#        -I "C:\Texas Instruments\Z-Stack 3.0.1 A Git\Z-Stack
#        3.0.1\Projects\zstack\HomeAutomation\SampleSwitch\CC2530DB\..\..\..\..\..\Components\osal\include\"
#        -I "C:\Texas Instruments\Z-Stack 3.0.1 A Git\Z-Stack
#        3.0.1\Projects\zstack\HomeAutomation\SampleSwitch\CC2530DB\..\..\..\..\..\Components\services\saddr\"
#        -I "C:\Texas Instruments\Z-Stack 3.0.1 A Git\Z-Stack
#        3.0.1\Projects\zstack\HomeAutomation\SampleSwitch\CC2530DB\..\..\..\..\..\Components\services\sdata\"
#        -I "C:\Texas Instruments\Z-Stack 3.0.1 A Git\Z-Stack
#        3.0.1\Projects\zstack\HomeAutomation\SampleSwitch\CC2530DB\..\..\..\..\..\Components\stack\af\"
#        -I "C:\Texas Instruments\Z-Stack 3.0.1 A Git\Z-Stack
#        3.0.1\Projects\zstack\HomeAutomation\SampleSwitch\CC2530DB\..\..\..\..\..\Components\stack\bdb\"
#        -I "C:\Texas Instruments\Z-Stack 3.0.1 A Git\Z-Stack
#        3.0.1\Projects\zstack\HomeAutomation\SampleSwitch\CC2530DB\..\..\..\..\..\Components\stack\gp\"
#        -I "C:\Texas Instruments\Z-Stack 3.0.1 A Git\Z-Stack
#        3.0.1\Projects\zstack\HomeAutomation\SampleSwitch\CC2530DB\..\..\..\..\..\Components\stack\nwk\"
#        -I "C:\Texas Instruments\Z-Stack 3.0.1 A Git\Z-Stack
#        3.0.1\Projects\zstack\HomeAutomation\SampleSwitch\CC2530DB\..\..\..\..\..\Components\stack\sapi\"
#        -I "C:\Texas Instruments\Z-Stack 3.0.1 A Git\Z-Stack
#        3.0.1\Projects\zstack\HomeAutomation\SampleSwitch\CC2530DB\..\..\..\..\..\Components\stack\sec\"
#        -I "C:\Texas Instruments\Z-Stack 3.0.1 A Git\Z-Stack
#        3.0.1\Projects\zstack\HomeAutomation\SampleSwitch\CC2530DB\..\..\..\..\..\Components\stack\sys\"
#        -I "C:\Texas Instruments\Z-Stack 3.0.1 A Git\Z-Stack
#        3.0.1\Projects\zstack\HomeAutomation\SampleSwitch\CC2530DB\..\..\..\..\..\Components\stack\zcl\"
#        -I "C:\Texas Instruments\Z-Stack 3.0.1 A Git\Z-Stack
#        3.0.1\Projects\zstack\HomeAutomation\SampleSwitch\CC2530DB\..\..\..\..\..\Components\stack\zdo\"
#        -I "C:\Texas Instruments\Z-Stack 3.0.1 A Git\Z-Stack
#        3.0.1\Projects\zstack\HomeAutomation\SampleSwitch\CC2530DB\..\..\..\..\..\Components\zmac\"
#        -I "C:\Texas Instruments\Z-Stack 3.0.1 A Git\Z-Stack
#        3.0.1\Projects\zstack\HomeAutomation\SampleSwitch\CC2530DB\..\..\..\..\..\Components\zmac\f8w\"
#        -I "C:\Texas Instruments\Z-Stack 3.0.1 A Git\Z-Stack
#        3.0.1\Projects\zstack\HomeAutomation\SampleSwitch\CC2530DB\MY_Hardware\"
#        -Ohz --require_prototypes)
#    Locale             =  Chinese (Simplified)_China.936
#    List file          =  
#        C:\Texas Instruments\Z-Stack 3.0.1 A Git\Z-Stack
#        3.0.1\Projects\zstack\HomeAutomation\SampleSwitch\CC2530DB\CoordinatorEB\List\zcl_general.lst
#    Object file        =  
#        C:\Texas Instruments\Z-Stack 3.0.1 A Git\Z-Stack
#        3.0.1\Projects\zstack\HomeAutomation\SampleSwitch\CC2530DB\CoordinatorEB\Obj\zcl_general.r51
#
###############################################################################

C:\Texas Instruments\Z-Stack 3.0.1 A Git\Z-Stack 3.0.1\Components\stack\zcl\zcl_general.c
      1          /**************************************************************************************************
      2            Filename:       zcl_general.c
      3            Revised:        $Date: 2015-09-10 09:36:48 -0700 (Thu, 10 Sep 2015) $
      4            Revision:       $Revision: 44493 $
      5          
      6            Description:    Zigbee Cluster Library - General.  This application receives all
      7                            ZCL messages and initially parses them before passing to application.
      8          
      9          
     10            Copyright 2006-2015 Texas Instruments Incorporated. All rights reserved.
     11          
     12            IMPORTANT: Your use of this Software is limited to those specific rights
     13            granted under the terms of a software license agreement between the user
     14            who downloaded the software, his/her employer (which must be your employer)
     15            and Texas Instruments Incorporated (the "License"). You may not use this
     16            Software unless you agree to abide by the terms of the License. The License
     17            limits your use, and you acknowledge, that the Software may not be modified,
     18            copied or distributed unless embedded on a Texas Instruments microcontroller
     19            or used solely and exclusively in conjunction with a Texas Instruments radio
     20            frequency transceiver, which is integrated into your product. Other than for
     21            the foregoing purpose, you may not use, reproduce, copy, prepare derivative
     22            works of, modify, distribute, perform, display or sell this Software and/or
     23            its documentation for any purpose.
     24          
     25            YOU FURTHER ACKNOWLEDGE AND AGREE THAT THE SOFTWARE AND DOCUMENTATION ARE
     26            PROVIDED "AS IS" WITHOUT WARRANTY OF ANY KIND, EITHER EXPRESS OR IMPLIED,
     27            INCLUDING WITHOUT LIMITATION, ANY WARRANTY OF MERCHANTABILITY, TITLE,
     28            NON-INFRINGEMENT AND FITNESS FOR A PARTICULAR PURPOSE. IN NO EVENT SHALL
     29            TEXAS INSTRUMENTS OR ITS LICENSORS BE LIABLE OR OBLIGATED UNDER CONTRACT,
     30            NEGLIGENCE, STRICT LIABILITY, CONTRIBUTION, BREACH OF WARRANTY, OR OTHER
     31            LEGAL EQUITABLE THEORY ANY DIRECT OR INDIRECT DAMAGES OR EXPENSES
     32            INCLUDING BUT NOT LIMITED TO ANY INCIDENTAL, SPECIAL, INDIRECT, PUNITIVE
     33            OR CONSEQUENTIAL DAMAGES, LOST PROFITS OR LOST DATA, COST OF PROCUREMENT
     34            OF SUBSTITUTE GOODS, TECHNOLOGY, SERVICES, OR ANY CLAIMS BY THIRD PARTIES
     35            (INCLUDING BUT NOT LIMITED TO ANY DEFENSE THEREOF), OR OTHER SIMILAR COSTS.
     36          
     37            Should you have any questions regarding your right to use this Software,
     38            contact Texas Instruments Incorporated at www.TI.com.
     39          **************************************************************************************************/
     40          
     41          /*********************************************************************
     42           * INCLUDES
     43           */
     44          #include "ZComDef.h"
     45          #include "zcl.h"
     46          #include "zcl_general.h"
     47          //#include "ZDApp.h"
     48          
     49          #if defined ( INTER_PAN )
     50            #include "stub_aps.h"
     51          #endif
     52          #include "bdb.h"
     53          
     54          /*********************************************************************
     55           * MACROS
     56           */
     57          #define locationTypeAbsolute( a )          ( (a) & LOCATION_TYPE_ABSOLUTE )
     58          #define locationType2D( a )                ( (a) & LOCATION_TYPE_2_D )
     59          #define locationTypeCoordinateSystem( a )  ( (a) & LOCATION_TYPE_COORDINATE_SYSTEM )
     60          
     61          #ifdef ZCL_SCENES
     62          #define zclGeneral_ScenesRemaingCapacity() ( ZCL_GEN_MAX_SCENES - zclGeneral_CountAllScenes() )
     63          #endif // ZCL_SCENES
     64          
     65          /*********************************************************************
     66           * CONSTANTS
     67           */
     68          
     69          /*********************************************************************
     70           * TYPEDEFS
     71           */
     72          typedef struct zclGenCBRec
     73          {
     74            struct zclGenCBRec        *next;
     75            uint8                     endpoint; // Used to link it into the endpoint descriptor
     76            zclGeneral_AppCallbacks_t *CBs;     // Pointer to Callback function
     77          } zclGenCBRec_t;
     78          
     79          typedef struct zclGenSceneItem
     80          {
     81            struct zclGenSceneItem    *next;
     82            uint8                     endpoint; // Used to link it into the endpoint descriptor
     83            zclGeneral_Scene_t        scene;    // Scene info
     84          } zclGenSceneItem_t;
     85          
     86          typedef struct zclGenAlarmItem
     87          {
     88            struct zclGenAlarmItem    *next;
     89            uint8                     endpoint; // Used to link it into the endpoint descriptor
     90            zclGeneral_Alarm_t        alarm;    // Alarm info
     91          } zclGenAlarmItem_t;
     92          
     93          // Scene NV types
     94          typedef struct
     95          {
     96            uint16                    numRecs;
     97          } nvGenScenesHdr_t;
     98          
     99          typedef struct zclGenSceneNVItem
    100          {
    101            uint8                     endpoint;
    102            zclGeneral_Scene_t        scene;
    103          } zclGenSceneNVItem_t;
    104          
    105          /*********************************************************************
    106           * GLOBAL VARIABLES
    107           */
    108          
    109          /*********************************************************************
    110           * GLOBAL FUNCTIONS
    111           */
    112          
    113          /*********************************************************************
    114           * LOCAL VARIABLES
    115           */

   \                                 In  segment XDATA_Z, align 1, keep-with-next
    116          static zclGenCBRec_t *zclGenCBs = (zclGenCBRec_t *)NULL;
   \                     zclGenCBs:
   \   000000                DS 2
   \   000002                REQUIRE __INIT_XDATA_Z

   \                                 In  segment XDATA_Z, align 1, keep-with-next
    117          static uint8 zclGenPluginRegisted = FALSE;
   \                     zclGenPluginRegisted:
   \   000000                DS 1
   \   000001                REQUIRE __INIT_XDATA_Z
    118          
    119          #if defined( ZCL_SCENES )
    120            #if !defined ( ZCL_STANDALONE )
    121              static zclGenSceneItem_t *zclGenSceneTable = (zclGenSceneItem_t *)NULL;
    122            #endif
    123          #endif // ZCL_SCENES
    124          
    125          #ifdef ZCL_ALARMS
    126          static zclGenAlarmItem_t *zclGenAlarmTable = (zclGenAlarmItem_t *)NULL;
    127          #endif // ZCL_ALARMS
    128          
    129          /*********************************************************************
    130           * LOCAL FUNCTIONS
    131           */
    132          static ZStatus_t zclGeneral_HdlIncoming( zclIncoming_t *pInMsg );
    133          static ZStatus_t zclGeneral_HdlInSpecificCommands( zclIncoming_t *pInMsg );
    134          static zclGeneral_AppCallbacks_t *zclGeneral_FindCallbacks( uint8 endpoint );
    135          
    136          // Device Configuration and Installation clusters
    137          #ifdef ZCL_BASIC
    138          static ZStatus_t zclGeneral_ProcessInBasic( zclIncoming_t *pInMsg, zclGeneral_AppCallbacks_t *pCBs );
    139          #endif // ZCL_BASIC
    140          
    141          #ifdef ZCL_IDENTIFY
    142          static ZStatus_t zclGeneral_ProcessInIdentity( zclIncoming_t *pInMsg, zclGeneral_AppCallbacks_t *pCBs );
    143          #endif // ZCL_IDENTIFY
    144          
    145          // Groups and Scenes clusters
    146          #ifdef ZCL_GROUPS
    147          static ZStatus_t zclGeneral_ProcessInGroupsServer( zclIncoming_t *pInMsg );
    148          static ZStatus_t zclGeneral_ProcessInGroupsClient( zclIncoming_t *pInMsg, zclGeneral_AppCallbacks_t *pCBs );
    149          static ZStatus_t zclGeneral_AddGroup( uint8 endPoint, aps_Group_t *group, uint8 *pData );
    150          #endif // ZCL_GROUPS
    151          
    152          #ifdef ZCL_SCENES
    153          static ZStatus_t zclGeneral_ProcessInScenesServer( zclIncoming_t *pInMsg, zclGeneral_AppCallbacks_t *pCBs );
    154          static ZStatus_t zclGeneral_ProcessInScenesClient( zclIncoming_t *pInMsg, zclGeneral_AppCallbacks_t *pCBs );
    155          #endif // ZCL_SCENES
    156          
    157          // On/Off and Level Control Configuration clusters
    158          #ifdef ZCL_ON_OFF
    159          static ZStatus_t zclGeneral_ProcessInOnOff( zclIncoming_t *pInMsg, zclGeneral_AppCallbacks_t *pCBs );
    160          #endif // ZCL_ONOFF
    161          
    162          #ifdef ZCL_LEVEL_CTRL
    163          static ZStatus_t zclGeneral_ProcessInLevelControl( zclIncoming_t *pInMsg, zclGeneral_AppCallbacks_t *pCBs );
    164          #endif // ZCL_LEVEL_CTRL
    165          
    166          // Alarms cluster
    167          #ifdef ZCL_ALARMS
    168          static ZStatus_t zclGeneral_ProcessInAlarmsServer( zclIncoming_t *pInMsg, zclGeneral_AppCallbacks_t *pCBs );
    169          static ZStatus_t zclGeneral_ProcessInAlarmsClient( zclIncoming_t *pInMsg, zclGeneral_AppCallbacks_t *pCBs );
    170          #endif // ZCL_ALARMS
    171          
    172          // Location cluster
    173          #ifdef ZCL_LOCATION
    174          static ZStatus_t zclGeneral_ProcessInLocationServer( zclIncoming_t *pInMsg, zclGeneral_AppCallbacks_t *pCBs );
    175          static ZStatus_t zclGeneral_ProcessInLocationClient( zclIncoming_t *pInMsg, zclGeneral_AppCallbacks_t *pCBs );
    176          #endif // ZCL_LOCATION
    177          
    178          #ifdef ZCL_SCENES
    179            #if !defined ( ZCL_STANDALONE )
    180              static uint8 zclGeneral_ScenesInitNV( void );
    181              static void zclGeneral_ScenesSetDefaultNV( void );
    182              static void zclGeneral_ScenesWriteNV( void );
    183              static uint16 zclGeneral_ScenesRestoreFromNV( void );
    184            #endif
    185          #endif // ZCL_SCENES
    186          
    187          /*********************************************************************
    188           * @fn      zclGeneral_RegisterCmdCallbacks
    189           *
    190           * @brief   Register an applications command callbacks
    191           *
    192           * @param   endpoint - application's endpoint
    193           * @param   callbacks - pointer to the callback record.
    194           *
    195           * @return  ZMemError if not able to allocate
    196           */

   \                                 In  segment BANKED_CODE, align 1, keep-with-next
    197          ZStatus_t zclGeneral_RegisterCmdCallbacks( uint8 endpoint, zclGeneral_AppCallbacks_t *callbacks )
   \                     zclGeneral_RegisterCmdCallbacks:
    198          {
   \   000000                REQUIRE ?V0
   \   000000                REQUIRE ?V2
   \   000000                REQUIRE ?V3
   \   000000   74F4         MOV       A,#-0xc
   \   000002   12....       LCALL     ?BANKED_ENTER_XDATA
   \   000005                ; Saved register size: 12
   \   000005                ; Auto size: 0
   \   000005   89..         MOV       ?V0,R1
   \   000007   EA           MOV       A,R2
   \   000008   FE           MOV       R6,A
   \   000009   EB           MOV       A,R3
   \   00000A   FF           MOV       R7,A
    199            zclGenCBRec_t *pNewItem;
    200            zclGenCBRec_t *pLoop;
    201          
    202            // Register as a ZCL Plugin
    203            if ( zclGenPluginRegisted == FALSE )
   \   00000B   90....       MOV       DPTR,#zclGenPluginRegisted
   \   00000E   E0           MOVX      A,@DPTR
   \   00000F   7021         JNZ       ??zclGeneral_RegisterCmdCallbacks_0
    204            {
    205              zcl_registerPlugin( ZCL_CLUSTER_ID_GEN_BASIC,
    206                                  ZCL_CLUSTER_ID_GEN_MULTISTATE_VALUE_BASIC,
    207                                  zclGeneral_HdlIncoming );
   \   000011                ; Setup parameters for call to function zcl_registerPlugin
   \   000011   75....       MOV       ?V2,#`??zclGeneral_HdlIncoming::?relay` & 0xff
   \   000014   75....       MOV       ?V3,#(`??zclGeneral_HdlIncoming::?relay` >> 8) & 0xff
   \   000017   78..         MOV       R0,#?V2
   \   000019   12....       LCALL     ?PUSH_XSTACK_I_TWO
   \   00001C   7C14         MOV       R4,#0x14
   \   00001E   7D00         MOV       R5,#0x0
   \   000020   7A00         MOV       R2,#0x0
   \   000022   7B00         MOV       R3,#0x0
   \   000024   12....       LCALL     `??zcl_registerPlugin::?relay`; Banked call to: zcl_registerPlugin
   \   000027   7402         MOV       A,#0x2
   \   000029   12....       LCALL     ?DEALLOC_XSTACK8
    208          
    209          #ifdef ZCL_SCENES
    210              // Initialize the Scenes Table
    211              zclGeneral_ScenesInit();
    212          #endif // ZCL_SCENES
    213          
    214              zclGenPluginRegisted = TRUE;
   \   00002C   90....       MOV       DPTR,#zclGenPluginRegisted
   \   00002F   7401         MOV       A,#0x1
   \   000031   F0           MOVX      @DPTR,A
    215            }
    216          
    217            // Fill in the new profile list
    218            pNewItem = zcl_mem_alloc( sizeof( zclGenCBRec_t ) );
   \                     ??zclGeneral_RegisterCmdCallbacks_0:
   \   000032                ; Setup parameters for call to function osal_mem_alloc
   \   000032   7A05         MOV       R2,#0x5
   \   000034   7B00         MOV       R3,#0x0
   \   000036   12....       LCALL     `??osal_mem_alloc::?relay`; Banked call to: osal_mem_alloc
   \   000039   8A..         MOV       ?V2,R2
   \   00003B   8B..         MOV       ?V3,R3
   \   00003D   A8..         MOV       R0,?V2
   \   00003F   A9..         MOV       R1,?V3
    219            if ( pNewItem == NULL )
   \   000041   E8           MOV       A,R0
   \   000042   49           ORL       A,R1
   \   000043   7004         JNZ       ??zclGeneral_RegisterCmdCallbacks_1
    220              return (ZMemError);
   \   000045   7910         MOV       R1,#0x10
   \   000047   8047         SJMP      ??zclGeneral_RegisterCmdCallbacks_2
    221          
    222            pNewItem->next = (zclGenCBRec_t *)NULL;
   \                     ??zclGeneral_RegisterCmdCallbacks_1:
   \   000049   8882         MOV       DPL,R0
   \   00004B   8983         MOV       DPH,R1
   \   00004D   E4           CLR       A
   \   00004E   F0           MOVX      @DPTR,A
   \   00004F   A3           INC       DPTR
   \   000050   F0           MOVX      @DPTR,A
    223            pNewItem->endpoint = endpoint;
   \   000051   8882         MOV       DPL,R0
   \   000053   8983         MOV       DPH,R1
   \   000055   A3           INC       DPTR
   \   000056   A3           INC       DPTR
   \   000057   E5..         MOV       A,?V0
   \   000059   F0           MOVX      @DPTR,A
    224            pNewItem->CBs = callbacks;
   \   00005A   8882         MOV       DPL,R0
   \   00005C   8983         MOV       DPH,R1
   \   00005E   A3           INC       DPTR
   \   00005F   A3           INC       DPTR
   \   000060   A3           INC       DPTR
   \   000061   EE           MOV       A,R6
   \   000062   F0           MOVX      @DPTR,A
   \   000063   A3           INC       DPTR
   \   000064   EF           MOV       A,R7
   \   000065   F0           MOVX      @DPTR,A
    225          
    226            // Find spot in list
    227            if (  zclGenCBs == NULL )
   \   000066   90....       MOV       DPTR,#zclGenCBs
   \   000069   12....       LCALL     ??Subroutine35_0 & 0xFFFF
   \                     ??CrossCallReturnLabel_69:
   \   00006C   EA           MOV       A,R2
   \   00006D   4B           ORL       A,R3
   \   00006E   90....       MOV       DPTR,#zclGenCBs
   \   000071   6018         JZ        ??zclGeneral_RegisterCmdCallbacks_3
    228            {
    229              zclGenCBs = pNewItem;
    230            }
    231            else
    232            {
    233              // Look for end of list
    234              pLoop = zclGenCBs;
   \   000073   12....       LCALL     ??Subroutine36_0 & 0xFFFF
   \                     ??CrossCallReturnLabel_78:
   \   000076   8003         SJMP      ??zclGeneral_RegisterCmdCallbacks_4
    235              while ( pLoop->next != NULL )
    236                pLoop = pLoop->next;
   \                     ??zclGeneral_RegisterCmdCallbacks_5:
   \   000078   EA           MOV       A,R2
   \   000079   FC           MOV       R4,A
   \   00007A   EB           MOV       A,R3
   \                     ??zclGeneral_RegisterCmdCallbacks_4:
   \   00007B   FD           MOV       R5,A
   \   00007C   8C82         MOV       DPL,R4
   \   00007E   8D83         MOV       DPH,R5
   \   000080   12....       LCALL     ??Subroutine35_0 & 0xFFFF
   \                     ??CrossCallReturnLabel_70:
   \   000083   EA           MOV       A,R2
   \   000084   4B           ORL       A,R3
   \   000085   70F1         JNZ       ??zclGeneral_RegisterCmdCallbacks_5
    237          
    238              // Put new item at end of list
    239              pLoop->next = pNewItem;
   \   000087   8C82         MOV       DPL,R4
   \   000089   8D83         MOV       DPH,R5
    240            }
   \                     ??zclGeneral_RegisterCmdCallbacks_3:
   \   00008B   12....       LCALL     ?Subroutine24 & 0xFFFF
    241          
    242            return ( ZSuccess );
   \                     ??CrossCallReturnLabel_85:
   \   00008E   7900         MOV       R1,#0x0
   \                     ??zclGeneral_RegisterCmdCallbacks_2:
   \   000090   02....       LJMP      ??Subroutine37_0 & 0xFFFF
    243          }

   \                                 In  segment BANKED_CODE, align 1, keep-with-next
   \                     ??Subroutine35_0:
   \   000000   E0           MOVX      A,@DPTR
   \   000001   FA           MOV       R2,A
   \   000002   A3           INC       DPTR
   \   000003   E0           MOVX      A,@DPTR
   \   000004   FB           MOV       R3,A
   \   000005   22           RET

   \                                 In  segment BANKED_CODE, align 1, keep-with-next
   \                     ??Subroutine36_0:
   \   000000   E0           MOVX      A,@DPTR
   \   000001   FC           MOV       R4,A
   \   000002   A3           INC       DPTR
   \   000003   E0           MOVX      A,@DPTR
   \   000004   22           RET

   \                                 In  segment BANKED_CODE, align 1, keep-with-next
   \                     ??Subroutine37_0:
   \   000000   7F04         MOV       R7,#0x4
   \   000002   02....       LJMP      ?BANKED_LEAVE_XDATA

   \                                 In  segment BANKED_CODE, align 1, keep-with-next
   \                     ?Subroutine24:
   \   000000   E8           MOV       A,R0
   \   000001                REQUIRE ??Subroutine38_0
   \   000001                ; // Fall through to label ??Subroutine38_0

   \                                 In  segment BANKED_CODE, align 1, keep-with-next
   \                     ??Subroutine38_0:
   \   000000   F0           MOVX      @DPTR,A
   \   000001   A3           INC       DPTR
   \   000002   E9           MOV       A,R1
   \   000003   F0           MOVX      @DPTR,A
   \   000004   22           RET
    244          
    245          #ifdef ZCL_IDENTIFY
    246          /*********************************************************************
    247           * @fn      zclGeneral_SendIdentify
    248           *
    249           * @brief   Call to send out an Identify Command
    250           *
    251           * @param   srcEP - Sending application's endpoint
    252           * @param   dstAddr - where you want the message to go
    253           * @param   identifyTime - how long the device will continue to identify itself (in seconds)
    254           * @param   seqNum - identification number for the transaction
    255           *
    256           * @return  ZStatus_t
    257           */

   \                                 In  segment BANKED_CODE, align 1, keep-with-next
    258          ZStatus_t zclGeneral_SendIdentify( uint8 srcEP, afAddrType_t *dstAddr,
   \                     zclGeneral_SendIdentify:
    259                                             uint16 identifyTime, uint8 disableDefaultRsp, uint8 seqNum )
    260          {
   \   000000                REQUIRE ?V0
   \   000000                REQUIRE ?V1
   \   000000   74F6         MOV       A,#-0xa
   \   000002   12....       LCALL     ?BANKED_ENTER_XDATA
   \   000005                ; Saved register size: 10
   \   000005                ; Auto size: 2
   \   000005   74FE         MOV       A,#-0x2
   \   000007   12....       LCALL     ?ALLOC_XSTACK8
   \   00000A   E9           MOV       A,R1
   \   00000B   FE           MOV       R6,A
    261            uint8 buf[2];
    262          
    263            buf[0] = LO_UINT16( identifyTime );
   \   00000C   EC           MOV       A,R4
   \   00000D   85..82       MOV       DPL,?XSP + 0
   \   000010   85..83       MOV       DPH,?XSP + 1
   \   000013   F0           MOVX      @DPTR,A
    264            buf[1] = HI_UINT16( identifyTime );
   \   000014   7401         MOV       A,#0x1
   \   000016   12....       LCALL     ?XSTACK_DISP0_8
   \   000019   12....       LCALL     ?Subroutine20 & 0xFFFF
    265          
    266            return zcl_SendCommand( srcEP, dstAddr, ZCL_CLUSTER_ID_GEN_IDENTIFY,
    267                                    COMMAND_IDENTIFY, TRUE, ZCL_FRAME_CLIENT_SERVER_DIR,
    268                                    disableDefaultRsp, 0, seqNum, 2, buf );
   \                     ??CrossCallReturnLabel_65:
   \   00001C   12....       LCALL     ?PUSH_XSTACK_I_TWO
   \   00001F   75..02       MOV       ?V0,#0x2
   \   000022   75..00       MOV       ?V1,#0x0
   \   000025   78..         MOV       R0,#?V0
   \   000027   12....       LCALL     ?PUSH_XSTACK_I_TWO
   \   00002A   7411         MOV       A,#0x11
   \   00002C   12....       LCALL     ?XSTACK_DISP0_8
   \   00002F   12....       LCALL     ?Subroutine7 & 0xFFFF
   \                     ??CrossCallReturnLabel_6:
   \   000032   12....       LCALL     ?PUSH_XSTACK_I_ONE
   \   000035   E4           CLR       A
   \   000036   F5..         MOV       ?V0,A
   \   000038   78..         MOV       R0,#?V0
   \   00003A   12....       LCALL     ?PUSH_XSTACK_I_TWO
   \   00003D   7413         MOV       A,#0x13
   \   00003F   12....       LCALL     ?XSTACK_DISP0_8
   \   000042   12....       LCALL     ?Subroutine7 & 0xFFFF
   \                     ??CrossCallReturnLabel_7:
   \   000045   12....       LCALL     ?PUSH_XSTACK_I_ONE
   \   000048   75..00       MOV       ?V0,#0x0
   \   00004B   78..         MOV       R0,#?V0
   \   00004D   12....       LCALL     ?PUSH_XSTACK_I_ONE
   \   000050   75..01       MOV       ?V0,#0x1
   \   000053                REQUIRE ?Subroutine1
   \   000053                ; // Fall through to label ?Subroutine1
    269          }

   \                                 In  segment BANKED_CODE, align 1, keep-with-next
   \                     ?Subroutine1:
   \   000000   78..         MOV       R0,#?V0
   \   000002   12....       LCALL     ?PUSH_XSTACK_I_ONE
   \   000005   75..00       MOV       ?V0,#0x0
   \   000008   78..         MOV       R0,#?V0
   \   00000A   12....       LCALL     ?PUSH_XSTACK_I_ONE
   \   00000D   7C03         MOV       R4,#0x3
   \   00000F   7D00         MOV       R5,#0x0
   \   000011   EE           MOV       A,R6
   \   000012   F9           MOV       R1,A
   \   000013   12....       LCALL     `??zcl_SendCommand::?relay`; Banked call to: zcl_SendCommand
   \   000016   740B         MOV       A,#0xb
   \   000018   12....       LCALL     ?DEALLOC_XSTACK8
   \   00001B   7402         MOV       A,#0x2
   \   00001D   12....       LCALL     ?DEALLOC_XSTACK8
   \   000020                REQUIRE ??Subroutine32_0
   \   000020                ; // Fall through to label ??Subroutine32_0

   \                                 In  segment BANKED_CODE, align 1, keep-with-next
   \                     ??Subroutine32_0:
   \   000000   7F02         MOV       R7,#0x2
   \   000002   02....       LJMP      ?BANKED_LEAVE_XDATA

   \                                 In  segment BANKED_CODE, align 1, keep-with-next
   \                     ?Subroutine20:
   \   000000   ED           MOV       A,R5
   \   000001                REQUIRE ??Subroutine33_0
   \   000001                ; // Fall through to label ??Subroutine33_0

   \                                 In  segment BANKED_CODE, align 1, keep-with-next
   \                     ??Subroutine33_0:
   \   000000   F0           MOVX      @DPTR,A
   \   000001                ; Setup parameters for call to function zcl_SendCommand
   \   000001                ; Setup parameters for call to function zcl_SendCommand
   \   000001                ; Setup parameters for call to function zcl_SendCommand
   \   000001                ; Setup parameters for call to function zcl_SendCommand
   \   000001   A8..         MOV       R0,?XSP + 0
   \   000003   A9..         MOV       R1,?XSP + 1
   \   000005   88..         MOV       ?V0,R0
   \   000007   89..         MOV       ?V1,R1
   \   000009   78..         MOV       R0,#?V0
   \   00000B   22           RET

   \                                 In  segment BANKED_CODE, align 1, keep-with-next
   \                     ?Subroutine7:
   \   000000   E0           MOVX      A,@DPTR
   \   000001   F5..         MOV       ?V0,A
   \   000003   78..         MOV       R0,#?V0
   \   000005   22           RET
    270          
    271          /*********************************************************************
    272           * @fn      zclGeneral_SendIdentifyEZModeInvoke
    273           *
    274           * @brief   Call to send out an Identify EZ-Mode Invoke Command
    275           *
    276           * @param   srcEP - Sending application's endpoint
    277           * @param   dstAddr - where you want the message to go
    278           * @param   action - describes the EZ-Mode action to be performed
    279           * @param   seqNum - identification number for the transaction
    280           *
    281           * @return  ZStatus_t
    282           */

   \                                 In  segment BANKED_CODE, align 1, keep-with-next
    283          ZStatus_t zclGeneral_SendIdentifyEZModeInvoke( uint8 srcEP, afAddrType_t *dstAddr,
   \                     zclGeneral_SendIdentifyEZModeInvoke:
    284                                                         uint8 action, uint8 disableDefaultRsp, uint8 seqNum )
    285          {
   \   000000                REQUIRE ?V0
   \   000000                REQUIRE ?V1
   \   000000                REQUIRE ?V2
   \   000000                REQUIRE ?V3
   \   000000   74F4         MOV       A,#-0xc
   \   000002   12....       LCALL     ?BANKED_ENTER_XDATA
   \   000005                ; Saved register size: 12
   \   000005                ; Auto size: 1
   \   000005   74FF         MOV       A,#-0x1
   \   000007   12....       LCALL     ?ALLOC_XSTACK8
   \   00000A   E9           MOV       A,R1
   \   00000B   FE           MOV       R6,A
   \   00000C   EC           MOV       A,R4
    286            uint8 buf[1];
    287          
    288            buf[0] = action;
   \   00000D   85..82       MOV       DPL,?XSP + 0
   \   000010   85..83       MOV       DPH,?XSP + 1
   \   000013   12....       LCALL     ?Subroutine23 & 0xFFFF
    289          
    290            return zcl_SendCommand( srcEP, dstAddr, ZCL_CLUSTER_ID_GEN_IDENTIFY,
    291                                    COMMAND_IDENTIFY_EZMODE_INVOKE, TRUE, ZCL_FRAME_CLIENT_SERVER_DIR,
    292                                    disableDefaultRsp, 0, seqNum, 1, buf );
   \                     ??CrossCallReturnLabel_50:
   \   000016   12....       LCALL     ?PUSH_XSTACK_I_TWO
   \   000019   75..01       MOV       ?V2,#0x1
   \   00001C   75..00       MOV       ?V3,#0x0
   \   00001F   78..         MOV       R0,#?V2
   \   000021   12....       LCALL     ?PUSH_XSTACK_I_TWO
   \   000024   7411         MOV       A,#0x11
   \   000026   12....       LCALL     ?XSTACK_DISP0_8
   \   000029   E0           MOVX      A,@DPTR
   \   00002A   F5..         MOV       ?V1,A
   \   00002C   78..         MOV       R0,#?V1
   \   00002E   12....       LCALL     ?PUSH_XSTACK_I_ONE
   \   000031   E4           CLR       A
   \   000032   F5..         MOV       ?V2,A
   \   000034   78..         MOV       R0,#?V2
   \   000036   12....       LCALL     ?PUSH_XSTACK_I_TWO
   \   000039   ED           MOV       A,R5
   \   00003A   F5..         MOV       ?V1,A
   \   00003C   78..         MOV       R0,#?V1
   \   00003E   12....       LCALL     ?PUSH_XSTACK_I_ONE
   \   000041   75..00       MOV       ?V1,#0x0
   \   000044   78..         MOV       R0,#?V1
   \   000046   12....       LCALL     ?PUSH_XSTACK_I_ONE
   \   000049   75..01       MOV       ?V1,#0x1
   \   00004C   78..         MOV       R0,#?V1
   \   00004E   12....       LCALL     ?PUSH_XSTACK_I_ONE
   \   000051   75..02       MOV       ?V1,#0x2
   \   000054   78..         MOV       R0,#?V1
   \   000056   12....       LCALL     ?PUSH_XSTACK_I_ONE
   \   000059   7C03         MOV       R4,#0x3
   \   00005B   7D00         MOV       R5,#0x0
   \   00005D   EE           MOV       A,R6
   \   00005E   F9           MOV       R1,A
   \   00005F   12....       LCALL     `??zcl_SendCommand::?relay`; Banked call to: zcl_SendCommand
   \   000062   740B         MOV       A,#0xb
   \   000064   12....       LCALL     ?DEALLOC_XSTACK8
   \   000067   7401         MOV       A,#0x1
   \   000069   02....       LJMP      ?Subroutine0 & 0xFFFF
    293          }

   \                                 In  segment BANKED_CODE, align 1, keep-with-next
   \                     ?Subroutine23:
   \   000000   F0           MOVX      @DPTR,A
   \   000001                ; Setup parameters for call to function zcl_SendCommand
   \   000001                ; Setup parameters for call to function zcl_SendCommand
   \   000001   A8..         MOV       R0,?XSP + 0
   \   000003   A9..         MOV       R1,?XSP + 1
   \   000005   88..         MOV       ?V2,R0
   \   000007   89..         MOV       ?V3,R1
   \   000009   78..         MOV       R0,#?V2
   \   00000B   22           RET

   \                                 In  segment BANKED_CODE, align 1, keep-with-next
   \                     ?Subroutine0:
   \   000000   12....       LCALL     ?DEALLOC_XSTACK8
   \   000003                REQUIRE ??Subroutine37_0
   \   000003                ; // Fall through to label ??Subroutine37_0
    294          
    295          /*********************************************************************
    296           * @fn      zclGeneral_SendIdentifyUpdateCommState
    297           *
    298           * @brief   Call to send out an Identify Update Commission State Command
    299           *
    300           * @param   srcEP - Sending application's endpoint
    301           * @param   dstAddr - where you want the message to go
    302           * @param   action - describes the EZ-Mode action to be performed
    303           * @param   commissionStateMask - updates the device's commission state
    304           * @param   seqNum - identification number for the transaction
    305           *
    306           * @return  ZStatus_t
    307           */

   \                                 In  segment BANKED_CODE, align 1, keep-with-next
    308          ZStatus_t zclGeneral_SendIdentifyUpdateCommState( uint8 srcEP, afAddrType_t *dstAddr,
   \                     zclGeneral_SendIdentifyUpdateCommState:
    309                                                            uint8 action, uint8 commissionStateMask,
    310                                                            uint8 disableDefaultRsp, uint8 seqNum )
    311          {
   \   000000                REQUIRE ?V0
   \   000000                REQUIRE ?V1
   \   000000                REQUIRE ?V2
   \   000000                REQUIRE ?V3
   \   000000   74F4         MOV       A,#-0xc
   \   000002   12....       LCALL     ?BANKED_ENTER_XDATA
   \   000005                ; Saved register size: 12
   \   000005                ; Auto size: 2
   \   000005   74FE         MOV       A,#-0x2
   \   000007   12....       LCALL     ?ALLOC_XSTACK8
   \   00000A   89..         MOV       ?V0,R1
   \   00000C   EC           MOV       A,R4
    312            uint8 buf[2];
    313          
    314            buf[0] = action;
   \   00000D   85..82       MOV       DPL,?XSP + 0
   \   000010   85..83       MOV       DPH,?XSP + 1
   \   000013   F0           MOVX      @DPTR,A
    315            buf[1] = commissionStateMask;
   \   000014   7401         MOV       A,#0x1
   \   000016   12....       LCALL     ?XSTACK_DISP0_8
   \   000019   ED           MOV       A,R5
   \   00001A   12....       LCALL     ?Subroutine23 & 0xFFFF
    316          
    317            return zcl_SendCommand( srcEP, dstAddr, ZCL_CLUSTER_ID_GEN_IDENTIFY,
    318                                    COMMAND_IDENTIFY_UPDATE_COMMISSION_STATE, TRUE, ZCL_FRAME_CLIENT_SERVER_DIR,
    319                                    disableDefaultRsp, 0, seqNum, 2, buf );
   \                     ??CrossCallReturnLabel_51:
   \   00001D   12....       LCALL     ?PUSH_XSTACK_I_TWO
   \   000020   75..02       MOV       ?V2,#0x2
   \   000023   75..00       MOV       ?V3,#0x0
   \   000026   78..         MOV       R0,#?V2
   \   000028   12....       LCALL     ?PUSH_XSTACK_I_TWO
   \   00002B   7413         MOV       A,#0x13
   \   00002D   12....       LCALL     ?XSTACK_DISP0_8
   \   000030   E0           MOVX      A,@DPTR
   \   000031   F5..         MOV       ?V1,A
   \   000033   78..         MOV       R0,#?V1
   \   000035   12....       LCALL     ?PUSH_XSTACK_I_ONE
   \   000038   E4           CLR       A
   \   000039   F5..         MOV       ?V2,A
   \   00003B   78..         MOV       R0,#?V2
   \   00003D   12....       LCALL     ?PUSH_XSTACK_I_TWO
   \   000040   7415         MOV       A,#0x15
   \   000042   12....       LCALL     ?XSTACK_DISP0_8
   \   000045   E0           MOVX      A,@DPTR
   \   000046   F5..         MOV       ?V1,A
   \   000048   78..         MOV       R0,#?V1
   \   00004A   12....       LCALL     ?PUSH_XSTACK_I_ONE
   \   00004D   75..00       MOV       ?V1,#0x0
   \   000050   78..         MOV       R0,#?V1
   \   000052   12....       LCALL     ?PUSH_XSTACK_I_ONE
   \   000055   75..01       MOV       ?V1,#0x1
   \   000058   78..         MOV       R0,#?V1
   \   00005A   12....       LCALL     ?PUSH_XSTACK_I_ONE
   \   00005D   75..03       MOV       ?V1,#0x3
   \   000060   78..         MOV       R0,#?V1
   \   000062   12....       LCALL     ?PUSH_XSTACK_I_ONE
   \   000065   7C03         MOV       R4,#0x3
   \   000067   7D00         MOV       R5,#0x0
   \   000069   A9..         MOV       R1,?V0
   \   00006B   12....       LCALL     `??zcl_SendCommand::?relay`; Banked call to: zcl_SendCommand
   \   00006E   740B         MOV       A,#0xb
   \   000070   12....       LCALL     ?DEALLOC_XSTACK8
   \   000073   7402         MOV       A,#0x2
   \   000075   02....       LJMP      ?Subroutine0 & 0xFFFF
    320          }
    321          
    322          #ifdef ZCL_LIGHT_LINK_ENHANCE
    323          /*********************************************************************
    324           * @fn      zclGeneral_SendIdentifyTriggerEffect
    325           *
    326           * @brief   Call to send out a Trigger Effect Command
    327           *
    328           * @param   srcEP - Sending application's endpoint
    329           * @param   dstAddr - where you want the message to go
    330           * @param   effectId - identify effect to use
    331           * @param   effectVariant - which variant of effect to be triggered
    332           * @param   disableDefaultRsp - whether to disable the Default Response command
    333           * @param   seqNum - identification number for the transaction
    334           *
    335           * @return  ZStatus_t
    336           */
    337          ZStatus_t zclGeneral_SendIdentifyTriggerEffect( uint8 srcEP, afAddrType_t *dstAddr,
    338                                                          uint8 effectId, uint8 effectVariant,
    339                                                          uint8 disableDefaultRsp, uint8 seqNum )
    340          {
    341            uint8 buf[2];
    342          
    343            buf[0] = effectId;
    344            buf[1] = effectVariant;
    345          
    346            return zcl_SendCommand( srcEP, dstAddr, ZCL_CLUSTER_ID_GEN_IDENTIFY,
    347                                    COMMAND_IDENTIFY_TRIGGER_EFFECT, TRUE, ZCL_FRAME_CLIENT_SERVER_DIR,
    348                                    disableDefaultRsp, 0, seqNum, 2, buf );
    349          }
    350          #endif // ZCL_LIGHT_LINK_ENHANCE
    351          
    352          /*********************************************************************
    353           * @fn      zclGeneral_SendIdentifyQueryResponse
    354           *
    355           * @brief   Call to send out an Identify Query Response Command
    356           *
    357           * @param   srcEP - Sending application's endpoint
    358           * @param   dstAddr - where you want the message to go
    359           * @param   timeout - how long the device will continue to identify itself (in seconds)
    360           * @param   seqNum - identification number for the transaction
    361           *
    362           * @return  ZStatus_t
    363           */

   \                                 In  segment BANKED_CODE, align 1, keep-with-next
    364          ZStatus_t zclGeneral_SendIdentifyQueryResponse( uint8 srcEP, afAddrType_t *dstAddr,
   \                     zclGeneral_SendIdentifyQueryResponse:
    365                                                          uint16 timeout, uint8 disableDefaultRsp, uint8 seqNum )
    366          {
   \   000000                REQUIRE ?V0
   \   000000                REQUIRE ?V1
   \   000000   74F6         MOV       A,#-0xa
   \   000002   12....       LCALL     ?BANKED_ENTER_XDATA
   \   000005                ; Saved register size: 10
   \   000005                ; Auto size: 2
   \   000005   74FE         MOV       A,#-0x2
   \   000007   12....       LCALL     ?ALLOC_XSTACK8
   \   00000A   E9           MOV       A,R1
   \   00000B   FE           MOV       R6,A
    367            uint8 buf[2];
    368          
    369            buf[0] = LO_UINT16( timeout );
   \   00000C   EC           MOV       A,R4
   \   00000D   85..82       MOV       DPL,?XSP + 0
   \   000010   85..83       MOV       DPH,?XSP + 1
   \   000013   F0           MOVX      @DPTR,A
    370            buf[1] = HI_UINT16( timeout );
   \   000014   7401         MOV       A,#0x1
   \   000016   12....       LCALL     ?XSTACK_DISP0_8
   \   000019   12....       LCALL     ?Subroutine20 & 0xFFFF
    371          
    372            return zcl_SendCommand( srcEP, dstAddr, ZCL_CLUSTER_ID_GEN_IDENTIFY,
    373                                    COMMAND_IDENTIFY_QUERY_RSP, TRUE,
    374                                    ZCL_FRAME_SERVER_CLIENT_DIR, disableDefaultRsp, 0, seqNum, 2, buf );
   \                     ??CrossCallReturnLabel_66:
   \   00001C   12....       LCALL     ?PUSH_XSTACK_I_TWO
   \   00001F   75..02       MOV       ?V0,#0x2
   \   000022   75..00       MOV       ?V1,#0x0
   \   000025   78..         MOV       R0,#?V0
   \   000027   12....       LCALL     ?PUSH_XSTACK_I_TWO
   \   00002A   7411         MOV       A,#0x11
   \   00002C   12....       LCALL     ?XSTACK_DISP0_8
   \   00002F   12....       LCALL     ?Subroutine7 & 0xFFFF
   \                     ??CrossCallReturnLabel_8:
   \   000032   12....       LCALL     ?PUSH_XSTACK_I_ONE
   \   000035   E4           CLR       A
   \   000036   F5..         MOV       ?V0,A
   \   000038   78..         MOV       R0,#?V0
   \   00003A   12....       LCALL     ?PUSH_XSTACK_I_TWO
   \   00003D   7413         MOV       A,#0x13
   \   00003F   12....       LCALL     ?XSTACK_DISP0_8
   \   000042   12....       LCALL     ?Subroutine7 & 0xFFFF
   \                     ??CrossCallReturnLabel_9:
   \   000045   12....       LCALL     ?PUSH_XSTACK_I_ONE
   \   000048   75..01       MOV       ?V0,#0x1
   \   00004B   78..         MOV       R0,#?V0
   \   00004D   12....       LCALL     ?PUSH_XSTACK_I_ONE
   \   000050   02....       LJMP      ?Subroutine1 & 0xFFFF
    375          }
    376          #endif // ZCL_IDENTIFY
    377          
    378          #ifdef ZCL_GROUPS
    379          /*********************************************************************
    380           * @fn      zclGeneral_SendGroupRequest
    381           *
    382           * @brief   Send a Group Request to a device.  You can also use the
    383           *          appropriate macro.
    384           *
    385           * @param   srcEP - Sending Apps endpoint
    386           * @param   dstAddr - where to send the request
    387           * @param   cmd - one of the following:
    388           *              COMMAND_GROUP_VIEW
    389           *              COMMAND_GROUP_REMOVE
    390           * @param   groupID -
    391           *
    392           * @return  ZStatus_t
    393           */

   \                                 In  segment BANKED_CODE, align 1, keep-with-next
    394          ZStatus_t zclGeneral_SendGroupRequest( uint8 srcEP, afAddrType_t *dstAddr,
   \                     zclGeneral_SendGroupRequest:
    395                                                 uint8 cmd, uint16 groupID, uint8 disableDefaultRsp, uint8 seqNum )
    396          {
   \   000000                REQUIRE ?V0
   \   000000                REQUIRE ?V1
   \   000000                REQUIRE ?V2
   \   000000   74F5         MOV       A,#-0xb
   \   000002   12....       LCALL     ?BANKED_ENTER_XDATA
   \   000005                ; Saved register size: 11
   \   000005                ; Auto size: 2
   \   000005   74FE         MOV       A,#-0x2
   \   000007   12....       LCALL     ?ALLOC_XSTACK8
   \   00000A   E9           MOV       A,R1
   \   00000B   FF           MOV       R7,A
   \   00000C   ED           MOV       A,R5
   \   00000D   FE           MOV       R6,A
   \   00000E   740D         MOV       A,#0xd
   \   000010   12....       LCALL     ?XSTACK_DISP0_8
   \   000013   12....       LCALL     ?Subroutine14 & 0xFFFF
    397            uint8 buf[2];
    398          
    399            buf[0] = LO_UINT16( groupID );
   \                     ??CrossCallReturnLabel_30:
   \   000016   85..82       MOV       DPL,?XSP + 0
   \   000019   85..83       MOV       DPH,?XSP + 1
   \   00001C   F0           MOVX      @DPTR,A
    400            buf[1] = HI_UINT16( groupID );
   \   00001D   7401         MOV       A,#0x1
   \   00001F   12....       LCALL     ?XSTACK_DISP0_8
   \   000022   E9           MOV       A,R1
   \   000023   12....       LCALL     ??Subroutine33_0 & 0xFFFF
    401          
    402            return ( zcl_SendCommand( srcEP, dstAddr, ZCL_CLUSTER_ID_GEN_GROUPS,
    403                                      cmd, TRUE, ZCL_FRAME_CLIENT_SERVER_DIR,
    404                                      disableDefaultRsp, 0, seqNum, 2, buf ) );
   \                     ??CrossCallReturnLabel_67:
   \   000026   12....       LCALL     ?PUSH_XSTACK_I_TWO
   \   000029   75..02       MOV       ?V0,#0x2
   \   00002C   75..00       MOV       ?V1,#0x0
   \   00002F   78..         MOV       R0,#?V0
   \   000031   12....       LCALL     ?PUSH_XSTACK_I_TWO
   \   000034   7413         MOV       A,#0x13
   \   000036   12....       LCALL     ?XSTACK_DISP0_8
   \   000039   12....       LCALL     ?Subroutine7 & 0xFFFF
   \                     ??CrossCallReturnLabel_10:
   \   00003C   12....       LCALL     ?PUSH_XSTACK_I_ONE
   \   00003F   E4           CLR       A
   \   000040   F5..         MOV       ?V0,A
   \   000042   78..         MOV       R0,#?V0
   \   000044   12....       LCALL     ?PUSH_XSTACK_I_TWO
   \   000047   EE           MOV       A,R6
   \   000048   F5..         MOV       ?V0,A
   \   00004A   78..         MOV       R0,#?V0
   \   00004C   12....       LCALL     ?PUSH_XSTACK_I_ONE
   \   00004F   75..00       MOV       ?V0,#0x0
   \   000052   78..         MOV       R0,#?V0
   \   000054   12....       LCALL     ?PUSH_XSTACK_I_ONE
   \   000057   75..01       MOV       ?V0,#0x1
   \   00005A   78..         MOV       R0,#?V0
   \   00005C   12....       LCALL     ?PUSH_XSTACK_I_ONE
   \   00005F   EC           MOV       A,R4
   \   000060   F5..         MOV       ?V0,A
   \   000062   78..         MOV       R0,#?V0
   \   000064   12....       LCALL     ?PUSH_XSTACK_I_ONE
   \   000067   7C04         MOV       R4,#0x4
   \   000069   7D00         MOV       R5,#0x0
   \   00006B   EF           MOV       A,R7
   \   00006C   F9           MOV       R1,A
   \   00006D   12....       LCALL     `??zcl_SendCommand::?relay`; Banked call to: zcl_SendCommand
   \   000070   740B         MOV       A,#0xb
   \   000072   12....       LCALL     ?DEALLOC_XSTACK8
   \   000075   7402         MOV       A,#0x2
   \   000077                REQUIRE ?Subroutine2
   \   000077                ; // Fall through to label ?Subroutine2
    405          }

   \                                 In  segment BANKED_CODE, align 1, keep-with-next
   \                     ?Subroutine2:
   \   000000   12....       LCALL     ?DEALLOC_XSTACK8
   \   000003   7F03         MOV       R7,#0x3
   \   000005   02....       LJMP      ?BANKED_LEAVE_XDATA

   \                                 In  segment BANKED_CODE, align 1, keep-with-next
   \                     ?Subroutine14:
   \   000000   12....       LCALL     ?Subroutine27 & 0xFFFF
   \                     ??CrossCallReturnLabel_60:
   \   000003   E8           MOV       A,R0
   \   000004   22           RET

   \                                 In  segment BANKED_CODE, align 1, keep-with-next
   \                     ?Subroutine27:
   \   000000   12....       LCALL     ?Subroutine31 & 0xFFFF
   \                     ??CrossCallReturnLabel_109:
   \   000003   F9           MOV       R1,A
   \   000004   22           RET

   \                                 In  segment BANKED_CODE, align 1, keep-with-next
   \                     ?Subroutine31:
   \   000000   E0           MOVX      A,@DPTR
   \   000001   F8           MOV       R0,A
   \   000002   A3           INC       DPTR
   \   000003   E0           MOVX      A,@DPTR
   \   000004   22           RET
    406          
    407          /*********************************************************************
    408           * @fn      zclGeneral_SendAddGroupRequest
    409           *
    410           * @brief   Send the Add Group Request to a device
    411           *
    412           * @param   srcEP - Sending Apps endpoint
    413           * @param   dstAddr - where to send the request
    414           * @param   cmd - one of the following:
    415           *                COMMAND_GROUP_ADD
    416           *                COMMAND_GROUP_ADD_IF_IDENTIFYING
    417           * @param   groupID - pointer to the group structure
    418           * @param   groupName - pointer to Group Name.  This is a Zigbee
    419           *          string data type, so the first byte is the length of the
    420           *          name (in bytes), then the name.
    421           *
    422           * @return  ZStatus_t
    423           */

   \                                 In  segment BANKED_CODE, align 1, keep-with-next
    424          ZStatus_t zclGeneral_SendAddGroupRequest( uint8 srcEP, afAddrType_t *dstAddr,
   \                     zclGeneral_SendAddGroupRequest:
    425                                                    uint8 cmd, uint16 groupID, uint8 *groupName,
    426                                                    uint8 disableDefaultRsp, uint8 seqNum )
    427          {
   \   000000                REQUIRE ?V0
   \   000000                REQUIRE ?V1
   \   000000                REQUIRE ?V2
   \   000000                REQUIRE ?V3
   \   000000                REQUIRE ?V4
   \   000000                REQUIRE ?V5
   \   000000                REQUIRE ?V6
   \   000000                REQUIRE ?V7
   \   000000   74F0         MOV       A,#-0x10
   \   000002   12....       LCALL     ?BANKED_ENTER_XDATA
   \   000005                ; Saved register size: 16
   \   000005                ; Auto size: 5
   \   000005   74FB         MOV       A,#-0x5
   \   000007   12....       LCALL     ?ALLOC_XSTACK8
   \   00000A   7403         MOV       A,#0x3
   \   00000C   12....       LCALL     ?XSTACK_DISP0_8
   \   00000F   EA           MOV       A,R2
   \   000010   F0           MOVX      @DPTR,A
   \   000011   A3           INC       DPTR
   \   000012   EB           MOV       A,R3
   \   000013   F0           MOVX      @DPTR,A
   \   000014   7402         MOV       A,#0x2
   \   000016   12....       LCALL     ?XSTACK_DISP0_8
   \   000019   EC           MOV       A,R4
   \   00001A   F0           MOVX      @DPTR,A
   \   00001B   7401         MOV       A,#0x1
   \   00001D   12....       LCALL     ?XSTACK_DISP0_8
   \   000020   ED           MOV       A,R5
   \   000021   F0           MOVX      @DPTR,A
   \   000022   89..         MOV       ?V3,R1
   \   000024   7417         MOV       A,#0x17
   \   000026   12....       LCALL     ?XSTACK_DISP0_8
   \   000029   E0           MOVX      A,@DPTR
   \   00002A   F5..         MOV       ?V6,A
   \   00002C   A3           INC       DPTR
   \   00002D   E0           MOVX      A,@DPTR
   \   00002E   F5..         MOV       ?V7,A
    428            uint8 *buf;
    429            uint8 *pBuf;
    430            uint8 len;
    431            ZStatus_t status;
    432          
    433            len = 2;    // Group ID
    434            len += groupName[0] + 1;  // String + 1 for length
   \   000030   85..82       MOV       DPL,?V6
   \   000033   F583         MOV       DPH,A
   \   000035   E0           MOVX      A,@DPTR
   \   000036   2403         ADD       A,#0x3
   \   000038   85..82       MOV       DPL,?XSP + 0
   \   00003B   85..83       MOV       DPH,?XSP + 1
   \   00003E   F0           MOVX      @DPTR,A
    435          
    436            buf = zcl_mem_alloc( len );
   \   00003F   FE           MOV       R6,A
   \   000040                ; Setup parameters for call to function osal_mem_alloc
   \   000040   FA           MOV       R2,A
   \   000041   7B00         MOV       R3,#0x0
   \   000043   12....       LCALL     `??osal_mem_alloc::?relay`; Banked call to: osal_mem_alloc
   \   000046   8A..         MOV       ?V4,R2
   \   000048   8B..         MOV       ?V5,R3
    437            if ( buf )
   \   00004A   EA           MOV       A,R2
   \   00004B   45..         ORL       A,?V5
   \   00004D   7003         JNZ       $+5
   \   00004F   02....       LJMP      ??zclGeneral_SendAddGroupRequest_0 & 0xFFFF
   \   000052   7415         MOV       A,#0x15
   \   000054   12....       LCALL     ?XSTACK_DISP0_8
   \   000057   12....       LCALL     ?Subroutine14 & 0xFFFF
    438            {
    439              pBuf = buf;
    440              *pBuf++ = LO_UINT16( groupID );
   \                     ??CrossCallReturnLabel_31:
   \   00005A   8A82         MOV       DPL,R2
   \   00005C   8B83         MOV       DPH,R3
   \   00005E   F0           MOVX      @DPTR,A
    441              *pBuf++ = HI_UINT16( groupID );
   \   00005F   E9           MOV       A,R1
   \   000060   A3           INC       DPTR
   \   000061   F0           MOVX      @DPTR,A
    442              *pBuf++ = groupName[0]; // string length
   \   000062   85..82       MOV       DPL,?V6
   \   000065   85..83       MOV       DPH,?V7
   \   000068   12....       LCALL     ?Subroutine19 & 0xFFFF
    443              zcl_memcpy( pBuf, &(groupName[1]), groupName[0] );
   \                     ??CrossCallReturnLabel_44:
   \   00006B                ; Setup parameters for call to function osal_memcpy
   \   00006B   85..82       MOV       DPL,?V6
   \   00006E   85..83       MOV       DPH,?V7
   \   000071   A3           INC       DPTR
   \   000072   A982         MOV       R1,DPL
   \   000074   AA83         MOV       R2,DPH
   \   000076   89..         MOV       ?V0,R1
   \   000078   8A..         MOV       ?V1,R2
   \   00007A   75..00       MOV       ?V2,#0x0
   \   00007D   78..         MOV       R0,#?V0
   \   00007F   12....       LCALL     ?PUSH_XSTACK_I_THREE
   \   000082   85..82       MOV       DPL,?V6
   \   000085   85..83       MOV       DPH,?V7
   \   000088   E0           MOVX      A,@DPTR
   \   000089   FC           MOV       R4,A
   \   00008A   7D00         MOV       R5,#0x0
   \   00008C   E5..         MOV       A,?V4
   \   00008E   2403         ADD       A,#0x3
   \   000090   FA           MOV       R2,A
   \   000091   E4           CLR       A
   \   000092   35..         ADDC      A,?V5
   \   000094   FB           MOV       R3,A
   \   000095   12....       LCALL     `??osal_memcpy::?relay`; Banked call to: osal_memcpy
   \   000098   7403         MOV       A,#0x3
   \   00009A   12....       LCALL     ?DEALLOC_XSTACK8
    444          
    445              status = zcl_SendCommand( srcEP, dstAddr, ZCL_CLUSTER_ID_GEN_GROUPS,
    446                                        cmd, TRUE, ZCL_FRAME_CLIENT_SERVER_DIR,
    447                                        disableDefaultRsp, 0, seqNum, len, buf );
   \   00009D                ; Setup parameters for call to function zcl_SendCommand
   \   00009D   78..         MOV       R0,#?V4
   \   00009F   12....       LCALL     ?PUSH_XSTACK_I_TWO
   \   0000A2   8E..         MOV       ?V0,R6
   \   0000A4   75..00       MOV       ?V1,#0x0
   \   0000A7   78..         MOV       R0,#?V0
   \   0000A9   12....       LCALL     ?PUSH_XSTACK_I_TWO
   \   0000AC   741D         MOV       A,#0x1d
   \   0000AE   12....       LCALL     ?XSTACK_DISP0_8
   \   0000B1   12....       LCALL     ?Subroutine7 & 0xFFFF
   \                     ??CrossCallReturnLabel_11:
   \   0000B4   12....       LCALL     ?PUSH_XSTACK_I_ONE
   \   0000B7   E4           CLR       A
   \   0000B8   F5..         MOV       ?V0,A
   \   0000BA   78..         MOV       R0,#?V0
   \   0000BC   12....       LCALL     ?PUSH_XSTACK_I_TWO
   \   0000BF   7408         MOV       A,#0x8
   \   0000C1   12....       LCALL     ?XSTACK_DISP0_8
   \   0000C4   12....       LCALL     ?Subroutine7 & 0xFFFF
   \                     ??CrossCallReturnLabel_12:
   \   0000C7   12....       LCALL     ?PUSH_XSTACK_I_ONE
   \   0000CA   75..00       MOV       ?V0,#0x0
   \   0000CD   78..         MOV       R0,#?V0
   \   0000CF   12....       LCALL     ?PUSH_XSTACK_I_ONE
   \   0000D2   75..01       MOV       ?V0,#0x1
   \   0000D5   78..         MOV       R0,#?V0
   \   0000D7   12....       LCALL     ?PUSH_XSTACK_I_ONE
   \   0000DA   740C         MOV       A,#0xc
   \   0000DC   12....       LCALL     ?XSTACK_DISP0_8
   \   0000DF   12....       LCALL     ?Subroutine7 & 0xFFFF
   \                     ??CrossCallReturnLabel_13:
   \   0000E2   12....       LCALL     ?PUSH_XSTACK_I_ONE
   \   0000E5   7C04         MOV       R4,#0x4
   \   0000E7   7D00         MOV       R5,#0x0
   \   0000E9   740E         MOV       A,#0xe
   \   0000EB   12....       LCALL     ?XSTACK_DISP0_8
   \   0000EE   12....       LCALL     ??Subroutine35_0 & 0xFFFF
   \                     ??CrossCallReturnLabel_71:
   \   0000F1   A9..         MOV       R1,?V3
   \   0000F3   12....       LCALL     `??zcl_SendCommand::?relay`; Banked call to: zcl_SendCommand
   \   0000F6   740B         MOV       A,#0xb
   \   0000F8   12....       LCALL     ?DEALLOC_XSTACK8
   \   0000FB   E9           MOV       A,R1
   \   0000FC   FE           MOV       R6,A
    448              zcl_mem_free( buf );
   \   0000FD                ; Setup parameters for call to function osal_mem_free
   \   0000FD   AA..         MOV       R2,?V4
   \   0000FF   AB..         MOV       R3,?V5
   \   000101   12....       LCALL     `??osal_mem_free::?relay`; Banked call to: osal_mem_free
   \   000104   8002         SJMP      ??zclGeneral_SendAddGroupRequest_1
    449            }
    450            else
    451              status = ZMemError;
   \                     ??zclGeneral_SendAddGroupRequest_0:
   \   000106   7E10         MOV       R6,#0x10
    452          
    453            return ( status );
   \                     ??zclGeneral_SendAddGroupRequest_1:
   \   000108   02....       LJMP      ?Subroutine3 & 0xFFFF
    454          }

   \                                 In  segment BANKED_CODE, align 1, keep-with-next
   \                     ?Subroutine3:
   \   000000   EE           MOV       A,R6
   \   000001   F9           MOV       R1,A
   \   000002   7405         MOV       A,#0x5
   \   000004                REQUIRE ??Subroutine34_0
   \   000004                ; // Fall through to label ??Subroutine34_0

   \                                 In  segment BANKED_CODE, align 1, keep-with-next
   \                     ??Subroutine34_0:
   \   000000   12....       LCALL     ?DEALLOC_XSTACK8
   \   000003   7F08         MOV       R7,#0x8
   \   000005   02....       LJMP      ?BANKED_LEAVE_XDATA

   \                                 In  segment BANKED_CODE, align 1, keep-with-next
   \                     ?Subroutine19:
   \   000000   E0           MOVX      A,@DPTR
   \   000001   8A82         MOV       DPL,R2
   \   000003   8B83         MOV       DPH,R3
   \   000005   A3           INC       DPTR
   \   000006   A3           INC       DPTR
   \   000007   F0           MOVX      @DPTR,A
   \   000008   22           RET
    455          
    456          /*********************************************************************
    457           * @fn      zclGeneral_SendGroupGetMembershipRequest
    458           *
    459           * @brief   Send a Get Group Membership (Resposne) Command to a device
    460           *
    461           * @param   srcEP - Sending Apps endpoint
    462           * @param   dstAddr - where to send the request
    463           * @param   cmd - one of the following:
    464           *                COMMAND_GROUP_GET_MEMBERSHIP
    465           *                COMMAND_GROUP_GET_MEMBERSHIP_RSP
    466           * @param   groupID - pointer to the group structure
    467           * @param   groupName - pointer to Group Name.  This is a Zigbee
    468           *          string data type, so the first byte is the length of the
    469           *          name (in bytes), then the name.
    470           *
    471           * @return  ZStatus_t
    472           */

   \                                 In  segment BANKED_CODE, align 1, keep-with-next
    473          ZStatus_t zclGeneral_SendGroupGetMembershipRequest( uint8 srcEP, afAddrType_t *dstAddr,
   \                     zclGeneral_SendGroupGetMembershipRequest:
    474                                                              uint8 cmd, uint8 rspCmd, uint8 direction, uint8 capacity,
    475                                                              uint8 grpCnt, uint16 *grpList, uint8 disableDefaultRsp, uint8 seqNum )
    476          {
   \   000000                REQUIRE ?V0
   \   000000                REQUIRE ?V1
   \   000000                REQUIRE ?V2
   \   000000                REQUIRE ?V3
   \   000000                REQUIRE ?V4
   \   000000                REQUIRE ?V5
   \   000000                REQUIRE ?V6
   \   000000                REQUIRE ?V7
   \   000000   74F0         MOV       A,#-0x10
   \   000002   12....       LCALL     ?BANKED_ENTER_XDATA
   \   000005                ; Saved register size: 16
   \   000005                ; Auto size: 4
   \   000005   74FC         MOV       A,#-0x4
   \   000007   12....       LCALL     ?ALLOC_XSTACK8
   \   00000A   7401         MOV       A,#0x1
   \   00000C   12....       LCALL     ?XSTACK_DISP0_8
   \   00000F   E9           MOV       A,R1
   \   000010   F0           MOVX      @DPTR,A
   \   000011   7402         MOV       A,#0x2
   \   000013   12....       LCALL     ?XSTACK_DISP0_8
   \   000016   12....       LCALL     ?Subroutine21 & 0xFFFF
   \                     ??CrossCallReturnLabel_46:
   \   000019   8D..         MOV       ?V3,R5
    477            uint8 *buf;
    478            uint8 *pBuf;
    479            uint8 len = 0;
   \   00001B   7800         MOV       R0,#0x0
    480            uint8 i;
    481            ZStatus_t status;
    482          
    483            if ( rspCmd )
   \   00001D   ED           MOV       A,R5
   \   00001E   6002         JZ        ??zclGeneral_SendGroupGetMembershipRequest_0
    484              len++;  // Capacity
   \   000020   7801         MOV       R0,#0x1
   \                     ??zclGeneral_SendGroupGetMembershipRequest_0:
   \   000022   7416         MOV       A,#0x16
   \   000024   12....       LCALL     ?XSTACK_DISP0_8
   \   000027   E0           MOVX      A,@DPTR
   \   000028   F5..         MOV       ?V2,A
    485          
    486            len++;  // Group Count
    487            len += sizeof ( uint16 ) * grpCnt;  // Group List
   \   00002A   C3           CLR       C
   \   00002B   33           RLC       A
   \   00002C   04           INC       A
   \   00002D   28           ADD       A,R0
    488          
    489            buf = zcl_mem_alloc( len );
   \   00002E   FE           MOV       R6,A
   \   00002F                ; Setup parameters for call to function osal_mem_alloc
   \   00002F   FA           MOV       R2,A
   \   000030   7B00         MOV       R3,#0x0
   \   000032   12....       LCALL     `??osal_mem_alloc::?relay`; Banked call to: osal_mem_alloc
   \   000035   8A..         MOV       ?V0,R2
   \   000037   8B..         MOV       ?V1,R3
    490            if ( buf )
   \   000039   EA           MOV       A,R2
   \   00003A   45..         ORL       A,?V1
   \   00003C   7003         JNZ       $+5
   \   00003E   02....       LJMP      ??zclGeneral_SendGroupGetMembershipRequest_1 & 0xFFFF
    491            {
    492              pBuf = buf;
   \   000041   A8..         MOV       R0,?V0
   \   000043   A9..         MOV       R1,?V1
    493              if ( rspCmd )
   \   000045   E5..         MOV       A,?V3
   \   000047   600D         JZ        ??zclGeneral_SendGroupGetMembershipRequest_2
    494                *pBuf++ = capacity;
   \   000049   7415         MOV       A,#0x15
   \   00004B   12....       LCALL     ?XSTACK_DISP0_8
   \   00004E   12....       LCALL     ?Subroutine17 & 0xFFFF
   \                     ??CrossCallReturnLabel_41:
   \   000051   A3           INC       DPTR
   \   000052   A882         MOV       R0,DPL
   \   000054   A983         MOV       R1,DPH
    495          
    496              *pBuf++ = grpCnt;
   \                     ??zclGeneral_SendGroupGetMembershipRequest_2:
   \   000056   8882         MOV       DPL,R0
   \   000058   8983         MOV       DPH,R1
   \   00005A   E5..         MOV       A,?V2
   \   00005C   F0           MOVX      @DPTR,A
   \   00005D   A3           INC       DPTR
   \   00005E   A882         MOV       R0,DPL
   \   000060   A983         MOV       R1,DPH
    497              for ( i = 0; i < grpCnt; i++ )
   \   000062   7A00         MOV       R2,#0x0
   \   000064   7417         MOV       A,#0x17
   \   000066   12....       LCALL     ?XSTACK_DISP0_8
   \   000069   12....       LCALL     ??Subroutine36_0 & 0xFFFF
   \                     ??CrossCallReturnLabel_79:
   \   00006C   FD           MOV       R5,A
   \   00006D   8031         SJMP      ??zclGeneral_SendGroupGetMembershipRequest_3
    498              {
    499                *pBuf++ = LO_UINT16( grpList[i] );
   \                     ??zclGeneral_SendGroupGetMembershipRequest_4:
   \   00006F   EA           MOV       A,R2
   \   000070   25E0         ADD       A,0xE0 /* A   */
   \   000072   F5..         MOV       ?V4,A
   \   000074   E4           CLR       A
   \   000075   33           RLC       A
   \   000076   F5..         MOV       ?V5,A
   \   000078   EC           MOV       A,R4
   \   000079   25..         ADD       A,?V4
   \   00007B   F5..         MOV       ?V6,A
   \   00007D   ED           MOV       A,R5
   \   00007E   35..         ADDC      A,?V5
   \   000080   F5..         MOV       ?V7,A
   \   000082   85..82       MOV       DPL,?V6
   \   000085   F583         MOV       DPH,A
   \   000087   12....       LCALL     ?Subroutine17 & 0xFFFF
    500                *pBuf++ = HI_UINT16( grpList[i] );
   \                     ??CrossCallReturnLabel_42:
   \   00008A   85..82       MOV       DPL,?V6
   \   00008D   85..83       MOV       DPH,?V7
   \   000090   A3           INC       DPTR
   \   000091   E0           MOVX      A,@DPTR
   \   000092   8882         MOV       DPL,R0
   \   000094   8983         MOV       DPH,R1
   \   000096   A3           INC       DPTR
   \   000097   F0           MOVX      @DPTR,A
   \   000098   E8           MOV       A,R0
   \   000099   2402         ADD       A,#0x2
   \   00009B   F8           MOV       R0,A
   \   00009C   5001         JNC       ??zclGeneral_SendGroupGetMembershipRequest_5
   \   00009E   09           INC       R1
    501              }
   \                     ??zclGeneral_SendGroupGetMembershipRequest_5:
   \   00009F   0A           INC       R2
   \                     ??zclGeneral_SendGroupGetMembershipRequest_3:
   \   0000A0   EA           MOV       A,R2
   \   0000A1   C3           CLR       C
   \   0000A2   95..         SUBB      A,?V2
   \   0000A4   40C9         JC        ??zclGeneral_SendGroupGetMembershipRequest_4
    502          
    503              status = zcl_SendCommand( srcEP, dstAddr, ZCL_CLUSTER_ID_GEN_GROUPS,
    504                                        cmd, TRUE, direction,
    505                                        disableDefaultRsp, 0, seqNum, len, buf );
   \   0000A6                ; Setup parameters for call to function zcl_SendCommand
   \   0000A6   78..         MOV       R0,#?V0
   \   0000A8   12....       LCALL     ?PUSH_XSTACK_I_TWO
   \   0000AB   8E..         MOV       ?V4,R6
   \   0000AD   75..00       MOV       ?V5,#0x0
   \   0000B0   78..         MOV       R0,#?V4
   \   0000B2   12....       LCALL     ?PUSH_XSTACK_I_TWO
   \   0000B5   741E         MOV       A,#0x1e
   \   0000B7   12....       LCALL     ?XSTACK_DISP0_8
   \   0000BA   12....       LCALL     ?Subroutine16 & 0xFFFF
   \                     ??CrossCallReturnLabel_37:
   \   0000BD   12....       LCALL     ?PUSH_XSTACK_I_ONE
   \   0000C0   E4           CLR       A
   \   0000C1   F5..         MOV       ?V4,A
   \   0000C3   78..         MOV       R0,#?V4
   \   0000C5   12....       LCALL     ?PUSH_XSTACK_I_TWO
   \   0000C8   7420         MOV       A,#0x20
   \   0000CA   12....       LCALL     ?XSTACK_DISP0_8
   \   0000CD   12....       LCALL     ?Subroutine16 & 0xFFFF
   \                     ??CrossCallReturnLabel_38:
   \   0000D0   12....       LCALL     ?PUSH_XSTACK_I_ONE
   \   0000D3   741C         MOV       A,#0x1c
   \   0000D5   12....       LCALL     ?XSTACK_DISP0_8
   \   0000D8   12....       LCALL     ?Subroutine16 & 0xFFFF
   \                     ??CrossCallReturnLabel_39:
   \   0000DB   12....       LCALL     ?PUSH_XSTACK_I_ONE
   \   0000DE   75..01       MOV       ?V2,#0x1
   \   0000E1   78..         MOV       R0,#?V2
   \   0000E3   12....       LCALL     ?PUSH_XSTACK_I_ONE
   \   0000E6   740A         MOV       A,#0xa
   \   0000E8   12....       LCALL     ?XSTACK_DISP0_8
   \   0000EB   12....       LCALL     ?Subroutine16 & 0xFFFF
   \                     ??CrossCallReturnLabel_40:
   \   0000EE   12....       LCALL     ?PUSH_XSTACK_I_ONE
   \   0000F1   7C04         MOV       R4,#0x4
   \   0000F3   7D00         MOV       R5,#0x0
   \   0000F5   740D         MOV       A,#0xd
   \   0000F7   12....       LCALL     ?XSTACK_DISP0_8
   \   0000FA   12....       LCALL     ??Subroutine35_0 & 0xFFFF
   \                     ??CrossCallReturnLabel_72:
   \   0000FD   740C         MOV       A,#0xc
   \   0000FF   12....       LCALL     ?XSTACK_DISP0_8
   \   000102   E0           MOVX      A,@DPTR
   \   000103   F9           MOV       R1,A
   \   000104   12....       LCALL     `??zcl_SendCommand::?relay`; Banked call to: zcl_SendCommand
   \   000107   740B         MOV       A,#0xb
   \   000109   12....       LCALL     ?DEALLOC_XSTACK8
   \   00010C   E9           MOV       A,R1
   \   00010D   FE           MOV       R6,A
    506              zcl_mem_free( buf );
   \   00010E                ; Setup parameters for call to function osal_mem_free
   \   00010E   AA..         MOV       R2,?V0
   \   000110   AB..         MOV       R3,?V1
   \   000112   12....       LCALL     `??osal_mem_free::?relay`; Banked call to: osal_mem_free
   \   000115   8002         SJMP      ??zclGeneral_SendGroupGetMembershipRequest_6
    507            }
    508            else
    509              status = ZMemError;
   \                     ??zclGeneral_SendGroupGetMembershipRequest_1:
   \   000117   7E10         MOV       R6,#0x10
    510          
    511            return ( status );
   \                     ??zclGeneral_SendGroupGetMembershipRequest_6:
   \   000119   EE           MOV       A,R6
   \   00011A   F9           MOV       R1,A
   \   00011B   7404         MOV       A,#0x4
   \   00011D   80..         SJMP      ??Subroutine34_0
    512          }

   \                                 In  segment BANKED_CODE, align 1, keep-with-next
   \                     ?Subroutine16:
   \   000000   E0           MOVX      A,@DPTR
   \   000001   F5..         MOV       ?V2,A
   \   000003   78..         MOV       R0,#?V2
   \   000005   22           RET

   \                                 In  segment BANKED_CODE, align 1, keep-with-next
   \                     ?Subroutine21:
   \   000000   EA           MOV       A,R2
   \   000001   F0           MOVX      @DPTR,A
   \   000002   A3           INC       DPTR
   \   000003   EB           MOV       A,R3
   \   000004   F0           MOVX      @DPTR,A
   \   000005   EC           MOV       A,R4
   \   000006   85..82       MOV       DPL,?XSP + 0
   \   000009   85..83       MOV       DPH,?XSP + 1
   \   00000C   F0           MOVX      @DPTR,A
   \   00000D   22           RET

   \                                 In  segment BANKED_CODE, align 1, keep-with-next
   \                     ?Subroutine17:
   \   000000   E0           MOVX      A,@DPTR
   \   000001   8882         MOV       DPL,R0
   \   000003   8983         MOV       DPH,R1
   \   000005   F0           MOVX      @DPTR,A
   \   000006   22           RET
    513          
    514          /*********************************************************************
    515           * @fn      zclGeneral_SendGroupResponse
    516           *
    517           * @brief   Send Group Response (not Group View Response)
    518           *
    519           * @param   srcEP - Sending application's endpoint
    520           * @param   dstAddr - where you want the message to go
    521           * @param   cmd - either COMMAND_GROUP_ADD_RSP or COMMAND_GROUP_REMOVE_RSP
    522           * @param   status - group command status
    523           * @param   groupID - what group
    524           *
    525           * @return  ZStatus_t
    526           */

   \                                 In  segment BANKED_CODE, align 1, keep-with-next
    527          ZStatus_t zclGeneral_SendGroupResponse( uint8 srcEP, afAddrType_t *dstAddr,
   \                     zclGeneral_SendGroupResponse:
    528                                                  uint8 cmd, uint8 status, uint16 groupID,
    529                                                  uint8 disableDefaultRsp, uint8 seqNum )
    530          {
   \   000000                REQUIRE ?V0
   \   000000                REQUIRE ?V1
   \   000000                REQUIRE ?V2
   \   000000   74F5         MOV       A,#-0xb
   \   000002   12....       LCALL     ?BANKED_ENTER_XDATA
   \   000005                ; Saved register size: 11
   \   000005                ; Auto size: 3
   \   000005   74FD         MOV       A,#-0x3
   \   000007   12....       LCALL     ?ALLOC_XSTACK8
   \   00000A   E9           MOV       A,R1
   \   00000B   FF           MOV       R7,A
   \   00000C   ED           MOV       A,R5
    531            uint8 buf[3];
    532          
    533            buf[0] = status;
   \   00000D   85..82       MOV       DPL,?XSP + 0
   \   000010   85..83       MOV       DPH,?XSP + 1
   \   000013   F0           MOVX      @DPTR,A
   \   000014   740E         MOV       A,#0xe
   \   000016   12....       LCALL     ?XSTACK_DISP0_8
   \   000019   12....       LCALL     ?Subroutine27 & 0xFFFF
    534            buf[1] = LO_UINT16( groupID );
   \                     ??CrossCallReturnLabel_56:
   \   00001C   7401         MOV       A,#0x1
   \   00001E   12....       LCALL     ?XSTACK_DISP0_8
   \   000021   E8           MOV       A,R0
   \   000022   F0           MOVX      @DPTR,A
    535            buf[2] = HI_UINT16( groupID );
   \   000023   7402         MOV       A,#0x2
   \   000025   12....       LCALL     ?XSTACK_DISP0_8
   \   000028   E9           MOV       A,R1
   \   000029   12....       LCALL     ??Subroutine33_0 & 0xFFFF
    536          
    537            return zcl_SendCommand( srcEP, dstAddr, ZCL_CLUSTER_ID_GEN_GROUPS,
    538                                    cmd, TRUE, ZCL_FRAME_SERVER_CLIENT_DIR,
    539                                    disableDefaultRsp, 0, seqNum, 3, buf );
   \                     ??CrossCallReturnLabel_68:
   \   00002C   12....       LCALL     ?PUSH_XSTACK_I_TWO
   \   00002F   75..03       MOV       ?V0,#0x3
   \   000032   75..00       MOV       ?V1,#0x0
   \   000035   78..         MOV       R0,#?V0
   \   000037   12....       LCALL     ?PUSH_XSTACK_I_TWO
   \   00003A   7415         MOV       A,#0x15
   \   00003C   12....       LCALL     ?XSTACK_DISP0_8
   \   00003F   12....       LCALL     ?Subroutine7 & 0xFFFF
   \                     ??CrossCallReturnLabel_14:
   \   000042   12....       LCALL     ?PUSH_XSTACK_I_ONE
   \   000045   E4           CLR       A
   \   000046   F5..         MOV       ?V0,A
   \   000048   78..         MOV       R0,#?V0
   \   00004A   12....       LCALL     ?PUSH_XSTACK_I_TWO
   \   00004D   7417         MOV       A,#0x17
   \   00004F   12....       LCALL     ?XSTACK_DISP0_8
   \   000052   12....       LCALL     ?Subroutine7 & 0xFFFF
   \                     ??CrossCallReturnLabel_15:
   \   000055   12....       LCALL     ?PUSH_XSTACK_I_ONE
   \   000058   75..01       MOV       ?V0,#0x1
   \   00005B   78..         MOV       R0,#?V0
   \   00005D   12....       LCALL     ?PUSH_XSTACK_I_ONE
   \   000060   78..         MOV       R0,#?V0
   \   000062   12....       LCALL     ?PUSH_XSTACK_I_ONE
   \   000065   EC           MOV       A,R4
   \   000066   F5..         MOV       ?V0,A
   \   000068   78..         MOV       R0,#?V0
   \   00006A   12....       LCALL     ?PUSH_XSTACK_I_ONE
   \   00006D   7C04         MOV       R4,#0x4
   \   00006F   7D00         MOV       R5,#0x0
   \   000071   EF           MOV       A,R7
   \   000072   F9           MOV       R1,A
   \   000073   12....       LCALL     `??zcl_SendCommand::?relay`; Banked call to: zcl_SendCommand
   \   000076   740B         MOV       A,#0xb
   \   000078   12....       LCALL     ?DEALLOC_XSTACK8
   \   00007B   7403         MOV       A,#0x3
   \   00007D   02....       LJMP      ?Subroutine2 & 0xFFFF
    540          }
    541          
    542          /*********************************************************************
    543           * @fn      zclGeneral_SendGroupViewResponse
    544           *
    545           * @brief   Call to send Group Response Command
    546           *
    547           * @param   srcEP - Sending application's endpoint
    548           * @param   dstAddr - where you want the message to go
    549           * @param   cmd - either COMMAND_GROUP_ADD_RSP or COMMAND_GROUP_REMOVE_RSP
    550           * @param   status - group command status
    551           * @param   grp - group info
    552           *
    553           * @return  ZStatus_t
    554           */

   \                                 In  segment BANKED_CODE, align 1, keep-with-next
    555          ZStatus_t zclGeneral_SendGroupViewResponse( uint8 srcEP, afAddrType_t *dstAddr,
   \                     zclGeneral_SendGroupViewResponse:
    556                                                      uint8 status, aps_Group_t *grp, uint8 disableDefaultRsp, uint8 seqNum )
    557          {
   \   000000                REQUIRE ?V0
   \   000000                REQUIRE ?V1
   \   000000                REQUIRE ?V2
   \   000000                REQUIRE ?V3
   \   000000                REQUIRE ?V4
   \   000000                REQUIRE ?V5
   \   000000                REQUIRE ?V6
   \   000000                REQUIRE ?V7
   \   000000   74F0         MOV       A,#-0x10
   \   000002   12....       LCALL     ?BANKED_ENTER_XDATA
   \   000005                ; Saved register size: 16
   \   000005                ; Auto size: 5
   \   000005   74FB         MOV       A,#-0x5
   \   000007   12....       LCALL     ?ALLOC_XSTACK8
   \   00000A   7402         MOV       A,#0x2
   \   00000C   12....       LCALL     ?XSTACK_DISP0_8
   \   00000F   E9           MOV       A,R1
   \   000010   F0           MOVX      @DPTR,A
   \   000011   7403         MOV       A,#0x3
   \   000013   12....       LCALL     ?XSTACK_DISP0_8
   \   000016   12....       LCALL     ?Subroutine21 & 0xFFFF
   \                     ??CrossCallReturnLabel_47:
   \   000019   7401         MOV       A,#0x1
   \   00001B   12....       LCALL     ?XSTACK_DISP0_8
   \   00001E   ED           MOV       A,R5
   \   00001F   F0           MOVX      @DPTR,A
    558            uint8 *buf;
    559            uint8 len;
    560            ZStatus_t stat;
    561          
    562            len = 1 + 2 + 1; // Status + Group ID + name length
   \   000020   7804         MOV       R0,#0x4
   \   000022   7415         MOV       A,#0x15
   \   000024   12....       LCALL     ?XSTACK_DISP0_8
   \   000027   12....       LCALL     ?Subroutine15 & 0xFFFF
    563          
    564            if ( status == ZCL_STATUS_SUCCESS )
   \                     ??CrossCallReturnLabel_34:
   \   00002A   E5..         MOV       A,?V0
   \   00002C   2402         ADD       A,#0x2
   \   00002E   F5..         MOV       ?V6,A
   \   000030   E4           CLR       A
   \   000031   35..         ADDC      A,?V1
   \   000033   F5..         MOV       ?V7,A
   \   000035   85..82       MOV       DPL,?XSP + 0
   \   000038   85..83       MOV       DPH,?XSP + 1
   \   00003B   E0           MOVX      A,@DPTR
   \   00003C   7009         JNZ       ??zclGeneral_SendGroupViewResponse_0
    565            {
    566              len += grp->name[0];  // String length
   \   00003E   85..82       MOV       DPL,?V6
   \   000041   85..83       MOV       DPH,?V7
   \   000044   E0           MOVX      A,@DPTR
   \   000045   28           ADD       A,R0
   \   000046   F8           MOV       R0,A
    567            }
    568          
    569            buf = zcl_mem_alloc( len );
   \                     ??zclGeneral_SendGroupViewResponse_0:
   \   000047   E8           MOV       A,R0
   \   000048   FE           MOV       R6,A
   \   000049                ; Setup parameters for call to function osal_mem_alloc
   \   000049   FA           MOV       R2,A
   \   00004A   7B00         MOV       R3,#0x0
   \   00004C   12....       LCALL     `??osal_mem_alloc::?relay`; Banked call to: osal_mem_alloc
   \   00004F   8A..         MOV       ?V4,R2
   \   000051   8B..         MOV       ?V5,R3
    570            if ( buf )
   \   000053   EA           MOV       A,R2
   \   000054   45..         ORL       A,?V5
   \   000056   7003         JNZ       $+5
   \   000058   02....       LJMP      ??zclGeneral_SendGroupViewResponse_1 & 0xFFFF
    571            {
    572              buf[0] = status;
   \   00005B   85..82       MOV       DPL,?XSP + 0
   \   00005E   85..83       MOV       DPH,?XSP + 1
   \   000061   E0           MOVX      A,@DPTR
   \   000062   8A82         MOV       DPL,R2
   \   000064   8B83         MOV       DPH,R3
   \   000066   F0           MOVX      @DPTR,A
    573              buf[1] = LO_UINT16( grp->ID );
   \   000067   85..82       MOV       DPL,?V0
   \   00006A   85..83       MOV       DPH,?V1
   \   00006D   E0           MOVX      A,@DPTR
   \   00006E   8A82         MOV       DPL,R2
   \   000070   8B83         MOV       DPH,R3
   \   000072   A3           INC       DPTR
   \   000073   F0           MOVX      @DPTR,A
    574              buf[2] = HI_UINT16( grp->ID );
   \   000074   85..82       MOV       DPL,?V0
   \   000077   85..83       MOV       DPH,?V1
   \   00007A   A3           INC       DPTR
   \   00007B   12....       LCALL     ?Subroutine19 & 0xFFFF
    575          
    576              if ( status == ZCL_STATUS_SUCCESS )
   \                     ??CrossCallReturnLabel_45:
   \   00007E   EA           MOV       A,R2
   \   00007F   2403         ADD       A,#0x3
   \   000081   F8           MOV       R0,A
   \   000082   E4           CLR       A
   \   000083   35..         ADDC      A,?V5
   \   000085   F9           MOV       R1,A
   \   000086   85..82       MOV       DPL,?XSP + 0
   \   000089   85..83       MOV       DPH,?XSP + 1
   \   00008C   E0           MOVX      A,@DPTR
   \   00008D   703F         JNZ       ??zclGeneral_SendGroupViewResponse_2
    577              {
    578                buf[3] = grp->name[0]; // string length
   \   00008F   85..82       MOV       DPL,?V6
   \   000092   85..83       MOV       DPH,?V7
   \   000095   12....       LCALL     ?Subroutine17 & 0xFFFF
    579                zcl_memcpy( &buf[4], (&grp->name[1]), grp->name[0] );
   \                     ??CrossCallReturnLabel_43:
   \   000098                ; Setup parameters for call to function osal_memcpy
   \   000098   85..82       MOV       DPL,?V0
   \   00009B   85..83       MOV       DPH,?V1
   \   00009E   A3           INC       DPTR
   \   00009F   A3           INC       DPTR
   \   0000A0   A3           INC       DPTR
   \   0000A1   A982         MOV       R1,DPL
   \   0000A3   AA83         MOV       R2,DPH
   \   0000A5   89..         MOV       ?V0,R1
   \   0000A7   8A..         MOV       ?V1,R2
   \   0000A9   75..00       MOV       ?V2,#0x0
   \   0000AC   78..         MOV       R0,#?V0
   \   0000AE   12....       LCALL     ?PUSH_XSTACK_I_THREE
   \   0000B1   85..82       MOV       DPL,?V6
   \   0000B4   85..83       MOV       DPH,?V7
   \   0000B7   E0           MOVX      A,@DPTR
   \   0000B8   FC           MOV       R4,A
   \   0000B9   7D00         MOV       R5,#0x0
   \   0000BB   E5..         MOV       A,?V4
   \   0000BD   2404         ADD       A,#0x4
   \   0000BF   FA           MOV       R2,A
   \   0000C0   E4           CLR       A
   \   0000C1   35..         ADDC      A,?V5
   \   0000C3   FB           MOV       R3,A
   \   0000C4   12....       LCALL     `??osal_memcpy::?relay`; Banked call to: osal_memcpy
   \   0000C7   7403         MOV       A,#0x3
   \   0000C9   12....       LCALL     ?DEALLOC_XSTACK8
   \   0000CC   8006         SJMP      ??zclGeneral_SendGroupViewResponse_3
    580              }
    581              else //ZCL_STATUS_NOT_FOUND
    582              {
    583                buf[3] = 0;
   \                     ??zclGeneral_SendGroupViewResponse_2:
   \   0000CE   8882         MOV       DPL,R0
   \   0000D0   8983         MOV       DPH,R1
   \   0000D2   E4           CLR       A
   \   0000D3   F0           MOVX      @DPTR,A
    584              }
    585          
    586              stat = zcl_SendCommand( srcEP, dstAddr, ZCL_CLUSTER_ID_GEN_GROUPS,
    587                                      COMMAND_GROUP_VIEW_RSP, TRUE, ZCL_FRAME_SERVER_CLIENT_DIR,
    588                                      disableDefaultRsp, 0, seqNum, len, buf );
   \                     ??zclGeneral_SendGroupViewResponse_3:
   \   0000D4                ; Setup parameters for call to function zcl_SendCommand
   \   0000D4   78..         MOV       R0,#?V4
   \   0000D6   12....       LCALL     ?PUSH_XSTACK_I_TWO
   \   0000D9   8E..         MOV       ?V0,R6
   \   0000DB   75..00       MOV       ?V1,#0x0
   \   0000DE   78..         MOV       R0,#?V0
   \   0000E0   12....       LCALL     ?PUSH_XSTACK_I_TWO
   \   0000E3   741B         MOV       A,#0x1b
   \   0000E5   12....       LCALL     ?XSTACK_DISP0_8
   \   0000E8   12....       LCALL     ?Subroutine7 & 0xFFFF
   \                     ??CrossCallReturnLabel_16:
   \   0000EB   12....       LCALL     ?PUSH_XSTACK_I_ONE
   \   0000EE   E4           CLR       A
   \   0000EF   F5..         MOV       ?V0,A
   \   0000F1   78..         MOV       R0,#?V0
   \   0000F3   12....       LCALL     ?PUSH_XSTACK_I_TWO
   \   0000F6   7408         MOV       A,#0x8
   \   0000F8   12....       LCALL     ?XSTACK_DISP0_8
   \   0000FB   12....       LCALL     ?Subroutine7 & 0xFFFF
   \                     ??CrossCallReturnLabel_17:
   \   0000FE   12....       LCALL     ?PUSH_XSTACK_I_ONE
   \   000101   75..01       MOV       ?V0,#0x1
   \   000104   78..         MOV       R0,#?V0
   \   000106   12....       LCALL     ?PUSH_XSTACK_I_ONE
   \   000109   78..         MOV       R0,#?V0
   \   00010B   12....       LCALL     ?PUSH_XSTACK_I_ONE
   \   00010E   78..         MOV       R0,#?V0
   \   000110   12....       LCALL     ?PUSH_XSTACK_I_ONE
   \   000113   7C04         MOV       R4,#0x4
   \   000115   7D00         MOV       R5,#0x0
   \   000117   740E         MOV       A,#0xe
   \   000119   12....       LCALL     ?XSTACK_DISP0_8
   \   00011C   12....       LCALL     ??Subroutine35_0 & 0xFFFF
   \                     ??CrossCallReturnLabel_73:
   \   00011F   740D         MOV       A,#0xd
   \   000121   12....       LCALL     ?XSTACK_DISP0_8
   \   000124   E0           MOVX      A,@DPTR
   \   000125   F9           MOV       R1,A
   \   000126   12....       LCALL     `??zcl_SendCommand::?relay`; Banked call to: zcl_SendCommand
   \   000129   740B         MOV       A,#0xb
   \   00012B   12....       LCALL     ?DEALLOC_XSTACK8
   \   00012E   E9           MOV       A,R1
   \   00012F   FE           MOV       R6,A
    589              zcl_mem_free( buf );
   \   000130                ; Setup parameters for call to function osal_mem_free
   \   000130   AA..         MOV       R2,?V4
   \   000132   AB..         MOV       R3,?V5
   \   000134   12....       LCALL     `??osal_mem_free::?relay`; Banked call to: osal_mem_free
   \   000137   8002         SJMP      ??zclGeneral_SendGroupViewResponse_4
    590            }
    591            else
    592            {
    593              stat = ZMemError;
   \                     ??zclGeneral_SendGroupViewResponse_1:
   \   000139   7E10         MOV       R6,#0x10
    594            }
    595          
    596            return ( stat );
   \                     ??zclGeneral_SendGroupViewResponse_4:
   \   00013B   02....       LJMP      ?Subroutine3 & 0xFFFF
    597          }

   \                                 In  segment BANKED_CODE, align 1, keep-with-next
   \                     ?Subroutine15:
   \   000000   E0           MOVX      A,@DPTR
   \   000001   F5..         MOV       ?V0,A
   \   000003   A3           INC       DPTR
   \   000004   E0           MOVX      A,@DPTR
   \   000005   F5..         MOV       ?V1,A
   \   000007   22           RET
    598          #endif // ZCL_GROUPS
    599          
    600          #ifdef ZCL_SCENES
    601          /*********************************************************************
    602           * @fn      zclGeneral_SendAddSceneRequest
    603           *
    604           * @brief   Send the (Enhanced) Add Scene Request to a device. You can
    605           *           also use the appropriate macro.
    606           *
    607           * @param   srcEP - Sending Apps endpoint
    608           * @param   dstAddr - where to send the request
    609           * @param   scene - pointer to the scene structure
    610           * @param  cmd - COMMAND_SCENE_ADD or COMMAND_SCENE_ENHANCED_ADD
    611           * @param   disableDefaultRsp - whether to disable the Default Response command
    612           * @param   seqNum - sequence number
    613           *
    614           * @return  ZStatus_t
    615           */
    616          ZStatus_t zclGeneral_SendAddSceneRequest( uint8 srcEP, afAddrType_t *dstAddr,
    617                                                    uint8 cmd, zclGeneral_Scene_t *scene,
    618                                                    uint8 disableDefaultRsp, uint8 seqNum )
    619          {
    620            uint8 *buf;
    621            uint8 *pBuf;
    622            uint8 len;
    623            ZStatus_t status;
    624          
    625            len = 2 + 1 + 2;    // Group ID + Scene ID + transition time
    626            len += scene->name[0] + 1; // String + 1 for length
    627          
    628            // Add something for the extension field length
    629            len += scene->extLen;
    630          
    631            buf = zcl_mem_alloc( len );
    632            if ( buf )
    633            {
    634              pBuf = buf;
    635              *pBuf++ = LO_UINT16( scene->groupID );
    636              *pBuf++ = HI_UINT16( scene->groupID );
    637              *pBuf++ = scene->ID;
    638              *pBuf++ = LO_UINT16( scene->transTime );
    639              *pBuf++ = HI_UINT16( scene->transTime );
    640              *pBuf++ = scene->name[0]; // string length
    641              zcl_memcpy( pBuf, &(scene->name[1]), scene->name[0] );
    642              pBuf += scene->name[0]; // move pass name
    643          
    644              // Add the extension fields
    645              if ( scene->extLen > 0 )
    646                zcl_memcpy( pBuf, scene->extField, scene->extLen );
    647          
    648              status = zcl_SendCommand( srcEP, dstAddr, ZCL_CLUSTER_ID_GEN_SCENES,
    649                                        cmd, TRUE, ZCL_FRAME_CLIENT_SERVER_DIR,
    650                                        disableDefaultRsp, 0, seqNum, len, buf );
    651              zcl_mem_free( buf );
    652            }
    653            else
    654              status = ZMemError;
    655          
    656            return ( status );
    657          }
    658          
    659          /*********************************************************************
    660           * @fn      zclGeneral_SendSceneRequest
    661           *
    662           * @brief   Send a Scene Request to a device.  You can also use the
    663           *          appropriate macro.
    664           *
    665           * @param   srcEP - Sending Apps endpoint
    666           * @param   dstAddr - where to send the request
    667           * @param   cmd - one of the following:
    668           *              COMMAND_SCENE_VIEW
    669           *              COMMAND_SCENE_REMOVE
    670           *              COMMAND_SCENE_REMOVE_ALL
    671           *              COMMAND_SCENE_STORE
    672           *              COMMAND_SCENE_RECALL
    673           *              COMMAND_SCENE_GET_MEMBERSHIP
    674           *              COMMAND_SCENE_ENHANCED_VIEW
    675           * @param   groupID - group ID
    676           * @param   sceneID - scene ID (not applicable to COMMAND_SCENE_REMOVE_ALL and
    677           *                    COMMAND_SCENE_GET_MEMBERSHIP)
    678           * @param   disableDefaultRsp - whether to disable the Default Response command
    679           * @param   seqNum - sequence number
    680           * @return  ZStatus_t
    681           */
    682          ZStatus_t zclGeneral_SendSceneRequest( uint8 srcEP, afAddrType_t *dstAddr,
    683                                                 uint8 cmd, uint16 groupID, uint8 sceneID,
    684                                                 uint8 disableDefaultRsp, uint8 seqNum )
    685          {
    686            uint8 buf[3];
    687            uint8 len = 2;
    688          
    689            buf[0] = LO_UINT16( groupID );
    690            buf[1] = HI_UINT16( groupID );
    691          
    692            if ( cmd != COMMAND_SCENE_REMOVE_ALL && cmd != COMMAND_SCENE_GET_MEMBERSHIP )
    693            {
    694              buf[2] = sceneID;
    695              len++;
    696            }
    697          
    698            return ( zcl_SendCommand( srcEP, dstAddr, ZCL_CLUSTER_ID_GEN_SCENES,
    699                                      cmd, TRUE, ZCL_FRAME_CLIENT_SERVER_DIR,
    700                                      disableDefaultRsp, 0, seqNum, len, buf ) );
    701          }
    702          
    703          /*********************************************************************
    704           * @fn      zclGeneral_SendSceneResponse
    705           *
    706           * @brief   Send Group Response (not Group View Response)
    707           *
    708           * @param   srcEP - Sending application's endpoint
    709           * @param   dstAddr - where you want the message to go
    710           * @param   cmd - either COMMAND_SCENE_ADD_RSP, COMMAND_SCENE_REMOVE_RSP
    711           *                COMMAND_SCENE_STORE_RSP, or COMMAND_SCENE_REMOVE_ALL_RSP
    712           * @param   status - scene command status
    713           * @param   groupID - what group
    714           * @param   sceneID - what scene (not applicable to COMMAND_SCENE_REMOVE_ALL_RSP)
    715           *
    716           * @return  ZStatus_t
    717           */
    718          ZStatus_t zclGeneral_SendSceneResponse( uint8 srcEP, afAddrType_t *dstAddr,
    719                                                  uint8 cmd, uint8 status, uint16 groupID,
    720                                                  uint8 sceneID, uint8 disableDefaultRsp, uint8 seqNum )
    721          {
    722            uint8 buf[4];
    723            uint8 len = 1 + 2; // Status + Group ID
    724          
    725            buf[0] = status;
    726            buf[1] = LO_UINT16( groupID );
    727            buf[2] = HI_UINT16( groupID );
    728          
    729            if ( cmd != COMMAND_SCENE_REMOVE_ALL_RSP )
    730            {
    731              buf[3] = sceneID;
    732              len++;
    733            }
    734          
    735            return zcl_SendCommand( srcEP, dstAddr, ZCL_CLUSTER_ID_GEN_SCENES,
    736                                    cmd, TRUE, ZCL_FRAME_SERVER_CLIENT_DIR,
    737                                    disableDefaultRsp, 0, seqNum, len, buf );
    738          }
    739          
    740          /*********************************************************************
    741           * @fn      zclGeneral_SendSceneViewResponse
    742           *
    743           * @brief   Call to send Scene (Enahced) View Response Command. You can
    744           *           also use the appropriate macro.
    745           *
    746           * @param   srcEP - Sending application's endpoint
    747           * @param   dstAddr - where you want the message to go
    748           * @param   cmd - either COMMAND_SCENE_VIEW_RSP or COMMAND_SCENE_ENHANCED_VIEW_RSP
    749           * @param   status - scene command status
    750           * @param   scene - scene info
    751           *
    752           * @return  ZStatus_t
    753           */
    754          ZStatus_t zclGeneral_SendSceneViewRsp( uint8 srcEP, afAddrType_t *dstAddr,
    755                                                 uint8 cmd, uint8 status, zclGeneral_Scene_t *scene,
    756                                                 uint8 disableDefaultRsp, uint8 seqNum )
    757          {
    758            uint8 *buf;
    759            uint8 *pBuf;
    760            uint8 len = 1 + 2 + 1; // Status + Group ID + Scene ID
    761            ZStatus_t stat;
    762          
    763            if ( status == ZCL_STATUS_SUCCESS )
    764            {
    765              len += 2; // Transition Time
    766              len += scene->name[0] + 1; // string + 1 for length
    767          
    768              // Add something for the extension field length
    769              len += scene->extLen;
    770            }
    771          
    772            buf = zcl_mem_alloc( len );
    773            if ( buf )
    774            {
    775              pBuf = buf;
    776              *pBuf++ = status;
    777              *pBuf++ = LO_UINT16( scene->groupID );
    778              *pBuf++ = HI_UINT16( scene->groupID );
    779              *pBuf++ = scene->ID;
    780              if ( status == ZCL_STATUS_SUCCESS )
    781              {
    782                uint16 transTime = scene->transTime;
    783                if ( cmd == COMMAND_SCENE_ENHANCED_VIEW_RSP )
    784                {
    785                  // Transition time is in 1/10s
    786                  transTime *= 10;
    787                  transTime += scene->transTime100ms;
    788                }
    789          
    790                *pBuf++ = LO_UINT16( transTime );
    791                *pBuf++ = HI_UINT16( transTime );
    792                *pBuf++ = scene->name[0]; // string length
    793                if ( scene->name[0] != 0 )
    794                {
    795                  zcl_memcpy( pBuf, &(scene->name[1]), scene->name[0] );
    796                  pBuf += scene->name[0]; // move pass name
    797                }
    798          
    799                // Add the extension fields
    800                if ( scene->extLen > 0 )
    801                  zcl_memcpy( pBuf, scene->extField, scene->extLen );
    802              }
    803          
    804              stat = zcl_SendCommand( srcEP, dstAddr, ZCL_CLUSTER_ID_GEN_SCENES,
    805                                      cmd, TRUE, ZCL_FRAME_SERVER_CLIENT_DIR,
    806                                      disableDefaultRsp, 0, seqNum, len, buf );
    807              zcl_mem_free( buf );
    808            }
    809            else
    810              stat = ZMemError;
    811          
    812            return ( stat );
    813          }
    814          
    815          /*********************************************************************
    816           * @fn      zclGeneral_SendSceneGetMembershipResponse
    817           *
    818           * @brief   Call to send Scene Get Membership Response Command
    819           *
    820           * @param   srcEP - Sending application's endpoint
    821           * @param   dstAddr - where you want the message to go
    822           * @param   status - scene command status
    823           * @param   capacity - remaining capacity of the scene table
    824           * @param   sceneCnt - number of scenes in the scene list
    825           * @param   sceneList - list of scene IDs
    826           * @param   groupID - group ID that scene belongs to
    827           * @param   seqNum - sequence number
    828           *
    829           * @return  ZStatus_t
    830           */
    831          ZStatus_t zclGeneral_SendSceneGetMembershipResponse( uint8 srcEP, afAddrType_t *dstAddr,
    832                                                               uint8 status, uint8 capacity, uint8 sceneCnt, uint8 *sceneList,
    833                                                               uint16 groupID, uint8 disableDefaultRsp, uint8 seqNum )
    834          {
    835            uint8 *buf;
    836            uint8 *pBuf;
    837            uint8 len = 1 + 1 + 2; // Status + Capacity + Group ID;
    838            uint8 i;
    839            ZStatus_t stat;
    840          
    841            if ( status == ZCL_STATUS_SUCCESS )
    842            {
    843              len++; // Scene Count
    844              len += sceneCnt; // Scene List (Scene ID is a single octet)
    845            }
    846          
    847            buf = zcl_mem_alloc( len );
    848            if ( buf )
    849            {
    850              pBuf = buf;
    851              *pBuf++ = status;
    852              *pBuf++ = capacity;
    853              *pBuf++ = LO_UINT16( groupID );
    854              *pBuf++ = HI_UINT16( groupID );
    855              if ( status == ZCL_STATUS_SUCCESS )
    856              {
    857                *pBuf++ = sceneCnt;
    858                for ( i = 0; i < sceneCnt; i++ )
    859                  *pBuf++ = sceneList[i];
    860              }
    861          
    862              stat = zcl_SendCommand( srcEP, dstAddr, ZCL_CLUSTER_ID_GEN_SCENES,
    863                                      COMMAND_SCENE_GET_MEMBERSHIP_RSP, TRUE,
    864                                      ZCL_FRAME_SERVER_CLIENT_DIR, disableDefaultRsp, 0, seqNum, len, buf );
    865              zcl_mem_free( buf );
    866            }
    867            else
    868              stat = ZMemError;
    869          
    870            return ( stat );
    871          }
    872          
    873          #ifdef ZCL_LIGHT_LINK_ENHANCE
    874          /*********************************************************************
    875           * @fn      zclGeneral_SendSceneCopy
    876           *
    877           * @brief   Send Scene Copy Request to a device
    878           *
    879           * @param   srcEP - sending application's endpoint
    880           * @param   dstAddr - where to send the request
    881           * @param   mode - how scene copy is to proceed
    882           * @param   groupIDFrom - group from which scene to be copied
    883           * @param   sceneIDFrom - scene from which scene to be copied
    884           * @param   groupIDTo - group to which scene to be copied
    885           * @param   sceneIDTo - scene to which scene to be copied
    886           * @param   disableDefaultRsp - disable Default Response command
    887           * @param   seqNum - the identification number for the transaction
    888           *
    889           * @return  ZStatus_t
    890           */
    891          ZStatus_t zclGeneral_SendSceneCopy( uint8 srcEP, afAddrType_t *dstAddr,
    892                                              uint8 mode, uint16 groupIDFrom, uint8 sceneIDFrom,
    893                                              uint16 groupIDTo, uint8 sceneIDTo,
    894                                              uint8 disableDefaultRsp, uint8 seqNum )
    895          {
    896            uint8 buf[7];
    897          
    898            buf[0] = mode;
    899            buf[1] = LO_UINT16( groupIDFrom );
    900            buf[2] = HI_UINT16( groupIDFrom );
    901            buf[3] = sceneIDFrom;
    902            buf[4] = LO_UINT16( groupIDTo );
    903            buf[5] = HI_UINT16( groupIDTo );
    904            buf[6] = sceneIDTo;
    905          
    906            return ( zcl_SendCommand( srcEP, dstAddr, ZCL_CLUSTER_ID_GEN_SCENES,
    907                                      COMMAND_SCENE_COPY, TRUE, ZCL_FRAME_CLIENT_SERVER_DIR,
    908                                      disableDefaultRsp, 0, seqNum, 7, buf ) );
    909          }
    910          
    911          /*********************************************************************
    912           * @fn      zclGeneral_SendSceneCopyResponse
    913           *
    914           * @brief   Send Scene Copy Response to a device
    915           *
    916           * @param   srcEP - sending application's endpoint
    917           * @param   dstAddr - where to send the request
    918           * @param   status - status of copy scene attemp
    919           * @param   groupIDFrom - group from which scene was copied
    920           * @param   sceneIDFrom - scene from which scene was copied
    921           * @param   disableDefaultRsp - disable Default Response command
    922           * @param   seqNum - the identification number for the transaction
    923           *
    924           * @return  ZStatus_t
    925           */
    926          ZStatus_t zclGeneral_SendSceneCopyResponse( uint8 srcEP, afAddrType_t *dstAddr,
    927                                                      uint8 status, uint16 groupIDFrom, uint8 sceneIDFrom,
    928                                                      uint8 disableDefaultRsp, uint8 seqNum )
    929          {
    930            uint8 buf[4];
    931          
    932            buf[0] = status;
    933            buf[1] = LO_UINT16( groupIDFrom );
    934            buf[2] = HI_UINT16( groupIDFrom );
    935            buf[3] = sceneIDFrom;
    936          
    937            return ( zcl_SendCommand( srcEP, dstAddr, ZCL_CLUSTER_ID_GEN_SCENES,
    938                                      COMMAND_SCENE_COPY_RSP, TRUE, ZCL_FRAME_SERVER_CLIENT_DIR,
    939                                      disableDefaultRsp, 0, seqNum, 4, buf ) );
    940          }
    941          #endif // ZCL_LIGHT_LINK_ENHANCE
    942          #endif // ZCL_SCENES
    943          
    944          #ifdef ZCL_ON_OFF
    945          #ifdef ZCL_LIGHT_LINK_ENHANCE
    946          /*********************************************************************
    947           * @fn      zclGeneral_SendOnOff_CmdOffWithEffect
    948           *
    949           * @brief   Call to send out an Off with Effect Command.
    950           *
    951           * @param   srcEP - Sending application's endpoint
    952           * @param   dstAddr - where you want the message to go
    953           * @param   effectId - fading effect to use when switching light off
    954           * @param   effectVariant - which variant of effect to be triggered
    955           * @param   disableDefaultRsp - whether to disable the Default Response command
    956           * @param   seqNum - sequence number
    957           *
    958           * @return  ZStatus_t
    959           */
    960          ZStatus_t zclGeneral_SendOnOff_CmdOffWithEffect( uint8 srcEP, afAddrType_t *dstAddr,
    961                                                           uint8 effectId, uint8 effectVariant,
    962                                                           uint8 disableDefaultRsp, uint8 seqNum )
    963          {
    964            uint8 buf[2];
    965          
    966            buf[0] = effectId;
    967            buf[1] = effectVariant;
    968          
    969            return zcl_SendCommand( srcEP, dstAddr, ZCL_CLUSTER_ID_GEN_ON_OFF,
    970                                    COMMAND_OFF_WITH_EFFECT, TRUE, ZCL_FRAME_CLIENT_SERVER_DIR,
    971                                    disableDefaultRsp, 0, seqNum, 2, buf );
    972          }
    973          
    974          /*********************************************************************
    975           * @fn      zclGeneral_SendOnOff_CmdOnWithTimedOff
    976           *
    977           * @brief   Call to send out an On with Timed Off Command.
    978           *
    979           * @param   srcEP - Sending application's endpoint
    980           * @param   dstAddr - where you want the message to go
    981           * @param   onOffCtrl - how the lamp is to be operated
    982           * @param   onTime - the length of time (in 1/10ths second) that the lamp is to remain on, before automatically turning off
    983           * @param   offWaitTime - the length of time (in 1/10ths second) that the lamp shall remain off, and guarded to prevent an on command turning the light back on.
    984           * @param   disableDefaultRsp - whether to disable the Default Response command
    985           * @param   seqNum - sequence number
    986           *
    987           * @return  ZStatus_t
    988           */
    989          ZStatus_t zclGeneral_SendOnOff_CmdOnWithTimedOff ( uint8 srcEP, afAddrType_t *dstAddr,
    990                                                             zclOnOffCtrl_t onOffCtrl, uint16 onTime, uint16 offWaitTime,
    991                                                             uint8 disableDefaultRsp, uint8 seqNum )
    992          {
    993            uint8 buf[5];
    994          
    995            buf[0] = onOffCtrl.byte;
    996            buf[1] = LO_UINT16( onTime );
    997            buf[2] = HI_UINT16( onTime );
    998            buf[3] = LO_UINT16( offWaitTime );
    999            buf[4] = HI_UINT16( offWaitTime );
   1000          
   1001            return zcl_SendCommand( srcEP, dstAddr, ZCL_CLUSTER_ID_GEN_ON_OFF,
   1002                                    COMMAND_ON_WITH_TIMED_OFF, TRUE, ZCL_FRAME_CLIENT_SERVER_DIR,
   1003                                    disableDefaultRsp, 0, seqNum, 5, buf );
   1004          }
   1005          #endif // ZCL_LIGHT_LINK_ENHANCE
   1006          #endif // ZCL_ON_OFF
   1007          
   1008          #ifdef ZCL_LEVEL_CTRL
   1009          /*********************************************************************
   1010           * @fn      zclGeneral_SendLevelControlMoveToLevelRequest
   1011           *
   1012           * @brief   Call to send out a Level Control Request. You can also use
   1013           *          the appropriate macro.
   1014           *
   1015           * @param   srcEP - Sending application's endpoint
   1016           * @param   dstAddr - where you want the message to go
   1017           * @param   cmd - one of the following:
   1018           *              COMMAND_LEVEL_MOVE_TO_LEVEL or
   1019           *              COMMAND_LEVEL_MOVE_TO_LEVEL_WITH_ON_OFF
   1020           * @param   level - what level to move to
   1021           * @param   transitionTime - how long to take to get to the level (in seconds)
   1022           *
   1023           * @return  ZStatus_t
   1024           */
   1025          ZStatus_t zclGeneral_SendLevelControlMoveToLevelRequest( uint8 srcEP, afAddrType_t *dstAddr,
   1026                                                                   uint8 cmd, uint8 level, uint16 transTime,
   1027                                                                   uint8 disableDefaultRsp, uint8 seqNum )
   1028          {
   1029            uint8 buf[3];
   1030          
   1031            buf[0] = level;
   1032            buf[1] = LO_UINT16( transTime );
   1033            buf[2] = HI_UINT16( transTime );
   1034          
   1035            return zcl_SendCommand( srcEP, dstAddr, ZCL_CLUSTER_ID_GEN_LEVEL_CONTROL,
   1036                                    cmd, TRUE, ZCL_FRAME_CLIENT_SERVER_DIR,
   1037                                    disableDefaultRsp, 0, seqNum, 3, buf );
   1038          }
   1039          
   1040          /*********************************************************************
   1041           * @fn      zclGeneral_SendLevelControlMoveRequest
   1042           *
   1043           * @brief   Call to send out a Level Control Request. You can also use
   1044           *          the appropriate macro.
   1045           *
   1046           * @param   srcEP - Sending application's endpoint
   1047           * @param   dstAddr - where you want the message to go
   1048           * @param   cmd - one of the following:
   1049           *              COMMAND_LEVEL_MOVE or
   1050           *              COMMAND_LEVEL_MOVE_WITH_ON_OFF
   1051           * @param   moveMode - LEVEL_MOVE_UP or
   1052           *                     LEVEL_MOVE_DOWN
   1053           * @param   rate - number of steps to take per second
   1054           *
   1055           * @return  ZStatus_t
   1056           */
   1057          ZStatus_t zclGeneral_SendLevelControlMoveRequest( uint8 srcEP, afAddrType_t *dstAddr,
   1058                                                            uint8 cmd, uint8 moveMode, uint8 rate,
   1059                                                            uint8 disableDefaultRsp, uint8 seqNum )
   1060          {
   1061            uint8 buf[2];
   1062          
   1063            buf[0] = moveMode;
   1064            buf[1] = rate;
   1065          
   1066            return zcl_SendCommand( srcEP, dstAddr, ZCL_CLUSTER_ID_GEN_LEVEL_CONTROL,
   1067                                    cmd, TRUE, ZCL_FRAME_CLIENT_SERVER_DIR,
   1068                                    disableDefaultRsp, 0, seqNum, 2, buf );
   1069          }
   1070          
   1071          /*********************************************************************
   1072           * @fn      zclGeneral_SendLevelControlStepRequest
   1073           *
   1074           * @brief   Call to send out a Level Control Request. You can also use
   1075           *          the appropriate macro.
   1076           *
   1077           * @param   srcEP - Sending application's endpoint
   1078           * @param   dstAddr - where you want the message to go
   1079           * @param   cmd - one of the following:
   1080           *              COMMAND_LEVEL_STEP
   1081           *              COMMAND_LEVEL_STEP_WITH_ON_OFF
   1082           * @param   stepMode - LEVEL_STEP_UP or
   1083           *                     LEVEL_STEP_DOWN
   1084           * @param   amount - number of levels to step
   1085           * @param   transitionTime - time, in 1/10ths of a second, to take to perform the step
   1086           *
   1087           * @return  ZStatus_t
   1088           */
   1089          ZStatus_t zclGeneral_SendLevelControlStepRequest( uint8 srcEP, afAddrType_t *dstAddr,
   1090                                                            uint8 cmd, uint8 stepMode, uint8 stepSize, uint16 transTime,
   1091                                                            uint8 disableDefaultRsp, uint8 seqNum )
   1092          {
   1093            uint8 buf[4];
   1094          
   1095            buf[0] = stepMode;
   1096            buf[1] = stepSize;
   1097            buf[2] = LO_UINT16( transTime );
   1098            buf[3] = HI_UINT16( transTime );
   1099          
   1100            return zcl_SendCommand( srcEP, dstAddr, ZCL_CLUSTER_ID_GEN_LEVEL_CONTROL,
   1101                                    cmd, TRUE, ZCL_FRAME_CLIENT_SERVER_DIR,
   1102                                    disableDefaultRsp, 0, seqNum, 4, buf );
   1103          }
   1104          
   1105          /*********************************************************************
   1106           * @fn      zclGeneral_SendLevelControlStepRequest
   1107           *
   1108           * @brief   Call to send out a Level Control Request. You can also use
   1109           *          the appropriate macro.
   1110           *
   1111           * @param   srcEP - Sending application's endpoint
   1112           * @param   dstAddr - where you want the message to go
   1113           * @param   cmd - one of the following:
   1114           *              COMMAND_LEVEL_STOP
   1115           *              COMMAND_LEVEL_STOP_WITH_ON_OFF
   1116           *
   1117           * @return  ZStatus_t
   1118           */
   1119          ZStatus_t zclGeneral_SendLevelControlStopRequest( uint8 srcEP, afAddrType_t *dstAddr, uint8 cmd,
   1120                                                            uint8 disableDefaultRsp, uint8 seqNum )
   1121          {
   1122            return zcl_SendCommand( srcEP, dstAddr, ZCL_CLUSTER_ID_GEN_LEVEL_CONTROL,
   1123                                    cmd, TRUE, ZCL_FRAME_CLIENT_SERVER_DIR,
   1124                                    disableDefaultRsp, 0, seqNum, 0, NULL );
   1125          }
   1126          #endif // ZCL_LEVEL_CTRL
   1127          
   1128          #ifdef ZCL_ALARMS
   1129          /*********************************************************************
   1130           * @fn      zclGeneral_SendAlarm
   1131           *
   1132           * @brief   Call to send out an Alarm Request Command
   1133           *
   1134           * @param   srcEP - Sending application's endpoint
   1135           * @param   dstAddr - where you want the message to go
   1136           * @param   cmd - COMMAND_ALARMS_ALARM
   1137           * @param   alarmCode - code for the cause of the alarm
   1138           * @param   clusterID - cluster whose attribute generate the alarm
   1139           *
   1140           * @return  ZStatus_t
   1141           */
   1142          ZStatus_t zclGeneral_SendAlarm( uint8 srcEP, afAddrType_t *dstAddr,
   1143                                          uint8 alarmCode, uint16 clusterID,
   1144                                          uint8 disableDefaultRsp, uint8 seqNum )
   1145          {
   1146            uint8 buf[3];
   1147          
   1148            buf[0] = alarmCode;
   1149            buf[1] = LO_UINT16( clusterID );
   1150            buf[2] = HI_UINT16( clusterID );
   1151          
   1152            return zcl_SendCommand( srcEP, dstAddr, ZCL_CLUSTER_ID_GEN_ALARMS,
   1153                                    COMMAND_ALARMS_ALARM, TRUE, ZCL_FRAME_SERVER_CLIENT_DIR,
   1154                                    disableDefaultRsp, 0, seqNum, 3, buf );
   1155          }
   1156          
   1157          /*********************************************************************
   1158           * @fn      zclGeneral_SendAlarmReset
   1159           *
   1160           * @brief   Call to send out an Alarm Reset Command
   1161           *
   1162           * @param   srcEP - Sending application's endpoint
   1163           * @param   dstAddr - where you want the message to go
   1164           * @param   alarmCode - code for the cause of the alarm
   1165           * @param   clusterID - cluster whose attribute generate the alarm
   1166           *
   1167           * @return  ZStatus_t
   1168          */
   1169          ZStatus_t zclGeneral_SendAlarmReset( uint8 srcEP, afAddrType_t *dstAddr,
   1170                                               uint8 alarmCode, uint16 clusterID,
   1171                                               uint8 disableDefaultRsp, uint8 seqNum )
   1172          {
   1173            uint8 buf[3];
   1174          
   1175            buf[0] = alarmCode;
   1176            buf[1] = LO_UINT16( clusterID );
   1177            buf[2] = HI_UINT16( clusterID );
   1178          
   1179            return zcl_SendCommand( srcEP, dstAddr, ZCL_CLUSTER_ID_GEN_ALARMS,
   1180                                    COMMAND_ALARMS_RESET, TRUE, ZCL_FRAME_CLIENT_SERVER_DIR,
   1181                                    disableDefaultRsp, 0, seqNum, 3, buf );
   1182          }
   1183          
   1184          /*********************************************************************
   1185           * @fn      zclGeneral_SendAlarmGetResponse
   1186           *
   1187           * @brief   Call to send out an Alarm Get Response Command
   1188           *
   1189           * @param   srcEP - Sending application's endpoint
   1190           * @param   dstAddr - where you want the message to go
   1191           * @param   status - SUCCESS or NOT_FOUND
   1192           * @param   alarmCode - code for the cause of the alarm
   1193           * @param   clusterID - cluster whose attribute generate the alarm
   1194           * @param   timeStamp - time at which the alarm occured
   1195           *
   1196           * @return  ZStatus_t
   1197           */
   1198          ZStatus_t zclGeneral_SendAlarmGetResponse( uint8 srcEP, afAddrType_t *dstAddr,
   1199                                                     uint8 status, uint8 alarmCode, uint16 clusterID,
   1200                                                     uint32 timeStamp, uint8 disableDefaultRsp, uint8 seqNum )
   1201          {
   1202            uint8 buf[8];
   1203            uint8 len = 1; // Status
   1204          
   1205            buf[0] = status;
   1206            if ( status == ZCL_STATUS_SUCCESS )
   1207            {
   1208              len += 1 + 2 + 4; // Alarm code + Cluster ID + Time stamp
   1209              buf[1] = alarmCode;
   1210              buf[2] = LO_UINT16( clusterID );
   1211              buf[3] = HI_UINT16( clusterID );
   1212              zcl_buffer_uint32( &buf[4], timeStamp );
   1213            }
   1214          
   1215            return zcl_SendCommand( srcEP, dstAddr, ZCL_CLUSTER_ID_GEN_ALARMS,
   1216                                    COMMAND_ALARMS_GET_RSP, TRUE, ZCL_FRAME_SERVER_CLIENT_DIR,
   1217                                    disableDefaultRsp, 0, seqNum, len, buf );
   1218          }
   1219          
   1220          #ifdef SE_UK_EXT
   1221          /*********************************************************************
   1222           * @fn      zclGeneral_SendAlarmGetEventLog
   1223           *
   1224           * @brief   Call to send out an Alarm Get Event Log Command
   1225           *
   1226           * @param   srcEP - Sending application's endpoint
   1227           * @param   dstAddr - where you want the message to go
   1228           * @param   pEventLog - pointer to Get Event Log Command
   1229           * @param   disableDefaultRsp - disable default response
   1230           * @param   seqNum - ZCL sequence number
   1231           *
   1232           * @return  ZStatus_t
   1233           */
   1234          ZStatus_t zclGeneral_SendAlarmGetEventLog( uint8 srcEP, afAddrType_t *dstAddr,
   1235                                                     zclGetEventLog_t *pEventLog,
   1236                                                     uint8 disableDefaultRsp, uint8 seqNum )
   1237          {
   1238            uint8 buf[10];
   1239          
   1240            buf[0] = pEventLog->logID;
   1241            zcl_buffer_uint32( &buf[1], pEventLog->startTime );
   1242            zcl_buffer_uint32( &buf[5], pEventLog->endTime );
   1243            buf[9] = pEventLog->numEvents;
   1244          
   1245            return zcl_SendCommand( srcEP, dstAddr, ZCL_CLUSTER_ID_GEN_ALARMS,
   1246                                    COMMAND_ALARMS_GET_EVENT_LOG, TRUE, ZCL_FRAME_SERVER_CLIENT_DIR,
   1247                                    disableDefaultRsp, 0, seqNum, 10, buf );
   1248          }
   1249          
   1250          /*********************************************************************
   1251           * @fn      zclGeneral_SendAlarmPublishEventLog
   1252           *
   1253           * @brief   Call to send out an Alarm Publish Event Log Command
   1254           *
   1255           * @param   srcEP - Sending application's endpoint
   1256           * @param   dstAddr - where you want the message to go
   1257           * @param   pEventLog - pointer to Publish Event Log Command
   1258           * @param   disableDefaultRsp - disable default response
   1259           * @param   seqNum - ZCL sequence number
   1260           *
   1261           * @return  ZStatus_t
   1262           */
   1263          ZStatus_t zclGeneral_SendAlarmPublishEventLog( uint8 srcEP, afAddrType_t *dstAddr,
   1264                                                         zclPublishEventLog_t *pEventLog,
   1265                                                         uint8 disableDefaultRsp, uint8 seqNum )
   1266          {
   1267            uint8 *buf;
   1268            uint8 *pBuf;
   1269            uint8 bufLen;
   1270          
   1271            // Log ID + Command Index + Total Commands + (numSubLogs * ( Event ID + Event Time))
   1272            bufLen = 1 + 1 + 1 + (pEventLog->numSubLogs * (1 + 4));
   1273          
   1274            buf = zcl_mem_alloc( bufLen );
   1275            if ( buf == NULL )
   1276            {
   1277              return (ZMemError);
   1278            }
   1279          
   1280            pBuf = buf;
   1281            *pBuf++ = pEventLog->logID;
   1282            *pBuf++ = pEventLog->cmdIndex;
   1283            *pBuf++ = pEventLog->totalCmds;
   1284          
   1285            for ( uint8 i = 0; i < pEventLog->numSubLogs; i++ )
   1286            {
   1287              zclEventLogPayload_t *pLogs = &(pEventLog->pLogs[i]);
   1288          
   1289              *pBuf++ = pLogs->eventId;
   1290              pBuf = zcl_buffer_uint32( pBuf, pLogs->eventTime );
   1291            }
   1292          
   1293            return zcl_SendCommand( srcEP, dstAddr, ZCL_CLUSTER_ID_GEN_ALARMS,
   1294                                    COMMAND_ALARMS_PUBLISH_EVENT_LOG, TRUE, ZCL_FRAME_CLIENT_SERVER_DIR,
   1295                                    disableDefaultRsp, 0, seqNum, bufLen, buf );
   1296          }
   1297          #endif // SE_UK_EXT
   1298          #endif // ZCL_ALARMS
   1299          
   1300          #ifdef ZCL_LOCATION
   1301          /*********************************************************************
   1302           * @fn      zclGeneral_SendLocationSetAbsolute
   1303           *
   1304           * @brief   Call to send out a Set Absolute Location Command
   1305           *
   1306           * @param   srcEP - Sending application's endpoint
   1307           * @param   dstAddr - where you want the message to go
   1308           * @param   absLoc - absolute location info
   1309           *
   1310           * @return  ZStatus_t
   1311           */
   1312          ZStatus_t zclGeneral_SendLocationSetAbsolute( uint8 srcEP, afAddrType_t *dstAddr,
   1313                                                        zclLocationAbsolute_t *absLoc,
   1314                                                        uint8 disableDefaultRsp, uint8 seqNum )
   1315          {
   1316             uint8 buf[10]; // 5 fields (2 octects each)
   1317          
   1318             buf[0] = LO_UINT16( absLoc->coordinate1 );
   1319             buf[1] = HI_UINT16( absLoc->coordinate1 );
   1320             buf[2] = LO_UINT16( absLoc->coordinate2 );
   1321             buf[3] = HI_UINT16( absLoc->coordinate2 );
   1322             buf[4] = LO_UINT16( absLoc->coordinate3 );
   1323             buf[5] = HI_UINT16( absLoc->coordinate3 );
   1324             buf[6] = LO_UINT16( absLoc->power );
   1325             buf[7] = HI_UINT16( absLoc->power );
   1326             buf[8] = LO_UINT16( absLoc->pathLossExponent );
   1327             buf[9] = HI_UINT16( absLoc->pathLossExponent );
   1328          
   1329             return zcl_SendCommand( srcEP, dstAddr, ZCL_CLUSTER_ID_GEN_LOCATION,
   1330                                     COMMAND_LOCATION_SET_ABSOLUTE, TRUE,
   1331                                     ZCL_FRAME_CLIENT_SERVER_DIR, disableDefaultRsp, 0, seqNum, 10, buf );
   1332          }
   1333          
   1334          /*********************************************************************
   1335           * @fn      zclGeneral_SendLocationSetDevCfg
   1336           *
   1337           * @brief   Call to send out a Set Device Configuration Command
   1338           *
   1339           * @param   srcEP - Sending application's endpoint
   1340           * @param   dstAddr - where you want the message to go
   1341           * @param   devCfg - device configuration info
   1342           *
   1343           * @return  ZStatus_t
   1344           */
   1345          ZStatus_t zclGeneral_SendLocationSetDevCfg( uint8 srcEP, afAddrType_t *dstAddr,
   1346                                                      zclLocationDevCfg_t *devCfg,
   1347                                                      uint8 disableDefaultRsp, uint8 seqNum )
   1348          {
   1349             uint8 buf[9];  // 4 fields (2 octects each) + 1 field with 1 octect
   1350          
   1351             buf[0] = LO_UINT16( devCfg->power );
   1352             buf[1] = HI_UINT16( devCfg->power );
   1353             buf[2] = LO_UINT16( devCfg->pathLossExponent );
   1354             buf[3] = HI_UINT16( devCfg->pathLossExponent );
   1355             buf[4] = LO_UINT16( devCfg->calcPeriod );
   1356             buf[5] = HI_UINT16( devCfg->calcPeriod );
   1357             buf[6] = devCfg->numMeasurements;
   1358             buf[7] = LO_UINT16( devCfg->reportPeriod );
   1359             buf[8] = HI_UINT16( devCfg->reportPeriod );
   1360          
   1361             return zcl_SendCommand( srcEP, dstAddr, ZCL_CLUSTER_ID_GEN_LOCATION,
   1362                                     COMMAND_LOCATION_SET_DEV_CFG, TRUE,
   1363                                     ZCL_FRAME_CLIENT_SERVER_DIR, disableDefaultRsp, 0, seqNum, 9, buf );
   1364          }
   1365          
   1366          /*********************************************************************
   1367           * @fn      zclGeneral_SendLocationGetDevCfg
   1368           *
   1369           * @brief   Call to send out a Get Device Configuration Command
   1370           *
   1371           * @param   srcEP - Sending application's endpoint
   1372           * @param   dstAddr - where you want the message to go
   1373           * @param   targetAddr - device for which location parameters are being requested
   1374           *
   1375           * @return  ZStatus_t
   1376           */
   1377          ZStatus_t zclGeneral_SendLocationGetDevCfg( uint8 srcEP, afAddrType_t *dstAddr,
   1378                                                      uint8 *targetAddr, uint8 disableDefaultRsp, uint8 seqNum )
   1379          {
   1380            uint8 buf[8];
   1381          
   1382            zcl_memcpy( buf, targetAddr, 8 );
   1383          
   1384            return zcl_SendCommand( srcEP, dstAddr, ZCL_CLUSTER_ID_GEN_LOCATION,
   1385                                    COMMAND_LOCATION_GET_DEV_CFG, TRUE,
   1386                                    ZCL_FRAME_CLIENT_SERVER_DIR, disableDefaultRsp, 0, seqNum, 8, buf );
   1387          }
   1388          
   1389          /*********************************************************************
   1390           * @fn      zclGeneral_SendLocationGetData
   1391           *
   1392           * @brief   Call to send out a Get Location Data Command
   1393           *
   1394           * @param   srcEP - Sending application's endpoint
   1395           * @param   dstAddr - where you want the message to go
   1396           * @param   locaData - location information and channel parameters that are requested.
   1397           *
   1398           * @return  ZStatus_t
   1399           */
   1400          ZStatus_t zclGeneral_SendLocationGetData( uint8 srcEP, afAddrType_t *dstAddr,
   1401                                                    zclLocationGetData_t *locData,
   1402                                                    uint8 disableDefaultRsp, uint8 seqNum )
   1403          {
   1404            uint8 buf[10]; // bitmap (1) + number responses (1) + IEEE Address (8)
   1405            uint8 *pBuf = buf;
   1406            uint8 len = 2; // bitmap + number responses
   1407          
   1408            *pBuf  = locData->absoluteOnly;
   1409            *pBuf |= locData->recalculate << 1;
   1410            *pBuf |= locData->brdcastIndicator << 2;
   1411            *pBuf |= locData->brdcastResponse << 3;
   1412            *pBuf |= locData->compactResponse << 4;
   1413            pBuf++;  // move past the bitmap field
   1414          
   1415            *pBuf++ = locData->numResponses;
   1416          
   1417            if ( locData->brdcastIndicator == 0 )
   1418            {
   1419              zcl_memcpy( pBuf, locData->targetAddr, 8 );
   1420              len += 8; // ieee addr
   1421            }
   1422          
   1423            return zcl_SendCommand( srcEP, dstAddr, ZCL_CLUSTER_ID_GEN_LOCATION,
   1424                                    COMMAND_LOCATION_GET_DATA, TRUE,
   1425                                    ZCL_FRAME_CLIENT_SERVER_DIR, disableDefaultRsp, 0, seqNum, len, buf );
   1426          }
   1427          
   1428          /*********************************************************************
   1429           * @fn      zclGeneral_SendLocationDevCfgResponse
   1430           *
   1431           * @brief   Call to send out a Device Configuration Response Command
   1432           *
   1433           * @param   srcEP - Sending application's endpoint
   1434           * @param   dstAddr - where you want the message to go
   1435           * @param   devCfg - device's location parameters that are requested
   1436           *
   1437           * @return  ZStatus_t
   1438           */
   1439          ZStatus_t zclGeneral_SendLocationDevCfgResponse( uint8 srcEP, afAddrType_t *dstAddr,
   1440                                                           zclLocationDevCfgRsp_t *devCfg,
   1441                                                           uint8 disableDefaultRsp, uint8 seqNum )
   1442          {
   1443            uint8 buf[10]; // 4 fields (2 octects each) + 2 fields (1 octect each)
   1444            uint8 len = 1; // Status
   1445          
   1446            buf[0] = devCfg->status;
   1447            if ( devCfg->status == ZCL_STATUS_SUCCESS )
   1448            {
   1449              buf[1] = LO_UINT16( devCfg->data.power );
   1450              buf[2] = HI_UINT16( devCfg->data.power );
   1451              buf[3] = LO_UINT16( devCfg->data.pathLossExponent );
   1452              buf[4] = HI_UINT16( devCfg->data.pathLossExponent );
   1453              buf[5] = LO_UINT16( devCfg->data.calcPeriod );
   1454              buf[6] = HI_UINT16( devCfg->data.calcPeriod );
   1455              buf[7] = devCfg->data.numMeasurements;
   1456              buf[8] = LO_UINT16( devCfg->data.reportPeriod );
   1457              buf[9] = HI_UINT16( devCfg->data.reportPeriod );
   1458              len += 9;
   1459            }
   1460          
   1461            return zcl_SendCommand( srcEP, dstAddr, ZCL_CLUSTER_ID_GEN_LOCATION,
   1462                                    COMMAND_LOCATION_DEV_CFG_RSP, TRUE,
   1463                                    ZCL_FRAME_SERVER_CLIENT_DIR, disableDefaultRsp, 0, seqNum, len, buf );
   1464          }
   1465          
   1466          /*********************************************************************
   1467           * @fn      zclGeneral_SendLocationData
   1468           *
   1469           * @brief   Call to send out location data
   1470           *
   1471           * @param   srcEP - Sending application's endpoint
   1472           * @param   dstAddr - where you want the message to go
   1473           * @param   status - indicates whether response to request was successful or not
   1474           * @param   locData - location information and channel parameters being sent
   1475           *
   1476           * @return  ZStatus_t
   1477           */
   1478          ZStatus_t zclGeneral_SendLocationData( uint8 srcEP, afAddrType_t *dstAddr, uint8 cmd,
   1479                                                 uint8 status, zclLocationData_t *locData,
   1480                                                 uint8 disableDefaultRsp, uint8 seqNum )
   1481          {
   1482            uint8 buf[16];
   1483            uint8 *pBuf = buf;
   1484            uint8 len = 0;
   1485          
   1486            if ( cmd == COMMAND_LOCATION_DATA_RSP )
   1487            {
   1488              // Only response command includes a status field
   1489              *pBuf++ = status;
   1490              len++;
   1491            }
   1492          
   1493            if ( cmd != COMMAND_LOCATION_DATA_RSP || status == ZCL_STATUS_SUCCESS )
   1494            {
   1495              // Notification or Response with successful status
   1496              *pBuf++ = locData->type;
   1497              *pBuf++ = LO_UINT16( locData->absLoc.coordinate1 );
   1498              *pBuf++ = HI_UINT16( locData->absLoc.coordinate1 );
   1499              *pBuf++ = LO_UINT16( locData->absLoc.coordinate2 );
   1500              *pBuf++ = HI_UINT16( locData->absLoc.coordinate2 );
   1501              len += 5;
   1502          
   1503              if ( locationType2D(locData->type) == 0 )
   1504              {
   1505                // 2D location doesn't have coordinate 3
   1506                *pBuf++ = LO_UINT16( locData->absLoc.coordinate3 );
   1507                *pBuf++ = HI_UINT16( locData->absLoc.coordinate3 );
   1508                len += 2;
   1509              }
   1510          
   1511              if ( cmd != COMMAND_LOCATION_COMPACT_DATA_NOTIF )
   1512              {
   1513                // Compact notification doesn't include these fields
   1514                *pBuf++ = LO_UINT16( locData->absLoc.power );
   1515                *pBuf++ = HI_UINT16( locData->absLoc.power );
   1516                *pBuf++ = LO_UINT16( locData->absLoc.pathLossExponent );
   1517                *pBuf++ = HI_UINT16( locData->absLoc.pathLossExponent );
   1518                len += 4;
   1519              }
   1520          
   1521              if ( locationTypeAbsolute(locData->type) == 0 )
   1522              {
   1523                // Absolute location doesn't include these fields
   1524                if ( cmd != COMMAND_LOCATION_COMPACT_DATA_NOTIF )
   1525                {
   1526                  // Compact notification doesn't include this field
   1527                  *pBuf++ = locData->calcLoc.locationMethod;
   1528                  len++;
   1529                }
   1530          
   1531                *pBuf++ = locData->calcLoc.qualityMeasure;
   1532                *pBuf++ = LO_UINT16( locData->calcLoc.locationAge );
   1533                *pBuf++ = HI_UINT16( locData->calcLoc.locationAge );
   1534                len += 3;
   1535              }
   1536            }
   1537          
   1538            return zcl_SendCommand( srcEP, dstAddr, ZCL_CLUSTER_ID_GEN_LOCATION,
   1539                                    cmd, TRUE, ZCL_FRAME_SERVER_CLIENT_DIR,
   1540                                    disableDefaultRsp, 0, seqNum, len, buf );
   1541          }
   1542          #endif // ZCL_LOCATION
   1543          
   1544          /*********************************************************************
   1545           * @fn      zclGeneral_FindCallbacks
   1546           *
   1547           * @brief   Find the callbacks for an endpoint
   1548           *
   1549           * @param   endpoint - endpoint to find the application callbacks for
   1550           *
   1551           * @return  pointer to the callbacks
   1552           */
   1553          static zclGeneral_AppCallbacks_t *zclGeneral_FindCallbacks( uint8 endpoint )
   1554          {
   1555            zclGenCBRec_t *pCBs;
   1556          
   1557            pCBs = zclGenCBs;
   1558            while ( pCBs )
   1559            {
   1560              if ( pCBs->endpoint == endpoint )
   1561                return ( pCBs->CBs );
   1562              pCBs = pCBs->next;
   1563            }
   1564            return ( (zclGeneral_AppCallbacks_t *)NULL );
   1565          }
   1566          
   1567          /*********************************************************************
   1568           * @fn      zclGeneral_HdlIncoming
   1569           *
   1570           * @brief   Callback from ZCL to process incoming Commands specific
   1571           *          to this cluster library or Profile commands for attributes
   1572           *          that aren't in the attribute list
   1573           *
   1574           *
   1575           * @param   pInMsg - pointer to the incoming message
   1576           *
   1577           * @return  ZStatus_t
   1578           */

   \                                 In  segment BANKED_CODE, align 1, keep-with-next
   1579          static ZStatus_t zclGeneral_HdlIncoming( zclIncoming_t *pInMsg )
   \                     zclGeneral_HdlIncoming:
   1580          {
   \   000000   C082         PUSH      DPL
   \   000002   C083         PUSH      DPH
   \   000004                ; Saved register size: 2
   \   000004                ; Auto size: 0
   1581            ZStatus_t stat = ZSuccess;
   1582          
   1583          #if defined ( INTER_PAN )
   1584            if ( StubAPS_InterPan( pInMsg->msg->srcAddr.panId, pInMsg->msg->srcAddr.endPoint ) )
   1585              return ( stat ); // Cluster not supported thru Inter-PAN
   1586          #endif
   1587            if ( zcl_ClusterCmd( pInMsg->hdr.fc.type ) )
   \   000004   8A82         MOV       DPL,R2
   \   000006   8B83         MOV       DPH,R3
   \   000008   A3           INC       DPTR
   \   000009   A3           INC       DPTR
   \   00000A   E0           MOVX      A,@DPTR
   \   00000B   5407         ANL       A,#0x7
   \   00000D   6401         XRL       A,#0x1
   \   00000F   7007         JNZ       ??zclGeneral_HdlIncoming_0
   1588            {
   1589              // Is this a manufacturer specific command?
   1590              if ( pInMsg->hdr.fc.manuSpecific == 0 )
   1591              {
   1592                stat = zclGeneral_HdlInSpecificCommands( pInMsg );
   \   000011                ; Setup parameters for call to function zclGeneral_HdlInSpecificCommands
   \   000011   12....       LCALL     `??zclGeneral_HdlInSpecificCommands::?relay`; Banked call to: zclGeneral_HdlInSpecificCommands
   \   000014   E9           MOV       A,R1
   \   000015   F9           MOV       R1,A
   \   000016   8002         SJMP      ??zclGeneral_HdlIncoming_1
   1593              }
   1594              else
   1595              {
   1596                // We don't support any manufacturer specific command.
   1597                stat = ZFailure;
   1598              }
   1599            }
   1600            else
   1601            {
   1602              // Handle all the normal (Read, Write...) commands -- should never get here
   1603              stat = ZFailure;
   \                     ??zclGeneral_HdlIncoming_0:
   \   000018   7901         MOV       R1,#0x1
   1604            }
   1605            return ( stat );
   \                     ??zclGeneral_HdlIncoming_1:
   \   00001A   D083         POP       DPH
   \   00001C   D082         POP       DPL
   \   00001E   02....       LJMP      ?BRET
   1606          }
   1607          
   1608          /*********************************************************************
   1609           * @fn      zclGeneral_HdlInSpecificCommands
   1610           *
   1611           * @brief   Callback from ZCL to process incoming Commands specific
   1612           *          to this cluster library
   1613          
   1614           * @param   pInMsg - pointer to the incoming message
   1615           *
   1616           * @return  ZStatus_t
   1617           */

   \                                 In  segment BANKED_CODE, align 1, keep-with-next
   1618          static ZStatus_t zclGeneral_HdlInSpecificCommands( zclIncoming_t *pInMsg )
   \                     zclGeneral_HdlInSpecificCommands:
   1619          {
   \   000000                REQUIRE ?V0
   \   000000                REQUIRE ?V1
   \   000000   74F6         MOV       A,#-0xa
   \   000002   12....       LCALL     ?BANKED_ENTER_XDATA
   \   000005                ; Saved register size: 10
   \   000005                ; Auto size: 0
   1620            ZStatus_t stat;
   1621            zclGeneral_AppCallbacks_t *pCBs;
   1622          
   1623            // make sure endpoint exists
   1624            pCBs = zclGeneral_FindCallbacks( pInMsg->msg->endPoint );
   \   000005   8A82         MOV       DPL,R2
   \   000007   8B83         MOV       DPH,R3
   \   000009   12....       LCALL     ?Subroutine14 & 0xFFFF
   \                     ??CrossCallReturnLabel_32:
   \   00000C   FE           MOV       R6,A
   \   00000D   E9           MOV       A,R1
   \   00000E   FF           MOV       R7,A
   \   00000F   EE           MOV       A,R6
   \   000010   12....       LCALL     ?Subroutine30 & 0xFFFF
   \                     ??CrossCallReturnLabel_101:
   \   000013   3F           ADDC      A,R7
   \   000014   F583         MOV       DPH,A
   \   000016   E0           MOVX      A,@DPTR
   \   000017   FC           MOV       R4,A
   \   000018   90....       MOV       DPTR,#zclGenCBs
   \                     ??zclGeneral_HdlInSpecificCommands_0:
   \   00001B   12....       LCALL     ?Subroutine13 & 0xFFFF
   \                     ??CrossCallReturnLabel_27:
   \   00001E   6055         JZ        ??zclGeneral_HdlInSpecificCommands_1
   \   000020   8882         MOV       DPL,R0
   \   000022   8983         MOV       DPH,R1
   \   000024   A3           INC       DPTR
   \   000025   A3           INC       DPTR
   \   000026   E0           MOVX      A,@DPTR
   \   000027   6C           XRL       A,R4
   \   000028   8882         MOV       DPL,R0
   \   00002A   8983         MOV       DPH,R1
   \   00002C   70ED         JNZ       ??zclGeneral_HdlInSpecificCommands_0
   \   00002E   A3           INC       DPTR
   \   00002F   A3           INC       DPTR
   \   000030   A3           INC       DPTR
   \   000031   12....       LCALL     ??Subroutine36_0 & 0xFFFF
   \                     ??CrossCallReturnLabel_80:
   \   000034   FD           MOV       R5,A
   1625            if ( pCBs == NULL )
   \   000035   EC           MOV       A,R4
   \   000036   4D           ORL       A,R5
   \   000037   603C         JZ        ??zclGeneral_HdlInSpecificCommands_1
   1626              return ( ZFailure );
   1627          
   1628            switch ( pInMsg->msg->clusterId )
   \   000039   8E82         MOV       DPL,R6
   \   00003B   8F83         MOV       DPH,R7
   \   00003D   A3           INC       DPTR
   \   00003E   A3           INC       DPTR
   \   00003F   A3           INC       DPTR
   \   000040   A3           INC       DPTR
   \   000041   12....       LCALL     ?Subroutine15 & 0xFFFF
   \                     ??CrossCallReturnLabel_35:
   \   000044   78..         MOV       R0,#?V0
   \   000046   12....       LCALL     ?US_SWITCH_DENSE
   \                     `?<Jumptable for zclGeneral_HdlInSpecificComman_0`:
   \   000049   0000         DW        0
   \   00004B   06           DB        6
   \   00004C   ....         DW        ??zclGeneral_HdlInSpecificCommands_1
   \   00004E   ....         DW        ??zclGeneral_HdlInSpecificCommands_2
   \   000050   ....         DW        ??zclGeneral_HdlInSpecificCommands_1
   \   000052   ....         DW        ??zclGeneral_HdlInSpecificCommands_1
   \   000054   ....         DW        ??zclGeneral_HdlInSpecificCommands_3
   \   000056   ....         DW        ??zclGeneral_HdlInSpecificCommands_4
   \   000058   ....         DW        ??zclGeneral_HdlInSpecificCommands_1
   \   00005A   ....         DW        ??zclGeneral_HdlInSpecificCommands_5
   1629            {
   1630          #ifdef ZCL_BASIC
   1631              case ZCL_CLUSTER_ID_GEN_BASIC:
   1632                stat = zclGeneral_ProcessInBasic( pInMsg, pCBs );
   \                     ??zclGeneral_HdlInSpecificCommands_2:
   \   00005C   8A82         MOV       DPL,R2
   \   00005E   8B83         MOV       DPH,R3
   \   000060   A3           INC       DPTR
   \   000061   A3           INC       DPTR
   \   000062   E0           MOVX      A,@DPTR
   \   000063   5408         ANL       A,#0x8
   \   000065   701E         JNZ       ??zclGeneral_HdlInSpecificCommands_6
   \   000067   8A82         MOV       DPL,R2
   \   000069   8B83         MOV       DPH,R3
   \   00006B   A3           INC       DPTR
   \   00006C   A3           INC       DPTR
   \   00006D   A3           INC       DPTR
   \   00006E   A3           INC       DPTR
   \   00006F   A3           INC       DPTR
   \   000070   A3           INC       DPTR
   \   000071   A3           INC       DPTR
   \   000072   E0           MOVX      A,@DPTR
   \   000073   6004         JZ        ??zclGeneral_HdlInSpecificCommands_7
   \                     ??zclGeneral_HdlInSpecificCommands_1:
   \   000075   7901         MOV       R1,#0x1
   \   000077   8065         SJMP      ??zclGeneral_HdlInSpecificCommands_8
   \                     ??zclGeneral_HdlInSpecificCommands_7:
   \   000079   8C82         MOV       DPL,R4
   \   00007B   8D83         MOV       DPH,R5
   \   00007D   12....       LCALL     ?Subroutine12 & 0xFFFF
   \                     ??CrossCallReturnLabel_25:
   \   000080   6003         JZ        ??zclGeneral_HdlInSpecificCommands_6
   \   000082                ; Setup parameters for indirect call
   \   000082   12....       LCALL     ?CALL_IND
   \                     ??zclGeneral_HdlInSpecificCommands_6:
   \   000085   7900         MOV       R1,#0x0
   \   000087   8055         SJMP      ??zclGeneral_HdlInSpecificCommands_8
   1633                break;
   1634          #endif // ZCL_BASIC
   1635          
   1636          #ifdef ZCL_IDENTIFY
   1637              case ZCL_CLUSTER_ID_GEN_IDENTIFY:
   1638                stat = zclGeneral_ProcessInIdentity( pInMsg, pCBs );
   \                     ??zclGeneral_HdlInSpecificCommands_3:
   \   000089                ; Setup parameters for call to function zclGeneral_ProcessInIdentity
   \   000089   12....       LCALL     `??zclGeneral_ProcessInIdentity::?relay`; Banked call to: zclGeneral_ProcessInIdentity
   \   00008C   8013         SJMP      ??zclGeneral_HdlInSpecificCommands_9
   1639                break;
   1640          #endif // ZCL_IDENTIFY
   1641          
   1642          #ifdef ZCL_GROUPS
   1643              case ZCL_CLUSTER_ID_GEN_GROUPS:
   1644                if ( zcl_ServerCmd( pInMsg->hdr.fc.direction ) )
   \                     ??zclGeneral_HdlInSpecificCommands_4:
   \   00008E   8A82         MOV       DPL,R2
   \   000090   8B83         MOV       DPH,R3
   \   000092   A3           INC       DPTR
   \   000093   A3           INC       DPTR
   \   000094   E0           MOVX      A,@DPTR
   \   000095   5408         ANL       A,#0x8
   \   000097   7005         JNZ       ??zclGeneral_HdlInSpecificCommands_10
   1645                  stat = zclGeneral_ProcessInGroupsServer( pInMsg );
   \   000099                ; Setup parameters for call to function zclGeneral_ProcessInGroupsServer
   \   000099   12....       LCALL     `??zclGeneral_ProcessInGroupsServer::?relay`; Banked call to: zclGeneral_ProcessInGroupsServer
   \   00009C   8003         SJMP      ??zclGeneral_HdlInSpecificCommands_9
   1646                else
   1647                  stat = zclGeneral_ProcessInGroupsClient( pInMsg, pCBs );
   \                     ??zclGeneral_HdlInSpecificCommands_10:
   \   00009E                ; Setup parameters for call to function zclGeneral_ProcessInGroupsClient
   \   00009E   12....       LCALL     `??zclGeneral_ProcessInGroupsClient::?relay`; Banked call to: zclGeneral_ProcessInGroupsClient
   \                     ??zclGeneral_HdlInSpecificCommands_9:
   \   0000A1   E9           MOV       A,R1
   \   0000A2   8039         SJMP      ??zclGeneral_HdlInSpecificCommands_11
   1648                break;
   1649          #endif // ZCL_GROUPS
   1650          
   1651          #ifdef ZCL_SCENES
   1652              case ZCL_CLUSTER_ID_GEN_SCENES:
   1653                if ( zcl_ServerCmd( pInMsg->hdr.fc.direction ) )
   1654                  stat = zclGeneral_ProcessInScenesServer( pInMsg, pCBs );
   1655                else
   1656                  stat = zclGeneral_ProcessInScenesClient( pInMsg, pCBs );
   1657                break;
   1658          #endif // ZCL_SCENES
   1659          
   1660          #ifdef ZCL_ON_OFF
   1661              case ZCL_CLUSTER_ID_GEN_ON_OFF:
   1662                stat = zclGeneral_ProcessInOnOff( pInMsg, pCBs );
   \                     ??zclGeneral_HdlInSpecificCommands_5:
   \   0000A4   7E00         MOV       R6,#0x0
   \   0000A6   8A82         MOV       DPL,R2
   \   0000A8   8B83         MOV       DPH,R3
   \   0000AA   A3           INC       DPTR
   \   0000AB   A3           INC       DPTR
   \   0000AC   E0           MOVX      A,@DPTR
   \   0000AD   5408         ANL       A,#0x8
   \   0000AF   702B         JNZ       ??zclGeneral_HdlInSpecificCommands_12
   \   0000B1   8A82         MOV       DPL,R2
   \   0000B3   8B83         MOV       DPH,R3
   \   0000B5   A3           INC       DPTR
   \   0000B6   A3           INC       DPTR
   \   0000B7   A3           INC       DPTR
   \   0000B8   A3           INC       DPTR
   \   0000B9   A3           INC       DPTR
   \   0000BA   A3           INC       DPTR
   \   0000BB   A3           INC       DPTR
   \   0000BC   E0           MOVX      A,@DPTR
   \   0000BD   FA           MOV       R2,A
   \   0000BE   6006         JZ        ??zclGeneral_HdlInSpecificCommands_13
   \   0000C0   14           DEC       A
   \   0000C1   6003         JZ        ??zclGeneral_HdlInSpecificCommands_13
   \   0000C3   14           DEC       A
   \   0000C4   7014         JNZ       ??zclGeneral_HdlInSpecificCommands_14
   \                     ??zclGeneral_HdlInSpecificCommands_13:
   \   0000C6   8C82         MOV       DPL,R4
   \   0000C8   8D83         MOV       DPH,R5
   \   0000CA   A3           INC       DPTR
   \   0000CB   A3           INC       DPTR
   \   0000CC   A3           INC       DPTR
   \   0000CD   A3           INC       DPTR
   \   0000CE   12....       LCALL     ?Subroutine12 & 0xFFFF
   \                     ??CrossCallReturnLabel_26:
   \   0000D1   6009         JZ        ??zclGeneral_HdlInSpecificCommands_12
   \   0000D3                ; Setup parameters for indirect call
   \   0000D3   EA           MOV       A,R2
   \   0000D4   F9           MOV       R1,A
   \   0000D5   12....       LCALL     ?CALL_IND
   \   0000D8   8002         SJMP      ??zclGeneral_HdlInSpecificCommands_12
   \                     ??zclGeneral_HdlInSpecificCommands_14:
   \   0000DA   7E01         MOV       R6,#0x1
   \                     ??zclGeneral_HdlInSpecificCommands_12:
   \   0000DC   EE           MOV       A,R6
   \                     ??zclGeneral_HdlInSpecificCommands_11:
   \   0000DD   F9           MOV       R1,A
   1663                break;
   1664          #endif // ZCL_ON_OFF
   1665          
   1666          #ifdef ZCL_LEVEL_CTRL
   1667              case ZCL_CLUSTER_ID_GEN_LEVEL_CONTROL:
   1668                stat = zclGeneral_ProcessInLevelControl( pInMsg, pCBs );
   1669                break;
   1670          #endif // ZCL_LEVEL_CTRL
   1671          
   1672          #ifdef ZCL_ALARMS
   1673              case ZCL_CLUSTER_ID_GEN_ALARMS:
   1674                if ( zcl_ServerCmd( pInMsg->hdr.fc.direction ) )
   1675                  stat = zclGeneral_ProcessInAlarmsServer( pInMsg, pCBs );
   1676                else
   1677                  stat = zclGeneral_ProcessInAlarmsClient( pInMsg, pCBs );
   1678                break;
   1679          #endif // ZCL_ALARMS
   1680          
   1681          #ifdef ZCL_LOCATION
   1682              case ZCL_CLUSTER_ID_GEN_LOCATION:
   1683                if ( zcl_ServerCmd( pInMsg->hdr.fc.direction ) )
   1684                  stat = zclGeneral_ProcessInLocationServer( pInMsg, pCBs );
   1685                else
   1686                  stat = zclGeneral_ProcessInLocationClient( pInMsg, pCBs );
   1687                break;
   1688          #endif // ZCL_LOCATION
   1689          
   1690              case ZCL_CLUSTER_ID_GEN_POWER_CFG:
   1691              case ZCL_CLUSTER_ID_GEN_DEVICE_TEMP_CONFIG:
   1692              case ZCL_CLUSTER_ID_GEN_ON_OFF_SWITCH_CONFIG:
   1693              case ZCL_CLUSTER_ID_GEN_TIME:
   1694              default:
   1695                stat = ZFailure;
   1696                break;
   1697            }
   1698          
   1699            return ( stat );
   \                     ??zclGeneral_HdlInSpecificCommands_8:
   \   0000DE   02....       LJMP      ??Subroutine32_0 & 0xFFFF
   1700          }

   \                                 In  segment BANKED_CODE, align 1, keep-with-next
   \                     ?Subroutine12:
   \   000000   12....       LCALL     ?Subroutine27 & 0xFFFF
   \                     ??CrossCallReturnLabel_58:
   \   000003   8882         MOV       DPL,R0
   \   000005   8983         MOV       DPH,R1
   \   000007   E582         MOV       A,DPL
   \   000009   4583         ORL       A,DPH
   \   00000B   22           RET

   \                                 In  segment BANKED_CODE, align 1, keep-with-next
   \                     ?Subroutine30:
   \   000000   2414         ADD       A,#0x14
   \   000002   F582         MOV       DPL,A
   \   000004   E4           CLR       A
   \   000005   22           RET
   1701          
   1702          #ifdef ZCL_BASIC
   1703          /*********************************************************************
   1704           * @fn      zclGeneral_ProcessInBasic
   1705           *
   1706           * @brief   Process in the received Basic Command.
   1707           *
   1708           * @param   pInMsg - pointer to the incoming message
   1709           *
   1710           * @return  ZStatus_t
   1711           */
   1712          static ZStatus_t zclGeneral_ProcessInBasic( zclIncoming_t *pInMsg,
   1713                                                      zclGeneral_AppCallbacks_t *pCBs )
   1714          {
   1715            if ( zcl_ServerCmd( pInMsg->hdr.fc.direction ) )
   1716            {
   1717              if ( pInMsg->hdr.commandID > COMMAND_BASIC_RESET_FACT_DEFAULT )
   1718                return ( ZFailure );   // Error ignore the command
   1719          
   1720              if ( pCBs->pfnBasicReset )
   1721                pCBs->pfnBasicReset();
   1722            }
   1723            // no Client command
   1724          
   1725            return ( ZSuccess );
   1726          }
   1727          #endif // ZCL_BASIC
   1728          
   1729          #ifdef ZCL_IDENTIFY
   1730          /*********************************************************************
   1731           * @fn      zclGeneral_ProcessInIdentity
   1732           *
   1733           * @brief   Process in the received Identity Command.
   1734           *
   1735           * @param   pInMsg - pointer to the incoming message
   1736           *
   1737           * @return  ZStatus_t
   1738           */

   \                                 In  segment BANKED_CODE, align 1, keep-with-next
   \                     ?Subroutine10:
   \   000000   A3           INC       DPTR
   \   000001   A3           INC       DPTR
   \   000002   A3           INC       DPTR
   \   000003   A3           INC       DPTR
   \   000004                REQUIRE ??Subroutine35_0
   \   000004                ; // Fall through to label ??Subroutine35_0

   \                                 In  segment BANKED_CODE, align 1, keep-with-next
   \                     ?Subroutine18:
   \   000000   8A82         MOV       DPL,R2
   \   000002   8B83         MOV       DPH,R3
   \   000004                REQUIRE ??Subroutine36_0
   \   000004                ; // Fall through to label ??Subroutine36_0

   \                                 In  segment BANKED_CODE, align 1, keep-with-next
   1739          static ZStatus_t zclGeneral_ProcessInIdentity( zclIncoming_t *pInMsg,
   \                     zclGeneral_ProcessInIdentity:
   1740                                                         zclGeneral_AppCallbacks_t *pCBs )
   1741          {
   \   000000                REQUIRE ?V0
   \   000000                REQUIRE ?V1
   \   000000                REQUIRE ?V2
   \   000000                REQUIRE ?V3
   \   000000   74F4         MOV       A,#-0xc
   \   000002   12....       LCALL     ?BANKED_ENTER_XDATA
   \   000005                ; Saved register size: 12
   \   000005                ; Auto size: 6
   \   000005   74FA         MOV       A,#-0x6
   \   000007   12....       LCALL     ?ALLOC_XSTACK8
   \   00000A   EA           MOV       A,R2
   \   00000B   FE           MOV       R6,A
   \   00000C   EB           MOV       A,R3
   \   00000D   FF           MOV       R7,A
   1742            if ( zcl_ServerCmd( pInMsg->hdr.fc.direction ) )
   \   00000E   8E82         MOV       DPL,R6
   \   000010   8F83         MOV       DPH,R7
   \   000012   A3           INC       DPTR
   \   000013   A3           INC       DPTR
   \   000014   A3           INC       DPTR
   \   000015   A3           INC       DPTR
   \   000016   A3           INC       DPTR
   \   000017   A3           INC       DPTR
   \   000018   A3           INC       DPTR
   \   000019   E0           MOVX      A,@DPTR
   \   00001A   F8           MOV       R0,A
   \   00001B   8E82         MOV       DPL,R6
   \   00001D   8F83         MOV       DPH,R7
   \   00001F   A3           INC       DPTR
   \   000020   A3           INC       DPTR
   \   000021   E0           MOVX      A,@DPTR
   \   000022   5408         ANL       A,#0x8
   \   000024   6003         JZ        $+5
   \   000026   02....       LJMP      ??zclGeneral_ProcessInIdentity_0 & 0xFFFF
   1743            {
   1744              if ( pInMsg->hdr.commandID == COMMAND_IDENTIFY )
   \   000029   E8           MOV       A,R0
   \   00002A   7021         JNZ       ??zclGeneral_ProcessInIdentity_1
   1745              {
   1746                uint16 identifyTime;
   1747                
   1748                identifyTime = BUILD_UINT16( pInMsg->pData[0], pInMsg->pData[1] );
   1749                
   1750                bdb_ZclIdentifyCmdInd( identifyTime, pInMsg->msg->endPoint);
   \   00002C   8E82         MOV       DPL,R6
   \   00002E   8F83         MOV       DPH,R7
   \   000030   A3           INC       DPTR
   \   000031   A3           INC       DPTR
   \   000032   A3           INC       DPTR
   \   000033   A3           INC       DPTR
   \   000034   A3           INC       DPTR
   \   000035   A3           INC       DPTR
   \   000036   A3           INC       DPTR
   \   000037   A3           INC       DPTR
   \   000038   12....       LCALL     ?Subroutine14 & 0xFFFF
   1751              }
   \                     ??CrossCallReturnLabel_33:
   \   00003B   FA           MOV       R2,A
   \   00003C   E9           MOV       A,R1
   \   00003D   FB           MOV       R3,A
   \   00003E                ; Setup parameters for call to function bdb_ZclIdentifyCmdInd
   \   00003E   12....       LCALL     ??Subroutine39_0 & 0xFFFF
   \                     ??CrossCallReturnLabel_91:
   \   000041   12....       LCALL     ?Subroutine18 & 0xFFFF
   \                     ??CrossCallReturnLabel_82:
   \   000044   FB           MOV       R3,A
   \   000045   EC           MOV       A,R4
   \   000046   FA           MOV       R2,A
   \   000047   12....       LCALL     `??bdb_ZclIdentifyCmdInd::?relay`; Banked call to: bdb_ZclIdentifyCmdInd
   \   00004A   02....       LJMP      ??zclGeneral_ProcessInIdentity_2 & 0xFFFF
   1752              else if ( pInMsg->hdr.commandID == COMMAND_IDENTIFY_QUERY )
   \                     ??zclGeneral_ProcessInIdentity_1:
   \   00004D   7401         MOV       A,#0x1
   \   00004F   68           XRL       A,R0
   \   000050   707D         JNZ       ??zclGeneral_ProcessInIdentity_3
   1753              {
   1754                uint16 identifyTime = 0;
   \   000052   85..82       MOV       DPL,?XSP + 0
   \   000055   85..83       MOV       DPH,?XSP + 1
   \   000058   E4           CLR       A
   \   000059   F0           MOVX      @DPTR,A
   \   00005A   A3           INC       DPTR
   \   00005B   F0           MOVX      @DPTR,A
   1755          
   1756                // Retrieve Identify Time
   1757                zcl_ReadAttrData( pInMsg->msg->endPoint, pInMsg->msg->clusterId,
   1758                                  ATTRID_IDENTIFY_TIME, (uint8 *)&identifyTime, NULL );
   \   00005C   8E82         MOV       DPL,R6
   \   00005E   8F83         MOV       DPH,R7
   \   000060   12....       LCALL     ?Subroutine27 & 0xFFFF
   \                     ??CrossCallReturnLabel_57:
   \   000063   88..         MOV       ?V0,R0
   \   000065   89..         MOV       ?V1,R1
   \   000067                ; Setup parameters for call to function zcl_ReadAttrData
   \   000067   E4           CLR       A
   \   000068   F5..         MOV       ?V2,A
   \   00006A   F5..         MOV       ?V3,A
   \   00006C   78..         MOV       R0,#?V2
   \   00006E   12....       LCALL     ?PUSH_XSTACK_I_TWO
   \   000071   7402         MOV       A,#0x2
   \   000073   12....       LCALL     ?XSTACK_DISP100_8
   \   000076   88..         MOV       ?V2,R0
   \   000078   89..         MOV       ?V3,R1
   \   00007A   78..         MOV       R0,#?V2
   \   00007C   12....       LCALL     ?PUSH_XSTACK_I_TWO
   \   00007F   7C00         MOV       R4,#0x0
   \   000081   7D00         MOV       R5,#0x0
   \   000083   85..82       MOV       DPL,?V0
   \   000086   85..83       MOV       DPH,?V1
   \   000089   12....       LCALL     ?Subroutine10 & 0xFFFF
   \                     ??CrossCallReturnLabel_76:
   \   00008C   E5..         MOV       A,?V0
   \   00008E   12....       LCALL     ?Subroutine30 & 0xFFFF
   \                     ??CrossCallReturnLabel_102:
   \   000091   35..         ADDC      A,?V1
   \   000093   F583         MOV       DPH,A
   \   000095   E0           MOVX      A,@DPTR
   \   000096   F9           MOV       R1,A
   \   000097   12....       LCALL     `??zcl_ReadAttrData::?relay`; Banked call to: zcl_ReadAttrData
   \   00009A   7404         MOV       A,#0x4
   \   00009C   12....       LCALL     ?DEALLOC_XSTACK8
   1759          
   1760                // Is device identifying itself?
   1761                if ( identifyTime > 0 )
   \   00009F   85..82       MOV       DPL,?XSP + 0
   \   0000A2   85..83       MOV       DPH,?XSP + 1
   \   0000A5   12....       LCALL     ?Subroutine13 & 0xFFFF
   \                     ??CrossCallReturnLabel_28:
   \   0000A8   6059         JZ        ??zclGeneral_ProcessInIdentity_2
   1762                {
   1763                  zclGeneral_SendIdentifyQueryResponse( pInMsg->msg->endPoint, &pInMsg->msg->srcAddr,
   1764                                                        identifyTime, true, pInMsg->hdr.transSeqNum );
   \   0000AA   12....       LCALL     ?Subroutine5 & 0xFFFF
   \                     ??CrossCallReturnLabel_0:
   \   0000AD   12....       LCALL     ?PUSH_XSTACK_I_ONE
   \   0000B0   75..01       MOV       ?V2,#0x1
   \   0000B3   78..         MOV       R0,#?V2
   \   0000B5   12....       LCALL     ?PUSH_XSTACK_I_ONE
   \   0000B8   7402         MOV       A,#0x2
   \   0000BA   12....       LCALL     ?XSTACK_DISP0_8
   \   0000BD   12....       LCALL     ?Subroutine6 & 0xFFFF
   \                     ??CrossCallReturnLabel_4:
   \   0000C0   12....       LCALL     `??zclGeneral_SendIdentifyQueryResponse::?relay`; Banked call to: zclGeneral_SendIdentifyQueryResponse
   \   0000C3   7402         MOV       A,#0x2
   \   0000C5   12....       LCALL     ?DEALLOC_XSTACK8
   1765                  return ( ZCL_STATUS_CMD_HAS_RSP );
   \   0000C8   79FF         MOV       R1,#-0x1
   \   0000CA   8039         SJMP      ??zclGeneral_ProcessInIdentity_4
   1766                }
   1767              }
   1768          
   1769          #ifdef ZCL_LIGHT_LINK_ENHANCE
   1770              else if ( pInMsg->hdr.commandID == COMMAND_IDENTIFY_TRIGGER_EFFECT )
   1771              {
   1772                if ( pCBs->pfnIdentifyTriggerEffect )
   1773                {
   1774                  zclIdentifyTriggerEffect_t cmd;
   1775          
   1776                  cmd.srcAddr = &(pInMsg->msg->srcAddr);
   1777                  cmd.effectId = pInMsg->pData[0];
   1778                  cmd.effectVariant = pInMsg->pData[1];
   1779          
   1780                  pCBs->pfnIdentifyTriggerEffect( &cmd );
   1781                }
   1782              }
   1783          #endif //ZCL_LIGHT_LINK_ENHANCE
   1784              else
   1785              {
   1786                return ( ZFailure );   // Error ignore the command
   1787              }
   1788            }
   1789            else // Client Command
   1790            {
   1791              if ( pInMsg->hdr.commandID > COMMAND_IDENTIFY_QUERY_RSP )
   \                     ??zclGeneral_ProcessInIdentity_0:
   \   0000CC   E8           MOV       A,R0
   \   0000CD   6004         JZ        ??zclGeneral_ProcessInIdentity_5
   1792                return ( ZFailure );   // Error ignore the command
   \                     ??zclGeneral_ProcessInIdentity_3:
   \   0000CF   7901         MOV       R1,#0x1
   \   0000D1   8032         SJMP      ??zclGeneral_ProcessInIdentity_4
   1793          
   1794              zclIdentifyQueryRsp_t rsp;
   1795              
   1796              rsp.srcAddr = &(pInMsg->msg->srcAddr);
   \                     ??zclGeneral_ProcessInIdentity_5:
   \   0000D3   8E82         MOV       DPL,R6
   \   0000D5   8F83         MOV       DPH,R7
   \   0000D7   12....       LCALL     ?Subroutine28 & 0xFFFF
   \                     ??CrossCallReturnLabel_61:
   \   0000DA   7402         MOV       A,#0x2
   \   0000DC   12....       LCALL     ?XSTACK_DISP0_8
   \   0000DF   12....       LCALL     ?Subroutine24 & 0xFFFF
   1797              rsp.timeout = BUILD_UINT16( pInMsg->pData[0], pInMsg->pData[1] );
   \                     ??CrossCallReturnLabel_86:
   \   0000E2   8E82         MOV       DPL,R6
   \   0000E4   8F83         MOV       DPH,R7
   \   0000E6   A3           INC       DPTR
   \   0000E7   A3           INC       DPTR
   \   0000E8   A3           INC       DPTR
   \   0000E9   A3           INC       DPTR
   \   0000EA   12....       LCALL     ?Subroutine10 & 0xFFFF
   \                     ??CrossCallReturnLabel_77:
   \   0000ED   12....       LCALL     ?Subroutine18 & 0xFFFF
   \                     ??CrossCallReturnLabel_83:
   \   0000F0   F9           MOV       R1,A
   \   0000F1   EC           MOV       A,R4
   \   0000F2   F8           MOV       R0,A
   \   0000F3   7404         MOV       A,#0x4
   \   0000F5   12....       LCALL     ?XSTACK_DISP0_8
   \   0000F8   12....       LCALL     ?Subroutine24 & 0xFFFF
   1798              
   1799              bdb_ZclIdentifyQueryCmdInd( &rsp );
   \                     ??CrossCallReturnLabel_87:
   \   0000FB                ; Setup parameters for call to function bdb_ZclIdentifyQueryCmdInd
   \   0000FB   7402         MOV       A,#0x2
   \   0000FD   12....       LCALL     ?XSTACK_DISP101_8
   \   000100   12....       LCALL     `??bdb_ZclIdentifyQueryCmdInd::?relay`; Banked call to: bdb_ZclIdentifyQueryCmdInd
   1800            }
   1801            return ( ZSuccess );
   \                     ??zclGeneral_ProcessInIdentity_2:
   \   000103   7900         MOV       R1,#0x0
   \                     ??zclGeneral_ProcessInIdentity_4:
   \   000105   7406         MOV       A,#0x6
   \   000107                REQUIRE ?Subroutine0
   \   000107                ; // Fall through to label ?Subroutine0
   1802          }

   \                                 In  segment BANKED_CODE, align 1, keep-with-next
   \                     ?Subroutine13:
   \   000000   12....       LCALL     ?Subroutine27 & 0xFFFF
   \                     ??CrossCallReturnLabel_59:
   \   000003   E8           MOV       A,R0
   \   000004   49           ORL       A,R1
   \   000005   22           RET

   \                                 In  segment BANKED_CODE, align 1, keep-with-next
   \                     ?Subroutine6:
   \   000000   E0           MOVX      A,@DPTR
   \   000001   FC           MOV       R4,A
   \   000002   A3           INC       DPTR
   \   000003   E0           MOVX      A,@DPTR
   \   000004   FD           MOV       R5,A
   \   000005   12....       LCALL     ?Subroutine29 & 0xFFFF
   \                     ??CrossCallReturnLabel_63:
   \   000008   22           RET

   \                                 In  segment BANKED_CODE, align 1, keep-with-next
   \                     ?Subroutine29:
   \   000000   E5..         MOV       A,?V0
   \   000002   2406         ADD       A,#0x6
   \   000004   FA           MOV       R2,A
   \   000005   E4           CLR       A
   \   000006   35..         ADDC      A,?V1
   \   000008   FB           MOV       R3,A
   \   000009   E5..         MOV       A,?V0
   \   00000B   2414         ADD       A,#0x14
   \   00000D   F582         MOV       DPL,A
   \   00000F   E4           CLR       A
   \   000010   35..         ADDC      A,?V1
   \   000012   F583         MOV       DPH,A
   \   000014   E0           MOVX      A,@DPTR
   \   000015   F9           MOV       R1,A
   \   000016   22           RET

   \                                 In  segment BANKED_CODE, align 1, keep-with-next
   \                     ?Subroutine5:
   \   000000   8E82         MOV       DPL,R6
   \   000002   8F83         MOV       DPH,R7
   \   000004   E0           MOVX      A,@DPTR
   \   000005   F5..         MOV       ?V0,A
   \   000007   A3           INC       DPTR
   \   000008   E0           MOVX      A,@DPTR
   \   000009   F5..         MOV       ?V1,A
   \   00000B                ; Setup parameters for call to function zclGeneral_SendIdentifyQueryResponse
   \   00000B                ; Setup parameters for call to function zclGeneral_SendGroupResponse
   \   00000B                ; Setup parameters for call to function zcl_SendDefaultRspCmd
   \   00000B                ; Setup parameters for call to function zclGeneral_SendGroupResponse
   \   00000B   8E82         MOV       DPL,R6
   \   00000D   8F83         MOV       DPH,R7
   \   00000F   A3           INC       DPTR
   \   000010   A3           INC       DPTR
   \   000011   A3           INC       DPTR
   \   000012   A3           INC       DPTR
   \   000013   A3           INC       DPTR
   \   000014   A3           INC       DPTR
   \   000015   E0           MOVX      A,@DPTR
   \   000016   F5..         MOV       ?V2,A
   \   000018   78..         MOV       R0,#?V2
   \   00001A   22           RET

   \                                 In  segment BANKED_CODE, align 1, keep-with-next
   \                     ??Subroutine39_0:
   \   000000   8E82         MOV       DPL,R6
   \   000002   8F83         MOV       DPH,R7
   \   000004   12....       LCALL     ?Subroutine31 & 0xFFFF
   \                     ??CrossCallReturnLabel_110:
   \   000007   C8           XCH       A,R0
   \   000008   12....       LCALL     ?Subroutine30 & 0xFFFF
   \                     ??CrossCallReturnLabel_104:
   \   00000B   38           ADDC      A,R0
   \   00000C   F583         MOV       DPH,A
   \   00000E   E0           MOVX      A,@DPTR
   \   00000F   F9           MOV       R1,A
   \   000010   22           RET

   \                                 In  segment BANKED_CODE, align 1, keep-with-next
   \                     ?Subroutine28:
   \   000000   E0           MOVX      A,@DPTR
   \   000001   2406         ADD       A,#0x6
   \   000003   F8           MOV       R0,A
   \   000004   A3           INC       DPTR
   \   000005   E0           MOVX      A,@DPTR
   \   000006   3400         ADDC      A,#0x0
   \   000008   F9           MOV       R1,A
   \   000009   22           RET
   1803          #endif // ZCL_IDENTIFY
   1804          
   1805          #ifdef ZCL_GROUPS
   1806          
   1807          /*********************************************************************
   1808           * @fn      zclGeneral_AddGroup
   1809           *
   1810           * @brief   Add a Group.
   1811           *
   1812           * @param   endPoint - application endpoint
   1813           * @param   group - group to be added
   1814           * @param   pData - pointer to the group info
   1815           *
   1816           * @return  ZStatus_t
   1817           */

   \                                 In  segment BANKED_CODE, align 1, keep-with-next
   1818          static ZStatus_t zclGeneral_AddGroup( uint8 endPoint, aps_Group_t *group, uint8 *pData )
   \                     zclGeneral_AddGroup:
   1819          {
   \   000000                REQUIRE ?V0
   \   000000                REQUIRE ?V1
   \   000000                REQUIRE ?V2
   \   000000                REQUIRE ?V3
   \   000000                REQUIRE ?V4
   \   000000                REQUIRE ?V5
   \   000000   74F2         MOV       A,#-0xe
   \   000002   12....       LCALL     ?BANKED_ENTER_XDATA
   \   000005                ; Saved register size: 14
   \   000005                ; Auto size: 1
   \   000005   74FF         MOV       A,#-0x1
   \   000007   12....       LCALL     ?ALLOC_XSTACK8
   \   00000A   E9           MOV       A,R1
   \   00000B   FF           MOV       R7,A
   \   00000C   8A..         MOV       ?V4,R2
   \   00000E   8B..         MOV       ?V5,R3
   \   000010   8C..         MOV       ?V2,R4
   \   000012   8D..         MOV       ?V3,R5
   1820            uint8 nameLen;
   1821            uint8 nameSupport = FALSE;
   \   000014   85..82       MOV       DPL,?XSP + 0
   \   000017   85..83       MOV       DPH,?XSP + 1
   \   00001A   E4           CLR       A
   \   00001B   F0           MOVX      @DPTR,A
   1822          
   1823            pData += 2;   // Move past group ID
   1824            nameLen = *pData++;
   \   00001C   8C82         MOV       DPL,R4
   \   00001E   8D83         MOV       DPH,R5
   \   000020   A3           INC       DPTR
   \   000021   A3           INC       DPTR
   \   000022   E0           MOVX      A,@DPTR
   \   000023   FE           MOV       R6,A
   1825          
   1826            // Retrieve Name Support attribute
   1827            zcl_ReadAttrData( endPoint, ZCL_CLUSTER_ID_GEN_GROUPS,
   1828                              ATTRID_GROUP_NAME_SUPPORT, &nameSupport, NULL );
   \   000024                ; Setup parameters for call to function zcl_ReadAttrData
   \   000024   E4           CLR       A
   \   000025   F5..         MOV       ?V0,A
   \   000027   F5..         MOV       ?V1,A
   \   000029   78..         MOV       R0,#?V0
   \   00002B   12....       LCALL     ?PUSH_XSTACK_I_TWO
   \   00002E   7402         MOV       A,#0x2
   \   000030   12....       LCALL     ?XSTACK_DISP100_8
   \   000033   88..         MOV       ?V0,R0
   \   000035   89..         MOV       ?V1,R1
   \   000037   78..         MOV       R0,#?V0
   \   000039   12....       LCALL     ?PUSH_XSTACK_I_TWO
   \   00003C   7C00         MOV       R4,#0x0
   \   00003E   7D00         MOV       R5,#0x0
   \   000040   7A04         MOV       R2,#0x4
   \   000042   7B00         MOV       R3,#0x0
   \   000044   EF           MOV       A,R7
   \   000045   F9           MOV       R1,A
   \   000046   12....       LCALL     `??zcl_ReadAttrData::?relay`; Banked call to: zcl_ReadAttrData
   \   000049   7404         MOV       A,#0x4
   \   00004B   12....       LCALL     ?DEALLOC_XSTACK8
   1829          
   1830            if ( nameSupport )
   \   00004E   85..82       MOV       DPL,?XSP + 0
   \   000051   85..83       MOV       DPH,?XSP + 1
   \   000054   E0           MOVX      A,@DPTR
   \   000055   6040         JZ        ??zclGeneral_AddGroup_0
   1831            {
   1832              if ( nameLen > (APS_GROUP_NAME_LEN-1) )
   \   000057   EE           MOV       A,R6
   \   000058   C3           CLR       C
   \   000059   9410         SUBB      A,#0x10
   \   00005B   4002         JC        ??zclGeneral_AddGroup_1
   1833                 nameLen = (APS_GROUP_NAME_LEN-1);
   \   00005D   7E0F         MOV       R6,#0xf
   1834              group->name[0] = nameLen;
   \                     ??zclGeneral_AddGroup_1:
   \   00005F   EE           MOV       A,R6
   \   000060   85..82       MOV       DPL,?V4
   \   000063   85..83       MOV       DPH,?V5
   \   000066   A3           INC       DPTR
   \   000067   A3           INC       DPTR
   \   000068   F0           MOVX      @DPTR,A
   1835              zcl_memcpy( &(group->name[1]), pData, nameLen );
   \   000069                ; Setup parameters for call to function osal_memcpy
   \   000069   85..82       MOV       DPL,?V2
   \   00006C   85..83       MOV       DPH,?V3
   \   00006F   A3           INC       DPTR
   \   000070   A3           INC       DPTR
   \   000071   A3           INC       DPTR
   \   000072   A982         MOV       R1,DPL
   \   000074   AA83         MOV       R2,DPH
   \   000076   89..         MOV       ?V0,R1
   \   000078   8A..         MOV       ?V1,R2
   \   00007A   75..00       MOV       ?V2,#0x0
   \   00007D   78..         MOV       R0,#?V0
   \   00007F   12....       LCALL     ?PUSH_XSTACK_I_THREE
   \   000082   EE           MOV       A,R6
   \   000083   FC           MOV       R4,A
   \   000084   7D00         MOV       R5,#0x0
   \   000086   E5..         MOV       A,?V4
   \   000088   2403         ADD       A,#0x3
   \   00008A   FA           MOV       R2,A
   \   00008B   E4           CLR       A
   \   00008C   35..         ADDC      A,?V5
   \   00008E   FB           MOV       R3,A
   \   00008F   12....       LCALL     `??osal_memcpy::?relay`; Banked call to: osal_memcpy
   \   000092   7403         MOV       A,#0x3
   \   000094   12....       LCALL     ?DEALLOC_XSTACK8
   1836            }
   1837          
   1838            return ( aps_AddGroup( endPoint, group ) );
   \                     ??zclGeneral_AddGroup_0:
   \   000097                ; Setup parameters for call to function aps_AddGroup
   \   000097   AA..         MOV       R2,?V4
   \   000099   AB..         MOV       R3,?V5
   \   00009B   EF           MOV       A,R7
   \   00009C   F9           MOV       R1,A
   \   00009D   12....       LCALL     `??aps_AddGroup::?relay`; Banked call to: aps_AddGroup
   \   0000A0   7401         MOV       A,#0x1
   \   0000A2   12....       LCALL     ?DEALLOC_XSTACK8
   \   0000A5   7F06         MOV       R7,#0x6
   \   0000A7   02....       LJMP      ?BANKED_LEAVE_XDATA
   1839          }
   1840          
   1841          /*********************************************************************
   1842           * @fn      zclGeneral_ProcessInGroupsServer
   1843           *
   1844           * @brief   Process in the received Groups Command.
   1845           *
   1846           * @param   pInMsg - pointer to the incoming message
   1847           *
   1848           * @return  ZStatus_t
   1849           */

   \                                 In  segment BANKED_CODE, align 1, keep-with-next
   1850          static ZStatus_t zclGeneral_ProcessInGroupsServer( zclIncoming_t *pInMsg )
   \                     zclGeneral_ProcessInGroupsServer:
   1851          {
   \   000000                REQUIRE ?V0
   \   000000                REQUIRE ?V1
   \   000000                REQUIRE ?V2
   \   000000                REQUIRE ?V3
   \   000000                REQUIRE ?V4
   \   000000                REQUIRE ?V5
   \   000000                REQUIRE ?V6
   \   000000                REQUIRE ?V7
   \   000000   74F0         MOV       A,#-0x10
   \   000002   12....       LCALL     ?BANKED_ENTER_XDATA
   \   000005                ; Saved register size: 16
   \   000005                ; Auto size: 55
   \   000005   74C9         MOV       A,#-0x37
   \   000007   12....       LCALL     ?ALLOC_XSTACK8
   \   00000A   EA           MOV       A,R2
   \   00000B   FE           MOV       R6,A
   \   00000C   EB           MOV       A,R3
   \   00000D   FF           MOV       R7,A
   1852            aps_Group_t group;
   1853            aps_Group_t *pGroup;
   1854            uint8 *pData;
   1855            uint8 status;
   1856            uint8 grpCnt;
   1857            uint8 grpRspCnt = 0;
   \   00000E   75..00       MOV       ?V1,#0x0
   1858            uint16 *grpList;
   1859            uint16 identifyTime = 0;
   \   000011   7403         MOV       A,#0x3
   \   000013   12....       LCALL     ?XSTACK_DISP0_8
   \   000016   E4           CLR       A
   \   000017   F0           MOVX      @DPTR,A
   \   000018   A3           INC       DPTR
   \   000019   F0           MOVX      @DPTR,A
   1860            uint8 i;
   1861            ZStatus_t stat = ZSuccess;
   \   00001A   75..00       MOV       ?V0,#0x0
   1862          
   1863            zcl_memset( (uint8*)&group, 0, sizeof( aps_Group_t ) );
   \   00001D                ; Setup parameters for call to function osal_memset
   \   00001D   7C12         MOV       R4,#0x12
   \   00001F   FD           MOV       R5,A
   \   000020   F9           MOV       R1,A
   \   000021   7405         MOV       A,#0x5
   \   000023   12....       LCALL     ?XSTACK_DISP101_8
   \   000026   12....       LCALL     `??osal_memset::?relay`; Banked call to: osal_memset
   1864          
   1865            pData = pInMsg->pData;
   \   000029   8E82         MOV       DPL,R6
   \   00002B   8F83         MOV       DPH,R7
   \   00002D   A3           INC       DPTR
   \   00002E   A3           INC       DPTR
   \   00002F   A3           INC       DPTR
   \   000030   A3           INC       DPTR
   \   000031   A3           INC       DPTR
   \   000032   A3           INC       DPTR
   \   000033   A3           INC       DPTR
   \   000034   A3           INC       DPTR
   \   000035   E0           MOVX      A,@DPTR
   \   000036   F5..         MOV       ?V2,A
   \   000038   A3           INC       DPTR
   \   000039   E0           MOVX      A,@DPTR
   \   00003A   F5..         MOV       ?V3,A
   1866            group.ID = BUILD_UINT16( pData[0], pData[1] );
   \   00003C   85..82       MOV       DPL,?V2
   \   00003F   F583         MOV       DPH,A
   \   000041   A3           INC       DPTR
   \   000042   A882         MOV       R0,DPL
   \   000044   A983         MOV       R1,DPH
   \   000046   85..82       MOV       DPL,?V2
   \   000049   F583         MOV       DPH,A
   \   00004B   E0           MOVX      A,@DPTR
   \   00004C   FC           MOV       R4,A
   \   00004D   8882         MOV       DPL,R0
   \   00004F   8983         MOV       DPH,R1
   \   000051   E0           MOVX      A,@DPTR
   \   000052   FB           MOV       R3,A
   \   000053   EC           MOV       A,R4
   \   000054   FA           MOV       R2,A
   \   000055   7405         MOV       A,#0x5
   \   000057   12....       LCALL     ?XSTACK_DISP0_8
   \   00005A   EA           MOV       A,R2
   \   00005B   F0           MOVX      @DPTR,A
   \   00005C   A3           INC       DPTR
   \   00005D   EB           MOV       A,R3
   \   00005E   F0           MOVX      @DPTR,A
   \   00005F   8E82         MOV       DPL,R6
   \   000061   8F83         MOV       DPH,R7
   \   000063   A3           INC       DPTR
   \   000064   A3           INC       DPTR
   \   000065   A3           INC       DPTR
   \   000066   A3           INC       DPTR
   \   000067   A3           INC       DPTR
   \   000068   A3           INC       DPTR
   \   000069   A3           INC       DPTR
   \   00006A   E0           MOVX      A,@DPTR
   \   00006B   601E         JZ        ??zclGeneral_ProcessInGroupsServer_0
   \   00006D   14           DEC       A
   \   00006E   6056         JZ        ??zclGeneral_ProcessInGroupsServer_1
   \   000070   14           DEC       A
   \   000071   7003         JNZ       $+5
   \   000073   02....       LJMP      ??zclGeneral_ProcessInGroupsServer_2 & 0xFFFF
   \   000076   14           DEC       A
   \   000077   7003         JNZ       $+5
   \   000079   02....       LJMP      ??zclGeneral_ProcessInGroupsServer_3 & 0xFFFF
   \   00007C   14           DEC       A
   \   00007D   7003         JNZ       $+5
   \   00007F   02....       LJMP      ??zclGeneral_ProcessInGroupsServer_4 & 0xFFFF
   \   000082   14           DEC       A
   \   000083   7003         JNZ       $+5
   \   000085   02....       LJMP      ??zclGeneral_ProcessInGroupsServer_5 & 0xFFFF
   \   000088   02....       LJMP      ??zclGeneral_ProcessInGroupsServer_6 & 0xFFFF
   1867            switch ( pInMsg->hdr.commandID )
   1868            {
   1869              case COMMAND_GROUP_ADD:
   1870                status = zclGeneral_AddGroup( pInMsg->msg->endPoint, &group, pData );
   \                     ??zclGeneral_ProcessInGroupsServer_0:
   \   00008B                ; Setup parameters for call to function zclGeneral_AddGroup
   \   00008B   AC..         MOV       R4,?V2
   \   00008D   AD..         MOV       R5,?V3
   \   00008F   7405         MOV       A,#0x5
   \   000091   12....       LCALL     ?XSTACK_DISP101_8
   \   000094   12....       LCALL     ??Subroutine39_0 & 0xFFFF
   \                     ??CrossCallReturnLabel_92:
   \   000097   12....       LCALL     `??zclGeneral_AddGroup::?relay`; Banked call to: zclGeneral_AddGroup
   \   00009A   E9           MOV       A,R1
   \   00009B   FC           MOV       R4,A
   1871                if ( status != ZSuccess )
   \   00009C   600B         JZ        ??zclGeneral_ProcessInGroupsServer_7
   1872                {
   1873                  if ( status == ZApsDuplicateEntry )
   \   00009E   74B8         MOV       A,#-0x48
   \   0000A0   6C           XRL       A,R4
   \   0000A1   7004         JNZ       ??zclGeneral_ProcessInGroupsServer_8
   1874                  {
   1875                    status = ZCL_STATUS_DUPLICATE_EXISTS;
   \   0000A3   7C8A         MOV       R4,#-0x76
   \   0000A5   8002         SJMP      ??zclGeneral_ProcessInGroupsServer_7
   1876                  }
   1877                  else
   1878                  {
   1879                    status = ZCL_STATUS_INSUFFICIENT_SPACE;
   \                     ??zclGeneral_ProcessInGroupsServer_8:
   \   0000A7   7C89         MOV       R4,#-0x77
   1880                  }
   1881                }
   1882          #if defined( ZCL_LIGHT_LINK_ENHANCE ) //ZLL allows response to unicast only
   1883                if ( UNICAST_MSG( pInMsg->msg ) )
   1884          #endif
   1885                {
