###############################################################################
#
# IAR C/C++ Compiler V10.10.1.4655 for 8051               17/Apr/2025  03:58:55
# Copyright 2004-2017 IAR Systems AB.
# Standalone license - IAR Embedded Workbench for 8051
#
#    Core               =  plain
#    Code model         =  banked
#    Data model         =  large
#    Calling convention =  xdata reentrant
#    Constant location  =  data_rom
#    Dptr setup         =  1,16
#                          
#    Source file        =  
#        C:\Texas Instruments\Z-Stack 3.0.1 A Git\Z-Stack
#        3.0.1\Components\stack\zdo\ZDSecMgr.c
#    Command line       =  
#        -f C:\Users\NING\AppData\Local\Temp\EWFC85.tmp ("C:\Texas
#        Instruments\Z-Stack 3.0.1 A Git\Z-Stack
#        3.0.1\Components\stack\zdo\ZDSecMgr.c" -D SECURE=1 -D TC_LINKKEY_JOIN
#        -D NV_INIT -D NV_RESTORE -D ZTOOL_P1 -D xMT_TASK -D xMT_APP_FUNC -D
#        xMT_SYS_FUNC -D xMT_ZDO_FUNC -D xMT_ZDO_MGMT -D xMT_APP_CNF_FUNC -D
#        LCD_SUPPORTED=DEBUG -D MULTICAST_ENABLED=FALSE -D ZCL_READ -D
#        ZCL_DISCOVER -D ZCL_WRITE -D ZCL_BASIC -D ZCL_IDENTIFY -D ZCL_ON_OFF
#        -D ZCL_GROUPS -D HAL_UART_DMA_RX_MAX=50 -lC "C:\Texas
#        Instruments\Z-Stack 3.0.1 A Git\Z-Stack
#        3.0.1\Projects\zstack\HomeAutomation\SampleSwitch\CC2530DB\CoordinatorEB\List"
#        -lA "C:\Texas Instruments\Z-Stack 3.0.1 A Git\Z-Stack
#        3.0.1\Projects\zstack\HomeAutomation\SampleSwitch\CC2530DB\CoordinatorEB\List"
#        --diag_suppress Pe001,Pa010 -o "C:\Texas Instruments\Z-Stack 3.0.1 A
#        Git\Z-Stack
#        3.0.1\Projects\zstack\HomeAutomation\SampleSwitch\CC2530DB\CoordinatorEB\Obj"
#        -e --debug --core=plain --dptr=16,1 --data_model=large
#        --code_model=banked --calling_convention=xdata_reentrant
#        --place_constants=data_rom --nr_virtual_regs 8 -f "C:\Texas
#        Instruments\Z-Stack 3.0.1 A Git\Z-Stack
#        3.0.1\Projects\zstack\HomeAutomation\SampleSwitch\CC2530DB\..\..\..\Tools\CC2530DB\f8wCoord.cfg"
#        (-DCPU32MHZ -DROOT=__near_func -DMAC_CFG_APP_PENDING_QUEUE=TRUE
#        -DMAC_CFG_TX_DATA_MAX=5 -DMAC_CFG_TX_MAX=8 -DMAC_CFG_RX_MAX=5
#        -DZDO_COORDINATOR -DRTR_NWK) -f "C:\Texas Instruments\Z-Stack 3.0.1 A
#        Git\Z-Stack
#        3.0.1\Projects\zstack\HomeAutomation\SampleSwitch\CC2530DB\..\..\..\Tools\CC2530DB\f8wConfig.cfg"
#        (-DZIGBEEPRO -DSECURE=1 -DZG_SECURE_DYNAMIC=0 -DREFLECTOR
#        -DDEFAULT_CHANLIST=0x00000800 -DZDAPP_CONFIG_PAN_ID=0xFFFF
#        -DNWK_START_DELAY=100 -DEXTENDED_JOINING_RANDOM_MASK=0x007F
#        -DBEACON_REQUEST_DELAY=100 -DBEACON_REQ_DELAY_MASK=0x00FF
#        -DLINK_STATUS_JITTER_MASK=0x007F -DROUTE_EXPIRY_TIME=30
#        -DAPSC_ACK_WAIT_DURATION_POLLED=3000 -DNWK_INDIRECT_MSG_TIMEOUT=7
#        -DMAX_RREQ_ENTRIES=8 -DAPSC_MAX_FRAME_RETRIES=3
#        -DNWK_MAX_DATA_RETRIES=2 -DMAX_POLL_FAILURE_RETRIES=2 -DMAX_BCAST=9
#        -DAPS_MAX_GROUPS=16 -DMAX_RTG_ENTRIES=40 -DNWK_MAX_BINDING_ENTRIES=4
#        -DMAX_BINDING_CLUSTER_IDS=4 -DDEFAULT_KEY={0} -DMAC_MAX_FRAME_SIZE=116
#        -DZDNWKMGR_MIN_TRANSMISSIONS=20 "-DCONST=const __code"
#        -DGENERIC=__generic -DRFD_RCVC_ALWAYS_ON=FALSE -DPOLL_RATE=1000
#        -DQUEUED_POLL_RATE=100 -DRESPONSE_POLL_RATE=100 -DREJOIN_POLL_RATE=440
#        -DREJOIN_BACKOFF=900000 -DREJOIN_SCAN=900000 -DENABLE_LED4_DISABLE_S1)
#        -f "C:\Texas Instruments\Z-Stack 3.0.1 A Git\Z-Stack
#        3.0.1\Projects\zstack\HomeAutomation\SampleSwitch\CC2530DB\..\..\..\Tools\CC2530DB\f8wZCL.cfg"
#        -I "C:\Texas Instruments\Z-Stack 3.0.1 A Git\Z-Stack
#        3.0.1\Projects\zstack\HomeAutomation\SampleSwitch\CC2530DB\" -I
#        "C:\Texas Instruments\Z-Stack 3.0.1 A Git\Z-Stack
#        3.0.1\Projects\zstack\HomeAutomation\SampleSwitch\CC2530DB\..\Source\"
#        -I "C:\Texas Instruments\Z-Stack 3.0.1 A Git\Z-Stack
#        3.0.1\Projects\zstack\HomeAutomation\SampleSwitch\CC2530DB\..\..\Source\"
#        -I "C:\Texas Instruments\Z-Stack 3.0.1 A Git\Z-Stack
#        3.0.1\Projects\zstack\HomeAutomation\SampleSwitch\CC2530DB\..\..\..\ZMain\TI2530DB\"
#        -I "C:\Texas Instruments\Z-Stack 3.0.1 A Git\Z-Stack
#        3.0.1\Projects\zstack\HomeAutomation\SampleSwitch\CC2530DB\..\..\..\..\..\Components\hal\include\"
#        -I "C:\Texas Instruments\Z-Stack 3.0.1 A Git\Z-Stack
#        3.0.1\Projects\zstack\HomeAutomation\SampleSwitch\CC2530DB\..\..\..\..\..\Components\hal\target\CC2530EB\"
#        -I "C:\Texas Instruments\Z-Stack 3.0.1 A Git\Z-Stack
#        3.0.1\Projects\zstack\HomeAutomation\SampleSwitch\CC2530DB\..\..\..\..\..\Components\mac\include\"
#        -I "C:\Texas Instruments\Z-Stack 3.0.1 A Git\Z-Stack
#        3.0.1\Projects\zstack\HomeAutomation\SampleSwitch\CC2530DB\..\..\..\..\..\Components\mac\high_level\"
#        -I "C:\Texas Instruments\Z-Stack 3.0.1 A Git\Z-Stack
#        3.0.1\Projects\zstack\HomeAutomation\SampleSwitch\CC2530DB\..\..\..\..\..\Components\mac\low_level\srf04\"
#        -I "C:\Texas Instruments\Z-Stack 3.0.1 A Git\Z-Stack
#        3.0.1\Projects\zstack\HomeAutomation\SampleSwitch\CC2530DB\..\..\..\..\..\Components\mac\low_level\srf04\single_chip\"
#        -I "C:\Texas Instruments\Z-Stack 3.0.1 A Git\Z-Stack
#        3.0.1\Projects\zstack\HomeAutomation\SampleSwitch\CC2530DB\..\..\..\..\..\Components\mt\"
#        -I "C:\Texas Instruments\Z-Stack 3.0.1 A Git\Z-Stack
#        3.0.1\Projects\zstack\HomeAutomation\SampleSwitch\CC2530DB\..\..\..\..\..\Components\osal\include\"
#        -I "C:\Texas Instruments\Z-Stack 3.0.1 A Git\Z-Stack
#        3.0.1\Projects\zstack\HomeAutomation\SampleSwitch\CC2530DB\..\..\..\..\..\Components\services\saddr\"
#        -I "C:\Texas Instruments\Z-Stack 3.0.1 A Git\Z-Stack
#        3.0.1\Projects\zstack\HomeAutomation\SampleSwitch\CC2530DB\..\..\..\..\..\Components\services\sdata\"
#        -I "C:\Texas Instruments\Z-Stack 3.0.1 A Git\Z-Stack
#        3.0.1\Projects\zstack\HomeAutomation\SampleSwitch\CC2530DB\..\..\..\..\..\Components\stack\af\"
#        -I "C:\Texas Instruments\Z-Stack 3.0.1 A Git\Z-Stack
#        3.0.1\Projects\zstack\HomeAutomation\SampleSwitch\CC2530DB\..\..\..\..\..\Components\stack\bdb\"
#        -I "C:\Texas Instruments\Z-Stack 3.0.1 A Git\Z-Stack
#        3.0.1\Projects\zstack\HomeAutomation\SampleSwitch\CC2530DB\..\..\..\..\..\Components\stack\gp\"
#        -I "C:\Texas Instruments\Z-Stack 3.0.1 A Git\Z-Stack
#        3.0.1\Projects\zstack\HomeAutomation\SampleSwitch\CC2530DB\..\..\..\..\..\Components\stack\nwk\"
#        -I "C:\Texas Instruments\Z-Stack 3.0.1 A Git\Z-Stack
#        3.0.1\Projects\zstack\HomeAutomation\SampleSwitch\CC2530DB\..\..\..\..\..\Components\stack\sapi\"
#        -I "C:\Texas Instruments\Z-Stack 3.0.1 A Git\Z-Stack
#        3.0.1\Projects\zstack\HomeAutomation\SampleSwitch\CC2530DB\..\..\..\..\..\Components\stack\sec\"
#        -I "C:\Texas Instruments\Z-Stack 3.0.1 A Git\Z-Stack
#        3.0.1\Projects\zstack\HomeAutomation\SampleSwitch\CC2530DB\..\..\..\..\..\Components\stack\sys\"
#        -I "C:\Texas Instruments\Z-Stack 3.0.1 A Git\Z-Stack
#        3.0.1\Projects\zstack\HomeAutomation\SampleSwitch\CC2530DB\..\..\..\..\..\Components\stack\zcl\"
#        -I "C:\Texas Instruments\Z-Stack 3.0.1 A Git\Z-Stack
#        3.0.1\Projects\zstack\HomeAutomation\SampleSwitch\CC2530DB\..\..\..\..\..\Components\stack\zdo\"
#        -I "C:\Texas Instruments\Z-Stack 3.0.1 A Git\Z-Stack
#        3.0.1\Projects\zstack\HomeAutomation\SampleSwitch\CC2530DB\..\..\..\..\..\Components\zmac\"
#        -I "C:\Texas Instruments\Z-Stack 3.0.1 A Git\Z-Stack
#        3.0.1\Projects\zstack\HomeAutomation\SampleSwitch\CC2530DB\..\..\..\..\..\Components\zmac\f8w\"
#        -I "C:\Texas Instruments\Z-Stack 3.0.1 A Git\Z-Stack
#        3.0.1\Projects\zstack\HomeAutomation\SampleSwitch\CC2530DB\MY_Hardware\"
#        -Ohz --require_prototypes)
#    Locale             =  Chinese (Simplified)_China.936
#    List file          =  
#        C:\Texas Instruments\Z-Stack 3.0.1 A Git\Z-Stack
#        3.0.1\Projects\zstack\HomeAutomation\SampleSwitch\CC2530DB\CoordinatorEB\List\ZDSecMgr.lst
#    Object file        =  
#        C:\Texas Instruments\Z-Stack 3.0.1 A Git\Z-Stack
#        3.0.1\Projects\zstack\HomeAutomation\SampleSwitch\CC2530DB\CoordinatorEB\Obj\ZDSecMgr.r51
#
###############################################################################

C:\Texas Instruments\Z-Stack 3.0.1 A Git\Z-Stack 3.0.1\Components\stack\zdo\ZDSecMgr.c
      1          /******************************************************************************
      2            Filename:       ZDSecMgr.c
      3            Revised:        $Date: 2014-06-05 11:25:00 -0700 (Thu, 05 Jun 2014) $
      4            Revision:       $Revision: 38833 $
      5          
      6            Description:    The ZigBee Device Security Manager.
      7          
      8          
      9            Copyright 2005-2014 Texas Instruments Incorporated. All rights reserved.
     10          
     11            IMPORTANT: Your use of this Software is limited to those specific rights
     12            granted under the terms of a software license agreement between the user
     13            who downloaded the software, his/her employer (which must be your employer)
     14            and Texas Instruments Incorporated (the "License"). You may not use this
     15            Software unless you agree to abide by the terms of the License. The License
     16            limits your use, and you acknowledge, that the Software may not be modified,
     17            copied or distributed unless embedded on a Texas Instruments microcontroller
     18            or used solely and exclusively in conjunction with a Texas Instruments radio
     19            frequency transceiver, which is integrated into your product. Other than for
     20            the foregoing purpose, you may not use, reproduce, copy, prepare derivative
     21            works of, modify, distribute, perform, display or sell this Software and/or
     22            its documentation for any purpose.
     23          
     24            YOU FURTHER ACKNOWLEDGE AND AGREE THAT THE SOFTWARE AND DOCUMENTATION ARE
     25            PROVIDED "AS IS" WITHOUT WARRANTY OF ANY KIND, EITHER EXPRESS OR IMPLIED,
     26            INCLUDING WITHOUT LIMITATION, ANY WARRANTY OF MERCHANTABILITY, TITLE,
     27            NON-INFRINGEMENT AND FITNESS FOR A PARTICULAR PURPOSE. IN NO EVENT SHALL
     28            TEXAS INSTRUMENTS OR ITS LICENSORS BE LIABLE OR OBLIGATED UNDER CONTRACT,
     29            NEGLIGENCE, STRICT LIABILITY, CONTRIBUTION, BREACH OF WARRANTY, OR OTHER
     30            LEGAL EQUITABLE THEORY ANY DIRECT OR INDIRECT DAMAGES OR EXPENSES
     31            INCLUDING BUT NOT LIMITED TO ANY INCIDENTAL, SPECIAL, INDIRECT, PUNITIVE
     32            OR CONSEQUENTIAL DAMAGES, LOST PROFITS OR LOST DATA, COST OF PROCUREMENT
     33            OF SUBSTITUTE GOODS, TECHNOLOGY, SERVICES, OR ANY CLAIMS BY THIRD PARTIES
     34            (INCLUDING BUT NOT LIMITED TO ANY DEFENSE THEREOF), OR OTHER SIMILAR COSTS.
     35          
     36            Should you have any questions regarding your right to use this Software,
     37            contact Texas Instruments Incorporated at www.TI.com.
     38          ******************************************************************************/
     39          
     40          #ifdef __cplusplus
     41          extern "C"
     42          {
     43          #endif
     44          
     45          /******************************************************************************
     46           * INCLUDES
     47           */
     48          #include "ZComDef.h"
     49          #include "OSAL.h"
     50          #include "OSAL_Nv.h"
     51          #include "ZGlobals.h"
     52          #include "ssp.h"
     53          #include "nwk_globals.h"
     54          #include "nwk.h"
     55          #include "NLMEDE.h"
     56          #include "AddrMgr.h"
     57          #include "AssocList.h"
     58          #include "APSMEDE.h"
     59          #include "ZDConfig.h"
     60          #include "ZDSecMgr.h"
     61            
     62          #include "bdb.h"
     63          #include "bdb_interface.h"
     64          
     65          /******************************************************************************
     66           * CONSTANTS
     67           */
     68          // maximum number of devices managed by this Security Manager
     69          #if !defined ( ZDSECMGR_DEVICE_MAX )
     70            #define ZDSECMGR_DEVICE_MAX 3
     71          #endif
     72          
     73          // maximum number of LINK keys this device may store
     74          #define ZDSECMGR_ENTRY_MAX ZDSECMGR_DEVICE_MAX
     75          
     76          // total number of stored devices
     77          #if !defined ( ZDSECMGR_STORED_DEVICES )
     78            #define ZDSECMGR_STORED_DEVICES 3
     79          #endif
     80          
     81          // Joining Device Policies: r21 spec 4.9.1
     82          // This boolean indicates whether the device will request a new Trust Center Link key after joining.
     83          // TC link key cannot be requested if join is performed on distributed nwk

   \                                 In  segment XDATA_I, align 1, keep-with-next
     84          bool  requestNewTrustCenterLinkKey = TRUE;  
   \                     requestNewTrustCenterLinkKey:
   \   000000                DS 1
   \   000001                REQUIRE `?<Initializer for requestNewTrustCenterLinkKey`
   \   000001                REQUIRE __INIT_XDATA_I
     85          //This integer indicates the maximum time in seconds that a device will wait for a response to a 
     86          //request for a Trust Center link key.

   \                                 In  segment XDATA_I, align 1, keep-with-next
     87          uint32  requestLinkKeyTimeout = BDBC_TC_LINK_KEY_EXANGE_TIMEOUT;
   \                     requestLinkKeyTimeout:
   \   000000                DS 4
   \   000004                REQUIRE `?<Initializer for requestLinkKeyTimeout>`
   \   000004                REQUIRE __INIT_XDATA_I
     88           //bool acceptNewUnsolicitedApplicationLinkKey;   
     89          
     90          // APSME Stub Implementations
     91          #define ZDSecMgrLinkKeySet       APSME_LinkKeySet
     92          #define ZDSecMgrLinkKeyNVIdGet   APSME_LinkKeyNVIdGet
     93          #define ZDSecMgrKeyFwdToChild    APSME_KeyFwdToChild
     94          #define ZDSecMgrIsLinkKeyValid   APSME_IsLinkKeyValid
     95          
     96          
     97          
     98          /******************************************************************************
     99           * TYPEDEFS
    100           */
    101          typedef struct
    102          {
    103            uint16            ami;
    104            uint16            keyNvId;   // index to the Link Key table in NV
    105            ZDSecMgr_Authentication_Option authenticateOption;
    106          } ZDSecMgrEntry_t;
    107          
    108          typedef struct
    109          {
    110            uint16          nwkAddr;
    111            uint8*          extAddr;
    112            uint16          parentAddr;
    113            uint8           secure;
    114            uint8           devStatus;
    115          } ZDSecMgrDevice_t;
    116          
    117          /******************************************************************************
    118           * EXTERNAL VARIABLES
    119           */
    120          extern CONST uint8 gMAX_NWK_SEC_MATERIAL_TABLE_ENTRIES;
    121          extern pfnZdoCb zdoCBFunc[MAX_ZDO_CB_FUNC];
    122          
    123          
    124          /******************************************************************************
    125           * EXTERNAL FUNCTIONS
    126           */
    127          extern void   ZDApp_ResetTimerCancel( void );
    128          /******************************************************************************
    129           * LOCAL VARIABLES
    130           */
    131          #if 0 // Taken out because the following functionality is only used for test
    132                // purpose. A more efficient (above) way is used. It can be put
    133                // back in if customers request for a white/black list feature.
    134          uint8 ZDSecMgrStoredDeviceList[ZDSECMGR_STORED_DEVICES][Z_EXTADDR_LEN] =
    135          {
    136            { 0x01, 0x00, 0x00, 0x00, 0x00, 0x00, 0x00, 0x00 },
    137            { 0x00, 0x00, 0x00, 0x00, 0x00, 0x00, 0x00, 0x01 },
    138            { 0x00, 0x00, 0x00, 0x00, 0x00, 0x00, 0x00, 0x00 },
    139          };
    140          #endif
    141          

   \                                 In  segment XDATA_Z, align 1, keep-with-next
    142          uint8 ZDSecMgrTCExtAddr[Z_EXTADDR_LEN]=
   \                     ZDSecMgrTCExtAddr:
   \   000000                DS 8
   \   000008                REQUIRE __INIT_XDATA_Z
    143            { 0x00, 0x00, 0x00, 0x00, 0x00, 0x00, 0x00, 0x00 };
    144          

   \                                 In  segment XDATA_Z, align 1, keep-with-next
    145          uint8 ZDSecMgrTCAuthenticated = FALSE;
   \                     ZDSecMgrTCAuthenticated:
   \   000000                DS 1
   \   000001                REQUIRE __INIT_XDATA_Z
    146          

   \                                 In  segment XDATA_Z, align 1, keep-with-next
    147          ZDSecMgrEntry_t* ZDSecMgrEntries  = NULL;
   \                     ZDSecMgrEntries:
   \   000000                DS 2
   \   000002                REQUIRE __INIT_XDATA_Z
    148          
    149          void ZDSecMgrAddrMgrCB( uint8 update, AddrMgrEntry_t* newEntry, AddrMgrEntry_t* oldEntry );
    150          

   \                                 In  segment XDATA_Z, align 1, keep-with-next
    151          uint8 ZDSecMgrPermitJoiningEnabled;
   \                     ZDSecMgrPermitJoiningEnabled:
   \   000000                DS 1
   \   000001                REQUIRE __INIT_XDATA_Z

   \                                 In  segment XDATA_Z, align 1, keep-with-next
    152          uint8 ZDSecMgrPermitJoiningTimed;
   \                     ZDSecMgrPermitJoiningTimed:
   \   000000                DS 1
   \   000001                REQUIRE __INIT_XDATA_Z
    153          

   \                                 In  segment XDATA_Z, align 1, keep-with-next
    154          APSME_TCLKDevEntry_t TrustCenterLinkKey;
   \                     TrustCenterLinkKey:
   \   000000                DS 19
   \   000013                REQUIRE __INIT_XDATA_Z
    155          

   \                                 In  segment XDATA_Z, align 1, keep-with-next
    156          APSME_ApsLinkKeyFrmCntr_t ApsLinkKeyFrmCntr[ZDSECMGR_ENTRY_MAX];
   \                     ApsLinkKeyFrmCntr:
   \   000000                DS 27
   \   00001B                REQUIRE __INIT_XDATA_Z

   \                                 In  segment XDATA_Z, align 1, keep-with-next
    157          APSME_TCLinkKeyFrmCntr_t TCLinkKeyFrmCntr[ZDSECMGR_TC_DEVICE_MAX];
   \                     TCLinkKeyFrmCntr:
   \   000000                DS 360
   \   000168                REQUIRE __INIT_XDATA_Z
    158          

   \                                 In  segment CODE_C, align 1
    159           CONST uint16 gZDSECMGR_TC_DEVICE_MAX = ZDSECMGR_TC_DEVICE_MAX;
   \                     gZDSECMGR_TC_DEVICE_MAX:
   \   000000   2800         DW 40

   \                                 In  segment CODE_C, align 1
    160           CONST uint16 gZDSECMGR_TC_DEVICE_IC_MAX = ZDSECMGR_TC_DEVICE_IC_MAX;
   \                     gZDSECMGR_TC_DEVICE_IC_MAX:
   \   000000   0C00         DW 12

   \                                 In  segment CODE_C, align 1
    161           CONST uint8  gZDSECMGR_TC_ATTEMPT_DEFAULT_KEY = ZDSECMGR_TC_ATTEMPT_DEFAULT_KEY;
   \                     gZDSECMGR_TC_ATTEMPT_DEFAULT_KEY:
   \   000000   00           DB 0
    162          /******************************************************************************
    163           * PRIVATE FUNCTIONS
    164           *
    165           *   ZDSecMgrAddrStore
    166           *   ZDSecMgrExtAddrStore
    167           *   ZDSecMgrExtAddrLookup
    168           *   ZDSecMgrEntryInit
    169           *   ZDSecMgrEntryLookup
    170           *   ZDSecMgrEntryLookupAMI
    171           *   ZDSecMgrEntryLookupExt
    172           *   ZDSecMgrEntryLookupExtGetIndex
    173           *   ZDSecMgrEntryFree
    174           *   ZDSecMgrEntryNew
    175           *   ZDSecMgrAppKeyGet
    176           *   ZDSecMgrAppKeyReq
    177           *   ZDSecMgrTclkReq
    178           *   ZDSecMgrAppConfKeyReq 
    179           *   ZDSecMgrSendNwkKey
    180           *   ZDSecMgrDeviceRemove
    181           *   ZDSecMgrDeviceValidateRM
    182           *   ZDSecMgrDeviceValidate
    183           *   ZDSecMgrDeviceJoin
    184           *   ZDSecMgrDeviceJoinDirect
    185           *   ZDSecMgrDeviceJoinFwd
    186           *   ZDSecMgrDeviceNew
    187           *   ZDSecMgrAssocDeviceAuth
    188           *   ZDSecMgrAuthNwkKey
    189           *   APSME_TCLinkKeyInit
    190           *   APSME_IsDefaultTCLK
    191           */
    192          
    193          //-----------------------------------------------------------------------------
    194          // address management
    195          //-----------------------------------------------------------------------------
    196          ZStatus_t ZDSecMgrAddrStore( uint16 nwkAddr, uint8* extAddr, uint16* ami );
    197          ZStatus_t ZDSecMgrExtAddrStore( uint16 nwkAddr, uint8* extAddr, uint16* ami );
    198          ZStatus_t ZDSecMgrExtAddrLookup( uint8* extAddr, uint16* ami );
    199          
    200          //-----------------------------------------------------------------------------
    201          // Trust Center management
    202          //-----------------------------------------------------------------------------
    203          uint8 ZDSecMgrTCExtAddrCheck( uint8* extAddr );
    204          void ZDSecMgrTCDataLoad( uint8* extAddr );
    205          
    206          //-----------------------------------------------------------------------------
    207          // entry data
    208          //-----------------------------------------------------------------------------
    209          void ZDSecMgrEntryInit(uint8 state);
    210          ZStatus_t ZDSecMgrEntryLookup( uint16 nwkAddr, ZDSecMgrEntry_t** entry );
    211          ZStatus_t ZDSecMgrEntryLookupAMI( uint16 ami, ZDSecMgrEntry_t** entry );
    212          ZStatus_t ZDSecMgrEntryLookupExt( uint8* extAddr, ZDSecMgrEntry_t** entry );
    213          ZStatus_t ZDSecMgrEntryLookupExtGetIndex( uint8* extAddr, ZDSecMgrEntry_t** entry, uint16* entryIndex );
    214          ZStatus_t ZDSecMgrEntryLookupAMIGetIndex( uint16 ami, uint16* entryIndex );
    215          void ZDSecMgrEntryFree( ZDSecMgrEntry_t* entry );
    216          ZStatus_t ZDSecMgrEntryNew( ZDSecMgrEntry_t** entry );
    217          ZStatus_t ZDSecMgrAuthenticationSet( uint8* extAddr, ZDSecMgr_Authentication_Option option );
    218          void ZDSecMgrApsLinkKeyInit(uint8 setDefault);
    219          #if defined ( NV_RESTORE )
    220          static void ZDSecMgrWriteNV(void);
    221          static void ZDSecMgrRestoreFromNV(void);
    222          static void ZDSecMgrUpdateNV( uint16 index );
    223          #endif
    224          
    225          //-----------------------------------------------------------------------------
    226          // key support
    227          //-----------------------------------------------------------------------------
    228          ZStatus_t ZDSecMgrAppKeyGet( uint16  initNwkAddr,
    229                                       uint8*  initExtAddr,
    230                                       uint16  partNwkAddr,
    231                                       uint8*  partExtAddr,
    232                                       uint8** key,
    233                                       uint8*  keyType );
    234          void ZDSecMgrAppKeyReq( ZDO_RequestKeyInd_t* ind );
    235          void ZDSecMgrTclkReq( ZDO_RequestKeyInd_t* ind );
    236          void ZDSecMgrAppConfKeyReq( ZDO_VerifyKeyInd_t* ind );
    237          ZStatus_t ZDSecMgrSendNwkKey( ZDSecMgrDevice_t* device );
    238          void ZDSecMgrNwkKeyInit(uint8 setDefault);
    239          
    240          //-----------------------------------------------------------------------------
    241          // device management
    242          //-----------------------------------------------------------------------------
    243          void ZDSecMgrDeviceRemove( ZDSecMgrDevice_t* device );
    244          ZStatus_t ZDSecMgrDeviceValidateRM( ZDSecMgrDevice_t* device );
    245          ZStatus_t ZDSecMgrDeviceValidate( ZDSecMgrDevice_t* device );
    246          ZStatus_t ZDSecMgrDeviceJoin( ZDSecMgrDevice_t* device );
    247          ZStatus_t ZDSecMgrDeviceJoinDirect( ZDSecMgrDevice_t* device );
    248          ZStatus_t ZDSecMgrDeviceJoinFwd( ZDSecMgrDevice_t* device );
    249          ZStatus_t ZDSecMgrDeviceNew( ZDSecMgrDevice_t* device );
    250          
    251          //-----------------------------------------------------------------------------
    252          // association management
    253          //-----------------------------------------------------------------------------
    254          void ZDSecMgrAssocDeviceAuth( associated_devices_t* assoc );
    255          
    256          //-----------------------------------------------------------------------------
    257          // authentication management
    258          //-----------------------------------------------------------------------------
    259          void ZDSecMgrAuthNwkKey( void );
    260          
    261          //-----------------------------------------------------------------------------
    262          // APSME function
    263          //-----------------------------------------------------------------------------
    264          void APSME_TCLinkKeyInit( uint8 setDefault );
    265          uint8 APSME_IsDefaultTCLK( uint8 *extAddr );
    266          void ZDSecMgrGenerateSeed(uint8 setDefault );
    267          void ZDSecMgrGenerateKeyFromSeed(uint8 *extAddr, uint8 shift, uint8 *key);
    268          /******************************************************************************
    269           * @fn          ZDSecMgrAddrStore
    270           *
    271           * @brief       Store device addresses.
    272           *
    273           * @param       nwkAddr - [in] NWK address
    274           * @param       extAddr - [in] EXT address
    275           * @param       ami     - [out] Address Manager index
    276           *
    277           * @return      ZStatus_t
    278           */

   \                                 In  segment BANKED_CODE, align 1, keep-with-next
    279          ZStatus_t ZDSecMgrAddrStore( uint16 nwkAddr, uint8* extAddr, uint16* ami )
   \                     ZDSecMgrAddrStore:
    280          {
   \   000000   74F7         MOV       A,#-0x9
   \   000002   12....       LCALL     ?BANKED_ENTER_XDATA
   \   000005                ; Saved register size: 9
   \   000005                ; Auto size: 13
   \   000005   74F3         MOV       A,#-0xd
   \   000007   12....       LCALL     ?ALLOC_XSTACK8
    281            ZStatus_t      status;
    282            AddrMgrEntry_t entry;
    283          
    284          
    285            // add entry
    286            entry.user    = ADDRMGR_USER_SECURITY;
   \   00000A   85..82       MOV       DPL,?XSP + 0
   \   00000D   85..83       MOV       DPH,?XSP + 1
   \   000010   7402         MOV       A,#0x2
   \   000012   F0           MOVX      @DPTR,A
    287            entry.nwkAddr = nwkAddr;
   \   000013   14           DEC       A
   \   000014   12....       LCALL     ?XSTACK_DISP0_8
   \   000017   12....       LCALL     ?Subroutine18 & 0xFFFF
    288            AddrMgrExtAddrSet( entry.extAddr, extAddr );
   \                     ??CrossCallReturnLabel_10:
   \   00001A   12....       LCALL     ?XSTACK_DISP0_8
   \   00001D   AA82         MOV       R2,DPL
   \   00001F   AB83         MOV       R3,DPH
   \   000021   12....       LCALL     `??AddrMgrExtAddrSet::?relay`; Banked call to: AddrMgrExtAddrSet
   \   000024   7416         MOV       A,#0x16
   \   000026   12....       LCALL     ?XSTACK_DISP0_8
   \   000029   12....       LCALL     ?Subroutine36 & 0xFFFF
    289          
    290            if ( AddrMgrEntryUpdate( &entry ) == TRUE )
   \                     ??CrossCallReturnLabel_38:
   \   00002C   12....       LCALL     `??AddrMgrEntryUpdate::?relay`; Banked call to: AddrMgrEntryUpdate
   \   00002F   E9           MOV       A,R1
   \   000030   6401         XRL       A,#0x1
   \   000032   700A         JNZ       ??ZDSecMgrAddrStore_0
    291            {
    292              // return successful results
    293              *ami   = entry.index;
   \   000034   740B         MOV       A,#0xb
   \   000036   12....       LCALL     ?XSTACK_DISP0_8
   \   000039   12....       LCALL     ?Subroutine10 & 0xFFFF
    294              status = ZSuccess;
    295            }
   \                     ??CrossCallReturnLabel_73:
   \   00003C   8008         SJMP      ??CrossCallReturnLabel_13
    296            else
    297            {
    298              // return failed results
    299              *ami   = entry.index;
   \                     ??ZDSecMgrAddrStore_0:
   \   00003E   740B         MOV       A,#0xb
   \   000040   12....       LCALL     ?XSTACK_DISP0_8
   \   000043   12....       LCALL     ?Subroutine20 & 0xFFFF
    300              status = ZNwkUnknownDevice;
    301            }
    302          
    303            return status;
   \                     ??CrossCallReturnLabel_13:
   \   000046   02....       LJMP      ?Subroutine0 & 0xFFFF
    304          }

   \                                 In  segment BANKED_CODE, align 1, keep-with-next
   \                     ?Subroutine36:
   \   000000   E0           MOVX      A,@DPTR
   \   000001   FE           MOV       R6,A
   \   000002   A3           INC       DPTR
   \   000003   E0           MOVX      A,@DPTR
   \   000004   FF           MOV       R7,A
   \   000005                ; Setup parameters for call to function AddrMgrEntryUpdate
   \   000005                ; Setup parameters for call to function AddrMgrEntryUpdate
   \   000005   AA..         MOV       R2,?XSP + 0
   \   000007   AB..         MOV       R3,?XSP + 1
   \   000009   22           RET

   \                                 In  segment BANKED_CODE, align 1, keep-with-next
   \                     ?Subroutine20:
   \   000000   12....       LCALL     ?Subroutine51 & 0xFFFF
   \                     ??CrossCallReturnLabel_194:
   \   000003   8E82         MOV       DPL,R6
   \   000005   8F83         MOV       DPH,R7
   \   000007   12....       LCALL     ?Subroutine50 & 0xFFFF
   \                     ??CrossCallReturnLabel_161:
   \   00000A   79C8         MOV       R1,#-0x38
   \   00000C   22           RET

   \                                 In  segment BANKED_CODE, align 1, keep-with-next
   \                     ?Subroutine18:
   \   000000   EA           MOV       A,R2
   \   000001   F0           MOVX      @DPTR,A
   \   000002   A3           INC       DPTR
   \   000003   EB           MOV       A,R3
   \   000004   F0           MOVX      @DPTR,A
   \   000005                ; Setup parameters for call to function AddrMgrExtAddrSet
   \   000005                ; Setup parameters for call to function AddrMgrExtAddrSet
   \   000005   7403         MOV       A,#0x3
   \   000007   22           RET

   \                                 In  segment BANKED_CODE, align 1, keep-with-next
   \                     ?Subroutine10:
   \   000000   12....       LCALL     ??Subroutine85_0 & 0xFFFF
   \                     ??CrossCallReturnLabel_224:
   \   000003                REQUIRE ??Subroutine58_0
   \   000003                ; // Fall through to label ??Subroutine58_0

   \                                 In  segment BANKED_CODE, align 1, keep-with-next
   \                     ??Subroutine58_0:
   \   000000   F9           MOV       R1,A
   \   000001   8E82         MOV       DPL,R6
   \   000003   8F83         MOV       DPH,R7
   \   000005                REQUIRE ??Subroutine59_0
   \   000005                ; // Fall through to label ??Subroutine59_0

   \                                 In  segment BANKED_CODE, align 1, keep-with-next
   \                     ??Subroutine59_0:
   \   000000   12....       LCALL     ?Subroutine50 & 0xFFFF
   \                     ??CrossCallReturnLabel_164:
   \   000003   7900         MOV       R1,#0x0
   \   000005   22           RET

   \                                 In  segment BANKED_CODE, align 1, keep-with-next
   \                     ?Subroutine51:
   \   000000   12....       LCALL     ??Subroutine85_0 & 0xFFFF
   \                     ??CrossCallReturnLabel_228:
   \   000003   F9           MOV       R1,A
   \   000004   22           RET

   \                                 In  segment BANKED_CODE, align 1, keep-with-next
   \                     ?Subroutine0:
   \   000000   740D         MOV       A,#0xd
   \   000002                REQUIRE ??Subroutine68_0
   \   000002                ; // Fall through to label ??Subroutine68_0

   \                                 In  segment BANKED_CODE, align 1, keep-with-next
   \                     ??Subroutine68_0:
   \   000000   12....       LCALL     ?DEALLOC_XSTACK8
   \   000003                REQUIRE ??Subroutine69_0
   \   000003                ; // Fall through to label ??Subroutine69_0

   \                                 In  segment BANKED_CODE, align 1, keep-with-next
   \                     ??Subroutine69_0:
   \   000000   7F01         MOV       R7,#0x1
   \   000002   02....       LJMP      ?BANKED_LEAVE_XDATA

   \                                 In  segment BANKED_CODE, align 1, keep-with-next
   \                     ?Subroutine50:
   \   000000   E8           MOV       A,R0
   \   000001   F0           MOVX      @DPTR,A
   \   000002   A3           INC       DPTR
   \   000003   E9           MOV       A,R1
   \   000004   F0           MOVX      @DPTR,A
   \   000005   22           RET

   \                                 In  segment BANKED_CODE, align 1, keep-with-next
   \                     ??Subroutine85_0:
   \   000000   E0           MOVX      A,@DPTR
   \   000001   F8           MOV       R0,A
   \   000002   A3           INC       DPTR
   \   000003   E0           MOVX      A,@DPTR
   \   000004   22           RET
    305          
    306          /******************************************************************************
    307           * @fn          ZDSecMgrExtAddrStore
    308           *
    309           * @brief       Store EXT address.
    310           *
    311           * @param       extAddr - [in] EXT address
    312           * @param       ami     - [out] Address Manager index
    313           *
    314           * @return      ZStatus_t
    315           */

   \                                 In  segment BANKED_CODE, align 1, keep-with-next
    316          ZStatus_t ZDSecMgrExtAddrStore( uint16 nwkAddr, uint8* extAddr, uint16* ami )
   \                     ZDSecMgrExtAddrStore:
    317          {
   \   000000   74F7         MOV       A,#-0x9
   \   000002   12....       LCALL     ?BANKED_ENTER_XDATA
   \   000005                ; Saved register size: 9
   \   000005                ; Auto size: 13
   \   000005   74F3         MOV       A,#-0xd
   \   000007   12....       LCALL     ?ALLOC_XSTACK8
    318            ZStatus_t      status;
    319            AddrMgrEntry_t entry;
    320          
    321          
    322            // add entry
    323            entry.user    = ADDRMGR_USER_SECURITY;
   \   00000A   85..82       MOV       DPL,?XSP + 0
   \   00000D   85..83       MOV       DPH,?XSP + 1
   \   000010   7402         MOV       A,#0x2
   \   000012   F0           MOVX      @DPTR,A
    324            entry.nwkAddr = nwkAddr;
   \   000013   14           DEC       A
   \   000014   12....       LCALL     ?XSTACK_DISP0_8
   \   000017   12....       LCALL     ?Subroutine18 & 0xFFFF
    325            AddrMgrExtAddrSet( entry.extAddr, extAddr );
   \                     ??CrossCallReturnLabel_11:
   \   00001A   12....       LCALL     ?XSTACK_DISP0_8
   \   00001D   AA82         MOV       R2,DPL
   \   00001F   AB83         MOV       R3,DPH
   \   000021   12....       LCALL     `??AddrMgrExtAddrSet::?relay`; Banked call to: AddrMgrExtAddrSet
   \   000024   7416         MOV       A,#0x16
   \   000026   12....       LCALL     ?XSTACK_DISP0_8
   \   000029   12....       LCALL     ?Subroutine36 & 0xFFFF
    326          
    327            if ( AddrMgrEntryUpdate( &entry ) == TRUE )
   \                     ??CrossCallReturnLabel_39:
   \   00002C   12....       LCALL     `??AddrMgrEntryUpdate::?relay`; Banked call to: AddrMgrEntryUpdate
   \   00002F   E9           MOV       A,R1
   \   000030   6401         XRL       A,#0x1
   \   000032   700A         JNZ       ??ZDSecMgrExtAddrStore_0
    328            {
    329              // return successful results
    330              *ami   = entry.index;
   \   000034   740B         MOV       A,#0xb
   \   000036   12....       LCALL     ?XSTACK_DISP0_8
   \   000039   12....       LCALL     ?Subroutine10 & 0xFFFF
    331              status = ZSuccess;
    332            }
   \                     ??CrossCallReturnLabel_74:
   \   00003C   8008         SJMP      ??CrossCallReturnLabel_14
    333            else
    334            {
    335              // return failed results
    336              *ami   = entry.index;
   \                     ??ZDSecMgrExtAddrStore_0:
   \   00003E   740B         MOV       A,#0xb
   \   000040   12....       LCALL     ?XSTACK_DISP0_8
   \   000043   12....       LCALL     ?Subroutine20 & 0xFFFF
    337              status = ZNwkUnknownDevice;
    338            }
    339          
    340            return status;
   \                     ??CrossCallReturnLabel_14:
   \   000046   02....       LJMP      ?Subroutine0 & 0xFFFF
    341          }
    342          
    343          /******************************************************************************
    344           * @fn          ZDSecMgrExtAddrLookup
    345           *
    346           * @brief       Lookup index for specified EXT address.
    347           *
    348           * @param       extAddr - [in] EXT address
    349           * @param       ami     - [out] Address Manager index
    350           *
    351           * @return      ZStatus_t
    352           */

   \                                 In  segment BANKED_CODE, align 1, keep-with-next
    353          ZStatus_t ZDSecMgrExtAddrLookup( uint8* extAddr, uint16* ami )
   \                     ZDSecMgrExtAddrLookup:
    354          {
   \   000000   74F7         MOV       A,#-0x9
   \   000002   12....       LCALL     ?BANKED_ENTER_XDATA
   \   000005                ; Saved register size: 9
   \   000005                ; Auto size: 13
   \   000005   74F3         MOV       A,#-0xd
   \   000007   12....       LCALL     ?ALLOC_XSTACK8
   \   00000A   EC           MOV       A,R4
   \   00000B   FE           MOV       R6,A
   \   00000C   ED           MOV       A,R5
   \   00000D   FF           MOV       R7,A
    355            ZStatus_t      status;
    356            AddrMgrEntry_t entry;
    357          
    358          
    359            // lookup entry
    360            entry.user = ADDRMGR_USER_SECURITY;
   \   00000E   85..82       MOV       DPL,?XSP + 0
   \   000011   85..83       MOV       DPH,?XSP + 1
   \   000014   7402         MOV       A,#0x2
   \   000016   F0           MOVX      @DPTR,A
    361            AddrMgrExtAddrSet( entry.extAddr, extAddr );
   \   000017                ; Setup parameters for call to function AddrMgrExtAddrSet
   \   000017   EA           MOV       A,R2
   \   000018   FC           MOV       R4,A
   \   000019   EB           MOV       A,R3
   \   00001A   FD           MOV       R5,A
   \   00001B   7403         MOV       A,#0x3
   \   00001D   12....       LCALL     ?XSTACK_DISP0_8
   \   000020   AA82         MOV       R2,DPL
   \   000022   AB83         MOV       R3,DPH
   \   000024   12....       LCALL     `??AddrMgrExtAddrSet::?relay`; Banked call to: AddrMgrExtAddrSet
    362          
    363            if ( AddrMgrEntryLookupExt( &entry ) == TRUE )
   \   000027                ; Setup parameters for call to function AddrMgrEntryLookupExt
   \   000027   AA..         MOV       R2,?XSP + 0
   \   000029   AB..         MOV       R3,?XSP + 1
   \   00002B   12....       LCALL     `??AddrMgrEntryLookupExt::?relay`; Banked call to: AddrMgrEntryLookupExt
   \   00002E   E9           MOV       A,R1
   \   00002F   6401         XRL       A,#0x1
   \   000031   700A         JNZ       ??ZDSecMgrExtAddrLookup_0
    364            {
    365              // return successful results
    366              *ami   = entry.index;
   \   000033   740B         MOV       A,#0xb
   \   000035   12....       LCALL     ?XSTACK_DISP0_8
   \   000038   12....       LCALL     ?Subroutine10 & 0xFFFF
    367              status = ZSuccess;
    368            }
   \                     ??CrossCallReturnLabel_75:
   \   00003B   8008         SJMP      ??CrossCallReturnLabel_15
    369            else
    370            {
    371              // return failed results
    372              *ami   = entry.index;
   \                     ??ZDSecMgrExtAddrLookup_0:
   \   00003D   740B         MOV       A,#0xb
   \   00003F   12....       LCALL     ?XSTACK_DISP0_8
   \   000042   12....       LCALL     ?Subroutine20 & 0xFFFF
    373              status = ZNwkUnknownDevice;
    374            }
    375          
    376            return status;
   \                     ??CrossCallReturnLabel_15:
   \   000045   02....       LJMP      ?Subroutine0 & 0xFFFF
    377          }
    378          
    379          /******************************************************************************
    380           * @fn          ZDSecMgrAddrClear
    381           *
    382           * @brief       Clear security bit from Address Manager for specific device.
    383           *
    384           * @param       extAddr - [in] EXT address
    385           *
    386           * @return      ZStatus_t
    387           */

   \                                 In  segment BANKED_CODE, align 1, keep-with-next
    388          ZStatus_t ZDSecMgrAddrClear( uint8* extAddr )
   \                     ZDSecMgrAddrClear:
    389          {
   \   000000   74F7         MOV       A,#-0x9
   \   000002   12....       LCALL     ?BANKED_ENTER_XDATA
   \   000005                ; Saved register size: 9
   \   000005                ; Auto size: 15
   \   000005   74F1         MOV       A,#-0xf
   \   000007   12....       LCALL     ?ALLOC_XSTACK8
    390            ZStatus_t status;
    391            uint16 entryAmi;
    392          
    393            // get Address Manager Index
    394            status = ZDSecMgrExtAddrLookup( extAddr, &entryAmi );
   \   00000A                ; Setup parameters for call to function ZDSecMgrExtAddrLookup
   \   00000A   AC..         MOV       R4,?XSP + 0
   \   00000C   AD..         MOV       R5,?XSP + 1
   \   00000E   12....       LCALL     `??ZDSecMgrExtAddrLookup::?relay`; Banked call to: ZDSecMgrExtAddrLookup
   \   000011   E9           MOV       A,R1
   \   000012   FE           MOV       R6,A
    395          
    396            if ( status == ZSuccess )
   \   000013   7020         JNZ       ??ZDSecMgrAddrClear_0
    397            {
    398              AddrMgrEntry_t addrEntry;
    399          
    400              // Clear SECURITY User bit from the address manager
    401              addrEntry.user = ADDRMGR_USER_SECURITY;
   \   000015   7402         MOV       A,#0x2
   \   000017   12....       LCALL     ?XSTACK_DISP0_8
   \   00001A   7402         MOV       A,#0x2
   \   00001C   12....       LCALL     ?Subroutine15 & 0xFFFF
    402              addrEntry.index = entryAmi;
   \                     ??CrossCallReturnLabel_6:
   \   00001F   F9           MOV       R1,A
   \   000020   740D         MOV       A,#0xd
   \   000022   12....       LCALL     ?XSTACK_DISP0_8
   \   000025   12....       LCALL     ?Subroutine21 & 0xFFFF
    403          
    404              if ( AddrMgrEntryRelease( &addrEntry ) != TRUE )
   \                     ??CrossCallReturnLabel_16:
   \   000028   12....       LCALL     ?XSTACK_DISP101_8
   \   00002B   12....       LCALL     `??AddrMgrEntryRelease::?relay`; Banked call to: AddrMgrEntryRelease
   \   00002E   E9           MOV       A,R1
   \   00002F   6401         XRL       A,#0x1
   \   000031   6002         JZ        ??ZDSecMgrAddrClear_0
    405              {
    406                // return failure results
    407                status = ZFailure;
   \   000033   7E01         MOV       R6,#0x1
    408              }
    409            }
    410          
    411            return status;
   \                     ??ZDSecMgrAddrClear_0:
   \   000035   EE           MOV       A,R6
   \   000036   F9           MOV       R1,A
   \   000037   740F         MOV       A,#0xf
   \   000039   02....       LJMP      ??Subroutine68_0 & 0xFFFF
    412          }

   \                                 In  segment BANKED_CODE, align 1, keep-with-next
   \                     ?Subroutine21:
   \   000000   12....       LCALL     ?Subroutine50 & 0xFFFF
   \                     ??CrossCallReturnLabel_162:
   \   000003                ; Setup parameters for call to function AddrMgrEntryRelease
   \   000003                ; Setup parameters for indirect call
   \   000003   7402         MOV       A,#0x2
   \   000005   22           RET

   \                                 In  segment BANKED_CODE, align 1, keep-with-next
   \                     ?Subroutine15:
   \   000000   F0           MOVX      @DPTR,A
   \   000001   12....       LCALL     ?Subroutine56 & 0xFFFF
   \                     ??CrossCallReturnLabel_226:
   \   000004   22           RET

   \                                 In  segment BANKED_CODE, align 1, keep-with-next
   \                     ?Subroutine56:
   \   000000   85..82       MOV       DPL,?XSP + 0
   \   000003   85..83       MOV       DPH,?XSP + 1
   \   000006                REQUIRE ??Subroutine85_0
   \   000006                ; // Fall through to label ??Subroutine85_0
    413          
    414          /******************************************************************************
    415           * @fn          ZDSecMgrEntryInit
    416           *
    417           * @brief       Initialize entry sub module
    418           *
    419           * @param       state - device initialization state
    420           *
    421           * @return      none
    422           */

   \                                 In  segment BANKED_CODE, align 1, keep-with-next
    423          void ZDSecMgrEntryInit(uint8 state)
   \                     ZDSecMgrEntryInit:
    424          {
   \   000000   74F7         MOV       A,#-0x9
   \   000002   12....       LCALL     ?BANKED_ENTER_XDATA
   \   000005                ; Saved register size: 9
   \   000005                ; Auto size: 0
   \   000005   E9           MOV       A,R1
   \   000006   FE           MOV       R6,A
    425            if (ZDSecMgrEntries == NULL)
   \   000007   90....       MOV       DPTR,#ZDSecMgrEntries
   \   00000A   12....       LCALL     ??Subroutine70_0 & 0xFFFF
   \                     ??CrossCallReturnLabel_129:
   \   00000D   7030         JNZ       ??ZDSecMgrEntryInit_0
    426            {
    427              uint16 index;
    428          
    429              if ((ZDSecMgrEntries = osal_mem_alloc(sizeof(ZDSecMgrEntry_t) * ZDSECMGR_ENTRY_MAX)) == NULL)
   \   00000F                ; Setup parameters for call to function osal_mem_alloc
   \   00000F   7A0F         MOV       R2,#0xf
   \   000011   7B00         MOV       R3,#0x0
   \   000013   12....       LCALL     `??osal_mem_alloc::?relay`; Banked call to: osal_mem_alloc
   \   000016   90....       MOV       DPTR,#ZDSecMgrEntries
   \   000019   EA           MOV       A,R2
   \   00001A   F0           MOVX      @DPTR,A
   \   00001B   A3           INC       DPTR
   \   00001C   EB           MOV       A,R3
   \   00001D   12....       LCALL     ??Subroutine80_0 & 0xFFFF
   \                     ??CrossCallReturnLabel_191:
   \   000020   6023         JZ        ??ZDSecMgrEntryInit_1
    430              {
    431                return;
    432              }
    433          
    434              for (index = 0; index < ZDSECMGR_ENTRY_MAX; index++)
   \   000022   7800         MOV       R0,#0x0
   \   000024   7900         MOV       R1,#0x0
    435              {
    436                ZDSecMgrEntries[index].ami = INVALID_NODE_ADDR;
   \                     ??ZDSecMgrEntryInit_2:
   \   000026   12....       LCALL     ?Subroutine31 & 0xFFFF
    437          
    438                ZDSecMgrEntries[index].keyNvId = SEC_NO_KEY_NV_ID;
    439              }
   \                     ??CrossCallReturnLabel_71:
   \   000029   74FE         MOV       A,#-0x2
   \   00002B   F0           MOVX      @DPTR,A
   \   00002C   A3           INC       DPTR
   \   00002D   04           INC       A
   \   00002E   12....       LCALL     ??Subroutine61_0 & 0xFFFF
   \                     ??CrossCallReturnLabel_88:
   \   000031   E4           CLR       A
   \   000032   F0           MOVX      @DPTR,A
   \   000033   A3           INC       DPTR
   \   000034   F0           MOVX      @DPTR,A
   \   000035   08           INC       R0
   \   000036   E8           MOV       A,R0
   \   000037   7001         JNZ       ??ZDSecMgrEntryInit_3
   \   000039   09           INC       R1
   \                     ??ZDSecMgrEntryInit_3:
   \   00003A   12....       LCALL     ?Subroutine40 & 0xFFFF
    440            }
   \                     ??CrossCallReturnLabel_81:
   \   00003D   40E7         JC        ??ZDSecMgrEntryInit_2
    441          
    442          #if defined NV_RESTORE
    443            if (state == ZDO_INITDEV_RESTORED_NETWORK_STATE)
   \                     ??ZDSecMgrEntryInit_0:
   \   00003F   EE           MOV       A,R6
   \   000040   7003         JNZ       ??ZDSecMgrEntryInit_1
    444            {
    445              ZDSecMgrRestoreFromNV();
   \   000042                ; Setup parameters for call to function ZDSecMgrRestoreFromNV
   \   000042   12....       LCALL     `??ZDSecMgrRestoreFromNV::?relay`; Banked call to: ZDSecMgrRestoreFromNV
    446            }
    447          #else
    448            (void)state;
    449          #endif
    450          }
   \                     ??ZDSecMgrEntryInit_1:
   \   000045   02....       LJMP      ??Subroutine69_0 & 0xFFFF

   \                                 In  segment BANKED_CODE, align 1, keep-with-next
   \                     ?Subroutine31:
   \   000000   E8           MOV       A,R0
   \   000001   FA           MOV       R2,A
   \   000002   E9           MOV       A,R1
   \   000003   FB           MOV       R3,A
   \   000004   EA           MOV       A,R2
   \   000005   75F005       MOV       B,#0x5
   \   000008   A4           MUL       AB
   \   000009   FA           MOV       R2,A
   \   00000A   ACF0         MOV       R4,B
   \   00000C   75F005       MOV       B,#0x5
   \   00000F   EB           MOV       A,R3
   \   000010   A4           MUL       AB
   \   000011   2C           ADD       A,R4
   \   000012                REQUIRE ??Subroutine57_0
   \   000012                ; // Fall through to label ??Subroutine57_0

   \                                 In  segment BANKED_CODE, align 1, keep-with-next
   \                     ??Subroutine57_0:
   \   000000   FB           MOV       R3,A
   \   000001   90....       MOV       DPTR,#ZDSecMgrEntries
   \   000004   E0           MOVX      A,@DPTR
   \   000005   2A           ADD       A,R2
   \   000006   FA           MOV       R2,A
   \   000007   A3           INC       DPTR
   \   000008   E0           MOVX      A,@DPTR
   \   000009   3B           ADDC      A,R3
   \   00000A   FB           MOV       R3,A
   \   00000B   8A82         MOV       DPL,R2
   \   00000D   8B83         MOV       DPH,R3
   \   00000F   22           RET

   \                                 In  segment BANKED_CODE, align 1, keep-with-next
   \                     ?Subroutine40:
   \   000000   C3           CLR       C
   \   000001                REQUIRE ??Subroutine60_0
   \   000001                ; // Fall through to label ??Subroutine60_0

   \                                 In  segment BANKED_CODE, align 1, keep-with-next
   \                     ??Subroutine60_0:
   \   000000   9403         SUBB      A,#0x3
   \   000002   E9           MOV       A,R1
   \   000003   9400         SUBB      A,#0x0
   \   000005   22           RET

   \                                 In  segment BANKED_CODE, align 1, keep-with-next
   \                     ??Subroutine61_0:
   \   000000   F0           MOVX      @DPTR,A
   \   000001   8A82         MOV       DPL,R2
   \   000003   8B83         MOV       DPH,R3
   \   000005   A3           INC       DPTR
   \   000006   A3           INC       DPTR
   \   000007   22           RET

   \                                 In  segment BANKED_CODE, align 1, keep-with-next
   \                     ??Subroutine70_0:
   \   000000   12....       LCALL     ?Subroutine51 & 0xFFFF
   \                     ??CrossCallReturnLabel_197:
   \   000003   E8           MOV       A,R0
   \   000004   49           ORL       A,R1
   \   000005   22           RET

   \                                 In  segment BANKED_CODE, align 1, keep-with-next
   \                     ??Subroutine80_0:
   \   000000   F0           MOVX      @DPTR,A
   \   000001   90....       MOV       DPTR,#ZDSecMgrEntries
   \   000004   12....       LCALL     ?Subroutine51 & 0xFFFF
   \                     ??CrossCallReturnLabel_198:
   \   000007   E8           MOV       A,R0
   \   000008   49           ORL       A,R1
   \   000009   22           RET
    451          
    452          /******************************************************************************
    453           * @fn          ZDSecMgrEntryLookup
    454           *
    455           * @brief       Lookup entry index using specified NWK address.
    456           *
    457           * @param       nwkAddr - [in] NWK address
    458           * @param       entry   - [out] valid entry
    459           *
    460           * @return      ZStatus_t
    461           */

   \                                 In  segment BANKED_CODE, align 1, keep-with-next
    462          ZStatus_t ZDSecMgrEntryLookup( uint16 nwkAddr, ZDSecMgrEntry_t** entry )
   \                     ZDSecMgrEntryLookup:
    463          {
   \   000000                REQUIRE ?V0
   \   000000   74F7         MOV       A,#-0x9
   \   000002   12....       LCALL     ?BANKED_ENTER_XDATA
   \   000005                ; Saved register size: 9
   \   000005                ; Auto size: 13
   \   000005   74F3         MOV       A,#-0xd
   \   000007   12....       LCALL     ?ALLOC_XSTACK8
   \   00000A   EC           MOV       A,R4
   \   00000B   FE           MOV       R6,A
   \   00000C   ED           MOV       A,R5
   \   00000D   12....       LCALL     ?Subroutine9 & 0xFFFF
    464            uint16         index;
    465            AddrMgrEntry_t addrMgrEntry;
    466          
    467            // initialize results
    468            *entry = NULL;
    469          
    470            // verify data is available
    471            if ( ZDSecMgrEntries != NULL )
   \                     ??CrossCallReturnLabel_187:
   \   000010   6060         JZ        ??ZDSecMgrEntryLookup_0
    472            {
    473              addrMgrEntry.user    = ADDRMGR_USER_SECURITY;
   \   000012   85..82       MOV       DPL,?XSP + 0
   \   000015   85..83       MOV       DPH,?XSP + 1
   \   000018   7402         MOV       A,#0x2
   \   00001A   F0           MOVX      @DPTR,A
    474              addrMgrEntry.nwkAddr = nwkAddr;
   \   00001B   14           DEC       A
   \   00001C   12....       LCALL     ?XSTACK_DISP0_8
   \   00001F   12....       LCALL     ?Subroutine11 & 0xFFFF
    475          
    476              if ( AddrMgrEntryLookupNwk( &addrMgrEntry ) == TRUE )
   \                     ??CrossCallReturnLabel_166:
   \   000022   12....       LCALL     `??AddrMgrEntryLookupNwk::?relay`; Banked call to: AddrMgrEntryLookupNwk
   \   000025   E9           MOV       A,R1
   \   000026   6401         XRL       A,#0x1
   \   000028   7048         JNZ       ??ZDSecMgrEntryLookup_0
    477              {
    478                for ( index = 0; index < ZDSECMGR_ENTRY_MAX ; index++ )
   \   00002A   7800         MOV       R0,#0x0
   \   00002C   7900         MOV       R1,#0x0
    479                {
    480                  if ( addrMgrEntry.index == ZDSecMgrEntries[index].ami )
   \                     ??ZDSecMgrEntryLookup_1:
   \   00002E   E8           MOV       A,R0
   \   00002F   FA           MOV       R2,A
   \   000030   E9           MOV       A,R1
   \   000031   FB           MOV       R3,A
   \   000032   EA           MOV       A,R2
   \   000033   75F005       MOV       B,#0x5
   \   000036   A4           MUL       AB
   \   000037   FA           MOV       R2,A
   \   000038   ACF0         MOV       R4,B
   \   00003A   75F005       MOV       B,#0x5
   \   00003D   EB           MOV       A,R3
   \   00003E   A4           MUL       AB
   \   00003F   2C           ADD       A,R4
   \   000040   FB           MOV       R3,A
   \   000041   90....       MOV       DPTR,#ZDSecMgrEntries
   \   000044   E0           MOVX      A,@DPTR
   \   000045   2A           ADD       A,R2
   \   000046   FA           MOV       R2,A
   \   000047   A3           INC       DPTR
   \   000048   E0           MOVX      A,@DPTR
   \   000049   3B           ADDC      A,R3
   \   00004A   FB           MOV       R3,A
   \   00004B   740B         MOV       A,#0xb
   \   00004D   12....       LCALL     ?XSTACK_DISP0_8
   \   000050   12....       LCALL     ?Subroutine30 & 0xFFFF
   \                     ??CrossCallReturnLabel_24:
   \   000053   8A82         MOV       DPL,R2
   \   000055   8B83         MOV       DPH,R3
   \   000057   E0           MOVX      A,@DPTR
   \   000058   6C           XRL       A,R4
   \   000059   7003         JNZ       ??ZDSecMgrEntryLookup_2
   \   00005B   A3           INC       DPTR
   \   00005C   E0           MOVX      A,@DPTR
   \   00005D   6D           XRL       A,R5
   \                     ??ZDSecMgrEntryLookup_2:
   \   00005E   7008         JNZ       ??ZDSecMgrEntryLookup_3
    481                  {
    482                    // return successful results
    483                    *entry = &ZDSecMgrEntries[index];
   \   000060   EA           MOV       A,R2
   \   000061   F8           MOV       R0,A
   \   000062   EB           MOV       A,R3
   \   000063   12....       LCALL     ??Subroutine58_0 & 0xFFFF
    484          
    485                    // break from loop
    486                    return ZSuccess;
    487                  }
    488                }
   \                     ??CrossCallReturnLabel_76:
   \   000066   800C         SJMP      ??ZDSecMgrEntryLookup_4
   \                     ??ZDSecMgrEntryLookup_3:
   \   000068   08           INC       R0
   \   000069   E8           MOV       A,R0
   \   00006A   7001         JNZ       ??ZDSecMgrEntryLookup_5
   \   00006C   09           INC       R1
   \                     ??ZDSecMgrEntryLookup_5:
   \   00006D   12....       LCALL     ?Subroutine40 & 0xFFFF
    489              }
    490            }
   \                     ??CrossCallReturnLabel_82:
   \   000070   40BC         JC        ??ZDSecMgrEntryLookup_1
    491          
    492            return ZNwkUnknownDevice;
   \                     ??ZDSecMgrEntryLookup_0:
   \   000072   79C8         MOV       R1,#-0x38
   \                     ??ZDSecMgrEntryLookup_4:
   \   000074   02....       LJMP      ?Subroutine0 & 0xFFFF
    493          }

   \                                 In  segment BANKED_CODE, align 1, keep-with-next
   \                     ?Subroutine30:
   \   000000   E0           MOVX      A,@DPTR
   \   000001   FC           MOV       R4,A
   \   000002   A3           INC       DPTR
   \   000003   E0           MOVX      A,@DPTR
   \   000004   FD           MOV       R5,A
   \   000005   22           RET

   \                                 In  segment BANKED_CODE, align 1, keep-with-next
   \                     ?Subroutine11:
   \   000000   EA           MOV       A,R2
   \   000001   F0           MOVX      @DPTR,A
   \   000002   A3           INC       DPTR
   \   000003   EB           MOV       A,R3
   \   000004                REQUIRE ??Subroutine74_0
   \   000004                ; // Fall through to label ??Subroutine74_0

   \                                 In  segment BANKED_CODE, align 1, keep-with-next
   \                     ??Subroutine74_0:
   \   000000   F0           MOVX      @DPTR,A
   \   000001                ; Setup parameters for call to function AddrMgrEntryLookupNwk
   \   000001                ; Setup parameters for call to function APSME_RequestKeyReq
   \   000001                ; Setup parameters for call to function APSME_ConfirmKeyReq
   \   000001                ; Setup parameters for call to function ZDSecMgrDeviceNew
   \   000001                ; Setup parameters for call to function ZDSecMgrDeviceRemove
   \   000001                ; Setup parameters for call to function APSME_TransportKeyReq
   \   000001                ; Setup parameters for call to function APSME_SwitchKeyReq
   \   000001                ; Setup parameters for call to function ZDSecMgrDeviceRemove
   \   000001   AA..         MOV       R2,?XSP + 0
   \   000003   AB..         MOV       R3,?XSP + 1
   \   000005   22           RET

   \                                 In  segment BANKED_CODE, align 1, keep-with-next
   \                     ?Subroutine9:
   \   000000   FF           MOV       R7,A
   \   000001   8E82         MOV       DPL,R6
   \   000003   8F83         MOV       DPH,R7
   \   000005                REQUIRE ??Subroutine79_0
   \   000005                ; // Fall through to label ??Subroutine79_0

   \                                 In  segment BANKED_CODE, align 1, keep-with-next
   \                     ??Subroutine79_0:
   \   000000   E4           CLR       A
   \   000001   F0           MOVX      @DPTR,A
   \   000002   A3           INC       DPTR
   \   000003                REQUIRE ??Subroutine80_0
   \   000003                ; // Fall through to label ??Subroutine80_0
    494          
    495          /******************************************************************************
    496           * @fn          ZDSecMgrEntryLookupAMI
    497           *
    498           * @brief       Lookup entry using specified address index
    499           *
    500           * @param       ami   - [in] Address Manager index
    501           * @param       entry - [out] valid entry
    502           *
    503           * @return      ZStatus_t
    504           */

   \                                 In  segment BANKED_CODE, align 1, keep-with-next
    505          ZStatus_t ZDSecMgrEntryLookupAMI( uint16 ami, ZDSecMgrEntry_t** entry )
   \                     ZDSecMgrEntryLookupAMI:
    506          {
   \   000000                REQUIRE ?V0
   \   000000   74F7         MOV       A,#-0x9
   \   000002   12....       LCALL     ?BANKED_ENTER_XDATA
   \   000005                ; Saved register size: 9
   \   000005                ; Auto size: 0
   \   000005   EA           MOV       A,R2
   \   000006   FE           MOV       R6,A
   \   000007   EB           MOV       A,R3
   \   000008   FF           MOV       R7,A
    507            uint16 index;
    508          
    509            // initialize results
    510            *entry = NULL;
   \   000009   8C82         MOV       DPL,R4
   \   00000B   8D83         MOV       DPH,R5
   \   00000D   12....       LCALL     ??Subroutine79_0 & 0xFFFF
    511          
    512            // verify data is available
    513            if ( ZDSecMgrEntries != NULL )
   \                     ??CrossCallReturnLabel_189:
   \   000010   603B         JZ        ??ZDSecMgrEntryLookupAMI_0
    514            {
    515              for ( index = 0; index < ZDSECMGR_ENTRY_MAX ; index++ )
   \   000012   7800         MOV       R0,#0x0
   \   000014   7900         MOV       R1,#0x0
    516              {
    517                if ( ZDSecMgrEntries[index].ami == ami )
   \                     ??ZDSecMgrEntryLookupAMI_1:
   \   000016   E8           MOV       A,R0
   \   000017   FA           MOV       R2,A
   \   000018   E9           MOV       A,R1
   \   000019   FB           MOV       R3,A
   \   00001A   EA           MOV       A,R2
   \   00001B   75F005       MOV       B,#0x5
   \   00001E   A4           MUL       AB
   \   00001F   FA           MOV       R2,A
   \   000020   85F0..       MOV       ?V0,B
   \   000023   75F005       MOV       B,#0x5
   \   000026   EB           MOV       A,R3
   \   000027   A4           MUL       AB
   \   000028   25..         ADD       A,?V0
   \   00002A   12....       LCALL     ??Subroutine57_0 & 0xFFFF
   \                     ??CrossCallReturnLabel_70:
   \   00002D   E0           MOVX      A,@DPTR
   \   00002E   6E           XRL       A,R6
   \   00002F   7003         JNZ       ??ZDSecMgrEntryLookupAMI_2
   \   000031   A3           INC       DPTR
   \   000032   E0           MOVX      A,@DPTR
   \   000033   6F           XRL       A,R7
   \                     ??ZDSecMgrEntryLookupAMI_2:
   \   000034   700D         JNZ       ??ZDSecMgrEntryLookupAMI_3
    518                {
    519                  // return successful results
    520                  *entry = &ZDSecMgrEntries[index];
   \   000036   EA           MOV       A,R2
   \   000037   F8           MOV       R0,A
   \   000038   EB           MOV       A,R3
   \   000039   F9           MOV       R1,A
   \   00003A   8C82         MOV       DPL,R4
   \   00003C   8D83         MOV       DPH,R5
   \   00003E   12....       LCALL     ??Subroutine59_0 & 0xFFFF
    521          
    522                  // break from loop
    523                  return ZSuccess;
    524                }
    525              }
   \                     ??CrossCallReturnLabel_77:
   \   000041   800C         SJMP      ??ZDSecMgrEntryLookupAMI_4
   \                     ??ZDSecMgrEntryLookupAMI_3:
   \   000043   08           INC       R0
   \   000044   E8           MOV       A,R0
   \   000045   7001         JNZ       ??ZDSecMgrEntryLookupAMI_5
   \   000047   09           INC       R1
   \                     ??ZDSecMgrEntryLookupAMI_5:
   \   000048   12....       LCALL     ?Subroutine40 & 0xFFFF
    526            }
   \                     ??CrossCallReturnLabel_83:
   \   00004B   40C9         JC        ??ZDSecMgrEntryLookupAMI_1
    527          
    528            return ZNwkUnknownDevice;
   \                     ??ZDSecMgrEntryLookupAMI_0:
   \   00004D   79C8         MOV       R1,#-0x38
   \                     ??ZDSecMgrEntryLookupAMI_4:
   \   00004F   02....       LJMP      ??Subroutine69_0 & 0xFFFF
    529          }
    530          
    531          /******************************************************************************
    532           * @fn          ZDSecMgrEntryLookupExt
    533           *
    534           * @brief       Lookup entry index using specified EXT address.
    535           *
    536           * @param       extAddr - [in] EXT address
    537           * @param       entry   - [out] valid entry
    538           *
    539           * @return      ZStatus_t
    540           */

   \                                 In  segment BANKED_CODE, align 1, keep-with-next
    541          ZStatus_t ZDSecMgrEntryLookupExt( uint8* extAddr, ZDSecMgrEntry_t** entry )
   \                     ZDSecMgrEntryLookupExt:
    542          {
   \   000000                REQUIRE ?V0
   \   000000   74F7         MOV       A,#-0x9
   \   000002   12....       LCALL     ?BANKED_ENTER_XDATA
   \   000005                ; Saved register size: 9
   \   000005                ; Auto size: 2
   \   000005   74FE         MOV       A,#-0x2
   \   000007   12....       LCALL     ?ALLOC_XSTACK8
   \   00000A   EC           MOV       A,R4
   \   00000B   FE           MOV       R6,A
   \   00000C   ED           MOV       A,R5
   \   00000D   FF           MOV       R7,A
    543            ZStatus_t status;
    544            uint16    ami;
    545          
    546            // initialize results
    547            *entry = NULL;
   \   00000E   8E82         MOV       DPL,R6
   \   000010   8F83         MOV       DPH,R7
   \   000012   E4           CLR       A
   \   000013   F0           MOVX      @DPTR,A
   \   000014   A3           INC       DPTR
   \   000015   F0           MOVX      @DPTR,A
    548            status = ZNwkUnknownDevice;
   \   000016   75..C8       MOV       ?V0,#-0x38
    549          
    550            // lookup address index
    551            if ( ZDSecMgrExtAddrLookup( extAddr, &ami ) == ZSuccess )
   \   000019                ; Setup parameters for call to function ZDSecMgrExtAddrLookup
   \   000019   AC..         MOV       R4,?XSP + 0
   \   00001B   AD..         MOV       R5,?XSP + 1
   \   00001D   12....       LCALL     `??ZDSecMgrExtAddrLookup::?relay`; Banked call to: ZDSecMgrExtAddrLookup
   \   000020   E9           MOV       A,R1
   \   000021   7013         JNZ       ??ZDSecMgrEntryLookupExt_0
    552            {
    553              status = ZDSecMgrEntryLookupAMI( ami, entry );
   \   000023                ; Setup parameters for call to function ZDSecMgrEntryLookupAMI
   \   000023   EE           MOV       A,R6
   \   000024   FC           MOV       R4,A
   \   000025   EF           MOV       A,R7
   \   000026   FD           MOV       R5,A
   \   000027   85..82       MOV       DPL,?XSP + 0
   \   00002A   85..83       MOV       DPH,?XSP + 1
   \   00002D   12....       LCALL     ??Subroutine65_0 & 0xFFFF
    554            }
   \                     ??CrossCallReturnLabel_89:
   \   000030   12....       LCALL     `??ZDSecMgrEntryLookupAMI::?relay`; Banked call to: ZDSecMgrEntryLookupAMI
   \   000033   E9           MOV       A,R1
   \   000034   F5..         MOV       ?V0,A
    555          
    556            return status;
   \                     ??ZDSecMgrEntryLookupExt_0:
   \   000036   A9..         MOV       R1,?V0
   \   000038   02....       LJMP      ?Subroutine6 & 0xFFFF
    557          }

   \                                 In  segment BANKED_CODE, align 1, keep-with-next
   \                     ?Subroutine6:
   \   000000   7402         MOV       A,#0x2
   \   000002   02....       LJMP      ??Subroutine68_0 & 0xFFFF

   \                                 In  segment BANKED_CODE, align 1, keep-with-next
   \                     ??Subroutine65_0:
   \   000000   E0           MOVX      A,@DPTR
   \   000001   FA           MOV       R2,A
   \   000002   A3           INC       DPTR
   \   000003   E0           MOVX      A,@DPTR
   \   000004   FB           MOV       R3,A
   \   000005   22           RET
    558          
    559          /******************************************************************************
    560           * @fn          ZDSecMgrEntryLookupExtGetIndex
    561           *
    562           * @brief       Lookup entry index using specified EXT address.
    563           *
    564           * @param       extAddr - [in] EXT address
    565           * @param       entryIndex - [out] valid index to the entry table
    566           *
    567           * @return      ZStatus_t
    568           */

   \                                 In  segment BANKED_CODE, align 1, keep-with-next
    569          ZStatus_t ZDSecMgrEntryLookupExtGetIndex( uint8* extAddr, ZDSecMgrEntry_t** entry, uint16* entryIndex )
   \                     ZDSecMgrEntryLookupExtGetIndex:
    570          {
   \   000000   74F7         MOV       A,#-0x9
   \   000002   12....       LCALL     ?BANKED_ENTER_XDATA
   \   000005                ; Saved register size: 9
   \   000005                ; Auto size: 2
   \   000005   74FE         MOV       A,#-0x2
   \   000007   12....       LCALL     ?ALLOC_XSTACK8
   \   00000A   EC           MOV       A,R4
   \   00000B   FE           MOV       R6,A
   \   00000C   ED           MOV       A,R5
   \   00000D   FF           MOV       R7,A
    571            uint16 ami;
    572            uint16 index;
    573          
    574            // lookup address index
    575            if ( ZDSecMgrExtAddrLookup( extAddr, &ami ) == ZSuccess )
   \   00000E                ; Setup parameters for call to function ZDSecMgrExtAddrLookup
   \   00000E   AC..         MOV       R4,?XSP + 0
   \   000010   AD..         MOV       R5,?XSP + 1
   \   000012   12....       LCALL     `??ZDSecMgrExtAddrLookup::?relay`; Banked call to: ZDSecMgrExtAddrLookup
   \   000015   E9           MOV       A,R1
   \   000016   703B         JNZ       ??ZDSecMgrEntryLookupExtGetIndex_0
    576            {
    577              // verify data is available
    578              if ( ZDSecMgrEntries != NULL )
   \   000018   90....       MOV       DPTR,#ZDSecMgrEntries
   \   00001B   12....       LCALL     ??Subroutine70_0 & 0xFFFF
   \                     ??CrossCallReturnLabel_130:
   \   00001E   6033         JZ        ??ZDSecMgrEntryLookupExtGetIndex_0
    579              {
    580                for ( index = 0; index < ZDSECMGR_ENTRY_MAX ; index++ )
   \   000020   7800         MOV       R0,#0x0
   \   000022   7900         MOV       R1,#0x0
    581                {
    582                  if ( ZDSecMgrEntries[index].ami == ami )
   \                     ??ZDSecMgrEntryLookupExtGetIndex_1:
   \   000024   12....       LCALL     ?Subroutine31 & 0xFFFF
   \                     ??CrossCallReturnLabel_72:
   \   000027   12....       LCALL     ?Subroutine30 & 0xFFFF
   \                     ??CrossCallReturnLabel_25:
   \   00002A   85..82       MOV       DPL,?XSP + 0
   \   00002D   85..83       MOV       DPH,?XSP + 1
   \   000030   E0           MOVX      A,@DPTR
   \   000031   6C           XRL       A,R4
   \   000032   7003         JNZ       ??ZDSecMgrEntryLookupExtGetIndex_2
   \   000034   A3           INC       DPTR
   \   000035   E0           MOVX      A,@DPTR
   \   000036   6D           XRL       A,R5
   \                     ??ZDSecMgrEntryLookupExtGetIndex_2:
   \   000037   7010         JNZ       ??ZDSecMgrEntryLookupExtGetIndex_3
    583                  {
    584                    // return successful results
    585                    *entry = &ZDSecMgrEntries[index];
   \   000039   12....       LCALL     ?Subroutine19 & 0xFFFF
    586                    *entryIndex = index;
   \                     ??CrossCallReturnLabel_205:
   \   00003C   740B         MOV       A,#0xb
   \   00003E   12....       LCALL     ?XSTACK_DISP0_8
   \   000041   12....       LCALL     ??Subroutine77_0 & 0xFFFF
    587          
    588                    // break from loop
    589                    return ZSuccess;
    590                  }
    591                }
   \                     ??CrossCallReturnLabel_183:
   \   000044   12....       LCALL     ??Subroutine59_0 & 0xFFFF
   \                     ??CrossCallReturnLabel_78:
   \   000047   800C         SJMP      ??ZDSecMgrEntryLookupExtGetIndex_4
   \                     ??ZDSecMgrEntryLookupExtGetIndex_3:
   \   000049   08           INC       R0
   \   00004A   E8           MOV       A,R0
   \   00004B   7001         JNZ       ??ZDSecMgrEntryLookupExtGetIndex_5
   \   00004D   09           INC       R1
   \                     ??ZDSecMgrEntryLookupExtGetIndex_5:
   \   00004E   12....       LCALL     ?Subroutine40 & 0xFFFF
    592              }
    593            }
   \                     ??CrossCallReturnLabel_84:
   \   000051   40D1         JC        ??ZDSecMgrEntryLookupExtGetIndex_1
    594          
    595            return ZNwkUnknownDevice;
   \                     ??ZDSecMgrEntryLookupExtGetIndex_0:
   \   000053   79C8         MOV       R1,#-0x38
   \                     ??ZDSecMgrEntryLookupExtGetIndex_4:
   \   000055   02....       LJMP      ?Subroutine6 & 0xFFFF
    596          }

   \                                 In  segment BANKED_CODE, align 1, keep-with-next
   \                     ??Subroutine77_0:
   \   000000   E0           MOVX      A,@DPTR
   \   000001   FA           MOV       R2,A
   \   000002   A3           INC       DPTR
   \   000003   E0           MOVX      A,@DPTR
   \   000004   F583         MOV       DPH,A
   \   000006   8A82         MOV       DPL,R2
   \   000008   22           RET

   \                                 In  segment BANKED_CODE, align 1, keep-with-next
   \                     ?Subroutine19:
   \   000000   8E82         MOV       DPL,R6
   \   000002   8F83         MOV       DPH,R7
   \   000004                REQUIRE ??Subroutine81_0
   \   000004                ; // Fall through to label ??Subroutine81_0

   \                                 In  segment BANKED_CODE, align 1, keep-with-next
   \                     ??Subroutine81_0:
   \   000000   EA           MOV       A,R2
   \   000001   F0           MOVX      @DPTR,A
   \   000002   A3           INC       DPTR
   \   000003   EB           MOV       A,R3
   \   000004   F0           MOVX      @DPTR,A
   \   000005   22           RET
    597          
    598          /******************************************************************************
    599           * @fn          ZDSecMgrEntryLookupAMIGetIndex
    600           *
    601           * @brief       Lookup entry using specified address index
    602           *
    603           * @param       ami   - [in] Address Manager index
    604           * @param       entryIndex - [out] valid index to the entry table
    605           *
    606           * @return      ZStatus_t
    607           */

   \                                 In  segment BANKED_CODE, align 1, keep-with-next
    608          ZStatus_t ZDSecMgrEntryLookupAMIGetIndex( uint16 ami, uint16* entryIndex )
   \                     ZDSecMgrEntryLookupAMIGetIndex:
    609          {
   \   000000                REQUIRE ?V0
   \   000000   74F7         MOV       A,#-0x9
   \   000002   12....       LCALL     ?BANKED_ENTER_XDATA
   \   000005                ; Saved register size: 9
   \   000005                ; Auto size: 0
    610            uint16 index;
    611          
    612            // verify data is available
    613            if ( ZDSecMgrEntries != NULL )
   \   000005   90....       MOV       DPTR,#ZDSecMgrEntries
   \   000008   12....       LCALL     ??Subroutine70_0 & 0xFFFF
   \                     ??CrossCallReturnLabel_131:
   \   00000B   6044         JZ        ??ZDSecMgrEntryLookupAMIGetIndex_0
    614            {
    615              for ( index = 0; index < ZDSECMGR_ENTRY_MAX ; index++ )
   \   00000D   7800         MOV       R0,#0x0
   \   00000F   7900         MOV       R1,#0x0
    616              {
    617                if ( ZDSecMgrEntries[index].ami == ami )
   \                     ??ZDSecMgrEntryLookupAMIGetIndex_1:
   \   000011   E8           MOV       A,R0
   \   000012   FE           MOV       R6,A
   \   000013   E9           MOV       A,R1
   \   000014   FF           MOV       R7,A
   \   000015   EE           MOV       A,R6
   \   000016   75F005       MOV       B,#0x5
   \   000019   A4           MUL       AB
   \   00001A   FE           MOV       R6,A
   \   00001B   85F0..       MOV       ?V0,B
   \   00001E   75F005       MOV       B,#0x5
   \   000021   EF           MOV       A,R7
   \   000022   A4           MUL       AB
   \   000023   25..         ADD       A,?V0
   \   000025   FF           MOV       R7,A
   \   000026   90....       MOV       DPTR,#ZDSecMgrEntries
   \   000029   E0           MOVX      A,@DPTR
   \   00002A   2E           ADD       A,R6
   \   00002B   F5..         MOV       ?V0,A
   \   00002D   A3           INC       DPTR
   \   00002E   E0           MOVX      A,@DPTR
   \   00002F   3F           ADDC      A,R7
   \   000030   85..82       MOV       DPL,?V0
   \   000033   F583         MOV       DPH,A
   \   000035   E0           MOVX      A,@DPTR
   \   000036   6A           XRL       A,R2
   \   000037   7003         JNZ       ??ZDSecMgrEntryLookupAMIGetIndex_2
   \   000039   A3           INC       DPTR
   \   00003A   E0           MOVX      A,@DPTR
   \   00003B   6B           XRL       A,R3
   \                     ??ZDSecMgrEntryLookupAMIGetIndex_2:
   \   00003C   7009         JNZ       ??ZDSecMgrEntryLookupAMIGetIndex_3
    618                {
    619                  // return successful results
    620                  *entryIndex = index;
   \   00003E   8C82         MOV       DPL,R4
   \   000040   8D83         MOV       DPH,R5
   \   000042   12....       LCALL     ??Subroutine59_0 & 0xFFFF
    621          
    622                  // break from loop
    623                  return ZSuccess;
    624                }
    625              }
   \                     ??CrossCallReturnLabel_79:
   \   000045   800C         SJMP      ??ZDSecMgrEntryLookupAMIGetIndex_4
   \                     ??ZDSecMgrEntryLookupAMIGetIndex_3:
   \   000047   08           INC       R0
   \   000048   E8           MOV       A,R0
   \   000049   7001         JNZ       ??ZDSecMgrEntryLookupAMIGetIndex_5
   \   00004B   09           INC       R1
   \                     ??ZDSecMgrEntryLookupAMIGetIndex_5:
   \   00004C   12....       LCALL     ?Subroutine40 & 0xFFFF
    626            }
   \                     ??CrossCallReturnLabel_85:
   \   00004F   40C0         JC        ??ZDSecMgrEntryLookupAMIGetIndex_1
    627          
    628            return ZNwkUnknownDevice;
   \                     ??ZDSecMgrEntryLookupAMIGetIndex_0:
   \   000051   79C8         MOV       R1,#-0x38
   \                     ??ZDSecMgrEntryLookupAMIGetIndex_4:
   \   000053   02....       LJMP      ??Subroutine69_0 & 0xFFFF
    629          }
    630          
    631          /******************************************************************************
    632           * @fn          ZDSecMgrEntryFree
    633           *
    634           * @brief       Free entry.
    635           *
    636           * @param       entry - [in] valid entry
    637           *
    638           * @return      ZStatus_t
    639           */

   \                                 In  segment BANKED_CODE, align 1, keep-with-next
    640          void ZDSecMgrEntryFree( ZDSecMgrEntry_t* entry )
   \                     ZDSecMgrEntryFree:
    641          {
   \   000000                REQUIRE ?V0
   \   000000                REQUIRE ?V1
   \   000000                REQUIRE ?V2
   \   000000                REQUIRE ?V4
   \   000000                REQUIRE ?V5
   \   000000                REQUIRE ?V6
   \   000000                REQUIRE ?V7
   \   000000   74F0         MOV       A,#-0x10
   \   000002   12....       LCALL     ?BANKED_ENTER_XDATA
   \   000005                ; Saved register size: 16
   \   000005                ; Auto size: 4
   \   000005   74FC         MOV       A,#-0x4
   \   000007   12....       LCALL     ?ALLOC_XSTACK8
   \   00000A   EA           MOV       A,R2
   \   00000B   FE           MOV       R6,A
   \   00000C   EB           MOV       A,R3
   \   00000D   FF           MOV       R7,A
    642            APSME_LinkKeyData_t   *pApsLinkKey = NULL;
    643          
    644          #if defined ( NV_RESTORE )
    645            ZStatus_t status;
    646            uint16 entryIndex;
    647          
    648            status = ZDSecMgrEntryLookupAMIGetIndex( entry->ami, &entryIndex );
   \   00000E                ; Setup parameters for call to function ZDSecMgrEntryLookupAMIGetIndex
   \   00000E   7402         MOV       A,#0x2
   \   000010   12....       LCALL     ?XSTACK_DISP102_8
   \   000013   8E82         MOV       DPL,R6
   \   000015   8F83         MOV       DPH,R7
   \   000017   12....       LCALL     ??Subroutine65_0 & 0xFFFF
   \                     ??CrossCallReturnLabel_90:
   \   00001A   12....       LCALL     `??ZDSecMgrEntryLookupAMIGetIndex::?relay`; Banked call to: ZDSecMgrEntryLookupAMIGetIndex
   \   00001D   E9           MOV       A,R1
   \   00001E   F5..         MOV       ?V2,A
    649          #endif
    650          
    651            pApsLinkKey = (APSME_LinkKeyData_t *)osal_mem_alloc(sizeof(APSME_LinkKeyData_t));
   \   000020                ; Setup parameters for call to function osal_mem_alloc
   \   000020   7A18         MOV       R2,#0x18
   \   000022   7B00         MOV       R3,#0x0
   \   000024   12....       LCALL     `??osal_mem_alloc::?relay`; Banked call to: osal_mem_alloc
   \   000027   8A..         MOV       ?V0,R2
   \   000029   8B..         MOV       ?V1,R3
    652          
    653            if (pApsLinkKey != NULL)
   \   00002B   EA           MOV       A,R2
   \   00002C   45..         ORL       A,?V1
   \   00002E   6048         JZ        ??ZDSecMgrEntryFree_0
    654            {
    655              osal_memset( pApsLinkKey, 0x00, sizeof(APSME_LinkKeyData_t) );
   \   000030                ; Setup parameters for call to function osal_memset
   \   000030   7C18         MOV       R4,#0x18
   \   000032   7D00         MOV       R5,#0x0
   \   000034   7900         MOV       R1,#0x0
   \   000036   12....       LCALL     `??osal_memset::?relay`; Banked call to: osal_memset
    656          
    657              // Clear the APS Link key in NV
    658              osal_nv_write( entry->keyNvId, 0,
    659                                  sizeof(APSME_LinkKeyData_t), pApsLinkKey);
   \   000039   EE           MOV       A,R6
   \   00003A   2402         ADD       A,#0x2
   \   00003C   F5..         MOV       ?V6,A
   \   00003E   E4           CLR       A
   \   00003F   3F           ADDC      A,R7
   \   000040   F5..         MOV       ?V7,A
   \   000042                ; Setup parameters for call to function osal_nv_write
   \   000042   78..         MOV       R0,#?V0
   \   000044   12....       LCALL     ?PUSH_XSTACK_I_TWO
   \   000047   75..18       MOV       ?V4,#0x18
   \   00004A   75..00       MOV       ?V5,#0x0
   \   00004D   78..         MOV       R0,#?V4
   \   00004F   12....       LCALL     ?PUSH_XSTACK_I_TWO
   \   000052   7C00         MOV       R4,#0x0
   \   000054   7D00         MOV       R5,#0x0
   \   000056   85..82       MOV       DPL,?V6
   \   000059   85..83       MOV       DPH,?V7
   \   00005C   12....       LCALL     ??Subroutine65_0 & 0xFFFF
   \                     ??CrossCallReturnLabel_91:
   \   00005F   12....       LCALL     `??osal_nv_write::?relay`; Banked call to: osal_nv_write
   \   000062   7404         MOV       A,#0x4
   \   000064   12....       LCALL     ?DEALLOC_XSTACK8
    660          
    661              // set entry to invalid Key
    662              entry->keyNvId = SEC_NO_KEY_NV_ID;
   \   000067   85..82       MOV       DPL,?V6
   \   00006A   85..83       MOV       DPH,?V7
   \   00006D   E4           CLR       A
   \   00006E   F0           MOVX      @DPTR,A
   \   00006F   A3           INC       DPTR
   \   000070   F0           MOVX      @DPTR,A
    663          
    664              osal_mem_free(pApsLinkKey);
   \   000071                ; Setup parameters for call to function osal_mem_free
   \   000071   AA..         MOV       R2,?V0
   \   000073   AB..         MOV       R3,?V1
   \   000075   12....       LCALL     `??osal_mem_free::?relay`; Banked call to: osal_mem_free
    665            }
    666          
    667            // marking the entry as INVALID_NODE_ADDR
    668            entry->ami = INVALID_NODE_ADDR;
   \                     ??ZDSecMgrEntryFree_0:
   \   000078   8E82         MOV       DPL,R6
   \   00007A   8F83         MOV       DPH,R7
   \   00007C   74FE         MOV       A,#-0x2
   \   00007E   F0           MOVX      @DPTR,A
   \   00007F   A3           INC       DPTR
   \   000080   04           INC       A
   \   000081   12....       LCALL     ?Subroutine49 & 0xFFFF
    669          
    670            // set to default value
    671            entry->authenticateOption = ZDSecMgr_Not_Authenticated;
   \                     ??CrossCallReturnLabel_60:
   \   000084   A3           INC       DPTR
   \   000085   A3           INC       DPTR
   \   000086   A3           INC       DPTR
   \   000087   A3           INC       DPTR
   \   000088   E4           CLR       A
   \   000089   F0           MOVX      @DPTR,A
    672          
    673          #if defined ( NV_RESTORE )
    674            if ( status == ZSuccess )
   \   00008A   E5..         MOV       A,?V2
   \   00008C   6003         JZ        $+5
   \   00008E   02....       LJMP      ??ZDSecMgrEntryFree_1 & 0xFFFF
    675            {
    676              ZDSecMgrUpdateNV(entryIndex);
   \   000091   7402         MOV       A,#0x2
   \   000093   12....       LCALL     ?XSTACK_DISP0_8
   \   000096   12....       LCALL     ??Subroutine65_0 & 0xFFFF
    677            }
   \                     ??CrossCallReturnLabel_92:
   \   000099   EA           MOV       A,R2
   \   00009A   FE           MOV       R6,A
   \   00009B   EB           MOV       A,R3
   \   00009C   FF           MOV       R7,A
   \   00009D   EE           MOV       A,R6
   \   00009E   75F005       MOV       B,#0x5
   \   0000A1   A4           MUL       AB
   \   0000A2   FE           MOV       R6,A
   \   0000A3   A8F0         MOV       R0,B
   \   0000A5   75F005       MOV       B,#0x5
   \   0000A8   EF           MOV       A,R7
   \   0000A9   A4           MUL       AB
   \   0000AA   28           ADD       A,R0
   \   0000AB   FF           MOV       R7,A
   \   0000AC   90....       MOV       DPTR,#ZDSecMgrEntries
   \   0000AF   12....       LCALL     ??Subroutine70_0 & 0xFFFF
   \                     ??CrossCallReturnLabel_132:
   \   0000B2   6033         JZ        ??ZDSecMgrEntryFree_2
   \   0000B4                ; Setup parameters for call to function osal_nv_write
   \   0000B4   12....       LCALL     ?Subroutine35 & 0xFFFF
   \                     ??CrossCallReturnLabel_36:
   \   0000B7   12....       LCALL     ?PUSH_XSTACK_I_TWO
   \   0000BA   75..05       MOV       ?V0,#0x5
   \   0000BD   75..00       MOV       ?V1,#0x0
   \   0000C0   78..         MOV       R0,#?V0
   \   0000C2   12....       LCALL     ?PUSH_XSTACK_I_TWO
   \   0000C5   EA           MOV       A,R2
   \   0000C6   75F005       MOV       B,#0x5
   \   0000C9   A4           MUL       AB
   \   0000CA   FA           MOV       R2,A
   \   0000CB   A8F0         MOV       R0,B
   \   0000CD   75F005       MOV       B,#0x5
   \   0000D0   EB           MOV       A,R3
   \   0000D1   A4           MUL       AB
   \   0000D2   28           ADD       A,R0
   \   0000D3   FB           MOV       R3,A
   \   0000D4   EA           MOV       A,R2
   \   0000D5   2402         ADD       A,#0x2
   \   0000D7   FC           MOV       R4,A
   \   0000D8   E4           CLR       A
   \   0000D9   3B           ADDC      A,R3
   \   0000DA   FD           MOV       R5,A
   \   0000DB   7A4C         MOV       R2,#0x4c
   \   0000DD   7B00         MOV       R3,#0x0
   \   0000DF   12....       LCALL     `??osal_nv_write::?relay`; Banked call to: osal_nv_write
   \   0000E2   7404         MOV       A,#0x4
   \   0000E4   12....       LCALL     ?DEALLOC_XSTACK8
   \                     ??ZDSecMgrEntryFree_2:
   \   0000E7                ; Setup parameters for call to function osal_nv_read
   \   0000E7   A8..         MOV       R0,?XSP + 0
   \   0000E9   A9..         MOV       R1,?XSP + 1
   \   0000EB   88..         MOV       ?V0,R0
   \   0000ED   89..         MOV       ?V1,R1
   \   0000EF   78..         MOV       R0,#?V0
   \   0000F1   12....       LCALL     ?PUSH_XSTACK_I_TWO
   \   0000F4   75..02       MOV       ?V0,#0x2
   \   0000F7   75..00       MOV       ?V1,#0x0
   \   0000FA   78..         MOV       R0,#?V0
   \   0000FC   12....       LCALL     ?PUSH_XSTACK_I_TWO
   \   0000FF   7C00         MOV       R4,#0x0
   \   000101   7D00         MOV       R5,#0x0
   \   000103   7A4C         MOV       R2,#0x4c
   \   000105   7B00         MOV       R3,#0x0
   \   000107   12....       LCALL     `??osal_nv_read::?relay`; Banked call to: osal_nv_read
   \   00010A   7404         MOV       A,#0x4
   \   00010C   12....       LCALL     ?DEALLOC_XSTACK8
   \   00010F   E9           MOV       A,R1
   \   000110   7051         JNZ       ??ZDSecMgrEntryFree_1
   \   000112   12....       LCALL     ?Subroutine32 & 0xFFFF
   \                     ??CrossCallReturnLabel_32:
   \   000115   7003         JNZ       ??ZDSecMgrEntryFree_3
   \   000117   A3           INC       DPTR
   \   000118   E0           MOVX      A,@DPTR
   \   000119   F4           CPL       A
   \                     ??ZDSecMgrEntryFree_3:
   \   00011A   85..82       MOV       DPL,?XSP + 0
   \   00011D   85..83       MOV       DPH,?XSP + 1
   \   000120   7015         JNZ       ??ZDSecMgrEntryFree_4
   \   000122   12....       LCALL     ??Subroutine70_0 & 0xFFFF
   \                     ??CrossCallReturnLabel_133:
   \   000125   6014         JZ        ??ZDSecMgrEntryFree_5
   \   000127   85..82       MOV       DPL,?XSP + 0
   \   00012A   85..83       MOV       DPH,?XSP + 1
   \   00012D   E0           MOVX      A,@DPTR
   \   00012E   24FF         ADD       A,#-0x1
   \   000130   F0           MOVX      @DPTR,A
   \   000131   A3           INC       DPTR
   \   000132   E0           MOVX      A,@DPTR
   \   000133   34FF         ADDC      A,#-0x1
   \   000135   8003         SJMP      ??CrossCallReturnLabel_40
   \                     ??ZDSecMgrEntryFree_4:
   \   000137   12....       LCALL     ?Subroutine37 & 0xFFFF
   \                     ??CrossCallReturnLabel_40:
   \   00013A   F0           MOVX      @DPTR,A
   \                     ??ZDSecMgrEntryFree_5:
   \   00013B                ; Setup parameters for call to function osal_nv_write
   \   00013B   A8..         MOV       R0,?XSP + 0
   \   00013D   A9..         MOV       R1,?XSP + 1
   \   00013F   88..         MOV       ?V0,R0
   \   000141   89..         MOV       ?V1,R1
   \   000143   78..         MOV       R0,#?V0
   \   000145   12....       LCALL     ?PUSH_XSTACK_I_TWO
   \   000148   75..02       MOV       ?V0,#0x2
   \   00014B   75..00       MOV       ?V1,#0x0
   \   00014E   78..         MOV       R0,#?V0
   \   000150   12....       LCALL     ?PUSH_XSTACK_I_TWO
   \   000153   7C00         MOV       R4,#0x0
   \   000155   7D00         MOV       R5,#0x0
   \   000157   7A4C         MOV       R2,#0x4c
   \   000159   7B00         MOV       R3,#0x0
   \   00015B   12....       LCALL     `??osal_nv_write::?relay`; Banked call to: osal_nv_write
   \   00015E   7404         MOV       A,#0x4
   \   000160   12....       LCALL     ?DEALLOC_XSTACK8
    678          #endif
    679          }
   \                     ??ZDSecMgrEntryFree_1:
   \   000163   7404         MOV       A,#0x4
   \   000165   02....       LJMP      ??Subroutine62_0 & 0xFFFF

   \                                 In  segment BANKED_CODE, align 1, keep-with-next
   \                     ?Subroutine49:
   \   000000   F0           MOVX      @DPTR,A
   \   000001   8E82         MOV       DPL,R6
   \   000003   8F83         MOV       DPH,R7
   \   000005   22           RET

   \                                 In  segment BANKED_CODE, align 1, keep-with-next
   \                     ??Subroutine62_0:
   \   000000   12....       LCALL     ?DEALLOC_XSTACK8
   \   000003                REQUIRE ??Subroutine63_0
   \   000003                ; // Fall through to label ??Subroutine63_0

   \                                 In  segment BANKED_CODE, align 1, keep-with-next
   \                     ??Subroutine63_0:
   \   000000   7F08         MOV       R7,#0x8
   \   000002   02....       LJMP      ?BANKED_LEAVE_XDATA

   \                                 In  segment BANKED_CODE, align 1, keep-with-next
   \                     ?Subroutine37:
   \   000000   E0           MOVX      A,@DPTR
   \   000001   2401         ADD       A,#0x1
   \   000003   F0           MOVX      @DPTR,A
   \   000004   A3           INC       DPTR
   \   000005   E0           MOVX      A,@DPTR
   \   000006   3400         ADDC      A,#0x0
   \   000008   22           RET

   \                                 In  segment BANKED_CODE, align 1, keep-with-next
   \                     ?Subroutine32:
   \   000000   12....       LCALL     ?Subroutine53 & 0xFFFF
   \                     ??CrossCallReturnLabel_65:
   \   000003   E0           MOVX      A,@DPTR
   \   000004   64FE         XRL       A,#0xfe
   \   000006   22           RET

   \                                 In  segment BANKED_CODE, align 1, keep-with-next
   \                     ?Subroutine53:
   \   000000   90....       MOV       DPTR,#ZDSecMgrEntries
   \   000003   E0           MOVX      A,@DPTR
   \   000004   2E           ADD       A,R6
   \   000005   F8           MOV       R0,A
   \   000006   A3           INC       DPTR
   \   000007   E0           MOVX      A,@DPTR
   \   000008   3F           ADDC      A,R7
   \   000009   8882         MOV       DPL,R0
   \   00000B   F583         MOV       DPH,A
   \   00000D   22           RET

   \                                 In  segment BANKED_CODE, align 1, keep-with-next
   \                     ?Subroutine35:
   \   000000   90....       MOV       DPTR,#ZDSecMgrEntries
   \   000003   E0           MOVX      A,@DPTR
   \   000004   2E           ADD       A,R6
   \   000005   F5..         MOV       ?V0,A
   \   000007   A3           INC       DPTR
   \   000008   E0           MOVX      A,@DPTR
   \   000009   3F           ADDC      A,R7
   \   00000A   F5..         MOV       ?V1,A
   \   00000C   78..         MOV       R0,#?V0
   \   00000E   22           RET
    680          
    681          /******************************************************************************
    682           * @fn          ZDSecMgrEntryNew
    683           *
    684           * @brief       Get a new entry.
    685           *
    686           * @param       entry - [out] valid entry
    687           *
    688           * @return      ZStatus_t
    689           */

   \                                 In  segment BANKED_CODE, align 1, keep-with-next
    690          ZStatus_t ZDSecMgrEntryNew( ZDSecMgrEntry_t** entry )
   \                     ZDSecMgrEntryNew:
    691          {
   \   000000                REQUIRE ?V0
   \   000000   74F7         MOV       A,#-0x9
   \   000002   12....       LCALL     ?BANKED_ENTER_XDATA
   \   000005                ; Saved register size: 9
   \   000005                ; Auto size: 0
   \   000005   EA           MOV       A,R2
   \   000006   FE           MOV       R6,A
   \   000007   EB           MOV       A,R3
   \   000008   12....       LCALL     ?Subroutine9 & 0xFFFF
    692            uint16 index;
    693          
    694            // initialize results
    695            *entry = NULL;
    696          
    697            // verify data is available
    698            if ( ZDSecMgrEntries != NULL )
   \                     ??CrossCallReturnLabel_188:
   \   00000B   6059         JZ        ??ZDSecMgrEntryNew_0
    699            {
    700              // find available entry
    701              for ( index = 0; index < ZDSECMGR_ENTRY_MAX ; index++ )
   \   00000D   7A00         MOV       R2,#0x0
   \   00000F   7B00         MOV       R3,#0x0
    702              {
    703                if ( ZDSecMgrEntries[index].ami == INVALID_NODE_ADDR )
   \                     ??ZDSecMgrEntryNew_1:
   \   000011   EA           MOV       A,R2
   \   000012   F8           MOV       R0,A
   \   000013   EB           MOV       A,R3
   \   000014   F9           MOV       R1,A
   \   000015   E8           MOV       A,R0
   \   000016   75F005       MOV       B,#0x5
   \   000019   A4           MUL       AB
   \   00001A   F8           MOV       R0,A
   \   00001B   ACF0         MOV       R4,B
   \   00001D   75F005       MOV       B,#0x5
   \   000020   E9           MOV       A,R1
   \   000021   A4           MUL       AB
   \   000022   2C           ADD       A,R4
   \   000023   F9           MOV       R1,A
   \   000024   90....       MOV       DPTR,#ZDSecMgrEntries
   \   000027   E0           MOVX      A,@DPTR
   \   000028   28           ADD       A,R0
   \   000029   FC           MOV       R4,A
   \   00002A   A3           INC       DPTR
   \   00002B   E0           MOVX      A,@DPTR
   \   00002C   39           ADDC      A,R1
   \   00002D   FD           MOV       R5,A
   \   00002E   8C82         MOV       DPL,R4
   \   000030   8D83         MOV       DPH,R5
   \   000032   E0           MOVX      A,@DPTR
   \   000033   64FE         XRL       A,#0xfe
   \   000035   7003         JNZ       ??ZDSecMgrEntryNew_2
   \   000037   A3           INC       DPTR
   \   000038   E0           MOVX      A,@DPTR
   \   000039   F4           CPL       A
   \                     ??ZDSecMgrEntryNew_2:
   \   00003A   701D         JNZ       ??ZDSecMgrEntryNew_3
    704                {
    705                  // return successful result
    706                  *entry = &ZDSecMgrEntries[index];
   \   00003C   EC           MOV       A,R4
   \   00003D   FA           MOV       R2,A
   \   00003E   ED           MOV       A,R5
   \   00003F   FB           MOV       R3,A
   \   000040   12....       LCALL     ?Subroutine19 & 0xFFFF
    707          
    708                  // Set the authentication option to default
    709                  ZDSecMgrEntries[index].authenticateOption = ZDSecMgr_Not_Authenticated;
   \                     ??CrossCallReturnLabel_206:
   \   000043   90....       MOV       DPTR,#ZDSecMgrEntries
   \   000046   E0           MOVX      A,@DPTR
   \   000047   28           ADD       A,R0
   \   000048   FA           MOV       R2,A
   \   000049   A3           INC       DPTR
   \   00004A   E0           MOVX      A,@DPTR
   \   00004B   39           ADDC      A,R1
   \   00004C   8A82         MOV       DPL,R2
   \   00004E   F583         MOV       DPH,A
   \   000050   A3           INC       DPTR
   \   000051   A3           INC       DPTR
   \   000052   A3           INC       DPTR
   \   000053   A3           INC       DPTR
   \   000054   E4           CLR       A
   \   000055   F0           MOVX      @DPTR,A
    710          
    711                  // break from loop
    712                  return ZSuccess;
   \   000056   F9           MOV       R1,A
   \   000057   800F         SJMP      ??ZDSecMgrEntryNew_4
    713                }
    714              }
   \                     ??ZDSecMgrEntryNew_3:
   \   000059   0A           INC       R2
   \   00005A   EA           MOV       A,R2
   \   00005B   7001         JNZ       ??ZDSecMgrEntryNew_5
   \   00005D   0B           INC       R3
   \                     ??ZDSecMgrEntryNew_5:
   \   00005E   C3           CLR       C
   \   00005F   9403         SUBB      A,#0x3
   \   000061   EB           MOV       A,R3
   \   000062   9400         SUBB      A,#0x0
   \   000064   40AB         JC        ??ZDSecMgrEntryNew_1
    715            }
    716          
    717            return ZNwkUnknownDevice;
   \                     ??ZDSecMgrEntryNew_0:
   \   000066   79C8         MOV       R1,#-0x38
   \                     ??ZDSecMgrEntryNew_4:
   \   000068   02....       LJMP      ??Subroutine69_0 & 0xFFFF
    718          }
    719          
    720          /******************************************************************************
    721           * @fn          ZDSecMgrAppKeyGet
    722           *
    723           * @brief       get an APP key - option APP(MASTER or LINK) key
    724           *
    725           * @param       initNwkAddr - [in] NWK address of initiator device
    726           * @param       initExtAddr - [in] EXT address of initiator device
    727           * @param       partNwkAddr - [in] NWK address of partner device
    728           * @param       partExtAddr - [in] EXT address of partner device
    729           * @param       key         - [out] APP(MASTER or LINK) key
    730           * @param       keyType     - [out] APP(MASTER or LINK) key type
    731           *
    732           * @return      ZStatus_t
    733           */

   \                                 In  segment XDATA_I, align 1, keep-with-next
    734          uint8 ZDSecMgrAppKeyType = KEY_TYPE_APP_LINK;    // Set the default key type
   \                     ZDSecMgrAppKeyType:
   \   000000                DS 1
   \   000001                REQUIRE `?<Initializer for ZDSecMgrAppKeyType>`
   \   000001                REQUIRE __INIT_XDATA_I
    735                                                           // to KEY_TYPE_APP_LINK since
    736                                                           // only specific requirement
    737                                                           // right now comes from SE profile

   \                                 In  segment BANKED_CODE, align 1, keep-with-next
    738          ZStatus_t ZDSecMgrAppKeyGet( uint16  initNwkAddr,
   \                     ZDSecMgrAppKeyGet:
    739                                       uint8*  initExtAddr,
    740                                       uint16  partNwkAddr,
    741                                       uint8*  partExtAddr,
    742                                       uint8** key,
    743                                       uint8*  keyType )
    744          {
   \   000000   C082         PUSH      DPL
   \   000002   C083         PUSH      DPH
   \   000004                ; Saved register size: 2
   \   000004                ; Auto size: 0
    745            // Intentionally unreferenced parameters
    746            (void)initNwkAddr;
    747            (void)initExtAddr;
    748            (void)partNwkAddr;
    749            (void)partExtAddr;
    750          
    751            //---------------------------------------------------------------------------
    752            // note:
    753            // should use a robust mechanism to generate keys, for example
    754            // combine EXT addresses and call a hash function
    755            //---------------------------------------------------------------------------
    756            SSP_GetTrueRand( SEC_KEY_LEN, *key );
   \   000004                ; Setup parameters for call to function SSP_GetTrueRand
   \   000004   7404         MOV       A,#0x4
   \   000006   12....       LCALL     ?XSTACK_DISP0_8
   \   000009   12....       LCALL     ??Subroutine76_0 & 0xFFFF
   \                     ??CrossCallReturnLabel_174:
   \   00000C   12....       LCALL     ??Subroutine65_0 & 0xFFFF
   \                     ??CrossCallReturnLabel_93:
   \   00000F   7910         MOV       R1,#0x10
   \   000011   12....       LCALL     `??SSP_GetTrueRand::?relay`; Banked call to: SSP_GetTrueRand
    757          
    758            *keyType = ZDSecMgrAppKeyType;
   \   000014   90....       MOV       DPTR,#ZDSecMgrAppKeyType
   \   000017   E0           MOVX      A,@DPTR
   \   000018   C0E0         PUSH      A
   \   00001A   7406         MOV       A,#0x6
   \   00001C   12....       LCALL     ?XSTACK_DISP0_8
   \   00001F   12....       LCALL     ??Subroutine76_0 & 0xFFFF
   \                     ??CrossCallReturnLabel_175:
   \   000022   D0E0         POP       A
   \   000024   02....       LJMP      ?Subroutine2 & 0xFFFF
    759          
    760            return ZSuccess;
    761          }

   \                                 In  segment BANKED_CODE, align 1, keep-with-next
   \                     ?Subroutine2:
   \   000000   F0           MOVX      @DPTR,A
   \   000001   7900         MOV       R1,#0x0
   \   000003                REQUIRE ??Subroutine66_0
   \   000003                ; // Fall through to label ??Subroutine66_0

   \                                 In  segment BANKED_CODE, align 1, keep-with-next
   \                     ??Subroutine66_0:
   \   000000   D083         POP       DPH
   \   000002   D082         POP       DPL
   \   000004   02....       LJMP      ?BRET

   \                                 In  segment BANKED_CODE, align 1, keep-with-next
   \                     ??Subroutine76_0:
   \   000000   12....       LCALL     ?Subroutine52 & 0xFFFF
   \                     ??CrossCallReturnLabel_182:
   \   000003   22           RET

   \                                 In  segment BANKED_CODE, align 1, keep-with-next
   \                     ?Subroutine52:
   \   000000   12....       LCALL     ??Subroutine85_0 & 0xFFFF
   \                     ??CrossCallReturnLabel_227:
   \   000003   F583         MOV       DPH,A
   \   000005   8882         MOV       DPL,R0
   \   000007   22           RET
    762          
    763          
    764          
    765          
    766          /******************************************************************************
    767           * @fn          ZDSecMgrAppKeyReq
    768           *
    769           * @brief       Process request for APP key between two devices.
    770           *
    771           * @param       device - [in] ZDO_RequestKeyInd_t, request info
    772           *
    773           * @return      none
    774           */

   \                                 In  segment BANKED_CODE, align 1, keep-with-next
    775          void ZDSecMgrAppKeyReq( ZDO_RequestKeyInd_t* ind )
   \                     ZDSecMgrAppKeyReq:
    776          {
   \   000000                REQUIRE ?V0
   \   000000                REQUIRE ?V1
   \   000000                REQUIRE ?V2
   \   000000                REQUIRE ?V3
   \   000000   74F4         MOV       A,#-0xc
   \   000002   12....       LCALL     ?BANKED_ENTER_XDATA
   \   000005                ; Saved register size: 12
   \   000005                ; Auto size: 39
   \   000005   74D9         MOV       A,#-0x27
   \   000007   12....       LCALL     ?ALLOC_XSTACK8
   \   00000A   EA           MOV       A,R2
   \   00000B   FE           MOV       R6,A
   \   00000C   EB           MOV       A,R3
   \   00000D   FF           MOV       R7,A
    777            APSME_TransportKeyReq_t req;
    778            uint8                   initExtAddr[Z_EXTADDR_LEN];
    779            uint16                  partNwkAddr;
    780            uint8                   key[SEC_KEY_LEN];
    781          
    782          
    783            // validate initiator and partner
    784            if ( ( APSME_LookupNwkAddr( ind->partExtAddr, &partNwkAddr ) == TRUE ) &&
    785                 ( APSME_LookupExtAddr( ind->srcAddr, initExtAddr ) == TRUE      )   )
   \   00000E   EE           MOV       A,R6
   \   00000F   2405         ADD       A,#0x5
   \   000011   F5..         MOV       ?V0,A
   \   000013   E4           CLR       A
   \   000014   3F           ADDC      A,R7
   \   000015   F5..         MOV       ?V1,A
   \   000017                ; Setup parameters for call to function APSME_LookupNwkAddr
   \   000017   AC..         MOV       R4,?XSP + 0
   \   000019   AD..         MOV       R5,?XSP + 1
   \   00001B   AA..         MOV       R2,?V0
   \   00001D   FB           MOV       R3,A
   \   00001E   12....       LCALL     `??APSME_LookupNwkAddr::?relay`; Banked call to: APSME_LookupNwkAddr
   \   000021   E9           MOV       A,R1
   \   000022   6401         XRL       A,#0x1
   \   000024   6003         JZ        $+5
   \   000026   02....       LJMP      ??ZDSecMgrAppKeyReq_0 & 0xFFFF
   \   000029   EE           MOV       A,R6
   \   00002A   2402         ADD       A,#0x2
   \   00002C   FE           MOV       R6,A
   \   00002D   5001         JNC       ??ZDSecMgrAppKeyReq_1
   \   00002F   0F           INC       R7
   \                     ??ZDSecMgrAppKeyReq_1:
   \   000030                ; Setup parameters for call to function APSME_LookupExtAddr
   \   000030   740F         MOV       A,#0xf
   \   000032   12....       LCALL     ?XSTACK_DISP102_8
   \   000035   8E82         MOV       DPL,R6
   \   000037   8F83         MOV       DPH,R7
   \   000039   12....       LCALL     ??Subroutine65_0 & 0xFFFF
   \                     ??CrossCallReturnLabel_94:
   \   00003C   12....       LCALL     `??APSME_LookupExtAddr::?relay`; Banked call to: APSME_LookupExtAddr
   \   00003F   E9           MOV       A,R1
   \   000040   6401         XRL       A,#0x1
   \   000042   6003         JZ        $+5
   \   000044   02....       LJMP      ??ZDSecMgrAppKeyReq_0 & 0xFFFF
    786            {
    787              // point the key to some memory
    788              req.key = key;
   \   000047   7417         MOV       A,#0x17
   \   000049   12....       LCALL     ?XSTACK_DISP100_8
   \   00004C   7406         MOV       A,#0x6
   \   00004E   12....       LCALL     ?XSTACK_DISP0_8
   \   000051   12....       LCALL     ??Subroutine73_0 & 0xFFFF
    789          
    790              // get an APP key - option APP (MASTER or LINK) key
    791              if ( ZDSecMgrAppKeyGet( ind->srcAddr,
    792                                      initExtAddr,
    793                                      partNwkAddr,
    794                                      ind->partExtAddr,
    795                                      &req.key,
    796                                      &req.keyType ) == ZSuccess )
   \                     ??CrossCallReturnLabel_141:
   \   000054                ; Setup parameters for call to function ZDSecMgrAppKeyGet
   \   000054   7404         MOV       A,#0x4
   \   000056   12....       LCALL     ?XSTACK_DISP0_8
   \   000059   8582..       MOV       ?V2,DPL
   \   00005C   8583..       MOV       ?V3,DPH
   \   00005F   78..         MOV       R0,#?V2
   \   000061   12....       LCALL     ?PUSH_XSTACK_I_TWO
   \   000064   7408         MOV       A,#0x8
   \   000066   12....       LCALL     ?XSTACK_DISP0_8
   \   000069   8582..       MOV       ?V2,DPL
   \   00006C   8583..       MOV       ?V3,DPH
   \   00006F   78..         MOV       R0,#?V2
   \   000071   12....       LCALL     ?PUSH_XSTACK_I_TWO
   \   000074   78..         MOV       R0,#?V0
   \   000076   12....       LCALL     ?PUSH_XSTACK_I_TWO
   \   000079   7406         MOV       A,#0x6
   \   00007B   12....       LCALL     ?XSTACK_DISP0_8
   \   00007E   12....       LCALL     ?PUSH_XSTACK8_X_TWO
   \   000081   7417         MOV       A,#0x17
   \   000083   12....       LCALL     ?XSTACK_DISP102_8
   \   000086   8E82         MOV       DPL,R6
   \   000088   8F83         MOV       DPH,R7
   \   00008A   12....       LCALL     ??Subroutine65_0 & 0xFFFF
   \                     ??CrossCallReturnLabel_95:
   \   00008D   12....       LCALL     `??ZDSecMgrAppKeyGet::?relay`; Banked call to: ZDSecMgrAppKeyGet
   \   000090   7408         MOV       A,#0x8
   \   000092   12....       LCALL     ?DEALLOC_XSTACK8
   \   000095   E9           MOV       A,R1
   \   000096   7076         JNZ       ??ZDSecMgrAppKeyReq_0
    797              {
    798                // always secure
    799                req.nwkSecure = TRUE;
   \   000098   740C         MOV       A,#0xc
   \   00009A   12....       LCALL     ?XSTACK_DISP0_8
   \   00009D   7401         MOV       A,#0x1
   \   00009F   F0           MOVX      @DPTR,A
    800                req.apsSecure = TRUE;
   \   0000A0   740B         MOV       A,#0xb
   \   0000A2   12....       LCALL     ?XSTACK_DISP0_8
   \   0000A5   7401         MOV       A,#0x1
   \   0000A7   F0           MOVX      @DPTR,A
    801                req.tunnel    = NULL;
   \   0000A8   740D         MOV       A,#0xd
   \   0000AA   12....       LCALL     ?XSTACK_DISP0_8
   \   0000AD   12....       LCALL     ?Subroutine13 & 0xFFFF
    802          
    803                // send key to initiator device
    804                req.dstAddr   = ind->srcAddr;
   \                     ??CrossCallReturnLabel_2:
   \   0000B0   7402         MOV       A,#0x2
   \   0000B2   12....       LCALL     ?XSTACK_DISP0_8
   \   0000B5   12....       LCALL     ??Subroutine73_0 & 0xFFFF
    805                req.extAddr   = ind->partExtAddr;
   \                     ??CrossCallReturnLabel_142:
   \   0000B8   7408         MOV       A,#0x8
   \   0000BA   12....       LCALL     ?XSTACK_DISP0_8
   \   0000BD   E5..         MOV       A,?V0
   \   0000BF   F0           MOVX      @DPTR,A
   \   0000C0   A3           INC       DPTR
   \   0000C1   E5..         MOV       A,?V1
   \   0000C3   F0           MOVX      @DPTR,A
    806                req.initiator = TRUE;
   \   0000C4   740A         MOV       A,#0xa
   \   0000C6   12....       LCALL     ?XSTACK_DISP0_8
   \   0000C9   7401         MOV       A,#0x1
   \   0000CB   F0           MOVX      @DPTR,A
    807                APSME_TransportKeyReq( &req );
   \   0000CC                ; Setup parameters for call to function APSME_TransportKeyReq
   \   0000CC   04           INC       A
   \   0000CD   12....       LCALL     ?XSTACK_DISP101_8
   \   0000D0   12....       LCALL     `??APSME_TransportKeyReq::?relay`; Banked call to: APSME_TransportKeyReq
    808          
    809                // send key to partner device
    810                req.dstAddr   = partNwkAddr;
   \   0000D3   85..82       MOV       DPL,?XSP + 0
   \   0000D6   85..83       MOV       DPH,?XSP + 1
   \   0000D9   12....       LCALL     ??Subroutine67_0 & 0xFFFF
   \                     ??CrossCallReturnLabel_117:
   \   0000DC   7402         MOV       A,#0x2
   \   0000DE   12....       LCALL     ?XSTACK_DISP0_8
   \   0000E1   12....       LCALL     ??Subroutine73_0 & 0xFFFF
    811                req.extAddr   = initExtAddr;
   \                     ??CrossCallReturnLabel_143:
   \   0000E4   740F         MOV       A,#0xf
   \   0000E6   12....       LCALL     ?XSTACK_DISP100_8
   \   0000E9   7408         MOV       A,#0x8
   \   0000EB   12....       LCALL     ?XSTACK_DISP0_8
   \   0000EE   12....       LCALL     ??Subroutine73_0 & 0xFFFF
    812                req.initiator = FALSE;
   \                     ??CrossCallReturnLabel_144:
   \   0000F1   740A         MOV       A,#0xa
   \   0000F3   12....       LCALL     ?XSTACK_DISP0_8
   \   0000F6   E4           CLR       A
   \   0000F7   F0           MOVX      @DPTR,A
    813          
    814                APSME_TransportKeyReq( &req );
   \   0000F8                ; Setup parameters for call to function APSME_TransportKeyReq
   \   0000F8   7402         MOV       A,#0x2
   \   0000FA   12....       LCALL     ?XSTACK_DISP101_8
   \   0000FD   12....       LCALL     `??APSME_TransportKeyReq::?relay`; Banked call to: APSME_TransportKeyReq
    815          
    816                // clear copy of key in RAM
    817                osal_memset( key, 0x00, SEC_KEY_LEN);
   \   000100                ; Setup parameters for call to function osal_memset
   \   000100   7C10         MOV       R4,#0x10
   \   000102   7D00         MOV       R5,#0x0
   \   000104   7900         MOV       R1,#0x0
   \   000106   7417         MOV       A,#0x17
   \   000108   12....       LCALL     ?XSTACK_DISP101_8
   \   00010B   12....       LCALL     `??osal_memset::?relay`; Banked call to: osal_memset
    818          
    819              }
    820            }
    821          }
   \                     ??ZDSecMgrAppKeyReq_0:
   \   00010E   7427         MOV       A,#0x27
   \   000110   02....       LJMP      ?Subroutine3 & 0xFFFF

   \                                 In  segment BANKED_CODE, align 1, keep-with-next
   \                     ?Subroutine13:
   \   000000   E4           CLR       A
   \   000001   F0           MOVX      @DPTR,A
   \   000002   A3           INC       DPTR
   \   000003   12....       LCALL     ?Subroutine49 & 0xFFFF
   \                     ??CrossCallReturnLabel_61:
   \   000006   12....       LCALL     ?Subroutine51 & 0xFFFF
   \                     ??CrossCallReturnLabel_192:
   \   000009   22           RET

   \                                 In  segment BANKED_CODE, align 1, keep-with-next
   \                     ??Subroutine67_0:
   \   000000   12....       LCALL     ?Subroutine51 & 0xFFFF
   \                     ??CrossCallReturnLabel_196:
   \   000003   22           RET

   \                                 In  segment BANKED_CODE, align 1, keep-with-next
   \                     ??Subroutine73_0:
   \   000000   12....       LCALL     ?Subroutine50 & 0xFFFF
   \                     ??CrossCallReturnLabel_165:
   \   000003   22           RET

   \                                 In  segment BANKED_CODE, align 1, keep-with-next
   \                     ?Subroutine3:
   \   000000   12....       LCALL     ?DEALLOC_XSTACK8
   \   000003                REQUIRE ??Subroutine78_0
   \   000003                ; // Fall through to label ??Subroutine78_0

   \                                 In  segment BANKED_CODE, align 1, keep-with-next
   \                     ??Subroutine78_0:
   \   000000   7F04         MOV       R7,#0x4
   \   000002   02....       LJMP      ?BANKED_LEAVE_XDATA
    822          
    823          /******************************************************************************
    824           * @fn          ZDSecMgrTclkReq
    825           *
    826           * @brief       Process request for TCLK.
    827           *
    828           * @param       device - [in] ZDO_RequestKeyInd_t, request info
    829           *
    830           * @return      none
    831           */

   \                                 In  segment BANKED_CODE, align 1, keep-with-next
    832          void ZDSecMgrTclkReq( ZDO_RequestKeyInd_t* ind )
   \                     ZDSecMgrTclkReq:
    833          {
   \   000000                REQUIRE ?V0
   \   000000                REQUIRE ?V1
   \   000000   74F6         MOV       A,#-0xa
   \   000002   12....       LCALL     ?BANKED_ENTER_XDATA
   \   000005                ; Saved register size: 10
   \   000005                ; Auto size: 59
   \   000005   74C5         MOV       A,#-0x3b
   \   000007   12....       LCALL     ?ALLOC_XSTACK8
   \   00000A   EA           MOV       A,R2
   \   00000B   FE           MOV       R6,A
   \   00000C   EB           MOV       A,R3
   \   00000D   FF           MOV       R7,A
    834            APSME_TransportKeyReq_t req;
    835            uint8                   initExtAddr[Z_EXTADDR_LEN];
    836            uint16                  partNwkAddr;
    837            uint8                   key[SEC_KEY_LEN];
    838            APSME_TCLKDevEntry_t    TCLKDevEntry;
    839            uint8                   found;
    840              
    841            // validate initiator and partner
    842            if ( ( ( APSME_LookupNwkAddr( ind->partExtAddr, &partNwkAddr ) == TRUE ) || ( ind->keyType != KEY_TYPE_APP_MASTER ) ) &&
    843                 (   APSME_LookupExtAddr( ind->srcAddr, initExtAddr )      == TRUE ) )
   \   00000E                ; Setup parameters for call to function APSME_LookupNwkAddr
   \   00000E   7401         MOV       A,#0x1
   \   000010   12....       LCALL     ?XSTACK_DISP102_8
   \   000013   EE           MOV       A,R6
   \   000014   2405         ADD       A,#0x5
   \   000016   FA           MOV       R2,A
   \   000017   E4           CLR       A
   \   000018   3F           ADDC      A,R7
   \   000019   FB           MOV       R3,A
   \   00001A   12....       LCALL     `??APSME_LookupNwkAddr::?relay`; Banked call to: APSME_LookupNwkAddr
   \   00001D   E9           MOV       A,R1
   \   00001E   6401         XRL       A,#0x1
   \   000020   6010         JZ        ??ZDSecMgrTclkReq_0
   \   000022   8E82         MOV       DPL,R6
   \   000024   8F83         MOV       DPH,R7
   \   000026   A3           INC       DPTR
   \   000027   A3           INC       DPTR
   \   000028   A3           INC       DPTR
   \   000029   A3           INC       DPTR
   \   00002A   E0           MOVX      A,@DPTR
   \   00002B   6402         XRL       A,#0x2
   \   00002D   7003         JNZ       $+5
   \   00002F   02....       LJMP      ??ZDSecMgrTclkReq_1 & 0xFFFF
   \                     ??ZDSecMgrTclkReq_0:
   \   000032   EE           MOV       A,R6
   \   000033   2402         ADD       A,#0x2
   \   000035   FE           MOV       R6,A
   \   000036   5001         JNC       ??ZDSecMgrTclkReq_2
   \   000038   0F           INC       R7
   \                     ??ZDSecMgrTclkReq_2:
   \   000039                ; Setup parameters for call to function APSME_LookupExtAddr
   \   000039   7410         MOV       A,#0x10
   \   00003B   12....       LCALL     ?XSTACK_DISP102_8
   \   00003E   8E82         MOV       DPL,R6
   \   000040   8F83         MOV       DPH,R7
   \   000042   12....       LCALL     ??Subroutine65_0 & 0xFFFF
   \                     ??CrossCallReturnLabel_96:
   \   000045   12....       LCALL     `??APSME_LookupExtAddr::?relay`; Banked call to: APSME_LookupExtAddr
   \   000048   E9           MOV       A,R1
   \   000049   6401         XRL       A,#0x1
   \   00004B   6003         JZ        $+5
   \   00004D   02....       LJMP      ??ZDSecMgrTclkReq_1 & 0xFFFF
    844            {
    845              // point the key to some memory
    846              req.key = key;
   \   000050   742B         MOV       A,#0x2b
   \   000052   12....       LCALL     ?XSTACK_DISP100_8
   \   000055   7407         MOV       A,#0x7
   \   000057   12....       LCALL     ?XSTACK_DISP0_8
   \   00005A   12....       LCALL     ??Subroutine73_0 & 0xFFFF
    847          
    848              //Search for the entry
    849              APSME_SearchTCLinkKeyEntry(initExtAddr,&found, &TCLKDevEntry);
   \                     ??CrossCallReturnLabel_145:
   \   00005D                ; Setup parameters for call to function APSME_SearchTCLinkKeyEntry
   \   00005D   7418         MOV       A,#0x18
   \   00005F   12....       LCALL     ?XSTACK_DISP100_8
   \   000062   88..         MOV       ?V0,R0
   \   000064   89..         MOV       ?V1,R1
   \   000066   78..         MOV       R0,#?V0
   \   000068   12....       LCALL     ?PUSH_XSTACK_I_TWO
   \   00006B   7402         MOV       A,#0x2
   \   00006D   12....       LCALL     ?XSTACK_DISP102_8
   \   000070   7412         MOV       A,#0x12
   \   000072   12....       LCALL     ?XSTACK_DISP101_8
   \   000075   12....       LCALL     `??APSME_SearchTCLinkKeyEntry::?relay`; Banked call to: APSME_SearchTCLinkKeyEntry
   \   000078   7402         MOV       A,#0x2
   \   00007A   12....       LCALL     ?DEALLOC_XSTACK8
    850          
    851              //If found, generate the key accordingly to the key attribute
    852              if(found)
   \   00007D   85..82       MOV       DPL,?XSP + 0
   \   000080   85..83       MOV       DPH,?XSP + 1
   \   000083   E0           MOVX      A,@DPTR
   \   000084   606B         JZ        ??ZDSecMgrTclkReq_1
    853              {
    854                //Generate key from the seed, which would be the unique key
    855                ZDSecMgrGenerateKeyFromSeed(TCLKDevEntry.extAddr,TCLKDevEntry.SeedShift_IcIndex,req.key);
   \   000086                ; Setup parameters for call to function ZDSecMgrGenerateKeyFromSeed
   \   000086   7407         MOV       A,#0x7
   \   000088   12....       LCALL     ?XSTACK_DISP0_8
   \   00008B   12....       LCALL     ?Subroutine30 & 0xFFFF
   \                     ??CrossCallReturnLabel_26:
   \   00008E   742A         MOV       A,#0x2a
   \   000090   12....       LCALL     ?XSTACK_DISP0_8
   \   000093   E0           MOVX      A,@DPTR
   \   000094   F9           MOV       R1,A
   \   000095   7420         MOV       A,#0x20
   \   000097   12....       LCALL     ?XSTACK_DISP0_8
   \   00009A   AA82         MOV       R2,DPL
   \   00009C   AB83         MOV       R3,DPH
   \   00009E   12....       LCALL     `??ZDSecMgrGenerateKeyFromSeed::?relay`; Banked call to: ZDSecMgrGenerateKeyFromSeed
    856              
    857                // always secure
    858                req.nwkSecure = TRUE;
   \   0000A1   740D         MOV       A,#0xd
   \   0000A3   12....       LCALL     ?XSTACK_DISP0_8
   \   0000A6   7401         MOV       A,#0x1
   \   0000A8   F0           MOVX      @DPTR,A
    859                req.apsSecure = TRUE;
   \   0000A9   740C         MOV       A,#0xc
   \   0000AB   12....       LCALL     ?XSTACK_DISP0_8
   \   0000AE   7401         MOV       A,#0x1
   \   0000B0   F0           MOVX      @DPTR,A
    860                req.tunnel    = NULL;
   \   0000B1   740E         MOV       A,#0xe
   \   0000B3   12....       LCALL     ?XSTACK_DISP0_8
   \   0000B6   12....       LCALL     ?Subroutine13 & 0xFFFF
    861          
    862                // send key to initiator device
    863                req.dstAddr   = ind->srcAddr;
   \                     ??CrossCallReturnLabel_3:
   \   0000B9   7403         MOV       A,#0x3
   \   0000BB   12....       LCALL     ?XSTACK_DISP0_8
   \   0000BE   12....       LCALL     ??Subroutine73_0 & 0xFFFF
    864                req.extAddr   = initExtAddr;
   \                     ??CrossCallReturnLabel_146:
   \   0000C1   7410         MOV       A,#0x10
   \   0000C3   12....       LCALL     ?XSTACK_DISP100_8
   \   0000C6   7409         MOV       A,#0x9
   \   0000C8   12....       LCALL     ?XSTACK_DISP0_8
   \   0000CB   12....       LCALL     ?Subroutine24 & 0xFFFF
    865                req.initiator = TRUE;
   \                     ??CrossCallReturnLabel_21:
   \   0000CE   12....       LCALL     ?XSTACK_DISP0_8
   \   0000D1   7401         MOV       A,#0x1
   \   0000D3   F0           MOVX      @DPTR,A
    866                req.keyType   = KEY_TYPE_TC_LINK;
   \   0000D4   7405         MOV       A,#0x5
   \   0000D6   12....       LCALL     ?XSTACK_DISP0_8
   \   0000D9   7404         MOV       A,#0x4
   \   0000DB   F0           MOVX      @DPTR,A
    867                  
    868                APSME_TransportKeyReq( &req );
   \   0000DC                ; Setup parameters for call to function APSME_TransportKeyReq
   \   0000DC   14           DEC       A
   \   0000DD   12....       LCALL     ?XSTACK_DISP101_8
   \   0000E0   12....       LCALL     `??APSME_TransportKeyReq::?relay`; Banked call to: APSME_TransportKeyReq
    869                  
    870                // clear copy of key in RAM
    871                osal_memset( key, 0x00, SEC_KEY_LEN);
   \   0000E3                ; Setup parameters for call to function osal_memset
   \   0000E3   7C10         MOV       R4,#0x10
   \   0000E5   7D00         MOV       R5,#0x0
   \   0000E7   7900         MOV       R1,#0x0
   \   0000E9   742B         MOV       A,#0x2b
   \   0000EB   12....       LCALL     ?XSTACK_DISP101_8
   \   0000EE   12....       LCALL     `??osal_memset::?relay`; Banked call to: osal_memset
    872              
    873              }
    874            }
    875          }
   \                     ??ZDSecMgrTclkReq_1:
   \   0000F1   743B         MOV       A,#0x3b
   \   0000F3   02....       LJMP      ??Subroutine71_0 & 0xFFFF

   \                                 In  segment BANKED_CODE, align 1, keep-with-next
   \                     ?Subroutine24:
   \   000000   12....       LCALL     ?Subroutine50 & 0xFFFF
   \                     ??CrossCallReturnLabel_163:
   \   000003                ; Setup parameters for call to function APSME_GetRequest
   \   000003   740B         MOV       A,#0xb
   \   000005   22           RET

   \                                 In  segment BANKED_CODE, align 1, keep-with-next
   \                     ??Subroutine71_0:
   \   000000   12....       LCALL     ?DEALLOC_XSTACK8
   \   000003                REQUIRE ??Subroutine72_0
   \   000003                ; // Fall through to label ??Subroutine72_0

   \                                 In  segment BANKED_CODE, align 1, keep-with-next
   \                     ??Subroutine72_0:
   \   000000   7F02         MOV       R7,#0x2
   \   000002   02....       LJMP      ?BANKED_LEAVE_XDATA
    876          
    877          /******************************************************************************
    878           * @fn          ZDSecMgrAppConfKeyReq
    879           *
    880           * @brief       Process request for APP key between two devices.
    881           *
    882           * @param       device - [in] ZDO_VerifyKeyInd_t, request info
    883           *
    884           * @return      none
    885           */

   \                                 In  segment BANKED_CODE, align 1, keep-with-next
    886          void ZDSecMgrAppConfKeyReq( ZDO_VerifyKeyInd_t* ind )
   \                     ZDSecMgrAppConfKeyReq:
    887          {
   \   000000   C082         PUSH      DPL
   \   000002   C083         PUSH      DPH
   \   000004                ; Saved register size: 2
   \   000004                ; Auto size: 6
   \   000004   74FA         MOV       A,#-0x6
   \   000006   12....       LCALL     ?ALLOC_XSTACK8
    888            APSME_ConfirmKeyReq_t   req;
    889          
    890            // send key to initiator device
    891            req.dstAddr      = ind->srcAddr;
   \   000009   8A82         MOV       DPL,R2
   \   00000B   8B83         MOV       DPH,R3
   \   00000D   A3           INC       DPTR
   \   00000E   A3           INC       DPTR
   \   00000F   12....       LCALL     ?Subroutine25 & 0xFFFF
    892            req.status       = ind->verifyKeyStatus;
   \                     ??CrossCallReturnLabel_158:
   \   000012   EA           MOV       A,R2
   \   000013   241D         ADD       A,#0x1d
   \   000015   F582         MOV       DPL,A
   \   000017   E4           CLR       A
   \   000018   3B           ADDC      A,R3
   \   000019   F583         MOV       DPH,A
   \   00001B   E0           MOVX      A,@DPTR
   \   00001C   C0E0         PUSH      A
   \   00001E   7402         MOV       A,#0x2
   \   000020   12....       LCALL     ?XSTACK_DISP0_8
   \   000023   D0E0         POP       A
   \   000025   F0           MOVX      @DPTR,A
    893            req.dstExtAddr   = ind->extAddr;
   \   000026   EA           MOV       A,R2
   \   000027   2405         ADD       A,#0x5
   \   000029   F8           MOV       R0,A
   \   00002A   E4           CLR       A
   \   00002B   3B           ADDC      A,R3
   \   00002C   F9           MOV       R1,A
   \   00002D   7403         MOV       A,#0x3
   \   00002F   12....       LCALL     ?XSTACK_DISP0_8
   \   000032   12....       LCALL     ?Subroutine16 & 0xFFFF
    894            req.keyType      = ind->keyType;
   \                     ??CrossCallReturnLabel_86:
   \   000035   A3           INC       DPTR
   \   000036   A3           INC       DPTR
   \   000037   E0           MOVX      A,@DPTR
   \   000038   C0E0         PUSH      A
   \   00003A   7405         MOV       A,#0x5
   \   00003C   12....       LCALL     ?XSTACK_DISP0_8
   \   00003F   D0E0         POP       A
   \   000041   12....       LCALL     ??Subroutine74_0 & 0xFFFF
    895          
    896            if ( ( ZSTACK_DEVICE_BUILD & DEVICE_BUILD_COORDINATOR ) != 0 )
    897            {
    898              APSME_ConfirmKeyReq( &req );
   \                     ??CrossCallReturnLabel_168:
   \   000044   12....       LCALL     `??APSME_ConfirmKeyReq::?relay`; Banked call to: APSME_ConfirmKeyReq
    899            }
    900            
    901          }
   \   000047   7406         MOV       A,#0x6
   \   000049                REQUIRE ?Subroutine8
   \   000049                ; // Fall through to label ?Subroutine8

   \                                 In  segment BANKED_CODE, align 1, keep-with-next
   \                     ?Subroutine8:
   \   000000   12....       LCALL     ?DEALLOC_XSTACK8
   \   000003   02....       LJMP      ??Subroutine66_0 & 0xFFFF

   \                                 In  segment BANKED_CODE, align 1, keep-with-next
   \                     ?Subroutine16:
   \   000000   E8           MOV       A,R0
   \   000001   F0           MOVX      @DPTR,A
   \   000002   A3           INC       DPTR
   \   000003   E9           MOV       A,R1
   \   000004                REQUIRE ??Subroutine61_0
   \   000004                ; // Fall through to label ??Subroutine61_0

   \                                 In  segment BANKED_CODE, align 1, keep-with-next
   \                     ?Subroutine25:
   \   000000   12....       LCALL     ?Subroutine51 & 0xFFFF
   \                     ??CrossCallReturnLabel_195:
   \   000003   85..82       MOV       DPL,?XSP + 0
   \   000006   85..83       MOV       DPH,?XSP + 1
   \   000009                REQUIRE ??Subroutine73_0
   \   000009                ; // Fall through to label ??Subroutine73_0
    902          
    903          
    904          /******************************************************************************
    905           * @fn          ZDSecMgrSendNwkKey
    906           *
    907           * @brief       Send NWK key to device joining network.
    908           *
    909           * @param       device - [in] ZDSecMgrDevice_t, device info
    910           *
    911           * @return      ZStatus_t
    912           */

   \                                 In  segment BANKED_CODE, align 1, keep-with-next
    913          ZStatus_t ZDSecMgrSendNwkKey( ZDSecMgrDevice_t* device )
   \                     ZDSecMgrSendNwkKey:
    914          {
   \   000000                REQUIRE ?V0
   \   000000                REQUIRE ?V1
   \   000000                REQUIRE ?V2
   \   000000                REQUIRE ?V3
   \   000000   74F4         MOV       A,#-0xc
   \   000002   12....       LCALL     ?BANKED_ENTER_XDATA
   \   000005                ; Saved register size: 12
   \   000005                ; Auto size: 34
   \   000005   74DE         MOV       A,#-0x22
   \   000007   12....       LCALL     ?ALLOC_XSTACK8
   \   00000A   EA           MOV       A,R2
   \   00000B   FE           MOV       R6,A
   \   00000C   EB           MOV       A,R3
   \   00000D   FF           MOV       R7,A
    915            ZStatus_t status;
    916            APSME_TransportKeyReq_t req;
    917            APSDE_FrameTunnel_t tunnel;
    918            nwkKeyDesc tmpKey;
    919          
    920            req.dstAddr   = device->nwkAddr;
   \   00000E   12....       LCALL     ?Subroutine29 & 0xFFFF
   \                     ??CrossCallReturnLabel_126:
   \   000011   7404         MOV       A,#0x4
   \   000013   12....       LCALL     ?XSTACK_DISP0_8
   \   000016   12....       LCALL     ??Subroutine73_0 & 0xFFFF
    921            req.extAddr   = device->extAddr;
   \                     ??CrossCallReturnLabel_147:
   \   000019   EE           MOV       A,R6
   \   00001A   2402         ADD       A,#0x2
   \   00001C   12....       LCALL     ?Subroutine42 & 0xFFFF
   \                     ??CrossCallReturnLabel_48:
   \   00001F   12....       LCALL     ??Subroutine67_0 & 0xFFFF
   \                     ??CrossCallReturnLabel_118:
   \   000022   740A         MOV       A,#0xa
   \   000024   12....       LCALL     ?XSTACK_DISP0_8
   \   000027   12....       LCALL     ??Subroutine73_0 & 0xFFFF
    922          
    923            req.keyType   = KEY_TYPE_NWK;
   \                     ??CrossCallReturnLabel_148:
   \   00002A   7406         MOV       A,#0x6
   \   00002C   12....       LCALL     ?XSTACK_DISP0_8
   \   00002F   7401         MOV       A,#0x1
   \   000031   F0           MOVX      @DPTR,A
    924          
    925            // get the Active Key into a local variable
    926            if ( NLME_ReadNwkKeyInfo( 0, sizeof(tmpKey), &tmpKey,
    927                                     ZCD_NV_NWK_ACTIVE_KEY_INFO ) != SUCCESS )
   \   000032                ; Setup parameters for call to function NLME_ReadNwkKeyInfo
   \   000032   75..3A       MOV       ?V2,#0x3a
   \   000035   75..00       MOV       ?V3,#0x0
   \   000038   78..         MOV       R0,#?V2
   \   00003A   12....       LCALL     ?PUSH_XSTACK_I_TWO
   \   00003D   7413         MOV       A,#0x13
   \   00003F   12....       LCALL     ?XSTACK_DISP100_8
   \   000042   88..         MOV       ?V2,R0
   \   000044   89..         MOV       ?V3,R1
   \   000046   78..         MOV       R0,#?V2
   \   000048   12....       LCALL     ?PUSH_XSTACK_I_TWO
   \   00004B   7C11         MOV       R4,#0x11
   \   00004D   7D00         MOV       R5,#0x0
   \   00004F   7A00         MOV       R2,#0x0
   \   000051   7B00         MOV       R3,#0x0
   \   000053   12....       LCALL     `??NLME_ReadNwkKeyInfo::?relay`; Banked call to: NLME_ReadNwkKeyInfo
   \   000056   7404         MOV       A,#0x4
   \   000058   12....       LCALL     ?DEALLOC_XSTACK8
   \   00005B   E9           MOV       A,R1
   \   00005C   600D         JZ        ??ZDSecMgrSendNwkKey_0
    928            {
    929              // set key data to all 0s if NV read fails
    930              osal_memset(&tmpKey, 0x00, sizeof(tmpKey));
   \   00005E                ; Setup parameters for call to function osal_memset
   \   00005E   7C11         MOV       R4,#0x11
   \   000060   7D00         MOV       R5,#0x0
   \   000062   7900         MOV       R1,#0x0
   \   000064   EC           MOV       A,R4
   \   000065   12....       LCALL     ?XSTACK_DISP101_8
   \   000068   12....       LCALL     `??osal_memset::?relay`; Banked call to: osal_memset
    931            }
    932          
    933            if ( ZG_CHECK_SECURITY_MODE == ZG_SECURITY_SE_STANDARD )
    934            {
    935              // set values
    936              req.keySeqNum = tmpKey.keySeqNum;
   \                     ??ZDSecMgrSendNwkKey_0:
   \   00006B   7411         MOV       A,#0x11
   \   00006D   12....       LCALL     ?XSTACK_DISP0_8
   \   000070   E0           MOVX      A,@DPTR
   \   000071   C0E0         PUSH      A
   \   000073   7407         MOV       A,#0x7
   \   000075   12....       LCALL     ?XSTACK_DISP0_8
   \   000078   D0E0         POP       A
   \   00007A   F0           MOVX      @DPTR,A
    937              req.key       = tmpKey.key;
   \   00007B   7412         MOV       A,#0x12
   \   00007D   12....       LCALL     ?XSTACK_DISP0_8
   \   000080   A882         MOV       R0,DPL
   \   000082   A983         MOV       R1,DPH
   \   000084   7408         MOV       A,#0x8
   \   000086   12....       LCALL     ?XSTACK_DISP0_8
   \   000089   12....       LCALL     ??Subroutine73_0 & 0xFFFF
    938          
    939              //devtag.pro.security.todo - make sure that if there is no link key the NWK
    940              //key isn't used to secure the frame at the APS layer -- since the receiving
    941              //device may not have a NWK key yet
    942              req.apsSecure = TRUE;
   \                     ??CrossCallReturnLabel_149:
   \   00008C   740D         MOV       A,#0xd
   \   00008E   12....       LCALL     ?XSTACK_DISP0_8
   \   000091   7401         MOV       A,#0x1
   \   000093   F0           MOVX      @DPTR,A
    943          
    944              // check if using secure hop to parent
    945              if ( device->parentAddr == NLME_GetShortAddr() )
   \   000094                ; Setup parameters for call to function NLME_GetShortAddr
   \   000094   12....       LCALL     `??NLME_GetShortAddr::?relay`; Banked call to: NLME_GetShortAddr
   \   000097   EE           MOV       A,R6
   \   000098   2404         ADD       A,#0x4
   \   00009A   F8           MOV       R0,A
   \   00009B   E4           CLR       A
   \   00009C   3F           ADDC      A,R7
   \   00009D   F9           MOV       R1,A
   \   00009E   8882         MOV       DPL,R0
   \   0000A0   8983         MOV       DPH,R1
   \   0000A2   E0           MOVX      A,@DPTR
   \   0000A3   6A           XRL       A,R2
   \   0000A4   7003         JNZ       ??ZDSecMgrSendNwkKey_1
   \   0000A6   A3           INC       DPTR
   \   0000A7   E0           MOVX      A,@DPTR
   \   0000A8   6B           XRL       A,R3
   \                     ??ZDSecMgrSendNwkKey_1:
   \   0000A9   7011         JNZ       ??ZDSecMgrSendNwkKey_2
    946              {
    947                req.nwkSecure = FALSE;
   \   0000AB   740E         MOV       A,#0xe
   \   0000AD   12....       LCALL     ?XSTACK_DISP0_8
   \   0000B0   E4           CLR       A
   \   0000B1   F0           MOVX      @DPTR,A
    948                req.tunnel    = NULL;
   \   0000B2   740F         MOV       A,#0xf
   \   0000B4   12....       LCALL     ?XSTACK_DISP0_8
   \   0000B7   E4           CLR       A
   \   0000B8   F0           MOVX      @DPTR,A
   \   0000B9   A3           INC       DPTR
   \   0000BA   802C         SJMP      ??ZDSecMgrSendNwkKey_3
    949              }
    950              else
    951              {
    952                req.nwkSecure   = TRUE;
   \                     ??ZDSecMgrSendNwkKey_2:
   \   0000BC   740E         MOV       A,#0xe
   \   0000BE   12....       LCALL     ?XSTACK_DISP0_8
   \   0000C1   7401         MOV       A,#0x1
   \   0000C3   F0           MOVX      @DPTR,A
    953                req.tunnel      = &tunnel;
   \   0000C4   740F         MOV       A,#0xf
   \   0000C6   12....       LCALL     ?XSTACK_DISP0_8
   \   0000C9   E5..         MOV       A,?XSP + 0
   \   0000CB   F0           MOVX      @DPTR,A
   \   0000CC   A3           INC       DPTR
   \   0000CD   E5..         MOV       A,?XSP + 1
   \   0000CF   12....       LCALL     ?Subroutine17 & 0xFFFF
    954                req.tunnel->tna = device->parentAddr;
    955                req.tunnel->dea = device->extAddr;
    956              }
    957            }
   \                     ??CrossCallReturnLabel_8:
   \   0000D2   85..82       MOV       DPL,?XSP + 0
   \   0000D5   85..83       MOV       DPH,?XSP + 1
   \   0000D8   12....       LCALL     ?Subroutine14 & 0xFFFF
   \                     ??CrossCallReturnLabel_4:
   \   0000DB   F8           MOV       R0,A
   \   0000DC   A3           INC       DPTR
   \   0000DD   E0           MOVX      A,@DPTR
   \   0000DE   F9           MOV       R1,A
   \   0000DF   7402         MOV       A,#0x2
   \   0000E1   12....       LCALL     ?XSTACK_DISP0_8
   \   0000E4   E8           MOV       A,R0
   \   0000E5   F0           MOVX      @DPTR,A
   \   0000E6   A3           INC       DPTR
   \   0000E7   E9           MOV       A,R1
   \                     ??ZDSecMgrSendNwkKey_3:
   \   0000E8   F0           MOVX      @DPTR,A
    958            else
    959            {
    960              // default values
    961              //devtag.0604.verify
    962              req.nwkSecure = TRUE;
    963              req.apsSecure = FALSE;
    964              req.tunnel    = NULL;
    965          
    966              if ( device->parentAddr != NLME_GetShortAddr() )
    967              {
    968                req.dstAddr = device->parentAddr;
    969              }
    970          
    971              // send the real key
    972              if ( zgPreConfigKeys == FALSE )
    973              {
    974                req.keySeqNum = tmpKey.keySeqNum;
    975                req.key       = tmpKey.key;
    976          
    977                // check if using secure hop to to parent
    978                if ( device->parentAddr == NLME_GetShortAddr() )
    979                {
    980                  req.nwkSecure = FALSE;
    981                }
    982              }
    983              else
    984              {
    985                // this is to send the all zero key when the NWK key has been preconfigured
    986                req.key       = NULL;
    987                req.keySeqNum = 0;
    988              }
    989            }
    990          
    991            status = APSME_TransportKeyReq( &req );
   \   0000E9                ; Setup parameters for call to function APSME_TransportKeyReq
   \   0000E9   7404         MOV       A,#0x4
   \   0000EB   12....       LCALL     ?XSTACK_DISP101_8
   \   0000EE   12....       LCALL     `??APSME_TransportKeyReq::?relay`; Banked call to: APSME_TransportKeyReq
   \   0000F1   E9           MOV       A,R1
   \   0000F2   FE           MOV       R6,A
    992          
    993            // clear copy of key in RAM before return
    994            osal_memset( &tmpKey, 0x00, sizeof(nwkKeyDesc) );
   \   0000F3                ; Setup parameters for call to function osal_memset
   \   0000F3   7C11         MOV       R4,#0x11
   \   0000F5   7D00         MOV       R5,#0x0
   \   0000F7   7900         MOV       R1,#0x0
   \   0000F9   EC           MOV       A,R4
   \   0000FA   12....       LCALL     ?XSTACK_DISP101_8
   \   0000FD   12....       LCALL     `??osal_memset::?relay`; Banked call to: osal_memset
    995          
    996            return status;
   \   000100   EE           MOV       A,R6
   \   000101   F9           MOV       R1,A
   \   000102   7422         MOV       A,#0x22
   \   000104   02....       LJMP      ?Subroutine3 & 0xFFFF
    997          }

   \                                 In  segment BANKED_CODE, align 1, keep-with-next
   \                     ?Subroutine17:
   \   000000   F0           MOVX      @DPTR,A
   \   000001   8882         MOV       DPL,R0
   \   000003   8983         MOV       DPH,R1
   \   000005   12....       LCALL     ?Subroutine51 & 0xFFFF
   \                     ??CrossCallReturnLabel_193:
   \   000008   22           RET

   \                                 In  segment BANKED_CODE, align 1, keep-with-next
   \                     ?Subroutine14:
   \   000000   12....       LCALL     ?Subroutine50 & 0xFFFF
   \                     ??CrossCallReturnLabel_160:
   \   000003                ; Setup parameters for call to function osal_memcpy
   \   000003   85..82       MOV       DPL,?V0
   \   000006   85..83       MOV       DPH,?V1
   \   000009   E0           MOVX      A,@DPTR
   \   00000A   22           RET

   \                                 In  segment BANKED_CODE, align 1, keep-with-next
   \                     ?Subroutine42:
   \   000000   F5..         MOV       ?V0,A
   \   000002   E4           CLR       A
   \   000003   3F           ADDC      A,R7
   \   000004   F5..         MOV       ?V1,A
   \   000006   85..82       MOV       DPL,?V0
   \   000009   F583         MOV       DPH,A
   \   00000B   22           RET

   \                                 In  segment BANKED_CODE, align 1, keep-with-next
   \                     ?Subroutine29:
   \   000000   8E82         MOV       DPL,R6
   \   000002   8F83         MOV       DPH,R7
   \   000004                REQUIRE ??Subroutine67_0
   \   000004                ; // Fall through to label ??Subroutine67_0
    998          
    999          /******************************************************************************
   1000           * @fn          ZDSecMgrDeviceRemoveByExtAddr
   1001           *
   1002           * @brief       Remove device entry by its ext address.
   1003           *
   1004           * @param       pAddr - pointer to the extended address
   1005           *
   1006           * @return      ZStatus_t
   1007           */

   \                                 In  segment BANKED_CODE, align 1, keep-with-next
   1008          ZStatus_t ZDSecMgrDeviceRemoveByExtAddr( uint8 *pAddr )
   \                     ZDSecMgrDeviceRemoveByExtAddr:
   1009          {
   \   000000   74F7         MOV       A,#-0x9
   \   000002   12....       LCALL     ?BANKED_ENTER_XDATA
   \   000005                ; Saved register size: 9
   \   000005                ; Auto size: 2
   \   000005   74FE         MOV       A,#-0x2
   \   000007   12....       LCALL     ?ALLOC_XSTACK8
   1010            ZDSecMgrEntry_t *pEntry;
   1011            uint8           retValue;
   1012          
   1013            retValue = (uint8)ZDSecMgrEntryLookupExt( pAddr, &pEntry );
   \   00000A                ; Setup parameters for call to function ZDSecMgrEntryLookupExt
   \   00000A   AC..         MOV       R4,?XSP + 0
   \   00000C   AD..         MOV       R5,?XSP + 1
   \   00000E   12....       LCALL     `??ZDSecMgrEntryLookupExt::?relay`; Banked call to: ZDSecMgrEntryLookupExt
   \   000011   E9           MOV       A,R1
   \   000012   FE           MOV       R6,A
   1014          
   1015            if( retValue == ZSuccess )
   \   000013   700C         JNZ       ??ZDSecMgrDeviceRemoveByExtAddr_0
   1016            {
   1017              // remove device from entry data
   1018              ZDSecMgrEntryFree( pEntry );
   \   000015                ; Setup parameters for call to function ZDSecMgrEntryFree
   \   000015   85..82       MOV       DPL,?XSP + 0
   \   000018   85..83       MOV       DPH,?XSP + 1
   \   00001B   12....       LCALL     ??Subroutine65_0 & 0xFFFF
   1019            }
   \                     ??CrossCallReturnLabel_97:
   \   00001E   12....       LCALL     `??ZDSecMgrEntryFree::?relay`; Banked call to: ZDSecMgrEntryFree
   1020          
   1021            return retValue;
   \                     ??ZDSecMgrDeviceRemoveByExtAddr_0:
   \   000021   EE           MOV       A,R6
   \   000022   F9           MOV       R1,A
   \   000023                REQUIRE ?Subroutine6
   \   000023                ; // Fall through to label ?Subroutine6
   1022          }
   1023          
   1024          /******************************************************************************
   1025           * @fn          ZDSecMgrDeviceRemove
   1026           *
   1027           * @brief       Remove device from network.
   1028           *
   1029           * @param       device - [in] ZDSecMgrDevice_t, device info
   1030           *
   1031           * @return      none
   1032           */

   \                                 In  segment BANKED_CODE, align 1, keep-with-next
   1033          void ZDSecMgrDeviceRemove( ZDSecMgrDevice_t* device )
   \                     ZDSecMgrDeviceRemove:
   1034          {
   \   000000                REQUIRE ?V0
   \   000000                REQUIRE ?V1
   \   000000   74F6         MOV       A,#-0xa
   \   000002   12....       LCALL     ?BANKED_ENTER_XDATA
   \   000005                ; Saved register size: 10
   \   000005                ; Auto size: 19
   \   000005   74ED         MOV       A,#-0x13
   \   000007   12....       LCALL     ?ALLOC_XSTACK8
   \   00000A   EA           MOV       A,R2
   \   00000B   FE           MOV       R6,A
   \   00000C   EB           MOV       A,R3
   \   00000D   FF           MOV       R7,A
   1035            APSME_RemoveDeviceReq_t remDevReq;
   1036            NLME_LeaveReq_t         leaveReq;
   1037            associated_devices_t*   assoc;
   1038            uint8 TC_ExtAddr[Z_EXTADDR_LEN];
   1039          
   1040            // check if parent, remove the device
   1041            if ( device->parentAddr == NLME_GetShortAddr() )
   \   00000E                ; Setup parameters for call to function NLME_GetShortAddr
   \   00000E   12....       LCALL     `??NLME_GetShortAddr::?relay`; Banked call to: NLME_GetShortAddr
   \   000011   8A..         MOV       ?V0,R2
   \   000013   8B..         MOV       ?V1,R3
   \   000015   8E82         MOV       DPL,R6
   \   000017   8F83         MOV       DPH,R7
   \   000019   A3           INC       DPTR
   \   00001A   A3           INC       DPTR
   \   00001B   12....       LCALL     ??Subroutine64_0 & 0xFFFF
   \                     ??CrossCallReturnLabel_111:
   \   00001E   EE           MOV       A,R6
   \   00001F   2402         ADD       A,#0x2
   \   000021   F8           MOV       R0,A
   \   000022   E4           CLR       A
   \   000023   3F           ADDC      A,R7
   \   000024   F9           MOV       R1,A
   \   000025   E5..         MOV       A,?V0
   \   000027   6A           XRL       A,R2
   \   000028   7003         JNZ       ??ZDSecMgrDeviceRemove_0
   \   00002A   E5..         MOV       A,?V1
   \   00002C   6B           XRL       A,R3
   \                     ??ZDSecMgrDeviceRemove_0:
   \   00002D   6003         JZ        $+5
   \   00002F   02....       LJMP      ??ZDSecMgrDeviceRemove_1 & 0xFFFF
   1042            {
   1043              // this is the parent of the device
   1044              leaveReq.extAddr        = device->extAddr;
   \   000032   8882         MOV       DPL,R0
   \   000034   8983         MOV       DPH,R1
   \   000036   12....       LCALL     ??Subroutine65_0 & 0xFFFF
   \                     ??CrossCallReturnLabel_98:
   \   000039   7401         MOV       A,#0x1
   \   00003B   12....       LCALL     ?XSTACK_DISP0_8
   \   00003E   12....       LCALL     ?Subroutine18 & 0xFFFF
   1045              leaveReq.removeChildren = FALSE;
   \                     ??CrossCallReturnLabel_12:
   \   000041   12....       LCALL     ?XSTACK_DISP0_8
   \   000044   E4           CLR       A
   \   000045   F0           MOVX      @DPTR,A
   1046              leaveReq.rejoin         = FALSE;
   \   000046   7404         MOV       A,#0x4
   \   000048   12....       LCALL     ?XSTACK_DISP0_8
   \   00004B   E4           CLR       A
   \   00004C   F0           MOVX      @DPTR,A
   1047          
   1048              // find child association
   1049              assoc = AssocGetWithExt( device->extAddr );
   \   00004D                ; Setup parameters for call to function AssocGetWithExt
   \   00004D   8882         MOV       DPL,R0
   \   00004F   8983         MOV       DPH,R1
   \   000051   12....       LCALL     ??Subroutine65_0 & 0xFFFF
   \                     ??CrossCallReturnLabel_99:
   \   000054   12....       LCALL     `??AssocGetWithExt::?relay`; Banked call to: AssocGetWithExt
   \   000057   8A..         MOV       ?V0,R2
   \   000059   8B..         MOV       ?V1,R3
   \   00005B   A8..         MOV       R0,?V0
   \   00005D   A9..         MOV       R1,?V1
   1050          
   1051              if ( ( assoc != NULL                            ) &&
   1052                   ( assoc->nodeRelation >= CHILD_RFD         ) &&
   1053                   ( assoc->nodeRelation <= CHILD_FFD_RX_IDLE )    )
   \   00005F   E8           MOV       A,R0
   \   000060   49           ORL       A,R1
   \   000061   6030         JZ        ??ZDSecMgrDeviceRemove_2
   \   000063   8882         MOV       DPL,R0
   \   000065   8983         MOV       DPH,R1
   \   000067   A3           INC       DPTR
   \   000068   A3           INC       DPTR
   \   000069   A3           INC       DPTR
   \   00006A   A3           INC       DPTR
   \   00006B   E0           MOVX      A,@DPTR
   \   00006C   6025         JZ        ??ZDSecMgrDeviceRemove_2
   \   00006E   C3           CLR       C
   \   00006F   9405         SUBB      A,#0x5
   \   000071   5020         JNC       ??ZDSecMgrDeviceRemove_2
   1054              {
   1055                // check if associated device is authenticated
   1056                if ( assoc->devStatus & DEV_SEC_AUTH_STATUS )
   \   000073   8882         MOV       DPL,R0
   \   000075   8983         MOV       DPH,R1
   \   000077   A3           INC       DPTR
   \   000078   A3           INC       DPTR
   \   000079   A3           INC       DPTR
   \   00007A   A3           INC       DPTR
   \   00007B   A3           INC       DPTR
   \   00007C   E0           MOVX      A,@DPTR
   \   00007D   A2E3         MOV       C,0xE0 /* A   */.3
   \   00007F   7405         MOV       A,#0x5
   \   000081   5006         JNC       ??ZDSecMgrDeviceRemove_3
   1057                {
   1058                  leaveReq.silent = FALSE;
   \   000083   12....       LCALL     ?XSTACK_DISP0_8
   \   000086   E4           CLR       A
   \   000087   8005         SJMP      ??ZDSecMgrDeviceRemove_4
   1059                }
   1060                else
   1061                {
   1062                  leaveReq.silent = TRUE;
   \                     ??ZDSecMgrDeviceRemove_3:
   \   000089   12....       LCALL     ?XSTACK_DISP0_8
   \   00008C   7401         MOV       A,#0x1
   \                     ??ZDSecMgrDeviceRemove_4:
   \   00008E   F0           MOVX      @DPTR,A
   1063                }
   1064          
   1065                NLME_LeaveReq( &leaveReq );
   \   00008F                ; Setup parameters for call to function NLME_LeaveReq
   \   00008F   7401         MOV       A,#0x1
   \   000091   802C         SJMP      ??ZDSecMgrDeviceRemove_5
   1066              }
   1067              else if ( device->nwkAddr == NLME_GetShortAddr() )
   \                     ??ZDSecMgrDeviceRemove_2:
   \   000093                ; Setup parameters for call to function NLME_GetShortAddr
   \   000093   12....       LCALL     `??NLME_GetShortAddr::?relay`; Banked call to: NLME_GetShortAddr
   \   000096   8A..         MOV       ?V0,R2
   \   000098   8B..         MOV       ?V1,R3
   \   00009A   A8..         MOV       R0,?V0
   \   00009C   A9..         MOV       R1,?V1
   \   00009E   8E82         MOV       DPL,R6
   \   0000A0   8F83         MOV       DPH,R7
   \   0000A2   E0           MOVX      A,@DPTR
   \   0000A3   68           XRL       A,R0
   \   0000A4   7003         JNZ       ??ZDSecMgrDeviceRemove_6
   \   0000A6   A3           INC       DPTR
   \   0000A7   E0           MOVX      A,@DPTR
   \   0000A8   69           XRL       A,R1
   \                     ??ZDSecMgrDeviceRemove_6:
   \   0000A9   6003         JZ        $+5
   \   0000AB   02....       LJMP      ??ZDSecMgrDeviceRemove_7 & 0xFFFF
   1068              {
   1069                // this is when ZC wants that ZR removes itself from the network
   1070                leaveReq.extAddr = NULL;
   \   0000AE   7401         MOV       A,#0x1
   \   0000B0   12....       LCALL     ?XSTACK_DISP0_8
   \   0000B3   E4           CLR       A
   \   0000B4   F0           MOVX      @DPTR,A
   \   0000B5   A3           INC       DPTR
   \   0000B6   F0           MOVX      @DPTR,A
   1071                leaveReq.silent = FALSE;
   \   0000B7   7405         MOV       A,#0x5
   \   0000B9   12....       LCALL     ?XSTACK_DISP0_8
   \   0000BC   E4           CLR       A
   \   0000BD   F0           MOVX      @DPTR,A
   1072          
   1073                NLME_LeaveReq( &leaveReq );
   \   0000BE                ; Setup parameters for call to function NLME_LeaveReq
   \   0000BE   04           INC       A
   \                     ??ZDSecMgrDeviceRemove_5:
   \   0000BF   12....       LCALL     ?XSTACK_DISP101_8
   \   0000C2   12....       LCALL     `??NLME_LeaveReq::?relay`; Banked call to: NLME_LeaveReq
   \   0000C5   806C         SJMP      ??ZDSecMgrDeviceRemove_7
   1074              }
   1075            }
   1076            else
   1077            {
   1078              // this is not the parent of the device
   1079              remDevReq.parentAddr   = device->parentAddr;
   \                     ??ZDSecMgrDeviceRemove_1:
   \   0000C7   7406         MOV       A,#0x6
   \   0000C9   12....       LCALL     ?XSTACK_DISP0_8
   \   0000CC   EA           MOV       A,R2
   \   0000CD   F0           MOVX      @DPTR,A
   \   0000CE   A3           INC       DPTR
   \   0000CF   EB           MOV       A,R3
   \   0000D0   12....       LCALL     ?Subroutine17 & 0xFFFF
   1080              remDevReq.childExtAddr = device->extAddr;
   \                     ??CrossCallReturnLabel_9:
   \   0000D3   7408         MOV       A,#0x8
   \   0000D5   12....       LCALL     ?XSTACK_DISP0_8
   \   0000D8   12....       LCALL     ?Subroutine24 & 0xFFFF
   1081          
   1082              if ( ZG_CHECK_SECURITY_MODE == ZG_SECURITY_SE_STANDARD )
   1083              {
   1084                uint8 found;
   1085                APSME_GetRequest( apsTrustCenterAddress,0, TC_ExtAddr );
   \                     ??CrossCallReturnLabel_22:
   \   0000DB   12....       LCALL     ?XSTACK_DISP102_8
   \   0000DE   7A00         MOV       R2,#0x0
   \   0000E0   7B00         MOV       R3,#0x0
   \   0000E2   79AB         MOV       R1,#-0x55
   \   0000E4   12....       LCALL     `??APSME_GetRequest::?relay`; Banked call to: APSME_GetRequest
   1086                
   1087                APSME_SearchTCLinkKeyEntry(TC_ExtAddr,&found,NULL);
   \   0000E7                ; Setup parameters for call to function APSME_SearchTCLinkKeyEntry
   \   0000E7   E4           CLR       A
   \   0000E8   F5..         MOV       ?V0,A
   \   0000EA   F5..         MOV       ?V1,A
   \   0000EC   78..         MOV       R0,#?V0
   \   0000EE   12....       LCALL     ?PUSH_XSTACK_I_TWO
   \   0000F1   7402         MOV       A,#0x2
   \   0000F3   12....       LCALL     ?XSTACK_DISP102_8
   \   0000F6   740D         MOV       A,#0xd
   \   0000F8   12....       LCALL     ?XSTACK_DISP101_8
   \   0000FB   12....       LCALL     `??APSME_SearchTCLinkKeyEntry::?relay`; Banked call to: APSME_SearchTCLinkKeyEntry
   \   0000FE   7402         MOV       A,#0x2
   \   000100   12....       LCALL     ?DEALLOC_XSTACK8
   1088                
   1089                // For ZG_GLOBAL_LINK_KEY the message has to be sent twice, one
   1090                // APS un-encrypted and one APS encrypted, to make sure that it can interoperate
   1091                // with legacy Coordinator devices which can only handle one or the other.
   1092          #if defined ( APP_TP2_TEST_MODE )
   1093                if ( ( zgApsLinkKeyType == ZG_GLOBAL_LINK_KEY ) && ( found == FALSE ) && ( guTxApsSecON != TRUE ) )
   1094          #else
   1095                if ( ( zgApsLinkKeyType == ZG_GLOBAL_LINK_KEY ) && ( found == FALSE ) )
   \   000103   90....       MOV       DPTR,#zgApsLinkKeyType
   \   000106   E0           MOVX      A,@DPTR
   \   000107   6401         XRL       A,#0x1
   \   000109   7018         JNZ       ??ZDSecMgrDeviceRemove_8
   \   00010B   85..82       MOV       DPL,?XSP + 0
   \   00010E   85..83       MOV       DPH,?XSP + 1
   \   000111   E0           MOVX      A,@DPTR
   \   000112   700F         JNZ       ??ZDSecMgrDeviceRemove_8
   1096          #endif
   1097                {
   1098                  remDevReq.apsSecure = FALSE;
   \   000114   740A         MOV       A,#0xa
   \   000116   12....       LCALL     ?XSTACK_DISP0_8
   \   000119   E4           CLR       A
   \   00011A   F0           MOVX      @DPTR,A
   1099          
   1100                  APSME_RemoveDeviceReq( &remDevReq );
   \   00011B                ; Setup parameters for call to function APSME_RemoveDeviceReq
   \   00011B   7406         MOV       A,#0x6
   \   00011D   12....       LCALL     ?XSTACK_DISP101_8
   \   000120   12....       LCALL     `??APSME_RemoveDeviceReq::?relay`; Banked call to: APSME_RemoveDeviceReq
   1101                }
   1102          
   1103          #if defined ( APP_TP2_TEST_MODE )
   1104                if ( guTxApsSecON != FALSE )
   1105                {
   1106                  remDevReq.apsSecure = TRUE;
   1107          
   1108                  APSME_RemoveDeviceReq( &remDevReq );
   1109                }
   1110          #else
   1111                remDevReq.apsSecure = TRUE;
   \                     ??ZDSecMgrDeviceRemove_8:
   \   000123   740A         MOV       A,#0xa
   \   000125   12....       LCALL     ?XSTACK_DISP0_8
   \   000128   7401         MOV       A,#0x1
   \   00012A   F0           MOVX      @DPTR,A
   1112          
   1113                APSME_RemoveDeviceReq( &remDevReq );
   \   00012B                ; Setup parameters for call to function APSME_RemoveDeviceReq
   \   00012B   7406         MOV       A,#0x6
   \   00012D   12....       LCALL     ?XSTACK_DISP101_8
   \   000130   12....       LCALL     `??APSME_RemoveDeviceReq::?relay`; Banked call to: APSME_RemoveDeviceReq
   1114          #endif
   1115              }
   1116              else
   1117              {
   1118                remDevReq.apsSecure = FALSE;
   1119          
   1120                APSME_RemoveDeviceReq( &remDevReq );
   1121              }
   1122            }
   1123          }
   \                     ??ZDSecMgrDeviceRemove_7:
   \   000133   7413         MOV       A,#0x13
   \   000135   02....       LJMP      ??Subroutine71_0 & 0xFFFF

   \                                 In  segment BANKED_CODE, align 1, keep-with-next
   \                     ??Subroutine64_0:
   \   000000   A3           INC       DPTR
   \   000001   A3           INC       DPTR
   \   000002                REQUIRE ??Subroutine65_0
   \   000002                ; // Fall through to label ??Subroutine65_0
   1124          
   1125          /******************************************************************************
   1126           * @fn          ZDSecMgrDeviceValidateRM (RESIDENTIAL MODE)
   1127           *
   1128           * @brief       Decide whether device is allowed.
   1129           *
   1130           * @param       device - [in] ZDSecMgrDevice_t, device info
   1131           *
   1132           * @return      ZStatus_t
   1133           */

   \                                 In  segment BANKED_CODE, align 1, keep-with-next
   1134          ZStatus_t ZDSecMgrDeviceValidateRM( ZDSecMgrDevice_t* device )
   \                     ZDSecMgrDeviceValidateRM:
   1135          {
   \   000000   C082         PUSH      DPL
   \   000002   C083         PUSH      DPH
   \   000004                ; Saved register size: 2
   \   000004                ; Auto size: 0
   1136            ZStatus_t status;
   1137          
   1138            status = ZSuccess;
   \   000004   7900         MOV       R1,#0x0
   1139          
   1140            (void)device;  // Intentionally unreferenced parameter
   1141          
   1142            // For test purpose, turning off the zgSecurePermitJoin flag will force
   1143            // the trust center to reject any newly joining devices by sending
   1144            // Remove-device to the parents.
   1145            if ( zgSecurePermitJoin == FALSE )
   \   000006   90....       MOV       DPTR,#zgSecurePermitJoin
   \   000009   E0           MOVX      A,@DPTR
   \   00000A   7002         JNZ       ??ZDSecMgrDeviceValidateRM_0
   1146            {
   1147              status = ZNwkUnknownDevice;
   \   00000C   79C8         MOV       R1,#-0x38
   1148            }
   1149          
   1150          
   1151          
   1152          #if 0  // Taken out because the following functionality is only used for test
   1153                 // purpose. A more efficient (above) way is used. It can be put
   1154                 // back in if customers request for a white/black list feature.
   1155                 // ZDSecMgrStoredDeviceList[] is defined in ZDSecMgr.c
   1156          
   1157            // The following code processes the device black list (stored device list)
   1158            // If the joining device is not part of the forbidden device list
   1159            // Return ZSuccess. Otherwise, return ZNwkUnknownDevice. The trust center
   1160            // will send Remove-device and ban the device from joining.
   1161          
   1162            uint8     index;
   1163            uint8*    restricted;
   1164          
   1165            // Look through the stored device list - used for restricted devices
   1166            for ( index = 0; index < ZDSECMGR_STORED_DEVICES; index++ )
   1167            {
   1168              restricted = ZDSecMgrStoredDeviceList[index];
   1169          
   1170              if ( AddrMgrExtAddrEqual( restricted, device->extAddr )  == TRUE )
   1171              {
   1172                // return as unknown device in regards to validation
   1173                status = ZNwkUnknownDevice;
   1174          
   1175                // break from loop
   1176                index = ZDSECMGR_STORED_DEVICES;
   1177              }
   1178            }
   1179          
   1180          #endif
   1181          
   1182            return status;
   \                     ??ZDSecMgrDeviceValidateRM_0:
   \   00000E   02....       LJMP      ??Subroutine66_0 & 0xFFFF
   1183          }
   1184          
   1185          /******************************************************************************
   1186           * @fn          ZDSecMgrDeviceValidate
   1187           *
   1188           * @brief       Decide whether device is allowed.
   1189           *
   1190           * @param       device - [in] ZDSecMgrDevice_t, device info
   1191           *
   1192           * @return      ZStatus_t
   1193           */

   \                                 In  segment BANKED_CODE, align 1, keep-with-next
   1194          ZStatus_t ZDSecMgrDeviceValidate( ZDSecMgrDevice_t* device )
   \                     ZDSecMgrDeviceValidate:
   1195          {
   \   000000   C082         PUSH      DPL
   \   000002   C083         PUSH      DPH
   \   000004                ; Saved register size: 2
   \   000004                ; Auto size: 0
   1196            ZStatus_t status;
   1197          
   1198            if ( ZDSecMgrPermitJoiningEnabled == TRUE )
   \   000004   90....       MOV       DPTR,#ZDSecMgrPermitJoiningEnabled
   \   000007   E0           MOVX      A,@DPTR
   \   000008   6401         XRL       A,#0x1
   \   00000A   7007         JNZ       ??ZDSecMgrDeviceValidate_0
   1199            {
   1200              status = ZDSecMgrDeviceValidateRM( device );
   \   00000C                ; Setup parameters for call to function ZDSecMgrDeviceValidateRM
   \   00000C   12....       LCALL     `??ZDSecMgrDeviceValidateRM::?relay`; Banked call to: ZDSecMgrDeviceValidateRM
   \   00000F   E9           MOV       A,R1
   \   000010   F9           MOV       R1,A
   \   000011   8002         SJMP      ??ZDSecMgrDeviceValidate_1
   1201            }
   1202            else
   1203            {
   1204              status = ZNwkUnknownDevice;
   \                     ??ZDSecMgrDeviceValidate_0:
   \   000013   79C8         MOV       R1,#-0x38
   1205            }
   1206          
   1207            return status;
   \                     ??ZDSecMgrDeviceValidate_1:
   \   000015   02....       LJMP      ??Subroutine66_0 & 0xFFFF
   1208          }
   1209          
   1210          /******************************************************************************
   1211           * @fn          ZDSecMgrDeviceJoin
   1212           *
   1213           * @brief       Try to join this device.
   1214           *
   1215           * @param       device - [in] ZDSecMgrDevice_t, device info
   1216           *
   1217           * @return      ZStatus_t
   1218           */

   \                                 In  segment BANKED_CODE, align 1, keep-with-next
   1219          ZStatus_t ZDSecMgrDeviceJoin( ZDSecMgrDevice_t* device )
   \                     ZDSecMgrDeviceJoin:
   1220          {
   \   000000                REQUIRE ?V0
   \   000000                REQUIRE ?V1
   \   000000                REQUIRE ?V2
   \   000000                REQUIRE ?V3
   \   000000                REQUIRE ?V4
   \   000000                REQUIRE ?V5
   \   000000                REQUIRE ?V6
   \   000000                REQUIRE ?V7
   \   000000   74F0         MOV       A,#-0x10
   \   000002   12....       LCALL     ?BANKED_ENTER_XDATA
   \   000005                ; Saved register size: 16
   \   000005                ; Auto size: 14
   \   000005   74F2         MOV       A,#-0xe
   \   000007   12....       LCALL     ?ALLOC_XSTACK8
   \   00000A   EA           MOV       A,R2
   \   00000B   FE           MOV       R6,A
   \   00000C   EB           MOV       A,R3
   \   00000D   FF           MOV       R7,A
   1221            ZStatus_t status = ZSuccess;
   \   00000E   75..00       MOV       ?V3,#0x0
   1222            uint16    ami;
   1223          
   1224            // attempt to validate device that joined/rejoined without security
   1225            if ( device->secure == FALSE )
   \   000011   EE           MOV       A,R6
   \   000012   2402         ADD       A,#0x2
   \   000014   F5..         MOV       ?V0,A
   \   000016   E4           CLR       A
   \   000017   3F           ADDC      A,R7
   \   000018   F5..         MOV       ?V1,A
   \   00001A   EE           MOV       A,R6
   \   00001B   2406         ADD       A,#0x6
   \   00001D   F5..         MOV       ?V6,A
   \   00001F   E4           CLR       A
   \   000020   3F           ADDC      A,R7
   \   000021   F5..         MOV       ?V7,A
   \   000023   85..82       MOV       DPL,?V6
   \   000026   F583         MOV       DPH,A
   \   000028   E0           MOVX      A,@DPTR
   \   000029   7008         JNZ       ??ZDSecMgrDeviceJoin_0
   1226            {
   1227              status = ZDSecMgrDeviceValidate( device );
   \   00002B                ; Setup parameters for call to function ZDSecMgrDeviceValidate
   \   00002B   12....       LCALL     `??ZDSecMgrDeviceValidate::?relay`; Banked call to: ZDSecMgrDeviceValidate
   \   00002E   E9           MOV       A,R1
   \   00002F   F5..         MOV       ?V3,A
   1228            }
   1229          
   1230            if ( status == ZSuccess )
   \   000031   7058         JNZ       ??ZDSecMgrDeviceJoin_1
   1231            {
   1232              // Add the device to the address manager
   1233              ZDSecMgrAddrStore( device->nwkAddr, device->extAddr, &ami );
   \                     ??ZDSecMgrDeviceJoin_0:
   \   000033                ; Setup parameters for call to function ZDSecMgrAddrStore
   \   000033   A8..         MOV       R0,?XSP + 0
   \   000035   A9..         MOV       R1,?XSP + 1
   \   000037   88..         MOV       ?V4,R0
   \   000039   89..         MOV       ?V5,R1
   \   00003B   78..         MOV       R0,#?V4
   \   00003D   12....       LCALL     ?PUSH_XSTACK_I_TWO
   \   000040   85..82       MOV       DPL,?V0
   \   000043   85..83       MOV       DPH,?V1
   \   000046   12....       LCALL     ?Subroutine30 & 0xFFFF
   \                     ??CrossCallReturnLabel_27:
   \   000049   8E82         MOV       DPL,R6
   \   00004B   8F83         MOV       DPH,R7
   \   00004D   12....       LCALL     ??Subroutine65_0 & 0xFFFF
   \                     ??CrossCallReturnLabel_100:
   \   000050   12....       LCALL     `??ZDSecMgrAddrStore::?relay`; Banked call to: ZDSecMgrAddrStore
   \   000053   7402         MOV       A,#0x2
   \   000055   12....       LCALL     ?DEALLOC_XSTACK8
   1234          
   1235              // Only send the key to devices that have not been authenticated
   1236              if ( ( device->devStatus & DEV_SEC_INIT_STATUS ) &&
   1237                   ( device->secure == FALSE ) )
   \   000058   8E82         MOV       DPL,R6
   \   00005A   8F83         MOV       DPH,R7
   \   00005C   A3           INC       DPTR
   \   00005D   A3           INC       DPTR
   \   00005E   A3           INC       DPTR
   \   00005F   A3           INC       DPTR
   \   000060   A3           INC       DPTR
   \   000061   A3           INC       DPTR
   \   000062   A3           INC       DPTR
   \   000063   E0           MOVX      A,@DPTR
   \   000064   A2E2         MOV       C,0xE0 /* A   */.2
   \   000066   5023         JNC       ??ZDSecMgrDeviceJoin_1
   \   000068   85..82       MOV       DPL,?V6
   \   00006B   85..83       MOV       DPH,?V7
   \   00006E   E0           MOVX      A,@DPTR
   \   00006F   701A         JNZ       ??ZDSecMgrDeviceJoin_1
   1238              {
   1239                //send the nwk key data to the joining device
   1240                status = ZDSecMgrSendNwkKey( device );
   \   000071                ; Setup parameters for call to function ZDSecMgrSendNwkKey
   \   000071   EE           MOV       A,R6
   \   000072   FA           MOV       R2,A
   \   000073   EF           MOV       A,R7
   \   000074   FB           MOV       R3,A
   \   000075   12....       LCALL     `??ZDSecMgrSendNwkKey::?relay`; Banked call to: ZDSecMgrSendNwkKey
   \   000078   E9           MOV       A,R1
   \   000079   F5..         MOV       ?V3,A
   1241              }
   1242          
   1243              if ( status != ZSuccess )
   \   00007B   601B         JZ        ??ZDSecMgrDeviceJoin_2
   1244              {
   1245                ZDSecMgrAddrClear( device->extAddr );
   \   00007D                ; Setup parameters for call to function ZDSecMgrAddrClear
   \   00007D   85..82       MOV       DPL,?V0
   \   000080   85..83       MOV       DPH,?V1
   \   000083   12....       LCALL     ??Subroutine65_0 & 0xFFFF
   1246              }
   1247            }
   \                     ??CrossCallReturnLabel_101:
   \   000086   12....       LCALL     `??ZDSecMgrAddrClear::?relay`; Banked call to: ZDSecMgrAddrClear
   \   000089   8004         SJMP      ??ZDSecMgrDeviceJoin_3
   1248          
   1249            if ( status != ZSuccess )
   \                     ??ZDSecMgrDeviceJoin_1:
   \   00008B   E5..         MOV       A,?V3
   \   00008D   6009         JZ        ??ZDSecMgrDeviceJoin_2
   1250            {
   1251              // not allowed or transport key failed, remove the device
   1252              ZDSecMgrDeviceRemove( device );
   \                     ??ZDSecMgrDeviceJoin_3:
   \   00008F                ; Setup parameters for call to function ZDSecMgrDeviceRemove
   \   00008F   EE           MOV       A,R6
   \   000090   FA           MOV       R2,A
   \   000091   EF           MOV       A,R7
   \   000092   FB           MOV       R3,A
   \   000093   12....       LCALL     `??ZDSecMgrDeviceRemove::?relay`; Banked call to: ZDSecMgrDeviceRemove
   \   000096   8055         SJMP      ??ZDSecMgrDeviceJoin_4
   1253            }
   1254            else
   1255            {
   1256              // Pass the Trust Center Device Indication to higher layer if callback registered
   1257              if (zdoCBFunc[ZDO_TC_DEVICE_CBID] != NULL )
   \                     ??ZDSecMgrDeviceJoin_2:
   \   000098   90....       MOV       DPTR,#zdoCBFunc + 16
   \   00009B   12....       LCALL     ??Subroutine70_0 & 0xFFFF
   \                     ??CrossCallReturnLabel_134:
   \   00009E   604D         JZ        ??ZDSecMgrDeviceJoin_4
   1258              {
   1259                ZDO_TC_Device_t dev;
   1260          
   1261                dev.nwkAddr = device->nwkAddr;
   \   0000A0   12....       LCALL     ?Subroutine29 & 0xFFFF
   \                     ??CrossCallReturnLabel_127:
   \   0000A3   7402         MOV       A,#0x2
   \   0000A5   12....       LCALL     ?XSTACK_DISP0_8
   \   0000A8   12....       LCALL     ?Subroutine14 & 0xFFFF
   1262                osal_memcpy( dev.extAddr, device->extAddr, Z_EXTADDR_LEN );
   \                     ??CrossCallReturnLabel_5:
   \   0000AB   F5..         MOV       ?V0,A
   \   0000AD   A3           INC       DPTR
   \   0000AE   E0           MOVX      A,@DPTR
   \   0000AF   F5..         MOV       ?V1,A
   \   0000B1   75..00       MOV       ?V2,#0x0
   \   0000B4   78..         MOV       R0,#?V0
   \   0000B6   12....       LCALL     ?PUSH_XSTACK_I_THREE
   \   0000B9   7C08         MOV       R4,#0x8
   \   0000BB   7D00         MOV       R5,#0x0
   \   0000BD   7407         MOV       A,#0x7
   \   0000BF   12....       LCALL     ?XSTACK_DISP0_8
   \   0000C2   AA82         MOV       R2,DPL
   \   0000C4   AB83         MOV       R3,DPH
   \   0000C6   12....       LCALL     `??osal_memcpy::?relay`; Banked call to: osal_memcpy
   \   0000C9   7403         MOV       A,#0x3
   \   0000CB   12....       LCALL     ?DEALLOC_XSTACK8
   1263                dev.parentAddr = device->parentAddr;
   \   0000CE   8E82         MOV       DPL,R6
   \   0000D0   8F83         MOV       DPH,R7
   \   0000D2   A3           INC       DPTR
   \   0000D3   A3           INC       DPTR
   \   0000D4   A3           INC       DPTR
   \   0000D5   A3           INC       DPTR
   \   0000D6   12....       LCALL     ??Subroutine67_0 & 0xFFFF
   1264          
   1265                zdoCBFunc[ZDO_TC_DEVICE_CBID]( (void*)&dev );
   1266              }
   1267            }
   \                     ??CrossCallReturnLabel_119:
   \   0000D9   740C         MOV       A,#0xc
   \   0000DB   12....       LCALL     ?XSTACK_DISP0_8
   \   0000DE   12....       LCALL     ?Subroutine21 & 0xFFFF
   \                     ??CrossCallReturnLabel_17:
   \   0000E1   12....       LCALL     ?XSTACK_DISP101_8
   \   0000E4   90....       MOV       DPTR,#zdoCBFunc + 16
   \   0000E7   12....       LCALL     ??Subroutine76_0 & 0xFFFF
   \                     ??CrossCallReturnLabel_176:
   \   0000EA   12....       LCALL     ?CALL_IND
   1268                
   1269                
   1270          
   1271            return status;
   \                     ??ZDSecMgrDeviceJoin_4:
   \   0000ED   A9..         MOV       R1,?V3
   \   0000EF   740E         MOV       A,#0xe
   \   0000F1   80..         SJMP      ??Subroutine62_0
   1272          }
   1273          
   1274          /******************************************************************************
   1275           * @fn          ZDSecMgrDeviceJoinDirect
   1276           *
   1277           * @brief       Try to join this device as a direct child.
   1278           *
   1279           * @param       device - [in] ZDSecMgrDevice_t, device info
   1280           *
   1281           * @return      ZStatus_t
   1282           */

   \                                 In  segment BANKED_CODE, align 1, keep-with-next
   \                     ?Subroutine1:
   \   000000   7414         MOV       A,#0x14
   \   000002                REQUIRE ??Subroutine62_0
   \   000002                ; // Fall through to label ??Subroutine62_0

   \                                 In  segment BANKED_CODE, align 1, keep-with-next
   1283          ZStatus_t ZDSecMgrDeviceJoinDirect( ZDSecMgrDevice_t* device )
   \                     ZDSecMgrDeviceJoinDirect:
   1284          {
   \   000000                REQUIRE ?V0
   \   000000                REQUIRE ?V1
   \   000000                REQUIRE ?V2
   \   000000                REQUIRE ?V3
   \   000000                REQUIRE ?V4
   \   000000                REQUIRE ?V5
   \   000000                REQUIRE ?V6
   \   000000                REQUIRE ?V7
   \   000000   74F0         MOV       A,#-0x10
   \   000002   12....       LCALL     ?BANKED_ENTER_XDATA
   \   000005                ; Saved register size: 16
   \   000005                ; Auto size: 20
   \   000005   74EC         MOV       A,#-0x14
   \   000007   12....       LCALL     ?ALLOC_XSTACK8
   \   00000A   EA           MOV       A,R2
   \   00000B   FE           MOV       R6,A
   \   00000C   EB           MOV       A,R3
   \   00000D   FF           MOV       R7,A
   1285            ZStatus_t status;
   1286            
   1287            if(device->secure == FALSE)
   \   00000E   EE           MOV       A,R6
   \   00000F   2402         ADD       A,#0x2
   \   000011   F5..         MOV       ?V4,A
   \   000013   E4           CLR       A
   \   000014   3F           ADDC      A,R7
   \   000015   F5..         MOV       ?V5,A
   \   000017   EE           MOV       A,R6
   \   000018   2406         ADD       A,#0x6
   \   00001A   12....       LCALL     ?Subroutine42 & 0xFFFF
   \                     ??CrossCallReturnLabel_49:
   \   00001D   E0           MOVX      A,@DPTR
   \   00001E   6003         JZ        $+5
   \   000020   02....       LJMP      ??ZDSecMgrDeviceJoinDirect_0 & 0xFFFF
   1288            {  
   1289              uint8  found;
   1290              uint16 keyNvIndex;
   1291              APSME_TCLKDevEntry_t TCLKDevEntry;
   1292              
   1293              keyNvIndex = APSME_SearchTCLinkKeyEntry(device->extAddr,&found, &TCLKDevEntry);
   \   000023                ; Setup parameters for call to function APSME_SearchTCLinkKeyEntry
   \   000023   7401         MOV       A,#0x1
   \   000025   12....       LCALL     ?XSTACK_DISP100_8
   \   000028   88..         MOV       ?V2,R0
   \   00002A   89..         MOV       ?V3,R1
   \   00002C   78..         MOV       R0,#?V2
   \   00002E   12....       LCALL     ?PUSH_XSTACK_I_TWO
   \   000031   7402         MOV       A,#0x2
   \   000033   12....       LCALL     ?XSTACK_DISP102_8
   \   000036   85..82       MOV       DPL,?V4
   \   000039   85..83       MOV       DPH,?V5
   \   00003C   12....       LCALL     ??Subroutine65_0 & 0xFFFF
   \                     ??CrossCallReturnLabel_102:
   \   00003F   12....       LCALL     `??APSME_SearchTCLinkKeyEntry::?relay`; Banked call to: APSME_SearchTCLinkKeyEntry
   \   000042   7402         MOV       A,#0x2
   \   000044   12....       LCALL     ?DEALLOC_XSTACK8
   1294              
   1295              //If found and it was verified, then allow it to join in a fresh state by erasing the key entry
   1296              if((found == TRUE) && (TCLKDevEntry.keyAttributes == ZG_VERIFIED_KEY))
   \   000047   85..82       MOV       DPL,?XSP + 0
   \   00004A   85..83       MOV       DPH,?XSP + 1
   \   00004D   E0           MOVX      A,@DPTR
   \   00004E   6401         XRL       A,#0x1
   \   000050   7068         JNZ       ??ZDSecMgrDeviceJoinDirect_0
   \   000052   7411         MOV       A,#0x11
   \   000054   12....       LCALL     ?XSTACK_DISP0_8
   \   000057   E0           MOVX      A,@DPTR
   \   000058   6402         XRL       A,#0x2
   \   00005A   705E         JNZ       ??ZDSecMgrDeviceJoinDirect_0
   1297              {
   1298                uint16 index;
   1299                TCLKDevEntry.keyAttributes = ZG_DEFAULT_KEY;
   \   00005C   74FF         MOV       A,#-0x1
   \   00005E   F0           MOVX      @DPTR,A
   1300                //Increase the shift by one. Validate the maximum shift of the seed which is 15
   1301                TCLKDevEntry.SeedShift_IcIndex++;
   1302                TCLKDevEntry.SeedShift_IcIndex &= 0x0F;
   \   00005F   7413         MOV       A,#0x13
   \   000061   12....       LCALL     ?XSTACK_DISP0_8
   \   000064   E0           MOVX      A,@DPTR
   \   000065   04           INC       A
   \   000066   540F         ANL       A,#0xf
   \   000068   F0           MOVX      @DPTR,A
   1303                
   1304                TCLKDevEntry.rxFrmCntr = 0;
   \   000069   7405         MOV       A,#0x5
   \   00006B   12....       LCALL     ?XSTACK_DISP0_8
   \   00006E   12....       LCALL     ??Subroutine83_0 & 0xFFFF
   1305                TCLKDevEntry.txFrmCntr = 0;
   \                     ??CrossCallReturnLabel_208:
   \   000071   04           INC       A
   \   000072   12....       LCALL     ?XSTACK_DISP0_8
   \   000075   12....       LCALL     ??Subroutine83_0 & 0xFFFF
   1306                
   1307                index = keyNvIndex - ZCD_NV_TCLK_TABLE_START;
   \                     ??CrossCallReturnLabel_209:
   \   000078   12....       LCALL     ?Subroutine43 & 0xFFFF
   1308                
   1309                TCLinkKeyFrmCntr[index].rxFrmCntr = 0;
   \                     ??CrossCallReturnLabel_50:
   \   00007B   ACF0         MOV       R4,B
   \   00007D   75F009       MOV       B,#0x9
   \   000080   E9           MOV       A,R1
   \   000081   A4           MUL       AB
   \   000082   2C           ADD       A,R4
   \   000083   F9           MOV       R1,A
   \   000084   74..         MOV       A,#TCLinkKeyFrmCntr & 0xff
   \   000086   28           ADD       A,R0
   \   000087   F8           MOV       R0,A
   \   000088   74..         MOV       A,#(TCLinkKeyFrmCntr >> 8) & 0xff
   \   00008A   39           ADDC      A,R1
   \   00008B   F9           MOV       R1,A
   \   00008C   8882         MOV       DPL,R0
   \   00008E   8983         MOV       DPH,R1
   \   000090   A3           INC       DPTR
   \   000091   A3           INC       DPTR
   \   000092   A3           INC       DPTR
   \   000093   A3           INC       DPTR
   \   000094   12....       LCALL     ??Subroutine83_0 & 0xFFFF
   1310                TCLinkKeyFrmCntr[index].txFrmCntr = 0;
   \                     ??CrossCallReturnLabel_210:
   \   000097   8882         MOV       DPL,R0
   \   000099   8983         MOV       DPH,R1
   \   00009B   12....       LCALL     ??Subroutine84_0 & 0xFFFF
   1311                
   1312                //Update the entry
   1313                osal_nv_write(keyNvIndex,0,sizeof(APSME_TCLKDevEntry_t), &TCLKDevEntry );
   \                     ??CrossCallReturnLabel_207:
   \   00009E                ; Setup parameters for call to function osal_nv_write
   \   00009E   78..         MOV       R0,#?V2
   \   0000A0   12....       LCALL     ?PUSH_XSTACK_I_TWO
   \   0000A3   75..13       MOV       ?V2,#0x13
   \   0000A6   75..00       MOV       ?V3,#0x0
   \   0000A9   78..         MOV       R0,#?V2
   \   0000AB   12....       LCALL     ?PUSH_XSTACK_I_TWO
   \   0000AE   7C00         MOV       R4,#0x0
   \   0000B0   7D00         MOV       R5,#0x0
   \   0000B2   12....       LCALL     `??osal_nv_write::?relay`; Banked call to: osal_nv_write
   \   0000B5   7404         MOV       A,#0x4
   \   0000B7   12....       LCALL     ?DEALLOC_XSTACK8
   1314              }
   1315              
   1316            }
   1317          
   1318            status = ZDSecMgrDeviceJoin( device );
   \                     ??ZDSecMgrDeviceJoinDirect_0:
   \   0000BA                ; Setup parameters for call to function ZDSecMgrDeviceJoin
   \   0000BA   EE           MOV       A,R6
   \   0000BB   FA           MOV       R2,A
   \   0000BC   EF           MOV       A,R7
   \   0000BD   FB           MOV       R3,A
   \   0000BE   12....       LCALL     `??ZDSecMgrDeviceJoin::?relay`; Banked call to: ZDSecMgrDeviceJoin
   \   0000C1   E9           MOV       A,R1
   \   0000C2   F5..         MOV       ?V2,A
   1319          
   1320            if ( status == ZSuccess )
   \   0000C4   7025         JNZ       ??ZDSecMgrDeviceJoinDirect_1
   1321            {
   1322              // set association status to authenticated
   1323              ZDSecMgrAssocDeviceAuth( AssocGetWithShort( device->nwkAddr ) );
   \   0000C6                ; Setup parameters for call to function AssocGetWithShort
   \   0000C6   8E82         MOV       DPL,R6
   \   0000C8   8F83         MOV       DPH,R7
   \   0000CA   12....       LCALL     ??Subroutine65_0 & 0xFFFF
   \                     ??CrossCallReturnLabel_103:
   \   0000CD   12....       LCALL     `??AssocGetWithShort::?relay`; Banked call to: AssocGetWithShort
   \   0000D0                ; Setup parameters for call to function ZDSecMgrAssocDeviceAuth
   \   0000D0   12....       LCALL     `??ZDSecMgrAssocDeviceAuth::?relay`; Banked call to: ZDSecMgrAssocDeviceAuth
   1324              
   1325            #if (ZG_BUILD_COORDINATOR_TYPE)    
   1326              //Add the device as joining device, if it did join unsecured
   1327              if(device->secure == FALSE)
   \   0000D3   85..82       MOV       DPL,?V0
   \   0000D6   85..83       MOV       DPH,?V1
   \   0000D9   E0           MOVX      A,@DPTR
   \   0000DA   700F         JNZ       ??ZDSecMgrDeviceJoinDirect_1
   1328              {
   1329                bdb_TCAddJoiningDevice(NLME_GetShortAddr(),device->extAddr);
   \   0000DC                ; Setup parameters for call to function NLME_GetShortAddr
   \   0000DC   12....       LCALL     `??NLME_GetShortAddr::?relay`; Banked call to: NLME_GetShortAddr
   \   0000DF                ; Setup parameters for call to function bdb_TCAddJoiningDevice
   \   0000DF   85..82       MOV       DPL,?V4
   \   0000E2   85..83       MOV       DPH,?V5
   \   0000E5   12....       LCALL     ?Subroutine30 & 0xFFFF
   1330              }
   1331            #endif
   1332            }
   \                     ??CrossCallReturnLabel_28:
   \   0000E8   12....       LCALL     `??bdb_TCAddJoiningDevice::?relay`; Banked call to: bdb_TCAddJoiningDevice
   1333          
   1334            return status;
   \                     ??ZDSecMgrDeviceJoinDirect_1:
   \   0000EB   A9..         MOV       R1,?V2
   \   0000ED   02....       LJMP      ?Subroutine1 & 0xFFFF
   1335          }

   \                                 In  segment BANKED_CODE, align 1, keep-with-next
   \                     ?Subroutine48:
   \   000000   F0           MOVX      @DPTR,A
   \   000001   A3           INC       DPTR
   \   000002   F0           MOVX      @DPTR,A
   \   000003   A3           INC       DPTR
   \   000004   F0           MOVX      @DPTR,A
   \   000005   A3           INC       DPTR
   \   000006   22           RET

   \                                 In  segment BANKED_CODE, align 1, keep-with-next
   \                     ??Subroutine83_0:
   \   000000   E4           CLR       A
   \   000001                REQUIRE ??Subroutine84_0
   \   000001                ; // Fall through to label ??Subroutine84_0

   \                                 In  segment BANKED_CODE, align 1, keep-with-next
   \                     ??Subroutine84_0:
   \   000000   12....       LCALL     ?Subroutine48 & 0xFFFF
   \                     ??CrossCallReturnLabel_222:
   \   000003   F0           MOVX      @DPTR,A
   \   000004   22           RET

   \                                 In  segment BANKED_CODE, align 1, keep-with-next
   \                     ?Subroutine43:
   \   000000   EA           MOV       A,R2
   \   000001   24EF         ADD       A,#-0x11
   \   000003   F8           MOV       R0,A
   \   000004   EB           MOV       A,R3
   \   000005   34FE         ADDC      A,#-0x2
   \   000007   F9           MOV       R1,A
   \   000008   E8           MOV       A,R0
   \   000009   75F009       MOV       B,#0x9
   \   00000C   A4           MUL       AB
   \   00000D   F8           MOV       R0,A
   \   00000E   22           RET
   1336          
   1337          /******************************************************************************
   1338           * @fn          ZDSecMgrDeviceJoinFwd
   1339           *
   1340           * @brief       Forward join to Trust Center.
   1341           *
   1342           * @param       device - [in] ZDSecMgrDevice_t, device info
   1343           *
   1344           * @return      ZStatus_t
   1345           */

   \                                 In  segment BANKED_CODE, align 1, keep-with-next
   1346          ZStatus_t ZDSecMgrDeviceJoinFwd( ZDSecMgrDevice_t* device )
   \                     ZDSecMgrDeviceJoinFwd:
   1347          {
   \   000000                REQUIRE ?V0
   \   000000                REQUIRE ?V1
   \   000000   74F6         MOV       A,#-0xa
   \   000002   12....       LCALL     ?BANKED_ENTER_XDATA
   \   000005                ; Saved register size: 10
   \   000005                ; Auto size: 17
   \   000005   74EF         MOV       A,#-0x11
   \   000007   12....       LCALL     ?ALLOC_XSTACK8
