:020000040000FA
:06000000020B6F02024337
:03002B000209398E
:030033000206B70B
:030043000207C7EA
:030053000201782F
:03006B00020691F9
:100083000201D70100F0FF0700080000FFFF000096
:10009300070400000003000147726F757000FF043E
:1000A30000100502640A2FAC092FAC09C0C1C2C3FA
:1000B300C4C5C6C7C8C9CACBCCCDCECF5A6967425F
:1000C3006565416C6C69616E636530390100FFFFE2
:1000D300F2E0A1610000000000019988AF0CB50CAB
:1000E300C10CBB0C0020FD000206FFFF030800C289
:1000F30017F11B0008040103010103DD8703E387F4
:1001030001040000F117000000E8030000FFFF6B8B
:10011300180188130000E803000064006400B801BC
:10012300A0BB0D00A0BB0D000202020704010105E4
:100133001E02051E020A0A01010809080103B80B81
:1001430002803E0102FEFFE8030A050001FFFF01F2
:100153000A011401E0020000000105030101FF0F81
:1001630010FEFF982B000000006C2A00000000FF27
:10017300000000FF00C0E074F112045AA2AFE433A0
:10018300F509D2AF85A708AFA1EF5508FE74105E3D
:100193006006120EDD75A1EF74085E6008120EE3AF
:1001A30075A1F78024EFA2E092F0E508A2E082F0C7
:1001B3005017906198E0F8900490E0C398A2D2653C
:1001C300D0335002E8F075A1FEE509A2E092AF7FBB
:1001D300020204B9C0E074F212045AA2AFE433FE7F
:1001E300D2AF9061A4E0F8759B00E5915854086084
:1001F300087591F7120F318023E591585410600868
:100203007591EF120F378014E591A2E092F0E8A206
:10021300E082F05007E0C2E0F01210819061A3E0A9
:10022300F8E5E9585404600E12105775E9FB906124
:1002330093E0A2E640F2EEA2E092AF7F010204B99E
:10024300C0E074F212045AA2AFE433FED2AF90615D
:10025300A5E0F8E5BF585404600675BFFB1210997A
:1002630080D4C3E498F8E499F91202A68026C3E483
:100273009AFAE49BFBE920E7E91202A6E498F8E482
:1002830099F922C3E498F8E499F91202A6E498F8DC
:10029300E499F9C3E49AFAE49BFB22EB20E7CFE964
:1002A30020E7E0B90010BB0008E88AF084F8AAF060
:1002B30022E4FBC8FA22EB70227B10C833C8C9338F
:1002C300C9335007C39AC3DBF280069A50012ADB75
:1002D300EAC833F4C8C933F4C9FA2275F008E4C88C
:1002E30033C8C933C933C99AC99B5004C92AC93B06
:1002F300D5F0ECFBC833F4C8E4C9FA22080808EACD
:10030300C0E0EBC0E086F0E7A4FA180986F0E7A4A2
:100313002AFA180986F0E7A42AFA180986F0E7A44E
:100323002AFA1986F0E7A4FBE5F02AFA190886F001
:10033300E7A42BFBE5F03AFA190886F0E7A42BFBB8
:10034300E5F03AFA18180986F0E7A4C5F02BFBE4A8
:100353003AFA1908E7C5F0C6A426F6E5F03BFBE434
:100363003AFA1886F0E7A4F6E5F00826F6E43B0827
:10037300F6E43A08F6D0E0FBD0E0FA22E4CFC0E09E
:10038300E4CEC0E0E4CDC0E0E4CCC0E075F020E60C
:1003930026F608E633F608E633F608E633F61818C9
:1003A30018EC33FCED33FDEE33FEEF33FFC3EC9774
:1003B30009ED9709EE9709EF97191919400FFFEC0B
:1003C30097FC09ED97FD09EE97FE191906D5F0BFC5
:1003D300ECF709EDF709EEF709EFF7191919D0E072
:1003E300FCD0E0FDD0E0FED0E0FF222518C582C09E
:1003F300E0E51934FFC583C0E0E518C3958224F80E
:1004030010AF088583198582188008858319858232
:1004130018D2AFCEF0A3E520F0A37808E608F0A346
:10042300DEFAEFF0A3E58124FAF8E608F0A3E60884
:10043300F0A3E608F0A30808E608F0A3E608F0A393
:1004430015811581D0E0FED0E0F815811581158165
:10045300E8C0E0EEC0E022C0D02518C582C0E0E5C8
:100463001934FFC583C0E0E518C3958224F310AFA8
:10047300088583198582188008858319858218D297
:10048300AFC8F0A3E9F0A3EAF0A3EBF0A37908E780
:1004930009F0A3D8FAECF0A3EDF0A3EEF0A3EFF08C
:1004A300A3D0E0F0A3D0E0F0A3D0E0F0A3E520F0E8
:1004B300A3E5F0F0A322851983851882E0C0E0A3A9
:1004C300E0F9A3E0FAA3E0FBA37808E0F608A3DFD2
:1004D300FAE0FCA3E0FDA3E0FEA3E0FFA3E0C0E09D
:1004E300A3E0C0E0A3E0F5D0A3E0F520A3E0A3F5EB
:1004F300F010AF08858319858218800885831985D4
:100503008218D2AFD082D083D0E0F8D0E032120C80
:1005130007B90003020550E490030178807919803C
:1005230002F0A3D8FCD9FA7A807B1B90008678F37B
:1005330079018015E493A3AD82AE838A828B83F025
:10054300A3AA82AB838D828E83D8E9D9E77582B45F
:100553007583CC74061208CA758269758328740082
:100563001208CAE47375F0108E1A8F1B85821F85DB
:10057300831E851882851983E0CEA3E0CF851F8271
:10058300851E83EBC9EAC8EDCBECCAC3E833C8E9DF
:1005930033C9EA33CAEB33CBC3EA9EF51DEB9FF5B0
:1005A3001CB35004AB1CAA1DEC33CCED33CDD5F0FA
:1005B300DAAE1AAF1B22D083D082ECC0E0EDC0E0EC
:1005C300E493A3FCE493A3FDED4C600D1206D5EC7C
:1005D30024FFFCED34FFFD80EFE493A3FCE493A33D
:1005E300FDED4C600D120772EC24FFFCED34FFFDB2
:1005F30080EFD0E0FDD0E0FCE493A3C0E0E493C03F
:10060300E022851983851882E0A3FEE0A3F5207814
:1006130008E0A3F608DFFAE0A3FFE0A3C0E0E0A34D
:10062300C0E0E0A3C0E0E0A3C0E0E0A3C0E010AFFF
:10063300088582188583198008858218858319D2D5
:10064300AFD083D0820208D0D083D082E9C0E0E467
:1006530093A3C386F0C5F095F0F908E493A386F05D
:10066300C5F095F0700BE493A3C3994005E90480AA
:1006730002A3E475F002A42582F582E5F03583F543
:1006830083D0E0F9E493A3C0E0E493C0E022C0E0A8
:1006930074F212045AA2AFE433FED2AFE589A2E1A9
:1006A3005003120DB1758900C2C5EEA2E092AF7F6F
:1006B300010204B9C0E074F212045AA2AFE433FE9B
:1006C300D2AFE58BA2E05003120DB1758B00C2E8E7
:1006D30080D8C0E0C3E49396087401939618400F42
:1006E300E49366700808740193661870007019A388
:1006F300A3C3E49396087401939618A3A3400DD063
:10070300E0D0E0D0E00205F5A3A3A3A3A3A3D0E028
:10071300227404800474028000CCC0E0EDC0E0E5E4
:1007230018C39CCCAD1950011D10AF068C188D1940
:1007330080068C188D19D2AF12082ED0E0FDD0E0C0
:10074300FC2274028000CCC0E0EDC0E0E518C39C3D
:10075300CCAD1950011D10AF068C188D1980068C75
:10076300188D19D2AF12080CD0E0FDD0E0FC22C0E6
:10077300E0C0F088F0E4936670080874019366188B
:100783007000A8F0A3A3700BD0F0D0E0D0E0D0E0CD
:100793000205F5A3A3D0F0D0E022D083D082CCC051
:1007A300E0E493A3600612088D1470FAE493A36047
:1007B300061209CC1470FAD0E0FCE493A3C0E0E481
:1007C30093C0E022C0E074F212045AA2AFE433FEF5
:1007D300D2AFC2C0E5D1A2E45003120E53EEA2E0A1
:1007E30092AF7F010204B9A2E792D65002F404301B
:1007F300F70663F0FF05F0B3400384800384F40439
:1008030030D60563F0FF05F022CAC0E0E493A3C528
:1008130082CCC582C583CDC583F0A3C582CCC582F6
:10082300C583CDC583DAE5D0E0CA22CAC0E0E0A320
:10083300C582CCC582C583CDC583F0A3C582CCC593
:1008430082C583CDC583DAE6D0E0CA22C008C3E0FF
:1008530096F50808A3E096420808A3E09642080824
:10086300A3E09645087001D3D00822700908080850
:10087300226016181818C6C333C608C633C608C67E
:1008830033C608C633C6D5E0EA22C0E0E493A3D357
:100893009C5010E493A3C39C400AD0E0D0E0D0E086
:1008A3000207BAA3A3A3D0E022C5822518C582C537
:1008B30083351910AF07F5198582188007F5198557
:1008C3008218D2AFC58322C09FF59FE473D09F22C5
:1008D300D083D082C09FE493C0E0740193C0E074DE
:1008E3000293F59F227404800A74038006740280C5
:1008F300027401C0E0F404120903D0E0120BCA220F
:100903002518F58210AF08F518400C15198008F565
:100913001840021519D2AF8519832200C0D02518BB
:1009230010AF08F518500C05198008F5185002058A
:1009330019D2AFD0D022C0E0C0D0E8C0E0A8A8D27E
:10094300AFC2C7E8A2E792AFD0E0F8D0D0D0E03290
:10095300BB0102E722C082C08389828A83BB000372
:10096300E08002E493D083D082226016080808C690
:10097300C313C618C613C618C613C618C613C6D5DE
:10098300E0EA222518F8E43519F9222518FAE435A6
:1009930019FB222518FCE43519FD22C3E0C696F69F
:1009A30008A3E0C696F608A3E0C696F608A3E0C639
:1009B30096F622251810AF08F518400C1519800873
:1009C300F51840021519D2AF22C0E0E493A36C706E
:1009D30009D0E0D0E0D0E00207BAA3A3D0E022E739
:1009E3006670100809E766700A0809E7667004086C
:1009F30009E76622E066701008A3E066700A08A3A0
:100A0300E066700408A3E06622C3E09608A3E096BC
:100A130008A3E09608A3E096A2D265D03322C3E6EA
:100A230097F60809E697F60809E697F60809E697A0
:100A3300F622C3E49396087401939608740293967E
:100A4300087403939622C3E096F008A3E096F00897
:100A5300A3E096F008A3E096F022E657F60809E62D
:100A630057F60809E657F60809E657F622E056F660
:100A730008A3E056F608A3E056F608A3E056F622CC
:100A8300E026F008A3E036F008A3E036F008A3E080
:100A930036F022E026F608A3E036F608A3E036F6A1
:100AA30008A3E036F622E627F60809E637F6080932
:100AB300E637F60809E637F622E056F008A3E056D3
:100AC300F008A3E056F008A3E056F022E647F60844
:100AD30009E647F60809E647F60809E647F62270ED
:100AE3000422600D18C6C333C608C633C6D5E0F466
:100AF3001822E493F608740193F608740293F60837
:100B0300740393F622E046F608A3E046F608A3E052
:100B130046F608A3E046F622E046F008A3E046F0D6
:100B230008A3E046F008A3E046F022E4C396F608E3
:100B3300E496F608E496F608E496F622C3E79608E8
:100B430009E7960809E7960809E79622C6F4C60856
:100B5300C6F4C608C6F4C608C6F4C622C3E096089F
:100B6300A3E09608A3E09608A3E0962275D000754B
:100B7300813F75180175190300020511600D08C640
:100B8300A2E713C618C613C6D5E0F322E6F008A3FE
:100B9300E6F008A3E6F008A3E6F022E0F608A3E0F7
:100BA300F608A3E0F608A3E0F622600C08C6C31318
:100BB300C618C613C6D5E0F422C2E9EAF5C1A2E914
:100BC30050FC7A007B0022CAC0E0E6F0A308DAFA00
:100BD300D0E0FA22E0FAA3E0FBA3E0FCA3E0FD22CD
:100BE300E8F0A3E9F0A3EAF0A3EBF022E0F8A3E036
:100BF300F9A3E0FAA3E0FB22EAF0A3EBF0A3ECF005
:100C0300A3EDF022E5C754F84401F5C77901222585
:100C130018F582E43519F58322C2AF75D69F020019
:100C230000221208D306D3051208D38BD30512086A
:100C3300D3D7D3051208D367D4051208D340D505FB
:100C43001208D391D5051208D3F6D5051208D36936
:100C5300D6051208D3ADD6051208D305D705120859
:100C6300D327D7051208D3B7D7051208D348D80519
:100C73001208D394D8051208D3C0D8051208D3019B
:100C8300D9051208D3A2DA051208D384DB051208AA
:100C9300D360DC051208D3F3E2021208D326E30281
:100CA3001208D36EE3021208D33CE5021208D3A85C
:100CB300E7021208D3DBE7021208D3D3EA021208D1
:100CC300D389ED021208D331EE021208D362F10286
:100CD3001208D333F2021208D397F3021208D3197E
:100CE300F4021208D312F5021208D357F7021208BE
:100CF300D3DEF7021208D3DFF9021208D315FC0280
:100D03001208D33AFD021208D33DFD021208D35054
:100D1300FD021208D39DFD021208D3F8EB0412085A
:100D2300D3E1F0041208D345F1041208D36AF204A4
:100D33001208D351F6041208D362FA041208D382BC
:100D4300FC041208D3C8FC041208D3B1FE04120831
:100D5300D3357F001208D3467F001208D3E47F0007
:100D63001208D3FDFF021208D3E4FF051208D34E85
:100D7300DE061208D35EDE061208D379DE061208F9
:100D8300D3E1DE061208D3A9DB061208D32DDC0655
:100D93001208D395DC061208D305FE021208D324E9
:100DA300FE021208D391FE021208D3D6FE021208E5
:100DB300D32FFF021208D3E4A3061208D3F9A30624
:100DC3001208D30FA5061208D347A5061208D3614C
:100DD300A5061208D3D6A5061208D3C2A606120882
:100DE300D336A7061208D350A7061208D367A7065F
:100DF3001208D37AA7061208D392A7061208D3A71C
:100E0300A7061208D3C8A7061208D319A806120802
:100E1300D34EBC061208D35CBC061208D3D5BC065D
:100E23001208D3AABD061208D37CBF061208D32921
:100E3300E0061208D386AC061208D3F3AC061208F8
:100E4300D3ABAD061208D321AE061208D3AAAF0660
:100E53001208D313B0061208D363B0061208D36C7A
:100E6300B0061208D37BB0061208D391B00612085D
:100E7300D39AB0061208D38DF9011208D3B9F90138
:100E83001208D350FC011208D390FC011208D3CCF2
:100E9300FC011208D3E0FC011208D3F9FC0112088B
:100EA300D3EAFD011208D39CFE011208D3B0FE0160
:100EB3001208D3A2D6061208D3C6D6061208D3DF69
:100EC300D6061208D31DD7061208D34DD70612082B
:100ED300D37AD7061208D3E0D7061208D3E3D7068E
:100EE3001208D3EDD7061208D3FAD7061208D34552
:100EF300FD031208D365FD031208D3A4FD031208F2
:100F0300D3C2FD031208D3DDFD031208D343FE034E
:100F13001208D34FFE031208D3ACFE031208D3BB4F
:100F2300FE031208D3DFFE031208D3A0FF03120847
:100F3300D3ADFF031208D3BEFF031208D3B4FF04DB
:100F43001208D3CCFF041208D3F8FF041208D38C81
:100F53009F061208D3E6A0061208D3F4A0061208CF
:100F6300D307A1061208D31CA1061208D331A10688
:100F73001208D344A1061208D3C0A1061208D32530
:100F8300A2061208D3BBA2061208D394A306120822
:100F9300D3A4A3061208D3B3A3061208D3B5DD0660
:100FA3001208D3D9DD061208D301DE061208D329AD
:100FB300DE061208D38FFD051208D3B6FD0512080D
:100FC300D3D4FD051208D343FE051208D3EBC9069B
:100FD3001208D304CA061208D310CA061208D3246F
:100FE300CA061208D342CA061208D34CCA0612080C
:100FF300D356CA061208D369CA061208D3EFCA0623
:101003001208D364CB061208D393CB061208D3E19C
:10101300CB061208D330CC061208D34BCC061208E9
:10102300D355CC061208D366CC061208D3A9CC0636
:101033001208D34ADF061208D3C589061208D3F172
:1010430089061208D30E8A061208D3218A061208CB
:10105300D33C8A061208D3968A061208D3C48A069A
:101063001208D3D48E061208D33290061208D36422
:1010730090061208D3C790061208D33392061208BB
:10108300D35B92061208D37092061208D38092069D
:101093001208D3C092061208D30293061208D31281
:1010A30093061208D3C4FE011208D3DEFE01120810
:1010B300D306FF011208D31FFF011208D343FF0118
:1010C3001208D361FF011208D378FF011208D3A6D7
:1010D300FF011208D3C1FF011208D3E5DF0612088E
:1010E300D3E1BF061208D3F1BF061208D3F6C00638
:1010F3001208D328C1061208D358C1061208D37B9D
:10110300C1061208D392C1061208D3CCC106120835
:10111300D331C2061208D373C2061208D3BAC20669
:101123001208D3E7C2061208D312C3061208D3F477
:10113300FF011208D3F7FF011208D3FAFF011208C7
:10114300D34ECF061208D3C3CF061208D3CECF0691
:101153001208D3EFCF061208D3E0D1061208D3004A
:10116300D2061208D314D3061208D336D4061208B3
:10117300D304D8061208D33AD8061208D356D80691
:101183001208D398D8061208D3A8D8061208D34257
:10119300D9061208D34CD9061208D3A5F3051208B1
:1011A300D3AFF3051208D3DAF3051208D323F405FA
:1011B3001208D38CF4051208D3ABF4051208D3C478
:1011C300F4051208D366F5051208D3EEF7051208E5
:1011D300D3F7F7051208D348F8051208D371F805B9
:1011E3001208D37EF8051208D3EFF8051208D37D51
:1011F300F9051208D3CBF9051208D301FA05120831
:10120300D362FA051208D38BFA051208D302FB0541
:101213001208D35EFB051208D39BFB051208D3D239
:10122300FB051208D3E4FB051208D3F6FB051208ED
:10123300D315FC051208D31EFC051208D3D9FC05EF
:101243001208D325FD051208D363FD051208D34FF9
:10125300D9061208D364D4061208D39AD406120806
:10126300D3E2D4061208D33BD6061208D3FB6A0096
:101273001208D32C6C001208D3686C001208D32216
:101283006E001208D34C6E001208D3C5700012080A
:10129300D30571001208D39972001208D338730072
:1012A3001208D39073001208D32374001208D35D7D
:1012B30074001208D39F74001208D3127600120828
:1012C300D39277001208D3CF79001208D3FD7900A7
:1012D3001208D3297A001208D3327A001208D3886D
:1012E3007A001208D3187B001208D3567E00120826
:1012F300D3D87E001208D3C1E0061208D3D7E00684
:101303001208D36EFF021208D3ADB0061208D3C37E
:10131300B0061208D367B1061208D3A6B1061208A5
:10132300D3C3B1061208D3F4B1061208D341B206EF
:101333001208D375B2061208D3B0B2061208D3A5A9
:10134300B4061208D3AEDC061208D30DDD0612086C
:10135300D34BDD061208D38CDD061208D3008004BC
:101363001208D30C80041208D3A481041208D3E01A
:1013730081041208D39F82041208D3038304120842
:10138300D38C83041208D3F283041208D33F84045A
:101393001208D3BA84041208D37686041208D37DC4
:1013A30088041208D38889041208D31B8A041208FC
:1013B300D3748B041208D3758C041208D3BA8D042A
:1013C3001208D34B92041208D33493041208D3B4F3
:1013D30093041208D3D993041208D3FE930412087A
:1013E300D39994041208D3B794041208D3D5940460
:1013F3001208D34695041208D36595041208D392B4
:1014030095041208D39396041208D38A97041208FA
:10141300D30F99041208D3B599041208D3FC990485
:101423001208D36E9A041208D3FD9A041208D362E9
:101433009B041208D3BF9B041208D35E9C041208BA
:10144300D3CB9C041208D3069D041208D36F9D04CA
:101453001208D3D29E041208D35AA0041208D30C44
:10146300A1041208D321A1041208D372A104120803
:10147300D3DFA1041208D30FA2041208D382A2045B
:101483001208D33BA3041208D330A5041208D39E39
:10149300A7041208D3CAA8041208D3C8AC041208BC
:1014A300D39BAD041208D3B8AE041208D361B004C1
:1014B3001208D38FDA061208D390C0051208D3227C
:1014C300C1051208D395C1051208D30CC50512082E
:1014D300D3BEC6051208D30DC9051208D357CA05D2
:1014E3001208D309CD051208D333CD051208D363EF
:1014F300CD051208D3E9CD051208D393CE05120802
:10150300D3A4CE051208D3ABCE051208D317CF054B
:101513001208D369CF051208D3B5C6061208D3291A
:10152300C7061208D329C9061208D38DC9061208A3
:10153300D3C6C9061208D3EBD0041208D31AD104B8
:101543001208D39ED1041208D301D3041208D3EF97
:10155300D3041208D35ED5041208D383D50412082A
:10156300D3D5D5041208D367D6041208D3B3D6044F
:101573001208D3C6D6041208D323D7041208D3E71C
:10158300D7041208D355D8041208D38CD8041208F0
:10159300D3D5D8041208D398DA041208D377DB041E
:1015A3001208D3C5DC041208D3A8DD041208D3340F
:1015B300DE041208D36DDE041208D38CDE04120895
:1015C300D3D7DE041208D3F7DE041208D3B4DF0442
:1015D3001208D3D7E0041208D332E1041208D372FD
:1015E300E1041208D37AE2041208D301E5041208D5
:1015F300D327E5041208D399E5041208D3BEE50402
:101603001208D345E6041208D321E7041208D35F76
:10161300E7041208D3E3E7041208D3CEE804120860
:10162300D3D1E8041208D3DBE8041208D3E5E804B5
:101633001208D301E9041208D37DE9041208D3B6D2
:10164300E9041208D3D2E9041208D3FEE90412080C
:10165300D325EA041208D349EA041208D384EA041E
:101663001208D3F7EA041208D32BEB041208D3357C
:10167300EB041208D371EB041208D3A6EB0412088F
:10168300D3C5EB041208D395DF061208D3ADDF06EA
:101693001208D3FDFF011208D34293061208D39117
:1016A30093061208D34F95061208D309970612081A
:1016B300D34797061208D37498061208D37F990666
:1016C3001208D3A199061208D3EB99061208D36C1A
:1016D3009A061208D370B2041208D393B204120804
:1016E300D3FEB3041208D347B4041208D3A5B40439
:1016F3001208D309B5041208D30CB5041208D35445
:10170300B5041208D3D8B5041208D360B60412087E
:10171300D363B6041208D3EBB6041208D32EB7046E
:101723001208D3C3BB041208D363BD041208D3A2A7
:10173300BD041208D319C1041208D355C2041208F8
:10174300D33AC3041208D3C4C3041208D3FAC3049C
:101753001208D362C6041208D3A5C8041208D38999
:10176300C9041208D30DCA041208D306CB04120805
:10177300D3BBCC041208D3C2CD041208D336CF0492
:101783001208D376CF041208D33ED0041208D375BF
:10179300AC051208D310AD051208D383AD051208AA
:1017A300D39EAD051208D328AE051208D381AE052A
:1017B3001208D3CCAE051208D32BAF051208D331D0
:1017C300B0051208D34EB3051208D384B40512082A
:1017D300D30DB5051208D311B7051208D3B5B70554
:1017E3001208D35FB8051208D341B9051208D323F1
:1017F300BB051208D398BC051208D3A7BD05120870
:10180300D334BE051208D340BF051208D39BDA03B5
:101813001208D3FEDA031208D346DB031208D3847B
:10182300DB031208D3DFDB031208D33CDC0312080B
:10183300D377DC031208D3F9DC031208D353DD0397
:101843001208D3C7DE031208D345DF031208D35DA2
:10185300E0031208D385E0031208D3D4E10312088E
:10186300D3E5E1031208D3FDE1031208D312E30326
:101873001208D3EFE3031208D3ECE4031208D310E6
:10188300E5031208D327E5031208D348E50312083A
:10189300D36AE5031208D389E5031208D35DE6038F
:1018A3001208D3B7E6031208D358E9031208D3B1D9
:1018B300E9031208D3D0E9031208D3BBEA031208E1
:1018C300D3F1EA031208D32BEC031208D3AAEC03D7
:1018D3001208D3E1EC031208D31BED031208D38AD9
:1018E300ED031208D34BEE031208D324F0031208BE
:1018F300D32BF1031208D39CF2031208D392F403FF
:101903001208D30DF7031208D3E7F8031208D3A87C
:10191300F9031208D320FA031208D337FA03120883
:10192300D331FB031208D329FC031208D398FC0319
:101933001208D36AC3061208D31AC5061208D3D9EC
:10194300C5061208D341C6061208D38DB80612087D
:10195300D3ABB8061208D3EFB8061208D315B906ED
:101963001208D33CB9061208D354B9061208D36C33
:10197300B9061208D3F888061208D350BA0612081B
:10198300D372BB061208D37BBB061208D384BB06F3
:101993001208D38DBB061208D397BB061208D39C3B
:1019A3009A061208D3D09E061208D3DE9E061208AA
:1019B300D3E39E061208D3DBCD061208D3D1FF0270
:1019C3001208D3EBDE061208D3FBDE061208D34E51
:1019D300A8061208D361E0061208D398E00612089D
:1019E300D3E1E0061208D30080031208D333800347
:1019F3001208D3C1D2051208D32681031208D3CD0E
:101A030081031208D31582031208D33A8203120802
:101A1300D35382031208D37982031208D39B820320
:101A23001208D3D982031208D32883031208D3518F
:101A330083031208D3B083031208D38984031208E3
:101A4300D33F85031208D39D85031208D36386030E
:101A53001208D3AD86031208D30487031208D36F89
:101A630087031208D3AD87031208D3038803120830
:101A7300D31F88031208D34A88031208D3598A0351
:101A83001208D39F8B031208D3CB8B031208D3FF07
:101A93008B031208D3208C031208D32F8C03120854
:101AA300D33A8C031208D3EA8C031208D3598D035B
:101AB3001208D3068E031208D3428E031208D300F2
:101AC3008F031208D30D90031208D35A9003120800
:101AD300D3E990031208D34391031208D3889103E7
:101AE3001208D31794031208D37195031208D3BDB8
:101AF30098031208D39B99031208D3729A0312080E
:101B0300D39B9A031208D30C9B031208D3A29B0303
:101B13001208D3069C031208D3F59C031208D31AA8
:101B23009D031208D37D9E031208D39B9E031208C4
:101B3300D3AE9E031208D31C9F031208D320A00325
:101B43001208D32DA0031208D336A0031208D330F2
:101B5300A2031208D356A3031208D366A3031208E1
:101B6300D35CA4031208D3D8A4031208D311A5038A
:101B73001208D31FA6031208D35BA6031208D33699
:101B8300A8031208D317AC031208D321AC0312081D
:101B9300D335AC031208D33FAC031208D349AC03CB
:101BA3001208D353AC031208D36CAC031208D376D8
:101BB300AC031208D3E6AC031208D3F1AC0312084A
:101BC300D319AD031208D324AD031208D372AD03A6
:101BD3001208D37CAD031208D387AD031208D3AB2D
:101BE300AD031208D3CFAD031208D32CAE031208F2
:101BF300D372AE031208D38EAE031208D315AF030C
:101C03001208D34CAF031208D38BAF031208D3D8F7
:101C1300AF031208D35AB0031208D306B103120854
:101C2300D3E2B2031208D350B3031208D37CB40334
:101C33001208D3A2B4031208D3FBB5031208D3537B
:101C4300B9031208D38CBB031208D36ABD0312086D
:101C5300D303BE031208D328C0031208D3DCC00386
:101C63001208D315C1031208D37BC1031208D3850D
:101C7300C1031208D3AFC3031208D3BAC4031208B3
:101C8300D302C5031208D3B6C5031208D359C70339
:101C93001208D3E0C8031208D300C9031208D353B0
:101CA300C9031208D353CA031208D37BCA03120809
:101CB300D3DECA031208D3C1CB031208D333CC0338
:101CC3001208D345CD031208D3C9CD031208D3C7D5
:101CD300CE031208D35DD1031208D37CD1031208BB
:101CE300D3C7D2031208D395D4031208D3E9D4037C
:101CF3001208D3A1D5031208D351D6031208D3AACD
:101D0300D6031208D36FD7031208D305D8031208DA
:101D1300D36CD8031208D3AED8031208D3DFD80389
:101D23001208D33FDA031208D30080021208D33219
:101D330080021208D36B80021208D3568202120863
:101D4300D33A83021208D39283021208D3D58402B2
:101D53001208D32185021208D34D88021208D3C179
:101D63008B021208D3098D021208D39F8D02120829
:101D7300D3AB8D021208D3EB8D021208D3808F02EE
:101D83001208D37490021208D39E90021208D3F55E
:101D930090021208D34E91021208D3BF9102120887
:101DA300D3F493021208D38B95021208D35F9602E1
:101DB3001208D3A697021208D3FE99021208D3CFB2
:101DC3009C021208D3DE9C021208D3629D02120801
:101DD300D3179E021208D35A9E021208D3B89E024A
:101DE3001208D3D49E021208D3069F021208D345C9
:101DF3009F021208D32BA0021208D3DAA002120802
:101E0300D360A3021208D396A4021208D37DA502BD
:101E13001208D3FDA5021208D30AAA021208D34856
:101E2300AA021208D3AFAA021208D3E2AA02120826
:101E3300D375AB021208D3A8AB021208D343AC028A
:101E43001208D391AC021208D364AD021208D32B4B
:101E5300AE021208D3C9AE021208D3D3B1021208DC
:101E6300D3E7B2021208D38DB6021208D38FB7029A
:101E73001208D392B7021208D3C1B7021208D3C013
:101E8300B9021208D399BA021208D3BEBA021208D1
:101E9300D3DABB021208D392BC021208D349BE02A2
:101EA3001208D36EBE021208D3A8BE021208D34191
:101EB300BF021208D33CC0021208D3F2C0021208B8
:101EC300D303C3021208D36EC3021208D3B6C302EC
:101ED3001208D311C4021208D3E9C7021208D3DED1
:101EE300C8021208D3D8C9021208D355CA0212086D
:101EF300D327CB021208D328CD021208D33CCD023C
:101F03001208D350CD021208D386CD021208D3B6DD
:101F1300CD021208D340CF021208D321D0021208F7
:101F2300D389D0021208D3FDD0021208D3ADD10257
:101F33001208D3DDD1021208D39CD2021208D3397E
:101F4300D3021208D346D5021208D385D50212084C
:101F5300D3F7D5021208D33CD7021208D3EFD70226
:101F63001208D323D8021208D33BD8021208D3DEB7
:101F7300D8021208D3CCDB021208D397DD02120871
:101F8300D3BBDD021208D3D9DD021208D3ADDE02C2
:101F93001208D3D5E2021208D3B2B4061208D3F260
:101FA300B4061208D3BEB6061208D3CDB60612087D
:101FB300D30080051208D3C484051208D3198505FC
:101FC3001208D35787051208D3FB88051208D38B51
:101FD30089051208D3E78B051208D3EE8D05120885
:101FE300D3458E051208D33990051208D36B90059B
:101FF3001208D3A390051208D3C990051208D3275A
:1020030091051208D34991051208D350910512087E
:10201300D36891051208D32C92051208D323930594
:102023001208D39E88011208D3D688011208D3EF71
:102033008D011208D3358E011208D3878F01120840
:10204300D3F98F011208D36891011208D35C94016C
:102053001208D38095011208D39E9F011208D3273B
:10206300A0011208D384A3011208D393A401120878
:10207300D3EEA4011208D33CA6011208D326A7016C
:102083001208D3D1A9011208D357AB011208D3E424
:10209300AB011208D3E7AB011208D35EAC011208FF
:1020A300D368AC011208D375AC011208D3A0AC01FC
:1020B3001208D34BAD011208D33BAE011208D3F47F
:1020C300AE011208D312AF011208D327AF011208D1
:1020D300D350AF011208D37DAF011208D3BDB101B4
:1020E3001208D38AB2011208D3CFB2011208D34621
:1020F300B3011208D3F4B3011208D326B4011208B2
:10210300D36CB4011208D39FB4011208D3E4B40111
:102113001208D335B5011208D33AB5011208D38E8C
:10212300B5011208D3F7B5011208D3C0B6011208DE
:10213300D30BB7011208D370B7011208D3CCB70180
:102143001208D36AB8011208D3D6BB011208D3F11F
:10215300BC011208D37DBE011208D39EC10112082F
:10216300D340C2011208D351C5011208D30CC601D2
:102173001208D354C6011208D303C8011208D31797
:10218300C8011208D321C8011208D32BC8011208B1
:10219300D337C8011208D35FC8011208D343CA0159
:1021A3001208D39CCA011208D3A6CA011208D3B0DD
:1021B300CA011208D325CB011208D370CB01120830
:1021C300D371CC011208D3C8CC011208D3D2CD01EC
:1021D3001208D31BCE011208D3CBCE011208D3AE03
:1021E300CF011208D381D0011208D3D3D101120831
:1021F300D3F6D2011208D3EED3011208D306D401C9
:102203001208D33DD4011208D347D4011208D35284
:10221300D4011208D370D4011208D3B8D401120820
:10222300D316D5011208D33DD5011208D34FD501DA
:102233001208D3EAD5011208D31FD6011208D3110D
:10224300D7011208D353D7011208D337D801120884
:10225300D35ED8011208D3CBD8011208D343D901D6
:102263001208D3C7DA011208D3F4DB011208D3C969
:10227300DC011208D38CDD011208D333DE0112080E
:10228300D378DF011208D336E0011208D3A2E001AC
:102293001208D35EE1011208D3AFE1011208D3099A
:1022A300E2011208D3DAE2011208D3FDE2011208B7
:1022B300D3BEE3011208D3E0E3011208D341E401E2
:1022C3001208D389E6011208D38DE7011208D3441B
:1022D300E8011208D365EA011208D3AFEA01120834
:1022E300D3FAEA011208D355EB011208D3C2EB016A
:1022F3001208D3F0EB011208D314EC011208D349EE
:10230300EC011208D376EC011208D3BCEC011208DD
:10231300D310ED011208D364ED011208D387EE0147
:102323001208D327F0011208D372F0011208D39BCD
:10233300F0011208D32EF1011208D3A6F1011208FD
:10234300D3B4F1011208D3D8F1011208D32FF2014B
:102353001208D34AF2011208D307F3011208D33348
:10236300F3011208D376F3011208D3D9F30112084B
:10237300D3C9F5011208D3F6F5011208D3E8F60123
:102383001208D3F5F7011208D3AEF8011208D33AB5
:10239300DD051208D372DD051208D393DD0512089B
:1023A300D3D7DD051208D33BDE051208D345DE057E
:1023B3001208D355DE051208D38CDE051208D38428
:1023C300E2051208D392E4051208D37FE60512084A
:1023D300D316E7051208D3B8E7051208D3962F00E2
:1023E3001208D33F30001208D31631001208D31E4F
:1023F30032001208D33E32001208D35633001208BB
:10240300D31035001208D38335001208D3203600C9
:102413001208D33737001208D3A437001208D3DFCA
:1024230037001208D33438001208D36F380012086B
:10243300D3BC38001208D34C39001208D3D9390061
:102443001208D3AE3A001208D3873B001208D31503
:102453003C001208D3353C001208D3623C0012083A
:10246300D3933C001208D3663D001208D3763D0097
:102473001208D3C53D001208D3D23D001208D3DBA6
:102483003D001208D34B3E001208D3AB3E001208A6
:10249300D3F63E001208D3113F001208D3383F0091
:1024A3001208D3553F001208D3613F001208D30C22
:1024B30041001208D32541001208D3AE410012088F
:1024C300D3C141001208D3E041001208D37B42007C
:1024D3001208D3EB43001208D39245001208D3210C
:1024E30046001208D32446001208D394460012086B
:1024F300D3B246001208D35747001208D3934700BC
:102503001208D39647001208D35C48001208D3BFC1
:1025130048001208D3F848001208D36D4900120886
:10252300D38B49001208D3D949001208D3AE4A000D
:102533001208D3FC4A001208D34A4B001208D3D71F
:102543004B001208D30C4C001208D3414C00120864
:10255300D34F4C001208D3AE4C001208D3264D00C3
:102563001208D3674D001208D3B74D001208D3E207
:102573004D001208D3FC4D001208D3164E0012086A
:10258300D3F14E001208D3FB4E001208D3364F008E
:102593001208D3464F001208D39E4F001208D3B23D
:1025A3004F001208D3E850001208D3FD5000120860
:1025B300D38B51001208D3F351001208D3A6520053
:1025C3001208D3B152001208D30154001208D31DCC
:1025D30054001208D36954001208D3D854001208C7
:1025E300D31155001208D32B55001208D38B550075
:1025F3001208D32A56001208D37556001208D3378F
:1026030059001208D3ED59001208D37D5A0012085D
:10261300D3C55C001208D3DD5C001208D3E05C0074
:102623001208D3EC5C001208D3005D001208D30833
:102633005D001208D33B5D001208D32E5E00120822
:10264300D3B95E001208D34C5F001208D3C55F00F4
:102653001208D38960001208D3AB60001208D34478
:1026630061001208D3A161001208D3A4610012080B
:10267300D31E62001208D36A63001208D375640084
:102683001208D30065001208D30566001208D3C5EB
:1026930066001208D3F666001208D31C67001208FE
:1026A300D32567001208D35367001208D3EB6700E2
:1026B3001208D3A068001208D31169001208D3B816
:1026C30069001208D33F6A001208D37E6A00120819
:1026D300D3C16A001208D3A187061208D3F3860672
:1026E3001208D38E86061208D37A86061208D3C33D
:1026F30085061208D3BD84061208D3E183061208A7
:10270300D33C81061208D35180061208D3008006F9
:102713001208D364AC051208D350AC051208D34693
:10272300AC051208D3D9AB051208D30AAA051208BF
:10273300D3C8A9051208D368A9051208D3A5A8050B
:102743001208D367A5051208D31FA3051208D3EFF8
:10275300A2051208D39FA2051208D339A2051208B5
:10276300D3F8A1051208D32AA1051208D3C4A005E2
:102773001208D363A0051208D303A0051208D3A13E
:102783009E051208D3359E051208D3A5D20512085B
:10279300D381D0051208D353D0051208D320D00516
:1027A3001208D3A4CF051208D3AD9D051208D3A8F0
:1027B3009D051208D3919D051208D35E9D0512084D
:1027C300D3F099051208D3ED99051208D3D49905CE
:1027D3001208D3C999051208D39899051208D3BFD3
:1027E30097051208D37F89061208D332970512087A
:1027F300D39A80031208D3EE96051208D363960585
:102803001208D35AF3051208D305F3051208D3D8D7
:10281300F2051208D3A5F2051208D37DF2051208BA
:10282300D31EF2051208D3FEF1051208D3C9F10530
:102833001208D38DEE051208D362EC051208D352A9
:10284300EA051208D3CFE9051208D34B890612080B
:10285300D383E9051208D337E9051208D391E805B4
:102863001208D30EBA0600000080FB8F0001004E51
:102873001C870001004C1C35000400131C250002BA
:1028830000171C26000200191C270002001B1C282D
:10289300000100251C29000100261C84000400F708
:1028A30018860001008E1B2A000100271C2B000143
:1028B30000281C2C0001002D1C2D00080004192EDB
:1028C3000001002E1C2F0001002F1C3000010030DE
:1028D3001C31000100311C320001000C19330001CE
:1028E300000D1934000100321C360001000E1938A6
:1028F300000100331C390001002C1C830002004A34
:102903001C63000100191964000100291C65000102
:10291300002A1C6D0001001A1971000800FC1866DA
:10292300000100491C430001003A1C440002003B23
:102933001C450001003D1C460002003E1C470008E8
:1029430000111948000100401C4B000100411C0408
:102953000001004D1CA1000100511C370001005073
:102963001C880001004F1C3C0001000F193D0001B1
:1029730000341C49000200421C670001001B194D72
:10298300000200441C4E000100461C4F0002004799
:102993001C3E000100391C51000100351C5200018E
:1029A30000361C53000100381C54000100101900AC
:1029B30000000000000001363601010001020100A1
:1029C30001030100010401060605020000070100DE
:1029D300340801000F090401010D0100FF0E080076
:1029E3000017020000190100FF1A0100011B01007A
:1029F300FE1C0100081D0200001F01000120010050
:102A030001210200002301000F240200002601001F
:102A13000127010008280200FF2A0100072B0102F9
:102A2300402C0100002D0100012E0100012F0100A7
:102A3300FF30010B1D310800003A0100083B010083
:102A43000F3C0100013D0100FF3E04000042040071
:102A530000460400004A0400004E04000052040033
:102A630000560400005A040000010371030103012E
:102A73000301030103010322030203010310030003
:102A830003000300030003000300030003420300E9
:102A93000324030603000300030403120325032393
:102AA3000325032303040304030003000300034477
:102AB300030003000323030003650321003503819F
:102AC300030003050300030003000300032503239E
:102AD300030302710230016002110270020102025B
:102AE3000202028002100261023A00410063027393
:102AF3000272026202430200021302380000020063
:102B03000204021202000200020002000204020494
:102B130002370037003C0244020002390000020081
:102B2300026502000235028102000205028202836D
:102B3300020002030471040204600411047004021D
:102B43000402040104020410046104000414046375
:102B530004730472046204430400041304060400AF
:102B630004000404041204000400040004000451DB
:102B7300046400000400040004440400040004008E
:102B830004000465040004350481046400050400A2
:102B9300048304000403007100300160001100701D
:102BA3000031022003500480001000610000001473
:102BB300006300730072006200430000001300060C
:102BC30000000000000400120000000000000000EC
:102BD3000004000400370037003C024400000000FA
:102BE30000000000006500000035008100000005C2
:102BF30000000083000000010171010101010111C6
:102C03000101013101010101018001100161013B59
:102C13000014006301730172016201430100011397
:102C23000106013D0135000401120100010001000C
:102C330001000104010401330133013C0144013269
:102C4300013600000100016501000135008101002A
:102C53000105018201830100012100100020819FF1
:102C63001B2100110043810000210012002083A0DA
:102C73001B210013002083A11B210014002083A229
:102C83001B2100150043813E03210016001A81A376
:102C93001B210017001A81A61B2100200018834066
:102CA3000321002100F183A91B21002200F183B934
:102CB3001B2100FDFF2181C91B3600010006000016
:102CC300000F0000000000000000000000000003EF
:102CD300FFFF00000403FFFF0000FFFF0FF40100EC
:102CE30005C4040320000100000B000000000000E5
:102CF300000003010F0000000000000000000000BE
:102D030000000000000000000000000000000000C0
:102D130000000000000000471483144D146F135388
:102D23001489145314951459146F135314891400EC
:102D33000000000000000000000000000000000090
:102D43000000005F146F1365149B146B146F130062
:102D530000000000000000000000007114AD1477B3
:102D6300146F137114AD1477146F1365149B147DD2
:102D7300146F1313004D171F0053171F80591700AB
:102D830000BF170100BF170200F9160280F31603F4
:102D930000FF160400051704800B17050011170622
:102DA300001D1731002F173300351734003B17363A
:102DB300004117FFFF00000A0000000200000004AA
:102DC3000000000800000010000000200000004088
:102DD300000000800000000001000000020000006D
:102DE30004000000080000001000000020000000A4
:102DF300400000015F20068F200889200BAD2010C2
:102E0300DB1C026520057D20076B200C47200D533A
:102E13002064CB1AFF000007ECFDFDFDECDCDCCCED
:102E2300BCACAC9C9C8C7C7C6C6C5C5C5C4C4C3C0F
:102E33003C2C2C1C1C03EAF5E5D5D5C5B5A5959509
:102E430085857575656555554545353525251515AF
:102E53000500160F00000B150B020002220F3300B2
:102E6300000E0F5A6967426565416C6C69616E6358
:102E7300653039D0D1D2D3D4D5D6D7D8D9DADBDCA3
:102E8300DDDEDF00000000000000000000000000A5
:102E9300000000C0C1C2C3C4C5C6C7C8C9CACBCC21
:102EA300CDCECF303016181920231A1C1E303030E7
:102EB30017181921301B1D1F30000119161816167B
:102EC30018230300003C40423A3F3F392F4730006C
:102ED300034D4C4651181A2505020C0E020B040B28
:102EE3000A0708000F02040201010101090200BEE2
:102EF300040AE80300000E00E803000001000300D9
:102F03007F000000030404040005030A0C10081EDC
:102F1300080C28FF10000209033C0C050815091EC4
:102F2300E4F0A3F0A3F0A322122F23F022125CBB40
:102F330024081243CE22122F3D22E0F508E4F509BE
:102F4300F50AF50B22E824FBF582E934FFF5832229
:102F5300F583122F5922E0F508A3E0F50922122682
:102F6300C5740412091E7F080206057401F090045B
:102F7300A8E0640F22740912091E7F04020605A348
:102F8300A3E024F5C39413229004C8125F357A1486
:102F93007B0022C082C083901A5F743DF0A3742427
:102FA300F0A3744FF0A37424F0901A637425F0A374
:102FB3007424F0A3741FF0A37424F0A3745BF0A330
:102FC3007424F0A37461F0A37424F0A37455F0A3E4
:102FD3007424F0A3740DF0A37424F0901A6F743169
:102FE300F0A37424F0A37437F0A37424F0A3742B18
:102FF300F0A37424F0A37467F0A37424F0901A80F0
:10300300124F9860061253E7121267901A7D124806
:10301300537408F0A3E4F0A3F0901B29F0901A82F4
:10302300F07C0BFDF97A837B1A1211B37C0B7D00C4
:1030330079007A8E7B1A1211B30246AB74F712032E
:10304300EE74F71209B6EAFEEBFF12460974051295
:1030530031047403F01230D91230E02430FCE43F21
:10306300FD8C828D83E0888289831230ED600812A3
:10307300393A74FFF0A3F0EE242EE43F1C1CFD8CC0
:10308300828D83A3E0C0E08A828B83124610D0E056
:103093001230ED88828983124EBF2403125A6412C0
:1030A30013577408120C127403F09004BD1207181E
:1030B30074021209967903EEFAEFFB1225F97402F2
:1030C30012091EE9F5087007EEFAEFFB1224D9A9DD
:1030D300087409023946EE2402FAE43F22FB8A828D
:1030E3008B831230FC124AA8EE22124EEB1230FCF4
:1030F300124AA88C828D83E0221249638A828B83D1
:1031030022F0A3E4F012310C22EE240DF582E43F09
:10311300F5832274F01203EEEAFEEBFF8C0C8D0DA7
:10312300890B1230D912495A7410120C12E0F508A7
:10313300A3E088828983F0E824FFF582E91235044D
:10314300E508F0E824FEF582E9123504E50BF0907A
:1031530004C2E0C0E0E824FDF582E9123504D0E0C2
:10316300F09004C1E0C0E0E824FCF582E9123504E4
:10317300D0E0F07412120C12122F55122F48E509E9
:10318300F0E824FAF8E934FFF988828983E508F046
:10319300EE2404FCE43FFD88088A828B83E0F50E6D
:1031A3008C828D83E0250EC39508124EEB124AA440
:1031B300850C82850D83A3A3A3A3A3A3A3A3E06488
:1031C300037008124954F0A3E48003123509123145
:1031D300077409F075088375091A750A00780812CF
:1031E30008EC1234F21211A1740312091E7508FFC0
:1031F3007509FF78081208F0AC0CAD0D7903EEFAEF
:10320300EFFB1225F9740212091EE9F5087007EEA7
:10321300FAEFFB1224D9A908022F69C082C0839058
:103223001A9FE0C39408400474078001E08A828BEC
:1032330083F033333354F8F90246AB74F01203EEE0
:103243008A088B09890A8C0E8D0F750C00A2AFE4D6
:1032530033F50BC2AF901A99804512333A503D12A1
:10326300334964037036E50824F9F508E50934FFAA
:10327300F5098E828F83A3A3E02405FCA3E0340029
:10328300FDAA08AB09121357E50824FFF508E50961
:1032930034FFF5097410250CF50C150A12371712B3
:1032A30069B2E50A6004EE4F70B0E50BA2E092AF9D
:1032B300A2AFE433F50BC2AF901A998038124EB621
:1032C3001240B0850882850983124EEB123340A366
:1032D300A3E0C0E0E50824FFF582E509123504D038
:1032E300E0F0E50824FEF508E50934FFF509050CCF
:1032F300150A1237171235716021123349640270AF
:10330300F112333AEE40B612473DA2E550E4850E82
:1033130082850F837401F0E50A70D7E50BA2E09272
:10332300AF850882850983E50CF0E50824FFFAE5FB
:103333000934FFFB022F69123726A2E62212334417
:1033430022124EE0A3228E828F83A3A3124614126D
:1033530056212274F01203EE74F31209B6740312A9
:103363000C12E9F07402120C12EAF08B0B8518822E
:10337300851983E4F00412098E1223EFE9F890040F
:10338300A7E0292437F508FA7B001211D18A0C8BA8
:103393000DAE0CAF0DEE4F70030234E9EE2402F5CF
:1033A3000EE43FF50FA808EE28F8E43FF9850E82F6
:1033B300850F831252989004A7E0F9FAC3E49AFAAE
:1033C30095E0FB850E82850F83E02AF50CA3E03B95
:1033D300F50D9004A5122F55750A0078081208EC14
:1033E300E9FC7D00AA0CAB0D1211A1740312091E96
:1033F300AC18AD197401120C12E0F9E50C24FFFAB4
:10340300E50D34FFFB1223F58A828B83E4F0E50B91
:10341300C454F0F9901B2AE0C4333354C0F8900429
:10342300A1E0A2E0E43313134849440FC0E0EA24C7
:10343300FFF582EB123504D0E0F0EA24FEF50CEB45
:1034430034FFF50D7403120C12E0F87402120C121F
:10345300E0C454F048850C82850D83F0A80C850EDA
:1034630082850F83125C842AC3988E828F83A3A3E1
:10347300A3A3F0850E82850F83E8F0A3E50DF01278
:103483003509123107E4F0740C120C12E4F07508DC
:103493008E75091A78081208EC1234F21211A1740D
:1034A3000312091E851882851983E06009EE240E34
:1034B30012473F4408F01225E1E9F9E4F508F5095C
:1034C30078081208F07406120996EEFAEFFB12253B
:1034D300F9740212091EE97006EEFAEFFB800BEE97
:1034E300FAEFFB1211D77A007B00740D022F667C72
:1034F3000B7D00EE241BFAE43FFB22EE24FFF58252
:10350300EF34FFF583221259DDE4F0A32274F212A3
:1035130003EE8A0C8B0DA2AFE433F50AC2AF750834
:1035230000750900901A99802C1237315024850CAC
:1035330082850D83A3A31259E78E828F83A3A312DF
:1035430053EA1225E7E9600A123722C2E6F08E0831
:103553008F0912371712357170CFE50845096006D8
:1035630012360AD2E6F0E50AA2E092AF800DE0FE41
:10357300A3E0FFEE4F22740212091E7F0602060526
:1035830074F01203EE8A0E8B0F8C0C8D0D750A00EE
:10359300A2AFE433F50BC2AF7E007F00901A99808F
:1035A30010AE08AF0912360212473DD2E7F01245BA
:1035B3002A124540603412360AA2E750F185088288
:1035C300850983A3A3120718AC0CAD0DAA0EAB0F8C
:1035D3001225ED740212091EE960D3EE4F60C21288
:1035E30039D27006123615D2E4F0E50BA2E092AFA1
:1035F300EE4F60061224D3750A01A90A022F69123D
:103603003726D2E4F0EE22E5081259073509F5838F
:10361300E0228E828F83A3A3124614E02274F21257
:1036230003EE74FE1209B6750C00750D0085188241
:10363300851983E4F0A3F0A2AF33F50AC2AF901A61
:10364300991269B28035EE24FBF582EF34FF122F15
:1036530053780C1208F0EEFCEFFD7A997B1A1212E4
:1036630007740212091EEEFCEFFDAA18AB19121122
:10367300F5AE08AF09901A9FE014F0EE4F602B12DD
:103683003731501DEE240BF8E43FF988828983E03B
:1036930024FFF0A3E034FFF088828983124F9860FF
:1036A300A58E0C8F0D1237178097E50AA2E092AF13
:1036B300901A9FE060319004A8E0640F6006901BAD
:1036C30029E070237A777B1A1226D190888E12070D
:1036D300147A777B1A1226C5740412091E800874A3
:1036E300F0124B441224C7AA18AB191211FB8A0813
:1036F3008B09AE08AF09EE4F601312240112372273
:10370300A2E28E828F83A350D674E980D4023579E6
:103713008E0A8F0BEE24FBF582EF34FFF583221222
:10372300372622EE2411F582E43FF583E022123797
:1037330026A2E72274F71203EEEAFEEBFF1224013E
:1037430012460D120566E964019004C4700AE02470
:1037530001F8A3E03400800312458DF9124D1812CD
:103763004AA4901A9FE070219004A8E0640F701996
:103773007A777B1A1226D190888E1207147A777B78
:103783001A1226C5740412091EA8A8C2AF901A9F64
:10379300E004F0E8A2E78004E508A2E092AF024C5F
:1037A3000774F71203EEEAFEEBFF1237D9F0122487
:1037B30001EEFCEFFD7A997B1A121201A8A8C2AFA1
:1037C300901A9F1241039004A8E0640F70057908D2
:1037D300122599024C07123726C2E42274F712030A
:1037E300EE74EA1209B6EAFEEBFF9004A1E0603C36
:1037F3008518828519837401F0120C12E41238B112
:10380300120C12AA82AB83121357123615C0E0743E
:103813000A120C12D0E0125CA0740B120C12AA82D2
:10382300AB83122611AA18AB1912199F7416023909
:103833004674F71203EEEAFEEBFF1223E3E9F97491
:10384300DC69601E74DD69601974E469601474F3E3
:1038530069600F74DE69600A74DF69600574DB698F
:103863007007EEFAEFFB12259F024C0774F7120361
:10387300EE74EB1209B6EAFEEBFF85188285198315
:1038830074061238B1120C12AA82AB83121357EECC
:103893002408FCE43FFD740A120C12AA82AB8312C3
:1038A3002611AA18AB1912199F7415023946F0EEA6
:1038B3002413FCE43FFD74022274F71203EE74F741
:1038C3001209B6EAFEEBFFEE243012473F606512A1
:1038D30041A6AA18AB191213577408120C127403D9
:1038E300F09004BD12071812393A1207189004D049
:1038F300E0F97404120996EEFAEFFB1223E974045B
:1039030012091EE9F974DC69602374DD69601E74B1
:10391300E469601974F369601474DE69600F74DF1D
:1039230069600A74E869600574DB697007EEFAEF91
:10393300FB12259F0230D4EE242EF582E43FF5835B
:1039430022740312091E024C0774F21203EE8A0C4E
:103953008B0D750A00750B007508E7A2AFE433F50C
:1039630009C2AF901A99800312371312357160366A
:1039730012373150F31239D270EEEE243212473F30
:10398300F88A828B83A3A3E06870DD780A1208F0BB
:10399300EEFCEFFD7A997B1A121207740212091ECC
:1039A300901A9FE014F0E509A2E092AFEE4F601386
:1039B300EEFAEFFB12240179F0EEFAEFFB12259FEA
:1039C300750800A908AA0CAB0D12259F02357E12BB
:1039D300310CE064012274F41203EE74F71209B699
:1039E300EAFEEBFF8E828F83A3E064F37003023A57
:1039F300838E828F83A3E064DF7003023A838E8217
:103A03008F83A3E064E860788E828F83A3E064DB16
:103A1300606E122443E9F508705EEE240E12473FF0
:103A23006056123A8D122485EA4B604C7408120CCE
:103A330012123A971207187508FF7509FF780812D2
:103A430008F08E828F83A3A3A3A3A3A3A3A3E0F968
:103A530074041209961223E9740412091EE9F50885
:103A630074F36508601274DF6508600C74E8650818
:103A7300600674DB6508700F8E828F83A3E508F000
:103A8300EEFAEFFB12244F022F78EE240FFAE43FF5
:103A9300FB79092274021253F974FFF0A3123AA4BA
:103AA30022123AA822124EC8A3A32274F11203EEE3
:103AB300EAFEEBFF7508008E828F83A3A3A3A3A363
:103AC300A3122F8240037508E88E828F83A3A3A3DA
:103AD300A3A3A3A3A3A3A3E0C3941040057508E87D
:103AE30080138E828F83A3A3A3A3A3A3A3A3A3A3C0
:103AF300E0640F600B901B06E0540870037508E840
:103B0300EE240B12473FF88E828F83A3A3A3A3A3B4
:103B1300A3A3A3A3A3E0C398500DEE240B12473F26
:103B2300640F60037508E89004C1E0F47003A3E038
:103B3300F470037508EC7A237B001212618A0A8BF6
:103B43000BA80AA90B901A80123B8160298E828FE1
:103B530083A3A3A982AA83890C8A0D750E00780C0E
:103B63001208EC7C237D00901A80E0FA1211A174F4
:103B73000312091E800375081AA9080259D0124AB4
:103B8300A8E8492274F51203EEEAFEEBFF8E828F5A
:103B930083A3A3A3A3A3A3A3A3E09004A81263589E
:103BA3009004C312633E9004A312635D901B2AF03A
:103BB300F9120FDF901B2AE06018EE2404FAE43FA9
:103BC300FB7950120FC7EE2406FAE43FFB79E112AA
:103BD3000FC7901B29122F6E6004740180027400BA
:103BE300901A821263441208EC7C0B7D007A837B6B
:103BF3001A1211A1740312091EEE2418F508E43FEA
:103C0300F50978081208EC7C0B7D007A8E7B1A028A
:103C130048B274F71203EEEAFEEBFF8E828F83A3A2
:103C2300E070061253E7122449124B3E1225AB02F1
:103C33004C0774F71203EEEAFEEBFF901A80124F63
:103C430098600D1253E7901A80E4F0A3F012126704
:103C53008E828F837408124B4412199F024C07748F
:103C6300F61203EE901B29E06013901A82E0700DA8
:103C7300123C831223FBEA4B60031224D9025FC078
:103C83009004A3E0FB9004C3E0FA9004A8E0F922B7
:103C930074F41203EE74E71209B6EAFEEBFF750B38
:103CA300018E828F83A3A3A3A3A3A3A3E0A2E250C5
:103CB30068EE242BF582E43F1259E5124BCF122410
:103CC30007E970559087C1E064017005750B0080AA
:103CD30048123D5F1208EC7C0B7D00741112098EB3
:103CE3001211A1740312091E1225E1E9FA740E12CE
:103CF30009868808890978081208F075083075095B
:103D03000078081208F0123D51120718125C6E7900
:103D1300011225FF740612091E8518828519837402
:103D2300101238B1120C12AA82AB8312134B123D3C
:103D330051125F31740B120C12124AA4740D120C3F
:103D430012E50B1248F212199F7419022F7A123DD1
:103D53005522EE242BF582E43FF58322EE2408124C
:103D6300634C22C082C083901B2AE0600312265357
:103D73000246ABC082C083901B21745FF0A3741A08
:103D8300F0A37463F0A3741AF0A3746FF0A3741A0E
:103D9300F0901C687436F0A3742BF0901B0B74DD49
:103DA300F0A37423F0901AA47413F0A37424F09076
:103DB3001AA67419F0A37424F0901B06E0440202BF
:103DC30041DCC082C083EAFCEBFD7903024F40C0B3
:103DD30082C083790802613EC082C08374FE1209E7
:103DE300B6901AAC74C1F0A37424F0901AAE74BBED
:103DF300F0A37424F0800D7A997B1A1211FB1248F8
:103E0300E81225CF901A99124F9870EB901A9B12D3
:103E13004F98600F7A9B7B1A1211FB1248E8122508
:103E2300CF80E9901A99E4F0A3F0901A9FF0A3F0E1
:103E3300A3F0901ABA74FDF0A37424F07402800204
:103E4300741112091E0246AB74F61203EEE9FF74F5
:103E5300C729F582E4342EF583E493FEFA7B00123E
:103E630011D1EA4B6013EA2E124788E8F0A3E91256
:103E73005CC0A3A3A3E4F0802C7A027B001211D1CF
:103E8300EA4B601D74B12FF582E4342EF583E4937D
:103E93008A828B83F0A3741AF0901B01E0F912114C
:103EA300DD7A007B00025FC0E9FC740629F8EAA210
:103EB300E0501EE875F00A84E5F0F96014740A28EE
:103EC300C399F8E9C394054004740A28F8740B28CD
:103ED300F8ECC394134004791480027906E8297935
:103EE300002409F85001097A0A7B0012029EE8F9BE
:103EF3000208D0C082C083901B06E05402600A12FD
:103F030019A5E960047901800279000246ABC082F9
:103F1300C083901B06E054026016901A9FE0700C59
:103F2300124F95600BE0C8124537500479018002A7
:103F330079000246ABC082C0839087BEE0F8901A36
:103F4300A1E0C39850051211D180047A007B0002CE
:103F530046ABC082C0831225CF79000246ABC08234
:103F6300C08374FE1209B6851882851983EAF0A30B
:103F7300EB1240DFA3A3A3A3A3E0600A14605D24B4
:103F8300FE606002403E9004A8E0640F60181225B2
:103F9300A5E970128518828519831253EA901AA82D
:103FA3001246101205669004D0E0C0E085188285A1
:103FB3001983124E98D0E01240DF7414125921FC79
:103FC300A3E0FD7A9B7B1A1211F5A8A8C2AF901A41
:103FD300A11241037920122599023E3F1240A37496
:103FE3001580D91240A3A3A3A3A3E0604E1240A35C
:103FF300123619C0E0851882851983125C9312402A
:10400300BDD0E01259212402F8A3E03400F98882DC
:104013008983E02401FAA3E03400FB88828983EAE0
:10402300F0A3EB1259211243D785188285198360B7
:10403300131240B060051240C64048AA18AB1912CB
:1040430025CF80951240B060F21240C65021124035
:10405300D3FA851882851983A3E0C824061243A2E4
:10406300F874E71250DA342EF583E4936A6014850A
:1040730018828519831240B0640870BF1240D3645C
:104083000870B81240D3141240E7240AC0E0851820
:1040930082851983124610D0E01240E704023FBF25
:1040A300851882851983A3E0F5838882221240B4A0
:1040B3002212458DC81240BDE0222406F582E43861
:1040C300F583228518828519831240B4C3940A228A
:1040D300851882851983123344A3E0221240F1F537
:1040E300838882221240F1C824061243CE22F0852F
:1040F300188285198312458D22A8A8C2AF901AA0F1
:10410300E004F0E8A2E792AF22C082C083901AB025
:10411300124F9860081240AA1205668002790002C5
:1041230046AB74F71203EEEAFEEBFF12310C740197
:104133001247471259D51230E8243512473FC0E0E1
:10414300EE2413F582E43FF583D0E0F0EE2436123B
:10415300473FC0E0EE2414F582E43FF583D0E0F05E
:10416300EE243812473FC0E0EE2418F582E43FF511
:1041730083D0E0F0EE242FF582E43FF58312071895
:104183001241A6EE243112473FF91225F9740212A7
:10419300091EE9F5087007EEFAEFFB1224D9A90806
:1041A300024C07EE2426FCE43FFD22C082C08312AA
:1041B30025A5E960047920800279010246ABC0821B
:1041C300C083EA24111241D2D2E0800DEA240DF516
:1041D30082E43BF583E022F0A3F00246ABC082C049
:1041E300831241CF6401701112426E400C8A828B9C
:1041F30083A3E0F912259F806FEA24101241D2A213
:10420300E650128A828B83A3E0F9901AAA12461011
:1042130012056680531241CF6401700D12426E5035
:10422300088A828B83743080368A828B83A3E0640E
:104233001B8A828B83700474228024A3E0700D1286
:1042430041CFF874A61250DA342E800B1241CFF806
:1042530074B11250DA342EF583E4938A828B83F09F
:10426300901B01E0F91211DD0246ABEA2410F5823E
:10427300E43BF583E0A2E32274F71203EEE9FE12B6
:104283004F95700302439DEE6011741B6E7013E033
:10429300C81243A06405700302436B1243A6E402F1
:1042A300436F74E96E70611243C6700B1219ABE968
:1042B30060051243E1606179EE120F49901AA21270
:1042C30043C3901AA2603A1243E4901AA2700B12ED
:1042D30043C314F01210FF02439D1243D6C2E712E8
:1042E30045731243A06403700B125C9024111243B4
:1042F300A2D2E2F079ED120F491243B6120566809D
:10430300751243A974E9806474E16E703E1219ABAF
:10431300E960551243E170509004CAE0C0E0125CBA
:10432300902412F582E438F583D0E0F09004B9E0EC
:10433300C0E0901AA21243B21243B2D0E0F090044C
:10434300B9E004F079011210E7804F741C6E701805
:10435300901AA21253EA901AB212461012056690EE
:104363001AA2E4F0A3F080321243A6EEF0901AA250
:104373001253EA1224C7124554E05480601090048B
:10438300D0E0F91210039004CFE0F9120FF7901A5E
:10439300A2E4F0A3F07910122599024C07240D1220
:1043A30043CE22901AA21243AD22124618A3221220
:1043B3004EDC22901AA21253EE901AA61246142231
:1043C300E0F8A3E0C824121243CE22F582E438F5C4
:1043D30083E022E0F8A3E0C824101243CE22901A0F
:1043E300A212455BE054042274F41203EE750A0032
:1043F300750B00A2AFE433FEC2AF124F9560030208
:1044030044E012460D120566E94410F8901A9980AB
:104413000985080A85090B12452A124540700302D3
:1044230044E012360A586870E8780A1208F0AC08BB
:10443300AD097A997B1A121207740212091E901A97
:10444300A2E508F0A3E509124573124537500302AC
:1044530044E7901AA0E014F0EEA2E092AF901AA203
:10446300E0240EF8A3E03400F9E8FEE9FF8E828F22
:10447300831253EA901AA21240D9F912248BE990BD
:104483001A9DF0A3125EB2E054806018125C90246F
:10449300131243A2F9121003125C9024141243A2C4
:1044A300F9120FF7124554A3E05401605F901A9D6F
:1044B300124F98604512456A604012456AF87900C8
:1044C300901A9D1253EA1202A6E8C0E0124548D0A2
:1044D300E0124578C3941340117402800FEEA2E0FA
:1044E30092AF8037901A9F0244587400C0E0901A2C
:1044F300A3E0C8124521D0E0800D12454874011293
:1045030045731245217401F07903800C901AA212AD
:1045130043D6A2E1B3E433F91210E7022F7D241A44
:10452300F582E438F58322E50824FBF582E50934B6
:10453300FFF583221259071243D1A2E722122F5902
:10454300E508450922125CB82419F582E438F5839D
:1045530022901AA212455B2212458DC8124563228E
:1045630012593138F58322125CB824181243CE2233
:10457300124585C822124585F5838882A3A3A3A388
:10458300E022F0901AA212458D22E0F8A3E02274F3
:10459300F71203EEEAFEEBFF1225C912473CA2E332
:1045A300400A1239D270059087BC80039087BDE022
:1045B300F9EEFCEFFD7A997B1A12120DE96037EEE2
:1045C300FAEFFB901AAC124610120566EE240E1297
:1045D300473F540470111240FC124609A3E05401F2
:1045E30070211224D3801CEEFAEFFB901AA412461A
:1045F30010120566800D8E828F83A374F1124B44D3
:104603001224C7024C071259DD22901AAE12461427
:104613002212461822E0F8A3E0F58388822202469C
:10462300A474F71203EEEAFEEBFF7900901B06E099
:104633005402700CEE243312473F5404600279E8AD
:10464300901B06E05460700CEE243312473F540273
:10465300600279E88E828F83A3A3A3A3E0F89087F7
:10466300C2E0C398500279E8EE243112473F700C40
:10467300EE242E12473F700479F5800BE970051282
:1046830024B5E9F9E96007EEFAEFFB12259F024C26
:1046930007C082C0838A828B83740DF012199F80B6
:1046A30007C082C0831224D3D083D0820208D0747F
:1046B300F41203EEEAFEEBFF8E828F83E4F0A31283
:1046C300474754049087BC7012E0F8901AA0E0C3E7
:1046D30098401279F112259F022F7DE0F8901A9FDE
:1046E300E0C39850EE12474DA3E054016039EE2425
:1046F3003712473FC39405403CEE243312473F54DF
:104703000570327AB47B1A1226D1EE2437F582E48F
:104713003FF583122F3978081208E87AB47B1A120E
:1047230026C5740412091EEEFAEFFB901B01E0F993
:104733001211DD80A379E8809CEE2410F582E43F1A
:10474300F583E022F012474DE022EE2433F582E4B4
:104753003FF5832274F61203EEE9FE2451FAE434A2
:1047630000FB1211D1EA4B6015EE8A828B83A3A35F
:10477300A3A3F0EA2451124788124AA480047A00C2
:104783007B00025FC0F8E43BF98A828B83A3A322F8
:104793000246A4C082C083901ABD7427F0A3742577
:1047A300F0A37457F0A37425F0A3742DF0A374251C
:1047B300F0A37433F0A37425F0A37451F0A374250C
:1047C300F0A37445F0A37425F0A3743FF0A37425FC
:1047D300F0A3745DF0A37425F0A37463F0A37425B0
:1047E300F0A37469F0A37425F0A37475F0A3742582
:1047F300F0A37439F0A37425F0A37421F0A37425F6
:10480300F0A3741BF0A37425F0901AD9744BF0A392
:104813007425F0A3746FF0A37425F0A37489F0A337
:104823007426F0A3747BF0A37425F0A37481F0A322
:104833007425F0901AFDE4F0901B00F0901AE91231
:1048430048537402F0901AF212485374010241DC87
:104853007499F0A37425F0A32274F51203EE74F196
:104863001209B68518828519837402F07401120C3B
:1048730012E9F060047AFF7BFF7402120C12126AD1
:10488300397508F575091A750A0078081208EC7C61
:104893000B7D007407120C12AA82AB831211A17450
:1048A3000312091EAA18AB1912199F740F8005125F
:1048B30011A1740312091E7F0302060574F7120384
:1048C300EE74FD1209B6851882851983740AF07493
:1048D30001120C12E9F07402120C12EA1248F212DD
:1048E300199F023944851882851983EAF0A3EBF0F6
:1048F300AA18AB192274F61203EE74F71209B6EA7A
:10490300FEEBFF1249541231047402124A95AA189D
:10491300AB1912134BEE2431125A4C12495A8A82A4
:104923008B83E8F0A3E9124747125A711208F07417
:104933000212099679831A1AEFFB1225F9740212EF
:10494300091EE9F5087007EEFAEFFB1224D9025F9E
:10495300B91259DD740122FB8A828B8312496322C7
:10496300E024FFF8A3E034FFF92274F01203EE12FF
:1049730064F4120B9E7808790C1202FF780812086F
:10498300E87AEC7B1A022F6174F41203EE74C612F8
:1049930009B69004A8E0640F601085188285198316
:1049A300742E1248F21225AB80277AE37B1A122663
:1049B300D1122F8B1202A688088909E4F50AF50B98
:1049C30078081208E87AE37B1A1226C574041209E0
:1049D3001E743A022F7A74F51203EEEAFEEBFF8E91
:1049E300828F83A3E0F86003024A7EEE24301247ED
:1049F3003F64026007E06403600278E8EE2426F572
:104A030082E43FF583122F84400478E88070E870D5
:104A13006AEE2426FAE43FFB79E1120FC7EE243154
:104A2300FAE43FFB7950120FC7EE243012473F647C
:104A3300027014EE2428F582E43FF583125F31906F
:104A430004B7124AA480129004B774FEF0A30412B0
:104A53004A957AAE7B04121357EE241B123D621261
:104A630008EC7C0B7D007AF57B1A1211A1740312FA
:104A7300091EEEFAEFFB122515E9F8E86011E88E3E
:104A8300828F83A3125EB37417124B441225AB02B9
:104A930048BAF0EE2428FCE43FFD22125F35901B58
:104AA3007E124AA822E8F0A3E9F02274F61203EE7C
:104AB30074F71209B6901B00E0703B7401F0F91211
:104AC30010B1AA18AB191225DB7508F575091A7808
:104AD300081208F075080175090078081208F090AB
:104AE30004BD12071874061209967A037905122574
:104AF300FF740612091E025FBB74F71203EEEAFE8F
:104B0300EBFF79011210B78E828F83E0642070046B
:104B1300A374EBF0901B00E0A2E25003C2E2F0E0CA
:104B2300A2E15008124D5A12250F800C8E828F83FA
:104B3300742A124B441225AB024C078E828F837466
:104B43002CF0EEFAEFFB2274F41203EE74FE12095A
:104B5300B6EAFEEBFF79011210B77AE37B1A12264D
:104B6300D17AEC7B1A1226D1124EA48518828519AC
:104B730083124ED2E0F50B7011AA18AB19795312B8
:104B83000FC7124BCF794A120FC7123D5F1208ECC1
:104B93007C0B7D007AF57B1A1211A1740312091E96
:104BA3008518828519831253EAA90B122509901BD4
:104BB30000E0A2E1500C7A008E828F83A3E0F91209
:104BC300250F901B00E4F07402022F7AEE2413FAEF
:104BD300E43FFB2274F71203EEEAFEEBFF8E828FB3
:104BE30083A374EBF0901B00E0A2E150077A0079F5
:104BF300EB12250FEEFAEFFB1225458007EEFAEFD5
:104C0300FB1226477F0102060574F71203EEEAFE44
:104C1300EBFF79011210B77AE37B1A1226D17AECF3
:104C23007B1A1226D1901AFDE4F0901B00F07AFF54
:104C33007BFF8E828F83A3E0F912250980C674F768
:104C43001203EEEAFEEBFF12253F80B174F7120365
:104C5300EEEAFEEBFF79011210B78E828F83A3A3D6
:104C6300A3A3E060047400800274EB124CA1500310
:104C7300C2E2F0E0A2E15008124DA312250F801406
:104C8300A2E050108E828F83742AF0A374EB124B30
:104C9300441225ABEEFAEFFB1224EB024C078E8293
:104CA3008F83A3F0901B00E0A2E22274F61203EEBE
:104CB300EAFEEBFF901B00E0D2E1F079011210B1A4
:104CC3008E828F83A3E0703C1225E1E9FAEE240D76
:104CD300F508E43FF50978081208F075080175092D
:104CE3000078081208F0124D18120718EE2402FC7F
:104CF300E43FFD79051225FF740612091EE98E8231
:104D03008F83A3F08E828F83A3E060067A00F9126B
:104D1300250F025FC0124D1C22EE240BF582E43FE7
:104D2300F5832274F71203EEEAFEEBFF790112100A
:104D3300B78E828F83E064207004A374EBF0901B22
:104D430000E0A2E25003C2E2F0E0A2E15006124DFD
:104D53005A12250F024C07C2E1F07A008E828F832C
:104D6300A3E0F92274F71203EEEAFEEBFF790112D6
:104D730010B77AE37B1A1226D18E828F83A3A3A363
:104D8300A3E060047400800274EB124CA15003C2D0
:104D9300E2F0E0A2E15006124DA312250F024C9758
:104DA300C2E1123AA4A3E0A2E4E433FA8E828F8331
:104DB300A3E0F92274F71203EEEAFEEBFF79011286
:104DC30010B78E828F83A374EB124CA65003C2E2FA
:104DD300F0E0A2E15006124D5A12250F024C07745F
:104DE300F71203EEEAFEEBFF7AE37B1A1226D1EE0B
:104DF300FAEFFB122569024C0074F71203EEEAFE88
:104E0300EBFF7AE37B1A1226D1EEFAEFFB12256948
:104E1300024C0774F71203EE74EF1209B6EAFEEBC5
:104E2300FF125C6E7AAE7B04121345E9606285184B
:104E3300828519837409F07401120C1274EFF01255
:104E43004EA4F87402120C12E8124ED2A3A3E0C0CF
:104E5300E07404120C12D0E0124EBF640870158E79
:104E6300828F83A3A3124E98E0C0E07405120C1244
:104E7300D0E080067405120C12E4125CA0740612D2
:104E83000C12AA82AB83122611AA18AB1912199F0E
:104E93007411023946125CBB2407F582E438F583AA
:104EA30022EE124EB6125F3588828983E0FCA3E0BE
:104EB300F9EC22125A5AFB8A828B8322124EC322A6
:104EC300124EC8E022F08E828F83A3A3A3A322F005
:104ED300A3E9124EEB124EDC22124EE022E0F8A3BD
:104EE300E0F5838882A3A322F08A828B8322C08287
:104EF300C0831226530246ABC082C083901B1D742D
:104F0300BDF0A3741AF0A374D9F0A3741AF0901C23
:104F13006274FAF0A3742BF0A374D4F0A3742AF090
:104F2300901B097403F0A37425F0901B06E0440161
:104F33000241DCC082C083EAFCEBFD79021225B793
:104F43000246AB74F61203EE74FE1209B6901B020E
:104F5300124F9860077A027B1B1225CF901B08E43F
:104F6300F09017A1124F9860248007AA18AB19126A
:104F730025CF901B01E0F91211E98A088B09A808D3
:104F8300A909851882851983123B8170DE74020298
:104F93005FBD901AA2125F35E8492274F71203EE3F
:104FA300E9FA7B00901B01E0F9121213024C07741B
:104FB300F71203EE74F01209B6EAFCEBFDE9FE8C7E
:104FC300828D83E0F874DD1250DA342EF583E49396
:104FD300C0E07401120C12D0E0F0640B700DEE8C83
:104FE300828D83A3F01226350250D5E07003025060
:104FF300D5640C60030250C6741A6E700B740412ED
:105003000C12E4F0A30250C57404120C12ECF0A3CA
:10501300EDF0EC2432F582E43DF583E0C0E0740367
:10502300120C12D0E0126213120BEF7406120C1260
:10503300120BE38C828D83125F28740A120C12E820
:10504300F0A3E91250DFE054106009851882851936
:1050530083E48017EC2412F582E43DF583E0F890B5
:1050630004CAE0C398851882851983F0E0C0E07410
:105073000C120C12D0E0F0EC2415F582E43DF5831C
:10508300E0C0E0740D120C12D0E0F0EC2416F582AF
:10509300E43DF583E0C0E0740E120C12D0E0F0ECB6
:1050A3002417F582E43DF583E0C0E0740F120C127F
:1050B300D0E01250DFA3E0540160087401120C1217
:1050C3007411F07402120C12EEF0740112098E12B4
:1050D300199F741002394628F582E422F0EC125924
:1050E300313DF58322C082C083901B08E0640370C6
:1050F300047901800279000246AB74F71203EE9043
:105103001B08E0125178746028F582741C39F5830A
:10511300125663C2E7F012517FA3E493FE25E0FC2D
:10512300E433FD74602CF582741C3D1259E5EC4D9B
:105133006005EE901B08F08A828B83E025E0FCE497
:1051430033FDE82CF582E93DF583E493FCC4540F69
:1051530025E0F874171250DA341BF583124F987058
:1051630005122623800CEC540F12517F12461012A5
:105173000566024C0725E0F8E433F92225E0FCE854
:105183002CF582E439F5832274F21203EE74FE12D5
:1051930009B6890B8A088B09125279FA7B0012111E
:1051A300D18A0C8B0DAE0CAF0DEE4F602E8E828F1D
:1051B30083E50BF0A3E4F0F50A78081208EC125229
:1051C300861230DAFB1211A1740312091EEEFAEFF4
:1051D300FB901B01E0F91211DD80128518828519FD
:1051E30083E50BF0791AAA18AB1912259F023579BA
:1051F30074F01203EE74FE1209B6890B8A0E8B0F3C
:10520300125279F508FA7B001211D18A0C8B0DAE7C
:105213000CAF0DEE4F60468E828F83E50BF0A3E457
:10522300F0A808EE28F8E43FF98E828F83A3A31237
:105233005298850E08850F09F50A78081208EC12B2
:1052430052861234F71211A1740312091EEEFAEFFB
:10525300FB901B01E0F91211DD790080148518829F
:10526300851983E50BF0791AAA18AB1912259F79D2
:105273001A7402022F6674D229F582E4342EF58360
:10528300E49322A80B74BC1250DA342EF583E49312
:10529300FC7D00EE22124AA88E828F83A3A3A3A3D0
:1052A300E4F022C082C083E9901B010241DC74F662
:1052B3001203EE74FE1209B6EAFEEBFFEE54207001
:1052C300308039A8A8C2AF901AA1E0141241058A10
:1052D300828B831253DA901B04126A391225AB8531
:1052E3001882851983E0641560077A047B1B1225F5
:1052F300CF7A9B7B1A1211FBEA4B70C7EF54807075
:1053030012801C901B04126A391225AB7A047B1B92
:105313001225CF901B01E0F91211E9EA4B70E4EE7C
:105323005410600E851882851983742D1248F21269
:1053330025ABEEA2E0500E851882851983742412E2
:1053430048F21225ABEE5402600E8518828519834C
:1053530074251248F21225ABEE5404600E851882B0
:1053630085198374261248F21225ABEE5408600E99
:1053730085188285198374281248F21225ABEE54DE
:105383004060107401120C121253F4742C1248F280
:105393001225ABEE548060107401120C121253F4F8
:1053A300742F1248F21225AB901B02124F98602003
:1053B300A8A8C2AF901B021253EA901B02E4F0A309
:1053C300124105126A381225AB7A047B1B1225CFD2
:1053D3007A007B00024F901253DE22E0851882850B
:1053E3001983F022901A801253EE22E0FAA3E0FB15
:1053F30022E41253F922F085188285198322C08290
:10540300C083901B04125F31EA687002EB69700776
:10541300901B04E4F0A3F00246AB74F71203EEEA28
:10542300FEEBFFEE4F7003120D63A2AFE433F508FA
:10543300C2AF8E828F83124F986028E824FBFAE96B
:1054430034FFFB901B041259E7E86C7002E96D709E
:1054530007901B04E4F0A3F08E828F83E4F0A3F0A3
:1054630012126702379BC082C083901B2B7417F004
:10547300A37426F0A37429F0A37426F0A3742FF069
:10548300A37426F0A374E5F0A37424F0A37435F099
:10549300A37426F0A374DFF0A37424F0A374EBF0D9
:1054A300A37424F0901B397465F0A37426F0A374DD
:1054B3003BF0A37426F0A37441F0A37426F0A37405
:1054C3004DF0A37426F0A37447F0A37426F0901B49
:1054D3002AE40241DCC082C0839004B7E064FE701A
:1054E30003A3E0F470097CAE7D0412134B801C8A85
:1054F300828B83A3A3A3A3A3A3A3A37402F0900407
:10550300B7125F318A828B83124AA40246ABC082F0
:10551300C0839004C1C3E094FEA3E094FF400479E8
:1055230003800279020246ABC082C08312566C8CA0
:10553300828D83125621687039740268701C8A82C6
:105543008B8312557AE06870298A828B83A3125564
:105553007AA3E068701C7901801A7403687013ECF5
:105563002405FC50010DEA2405FA50010B121351D6
:10557300800279000246ABA3A3A3A3A3E0F88C8225
:105583008D83A3A3A3A3A32274F61203EE7E007458
:105593000A120C12E0125615FF8A828B83A3A3A36F
:1055A300A3A3A3A3A3E06F706474026F704E8A82F7
:1055B3008B83C082C08388828983A3A3A3A3A3E030
:1055C300F50888828983A3A3A3A3A3A3E0FBAA0866
:1055D300D083D082E06A7003A3E06B703088828945
:1055E30083A3A3A3E0FA88828983A3A3A3A3E0F9F7
:1055F300EA6C7002E96D70157E01801174036F709F
:105603000CE82405FCE439FD121351E9FEEEF9021E
:105613005FC0F8A3E0F98882898312562122A3E0B0
:105623001313543F540322C082C0838A828B83A303
:10563300A3A3A3A3A3A3A3E0640270169004B712C9
:105643005663687003A3E06970047901800F7900E1
:10565300800BEAFCEBFD7AAE7B041213450246ABEA
:10566300125F358A828B83E0228A828B83125621D2
:10567300F82274F01203EE74FC1209B6E98518825D
:10568300851983F07402120C12ECF0A3EDF08A0A70
:105693008B0B7508007402120C12122F30C0E074C9
:1056A30001120C12D0E0125921A2E75008750EFF27
:1056B300750FFF800A9004BDE0F50EA3E0F50F859A
:1056C3001882851983E0C2E7125926542060071215
:1056D30058F3740880041258F3E4125926540460F2
:1056E300071258FE748080051258FE741012592652
:1056F300541060061258DDE4800B9004CAE0C0E049
:105703001258DDD0E0125926A2E050037508205448
:1057130008600674104508F5088A828B83A3A3E00A
:1057230024FFFEA3E034FFFFEA1258E8C39402E02B
:10573300400F640B6009E0148E828F831259177433
:10574300034508F5087509009004DDE06401701154
:105753008A828B83A3A3A3A3E0C394674003750941
:1057630010851882851983E0F50C750D00740E7889
:105773000C120AE2E50D4509F509E064027019907F
:1057830004C2126208F09004C1E0C0E01234FED0FB
:10579300E0F0EE24FEFE801CE06403701DEE24F9AD
:1057A300FEEF34FFFF7CD17D04EEFAEFFB121357BB
:1057B300EE24FF1EEF34FFFF8003E0602F7401121D
:1057C3000C12E060187414120C12E0650E7004A33E
:1057D300E0650F700874404508F508800F8E828FCE
:1057E30083E50FF01234FEE50E12590D7401120C0D
:1057F30012E0F50C750D00740A780C120AE2E50D3F
:105803004509F509E0640270237402120C12126058
:105813007C8E828F83F07402120C1212361BC0E04E
:105823001234FED0E0F0EE24FEFE8020E06403702C
:1058330021EE24F9FEEF34FFFF7402120C12125909
:10584300E7EEFAEFFB121357EE24FF1EEF34FFFFD0
:105853008003E060197414120C12126207F07414BE
:10586300120C12E0C0E01234FED0E012590DEEF833
:10587300EFF9E824FF1EE934FFFFE50A1258E87048
:10588300059004AD80039004B9E0FA04F0EA88823D
:105893008983125EB3E5091259178E828F83E50857
:1058A300F0E50A2404F8E4350BF9E50A2402FAE4E6
:1058B300350BFBEEFC8A828B83E0F50888828983B3
:1058C300E02508C39C124EEBEEF0A3EFF0850A82AD
:1058D300850B83A3E4F0F9022F64EA2412F582E432
:1058E300350BF58322240DF582E4350BF583E02295
:1058F300EA2410F582E4350BF58322EA12590735C1
:105903000BF583222411F582E422F0EE24FEFEEF50
:1059130034FFFF22F0EE24FF1EEF34FFFF22125369
:10592300F9E022F0EA125931350BF583E022240E17
:10593300F582E42274F11203EE74FE1209B685189F
:1059430082851983ECF0A3EDF0890B8A0E750A1A90
:105953007415120C121268901224858A0C8B0DAEEA
:105963000CAF0DEE4F605F7413120C12E01259D599
:10597300E8F0A3E9123107E50BF0750A0078081285
:1059830008EC1234F21211A1740312091E741112DD
:105993000C121207187402120C121259E7A90EEE18
:1059A300FAEFFB1225F9740212091EE9F50A7016C3
:1059B300E50B24F96003147006123722D2E5F0EEEA
:1059C300FAEFFB1224D9A90A740212091E7F0702F7
:1059D3000605F8A3E0F91259DD22EE1259313FF51D
:1059E3008322F583E0FCA3E0FD2274F61203EE7438
:1059F300F71209B6EAFEEBFF7801EE243212473FB5
:105A030060027805124609E81231047404125A64DC
:105A130012134BEE242F125A4C1230E0243112474A
:105A23003F125A711208F0740212099679031A1A76
:105A3300EFFB1225F9740212091EE9F5087007EE4F
:105A4300FAEFFB1224D9025FB9F582E43FF5831222
:105A53002F59EE125A5A222402F8E43FF9E8FAE9E0
:105A630022F0EE2426FCE43FFDAA18AB192288821B
:105A73008983124EC304F078082274F21203EE8A6B
:105A8300088B09ECFEEDFF8A828B837405F0EE240C
:105A93003212473F8A828B83A3A3F0EA2403F50AD9
:105AA300E43509F50B850A82F583E0F50CA3E0F5EF
:105AB3000DEE2425F582E43FF583120BEFE50C127E
:105AC3005907350DF583120BE3125C6EAA0CAB0D6F
:105AD30012134B850A82850B83126081FAA3E0FBC4
:105AE30088828983A3A3A3126A33EE242F12473F2C
:105AF300C0E0125C76D0E0125CAD2415F582E43888
:105B0300F583E4125CAD124563E4125CA0850A825E
:105B1300850B83E02416FAA3E03400FB1226118ED2
:105B2300828F83A3A3A3A3A3A3A3E0C0E0850A82D8
:105B3300850B83125C93240DF582E438F583D0E062
:105B4300125C97FAA3E0FB850A82850B83125F310F
:105B5300E8240BFCE439FD8A828B83E08C828D83FD
:105B6300F0A3E4125CC0E0F50B8C828D83A3E045C7
:105B73000B125CC0A3E0FCEA2403FA50010BECA275
:105B8300E7E433C0E0E8240FF582E439F583D0E09D
:105B9300F074075C600478018002780075F0037488
:105BA300075CA428F8EA28FAE43BFBE5082405F897
:105BB300E43509F98A828B83E088828983125CC089
:105BC300AA82AB83850882850983126A3388828916
:105BD30083E0F50A25E0540EFCE50AC4540FF50AE8
:105BE300750B007403780A120AE2E50A5438F8ECDC
:105BF30028F8EA28F8E43BF9850882850983A3A3FA
:105C0300A3A3A3A3A3A3A3E8F0A3E9124EBFFA8E11
:105C1300828F83A3A3E02AFAA3E03400FBC3EA98AC
:105C2300EB9940288E828F83A3A3E0F885088285B1
:105C33000983A3A3A3A3A3A3A3A3A3125C84C39ACB
:105C430028850882850983A3A3A3801685088285F6
:105C53000983A3A3A3A3A3A3A3A3E4F08508828535
:105C63000983A3A3A3A3A3F002357EEE2413FCE4CC
:105C73003FFD22125C7A22E82410F582E439F58391
:105C830022E0FA8E828F83A3A3A3A3E022901AA219
:105C9300125CBB22F08E828F83A3A3E022125CA44A
:105CA30022F0EE2408FCE43FFD22F0850A82850BF6
:105CB30083125CBB22901AA212458DC822124EEBAE
:105CC300A32274F51203EE8C088D09750A00780877
:105CD3001208EC7C0B7D000248B20208D0C082C0DF
:105CE30083791812259F0246ABC082C0838A828BB8
:105CF30083E0C3940B500312261D0246ABC082C03F
:105D030083791980DE74F71203EEEAFEEBFF901B32
:105D130002124F986010901B021253EA1226297A3E
:105D2300027B1B1225CFEEFAEFFB1225C9901B0253
:105D3300EEF0A3EFF0024C0774F71203EE74DE12D9
:105D430009B6EAFEEBFF8E828F83E024FD60112407
:105D5300FE601524ED600924FA600D14600A803D8D
:105D63007416120C12E480077416120C127401F0EC
:105D73001241A6740B120C12AA82AB83121357742E
:105D830013120C12125E16120C12124AA4740A1287
:105D93000C12125E22120C12124AA48041741612C3
:105DA3000C127402F0125C6E740B120C12AA82AB0A
:105DB300831213577413120C12125E16120C121262
:105DC3004AA4740A120C12125E22120C12E8F0A3F7
:105DD300E9125E10120C12AA82AB831226118518E7
:105DE30082851983740B125EB3A3E0C0E0740112C1
:105DF3000C12D0E0125E10120C12AA82AB83122690
:105E030011AA18AB1912199F7422023946125CA405
:105E13007417227403F09004C1125F357402227464
:105E230002F09004BD125F3574142274F71203EE6E
:105E3300EAFEEBFF8E828F83A3E0F5087036EE2433
:105E43002F125EA37003A3E06960037508E8EE24D4
:105E530026FAE43FFB1225F3E96032EE2432F582A1
:105E6300E43FF583E4F0E508700AEEFAEFFB12264F
:105E730005E9F508E50860128E828F83A3E5081211
:105E83005EB37419124B441225AB024C07EE243255
:105E930012473F60D1901B29E070CB7508E880D88A
:105EA300F582E43FF583125F359004BDE06822E498
:105EB300F08E828F8322C082C08374F11209B6747C
:105EC30002120C127404125CC0E0C0E07403120CE2
:105ED30012D0E0F0EA242FF582E43BF583125F3120
:105EE300740D120C12124AA4EA2426FCE43BFD743E
:105EF30004120C12AA82AB8312134B7404120C12F9
:105F0300AA82AB831225F3E9600E125F3A120FC720
:105F13009004B774FFF0A3F0740212098E12199F54
:105F2300740F023E45A3A3A3A3A3A3A3A3A3125F3A
:105F3300352212458DF92285188285198374FFF065
:105F4300A3F0AA18AB1979532274F61203EE74E87E
:105F53001209B6EAFEEBFF7402120C127403F0EEA0
:105F63002413F508E43FF509AC08FD7404120C1280
:105F7300AA82AB83121357123615C0E0740C120CAD
:105F830012D0E0125CA0740D120C12AA82AB831221
:105F93002611AA08AB091225F3E9600E125F3A1223
:105FA3000FC79004B774FFF0A3F0740212098E12A6
:105FB300199F74188004A908740912091E7F02022C
:105FC300060574F61203EE74D41209B6EAFEEBFF6B
:105FD3008E828F83A3A312607CA2E650179004BD28
:105FE300126081687003A3E0697009901B2AE06066
:105FF30048122653740B1209867403120C121230C2
:10600300E8FCEFFDAA18AB1912260B851882851937
:1060130083742B1248F21225AB9004A2E06008743B
:1060230008120C12E0600E8518828519837405121C
:1060330048F212199F742C80819004C6E060B51257
:106043004BCF1225F3E970ACEE2408F508E43FF5D5
:106053000978081208F07508017509007808120814
:10606300F09004BD1207187CAE7D047A0379061202
:1060730025FF740612091E80BC1243ADE022125F95
:1060830035123D55E022C082C08374EF1209B685F4
:1060930018828519837409F07401120C1274EE12BC
:1060A30048F212199F023E4374F71203EEA2AFE4C3
:1060B30033FFC2AFE96003120FB5120F439004D050
:1060C300E0F91210039004CFE0F9120FF7901B2AA6
:1060D300E0F9120FDF9004BD1253EA120FE59004AA
:1060E300C11253EA120FEB7AD17B04120FF17E0037
:1060F30012612F124F98600912612F124610120578
:10610300660EEEC3940740E81226A1122593901B56
:1061130043E4F012247F1225D57AC07B047952120E
:106123000FC7EFA2E092AF7900024C07EE1251784D
:10613300740928F582741B39F583221225B10246AE
:10614300ABC082C083901B447471F0A37426F0A388
:10615300748FF0A37426F0A37495F0A37426F0A3B0
:106163007477F0A37426F0A37483F0A37426F0A3CA
:10617300747DF0A37426F0901B17742BF0A3741B8B
:10618300F0A37439F0A3741BF0A37444F0A3741B3D
:10619300F0901B06E4F0A3F0120F3D0246AB020899
:1061A300D074F71203EEEAFEEBFF8E828F8374073F
:1061B30012620E126208A3A312620EA3126207A355
:1061C300A3A3F08C828D83A3A3120BEF8E828F8304
:1061D300A3A3A3A3120BE38E828F83A3A3A3A3A3DF
:1061E300A3A3A3E4F0EC2418F582E43DF583125F46
:1061F300318E828F83A3A3A3A3A3A3A3A3A3124A32
:10620300A4024C07A3E08E828F8322126213A3227F
:10621300F08C828D83A3A3A3A3A32274F41203EEB1
:10622300EAFEEBFF901B51125EB2A3A3A3A3A3A3A9
:10623300E0C394064006901B5174E8F08E828F836E
:10624300A3A3A3A3A3A3A3E0C3940F40158E828F9C
:1062530083A3A3A3A3A3A3E064036015901B5174BA
:10626300E8F08E828F83A3A3A3A3A3A3E0640370A8
:106273000E901B06E0A2E04006901B5174E8F0EE7E
:10628300FCEFFD7A507B1B12266B8E828F83A3A3B8
:106293007808120B9E740A780812096D901B6478B3
:1062A30008120B8F8E828F83A3A3A3A3A3A3A3E0C0
:1062B300901B68126358901B6912635D901B6A12EE
:1062C300633E901B6BF0EE240C12473F901B6CF067
:1062D300A3740AF09004D0E0901B6EF0901B61123F
:1062E300485374041263441208EC7C0B7D007A6FEC
:1062F3007B1B1211A1740312091E901B51E0702A1B
:106303008E828F83A3E07022901B52E06006901B65
:106313005174EAF0901B52E0F912100F8E828F83B2
:106323007426F079041210AB80078E828F83742950
:10633300F0EEFAEFFB1225AB022F7DF0124D1CE0BD
:1063430022F0EE240D12634C22F508E43FF50975A3
:106353000A00780822126363E022126363A3E02237
:10636300123AA8A3A3A32274F41203EE74F712093A
:10637300B6EAFEEBFF901B52E07030901B6DE064B9
:106383000A6028121021E9C0E0901B6DE0F8901B11
:1063930059E028F8A3E03400F9E824F5F582E9127E
:1063A3003504D0E0F0901B58E004F0901B647808AB
:1063B300120B9E7401780812096D901B6478081201
:1063C3000B8F901B6DE004F0E508A2E04006E0C3EC
:1063D300941E40D7E0641E70030264667A6D7B1BD3
:1063E30079E1120FC77408120C1274021253F57478
:1063F300FFF0A3F0901B52E0600464027009EEFA10
:10640300EFFB12267D8068E06401700679087A80CC
:10641300800479077A8375086F75091B7808120859
:10642300F0E4F508F50978081208F07508FF750916
:10643300FF78081208F074061209961225FF7406F5
:1064430012091EE9F874DB68601474E568600F7460
:10645300F368600A74DF68600574E8687011E89097
:106463001B51F08E828F837429124B441225AB0289
:106473002F7874F01203EE750801750900750A0090
:10648300750B00901B6DE0780812086E7808120BEC
:106493004F901B547808120ABC901B52E06403709F
:1064A3000F1264F4120B9E7808790C1202FF8035E8
:1064B300750801750900750A00750B00901B68E0EB
:1064C300780812086E9087EE7808120A9690888EE4
:1064D300780C120B9E7808790C1202FF901B52E085
:1064E300700312101B78081208E87A5B7B1B022FDB
:1064F300619004CB122F3D90888E780C2274F11298
:1065030003EE74D41209B68A088B09901B52E06417
:1065130002600DE064016008E0640560030265FA4F
:10652300901B51E4F0740B1209867403120C1212BF
:106533004AA4AC08AD09AA18AB1912260B901B6923
:10654300E0F8901B58E0C39850711269B1901B5842
:10655300E0F50A802D8E828F83125F287414120C4B
:1065630012E0687003A3E069700F740B120996EED2
:10657300FAEFFB121345E97042150AEE2421FE508F
:10658300010FE50A70CF740B120986880C890D750B
:106593000E00780C1208EC7C217D00901B58E08CD7
:1065A300F0A4F8A9F0A3E028FAA3E039FB1211A1A3
:1065B300740312091E901B58E004F09004A2E060DB
:1065C3000E7408120C12E07006901B69E07007AAA3
:1065D30018AB1912199F901B69E06021901B58E0BA
:1065E300F8901B69E0687015850882850983742912
:1065F300F0AA08AB09800312669D1225AB742C0226
:1066030059CD74F61203EE74FE1209B68A088B098B
:10661300EA241BF582E43509F583E064037072EA2A
:106623002424F582E43509F583E064037063EA24E6
:1066330013FAE43509FB794A120FC78508828509E5
:1066430083A31269B11266A950010FAA18AB197975
:1066530050120FC71266A950010FAA18AB19794B34
:10666300120FC7EEFAEFFB79E1120FC78E828F8309
:10667300A31266B8F0A3E9125F44120FC7901B512F
:10668300E4F08508828509837429F0AA08AB0980A0
:106693000312669D1225AB024F90901B5174E812B2
:1066A3004EEB7429F0228E828F831266B8124AA9A8
:1066B300EE2402FE22E0FAA3E0F9EA8518828519A6
:1066C3008322C082C0837A5B7B1B1226D1121015F2
:1066D30079041210B7901B52E064037006901B51AB
:1066E300E060097A6E7B1B79E1120FC77A507B1B3E
:1066F30002469FC082C08374F51209B6EAFCEBFD23
:10670300AA18AB1912266B7401120C1274FC1248EE
:10671300F212199F740B023E45C082C083790702AF
:10672300613EC082C083901B7AE4F0A3F0901B7C8F
:10673300F0A3F0901C6A126748901C6E1267489091
:106743001B7E0241DAF0A3F0A374FFF0A3E4F0226E
:1067530074F41203EE901B7EE4F0A3F0901B7A1204
:106763004F98602F901C6A7808120B9E126897123C
:106773000A0C501F120EC58A088B098C0A8D0B1246
:106783006897120A0C5006126897120B8F901B7AA7
:10679300124A9E901B7C124F98901B7E601E124FD4
:1067A30098601112688A120B9E901B7C12689A12D1
:1067B3000A0C500D901B7C124A9E8005124F986064
:1067C30021901C6A7808120B9E901B7E12689A1205
:1067D3000A0C500E901B7E1243B2120BD7120ED12D
:1067E3008003120ED7022F7D74F41203EEA2AFE4DE
:1067F30033FEC2AF901B7E124F9870030268821261
:10680300688A120B9E901C6A7808120A0C500B12AD
:106813000D63901B7E124F986065120EC58A088B1C
:10682300098C0A8D0B901B7E12689A12084F504FE9
:106833009088527808120B9E901B7E12689A120A57
:106843000C5003120D63901B7E1268901226D185A3
:106853000882850983A3A3A3A3A3A3A3A3E0F98524
:106863000882850983A3A3A3A3A3A3126AB1EEA2FB
:10687300E092AF120566A2AFE433FEC2AF8093EE9F
:10688300A2E092AF022F7D124EE3780822122F5915
:10689300AA08FB22901B7A124EDC78082274F012AD
:1068A30003EE8A088B098C0A8D0B7410120C12806C
:1068B3001C908852780C120B9E8E828F83A3A37830
:1068C3000C120A0C5003120D638E828F83123571E2
:1068D30060398E828F83A3A37808120A83901B7E6C
:1068E300125F31EE687002EF6970C6908852780CBF
:1068F300120B9E8E828F83A3A3780C120A0C50B1C5
:106903008E828F83A3A3122F2B80BE022F6974F371
:106913001203EEA2AFE433F50CC2AF901B7C1269F5
:10692300B2901B7A120718901C6A7808120B9E7893
:1069330008120B2EAA08AB09AC0AAD0B1226B374CE
:106943000212091E802F901C6A7808120B9E8E82F9
:106953008F83A3A37808120A0C4013901C6A78084B
:10696300120B9E8E828F83A3A37808120A498E820C
:106973008F831269B2EE4F70CD901C6E7808120BA4
:106983009E901C6A78081209F76015901C6E120B12
:10699300EF901C6A120BE3901C6A120BD7120EBF06
:1069A3001226A7E50CA2E092AF7F05020605A3E03D
:1069B300FEA3E0FF2274F01203EEA2AFE433FEC2A3
:1069C300AFECF8EDF9880C890D8C828D83800C85F2
:1069D3000E0C850F0D850E82850F83E0F50EA3E067
:1069E300F50FE50E450F601A850E82850F83A3A36D
:1069F3007808120B9E8A828B83A3A37808120A0C51
:106A030050CD850C82850D83126A398A828B83E58A
:106A13000EF0A3E50FF08C828D83125F31EA68706C
:106A230002EB6970031226A7EEA2E092AF022F6970
:106A3300A3A3A3A3A3A3EAF0A3EBF02274F412038A
:106A4300EEEAFEEBFF740C120C12C082C083120E2E
:106A5300C58A088B098C0A8D0BD083D082780812E3
:106A63000A968E828F83A3A37808120B8F7C7A7D7C
:106A73001BEEFAEFFB1226BF022F7D74F71203EE13
:106A8300EAFEEBFF8C828D83A882A983126AB1E5AB
:106A93008245836014EE65827003EF658370E912AB
:106AA3006AB9126A39790180027900024C071253DC
:106AB300EE8A828B83221253EE888289832274F7B3
:106AC3001203EEEAFEEBFFA2AFE433F508C2AF7C9C
:106AD3007A7D1B1226CBE9700B7C7C7D1BEEFAEFD3
:106AE300FB1226CB901B7E125F31EE687002EF69BA
:106AF30070031226A702379B74F41203EE74F81284
:106B030009B67508007F0090178FE4F07E79750A47
:106B1300088F0B780A1208F074021209967A007B28
:106B230000EEF9120D87740212091E851882851969
:106B330083E0F47003A3E0F4701390178FE0700404
:106B4300EEF080197A01EEF91212738010740412B8
:106B53000C12E0F47003A3E0F460028E080EEEC39F
:106B6300947F40AAE50890178F601FE0600FF91229
:106B7300127F7A007B00A9081212858014A90812DB
:106B8300127FE50890178FF08007E06004F9121276
:106B93007F7E79EFFC7A007B00EEF91212798B0B82
:106BA300EA450B60047F017E780EEEC3947F40E3D9
:106BB300EFA2E050147E797C007A007B00EEF9129C
:106BC30012790EEEC3947F40EE90178FE0703C7EF7
:106BD300007C00EC126C14127E4574F86A70037426
:106BE300076B7004ECFE8018EE126C1439F583C346
:106BF300E09AA3E09B5002ECFE0CECC3940640D356
:106C030074792E90178FF0F912127F79017408802E
:106C13001025E0F8E433F9748328F582741722749D
:106C23000212091E7F0402060574F71203EE74F8BC
:106C33001209B6EAFF851882851983E4F0A3F0EF01
:106C430060087402120C12E480077402120C1274AE
:106C5300FF1272917A007B001212A9740812091EA6
:106C63007F0102060574EE1203EE74F81209B68969
:106C73000C8A0E8B0F8C0D750808750900750A00B8
:106C8300750B0075100875110078101208F0740266
:106C9300120996AA08AB09A90C120D8774021209EE
:106CA3001E851882851983E0F47003A3E0F4700352
:106CB300026DF97402120C121270AD40067EFC7F55
:106CC300FF800612708BFEE9FF74F8C39508F87411
:106CD300079509F9C3E89EE99F5020E50A2400E5DA
:106CE3000B3408F50BC3E50A9508F50AE50B95097E
:106CF300F50B750800750908026DF9E5082408F518
:106D030008E43509F5098518828519831270A7707F
:106D130003026DD7E50E450F604AA80EE50F547FB9
:106D2300F9851882851983E0687003A3E06960031D
:106D3300026DE17406120C121279B0E50F548070E3
:106D43000F74FF68700374FF696003026DE1800DC7
:106D530074FF68700374FF697003026DE1AA08ABE6
:106D630009026E14AA08AB09A90C1212A38A108B8C
:106D730011A810A9117404120C12E0687003A3E0A7
:106D83006970467406120C121279B0E50D602A740C
:106D9300FF68700374FF697045851882851983E065
:106DA300FAA3E04480FB12128BEA4B60317C019022
:106DB3001790E0F9121297802574FF68700374FF2F
:106DC30069601B7AFF7BFF80487C01AA08AB09A995
:106DD3000C121297EE2408F8E43FF91275F8E5084F
:106DE3002EF508E5093FF509C3E50894F8E509948C
:106DF300075003026C86A80CE828127098E508F087
:106E0300A3E509126E40E50AF0A3E50BF07A007BD7
:106E13000074088002740412091E7F0A02060574B6
:106E2300F71203EEE9FE120D93EE2E12709874081A
:106E3300F0A3E4126E40E4F0A3F0026C63F07491EB
:106E430028F582741639F5832274EE1203EE74F773
:106E53001209B689088A0A8B0B7E007F00750C0124
:106E6300750D00780C1208F07402120996EEFAEF11
:106E7300FB90178FE0F9120D87740212091E851813
:106E830082851983E0F4600D90178FE0F912127F69
:106E930079000270860EEE70010FC3EF940840BDB7
:106EA3007E087F007401F090178FE0127096E0F572
:106EB3000EA3E0F50F750C08750D00780C1208F0A1
:106EC3007403120996EEFAEFFBA908120D877402F8
:106ED30012091E7401120C12E0F47003A3E0F470A3
:106EE300030270467403120C121270AD4008750C45
:106EF300FC750DFF800812708BF50CE9F50D74F825
:106F0300C39EF874079FF9C3E8950CE9950D5003E8
:106F130002704674F8C3950EF87407950FF9C3E829
:106F2300950CE9950D5003027059EE2408FEE43FD9
:106F3300FF7401120C121270A770030270327401F5
:106F4300120C12E0650A7004A3E0650B7003027073
:106F530032EEFAEFFBA9081212A38A108B11A810C4
:106F6300A9117405120C12E0687003A3E0696003B1
:106F73000270327407120C12E0F47003A3E0F47091
:106F83000B7C00EEFAEFFBA9081212977509007843
:106F9300091208F4E4F510F51178101208F07406DC
:106FA300120C121279A17404120C12127E4890175B
:106FB3008FE0F91212C1740312091EE97003027003
:106FC30059E50E2408F50EE4350FF50F780C120879
:106FD300F0780E1208F090178FE0FCEEFAEFFBA9A1
:106FE300081212BB740412091E7403120C121270DD
:106FF300B81212A37405120C121279C97002EB6D48
:107003007054AA0EAB0F90178FE0F912129D8A10DD
:107013008B11A810A9117405120C12E0687003A358
:10702300E06970327401120C121270B81212CDEEB4
:10703300250CFEEF350DFFC3EE94F8EF94075003D4
:10704300026EAA851882851983E0701490178FE069
:10705300F912127F8025851882851983E4F080EC6C
:10706300E50A450B70157A0190178FE0F912127338
:10707300A90812127FE50890178FF08518828519E9
:1070830083E0F97409026E1AEC2403F8E43DF9E88D
:1070930054FC2225E0F8E433F9748528F58274164C
:1070A30039F583221279B4E849221279A1C3EC9409
:1070B300FCED94FF221279A1AA0EAB0F90178FE07B
:1070C300F92274F41203EEEAFEEB800374804FFF9F
:1070D3007508797C00EEFAEFFBA908121279EA4BE6
:1070E3006008E508901790F080150508E508C3943B
:1070F3007F40E0EF548060D4901790E4F0FAFB02F5
:107103006C2774EE1203EE74F61209B6890A8A0C20
:107113008B0D8C088D09C3EC94F4ED94FF400E8520
:10712300188285198374FCF0A374FF8019EC24037F
:10713300F8E43509F9E854FC24085001098518825C
:10714300851983F0A3E9F07F007C0690178FE00494
:10715300FEEEC3947F40027E7990178FE06E60301D
:1071630074872E25E0F8E433F9747728F5827417D1
:10717300127E45E4C39AFA74089BFB748328F58254
:10718300741739F583E02AFAA3E03B12727A5008A8
:107193000E1CEC70BC027273EC7003027273741CED
:1071A300120C12E0F50EA3E0F50FEE1270961279B1
:1071B300BAFA74089912727A400302725075100871
:1071C3008F1178101208F074041209967A007B006C
:1071D300EEF9120D87740212091E7406120C12E0E6
:1071E300F47003A3E0F4700B12728A7A04FBEEF9D5
:1071F3001212AFAA0CAB0DEEF9121285E96071E51C
:107203000AF50B780B1208F4780E1208F0AC08ADEF
:1072130009AA0CAB0D90178FE0F91212C174031277
:10722300091EE9600590178FE0FFE50A7009EE85F6
:107233000E82850F8380137A0190178FE0F9121263
:1072430073EEF912127FEE90178FF08023E50AF5A3
:107253000B780B1208F4780E1208F0AC08AA0CABEA
:107263000DEEF91212C1740312091EE96002EEFF5A
:10727300EFF9740A026E1AFB851882851983127955
:10728300B4C3EA98EB9922851882851983E4F0A3A5
:10729300F0AC18AD192274F21203EE74F81209B6A9
:1072A30089098C08EA24F8F50AEB34FFF50B750C11
:1072B30008750D00780C1208F07402120996AA0AD8
:1072C300AB0B120D87740212091EE50870227406B7
:1072D300120C12E4F0A3F07404120C12AC82AD830E
:1072E300E50A2404FAE4350BFBA9091212A980313B
:1072F3007402120C12E02403F8A3E03400F9E8123C
:1073030079A712728AAA0AAB0BA9091212A9A809B2
:10731300E828F8E433F9749128F582741639127366
:107323002E740812091E7F06020605F583E02EF06F
:10733300A3E03FF02274F41203EE74FE1209B68543
:107343001882851983ECF0A3EDF08908EAFEEBFFC0
:10735300EE24FCFEEF34FFFFAC18AD19EEFAEFFBA1
:107363001212AF750A02750B00780A1208F0740244
:10737300120996EEFAEFFBA908120D87740212099F
:107383001E851882851983127E48026C2274F012BE
:1073930003EE74FC1209B6890C8A0A8B0BECFEED22
:1073A300FF750800750900EE2403F50EE43FF50FA1
:1073B3007402780E120BADAE0EAF0F1277746052DB
:1073C300750E04750F00780E1208F07402120996F8
:1073D300AA0AAB0BA90C120D87740212091EE50A47
:1073E3002404F50AE4350BF50B7800E8FA851882D6
:1073F300851983E5822AF582E43583F583E0FAE58E
:10740300082AF508E43509F50908E8C3940450ABE4
:1074130080D9AA08AB09740412091E7F0802060565
:1074230074F41203EEE9FE75080175090078081279
:1074330008F08A088B0974027808120BADEEF50A7E
:10744300750B007409780A120AE2E5082400FAE5CC
:1074530009350BFB120D8D026C2274F71203EE74C7
:10746300FC1209B68C828D83E0851882851983F01E
:107473008C828D83A3E0C0E07401120C12D0E0F083
:107483007402120C1274FFF07403120C1274FFF0E6
:10749300AC18AD191212A97404026C6074EE1203D5
:1074A300EE74FC1209B68909EAFEEBFF8C0C8D0D14
:1074B300EE5403F5087416120C12E0F50AA3E0F576
:1074C3000BE508606074FC5EFE750E04750F0078B2
:1074D3000E1208F07402120996EEFA120D87740266
:1074E30012091EE50C450D6028850A82850B83E091
:1074F300C0E0A8081275E7D0E01276030508E50C92
:1075030024FFF50CE50D34FFF50DE508C3940440A5
:10751300D2AC18AD19EEFAEFFBA9091212A9EE24A9
:1075230004FEE43FFFE50C5403F508850C0E850DBE
:107533000F7402780E120BAD850E0C850F0DE50C42
:10754300450D6048780C1208F0AC0AAD0B8E0E8F17
:107553000F7402780E120BADE509F5107511007466
:10756300097810120AE2E50E2400FAE50F3511FB43
:10757300120D8D740212091E7402780C120AE2A80D
:107583000CA90DEE28FEEF39FF1275F8E5086051DE
:10759300750C00750E04750F00780E1208F0740256
:1075A300120996EEFAEFFBA909120D87740212096C
:1075B3001E8015850A82850B83E0C0E0A80C127536
:1075C300E7D0E0127603050C85080D74FF250DF551
:1075D300080470DFAC18AD19EEFAEFFBA90912121B
:1075E300A9026E18851882851983E58228F582E43D
:1075F3003583F58322E50A28F50AE50B39F50B22D5
:10760300F0850A82850B83A385820A85830B227406
:10761300EE1203EE74FC1209B6890E8A0C8B0D8CE4
:107623000B7416120C121279C1E5085403F50A748F
:1076330018120C12E0FEA3E0FFE50A6072F8C3E53E
:107643000898F508E5099400F5097510047511000B
:1076530078101208F07402120996AA08AB09A90B54
:10766300120D87740212091EEE4F603375100178F4
:10767300101208F0A80A7402120C12127783120D6A
:1076830087740212091E050CE50C7002050D050A2C
:10769300EE24FF1EEF34FFFFE50AC3940440C9AC98
:1076A30018AD19AA08AB09A90B1212A9127768EE33
:1076B3005403F50A8E108F1174027810120BADAEBD
:1076C30010AF11803975100475110078101208F08D
:1076D3007402120996AA0CAB0DA90E120D8774023F
:1076E30012091EE50C2404F50CE4350DF50DAC1858
:1076F300AD19AA08AB09A90B1212A9127768127760
:107703007470C2E50A605B7E007510048E117810F8
:107713001208F07402120996AA08AB09A90B120DFC
:1077230087740212091E802375100178101208F065
:10773300EEF87402120C12127783120D8774021280
:10774300091E050CE50C7002050D0EAF0A74FF2F20
:10775300F50A0470D3AC18AD19AA08AB09A90B122A
:1077630012A9026E18E5082404F508E43509F509A1
:1077730022EEF8EFF9E824FF1EE934FFFFE849227F
:10778300E58228FCE43583FDAA0CAB0DA90E227417
:10779300EC1203EE74F81209B6890C8A0E8B0FEC07
:1077A300FEEDFFE929F508E433F50974852508F5AD
:1077B3001074163509F511851082F583E0F50AA3D7
:1077C300E0F50B750D00851882851983EAF0A3EBAC
:1077D300F07402120C12EEF0A3EFF0AC18AD19AA7C
:1077E3000AAB0B1212A9751208751300781212084E
:1077F300F07402120996AA0AAB0BA90C120D877436
:107803000212091E7402120C121279B085188285B5
:107813001983E0650E7004A3E0650F600302794EDF
:10782300EE687002EF69600302794E741E120C1247
:10783300E07003027929741C120C121279C18508B5
:1078430082F583EEF8EFF9E85403F50EE5824583FC
:107853007015E875F0FFA4F8AAF075F0FFE9A42A03
:10786300F9E8FAE9FB801F7A007B008009E0FCEA73
:107873002CFAE43BFBA3E8FCE9FDEC24FF18ED3410
:10788300FFF9EC4D70E7E50E601EF87404C398F839
:1078930095E0F9E875F0FFA4F8ACF075F0FFE9A402
:1078A3002CF9EA28FAEB39FB7404120C12EAF0A360
:1078B300EBF0E50A2408F50AE4350BF50BE508457A
:1078C30009601778081208F0EEFCEFFDAA0AAB0B6B
:1078D300A90C1212B5740212091EEEFCEFFDAA0ADE
:1078E300AB0BA90C1212A37404120C121279C970F7
:1078F30002EB6D7034AA0AAB0BA90C12129D8A0815
:107903008B09A808A9097404120C12E0687003A378
:10791300E06970158518828519831279A1AA0AABCB
:107923000BA90C1212CD750D017402120C121279EF
:10793300B0C3E894F4E994FF40067EFC7FFF8049DE
:10794300E824035001091279A7803EC3E894F4E9BF
:1079530094FF40067EFC7FFF8009E8240350010961
:107963001279A78510828511831279BAF874089960
:10797300F9C3E89EE99F5004E8FEE9FF74912508E6
:10798300F5827416350912732E85108285118312C0
:107993007330A90D740812091E7F0C020605E0FC62
:1079A300A3E0FD2254FC2408FEE439FF221279B43B
:1079B30022E0F8A3E0F9221279B4E4C39822E0F5B7
:1079C30008A3E0F509221279A1EA6C22C082C083E0
:1079D3007900E925E0FCE433FD74D72CF582748744
:1079E3003DF583E06A7003A3E06B600709E9C39484
:1079F3000340DFD083D0820208D074F61203EEE98D
:107A0300FE8A088B09ECFAEDFB1212C7E9F8C3945E
:107A130003500E127AF7EE127B02E508F0A3E50994
:107A2300F07F02020605C082C08312126D80C47407
:107A3300F41203EEEAFEEBFF8C088D09794E120D6A
:107A43005DE9603CEEFAEFFB12128BEA4B6010EE3D
:107A5300FCEFFD901790E0F91212CD7900802374AA
:107A63000C120C12120718AC08AD09EEFAEFFB79F1
:107A730001121291740212091EE96004790980024D
:107A8300790A026C2774F61203EE74F81209B6EA47
:107A9300FEEBFF1212C7E9F8C394035042127AF7C0
:107AA300E0901790127B02127E4875080875090052
:107AB30078081208F07402120996EA24F8FAEB34F3
:107AC300FFFB901790E0F9120D87740212091E74E0
:107AD30002120C12127E48740812091E027A24EE56
:107AE300FAEFFB12128B8B09A909EA4970BC7A00E1
:107AF3007B0080E3749129F582E43417F58322F047
:107B0300E8127B082229F8E433F9749428F5827487
:107B13001739F5832274E81203EE74F31209B6746D
:107B23000B120C12EAF0A3EBF08C0E8D0F75130001
:107B3300794E120D5DE9607E7425120C12E0F51684
:107B4300A3E0F517E51645177003027E24740B12A4
:107B53000C12127E4812128B7401120C12EAF0A35B
:107B6300EBF0901790E0F5127401120C121270A74B
:107B730070057909027E26750808750900780812D0
:107B830008F074051209967403120C12E024F8FA33
:107B9300A3E034FFFBA912120D87740212091E74AD
:107BA30005120C12E50E2516F8E50F3517F9C3E09B
:107BB30098A3E0995005790A027E267401120C12EB
:107BC300E0250EF50AA3E0350FF50B850A10F51134
:107BD3007427120C12E0F50CA3E0F50DAE16AF17E7
:107BE300750800806B75140175150078141208F080
:107BF3007402120996AA10AB11A912120D8774020E
:107C030012091E851882851983E0F8850C82850D7B
:107C130083E06860267508017407120C12C3E098AC
:107C2300F0A3E09400F0850C82850D83E0F87407DF
:107C3300120C12E028F0A3E03400F00510E51070F8
:107C4300020511850C82850D83A385820C85830D26
:107C53001277747090E508A2E04003027E24851831
:107C630082851983E4F0A818A91988088909780876
:107C73001208F07407120C121279A1740D120C126F
:107C8300127E487900121291740212091EE9F50C52
:107C93007003027DC77405120C121279B0C3E89405
:107CA300FCE994FF40087508FC7509FF800DE82482
:107CB3000350010954FCF508E9F509A80CE828F874
:107CC300E433F9748528F514741639F5158514828F
:107CD300F583127E307409120C12E0F47003A3E0F2
:107CE300F4700D7C007401120C12127E4E12129766
:107CF300780E1208F08E108F1178101208F0AC0C69
:107D03007405120C12127E4E1212BB740412091E59
:107D1300EE250EFEEF350FFF7427120C1212071813
:107D2300AC16AD17EEFAEFFBA90C1212B5740212E2
:107D3300091E7405120C12E0C3950EF8A3E0950F0B
:107D4300F9E8C39516F50EE99517F50F780E1208A5
:107D5300F0EE2516F50EEF3517F50F780E1208F035
:107D6300AC0CE50A2516FAE50B3517FBA91212121E
:107D7300BB740412091E851482851583127E307428
:107D830005120C12127E3B1212A37407120C12126C
:107D930079C97002EB6D702CEEFAEFFBA90C12128D
:107DA3009D8A088B09A808A9097407120C12E068B8
:107DB3007003A3E069700D7403120C12127E3B1260
:107DC30012CD800375130A851882851983E0603408
:107DD30065127010740A6513700A90178FE0F91218
:107DE300127F803D7A0190178FE0F9121273851884
:107DF30082851983E0F912127F851882851983E041
:107E030090178FF0851882851983E06512601274CC
:107E13000A6513600C7C01EC120C12127E4E1212D6
:107E230097A913740D12091E7F10020605E0C3956E
:107E330008FEA3E09509FF221279A1EEFAEFFBA950
:107E43000C2239F583E0FAA3E0FB22E0FAA3E0FB7E
:107E5300A9122274F01203EEEAFEEBFF8C0A8D0BDB
:107E63001212C7E9F87410120C12E0F50CA3E0F536
:107E73000D7412120C121279C1E8C394035024E852
:107E8300FE780C1208F0AC08AD09EE127B08E02571
:107E93000AFAA3E0350BFB74912EF582E43417F54F
:107EA300838023EEFAEFFB12128BEA4B7004790AFC
:107EB3008020780C1208F0AC08AD09EA250AFAEB29
:107EC300350BFB901790E0F9120D87740212091E0F
:107ED300790002741E74F21203EEEAFEEBFF8C0AC1
:107EE3008D0B12128B8A088B09EA450970047909F4
:107EF300803DEEFAEFFB1212DF8A0C8B0DE50A656B
:107F03000C7004E50B650D6004790C80227C01AADA
:107F130008AB09901790E0F9121297EEFAEFFB12F3
:107F2300128B8B09EA45096004790A800279000201
:107F33007329C082C0839003577480F0D083D082AA
:107F43000208D074F61203EEE9FCEAFD7901ECC3F2
:107F53009408500E78008005E9C333F908E8C39C00
:107F630040F6E942F2ED14600814600914600A80D7
:107F73000C7800800A781080067820800278309090
:107F83000357E0FAEC484AF5B6E5B4A2E750FA74B1
:107F9300FF6952F2E5BAFAA9BBE9FBC39400A2D286
:107FA30065D03350047A007B00ED14600814600D33
:107FB30014601280188A088B09740880168A088B4B
:107FC300097406800E8A088B09740480068A088B5C
:107FD3000974027808120B7FAA08AB097F02020614
:107FE30005E9F875B60FE5B4A2E750FAE8C395BB07
:0B7FF30050047901800279000208D0E0
:1080000007000A000C000D000E000F001000110008
:1080100012001300140019001B00000101010002EE
:10802000010202040004010403040404050406041C
:1080300000050206030604060506060607060806EE
:1080400009060A060B060C060D060E060F0610069C
:1080500011061206130604070009000B010B020BA0
:10806000030BFFFFFFFFFFFFFFFFFFFF00FFFFFF0F
:10807000FFFFFFFFFFFFFFFFFFFFFFFFFFFFFFFF10
:10808000FFFFFFFF000000000000000000000000F4
:1080900000000000000000000000000000000000E0
:1080A000000000FFFFFFFFFFFFFFFFFFFF00FFFFDC
:1080B000FFFFFFFFFFFFFFFFFFFFFFFFFFFFFFFFD0
:1080C000FFFFFFFFFF0000000000000000000000B5
:1080D00000000000000000000000000000000000A0
:1080E00000000000FFFFFFFFFFFFFFFFFFFF00FF9B
:1080F000FFFFFFFFFFFFFFFFFFFFFFFFFFFFFFFF90
:10810000FFFFFFFFFFFF0000000000000000000075
:10811000000000000000000000000000000000005F
:108120000000000000FFFFFFFFFFFFFFFFFFFF0059
:10813000FFFFFFFFFFFFFFFFFFFFFFFFFFFFFFFF4F
:10814000FFFFFFFFFFFFFF00000000000000000036
:10815000000000000000000000000000000000001F
:10816000000000000000FFFFFFFFFFFFFFFFFFFF19
:1081700000FFFFFFFFFFFFFFFFFFFFFFFFFFFFFF0E
:10818000FFFFFFFFFFFFFFFF0000000000000000F7
:1081900000000000000000000000000000000000DF
:1081A00000000000000000FFFFFFFFFFFFFFFFFFD8
:1081B000FF00FFFFFFFFFFFFFFFFFFFFFFFFFFFFCE
:1081C000FFFFFFFFFFFFFFFFFF00000000000000B8
:1081D000000000000000000000000000000000009F
:1081E0000000000000000000FFFFFFFFFFFFFFFF97
:1081F000FFFF00FFFFFFFFFFFFFFFFFFFFFFFFFF8E
:10820000FFFFFFFFFFFFFFFFFFFF00000000000078
:10821000000000000000000000000000000000005E
:10822000000000000000000000FFFFFFFFFFFFFF55
:10823000FFFFFF00FFFFFFFFFFFFFFFFFFFFFFFF4D
:10824000FFFFFFFFFFFFFFFFFFFFFF000000000039
:10825000000000000000000000000000000000001E
:1082600000000000000000000000FFFFFFFFFFFF14
:10827000FFFFFFFF00FFFFFFFFFFFFFFFFFFFFFF0D
:10828000FFFFFFFFFFFFFFFFFFFFFFFF00000000FA
:1082900000000000000000000000000000000000DE
:1082A0000000000000000000000000FFFFFFFFFFD3
:1082B000FFFFFFFFFF00FFFFFFFFFFFFFFFFFFFFCD
:1082C000FFFFFFFFFFFFFFFFFFFFFFFFFF000000BB
:1082D000000000000000000000000000000000009E
:1082E000000000000000000000000000FFFFFFFF92
:1082F000FFFFFFFFFFFF00FFFFFFFFFFFFFFFFFF8D
:10830000FFFFFFFFFFFFFFFFFFFFFFFFFFFF00007B
:10831000000000000000000000000000000000005D
:1083200000000000000000000000000000FFFFFF50
:10833000FFFFFFFFFFFFFF00FFFFFFFFFFFFFFFF4C
:10834000FFFFFFFFFFFFFFFFFFFFFFFFFFFFFF003C
:10835000000000000000000000000000000000001D
:108360000000000000000000000000000000FFFF0F
:10837000FFFFFFFFFFFFFFFF00FFFFFFFFFFFFFF0C
:10838000FFFFFFFFFFFFFFFFFFFFFFFFFFFFFFFFFD
:1083900000000000000000000000000000000000DD
:1083A000000000000000000000000000000000FFCE
:1083B000FFFFFFFFFFFFFFFFFF00FFFFFFFFFFFFCC
:1083C000FFFFFFFFFFFFFFFFFFFFFFFFFFFFFFFFBD
:1083D000FF0000000000000000000000000000009E
:1083E000000000000000000000000000000000008D
:1083F000FFFFFFFFFFFFFFFFFFFF00FFFFFFFFFF8C
:10840000FFFFFFFFFFFFFFFFFFFFFFFFFFFFFFFF7C
:10841000FFFF00000000000000000000000000005E
:10842000000000000000000000000000000000004C
:1084300000FFFFFFFFFFFFFFFFFFFF00FFFFFFFF4A
:10844000FFFFFFFFFFFFFFFFFFFFFFFFFFFFFFFF3C
:10845000FFFFFF000000000000000000000000001F
:10846000000000000000000000000000000000000C
:108470000000FFFFFFFFFFFFFFFFFFFF00FFFFFF09
:10848000FFFFFFFFFFFFFFFFFFFFFFFFFFFFFFFFFC
:10849000FFFFFFFF000000000000000000000000E0
:1084A00000000000000000000000000000000000CC
:1084B00000000000000000000000000000000000BC
:1084C00000000000000000000000000000000000AC
:1084D000000000000000000000000000000000009C
:1084E0000000000000000000050006000800090070
:1084F0001600020102020302000301030105020546
:1085000000060106040B14061506170600070107EE
:108510000207030700090509000000000000000031
:10852000000000000000000000000000000000004B
:108530000000000000000000000000000000BDD3AB
:10854000CAD5B5BDB5A5B2A5CAFDBEDDB0FCA3BAFE
:1085500025730D0A00BDD3CAD5B5BDD7E9B2A5CAEA
:10856000FDBEDDB0FCA3BA25730D0A00BDD3CAD58C
:10857000B5BDB9E3B2A5CAFDBEDDB0FCA3BA257393
:108580000D0A00C325292011207B0D351DC51D4373
:10859000159F16631343271F15D5FDD4DAC9EAC703
:1085A000EBBCD3C8EBCDF8C2E7A3A10D0A001500C0
:1085B00000000000000000000000000000000000BB
:1085C000D7E9BDA8CDF8C2E7B3C9B9A6A3A10D0AE2
:1085D00000CAFDBEDDB0FCB8F6CAFDA3BA25640D25
:1085E0000A005465786173496E737472756D656EB7
:1085F0007473005465786173496E737472756D6538
:108600006E7473004E4D2D656E65726779206E6FC6
:108610007420757000FF00000000000000000000E2
:108620000000000000FF000000000000000000004B
:1086300000000000004F727068616E205265737018
:108640006F6E736500000000000000000000000075
:1086500000000000005374617274446576696365BC
:108660002045525200527370204E6F6E204D61743F
:108670006368656400000000000000000000000066
:10868000000000004D6174636820446573632052EC
:108690006571004173736F63205273702066616966
:1086A0006C00D2D1BCD3C8EBCDF8C2E7A3A10D0AB0
:1086B000004173736F6320436E66206661696C00CE
:1086C000456E65726779204C6576656C0000000028
:1086D000000000000000000000004D4F44452075E0
:1086E0006E6B6E6F776E005A696742656520436FE7
:1086F0006F7264005363616E204661696C6564004B
:108700004E6574776F726B2049443A000000000098
:1087100000000000000000004E6F6E204D61746389
:1087200068656400FFFFFFFFFFFFFFFFFFFF41736E
:10873000736F6320436E6600FFFFFFFFFFFFFFFFC5
:10874000FFFF00000000000000000000000000002B
:108750000000000000000000000000000000000019
:10876000FFFFFFFFFFFFFFFFFFFF00000000000013
:108770000000005273702053656E7400FFFFFFFF0E
:10878000FFFFFFFFFFFFFFFFFFFFFFFF5375636367
:1087900065737300FFFFFFFFFFFFFFFF526F7574EC
:1087A00065723A000000000000000000FFFFFFFFBC
:1087B000FFFFFFFF506172656E743A000508050007
:1087C000080174494545453A20004661696C656475
:1087D0000000000000000082003A003B000000039F
:1087E00000070003000600040053656E74000100DA
:1087F0000000F8FF000019E0FCFF04000000F40195
:1088000000000000FF0000E1F50550325000FF00BD
:10881000000000000200000001001027000014000A
:10882000000019000000640000003C000000E803A4
:108830000000E204000058020000BC020000B80B77
:1088400000004001000000F8FF0760EA0000983ACD
:10885000000000000000C8000000975118008813B5
:10886000000032000000FEFFFFFF0A000000FFFFD3
:10887000FFFFE90300000B000000E71F03000000FA
:1088800000FF00FF000000480000010000803000F1
:1088900000003A200000000000210030000B74F7B7
:1088A0001203EEE9901A16F09019CBE4F012115968
:1088B000901A2EE4F0A3F0901A17F0A3F01222DB26
:1088C000121A6B121C1512115F90192CE4F0A3F010
:1088D00012198102B5F274F01203EE74D31209B6C4
:1088E00012DF6C54806068901A16E0F91211E98A60
:1088F000088B09AE08AF09EE4F604C7C0080010C7C
:10890000EC75F003A4F8A9F074F628F582742D39FB
:10891000F583E493F46029E493F88E828F83E06812
:1089200070DDEC75F003A4F874F728F582742D3926
:10893000F583E493C0E0740193F583D08212056659
:10894000EEFAEFFB1211D7128DC46480028DB88548
:108950001882851983A3E0542060211221378A08E8
:108960008B09AE08AF09EE4F600A122053EEFAEF02
:10897000FB1211D7128DC46420028DB88518828530
:108980001983E054207003028C677A207B00901AD0
:1089900016E0F9121333EA4B4C4D701A901A2A1252
:1089A0000BEFE8494A4B700E750801750900750A0E
:1089B00000750B00806A750C00750D00750E007552
:1089C0000F0012133F8A088B098C0A8D0B901A2A0C
:1089D000120BEFE8494A4B6031901A2A78081208C6
:1089E0004F400E750CFF750DFF750EFF750F7F80E4
:1089F0001985080C85090D8C0E8D0F901A2A780C9C
:108A000012099E7401780C12096D850C08850D09F8
:108A1000850E0A850F0BE508128FF27003028BA5F5
:108A20007C0079047A007B001220FB8A0C8B0DAE4F
:108A30000CAF0D028AEC7402120C1274FFF0740376
:108A4000120C1274FFF07404120C1274FF12EE80F8
:108A5000740712099612D3D3122161E96401706E72
:108A600012C13E4480F8A3E0F97428120C12E8F019
:108A7000A3E912EC71E0C0E0742A120C12D0E012EB
:108A8000B84D540860167428120C12A3E044011269
:108A90008DDCC0E0742C120C12D0E0F012B1851203
:108AA000D19D601212B5CB12DF52E0F87416120C91
:108AB00012E8F0A3E4F09088521207147406120929
:108AC00096740B12098E121B7F740412091E8E827B
:108AD0008F83A3A3A3A3A3A3A3A3A37406128DDCD4
:108AE000F91220DD7405120C1212DF66EE4F7003CE
:108AF000028BA57C007904EEFAEFFB1220FB7405D3
:108B0000120C12EAF0A3EB12C7E8129152E4F50E30
:108B1000F50F7808790C120B3F4021EE2404F8E49D
:108B20003FF985080C85090D88828983C3E0950C7F
:108B3000F0A3E0950D12F30070AA800C8E828F8353
:108B4000A3A3A3A3E4F0A3F08E828F83A3A3A3A384
:108B5000A3A3A3A3A3A3E064018E828F83A3A3A3F3
:108B6000A3A3A37023E054046003028A368E828F8D
:108B700083A3A3A3A3A3A3A3A3A37406F07AB7120A
:108B80008DCF12203B028AE4A3A3A3A3E0600302DB
:108B90008A368E828F83A3A3A3A3A3A3A3A3A374C4
:108BA00001F0028AE41220CB7C0079017A007B007C
:108BB0001220FB8B0DEA450D600C7A207B00901A89
:108BC00016E0F91212137C0079047A007B0012205F
:108BD000FBEA4B7014804E8A828B83A3A3A3A3125B
:108BE000BB96C3EE98EF99400B8A828B83A3A3A315
:108BF000A312DF667C0079041220FB8B0BA90BEA21
:108C00004970D4C3E5089EE5099F500DC3EE950851
:108C1000FEEF9509FFEE4F70157A207B00901A1633
:108C2000E0F9121213901A2A12AB4FF0802EEE2E9A
:108C3000FEEF33FF8E088F09E4F50AF50B78081272
:108C400008E87A207B00901A16E0F91213217404C8
:108C500012091E12133F901A2A120BFB85188285E7
:108C60001983E064208037E05410600E121C518597
:108C70001882851983E064108024E05440600E124D
:108C80001CC3851882851983E064408011E05480FC
:108C90006012121B2B851882851983E06480FAA369
:108CA000E0028DB8A3E05401600B1222B1128DC412
:108CB0006401028DB8851882851983A3E054086089
:108CC00047121C2190190CE06401703490190DE0DA
:108CD000602EF508E4F509F50AF50B90882E780C5E
:108CE000120B9E7808790C1202FF78081208E87AB5
:108CF000007B08901A16E0F9121327740412091E5B
:108D0000128DC46408028DB8851882851983A3E08A
:108D100054106013901A28E06005E4F0121C211230
:108D20008DC46410028DB8851882851983A3E05420
:108D3000406045901A4F12D19F6036901C39E06414
:108D400001702E901A5012CA37120566901A5512E9
:108D5000D19F600612CA3712056690882E1207143A
:108D60007A007B40901A16E0F91213277404120956
:108D70001E128DC464408040851882851983A3E04B
:108D80005402600A1222AB128DC46402802A851834
:108D900082851983A3E05404602112D062901C4C98
:108DA000E0640270031227C779019019C912D74FE6
:108DB000121B9D128DC46404FB80047A007B007436
:108DC0002D02DBEC851882851983E0FAA3E0228E60
:108DD000828F8312DF4A12F567E0F92212B852A39C
:108DE000A3E022E8F0A3E9F09019C912BB9A22741B
:108DF000F71203EE74DA1209B6EAFEEBFFEE4F60EB
:108E00002DAC18AD191221617406120C12E0601E0F
:108E10007417120C12E0FD7401120C12E0FCEEFA51
:108E2000EFFB7900121F7BE9600479A480027900CE
:108E3000742602B5EF74F41203EE8A088B098A8255
:108E40008B83A3A3A3A3A3A3E0544060508A828B87
:108E500083129454122215E960067AFF7BFF801674
:108E600085088285098312945474FE6A700374FF26
:108E70006B7003028F3285088285098312C4D91270
:108E8000DF72122215E98508828509837003028F3B
:108E90004712DF4612F59FE4F0A3028F4B9019B6FC
:108EA000E0A2E14003028F328A828B8312B5DD1289
:108EB000CFA2A3A3128F7EA3A312DA848508828B8C
:108EC00083A3A3A3A3A3A3A3E054106004794080C9
:108ED000027900750AFE750BFF780A1208F0128FEE
:108EE00074120718EEFCEFFD8508828B83129454F0
:108EF000121C27740412091EEE6A7002EF6B600FD9
:108F0000128F74E06A7003A3E06B6003028E6975D0
:108F10000A00780A1208F47902850882850983120A
:108F2000B840FCA3E0FDEEFAEFFB122257740112E9
:108F3000091E7ECDEEFA850882850983128DD31233
:108F4000203BE9601B802812F590E4F07C2F7D2007
:108F500085088285098312D74F12197BE9FE70D4E8
:108F6000E508450960097901AA08AB091220D7EE86
:108F7000F902AD46E50812C79B3509F58322A3A384
:108F8000E0FA888289832274F61203EEE9FEEAFF92
:108F90007A0F7B001211D1EA4B601F8A828B837497
:108FA0000CF0EEA3A3F0EF8A828B8312B33D901AEC
:108FB00016E0F91211DD79008034EEF91221018AF0
:108FC000088B09A808A909E849602188828983A338
:108FD000A3A3A3A3A3A3A3A3740612E787A3A3A396
:108FE000A3A3E0F9121CD5EEF91220DD791002C816
:108FF0005AEA4509450A450B2274F21203EEEAFECD
:10900000EBFF8C088D09890A740E120C1212915212
:10901000850C82F583E4F0A3F012915A1221F7E94E
:10902000602012D742122215E9640270158E828FD9
:1090300083A3A3A3A3A3A3A3A3A312DD8212CEC7DA
:109040008003750A00EE241D12B83A14602E1460D5
:109050004314606414606C1460481470030290E65A
:1090600024FE700302910314700302910C14700328
:1090700002911F14700302912D029143780C120883
:10908000F0AC08AD09EEFAEFFB121C3974021209BC
:109090001E029128AC08AD09EEFAEFFB121C3F024C
:1090A000914D12D742122215E96003029143EEFA64
:1090B000EFFB121C8702914DA90AEEFAEFFB122278
:1090C0005D8065EE241712A9B264027076E50A701D
:1090D0000A12E2C47003A3E0697072EEFAEFFBA912
:1090E0000A1221EB804212E2C47003A3E0697053BC
:1090F000EE241712A9B264027049EEFAEFFB1221B6
:10910000D3804AEEFAEFFB1222CF804112E2C47004
:1091100003A3E069702DEEFAEFFB122269802EEEB8
:10912000FAEFFBA90A122275E9F50A8020901C3992
:10913000E064017009EEFAEFFB12227B800F750AE2
:1091400000800A750A007AD37B00121693A90A02DE
:10915000AE36E0F50CA3E0F50D22EE241DF582E419
:109160003FF58312B844F92274F41203EE74D61258
:1091700009B68A088B098A828B83A3A3E0F912219E
:10918000018A0A8B0BAE0AAF0BEE4F700302927D81
:10919000850882850983A3A882A983E0C0E012C75D
:1091A000A1D0E012B1AD64F16033850882850983F6
:1091B000A3E064CD6027850882850983A3E0641A53
:1091C000601B850882850983A3E064E9600F850838
:1091D00082850983A3E064E160030293508E828F4D
:1091E00083A3A3A3A3A3A3A3E054087003029285BF
:1091F0008E828F83A3A3A3A3A3A3A3A3A374051207
:10920000D1A5E064E96047901A4B12D19F60061225
:10921000CA37120566901A4D12D19F60319019B667
:10922000E0A2E1502912D3C5A3A3A312BBA8888250
:10923000898312D74F12230BEA4B6012850882856F
:109240000983A3E0F9901A4D12C4D91205668E82E3
:109250008F83A3A3A3A3A3A3A3A3A3E0640270107B
:109260008E828F83A3A3A3A3A3A3A3A3A37406F0B7
:10927000850882850983A3A3E0F91220DD1220CBA3
:10928000742A02AD4379001220D7E970030293508B
:109290009019B6E0A2E1400302931E12D196607EBF
:1092A0008E828F8312D74F740412099612D3D31271
:1092B0002161850882850983A3E064E97020129406
:1092C0003F1208F4850882850983A3E0F50A780A2D
:1092D0001208F412DAA4122197740212091E740DF6
:1092E000120C1212D18C12F22612CEC77409120C73
:1092F00012E06004794080027900740F120C12129F
:10930000BBA8740D120C1212D74F121C33E9600E59
:109310008E828F83A3A3A3A3A3A3E04420F0EE2413
:1093200004F50AE43FF50B8E828F83A3A3A3A3A3C6
:10933000A312BBA885088285098312B19F12D74F5B
:1093400012116B850A82850B83EAF0A3EB0291FF71
:10935000850882850983A3E0C0E07402120C12D054
:10936000E012F88DF0129435E0C0E07403120C1294
:10937000D0E012EA52E0AA18AB197024121B7974DB
:1093800002120C12E0701C129450122215E9703671
:10939000901A4B12D19F602E12CA371205668003B5
:1093A0001221F17402120C12E064E9701912943F58
:1093B0001208F4750AE9780A1208F412DAA41221E4
:1093C00097740212091E9019B6E0A2E140030292BE
:1093D0004E8E828F83A3A3A3A3A3A3A3A3A3E0641E
:1093E0000270398E828F83A3A3A3A3A3A3E05404A6
:1093F000602A129450122215E98E828F83700F1208
:10940000C4D974FFF0A312B1B2740502926FA3A382
:10941000A3A3A3A3A3A3A3740302926F85088285C9
:109420000983A3E064E9600302924EEEFAEFFB12B7
:10943000228702924EE50812DF5D3509F583228E00
:10944000828F8312BB9AE8FAE9FB750A01780A2237
:109450008E828F8312B844FAA3E0FB2274F21203C7
:10946000EEEAFEEBFF750A007508008E828F83A37B
:10947000A3A3A3A3E0603B750A0812D74279FF12A9
:109480001DD18B0DEA450D6010750A2C8E828F83DD
:10949000A3A3A3A3A3E0D2E0F08E828F83A3A3A310
:1094A000A3A3E0540364016003029565430A11021B
:1094B0009565EE241812A9B26049EE241A12A9B2D9
:1094C0006003F4701D12E2C47003A3E069700675B6
:1094D0000A220295659019CBE06404600302956549
:1094E000801CEE241BF582E43F12957A241A12A9FF
:1094F000B2FAEE241912A00B121C99E970677508D4
:1095000001806212D742122215E964027003750AC3
:109510000112E2C47003A3E0697006E50AD2E1F526
:109520000AE50A60158E828F83A3A3E07006E50A20
:10953000D2E58004E50AD2E6F50A12D742122215D6
:10954000E964017006E50AD2E0F50A8E828F83A3F2
:10955000A3E0601112915A1221F7E964016006E557
:109560000AC2E0F50AE50AA2E1400CE508A2E040E3
:1095700006E50AD2E7F50A02914DF583129F6622AD
:1095800074F01203EE74C11209B6EAFEEBFF8518FF
:109590008285198374FEF0A304F07402120C12E4A5
:1095A000F0A3F0750D0074071209968E828F83A3C5
:1095B000A3A312D18E12D74D122161E97003029834
:1095C0001978017409120C12E0C394024002780069
:1095D000740B120C12E0C394024002780074101253
:1095E0000C12E064F87003A3E0F47003029819749D
:1095F00010120C12E064F97003A3E0F470030298F7
:10960000197410120C12E064FA7003A3E0F47003F2
:109610000298197410120C12E064FB7003A3E0F4BA
:109620007003029819740A120C12E0F99019B9E04B
:10963000696003029819E8A2E0400302981912BB7E
:109640008D7426120C1212BBC4241C12BB9074140D
:10965000120C1212CEC7740D120C12E0601D741E93
:10966000120C12E0FD7408120C12E0FC8E828F8343
:1096700012D74D7901121F7BE9703D740712098ED4
:1096800012204DE9F50C740D120C12E0702F901998
:10969000B3E060297422550C642260217442550C99
:1096A000644270147424120C12129F50600F7424C0
:1096B000120C12129F3E60057ACF02981BE9A2E6B7
:1096C000505F9019B6E0A2E174245011120C1212EE
:1096D000B84012079D01010BF996001998120C125F
:1096E00012B84024FD601214600F24FD600B24FDAD
:1096F000600724FE60030298197424120C12129F52
:109700006D700E7424120C1212CA36A3E0640D6040
:1097100010740712098E122251E964017003029F2E
:1097200023129F2812A6337003A3E06970217508E5
:109730000078081208F478081208F4EE242F12A01A
:109740000B129F5612D74F122197740212091E74E2
:109750000D120C12E070030297F8129F5612D74FA9
:1097600012230B8A0E8B0FEA450F700302982374A5
:1097700008120C12E0F88E828F83A3A3E028F8A3CE
:10978000E03400F9E8240D12EBBAF88A828B83A347
:10979000A3A3E0686010E88A828B83A3A3A312B31B
:1097A00036F0A3F0A3F079047408120C1212A9BECB
:1097B000E02AF8A3E034008882F583A3AA82AB8371
:1097C0001211BF8A088B098C0A8D0B850E82850FBA
:1097D00083A3A3A3A3780812084F4003029F2390FA
:1097E00087EE7808120A96850E82850F8312F7E9B4
:1097F000A3E50AF0A3E50BF09019B6E0A2E140035F
:10980000029F23742B120C12E0605B7412120C1274
:1098100012D74F121A89E9703F7AD37B0012169340
:10982000029F23901A10E0640170CD7424120C1270
:10983000129F507006E50CA2E640BD7414120C1283
:10984000E0F47003A3E0F4600CEEFCEFFD7407128B
:10985000098E122059029F238E828F83A3A312C4E4
:10986000D9A3E0C2E5F07418120C12E06017129F41
:109870003212F2171412F6C912A9ABF87418120CAE
:1098800012E8F07006E50CC2E7F50CE50CA2E35017
:109890006B7402120C12E4F0A37410F0E50CA2E257
:1098A0005018740C120C12E054E3F0740C120C12E9
:1098B000E0131313541FF8E0802CA2E4502A740C18
:1098C000120C12E01313543F5407F8600974076830
:1098D000600B18E87007C3E50CC2E7F50CE83333FA
:1098E00054FCF8E054E348F0740C120C12E0C0E0B1
:1098F0008E828F83A3A312B27ED0E0F09019CBE0CA
:1099000064046008E0640960030299D87410120CC2
:109910001212E2D17003A3E069601F7410120C12DE
:1099200012D74F122215E96402600F740C120C1248
:10993000E0540364016003029F237409120C12E0D7
:109940007041EE242F12A9B2C0E07404120C12D0A0
:10995000E0129F96C0E07405120C12D0E0129F8EA8
:10996000C0E07406120C12D0E0129F831207147428
:1099700008120996740B12098E121B7F74041209C7
:109980001E80527424120C1212D3A87016741E1268
:109990000C12E06402703E740712098E79001221E5
:1099A000EB80327424120C12129F3E7014741E123B
:1099B0000C12E06404701E740712098E1221DF80FD
:1099C000147424120C12129F6D700A79007407121D
:1099D000098E12225D029F237461550C7003029A56
:1099E000EEE50CA2E0507912BB9F740712098E12AB
:1099F0001CC9E97068122191E9F50D7418120C1256
:109A0000E070157412120C1212D187241312A9B22D
:109A1000687003A3E0696048A90D12BB9F74071228
:109A2000098E121CCFE9602AE50CA2E3500C8518C0
:109A30008285198374FFF0A3800C7410120C12122B
:109A40009F74E8F0A3E9F07402120C12E04404F0F1
:109A5000800EE50CC2E5F50C750D008003530C9FDC
:109A6000E50CA2E5503FEE242F12A9B2C0E0740429
:109A7000120C12D0E0129F96C0E07405120C12D0A6
:109A8000E0129F8EC0E07406120C12D0E0129F8389
:109A90001207147408120996740B12098E121B7F98
:109AA000740412091EE50CA2E64003029DBCA8182E
:109AB000A9198808890978081208F0A90D129F478A
:109AC00012098E122041740212091EE9F50D70036D
:109AD000029DBC7424120C1212B84064016003028F
:109AE0009DBC7402120C12E04410F0029DBC74097B
:109AF000120C12E06401705D7424120C1212B84052
:109B00006405701EA818A919880889097808120820
:109B1000F0129F4512098E122041740212091E0292
:109B20009F237424120C12129F6D70297410120C52
:109B30001212D74F121A89E9601BA818A9198808B0
:109B4000890978081208F0129F4512098E122041E7
:109B5000740212091E7418120C12E0702574091296
:109B60000C12E06401700C7424120C12E0F8129FC5
:109B70006D600CEEFCEFFD740712098E1220590285
:109B80009F231220D1E96003029F23741F120C123D
:109B9000E07003029C327422120C1212BBA87421D2
:109BA000120C12E0FA7420120C12E0F9121C99E95E
:109BB00060737421120C12E0701E7410120C1212D9
:109BC0009F7412C230FAA3E0FB121A958B09EA4582
:109BD000096003029DB680427422120C1212D74F04
:109BE0007421120C12E0F9121C9312DF6C780874C5
:109BF0000F120C12E060027810740E120C12E0606A
:109C000004740828F8740C120C12E0600108088E25
:109C1000828F83A3A312C50914F07402120C12E000
:109C20004440029DB575080078081208F4790B02CB
:109C30009D6C7410120C1212CEBC740B120C12E03C
:109C40006003029D87E50CA2E35003029D8774091F
:109C5000120C12E06401607A7900851882851983FC
:109C600012D74F121CED8A088B09A808A909E849E8
:109C7000601C88828983A3A3A3A3A3E0640160522C
:109C800088828983A3A3A3A3A3E064026044129FF4
:109C90002812BE4F12D74F12230B8A828B83E58284
:109CA00045836015A3A3E0F9122329E9600BC3944F
:109CB0000895E0C365D03340197412120C1212D704
:109CC0004F121A89E97003029D62740B120C127410
:109CD00004F07400F50878081208F47420120C12CD
:109CE000AC82AD837411120C1212D74F740C120C8B
:109CF00012E0F9121CFF740112091EE960137402CC
:109D0000120C12E0442012BBC9F812CA36E0543FCC
:109D1000F0741F120C12E060207410120C1212BBAF
:109D2000A87420120C12AA82AB8312215B12DF6C82
:109D30007402120C12E04440F07409120C12E06438
:109D400001601579007412120C1212BBA874101263
:109D50000C1212D74F121C9FE50CA2E3503779402A
:109D6000803575080078081208F479027411120C15
:109D70001212BBA87413120C1212D74F122257746E
:109D80000112091E029F23E50CA2E34003029CD2AC
:109D90007440029CD479007412120C1212BBA87485
:109DA00010120C1212D74F121C33E9600974021200
:109DB0000C12E04420F0122191E9F50D85188285FE
:109DC0001983E064FE7003A3E0F47003750D009046
:109DD000190FE064016003029E6FEE241312A9B212
:109DE000F47003A3E0F47003029E6F7410120C125F
:109DF000C3E094F9A3E094FF507512BB8D74121266
:109E00000C12E0687003A3E06960647412120C1213
:109E100012D74F121A958A088B09A808A909E84990
:109E2000604D88828983A3A3A3A3E06401600D88A9
:109E3000828983A3A3A3A3E0640270337432120C5B
:109E400012740112E77CF8A3E0F9743D120C1212AF
:109E5000CEC7743212098E121A41E960127435129B
:109E60000C12AA82AB83121AA7E96003121663E5EB
:109E70000CA2E74003029F23E50D7003029F238E8F
:109E8000828F83A3A3A3A3E0FA7B001212618A0E40
:109E90008B0FEA450F7003029F238E828F83A312DC
:109EA000DD741208EC8E828F83A3A3A3A3E0FC7D54
:109EB000001211A1740312091E7409120C12E0C0E1
:109EC000E0742D120C12D0E0F07430120C12E4F099
:109ED000A3F0742D1209868808890978081208F001
:109EE00075080078081208F47405120C121207188D
:109EF000E50DF50878081208F412BB6F1207188EEA
:109F0000828F83A3A3A3A3E0F97408120C1212CAD0
:109F10003B12214F740812091EE96007AA0EAB0F0D
:109F2000121267743F02DBECEE242DF582E43FF55C
:109F30008322EE2402F8E43FF9888289832212C446
:109F4000DFE0640722790012BB7312BBAC740922F4
:109F500012B844640622EE242BF582E43F129F647B
:109F600012BB7422F583E0FCA3E0FDEE2212C4DFF5
:109F7000E0640322129F782212F6D4F985188285B4
:109F8000198322F0EE2425F582E43FF58322F0EEDA
:109F9000243112A9B622F0EE243012A9B62274F4AC
:109FA0001203EEEAFEEBFF8C088D0990190CE060BD
:109FB0000F12E2C47003A3E0697005121C218048EF
:109FC000790012D742121CED8A828B83E582458389
:109FD000602EA3A3A3A3A3A3E054186023E5082441
:109FE0001C12CEAB12071812CEA7120718EE2418B7
:109FF00012A00B12A010121D05740412091E800875
:10A00000790012A010121C4B02AD4612A9B6F9221B
:10A010008E828F83A3A3A3A3A3A3A3A3A3129F664C
:10A0200012CFA712D3E62274F01203EE74E51209E0
:10A03000B68A0E8B0FEA2402F50AE4350FF50B0AF7
:10A040000AFB121A9B8A088B09AE08AF0975090131
:10A05000850E82850F83A3E0F50C750801AC0AAD6F
:10A060000B7410120C12AA82AB83121357741812BD
:10A070000C1274FEF0A304F0741A120C127402F0A5
:10A08000740D120C12E4F090192BE0700EEE4F706C
:10A090000AE50C70067509C302A2849019CBE0642E
:10A0A0000860067509C202A280850E82850F83A30F
:10A0B000A3A3A3A3A3A3A3A3A3E0A2E1500EA2E39F
:10A0C0005005750804800C7508038007A2E350034F
:10A0D000750802EE4F700302A1788E828F83A3A3CE
:10A0E000A3A3E06404600D8E828F83A3A3A3A3E0E7
:10A0F0006403700C74046508602C740365086026A2
:10A100008E828F83A3A3A3A3E06402600D8E828F4F
:10A1100083A3A3A3A3E064017037740265086006FB
:10A1200074016508701E8E828F8312D74F122233FE
:10A13000E970458E828F8312BB967418120C12122E
:10A14000CEC780348E828F83A3A3A3A3E064026072
:10A150000D8E828F83A3A3A3A3E06401700A8E8275
:10A160008F8312D74F121C69E50E2402FAE4350FD3
:10A17000FB121AA77E007F007418120C12E064FE16
:10A180007003A3E0F47048121A4DE97042E50C60C8
:10A190001D901C5E12D74F122233E97011901C5E85
:10A1A00012BB967418120C12E8F0A3E98020850EF9
:10A1B00082850F83A3A3A3A3A3A3A3A3A3A3E05474
:10A1C00002F9121C5D7418120C12EAF0A3EBF07481
:10A1D00018120C12E064FE7003A3E0F47006750917
:10A1E000C702A280E50CF50A780A1208F4850E82EF
:10A1F000850F83A3A3A3A3A3A3A3A3A3A3E0F9E52C
:10A200000E2402FCE4350FFD7419120C1212D74F04
:10A21000121BA3740112091EE97065901A5912D11C
:10A220009F60117418120C1212D74F901A5A12CA4A
:10A2300037120566A908E50E2402FCE4350FFD740B
:10A2400018120C1212D74F121A778A0A8B0BAE0A09
:10A25000AF0BEE4F601F7402650C700D8E828F8302
:10A26000A3A3A3A3A3E0D2E3F0741A120C12E4F0A8
:10A27000750900800B7418120C1274FEF0A304F020
:10A28000E50C700A740512098E121969805B901C26
:10A290004CE070497401650C70439018FBE0703D10
:10A2A000E50E2402F8E4350F12CEC07402120C122F
:10A2B000E4F07403120C12E4F07404120C12E4F0D3
:10A2C000741A120C12E4F07C01A908740512098EAC
:10A2D0001221D9AA18AB19121B5B02A37FAC0CA9DF
:10A2E00008740512098E1221D9E9F8EE4F6053E582
:10A2F0000C60208E828F83A3A3A3A3A3E0D2E6F0F9
:10A300007402650C700D8E828F83A3A3A3A3A3E0B8
:10A31000D2E5F0850E82850F83A3A3A3A3A3A3A3F5
:10A32000A3A3A3E0A2E6500D8E828F83A3A3A3A3D1
:10A33000A3E0D2E7F08E828F83A3A3A3A3A3A3E01D
:10A3400004F0E5097005E86036600AFC7D007A01DA
:10A350007B10121165EE4F600CE50E2402FAE43515
:10A360000FFB121AA77418120C12E064FE7003A3FC
:10A37000E0F4600B7418120C1212D74F121C69749F
:10A380001B02DBEC74F71203EE74F71209B6EAFE57
:10A39000EBFF9019CBE06403600DE064016008E01E
:10A3A0006409600302A4868E828F83A3E0600302A7
:10A3B000A45C7C007D007A027B0012116512A48BE4
:10A3C0008A828B8312BB969019BC12CEC779531226
:10A3D000195D9019CBE0640960099019C912D74F33
:10A3E000122305851882851983740112D1CD794213
:10A3F00012195D9019CB7404F0740112098E794A18
:10A4000012195774011209967AC17B1912135790C9
:10A4100017F4E0640B70057406F0800B7900901956
:10A42000C912D74F121B9D9019BFE064FE7003A3A1
:10A43000E0F46010790074011209969019BF12D7E8
:10A440004F121A779019B6E0A2E35004D2F08002BE
:10A45000C2F012D1C3795212195D80278E828F8388
:10A46000A3AE82AF83FC7D007A037B101211658E50
:10A47000828F83E0F99019C912D74F121B9D901952
:10A48000CBE4F01220A7740902B5EFEE2402FAE43F
:10A490003FFB22C082C08390192C12D19F7017906D
:10A4A00019CBE024FB6005146007800A9019338003
:10A4B0002F901935802AE849600890192D12A9CBF0
:10A4C000700C8A828B83A3E0F9121B85801D901982
:10A4D0002C12D3AE6402700512229F800E901A498E
:10A4E00012D19F600612CA3712056602C64D74F07B
:10A4F0001203EE74E81209B6EAFCEBFD8C828D8340
:10A50000A3A3A3A37808120B9E7808120B4F9019EF
:10A51000CC7808120ABC75097F75087F79009019FC
:10A52000CC780C120B9EE9780C12096DE50CA2E0B8
:10A5300050247800901A17800E8E828F83A3A3E098
:10A540006970010812BB6512B52D70EDE8C395095D
:10A5500050048809890809E9C3941B40C18C828D85
:10A5600083A3A3A3A3120BEFE8494A4B6079EC2421
:10A5700004FEE43DFF8E828F83120BEF9019CC1204
:10A580000BE37C187D007900AA18AB191211B38E69
:10A59000828F83120BEF851882851983120BE37467
:10A5A00004120C127401F09019D2E0C0E07405128C
:10A5B0000C12D0E0F07407120C12E412D1CD121973
:10A5C0006F806B9019C912D74F121BCD8A0A8B0B63
:10A5D000A80AA90B9019C912CEC78E828F83E06892
:10A5E0007003A3E0696026901A1712B52D601E8EC5
:10A5F000828F8312A6337003A3E069700B8E828F63
:10A6000083A3A3E0650860BB12BB6580DDE508900D
:10A6100019BEF0122083E960159019CBE4F090196F
:10A620003712D19F600879C412CA371205667418B0
:10A6300002DBEC12BB9A9019C9E0682274F4120391
:10A64000EE74E81209B68A828B83A3A3A3A3A3A303
:10A65000A3A3A312BB96E8FAE9FB79009019CC7882
:10A6600008120B9EE9780812096DE508A2E0503245
:10A67000E9FCEA2CF582E412BCDBF8901C5DE0C337
:10A6800098501F750801750900750A00750B00E9DF
:10A69000780812086E7808120B4F9019CC780812BF
:10A6A0000ABC09E9C3941B40B39019CC120BEFE824
:10A6B000494A4B604E7C187D007900AA18AB1912EC
:10A6C00011B39019CC120BEF851882851983120BE8
:10A6D000E37404120C127401F07407120C1274016A
:10A6E000F09019D2E0C0E07405120C12D0E0F074C2
:10A6F00007120C12E412D1CD12196F9019CB740607
:10A70000F0801E9019CBE4F0FCFD7A047B1012114E
:10A710006590193712D19F600879C412CA371205A3
:10A7200066741802AD4374F51203EE74D11209B6C3
:10A730008A088B098A828B83A3A3A3A3A3A3A3A3C1
:10A74000E0C3940F500302A9A68A828B83A3A3A31C
:10A7500012DF66741C1209968A828B83A3A3A3A3BB
:10A76000A3A3A312A9C312D7461220B9741C120CBA
:10A7700012E0702E850882850983A3A3A3A3A3A357
:10A78000A3A3E0C3940B401A8E828F83A3A3A3A339
:10A79000A3A3A3A3E064027009EE240B12A9B2F4F0
:10A7A000600302A9A6741E120C12E0600764026026
:10A7B0000302A9A69019CBE06402700302A88BE003
:10A7C0006406700302A88B90192C12D19F600812A6
:10A7D000A9CB700302A8BF9019CBE064086008E021
:10A7E0006404600302A9A6741E120C1212A9BEA36F
:10A7F000A3A3A3A3A3A312DF6690192CE0F84960DA
:10A8000009A3E012A9AB640260779019C9E06E70E9
:10A8100003A3E06F600302A9A674016A60167423A3
:10A82000120C12AC82AD837ADD7B19121351E960F0
:10A830000302A9A67A007B02901A16E0F9121333DC
:10A84000EA4B4C4D600302A9A69019CC120BEF8580
:10A850001882851983120BE39019D2E0C0E07404CA
:10A86000120C12D0E0F07405120C127401F0740690
:10A87000120C12740212D1CD121B13E9600302A94B
:10A88000A3EEFAEFFB12229902A9A690192C12D17D
:10A890009F702C75080078081208F478081208F4E4
:10A8A000EE2410F582E43FF58312D18FA3A3A3A376
:10A8B000A312BBB612D74F122197740212091E8E33
:10A8C000828F8312BB967407120C12E8F0A3E91270
:10A8D000B1B212BB967409120C1212BBC412C13F62
:10A8E000C0E0740B120C12D0E0F0EE240B12E76EF5
:10A8F000740F7808120BAD740C120C12E508F0748A
:10A9000020120C12E0C0E0740D120C12D0E0F074B2
:10A9100022120C12E0C0E0740E120C12D0E0F0749F
:10A920001D120C12E0C0E07410120C12D0E0F07492
:10A930001E120C12E0C0E0740F120C12D0E0F0EE08
:10A94000241012A9B2C0E07411120C12D0E0F074FD
:10A9500021120C12E0C0E07412120C12D0E0F0745C
:10A960002E120C12E0C0E07413120C12D0E0F0743E
:10A9700023120C12A982AA8389088A09750A007811
:10A98000081208EC7C087D007417120C12AA82AB26
:10A99000831211A1740312091E740712098E121B6F
:10A9A000978003121B19742F02B86212D3BA22EED9
:10A9B000240F12A9B622F582E43FF583E02212C1EA
:10A9C00035A322A3E0F98A828B832212D3B56401D6
:10A9D00022C082C08374C91209B61222B79019CB63
:10A9E000E064086025902F20E4939019ADF0902F3B
:10A9F00020E4939019ABF09019D47401F0A312AB3A
:10AA00004F04F0A3E4F0A3F0A3F07C237D007900D1
:10AA1000741412098E1211B39019DCE07009741EBF
:10AA2000120C1274018006741E120C12E412BCE5A2
:10AA3000740FF0901C5C12D1CD794612195D74012F
:10AA4000120C12E4F0901C27E0C0E07402120C1209
:10AA5000D0E0F09019B9E0C0E07403120C12D0E01D
:10AA6000F07404120C12E4F07405120C12E4F07489
:10AA700007120C12E4F09019DCE0C3940F500CE0C4
:10AA8000C0E07406120C12D0E080077406120C129B
:10AA9000740FF07CDD7D197408120C12AA82AB834E
:10AAA0001213577C037D0079FF7410120C12AA82D6
:10AAB000AB831211B3901A15E0C0E07413120C129C
:10AAC000D0E012CE10740112098E1220B37A197BD5
:10AAD0001A794512195D1221C79019D0E0C0E074AF
:10AAE0001C120C12D0E0F09019D1E0C0E0741D12DD
:10AAF0000C12D0E0F09019BEE0C0E0741A120C12F3
:10AB0000D0E0128DE77418120C1212CEC774201206
:10AB10000C12E4F09019D3E0C0E0741F120C12D0B4
:10AB2000E0F07434120C12E4F07429120C12E4F008
:10AB30007ABC7B19795312195D7ABF7B19794B1254
:10AB4000195D741412098E122863743702BCC0E4B4
:10AB5000F0A3F0A3F0A322C082C0838A828B83A3D8
:10AB6000E09019CB6004E4F080777408F09019DC71
:10AB7000E0702890193712D19F6008790012CA3707
:10AB80001205669019C912BBA87A057B00121165DF
:10AB90009019C912D74F122305801F7900121B91FB
:10ABA0009019BC12BBA87A067B001211659019BFE0
:10ABB00012BBA87A047B00121165901A4F12D19F24
:10ABC000601F901C39E06401701790882E120714E2
:10ABD0007A007B40901A16E0F912132774041209C8
:10ABE0001E02C64D0208D074F21203EE74F8120968
:10ABF000B68A0A8B0B8C0C8D0D89089087ACAC182B
:10AC0000AD19740812082EC200AC0AAD0BAA18AB1D
:10AC100019121351E97002D200901A178014AC0A6D
:10AC2000AD0BEE240BFAE43FFB121351E9701B123B
:10AC3000BB6512B52D601EA20040E38E828F83E0BB
:10AC4000650C7004A3E0650D70E58E828F83A3A36D
:10AC5000E0650870DAEEFAEFFB740802AE33C082EA
:10AC6000C083901A1702C64AC082C083901A17E4A4
:10AC7000F0A302AF0974F71203EE901A17128DCAEF
:10AC8000800FEA2414F582E412DF63121267EEFAF1
:10AC9000EFFBEA4B70EC901A17E4F0A3F002B5F268
:10ACA00074F41203EE8A088B09EA12CEA9E0640359
:10ACB000700DEA240BFAE43509FB121A9B800FE0B1
:10ACC0006402707BEA12943712D74F121A958A0ADF
:10ACD0008B0BAE0AAF0BEE4F60658508828509834A
:10ACE000A3E0700D8E828F83A3A3A3A3A3A3E4800C
:10ACF0004D64F1600C850882850983A3E064E170EE
:10AD0000258E828F83A3A3A3A3A3A3E0640170165F
:10AD10008E828F8312D74F121C69E508240BFAE448
:10AD20003509FB121AA78E828F83A3A3A3A3A3A323
:10AD3000E0600C8E828F83A3A3A3A3A3A314F0804F
:10AD400005740912091E7F0402060574F21203EE4F
:10AD50008A0C8B0DECFEEDFF890B8A828B8312CE61
:10AD6000B6F0A3A882A9838A828B8312AE1312B392
:10AD700031A3E0C454F0FA88828983E04A12C17397
:10AD8000850C828B83A3A312AE1312AE26E033335D
:10AD900054FC12AE1AE033333354F812AE1AA3E067
:10ADA000A2E0E4331313FA88828983E04AF0EE24A8
:10ADB00003FE50010FE50C2407F508E4350DF509F5
:10ADC000750A0078081208EC7C087D00EEFAEFFBAB
:10ADD0001211A1740312091EEE2408FE50010FE5A2
:10ADE0000C240FF508E4350DF50978081208EC7C01
:10ADF000037D00EEFAEFFB1211A1740312091EE5A8
:10AE00000BC3940F400BE50C12BCCE350D12C7A737
:10AE1000F08023A3E08882898322FA88828983E0F4
:10AE20004A12AE26A322F0850C828B83A3A3A3A390
:10AE300022740312091E7F0602060574F21203EE45
:10AE4000EAFEEBFF8C0C8D0D8E828F83E08C828D61
:10AE50008312C7DDA882A983E0540F8C828D8312F0
:10AE6000B1ACC412C5E712C16912C5EF12B1AAA2F2
:10AE7000E2E4338C828D8312B1A9131313541F1291
:10AE8000C5E712B1A9A2E7E4338C828D83A3A3A303
:10AE9000A3A3A3F0EE2403FE50010F8E088F0975C3
:10AEA0000A0078081208EC7C087D00E50C2407FAFB
:10AEB000E4350DFB1211A1740312091EEE2408FEE5
:10AEC00050010F8E088F0978081208EC7C037D0072
:10AED000E50C240FFAE4350DFB1211A174031209DD
:10AEE0001E8E828F83A3A3A3E0C0E012F7DAD0E026
:10AEF000F002AE36C082C083E9901A297003E48064
:10AF00000274018004EAF0A3EBF002C64DE0F902FE
:10AF1000C64DC082C0837C2F7D208A828B8312D74E
:10AF20004F12197B02C64D74F61203EE901A29E0F7
:10AF3000701B7C0079017A007B001220FBEA4B60D9
:10AF40000C8A828B8312D19F600312203502C85A6B
:10AF5000C082C08379041220F5E9F8902F1EE49393
:10AF6000C398401079FF1220F5E9F8902F1DE49363
:10AF7000C398500479018002790002C64D74F21220
:10AF800003EE8A0A8B0B8909C2008A828B83A3A3F2
:10AF9000A3A3A3A3A3A3E0F91221018A0C8B0DAEF6
:10AFA0000CAF0D750801EE4F600302B068850A8290
:10AFB000850B83A3A3A3A3A3A312BBA8850A8285A1
:10AFC0000B83A3A3A3A3A3A3A312B19F12D74F12D2
:10AFD00020E98A0C8B0DAE0CAF0DEE4F700302B161
:10AFE0007D8E828F83A3A3A3A3E4F0A3F0E50A24BC
:10AFF0000CFAE4350BFB8A828B83E0C0E012D6FEAC
:10B00000D0E0F0E50A240D12D18012DD6712CEC720
:10B0100012222112B5CB12DF72E50A241112D1805F
:10B0200012C79412CEC7E50A241312E670C0E012CC
:10B03000BB6FD0E0F0D200EE2406129F3512B1961D
:10B0400012B1AD5404600302B0D6901C25E0F50A9D
:10B05000750B007407780A120AE28E828F83A3A30D
:10B06000A3A3A3A312B18DF08E828F83A3A3A3A366
:10B07000A3A3E0F50AA3E0F50B7407780A120BAD61
:10B08000E50A5407FCE509605C8E828F83A3A3A3C5
:10B09000A3A3A3A3A3A3740212C7E212B465600B17
:10B0A0009019B712C226A3A312CEC7EC700302B147
:10B0B00049EE240612BB8012B196F0EC24FFF50A8B
:10B0C000E434FFF50B7407780A120AE28A828B8354
:10B0D00012B18DF080738E828F83A3A3A3A3A3A349
:10B0E000E044808082EC7005750800805C8E828F61
:10B0F00083A3A3A3A3A3A3E05420600C1211CBEA63
:10B10000547F7900245F80198E828F83A3A3A3A329
:10B11000A3A3E05410601A1211CBEA540F79002453
:10B120000A5001098E828F83A3A3A3A3F0A3E98011
:10B130000D8E828F83A3A3A3A37401F0A3E412B1A5
:10B14000B2740412B3E9121213A200503312BBB24C
:10B15000A3A3A3A3A3A3A3A3A3E0F9EEFAEFFB1277
:10B1600020EFE9601B12B18512D19D600912B5CBA9
:10B1700012D74F121267EEFAEFFB12126775080032
:10B18000A90802AE36EE240FF582E43F22E0450A1C
:10B19000F0A3E0450B22E0547FF0A3E054FC22A38F
:10B1A000E0F9850A82850B8322A3A3A3A312EADF19
:10B1B000E02212B1B62212B856A3A3A32274F4124D
:10B1C00003EE74F71209B67E00122101EA4B7003F8
:10B1D00002B2798A828B83A3A3A3A3A3A3A3A3A36D
:10B1E000E06406600302B2798A828B83A3A3A3A3DF
:10B1F000A3A3A3E0FF8A828B8312B27EE0C0E07437
:10B2000008120C12D0E012B6B312CEBD12211FEFFD
:10B210005408606385188285198312BBA87A007B65
:10B22000001220E38B0BEA450B704C12F7E5121964
:10B230008D7C007D007A007B0080288E828F8312B7
:10B24000B840F47003A3E0F4602D9019C912BBBAA2
:10B2500012D74F121987E9641A601C7C007D00EE3A
:10B26000FAEFFB1220E38A0A8B0BAE0AAF0BEE4F0C
:10B2700070C979001219937E01EEF902AD4112DF17
:10B280004A2408F582E438F58322C082C0838A828A
:10B290008B83E58245837009901A2E80068A828B03
:10B2A00083A3A312B49960208A828B83A3A3A3A350
:10B2B000A3A3A3E0540860E5EC4D601012B4DB706A
:10B2C00003A3E06D70D780047A007B0002C64D7442
:10B2D000F21203EE8A088B09890AECFEEDFF7A145C
:10B2E0007B00121261EA4B603B8A828B83A3A3A38B
:10B2F000A3A3A3A3A3A3E412B6A8A3E50A12E3A001
:10B30000A3A3A3EEF0A3EF12B33612B6BA12B33D65
:10B310008A828B8312F7EDEA240F12B32712B3301F
:10B32000A3F0A3F002AE36F582E43BF583E4F0220D
:10B33000A312F5B0A32212E3B0E4F0A322A3F0120B
:10B34000DF5C12B32A2274F51203EEEAFEEBFF89EA
:10B350000A8C088D09EE4F700302B3E47401650A8C
:10B36000701279011220F5E9F8902F1FE493C39829
:10B37000502280167404650A701479041220F5E9CD
:10B38000F8902F1EE493C398500A791180587402E4
:10B39000650A70508E828F83A3A3A3A3A3A3A3A344
:10B3A000A3E50A12C7E212F7E98E828F83A3A3E412
:10B3B000F0A3F0901A2E12D19F6018800312BB9652
:10B3C00088828983A3A312B49988828983A3A370F6
:10B3D000EC8003901A2EEEF0A3EF12B3E9121213D1
:10B3E0007900800279C102B865F07A207B00901A5A
:10B3F00016E0F922C082C083E9F87900901A2E8005
:10B400001D8A828B83A3A3A3A3A3A3A3A3A3E06802
:10B41000600574FF687001098A828B83A3A312B44C
:10B420009970DE02C64D74F71203EEEA4B70059078
:10B430001A2E80068A828B83A3A312B499601F8A76
:10B44000828B83A3A3A3A3A3A3A3A3A3E06970E414
:10B45000EC600F8A828B8312B46570D880047A0006
:10B460007B0002B5F212F598E0540422C082C0833A
:10B47000901A2E80068A828B83A3A312B49960123D
:10B480008A828B83A3A3A3A3A3A3A3A3E06970E5EC
:10B4900080047A007B0002C64D12D3E8EA4B227486
:10B4A000F71203EEEAFCEBFD901A2E80068A828BDF
:10B4B00083A3A312B499601C12B4DB7003A3E06DE4
:10B4C00070EB8A828B8312B5E512DA93A2E0E43343
:10B4D00070DB80047A007B0002B5F28A828B8312D3
:10B4E000B8446C2274F21203EE8A0A8B0B8C0C8D1A
:10B4F0000D750800750900EA450B602A901A2E8028
:10B50000068E828F83A3A312B52D601AAC0CAD0DED
:10B51000EEFAEFFB850A82850B83120566E964016A
:10B5200070DF8E088F09AA08AB0902AE36E0FEA3D1
:10B53000E0FFEE4F2279000208D074F71203EE907C
:10B540001A2E12BB967C007D00800DE8FCE9FD8878
:10B55000828983A3A312BB96E8496030EA6870022F
:10B56000EB6970E7901A2E12D74FE86A7002E96B08
:10B5700088828983A3A3700812BB96901A2E800933
:10B5800012BB968C828D83A3A312CEC7806474F7FE
:10B590001203EEEAFEEBFFEE4F602E12211912B5F8
:10B5A000D912D74F1212678E828F8312D74F121281
:10B5B0006712B18512D19D600912B5CB12D74F1217
:10B5C0001267EEFAEFFB1212678027EE12B5D02257
:10B5D000240FF582E43FF583228E828F8312B5E338
:10B5E000F58322E0F8A3E0C8241FF582E438221294
:10B5F000091E7F0102060574F61203EE8A828B8310
:10B6000012C4D912E774901A2E12BB967D007C00EA
:10B61000803488828983A3A3A3A3A3A3A3A3A3E0C5
:10B62000640570190C88828983E0FEA3E0F5838E9F
:10B6300082E065087004A3E0650970010D888289C5
:10B6400083A3A312BB96E84970C8902F1BE493F81C
:10B65000EDC3985008902F1A12EBE9400F8A828BA5
:10B6600083A3A3A3A37401F0A3E480109019B7E00F
:10B67000F812A9C3A3A3A3A3E8F0A3E912B6BA746E
:10B680000512B6A8E0440812B6B3F47003A3E0F4C0
:10B69000600E9019C912DABC121987E9641A700594
:10B6A000790112199302C85A12B6AC2212E3B4A35C
:10B6B000A3A32212F5B012B8442212B6ACA3A3225F
:10B6C00074F61203EE901A2E12DF6680308E828F8F
:10B6D00083A3A312E77412B5D912D74F1212678E43
:10B6E000828F8312D74F12126712B5CB12D74F1227
:10B6F0001267EEFAEFFB121267AE08AF09EE4F7059
:10B70000CC901A2EE4F0A3F002C85AC082C083EA9B
:10B71000FCEBFDEC4D6017EC24FBF582ED34FF12E1
:10B72000D19D700712B765E0F460071211D7790553
:10B730008030901A16E0C0E012B765D0E0F0902F8C
:10B740000EE493F97A307B1A12120DE9640170103D
:10B750007A007B20901A16E0F91212137900800209
:10B76000790402C64DEC24FFF582ED34FFF5832207
:10B7700074F41203EEA2AFE433F508C2AF901A30AE
:10B7800012B52D603AEE24FBF582EF34FF12D19D05
:10B790007A007B20901A166007E0F91212138005D8
:10B7A000E0F9121219E4F50AF50B780A1208F0EE26
:10B7B000FCEFFD7A307B1A121207740212091EE5A3
:10B7C00008A2E092AFEEFAEFFB02AD4674F5120369
:10B7D000EE8A088B09750A00901A2E80548E828F8B
:10B7E0008312B84065087004A3E06509703D8E823D
:10B7F0008F83A3A3A3A3E4F0A312B84D5404601154
:10B800008E828F83A3A3A3A3A3A3A3A3E0F9121CF7
:10B81000D58E828F83A3A3A3A3A3A3A3A3A37406FC
:10B82000F07AF0128DCF12203B050A8E828F83A30F
:10B83000A312B52D70A7A90A802BF582E43FF583EA
:10B8400012B8442212F6D4F5838882E02212B8524C
:10B85000E02212B85622F08E828F83A3A3A3A3A363
:10B86000A32212091E7F0302060574F01203EE7470
:10B87000D41209B6EAFEEBFF750A00750B007508D5
:10B88000FE7509FF1220D1E9600302BB58EE2415B2
:10B8900012A9B26041901C41E0C43354E0F8E03397
:10B8A0003354FC48C0E012D8C1D0E012BBC9FAA39F
:10B8B000E0FB79FF121DD18B0DEA450D6015750A6D
:10B8C000017508FF12A9AF4404F0EE241512A9B2C5
:10B8D000D2E0F0750B408E828F8312D74D12221565
:10B8E000E96006EE241212CF94EE241312A9B2706E
:10B8F0000D902F12E493C0E012BB6FD0E0F08E8267
:10B900008F83E0A2E7500454038019EE241412A997
:10B91000B270129019A8E0C0E012BB65D0E0F090C0
:10B9200019A8E004F012F56E7016901C29E0600D65
:10B930009019B3E0700A8E828F83E0700312CF916A
:10B940009019B6E0A2E15041E50AA2E040208E82C3
:10B950008F8312D74D122215E9602E8E828F83E0DD
:10B96000600CEE240B12915D1221F7E9601B12A905
:10B97000AF5440700302BB0AEE241312F57160034A
:10B9800002BB0A12A9AF54FBF08E828F83E06401E0
:10B990007010EE240B12B83A6402700612A9AF447C
:10B9A00040F012A9AF5440600302BA68E50AA2E071
:10B9B000500302BA689019B6E0A2E1400302BA68E7
:10B9C000E50BF50A780A1208F4EE2406FCE43FFDC4
:10B9D0008E828F8312D74DEE241212A00B121CFF01
:10B9E000740112091EE9600CEE241212CF9412A900
:10B9F000AF4420F08E828F83A3A3A3A3A3A3E06010
:10BA00003FEE2402F50EE43FF50F850E8212957A83
:10BA10002407FAE43FFB12215B8A088B09850E821A
:10BA2000850F83E065087004A3E06509700C8E82C1
:10BA30008F83A3A3A3A3A3A3E4F012A9AF4440F070
:10BA40008E828F83E06401600BA90B12BBB612D704
:10BA50004D121C9FA90B12BBB212D74D121C33E919
:10BA6000600612A9AF4420F0AC18AD19EEFAEFFB56
:10BA70001221558A0A8B0B74FE6508700474FF65E9
:10BA80000970098E828F83A3A312E774EA450B70B5
:10BA90000302BB5C8E828F83E0C0E07401120C1243
:10BAA000D0E0F07404120C12EEF0A3EFF0EE241EBE
:10BAB00012BB907402120C1212CEC77401120986C6
:10BAC000880C890D780C1208F0EE242012BB781235
:10BAD00008F412B5CB120718EE240E12BB78120828
:10BAE000F49019BC1207187408120C12E0F9AC0893
:10BAF000AD0912214F740812091EE9FE74106E7010
:10BB00005DAA0AAB0B1212678054EE241312A9B27D
:10BB1000C0E07417120C12D0E012D709740F120C87
:10BB20001212BBC4240412BB8012BB967411120CF7
:10BB300012E8F0A3E912C196C0E07418120C12D0FA
:10BB4000E012EA4D12A9C412BBA8740612098E12A3
:10BB50001CCFE9600302B989791180047E10EEF9E7
:10BB6000742C02DBECEE2414F582E43FF583221200
:10BB7000BB7322EE12F5C02212A9B6F50C780C2286
:10BB8000F8E43FF9E8FAE9FB8A828B8322EE24137A
:10BB9000F582E43FF58312BB9A2212F6D4F922EE25
:10BBA0002413F582E43FF58312BBAC22E0FCA3E052
:10BBB000FD228E828F83A3A3A3A312BBAC8E828FA0
:10BBC0008322A3A312D07BEE2212BBCD22F08E8261
:10BBD0008F83A3A3E022C082C08374D71209B690DA
:10BBE00085187403120996742612082E8A828B8394
:10BBF000A3A3A3A312BB96740E120C1212F5A8A352
:10BC0000A312BB96740C120C1212BCE0240DF58228
:10BC1000E412BCDBC0E0741A120C12D0E0F012D9AE
:10BC20003E12BB947420120C1212BCE012DF3612CA
:10BC3000BCDBC0E07408120C12D0E0F0EA241CF562
:10BC400082E43B12BB947412120C1212BCE012C7B5
:10BC50009B12BCDBC0E07409120C12D0E0F012BCE5
:10BC6000CD12BCDBC0E07407120C12D0E0F012BCA5
:10BC7000C63B12BB947424120C1212BCE02420F5B3
:10BC800082E412BCDBC0E07426120C12D0E012BCBD
:10BC9000E574FFF07401120C1274FFF07402120CC0
:10BCA0001274FFF0908852120714740412099674EB
:10BCB0000712098E121B7F740412091E7900742961
:10BCC00012091E02C64DEA241EF582E422EA24125D
:10BCD000F582E42274732AF58274073BF583E0222F
:10BCE00012D07BEA2212BCE922F0851882851983E2
:10BCF0002274F01203EE74EC1209B68A0E8B0F8CCC
:10BD0000088D09890C7F107A217B0012126112BE06
:10BD100063E849700302BE487E007C217D00790003
:10BD2000851882851983E0FA1211B3AA08AB0912AB
:10BD30001A957427120C1212BB96EA4B60238A8262
:10BD40008B83A3A3A3A3E06401600D8A828B83A3EA
:10BD5000A3A3A3E064037009E85440700474044989
:10BD6000F9E9540460027E019019C912BE4F12F520
:10BD700082ECF0A3EDF07424120C1212D74F741160
:10BD8000120C12EAF0A3EB12BE7512DBE13AF58356
:10BD9000740212BE752408F582E43AF58374021227
:10BDA000C52DFAA3E0F5838A82E508F0A3E5091220
:10BDB000BE7512BCC73AF583E50CF07426120C125E
:10BDC000E0F508128DC4CA12EA5F3AF583E508125D
:10BDD000BE75241FF582E43A12BE597406120C1285
:10BDE00012CEC77408120C12E508F0742A120C1255
:10BDF00012C4D9C082C083740C120C12AC82AD8301
:10BE0000D083D082740512082E7429120C12E0C05F
:10BE1000E07413120C12D0E0F0EEF9AA18AB19126C
:10BE200020D7E964017015EEA2E0500CA908122198
:10BE300001EA4B60031221257F00800C8518828562
:10BE4000198312D74F121267EFF9741402DBEC1248
:10BE5000BBAC85188285198322F583E50EF0A3E536
:10BE60000FF022851882851983EAF0A3EB12C53101
:10BE7000F8A3E0F92212C531FAA3E0CA2274F01245
:10BE800003EE74FF1209B6EAFEEBFF8C088D098EF3
:10BE9000828F83A37408F0EE241612A9B260088E74
:10BEA000828F83A37410F0EE241712A9B260098E5A
:10BEB000828F83A3E02408F0EE241512A9B2600853
:10BEC0008E828F83A3E004F08E828F83A3A3A3A32B
:10BED000A3A3E060198E828F83A3A3A3A3A3A3A32C
:10BEE000E0C3332402F88E828F83A3E028F0EE248F
:10BEF0001112A9B28518828519836004740E80011D
:10BF0000E4F0EE2423F582E43FF58312C52CF98E8C
:10BF1000828F83A3E012C13D28298C828D83F0EEAD
:10BF2000241112A9B260139019B4E0F9121F81E92B
:10BF3000F8850882850983E029F0850882850983D0
:10BF4000E0C394754009750C00750D0002C12CE02A
:10BF5000FA7B001212618A0C8B0DEA450D70030208
:10BF6000C12C8E828F83E0FA9019B912C1627402DB
:10BF70007808120AE2EA4508FAAB09EE241212C167
:10BF80005C74067808120AE2A808EA48FCEBFDEEA9
:10BF9000241512A9B26004780180027800EE2416FC
:10BFA000FAE43FFBE4C8F9ED49FDEE241112A9B211
:10BFB000F508880974097808120AE2ED4509FD8A36
:10BFC000828B8312C162740B7808120AE2ED450974
:10BFD000FDEE241712C15C740C7808120AE2ED45DC
:10BFE00009FD8E828F83A3A3A3A3A3A312C16274AE
:10BFF0000A7808120AE2ED4509FDEE242312C15C1D
:10C00000740D7808120AE2ECF8ED4509F9E8850CA0
:10C0100082850D83F0E912C169850C82850D83123A
:10C02000C18CF0EE2404129F3512C14E12C18CA3B4
:10C03000A312F5B612C14EA3A3A3A312C196850CF9
:10C0400082850D83A3A3A3A3A3A3A3F0750B088AE2
:10C05000828B83E06015EE241812BBA2E50C240845
:10C06000FAE4350DFB121357750B10EE241712A9C5
:10C07000B26019EE241A12BBA2A80BE50C28FAE450
:10C08000350DFB1213577408250BF50B8E828F8329
:10C09000A3A3A3A3A3A3E06054EE2407F50EE43FFB
:10C0A000F50F850E82F583E0C0E012C145D0E012A5
:10C0B000C17CE0C0E00812C147D0E012C17C12DDB3
:10C0C000741208EC850E82850F83E012C4A6A80BBB
:10C0D000E50C28FAE4350DFB1211A1740312091EB8
:10C0E000850E82850F83E0C333250BF50BEE2415F7
:10C0F00012A9B26008C0E012C145D0E0F012C7A199
:10C1000012DD751208EC12C13EFC7D007403120CA6
:10C110001212C135E0F8E50C28F8E4350DF9E82AEB
:10C12000FAE439FB1211A1740312091EAA0CAB0D1B
:10C13000740102DBECE0FA8E828F83A322F8EE24F6
:10C140000D12A9B622A80BE50C2812C4C52212C1F3
:10C150005222E0850C82850D83A3A322F582E43F61
:10C16000F583E0F50875090022A312C1738882895E
:10C1700083E022F0EE2402F8E43FF922F0050B8E72
:10C18000828F83A3A3A3A3A3A3A3A322A3A312E7A2
:10C190008212C152A322F0EE241412A9B62274F422
:10C1A0001203EE74FD1209B6EAFEEBFF8C088D094E
:10C1B0007401120986880A890B780A1208F0740241
:10C1C000120996AA08AB09121C7B740212091EE917
:10C1D000704B85188285198312CEB6F07401120C4B
:10C1E0001212C22612C2306027148E828F83A312CD
:10C1F000C52D12DCC27401120C12E028F8A3E0393C
:10C20000F9E824FEF582E934FFF58312D74F801157
:10C210008E828F83A3E4F0AA08AB0980047AFE7BA8
:10C22000FF740302AD4312BB9A8E828F83A3A322B5
:10C23000E812C2352212D07C851882851983E0224B
:10C2400074F01203EE74FD1209B612DF6C74021260
:10C250000C12E9F08C0C8D0D750B017C267D00799C
:10C2600000AA0CAB0D1211B37402120C12E0C394AD
:10C2700008500302C433E0850C82850D83F0AC0CBA
:10C28000AD0D85188285198312B840FA851882850C
:10C29000198312CA3612C7D1122167E96003750BE0
:10C2A0000085188285198312C4D912C4EDE0F9EA19
:10C2B000850C82850D83A3A3A3A3A3A3A3A3A31289
:10C2C000C53FF5838882A3A312C4EDA3A3E0F9EAD6
:10C2D000F812DA7BE812C53F12A9ABC0E012DA729D
:10C2E000D0E012C52DF8A3E0C82407F582E438F5A4
:10C2F00083E0C0E012F7DAD0E012C51F740812C55F
:10C3000036A3E06020851882851983E02408F8A30D
:10C31000E03400F9E50C241312F7DEE8F0A3E9128B
:10C32000DBE52408F0850C82850D83A3A3A3A3A3DA
:10C33000A3A3A3E0602A850C82850D83A385820ECA
:10C3400085830F12C4E7F8A3E03400F9E50C241547
:10C3500012F7DE12CEC7850E82850F83E02408F027
:10C3600012C4ADE4F012C4BDE4F0A312C51FA3A330
:10C37000A3A3E0601112C4F9850C82850D83A3A3E9
:10C38000A3A3A312C546E50C12C4CDE0700302C4FA
:10C390001F12C4F9FA12C4ADEA12C546F885188214
:10C3A000851983E028FBA3E034008B82F583E0F855
:10C3B000E50C241A12F7DEE812C546E8C39AE50C2C
:10C3C000505812C4D4F8902F0FE493C39850047EB1
:10C3D0000C8006E50C12C4D4FE850C82850D8312F8
:10C3E000C4E6F508A3E03400F509750A00780812E0
:10C3F00008ECEE12C4A67A437B0A1211A174031250
:10C40000091E12C4BD7443F0A3740AF0EEC333F8DE
:10C41000850E82850F83E028800412C4CDE4F08568
:10C420000C82850D83A3E0F8850C82850D83E0C323
:10C430009850047900806C12C4E6FAA3E03400FB43
:10C44000E50C12DA6C12F7E112DF72850C82850DB1
:10C4500083E0C398C0E012DA63D0E012C536E06032
:10C4600040E50C2417FEE4350DFF8E828F83E02417
:10C47000F2F0E50C241DF8E4350DF988828983E09B
:10C48000240EFAA3E03400FB8882898312DF7290C5
:10C4900019B4E0F9121F81E9F88E828F83E0C39806
:10C4A000F0A90B02DBEA25E0FCE433FD22E50C12E7
:10C4B000C4B3222419F582E4350DF58322E50C245A
:10C4C0001B12C4C522F582E4350DF5832212DE0D60
:10C4D00012C4C82212C4B3E02212C4DD22E0F8A3C1
:10C4E000E0F583888222A312C516E02822A3A312B6
:10C4F000CA2D12C4DFA3A3A322850C82850D83A3BA
:10C5000085820E85830F12C516E028FAA3E0340059
:10C510008A82F583E022E0F8851882851983221249
:10C52000C52322F0850C82850D83A322E412C53138
:10C530002212BCE9E02212C523A3A3A3A3A32212C3
:10C54000C235F8A3E022F0850E82850F83E004F067
:10C550002274F41203EE8A088B09EA12C5EFA3A332
:10C56000F0EA1313543F12C5E7A3A3F0EAC4131370
:10C5700012C5EF12C6027409780A120BAD12C5F685
:10C58000A3A3A3A3A3A3F0EB12C5F812C601740AD8
:10C59000780A120BADE50A5401C0E0EC12DE0D3D45
:10C5A000F583D0E012C606740B780A120BAD12C5E3
:10C5B000F612C5FF740C780A120BAD12C5F6A31261
:10C5C000C5FF740D780A120BADE50A5401C0E0EC0A
:10C5D0002424F582E43DF583D0E0F0740E7808124F
:10C5E0000BADA90802AD46540F8C828D83A3225453
:10C5F000038C828D8322E50A54018C828D8322A3D1
:10C60000A3A3A3A3A3A3F08A0A8B0B22C082C08397
:10C6100079008A828B83A3A3A3A3A3A3E09019B379
:10C62000600EE070238A828B83A3A3E0701A8016C9
:10C63000E060158A828B8312D7469019BCE06A703D
:10C6400003A3E06B60027901800312D74FD083D03F
:10C65000820208D074F21203EE8A0A8B0B890CEC6A
:10C66000FEEDFF8A828B8312C7CF122167850A8273
:10C67000850B83A3A312C7C3E0F9EA8E828F83A33D
:10C68000A3A3A3A3A3A3A3A312C7F012C7C3A3A3E7
:10C69000E0F9EAF812C7A1E812C7F0A3A3E0C0E0EE
:10C6A000EE12C794D0E012C7F7A3A3A3E0C0E0EE58
:10C6B00012BCCE3FF583D0E012C7DD740812C7E884
:10C6C000A3A3A3E06016E50A2408F8E4350BF9EE0D
:10C6D000241312CF8612C7DDE02408F08E828F83E8
:10C6E000A3A3A3A3A3A3A3A3E060148E828F83A319
:10C6F00012C7B2EE241512CF8612D1BA2408F08EDA
:10C70000828F83A3A3A3A3A3E0601F8E828F83A342
:10C71000858208858309E0F8E50A28F582E4350B6F
:10C7200012C7A7A3A312D1BA04F0EEFAEFFB1221AD
:10C730006DE9F50D70598E828F83A3A3A312CEB33A
:10C74000A37014E0F8E50A28FAE4350BFB12D2ECEA
:10C7500012DF72E50C802812C7B2E8240EF85001EF
:10C760000912D2EC12CEC79019B4E0F9121F81E978
:10C77000F8850882850983E0F9E50CC39924F2C3A2
:10C7800098C0E0EE2417F582E43FF583D0E0F0A9ED
:10C790000D02AE3612C79B3FF583222411F582E4C9
:10C7A0002212CFA6F58322F583E08E828F83A3A386
:10C7B000A322858208858309E0F8E50A28F8E43594
:10C7C0000BF922E0FA850A82850B83A3A3A322E05A
:10C7D000FAA3E0F8E4C8F9EA28E439FB2212C7E238
:10C7E000A322F08E828F832212C7E2A3A3A3A322E7
:10C7F000F0A3E912C7F722F0850A82850B83A3A371
:10C80000A3A322C082C0837A3E7B1A79E212195711
:10C810007A3E7B1A02C64DC082C0839019BC02C604
:10C820004AC082C0839019BF02C64AC082C08379C1
:10C830004A12195702C64D74F61203EE901A46E0DA
:10C84000FE04F0EEF91221018B09EA450970EDEEC4
:10C8500060EAF98005740112091E7F020206057460
:10C86000F01203EE74FD1209B67401120C12ECF012
:10C87000A3EDF0E9851882851983F08A0E8B0F7E6F
:10C88000008E087401120C1212BBA812230B8A0A24
:10C890008B0B7413120C12E0F50C7414120C12E0D2
:10C8A000F8EA450B701CE8600302C98F8518828581
:10C8B0001983E0F97401120C1212CA3B12232F02E1
:10C8C000CA2AE8700302C94A901A4B12D19F600627
:10C8D00012CA37120566E50C700B850A82850B8338
:10C8E000E4F002C98A9019B6E0A2E1400302C9A7A8
:10C8F000901A4D12D19F600CA90CAA0AAB0B12CA58
:10C9000037120566850A82850B83E0FA12EA3B50EE
:10C910000109C3EA98E499A2D265D0335009850A87
:10C9200082850B83E004F0850A82850B83E0F89012
:10C930002F0DE4936870700EAA0EAB0F121D0B85BD
:10C940000A82850B83A3E4F0805DE50C702BEA245A
:10C9500002F8E4350BF98882898312CA2DE0FCEADB
:10C960002CFAE4340013EA1388828983F0700A8574
:10C970000A828B83A3A37401F0850A828B83A3A30D
:10C98000E0F8901BE6E0C398501D7508018018740C
:10C9900001687013E50C600F9019B6E0A2E1500732
:10C9A000AA0EAB0F121D0BE508A2E092F0EEA2E07A
:10C9B00072F050769019B6E0A2E15038AA0EAB0F93
:10C9C000121A958A0A8B0BA80AA90BE8496025E57B
:10C9D00008A2E0500D88828983A3A3A3A3A3E0C289
:10C9E000E0F0EEA2E0504388828983A3A3A3A3A32F
:10C9F000E0D2E0F0EEA2E050319019B6E0A2E150B2
:10CA000012AA0EAB0F121A83E96008AA0EAB0F79B7
:10CA10000080149019BFE0650E7004A3E0650F70EC
:10CA200009AA0EAB0F7901121BB502DBEAE0FA8509
:10CA3000188285198322A312C4E02212BBACAA0E6D
:10CA4000AB0F2274F41203EE8A088B098C0A8D0B4B
:10CA50009087EE78081209F7700E7A017B00901A21
:10CA600016E0F91212138031901C137808120B8F04
:10CA7000128FF1601878081208E87A017B00901A8A
:10CA800016E0F9121321740412091E800C7A017B3E
:10CA900000901A16E0F912132D02AD46C082C08331
:10CAA000901C1702AF05C082C083901C1902AF050D
:10CAB00074F61203EE7E007508A87509197808123D
:10CAC00008F07C6E7D007A217B001212D97402126C
:10CAD000091EE9640A70027E01121A5FE9640A7095
:10CAE00004EED2E1FE121AD1E9640A7004EED2E239
:10CAF000FE90033612D19F600F12CA37120566E905
:10CB0000640A7004EED2E3FE121DE3E9640A7004C5
:10CB1000EED2E4FE1218D9E9640A7004EED2E5FE02
:10CB2000EEF902C85A74F61203EE12115F7508A8E6
:10CB300075091978081208F075086E7509007808EB
:10CB40001208F07C007D007A217B001212E574044B
:10CB500012091E121A65121AD790033812D19F605B
:10CB60000612CA37120566121DE91218EB02C85ADE
:10CB700074F61203EE74FF1209B67E007508A875EC
:10CB8000091978081208F07C6E7D007A217B00126A
:10CB900012D9740212091EE9600302CC55780812FA
:10CBA00008F075086E8E0978081208F07C007D0088
:10CBB0007A217B001212EB740412091EE960030251
:10CBC000CC559019BCE064FE7003A3E0F47003023E
:10CBD000CC557E019019CBE064086005E0640470D8
:10CBE0006F851882851983EE12D1CD794212195DB5
:10CBF0007AD37B19794312195D7AD07B1979471260
:10CC0000195D7AC17B19794A12195D7ABF7B19794E
:10CC10004B12195D7AC97B19795012195D7ABC7B68
:10CC200019795312195D7AD17B19795412195D7AE9
:10CC3000BE7B1979E112195D9019B6E0A2E35004A8
:10CC4000D2F08002C2F012D1C3795212195D800570
:10CC500012115F7E00121A53121AE990033A12D190
:10CC60009F600612CA37120566121DF5EEF902C85A
:10CC70005574F61203EEE9FEA2E050267508A87579
:10CC8000091978081208F075086E750900780812FD
:10CC900008F07C007D007A217B001212E5740412FA
:10CCA000091EEEA2E35003121A59EEA2E15003123C
:10CCB0001AEFEEA2E2500E90033C12D19F600612D2
:10CCC000CA3712056602C85A74F61203EE74EC12E3
:10CCD00009B67401120996901C5CE0F97A197B1A66
:10CCE0001220B97405120C12E4F07407120C12E44D
:10CCF000F07A04F9121A718A08902F20E493FAC38B
:10CD0000E5089AEB94005050121A4DE9704A902EA3
:10CD1000FD12CDB460157A047903121A71902F2098
:10CD2000E493FC902EFD12CDBE50087405120C1237
:10CD30007401F0902F0512CDB460157A02790112BA
:10CD40001A71902F20E493FC902F0512CDBE50084D
:10CD50007407120C127401F0901C5CE0F97C197DD0
:10CD60001A740112098E1220B37A197B1A794512AE
:10CD7000195D7407120C12E070117405120C12E0A8
:10CD80007009851882851983E480088518828519C1
:10CD9000837401F0901C56E0F890192BE058F88548
:10CDA0001882851983E05812D1CD794112195D742A
:10CDB0001402C857E493F8740193F9E84922E49304
:10CDC000F8740193F9ECC398F8E499F9C3EA98EB85
:10CDD000992274F71203EE74ED1209B6E9FE901A67
:10CDE00015F0AC18AD19901C5CE0F97A197B1A1299
:10CDF00020B97412120C12EE12CE10AA18AB19122E
:10CE000020B37A197B1A794512195D741302B5EFB4
:10CE1000F0901C5CE0F97C197D1A2274F41203EE88
:10CE20008A088B09901C5EE064FE7003A3E0F47036
:10CE3000737A167B001211D18A0A8B0BAE0AAF0BE4
:10CE4000EE4F60608E828F83740112D1B212CEB524
:10CE5000A36004740280027401F0EE240AF8E43F37
:10CE6000F9E508241D12CEAB12F22612AE13F0A281
:10CE7000E3400912943512D74F12213DE50812DF25
:10CE800036350912EA46121357EE241312CF94EEE8
:10CE9000FAEFFB901A16E0F91211DD12943512D751
:10CEA0000212CEC702AD46E5082413F582E4350927
:10CEB000F58322A3A3A3E08E828F8322E0F8A3E070
:10CEC000F985188285198312D07B2274F21203EE41
:10CED00074FD1209B68A088B09890A8C0B74011239
:10CEE0000C12740412D1CD1221FD8A0C8B0DAE0CE4
:10CEF000AF0DEE4F607912CF9D7407F0E508241353
:10CF0000FAE43509FB8A828B8312AE1412B3301215
:10CF1000DE1A12D05388828983A3A3A312DE21E5EF
:10CF200008240BF8E43509F9EE241812CF8612E034
:10CF30001E12217912D17812E0157403650A600679
:10CF40007401650A700712CF7D7404800412CF7DCE
:10CF5000E4F0901C5E12C22612CEC77401650B70FD
:10CF60000312CF91EEFAEFFB121B01E9F98002796F
:10CF700010901C5E74FEF0A304F002AE31EE12B508
:10CF8000D07440F0A322F582E43FF583E8F0A3E9F2
:10CF900022EE2411F582E43FF583E4F02212CFA6BD
:10CFA000F58312DA9B22EE240BF582E43F2274F41F
:10CFB0001203EE8A088B097A007B04901A16E0F9B6
:10CFC00012132D12D0629019CB7409F01221798AB4
:10CFD0000A8B0BAC0AAD0B12CEA712D74F1213510E
:10CFE000E96401706B7A0F7B001211D18A0A8B0BF6
:10CFF000AE0AAF0BEE4F60588E828F837402F0E55D
:10D000000812DA6C350912DA93FC88828983A3A3AB
:10D01000E0FBEC8E828F83A3A312DF738882898367
:10D0200012CEB312D053FAA3E0FB794A12195D85F0
:10D030000882850983A3A3A3A3A3A3E07006901786
:10D04000F47405F0EEFAEFFB901A16E0F91211DD18
:10D0500002AD46A3F0E5082415F582E43509F58311
:10D06000E02290192E12BB9A901C1912D07B9019B5
:10D070003012BB9A901C1712D07B22E8F0A3E9F083
:10D080002274F41203EE74FD1209B68A088B097437
:10D0900001120C12740212D1CD1221FD8A0A8B0BDF
:10D0A000AE0AAF0BEE4F700302D17312F577E412A4
:10D0B000D1A5A3A3A3E06401700888828983A37427
:10D0C00020F0850882850983A3A3A3A3A3E06401BC
:10D0D000700988828983A3E0D2E6F08508828509F9
:10D0E00083A3A3A3A3A3A3E06401700A8882898316
:10D0F000A3E0D2E7800512BB6F740112D1B2E064E5
:10D10000017021850882850983A3A312D19F600342
:10D1100012DE13850882850983A3A312D18712E04A
:10D120000012CEC7850882850983A3A3A3A3A3A366
:10D13000A3E064017009EE240F12DE16A3E4F0856B
:10D14000088285098312D74F122215E9600612A9B9
:10D15000AF4404F0EE241712DE1612217912D178B2
:10D1600012D1BA12D18D12BBC2FAEFFB121B01E928
:10D17000F98002791002C22112E00BEAF0A3EB223F
:10D18000F582E4350BF58312BB9AEE22E0F8A3E0BA
:10D19000F98E828F83228E828F8312B5E3F58312FC
:10D1A000BB9AE8492212D1A922F085088285098319
:10D1B000A32212D1A9A3A3A3A322F08508828509E3
:10D1C00083E022A2F0E433851882851983F0AA183F
:10D1D000AB192274F51203EE74F31209B6890AEA48
:10D1E000FEEBFF7508007509007C0D7D007900AA33
:10D1F00018AB191211B312D2EC12D3A1741F5860DC
:10D200000C7AD37B00121693790002D2E7E8A2E5EC
:10D210005008740C120C127401F0E8A2E750087464
:10D220000B120C127401F0E8A2E6740A5008120CFA
:10D23000127401F08008120C12E0640170138E82E7
:10D240008F83A3A3A3A3A3A3A3E06030EE24138042
:10D25000128E828F83A3A3A3A3A3A3A3A3E0601C26
:10D26000EE241512E76EE50845096010AC08AD091B
:10D270007402120C12AA82AB8312135712C7A112A6
:10D28000CEBC740A120C12E064017052901C4CE087
:10D29000605364017008901C34E070198047E064AA
:10D2A000027012EE240B12BB909019BFE06870035D
:10D2B000A3E069703012D742122215E97027E50801
:10D2C0004509601A1221798A088B09AC08AD0974E6
:10D2D00002120C12AA82AB83121351E96007AA183A
:10D2E000AB19121BAFA90A740D02B862EE241DF52A
:10D2F00082E43FF5832274F71203EE74CD1209B66F
:10D30000EAFEEBFF8E828F8312D3AEA2E0400302CF
:10D31000D39C12D3C5E054FE12EE79740D12099617
:10D3200012D3D3122173E97073742A120C1212D320
:10D33000A870697C0D7D007900AA18AB191211B391
:10D340007416120C1212CEBC742A120C1212D3A133
:10D35000A2E55008740B120C127401F0E8A2E75019
:10D3600008740A120C127401F0E8A2E6500474204A
:10D3700080027422120C1212BBA87402120C12AAA0
:10D3800082AB831213578E828F83A3A3E0C0E07415
:10D390000C120C12D0E012D1CD121BA9743302B5BD
:10D3A000EF12C4DDA3E0F82212B844640422E0F8CE
:10D3B000A312D3B522E012D3BA22C82406F582E420
:10D3C00038F583E0228E828F8312DA9BA3A3A3A376
:10D3D000A3A32212BCC63BF583E0F9EA241FF58221
:10D3E000E43B12D3E622F583E0FAA3E0FB22E9F85E
:10D3F0007900740468600A740A68600574036870D0
:10D400000279010208D074F61203EE8A828B8374CB
:10D4100024F0A3A37401F0121B078A088B09AE083D
:10D42000AF09EE4F60108E828F8312E01C122179BB
:10D4300012E00712DF72EEFAEFFB02C85AC082C098
:10D4400083901C5D02AF0DC082C083E9901C5D0219
:10D45000AF09C082C083901A327401F0E9A2E35090
:10D46000037403F0E9A2E15004E0D2E2F002C64DF9
:10D4700074F61203EE79007C008A088B0978081292
:10D48000064BF8FF07A5D4A3D4A3D4A3D4A3D49B5D
:10D49000D49FD4A5D497D47C01800A7C0480067CD8
:10D4A0000280027C08901A32E05C600479028005F8
:10D4B000EC6002790102C85A74F41203EEEAFEEB42
:10D4C000FF8908121A9B8A0A8B0BA80AA90BE84944
:10D4D000604188828983A3A3A3A3E06036C3940537
:10D4E000503174016508601A88828983A3A3A3A3BD
:10D4F000E06401600D88828983A3A3A3A3E0640292
:10D50000700A8882898312D74F121C69EEFAEFFBEA
:10D51000121AA702AD4674F61203EE8A828B83E0DC
:10D520007014A3A3A312D19F600C8A828B8312D79D
:10D530004C121E4380047A007B0002C85AC082C08D
:10D54000839019CBE06408700312223902C64DC0E3
:10D5500082C0837800E875F003A4FCA9F0E9FD120D
:10D56000D5DE6A7003A3E06B7018902F08E493C0B7
:10D57000E074352CF582741A39F583D0E0F079C562
:10D58000805908E8C3940340CC7800E875F003A400
:10D59000FCADF012D5DE64FE7003A3E0F4601E085B
:10D5A000E8C3940340E57800E875F003A4FCADF00F
:10D5B00074352CF582741A3DF583E07015E812EA93
:10D5C000E512DF72902F08E49388828983F0790056
:10D5D000800908E8C3940340CF79C702C64D74366A
:10D5E0002CF582741A3DF583E022C082C0837C0052
:10D5F000EC75F003A4F8A9F0743628F582741A12B9
:10D60000EBBD6A7003A3E06B700912EE5E600479F3
:10D610000180090CECC3940340D6790002C64D7416
:10D62000F21203EE74DD1209B68A088B09750A003E
:10D630009019BCE065087004A3E065097011EA4523
:10D6400009700302D6EA750A0112223F02D6F712C8
:10D650001A958A0C8B0DAE0CAF0DEE4F700302D6EF
:10D66000EA8E828F83A3A3A3A3E06401600D8E8260
:10D670008F83A3A3A3A3E06402706F85188285192A
:10D6800083E412D709740B120C12E8F0A3E912D14B
:10D69000CD121A41E960538E828F8312D70212CEC7
:10D6A000C77403120C12AC82AD837418120C12AA48
:10D6B00082AB831213577900121C5D7420120C1276
:10D6C00012DF727422120C12E4F07C028E828F83BD
:10D6D000A3A3A3A3E0F9740D12098E1221D9750A30
:10D6E0000112D6FE12AB4FF0800D9019C912BBA8E3
:10D6F000AA08AB091222F3A90A742302AE3312EA74
:10D70000572212BB9A901C5E2212BBCDF8A3E0F9FF
:10D7100022C082C08374FE1209B67901121C631202
:10D72000BE639019BCE8F0A3E912D1CD7953121968
:10D730005D85188285198312D74F1215FD74020278
:10D74000BCC08E828F83A3A3A3A3A3A3A3A3A3126E
:10D75000D3E82274F41203EE74F31209B6EAFEEB76
:10D76000FF8C088D09750A12EE4F7005790002D8FA
:10D77000329019BCE06E7003A3E06F701D12217926
:10D780008A0A8B0BAC0AAD0BAA08AB09121351E93C
:10D790007005750A018003750A0085188285198352
:10D7A000E4F004120C12EEF0A3EF12D1CD121A35F0
:10D7B000E960297403120C12AA82AB83121A11E9D0
:10D7C00064017018750A017403120C12AC82AD83E7
:10D7D000AA08AB09121351E9701680177412650A72
:10D7E0007011AC08AD09EEFAEFFB121A7DE9600387
:10D7F000750A00AC08AD09EEFAEFFB122311E9F847
:10D80000740A687005750A01801D74A0687012ACF6
:10D8100008AD09EEFAEFFB122323EEFAEFFB122319
:10D82000357401650A70097900EEFAEFFB12224B9C
:10D83000A90A740D02AD4374F61203EEEAFEEBFF83
:10D840008908122239E508F50978091208F4790DDA
:10D85000EEFCEFFD7AFD7BFF12225702C85574F7EC
:10D860001203EEEAFEEBFF8E828F83A3A3A3A3A392
:10D87000A3A3A3E0601312D8C112A01D122245E990
:10D880006401700512C7A180298E828F83A3A3A390
:10D89000A3A3A3A3E0602512BB9F12D74212224587
:10D8A000E9640170178E828F83A3A3A3A3A3A3A30C
:10D8B000A3A312D74F12222D79018002790002B55D
:10D8C000F2EE2415F582E43FF5832274F21203EEA2
:10D8D00074FD1209B68A088B09ECFEEDFF890A7502
:10D8E0000B017401120C12740412D1CD1221FDEA45
:10D8F0004B60467411120C12E0601512DF3CE4120A
:10D90000E3A78A828B83E0D2E7F0EA241412B327DC
:10D9100012D93E12CFA07403F0A3E50AF0EE88827C
:10D920008983A3A3F0EF88828983A3A3A312F5B010
:10D9300012F7EB121B01E9F50BA90B02AE3112DF56
:10D940005C3B2274F11203EE8A0C8B0D8908750979
:10D950000112DA6B350D12DA93F50E888289831283
:10D960008F7E12DA8412DA63E06404600A7AD37B71
:10D970000012169302DA5CE50E12079D0200029176
:10D98000D9030B10DA030C00DA0DE2D90E10DA0D10
:10D99000DA9019B6E0A2E150777900EFFB121CEDA6
:10D9A000EA4B60338A828B83A3A3A3A3A3A3E0548F
:10D9B00018602412DA7B1207188A828B83A3A312C1
:10D9C00007187900850C82850D8312DAB3121D05C4
:10D9D000740412091E80247901EEFAEFFB121BBBBE
:10D9E000802E9019B6E0A2E15026EFFB122227EE1E
:10D9F000FAEFFB12222DE964C5701575090080103D
:10DA00009019B6E0A2E150081216218003750800B3
:10DA1000E50C2409F50AE4350DF50BEEFCEFFDA944
:10DA20000E850A82850B8312D74F121BD3850A827B
:10DA3000850B8312D74F122215E9602012DA72E0AB
:10DA4000C39402401712DA7B12E2D17003A3E0699B
:10DA5000600AE509A2E05004A908800279007F0766
:10DA6000020605E50C241712C4C522EA241DF5821E
:10DA7000E422E50C12C79B12C4C822E50C12DF5D3C
:10DA800012C4C822A3A3A3E0F8E4C8F9EA28FEE47C
:10DA900039FF2212DA99A3E022F58312F6D4F9882D
:10DAA00082898322E50812EA5F3509F583E0F98A65
:10DAB000828B83A3A3A3A3A3A3A3A3A312BBAC8A18
:10DAC000828B8312D3E82274F01203EE74F31209EE
:10DAD000B67403120C12ECF0A3EDF08A0E8B0F89D2
:10DAE0000B7E01EE120C12740AF0741D120C12E07F
:10DAF000F50AE9700FE50AC333240AC0E0EE120C00
:10DB000012D0E0F0AA18AB191221FD8A088B09EA9D
:10DB10004509700302DBDA12DBE0350912DF648E9F
:10DB2000828F837409F0E50BC43354E0450AA3F0F7
:10DB3000EE2402FE50010F7403120C1212957CFAAF
:10DB4000EFFB121357EE2408FE50010FE50B703760
:10DB50007800741E120C1212D74F8025E812C4A64A
:10DB6000EA2CF50CEB3DF50D850C82F58312CEB653
:10DB700012DBE58E828F83A3F0EE2402FE50010FAC
:10DB800008E8C3950A40D5E508241712CEAB740106
:10DB9000F0122179E508241A12CEAB12DF72740557
:10DBA000120996AA0EAB0F121A1DE96019E5082496
:10DBB0001612CEAB7401F07405120986E50824181C
:10DBC00012CEAB12CEC7850882850983A3A312BEED
:10DBD0005BAA08AB09121B01E9FEEEF9740D800C7B
:10DBE000EA12DF5D2212C523E022740312091E7FB0
:10DBF0000802060574F01203EE74F81209B68A0ED4
:10DC00008B0F12DA6B350F12DDFCF8741F58F50A12
:10DC1000880BA3AE82AF83EEFCEFFDAA18AB1912FE
:10DC20001357EE2408FE50010FAC18AD197ADD7BB6
:10DC300019121351E9700302DCBD74E0550B7076C4
:10DC4000AA0AEA2AFA7B001212618A088B09EA45BD
:10DC500009606A7A00802B8E828F83E0FCA3E0F853
:10DC6000E4C8F9EC28E439FDEA12DCC2E50828F53D
:10DC700082EB39F583ECF0A3EDF0EE2402FE5001C7
:10DC80000F0AEAC3950A40CF78081208F0780A1202
:10DC900008F474031209967900E50E12DBE1350FE2
:10DCA000F58312D74F12226F740312091EAA08AB14
:10DCB0000912126780077AD37B0012169374080248
:10DCC000DBEC25E0F8E433F92274F01203EE74FE85
:10DCD0001209B612DF6C890C8C0E8D0F90182C1265
:10DCE000D19F607D7412120C12E0F50B12DCC2E8B9
:10DCF000240EFAE439FB1211D18A088B09AE08AF61
:10DD000009EE4F605C8E828F8374D412BE6D8E825A
:10DD10008F83A3A3E8F0A3E912C7E8E50CF0AC0EEB
:10DD2000AD0FEE2405FAE43FFB12135712DD66E552
:10DD30000BF07413120C1212DD751208ECAC0BEC24
:10DD40002CFCE433FDEE240EFAE43FFB1211A17427
:10DD50000312091EEEFAEFFB90182C12C4D912051B
:10DD600066740202DBECEE12DD6B22240DF582E418
:10DD70003FF58322A3E0F508A3E0F509750A0078D2
:10DD8000082212BB9A850C82850D832274F6120339
:10DD9000EE74F81209B6890812DA6B3B12DDFCF951
:10DDA000741F59F88909A3AE82AF83740168703E6D
:10DDB000EEFCEFFDAA18AB19121357EE2408FE5023
:10DDC000010FAC18AD197ADD7B19121351E96025EA
:10DDD00074E0550970188E828F83A312C13512C763
:10DDE000D18E828F83E0F9122293A90880097AD319
:10DDF0007B001216937900740802C857F583E0245B
:10DE000001FEA3E03400FF8E828F83E0222418F508
:10DE100082E422EE241612DE2922E088828983A37E
:10DE200022F0EE241612DE2922F582E43FF58374F7
:10DE300001F02274F01203EE74FD1209B67401129F
:10DE40000C1212DF72851882851983E4F004120C1B
:10DE50001212DF4612DA6C3812E02612DF66740105
:10DE6000120C1212DF4612DF3638F58312D74F122A
:10DE70001A9BEA4B700302DF338A828B83A3A3A32E
:10DE8000A3E0700302DF33C39403400302DF33EEE9
:10DE9000C3940F5003EF600B8518828519837401BA
:10DEA000F0807512BCCD12B32AEE7022902DBA7894
:10DEB00008120AF512DF3C7808120B8F902DBA7801
:10DEC00008120AF512E83A7808120B8F803BF50821
:10DED00075090074027808120AE274BA2508F582FE
:10DEE000742D12CEAE780C120AF590882A7808129A
:10DEF0000B9E780C79081202FF12DF3C780C120B93
:10DF00008F12E83A780C120B8FEA241BF582E43B5F
:10DF1000F5837401F0121663901C35E0FC851882BD
:10DF2000851983E0F97401120C1212DF5012D74FD9
:10DF300012228102DBEA2415F582E422EA2417F595
:10DF400082E43BF5832212DF4A22E0F8A3E0C822F4
:10DF5000E0F8A3E0C812DF5D38F58322EA240BF570
:10DF600082E4223BF583E0FEA3E0FF228518828550
:10DF70001983EAF0A3EBF02274F01203EE74F512A9
:10DF800009B68A0E8B0F89098C08750C0174011271
:10DF90000C12740312D1CD1221FD8A0A8B0BAE0A2A
:10DFA000AF0BEE4F605312CF9D740C12F7EF8882C7
:10DFB0008983A3A3E50812E01E12217912E007125B
:10DFC000DF727403120996AA0EAB0F121A1DE960D4
:10DFD0000F12DE137403120986EE12E00012CEC790
:10DFE0008E828F83A3A3E50EF0A3E50F12E015EE5A
:10DFF000FAEFFB121B01E9F50CA90C740B02DBEC28
:10E0000012DE0D3FF5832212E00B22EE241AF58278
:10E01000E43FF5832212F5BA7401F0227401F0EEA8
:10E02000241712DE2922F583E02401F8A3E034004E
:10E03000F9888289832274F61203EE74DA1209B623
:10E04000EAFEEBFF12D19660548E828F8312D74F77
:10E05000AC18AD1912D3D31221617409120C12122B
:10E06000E2D17003A3E06960348E828F8312C4D939
:10E070001207187508FE7509FF78081208F0741C5D
:10E08000120C12E0F9740D120C1212BBA8740F12CC
:10E090000C1212D74F121D05740412091E742602A9
:10E0A000C85774F71203EEE9FD7A007B007C00800C
:10E0B0000B12E14BE02AFAA3E03BFB0C902F20125D
:10E0C000EBE95030EC75F01CA4F8AEF0EEF9742BCF
:10E0D00028F582740512EBBDF460E0743728F582F0
:10E0E00074053912D19D60D3ED60C612E14BE4F0A6
:10E0F000A3F080C77C00800B12E138E02AFAA3E08D
:10E100003BFB0C12EBE6502DEC75F017A4F8AEF0CB
:10E11000EEF912F19B7003A3E0F460E6748828F531
:10E120008274073912D19D60D9ED60CC12E138E4D8
:10E13000F0A3F080CD02B5F2EC75F017A4F8EEF97B
:10E14000748828F582740739F58322EC75F01CA4D5
:10E15000F8EEF9743728F582740539F5832274F0E6
:10E160001203EEE9FE8A088B09901A15E0C39E504F
:10E170003B1221CD901A4712F7ED9019AFE0F50C44
:10E18000E4F50DF50EF50F9088267808120B9E78B1
:10E190000C79081202FF780C1208E87A007B0290D2
:10E1A0001A16E0F9121321740412091E02DBEF742F
:10E1B000F61203EEEAFEEBFF901A33801388828991
:10E1C00083E06E7003A3E06F603C88828983A3A321
:10E1D00012D19F70E87A047B001212618A088B09C1
:10E1E000A808A909E849601E88828983EEF0A3EF98
:10E1F000F0901A3312D74F88828983A3A312DF725B
:10E20000901A3312CEC702C85A74F41203EE7E007D
:10E21000901A3380070E88828983A3A312D19F703E
:10E22000F4EE25E0FAE433FB1212618A088B09EA66
:10E230004509700302E2BE7C00901A33802A88826E
:10E240008983E0F50AA3E0F50BEC25E0FAE433FB63
:10E25000E5082AF582E5093BF583E50AF0A3E50B1D
:10E26000F00C88828983A3A312D19F70D1901A11D8
:10E2700012E2D17003A3E0697808701C1208F0EE76
:10E28000F50A780A1208F47CDD7D197900901A11DC
:10E2900012D74F12226F801A1208F0EEF50A780A90
:10E2A0001208F47CDD7D197900901A1112D74F12F3
:10E2B0002263740312091EAA08AB09121267121B0B
:10E2C0001902AD468E828F83A3A3A3A3A3A3A3A306
:10E2D000A312BB9A9019BCE06822C082C08380124E
:10E2E0008A828B83A3A312BB96901A3312CEC712D5
:10E2F0001267901A3312B49970E602C64D74F51283
:10E3000003EE9019C912E774901A4712BB96901940
:10E31000C912CEC77A477B1A795012195D901A47F5
:10E3200012DF66750A00801212ECA77003A3E06F7B
:10E33000600612ECB31222FF050A12E3955020E5A5
:10E340000A75F017A4F8A9F012EB4165087004A350
:10E35000E0650970D312EB4AEEF0A3EFF080D9909C
:10E360001A4712DF6690182E12D19F60257A067B1D
:10E37000001211D1EA4B601A8A828B8374D5F0A304
:10E38000A3E412E3A00412E3A790182E12C4D9123A
:10E39000056602B865902F10E493F8E50AC3982249
:10E3A00012F5B0A3A3A32212E3B0EEF0A3EFF02284
:10E3B00012E3B422F08A828B83A3A3A3A322C08298
:10E3C000C0839019BCE064FE7003A3E0F4600E907B
:10E3D00019B6E0A2E150061223171222BD02C64D63
:10E3E00074F01203EE901A0AE06053F50CE4F50D98
:10E3F000F50EF50F90882E7808120B9E780C790890
:10E400001202FF1211CB8A088B09A808A909902FC4
:10E4100003E49358F508A3E49359F509E4F50AF5E4
:10E420000B780C7908120AA9780C1208E87A007B9C
:10E4300001901A16E0F9121327740412091E02DB68
:10E44000EF74F01203EE74FE1209B67E007F008EA8
:10E450000E8E0F121AB9750A00803BAA0A7B0012B1
:10E460001AB38A088B09A808A909E8496026888296
:10E470008983A3A3A3A3E06004640470178882893E
:10E4800083A3A3A3A3A3A3A3A3A3A3E0F912232974
:10E49000E960010F050A902F2012E39840BD122277
:10E4A000ED12DF6C7508008023AA087B001222F9A8
:10E4B0008A0A8B0BA80AA90BE849600EE8240F1200
:10E4C000EBBAF9122329E960010E050812E679403A
:10E4D000D8EF2EFE700302E5DFF50875090074021F
:10E4E0007808120AE2AA08AB091212618A0E8B0F91
:10E4F000EA450F700302E5DD750B00EEF5087509BE
:10E500000074027808120AE2AC08AD0979FF121112
:10E51000B3750A008069AA0A7B00121AB38A0C8BB1
:10E520000DEA450D60578A828B83A3A3A3A3E06005
:10E5300004640470488A828B83A3A3A3A3A3A3A328
:10E54000A3A3A3E0F9122329E9F96031050B850E95
:10E5500008850F0978081208F0EEFD850C82850DFC
:10E5600083A3A3A3A3A3A3A3A3A3E0FC850C8285F9
:10E570000D8312D74F1222C3740212091E050A908E
:10E580002F2012E3985006E50BC39F4089750800C1
:10E5900012E679504AAA087B001222F98A0A8B0BEC
:10E5A000EA450B6034EA240F12E670F9122329E9D8
:10E5B000F96026850E0C850F0D780C1208F0EEFD23
:10E5C000E50A240E12E670FC850A82850B8312D7B9
:10E5D0004F1222C3740212091E050880B37E007F09
:10E5E000629019B4E0600BF9121F81E9F87454C30A
:10E5F00098FF75F003EF84F5089420400375081F19
:10E60000850E0A850F0B750C00EF6005750C207FD9
:10E6100000E508C39E500585080980088E09E50CB1
:10E62000D2E6F50CAC0AAD0BAA0CA9091222C9E975
:10E63000F50DE50CA2E6401D15097800800BE50AF2
:10E640002404F50A5002050B08E8C3950940EFE5DC
:10E6500009CEC39EFEE97006E50CA2E650A8E50EC1
:10E66000450F6007AA0EAB0F121267A90D02DD61FC
:10E67000F582E4350BF583E0228518828519831233
:10E68000BB9AC3E50898E4992274F21203EEE9FEFE
:10E69000750A00750B00740E120C1212E7747F00DD
:10E6A000801185080A85090BE5082404F508500245
:10E6B00005090FEFC39D400302E76B8508828509BA
:10E6C00083E0F47003A3E0F4700302E74DE50A452C
:10E6D0000B600E850A82850B83C3E09AA3E09B50F2
:10E6E000C185088285098312F2F9EB9950B4A80814
:10E6F000A90988828983E0F47003A3E0F4600DE83F
:10E700002404F85001090FEFC39D40E6880A890BE5
:10E71000E824FCF8E934FFF9888289831291528554
:10E720000A82850B83E50CF0A3E50D12E77C850AD0
:10E7300082850B83A3A312E787E0850A82850B837A
:10E74000A3A3A3F0C3E50898E5099940BF85088213
:10E7500085098312DF72EC850882850983A3A3F003
:10E76000EE850882850983A3A3A3F002AE36F58265
:10E77000E43FF583E0F508A3E0F5092212E782A360
:10E78000E02212EADFA32212E782A3A32274F3128B
:10E7900003EE74FD1209B689088A09ECFEEDFF75D7
:10E7A0000C0175F003E9A42402C0E07401120C12FC
:10E7B000D0E012D1CD1221FDEA4B607212D93E1287
:10E7C000CFA07408F0741F55084509A3F0E824028F
:10E7D000F85001097C0080378E828F8312AE1412AC
:10E7E000C7DD12DE1A12BBC9C454F05470FD8E820C
:10E7F0008F83A3A3A3E054074D88828983A3A3F04A
:10E80000E82403F8500109EE2404FE50010F0CEC3B
:10E81000C3950840C38A828B83A3A374FCF0A374BE
:10E82000FFF012E83A7401F0121B01E9F50CA90C93
:10E83000740312091E7F05020605EA2413F582E41B
:10E840003BF5832274F11203EE8A0A8B0B750800E4
:10E850007AFE7BFF7CFE7DFFE50A12DA6C350B1237
:10E86000DA93FE741F5EF509E82402F50CE439F52D
:10E870000DEEA2E74072E50A241712E670F875F073
:10E8800003E509A4240268705FE5096009850C822C
:10E89000850D8312C7CF7F008029850C82850D836B
:10E8A000A3A3E05407F50EE50C2403F50C50020574
:10E8B0000DE8FC9019BCE0687003A3E06970038563
:10E8C0000E080FEFC395095029850C82850D831220
:10E8D000F6D4FCE4CCFDE82CE43DF9850C82850DF2
:10E8E00083A3A3E0548860B27AD37B00121693020C
:10E8F000EA2EE508700BEEF91222D5E9700302EA60
:10E900002E12EA3112D74F121A958A0C8B0DAE0CCB
:10E91000AF0DEE4F605A8E828F83A3A3A3A3A3A350
:10E92000A3E4F0902F0D93F88E828F83A3A3A3A36B
:10E93000A3A3A3A3E0C398402412EA3B5001097AA1
:10E94000027B0012029EE88E828F83A3A3A3A3A35F
:10E95000A3A3A3F0E508C39407500205088E828F95
:10E9600083A3A3A3A3A3A3A3A3A3E508F002EA2E72
:10E970007CFF7DFF12EA3112D74F1222E18A0C8B05
:10E980000DAE0CAF0DEE4F704F1222E78A0C8B0DBF
:10E99000AE0CAF0DEE4F700302EA2E7C177D0079AE
:10E9A000001211B312EA3112D18C128DE38E828FD4
:10E9B00083A3A3A3A3A3A3A3A312BBC212B5CC7426
:10E9C000AA12F1225001097A027B0012029E12DD86
:10E9D00066E812EA4D7401F0902F0DE49312C13DE8
:10E9E000C398401912EA3B5001097A027B001202D7
:10E9F0009E12F11BE508C394075002050812F10DA1
:10EA0000E50812EA52E4F012A48B121A11E9701E02
:10EA1000850A82850B83A3A3A3A3A3A3A3A3E0607A
:10EA20000DE50A12DF36350B12EA4612135702DAE9
:10EA30005EE50A12DF5D350BF58322902F0DE4931E
:10EA400079002401F822129F6412A48C22F012F1A2
:10EA50001122F012EA5722EE12EA5F3FF5832224D8
:10EA60000CF582E42274F71203EEE9FE74FE6A707C
:10EA70000374FF6B603574605E6460602EEEA2E527
:10EA8000401CA2E69019BC500DC3E09AA3E09B5035
:10EA90001A790002B5F2C3E09AA3E09B40F3901903
:10EAA000BC12BB96C3EC98ED9940E6790180E47402
:10EAB000F71203EE7E008008EE12ECAC1222FF0E7D
:10EAC00012EB3740F37E00EE12EAE574FEF0A30489
:10EAD00012EADFE4F00EEEC3940340EB02B5F2F06D
:10EAE000888289832275F003A4F8A9F0743528F888
:10EAF000741A39F988828983A32274F71203EE7E8F
:10EB00000080010E12EB375027EE12F05CE06A70C5
:10EB100003A3E06B70ED12EB416C7003A3E06D603A
:10EB20000A74FF6C700374FF6D70D812ECB380042C
:10EB30007A007B0002B5F2902F10E493F8EEC398B0
:10EB40002212EB452212EB4AE022747D28F58274F2
:10EB50000739F5832274F61203EE7CFF7DFF7AFEFF
:10EB60007BFF1222E1EA4B70437508008039E5080B
:10EB700075F017A4F8A9F0748228F582740712EBD7
:10EB8000BD600C748128F582740712EBBD70167499
:10EB90007328FE740739FF8E828F8312D74F121DA0
:10EBA0000BEEFAEFFB050812EBAF40C202C85A9019
:10EBB0002F10E493F8E508C39822F582E439F58331
:10EBC000E022C082C0837A007B007C00801012F1BA
:10EBD000937003A3E0F460050AEA70010B0C12EBDA
:10EBE000E640EB02C64D902F10E493F8ECC3982258
:10EBF00074F41203EE8A088B09ECFEEDFF800B1211
:10EC000022FFEEFCEFFDAA08AB091222E1EA4B70ED
:10EC1000EE02AD4674F71203EE7D007C0080020D1B
:10EC20000C12EBE6501C12F1937003A3E0F460F0B9
:10EC3000EDF8EA684B70E8EC75F017A4F812ECB345
:10EC400080047A007B0002B5F274F71203EEEAFE4C
:10EC5000EBFFEE4F60187C177D0079001211B38E28
:10EC6000828F8374FEF0A30412EC71F0A3F002B55E
:10EC7000F212B1B6A32274F71203EEEAFEEBFF75AF
:10EC80000800801BE50875F017A4F8A9F012ECA79E
:10EC90007003A3E06F600612ECB31222FF050812A6
:10ECA000EBAF40E002B5F212EB456E2275F017A40F
:10ECB000F8A9F0747328FA740739FB2274F412036C
:10ECC000EE8A088B09ECFEEDFF9019C9E06E700327
:10ECD000A3E06F7014121A958A0A8B0BA80AA90B6D
:10ECE000E8496005E82408801AEEFCEFFDAA08ABAD
:10ECF000091222E18A088B09A808A909E8496009D4
:10ED0000E8240DFAE439FB80047A007B0002AD466A
:10ED100074F41203EEEAFEEBFF8C0A8D0B7508000B
:10ED2000750900802CE50912F183121A11E9601FA0
:10ED3000E50912F1777003A3E06F700375080AAC60
:10ED40000AAD0B12F18A121351E960034308A005C2
:10ED500009902F10E493F8E509C3985004E5086082
:10ED6000C402C5E274F41203EE74F81209B6750811
:10ED700000806BAA087B00121AB38A0A8B0BAE0ABA
:10ED8000AF0BEE4F60568E828F83A3A3A3A3E064E4
:10ED90000160498E828F83A3A3A3A3E06402603C39
:10EDA000EE2407F582E43F12EE6A50308E828F83A4
:10EDB000A3A3A3A3A3A3A3A3A3A3E412B1B212EE9C
:10EDC00080121D0BAC18AD198E828F8312D74F1293
:10EDD0001A1DAA18AB19121AA71216630508902F4C
:10EDE0002012EBB2408D7E008052EE75F017A4F831
:10EDF000AAF0EAF912F19B7003A3E0F4603D74738A
:10EE000028F8740739F9E812EA5F3912EE6A502BD4
:10EE1000EE75F017A4F8EAF9747328F8740739F955
:10EE2000E8240FF582E439F583E4F0E8240EF58256
:10EE3000E439F583E412EE79121D0B0E12EB374024
:10EE4000A97A00EA75F003A4F8A9F012EE5E600258
:10EE500014F00AEAC3940340EA740802AD4374351F
:10EE600028F582741A39F583E022F583E0F87401FD
:10EE700028F0901A0BE0C3982212EADF12D3E8229E
:10EE800012C7E212D3E82274F01203EE8A0E8B0F3F
:10EE90008C0A8D0B750C00780079017EFE7FFF7463
:10EEA00010120C1212E77480111211CBE50CF5F060
:10EEB000EA84E5F0F8750C0079007C00800B74732F
:10EEC0002AF582740712DF630C902F10E493FAEC9A
:10EED000C39A506AEC75F017A4FAADF0EDFB12BCC2
:10EEE000D464FE7003A3E0F460DE12BCD4650E703F
:10EEF00004A3E0650F60D112BCD4650A7004A3E0DE
:10EF0000650B60C412BCD465087004A3E065096099
:10EF1000B774812AF582740712BCDB60ABC3940816
:10EF200050A6E064076097E9050C709CE50CC39857
:10EF30004096EDF974732AF582740702EFEB7C00BA
:10EF4000800712F01F12DF630C902F20E493FAEC7D
:10EF5000C39A400302EFF3EC75F01CA4FAADF0ED98
:10EF6000FB12F01F12BCDB64FE7003A3E0F460D858
:10EF700012F01F12BCDB650E7004A3E0650F60C8C1
:10EF800012F01F12BCDB650A7004A3E0650B60B8C9
:10EF900012F01F12BCDB65087004A3E0650960A8CD
:10EFA00074302AF582740512BCDB609CC39408504F
:10EFB00097742B2AF582740512BCDB64016089E02A
:10EFC0006402608474302AF582740512BCDB640725
:10EFD000700302EF42E9050C600302EF48E50CC341
:10EFE00098500302EF48EDF912F01F39F583128DA6
:10EFF000CA8022E50C6011E8700E7401650C600394
:10F0000002EEA9780102EEB574FE6E700374FF6F14
:10F010006006EEFAEFFB80047AFE7BFF02DBEF7402
:10F02000272AF58274052274F51203EEEAFEEBFF3F
:10F030008C088D09750A008002050A12E3955019A3
:10F04000AC08AD09E50A12F183121351E960EAE553
:10F050000A12F05CEEF0A3EFF002B86575F017A4A9
:10F06000F8A9F012F06722747328F582740739F555
:10F070008322E9F87907C3940D400479018019E8E7
:10F08000C3940740047903800FE8C39403400479D4
:10F09000058005E8700279000208D074F01203EED2
:10F0A0008A0E8B0F8C0A8D0B89081222E78A0C8B33
:10F0B0000DAE0CAF0DEE4F60517C177D0079001244
:10F0C00011B38E828F83E50EF0A3E50F12EC71E58C
:10F0D0000AF0A3E50BF0E508600712B5CBE5088060
:10F0E0000512B5CB7401F0901A10E064017006129D
:10F0F000F10DE4800512F10D740712F1225001099F
:10F100007A027B0012029E12F11B02DBEF12F11158
:10F1100022EE240EF582E43FF58322EE12DD6BE849
:10F12000F022F0902F0DE49379002401F82274F777
:10F130001203EEEAFEEBFF7508008033E50812F1DA
:10F14000777003A3E06F601474FF6E700374FF6F39
:10F15000701B12F19B7003A3E0F4601112F18A128C
:10F160001A11E97008E50812ECAC1222FF0508122A
:10F17000EBAF40C802B5F275F017A4F8A9F012F190
:10F18000A16E2275F017A4F8A9F0747528FA740717
:10F1900039FB22EC75F017A4F8A9F012F1A164FE76
:10F1A0002212F067E022C082C0837AFF7BFF122325
:10F1B0003502C64DC082C083901A497447F0A374CB
:10F1C00023F0901A4B744DF0A37423F0901A4D74F1
:10F1D00053F0A3742302AF0974F71203EEEAF8EBBD
:10F1E000F990192C12F217702B88828983A3A3A39C
:10F1F000A3A3A3A3A3A312071890192C12F22612FB
:10F200000BD788828983A3E0F9121BC77402120905
:10F210001E121B1902B5F2E0FAA3E0CA2406F58219
:10F22000E43AF583E022E0FAA3E0F5838A8222C083
:10F2300082C083901A1312F2F0F0901A1312D19F29
:10F240007005790112228D02C64D74F61203EE7418
:10F25000FC1209B6E9FE902F18E493700874E16E71
:10F26000600302F2EBEA2408F8E43BF98882898320
:10F2700012F2F012F300700E901A13E4F0A3F0797A
:10F280000112228D8065901C4FE0605FFA901A1386
:10F2900012F2F9E4995054790012228D8A088B09F0
:10F2A000AC08AD09ECF8EDF9E875F064A4F8AAF043
:10F2B00075F064E9A42AF9901A1312D74F1202A626
:10F2C000E8941AE99400402390182612D19F601BFD
:10F2D000901A1312CEBC7402120C12ECF0A3ED12B1
:10F2E000D1CD90182612C4D9120566740402C857ED
:10F2F000E02401F0A3E034002212BB9AC3EA982272
:10F3000012F6CDF9E84922C082C08374F81209B61A
:10F310009087A4AC18AD19740812082EAC18AD195A
:10F32000121351E9640170047900800279017408B4
:10F3300002BCC074F61203EEEAFEEBFF740C120C72
:10F340001212D74F743A6A7001EB6006743B6A4B35
:10F35000701F740A120C121207188C088D09780895
:10F360001208F0EEFCEFFD1212EB740412091E807D
:10F3700002790A02C85AC082C083901A4F74BFF043
:10F38000A3741AF0901A5174C5F0A3741AF0901C6B
:10F3900035E0A2E05032901A537471F0A37423F058
:10F3A000901A557477F0A37423F0901A57747DF077
:10F3B000A37423F0901A597483F0A37423F0901A65
:10F3C0005B746BF0A37423F0901A5312D19F600604
:10F3D00012CA3712056602C64D74F41203EE74E6C3
:10F3E0001209B68A088B097404120C127402F00414
:10F3F00012098E1221FD8A0A8B0BAE0AAF0BEE4F5B
:10F40000700302F56212F577746012F5B612E01C13
:10F4100012217912E00712DF728E828F83A3A3E597
:10F4200008F0A3E50912C19670129019A8E0C0E097
:10F4300012BB65D0E0F09019A8E004F012F56E70F0
:10F4400016901C29E0600D9019B3E0700A8E828F2F
:10F4500083E0700312CF91AC18AD19EEFAEFFB12F6
:10F4600021558A088B09EA4509700302F55B7A2168
:10F470007B001212617406120C1212DF72740612F3
:10F480000C1212D19F700302F5547C217D0079008B
:10F490007406120C12E0FA1211B3740112098E797B
:10F4A000501219577401120C1212BB967406120CEA
:10F4B0001212F58212CEC79019BC12BB96741712A5
:10F4C0000C1212CEC77406120C1212DF507402F026
:10F4D0007406120C1212B27E740212D7097406124C
:10F4E0000C1212F22612CEC77406120C1212F590EC
:10F4F00012C52CC0E07406120C1212DF4612BCC7F3
:10F5000038F583D0E0F0EE240E12BB80E0C0E0744A
:10F5100006120C1212DF4612F567D0E0F0740612E4
:10F520000C1212B5DD12F7EDEE240F12BB90740C25
:10F53000120C1212F5A8E0C0E0740E120C12D0E00A
:10F54000F0740612098E1220C57406120C1212D71E
:10F550004F121267AA08AB09121267EEFAEFFB12FC
:10F560001267741A02AD4312EA5F38F58322EE2463
:10F570001112A9B664012212CFA612DA997404F00E
:10F58000A322E0FAA3E0CA2409F582E43AF5832233
:10F5900012F5987401F0A32212DF4A12F59F22247B
:10F5A0000DF582E438F58322E8F0A3E912F5B022E4
:10F5B000F08A828B832212F5BA22F0EE12F5C02275
:10F5C0002413F582E43FF5832274F61203EE7E00E5
:10F5D00080197C047D0079FFEEF5088D09740278AE
:10F5E00008120AE212F8821211B30E902F0C12EBDD
:10F5F0003A40DF02C85A74F41203EE74F71209B6E7
:10F60000750800804DE508F50A750B007402780A4C
:10F61000120AE212F6BE129F32E024FFF0A3E03499
:10F62000FF12F6C9F97A0A7B001202A68B0BEA4593
:10F630000B701D7408120C1212F6D9120AE2741023
:10F64000250AF582740B350BF58312F8951219878C
:10F650000508902F0C12EBB25061E508F50A750B06
:10F66000007402780A120AE27410250AF582740BFB
:10F6700012E673F47003A3E0F460D5E508F50A75AB
:10F680000B007402780A120AE212F7CF12D19D60C1
:10F690000302F6057408120C1212F6D9120AE212CD
:10F6A000F6BE8E828F8312F89512198D7C047D0030
:10F6B00079FFEEFAEFFB1211B3809502AD417410A1
:10F6C000250AFE740B350BFF2212F6CD2212EADF5B
:10F6D00012F6D422E0F8A3E0227402F0E508F50A5D
:10F6E000750B007402780A2274F01203EE74F7129C
:10F6F00009B68A0E8B0F7EFF7408120C1274021268
:10F70000BCE5EAF0A3EB12F89C121987E9641A70C1
:10F710000302F7CB79007419120C127808120B9EB1
:10F72000800874FF6E7002E9FE09902F0CE493F8D4
:10F73000E9C3985058E9F50C750D007402780C1265
:10F740000AE27410250CF582740B12F7E1E0F470F4
:10F7500003A3E0F460CCE9F50C750D007402780C9D
:10F76000120AE27410250CF582740B12F7E1E065C1
:10F770000E7004A3E0650F70B0E9F50A750B007414
:10F7800002780A120AE212F7CFF583802EE4936919
:10F79000702C74FF6E602EEEF50C750D00740278FF
:10F7A0000C120AE27410250CF8740B350DF98882DE
:10F7B000898312BE5B88828983A3A312F7ED790146
:10F7C000740902DBEC12F7E512198D790080F174EF
:10F7D00012250AF582740B350B22E50C2412F582F2
:10F7E000E412C4C82212F8A122A3A3A3A3E508F03F
:10F7F000A3E509F02274F61203EE74F71209B6EAD3
:10F80000FEEBFF7A0080010A902F0CE493F8EAC324
:10F8100098506AEAF50875090074027808120AE23D
:10F8200074102508F582740B12CEAEE0F47003A3B9
:10F83000E0F460D3EAF50875090074027808120A4A
:10F84000E274102508F582740B12CEAEE06E7003E0
:10F85000A3E06F70B27C047D0079FFEAF5088D09A2
:10F8600074027808120AE212F8821211B3740812B4
:10F870000C12740212F88D12F89C12198D74090280
:10F88000C85774102508FA740B3509FB2212BCE91D
:10F89000EEF0A3EF22129F78E8F0A3E9F012F8A1AE
:10F8A000229019C9E0FCA3E0FDAA18AB192274F05C
:10F8B0001203EE74FE1209B612DF6C8C0A8D0B7502
:10F8C0000800851882851983E0650A7004A3E06545
:10F8D0000B6017851882851983E0FA1212DF8A0CF3
:10F8E0008B0DAE0CAF0DEE4F700675080102F98856
:10F8F000AA0AAB0B1212DF8A0C8B0DAC0CAD0DEC0F
:10F900004D6007AA0AAB0B1212F1E4F50CF50D7865
:10F910000C1208F0EEFCEFFDAA0AAB0B1212D97420
:10F920000212091EE96061EEFAEFFB1212618A0E03
:10F930008B0FEA450F604E780E1208F08E0C8F0D7B
:10F94000780C1208F07C007D007404120C1212D79F
:10F950004F1212EB740412091EE9701D780E120882
:10F96000F0780C1208F07C007D00AA0AAB0B121292
:10F97000E5740412091EE96003750801AA0EAB0FB5
:10F980001212678003750810A90802DD61C082C0E9
:10F9900083906180E4F0E04409F0906189E0D2E571
:10F9A000F0906182E0D2E0F0E0D2E1F0E0D2E2F06B
:10F9B0009004857401F002FCC574E81203EE74F63D
:10F9C0001209B68A168B17ECFEEDFFEA4517601890
:10F9D0008A828B83A3A3A3A3A3A3A3A3E0F87402A7
:10F9E00068600A740368600579E802FC46120E9BA1
:10F9F000E9F46005791E02FC46851682851783A30B
:10FA0000A3A3A3A3A3A3A3E0F514120EA78A088BB4
:10FA1000098C0A8D0B120EAD8A108B118C128D136E
:10FA200085080C85090D850A0E850B0F780C791059
:10FA3000120ACF74026514751400703B8A0C8B0D8A
:10FA40008C0E8D0F74FE5514780C12096DE50CA206
:10FA5000E0401985080C85090D850A0E850B0FE518
:10FA600014780C12096DE50CA2E050460514E5145B
:10FA7000C39418503D80C5850C08850D09850E0A74
:10FA8000850F0B751003751100751200751300E5D5
:10FA900014C333781012086E78087910120A5DE5E5
:10FAA000084509450A450B60090514E514C3940C83
:10FAB00040C5741865147069851682851783A3A3E1
:10FAC000A3A3A3A3A3A3E06402606FE514F50875E4
:10FAD0000900851682851783A3A3A3A3A3A3A3A3C9
:10FAE000E06402705A7406120C12EEF07407120CE5
:10FAF00012EFF0851682851783E0C0E07408120CBF
:10FB000012D0E0F0851682851783A3E0C0E0740967
:10FB1000120C12D0E0F07904740612099674028077
:10FB200026740C651470A4851682851783A3A3A37D
:10FB3000A3A3A3A3A3E064037091791A02FC4679FE
:10FB400008AC16AD1774037808120AE22508FA7497
:10FB5000613509FB120F9D851682851783A3A3A328
:10FB6000A3A3A3A3A3E064027903AC18AD19704E5C
:10FB70007A677B61120FA37903AA18AB191211BF20
:10FB80008A088B098C0A8D0B750C01750D00750E9A
:10FB900000750F00E514780C12086E7808790C12C5
:10FBA0000ACF78081208E8740712098E12124374FB
:10FBB0000412091E7903E91209967A67806A7A6449
:10FBC0007B61120FA37903AA18AB191211BF8A081F
:10FBD0008B098C0A8D0BE514C333FA750C01750D76
:10FBE00000750E00750F00780C12086E7808790CFD
:10FBF000120ACF750C01750D00750E00750F00749B
:10FC0000012A780C12086E7808790C120ACF78084D
:10FC10001208E8740712098E121243740412091EA6
:10FC20007903E91209967A647B61120F9D85168229
:10FC3000851783A3A3A3A3A3A3A3A3E0FB7A01A98E
:10FC400014120EA17900740A12091E7F1002060513
:10FC500074F71203EEEA4B6021EA2408FEE43BFF4E
:10FC60008E828F83E0F87402686005740368700AFE
:10FC7000120E9BE9F974FF69700479E8800D8E8299
:10FC80008F83E0FB7A00120EA179007F0102060546
:10FC9000C082C083740169900486700B7401F09077
:10FCA000618AE0D2E28008E4F090618AE0C2E2F08A
:10FCB00080137B61120FA37903AA18AB191211BF2D
:10FCC000740312091ED083D0820208D0C082C08380
:10FCD000900486E06401700479FE800279FF80E57B
:10FCE000C082C083900486E060047901800990613D
:10FCF00063E0F8744058F980CC74EC1203EE74F4AD
:10FD00001209B68A828B83A3A3A3A3A3A3A3A3E010
:10FD100064027040EC851882851983F07401120C1E
:10FD200012EDF08A828B83E0C0E07402120C12D0D4
:10FD3000E0F08A828B83A3E0C0E07403120C12D03F
:10FD4000E0F0A818A919881289137E047510011211
:10FD50000EA7800C8A128B137E08751002120EAD4E
:10FD60008A0C8B0D8C0E8D0F7F00850C08850D097C
:10FD7000850E0A850F0BEF780812096DE508A2E0E1
:10FD80005053E510F5F0EF84F50BEEF97404120909
:10FD900096E50B89F0A4FAA8F0E428FB74613BFB1C
:10FDA000120FA3740412098688088909750A00785D
:10FDB000081208ECEEFC7D00851282851383A9826F
:10FDC000AA837B001211AD740312091EE96401704D
:10FDD00004A90B800BE5102FFFC39418408C79FF0A
:10FDE000740C12091E7F0C02060574EF1203EEE973
:10FDF000FF8A10EBFE750C01750D00750E00750F76
:10FE000000EFC333780C12086E750801F509F50A86
:10FE1000F50BEF780812086E046510702D74026EF1
:10FE20007014120EA78A0C8B0D8C0E8D0F780C7926
:10FE300008120ACF8030120EAD8A088B098C0A8D09
:10FE40000B7808790C120ACF803C74026E70201275
:10FE50000EA78A0C8B0D8C0E8D0F7808120B4F7825
:10FE60000C7908120A5D780C1208E87A83801E1259
:10FE70000EAD8A088B098C0A8D0B780C120B4F780B
:10FE800008790C120A5D78081208E87A867B6112FC
:10FE90001243740412091E7F09020605C082C08342
:10FEA00074FD1209B67903AC18AD197A8302FCB25D
:10FEB000C082C08374FD1209B67903AC18AD197AFB
:10FEC0008602FCB2C082C083900517E4F09005164C
:10FED000F08004A2E092AFD083D0820208D074F701
:10FEE0001203EEE9FF7003120D63AEA8C2AF9005D6
:10FEF00017E04FF01210CFEEA2E78003EEA2E092DF
:10FF0000AF7F0102060574F71203EEE9FE700312DB
:10FF10000D63A8A8C2AF900517E04EF0E880D97431
:10FF2000F71203EEE9FE7003120D63A8A8C2AF74C6
:10FF3000FF6EF9900517E059F0E8A2E792AF1210B2
:10FF4000C980BEC082C083A8A8C2AF900517E4F0E4
:10FF500090051612FFE9E8A2E792AF12104B02FEDD
:10FF6000D774F71203EEA2AFE433FEC2AF900517C9
:10FF7000E060031210CF808474F71203EEA2AFE4A6
:10FF800033FEC2AF900517E07019900503E0A2E7B9
:10FF90004011900505E0700B900518E0A2E74003C2
:10FFA0001210D502FEFCC082C083A2AFE433F8C2B7
:10FFB000AF900516E070067401F075E1E3E802FE0B
:10FFC000D3C082C083A2AFE433F9C2AF900516E07C
:10FFD0006013E412FFE9A8A8C2AF759B0075E9FBA6
:10FFE000E8A2E792AFE902FED3F075E1EF75E1ED2B
:10FFF00075E1ED220208D00208D00208D00208D034
:020000040001F9
:10000000C082C0831227A390194D7441F0A3741DC0
:10001000F090194F7447F0A3741DF0901951744D6E
:10002000F0A3741DF09019537453F0A3741DF002E3
:10003000BA9274F71203EEE9FE90193FE4F0EE90E5
:10004000193EF0901C3E12ABA112BF237C117D190A
:100050007A427B19121357901C40E090194AF09095
:10006000194B74FCF0A374180290ED74F01203EEB7
:10007000EAFEEBFF548070030281DD90193EE0F947
:100080001211E98A088B09EA450970030281D6EA50
:10009000241B12B628707CEA241F12B62864137041
:1000A00002A3E0706E8A828B8312824C90195D12DB
:1000B000BE01750A00750B00800D128F5C12BF2304
:1000C000121267AA0EAB0FEA4B60488A828B83E05C
:1000D000650C7004A3E0650D702C8A828B83A3A34A
:1000E000A3A3E0F50EA3E0F50FE50A450B8A828B8A
:1000F00083A3A3A3A360C3129DFE850A82850B83FD
:10010000A3A3A3A380B78A0A8B0B8A828B8312BD19
:10011000FD80B4E508242A12B628FCE5082402F87C
:10012000E43509F9E8FAE9FB90195DE012AD3DE02C
:10013000640270358A828B8312BE018007888289AF
:1001400083129DFAE849601C88828983E06A700303
:10015000A3E06B70E888828983A3A3E06C70DE1251
:100160008241806BECF9121D7D850882850983E050
:100170006401704FE50824181282341208F412C981
:10018000B1120714E50824121282341208F4E508AB
:10019000129D561208F0E508240B12C9B512071873
:1001A000E5082417129787E5082402FCE43509FDC9
:1001B000E5082419FAE43509FB12283F740A1209EC
:1001C0001E800CE064027007AA08AB09121EB5AAD3
:1001D00008AB091211D7EEFAEF6480804DEEA2E071
:1001E000501390195512B1CA600612DDB712056698
:1001F000EE640180335402600C901C5A7401F0EEDE
:100200006402FA802CEE54086023121D778B09EAF1
:100210004509701190195F12C4087A08FB90193EC5
:10022000E0F912132DEE6408FAEFFB80047A007BEC
:100230000002D0F8F582E43509F583E0F50A780A82
:1002400022901C4612B953A3A3A3F022A3A3E0F566
:100250000CA3E0F50D2274F41203EE8A088B098AD0
:10026000828B83A3A3A312A9861299BE38F583E0DB
:100270002409FA7B001211D18A0A8B0BAE0AAF0B4C
:10028000EE4F70030283208E828F83740212A9E8DE
:1002900085088285098312A47CE8F0A3E912CCECDE
:1002A000A3A3A3A3A3A3A3F0E5082403F8E43509BB
:1002B0001283251299BE3AF5831293E1F0EE2409D8
:1002C000FAE43FFB8E828F83A3A312BE38F58388A6
:1002D00082E0A2E58E828F83A3A3A3A3A35004741C
:1002E000018001E4F0E5082403F88882898312BEC6
:1002F00001EA12B15B3BF58312E2B41208EC1299E9
:10030000BD3B12BBCC8E828F8312BDFF1211A17434
:100310000312091EEEFAEFFB90193EE0F91211DD0F
:100320008013F8E43FF988828983E0FAA3E0CA22C7
:10033000740212091E7F0402060574F21203EE8A8B
:10034000088B09ECFAEDFB740E120C12E0FC120C97
:10035000318A0C8B0DAE0CAF0DEE4F6030AC08AD9A
:10036000091219F3E96026AC08AD09EEFAEFFB12A9
:100370000C25E970148E828F83129EA7FAEFFB1270
:10038000278BAA08AB09120C497900800279B402C4
:10039000AC8C74F01203EE74F61209B6EAFEEBFFB1
:1003A0008C088D09750FB3851882851983E4F07563
:1003B0000E008002050E902F09E493F8E50EC39815
:1003C00040030284C1AA0E7B00120C6D8A0A8B0BBB
:1003D000EA450B60DF8A828B83A3A31284C828F0CE
:1003E000F8C3EE98EF940050CB7C157D007900AAFD
:1003F00008AB091211B3850A82850B83A3A3A3A3BB
:1004000012BEF2E0F8EEC3982925E0F8E433F9E5EE
:100410000A28F582E50B39F583A3A3A3A3A3A312AE
:1004200099D4A3A3A3A3A312BF231221798A0C8B6F
:100430000DAC0CAD0DAA08AB09121357850A8285C5
:100440000B83A3E06401700A12C9B174011299E828
:1004500080447401120996850A82850B8312BDFFC0
:10046000120C55E9603D7409120C12E0C0E012C98B
:10047000B1D0E0F07409120C12E06403701374013F
:10048000120996E508240BFAE43509FB121357808C
:10049000127401120C12129DFEE50812B7503509B4
:1004A00012BF21850A82850B8312C9BD1299E8A368
:1004B000A3E0C0E0E508241412C9B5D0E0F0750F40
:1004C00000A90F740A02D0F5A3A3A3E0F88518824F
:1004D000851983E02274F71203EEE9FE8A828B838A
:1004E000A3A3A3A3A3A3E0540860338A828B83A3AE
:1004F000A3A3A3A3A3E0540260218A828B83A3A3B6
:10050000A3A3A3A3A3A3A3E06406600F74E96E6092
:100510000A74CD6E600574F06E7003121D5F02A543
:100520007874F01203EE74EF1209B6740F120C1205
:1005300012AAA97408120C12E9F0ECFEEDFF740582
:10054000120C12E4128BB8128837120C3D7406128A
:100550000C1212AAA97406120C1212B1CA7003026C
:1005600087E4129C75E0FA7406120C12E0F9121B73
:10057000E585188285198312D535F8A3E0F9E84995
:1005800070030287E4EE2403F50AE43FF50BEE2442
:1005900006F508E43FF5097C00850882F58312BE64
:1005A00001850A82850B83E0F9120C437403120C57
:1005B0001212AAA9850A82850B83E0C0E085188201
:1005C000851983128845D0E012B2CEF9851882854C
:1005D0001983128F6F12AE1A1284CBFAA3E0CA24C9
:1005E00007F582E43AF583E8F0A3E412C2F12406A9
:1005F000F582E438F583E412D4BA12A9771208EC34
:10060000EE1299BE3F12BBCC7403120C1212A986D3
:100610001291B612BE011211A1740312091E74299F
:10062000120C1212BEE812832A12B2E13A12BF2152
:10063000742B120C12E0C0E085188285198312B168
:100640008FD0E0F07402120C12E4F07425120C1238
:100650007808120B9E02873A7403120C1212BF0A1A
:100660008882898312882CA3A3A312B788FB120C5B
:100670005B850E82850F83A3EAF0A3EBF07403126F
:100680000C12128845A312882C12B990A2E6500FC2
:10069000850E82850F83A3A3A3A3A3E0D2E1F07408
:1006A00005120C12E0706A850E82850F83129DFD83
:1006B0009019BCE0687003A3E0697055850E8285CF
:1006C0000F83A3A3A3129585750C00780C1208F470
:1006D00078081208E87429120C12E0F50C780C1254
:1006E00008F47427120C121207189019C91207186F
:1006F00079007419120C1212AB6D121F0F740A12CA
:10070000091E850E82850F83A3A3A3A3A3E044053E
:10071000F07402120C12E004FC8E828F83A3A3A358
:10072000A3A3A3E0128837120C437403120C121215
:10073000AAA97402120C12E004F07403120C121233
:10074000B1CA60687402120C12E0FA7406120C123C
:10075000129DFEC3EA98E49950527402120C1212D0
:100760008B75851882851983E028F8A3E039F9E8AC
:10077000240FF50EE439F50F850E82F583E4F0744D
:1007800003120C1212D50DE0640160030286587446
:1007900005120C12740112D0DFF07403120C121245
:1007A000BA82128B99E8F0A3E902867C85188285CB
:1007B000198312BE01121BEB85188285198312075B
:1007C000187426120C12E0FD7425120C12E0FC7451
:1007D0000A120C12E0F9EEFAEFFB121D5974021224
:1007E000091E80438E828F83A3A3A3E0C0E0740C14
:1007F000120C12D0E0F012CF23E0C0E0740D120C06
:1008000012D0E0F07406120C1212B1CA7009740E04
:10081000120C1274B98007740E120C127410F0745A
:100820000912098E121F09741102D0F5E0850E829B
:10083000850F83A3A3A322FAA3E0FB8E828F83A359
:10084000A3A3E0F922E012C2DAA3A3A32274F01258
:1008500003EE74E01209B67405120C12E9F0740488
:10086000120C12ECF07403120C12EDF08A0E8B0FC6
:100870007430120C1212824EAA0CFB121BD9740196
:10088000120C12E9F0AA0CAB0D121BDF7402120C51
:1008900012E9F07401120C12E07003028B708518DB
:1008A00082851983E480158E828F83A3A3A3A3A3DB
:1008B000E0D2E3F0851882851983E00412CFF4F8C2
:1008C000851882851983E0C3984003028B67740101
:1008D000120C12E07003028B67851882851983124F
:1008E0008B75E50C28F8E50D39F9E8240FFEE4399D
:1008F000FF8E828F83A3A3A3A3A3E0A2E040B5C28F
:10090000008E828F83E0704612BE00121A958A080C
:100910008B09A808A909E849603488828983A3A3C0
:10092000A3A3E06401600D88828983A3A3A3A3E04D
:100930006403701A8E828F83A3A3A3A3A3E0D2E7DC
:10094000F0D2007402120C12E070030288B4750831
:1009500000750A08750B007403120C12E060037531
:1009600008207C087D007900740612098E1211B3EC
:100970008E828F83E06040901A0CE06401701CE569
:1009800008D2E3F508750B108E828F83129DFD74DB
:1009900006120C1212BE1A74FF807C43080C750AF2
:1009A0000C8E828F83A3128B9112BF237406120CBC
:1009B0001274FFF0A380607405120C12E06009E568
:1009C00008D2E6F508750A0A8E828F83A3E064FEDA
:1009D0007003A3E0F470307413120C127404128BC1
:1009E000B8F8741E120C12E812A9E8741312098EDA
:1009F000121A417D007C0079007416120C12AA8232
:100A0000AB831217A180118E828F83129DFD740615
:100A1000120C12E8F0A3E9F07408120C12E508F0C9
:100A2000129C6CC0E0740A120C12D0E0F0740B122D
:100A30000C127401F0740612098E121EBB7412128D
:100A40000C12E06003028B39740E120C1212B2C940
:100A50008E828F83A3A3A3A3F0740E120C1212A98B
:100A6000A9E50AF0A3E50BF07404120C12E0C0E053
:100A700012A957D0E012B9906011901A0CE0C0E0B2
:100A8000740E120C1212A99FD0E0F0740E120C1208
:100A9000129DFE850C82850D83A3A3128B7E241CE0
:100AA00012AAA312D4CA128B8312B9463912CF30BC
:100AB000C0E012A93ED0E012CFE9C0E0740E120CE3
:100AC0001212A470D0E012CD14C0E0740E120C12F9
:100AD00012A466D0E0F0740E120C12128B91A3A334
:100AE000128BA512D0D4128B7E242C12AAA3129C96
:100AF0005BC0E012A45CD0E0F0740E120C1212BEC7
:100B000001850E82850F83128B882428F582E43BB1
:100B100012BF21129C6412E2B41208EC12BBC5EAA7
:100B200012C28B3BF58312BE011211A1740312098C
:100B30001E740612098E121EC18E828F83A3A3A378
:100B4000A3A3E0D2E0F07412120C12E0600302885A
:100B5000A7A20050087402120C12E014F0740112E3
:100B60000C12E0140288B37900AA0CAB0D121D65BB
:100B7000742002D0F5E075F007A4F8A9F022A3A331
:100B8000A3A3A312BE05E822A3A3A3A3129E02EA75
:100B900022E0128B99A3A3A322F8A3E0F9850E8289
:100BA000850F83A322E0FAA3E0FBE8242AF582E480
:100BB00039F583EAF0A3EB22128BBC2212C7D5E0F1
:100BC0002274F01203EE74E81209B6E985188285E2
:100BD0001983F08A0E8B0F8A828B83A3A3A3A3A30E
:100BE000A3A3A3E0F9121C038A088B09EA45097044
:100BF00003028C95E50E12A550129C901296598511
:100C00001882851983E06003028C987C04850E822B
:100C1000850F83A3A3A3A3A3A3A3A3E0F9121C0995
:100C2000EE4F60718E828F83129DFA7407120C1240
:100C300012C7C9129DFE7409120C1212BC89C0E0C1
:100C40007411120C12D0E012CCFAA3129DF8740F9A
:100C5000120C1212BF237412120C12E412D0E7C845
:100C6000241FF582E438F58312A55CC413135403E2
:100C7000FC70027C048E828F83E0F978081208F001
:100C8000742059FD744059F9740312098E121D59CC
:100C9000740212091E02D0F37C08850E82850F8330
:100CA000A3A3A3A3A3A3A3A3E0F9121C098B0BEA9C
:100CB000450B7003028C20EE4F60DA85188285198F
:100CC00083E0F50C780C1208F4850882850983A36B
:100CD000A3A3A3A3A3A3E0F50C780C1208F48A82C3
:100CE0008B83A3A3A3E0FB8A82850B8312D4F48AAF
:100CF00082850B83E0FA8E828F83A3A3E0F912280A
:100D000045740212091E028C2474F71203EE74FA61
:100D10001209B6E9FE780179017F00800379000F9E
:100D200012AD13E0FCEFC39C5026EF75F007A4FC56
:100D300085F008AD08EA2CFCEB3DFD12A2DAE0A23A
:100D4000E050DA540C60D6E0A2E250D3780080CFB5
:100D50008A828B83A3A3A3A3A3A3E0703DE9A2E0AF
:100D6000400574016E70338A828B83A3A3A3A3A36F
:100D7000A3740112A344E0C0E07403120C12D0E08B
:100D800012A33CE0C0E07404120C12D0E0F0740531
:100D9000120C12E812C029121F09740602A575C0B0
:100DA00082C0837901121D6502BA9274F41203EEB7
:100DB000EA4B901C5A6022E4F08A088B09F50AF588
:100DC0000B78081208E87A027B0090193EE0F912CD
:100DD0001321740412091E800F7401F07A027B0043
:100DE00090193EE0F912132D02833574F01203EED0
:100DF00074F31209B67403120C12E4F0A3F0901904
:100E00005D1296597401120C12E4F0A312A9DB04CE
:100E1000F09019B6E0A2E35003028EE612133FEA07
:100E2000F8EBF9ECFAEDFB7409120C12120BE374F7
:100E300009120C127808120B9E90195F780812099B
:100E40009E7405120C127808120B8F128F637405B2
:100E5000120C127808120B5F50077A017B00028F88
:100E6000577405120C12780C120B9E901C45E0F57D
:100E700009780C790812037FA80CA90D901C46E094
:100E8000C398E4995003E08001E8851882851983AE
:100E9000F07409120C127808120B9EC008C009C029
:100EA0000AC00B7405120C12780C120B9E128F6381
:100EB000780C790812037FE4F50AF50BD00FD00EF9
:100EC000D00DD00C780C7908120A2190195F780C9B
:100ED000120B8F8011128F5C12BF23EEFAEFFB1200
:100EE0001267AE08AF09EE4F60658E828F83128461
:100EF000C8C398502DEE2403F8E43FF9E0FA888245
:100F00008983E0C39AF060237403120C1212A021AB
:100F10007401120C12EEF0A3EF12C2F9FEA3E0FF6F
:100F200080C48E828F83A3A3A3E4F08E828F83126A
:100F3000E27D7401120C1212B1CA8E828F83A3A3B8
:100F4000A3A3609112C79B120C12128F6F80897439
:100F500003120C1212BE01740D02D0F5129E029003
:100F6000195D22901C4412E285E4F50AF50B221269
:100F70008F76A3A3A322E0FAA3E0F5838A82A322BB
:100F800074F01203EE8A088B09890A7800790090C0
:100F9000195D12965912AB52601E088E828F83A380
:100FA000A3A3A312AB55601008E87001098E828FCD
:100FB00083129655EE4F70E3901C4712BE01C3E8B2
:100FC0009AE99B40030290717A067B001212618AB3
:100FD0000C8B0DA80CA90DE8497003029071888252
:100FE0008983E508F0A3E50912A353A3E50AF012EB
:100FF000824188828983A3A3A3A3E4F0A3F012AB68
:1010000052600D8E828F83A3A3A3A312BF23801FE0
:1010100090195D12BF239019B6E0A2E3401112139C
:101020003FEAF8EBF9ECFAEDFB90195F120BE39055
:1010300019B6E0A2E3503A7A087B0090193EE0F935
:10104000121333EA4B4C4D7028901C44E0F508A372
:10105000E085080CF50DE4F50EF50F780C1208E8A4
:101060007A087B0090193EE0F912132774041209E4
:101070001E02D0F8C082C083E9901C5BF090195723
:10108000749BF0A3741DF090195974ADF0A3741DF6
:10109000F090195B74BFF0A3741DF002BA9274F75C
:1010A0001203EEEAFEEBFF8908EE4F7003120D63A8
:1010B00090196312B1CA7008901963801E129DFEC8
:1010C00088828983A3A3A3A3A3A3A3A3A3129E0798
:1010D000A3A3A3A3A3A3A3A3A370E2EEF0A3EF1281
:1010E00090F1A3A3A3E4F0A31290F1E508F002A508
:1010F0007812C7D12274F71203EEE9FD90196380CC
:101100000D88828983A3A3A3A3A3A3A3A3A312B13E
:10111000CA603488828983A3A3A3A3A3A3A3E06D99
:1011200070DF88828983A3A3A3A3E06A7003A3E08E
:101130006B70CE88828983A3A3A3A3A3A3E06C7062
:10114000C0E8FAE9FB80047A007B0002A57874F716
:101150001203EE901963129659901963128B8C68E2
:101160007002EB697019E0C81291B6129DFE9019D9
:101170006312BF23901963129659803012964CEE79
:101180004F60298E828F83A3A3A3A3A3128B8868A9
:101190007002EB6970E68A828B83A3A3A3A3A3A347
:1011A000A3A3A312A47CA3A3A312BF23121267EECE
:1011B000FAEFFB02A5782409F582E438F58322745E
:1011C000F01203EE74F91209B68A0C8B0D8A828B29
:1011D00083A3A3A3A3A3A3A3A3E060336401602F0D
:1011E0008A828B8312BE01122215E97022850C823D
:1011F000850D83A3A3A3A3A3A3A3A3E064037014F7
:101200007402120996AA0CAB0D121E3DE9701679F4
:10121000020293D4850C82850D83129DFE74021206
:101220000C1212BF23E50C241112D4C2243412BEB6
:10123000421212618A088B09AE08AF09EE4F7003A3
:101240000293D27C347D0079001211B3AA18AB1935
:10125000850C82850D83A3A3A3A3A3A3A3A3A3E0CB
:10126000F9122803851882851983E0C0E01293D90A
:10127000D0E0F0EE242EF50EE43FF50F7401120CD1
:1012800012E0850E82850F83F07901EEFAEFFB12F2
:101290001D89850C08850D09750A0078081208EC6F
:1012A0007C1E7D00EE240BFAE43FFB1211A17403B7
:1012B00012091EEE2432FAE43FFBEE2434F8E43F38
:1012C000F98A828B8312BF23E50C2411FCE4350DCF
:1012D000FD8C828D8312AE15243012BF1DE50C12D9
:1012E000A2EC12D4DF12E2A61208EC8C828D8312DB
:1012F000D4F58A828B8312BE011211A174031209E4
:101300001E7402120C121299C812BF2390193F12B8
:1013100093E1A3A3A3F090193FE004F012133F8ED2
:10132000828F8312A48F242CF8E43FF9E8FAE9FBBA
:101330007508FF750900850E82850F83E078081215
:101340000AE28A828B83E508F0EE242B12977474EC
:1013500004120C12E4F0E50C241512D4C2A2E074BD
:10136000055007120C1274018004120C12E4F0EE06
:101370002429F508E43FF509740412098E12281B8C
:10138000E924FE850882850983F0EE243012977ED9
:101390001293E81202A6E88E828F83A3A3A3A3A3CD
:1013A000A3A3A3F01293E81202A68B09EA450960F1
:1013B0000F8E828F83A3A3A3A3A3A3A3A3E004F010
:1013C000EE242012B6184408129CC412121379009D
:1013D00080027910740702D0F5EE12C28B3FF583BC
:1013E0002212CCF3A3A3A3228C828D8312B769E0CF
:1013F000FA7B002274F41203EEEAFEEBFF12133FB5
:101400008E828F8312AAA9901C3AE0F8EE242D1246
:10141000B618C39840030295621295747012EE24B8
:101420002D12B6180412AD5CC0E012976AD0E0F03D
:1014300012AD1BFA7900800109EE242E12B618F8BD
:10144000E9C3985026750801750900E97808120A61
:10145000E2129574550860E0E92AFA7508017509E9
:1014600000E97808120AE2E04508F0EE242912B6F5
:1014700018FBEE2430F582E43FF583EA8BF0A4F804
:10148000ACF0E42CF9E098F8A3E099F9EBFCC3E8A0
:101490009CE99400EE4031242912B618F812957494
:1014A000602C1293D9129585A3E4F0EA7047EE24DC
:1014B0002012B618442012BC8DC0E012AD4AD0E014
:1014C00012AD54FCA3E0805512976B74FFF0901995
:1014D000ACE0FC901C3D12957CADF075F064A4FC72
:1014E000ABF075F064EDA42BFD8E828F83A3A3EC8B
:1014F000F0A3ED80B5EE242012B61854DF12AD45EE
:10150000EAF0FCEE2429F582E43FF58312957CFC99
:10151000ADF0EE243212B6182CFCA3E03DFD12CF44
:10152000CAECF0A3ED12C9D2C0E0EE2425F582E4A6
:101530003FF583D0E0F0EE241CF582E43FF583E82C
:1015400012A9E890196512B1CA600BEAF912DDB769
:10155000120566E9701BEE240BFAE43FFB121E1322
:10156000800F7BE9129797122851EEFAEFFB121DBC
:1015700095028335EE242B12B680F422E0F508ECB8
:101580008508F0A42212CCF3A3F02274F41203EE27
:1015900090196312965912133F8A0A8B0B78FF79C0
:1015A000FF8020E0C39AFCA3E09BFDC3EC98ED997B
:1015B000500E8E828F83A3A3E0C39AF8A3E09BF919
:1015C00012964CEE4F60598E828F8312BE01E50A4F
:1015D000C39AFAE50B9BFB8E828F8312D4F3C3EA86
:1015E0009CEB9D8E828F83A3A340B8A3A3A3A3E00B
:1015F00064027017129C816009129C7512BE011260
:1016000011D7EEFAEFFB121D958007EEFAEFFB12F1
:101610001DA17A017B00901C5BE0F9121213802956
:1016200074FF68700374FF69601F88088909E4F516
:101630000AF50B78081208E87A017B00901C5BE041
:10164000F9121321740412091E0283358E828F83CE
:10165000A3A3A3A3A3A3A3A3A3E0FEA3E0FF2274D9
:10166000F31203EE8A088B09ECFAEDFB890C7C017E
:10167000E5082411129787121D8F8A0A8B0BAE0A78
:10168000AF0BEE4F7003029765E50C6003029765A0
:1016900012C9B112979168600302976512AD0912E1
:1016A000B63B8E828F83A3A3A3A3A3A3A3A3E0FA35
:1016B000E89AE99400C365D033401CE5082414126D
:1016C000B628F470127B00129797122851EEFAEFA9
:1016D000FB121D95029765E508241412B628F470D4
:1016E00043EE242BF8E43FF9E8FAE9FBEE242E124E
:1016F000977E7508FF7509008C828D83E07808124B
:101700000AE28A828B83E508F0EE242C1297748C0F
:10171000828D8312979128F0EE242DF582E43FF517
:1017200083E48021E5082414F8E43509F9E0C0E0F9
:10173000EE242CF582E43FF583D0E012BE0BC0E02E
:1017400012976AD0E0F012133F8E828F8312A48F1B
:101750001293DA12B631A312A9E87A01FB901C5B4E
:10176000E0F91212137F05020605EE242BF582E440
:101770003FF58322F582E43FF583E508F022F8E4A3
:101780003FF9E8FCE9FD22F582E43509F583E0F94B
:1017900022E0F812AD1F22EE242212B680FAEE24C7
:1017A0001412B680F92274F01203EE74FB1209B61B
:1017B0007403120C1212A9C5E9851882851983F0E9
:1017C0008A0A8B0B8A828B83A3A3E0F91228278ACB
:1017D0000E8B0FEA450F70077A007B000299AF7AF3
:1017E000127B001212618A088B09EA450970030214
:1017F00099AB7C127D0079001211B3740112098E2D
:10180000850A82850B83A3A3E0F9122803E5082447
:101810000FFEE43509FF7402120C12E08E828F83F2
:10182000F07902AA08AB09121D897403120C121276
:10183000C2D51299D41299E224111299B485088262
:10184000850983A3A3A3A3A3A3A3F0750CFF750D20
:10185000008E828F83E0780C120AE2E508240C12D5
:10186000C9B5E50C12D0CF12DDB5E0C0E0E5082423
:101870000B12C9B5D0E0F0E50A1299BE1299B7FA79
:10188000E508240D12C9B5EAF0E50A12A2EC129996
:10189000B78AF0A4A9F02427FAE439FB1211D18AFF
:1018A0000C8B0DAE0CAF0DE508241012C9B512A3B8
:1018B00021EE4F700302999E8E828F83741A12A9B3
:1018C000E88E828F83A3A3F0A31299F61299C8120F
:1018D000C7C3120C1212D4F512CFD2122809850AEE
:1018E00082850B83A3A3A3E0C0E012B61CD0E0F076
:1018F0009019C912AE1524101299DC12A2B8350B3A
:10190000F58312AE1512C01EE8F0A3E91299F61283
:10191000AE1112CF24E8F0A3E91299E8E0C0E0EE9E
:101920002414F582E43FF583D0E0F0E50A240C129C
:1019300099B4C0E0EE12A2B83FF583D0E0F0741580
:10194000120C1212B959E0C0E012D27DD0E012C9D7
:10195000CDC0E012CF17D0E012A34DC0E012A961B4
:10196000D0E012B1CFC0E012A948D0E0F074171255
:101970000C12120BEFEE241AF582E43FF583120BE2
:10198000E3EE2427F8E43FF9EE24221299DC12BD9D
:10199000EF1299B7C0E012CFDAD0E0F0800DAA08BC
:1019A000AB09121D95750800750900AA08AB0974EA
:1019B0000502D0F5F582E4350BF583E022EA1299B1
:1019C000C2222410F582E4221299CC2212AB63A326
:1019D000A3A3A32212B769A3A3A3A322F582E43F82
:1019E000F58312AA04E50A221299EC22F0850A82F4
:1019F000850B83A3A3221299ECA3A3A3A32274F0C3
:101A00001203EE74FE1209B685188285198312A995
:101A1000C58A0E8B0F890DC200EA129C87E0F50C77
:101A200090196512B1CA600EA90C12DDB7120566D5
:101A3000E96003029C567C02129CA3129C5BF91283
:101A40001D8F8A088B09AE08AF09EE4F7058850EBE
:101A500082850F83A3E0A2E04003029C5674141217
:101A60000C121207147416120C12120718A90D7416
:101A700006120C1212D4F5AA0EAB0F121DB3740687
:101A800012091E8A088B09AE08AF09EE4F700302D7
:101A90009C568E828F83A3A3A3A3A3A3A3A3E50C29
:101AA000129CC4121213AA0C8E828F83A3A3A3A329
:101AB000A3A3A3A3E024FFF8E434FFF9E86A497084
:101AC00002D200129C817003029C12850E82850F47
:101AD00083A3E0A2E05003750C00129CB1E50C98C2
:101AE000E499C365D033401CE0F8EE240E12B6181A
:101AF0002CF07508FF750900E87808120AE2EE2458
:101B00000C129774129C6412E2B41208EC12BBC55A
:101B1000EE240D12B618F508E50C8508F0A4FAAB12
:101B2000F012A9832422F582E438F583E02AFAA38F
:101B3000E03BFB1211A1740312091E750801129CEF
:101B4000957808120AE212B6154508F0A200506D09
:101B5000EE240CFAE43FFB7508FF129C950478080C
:101B6000120AE28A828B83E0450812A9D3F8E50CB9
:101B7000F508E88508F0A4F8A9F0129C6CFCE82CA4
:101B8000FCE439FD12A9832420F582E438F583ECC6
:101B9000F0A3ED12BA88F47024EE240BF508E43FAC
:101BA000F509129C7512BE01850882850983E0F94A
:101BB0001211DD85088285098374FF805412133F5A
:101BC0008E828F8312AAA99019ACE0FA901C3DE096
:101BD000F508EA8508F0A4FAABF0F8EBF9901C3AA6
:101BE000E0F508E88508F0A4F8ACF08508F0E9A471
:101BF0002CF9EA28F8EB39F9E875F064A4F8AAF0B2
:101C000075F064E9A42AF98E828F83A3A3E8F0A378
:101C1000E9F0AA0C129CB112D1C8E86A7001E9601F
:101C20000CEE240C1295776004A2005029EE240ECD
:101C300012B618C0E0E50E129C87D0E0F012B6157F
:101C4000C0E0E50E2414129C8DD0E0F0AC0EAD0F78
:101C5000129CA3121E01740202D0F5E50E2411128B
