:020000040000FA
:06000000020FAA0205BB7D
:03002B00020DCFF4
:03003300020B734A
:03004300020C8329
:030053000204F0B4
:03005B0002091D7A
:03006B00020B4D38
:1000830002054F0100F0FF0700080000FFFF00001A
:10009300050400000003000147726F757000FF0440
:1000A30000100020FD000206FFFF03010800E41119
:1000B30041150001080401030101034E8C03548C14
:1000C300010400002112000000E8030000FFFF729A
:1000D300120188130000E803000064006400B80103
:1000E300A0BB0D00A0BB0D00020202070401051E08
:1000F30002051E020A0A0108080103B80B02803E2A
:100103000102FEFFE8030A050001FFFF020A0114D2
:1001130001E00200000005030101FF0F512A000066
:100123000000872900000000FF000000FF00120FFD
:10013300FA6046121036603DE9687008F618F61842
:10014300F618F622748067F71201650909097480AD
:1001530067F722121036601D120FFA70051919196C
:10016300801A120EB1701F120EC5C37003E66733F7
:1001730019191940071818182208080874FFF618E7
:10018300F618F618F622120EC560171210A5702184
:1001930092F01210AE7019501720F01408080809D5
:1001A3000909E7F61819E7F61819E7F61819E7F633
:1001B300221210AE60E6E869701F0808E62480F694
:1001C30008E436F618547FB47F0CE654806007F6D3
:1001D300E418F618F622181822E9C6CC08C6CD088A
:1001E300C6CE08C6CFC0E0E8C0E0EAC0E0EBC0E09E
:1001F30009E9F809E7FA09E7FBE6F918E6F8C3ECB9
:1002030098ED99EE9AEBC2E7F5F0EFC2E795F0505F
:100213000E600CEBCFFBEACEFAE9CDF9E8CCF8EAB5
:10022300A2E7D2E7FAEB33FB13F5F0EEA2E7D2E74E
:10023300FEEF33FFC5F013A2E730E601B313C5F0B9
:10024300C3C0E0C0F07F00C39BFB605E9418600FE7
:10025300401D14601AD0E023F9D0E0F80203378A76
:10026300F0E9486003D2F0E4AFF0FAF9F8803BEB31
:1002730030E40D89F0EA6003D2F0E4AFF0F9CAF894
:10028300EB30E30D88F0EF6002D2F0AFF0E4CAC9BF
:10029300F8EB54076014FBC3EA13FAE913F9E81304
:1002A300F8EF135002D2E0FFDBEDD0E0C0E030E71F
:1002B30039C3E49FFFF5F0EC98FC42F0ED99FD4261
:1002C300F0EE9AFE42F0D0E0F9D0E0F8E5F0607A83
:1002D300E923F9EE20E742D8028067C3EF33FFEC4E
:1002E30033FCED33FDEE33FE80EAEC28FCED39FD03
:1002F300EE3AFED0E023F9D0E0F84002801BC3EED3
:1003030013FEED13FDEC13FCEF135002D2E0FF08D4
:10031300B800067F7F74FF802EEF3350178CF020D8
:10032300F00260100CBC000C0DBD00080EBE0004F2
:1003330008E860DFE933E813FFEE2313FE4F4D4C6B
:100343008008E95480FFE4FEFDFCEE33EF33F470E4
:1003530004FCFD7E80D0E0FBD0E0FAD0E0F8D0E0F2
:10036300CFC618CEC618CDC618CCC6F922001210B7
:1003730036604F120FFA6012E7548066F6120EB120
:1003830070111210A5703B090909F4F618F618F656
:1003930018F622120EC570151210AE08080860EA8E
:1003A300E6447FF618768018E4F618F6221210AEAB
:1003B30060161210A57012E4F608F608F608E65463
:1003C30080F609090918181822EAC0E0EBC0E0EC2E
:1003D300C0E0EDC0E0E687F0A4FBACF008E687F0F0
:1003E300A42CFCE435F0FA1809E687F0A42C4B6042
:1003F300027401CA35F0FCE433FB09E687F0D2F757
:10040300A42CCB35F0FC1908E687F0A42BCC35F0EF
:10041300FBE433FD0819E687F0D2E7A42C4ACB3579
:10042300F0CD3400FC09E687F0D2E7A42DCC35F0FB
:10043300FDE433FA0918E687F0D2F7A42CCD35F0A2
:10044300CA3400FC08E687F0D2E7D2F7A42ACC35F9
:10045300F07A7E20E70B0ACB33CBCD33CDCC33CC34
:1004630033CB3350147004ED30E00ED2F1E4CD3DC4
:10047300CDCC3CCC3B5005DA05C2F1EB547FC633FF
:1004830008E63392F0FBE73309E733C39A502D2B89
:1004930070190C0D4C4D70151806E608C333700D1A
:1004A30020F10AA2F013F6E418800B4024E4F6309E
:1004B300F002768018F618F618F68024D33B145011
:1004C3001074FFA2F013F6187680E418F618F6807D
:1004D3000FA2F013F618E63303F618ECF618EDF650
:1004E300D0E0FDD0E0FCD0E0FBD0E0FA22C0E07425
:1004F300F1120861A2AFE433F509D2AF85A708AFC3
:10050300A1EF5508FE74105E60061212C475A1EFC8
:1005130074085E60081212CA75A1F78024EFA2E086
:1005230092F0E508A2E082F05017906198E0F8900D
:100533000496E0C398A2D265D0335002E8F075A1C7
:10054300FEE509A2E092AF7F02020976C0E074F2F1
:10055300120861A2AFE433FED2AF9061A4E0F87554
:100563009B00E59158540860087591F712131880A1
:1005730023E59158541060087591EF12131E8014EF
:10058300E591A2E092F0E8A2E082F05007E0C2E039
:10059300F01214689061A3E0F8E5E9585404600E82
:1005A30012143E75E9FB906193E0A2E640F2EEA2DD
:1005B300E092AF7F01020976C0E074F2120861A2F3
:1005C300AFE433FED2AF9061A5E0F8E5BF58540421
:1005D300600675BFFB12148080D4C3E498F8E499D5
:1005E300F912061E8026C3E49AFAE49BFBE920E78E
:1005F300E912061EE498F8E499F922C3E498F8E4B2
:1006030099F912061EE498F8E499F9C3E49AFAE416
:100613009BFB22EB20E7CFE920E7E0B90010BB000A
:1006230008E88AF084F8AAF022E4FBC8FA22EB7007
:10063300227B10C833C8C933C9335007C39AC3DBFD
:10064300F280069A50012ADBEAC833F4C8C933F4AE
:10065300C9FA2275F008E4C833C8C933C933C99A43
:10066300C99B5004C92AC93BD5F0ECFBC833F4C875
:10067300E4C9FA221206B720F01430E72B74FFFC0A
:10068300FBFA747F8022E4FCFBFA7480801AB48046
:1006930008BC00F2BB00EF800F50EBF9E4C39AFAF9
:1006A300E49BFBE49CFCE499C6CC18C6CB18C6CAF1
:1006B30018C6F922E4C9C608CAC608CBC6D3330391
:1006C30008CCC63392F0C3947F402E94184019C9C6
:1006D300B90704CACBCC225025C309CA33CACB33CA
:1006E300CBCC33CC33D9F422F4600DC9CCC313CBB8
:1006F30013CBCA13CAD9F6CC22E4FCFBFA2214FCAE
:10070300FBFA22080808EAC0E0EBC0E086F0E7A4A1
:10071300FA180986F0E7A42AFA180986F0E7A42A4A
:10072300FA180986F0E7A42AFA1986F0E7A4FBE58C
:10073300F02AFA190886F0E7A42BFBE5F03AFA1938
:100743000886F0E7A42BFBE5F03AFA18180986F0BF
:10075300E7A4C5F02BFBE43AFA1908E7C5F0C6A4F1
:1007630026F6E5F03BFBE43AFA1886F0E7A4F6E553
:10077300F00826F6E43B08F6E43A08F6D0E0FBD0AE
:10078300E0FA22E4CFC0E0E4CEC0E0E4CDC0E0E490
:10079300CCC0E075F020E626F608E633F608E6332B
:1007A300F608E633F6181818EC33FCED33FDEE3398
:1007B300FEEF33FFC3EC9709ED9709EE9709EF9727
:1007C300191919400FFFEC97FC09ED97FD09EE97F6
:1007D300FE191906D5F0BFECF709EDF709EEF70995
:1007E300EFF7191919D0E0FCD0E0FDD0E0FED0E01E
:1007F300FF222518C582C0E0E51934FFC583C0E098
:10080300E518C3958224F810AF08858319858218EB
:100813008008858319858218D2AFCEF0A3E520F036
:10082300A37808E608F0A3DEFAEFF0A3E58124FA43
:10083300F8E608F0A3E608F0A3E608F0A30808E644
:1008430008F0A3E608F0A315811581D0E0FED0E0FF
:10085300F8158115811581E8C0E0EEC0E022C0D013
:100863002518C582C0E0E51934FFC583C0E0E5184B
:10087300C3958224F310AF088583198582188008F5
:10088300858319858218D2AFC8F0A3E9F0A3EAF0F3
:10089300A3EBF0A37908E709F0A3D8FAECF0A3EDF2
:1008A300F0A3EEF0A3EFF0A3D0E0F0A3D0E0F0A329
:1008B300D0E0F0A3E520F0A3E5F0F0A322E9799ED0
:1008C300C608CAC608CBC608CCC6C370207996CA68
:1008D300CBCC7019798ECBCC70137986CC700EF992
:1008E300802ACA33CACB33CBCC33CC331930E7F2AB
:1008F300CCCBCA3350147004EA30E00DE4CA3ACAD0
:10090300CB3BCBCC3CCC500209C3E913C6CC182358
:1009130013C6CB18C6CA18C6F922C0E0C0D0E8C0B7
:10092300E0C082C083900528E004F0900529E0042C
:10093300F0900526E0F8900528E0C3985004D29380
:100943008002C293E0C394644002E4F0900527E080
:10095300F8900529E0C3985004C2818002D281E057
:10096300C394644002E4F0D083D082D0E0F8D0D0C6
:10097300D0E032851983851882E0C0E0A3E0F9A3B3
:10098300E0FAA3E0FBA37808E0F608A3DFFAE0FCB3
:10099300A3E0FDA3E0FEA3E0FFA3E0C0E0A3E0C06B
:1009A300E0A3E0F5D0A3E0F520A3E0A3F5F010AFBA
:1009B300088583198582188008858319858218D252
:1009C300AFD082D083D0E0F8D0E032121090B900DB
:1009D30003020A0DE4900301781079138002F0A357
:1009E300D8FCD9FA7A107B1590008678AC7901800F
:1009F30015E493A3AD82AE838A828B83F0A3AA828C
:100A0300AB838D828E83D8E9D9E77582907583D8BD
:100A13007404120D467582827583277400120D4685
:100A23000475F0108E1A8F1B85821F85831E85180F
:100A330082851983E0CEA3E0CF851F82851E83EBD9
:100A4300C9EAC8EDCBECCAC3E833C8E933C9EA3312
:100A5300CAEB33CBC3EA9EF51DEB9FF51CB35004E1
:100A6300AB1CAA1DEC33CCED33CDD5F0DAAE1AAF07
:100A73001B22D083D082ECC0E0EDC0E0E493A3FC62
:100A8300E493A3FDED4C600D120B91EC24FFFCED00
:100A930034FFFD80EFE493A3FCE493A3FDED4C60EE
:100AA3000D120C2EEC24FFFCED34FFFD80EFD0E0A3
:100AB300FDD0E0FCE493A3C0E0E493C0E022D08344
:100AC300D082E9C0E0E493A3C386F0C5F095F0F9C2
:100AD30008E493A386F0C5F095F0700BE493A3C3E9
:100AE300994005E9048002A3E475F002A42582F588
:100AF30082E5F03583F583D0E0F9E493A3C0E0E425
:100B030093C0E022851983851882E0A3FEE0A3F554
:100B1300207808E0A3F608DFFAE0A3FFE0A3C0E033
:100B2300E0A3C0E0E0A3C0E0E0A3C0E0E0A3C0E036
:100B330010AF0885821885831980088582188583FC
:100B430019D2AFD083D082020D4CC0E074F21208E8
:100B530061A2AFE433FED2AFE589A2E150031211E3
:100B630092758900C2C5EEA2E092AF7F01020976B9
:100B7300C0E074F2120861A2AFE433FED2AFE58B9A
:100B8300A2E05003121192758B00C2E880D8C0E036
:100B9300C3E49396087401939618400FE493667028
:100BA3000808740193661870007019A3A3C3E49333
:100BB30096087401939618A3A3400DD0E0D0E0D01B
:100BC300E0020AB1A3A3A3A3A3A3D0E022740480E9
:100BD3000474028000CCC0E0EDC0E0E518C39CCCF7
:100BE300AD1950011D10AF068C188D1980068C1895
:100BF3008D19D2AF120CC8D0E0FDD0E0FC227402F4
:100C03008000CCC0E0EDC0E0E518C39CCCAD19502A
:100C1300011D10AF068C188D1980068C188D19D202
:100C2300AF120CA6D0E0FDD0E0FC22C0E0C0F088FB
:100C3300F0E4936670080874019366187000A8F0D6
:100C4300A3A3700BD0F0D0E0D0E0D0E0020AB1A3B0
:100C5300A3D0F0D0E022D083D082CCC0E0E493A331
:100C63006006120D271470FAE493A36006120E486F
:100C73001470FAD0E0FCE493A3C0E0E493C0E02254
:100C8300C0E074F2120861A2AFE433FED2AFC2C077
:100C9300E5D1A2E45003121234EEA2E092AF7F0139
:100CA300020976CAC0E0E493A3C582CCC582C5839A
:100CB300CDC583F0A3C582CCC582C583CDC583DAF8
:100CC300E5D0E0CA22CAC0E0E0A3C582CCC582C594
:100CD30083CDC583F0A3C582CCC582C583CDC5832F
:100CE300DAE6D0E0CA22C008C3E096F50808A3E01C
:100CF30096420808A3E096420808A3E096450870C8
:100D030001D3D008227009080808226016181818A1
:100D1300C6C333C608C633C608C633C608C633C6F9
:100D2300D5E0EA22C0E0E493A3D39C5010E493A35C
:100D3300C39C400AD0E0D0E0D0E0020C76A3A3A38A
:100D4300D0E022C09FF59FE473D09F22D083D0824E
:100D5300C09FE493C0E0740193C0E0740293F59FD5
:100D6300222518F58210AF08F518400C15198008D4
:100D7300F51840021519D2AF851983227404800A2D
:100D830074038006740280027401C0E0F404120D3F
:100D930064D0E01210532200C0D0251810AF08F51C
:100DA30018500C05198008F51850020519D2AFD058
:100DB300D022BB0102E722C082C08389828A83BB1F
:100DC3000003E08002E493D083D08222C0E0C0D04D
:100DD300E8C0E0A8A8D2AFC2C7E8A2E792AFD0E0CC
:100DE300F8D0D0D0E0326016080808C6C313C6187E
:100DF300C613C618C613C618C613C6D5E0EA2225FD
:100E030018F8E43519F9222518FAE43519FB2225D7
:100E130018FCE43519FD22C3E0C696F608A3E0C624
:100E230096F608A3E0C696F608A3E0C696F6222532
:100E33001810AF08F518400C15198008F518400272
:100E43001519D2AF22C0E0E493A36C7009D0E0D0AF
:100E5300E0D0E0020C76A3A3D0E022E06670100895
:100E6300A3E066700A08A3E066700408A3E06622A4
:100E7300C3E09608A3E09608A3E09608A3E096A231
:100E8300D265D03322E76670100809E766700A0856
:100E930009E76670040809E76622C3E096F008A331
:100EA300E096F008A3E096F008A3E096F022181865
:100EB30018E60846087009E626087005E633F422AA
:100EC3000822191919E70947097009E72709700565
:100ED300E733F4220922C3E697F60809E697F608F2
:100EE30009E697F60809E697F622C3E49396087491
:100EF3000193960874029396087403939622E0264E
:100F0300F008A3E036F008A3E036F008A3E036F0DB
:100F130022E657F60809E657F60809E657F60809E0
:100F2300E657F622E056F608A3E056F608A3E05685
:100F3300F608A3E056F622E056F008A3E056F008C0
:100F4300A3E056F008A3E056F022E647F60809E6C8
:100F530047F60809E647F60809E647F622E627F6C4
:100F63000809E637F60809E637F60809E637F622F0
:100F7300E026F608A3E036F608A3E036F608A3E079
:100F830036F622700422600D18C6C333C608C63372
:100F9300C6D5E0F41822E4C396F608E496F608E40E
:100FA30096F608E496F62275D00075813F75180110
:100FB300751903000209CEC3E7960809E7960809E5
:100FC300E7960809E79622C6F4C608C6F4C608C61B
:100FD300F4C608C6F4C622600D08C6A2E713C618F5
:100FE300C613C6D5E0F322C3E09608A3E09608A390
:100FF300E09608A3E09622E7094709C3134709339C
:101003006002E733F422E0F608A3E0F608A3E0F673
:1010130008A3E0F622600C08C6C313C618C613C69D
:10102300D5E0F422E6F008A3E6F008A3E6F008A36F
:10103300E6F022E6084608C3134608336002E633A7
:10104300F422C2E9EAF5C1A2E950FC7A007B00224E
:10105300CAC0E0E6F0A308DAFAD0E0FA22E0FAA385
:10106300E0FBA3E0FCA3E0FD22E8F0A3E9F0A3EAA0
:10107300F0A3EBF022E0F8A3E0F9A3E0FAA3E0FB8E
:1010830022EAF0A3EBF0A3ECF0A3EDF022E5C754C2
:10109300F84401F5C77901222518F582E43519F5DD
:1010A3008322E72719471947194722E626184618C6
:1010B30046184622C2AF75D69F02000022120D4F7A
:1010C300A0E803120D4FE4E803120D4F3CE90312AD
:1010D3000D4F5EE903120D4FEEE903120D4F7FEA48
:1010E30003120D4FCBEA03120D4FF7EA03120D4F14
:1010F30038EB03120D4FD9EC03120D4FBBED031266
:101103000D4F97EE03120D4F71EF04120D4F7EEF4B
:1011130004120D4F9AEF04120D4F02E904120D4F02
:1011230040E904120D4F05EE04120D4FECE90412D1
:101133000D4FFDE904120D4F9BEA04120D4FA6EA71
:1011430004120D4FFC7F00120D4F8CF104120D4F52
:1011530060EB04120D4F70EB04120D4F8BEB041276
:101163000D4FF3EB04120D4FFDE604120D4F81E713
:1011730004120D4FE9E704120D4F8EFE02120D4FBC
:10118300ADFE02120D4F1AFF02120D4F5FFF021246
:101193000D4FB8FF02120D4F17BF04120D4F2CBF96
:1011A30004120D4F42C004120D4F7AC004120D4FAA
:1011B30094C004120D4F21C104120D4F95C10412A6
:1011C3000D4FAFC104120D4FC6C104120D4FD9C14B
:1011D30004120D4FF1C104120D4F06C204120D4F3C
:1011E30027C204120D4F78C204120D4FADC2041270
:1011F3000D4FBBC204120D4F34C304120D4F09C46B
:1012030004120D4FDBC504120D4F94F004120D4F61
:1012130008A804120D4F75A804120D4F2DA904122E
:101223000D4FA3A904120D4F97AA04120D4F20AC22
:1012330004120D4F89AC04120D4FD9AC04120D4F9B
:10124300E2AC04120D4FF1AC04120D4F07AD0412C2
:101253000D4F1AAD04120D4F23AD04120D4FC8FAF2
:1012630003120D4FF4FA03120D4F8BFD03120D4FB2
:10127300CBFD03120D4F07FE03120D4F1BFE03128E
:101283000D4F34FE03120D4F25FF03120D4FD7FFF1
:1012930003120D4FEBFF03120D4FCBE104120D4F61
:1012A300EFE104120D4F08E204120D4F46E204125F
:1012B3000D4F76E204120D4FA3E204120D4F09E322
:1012C30004120D4F0CE304120D4F16E304120D4FDD
:1012D30023E304120D4FE9D504120D4F09D604126E
:1012E3000D4F48D604120D4F66D604120D4F81D60A
:1012F30004120D4FE7D604120D4FF3D604120D4F0F
:1013030050D704120D4F5FD704120D4F83D7041229
:101313000D4F44D804120D4F51D804120D4F62D80B
:1013230004120D4FC3EF04120D4FDBEF04120D4FE8
:1013330007F004120D4F12AE04120D4F6CAF0412DE
:101343000D4F7AAF04120D4F8DAF04120D4FA2AFA4
:1013530004120D4FB7AF04120D4FCAAF04120D4F55
:1013630046B004120D4FABB004120D4F41B104123D
:101373000D4F1AB204120D4F2AB204120D4F39B297
:1013830004120D4FC7EA04120D4FEBEA04120D4F7E
:1013930013EB04120D4F3BEB04120D4F95DD0412BA
:1013A3000D4FBCDD04120D4FDADD04120D4F49DE83
:1013B30004120D4F16D304120D4F2FD304120D4FE9
:1013C3003BD304120D4F4FD304120D4F6DD30412B0
:1013D3000D4F77D304120D4F81D304120D4F94D3C5
:1013E30004120D4F1AD404120D4F8FD404120D4F53
:1013F300BED404120D4F0CD504120D4F5BD504124D
:101403000D4F76D504120D4F80D504120D4F91D593
:1014130004120D4FD4D504120D4F26EF04120D4FB5
:101423008B9E04120D4FB79E04120D4FD49E0412CF
:101433000D4FE79E04120D4F029F04120D4F5C9F48
:1014430004120D4F8A9F04120D4F9AA304120D4FDD
:10145300F8A404120D4F2AA504120D4F8DA50412F2
:101463000D4FF9A604120D4F21A704120D4F36A7F5
:1014730004120D4F46A704120D4F86A704120D4FF9
:10148300C8A704120D4FD8A704120D4FCDE50412BF
:101493000D4FE7E504120D4F0FE604120D4F28E63A
:1014A30004120D4F4CE604120D4F6AE604120D4F61
:1014B30081E604120D4FAFE604120D4FCAE6041283
:1014C3000D4F50F004120D4F40C604120D4F50C67D
:1014D30004120D4F55C704120D4F87C704120D4F49
:1014E300B7C704120D4FDAC704120D4FF1C7041228
:1014F3000D4F2BC804120D4F90C804120D4FD2C8C4
:1015030004120D4F19C904120D4F46C904120D4F91
:1015130071C904120D4FFDEB04120D4F0AEC0412B6
:101523000D4F0EEC04120D4F15EC04120D4F33EC5E
:1015330004120D4F4CEC04120D4F5AEC04120D4FD4
:1015430068EC04120D4F76EC04120D4F06ED0412F5
:101553000D4F7BED04120D4FEADF04120D4FFCDF3C
:1015630004120D4F10E104120D4F9DE104120D4FB3
:10157300C9C904120D4FD2C904120D4FDBC904129D
:101583000D4FF3C904120D4F1ACA04120D4F70CA3E
:1015930004120D4F83CA04120D4F96CA04120D4F45
:1015A300B9CA04120D4FEACA04120D4F9FCB04129D
:1015B3000D4F00CC04120D4F2DE304120D4F63E3C6
:1015C30004120D4F7FE304120D4FC1E304120D4FBC
:1015D300D1E304120D4F6BE404120D4F75E40412B2
:1015E3000D4FF49404120D4FFE9404120D4F3895D1
:1015F30004120D4FA19504120D4FC09504120D4F07
:10160300629604120D4FEA9804120D4FF3980412D8
:101613000D4F449904120D4F6D9904120D4F7A9991
:1016230004120D4FEB9904120D4F799A04120D4FCA
:10163300C79A04120D4FFD9A04120D4F5E9B0412BC
:101643000D4F879B04120D4FFE9B04120D4F5A9CA6
:1016530004120D4F979C04120D4FCE9C04120D4F94
:10166300E09C04120D4FF29C04120D4F119D0412C5
:101673000D4F1A9D04120D4FD59D04120D4F219E3F
:1016830004120D4F5F9E04120D4F8DE404120D4F93
:10169300B2FD01120D4FE8FD01120D4F30FE011294
:1016A3000D4F89FF01120D4FA86A00120D4FD96B20
:1016B30000120D4F156C00120D4FCF6D00120D4F20
:1016C300F96D00120D4F727000120D4FB2700012BF
:1016D3000D4F467200120D4FE57200120D4F3D7310
:1016E30000120D4FD07300120D4F0A7400120D4FEC
:1016F3004C7400120D4FBF7500120D4F3F7700124F
:101703000D4F7C7900120D4FAA7900120D4FD67937
:1017130000120D4FDF7900120D4F357A00120D4F75
:10172300C57A00120D4F037E00120D4F857E001205
:101733000D4F76F104120D4F6EEE04120D4F12BBD6
:1017430004120D4F28BB04120D4FCCBB04120D4FD6
:101753000BBC04120D4F28BC04120D4F59BC0412CC
:101763000D4FA6BC04120D4FDABC04120D4F15BD6C
:1017730004120D4F0ABF04120D4F02E804120D4F5D
:1017830061E804120D4F9FE804120D4FE0E80412C4
:101793000D4F2ADB04120D4F33DB04120D4F3CDBDC
:1017A30004120D4F45DB04120D4F5DDB04120D4F88
:1017B3009DDB04120D4FD0DB04120D4FDDDB041251
:1017C3000D4FEADB04120D4F37DC04120D4F89DC99
:1017D30004120D4F9ADC04120D4FCDDC04120D4F91
:1017E30083EC04120D4F008002120D4F0C80021285
:1017F3000D4F6E8002120D4FAA8002120D4F888189
:1018030002120D4F028202120D4F7D8202120D4F02
:10181300318402120D4F288602120D4F33870212B4
:101823000D4FC68702120D4F1F8902120D4F208ADA
:1018330002120D4F658B02120D4FF28F02120D4FE4
:10184300DB9002120D4F619102120D4F869102122D
:101853000D4FAB9102120D4F469202120D4F64923F
:1018630002120D4F829202120D4FF39202120D4F8C
:10187300129302120D4F3F9302120D4F4094021226
:101883000D4F379502120D4FBC9602120D4F629702
:1018930002120D4FA99702120D4F279802120D4FF6
:1018A3008C9802120D4FE99802120D4F889902127B
:1018B3000D4FF59902120D4F309A02120D4F999A5E
:1018C30002120D4FFC9B02120D4F849D02120D4F0D
:1018D300369E02120D4F4B9E02120D4F9C9E02121A
:1018E3000D4F099F02120D4F399F02120D4FA09FFA
:1018F30002120D4F59A002120D4F4EA202120D4FAC
:10190300D4A402120D4FF4A502120D4F03AA021222
:101913000D4FD6AA02120D4FF3AB02120D4F9CAD21
:1019230002120D4FE27E00120D4F03F802120D4F0B
:1019330084F802120D4FF6FB02120D4FEAFC02125D
:101943000D4F67FD02120D4FA0FD02120D4FC5FD95
:1019530002120D4F97BB03120D4FC6BB03120D4F5F
:101963003EBC03120D4F4DBD03120D4FA9BD031213
:101973000D4F20BF03120D4F3CBF03120D4F8EBFFF
:1019830003120D4FCCBF03120D4FDFBF03120D4FD8
:1019930037C003120D4FC6C003120D4F35C10312DA
:1019A3000D4F6CC103120D4FA4C103120D4FA0C301
:1019B30003120D4F7FC403120D4FCDC503120D4FFC
:1019C3000FC603120D4FF2C603120D4F7EC703124B
:1019D3000D4FB7C703120D4FD6C703120D4F21C8C2
:1019E30003120D4F41C803120D4FDAC803120D4FF6
:1019F30069C903120D4FC4C903120D4F04CA031260
:101A03000D4F81CC03120D4F9CCD03120D4FE2CD30
:101A130003120D4FD7CE03120D4FFFCE03120D4FFE
:101A230002CF03120D4F0CCF03120D4F28CF031219
:101A33000D4FB0CF03120D4FE9CF03120D4F15D049
:101A430003120D4F3CD003120D4F60D003120D4F04
:101A5300FBD003120D4F0ED103120D4F3DD10312D4
:101A63000D4F86ED04120D4F92ED04120D4FD0ED84
:101A730004120D4FF0FF01120D4F1BE701120D4F22
:101A83003EE701120D4F98E801120D4FE1E80112F4
:101A93000D4F3FE901120D4FA5E901120D4FA8E9C2
:101AA30001120D4FF9E901120D4F73EA01120D4FA7
:101AB300F7EA01120D4FFAEA01120D4F82EB011200
:101AC3000D4FC5EB01120D4F13F001120D4FC4F171
:101AD30001120D4F03F201120D4F87F501120D4F45
:101AE300B5F601120D4F40F801120D4FC6F8011261
:101AF3000D4FBEF901120D4F31FC01120D4F5CD198
:101B030003120D4FFCD103120D4F68D203120D4F78
:101B130083D203120D4F0DD303120D4F66D303125D
:101B23000D4FB1D303120D4F18D403120D4F99D596
:101B330003120D4FB1D603120D4F34D703120D4FBD
:101B43008AE203120D4FE0D903120D4F7FDA03121D
:101B53000D4F6DDB03120D4F4BDD03120D4FECDE0A
:101B630003120D4F7FDF03120D4F8BE003120D4F56
:101B7300D2DC02120D4F35DD02120D4F7DDD021254
:101B83000D4FBBDD02120D4F16DE02120D4F73DE39
:101B930002120D4FAEDE02120D4F30DF02120D4F57
:101BA3008ADF02120D4FFEE002120D4F88E102128E
:101BB3000D4FDBE102120D4FF5E102120D4F0FE263
:101BC30002120D4F2DE803120D4FEFE402120D4FD9
:101BD3000EE502120D4FF9E502120D4F33E7021223
:101BE3000D4FB2E702120D4FE9E702120D4F58E80D
:101BF30002120D4F19E902120D4FF2EA02120D4FB4
:101C0300F3EB02120D4F64ED02120D4F5AEF021265
:101C13000D4FD5F102120D4FAFF302120D4F70F4B9
:101C230002120D4FE8F402120D4FFFF402120D4F92
:101C3300F9F502120D4FF1F602120D4F60F7021281
:101C43000D4F24D004120D4F7BD104120D4F3AD205
:101C530004120D4FA2D204120D4F23CD04120D4FC7
:101C63003ECD04120D4F82CD04120D4FA8CD0412A8
:101C73000D4FCFCD04120D4FE7CD04120D4F89CE7A
:101C830004120D4F9ECE04120D4FC0CF04120D4F00
:101C9300C9CF04120D4FD2CF04120D4FDBCF041264
:101CA3000D4F6AB204120D4F6CB604120D4F71B68C
:101CB30004120D4F73B604120D4FB7D904120D4F12
:101CC3000AF004120D4F03F104120D4FC7EE041274
:101CD3000D4FD7EE04120D4FDAB604120D4FCCF0B0
:101CE30004120D4F2FF104120D4F58F104120D4F32
:101CF300008003120D4F338003120D4F9A8003129D
:101D03000D4F268103120D4FCB8103120D4F13820A
:101D130003120D4F388203120D4F518203120D4FE0
:101D2300778203120D4F998203120D4FD78203124C
:101D33000D4F268303120D4F4F8303120D4FAE83B6
:101D430003120D4F878403120D4F3D8503120D4F70
:101D53009B8503120D4F628603120D4FB986031242
:101D63000D4F248703120D4F628703120D4FB8875F
:101D730003120D4F308803120D4F878803120D4F46
:101D83008A8803120D4F0B8903120D4FAA89031280
:101D93000D4F268A03120D4F488A03120D4FAB8B4A
:101DA30003120D4FB88B03120D4FBC8C03120D4F52
:101DB300C98C03120D4FD28C03120D4FCD8E03121B
:101DC3000D4FE78F03120D4F5B9003120D4FC89019
:101DD30003120D4FF09003120D4F829103120D4F1A
:101DE300659303120D4F3C9703120D4F5097031247
:101DF3000D4F609703120D4F6A9703120D4F7397A0
:101E030003120D4F7C9703120D4F869703120D4F4C
:101E1300B59703120D4FE89703120D4FF397031273
:101E23000D4F179803120D4F3B9803120D4F9898BF
:101E330003120D4FDE9803120D4FFA9803120D4F44
:101E43006D9903120D4FA49903120D4FE3990312D9
:101E53000D4F309A03120D4FB69A03120D4F929CF9
:101E630003120D4F1C9D03120D4F019E03120D4FC4
:101E730076A003120D4FC9A003120D4FF1A0031258
:101E83000D4F1BA203120D4F48A203120D4F9AA22E
:101E930003120D4F4FA303120D4FFFA303120D4F58
:101EA30034A403120D4FCAA403120D4F4EA50312FF
:101EB3000D4FF68C01120D4F288D01120D4F588DC9
:101EC30001120D4F2C8F01120D4F0D9001120D4F6A
:101ED300659001120D4FA89101120D4FF49101125B
:101EE3000D4F289501120D4F3E9801120D4F889901
:101EF30001120D4F1E9A01120D4F2A9A01120D4F16
:101F03006A9A01120D4FF49B01120D4FE89C0112C6
:101F13000D4F129D01120D4F799D01120D4FD29D50
:101F230001120D4F499E01120D4F90A001120D4F4A
:101F330027A201120D4FFBA201120D4F3AA4011269
:101F43000D4F7FA601120D4F50A901120D4F5FA92E
:101F530001120D4FE3A901120D4F8AAA01120D4F71
:101F6300CDAA01120D4F33AB01120D4F4FAB01122E
:101F73000D4F81AB01120D4FC0AB01120D4FA5AC3C
:101F830001120D4F54AD01120D4FD8AF01120D4F79
:101F93001AB101120D4FF9B101120D4F79B20112AD
:101FA3000D4F9BB601120D4FD9B601120D4F34B729
:101FB30001120D4F67B701120D4FE3B701120D4F19
:101FC300FFB701120D4F9AB801120D4FE8B8011275
:101FD3000D4FBBB901120D4F80BA01120D4F1EBB3D
:101FE30001120D4F27BE01120D4F3BBF01120D4FC2
:101FF300D8C201120D4FE0C301120D4FE3C301120A
:102003000D4F12C401120D4F11C601120D4FEAC636
:1020130001120D4F31C701120D4F7EC801120D4F32
:10202300B8C801120D4F65C901120D4F99C90112AC
:102033000D4F4BCA01120D4F5ACC01120D4FC5CC97
:1020430001120D4F0DCD01120D4FAACD01120D4FEF
:10205300D9CE01120D4FA0CF01120D4F96D101120F
:102063000D4FAAD101120D4FBED101120D4FF4D164
:1020730001120D4F24D201120D4FB2D301120D4F95
:1020830093D401120D4F03D501120D4FB3D5011295
:102093000D4FE3D501120D4FADD601120D4F6AD787
:1020A30001120D4F73D901120D4FB2D901120D4F09
:1020B3001FDA01120D4F64DB01120D4F17DC011201
:1020C3000D4F4BDC01120D4F63DC01120D4F06DD8A
:1020D30001120D4FF4DF01120D4FBFE101120D4F3D
:1020E300E3E101120D4F01E201120D4FD5E201129E
:1020F3000D4FFDE601120D4FF22C00120D4F242D52
:1021030000120D4F233100120D4F6F3100120D4F8E
:10211300B53100120D4F5D3200120D4FC732001260
:102123000D4F0F3300120D4F6D3400120D4F7235EA
:1021330000120D4F643900120D4FF53900120D4F87
:102143001D3B00120D4F7A3B00120D4F493D00120B
:102153000D4FC03D00120D4FCA3D00120D4FD73D2C
:1021630000120D4F023E00120D4FE93E00120D4FBB
:10217300A23F00120D4F254000120D4F3E400012AA
:102183000D4F674000120D4F944000120D4FEE4269
:1021930000120D4FB24300120D4FF74300120D4FC3
:1021A3006E4400120D4F1C4500120D4F4E45001298
:1021B3000D4F944500120D4FD04500120D4F21468F
:1021C30000120D4F754600120D4F004700120D4FC0
:1021D3004B4700120D4FB04700120D4F2948001214
:1021E3000D4FE84900120D4FF74A00120D4F164CE0
:1021F30000120D4F724F00120D4FA15200120D4FDE
:102203005A5300120D4FA25300120D4F41550012A5
:102213000D4F555500120D4F5F5500120D4F695567
:1022230000120D4F755500120D4F945500120D4FAE
:102233004A5600120D4FA35600120D4FAD56001211
:102243000D4FB75600120D4F275700120D4F6E5703
:1022530000120D4F735800120D4FC25800120D4F4C
:10226300655900120D4F3E5A00120D4F5E5B00126E
:102273000D4FA05C00120D4F9A5D00120D4FB25D21
:1022830000120D4FE65D00120D4F045E00120D4F5C
:10229300635E00120D4F8A5E00120D4F255F001220
:1022A3000D4FE45F00120D4F546000120D4FCC60D0
:1022B30000120D4FD66100120D4FA36200120D4F95
:1022C3009D6300120D4FE26300120D4F3D64001237
:1022D3000D4FA46400120D4FD26400120D4FF6642B
:1022E30000120D4F2B6500120D4F586500120D4F54
:1022F3009E6500120D4FC26500120D4F2B66001232
:102303000D4F136700120D4F5E6700120D4F876765
:1023130000120D4F1F6800120D4FA26800120D4FDF
:10232300CE6800120D4FC36900120D4F71EF0312F7
:102333000D4FA9EF03120D4FCAEF03120D4F0EF00D
:1023430003120D4F72F003120D4F7CF003120D4F69
:102353008CF003120D4FC3F003120D4FBBF40312A5
:102363000D4FC9F603120D4FB6F803120D4F4DF979
:1023730003120D4FEFF903120D4FBAB002120D4FB6
:102383002AB102120D4F8AB102120D4FD5B10212BA
:102393000D4FF0B102120D4F17B202120D4F34B2AE
:1023A30002120D4F40B202120D4FEBB302120D4F4A
:1023B30004B402120D4F8DB402120D4FA0B40212D9
:1023C3000D4FBFB402120D4F5AB502120D4FCAB6CC
:1023D30002120D4F71B802120D4F00B902120D4FC8
:1023E30003B902120D4F73B902120D4F91B90212C4
:1023F3000D4F36BA02120D4F72BA02120D4F75BA53
:1024030002120D4F3BBB02120D4F9EBB02120D4F2A
:10241300D7BB02120D4F4CBC02120D4F6ABC021205
:102423000D4FB8BC02120D4F8DBD02120D4FDBBD17
:1024330002120D4F23BE02120D4FB0BE02120D4FFA
:10244300E5BE02120D4F1ABF02120D4F28BF021232
:102453000D4F87BF02120D4FFFBF02120D4F40C039
:1024630002120D4F90C002120D4FBBC002120D4F4E
:10247300D5C002120D4FEFC002120D4FCAC1021296
:102483000D4FD4C102120D4F0FC202120D4F1FC2C6
:1024930002120D4F28C202120D4F80C202120D4FBD
:1024A30094C202120D4FCAC302120D4FDFC30212B0
:1024B3000D4F6DC402120D4FD5C402120D4F88C5C6
:1024C30002120D4F93C502120D4FE0C602120D4FBB
:1024D300FCC602120D4F48C702120D4FB7C70212B6
:1024E3000D4FF0C702120D4F0AC802120D4F4CC810
:1024F30002120D4F0ECB02120D4FC4CB02120D4F21
:1025030054CC02120D4F9CCE02120D4FB4CE0212C8
:102513000D4FB7CE02120D4FC3CE02120D4FD7CEC1
:1025230002120D4FDFCE02120D4F12CF02120D4FCA
:1025330005D002120D4F90D002120D4F23D102127B
:102543000D4F9CD102120D4F60D202120D4F82D259
:1025530002120D4F1BD302120D4F78D302120D4FEF
:102563007BD302120D4FF5D302120D4F41D5021248
:102573000D4F4CD602120D4FD7D602120D4FDCD79A
:1025830002120D4F9CD802120D4FCDD802120D4FDF
:10259300F3D802120D4FFCD802120D4F2AD90212A2
:1025A3000D4FC2D902120D4F77DA02120D4FE8DA3E
:1025B30002120D4F8FDB02120D4F16DC02120D4F6C
:1025C30055DC02120D4F98DC02120D4F57E2031235
:1025D3000D4FDBE103120D4FAE9404120D4F7A94AD
:1025E30004120D4F279404120D4FB59204120D4F90
:1025F300079204120D4FA29104120D4F8E910412F3
:102603000D4FD79004120D4FC8E703120D4F77E714
:1026130003120D4FD18F04120D4FF58E04120D4F7F
:10262300508C04120D4F658B04120D4F148B041242
:102633000D4F83BB03120D4F79BB03120D4F0CBB20
:1026430003120D4F3DB903120D4FFBB803120D4F8B
:102653008BB803120D4FC8B703120D4F9AB4031270
:102663000D4F73B203120D4F43B203120D4FEAB174
:1026730003120D4F7DB103120D4F3CB103120D4FE9
:1026830075B003120D4F0FB003120D4FAEAF03120F
:102693000D4F4EAF03120D4F25AE03120D4FB9ADC3
:1026A30003120D4F9EE603120D4F0EE603120D4F5C
:1026B300C2E503120D4F3DE503120D4FF8E403127B
:1026C3000D4F35AD03120D4F30AD03120D4F24AD39
:1026D30003120D4F65A903120D4F3FA903120D4FAE
:1026E300DDA803120D4F97A803120D4F7EA8031206
:1026F3000D4F73A803120D4FDCE403120D4F42A8D4
:1027030003120D4F69E202120D4F5EA603120D4F25
:10271300D1A503120D4FAAA503120D4FC98A0412A6
:102723000D4F748A04120D4F478A04120D4F148AF9
:1027330004120D4FEC8904120D4F8D8904120D4FB5
:102743006D8904120D4F388904120D4FFC85041254
:102753000D4FD18304120D4FC18104120D4FB8E206
:1027630003120D4F3E8104120D4FF28004120D4FE0
:10277300A68004120D4F008004120D4F3CD90300B4
:10278300000080FBE4738F0001009B1587000100AC
:10279300991535000400631525000200671526000E
:1027A30002006915270002006B152800010075154A
:1027B30029000100761584000400FC128600010044
:1027C3001E152A00010077152B00010078152C0037
:1027D30001007C152D00080008132E0001007D1553
:1027E3002F0001007E15300001007F15310001002C
:1027F300801532000100101333000100111334005F
:102803000100811536000100121338000100821502
:10281300390001007B158300020097156300010056
:102823001E13640001007915650001007A156D001F
:1028330001001F13710008000013660001009615C4
:10284300430001008715440002008815450001007C
:102853008A15460002008B1547000800161348002E
:1028630001008D154B0001008E15040001009A151F
:10287300A10001009E15370001009D15880001008D
:102883009C153C00010013133D0001008315490012
:1028930002008F156700010020134D0002009115FF
:1028A3004E00010093154F00020094153E000100F5
:1028B30086155100010014135200010084155300C2
:1028C30001008515540001001513000000000000ED
:1028D300000136360101000102010001030100017C
:1028E3000401060605020000070100340801000F79
:1028F300090401010D0100FF0E080000170200008A
:10290300190100FF1A0100011B0100FE1C01000850
:102913001D0200001F01000120010001210200002F
:102923002301000F240200002601000127010008F3
:10293300280200FF2A0100072B0102402C0100009E
:102943002D0100012E0100012F0100FF30010B1D9D
:10295300310800003A0100083B01000F3C0100016F
:102963003D0100FF3E040000420400004604000055
:102973004A0400004E040000520400005604000004
:102983005A0400000103710301030103010301035E
:1029930001032203020301031003000300030003E6
:1029A30000030003000300034203000324030603A0
:1029B3000003000304031203250323032503230356
:1029C30004030403000300030003440300030003A0
:1029D300230300036503210035038103000305037B
:1029E3000003000300030003250323030101710116
:1029F3000101010111010101310101010101800105
:102A0300100161013B001400630173017201620153
:102A130043010001130106013D01350004011201C8
:102A2300000100010001000104010401330133012D
:102A33003C0144013201360000010001650100013F
:102A430035008101000105018201830100010300BA
:102A53007100300160001100700031022003500446
:102A63008000100061000000140063007300720016
:102A73006200430000001300060000000000040091
:102A830012000000000000000000040004003700F2
:102A930037003C0244000000000000000000650015
:102AA30000003500810000000500000083000000E5
:102AB300030271023001600211027002010202027C
:102AC30002028002100261023A00410063027302B3
:102AD3007202620243020002130238000002000283
:102AE30004021202000200020002000204020402B5
:102AF300370037003C0244020002390000020002A2
:102B0300650200023502810200020502820283028D
:102B1300000236000100060000000F000000000064
:102B2300000000000000000003FFFF00000403FF9B
:102B3300FF0000FFFF0FF4010005C40403200001A0
:102B430000000B000000000000000003010F000064
:102B53000000000000000000000000000000000072
:102B63000000000000000000000000000000000062
:102B7300B818F418BE18F817C418FA18C4180619A8
:102B8300CA18F817C418FA18000000000000000063
:102B9300000000000000000000000000D018F8173B
:102BA300D6180C19DC18F81700000000000000000C
:102BB30000000000E2181E19E818F817E2181E19A1
:102BC300E818F817D6180C19EE18F8170000281B88
:102BD3000100281B02009E1A0280981A0300A41AFF
:102BE3000400AA1A0480B01A0500B61A0600C21A15
:102BF3003100D41A3300DA1A3400E01AFFFF000060
:102C030007ECFDFDFDECDCDCCCBCACAC9C9C8C7C13
:102C13007C6C6C5C5C5C4C4C3C3C2C2C1C1C03EABC
:102C2300F5E5D5D5C5B5A5959585857575656555C1
:102C3300554545353525251515050A7021023A21D7
:102C43000546210740210C22210D2E21FF00000003
:102C5300160F00000B150B020002220F3300000EAB
:102C63000FD0D1D2D3D4D5D6D7D8D9DADBDCDDDEB9
:102C7300DF5A6967426565416C6C69616E636530F3
:102C830039303016181920231A1C1E3000034D4CFE
:102C93004651181A2505020001191618161618238D
:102CA3000300303017181921301B1D1F30003C4022
:102CB300423A3F3F392F47300C0E020B040B0A07F1
:102CC30008000F02040201010101090200BE040A07
:102CD300E80300000100E8030E0003001E030410D4
:102CE300FF030A0C04090828020C0508151E0474C6
:102CF300F71207F5E99013F5F09013AAE4F0121513
:102D03005890140DE4F0A3F09013F6F0A3F0122200
:102D1300C012155E90132EE4F0A3F0121C8A024633
:102D2300D074F01207F574D3120E32851882851908
:102D330083126304548060689013F5E0F91216243B
:102D43008A088B09AE08AF09EE4F604C7C00800106
:102D53000CEC75F003A4F8A9F0743D28F582742CEB
:102D630039F583E493F46029E493F88E828F83E04A
:102D73006870DDEC75F003A4F8743E28F582742CBA
:102D830039F583E493C0E0740193F583D08212276D
:102D930087EEFAEFFB12161212689764800231096C
:102DA300851882851983A3E0542060211221D68AD5
:102DB300088B09AE08AF09EE4F600A12212EEEFA16
:102DC300EFFB1216121268976420023109851882EC
:102DD300851983E0A2E050259013AFE0640F7011D2
:102DE3007900122104E96009901563121060122121
:102DF3001C851882851983E064010230E854207031
:102E0300030230ED7A207B009013F5E0F912176886
:102E1300EA4B4C4D701A901409121078E8494A4B4A
:102E2300700E750801750900750A00750B00806A3C
:102E3300750C00750D00750E00750F001217748A5E
:102E4300088B098C0A8D0B901409121078E8494AF3
:102E53004B60319014097808120CE9400E750CFF91
:102E6300750DFF750EFF750F7F801985080C850999
:102E73000D8C0E8D0F901409780C120E1A740178B4
:102E83000C120DE9850C08850D09850E0A850F0BBB
:102E9300E50812330870030230287C0079047A00B5
:102EA3007B001221AC8A0C8B0DAE0CAF0D022F6987
:102EB300740212109B74FFF0740312109B74FFF0E2
:102EC300740412109B74FF1266247407120E1212FC
:102ED3005D81125E591221F4E96401706B124EFA9E
:102EE3004480F8A3E0F9742812109BE8F0A3E912D8
:102EF3006553E0C0E0742A12109BD0E012480C54D2
:102F0300086016742812109BA3E0440112311CC000
:102F1300E0742C12109BD0E0F01261B260121246E2
:102F2300AF12626AE0F8741612109BE8F0A3E4F0A3
:102F3300908CC7120BD07406120E12740B120E0A69
:102F4300121DE07404120D9A8E828F83A3A3A3A390
:102F5300A3A3A3A3A3740612311CF912218E740533
:102F630012109B12627EEE4F70030230287C0079B0
:102F730004EEFAEFFB1221AC740512109BEAF0A3E6
:102F8300EB125528E0F50CA3E0F50DE4F50EF50F73
:102F93007808790C120FBA4023EE2404F8E43FF9C1
:102FA30085080C85090D88828983C3E0950CF0A3FD
:102FB300E0950D1269A0E84970A4800C8E828F837E
:102FC300A3A3A3A3E4F0A3F08E828F83A3A3A3A35D
:102FD300A3A3A3A3A3A3E064018E828F83A3A3A3CC
:102FE300A3A3A37023E054046003022EB38E828F45
:102FF30083A3A3A3A3A3A3A3A3A37406F07AB712E3
:10300300324B122116022F61A3A3A3A3E060030294
:103013002EB38E828F83A3A3A3A3A3A3A3A3A3747B
:1030230001F0022F6112217C7C0079017A007B0080
:103033001221AC8B0DEA450D600C7A207B009013B6
:10304300F5E0F912164E7C0079047A007B00122118
:10305300ACEA4B7013804D8A828B83A3A3A3A31284
:103063006352EE98EF99400B8A828B83A3A3A3A3A9
:1030730012627E7C0079041221AC8B0BA90BEA4906
:1030830070D5C3E5089EE5099F500DC3EE9508FE74
:10309300EF9509FFEE4F70167A207B009013F5E051
:1030A300F912164E901409123115A3F0802EEE2E4C
:1030B300FEEF33FF8E088F09E4F50AF50B7808124B
:1030C3000D7F7A207B009013F5E0F91217567404F4
:1030D300120D9A12177490140912108485188285A0
:1030E3001983E06420FAA3E0801CA3E05404601970
:1030F300125A211226E679019013A8125E59121D65
:10310300F21268976404FB80047A007B00742D023A
:103113006187E4F0A3F0A3F022124811A3A3E022F5
:10312300C082C08374EA120E327C167D007900AA35
:1031330018AB191215F4740812109B7402F0901353
:103143009E125C81123163740912109B125C9A7493
:103153001312109BE412595F121C7E7416024AD597
:10316300E8F0A3E9F09013A81261D02274F71207D4
:10317300F574DA120E32EAFEEBFFEE4F602DAC1857
:10318300AD191221F4740612109BE0601E7417121D
:10319300109BE0FD740112109BE0FCEEFAEFFB794B
:1031A300001220DAE9600479A4800279007426020F
:1031B30046CD74F71207F5EAFEEBFF8E828F83A3E9
:1031C300A3A3A3A3A3E054406017126194125E5912
:1031D30012228AE960067AFF7BFF801512619480D0
:1031E3000390139E125E5974FE6A700374FF6B6042
:1031F3004712619412630412228AE98E828F8360DC
:103203000E12692F124AE238F583E4F0A380031209
:103213006954F07C0A7D218E828F83125E59121CC1
:1032230084E9F5087015EE4F60097901EEFAEFFBBA
:10323300122188A9080246D07508CDAA0812324B7C
:10324300122116E960E080EB8E828F8312693324AA
:103253000CF582E438F583E0F92274F61207F5E9F8
:10326300FEEAFF7A0F7B0012160CEA4B601F8A827C
:103273008B83740CF0EEA3A3F0EF8A828B8312444A
:10328300659013F5E0F912161879008034EEF912FF
:1032930021B28A088B09A808A909E8496021888214
:1032A3008983A3A3A3A3A3A3A3A3A3740612636500
:1032B300A3A3A3A3A3E0F9121E82EEF912218E7930
:1032C3001002572274F41207F58A088B098C0A8DB1
:1032D3000B9013AFE0640F70281233076023901331
:1032E300AAE064086005E0640470167808120D7F94
:1032F3007A017B009013F5E0F91217567404120D4E
:103303009A02356DEA4509450A450B2274F4120702
:10331300F574FC120E32EAFEEBFF8E828F83A3A3B9
:10332300E0F91221B28A088B09EA450970030234D5
:103333004E8E828F83A3A882A983E0C0E0EA12594C
:1033430011D0E01242D064F160288E828F83A3E013
:1033530064CD601E8E828F83A3E0641A60148E8214
:103363008F83A3E064E9600A8E828F83A3E064E124
:1033730070307900122188E96028E5082404F50AF1
:10338300E43509F50B85088285098312345F1242FF
:10339300B6125E5912156A850A82850B831263047D
:1033A30080788E828F83A3E0C0E0740212109BD0DA
:1033B300E0124AE812698EEE240B1249D4C0E0747D
:1033C3000312109BD0E0F0E5081266161239D9E01B
:1033D300AA18AB197005121DDA8003122272740247
:1033E30012109BE064E97032850882850983123BE1
:1033F30072750A01780A120D8B750AE9780A120DA3
:103403008B12429A1246DDA3A3A3A3A31246D5129D
:103413005E5912222A7402120D9A85088285098345
:10342300A3A3A3A3A3A3A3A3A3E064027012850889
:1034330082850983A3A3A3A3A3A3A3A3A37406F0D1
:103443008E828F83A3A3E0F912218E12217C901523
:103453006912393D12211C740402356AA3A3A3A384
:10346300A3A3125D6E8E828F832274F41207F5EA92
:10347300FEEBFF7508008E828F83A3A3A3A3A3E0B3
:10348300603B750808125E4C79FF121F5A8B0BEADA
:10349300450B601075082C8E828F83A3A3A3A3A36F
:1034A300E0D2E0F08E828F83A3A3A3A3A3E054030F
:1034B30064016003023564430811023564EE241885
:1034C3001249D46036EE241A1249D46003F4701200
:1034D30012630A7003A3E06960030235647508226E
:1034E300807FEE241B125D64EE241A1249D4FAEE97
:1034F30024191249D4F9121E708066125E4C1222EE
:103503008AE96402700375080112630A7003A3E079
:10351300697006E508D2E1F508E50860158E828F2B
:1035230083A3A3E07006E508D2E58004E508D2E6AC
:10353300F508125E4C12228AE964017006E508D28E
:10354300E0F5088E828F83A3A3E06015EE241D129D
:103553005214F9122278E964016006E508C2E0F525
:1035630008A90880057409120D9A7F04020B0774D9
:10357300F01207F574D7120E32EAFEEBFF8E828F3C
:1035830083A3A3A3A3E060119015671261BB600935
:1035930090156712393D12211C7403120E128E828C
:1035A3008F83A3A3A3125B33125E571221F4E97036
:1035B300030237087801740512109BE0C39402409C
:1035C300027800740712109BE0C394024002780053
:1035D300740C12109BE064F87003A3E0F470030210
:1035E3003708740C12109BE064F97003A3E0F470C5
:1035F30003023708740C12109BE064FA7003A3E013
:10360300F47003023708740C12109BE064FB700320
:10361300A3E0F47003023708740612109BE0F990DC
:103623001398E0696003023708E8A2E04003023719
:1036330008742712109BE06003023708EE2413126C
:1036430061C6742212109B125B3D241C1261C67466
:103653001012109B125C9A740912109BE0601D7487
:103663001A12109BE0FD740412109BE0FC8E828FF3
:1036730083125E5779011220DAE9703D7403120E4A
:103683000A122128E9F50C740912109BE0702E90A0
:103693001392E060287422550C6422602074425512
:1036A3000C64427014742012109B123949600E741A
:1036B3002012109B12393660047ACF804AE9A2E6C1
:1036C300504D742012109B12521A24FD600F146087
:1036D3000C24FD600824FD600424FE70287420126D
:1036E300109B12392F700E742012109B12586EA368
:1036F300E0640D601A7403120E0A1222A2E9640137
:10370300700D02392A7AD37B00121A7402392AEE19
:10371300242DF582E43FF583123B697003A3E0692E
:1037230070227508007808120D8B7808120D8BEE45
:10373300242F1249D4F912394F125E5912222A74D6
:1037430002120D9A740912109BE070030237EC12F7
:10375300394F125E591222F08A0E8B0FEA450F7011
:1037630003023883740412109BE0F88E828F83A3C4
:10377300A3E028F8A3E03400F9E8124AE239F5831C
:10378300E0F88A828B83A3A3A3E068600EE88A82B1
:103793008B83A3A3A312445E1231167904E912109A
:1037A3009B124F1BA3E02AF8A3E034008882F58321
:1037B300A3AA82AB831215FA8A088B098C0A8D0B94
:1037C300850E82850F83A3A3A3A37808120CE94077
:1037D3000302392A908CA37808120F73850E828511
:1037E3000F8312698AA3124C0E9013AAE06404603B
:1037F30008E06409600302392AE50CA2E5400302EC
:1038030038BDEE242F124EEBF0EE24301249D4C013
:10381300E0740112109BD0E0F0EE24311249D4C0C1
:10382300E0740212109BD0E0F0741412109BE06459
:1038330001702C740E12109B1242C724131249D428
:10384300687003A3E0697017740C12109B125E5921
:1038530012228AE964027007741412109BE4F0EEDA
:103863002425F582E43FF583120BD07404120E1263
:103873007407120E0A121DE07404120D9A02392AFB
:103883009013EFE0640160030237EC742012109B85
:103893001239497009E50CA2E650030237EC7410A3
:1038A30012109BE0F47003A3E0F4607BEEFCEFFDE9
:1038B3007403120E0A122134806DA2E6506974203B
:1038C30012109B125D7B7016741A12109BE0640237
:1038D30070557403120E0A790012226C8049742009
:1038E30012109B1239367014741A12109BE0640480
:1038F30070357403120E0A122260802B742012108A
:103903009B12392F700C79007403120E0A1222AE27
:103913008015742012109B12586EE0640C700874AA
:1039230003120E0A1222BA742902618712619EE001
:1039330064032212619EE0640722E0F508A3E0AA73
:1039430008FBE4FCFD2212521E640622EE242BF532
:1039530082E43F12395D1249CD22F583125D6EEE8A
:103963002274F41207F5EAFEEBFF8C088D0990131D
:1039730010E0600F12630A7003A3E0697005121E62
:103983005E80497900125E4C121E8E8A828B83E51B
:10399300824583602FA3A3A3A3A3A3E054186024A9
:1039A300E508241C1239D6120BD41239D2120BD4C7
:1039B300EE24181249D4F91239DE121EA07404122F
:1039C3000D9A800879001239DE121E6402356DE506
:1039D300082413F582E43509F583228E828F83A3AD
:1039E300A3A3A3A3A3A3A3A312395F125C78125EBC
:1039F3005D2274F71207F574F7120E32EAFEEBFF3D
:103A03009013AAE06403600DE064016008E06409B8
:103A13006003023B108E828F83A3E06003023AD3DC
:103A23007C007D007A027B00121564123B158A82AA
:103A33008B831261CC90139B125C9A7953121C6C8A
:103A43009013AAE0640960099013A8125E59122228
:103A5300EA851882851983740112595F7942121C11
:103A63006C9013AA7404F07401120E0A794A121CA2
:103A7300667401120E127AA07B1312178C90122413
:103A8300E0640B70057406F0800B79009013A812A4
:103A93005E59121DF290139B125D6A7A037B00122A
:103AA300156490139E125D6A7A047B00121564906C
:103AB3001395E0A2E35004D2F08002C2F0125955EC
:103AC3007952121C6C90156312106012211C803AFB
:103AD300FC7D007A037B10121564901224E0640BC2
:103AE3007003740AF0901314E4F0FA7B409013F51A
:103AF300E0F91217628E828F83A3E0F99013A81264
:103B03005E59121DF29013AAE4F012215E740902A9
:103B130046CDEE2402FAE43FFB22C082C083901319
:103B23002E1261BB70179013AAE024FB600514608A
:103B330007800A9013348020901336801BE8496075
:103B43000890132F123D41700C8A828B83A3E0F9F6
:103B5300121DE6800E9014241261BB600612586F8A
:103B630012278702539B1261D09013A8E068221298
:103B730061D0E8FAE9FB2274F51207F574D8120E46
:103B8300328A088B098A828B83A3A3A3A3A3A3A34B
:103B9300A3E0C3940F5003023D3C8A828B83A3A30B
:103BA300A312627E7415120E128A828B83A3A3A3BF
:103BB300A3A3A3A3A3E0F98A828B83125E501221ED
:103BC3006A741512109BE0702E850882850983A301
:103BD300A3A3A3A3A3A3A3E0C3940B401A8E828F32
:103BE30083A3A3A3A3A3A3A3A3E064027009EE2466
:103BF3000B1249D4F46003023D3C741712109BE08E
:103C0300600764026003023D3C9013AAE064026013
:103C13001AE06406601590132E1261BB7003023D17
:103C23003C123D416003023D3C803290132E1261F1
:103C3300BB702A7508007808120D8B7808120D8B5B
:103C4300EE2410F582E43FF583125B34A3A3A312A1
:103C5300345F125E5912222A7402120D9A8E828FD9
:103C630083125C81E8F0A3E91242D91261CC740299
:103C730012109B125B3D124EFBC0E0740412109BAA
:103C8300D0E0F0EE240B126357740F78081210186B
:103C9300740512109BE508F0741912109BE0C0E044
:103CA300740612109BD0E0F0741B12109BE0C0E06E
:103CB300740712109BD0E0F0741612109BE0C0E062
:103CC300740912109BD0E0F0741712109BE0C0E04F
:103CD300740812109BD0E0F0EE24101249D4C0E017
:103CE300740A12109BD0E0F0741A12109BE0C0E02B
:103CF300740B12109BD0E0F0742712109BE0C0E00D
:103D0300740C12109BD0E0F0741C12109BA982AAB1
:103D13008389088A09750A007808120D837C087D57
:103D230000741012109BAA82AB831215E87403125D
:103D33000D9AAA18AB19121DEC7428024821E0C889
:103D4300125D5A64012274F21207F574F8120E32EE
:103D53008A0A8B0B8C0C8D0D8908908C32AC18ADB4
:103D6300197408120CC8C200AC0AAD0BAA18AB191F
:103D7300121786E97002D2009013F68014AC0AADD4
:103D83000BEE240BFAE43FFB121786E9701B124972
:103D9300BA124619601EA20040E38E828F83E0654B
:103DA3000C7004A3E0650D70E58E828F83A3A3E0FE
:103DB300650870DAEEFAEFFB74080242E6C082C0CF
:103DC300839013F6025398C082C0839013F6E4F0F5
:103DD300A302403A74F71207F59013F612689D8018
:103DE3000FEA2414F582E412627B1216A2EEFAEFB4
:103DF300FBEA4B70EC9013F6E4F0A3F00246D074A8
:103E0300F21207F58A0C8B0DECFEEDFF890B8A820B
:103E13008B8312591CF0A3A882A9838A828B8312F5
:103E23003ECB124459A3E0C454F0FA88828983E05C
:103E33004A124F3F850C828B83A3A3123ECB123EC3
:103E4300DEE0333354FC123ED2E033333354F81202
:103E53003ED2A3E0A2E0E4331313FA88828983E01D
:103E63004AF0EE2403FE50010FE50C2407F508E4A5
:103E7300350DF509750A007808120D837C087D005D
:103E8300EEFAEFFB1215E87403120D9AEE2408FE06
:103E930050010FE50C240FF508E4350DF5097808FA
:103EA300120D837C037D00EEFAEFFB1215E8740319
:103EB300120D9AE50BC3940F400BE50C124ADC3547
:103EC3000D1254E7F00242E9A3E08882898322FAC3
:103ED30088828983E04A123EDEA322F0850C828B1E
:103EE30083A3A3A3A32274F21207F5EAFEEBFF8CCC
:103EF3000C8D0D8E828F83E08C828D8312551DA8CD
:103F030082A983E0540F8C828D831242CFC4125353
:103F13003E124F351253461242CDA2E2E4338C8255
:103F23008D831242CC131313541F12533E1242CCEF
:103F3300A2E7E4338C828D83A3A3A3A3A3A3F0EE10
:103F43002403FE50010F8E088F09750A00780812AA
:103F53000D837C087D00E50C2407FAE4350DFB1284
:103F630015E87403120D9AEE2408FE50010F8E0813
:103F73008F097808120D837C037D00E50C240FFA6A
:103F8300E4350DFB1215E87403120D9A8E828F83AC
:103F9300A3A3A3E0C0E01269A8D0E0F00242E97451
:103FA300F61207F5EAFEEBFF8E828F83A385820864
:103FB300858309E0F9121E0A850882850983E06476
:103FC300EB601E8E828F83A3E064E160148E828F88
:103FD30083A3E064F1600A8E828F83A3E0641A7086
:103FE300078E828F83A3E4F0901563121060122171
:103FF3001C7508017808120D8B8E828F83A3E0F560
:10400300087808120D8B79009013A8125D6A90133B
:104013009E125E5912222A7402120D9A12217C02F8
:104023005722C082C083E99014087003E4800274AD
:10403300018004EAF0A3EBF002539B74F61207F538
:10404300901408E0701B7C0079017A007B00122138
:10405300ACEA4B600C8A828B831261BB6003122132
:1040630010025722C082C08379041221A6E9F89076
:104073002CEDE493C398401079FF1221A6E9F89040
:104083002CECE493C3985004790180027900025325
:104093009B74F21207F58A0A8B0B8909C2008A8284
:1040A3008B83A3A3A3A3A3A3A3A3E0F91221B28A9F
:1040B3000C8B0DAE0CAF0D750801EE4F6003024182
:1040C3007D850A82850B83A3A3A3A3A3A3125D6AA1
:1040D300850A82850B83A3A3A3A3A3A3A31242B63A
:1040E300125E5912219A8A0C8B0DAE0CAF0DEE4F56
:1040F30070030242938E828F83A3A3A3A3E4F0A34E
:10410300F0E50A240CFAE4350BFB8A828B83E0C0CA
:10411300E012429AD0E0F0E50A240D1242C0240DC9
:10412300125C94122290EE240F1262FEE50A24110F
:104133001242C02411125C94E50A2413126349C08D
:10414300E01249C8D0E0F0D200EE2406124EE2128B
:1041530042AD1242D0540460030241EB901575E066
:10416300F50A750B007407780A120F868E828F8307
:10417300A3A3A3A3A3A31242A4F08E828F83A3A31A
:10418300A3A3A3A3E0F50AA3E0F50B7407780A122F
:104193001018E50A5407FCE509605C8E828F83A33F
:1041A300A3A3A3A3A3A3A3A3740212552212458D11
:1041B300600B901396124F68A3A3125C9AEC7003E2
:1041C30002425EEE24061269111242ADF0EC24FFA6
:1041D300F50AE434FFF50B7407780A120F868A8216
:1041E3008B831242A4F080738E828F83A3A3A3A335
:1041F300A3A3E044808082EC7005750800805C8E88
:10420300828F83A3A3A3A3A3A3E05420600C12165D
:1042130006EA547F7900245F80198E828F83A3A3DB
:10422300A3A3A3A3E05410601A121606EA540F794D
:1042330000240A5001098E828F83A3A3A3A3F0A3B2
:10424300E9800D8E828F83A3A3A3A37401F0A3E45B
:104253001242D9740412451112164EA20050348E24
:10426300828F83123461A3A3A3A3A3A3A3A3A3E075
:10427300F9EEFAEFFB1221A0E960181261B26009AE
:104283001246AF125E591216A2EEFAEFFB1216A2F5
:10429300750800A908804FEE240CF582E43FF583EE
:1042A30022E0450AF0A3E0450B22E0547FF0A3E0AF
:1042B30054FC22A3E0F9850A82850B8322F582E46C
:1042C300350BF5831261D0EE22A3A3A3A31242D42C
:1042D30022126370E0221242DD22124815A3A3A327
:1042E300227403120D9A7F06020B0774F41207F56A
:1042F30074F7120E327E001221B2EA4B70030243AE
:10430300AD8A828B83A3A3A3A3A3A3A3A3A3E064E4
:104313000660030243AD8A828B83A3A3A3A3A3A353
:10432300A3E0FF8A828B83126939E0C0E07408122C
:10433300109BD0E01246F3125C86125C9A1221C4E1
:10434300EF54086063851882851983125D6A7A00C9
:104353007B001221948B0BEA450B704C1269B4124B
:104363001C967C007D007A007B0080288E828F83E0
:1043730012521AF47003A3E0F4602D9013A81234C0
:1043830065125E59121C90E9641A601C7C007D0062
:10439300EEFAEFFB1221948A0A8B0BAE0AAF0BEEF7
:1043A3004F70C97900121C9C7E01EEF9023568C07A
:1043B30082C0838A828B83E5824583700990140DC2
:1043C30080068A828B83A3A31245C160208A828BD5
:1043D30083A3A3A3A3A3A3A3E0540860E5EC4D60C8
:1043E300101245C77003A3E06D70D780047A007B79
:1043F3000002539B74F21207F58A088B09890AECB1
:10440300FEEDFF7A147B0012169CEA4B603B8A8216
:104413008B83A3A3A3A3A3A3A3A3A3E41246E8A309
:10442300E50A12632BA3A3A3EEF0A3EF12445E12DB
:1044330046FA1244658A828B8312698EEA240F122C
:10444300444F124458A3F0A3F00242E9F582E43B3F
:10445300F583E4F022A3126971A32212633BE4F013
:10446300A322A3F01262741244522274F51207F5C8
:10447300EAFEEBFF890A8C088D09EE4F70030245B3
:104483000C7401650A701279011221A6E9F8902CC7
:10449300EEE493C398502280167404650A7014796D
:1044A300041221A6E9F8902CEDE493C398500A79FD
:1044B3001180587402650A70508E828F83A3A3A360
:1044C300A3A3A3A3A3A3E50A12552212698A8E828A
:1044D3008F83A3A3E4F0A3F090140D1261BB6018C3
:1044E30080031261CC88828983A3A31245C1888289
:1044F3008983A3A370EC800390140DEEF0A3EF1255
:10450300451112164E7900800279C1024824F07ACF
:10451300207B009013F5E0F922C082C083E9F8798B
:104523000090140D801D8A828B83A3A3A3A3A3A34E
:10453300A3A3A3E068600574FF687001098A828BF6
:1045430083A3A31245C170DE02539B74F71207F5D0
:10455300EA4B700590140D80068A828B83A3A31205
:1045630045C1601F8A828B83A3A3A3A3A3A3A3A391
:10457300A3E06970E4EC600F8A828B8312458D702F
:10458300D880047A007B000246D012695DE05404AF
:1045930022C082C08390140D80068A828B83A3A3DA
:1045A3001245C160128A828B83A3A3A3A3A3A3A3EF
:1045B300A3E06970E580047A007B0002539B125EDE
:1045C3005DEA4B228A828B8312521E6C2274F21292
:1045D30007F58A0A8B0B8C0C8D0D75080075090085
:1045E300EA450B602A90140D80068E828F83A3A365
:1045F300124619601AAC0CAD0DEEFAEFFB850A8278
:10460300850B83122787E9640170DF8E088F09AA5F
:1046130008AB090242E9E0FEA3E0FFEE4F2274F784
:104623001207F590140D1261CC7C007D00800DE81B
:10463300FCE9FD88828983A3A31261CCE849603039
:10464300EA687002EB6970E790140D125E59E86A2C
:104653007002E96B88828983A3A370081261CC90EE
:10466300140D80091261CC8C828D83A3A3125C9AF2
:10467300805B74F71207F5EAFEEBFFEE4F602B1237
:1046830021BE1246BD125E591216A28E828F83126C
:104693005E591216A21261B260091246AF125E5938
:1046A3001216A2EEFAEFFB1216A28021EE1246B406
:1046B30022240FF582E43FF583228E828F83E0F874
:1046C300A3E0C8125D9438F58322120D9A7F01028C
:1046D3000B07125D6E8A828B8322E0F98A828B83B9
:1046E300A3A3A3A3221246EC2212633FA3A3A322F4
:1046F30012697112521E221246ECA3A32274F612FF
:1047030007F590140D12627E80308E828F83A3A3EF
:1047130012635D1246BD125E591216A28E828F83FA
:10472300125E591216A21246AF125E591216A2EE6B
:10473300FAEFFB1216A2AE08AF09EE4F70CC90143D
:104743000DE4F0A3F0025722C082C083EAFCEBFD24
:10475300EC4D6017EC24FBF582ED34FF1261B97068
:10476300071247A5E0F4600712161279058030900E
:1047730013F5E0C0E01247A5D0E0F0902CE5E493F8
:10478300F97A0F7B14121648E9640170107A007BE2
:10479300209013F5E0F912164E7900800279040295
:1047A300539BEC24FFF582ED34FFF5832274F4125E
:1047B30007F5A2AFE433F508C2AF90140F12461900
:1047C300603AEE24FBF582EF34FF1261B97A007B85
:1047D300209013F56007E0F912164E8005E0F912F8
:1047E3001654E4F50AF50B780A120D87EEFCEFFD7B
:1047F3007A0F7B141216427402120D9AE508A2E096
:1048030092AFEEFAEFFB02356D124811E022124827
:104813001522F08E828F83A3A3A3A3A3A322120D39
:104823009A7F03020B0774F21207F574FA120E3221
:10483300EAFEEBFF7508FE7509FF122182E96005A8
:1048430079110249B51249D1603B90158EE0C4330A
:1048530054E0F8E0333354FC48C0E012604AD0E03F
:10486300126376FAA3E0FB79FF121F5A8B0BEA451A
:104873000B60127508FFEE240F1249D44404F012A2
:1048830049D1D2E0F08E828F83125E5712228AE9D9
:104893006006EE241212638DEE24131249D4700DB8
:1048A300902CDFE493C0E01249C8D0E0F08E828FF1
:1048B30083E0A2E7500454038019EE24141249D470
:1048C3007012901387E0C0E01249BAD0E0F0901361
:1048D30087E004F0EE24111249D464017016901598
:1048E30079E0600D901392E0700A8E828F83E070FE
:1048F3000312638A8E828F83E064017013EE240BAC
:1049030012521464027009EE240F1249D44440F089
:10491300AC18AD19EEFAEFFB1221EE8A0A8B0B7479
:10492300FE6508700374FFF470098E828F83A3A35E
:1049330012635DEA450B60768E828F83E0C0E0747C
:104943000112109BD0E0F0740412109BEEF0A3EF61
:10495300F0EE241E1261C6740212109B125C9A744C
:1049630001120E02880C890D780C120D87EE24209B
:104973001249DC120D8B1246AF120BD4EE240E1229
:1049830049DC120D8B90139B120BD4740812109BED
:10499300E0F9AC08AD091221E87408120D9AE9FE9A
:1049A30074106E700BAA0AAB0B1216A280027E1053
:1049B300EEF974060242E61249BE22EE2414F58291
:1049C300E43FF58322EE1249CD2212594C22EE2404
:1049D30015F582E43FF583E022F582E43FF583E0B9
:1049E300F50C780C22C082C08374D7120E329089E2
:1049F300C27403120E127426120CC88A828B83A30C
:104A0300A3A3A31261CC740E12109B126969A3A312
:104A13001261CC740C12109B124AF0124AE2125625
:104A230045C0E0741A12109BD0E0F01260C7126107
:104A3300CA742012109B124AF012590B125645C029
:104A4300E0740812109BD0E0F0EA241CF582E43BEA
:104A53001261CA741212109B124AF02411F582E4F7
:104A6300125645C0E0740912109BD0E0F0124ADBE5
:104A7300125645C0E0740712109BD0E0F0EA241EE2
:104A8300F582E43B1261CA742412109B124AF0248B
:104A930020F582E4125645C0E0742612109BD0E044
:104AA300124AE874FFF0740112109B74FFF0740251
:104AB30012109B74FFF0908CC7120BD07404120E6B
:104AC300127407120E0A121DE07404120D9A790073
:104AD3007429120D9A02539BEA2412F582E42224CC
:104AE3000DF582E422F085188285198322E8F0A36C
:104AF300E9F0EA2274F41207F574EC120E328A0A12
:104B03008B0B8C088D09E9FF7E107A217B0012162E
:104B13009C851882851983EAF0A3EB1261C1E849E9
:104B23007003024C057C217D00790085188285196C
:104B330083E0FA1215F49013A8125E598518828542
:104B4300198312692F2409F582E438126302742051
:104B530012109B1261CC741112109B1252911261AC
:104B63007438F5837402125295126940740212521A
:104B73007EE508F0A3E50912529512691EEFF07461
:104B83002212109B125232F9A3E0C912661639F5AC
:104B930083E8124F30A3E0C9125D9439124C0C74B0
:104BA3002312109B125E59740612109B1263047435
:104BB3000812109BE8F0742612109B126198C082B1
:104BC300C083740C12109BAC82AD83D083D08274EB
:104BD30005120CC8742512109BE0C0E07413121068
:104BE3009BD0E0F07900AA18AB19122188E964017F
:104BF30070047E00800C851882851983125E591219
:104C030016A2EEF9741402356AF583E50AF0A3E5FA
:104C13000BF02274F01207F574FF120E32EAFEEB6A
:104C2300FF8C088D098E828F83A37408F0EE2416FF
:104C33001249D460088E828F83A37410F0EE241778
:104C43001249D460098E828F83A3E02408F01249AD
:104C5300D160088E828F83A3E004F08E828F83A3BA
:104C6300A3A3A3A3A3E060198E828F83A3A3A3A30B
:104C7300A3A3A3E0C3332402F88E828F83A3E02887
:104C8300F0EE2411124EEB6004740E8001E4F090F8
:104C93001586E0640170168E828F83E06401600DD7
:104CA300901314E06007124ED874018004124ED89A
:104CB300E4124F308E828F83A3E0124EF928298CA1
:104CC300828D83F0EE24111249D46013901393E084
:104CD300F91220E0E9F8850882850983E029F08547
:104CE3000882850983E0C394754009750C00750D2E
:104CF30000024ECFE0FA7B0012169C8A0C8B0DEA61
:104D0300450D7003024ECF8E828F83E0FA90139885
:104D1300124F2974027808120F86EA4508FAAB0984
:104D2300EE2412124F2374067808120F86A808EA9D
:104D330048FCEBFD1249D16004780180027800EE53
:104D43002416FAE43FFBE4C8F9ED49FDEE24111201
:104D530049D4F508880974097808120F86ED4509C6
:104D6300FD8A828B83124F29740B7808120F86ED0C
:104D73004509FDEE2417124F23740C7808120F8691
:104D8300ED4509FD8E828F83A3A3A3A3A3A3124F93
:104D930029740A7808120F86ED4509FDEE242312C3
:104DA3004F23740D7808120F86ECF8ED4509F9E8E6
:104DB300850C82850D83F0E9124F35850C82850DB4
:104DC30083124F58F0EE2404124EE2124F0D124F8D
:104DD30058A3A3125942124F0DA3A3A3A31269848C
:104DE300850C82850D83A3A3A3A3A3A3A3F0750BB3
:104DF300088A828B83E06015EE2418125D64E50C4B
:104E03002408FAE4350DFB12178C750B10EE2417EA
:104E13001249D46019EE241A125D64A80BE50C281C
:104E2300FAE4350DFB12178C7408250BF50B8E82F3
:104E33008F83A3A3A3A3A3A3E06055EE2407F50EDA
:104E4300E43FF50F850E82F583E0C0E0124F00D0FA
:104E5300E0124F48E0C0E008124F02D0E0124F4882
:104E6300A31261A5120D83850E82850F83E0125173
:104E7300E4A80BE50C28FAE4350DFB1215E87403DE
:104E8300120D9A850E82850F83E0C333250BF50B34
:104E93001249D16008C0E0124F00D0E0F0125C73F9
:104EA3001261A5120D83124EFAFC7D0074031210D9
:104EB3009B124F1BE0F8E50C28F8E4350DF9E82ABE
:104EC300FAE439FB1215E87403120D9AAA0CAB0D20
:104ED3007401026187EE2423F582E43FF58322F80F
:104EE300E43FF98882898322F582E43FF583E085F4
:104EF300188285198322F8EE126806E022A80BE5D2
:104F03000C28F582E4350DF58322124F1122E0853A
:104F13000C82850D83A3A322E0FA8E828F83A322C2
:104F2300F582E43FF583E0F50875090022126977FD
:104F3300F922A3124F3F88828983E022F0EE2402F4
:104F4300F8E43FF922F0050B8E828F83A3A3A3A37A
:104F5300A3A3A3A322A3A3126370A3124F11A3229B
:104F6300740302356A1261D08E828F83A3A32274E5
:104F7300F01207F574FD120E32851882851983121B
:104F83006304740212109BE9F08C0C8D0D750B01F8
:104F93007C267D007900AA0CAB0D1215F474021265
:104FA300109BE0C39408500302516EE0850C828588
:104FB3000D83F0AC0CAD0D85188285198312521A3E
:104FC300FA85188285198312586E1255111221FA27
:104FD300E96003750B0085188285198312619812A5
:104FE300523CE0F9EA850C82850D83A3A3A3A3A316
:104FF300A3A3A3A3F0A3E912527EA3A312523CA33B
:10500300A3E0F9EAF8E50C1261741269AF12529148
:10501300125D56C0E0E50C24111269ACD0E01252C7
:10502300952407F582E438F583E0C0E01269A8D03F
:10503300E01252687408125275A3E060208518824A
:10504300851983E02408F8A3E03400F9E50C241360
:105053001269ACE8F0A3E912616F2408F0850C82B1
:10506300850D83A3A3A3A3A3A3A3A3E0602A850C15
:1050730082850D83A385820E85830F125229F8A39F
:10508300E03400F9E50C12590B350D125C98850ECE
:1050930082850F83E02408F01251EBE4F01251FBF8
:1050A300E4F0A3125268A3A3A3A3E0601112524D2C
:1050B300850C82850D83A3A3A3A3A3125286E50CBB
:1050C30012520CE0700302515A12524DFA1251EB74
:1050D300EA125286F8851882851983E028FBA3E03B
:1050E30034008B82F583E0F8E50C241A1269ACE8EE
:1050F300125286E8C39AE50C5058125207F8902CC6
:10510300E6E493C39850047E0C8006E50C12520724
:10511300FE850C82850D83125228F508A3E0340026
:10512300F509750A007808120D83EE1251E47AEB43
:105133007B081215E87403120D9A1251FB74EBF0FD
:10514300A37408F0EEC333F8850E82850F83E0283D
:10515300800412520CE4F0850C82850D83A3E0F8E1
:10516300850C82850D83E0C39850047900806F120B
:105173005228FAA3E03400FBE50C126384350D12C8
:105183006302850C82850D83E0C398C0E0E50C249F
:10519300171269ACD0E0125275E06040E50C241799
:1051A300FEE4350DFF8E828F83E024F2F0E50C24BC
:1051B3001DF8E4350DF988828983E0240EFAA3E013
:1051C3003400FB88828983126304901393E0F912FD
:1051D30020E0E9F88E828F83E0C398F0A90B026187
:1051E3008525E0FCE433FD22E50C1251F12224195C
:1051F300F582E4350DF58322E50C241BF582E435B5
:105203000DF583221251F1E022126169350DF58308
:1052130022F582E43FF58312521E22E0F8A3E0F563
:10522300838882E022A312522D221252322822E0D6
:10523300F8851882851983E022A3A3E0FA851882F2
:1052430085198312619EA3A3A322850C82850D83F6
:10525300A385820E85830F12522DFAA3E034008AB0
:1052630082F583E02212526C22F0850C82850D8335
:10527300A32212526CA3A3A3A3A32212529AF583CF
:10528300888222F0850E82850F83E004F022E8F005
:10529300A3E912529AC82212697BF8A3E02274F49C
:1052A3001207F58A088B09EA125346A3A3F0EA13FF
:1052B30013543F12533EA3A3F0EAC41313125346ED
:1052C3001253507409780A121018125335A3A3A36A
:1052D300A3A3A3F0EB12533712534F740A780A12A5
:1052E3001018E50A5401C0E0EC1261693DF583D062
:1052F300E0125354740B780A1210181253351253D8
:105303004D740C780A121018125335A312534D74AE
:105313000D780A121018E50A5401C0E0EC2424F5B4
:1053230082E43DF583D0E0F0740E78081210180281
:105333003564E50A54018C828D8322540F8C828D4F
:1053430083A32254038C828D8322A3A3A3A3A3A3A9
:10535300A3F08A0A8B0B22C082C08379008A828BD6
:1053630083A3A3A3A3A3A3E0901392600EE07023EF
:105373008A828B83A3A3E0701A8016E060158A8269
:105383008B83125E5090139BE06A7003A3E06B6003
:105393000279018003125E59D083D082020D4C74CE
:1053A300F21207F58A0A8B0B890CECFEEDFF8A8259
:1053B3008B8312550F1221FA850A82850B83A3A3CF
:1053C300125503E0F9EA8E828F83A3A3A3A3A3A3B9
:1053D300A3A3A312552E125503A3A3E0F9EAF812CF
:1053E3005C73E812552EA3A3E0C0E0EE2411F5820E
:1053F300E43FF583D0E0125535A3A3A3E0C0E0EE6C
:10540300124ADC3FF583D0E012551D74081255286B
:10541300A3A3A3E06016E50A2408F8E4350BF9EE2C
:10542300241312592212551DE02408F08E828F8313
:10543300A3A3A3A3A3A3A3A3E060148E828F83A338
:105443001254F2EE2415125922125B552408F08EE1
:10545300828F83A3A3A3A3A3E0601F8E828F83A362
:10546300858208858309E0F8E50A28F582E4350B8F
:105473001254E7A3A3125B5504F0EEFAEFFB1222DA
:1054830000E9F50D70598E828F83A3A3A3125919D6
:10549300A37014E0F8E50A28FAE4350BFBEE241DAB
:1054A3001262FEE50C80281254F2E8240EF8500133
:1054B30009EE241D125C94901393E0F91220E0E9A5
:1054C300F8850882850983E0F9E50CC39924F2C3C2
:1054D30098C0E0EE2417F582E43FF583D0E0F0A90D
:1054E3000D0242E9F583E08E828F83A3A3A3228575
:1054F3008208858309E0F8E50A28F8E4350BF922E8
:10550300E0FA850A82850B83A3A3A322E0FAA3E032
:10551300F8E4C8F9EA28E439FB22125522A322F061
:105523008E828F832212637BA3A322F0A3E91255F9
:105533003522F0850A82850B83A3A3A3A322C0820D
:10554300C0837A1B7B1479E2121C667A1B7B1402DC
:10555300539BC082C08390139B025398C082C08325
:1055630090139E025398C082C083794A121C66022C
:10557300539B74F61207F5901423E0FE04F0EEF942
:105583001221B28B09EA450970EDEE60EAF9025780
:105593002274F21207F5EAFEEBFF8C088D09890AE3
:1055A3001222F0740E12109BE0F9740F12109BE09C
:1055B300F8EA4B7012E8701BA90AAC08AD09EEFAC1
:1055C300EFFB12230E8071E86017E970068A828B65
:1055D30083E4F07401687060E99014267027E48016
:1055E30021E97054EA2402F582E4125645A80A28F8
:1055F300F8E4340013E813F0703E8A828B83A3A38C
:105603007401F08033E004F0901576E0F8901426EE
:10561300E0C3984023E4F090139EE06E7003A3E090
:105623006F7015EEFAEFFB7901121E047A017B000D
:105633009013F5E0F91217620242E974772AF582B2
:1056430074073BF583E02274F41207F58A088B098B
:105653008C0A8D0B908CA37808120E5E700E7A0163
:105663007B009013F5E0F912164E803190156378A4
:105673000812102712330760187808120D7F7A0179
:105683007B009013F5E0F91217567404120D9A80FB
:105693000C7A017B009013F5E0F912176202356D65
:1056A300C082C083901567024036C082C0839015C4
:1056B3006902403674F61207F57E0075088775098E
:1056C300137808120D877C6E7D007A217B001217F8
:1056D300147402120D9AE9640A70027E01121D62AB
:1056E300E9640A7004EED2E1FE9003361261BB60F6
:1056F3000F12586F122787E9640A7004EED2E3FE93
:10570300121F6CE9640A7004EED2E4FE121BE8E98E
:10571300640A7004EED2E5FEEEF98003120D9A7F5F
:1057230002020B0774F61207F512155E75088775EA
:1057330009137808120D8775086E75090078081229
:105743000D877C007D007A217B00121720740412E0
:105753000D9A121D689003381261BB600612586FD0
:10576300122787121F72121BFA80B474F61207F500
:1057730074FF120E327E00750887750913780812BC
:105783000D877C6E7D007A217B0012171474021240
:105793000D9AE960030258537808120D8775086E55
:1057A3008E097808120D877C007D007A217B001218
:1057B30017267404120D9AE9600302585390139B41
:1057C300E064FE7003A3E0F470030258537E01907B
:1057D30013AAE064086005E06404706F851882858D
:1057E3001983EE12595F7942121C6C7AB27B1379DA
:1057F30043121C6C7AAF7B137947121C6C7AA07B23
:1058030013794A121C6C7A9E7B13794B121C6C7AA7
:10581300A87B137950121C6C7A9B7B137953121C4F
:105823006C7AB07B137954121C6C7A9D7B1379E1EB
:10583300121C6C901395E0A2E35004D2F08002C2D4
:10584300F01259557952121C6C800512155E7E00B8
:10585300121D5690033A1261BB600612586F12274D
:1058630087121F7EEEF9740102571FA312619F2254
:1058730074F61207F5E9FEA2E0502675088775094C
:10588300137808120D8775086E7509007808120DD4
:10589300877C007D007A217B001217207404120D8F
:1058A3009AEEA2E35003121D5CEEA2E2500E9003A7
:1058B3003C1261BB600612586F122787025722748D
:1058C300F71207F574ED120E32E9FE9013F4F0AC03
:1058D30018AD199015A8E0F97AF87B1312216A74B0
:1058E3001212109BEE125900AA18AB191221647AF6
:1058F300F87B137945121C6C74130246CDF0901596
:10590300A8E0F97CF87D13222415F582E4221262C3
:10591300753509F58322A3A3A3E08E828F8322F535
:1059230082E43FF583E8F0A3E922EE1262753FF5C6
:105933008312593822E0F8A3E0F98882898322127E
:10594300594622F0EE12594C222413F582E43FF516
:105953008322A2F0E433851882851983F0AA18AB59
:10596300192274F41207F58A088B097A007B0490D4
:1059730013F5E0F9121762125A219013AA7409F071
:1059830012220C8A0A8B0BAC0AAD0B1239D2125EAF
:1059930059121786E96401706B7A0F7B0012160C9B
:1059A3008A0A8B0BAE0AAF0BEE4F60588E828F8341
:1059B3007402F0E5081263843509125A0AFC8882DE
:1059C3008983A3A3E0FBEC8E828F83A3A3126305D9
:1059D30088828983125919125A12FAA3E0FB794A71
:1059E300121C6C850882850983A3A3A3A3A3A3E048
:1059F30070069012247405F0EEFAEFFB9013F5E0B5
:105A0300F912161802356DF583125938A3E022A353
:105A1300F0E5082415F582E43509F583E0229013B7
:105A2300301261D0901569E8F0A3E9F090133212B7
:105A330061D0901567E8F0A3E9F02274F41207F53A
:105A430074FD120E328A088B09740112109B7402C2
:105A530012595F12227E8A0A8B0BAE0AAF0BEE4FEE
:105A63007003025B2D126949E4125B49E064017023
:105A73000888828983A37420F0850882850983A31B
:105A8300A3A3A3A3E06401700988828983A3E0D25E
:105A9300E6F0850882850983A3A3A3A3A3A3E064F7
:105AA30001700A88828983A3E0D2E780051249C87E
:105AB3007401125B44E06401701E850882850983CA
:105AC300A3A31261BB6003126396850882850983D1
:105AD300A3A31261CC125C91850882850983A3A3D9
:105AE300A3A3A3A3A3E064017009EE240F12639997
:105AF300A3E4F0850882850983125E5912228AE99C
:105B03006009EE240F1249D44404F0EE2417126303
:105B13009912220C126243125B55125B32125B3BE9
:105B2300FAEFFB121D80E9F980027910024F63F846
:105B3300A3E0F98E828F8322A3A3E8F0A3E9F0EE1A
:105B430022125B49A322F0850882850983A3A3A3BC
:105B5300A322F0850882850983E02274F51207F5F4
:105B630074F3120E32890AEAFEEBFF750800750919
:105B7300007C0D7D007900AA18AB191215F412618F
:105B83005F125D74741F58600C7AD37B00121A7411
:105B93007900025C6EE8A2E55008740C12109B7445
:105BA30001F0E8A2E75008740B12109B7401F0E8AF
:105BB300A2E6740A500812109B7401F080081210B8
:105BC3009BE0640170138E828F83A3A3A3A3A3A37B
:105BD300A3E06030EE241380128E828F83A3A3A3ED
:105BE300A3A3A3A3A3E0601CEE2415126357E50847
:105BF30045096010AC08AD09740212109BAA82AB70
:105C03008312178C125C73125C81125C9A740A12F1
:105C1300109BE06401704B901599E0604C64017037
:105C230006901583E06042EE240B1261C690139E2A
:105C3300E0687003A3E0697030125E4C12228AE9B7
:105C43007027E5084509601A12220C8A088B09ACF3
:105C530008AD09740212109BAA82AB83121786E95E
:105C63006007AA18AB19121DFEA90A740D02482178
:105C7300125C7722EE240BF582E43FF58322125C5B
:105C83008522E0F8A3E0F985188285198322EE24A2
:105C930018F582E43FF583E8F0A3E9F02274F712E4
:105CA30007F574CD120E32126927125D56A2E04039
:105CB30003025D518E828F83125934A3A3A3A3A33E
:105CC300A3E054FE12661C740D120E12125D8112B3
:105CD3005E59122206E97076742A12109B125D7BBC
:105CE300706C7C0D7D007900AA18AB191215F47441
:105CF3001612109B125C81125C9A742A12109B126A
:105D03005D74A2E55008740B12109B7401F0E8A2B5
:105D1300E75008740A12109B7401F0E8A2E65004DD
:105D230074208002742212109B125D6A7402121096
:105D33009BAA82AB8312178C8E828F83A3A3E0C0AE
:105D4300E0740C12109BD0E012595F121DF87433EB
:105D53000246CD125D5A222406F582E438F583E02B
:105D630022F582E43FF583125D6E22E0FCA3E0FDA1
:105D73002212619CA3E0F82212521E640422EA2438
:105D83001EF582E43BF583E0F9EA125D943BF5836B
:105D930022241FF582E422E9F87900740468600A7A
:105DA300740A68600574036870027901020D4C740B
:105DB300F61207F58A828B837424F0A3A37401F08F
:105DC300121D868A088B09AE08AF09EE4F600D8E4F
:105DD300828F8312628F12220C1262FBEEFAEFFBA8
:105DE300025722C082C0839014117401F0E9A2E328
:105DF30050037403F0E9A2E15004E0D2E2F002534D
:105E03009B74F61207F579007C008A088B097808E1
:105E1300120AC1F8FF07395E375E375E375E375EB9
:105E23002F5E335E395E2B5E7C01800A7C04800624
:105E33007C0280027C08901411E05C60047902808B
:105E430005EC600279010257228E828F83A3A3A3FC
:105E5300A3A3A3A3A3A3125E5D22E0FAA3E0FB2204
:105E630074F61207F58A828B83E07014A3A3A3123E
:105E730061BB600C8A828B83125E56121FCC800436
:105E83007A007B00025722C082C0837800E875F055
:105E930003A4FCA9F0E9FD125F196A7003A3E06B88
:105EA3007018900A23E493C0E074122CF5827414E2
:105EB30039F583D0E0F079C5805908E8C3940340ED
:105EC300CC7800E875F003A4FCADF0125F1964FE12
:105ED3007003A3E0F4601E08E8C3940340E5780070
:105EE300E875F003A4FCADF074122CF58274143D34
:105EF300F583E07015E81263CD126304900A23E47E
:105F03009388828983F07900800908E8C394034069
:105F1300CF79C702539B74132CF58274143DF58318
:105F2300E02274F41207F574F3120E32EAFEEBFF6B
:105F33008C088D09750A12EE4F70057900025FDF38
:105F430090139BE06E7003A3E06F701D12220C8A06
:105F53000A8B0BAC0AAD0BAA08AB09121786E970C2
:105F630005750A018003750A00851882851983E483
:105F7300F00412109BEEF0A3EF12595F121D3EE9DD
:105F8300602A740312109BAA82AB83121D1AE96460
:105F9300017019750A01740312109BAC82AD83AAB8
:105FA30008AB09121786E96003750A00AC08AD094E
:105FB300EEFAEFFB1222F6E9F8740A687005750A27
:105FC30001801774A0687012AC08AD09EEFAEFFBFC
:105FD300122302EEFAEFFB122314A90A740D023501
:105FE3006A74F71207F5EAFEEBFF8E828F83A3A391
:105FF300A3A3A3A3A3A3E0601312604A1239EB1275
:10600300229CE964017005125C73802C8E828F835D
:10601300A3A3A3A3A3A3A3E06028EE2413125D64A8
:10602300125E4C12229CE9640170178E828F83A347
:10603300A3A3A3A3A3A3A3A3125E59122296790138
:10604300800279000246D0EE2415F582E43FF58301
:106053002274F21207F574FD120E328A088B09ECD2
:10606300FEEDFF890A750B01740112109B74041273
:10607300595F12227EEA4B6046741112109BE06056
:1060830015126260E41263328A828B83E0D2E7F0F6
:10609300EA241412444F1260C71259327403F0A356
:1060A300E50AF0EE88828983A3A3F0EF88828983CF
:1060B300A3A3A312697112698C121D80E9F50BA9C0
:1060C3000B0242E41262743B2274F41207F5EAFEF7
:1060D300EBFF890812615F126198A3E0FAEE2417BF
:1060E3001249D4640460097AD37B00121A7480675E
:1060F300EA120C5901000E026100FF6075080012DC
:10610300615FA3E0F9EE2409F50AE43FF50B888209
:106113008983A3A3E0FC88828983A3A3126178F90E
:10612300850A82850B83125E59121E16850A8285A3
:106133000B83125E5912228AE9601CEE2411124964
:10614300D4C394024011125C731263177003A3E06B
:10615300696004A9088002790002356DEE241DF5FB
:1061630082E43FF583222418F582E42212526CE084
:106173002212627522A3E0F8E4C8F9EC28E439FDA1
:10618300EA227403120D9A7F08020B07740202615C
:10619300878E828F8312619C22E0F8A3E0F58388C7
:1061A3008222E0F508A3E0F509750A00780822EEDB
:1061B300240FF582E43FF5831261D0E8492212529D
:1061C3009AF922F582E43FF5831261D022E0F8A325
:1061D300E0F92274F01207F574FD120E328A088B6F
:1061E300098C0E8D0F890A750B01740112109B74B3
:1061F3000312595F12227E8A0C8B0DAE0CAF0DEE8B
:106203004F603812592D740BF0A3E50AF074131282
:10621300109B126251A312629112220C126243125A
:106223006258EE1261693FF583E50EF0A3E50F12A4
:106233006996126284121D80E9F50BA90B02618530
:10624300EE241AF582E43FF583EAF0A3EB22E0881B
:10625300828983A322F0EE241612629922EA24177C
:10626300F582E43BF58322A3E0C812627538F58317
:1062730022EA240BF582E4223BF583E0FEA3E0FF50
:10628300221259467401F0EEFAEFFB227401F0EE8C
:10629300241712629922F582E43FF5837401F022F8
:1062A30074F61207F51263833B1262EBA3E0FA88DC
:1062B300828983E0702FEAA2E0502A901314F075CC
:1062C30008147509137808120D87750801750900FC
:1062D3007808120D877C007D007A517B001217200D
:1062E3007404120D9A025722F583E02401F8A3E007
:1062F3003400F98882898322EE241AF582E43FF57B
:1063030083EAF0A3EBF0228E828F83A3A3A3A3A33C
:10631300A3A3A3A31261D090139BE06822902CE760
:10632300E493F8E50AC39822126971A3A3A3221286
:10633300633BEEF0A3EFF02212633F22F08A828BDD
:1063430083A3A3A3A322F582E4350BF583E02212F2
:1063530061D0C322F582E43FF583E0F508A3E0F5BD
:10636300092212636AA322126370A3A322F0888214
:1063730089832212637BE022F08E828F83A3A32280
:10638300EA241DF582E422EE2411F582E43FF5832D
:10639300E4F022EE24161262992274F71207F57EB6
:1063A300008008EE12658E1222E40E12641F40F381
:1063B3007E00EE1263CD74FEF0A304126370E4F06A
:1063C3000EEEC3940340EB0246D075F003A4F8A984
:1063D300F0741228F8741439F988828983A322741B
:1063E300F71207F57E0080010E12641F5027EE128C
:1063F3006748E06A7003A3E06B70ED1264296C7068
:1064030003A3E06D600A74FF6C700374FF6D70D8B2
:1064130012659580047A007B000246D0902CE7E455
:1064230093F8EEC3982212642D22126432E0227490
:106433008128F582740739F5832274F61207F57CF7
:10644300FF7DFF7AFE7BFF1222C6EA4B704575087B
:1064530000803BE50875F017A4F8A9F0748628F5C9
:1064630082740739F583E0600D748528F58274071B
:1064730039F583E07016747728FE740739FF8E822E
:106483008F83125E59121EA6EEFAEFFB0508126403
:106493009940C0025722902CE7E493F8E508C3988B
:1064A30022C082C0837A007B007C00801012688443
:1064B3007003A3E0F460050AEA70010B0C1264C8D0
:1064C30040EB02539B902CE7E493F8ECC3982274BF
:1064D300F41207F58A088B09ECFEEDFF800B1222FC
:1064E300E4EEFCEFFDAA08AB091222C6EA4B70EEFC
:1064F30002356D74F71207F57D007C0080020D0CE8
:106503001264C8501C1268847003A3E0F460F0EDB9
:10651300F8EA684B70E8EC75F017A4F812659580FB
:10652300047A007B000246D074F71207F5EAFEEB0B
:10653300FFEE4F60187C177D0079001215F48E82F0
:106543008F8374FEF0A304126553F0A3F00246D0C8
:106553001242DDA32274F71207F5EAFEEBFF75087A
:1065630000801BE50875F017A4F8A9F0126589707F
:1065730003A3E06F60061265951222E40508126416
:106583009940E00246D012642D6E2275F017A4F8EC
:10659300A9F0747728FA740739FB2274F61207F509
:1065A3001222C68A088B09A808A909E8496009E8E4
:1065B300240DFAE439FB80047A007B00025722742D
:1065C300F41207F5EAFEEBFF8C0A8D0B75080075D4
:1065D3000900802CE509126874121D1AE9601FE591
:1065E300091268687003A3E06F700375080AAC0AA8
:1065F300AD0B12687B121786E960034308A00509F7
:10660300902CE7E493F8E509C3985004E50860C4C7
:10661300023564240CF582E4221242D4FAA3E0FB8F
:1066230022125522125E5D2274F01207F58A0E8B38
:106633000F8C0A8D0B750C00780079017EFE7FFFAD
:10664300741012109B12635D8011121606E50CF58F
:10665300F0EA84E5F0F8750C0079007C00800B7497
:10666300772AF582740712627B0C902CE7E493FA85
:10667300ECC39A506FEC75F017A4FAADF0EDFB1272
:10668300563E64FE7003A3E0F460DE12563E650ED0
:106693007004A3E0650F60D112563E650A7004A32F
:1066A300E0650B60C412563E65087004A3E06509FB
:1066B30060B774852AF582740712564560ABC3949C
:1066C3000850A6E064076097E9050C709CE50CC3CD
:1066D300984096EDF974772AF582740739F5831299
:1066E300689D8022E50C6011E8700E7401650C60F2
:1066F3000302664D780102665974FE6E700374FFDF
:106703006F6006EEFAEFFB80047AFE7BFF02618A7C
:1067130074F51207F5EAFEEBFF8C088D09750A0084
:106723008002050A1263205019AC08AD09E50A126C
:106733006874121786E960EAE50A126748EEF0A367
:10674300EFF002482475F017A4F8A9F0126753225A
:10675300747728F582740739F58322E9F87907C33A
:10676300940D400479018019E8C394074004790328
:10677300800FE8C39403400479058005E87002792B
:1067830000020D4C74F01207F58A0E8B0F8C0A8DE4
:106793000B89081222CC8A0C8B0DAE0CAF0DEE4F79
:1067A300604D7C177D0079001215F48E828F83E58E
:1067B3000EF0A3E50F126553124C0EE508600712A5
:1067C30046AFE50880051246AF7401F09013EFE081
:1067D300640170061267F5E480051267F574071209
:1067E300680F5001097A027B001206161267FF0236
:1067F300618AEE240EF582E43FF58322EE126806E9
:10680300E8F022240DF582E43FF58322F0126814A8
:1068130022902CE4E49379002401F82274F7120700
:10682300F5EAFEEBFF7508008033E508126868702F
:1068330003A3E06F601474FF6E700374FF6F701B2B
:1068430012688C7003A3E0F4601112687B121D1AA6
:10685300E97008E50812658E1222E40508126499AE
:1068630040C80246D075F017A4F8A9F01268926EDA
:106873002275F017A4F8A9F0747928FA740739FB84
:1068830022EC75F017A4F8A9F012689264FE2212A4
:106893006753E022851882851983E0FAA3E022C0BA
:1068A30082C08374F8120E32908C2AAC18AD19741E
:1068B30008120CC8AC18AD19121786E964017004EC
:1068C3007900800279017408024AD574F61207F53B
:1068D300EAFEEBFF740C12109B125E59743A6A7055
:1068E30001EB6006743B6A4B701F740A12109B1213
:1068F3000BD48C088D097808120D87EEFCEFFD127E
:1069030017267404120D9A8002790A025722F8E4BA
:106913003FF9E8FAE9FB8A828B8322241EF582E49D
:1069230038F58322EAFEEBFF8E828F8312693322CE
:10693300E0F8A3E0C822126933126940222408F563
:1069430082E438F58322125C771259387404F0A379
:106953002212695D7401F0A3E422126933240DF558
:1069630082E438F58322E8F0A3E912697122F08A00
:10697300828B832212697B22F0851882851983E03A
:1069830022F01249BEE022A3A3A3A3E508F0A3E5E6
:1069930009F02212637BE508F0A3E509221242D431
:1069A300F8A3E0F922E50C2412F582E4350DF58312
:1069B300221269B8229013A8125D6EAA18AB19228D
:1069C30074F01207F574FE120E328518828519834E
:1069D3001263048C0A8D0B75080085188285198350
:1069E300E0650A7004A3E0650B60178518828519BA
:1069F30083E0FA12171A8A0C8B0DAE0CAF0DEE4F13
:106A03007006750801026AA3AA0AAB0B12171A8A49
:106A13000C8B0DAC0CAD0DEC4D6007AA0AAB0B1241
:106A2300172CE4F50CF50D780C120D87EEFCEFFD39
:106A3300AA0AAB0B1217147402120D9AE96061EEE5
:106A4300FAEFFB12169C8A0E8B0FEA450F604E7805
:106A53000E120D878E0C8F0D780C120D877C007D26
:106A630000740412109B125E591217267404120D3F
:106A73009AE9701D780E120D87780C120D877C0031
:106A83007D00AA0AAB0B1217207404120D9AE96059
:106A930003750801AA0EAB0F1216A2800375081026
:106AA300A90802618F74F41207F574F8120E327597
:106AB30008007F009011B7E4F07E79750A088F0B08
:106AC300780A120D877402120E127A007B00EEF917
:106AD3001211687402120D9A851882851983E0F4E5
:106AE3007003A3E0F470139011B7E07004EEF0802C
:106AF300197A01EEF91216AE8010740412109BE09D
:106B0300F47003A3E0F460028E080EEEC3947F409A
:106B1300AAE5089011B7601FE0600FF91216BA7A60
:106B2300007B00A9081216C08014A9081216BAE542
:106B3300089011B7F08007E06004F91216BA7E7965
:106B4300EFFC7A007B00EEF91216B48B0BEA450BCF
:106B530060047F017E780EEEC3947F40E3EFA2E0F2
:106B630050147E797C007A007B00EEF91216B40E85
:106B7300EEC3947F40EE9011B7E0703C7E007C0042
:106B8300EC126BC1127DF274F86A700374076B70B8
:106B930004ECFE8018EE126BC139F583C3E09AA3AF
:106BA300E09B5002ECFE0CECC3940640D374792EA8
:106BB3009011B7F0F91216BA79017408801025E024
:106BC300F8E433F974AB28F5827411227402120DC0
:106BD3009A7F04020B0774F71207F574F8120E324A
:106BE300EAFF851882851983E4F0A3F0EF60087447
:106BF3000212109BE48007740212109B74FF12723E
:106C03003E7A007B001216E47408120D9A7F01028B
:106C13000B0774EE1207F574F8120E32890C8A0E04
:106C23008B0F8C0D750808750900750A00750B002C
:106C33007510087511007810120D877402120E1268
:106C4300AA08AB09A90C1211687402120D9A8518CF
:106C530082851983E0F47003A3E0F47003026DA648
:106C6300740212109B12705A40067EFC7FFF80064E
:106C7300127038FEE9FF74F8C39508F87407950994
:106C8300F9C3E89EE99F5020E50A2400E50B340888
:106C9300F50BC3E50A9508F50AE50B9509F50B75A0
:106CA3000800750908026DA6E5082408F508E4350F
:106CB30009F5098518828519831270547003026DD2
:106CC30084E50E450F604AA80EE50F547FF9851839
:106CD30082851983E0687003A3E0696003026D8E07
:106CE300740612109B12795DE50F5480700F74FFC8
:106CF30068700374FF696003026D8E800D74FF6812
:106D0300700374FF697003026D8EAA08AB09026DEC
:106D1300C1AA08AB09A90C1216DE8A108B11A810A0
:106D2300A911740412109BE0687003A3E069704614
:106D3300740612109B12795DE50D602A74FF68706A
:106D43000374FF697045851882851983E0FAA3E00F
:106D53004480FB1216C6EA4B60317C019011B8E007
:106D6300F91216D2802574FF68700374FF69601BE3
:106D73007AFF7BFF80487C01AA08AB09A90C121695
:106D8300D2EE2408F8E43FF91275A5E5082EF508BC
:106D9300E5093FF509C3E50894F8E50994075003AD
:106DA300026C33A80CE828127045E508F0A3E50946
:106DB300126DEDE50AF0A3E50BF07A007B00740891
:106DC30080027404120D9A7F0A020B0774F71207EC
:106DD300F5E9FE121174EE2E1270457408F0A3E467
:106DE300126DEDE4F0A3F0026C10F074B928F58293
:106DF300741039F5832274EE1207F574F7120E320C
:106E030089088A0A8B0B7E007F00750C01750D00C3
:106E1300780C120D877402120E12EEFAEFFB90112A
:106E2300B7E0F91211687402120D9A851882851958
:106E330083E0F4600D9011B7E0F91216BA790002FD
:106E430070330EEE70010FC3EF940840BD7E087FD0
:106E5300007401F09011B7E0127043E0F50EA3E067
:106E6300F50F750C08750D00780C120D877403125D
:106E73000E12EEFAEFFBA9081211687402120D9AB2
:106E8300740112109BE0F47003A3E0F47003026F2B
:106E9300F3740312109B12705A4008750CFC750DA5
:106EA300FF8008127038F50CE9F50D74F8C39EF8ED
:106EB30074079FF9C3E8950CE9950D5003026FF32E
:106EC30074F8C3950EF87407950FF9C3E8950CE9A8
:106ED300950D5003027006EE2408FEE43FFF740193
:106EE30012109B1270547003026FDF740112109B17
:106EF300E0650A7004A3E0650B7003026FDFEEFA2E
:106F0300EFFBA9081216DE8A108B11A810A91174C1
:106F13000512109BE0687003A3E0696003026FDF52
:106F2300740712109BE0F47003A3E0F4700B7C0071
:106F3300EEFAEFFBA9081216D27509007809120DB3
:106F43008BE4F510F5117810120D87740612109B5F
:106F530012794E740412109B127DF59011B7E0F96B
:106F63001216FC7403120D9AE97003027006E50E03
:106F73002408F50EE4350FF50F780C120D87780E03
:106F8300120D879011B7E0FCEEFAEFFBA908121679
:106F9300F67404120D9A740312109B127065121684
:106FA300DE740512109B1279767002EB6D7054AA91
:106FB3000EAB0F9011B7E0F91216D88A108B11A8F7
:106FC30010A911740512109BE0687003A3E06970A7
:106FD30032740112109B127065121708EE250CFE15
:106FE300EF350DFFC3EE94F8EF94075003026E578D
:106FF300851882851983E070149011B7E0F9121691
:10700300BA8025851882851983E4F080ECE50A456A
:107013000B70157A019011B7E0F91216AEA9081298
:1070230016BAE5089011B7F0851882851983E0F93F
:107033007409026DC7EC2403F8E43DF9E854FC221B
:1070430025E0F8E433F974AD28F582741039F5833B
:1070530022127961E8492212794EC3EC94FCED9433
:10706300FF2212794EAA0EAB0F9011B7E0F92274EA
:10707300F41207F5EAFEEB800374804FFF7508797D
:107083007C00EEFAEFFBA9081216B4EA4B6008E5A0
:10709300089011B8F080150508E508C3947F40E017
:1070A300EF548060D49011B8E4F0FAFB026BD4740F
:1070B300EE1207F574F6120E32890A8A0C8B0D8CC8
:1070C300088D09C3EC94F4ED94FF400E8518828576
:1070D300198374FCF0A374FF8019EC2403F8E435DE
:1070E30009F9E854FC24085001098518828519839D
:1070F300F0A3E9F07F007C069011B7E004FEEEC335
:10710300947F40027E799011B7E06E603074872ED1
:1071130025E0F8E433F9749F28F5827411127DF2A7
:10712300E4C39AFA74089BFB74AB28F58274113993
:10713300F583E02AFAA3E03B12722750080E1CECF9
:1071430070BC027220EC7003027220741C12109B3C
:10715300E0F50EA3E0F50FEE127043127967FA74AF
:10716300089912722740030271FD7510088F117878
:1071730010120D877404120E127A007B00EEF912BE
:1071830011687402120D9A740612109BE0F47003D6
:10719300A3E0F4700B1272377A04FBEEF91216EACD
:1071A300AA0CAB0DEEF91216C0E96071E50AF50BF6
:1071B300780B120D8B780E120D87AC08AD09AA0C53
:1071C300AB0D9011B7E0F91216FC7403120D9AE996
:1071D30060059011B7E0FFE50A7009EE850E828520
:1071E3000F8380137A019011B7E0F91216AEEEF90E
:1071F3001216BAEE9011B7F08023E50AF50B780B5F
:10720300120D8B780E120D87AC08AA0CAB0DEEF99C
:107213001216FC7403120D9AE96002EEFFEFF97483
:107223000A026DC7FB851882851983127961C3EA47
:1072330098EB9922851882851983E4F0A3F0AC18A2
:10724300AD192274F21207F574F8120E3289098C03
:1072530008EA24F8F50AEB34FFF50B750C08750DF5
:1072630000780C120D877402120E12AA0AAB0B12CD
:1072730011687402120D9AE5087022740612109BAD
:10728300E4F0A3F0740412109BAC82AD83E50A24EE
:1072930004FAE4350BFBA9091216E48031740212D7
:1072A300109BE02403F8A3E03400F9E812795412A8
:1072B3007237AA0AAB0BA9091216E4A809E828F841
:1072C300E433F974B928F5827410391272DB740847
:1072D300120D9A7F06020B07F583E02EF0A3E03F21
:1072E300F02274F41207F574FE120E3285188285AB
:1072F3001983ECF0A3EDF08908EAFEEBFFEE24FC22
:10730300FEEF34FFFFAC18AD19EEFAEFFB1216EAED
:10731300750A02750B00780A120D877402120E1299
:10732300EEFAEFFBA9081211687402120D9A851880
:1073330082851983127DF5026BCF74F01207F57401
:10734300FC120E32890C8A0A8B0BECFEEDFF7508DA
:1073530000750900EE2403F50EE43FF50F7402787F
:107363000E121018AE0EAF0F1277216052750E0475
:10737300750F00780E120D877402120E12AA0AAB53
:107383000BA90C1211687402120D9AE50A2404F574
:107393000AE4350BF50B7800E8FA85188285198322
:1073A300E5822AF582E43583F583E0FAE5082AF5D8
:1073B30008E43509F50908E8C3940450AB80D9AA59
:1073C30008AB097404120D9A7F08020B0774F412B8
:1073D30007F5E9FE7508017509007808120D878A1B
:1073E300088B0974027808121018EEF50A750B0061
:1073F3007409780A120F86E5082400FAE509350BAB
:10740300FB12116E026BCF74F71207F574FC120EA8
:10741300328C828D83E0851882851983F08C828D6E
:1074230083A3E0C0E0740112109BD0E0F074021259
:10743300109B74FFF0740312109B74FFF0AC18AD33
:10744300191216E47404026C0D74EE1207F574FC41
:10745300120E328909EAFEEBFF8C0C8D0DEE5403FC
:10746300F508741612109BE0F50AA3E0F50BE50886
:10747300606074FC5EFE750E04750F00780E120DCD
:10748300877402120E12EEFA1211687402120D9A28
:10749300E50C450D6028850A82850B83E0C0E0A8D2
:1074A30008127594D0E01275B00508E50C24FFF5B9
:1074B3000CE50D34FFF50DE508C3940440D2AC1878
:1074C300AD19EEFAEFFBA9091216E4EE2404FEE46B
:1074D3003FFFE50C5403F508850C0E850D0F740270
:1074E300780E121018850E0C850F0DE50C450D60F6
:1074F30048780C120D87AC0AAD0B8E0E8F0F7402F9
:10750300780E121018E509F510751100740978103A
:10751300120F86E50E2400FAE50F3511FB12116EEA
:107523007402120D9A7402780C120F86A80CA90D1E
:10753300EE28FEEF39FF1275A5E5086051750C00C2
:10754300750E04750F00780E120D877402120E1259
:10755300EEFAEFFBA9091211687402120D9A801555
:10756300850A82850B83E0C0E0A80C127594D0E0F5
:107573001275B0050C85080D74FF250DF508047010
:10758300DFAC18AD19EEFAEFFBA9091216E4026D90
:10759300C5851882851983E58228F582E43583F54C
:1075A3008322E50A28F50AE50B39F50B22F0850A53
:1075B30082850B83A385820A85830B2274EE1207CF
:1075C300F574FC120E32890E8A0C8B0D8C0B74161B
:1075D30012109B12796EE5085403F50A7418121001
:1075E3009BE0FEA3E0FFE50A6072F8C3E50898F5A7
:1075F30008E5099400F50975100475110078101257
:107603000D877402120E12AA08AB09A90B12116896
:107613007402120D9AEE4F60337510017810120D3B
:1076230087A80A740212109B127730121168740231
:10763300120D9A050CE50C7002050D050AEE24FFE8
:107643001EEF34FFFFE50AC3940440C9AC18AD191B
:10765300AA08AB09A90B1216E4127715EE5403F529
:107663000A8E108F1174027810121018AE10AF1119
:1076730080397510047511007810120D8774021289
:107683000E12AA0CAB0DA90E1211687402120D9AF8
:10769300E50C2404F50CE4350DF50DAC18AD19AA71
:1076A30008AB09A90B1216E412771512772170C2E1
:1076B300E50A605B7E007510048E117810120D8749
:1076C3007402120E12AA08AB09A90B1211687402F4
:1076D300120D9A80237510017810120D87EEF8743D
:1076E3000212109B1277301211687402120D9A0560
:1076F3000CE50C7002050D0EAF0A74FF2FF50A049A
:1077030070D3AC18AD19AA08AB09A90B1216E40281
:107713006DC5E5082404F508E43509F50922EEF8FA
:10772300EFF9E824FF1EE934FFFFE84922E5822848
:10773300FCE43583FDAA0CAB0DA90E2274EC1207F1
:10774300F574F8120E32890C8A0E8B0FECFEEDFFE6
:10775300E929F508E433F50974AD2508F51074102B
:107763003509F511851082F583E0F50AA3E0F50BE1
:10777300750D00851882851983EAF0A3EBF0740276
:1077830012109BEEF0A3EFF0AC18AD19AA0AAB0BE5
:107793001216E47512087513007812120D8774021D
:1077A300120E12AA0AAB0BA90C1211687402120D65
:1077B3009A740212109B12795D851882851983E0F1
:1077C300650E7004A3E0650F60030278FBEE68703A
:1077D30002EF6960030278FB741E12109BE07003D2
:1077E3000278D6741C12109B12796E850882F58379
:1077F300EEF8EFF9E85403F50EE58245837015E8DA
:1078030075F0FFA4F8AAF075F0FFE9A42AF9E8FAE5
:10781300E9FB801F7A007B008009E0FCEA2CFAE494
:107823003BFBA3E8FCE9FDEC24FF18ED34FFF9EC86
:107833004D70E7E50E601EF87404C398F895E0F9FF
:10784300E875F0FFA4F8ACF075F0FFE9A42CF9EAB1
:1078530028FAEB39FB740412109BEAF0A3EBF0E572
:107863000A2408F50AE4350BF50BE508450960170A
:107873007808120D87EEFCEFFDAA0AAB0BA90C12D8
:1078830016F07402120D9AEEFCEFFDAA0AAB0BA9D7
:107893000C1216DE740412109B1279767002EB6DD3
:1078A3007034AA0AAB0BA90C1216D88A088B09A844
:1078B30008A909740412109BE0687003A3E06970BF
:1078C3001585188285198312794EAA0AAB0BA90C68
:1078D300121708750D01740212109B12795DC3E82B
:1078E30094F4E994FF40067EFC7FFF8049E824037B
:1078F300500109127954803EC3E894F4E994FF409F
:10790300067EFC7FFF8009E82403500109127954A5
:10791300851082851183127967F8740899F9C3E891
:107923009EE99F5004E8FEE9FF74B92508F58274C7
:107933001035091272DB8510828511831272DDA95D
:107943000D7408120D9A7F0C020B07E0FCA3E0FDF7
:107953002254FC2408FEE439FF2212796122E0F864
:10796300A3E0F922127961E4C39822E0F508A3E0C9
:10797300F5092212794EEA6C22C082C0837900E9AC
:1079830025E0FCE433FD74482CF582748C3DF583CB
:10799300E06A7003A3E06B600709E9C3940340DF67
:1079A300D083D082020D4C74F61207F5E9FE8A08E3
:1079B3008B09ECFAEDFB121702E9F8C39403500E9E
:1079C300127AA4EE127AAFE508F0A3E509F07F027C
:1079D300020B07C082C0831216A880C474F4120776
:1079E300F5EAFEEBFF8C088D09794E12113EE96032
:1079F3003CEEFAEFFB1216C6EA4B6010EEFCEFFD0D
:107A03009011B8E0F912170879008023740C121052
:107A13009B120BD4AC08AD09EEFAEFFB79011216F9
:107A2300CC7402120D9AE9600479098002790A0282
:107A33006BD474F61207F574F8120E32EAFEEBFFFC
:107A4300121702E9F8C394035042127AA4E090118A
:107A5300B8127AAF127DF575080875090078081217
:107A63000D877402120E12EA24F8FAEB34FFFB902E
:107A730011B8E0F91211687402120D9A740212100F
:107A83009B127DF57408120D9A0279D1EEFAEFFB81
:107A93001216C68B09A909EA4970BC7A007B0080DB
:107AA300E374B929F582E43411F58322F0E8127AFC
:107AB300B52229F8E433F974BC28F582741139F539
:107AC300832274E81207F574F3120E32740B12104A
:107AD3009BEAF0A3EBF08C0E8D0F751300794E1219
:107AE300113EE9607E742512109BE0F516A3E0F5C4
:107AF30017E51645177003027DD1740B12109B1204
:107B03007DF51216C6740112109BEAF0A3EBF090F8
:107B130011B8E0F512740112109B127054700579BC
:107B230009027DD37508087509007808120D87745A
:107B330005120E12740312109BE024F8FAA3E0342A
:107B4300FFFBA9121211687402120D9A7405121028
:107B53009BE50E2516F8E50F3517F9C3E098A3E06A
:107B6300995005790A027DD3740112109BE0250E0A
:107B7300F50AA3E0350FF50B850A10F511742712EA
:107B8300109BE0F50CA3E0F50DAE16AF17750800DA
:107B9300806B7514017515007814120D8774021229
:107BA3000E12AA10AB11A9121211687402120D9AC7
:107BB300851882851983E0F8850C82850D83E0683A
:107BC3006026750801740712109BC3E098F0A3E0C8
:107BD3009400F0850C82850D83E0F8740712109BE6
:107BE300E028F0A3E03400F00510E5107002051161
:107BF300850C82850D83A385820C85830D127721E5
:107C03007090E508A2E04003027DD18518828519B2
:107C130083E4F0A818A919880889097808120D8740
:107C2300740712109B12794E740D12109B127DF57E
:107C330079001216CC7402120D9AE9F50C70030246
:107C43007D74740512109B12795DC3E894FCE9946A
:107C5300FF40087508FC7509FF800DE824035001F7
:107C63000954FCF508E9F509A80CE828F8E433F908
:107C730074AD28F514741039F515851482F5831243
:107C83007DDD740912109BE0F47003A3E0F4700D22
:107C93007C00740112109B127DFB1216D2780E1217
:107CA3000D878E108F117810120D87AC0C7405128E
:107CB300109B127DFB1216F67404120D9AEE250E1C
:107CC300FEEF350FFF742712109B120BD4AC16ADC9
:107CD30017EEFAEFFBA90C1216F07402120D9A7448
:107CE3000512109BE0C3950EF8A3E0950FF9E8C3C6
:107CF3009516F50EE99517F50F780E120D87EE25FB
:107D030016F50EEF3517F50F780E120D87AC0CE54F
:107D13000A2516FAE50B3517FBA9121216F6740499
:107D2300120D9A851482851583127DDD7405121058
:107D33009B127DE81216DE740712109B127976707F
:107D430002EB6D702CEEFAEFFBA90C1216D88A0821
:107D53008B09A808A909740712109BE0687003A394
:107D6300E069700D740312109B127DE812170880EE
:107D73000375130A851882851983E06034651270D0
:107D830010740A6513700A9011B7E0F91216BA80DD
:107D93003D7A019011B7E0F91216AE851882851964
:107DA30083E0F91216BA851882851983E09011B71A
:107DB300F0851882851983E065126012740A6513D1
:107DC300600C7C01EC12109B127DFB1216D2A913DE
:107DD300740D120D9A7F10020B07E0C39508FEA3E2
:107DE300E09509FF2212794EEEFAEFFBA90C223936
:107DF300F583E0FAA3E0FB22E0FAA3E0FBA9122259
:107E030074F01207F5EAFEEBFF8C0A8D0B121702D2
:107E1300E9F8741012109BE0F50CA3E0F50D741251
:107E230012109B12796EE8C394035024E8FE780C79
:107E3300120D87AC08AD09EE127AB5E0250AFAA354
:107E4300E0350BFB74B92EF582E43411F5838023FE
:107E5300EEFAEFFB1216C6EA4B7004790A8020781B
:107E63000C120D87AC08AD09EA250AFAEB350BFBBA
:107E73009011B8E0F91211687402120D9A79000298
:107E830073CB74F21207F5EAFEEBFF8C0A8D0B122B
:107E930016C68A088B09EA450970047909803DEE04
:107EA300FAEFFB12171A8A0C8B0DE50A650C7004A6
:107EB300E50B650D6004790C80227C01AA08AB09EF
:107EC3009011B8E0F91216D2EEFAEFFB1216C68B38
:107ED30009EA45096004790A800279000272D674BE
:107EE300EC1207F574FF120E32890F8A128B138C72
:107EF300118D10741712109B127FEFE02403851865
:107F030082851983F0FEFA7B0012169C8A088B097E
:107F1300EA45097003027FC5741512109B127FD3C3
:107F23008A828B83F0E9A3127FE7127FDE850A82C0
:107F3300850B83A3A982AA83890C8A0D750E007809
:107F43000C120D83850A82850B83E0FC7D00E50816
:107F53002403FAE43509FB1215E87403120D9A7829
:107F630008120D878E0A750B00780A120D87741D8F
:107F730012109BE0F50A780A120D8BE4F50A780AD1
:107F8300120D87E510F50A780A120D8B750A007831
:107F93000A120D8B750A01780A120D8BE511F50A89
:107FA300780A120D8B7C047D00AA12AB13A90F1261
:107FB300180A740B120D9AE9FEAA08AB091216A24D
:107FC30080027E10EEF97401120D9A7F0C020B07EA
:107FD300127FD722E0F8A3E0F9E822E08A828B83BC
:107FE300A3A3F022F0850A82850B8322E0F50AA37E
:0C7FF300E0F50B850A82F58322020D4C9C
:108000000000000000000000000000000000000070
:10801000000000F800000000000000333000000005
:1080200000100C06100C060000000000000000000C
:1080300040C07840C0784000043F04043F0404007E
:10804000007088FC08300000001820FF211E00008E
:10805000F008F000E018000000211C031E211E00A3
:1080600000F00888700000001E2123241927211029
:1080700010160E00000000000000000000000000CC
:10808000000000E018040200000000071820400073
:1080900000020418E0000000004020180700000063
:1080A000404080F0804040000202010F01020200C7
:1080B000000000F0000000000101011F01010100AB
:1080C000000000000000000080B070000000000010
:1080D0000000000000000000000101010101010199
:1080E0000000000000000000003030000000000030
:1080F0000000000080601804006018060100000005
:1081000000E010080810E000000F102020100F0001
:10811000001010F8000000000020203F2020000088
:1081200000700808088870000030282422213000E0
:1081300000300888884830000018202020110E00E8
:108140000000C02010F8000000070424243F240091
:1081500000F80888880808000019212020110E0066
:1081600000E0108888180000000F112020110E0078
:1081700000380808C83808000000003F0000000070
:108180000070880808887000001C222121221C0031
:1081900000E010080810E0000000312222110F005A
:1081A000000000C0C00000000000003030000000EF
:1081B000000000800000000000008060000000005F
:1081C0000000804020100800000102040810200078
:1081D00040404040404040000404040404040400C3
:1081E0000008102040800000002010080402010058
:1081F000007048080808F000000000303601000058
:10820000C030C828E810E0000718272423140B000A
:108210000000C038E0000000203C23020227382084
:1082200008F8888888700000203F202020110E0068
:10823000C03008080808380007182020201008005F
:1082400008F808080810E000203F202020100F0048
:1082500008F88888E8081000203F20202320180014
:1082600008F88888E8081000203F2000030000007C
:10827000C03008080838000007182020221E02001D
:1082800008F808000008F808203F210101213F20DC
:10829000000808F8080800000020203F2020000007
:1082A00000000808F8080800C08080807F000000F7
:1082B00008F888C028180800203F20012638200030
:1082C00008F8080000000000203F20202020300097
:1082D00008F8F800F8F80800203F003F003F2000B1
:1082E00008F830C00008F808203F200007183F00B9
:1082F000E01008080810E0000F10202020100F00E8
:1083000008F808080808F000203F210101010000DA
:10831000E01008080810E0000F18242438504F001F
:1083200008F8888888887000203F2000030C3020DF
:1083300000708808080838000038202121221C001D
:10834000180808F8080818000000203F2000000066
:1083500008F808000008F808001F202020201F004F
:108360000878880000C83808000007380E010000AF
:10837000F80800F80008F800033C0700073C030079
:10838000081868808068180820302C03032C3020DF
:108390000838C800C83808000000203F200000004E
:1083A00010080808C83808002038262120201800A6
:1083B000000000FE020202000000007F404040007A
:1083C000000C30C000000000000000010638C000B2
:1083D00000020202FE000000004040407F0000005A
:1083E000000004020202040000000000000000007F
:1083F000000000000000000080808080808080807D
:108400000002020400000000000000000000000064
:1084100000008080808000000019242222223F205A
:1084200008F8008080000000003F112020110E009D
:108430000000008080800000000E1120202011002C
:10844000000000808088F800000E112020103F20DE
:108450000000808080800000001F22222222130062
:10846000008080F0888888180020203F20200000AD
:108470000000808080808000006B94949493600062
:1084800008F8008080800000203F210000203F206D
:1084900000809898000000000020203F202000006D
:1084A000000000809898000000C08080807F00005D
:1084B00008F8000080808000203F24022D3020003A
:1084C000000808F8000000000020203F20200000E5
:1084D0008080808080808000203F20003F20003FFF
:1084E0008080008080800000203F210000203F200D
:1084F0000000808080800000001F202020201F00BE
:10850000808000808000000080FFA12020110E00EC
:108510000000008080808000000E112020A0FF80DD
:10852000808080008080800020203F21200001008A
:1085300000008080808080000033242424241900DF
:10854000008080E0808000000000001F20200000EC
:108550008080000000808000001F202020103F202D
:10856000808080000080808000010E3008060100BD
:1085700080800080008080800F300C030C300F0062
:1085800000808000808080000020312E0E3120008D
:10859000808080000080808080818E7018060100BD
:1085A00000808080808080000021302C22213000DB
:1085B00000000000807C020200000000003F4040FC
:1085C00000000000FF00000000000000FF000000AD
:1085D0000002027C800000000040403F00000000DC
:1085E0000006010102020404000000000000000077
:1085F000000000000000000000000000000000007B
:10860000000000000000000000000000000000006A
:108610001060028C0000FE9292929292FE00000086
:1086200004047E01407E42427E427E42427E400001
:108630000000FC242424FC252624FC2424240400FB
:1086400040308F80844C55252525554C80808000F6
:108650001060028C00FE929292929292FE000000B4
:1086600004047E014448507F40407F50484440000D
:108670000000FC242424FC252624FC2424240400BB
:1086800040308F80844C55252525554C80808000B6
:108690004040424458C0407F40C05048464040009F
:1086A0008080402018070000003F40404040780094
:1086B00000FE424242FE0042A29E82A2C2BE0000D2
:1086C000806F080828CF00002FC8080828CF0000B6
:1086D00002E222223E00809E9292F292929E8000BE
:1086E000004382423E40474444447F444454E700B0
:1086F0000000FC242424FC252624FC24242404003B
:1087000040308F80844C55252525554C8080800035
:108710000000080808080808080808080800000001
:108720001010101010101010101010101010100059
:108730000824236AAA2AAA6A2A2A2AEA020200002C
:108740001011151515FF15151511100F3040F800F3
:10875000008060F807000000FF40201008040000BF
:10876000010000FF000402013F404040404078000B
:1087700004E45C44C400809EF0909F90909E800032
:10878000013F10107F201806914C300F30488400B4
:108790001060028C201808C838CF080828980000FC
:1087A00004047E01040201FF4021060A112040005A
:1087B0000000FC242424FC252624FC24242404007A
:1087C00040308F80844C55252525554C8080800075
:1087D00000004040404040FF40404040400000001A
:1087E000404040404040407F40404040404040008A
:1087F0001010FF100082BAEABA83BAEABA82000007
:1088000008180F04484A2AFF8A4A1A2F5A8A8800F1
:1088100000000000000002FE020000000000000056
:10882000000000000000407F400000000000000049
:108830000000000002FE020002FE02000000000034
:1088400000000000407F4000407F4000000000002A
:10885000000002FE020002FE020002FE0200000012
:108860000000407F4000407F4000407F400000000B
:108870000002FE0200021EE2000000E21E020000F2
:1088800000407F40000000011E601E01000000004B
:108890000040424242C27E42C24242424040000048
:1088A000804020100C0300003F404040407000001A
:1088B0002030AC6330201018A744A4140C00000032
:1088C000226722121202012124444891010202006F
:1088D000C808090EE808405E5050DF50505E400066
:1088E000206F201C131000FE027F027E82FE00001B
:1088F000202020FF202080F88040FF2010F0000082
:108900001030100F0808003F40405F424443780099
:10891000202020FF202000F80000FF404040000001
:108920001030100F0848407F40407F4040404000DA
:1089300007000A000C000D000E000F0010001100CF
:1089400012001300140019001B00000101010002B5
:1089500001020204000401040304040405040604E3
:1089600000050206030604060506060607060806B5
:1089700009060A060B060C060D060E060F06100663
:1089800011061206130604070009000B010B020B67
:10899000030B050006000800090016000201020290
:1089A0000302000301030105020500060106040B92
:1089B000140615061706000701070207030700093A
:1089C0000509000000000000000000000000000099
:1089D0000000000000000000000000000000000097
:1089E0000000000000000000BDD3CAD5B5BDD0AD69
:1089F000B5F7C6F7CAFDBEDDB0FCA3BA25730D0AF4
:108A000000D5FDD4DAC9EAC7EBBCD3C8EBCDF8C2B8
:108A1000E7A3A10D0A00B1BED6D5B6CBB6CCB5D86A
:108A2000D6B7A3BA25580D0A00C424FE205C11BE97
:108A30001E4E1F6019EC175C263019D7E9BDA8CD72
:108A4000F8C2E7B3C9B9A6A3A10D0A0054657861BD
:108A500073496E737472756D656E747300B7E4C399
:108A6000F9C6F7D2D1B9D8B1D5A3A10D0A00B2B9D0
:108A7000B9E2B5C6D2D1BFAAC6F4A3A10D0A00546B
:108A800065786173496E737472756D656E74730089
:108A9000B2B9B9E2B5C6D2D1B9D8B1D5A3A10D0A40
:108AA00000B7E4C3F9C6F7D2D1BFAAC6F4A3A10D9B
:108AB0000A00537461727444657669636520455297
:108AC0005200527370204E6F6E204D617463686562
:108AD0006400D5DAD1F4CDF8CDA3D6B9A3A10D0A9F
:108AE00000CDF8C2E7D2D1B6CFBFAAA3A10D0A002C
:108AF000D5DAD1F4CDF8B4F2BFAAA3A10D0A00CD06
:108B0000A8B7E7D2D1B9D8B1D5A3A10D0A00D2D167
:108B1000BCD3C8EBCDF8C2E7A3A10D0A00CDA8B71E
:108B2000E7D2D1BFAAC6F4A3A10D0A00BDBDB9E02A
:108B3000D2D1BFAAC6F4A3A10D0A00D5DAD1F4CDD3
:108B4000F8B1D5BACFA3A10D0A00CDF8C2E7D2D1B2
:108B5000BBD6B8B4A3A10D0A004D6174636820446C
:108B60006573632052657100BDBDB9E0D2D1B9D83B
:108B7000B1D5A3A10D0A004173736F6320436E66E4
:108B8000206661696C00456E65726779204C657678
:108B9000656C004D4F444520756E6B6E6F776E00AF
:108BA0000D0AB7A2CBCDB3C9B9A6A3BA004E6F6E5A
:108BB000204D617463686564005363616E20466193
:108BC000696C656400456E644465766963653A0066
:108BD0000000000000000000000000000000000095
:108BE00000000000000000000000000000004173D1
:108BF000736F6320436E66000000000000000000F9
:108C0000005273702053656E7400FFFFFFFFFFFF7B
:108C1000FFFF5375636365737300FFFFFFFFFFFF83
:108C2000FFFF506172656E743A00000000000000A2
:108C30000000FFFFFFFFFFFFFFFF03060300080028
:108C400074494545453A200082003A003B00000047
:108C5000030007000300060004001112131415831B
:108C60001E863DF8FF000019E0FCFF040000000034
:108C7000E1F505F4010000010000800A0000000099
:108C80000000FF140000000000FF00FEFFFFFF9740
:108C900051180019000000640000000000C84239AB
:108CA0008E63BD010000000300000015000000E716
:108CB0001F0300FFFFFFFFE204000010270000B8C1
:108CC0000B0000983A000000000000C80000008877
:108CD00013000032000000E90300000B0000000058
:108CE000480000E80300003000000032004F00435D
:108CF000003A00300009C082C0831225D290134987
:108D000074CAF0A3741EF090134B74D0F0A3741EB9
:108D1000F090134D74D6F0A3741EF090134F74DCD2
:108D2000F0A3741EF002C6E374F71207F5E9FE9093
:108D3000133DE4F0EE90133CF07C167D137A3E7BFD
:108D40001312178C90158DE0901346F09013477412
:108D500000F0A37413029D6174F01207F5EAFEEBB4
:108D6000FF54807003028ECA90133CE0F91216245F
:108D70008A088B09EA45097003028EC3EA241B1294
:108D8000D697707CEA241F12D69764137002A3E072
:108D9000706E8A828B83128F2290135712C9457589
:108DA0000A00750B00800D129BDB12CD7F1216A2FC
:108DB000AA0EAB0FEA4B60488A828B83E0650C7089
:108DC00004A3E0650D702C8A828B83A3A3A3A3E088
:108DD000F50EA3E0F50FE50A450B8A828B83A3A36A
:108DE000A3A360C312A06F850A82850B83A3A3A3EC
:108DF000A380B78A0A8B0B8A828B8312C94180B405
:108E0000E508242A12D697FCE5082402F8E435097F
:108E1000F9E8FAE9FB901357E012B994E0640270A4
:108E2000358A828B8312C94580078882898312A084
:108E30006BE849601C88828983E06A7003A3E06B59
:108E400070E888828983A3A3E06C70DE128F17809C
:108E50006BECF9121F06850882850983E0640170B6
:108E60004FE5082418128F0A120D8B12CE9F120B99
:108E7000D0E5082412128F0A120D8BE50812A9D72B
:108E8000120D87E508240B12CEA3120BD4E508249B
:108E90001712A41BE5082402FCE43509FDE50824AB
:108EA00019FAE43509FB122758740A120D9A800C3E
:108EB000E064027007AA08AB0912202CAA08AB09CB
:108EC000121612EEFAEF64808036EE5402600C90B7
:108ED00015A67401F0EE6402FA802CEE54086023AB
:108EE000121F008B09EA4509701190135912CD5FCA
:108EF0007A08FB90133CE0F9121762EE6408FAEF6F
:108F0000FB80047A007B0002D4FEF582E43509F58B
:108F100083E0F50A780A2290159312C5A4A3A3A3AF
:108F2000F022A3A3E0F50CA3E0F50D2274F41207E0
:108F3000F58A088B098A828B83A3A3A312B6081231
:108F4000A63F38F583E02409FA7B0012160C8A0A42
:108F50008B0BAE0AAF0BEE4F7003028FF68E828F33
:108F600083740212B66A850882850983129E43E8DB
:108F7000F0A3E912D150A3A3A3A3A3A3A3F0E508F0
:108F80002403F8E43509128FF812A63F3AF583124C
:108F9000A07DF0EE2409FAE43FFB8E828F83A3A329
:108FA00012C852F5838882E0A2E58E828F83A3A344
:108FB000A3A3A3500474018001E4F0E5082403F89E
:108FC0008882898312C945EA12BDB03BF58312E657
:108FD000DC120D8312A63E3B12C9568E828F83127D
:108FE000C9431215E87403120D9AEEFAEFFB9013C1
:108FF0003CE0F91216188010F988828983E0FAA300
:10900000E0CA227402120D9A7F04020B0774F21256
:1090100007F58A088B09ECFAEDFB740E12109BE041
:10902000FC1226AA8A0C8B0DAE0CAF0DEE4F6030F1
:10903000AC08AD091226BCE96026AC08AD09EEFA11
:10904000EFFB1226B6E970148E828F8312AB1AFAE8
:10905000EFFB1226F8AA08AB09121BC479008002A4
:1090600079B402B8E374F01207F574F6120E32EA1E
:10907000FEEBFF8C088D09750FB385188285198367
:10908000E4F0750E008002050E902CF1E493F8E5F3
:109090000EC3984003029194AA0E7B001210DE8A40
:1090A0000A8B0BEA450B60DF8A828B83A3A31291A4
:1090B0009B28F0F8C3EE98EF940050CB7C157D0010
:1090C0007900AA08AB091215F4850A82850B83A3DF
:1090D000A3A3A312C727E0F8EEC3982925E0F8E47C
:1090E00033F9E50A28F582E50B39F583A3A3A3A399
:1090F000A3A312A655A3A3A3A3A312CD7F12220C50
:109100008A0C8B0DAC0CAD0DAA08AB0912178C851F
:109110000A82850B83A3E06401700A12CE9F74015A
:1091200012A66980447401120E12850A82850B838F
:1091300012C9431210C6E9603D740912109BE0C0C9
:10914000E012CE9FD0E0F0740912109BE06403702F
:10915000137401120E12E508240BFAE43509FB1210
:10916000178C8012740112109B12A06FE50812C3B5
:109170009D350912CD7D850A82850B8312CEAB12F7
:10918000A669A3A3E0C0E0E508241412CEA3D0E0B2
:10919000F0750F00A90F740A02D4FBA3A3A3E0F893
:1091A000851882851983E02274F71207F5E9FE8A93
:1091B000828B83A3A3A3A3A3A3E0540860338A8272
:1091C0008B83A3A3A3A3A3A3E0540260218A828B71
:1091D00083A3A3A3A3A3A3A3A3A3E06406600F7424
:1091E000E96E600A74CD6E600574F06E7003121E35
:1091F000E802B1F474F01207F574EF120E32740F36
:1092000012109B12B7DD740812109BE9F0ECFEED12
:10921000FF740512109BE412983512951212260E57
:10922000740612109B12B7DD740612109B12BE1E3C
:1092300070030294BF12A8F6E0FA740612109BE0C5
:10924000F9121E2885188285198312D962F8A3E0C5
:10925000F9E84970030294BFEE2403F50AE43FF5F0
:109260000BEE2406F508E43FF5097C00850882F53D
:109270008312C945850A82850B83E0F9122608749A
:109280000312109B12B7DD850A82850B83E0C0E0D4
:10929000851882851983129520D0E012BF22F985A6
:1092A0001882851983129BEE12BA7112919EFAA34D
:1092B000E0CA2407F582E43AF583E8F0A3E412CC8F
:1092C000522406F582E438F583E412D8F012B5F999
:1092D000120D83EE12A63F3F12C956740312109B63
:1092E00012B608129E3A12C9451215E87403120DFF
:1092F0009A742912109B12C721128FFD12BF353AA2
:1093000012CD7D742B12109BE0C0E0851882851968
:109310008312BDE7D0E0F0740212109BE4F07425D4
:1093200012109B780812100902940D740312109BFE
:1093300012C90888828983129507A3A3A312C3D9EF
:10934000FB1210CC850E82850F83A3EAF0A3EBF00D
:10935000740312109B129520A312950712C5E1A267
:10936000E6500F850E82850F83A3A3A3A3A3E0D2AB
:10937000E1F0740512109BE0706A850E82850F8300
:1093800012A06E90139BE0687003A3E0697055858E
:109390000E82850F83A3A3A312A221750C00780C63
:1093A000120D8B7808120D7F742912109BE0F50CBA
:1093B000780C120D8B742712109B120BD49013A8EB
:1093C000120BD47900741912109B12B7CF122074AB
:1093D000740A120D9A850E82850F83A3A3A3A3A3FB
:1093E000E04405F0740212109BE004FC8E828F832F
:1093F000A3A3A3A3A3A3E012951212260874031239
:10940000109B12B7DD740212109BE004F07403127B
:10941000109B12BE1E6070740212109BE0FA74065C
:1094200012109B12A06FC3EA98E499505A7402126A
:10943000109B1297EB851882851983E028F8A3E02A
:1094400039F9E8240FF50EE439F50F850E82F5831E
:10945000E4F0740312109B12D94BE0640160030224
:10946000932B740512109B740112D4E9F07403124B
:10947000109B12C6D3F8A3E0F9850E82850F83A353
:10948000E8F0A3E902934F85188285198312C94534
:10949000121E2E851882851983120BD47426121081
:1094A0009BE0FD742512109BE0FC740A12109BE0F7
:1094B000F9EEFAEFFB121EE27402120D9A80438E4F
:1094C000828F83A3A3A3E0C0E0740C12109BD0E0B2
:1094D000F012D395E0C0E0740D12109BD0E0F07450
:1094E0000612109B12BE1E7009740E12109B74B9E6
:1094F0008007740E12109B7410F07409120E0A1279
:10950000206E741102D4FBE0850E82850F83A3A325
:10951000A322FAA3E0FB8E828F83A3A3A3E0F92208
:10952000E012CC36A3A3A32274F01207F574E11263
:109530000E32740412109BE9F0740312109BECF0CD
:10954000740212109BEDF08A0E8B0F742F12109B79
:10955000128F24AA0CFB121E1C740112109BE9F03E
:10956000AA0CAB0D121E22740112109BE0700302B4
:1095700097E6851882851983E480158E828F83A3F0
:10958000A3A3A3A3E0D2E3F0851882851983E004A6
:1095900012D466F8851882851983E0C398400302C7
:1095A00097DD740112109BE070030297DD8518822D
:1095B0008519831297EBE50C28F8E50D39F9E824B5
:1095C0000FFEE439FF8E828F83A3A3A3A3A3E0A29F
:1095D000E040B5750800750A08750B00740212109A
:1095E0009BE060037508207C087D007900740512FB
:1095F0000E0A1215F48E828F83E060459013EBE023
:109600006401701DE508D2E3F508750B101298117E
:1096100012109B12CD7F8E828F83A3A3A374FF8031
:109620007A43080C750A0C8E828F83A3129807A3C5
:10963000A3A3A312CD7F740512109B74FFF0A38027
:109640005A740412109BE06009E508D2E6F508752B
:109650000A0A8E828F83A3E064FE7003A3E0F47095
:1096600030741212109B7404129835F8741D121085
:109670009BE812B66A7412120E0A121D4A7D007C13
:10968000007900741512109BAA82AB83121B108004
:109690000B12981112109BE8F0A3E9F07407121056
:1096A0009BE508F012A8EDC0E0740912109BD0E011
:1096B000F0740A12109B7401F07405120E0A122045
:1096C00032741112109BE060030297BB740D1210EC
:1096D0009B12BF1D8E828F83A3A3A3A3F0740D12D0
:1096E000109B12B630E50AF0A3E50BF074031210DC
:1096F0009BE0C0E012B5DBD0E012C5E16011901331
:10970000EBE0C0E0740D12109B12B626D0E0F074AE
:109710000D12109B12A06F850C82850D83A3A312DE
:1097200097FD241C12B7D712D90012980212C597C0
:109730003912D3A2C0E012B5C2D0E012D45BC0E0AF
:10974000740D12109B12B0FAD0E012D178C0E07400
:109750000D12109B12B0F0D0E0F0740D12109B129D
:10976000980712981C12D4DE1297FD242C12B7D73A
:1097700012A8DCC0E012B0D4D0E0F0740D12109B3F
:1097800012C945850E82850F831297F42428F5822D
:10979000E43B12CD7D12A8E512E6DC120D8312C95E
:1097A0004FEA12CBE73BF58312C9451215E8740363
:1097B000120D9A7405120E0A1220388E828F83A31E
:1097C000A3A3A3A3E0D2E0F0741112109BE0600306
:1097D00002957B740112109BE0140295877900AA10
:1097E0000CAB0D121EEE741F02D4FBE075F007A443
:1097F000F8A9F022A3A3A3A312A073EA22A3A3A310
:10980000A3A312C949E82212A073850E82850F8393
:10981000228E828F83A312A073740522A3A3A3A315
:10982000A3A3E0FAA3E0FBE8242AF582E439F58358
:10983000EAF0A3EB2212983922129D6DE02274F017
:109840001207F574E8120E32E9851882851983F043
:109850008A0E8B0F8A828B83A3A3A3A3A3A3A3A3A4
:10986000E0F9121E468A088B09EA4509700302993D
:1098700014E50E12B1D212A91112A2F58518828533
:109880001983E060030299177C04850E82850F839B
:10989000A3A3A3A3A3A3A3A3E0F9121E4CEE4F60BE
:1098A000738E828F8312A06B740712109B12CD8966
:1098B00012A06F740912109B12B692C0E0741112BC
:1098C000109BD0E012D15EA3A3A312A06B740F1261
:1098D000109B12CD7F741212109BE412D4F1C82495
:1098E0001FF582E438F58312C904C413135403FC32
:1098F00070027C048E828F83E0F97808120D8774E1
:109900002059FD744059F97403120E0A121EE274B4
:1099100002120D9A02D4F97C08850E82850F83A36A
:10992000A3A3A3A3A3A3A3E0F9121E4C8B0BEA45A8
:109930000B700302989DEE4F60DA851882851983BB
:10994000E0F50C780C120D8B850882850983A3A3A2
:10995000A3A3A3A3A3E0F50C780C120D8B8A828B32
:1099600083A3A3A3E0FB8A82850B8312D9328A8268
:10997000850B83E0FA8E828F83A3A3E0F91227641C
:109980007402120D9A0298A174F71207F574FA1274
:109990000E32E9FE780179017F00800379000F1211
:1099A000B96AE0FCEFC39C5026EF75F007A4FC8574
:1099B000F008AD08EA2CFCEB3DFD12AF52E0A2E04E
:1099C00050DA540C60D6E0A2E250D3780080CF8AFF
:1099D000828B83A3A3A3A3A3A3E0703DE9A2E040ED
:1099E0000574016E70338A828B83A3A3A3A3A3A300
:1099F000740112AFBCE0C0E0740312109BD0E012FF
:109A0000AFB4E0C0E0740412109BD0E0F074051213
:109A1000109BE812C95F12206E740602B1F1C08279
:109A2000C0837901121EEE02C6E374F41207F5EA50
:109A30004B9015A66022E4F08A088B09F50AF50B15
:109A40007808120D7F7A027B0090133CE0F9121720
:109A5000567404120D9A800F7401F07A027B009004
:109A6000133CE0F912176202900874F01207F574C3
:109A7000F3120E32740312109BE4F0A3F09013570C
:109A800012A2F5740112109BE4F0A312B66204F066
:109A9000901395E0A2E35003029B65121774EAF855
:109AA000EBF9ECFAEDFB740912109B12106C7409BF
:109AB00012109B78081210099013597808120E1A88
:109AC000740512109B7808121027129BE27405127D
:109AD000109B7808120FEA50077A017B00029BD690
:109AE000740512109B780C121009901592E0F5097C
:109AF000780C7908120786A80CA90D901593E0C37D
:109B000098E4995003E08001E8851882851983F074
:109B1000740912109B7808121009C008C009C00A05
:109B2000C00B740512109B780C121009129BE2787E
:109B30000C7908120786E4F50AF50BD00FD00ED089
:109B40000DD00C780C7908120ED9901359780C129C
:109B500010278011129BDB12CD7FEEFAEFFB12165D
:109B6000A2AE08AF09EE4F60658E828F8312919B83
:109B7000C398502DEE2403F8E43FF9E0FA88828977
:109B800083E0C39AF06023740312109B12AC9B74A1
:109B90000112109BEEF0A3EF12CDA4FEA3E0FF8014
:109BA000C48E828F83A3A3A3E4F08E828F8312E6F8
:109BB000A5740112109B12BE1E8E828F83A3A3A3D5
:109BC000A3609112CD7012109B129BEE80897403DA
:109BD00012109B12C945740D02D4FB12A07390138E
:109BE000572290159112E6ADE4F50AF50B2212C347
:109BF000B1A3A32274F01207F58A088B09890A78A9
:109C000000790090135712A2F512B7C6601E088E95
:109C1000828F83A3A3A3A312B7C9601008E87001C1
:109C2000098E828F8312A2F1EE4F70E39015941289
:109C3000C945C3E89AE99B4003029CE57A067B008C
:109C400012169C8A0C8B0DA80CA90DE84970030212
:109C50009CE588828983E508F0A3E50912AFCBA3D0
:109C6000E50AF0128F1788828983A3A3A3A3E4F0E7
:109C7000A3F012B7C6600D8E828F83A3A3A3A31295
:109C8000CD7F801F90135712CD7F901395E0A2E3F4
:109C90004011121774EAF8EBF9ECFAEDFB90135946
:109CA00012106C901395E0A2E3503A7A087B009072
:109CB000133CE0F9121768EA4B4C4D70289015914F
:109CC000E0F508A3E085080CF50DE4F50EF50F7836
:109CD0000C120D7F7A087B0090133CE0F912175CA0
:109CE0007404120D9A02D4FEC082C083E99015A7B5
:109CF000F09013517424F0A3741FF0901353743632
:109D0000F0A3741FF09013557448F0A3741FF00271
:109D1000C6E374F71207F5EAFEEBFF8908EE4F7011
:109D20000312114490135D12BE1E700890135D80E3
:109D30001E12A06F88828983A3A3A3A3A3A3A3A3B6
:109D4000A312AA7AA3A3A3A3A3A3A3A3A370E2EE3F
:109D5000F0A3EF129D65A3A3A3E4F0A3129D65E514
:109D600008F002B1F4129D6922129D6D22F08E82DC
:109D70008F83A3A3A3A3A3A32274F71207F5E9FD7E
:109D800090135D800D88828983A3A3A3A3A3A3A3BB
:109D9000A3A312BE1E603488828983A3A3A3A3A3B6
:109DA000A3A3E06D70DF88828983A3A3A3A3E06AE5
:109DB0007003A3E06B70CE88828983A3A3A3A3A3BF
:109DC000A3E06C70C0E8FAE9FB80047A007B000233
:109DD000B1F474F71207F590135D12A2F590135DBC
:109DE0001297F8687002EB697019E0C8129E3A1277
:109DF000A06F90135D12CD7F90135D12A2F580309D
:109E000012A2E8EE4F60298E828F83A3A3A3A3A39F
:109E10001297F4687002EB6970E68A828B83A3A3C1
:109E2000A3A3A3A3A3A3A3129E43A3A3A312CD7F83
:109E30001216A2EEFAEFFB02B1F42409F582E4381F
:109E4000F5832212A64DA3A32274F01207F574F92C
:109E5000120E328A0C8B0D8A828B83A3A3A3A3A339
:109E6000A3A3A3E060336401602F8A828B8312C9AD
:109E70004512228AE97022850C82850D83A3A3A353
:109E8000A3A3A3A3A3E0640370147402120E12AA86
:109E90000CAB0D121FC6E97016790202A05E850C8C
:109EA00082850D8312A06F740212109B12CD7FE584
:109EB0000C241112D8F8243412C85C12169C8A089B
:109EC0008B09AE08AF09EE4F700302A05C7C347DB5
:109ED0000079001215F4AA18AB19850C82850D8340
:109EE000A3A3A3A3A3A3A3A3A3E0F912271C8518EC
:109EF00082851983E0C0E012A063D0E0F0EE242E4A
:109F0000F50EE43FF50F740112109BE0850E82857B
:109F10000F83F07901EEFAEFFB121F12850C088512
:109F20000D09750A007808120D837C1E7D00EE2451
:109F30000BFAE43FFB1215E87403120D9AEE24327B
:109F4000FAE43FFBEE2434F8E43FF98A828B831273
:109F5000CD7FE50C2411FCE4350DFD8C828D831240
:109F6000BA6C243012CD79E50C12AF6412D91512F7
:109F7000E6CE120D838C828D8312D9338A828B8335
:109F800012C9451215E87403120D9A740212109B3F
:109F900012A64912CD7F90133D12A07DA3A3A3F07A
:109FA00090133DE004F01217748E828F8312B11368
:109FB000242CF8E43FF9E8FAE9FB7508FF7509007D
:109FC000850E82850F83E07808120F868A828B8344
:109FD000E508F0EE242B12A408740412109BE4F0A0
:109FE000E50C241512D8F8A2E07405500712109B56
:109FF0007401800412109BE4F0EE2429F508E43F7C
:10A00000F5097404120E0A122734E924FE85088229
:10A01000850983F0EE243012A41212A08412061EC9
:10A02000E88E828F83A3A3A3A3A3A3A3A3F012A06C
:10A030008412061E8B09EA4509600F8E828F83A366
:10A04000A3A3A3A3A3A3A3E004F0EE242012C27051
:10A05000440812A94512164E79008002791074073F
:10A0600002D4FBEE12CBE73FF58322A3A3A3A312F6
:10A07000A0732212A07722E0F8A3E0F92212D157B0
:10A08000A3A3A3228C828D8312C3BBE0FA7B0022A0
:10A0900074F41207F5EAFEEBFF1217748E828F83B9
:10A0A00012B7DD901587E0F8EE242D12C270C39828
:10A0B000400302A1FE12A2107012EE242D12C270F3
:10A0C0000412B9B3C0E012A3FED0E0F012B972FAE4
:10A0D0007900800109EE242E12C270F8E9C398506D
:10A0E00026750801750900E97808120F8612A2107A
:10A0F000550860E0E92AFA750801750900E9780851
:10A10000120F86E04508F0EE242912C270FBEE24FF
:10A1100030F582E43FF583EA8BF0A4F8ACF0E42C50
:10A12000F9E098F8A3E099F9EBFCC3E89CE9940006
:10A13000EE4031242912C270F812A210602C12A035
:10A140006312A221A3E4F0EA7047EE242012C27049
:10A15000442012B696C0E012B9A1D0E012B9ABFC0F
:10A16000A3E0805512A3FF74FFF090138BE0FC90E6
:10A17000158A12A218ADF075F064A4FCABF075F06E
:10A1800064EDA42BFD8E828F83A3A3ECF0A3ED805E
:10A19000B5EE242012C27054DF12B99CEAF0FCEE36
:10A1A0002429F582E43FF58312A218FCADF0EE24D9
:10A1B0003212C2702CFCA3E03DFD12D43CECF0A3A3
:10A1C000ED12CED3C0E0EE2425F582E43FF583D036
:10A1D000E0F0EE241CF582E43FF583E812B66A90C5
:10A1E000135F12BE1E600BEAF912E1DF122787E946
:10A1F000701BEE240BFAE43FFB121F9C800F7BE9DF
:10A2000012A42B12276AEEFAEFFB121F1E0290080F
:10A21000EE242B12C2CBF422E0F508EC8508F0A462
:10A220002212D157A3F02274F41207F590135D1295
:10A23000A2F51217748A0A8B0B78FF79FF8020E051
:10A24000C39AFCA3E09BFDC3EC98ED99500E8E825F
:10A250008F83A3A3E0C39AF8A3E09BF912A2E8EED0
:10A260004F60598E828F8312C945E50AC39AFAE579
:10A270000B9BFB8E828F8312D931C3EA9CEB9D8EA0
:10A28000828F83A3A340B8A3A3A3A3E064027017A3
:10A2900012A902600912A8F612C945121612EEFAA6
:10A2A000EFFB121F1E8007EEFAEFFB121F2A7A0146
:10A2B0007B009015A7E0F912164E802974FF687094
:10A2C0000374FF69601F88088909E4F50AF50B78B3
:10A2D00008120D7F7A017B009015A7E0F91217563E
:10A2E0007404120D9A0290088E828F83A3A3A3A3F5
:10A2F000A3A3A3A3A3E0FEA3E0FF2274F31207F538
:10A300008A088B09ECFAEDFB890C7C01E508241125
:10A3100012A41B121F188A0A8B0BAE0AAF0BEE4F4A
:10A32000700302A3F9E50C600302A3F912CE9F1299
:10A33000A42568600302A3F912B96012C2868E8256
:10A340008F83A3A3A3A3A3A3A3A3E0FAE89AE9940A
:10A3500000C365D033401812D693F470127B0012FC
:10A36000A42B12276AEEFAEFFB121F1E02A3F912AA
:10A37000D693F47043EE242BF8E43FF9E8FAE9FBB6
:10A38000EE242E12A4127508FF7509008C828D83AD
:10A39000E07808120F868A828B83E508F0EE242C81
:10A3A00012A4088C828D8312A42528F0EE242DF5AA
:10A3B00082E43FF583E48021E5082414F8E43509BC
:10A3C000F9E0C0E0EE242CF582E43FF583D0E01202
:10A3D000C836C0E012A3FED0E0F01217748E828F50
:10A3E0008312B11312A06412C27CA312B66A7A015E
:10A3F000FB9015A7E0F912164E7F05020B07EE241D
:10A400002BF582E43FF58322F582E43FF583E508EE
:10A41000F022F8E43FF9E8FCE9FD22F582E4350991
:10A42000F583E0F922E0F812B97622EE242212C276
:10A43000CBFAEE241412C2CBF92274F01207F57491
:10A44000FB120E32740312109B12B64CE98518826F
:10A45000851983F08A0A8B0B8A828B83A3A3E0F988
:10A460001227408A0E8B0FEA450F70077A007B0097
:10A4700002A6397A127B0012169C8A088B09EA45DB
:10A4800009700302A6357C127D0079001215F47460
:10A4900001120E0A850A82850B83A3A3E0F9122715
:10A4A0001CE508240FFEE43509FF740212109BE03E
:10A4B0008E828F83F07902AA08AB09121F127403EF
:10A4C00012109B12CC3112A65512A66312D74AA3C2
:10A4D000A3A3A3A3A3A3F0750CFF750D008E828F19
:10A4E00083E0780C120F86E508240C12CEA3E50C4D
:10A4F00012D4D912E1DDE0C0E0E508240B12CEA3AE
:10A50000D0E0F0E50A12A63F12D744FAE508240D80
:10A5100012CEA3EAF0E50A12AF6412D7448AF0A47F
:10A52000A9F02427FAE439FB12160C8A0C8B0DAE25
:10A530000CAF0DE508241012CEA312AF99EE4F70A8
:10A540000302A6288E828F83741A12B66A8E828FB7
:10A5500083A3A3F0A312A67712A64912CD831210EB
:10A560009B12D93312D444122722850A82850B8389
:10A57000A3A3A3E0C0E012C274D0E0F09013A8122D
:10A58000BA6C241012A65D12AF30350BF58312BAE7
:10A590006C12C930E8F0A3E912A67712BA6812D398
:10A5A00096E8F0A3E912A669E0C0E0EE2414F58273
:10A5B000E43FF583D0E0F0E50A240C12D741C0E077
:10A5C000EE12AF303FF583D0E0F0741512109B12FD
:10A5D000C5AAE0C0E012D683D0E012CECEC0E01211
:10A5E000D389D0E012AFC5C0E012B5E3D0E012BE0F
:10A5F00023C0E012B5CCD0E0F0741712109B1210FB
:10A6000078EE241AF582E43FF58312106CEE2427CD
:10A61000F8E43FF9EE242212A65D12D762E0C0E012
:10A6200012D44CD0E0F0800DAA08AB09121F1E75A1
:10A630000800750900AA08AB09740502D4FBEA12E8
:10A64000A643222410F582E42212A64D2212B0E67F
:10A65000A3A3A3A32212C3BBA3A3A3A322F582E4B3
:10A660003FF58312B68CE50A2212A66D22F0850A08
:10A6700082850B83A3A32212A66DA3A3A3A3227496
:10A68000F01207F574FE120E3285188285198312B6
:10A69000B64C8A0E8B0F890DC200EA12A908E0F5AC
:10A6A0000C90135F12BE1E600EA90C12E1DF122780
:10A6B00087E9600302A8D77C0212A92412A8DCF95A
:10A6C000121F188A088B09AE08AF09EE4F70588523
:10A6D0000E82850F83A3E0A2E0400302A8D7741482
:10A6E00012109B120BD0741612109B120BD4A90DD2
:10A6F000740612109B12D933AA0EAB0F121F3C74B2
:10A7000006120D9A8A088B09AE08AF09EE4F700346
:10A7100002A8D78E828F83A3A3A3A3A3A3A3A3E599
:10A720000C12A94512164EAA0C8E828F83A3A3A3E6
:10A73000A3A3A3A3A3E024FFF8E434FFF9E86A4944
:10A740007002D20012A902700302A893850E8285BE
:10A750000F83A3E0A2E05003750C0012A932E50CB0
:10A7600098E499C365D033401CE0F8EE240E12C281
:10A77000702CF07508FF750900E87808120F86EE56
:10A78000240C12A40812A8E512E6DC120D8312C9EB
:10A790004FEE240D12C270F508E50C8508F0A4FAFE
:10A7A000ABF012B6052422F582E438F583E02AFAEC
:10A7B000A3E03BFB1215E87403120D9A7508011211
:10A7C000A9167808120F8612C26D4508F0A2005033
:10A7D0006DEE240CFAE43FFB7508FF12A91604780D
:10A7E00008120F868A828B83E0450812B65AF8E574
:10A7F0000CF508E88508F0A4F8A9F012A8EDFCE82B
:10A800002CFCE439FD12B6052420F582E438F583EA
:10A81000ECF0A3ED12C6D9F47024EE240BF508E495
:10A820003FF50912A8F612C945850882850983E01B
:10A83000F912161885088285098374FF805412174F
:10A84000748E828F8312B7DD90138BE0FA90158A95
:10A85000E0F508EA8508F0A4FAABF0F8EBF99015FA
:10A8600087E0F508E88508F0A4F8ACF08508F0E981
:10A87000A42CF9EA28F8EB39F9E875F064A4F8AAF1
:10A88000F075F064E9A42AF98E828F83A3A3E8F01F
:10A89000A3E9F0AA0C12A93212D5CEE86A7001E938
:10A8A000600CEE240C12A2136004A2005029EE24C6
:10A8B0000E12C270C0E0E50E12A908D0E0F012C27C
:10A8C0006DC0E0E50E241412A90ED0E0F0AC0EAD80
:10A8D0000F12A924121F8A740202D4FBE50E241160
:10A8E00012A90EE022E50E240E12A90E22E50E2476
:10A8F0001012A90EE02212A8FA22EE12A6433FF58A
:10A90000832212CD68E0F422241312A90E22F582CC
:10A91000E4350FF5832275090012C2C8F5F0E50C85
:10A9200084E5F02285188285198312C994FAA3E080
:10A93000FB22EE240E12C2CBF812C2C8FCE82CF89F
:10A94000E43400F922F07A017B009015A7E0F922A7
:10A95000C082C0839015A7E0F912161802C6E374EE
:10A96000F41207F5EAFEEBFF5480704BEEA2E050C4
:10A970005F121F30EE6401FAEF80528A828B83E00F
:10A980006401702CEA12CEA1120BD0EA12A9D712E0
:10A990000D87EA241212A41BEA2402FCE43509FD07
:10A9A000EA2419FAE43509FB121F427406120D9AC3
:10A9B000AA08AB091216129015A7E0F91216248AFC
:10A9C000088B09EA450970B3EEFAEF6480FB800456
:10A9D0007A007B00029008240FF50AE43509F50B94
:10A9E000780A2274F21207F5890B8A088B098A8289
:10A9F0008B8312C945121F5A8B0DEA450D600479ED
:10AA0000B88074121F66E9F8902CE2E493F9E8C369
:10AA100099400479B280607A157B0012169C8A0CEA
:10AA20008B0DAE0CAF0DEE4F7004791080498E8205
:10AA30008F83E4F012AA84A3E50BF0750A0078086E
:10AA4000120D837C127D00EE2403FAE43FFB121505
:10AA5000E87403120D9A90136112BE1E70089013D1
:10AA600061800C12A06F8882898312AA7A70F41216
:10AA7000AF99121F78790002B8E312C949EA4B88EE
:10AA800082898322A312D18CA322C082C083901317
:10AA90006180048C828D8312D933EC4D60288C82C6
:10AAA0008D83A3A3E069600574FF6970E68C828DD5
:10AAB00083A3A3A3E06A7003A3E06B70D6EC240326
:10AAC000FAE43DFB80047A007B0002C6E374F712CF
:10AAD00007F5E9FD74FE6D70047C0180027C009036
:10AAE000136180096D70027C018882898312BE1E09
:10AAF000601F88828983A3A3A3E06A7003A3E06B2D
:10AB000070E7ECA2E088828983A3A3E050D6F980A5
:10AB10000279FE02B1F4EEF9800CA3A312E6ADEEC9
:10AB2000227402120D9A7F02020B07120D9A7F0304
:10AB3000020B07C082C08379009013618001091263
:10AB4000C9458A828B83E582458370F202C6E3742D
:10AB5000F61207F5E4F508F5097808120D87902C30
:10AB6000E2E49375F013A4A9F012AC9012171474D8
:10AB700002120D9AE9FE74096E7003121F7202AB85
:10AB80001674F61207F574FE120E328518828519B6
:10AB900083E4F0A3F0A818A9198808890978081295
:10ABA0000D877508027509007808120D877C007DF5
:10ABB000007A427B001217207404120D9A02AB2116
:10ABC00074F51207F574EB120E328518828519831D
:10ABD000E4F0A3F0901361807C8E828F83A3A3E0C6
:10ABE000C0E0740212109BD0E012CC3EA982AA836E
:10ABF00089088A09750A007808120D837C127D0085
:10AC0000740612109BAA82AB831215E87403120D0E
:10AC10009A7402120E02880889097808120D877545
:10AC200008137509007808120D87740412109B121E
:10AC3000BDD075F013A4F8AAF075F013E912AC8C2E
:10AC40001217207404120D9A85188285198312AC8C
:10AC50009B8E828F8312A2F5EE4F600302ABD9A8C0
:10AC600018A919880889097808120D8775080275CE
:10AC700009007808120D877C007D007A427B001263
:10AC800017207404120D9A741502AB2BA42AF9E84C
:10AC90002402FCE439FD7A427B0022E02401F0A387
:10ACA000E03400F02274F41207F574EB120E327ED9
:10ACB000007F00A818A919880889097808120D874B
:10ACC0007508028E097808120D877C007D007A4293
:10ACD0007B001217267404120D9AE9706E8E08809C
:10ACE000587402120E02880A890B780A120D8775B1
:10ACF0000A13750B00780A120D87E50875F013A486
:10AD0000F8AAF075F013E50912AC8C12172674043A
:10AD1000120D9AE9701B740312109BAA82AB837404
:10AD20000212109BE0F9121F54E970050EEE70013B
:10AD30000F0508E508700205098518828519831238
:10AD4000A06FC3E50898E509994096EEFAEFFB7409
:10AD50001502900574F61207F58C828D83A3A31259
:10AD6000AF8BF0EA12CBED3BF583E0C0E012AF5CB5
:10AD7000D0E0F012AF3612A06F12AF4012AF8BA32B
:10AD8000F0A3F0EA241FF582E43BF58312A2F5EC70
:10AD900012AF303DF58312AF9912DFD93BF5831224
:10ADA000AF6AA3A3A3A3A3A312AF9588828983E06C
:10ADB000FE8C828D8312AFAC74035EFEC39403409D
:10ADC0000302AF23EE600874026E600302AE4F8C84
:10ADD000828D83E0540CFE740C6E700302AE8CE026
:10ADE000A2E4400D88828983E08C828D83A312AF18
:10ADF000D074086E600302AE8C12AF4A7401F08A00
:10AE0000828B83A3A3A3A3A312C28070128C828D12
:10AE100083E0440C12AFB4A3A312AF6A12AF958CB7
:10AE2000828D83E0A2E4402712AF7412AF9F5001DD
:10AE30000912AF74A3A3A3A3A3A3F0A3EF12AFC5FA
:10AE40008C828D83A3A3A3F0E82403F85001098822
:10AE5000828983E0C0E0EC12D3833DF583D0E01219
:10AE6000AFAC8C828D83E0A2E7507688828983E044
:10AE7000FE8C828D8312AFD074FC5E700C8C828D40
:10AE800083A3E054036403701F02AF2312AF4AE4AC
:10AE9000F0740C6E600302ADFF12AF7A12AF9F40E8
:10AEA0000302AE1F0902AE1F8C828D83A3E0540300
:10AEB000603288828983E0C0E0EC12AF643DF583A4
:10AEC000D0E012AFD18C828D83E054036402701401
:10AED00088828983E0C0E012AF52D0E012AFD18007
:10AEE00003A3E4F0EC12BDB03D12CD7DEC2410FEC6
:10AEF000E43DFF12AF36E0F5088E828F83E0C39801
:10AF00002508F508F0EA2417F8E43BF988828983DC
:10AF1000E0C39508C0E012AF40D0E012C836C39538
:10AF200008500A12AF40E4F012AF5CE4F002AB2626
:10AF30002415F582E422EA241DF582E43BF5832200
:10AF4000EC240DF582E43DF58322EC12BF353DF58E
:10AF50008322EC2414F582E43DF58322EC12A6430F
:10AF60003DF583222413F582E422E0FEA3E0FF8C6A
:10AF7000828D832212AF7AA3A32288828983E0F58F
:10AF800008A3E0FFE5088C828D8322E4F08C828D9B
:10AF900083A3A3A322A3A3A3A3EEF0A3EFF022A372
:10AFA000A3A3A3F0A3EFF0E82402F82212AFCBA8EA
:10AFB00082A9832212AFBCA3A3A3A322F08A828B0F
:10AFC00083A3A3A32212AFCBA3E02212C83FA322E4
:10AFD000A312AFCB08A9832274F41207F574F312FD
:10AFE0000E328A0A8B0BECFEEDFF8E828F83E054CB
:10AFF0000CF508E0A2E75006E508D2E7F508E508F9
:10B00000D2E1F50812C2807006E508D2E4F508E046
:10B01000A2E55006E508D2E5F5087C087D00790038
:10B02000AA18AB191215F4740212109BE50812D875
:10B03000EAC0E0740312109BD0E012B662E50AF099
:10B04000A3E50BF0740512109B12C95D1220327437
:10B050000C12109BE07078740812109B12B6081244
:10B06000C82C3812D17DC0E0740812109B12B0FABF
:10B07000D0E012D178C0E0740812109B12B0F0D06A
:10B08000E0F0740812109B12B0DE12981C12B696F3
:10B0900012B106241112C270C0E012B0D4D0E0F098
:10B0A000EE241412C270C0E0740812109B12B6088D
:10B0B0002435F582E438F583D0E012B652C0E0744E
:10B0C0000812109B12B60CD0E012C95F122038741F
:10B0D0000D029005E82432F582E439F5832212B09E
:10B0E000E22212B0E622E0F8A3E0F98E828F8322FA
:10B0F00012B61C12D37538F5832212B61C2426F51D
:10B1000082E438F58322FAA3E0FBE8242CF582E4FC
:10B1100039F583EAF0A3EBF0EE2274F71207F57E1F
:10B12000008A828B83A3A3A3A3A3A3A3A3A3E06406
:10B1300004600302B1CD12BF2DE0600302B1CD1255
:10B14000B1D13B12BE1C700302B1CD88828983E06D
:10B1500054037079E812BF3539F583E0FA8C828D9B
:10B1600083A3A3E0FBA3E0CB12D3833BF583E06A88
:10B17000705B88828983A3A3A3A3A312B1DCE06AD6
:10B180007003A3E06B70468882898312B1DCA3A3AD
:10B19000E0FFA3E0CF240612C2706A7003A3E06B45
:10B1A000702B88828983A3A3E0F88C828D83A3A36C
:10B1B000E0F9A3E0F5838982A3A3E068600D8C82A7
:10B1C0008D8312C902540C640470027E01EEF98072
:10B1D00023EA12B1D622240FF582E422A3A3A3A36B
:10B1E00012C9498C828D8322740C12109BE0F97471
:10B1F0000D120D9A7F01020B0774F61207F574FC0D
:10B20000120E32EAFEEBFFECFAEDFB8A828B83A38F
:10B21000E05403601690135312BE1E60577900EE7F
:10B22000FCEFFD12E1DF122787804985188285191E
:10B230008312AF99740212109B12B7DDAC18AD19CE
:10B240007A907B1F1221B88A088B09A808A909E8FF
:10B2500049602188828983A3A3A3A3A3A3A3A3A353
:10B260007406F07A008882898312B60812CC02E054
:10B27000F9122116740402AB2374F21207F574F369
:10B28000120E32EAFEEBFF8E828F83A3A3A3A3A349
:10B29000A3A3A3A3A3E0F50A9015A6E0700579BACD
:10B2A00002B5BF750801750900750C00750D007CAD
:10B2B000087D007900AA18AB191215F47405121054
:10B2C0009B740112B66F54046012740212109BE05A
:10B2D000D2E612B66F54087003750803E05410608C
:10B2E0000674404508F508E0540860227402121004
:10B2F0009BE044C012B66F5420600A740312109B86
:10B30000E0D2E08008740312109BE0D2E1F0EE245A
:10B310001512C27012B5ED700374016970067408DD
:10B320004508F5088E828F83A3A3A3A3A3A3A3A399
:10B33000E0701612221285188285198312B7DD7407
:10B340000212109BE0D2E28030640F70107402127F
:10B35000109B12B67774044508F508807F8E828FA3
:10B3600083A3A3A3A3A3A3A3A3E064028E828F83DA
:10B37000700A12C721E8F0A3E9F08060A3A3A3A399
:10B38000A3A3A3A3E06403700DAC18AD19EEFAEF0C
:10B39000FB121FC680468E828F83A3A3A3A3A3A301
:10B3A000A3A3E0640170359013EBE0601074021207
:10B3B000109B12B677750910750AFF801874021277
:10B3C000109BE0440C12B66274FDF0A374FFF0749D
:10B3D000044508F5088E828F83128F24EE241512FF
:10B3E000C270A2E0503F740212109BE0540C701B1C
:10B3F0008E828F8312C945121BDCE9700579BB026E
:10B40000B5BF740212109BE0D2E5F0EE241512C213
:10B4100070A2E05010740212109BE0540C6404708F
:10B4200004E0D2E5F0EE241112C270C0E074041200
:10B43000109BD0E012C95F122032740C12109BE0F6
:10B44000600302B5B8740812109B12B630E508F01C
:10B45000A3E509F012B5E3E0C0E012B5DBD0E0F0FF
:10B4600012B5CCE0C0E0740812109B12B60812AFFF
:10B470006438F583D0E012B696640170119013EB36
:10B48000E0C0E0740812109B12B626D0E0F07408F9
:10B4900012109B12BA6C12B5D6FAE8241CF582E49D
:10B4A00039F583EA12B66AEE2415FAE43FFB8A8284
:10B4B0008B8312D933E812C59739F58312B64CEE57
:10B4C000241C12C270C0E012B5C2D0E012C6D9125C
:10B4D000B5ED70037401697013740812109B12BFEC
:10B4E0001DFAEE241D12C270F9121E528E828F8335
:10B4F000A3A3A3A3A3A3A3A3A3E0C0E07408121073
:10B500009B12B0FAD0E0F0740812109B12B0F0E574
:10B510000AF0740812109B12BDD02428F582E43979
:10B52000F583E50CF0A3E50D12B65A12982312C26A
:10B53000C312B10612B5D6C0E0E82433F582E4396F
:10B54000F583D0E0F0EE241B12C270C0E074081244
:10B55000109B12B60CD0E0F0EE241A12C270C0E0BC
:10B56000740812109B12B6082432F582E438F58371
:10B57000D0E012B65212B5F9120D8312D37B12D954
:10B5800033740B12109B12CEBBFAA3E0FB1215E82A
:10B590007403120D9AEE241512C27054406012907A
:10B5A000137712BE1E600AAA18AB1912E1DF122728
:10B5B00087AA18AB19122038740C12109BE0F902FC
:10B5C000B8DEE82420F582E439F58322EE2419F56B
:10B5D00082E43FF5832212D38EE022E812C830398C
:10B5E000F58322EE2418F582E43FF583225480F897
:10B5F000A3E05401F974806822F508A3E0F5097509
:10B600000A0078082212A8FA12B61C2212B61C24CC
:10B6100034F582E438F58322A3A3A3A312B6202233
:10B62000E0F8A3E0C82212B61C12AF3038F583222E
:10B6300012BDD412B1D639F58322E0FC8A828B8305
:10B64000E02CFCA3E03400FD8A828B83ECF0A3EDB8
:10B65000F022F0EE241312C2CB22F0EE240D12C21F
:10B66000CB22F085188285198322F0A3E4F022F022
:10B67000EE241512C2CB22E0D2E3F012B67F228E66
:10B68000828F8312A077851882851983E8F0A3E959
:10B69000F022E8F0A3E912CD9EE02274F71207F53C
:10B6A0008A828B83A3E0640170047E6380027E64DF
:10B6B0008A828B83E0600D79051220E0E9F8EEC301
:10B6C0009824F3FE901393E0600CF91220E0E9F85F
:10B6D000EEC39824F2FE02B1CD74F61207F574FEA3
:10B6E000120E3285188285198312B7DDE9FEECFA55
:10B6F000EDFB90033012BE1E6035A818A91988080A
:10B7000089097808120D877D01740E12109BE0FCE8
:10B71000EEF990033012CC311227877402120D9A81
:10B720008B09EA450960047900800679B2800279C4
:10B73000B602AB2174F71207F5E9FE90134912BE69
:10B740001E601F740912109BE0F5087808120D8B1B
:10B75000EEF990134912CC311227877401120D9A19
:10B76000800279B602B1F474F71207F58908ECFE8D
:10B77000EDFF79B5E508245E602314600624F860C7
:10B7800037804090033212B7C9603890033212CC30
:10B79000311227878E828F8312B7DD802490134B5E
:10B7A00012D933EC4D601CEEFCEFFD90134B12CC24
:10B7B00031122787E9F9800B90134712B7CF121780
:10B7C0008C790002B1F490135712C949EA4B221246
:10B7D000D937EEFAEFFB22F582E439F583EAF0A3DC
:10B7E000EBF02274F71207F5E9FE79B574AB6E70D1
:10B7F0000B90134712C94512178C790002B1F474EB
:10B80000F11207F5EAFEEBFF8C0A8D0B750801902B
:10B81000139BE06E7003A3E06F701412220C8A0C6D
:10B820008B0DAC0CAD0DAA0AAB0B12178C806612F7
:10B8300022188A0C8B0DEE650C7003EF650D7009F4
:10B84000AA0AAB0B12221E804CAC0AAD0BEEFAEF2B
:10B85000FB121D26E9F508901599E070381226C8EC
:10B86000E97032E508702E90136BE06E7003A3E070
:10B870006F7022EE4F601E750C63750D13750E0010
:10B88000780C120D837C087D00AA0AAB0B1215E818
:10B890007403120D9AA90802E2C174F21207F5EAC4
:10B8A000FEEBFF8C088D09750A0112220C8A0C8BA5
:10B8B0000DAC0CAD0DEEFAEFFB121786E9640170CA
:10B8C0000B90139B12C3B712CD7F800EAC08AD094D
:10B8D000EEFAEFFB121D2CE9F50AA90A8005740D9A
:10B8E000120D9A7F06020B0774F61207F5EAFEEBBB
:10B8F000FF7A0D7B0012169CEA4B6061EE24241245
:10B90000D5D7F0EE242512D5D7A312B99C12D5DDD8
:10B91000A3A312D39A12B981F012B97212B98AE8AC
:10B92000F0A3E912B9B312B98AA3A312CD7F12B959
:10B930006012B981A3A3A3A3A3F0EE243312C270B3
:10B94000C0E012B96AD0E012D18112B994A3E8F034
:10B95000A3E912B9ABC0E012BF2DD0E0F002AB26D4
:10B96000EE242EF582E43FF58322EA12C3A13BF5D3
:10B97000832212B97622EE242AF582E43FF583E091
:10B9800022E08A828B83A3A3A32212B98E2212D42F
:10B99000CEA3A32212B98EA3A3A3A322F012B9A10E
:10B9A00022EE2426F582E43FF58322F0EE243212C3
:10B9B000C2CB22F0EE242C12C2CB2274F41207F573
:10B9C00074FE120E32ECFEEDFFEE241612C270640D
:10B9D000057010EE2406FCE43FFD121FC0E9700361
:10B9E00002BA63AC18AD1912D444121BE285188256
:10B9F00085198312BE1E60678E828F83E06401709A
:10BA000057E875F009A4F8AAF075F009E9A42AF935
:10BA100074C128F8740039F9E8FAE9FB8A828B834B
:10BA2000780812100912BB18120FEA4027851882F5
:10BA300085198312BA6C12C27512BA717808121085
:10BA400009908CA37808120F738A828B837808126E
:10BA50001027800779A2800D12CD767900800679B3
:10BA6000A1800279C8029003A3A3A3A312A073EE3E
:10BA70002212B68C12BA7822EE12C8303FF5832219
:10BA800074F21207F58A0C8B0DECFEEDFF12C274F6
:10BA9000E4F0A3F0908CB3780812100912BB1812CE
:10BAA0000E5E606312BB0F703378B3901392E07038
:10BAB000279013C4E06401701FEE241112C270F9C4
:10BAC0001220C88A088B09A808A90912CD76E8496E
:10BAD00060047800800278A18808802EE060046409
:10BAE00002700A121FD2E9F5087007801DE0640396
:10BAF0007010EEFCEFFDAA0CAB0D121C06E9F50868
:10BB000080087508A180037508A3A90802B8E3EEB0
:10BB1000240E12C2CB64012212BA7878082274F083
:10BB20001207F574F5120E32EAFEEBFFEE240AFC62
:10BB3000E43FFD8C828D8312E6A912BDBA74031214
:10BB40000E128E828F8312C945121FC0E970030244
:10BB5000BC107401120E127403120E0A121BE2744E
:10BB60000112109B12BE1E700302BC10E875F00992
:10BB7000A4F8AAF075F009E9A42AF974BD28FC74A8
:10BB80000039FDE508240E12CEA3E4F00412109B48
:10BB900012A06FE50812B1D2350912CD7D8C828DCD
:10BBA00083121078E508241212CEA312106C908C28
:10BBB000A378081210098C828D837808120F018CEB
:10BBC000828D83780C121009908CE378081210098A
:10BBD000780C7908120786E5084509450A450B7077
:10BBE0002F740112109B12BDD075F009A4F8AAF0B1
:10BBF00075F009E9A42AF974C528F582740039F5AD
:10BC0000837401F07A007B08901221E0F912164E3D
:10BC10008E828F83A3A3A3A3A3A3A3A3A3A3E024A0
:10BC200006FCA3E03400FD8E828F8312C945121FEB
:10BC3000C0122062E96042EE240A12A4128C828DA6
:10BC40008312B630746812B66AE812BDB039F58353
:10BC50007402F090137D1210788C828D8312CC24A4
:10BC600012C82C3CF58312106C908CA3780812102B
:10BC70000990137D7808120F0112BE0970669013A7
:10BC80004712BDC8A3A3A3A3A3A3A3A3A3A312C89E
:10BC900059121786E9701D12220C8A088B09AC080C
:10BCA000AD0990134712C945121786E97006122094
:10BCB00062E960308E828F83A3A3A3A3A3A3A3A36F
:10BCC000A3A312BDC812C945121C0CE960118E82D3
:10BCD0008F83A3A3A3A3A3A312BDF5E4F0A3F01243
:10BCE000BDD9E4F012BE09600302BDAB8E828F8322
:10BCF000A3A3A3A3A3A312E6A5901392E06003025B
:10BD0000BDA09013C4E06401600302BDA0750A3AAF
:10BD1000750B00780A120D877402120E02880A89C8
:10BD20000B780A120D877C017D007A007B001223BC
:10BD3000207404120D9AE97064E508240E12CEA353
:10BD4000740112BE23C0E0E508241112CEA3D0E096
:10BD5000F0E508240F12CEA3743A12B66A90137954
:10BD6000121078E508241212CEA312106C908CA346
:10BD700078081210099013797808120F01908CA39B
:10BD800078081210099013797808120E5E70117AF3
:10BD9000007B02901221E0F912164E800312BDBA08
:10BDA00012BE09700612C70F74A1F0740B02D4FB07
:10BDB00012BDB422240EF582E422E50812B1D63574
:10BDC00009F583E4F0A3F02212D9378E828F832203
:10BDD00012BDD42212A077E8228E828F83A3A3A360
:10BDE000A3A3A3A3A3A3A312BDEB2212B62012BD4B
:10BDF000B438F58322A3A3A3A312BDFD2212B6205B
:10BE0000240FF582E438F583228E828F83A3A3A3C7
:10BE1000A3A3A312B618240FF582E438F58312BD4C
:10BE2000D4492212D96A2274F61207F5EAFEEBFF12
:10BE30007A237B0012169CEE240AF508E43FF509EC
:10BE400085088212B7DB7C237D0079001215F4850A
:10BE5000088285098312BE1E700302BEF4EEFAEF5B
:10BE6000FB121FDE12BE09607412BF0F64018E82C6
:10BE70008F83A3A3A3A3A3A3700712BF05740E808F
:10BE80002212BE1E7011122062E9700B8E828F8307
:10BE9000A3A3E0A2E0500712BEFB740D800512BE02
:10BEA000FB740512D18154036401700712D93D74EB
:10BEB00005800B901393E0C0E012D93DD0E012BF93
:10BEC00022F5838882A3E0F91220E08508828509A3
:10BED0008312B60812CBED38F583E9801A85088203
:10BEE00085098312C9451216A2850882850983E453
:10BEF000F0A3800312CC09F002AB268E828F83A3BD
:10BF0000A3A3A3A3A312B61812CBF338F583228EF2
:10BF1000828F83A3A3A3A3A3A3A3A3A3A312BDEB75
:10BF2000E02212BF262212D6A4F8A3E022EA12BF12
:10BF3000353BF58322240CF582E42274F11207F5D7
:10BF400074E4120E328A0C8B0D8C088D097A237BD7
:10BF50000012169C8A0A8B0BAE0AAF0BEE4F7003D1
:10BF600002C2631222128A0A8B0BA80AA90BE508E7
:10BF7000241512D697687003A3E0698E828F8370B0
:10BF800004740280027401F0E508240DF8E4350918
:10BF9000F988828983E0FAC3E49AFA95E0FBE50820
:10BFA000240E12D6972AFAA3E03BFB8E828F83A33E
:10BFB000A3A3A312C8458E828F83A3A3F0EE2420EF
:10BFC000F582E43FF583E4F0EE2421F582E43FF5C9
:10BFD00083E4F0EEFAEFFB12209285088285098354
:10BFE00012C28070098E828F83A37405800690131D
:10BFF0009312C27CF0EE2417F50AE43FF50B8E8213
:10C000008F83A3E0F91220E0E9850A82850B83F093
:10C01000EE2416F8E43FF9E508240EFAE43509FBAE
:10C020008882898312B63AE5082410FAE43509FBC0
:10C03000850A82850B83E0FC88828983E0F88A8206
:10C040008B83E0C398C39CF812D95DEEFCEFFDAA88
:10C050000CAB0D121FD8E9F50B8E828F83E06402C2
:10C06000701112220C8A088B09AC08AD0912D44455
:10C0700012178CE50B600302C25A750C00750D0097
:10C08000901599E064016005E064027049EE242097
:10C0900012BB126008EE242112BB1270398E828FFF
:10C0A00083A3A3A312CC1412C286EE241612C2706C
:10C0B00012C2ADFAE439FB12169C8A0C8B0DEA45CC
:10C0C0000D601312E6D4120D8312C294AA0C12153D
:10C0D000E87403120D9AEEFAEFFB12209EE9F50BBD
:10C0E000901599E064016008E06402600302C24DAB
:10C0F000E9700302C24DE50C450D700302C25A807F
:10C1000003850E0BEE242012BB12600BEE242112CD
:10C11000BB12600302C253850B0E850C08850D0906
:10C12000750A007808120D8312C2948E828F8312D2
:10C13000C9411215E87403120D9AEE242012C27040
:10C14000600D12C274746812B66AEE24208015EE77
:10C15000242112C270601512C2747403F0A374011A
:10C16000F0EE2421F582E43FF583E4F0EEFAEFFBF4
:10C1700012209EE9F50B708C7C137D007900740908
:10C18000120E0A1215F4741A12109B740112C2C313
:10C1900064687002A3E0704F8E828F8312BDF5E059
:10C1A0006405600302C1017C0879FF8E828F83A33E
:10C1B000A3A3A3E0242A12C85C121684E970030228
:10C1C000C1017C087D0079FF7401120E0A1215F47A
:10C1D0007401120E127A007B0079AB121FBA741927
:10C1E00012109B74FC801512C274E064037004A3E7
:10C1F000E064017008741912109B74FFF0E4F508F4
:10C20000F5097808120D877402120E1274131210B9
:10C210009BAA82AB8312204A7402120D9A8518825F
:10C22000851983E0602D7409120E02880889097847
:10C2300008120D877508137509007808120D877CA0
:10C24000007D001217207404120D9A8006E50C453B
:10C250000D6007AA0CAB0D1216A2EEFAEFFB121638
:10C26000A28003750B10A90B741C02E2BEEE240C15
:10C2700012C2CB22EE12B1D63FF5832212D1572241
:10C28000E0540364012212C28A22E0FAE82AF8E4A8
:10C290003400F9228E828F83A312C2B812C28AEEB2
:10C2A000241612C2CB12C2ADFCE439FD22FAE82AF0
:10C2B000F8E439F9E8240422A3A3E0F88E828F83FE
:10C2C000A3A322F012C2C822EE240FF582E43FF5A8
:10C2D00083E0227901020D4C74F41207F5EAFEEBBB
:10C2E000FF8E828F83A3A3A3A3A3A3A3A312B60845
:10C2F0002424F582E438F58312C280702A12BF0F1D
:10C30000702512C3C5E06405701D12C3C5A3E0F813
:10C310007401686005740668700712BDD9740280E4
:10C320000512BDD97403F0EE240A12CCB912CC3137
:10C33000E4F0EE2408F8E43F128FF82431F582E4AB
:10C340003AF583E0C0E012C3A7D0E012C3D9CA24F3
:10C350002EF582E43AF583E0C0E012C3A7A3D0E053
:10C3600012C8F4C812C39D38F58312C3B7129BEEEE
:10C3700012CD7F12220C8A0A8B0BAC0AAD0B8508FA
:10C380008285098312C85912178C85088285098312
:10C3900012C94512209E12CCB4F002900812C3A11B
:10C3A00022240BF582E42285088285098312C3B119
:10C3B0002212D922A3A32212C3BB2212A07785087E
:10C3C00082850983228E828F83A3A3A3A3A3A3A321
:10C3D000A312D171F58388822212C83AFAA3E0220F
:10C3E00002C2D3C082C08390136D74E4F0A3741FA3
:10C3F000F090136F74F0F0A3741FF090137174F643
:10C40000F0A3741FF090137374EAF0A3741FF0028A
:10C41000C6E374F41207F5EA2408FEE43BFF8E82BB
:10C420008F8312BDD012CBF9E0F50874035508F5DF
:10C430000912D1E812C5AAE508F0A3A882A983E5EC
:10C4400009600974026509600302C4FB740C550895
:10C45000FC600A74086C600574046C7026740265D4
:10C46000097006E508A2E4401A8A828B83A3A3A37D
:10C47000A3A3A3A3A312C5FE12D3753D12C59DA30A
:10C4800008A983740C6C701C12C5FA242812C5E626
:10C490002428F582E43DF583A312CF9BF0E8240223
:10C4A000F8500109740265097006E508A2E4404BE2
:10C4B00012C5FA242A12C5E6242AF582E43DF58342
:10C4C000A312C5A412C60412CF9B12C604A3128FD6
:10C4D0001AE82404F8500109EC600F74086C600A33
:10C4E000740C6C600574046C701112CC182426F561
:10C4F00082E43C12C59DA3A882A9838A828B83A370
:10C50000A3A3A3A3A3A3A312C5CE54037014E50849
:10C51000A2E1400E12CC1812C5973CF583E054807E
:10C52000600812C5B412C59F801A90133DE0C0E0A8
:10C5300012C5B4D0E0F090133D12C59F90133DE0BA
:10C540000412C83FA3A882A983E508A2E750458E3C
:10C55000828F8312C5CE8882898312C5E112C5D32A
:10C560005403603012CC182434F582E43C12CF9985
:10C57000F0E508A2E1501D8A828B83A3A3A3A3A3A5
:10C58000A3A3A3128FFD2435F582E43A12CF99A319
:10C59000F0E82403029008241EF582E422F58312B9
:10C5A000C5A4F022E08882898322E0F8A3E0F9881C
:10C5B000828983228A828B83A3A3A3A3A3A3A3A399
:10C5C000E0FCA3E0CC2432F582E43CF58322E012C7
:10C5D000C5D322FCA3E0CC2425F582E43CF583E01E
:10C5E0002212D18CE022F582E43DF58312C5A4121B
:10C5F000C5F32212D19012C5FE228E828F83E0FDF8
:10C60000A3E0CD22A312C5F3242CF582E43DF583EB
:10C6100022C082C0838A828B8312C6D3FC74035CDF
:10C62000F98A828B83A3A37401F0E960057402691F
:10C630007061740C5CF8600A7408686005740468C2
:10C6400070137402697005ECA2E440098A828B833E
:10C65000A3A37402F0740C68700A8A828B83A3A36C
:10C66000E02402F07402697005ECA2E440258A829D
:10C670008B83A3A3E02404F0E8600F740868600AC9
:10C68000740C68600574046870098A828B83A3A3A4
:10C69000E004F0ECA2E7502A8A828B83A3A3E00493
:10C6A00012C6D9129521E0540360178A828B83A3A6
:10C6B000A3E004F0ECA2E150098A828B83A3A3E0FB
:10C6C00004F08A828B83A3A3E004F080168518828D
:10C6D00085198312D94FA3E022F08A828B83E0224E
:10C6E000120D9AD083D082020D4CC082C0838A8200
:10C6F0008B83A3A3A3A3A3A3A3A3A3A312BE1E6080
:10C700000C8A828B83A3A312C93D1216A280D41275
:10C71000C71322EE240CF582E43FF58322A3A3A3E2
:10C72000A312C72522E0F8A3E0F9851882851983B2
:10C730002274F61207F574F4120E3212C863FCA3C9
:10C74000E0F5838C82A3E0C0E0740212109BD0E07D
:10C7500012C91212C8FB740412109B12CD7F74020E
:10C7600012109BE06404701412C879241212C85C81
:10C77000740612109B12C845241A8035E0640160CB
:10C7800005E064067039EA2402F8E43B128FF812DF
:10C79000C82C3AF583E0C0E0740312109BD0E0127D
:10C7A000C836241312C85C740612109B12C84524A4
:10C7B0001B12C8FB740812109BE8F0A3E9802B74CD
:10C7C0000612109BE4F0A312C874241212C85C7401
:10C7D0000812109B12C852C8241AF582E438F58357
:10C7E000E0C0E0740A12109BD0E0F0740612109BB7
:10C7F00012BE1E602B740612109B12C945121D1A20
:10C80000E96401701B12220C8A088B09AC08AD097F
:10C81000740612109B12C945121786E9640170074D
:10C82000AA18AB1912207A740C02AB2312C830225A
:10C830002412F582E42212C83A2212C83FE022F004
:10C84000888289832212C84922EAF0A3EB12C83FEA
:10C85000E02212C849F8A3E022E02406FAA3E0345B
:10C8600000FB228A828B83A3A3A3A3A3A312C725C1
:10C87000E8F0A3E9F012C8792212C924E022C082AC
:10C88000C08374FD120E3212C8A312E1DDA3E0C012
:10C89000E0740212109BD0E012C95F122080740372
:10C8A00002C6E08A828B83A3A3A3A3A3A312B683A9
:10C8B0008A828B83A3A3E022C082C08374FA120E03
:10C8C000328A828B83A3A312C71D12C918C0E074D9
:10C8D0000212109BD0E012C8F4F5838882A3A3E073
:10C8E000C0E0740512109BD0E012C95F122086745C
:10C8F0000602C6E012C83AF8A3E022F8A3E034002A
:10C90000F922A3A312C99422E02402F8A3E0340080
:10C91000F92212C83A24022212B68C12C92412D962
:10C920001EA3E022EA2402F8E43BF98882898322EC
:10C930002424F582E43FF583228E828F83A3A3A370
:10C94000A3A3A3A3A312C94922E0FAA3E0FB22E513
:10C950000E12A643350FF583E0FC7D00227401F032
:10C96000AA18AB1922C082C08312C988600A24FCAD
:10C97000600B24F9600C800D122014800812201A1C
:10C98000800312202002C6E38A828B8312C992247C
:10C99000FB22A3A312D954E02274F61207F574E423
:10C9A000120E32EAFEEBFF7401120E128E828F839A
:10C9B00012C93F121FC07409120E02880889097833
:10C9C00008120D877402120E127403120E0A12203E
:10C9D0004A7402120D9A851882851983E0603174B9
:10C9E0001912109BE07029901320E070238E828F23
:10C9F00083A3A3A3A3A3E070178E828F8312CA45DB
:10CA0000603E8E828F83A3A312E1DEE06407603074
:10CA10008E828F83A3A3A3A3A3A3A3A3E070148EEA
:10CA2000828F8312C902640560097A347B01121A6D
:10CA300074800DEEFAEFFB90137512CC311227873C
:10CA4000741C02AB2312C99264062274F41207F517
:10CA500074FA120E32EAFEEBFF851882851983EE16
:10CA6000F0A3EF12CC52240812CC49240A12CC496C
:10CA700012CC02E412C95F12200812C6CDF50812CA
:10CA800022128A0A8B0BA80AA90B851882851983A2
:10CA900012D91AE0687003A3E069602EE508A2E5E8
:10CAA0005028851882851983A3E0FB90136D12CC62
:10CAB0003112278785188285198312B608240A1235
:10CAC000BE18700612C6CDC2E5F012C26D60030238
:10CAD000CBE2740312109B7436F0740212109B1296
:10CAE000CC14A3A3E028C0E0740412109BD0E01281
:10CAF000CC3EA3A3E0C0E0740512109BD0E012CDA1
:10CB000097F8A3E0F9E849601BE812CBED39F5830B
:10CB1000E0FAE812CBF339F583E02AF87404121036
:10CB20009BE028F07403120E0A121D868A088B09F6
:10CB3000A808A909E849700302CBD78E828F831217
:10CB4000C94588828983A3A312B7DDE812C82C39AE
:10CB500012D17DC0E0E812CBF9D0E012D178C0E06C
:10CB6000E82425F582E439F583D0E012CDA4C0E0B5
:10CB7000E8242EF582E439F583D0E0F07402121037
:10CB80009BE0FA12CC0F2AFCA3E03400FDE812CBA4
:10CB9000E739F58312B64CE82431F582E439F583A0
:10CBA000EA12CD97FAA3E0FBEA4B6019E8242FFACA
:10CBB000E439FB8E828F83A3A312CC1C12CBF33CEF
:10CBC000F58312B63A8E828F83A3A3A3A3A3A3A354
:10CBD000A3E8F0A3E9800AEEFAEFFB12200E12CCD4
:10CBE00009F07406029005242FF582E4222417F53B
:10CBF00082E4222416F582E4222424F582E439F525
:10CC0000832212BF3538F5832212C7137410221203
:10CC1000D1ECE02212C2BA228A828B83A3A3A3A3FF
:10CC2000A3A3A3A3E0FCA3E0CC22EEFAEFFB9013B6
:10CC30006FE012CC3622F8A3E0F58388822212CC72
:10CC4000422212D190A3A3A322F582E438F583E413
:10CC5000F0A312D96AF8A3E0C82274F61207F5EA25
:10CC6000FEEBFF12C26D70421220028E828F83A3F0
:10CC7000A3A3A3A3A3A3A3A3A312BE1E600612CCC7
:10CC80002A12278712C26D700B12C939121D801229
:10CC9000CCB48015EE240812CCB912C9451216A2E4
:10CCA000850882850983E4F0A3F0EEFAEFFB1220F9
:10CCB0000E02AB2612C713E922F508E43FF50985F9
:10CCC0000882F5832274F41207F58A088B09ECFEBA
:10CCD000EDFF1222128A0A8B0BA80AA90BEE24156B
:10CCE00012C270687003A3E069600EAA08AB091253
:10CCF0001BDCE9700479018011EEFCEFFDAA08ABA2
:10CD00000990137312CC3112278702900874F7121E
:10CD100007F5EA4B701F7E007F0012CD4650247C41
:10CD2000107D00EE2404FAEF3401FB12172C0EEEF6
:10CD300070E80F80E57C107D008A828B8312CD56CF
:10CD400012172C02B1F4902CD7E493F8740193F9E4
:10CD5000C3EE98EF9922E02404FAE43401FB22E4C4
:10CD6000F0A3F0A3F0A3F022EE12C3A13FF58322BB
:10CD700012A073740122EE240FF582E43FF58312B2
:10CD8000B68C2212B68C74032212B68C8E828F83DC
:10CD9000A3A3A3A3A3A32212CD9EA3A3E022129D2B
:10CDA0006DA3A32212CC42A3E02274F01207F57403
:10CDB000ED120E328A0E8B0F8C0A8D0B7EFF7FFFD9
:10CDC0008C828D83E4F0EC450B6005EA450F70071B
:10CDD0007AFF7BFF02CE8F750800750900802474EE
:10CDE000FF6E700374FF6F7012740812109BAA829A
:10CDF000AB8312231AE9700312CE940508E508707C
:10CE0000020509902CDDE493F8740193F9C3E50859
:10CE100098E509995075A818A919880C890D780CFE
:10CE2000120D87750C13750D00780C120D877C00A0
:10CE30007D00E5082411FAE5093401FB1217267478
:10CE400004120D9AAC0EAD0F740812109BAA82AB9F
:10CE500083121786E964017086850A82850B8374C4
:10CE600001F0742312109B12B7C9601CA818A919ED
:10CE7000880C890D750E00780C120D837C137D00D3
:10CE80001215E87403120D9A12CE94EEFAEFFB74A9
:10CE90001302D4FBE5082411FEE5093401FF22E565
:10CEA000082413F582E43509F58322E0850882859C
:10CEB0000983A3A3A3A3A3A3A3A32212CEBF2212D9
:10CEC000CEC32212B62012CBE738F583E02212AF90
:10CED000CBE022129D69A3E02274F71207F574F3E8
:10CEE000120E32EAFEEBFF740C12109BE4F07C0889
:10CEF000FDF9AA18AB191215F48E828F83A3E06492
:10CF000001600A8E828F83A3E06404706F74041240
:10CF1000109B7402F0740C12109BE0705C8E828F78
:10CF200083E085188285198312B66A740212109BF9
:10CF30007421F0740512109B12C95D122032740C1A
:10CF400012109BE07033740812109B12D1687408A1
:10CF500012AA85AA82AB8312CF9B12C6D964027033
:10CF6000118E828F8312D931E82402FAE439FB1240
:10CF7000178CAA18AB1912203802B1E88E828F8361
:10CF8000A3E064027009740412109B740A80857413
:10CF90000C12109B74B3F080E0F58312C5A4A32299
:10CFA00074F41207F574B6120E328A088B098A825D
:10CFB0008B83A3A3E06404600302D149901599E038
:10CFC000700302D149122062E9600302D149740F53
:10CFD000120E127A007B0079AB121FB4850882858D
:10CFE000098312D933740F120E0A121D20E970033F
:10CFF00002D1497437120E02880A890B780A120D81
:10D00000877402120E1285088285098312C945129F
:10D01000204A7402120D9A851882851983E07003E4
:10D0200002D149744712109BE06401600302D149A8
:10D030007427120E02880A890B780A120D87750A66
:10D0400010750B00780A120D877C007D007A027B38
:10D05000011217267404120D9A740112109B7403A6
:10D06000F07417120E02880A890B780A120D877461
:10D0700029120E02880A890B780A120D877C087D16
:10D08000007405120E0A1220E67404120D9A740E32
:10D0900012109BE4F07C08FDF97402120E0A1215BE
:10D0A000F4740212109BE4F0A3F0740412109B7449
:10D0B00001F0740712109B7401F0740612109B7437
:10D0C0001AF07402120E0A122032740E12109BE033
:10D0D0007077740A12109B12CEBBFEA3E0FF8E8203
:10D0E0008F83740F12D150F012220C8A088B0975AD
:10D0F0000A007808120D837C087D007412120E0A53
:10D100001215E87403120D9A740F120E12EE240217
:10D11000FAE43FFB12178C7417120E028808890973
:10D120007808120D837C107D00EE240AFAE43FFBA0
:10D130001215E87403120D9A7402120E0A122038A6
:10D14000740E12109BE0F9800279C2744A029005B5
:10D1500012D15E12D15722E08E828F83A322F085F6
:10D160000882850983A3A32212D171F98882898359
:10D170002212CEC3F8A3E02212CC42E022F583743F
:10D180000112D1852212D190A3A3E02212D19022C4
:10D19000F08E828F8322C082C083121FFC90137591
:10D1A0007426F0A37420F002C6E3C082C0837C081A
:10D1B00079FF90134712C94512168402C6E374F72B
:10D1C0001207F5E9FE12B1D13B12BE1C601788822E
:10D1D0008983A3E05403700DEEFB12D1E812D21B39
:10D1E000E0F912276A02B1F412D1EC22E812C3A1CD
:10D1F00039F58322C082C083EAF8EBF988828983FB
:10D20000A3A3A3A3A3E0FB88828983A3A3A3A31260
:10D21000D21BA3E0F912276A02C6E3E0FA888289EA
:10D2200083A3A32274F01207F58A0C8B0D8C0E8D4C
:10D230000F890B12A63E12D8FB2430FA7B0012167F
:10D240000C8A088B09AE08AF09EE4F700302D37148
:10D250008E828F837401F0850C08850D09750A0094
:10D260007808120D837C177D00EE2419FAE43FFB49
:10D270001215E87403120D9A850E08850F097808B7
:10D28000120D837C097D00EE2402FAE43FFB1215A7
:10D29000E87403120D9A741012109B12BA6C240BCE
:10D2A00012CD79741212109B12C5AAE0C0E012C20E
:10D2B00074D0E012AFC5C0E012D37BD0E012CECE66
:10D2C000C0E012A8F6D0E0F0741412109BE0C0E0A9
:10D2D00012D395D0E012D39AE4F0A3F07415121093
:10D2E0009B121078EE12AF643FF58312106C12D3CC
:10D2F00089E50B12D456A3A312BA68240D12CD7976
:10D30000741912109BE0C0E012B5E3D0E012D90905
:10D31000E0602BEE2430FAE43FFB12D3743F12D3CB
:10D32000A2F508A3E0F5097808120D83E50C12A612
:10D330003F350D12C9561215E87403120D9AEE24EA
:10D340001A12C2705403601D90135512BE1E600C59
:10D35000EEFAEFFB12E1DF1227878015EEFAEFFB02
:10D36000121612800CEEFAEFFB90133CE0F9121645
:10D370001802D4FEEE2427F582E422EE12D3833F76
:10D38000F583222411F582E422EE12D38E2212CBF1
:10D39000ED3FF58322EE12BA7922F012D3743FF5F5
:10D3A0008322F583EAF0A3EBF0E50C240E12D912E8
:10D3B000E02274F21207F58A0C8B0D7A207B0012A2
:10D3C000160C8A088B09AE08AF09EE4F606B8E828F
:10D3D0008F83740412D47B12A07D12D45B8E828F53
:10D3E00083A3A3A3A3A312D45612E6DC120D837C5D
:10D3F000107D0012D4441215E87403120D9A850CA6
:10D4000082850D8312D92BEE2416FAE43FFB121D00
:10D4100014850C82850D83A3A3A3A3A3A3A3A3A315
:10D42000A3E0C0E012D43CD0E012D466C0E012D435
:10D430004CD0E012D47012161802B8E3EE12C59761
:10D440003FF58322EE2406FAE43FFB22EE241FF58B
:10D4500082E43FF5832212D460A32212D460E0223A
:10D4600012E694A3A322F0E50C240B12D912E022B9
:10D47000F0EEFAEFFB901221E0F922F0850C8285A4
:10D480000D8312B0E2A3A312B68C850C82850D83A6
:10D49000A3A32274F61207F5EAFEEBFF7A057B00E0
:10D4A00012160CEA4B60248A828B83740812C5E141
:10D4B00012D4CEE8F0A3E912D1818A828B83A3A390
:10D4C000A3A3F0901221E0F912161802AB26F8A3DC
:10D4D000E0F98A828B83A3A32212D4E3E02212D440
:10D4E000E3A32212D4E9A3A322F0850E82850F8341
:10D4F0002212D4E9E0F8A3E0227418120D9A7F08F2
:10D50000020B0774F61207F574EC120E32EAFEEB0A
:10D51000FF8E828F8312C94512228AE9700612207B
:10D5200062E96002807C8E828F83A3A3E0706C8EA0
:10D53000828F83A3A3A3A3A3E06404705E7401128B
:10D540000E02880889097808120D877402120E12DB
:10D5500090134712C94512204A7402120D9A851879
:10D5600082851983E06034741112109BE0640170AD
:10D570002A12D5A7120D87750801750900780812BF
:10D580000D877C107D007A117B0112172074041224
:10D590000D9A79001226F27A0180027A007901123E
:10D5A00026D4741402AB237402F0858208858309A3
:10D5B000780822C082C08390138374CEF0A37420B5
:10D5C000F090138574C2F0A37420F002C6E3E8243F
:10D5D000FF18E934FFF922F582E43FF583E08A82FF
:10D5E0008B832274F51207F512D8CE850882F58355
:10D5F000E054078E828F83A312D6A0131313541FF7
:10D600005403C0E012D68BD0E012D6A0C413540746
:10D61000F50A7904A3AA82AB831215FAEAF8EBF9AA
:10D62000ECFAEDFB12D39512106C12D6837405F050
:10D63000E50AA2E0501AE5082405FCE43509FD12CC
:10D64000D44412178CEE241612C2702408F0800CF9
:10D650007C087D00790012D4441215F412BB0F70BF
:10D660001FEE2416F8E43FF988828983E0FAE50882
:10D670002A12D697C0E012D37BD0E012C83604F04D
:10D6800002AB2EEE12CBF33FF58322EE12BDB43F78
:10D69000F58322E5082414F582E43509F583E022B8
:10D6A00012D6A422F0850882850983E02274F21242
:10D6B00007F58A0A8B0BEA241612D741640D700411
:10D6C0007E0180027E008A828B83A3A3E0F88A8297
:10D6D0008B83A3A312D8DDEEC43354E0F9EA12D74A
:10D6E0005933333354F8F88A828B83A3E048498551
:10D6F0000882850983F0A3858208858309EA12D709
:10D7000062120BD0AA08AB091216787404120D9A93
:10D710008A088B09EEA2E05016E50A2406FCE435DF
:10D720000BFD12178CE5082408F50850020509E5E1
:10D730000A12D75964017006E50A12D74AF002B8F6
:10D74000E3F582E4350BF583E02212D383350BF544
:10D7500083E08508828509832212BDB4350BF583E9
:10D76000E02212C830350BF5832274F41207F574E9
:10D77000C7120E3212D8CE8E828F83E0700512202F
:10D7800098800CA3E0F8850882850983E048F012B0
:10D79000D395120BD07430120E128508828509833E
:10D7A000E0F912D4441220BC7404120D9A8E828FB8
:10D7B00083A3A3E0C0E0740112109BD0E0F0EE243C
:10D7C0001612C270C0E0740212109BD0E012D17821
:10D7D000C0E0740312109BD0E012D8EAC0E07404D9
:10D7E00012109BD0E012C2C364017004A3E0640174
:10D7F0007018740C120E12EE242212C270F9EE246C
:10D8000018FAE43FFB121BD0800E740C120E121299
:10D81000C27412C945121C18740C120E02740A123A
:10D82000109BE8F0A3E912B66274FF12D8F064020C
:10D830007009851882851983E4800DE064037043C4
:10D840008518828519837402F0741C120E02880AEE
:10D85000890B780A120D87740E120E02880A890B42
:10D86000780A120D877C087D007404120E0A1220BB
:10D87000E67404120D9A741C120E02740A12109BA4
:10D8800012CD7F8E828F83A3A3A3A3120BD4742EF9
:10D89000120E127403120E0A8E828F83E0F9122088
:10D8A000D47402120D9AE9FE85088285098312DF7D
:10D8B000E9741C120E0A1215F47C107D00790074B4
:10D8C0000C120E0A1215F4EEF97439029005EAFEF4
:10D8D000EBFF8E828F8312C2B812D8DD22A3A3E0A1
:10D8E00028F508A3E03400F5092212D18CA3E02228
:10D8F000F0EE240E12C2CB22F582E412D915E022FA
:10D90000E50C12BF3512D91522F0E50C241012D9FE
:10D910001222F582E4350DF5832212D91E2212D986
:10D920002222E0FAA3E0F5838A8222A3A3A3A3A381
:10D93000A3A3A312D93722E0FCA3E0FD228E828F9D
:10D9400083A3A3A3A3A3A3A3A3A3A312D94F221288
:10D95000D954A322E0F8A3E0F58388822212CC42B6
:10D96000F022EAF0A3EB12D96A22F0851882851919
:10D9700083E02274F41207F58A088B097808120DE7
:10D9800087750A11750B00780A120D877C007D00DF
:10D990007A3A7B001217267404120D9AE9701090DF
:10D9A0001379121078E508241112CEA312106C021C
:10D9B000900874F51207F574EF120E32E98518829B
:10D9C000851983F08A088B09750A007808120D837F
:10D9D0007C107D00740412109BAA82AB831215E8A0
:10D9E0007403120D9AA818A91988088909780812D1
:10D9F0000D877508117509007808120D877C007D68
:10DA0000007A3B7B001217207404120D9A7C117D62
:10DA1000007900AA18AB191215F4741102AB2B741B
:10DA2000F01207F574EB120E32E9FE7A117B001248
:10DA3000169C8A088B09EA4509700302DB5F7808A7
:10DA4000120D87750A11750B00780A120D877C007C
:10DA50007D007A3B7B001217267404120D9AE96050
:10DA60000302DB4B850882850983E06E600302DBDD
:10DA70004B7A117B0012169C8A0A8B0BEA450B70BD
:10DA80000302DB4B780A120D87750C11750D0078B7
:10DA90000C120D877C007D007A3A7B0012172674E9
:10DAA00004120D9AE9600302DB377808120D8778BB
:10DAB0000C120D877C007D007A3A7B0012172074CF
:10DAC00004120D9A9013C47401F0908C77780C12A4
:10DAD0001009901379780C120FEA4006901379120E
:10DAE000CD5F85080C85090D750E00780C120D832D
:10DAF0007C117D007403120E0A1215E87403120DD6
:10DB00009A901379121078741112109B12106CA84D
:10DB100018A919880C890D780C120D87750C1575CC
:10DB20000D00780C120D877C007D007A827B00123C
:10DB300017207404120D9A7C117D007900AA0AAB9B
:10DB40000B1215F4AA0AAB0B1216A27C117D0079F8
:10DB500000AA08AB091215F4AA08AB091216A274A0
:10DB60001502D4FB74F31207F574FF120E32890C00
:10DB70008A098B08ECFEEDFFEBC43354E0F8EA337E
:10DB8000333354F8450C488E828F83F0A3AE82AFB6
:10DB900083740E12109B120BD0EEFAEFFB12167864
:10DBA0007404120D9A8A0A8B0BAE0AAF0BE508605B
:10DBB0001912220C8A0A8B0BAC0AAD0BEEFAEFFBA2
:10DBC00012178CEE2408FE50010F74016509703F96
:10DBD000750A3A750B00780A120D877402120E024C
:10DBE000880A890B780A120D877C017D007A007BF8
:10DBF000001223207404120D9AE9700D8518828595
:10DC00001983E08E828F8380058E828F83E4F07487
:10DC100001120D9A02A3F974F71207F58908ECFEB8
:10DC2000EDFFEAFCEBFDEEFAEFFB12178C74091224
:10DC3000109B120BD0EE2408FAE43FFB1216787406
:10DC400004120D9A8A828B83029D5FE9F8740204A4
:10DC500058F97402B900028004C333D9FC541CF98A
:10DC6000020D4C74F41207F574FE120E3289087519
:10DC70000A3A750B00780A120D877403120E028897
:10DC80000A890B780A120D877C017D007A007B00DF
:10DC90001223207404120D9AE97060740112109B13
:10DCA000E06508604E750A3B750B00780A120D8717
:10DCB0007402120E02880A890B780A120D877C0101
:10DCC0007D007A007B001223207404120D9AE97003
:10DCD0002E851882851983E06508701FE0F87401AD
:10DCE00012109BE0C398500F851882851983E0F9C4
:10DCF0001220B07E3A80067E3B80027E007F00EEDE
:10DD0000FAEFFB02900374F01207F574D2120E3290
:10DD1000740312109BE9F0740112109B12B7DDEC32
:10DD2000851882851983F0740412109BEDF0740637
:10DD300012109B740E12BE23C0E0740512109BD00B
:10DD4000E0F0740412109BE0C0E0740712109BD046
:10DD5000E0F0901393E0C0E0740812109BD0E0F064
:10DD6000740912109B7401F0740312109BE060039D
:10DD700002DE5C75083A7509007808120D87741286
:10DD8000120E02880889097808120D877C117D001F
:10DD90007A007B001223207404120D9AE9600302BA
:10DDA000DE50741112109BA882A983740E12109B6E
:10DDB00012CD7F901379780812100985080C850917
:10DDC0000D850A0E850B0F908CA3780C120F7390A3
:10DDD0001379780C1210277808120D7F7404121032
:10DDE0009BE0F8740512109BE028FCA3E03400FDD2
:10DDF0007B017A01740C12109BE0F91220B67404B6
:10DE0000120D9A12220C8A088B09AC08AD097421F4
:10DE1000120E0A12178C90138112AC9B9013811270
:10DE20009BE5902CD37808120EED4015908CA378CA
:10DE3000081210099013797808120E5E600302DE52
:10DE4000EB7A007B02901221E0F912164E02DEEB13
:10DE5000740E12109BE4F0A3F002DEEB85188285AD
:10DE60001983E0F8740112109BE02812C8FBE81235
:10DE7000DFDA39F583E0F91220C88A088B09A8088F
:10DE8000A909743A6849600302DF4375083A7509C5
:10DE9000007808120D877412120E0288088909781A
:10DEA00008120D877C117D007A007B0012232074FC
:10DEB00004120D9AE9700302DF7B740E12109BE4CA
:10DEC000F0A312BE23F8740112109B12DFE0740855
:10DED00012109BE0F88E828F83E048F0EE2405FC60
:10DEE000E43FFD7421120E0A12178C8518828519E1
:10DEF00083E0F8740112109B12DFE08E828F83A3FF
:10DF0000A982AA8389088A09750A007808120D83F4
:10DF10007C047D00742C12109BAA82AB831215E83E
:10DF20007403120D9A8E828F83E0C0E0742D12105C
:10DF30009BD0E0F0740E12109B12BE1E705279A19D
:10DF400002DFD4743B6849600302DEBA75083B7592
:10DF500009007808120D877412120E0288088909C8
:10DF60007808120D877C117D007A007B0012232037
:10DF70007404120D9AE9600302DEBA741112109B48
:10DF8000A882A983740E12109BE8F0A3E902DEC2F6
:10DF9000740112109B120BD47423120E1274071208
:10DFA0000E0A740512109BE0F91220D47402120DAF
:10DFB0009AE9FE851882851983E0F8740112109B96
:10DFC00012E6BC12DFE9741112109BAA82AB831215
:10DFD00015F4EEF9742E02D4FBEA240DF582E42246
:10DFE000E028FEA3E03400FF22E054F8F07C107D2E
:10DFF0000079002274F01207F574E8120E327403EF
:10E0000012109BE9F0740412109B12B64CEAFEEB5E
:10E01000FF7508007509008E828F83A3A3A3A3A3B5
:10E02000A3A3A3A312CD7012109B12CD7F74011273
:10E03000109B12C94512234A9014277450F0A37400
:10E040002312D8EAF88E828F83E028F50BA3A3A3CE
:10E05000E0C394048E828F83A3A3E05009250BF5BF
:10E060000B750A008002F50A8E828F83A3A3A3E0BA
:10E07000F91220E0E9851882851983F074281210BE
:10E080009BE0F50EA3E0F50FAA0AA80BE50E28F811
:10E09000E4350FF9E82AF8E439F9740612109B12F6
:10E0A000CD8312109B12C27CA3A3600302E144E063
:10E0B000C3940440037509017408120E02880C8988
:10E0C0000D780C120D87740312109B120BD4E50B04
:10E0D000F50C750D00780C120D87780E120D87EA7D
:10E0E000F50C780C120D8712E1B0120D877B0274CB
:10E0F0001012109B12D933740C12109BE0FAA9096C
:10E1000012236E740C120D9AE9F9600302E1AD78E6
:10E1100000851882851983E0FAE8C39A400302E17A
:10E12000ADE8FA740812109B12E2C6E0C0E0740673
:10E1300012109BE02AFCA3E034008C82F583D0E02F
:10E14000F00880CDE0C39404400375080174081200
:10E150000E02880C890D780C120D87740312109B27
:10E16000120BD4E50BF50C750D00780C120D8778A9
:10E170000E120D87740812109BE0FAE50A2AF50CBE
:10E18000E43400F50D780C120D8712E1B0120D8702
:10E190007B02741012109B12D933740C12109BE086
:10E1A000FAA908122374740C120D9AE9F902D4F931
:10E1B000A80BE50E28F50AE4350FF50B780A227452
:10E1C000F71207F5E9FE90138312BE1E600AEEF9FE
:10E1D00012E1DF1227878002790102B1F4F8A3125D
:10E1E000CC382274F71207F5E9FE90138512BE1E93
:10E1F000600AEEF912E1DF1227878002790002B18E
:10E20000F474F11207F574E0120E327800742F12D4
:10E21000109B12A2F5EE2812C2706436C0E0851879
:10E2200082851983E58228F582E43583F583D0E081
:10E2300012E6E840E0743112109B12E6CE120D8710
:10E240008C0A8D0B780A120D87EAFCEBFD790174BC
:10E2500004120E0A1220EC7404120D9A85080C8523
:10E26000090D750E00780C120D837C107D0074135F
:10E27000120E0A1215E87403120D9A7800E8FAEEED
:10E280002A12C270645CC0E085188285198312E28C
:10E29000C6D0E012E6E840E57808120D87750880E0
:10E2A0007509007808120D877414120E1279017422
:10E2B00004120E0A1220EC7404120D9A7420120D2E
:10E2C0009A7F07020B0712E2CA22E5822AF582E44E
:10E2D0003583F5832274F01207F574DF120E32E9EC
:10E2E000851882851983F08A0C8B0D8C0E8D0F7426
:10E2F0003112109B12E6A974037808121018AA08AC
:10E3000074047808121018AE08AF09EA540FF50B20
:10E310007C107D007900743312109B12C9451215D0
:10E32000F4851882851983E06069743312109B129A
:10E33000E6DC120D837C107D007404120E0A1215A7
:10E34000E87403120D9A850C08850D097808120DE2
:10E35000837C107D00743612109B12C9451215E89B
:10E360007403120D9A743312109B12E6C8120E0A2F
:10E370001220F27800E8FAE50C2A12D8F8FC74337F
:10E3800012109B12E6E540ED743112109BE02480E0
:10E3900012AC9E850E0C850F0DEEF8EFF9E824FF08
:10E3A0001EE934FFFFE849606F743312109B12E6D8
:10E3B000DC120D837C107D007404120E0A1215E825
:10E3C0007403120D9A850C08850D097808120D83C7
:10E3D0007C107D00743612109B12C9451215E8742A
:10E3E00003120D9A743312109B12E6C8120E0A1211
:10E3F00020F27800850C82850D83E0FCE8FA743306
:10E4000012109B12E6EF12E69485820C85830D08AC
:10E41000E8C39410508380DCE50B600302E4BB7416
:10E420003312109B12E6DC120D837C107D00740405
:10E43000120E0A1215E87403120D9A7C0E7D0079F3
:10E4400000743312109B12C9451215F47433121064
:10E450009B12CC317480F0743112109BA3E0C0E0A9
:10E46000743312109B12BDE7D0E0F0743112109B90
:10E47000E0C0E0743312109B12BDF9D0E0F07808D0
:10E48000120D837C107D007414120E0A1215E874AC
:10E4900003120D9A743312109B12E6C8120E0A1260
:10E4A00020F27800E8FA741112109B12E69D121007
:10E4B0009B12E6E5400302E68F80E9C3940E7433B5
:10E4C000500302E5DF12109B12E6DC120D837C1074
:10E4D0007D007404120E0A1215E87403120D9A7C62
:10E4E000107D007900743312109B12C9451215F487
:10E4F000750E00780C120D83AC0B7D007436121073
:10E500009B12C9451215E87403120D9AA80B7433B7
:10E5100012109B12E6B57808120D837C107D0074F2
:10E5200014120E0A1215E87403120D9A74331210A5
:10E530009B12E6C8120E0A1220F27800E8FA741153
:10E5400012109B12E69D12109B12E6E540EE74330A
:10E5500012109B12E6CE120D837C107D0074041203
:10E560000E0A1215E87403120D9A7C0E7D007900D4
:10E57000743312109B12C9451215F4743112109B9A
:10E58000A3E0C0E0743312109B12BDE7D0E0F0743A
:10E590003112109BE0C0E0743312109B12BDF9D011
:10E5A000E0F07808120D837C107D007414120E0ABE
:10E5B0001215E87403120D9A743312109B12E6C8F8
:10E5C000120E0A1220F27800E8FA741112109B124F
:10E5D000E69D12109B12E6E5400302E68F80E912E9
:10E5E000109B12E6DC120D837C107D007404120E69
:10E5F0000A1215E87403120D9A7C0E7D00790074DE
:10E600003312109B12C9451215F4750E00780C12C6
:10E610000D83AC0B7D00743612109B12C945121588
:10E62000E87403120D9AA80B743312109B12E6B50E
:10E63000743112109BA3E0C0E0743312109B12BD22
:10E64000E7D0E0F0743112109BE0C0E07433121098
:10E650009B12BDF9D0E0F07808120D837C107D008C
:10E660007414120E0A1215E87403120D9A74331200
:10E67000109B12E6C8120E0A1220F27800E8FA7413
:10E680001112109B12E69D12109B12E6E540EE74EB
:10E690002102D4FBF0850C82850D83A32212E2CAED
:10E6A000E0FC743322A3A3A3A312E6AD22E0F50895
:10E6B000A3E0F5092212E6BC7480F022E028FAA358
:10E6C000E034008A82F5832212D93774012212E6DF
:10E6D000AD7808228E828F83A3A3A3A312E6AD7523
:10E6E0000A0078082212E6EFF008E8C3941022E04E
:10E6F0002AF9A3E034008982F583E06C2274F612D3
:10E7000007F5EAFEEBFF8C088D0912234AAC08AD31
:10E7100009EEFAEFFB12235002AB26C082C08390B1
:10E72000126DE4F0A3F07C3E7D137A027B12121787
:10E730008C121EB2121D7AD083D082020D4C74F25C
:10E740001207F574FE120E32E9FEEAFF8B098C08FF
:10E7500074016E600874026E600302E874EF600872
:10E7600074036F600302E800122062E960537403CF
:10E770006F604E1216068A0A8B0B780A120D877587
:10E780000A01780A120D8B750A00780A120D8BE5C2
:10E7900008F50A780A120D8BE509F50A780A120DB8
:10E7A0008B90121C120BD090151EE0F97C167D1375
:10E7B00090159712F53C121D98740A120D9A02E8F2
:10E7C000627902121A5C90151EE0F990121C121068
:10E7D00060121D8CE9F874036F600302E864901204
:10E7E0006FE0F9740129F0E9C39405407790121C99
:10E7F000E4F0A374F8F0A374FFF0A37407F080644E
:10E8000074016F706474016E790A702E121A5C7A4A
:10E81000007B049013F5E0F9121762AA18AB19797E
:10E8200050121C6612F8259013A812E892790090F5
:10E8300013A812F53C121DF28051121A5C9015714A
:10E84000120BD07A007B20901221E0F91217567437
:10E8500004120D9A90151EE0F990121C121060120D
:10E860001DA4E9F8E8700D80227C937D8B7AB27B41
:10E870008A1211AA908CE3120BD07A017B009012BD
:10E8800021E0F91217567404120D9A740202F9B6B7
:10E89000A3A3E8F0A3E9F02274F61207F5E9FFEA72
:10E8A000FE7AD1F912162A8A828B83E5824583701B
:10E8B0002A7A027B0012160CEA4B700E7A107B004B
:10E8C000901221E0F912164E80148A828B8374D143
:10E8D000F0EFA3F0EEF91216188003EFA3F002E9AF
:10E8E000F474F71207F58908900301E0FEA3E080B5
:10E8F0001C8E828F8312E939E0600BA3A312F57599
:10E90000FAA908121A868E828F8312FDA5FFEE4F98
:10E9100070DF90155AE0F47003A3E0F4600A9015DC
:10E920005AE0FAA908121A861222129011F812F56A
:10E930004712220C7F01020B07A3A312F80C2274CA
:10E94000F41207F5890B7D00740C12109B12F82B42
:10E9500080010DEDC3950B503D750A008002050A3C
:10E96000E50AC39C50ECED25E0FEE433FFEA2EF50A
:10E9700082EB3F12E99DF509AE0AEE2EFEE433FF6D
:10E98000E82EF582E912F7DB65087004A3E065095B
:10E9900070CC7901800279007F04020B07F583E0D7
:10E9A000F508A3E022020D4C74F61207F512EA6096
:10E9B0007003A3E06D701775082A750912780812A4
:10E9C0000D87EEFA121B2E7402120D9A801F750825
:10E9D000027509807808120D878C088D0978081255
:10E9E0000D8712EA40121B467404120D9A800574BA
:10E9F00002120D9A7F02020B0774F61207F512EA53
:10EA0000607003A3E06D70177508377509127808F8
:10EA1000120D87EEFA121B347402120D9A801F75C4
:10EA200008037509807808120D878C088D0978080D
:10EA3000120D8712EA40121B467404120D9A80B41C
:10EA4000EE240EF582E43FF583E0FD7C80EE2402A7
:10EA5000FAE43FFBEE240FF582E43FF583E0F92270
:10EA600012F7E0F8E4C8F9EA28FCE439FD9011F85F
:10EA7000E06C2274F61207F574FE120E32EAFEEB19
:10EA8000FF851882851983E4F0A3F012F6AF12F720
:10EA9000FEFBECFA88828983A3A3E0F9750900756F
:10EAA0000800600574FF6970057508828024901164
:10EAB000F8E06A7003A3E06B7015AA18AB1912276F
:10EAC0003AE9FA12F7BE70037508838A0980037564
:10EAD000088085188285198312F805FDA908EEFAC9
:10EAE000EFFB121B3AE509600B12F7BE600612F548
:10EAF000361216A202E9EF020D4C74F21207F5EA83
:10EB0000FEEBFF75080075090012F6AFF58312E9F8
:10EB10003B12EB71122212EA650A7003EB650B706F
:10EB20001212272EE914F50879017A397B1212277F
:10EB300028800375098012F7D5F50C780C120D8B1F
:10EB4000750C39750D12780C120D877808120D8B23
:10EB5000780A120D87E509F5087808120D8B12F76F
:10EB6000CA12F7D8F97A057B8012277C740702F95C
:10EB7000B6E0FAA3E0F8E4C8F9EA28F50AE439F5C2
:10EB80000B2274F61207F5E9FF7E0080308A828B33
:10EB90008312E99FF8E4C8F9E50828E439F509EE9D
:10EBA00025E0F8E433F9EC28F582ED39F583E50842
:10EBB000F0A3E509F0EA2402FA50010B0EEEC39F20
:10EBC00040CB02E9F474E81207F574F8120E321221
:10EBD000F541750F00751600751700751400751551
:10EBE0000085188285198312F1FEC812F6AB38121F
:10EBF000FB8712EB728E828F83A3A3E0FA8E828F43
:10EC000083A3A3A3E0F9EAF508E439F5098518829E
:10EC1000851983E0240FF8A3E03400F9740612107C
:10EC20009B12F006240EF8A3E03400F974041210CD
:10EC30009B12F0062402F8A3E03400F974021210CB
:10EC40009B12E892AA0AAB0B12228AE964016018AF
:10EC5000AA0AAB0B12228AE9704E9011F8E0650AFD
:10EC60007004A3E0650B6040740412109B12EFF572
:10EC7000120D8BE4F508F5097808120D8778081253
:10EC80000D8B780A120D877508807808120D8B7429
:10EC90000912109B12EFEE12109B12EFFD12277C4F
:10ECA0007407120D9A02EFE98E828F83A3A3A3A3A8
:10ECB000E0F50BEE2405FE50010FE50B602612FD7A
:10ECC0006A12169C8A168B17EA45176017AC16ADA8
:10ECD00017EEFAEFFBA90B121ABC8A0C8B0DAE0CC7
:10ECE000AF0D8003750B008E828F83E0F50AA3AE13
:10ECF00082AF83601E12FD6A12169C8A148B15EA7D
:10ED00004515600FAC14AD15EEFAEFFBA90A121A07
:10ED1000BC8003750A009003018047E4F0A3F0EE85
:10ED2000FAEFFB851282851383A3A312F57EA3A3BA
:10ED300012F575F9121618851082851183E0C0E06E
:10ED4000A80F743928F582E43412F583D0E0F00579
:10ED50000FA2005007AA10AB111216A285128285CD
:10ED60001383E0F512A3E0F513E5124513700302D7
:10ED7000EF24851282851383A3A312F82BE8FAE906
:10ED8000FB8A828B83E0FC60D3851282851383A388
:10ED9000A3A3A3A3A3A3A3E0A2E050C085128285EE
:10EDA0001383A3A312E939E5824583600FECFA7956
:10EDB000011227878A108B11D20080118A828B83DF
:10EDC000A3A3A3A3E0F510A3E0F511C200E510454D
:10EDD00011700302ED51851082851183A3E065084F
:10EDE0007004A3E06509600F74FF6508700474FF88
:10EDF0006509600302ED51851082851183A3A3A3E9
:10EE0000A3A3A3A3120BD4851082851183A3A3A36C
:10EE1000A3A3A3E0FCAA16AB17A90B121A927402C3
:10EE2000120D9AE97038851082851183A3A3A3A3DC
:10EE3000A3A3A3A3A3A3120BD4851082851183A33C
:10EE4000A3A3A3A3A3A3A3A3E0FCAA14AB15A90A9D
:10EE5000121A927402120D9AE9700302ED51E50A3A
:10EE6000250BC333240AFA7B0012160C8A0C8B0D77
:10EE7000AE0CAF0DEE4F700302ED378E828F8374B0
:10EE8000D2F0740212109B12F575F8A3E0F98E828D
:10EE90008F83A3A3E812FBBFE50B12FB98A3A3A3E8
:10EEA000E50AF0EE2405F582E43FF583E50B6028E2
:10EEB00012FDAC3FFB12F54785160C85170D750E3C
:10EEC00000780C120D83AC0BEC2CFCE433FD121516
:10EED000E87403120D9A8004E4F0A3F0EE2408F520
:10EEE00082E43FF583E50A700302ED1BA80BE828D6
:10EEF000F8E433F9EE28F8EF39F9E812FDAD39FB03
:10EF000012F54785140C85150D750E00780C120D41
:10EF100083AC0AEC2CFCE433FD1215E87403120DEB
:10EF20009A02ED1FE50F604C740412109B12EFF56E
:10EF3000120D8B7508397509127808120D87E50FC7
:10EF4000F5087808120D8B9011F8120BD475080093
:10EF50007808120D8B740912109B12EFEE12109BA1
:10EF600012EFFD12277C7407120D9AE970617C0183
:10EF70007D8C805485188285198312F9A870457498
:10EF80000412109B12EFF5120D8B750839750912DA
:10EF90007808120D877508007808120D8B9011F80B
:10EFA000120BD47808120D8B740912109B12EFEE1D
:10EFB00012109B12EFFD12277C7407120D9A7CC26F
:10EFC0007D8A80047CAD7D8B7A597B8B1211AAE5FA
:10EFD0001645176007AA16AB171216A2E5144515B9
:10EFE0006007AA14AB151216A2740802F81D12F8D5
:10EFF00005FD740D2212F579F50878082212F579CD
:10F00000F97A067B8022E8F0A3E912F00E2212F7CB
:10F01000B6E02274EF1207F574F4120E328A088BF0
:10F0200009ECFEEDFF740B12109B7403F0120E0A34
:10F0300012178C12220C8A0A8B0BAC0AAD0BE50856
:10F04000240CF50CE43509F50D7403120E0A1217A1
:10F0500086E9601DEE2413F50AE43FF50B850A826C
:10F06000F583E0F51074036510601174016510609C
:10F070000B851882851983748402F170EE2408F8D8
:10F08000E43FF9880E890F8882F583E0F9602374E4
:10F09000FF69601EEE2414FAE43FFBEAFCEBFD740A
:10F0A00003651070188C828D83E0F8600574FF682A
:10F0B000700B851882851983748202F170EE240921
:10F0C000FAE43FFBEE240BFE50010F850C82850D08
:10F0D00083E064217002A3E070658518828519833E
:10F0E000748C12F834E0F5107810120D8BEEFCEFF2
:10F0F000FD8A828B8312F53C850E82850F83E0F9B1
:10F10000121FA87401120D9AE9706685188285197C
:10F1100083E4F0121A50850A82850B83E064037041
:10F12000507401120E12EEFAEFFB121FC6E9704185
:10F130007D007C007900EEFAEFFB121B1080328C10
:10F14000828D83E0F50A780A120D8BEEFCEFFD8AC2
:10F15000828B8312F53C121FAE7401120D9AE98561
:10F1600018828519837007E4F0121A50800374889E
:10F17000F012FBB3E0F50A780A120D8B7401120E3F
:10F1800002880A890B780A120D87850C82850D8307
:10F19000E0F50AA3E04480F50B780A120D877901A7
:10F1A000E5082402FCE43509FDE508240FFAE435FE
:10F1B00009FB121B047405120D9A740C120D9A7F30
:10F1C00009020B07C082C08374F3120E32851882C5
:10F1D000851983E4F00412109B12F5477403121092
:10F1E0009BAA82AB83121D14AA18AB19121D50746E
:10F1F0000D120D9A02E73712F7F4FBEA4B22E0F802
:10F20000A3E02274E81207F574DB120E328A168B23
:10F2100017751400751500750A0012F6AA35171235
:10F22000F573F50EAC18AD197A007B00799C121DB0
:10F23000D4901599E06004640170147A0479001286
:10F240001D6EEAF50A851882851983E02A800885F3
:10F2500018828519837401F0E0F8E50EC398400325
:10F2600002F4D8E0C3950EF509C394044003750970
:10F2700003E50975F01AA4FAABF012169C8A148BF8
:10F2800015EA4515700302F4DB750B00AE14AF15DB
:10F29000850E0802F3357C087D0079FFAA12AB13B6
:10F2A0001215F4E50C2404F8E4350DF9EE2416FAF1
:10F2B000E43FFBEE2415FCE43FFDEE2414F512E4DC
:10F2C0003FF51388828983E0702E850C82850D833B
:10F2D00012F7C48512828513837004E4F0800874E9
:10F2E00001F09013BBE01485108285118312F8346D
:10F2F000740212FB2EE480339013BBE0048510826D
:10F3000085118312FB62C3940385128285138340A7
:10F310000302F3E6740212FB626401700302F3F26B
:10F320008C828D83740112FB2E7401F0EE241AFE80
:10F3300050010F050BE50BC39509400302F457E597
:10F3400008C3950A400302F3FAAA087B00121D7451
:10F350008A0C8B0D05089013A812F55B12178C858B
:10F360000C82850D8312F82BEE2412F582E43FF512
:10F3700083E8F0A3E912F54DEE2418F510E43FF50B
:10F3800011851082F58374FFF0850C82850D83A3AF
:10F39000A3A3A3A3A3A3A3A3A3E0C0E012F52CD02F
:10F3A000E0F0740112109BE4F0850C82850D83124D
:10F3B000F82B740212109B12E892EE240AF512E464
:10F3C0003FF5137401120E0A121D3EE96401600339
:10F3D00002F296740412109BAC82AD83AA12AB1396
:10F3E00012178C02F2A3740112FB62640360030221
:10F3F000F3208C828D83E402F326E50AC3950E4048
:10F40000057508008058E50EC3950AF508804F85FC
:10F410000C82850D83E412F834F09013BBE0148A5B
:10F42000828B8312F54D741D12109BE0C0E012F523
:10F430002CD0E0F0EE2414FAE43FFB88828983129A
:10F44000F7C48A828B837003E480027401F0EE2497
:10F450001AFE50010F050BE50BC39509507D740E84
:10F46000120E12AA087B007987121DD405087418A1
:10F4700012109B12F55B12178C741012109BAC8249
:10F48000AD8312FDAC3FFB12178CEE2412F8E43F63
:10F49000F9740E12109B12F53C8882898312F5478D
:10F4A000EE2418FAE43FFBEE2416FCE43FFDEE24C4
:10F4B00015F50CE43FF50D901599E06007640160C7
:10F4C0000302F40F850C82850D83740212F8340454
:10F4D00012FB2E74FF02F423750900750A00780AE6
:10F4E000120D8B7814120D877809120D8BE50EF52D
:10F4F000097809120D8B740512109BE0FD7C00E564
:10F500001612F6A13517FBE51612F69B3517F58393
:10F51000E0F9121B527405120D9AE51445156007A7
:10F52000AA14AB151216A2742502F81DEE2419F5C3
:10F5300082E43FF5832285188285198312F7F4FB54
:10F5400022851882851983EAF0A3EBF022F0EE24DD
:10F5500017F582E43FF5837402F02212F82F8E82B1
:10F560008F83E8F0A3E9F07CBC7D13EE2402FAE47B
:10F570003FFB22F58312F5792212F57EE022E0F8B6
:10F58000A3E0F58388822274EE1207F574FE120E52
:10F59000328A0C8B0D75100075110012F6AA350D0C
:10F5A00012F573F50AAC18AD197A007B0079A31235
:10F5B0001FB4AA0A12F825C3EA98E499501E8518C8
:10F5C00082851983E0C39AFEA3E09400FFC3EE9402
:10F5D00004EF940040647E037F0080627E00750B20
:10F5E00000EEF97508007808120D8B7810120D875F
:10F5F000E9F5087808120D8BE50AF5087808120D70
:10F600008B740512109BE0FDAC0BE50C12F6A135D6
:10F610000DFBE50C12F69B350DF583E0F9121B5836
:10F620007405120D9AE51045116007AA10AB11126E
:10F6300016A27402120D9A02FBD0EE4F60A0EEFAF1
:10F64000EFFBEA75F015A4FAA8F075F015EBA42805
:10F65000FB12169C8A088B098A108B11EA451160EF
:10F6600032750B00750E00C3E50E9EE49F40030249
:10F67000F5E1AC08AD09A80AE50E28FAE43400FB70
:10F6800079A2121FB4E5082415F5085002050905F2
:10F690000E80D4750BB5790002F5E3240FF582E4F2
:10F6A000222402FAE4228A088B09EA12FB2822EEBD
:10F6B00012FB283F2274F41207F574FA120E32126C
:10F6C000F6A612FB7412FB92EEFAEFFB121D1AE97A
:10F6D000601712220C8A0A8B0BAC0AAD0BEEFAEF04
:10F6E000FB121786E96401700A740112109BE4F0A2
:10F6F000A38009740112109BEEF0A3EFF0E508243B
:10F7000002FCE43509FD8C828D8312F816E06870E6
:10F7100003A3E069600302F7AE8E828F83A3A3A3E5
:10F72000A3A3A3A3A3E0FEA2E65008740312109BB8
:10F730007401F0EEA2E75008740412109B7401F0FB
:10F74000740512109BE412F7B6F0F50A780A120D50
:10F750008B7401120E02880A890B780A120D8775C4
:10F760000A34750B80780A120D877901E508240F99
:10F77000FAE43509FB121B047405120D9A908CC72C
:10F780001210601222307A007B0012223C7A007B39
:10F79000001222367401120E0A121DC2EEA2E740B8
:10F7A0000D740112109B12F7C470031226EC74063C
:10F7B000120D9A02E998F08518828519832285181E
:10F7C0008285198312F82FE84922EE2402FCE43FD7
:10F7D000FDEE240F22EE240EF582E43FF583E022B5
:10F7E000EAFEEBFFEE12FBF012F1FE12F7EF22F948
:10F7F00088828983E0FAA3E0227F08020B0712F8CF
:10F800000A12F80522E0FCA3E022F583E0F8A3E069
:10F81000F9888289832212F82F90139E22120D9A62
:10F820007F10020B0785188285198312F82F221288
:10F83000F1FEF922F08C828D8322240EF582E422DF
:10F8400074F61207F5ECFEEDFF12FB1E12E99DF5B2
:10F8500009AC08FDEEFAEFFB12178C8508828509CA
:10F860008312FC03F0E5082409F50850020509F5A8
:10F870008285098312FC1912E89385088285098321
:10F88000A3A3E0F8EE12FBEAE5082403F508500212
:10F89000050912FBDF701FAC08AD0912178C850833
:10F8A00082850983A3A3A3A3A3A3A3A3E0C0E0121B
:10F8B000FBD5D0E0800C85088285098312FBF9F026
:10F8C000A3E9F002E9F474F21207F5750A00EA24DC
:10F8D0001312FB15EA2410F582E43BF583E0C39490
:10F8E0000C40098E828F8312F9A8F50AA80AE8282D
:10F8F000F8E433F9E8240DFAE439FB12169C8A087F
:10F900008B09EA4509700302F9A28E828F8312FBEC
:10F9100089F88A828B8312FD94600302F9A2EEFCBF
:10F92000EFFDEA2403FAE43509FB12178CEE2408F4
:10F93000FE50010F12FB79850882850983A312E826
:10F9400093E508240BF8E43509F9E8FAE9FB8A8223
:10F950008B83E4F0E50A604AE508240DF8E43509F4
:10F96000F98E828F83A312FC2A12FBA5C0E012FB42
:10F970006DD0E0F0EE2404FE50010F850A0B8E825C
:10F980008F8312F805FBEC8882898312F548E824FE
:10F9900002F8500109EE2402FE50010F150BE50B91
:10F9A00070DCAA08AB09801112F1FEC8240BF582A5
:10F9B000E438F583E022120D9A7F06020B0774F6F5
:10F9C0001207F512FB38600302FAD6E812F6A139E5
:10F9D000FBEC2403FEE43DFF8A828B83E05407F5B1
:10F9E000088E828F83E054F84508F50912FAE0A2E8
:10F9F000E3E433F508A2E0E433333333F50874F776
:10FA0000550945088E828F8312FAE0A2E4E433FAA6
:10FA1000A2E0E433C4FA8E828F83E054EF4AF0E828
:10FA20002403FAE439FBEC24040EE43DFF8A828BC4
:10FA300083E054F8F5088E828F83E054074508F57B
:10FA40000812FAE05407FA74F855084A8E828F8338
:10FA500012FAF68C828D83A3A3A3A3A312FAE5A3C3
:10FA600012FD8112FAFC12FAD912FAFC12FD81126F
:10FA7000FB0D12FAD912FB0DA312FAD9A3A3A3A36B
:10FA8000A3A3A3A3A3F0E8240AF85001098882895C
:10FA900083E0FEA3E0FBEEFAEC240BF582E43DF5F7
:10FAA0008312F54788828983A3A3E0C0E0EC240D8C
:10FAB000F582E43DF583D0E012FAE5E0C0E0EC1217
:10FAC000F83A3DF583D0E012FAF6C0E0EC12F69B6E
:10FAD0003DF583D0E0F002E9F4E08C828D83A3222F
:10FAE00012FB32E02212FAE92212FAED22F08882A9
:10FAF0008983A3A3A32212FAE9A3E02212FB002226
:10FB0000A3A3A3A3A3A312FAEDA3A3A322A3A312C7
:10FB1000FB00A3A322F8E43BF9E8FEE9FF2212FB75
:10FB2000222212FB273B22EA2413F582E42212FB55
:10FB30003222F08A828B832212FB2212F80AE08C96
:10FB4000828D83F088828983A3A882A983E0FEA3A3
:10FB5000E0FBEE8C828D83A3F0A3EBF08C828D838F
:10FB6000E02212FB6622F088828983E022E50824E5
:10FB70000CF582E43509F583228E828F8312FB8196
:10FB80002212F7F4F9EA22F58312FB928E828F8318
:10FB9000E022E0FEA3E0FF2212FBC622F0A3E9125E
:10FBA000FBACA3E02212FBACA3A3E022F08E828F79
:10FBB00083A322E508240EF582E43509F58322F0BB
:10FBC000A3E912FBC622F08E828F83A3A3A3A322F4
:10FBD0007F0A020B07EE2414F582E43FF58322EE40
:10FBE000240BFAE43FFB7403682212FBF0E8F022D6
:10FBF0002413F582E43FF5832212F805F9EC8A829A
:10FC00008B8322A3A3A3A3A3A3A3A3E08E828F83AA
:10FC1000A3A3A3A3A3A3A3A32212FB818E828F83FA
:10FC2000A3A3A3A3A3A3A3A3A322A3E08A828B835A
:10FC30002274F01207F5EAFEEBFF8C088D098E8224
:10FC40008F8312FD8212FD9412FD8812FD9C5001DB
:10FC50000F8E828F8312FD88A3A312FB9CC4540FC6
:10FC60008C828D83A3A3A3A3A312FBA5F50CEE2482
:10FC700004FE50010F8C828D83A3A3A3A3A3A3E54D
:10FC80000CF0EC2407F50AE43509F50BE50C604CA3
:10FC900012FD6A12169C8A0E8B0FA80EA90F850AF8
:10FCA00082850B8312E892E849700302FD357A00E1
:10FCB00080248E828F83E0F50EA3E0FCE4CCFDE58A
:10FCC0000E2CE43DF50F12FD71E50EF0A3E50F12C9
:10FCD000FD9F50010F0AEAC3950C40D68E828F8398
:10FCE000E0F50CA3AE82AF83850882850983A3A3C8
:10FCF000A3A3A3A3A3A3A3F0606B12FD6A12169C97
:10FD00008A0E8B0FA80EA90F850882850983A3A3ED
:10FD1000A3A3A3A3A3A312E890E849701C850A82B9
:10FD2000850B8312F1F7600D1216A2850A82850BEE
:10FD300083E4F0A3F07901802E7A0080228E828FF6
:10FD40008312E99FFCE4CCFDE5082CE43DF50912A3
:10FD5000FD71E508F0A3E50912FD9F50010F0AEAC5
:10FD6000C3950C40D8790002F7F925E0FAE433FB9B
:10FD700022EA25E0FCE433FDE82CF582E93DF58339
:10FD800022A3E08C828D8322E0FAA3E0F9EA8C8240
:10FD90008D83A32212FBACAE82AF8322F0A3E9F0E5
:10FDA000EE2402FE2212F82FE8FEE922EE240AFADF
:10FDB000E422C082C08390119AE4F0A3F090119CD9
:10FDC000749CF0A37409F090099C7470F0A3740201
:10FDD000F0900C0CF0A37480F0A3748CF0A3740565
:10FDE000F0D083D082020D4C74F61207F57A017BB5
:10FDF0000012169C8A088B09AE08AF09EE4F7003FB
:10FE000012114485A808C2AFEE24FEF8EF34FFF9C2
:10FE100090119CE8F0A3E9F0EEFAEFFB1216A29025
:10FE2000119E7401F0E508A2E792AF7F02020B0772
:10FE300074F21207F57C007D007E00EA2402FAE4E9
:10FE40003BFBA2AFE433FFC2AF90119EE06008EA33
:10FE50009411EB9400500A90119CE0F8A3E0F98013
:10FE600004780E790C88828983E0F508A3E0F5090F
:10FE7000548060057E0002FF0DEEA2E0507C8C8273
:10FE80008D83E0F50AA3E0F50B5480F50DE50A2516
:10FE900008F508E50B3509547FF509E50D4509F529
:10FEA000098C828D83E508F0A3E509F0547FF509FC
:10FEB000C3E5089AE5099B4054ECF8EDF9E8497070
:10FEC0000302FF7B88828983E0FCA3E0547FFDEC82
:10FED000C39AFCED9BFDC3EC9404ED9400405DE8F7
:10FEE0002AF582E93BF583ECF0A3EDF0EB4480FBCF
:10FEF00088828983EAF0A3EB804AE509547FFDC339
:10FF0000E5089AED9B50B67E01E8FCE9FD88828900
:10FF100083E0F508A3E0547FF509E82508F8E93502
:10FF200009F988828983E0F508A3E0F509E5084529
:10FF300009600302FE6578007900803F888289832A
:10FF4000A3E04480F090119EE0602990119CE0FABB
:10FF5000A3E0FBE86A7002E96B701988828983E08C
:10FF6000FAA3E0547FFBE82AFAE93BFB90119CEAF4
:10FF7000F0A3EBF0E82402F8500109EFA2E092AF01
:10FF8000E8FAE9FB7F06020B0774F71207F5EA248B
:10FF9000FEFEEB34FFFFEAF8EBF9C3E8949CE9942A
:10FFA000094009C3E8949CE9941140031211448E5E
:10FFB000828F83A3E054807003121144A2AFE43314
:10FFC000FAC2AF8E828F83A3E0547FF090119CE041
:10FFD000F8A3E0F9EE98EF99500CEEF8EFF99011D4
:10FFE0009CE8F0A3E9F0EAA2E092AF7F01020B07E0
:03FFF000020D4CB3
:020000040001F9
:10000000C082C083E99011D3F002816274F41207B8
:10001000F58A088B09EB5480604D800EEEFAEFFBF9
:10002000121834EEFAEFFB1216129011D3E0F91207
:1000300016248A0A8B0BAE0AAF0BEE4F60208E821D
:100040008F83E0641A60D5EEFAEFFB1217F2E9F93C
:1000500074FF6960CEEEFAEFFB12161880CCAA0886
:10006000E5096480FB80047A007B0002816CC08219
:10007000C083EA12A5CD3BF583E0FA9011E280043B
:10008000888289831292ED601C88828983A3A3A34E
:10009000E0FBEA6B600574FF6B70E588828983A3DF
:1000A000A3E0F9800279FF02816274F41207F5EA95
:1000B000FEEBFF8E828F8312A5DC1217F2E9F508A2
:1000C00074FF6508700302815D7A197B0012160CBB
:1000D000EA4B700302815D8A828B8374341290D65E
:1000E000A3EA2402FCE43BFD7406120CC88E828F46
:1000F0008312891212A94B8A828B83A3A3A3A3A381
:10010000A3A3A3ECF0A3ED1281EFA3EA240AFCE47D
:100110003BFD740C120CC88E828F83129526C81278
:10012000A5CD38F583E0C0E0EA2416F582E43BF57E
:1001300083D0E0F0EE240CF8E43FF9888289831242
:10014000A94FEA2417F582E43BF583ECF0A3EDF028
:1001500088828983E4F0A3F0A908121618790102B5
:10016000816CD083D082020D4C120D9A7F04020B59
:1001700007E8F0A3E9F079002288828983E4F0A3FC
:100180001287BFA3E508F02274F41207F589088AE4
:1001900009ECFEEDFF7A067B0012169C8A0A8B0B97
:1001A000A80AA90BE8497004791080221281D69020
:1001B00011DE1286109011DE60111281D18003EAE7
:1001C000FCEB12860B70F88C828D83128171028198
:1001D0006CE0FCA3E02212817988828983A3A312B8
:1001E00081E322A3E5091281F8EEF0A3EFF02212D9
:1001F00081F3221281F8A322F088828983A3A3A32A
:10020000A32274F41207F574F7120E32E9FEECFF24
:100210008518828519837401F0EF7006EDC394068A
:10022000405074036A4B604A7401120E02880A89B6
:100230000B780A120D877C127D007A007B00EEF9A4
:100240001218527402120D9AE9601CE4F50AF50BBB
:10025000780A120D877403120E127402120E0A121B
:1002600018947402120D9A851882851983E064012E
:100270007004790180027900740902816974E812BE
:1002800007F574FA120E3289128A168B178C088DB4
:10029000091227408A148B15EA4515700579020268
:1002A000841BAA08AB09A91212186AE9F50FA2E685
:1002B000401C9011E01292ED6014E82419F582E4DC
:1002C00039F583E064017006E50FD2E6F50F7C0690
:1002D0007D007900AA18AB191215F4741F12109B37
:1002E0001284206009E054FCF0E044018003E054F3
:1002F000FC128B4DA31292EB602B741E12109BE02C
:10030000FE88828983A3120BD4EEFD740212109B27
:10031000E05403FCAA08AB09A912121804740212D3
:100320000D9AE97005790102841B742212109B1248
:1003300092ED6012851882851983E04404F07402FE
:1003400012109B12A248742012109B128420600588
:10035000E044088003E054F7F0742112109B1284EB
:10036000206005E044108003E054EFF07424121084
:100370009BE0C0E0740412109BD0E0F074051210F2
:100380009BEEF07803851882851983E0540460029F
:100390007805742512109B12A4B9E82510FEE435E7
:1003A00011FFEEFAEFFB12169C8A0A8B0BEA450B43
:1003B0006065AC0AAD0BAA18AB191218407427126D
:1003C000109B12997F120D83AC10AD111215E874B9
:1003D00003120D9A750C1E780C120D8B750CD675C8
:1003E0000D11780C120D87780A120D878E0C8F0D67
:1003F000780C120D877808120D87A90FAC14AD1573
:10040000AA16AB1712274C7409120D9AE9FEAA0A14
:10041000AB0B1216A280027E10EEF9740602A8FE43
:1004200012842422E085188285198322EEF902A520
:10043000EF74EA1207F574FE120E32890B8A148BE0
:10044000158C0E8D0F7E007F00750A007418121037
:100450009B12A4B9801112860112189A8B09EE2AF8
:10046000FEEF3509FF050A12AAC9503FE50A75F0EB
:1004700006A4F8A9F0E51028F582E51112861FEE12
:100480002403FEE43FFFA3A3E070DA0EEE70010F39
:1004900088828983A3A3A3A312861088828983609C
:1004A000B5A3A3A3E0F912188E80B1EEFAEFFB1208
:1004B000169C8A088B098A0C8B0DEA450D70030285
:1004C00085E0750A008036A818A919881289137862
:1004D00012120D877808120D878A828B831286018B
:1004E0001218A07404120D9A85188285198312952A
:1004F0001DE50828F508E50939F509050A12AAC914
:100500005078E50A75F006A4F8A9F0E51028F58200
:10051000E51112A2171285F88A828B83A31285EB4C
:10052000F01291441285EBA3F0E5082403F508507E
:1005300002050988828983E070C1EA240308E43B4C
:10054000F9888289831285F8A38582088583098AC0
:10055000828B8312A94B8C828D83E5824583700345
:100560000284C7AC08AD09AA82AB8388828983E084
:10057000F91218828A088B098081780C120D878EF7
:10058000088F097808120D87742012109B128FC5EE
:10059000120D8BE4F508F5097808120D8774221204
:1005A000109B128FC5120D8B742212109B128FC5D7
:1005B000120D8B7508007808120D8B7508017808EC
:1005C000120D8BAC0EAD0FAA14AB15A90B12180AA5
:1005D000740B120D9AE9FEAA0CAB0D1216A2800242
:1005E0007E10EEF97402120D9A802F1285EF22E030
:1005F000850882850983A322E0850882850983F026
:100600002212A9E8AA0EAB0FA90B22FD8C828D83C2
:1006100012A5E4EA4B22AA12AB137F0E020B073994
:10062000F583A3A882A9832274EC1207F5890A8AAC
:10063000108B11ECFEEDFF741412109B12871B75CA
:10064000F003A4F50EE5F0F50FAA0EFB12169C8A36
:10065000088B09EA45097003028716A808A9097CD6
:10066000008035EC75F003A4FAABF0E50C2AFAE54E
:100670000D3BFB8A828B83A3128908F0EA2402FADD
:1006800050010B8A828B83128908A3128726A3F05C
:10069000E82403F85001090C850C82850D83E0FAEB
:1006A000ECC39A40BE74016A700AA3E07006750E2E
:1006B00001750F007808120D87780E120D87741CD3
:1006C00012109B128720120D8BE4F50CF50D780C9F
:1006D000120D87741E12109B128720120D8B741E30
:1006E00012109B128720120D8B750B00780B120DC8
:1006F0008B750B04780B120D8BEEFCEFFDAA10AB83
:1007000011A90A12180A740B120D9AE9FEAA08AB75
:10071000091216A280027E1002842C128B40E02265
:10072000E0F50B780B2212913EA312872E2212893C
:100730000CA32274F61207F574FE120E32E9FE7451
:100740000C12109B1287B4C0E0740112109BD0E011
:10075000F0A818A919880889097808120D87750862
:10076000027509007808120D87741612109B128FFB
:10077000C5120D8B741512109B120BD47416121027
:100780009B128FC5120D8B741612109B128FC512FF
:100790000D8B7508007808120D8B75080B78081200
:1007A0000D8BEEF912180A740B120D9A7402120DC9
:1007B0009A02930D1289161284241287BFE022F048
:1007C00088828983A32274EA1207F589138A108B21
:1007D00011ECFEEDFF741612109B12AD11E50A2408
:1007E00002F50CE4350BF50D850C82F583E00475FC
:1007F0001200F50E750F00FAAB0F12169C8A088BCB
:1008000009EA45097003028900A808A909850A8236
:10081000850B83128A098020EAFC850A82850B8376
:10082000A3A3A3E02CFBA3E034008B82F583128901
:1008300008F0A3A882A9830A850C82850D83E0FBBA
:10084000EAC39B40D3850A82850B83A3E0F8741822
:1008500012109BE0F9741912109BE0FA741A12102E
:100860009BE0FB74116870397808120D87780E12BE
:100870000D87EBF50A780A120D8BE4F50AF50B7873
:100880000A120D87EAF50A780A120D8BE9F50A7843
:100890000A120D8B750A00780A120D8B750A1280E8
:1008A0003C74136870517808120D87780E120D870A
:1008B000EBF50A780A120D8BE4F50AF50B780A12AB
:1008C0000D87EAF50A780A120D8BE9F50A780A1203
:1008D0000D8B750A00780A120D8B750A14780A12AE
:1008E0000D8BEEFCEFFDAA10AB11A91312180A74C0
:1008F0000B120D9AE9F512AA08AB091216A2800391
:10090000751210A91202861A12890C22E0888289B7
:10091000832212891622129526F9888289832274ED
:10092000E81207F589108A128B13ECFEEDFF74189C
:1009300012109B128B3475F003A4A9F02401F50E5C
:10094000E439F50FAA0EFB12169C8A088B09EA45BA
:100950000970030289F9A808A909850C82850D830D
:10096000128A098025EA75F003A4FCADF0E50C2C91
:10097000FCE50D3D128B20128A158C828D83A3A37A
:10098000A3A3128A00F85001090A850A82850B8305
:10099000E0FBEAC39B40CE7808120D87780E120D5B
:1009A00087742012109B12A9BA120D8BE4F50AF578
:1009B0000B780A120D87742212109B12A9BA120D1D
:1009C0008B742212109B12A9BA120D8B750A007833
:1009D0000A120D8B750A0D780A120D8BEEFCEFFDD5
:1009E000AA12AB13A91012180A740B120D9AE9FE81
:1009F000AA08AB091216A280027E10EEF902A90124
:100A000012872EA3F0E824032212890CF0A3A882F7
:100A1000A9837A002212890C128B5112872EF022A0
:100A200074E81207F589128A108B11ECFEEDFF7441
:100A30001812109B128B34F508750900740278089F
:100A4000120F86E5082401F50EE43509F50FAA0E0C
:100A5000FB12169C8A088B09EA45097003028B1B5E
:100A6000850C82850D831296B7A3AA82AB83790089
:100A7000803AE9F51475150074027814120F86E5B2
:100A80000C2514FCE50D3515128B20128B30128BC2
:100A90004D128B30128B5A129E17128B5AA3129E34
:100AA00017A3A3F0EA2404FA50010B09850A8285F2
:100AB0000B83E0F8E9C39840B97808120D87780EE7
:100AC000120D87742012109B12A9BA120D8BE4F537
:100AD0000AF50B780A120D87742212109B12A9BA1C
:100AE000120D8B742212109B12A9BA120D8B750A6B
:100AF00000780A120D8B750A16780A120D8BEEFC1F
:100B0000EFFDAA10AB11A91212180A740B120D9A5C
:100B1000E9FEAA08AB091216A280027E100289FB28
:100B2000FDEC2402F514E43DF515851482F58322CD
:100B3000129E2022128B40A385820A85830BE0221D
:100B4000E0F50CA3E0F50D850C82F58322128B51A4
:100B500022F0851482851583A322A3F08C828D83D5
:100B6000A3A3A3A32274F11207F574EB120E32EAC9
:100B7000FEEBFFC200EE2420F8E43FF98808890963
:100B80008882F583C3E09403A3E0940050057901C3
:100B9000028F939011E0EEF0A3EFF0740212109B1D
:100BA000EEF0A3EFF0740E12109BE4F0A3F0740AC1
:100BB00012109BE4F0A3F0740C12109BE4F0A3F06D
:100BC000EE2422F8E43FF9880A890B8882F5831223
:100BD000A94F740412109BAA82AB8312183A8A0C94
:100BE0008B0DA80CA90D740A12109BE8129D7512AA
:100BF000A5DCEAC398F8EB99F9850A82850B83E0B6
:100C000028F8A3E039F9740C12109B12A24874085A
:100C100012109BE09011D7F0EE2414F508E43FF594
:100C200009850882F583E0F91227408A828B83E5E3
:100C3000824583700C9011E0E4F0A3F07902028FFA
:100C400093128FE6602BEE2404F50AE43FF50BA324
:100C5000120BD4740B12109BE0FD740612109BE073
:100C60005403FC128FD41218047402120D9AE97006
:100C70000C9011E0E4F0A3F07903028F93128FD46B
:100C800012186AE9F50E850A82850B8312A5DCEA43
:100C9000FCEBFD9011D88004888289831292ED705C
:100CA00003028D8E88828983A3A312981BC3EC95BF
:100CB0000CED950D40E288828983A3A3A3A3C3E032
:100CC0009CA3E09D40D2E8FCE9FD740412109BE077
:100CD0005407700D740912109BE0640B7003028DB1
:100CE00092E50EA2E64003028D92EE2419F582E40D
:100CF0003FF583E06003028D92740212109B128F05
:100D0000B7707F740212109B1292E870757C008598
:100D10000882850983E0F9121870740112109B741F
:100D200001F0740912109B128FA512109BE0F50CB4
:100D3000780C120D8B740712109B120BD4750C01DA
:100D4000780C120D8B740812109B12ABBD120D8B18
:100D50007405120E02880C890D780C120D87740927
:100D600012109B128FCB12109B128FAB12109B1282
:100D7000A4A912181C7407120D9A7C01128FD412A8
:100D800018709011E0E4F0A3F07905028F937C00D5
:100D90007D00740412109BE0F854036003028EB4CB
:100DA000E8540460057E84028EF2740912109BE000
:100DB000F8C394174003028EB0E8F50A750B00746F
:100DC00002780A120F867473250AF582742B350B8C
:100DD000128F9BE8497003028EB0850882850983D3
:100DE000E0C0E0741012109BD0E0F0740C12109B65
:100DF00012A5DC741112109B12A9F3740A12109B35
:100E000012A5DC741312109B12A9F37410120E0AAF
:100E1000888289831227878A088B09A808A9097400
:100E20000E12109B12A248E8496046740912109BEA
:100E3000E0F50875090074027808120F86747525AC
:100E400008F582742B3509128F9B88828983E5828D
:100E5000458360127402120E0A122787740E121054
:100E60009B1292ED600B740E12109B12A5DC1216F1
:100E7000A2740912109BE0F8605874026860537401
:100E80000368604E740568604974066860447408BD
:100E900068603F740C68603A741168603574136858
:100EA0006030741568602B740B6860267E00804289
:100EB0007E82803EEC4D602A8C828D83A3A3128FAC
:100EC000E6601F7402120E0A122787E9FE74FF6E95
:100ED000700B9011E0E4F0A3F0F9028F9374016EAF
:100EE0007010740412109BE0540460047E8380022E
:100EF0007E81740212109B128FB7707074021210F0
:100F00009B1292E87066740412109BE0FA54107001
:100F10005B740112109BEEF0740912109B128FA5E6
:100F200012109B128FC5120D8B740712109B120B9F
:100F3000D47508017808120D8BEA12A487120D8B64
:100F40007405120E02880889097808120D87740941
:100F500012109B128FCB12109B128FAB12109B1290
:100F6000A4A912181C7407120D9AD2009011E0E483
:100F7000F0A3F0EE70047900801974846EA2007002
:100F80000A50047907800C7906800850047909809A
:100F90000279087415120D9A029816F583E493F8F5
:100FA000740193F92212AF64740822E02406FAA3B4
:100FB000E03400FB740922129526C82415F582E45A
:100FC00038F583E022E0F50878082212A90612A974
:100FD000E4740922850A82850B8312A5E4850882C0
:100FE000850983E0F922A3A3A3A3128916E582450C
:100FF000832274F41207F58A088B09ECFEEDFF7C5E
:10100000067D0079001215F4850882850983E05475
:10101000FCF8A3E0F98E828F83E05403FAE84A8556
:101020000882850983F0A3E912AFA6A2E25004D298
:10103000F08002C2F0850882850983E054FBF0A2AB
:10104000F0E433F50A750B007402780A120F86E09B
:10105000450A12AFA6A2E3850882850983E0500401
:101060004408800254F712AFA6A2E45004D2F080E4
:1010700002C2F0850882850983E054EFF0A2F0E413
:1010800033F50A7404780A120F86E0450A129BEDC4
:10109000850882850983E05404601C8E828F83E07A
:1010A000FAA3E0F9EA850882850983A3A312A2497D
:1010B000EE2402FE50010F8E828F831290CF129089
:1010C000D61290CFA3F0EE12A0323FFB02816C1239
:1010D00085EFA3A3A322129F33A32274F71207F56F
:1010E0008A828B83E054038C828D8312915754043F
:1010F00012915054081291505410F88C828D83E054
:1011000048F0A3AC82AD838A828B83E054046016DE
:101110001291441296B11287BA8C828D83A3F0EC9F
:101120002402FC50010D8A828B831296AD12913EEF
:10113000A31296ADA3F0EC12A0323DFB801EF08A04
:10114000828B8322EA2402F8E43BF9888289832295
:10115000F88C828D83E04812913EE0227F01020BE1
:1011600007C082C0839011DA80048A828B83128642
:1011700010600C8A828B83A3A3E06970ED80047AEF
:10118000007B00028162C082C0839011DC80048AEF
:10119000828B83128610600C8A828B83A3A3E06902
:1011A00070ED80047A007B0002816274F01207F512
:1011B0008A088B09ECFEEDFF12184C8A0C8B0DEAA5
:1011C000450D60647C0080010C850C82850D83A335
:1011D000A3A3A3A3A3A3E0F8ECC398504BECF50E94
:1011E000750F007403780E120F86850C82850D83AF
:1011F000A3A3A3A312943288828983E493FA74018F
:1012000093FBE5086A7003E5096B70BCA3A3129217
:101210002C7002EF6B70B1741012109B1292367426
:1012200008120CA67901800279008015E493FA7403
:101230000193FBEE6A2212A9E88983888222120DAB
:101240009A7F08020B0774F61207F512184C8A826F
:101250008B83E5824583600512A5D980047A007BE3
:101260000002930D74F61207F512184C8A828B83D4
:10127000E5824583600512A5D780047A007B0002D1
:10128000930D74F71207F5E9FFEAFCEBFD9011DE10
:101290008004888289831292ED604688828983A3C4
:1012A000A3E06F70ED7E0080010E88828983A3A386
:1012B000A3E0FAEEC39A50DAEE75F003A4FA85F0D3
:1012C00008AB0888828983A3A3A3A3E02AFAA3E03A
:1012D0003BFB8A828B83E06C7003A3E06D70CA8055
:1012E000047A007B0002915C12A906A3A312952147
:1012F000E8492274F61207F51218648A828B83E596
:101300008245836006A3A3E0F9800279007F020290
:101310000B0774F61207F5ECFF1218648A088B09A4
:10132000A808A909E8496015E82402F582E439F51E
:1013300083EF6005E0D2E68003E0C2E6F080CE7481
:10134000F01207F5EAFEEBFF8C098D0A1218468AA7
:101350000C8B0DEA450D700302942D750B00741073
:1013600012109B12951DE8FAE9FB80128C828D8386
:10137000A3A3A3E493A2E35003029413050B850CEB
:1013800082850D83A3A3A3E0F8E50BC39840030275
:10139000942DE50BF50E750F007402780E120F8672
:1013A000850C82850D831294321294FB7002EF69D2
:1013B00070CA8A828B83E0F88C828D83A3A3E49326
:1013C000C39840B87411650970197401650A609C6E
:1013D000E50A70A88C828D83A3A3A3E493A2E240C4
:1013E000328099741365097044E50A700D8C828D02
:1013F00083A3A3A3E493A2E080E57401650A6003DC
:1014000002937C8C828D83A3A3A3E493A2E1400387
:1014100002937C741212109B12952B7404120CA66A
:1014200088828983A3A31296B7790180027900028A
:101430009241A3A3A3A3E0250EF8A3E0350FF92260
:1014400074F01207F5EAFEEBFF8C0912184C8A0EB5
:101450008B0FEA450F70030294F67A007B0074103C
:1014600012109B12951D880A890B80050AEA7001EB
:101470000B850E82850F83A3A3A3A3A3A3A3E0F8E8
:10148000C3EA98EB9400506E8A0C8B0D7403780CB1
:10149000120F86850E82850F83A3A3A3A31295093D
:1014A0001294FB7002EF6970C3A3A3E493F50C746C
:1014B0000193F50D129517C3E50C98E50D9940AC15
:1014C000EC2405F582E43DF583E493A2E7E433657B
:1014D000096006E493A2E65093741212109B1295D1
:1014E0002B7408120CA688828983A3A312A98212E6
:1014F000A248790180027900029241E8FCE9FD8C62
:10150000828D83128F9DEE6822A3A3A3A3E0250CF6
:10151000F8A3E0350DF922850A82850B8312952107
:1015200022129526F922E0F8A3E0221295218C825E
:101530008D83E8FCE9FD2274F11207F5EAFEEBFF6A
:10154000ECFAEDFBEE4F70030296AAEA2402F50CCA
:10155000E43BF50D8A828B83A3AC82AD838E088F2A
:1015600009750A00E9120C590441427596434487F3
:1015700096E0E24096E8E9ED952108DF9509ED95C2
:101580000A02960B409610DF9518DF9519ED951A13
:1015900002961B409620DF9521ED9522029623406E
:1015A00096245196255A96266396276C9628DF95A1
:1015B00029ED952A02962B40962C51962D5A962E5F
:1015C00063962F6C9630DF9531ED9538ED95394067
:1015D000963A6C96EA4096F06C96F19996AA968E99
:1015E000828F831296B7ECFAEDFB0296AA8E828F59
:1015F00083128B301290D61296B1F00A0AAB0D020C
:1016000096AA8E828F8378081210098A828B83E5CE
:1016100008129F337808121009E5098C828D831215
:101620009F33780812100974107808120DE9850CA0
:1016300082850D83E508F0EA2403FA506D0B806A79
:101640008E828F83120BD01216787404120D9A803A
:10165000597808120D837C0580467808120D837C2A
:1016600006803D7808120D837C0780347808120DBF
:10167000837C08802B7808120D838E828F83E02470
:1016800001FCE43400800F7808120D838E828F8372
:101690001297A1FCE439FD80097808120D837C10B3
:1016A0007D001215E87403120D9A029816A3A3A3E5
:1016B000A3E08C828D8322129E20F022E924F86020
:1016C0007814607914607A14607B24FB606B24F8D2
:1016D000606714606814606914606A24FB605A14BF
:1016E000605B14605C14605D14605E14605F146085
:1016F00060146061146042146043146044146045D7
:1017000014604614604714604814604914602A1439
:10171000602B24F9602714602C146039245A60254A
:1017200014602214601F24FA6013146010146015F2
:1017300024FA6021146022802479018022790280B9
:101740001E7903801A790480167905801279068043
:101750000E7907800A7908800679108002790002E4
:101760000D4C74F71207F5E9FE74446E600574437E
:101770006E700C8A828B831297A1FAE439801574FB
:10178000426E600574416E700E8A828B83E0240184
:10179000FAE43400FB8007121888E9FA7B00029112
:1017A0005C1281D1F9EC24022274F11207F5EAFEF1
:1017B000EBFFEC2406F8E43DF9880889098882F5F6
:1017C0008312861070047901804C8C828D83A3A3D0
:1017D000A3A3E0F912188E8A0A8B0B85088285096B
:1017E00083E0F508A3E085080CF50D750E00780C74
:1017F000120D83AC0AAD0BEEFAEFFB1215E8740381
:10180000120D9A740F12109B128FEA6007E50AF00E
:10181000A3E50BF079007F07020B0712981F22E067
:10182000F50CA3E0F50D2274F01207F574FE120E0C
:10183000328A0C8B0DECFEEDFF851882851983E44E
:10184000F0A3F01218588A088B09EA4509602FA8FE
:1018500018A919880E890F780E120D87E4F50EF578
:101860000F780E120D877900EEFCEFFDAA0CAB0D80
:101870008508828509831227877404120D9A8518BA
:101880008285198312A5DC740202923E74F012075D
:10189000F58A088B09ECFEEDFF1218588A0A8B0BAB
:1018A000741212109B12A933E50E450F600A850EC3
:1018B00082850F83E4F0A3F0EA450B6027780E12CF
:1018C0000D87741212109B120BD47901EEFCEFFD00
:1018D000AA08AB09850A82850B8312278774041234
:1018E0000D9A800279C102924174F11207F5ECFE63
:1018F000EDFF8E828F83A3A3A3A3A3E0A2E1507781
:101900001218B2E9F50A7072740F12109B129D6DD5
:101910009011D41292ED6013AC08AD09EEFAEFFB12
:10192000E0F5838882122787E96047E5082403F8F9
:10193000E43509F9880889098882F58312A5DC8EC7
:10194000828F83A3A3A3A3E0F912188E8A0C8B0DB8
:10195000AC0CAD0D85088285098312997F120D8329
:101960008E828F83A312A5D71215E87403120D9AE5
:101970008008750A878003750A88A90A02981612DA
:10198000981F750E00780C2274F21207F58908EC86
:10199000FEEDFF8E828F83A3A3A3A3A3E0A2E15059
:1019A0004D1218B2E9F97048A9081218588A0A8B22
:1019B0000BEA450B6034E4F50CF50D780C120D873D
:1019C000741012109B120BD479028E828F8312A98D
:1019D0004D8E828F8312A5DC850A82850B831227A8
:1019E000877404120D9AE9F9800679C1800279881A
:1019F0007F06020B0774F21207F5EAFEEBFF8C0874
:101A00008D098C828D83A3A3A3A3A3E0A2E5501C20
:101A100012185E8A828B83E5824583600F7902AC5F
:101A200008AD09EEFAEFFB1227878002790080C02B
:101A300074F41207F5129E78129E0212169CEA4B5D
:101A40006054850882850983129526C313E8138A9A
:101A5000828B83F07C0080338E828F83E0F508A335
:101A6000E0F8E4C8F9E50828E439F509EC25E0F8E0
:101A7000E433F9EA28F582EB39F583A3E508F0A30E
:101A8000E509F0EE2402FE50010F0C8A828B83E000
:101A9000F8ECC39840C202816C74EA1207F58A1010
:101AA0008B11EA2403F50CE43511F50D850C82F554
:101AB0008312A4A3750A00750E00750F00804905F6
:101AC0000A8E828F83A3A3E0F8EE2403FE50010F59
:101AD000E870358E828F83E0F9A3AE82AF83EEFA91
:101AE000EFFB12188E8A088B09EE2AFEEF3509FFEC
:101AF000EAA2E0500705080470020509E50E250872
:101B0000F50EE50F3509F50F851082851183A312B7
:101B1000A22C129E2DEE98EF9940A475F006E50ACE
:101B2000A404F508250EFAE4350FFB12169C8A1260
:101B30008B13EA45137003029BE912A49DA808EADF
:101B400028F510E43BF5118A828B83E50AF0750BCA
:101B500000029BDFE50B75F006129D3D8E828F83A0
:101B6000129D5E129E8CF8851482851583A3A3F0C6
:101B7000EE2403FE50010FE870638E828F83129D66
:101B800053129BECEEFAEFFB12188E8A088B098E2B
:101B90000C8F0D750E00780C120D83AC08AD09AAE0
:101BA00010AB111215E87403120D9A851482851575
:101BB00083A3A3A3A3E510F0A3E511F0EE2508FE8F
:101BC000EF3509FFE508A2E050070508047002059B
:101BD00009E5102508F510E5113509F511050BE5A6
:101BE0000BC3950A5003029B54028616A3129BF165
:101BF00022F08E828F83A3AE82AF832274EA120713
:101C0000F58A108B11EA2403F50AE43511F50B85EA
:101C10000A82129D6B750F00750C00750D008042D5
:101C2000050F850882850983A3A3E0F9E50824034D
:101C3000F50850020509FAAB0912188E8A128B13A7
:101C4000AE12AF13E5082AF508E5093FF509EEA243
:101C5000E050050E0470010FE50C2EF50CE50D3F6C
