:020000040000FA
:10000000021F54022003FFFFFFFFFF02200BFFFF30
:10001000FFFFFF022013FFFFFFFFFF02201BFFFF78
:10002000FFFFFF022023FFFFFFFFFF02202BFFFF48
:10003000FFFFFF022033FFFFFFFFFF02203BFFFF18
:10004000FFFFFF022043FFFFFFFFFF02204BFFFFE8
:10005000FFFFFF022053FFFFFFFFFF02205BFFFFB8
:10006000FFFFFF022063FFFFFFFFFF02206BFFFF88
:10007000FFFFFF022073FFFFFFFFFF02207BFFFF58
:10008000FFFFFF022083FFFFFFFFFF02208BFFFF28
:10009000FFFF70DFFFFF040000000002000000C847
:1000A000030002030369A5020269A532730000017F
:1000B00000000000000400FFFFFFFFFFFFFFFF0440
:1000C00003090424035400650078006100730020D4
:1000D0000049006E0073007400720075006D0065C9
:1000E000006E007400730024035400490020004394
:1000F000004300320035003300310020005500532A
:10010000004200200043004400430000035F005F02
:100110000030005800000000000000000000000057
:1001200000000000000000000000000000000000CF
:100130000000000000303132333435363738394171
:100140004243444546481C9D1C9D1C9D1C9D1CA56E
:100150001C74F8121BE2900391E060159003027486
:10016000FEF0900304744DF0A37405F07A011207B9
:10017000237F01021D8174F8121BE274FF121ECB53
:100180007E00801F851882851983E064FE700690CA
:1001900003877401F0851882851983E0F890038441
:1001A000E068F07901AA18AB191210FEE970030299
:1001B0000287851882851983E064EF70027E07E06C
:1001C000C0E0900387E0FA900385E0F8EA28F8E4BD
:1001D0003400F9740228F582740339F583D0E0F015
:1001E000900387E0609E14600E14602B14603B1433
:1001F0006051146067809E900384E4F085188285C6
:100200001983E0900386F0C394809003874003E451
:1002100080827402020194851882851983E090031C
:1002200082F09003877403020194851882851983F4
:10023000E0900383F0900386E060199003877404D4
:10024000020194900385E004F0F8900386E0686072
:10025000030201959003877405020194900385E4DD
:10026000F0900387F0900384E0F885188285198365
:10027000E0686003020195900382E0644D60030230
:1002800001951203BF8002EEF97401121E4C0201A7
:100290007174F7121BE274FB121ECBEAFEEBFF75C2
:1002A00008047509007808121EE57402121F4C7AC2
:1002B000907B0079041219007402121E4C1207156B
:1002C000121F9DE0687003A3E06970128518828593
:1002D0001983E0F47003A3E0F4600302039A74044A
:1002E000121F441207778A088B09A808A90974020B
:1002F000121F9DE8F0A3E9F07404121F9DE060084E
:1003000079011201510203B3851882851983E068CF
:100310007003A3E0697076851882851983E0F47014
:1003200003A3E0F470197402121F9D7410F0A374FB
:1003300020F08518828519837410F0A37420F0755D
:1003400008017509007808121EE57402121F4C7A24
:10035000247B081219847402121E4C750804780854
:10036000121EE57402121F4C7A907B007904121958
:10037000007402121E4C120715121F9DE0687003D4
:10038000A3E069700479028006790480027903127F
:1003900001518E828F83741E80058E828F83E4F0DC
:1003A000120715121F9DE0687003A3E069700479BD
:1003B00001800279007405121E4C7F02021D8174B7
:1003C000E9121BE274F8121ECB900307E0FA9003C7
:1003D00006E0F9FEEAFCE4CCFDEE2CED3408FF75F6
:1003E0001001750F00750E068E088F0974027808CB
:1003F000121F31C39508FCE49509FD74022CF51415
:1004000074033DF515E5142497F516E5153420F52C
:1004100017EE2410F508E43FF509EEF50CEF540152
:10042000F50D8E128F1374097812121F6385120A4C
:10043000900383E0146057147003020506147003E0
:1004400002057D14601024FE700302063814700348
:100450000206E80206F8750E03794E1213D29003D5
:100460000712070B7402F0A37440120709740812F4
:100470000709F0A3F07418C3940704F510AA10A993
:100480000F120723A90E7408121E4C0208DD750E08
:1004900004794E1213D2EE450D7005A90A1219EA1D
:1004A000C3EE9425EF9408503FC3E5089424E50972
:1004B00094084034E5142496F8E5153420F9888230
:1004C0008983E0701E851682851783E0701590037E
:1004D000887401F08882898374A5F0851682851757
:1004E000838004900388E4F075081075090078088B
:1004F000121EE57C087D03EEFAEFFB1219847402EC
:10050000121E4C02047D750E05C3E50A947995E030
:100510004006750F0102047D7510407511007810BA
:10052000121EE57C097D037402780C121F31AA0C9F
:10053000AB0DA90A1219007402121E4C900307E0B9
:10054000A3F0900306E0A3F0751043C3EE9425EFEB
:100550009408400302047DC3E5089424E509940847
:10056000500302047D900388E0700302047DA81606
:10057000A91788828983E4F0A3F002047D7508043A
:100580007509007808121EE57402121F4C7A907BE0
:100590000079041219007402121E4C7402121F9D7D
:1005A000E0F8A3E0F9851882851983E0687003A359
:1005B000E069851882851983700BE0F47003A3E06D
:1005C000F470578009E0F47003A3E0F4700D85180F
:1005D000828519837410F0A37420F0120715121F7E
:1005E0009DE8F0A3E9F07508017808121EE5740291
:1005F000121F4C7A247B081219847402121E4C7547
:1006000008047808121EE57402121F4C7A907B00D1
:1006100079041219007402121E4C120715121F9D44
:10062000E0687003A3E0697006750E0102047D7531
:100630000E02750F0702047D9003D6E06007640286
:10064000600302047DEAFF7A017900120723E0606B
:10065000030206DC800312119A121181E970F7740B
:1006600004121F9D1206FD7404121F9D7808121FAC
:100670008185080C85090D850A0E850B0F9003C234
:10068000780C121F0B7404121F9D780C121F72E558
:10069000084509450A450B70CE8EC2E5C554E04FAA
:1006A000F5C57404121F9D1206FD7404121F9D7877
:1006B00008121F8185080C85090D850A0E850B0F10
:1006C0009003C2780C121F0B7404121F9D780C1239
:1006D0001F72E5084509450A450B70CE7A0179007D
:1006E0001207237908020486E9900391F07003024F
:1006F000047D750E0902047D7906020486E4F0A3E8
:100700007426F0A3E4F0A3F022F0A3E4F0A3F0A396
:10071000F0A3F0A322851882851983E0F8A3E0F9FD
:1007200074022274F8121BE2EAFE900305E0D2E79D
:10073000F0E9A3F0EE900303F08E0874042AFE7C27
:10074000028004E062080CECFA3395E0FB74022AA4
:10075000F58274033BF583EEF8C3EA98EB9400A2AC
:10076000D265D03340DDE508F074012AF97A027BC6
:100770000312113C02017174E9121BE275820075CB
:1007800083FE121E2E8A168B177514007515008AAB
:10079000828B83E4F09003D6E07006D2AAD2AF80B9
:1007A00004640270057900120151750C00750D206A
:1007B000750E00750F009003D6E06004640270159A
:1007C00012119A120176E9F874096860030208B3FD
:1007D0007900120151E064027007A29240030208FE
:1007E0008E7508007509027808121EE57402121F42
:1007F0004C850C08850D09AA08E5095407FB850EF0
:100800000A850F0B740B7808121E9CA90812190098
:100810007402121E4C7E007F009003CAC0828E10AC
:10082000EFF5113395E0F512F513850C08850D09E8
:10083000850E0A850F0B78087910121F1E9003C6CB
:100840007808121F0B758303D0827808121E0F5090
:100850001D851882851983E5822EF582E5833FF593
:1008600083E0F9AA14AB151208E28A148B150EEE78
:1008700070010FC3EF940240A09003CE780C121FBA
:100880000B9003D2780C121E0F40030207B67900BA
:10089000AA14AB151208E279001208E28B15900336
:1008A000D6E07004C2AFC2AAEA451570277AA57BCC
:1008B000A58021E870030207D5740668700302075B
:1008C000D574076870030207D5851682851783746F
:1008D00001F080BA758200758302121E2E7F10020D
:1008E0001D81C008C0097C088A088B09740F78082C
:1008F000121F63E508F8EA25E0FAEB33FBE9A2E70B
:10090000500474014AFAE8A2E0500874216AFA74AB
:10091000106BFBE9C333F91CEC70CDD009D0082271
:10092000C082C083120F4860030209F2A3E0F8A35B
:10093000E060030209F2A3E064027002A3E0600336
:100940000209F29003B8E02480600914604C14603E
:10095000590209F2E860030209F29003B2E0900341
:10096000C060077401F0A3E48003E4F0A3F09003F7
:10097000B1E060079003C0E04402F09003A6E06499
:100980000460149003B374C0F0A37403F0A3E4F004
:10099000A37402120FAAF0020E8390039FE0640476
:1009A00070509003C0E4F0A380D0E8547FFA900325
:1009B0009FE06404703CEAC394065036749F2AF5A5
:1009C00082E43403F583E85480600EA3A3A3A3A3B9
:1009D000A3A3E0640370CB800FE582240CF5825062
:1009E000020583E0640370BA9003C07401F0A3E4CD
:1009F00080889003A67404809D74F8121BE2E9FEBF
:100A00009003BE120F4B6003020ADB90039FE06469
:100A100004600B9003BC120F4B6003020ADB9003CF
:100A2000B8E0541F6009146030146020020ADB90A3
:100A300003BAE064017022EE9003B1F0600479051E
:100A4000800279067A00121BE0020AE19003BCE002
:100A5000547FFA9003BAE060057900020AE3EAC322
:100A600094065077EA90620EF0749F2AF8E43403FB
:100A7000F99003BCE05480602EEE60047410800294
:100A80007440906211F0EE60047B0380027B00EB07
:100A900088828983A3A3A3A3A3A3A3F0EE60047910
:100AA00008802F7907802BEE60047B2080027B80FA
:100AB000EB906214F0EE60047B0380027B00E8247C
:100AC0000CF582E439F583EBF0EE6004790A8002DC
:100AD0007909121BE090620EE480059003A674046D
:100AE000F079017F01021D8179001209F9E9700393
:100AF000121BCF2279011209F9E97003121BDE22C1
:100B0000C082C0839003BC120F4B7015A3120F4B11
:100B1000700F9003BA120CEE5480FAE9FBEA4B60B6
:100B2000079003A67404801AE8906200F090039F77
:100B30006009E06402700C74038007E064037003D2
:100B40007402F0020E8374F1121BE29003BAE0FC0F
:100B5000A3E0FBE4CBFA14600814601014603B803F
:100B600059121769120CD5A37B808043ECFA7900E7
:100B700012178B120CD57B80E92402F9E43AFA12A1
:100B80001E82FC1919E0FAA3E92403F9E43AFA12E7
:100B90001E82F9ECA3F0A3E9801CECF91217F9907E
:100BA00003B3EAF0A3EBF0A3E4120CE4A37B00127E
:100BB0001E82A3F0A3E4F0020C8F9003B3E4F0A331
:100BC000F0A3F0750B009003BCE0F50CA3E0F50D6D
:100BD00090047DE0FEA3E0FF020C6A8B09740378A9
:100BE00008121F31EE2508F8EF3509F9880E8882C2
:100BF000F583E493F8EA687001E4706CA3E493F879
:100C0000EC687001E47061850E828983A3A3E4938C
:100C1000F508E50D65087001E4704D850E82898345
:100C2000A3A3A3E493F8E50C687001E4703A850E81
:100C3000828983A3A3A3A3E493F508740193F50920
:100C40009003B3E508F0A3E509F0A37480F0850EE6
:100C5000828983A3A3A3A3A3A3E493F8740193F9C4
:100C60009003B6E8F0A3E9F0050B850B0890047F2C
:100C7000120CEEC39EF50EE99FF50F7403780E1269
:100C80001F63C3E508950EE4950F5003020BDB903C
:100C900003B3E0FCA3E0FDA3E0FEEC4D4E9003A601
:100CA000700474048029E0640460259003BEE0FAB7
:100CB000A3E0FB9003B6E0F8A3E0F9C3EA98EB9950
:100CC00050089003B6EAF0A3EBF09003A67401F08D
:100CD0007F08021D819003B3EAF0A3EBF0A37480B8
:100CE000120CE422F09003B3E0F9A3E0FA22E0F85A
:100CF000A3E0F9E82274EE121BE2EA2404F8E43BD4
:100D0000F9880889098882F583E493602590048135
:100D1000120CEEFEE9FF8007EE2404FE50010F8E58
:100D2000828F83E493F8740193F9EA687002EB69A7
:100D300070E6750B00803F9062147490F07410128E
:100D40000E4A7003750A408E828F83A3A3A3E49397
:100D5000550E6006E50AD2E0F50AE50A906215F044
:100D6000EA906213F0EC240CF582E43DF583E4F0A4
:100D700090620EF0050B850882850983E493F8E5FF
:100D80000BC3984003020E457A0079051216FC8ABF
:100D90000C8B0DEA450D60DCEA2402F8E4350DF910
:100DA000881089118882F583E493540FF5129062BC
:100DB0000EF0750A008A828B83A3A3A3A3E4932475
:100DC00007F50EA3E4933400F50F7403780E121F99
:100DD00063AA0EA812749F28F8E43403F9E8FCE92A
:100DE000FD750E01750F00E512780E121F31E50E2C
:100DF000F50EE50C2403F8E4350DF9851082851114
:100E000083E493A2E74003020D379062117448F027
:100E10007408120E4A7003750A408E828F83A3A352
:100E2000E493550E6006E50AD2E0F50AE50A906201
:100E300012F0EA906210F08C828D83A3A3A3A3A387
:100E4000A3A3020D6E7F0B021D81F088828983E4CB
:100E5000935403640122C082C083120F487010A310
:100E6000120F4B700AA3E064017002A3E0600790C8
:100E700003A67404800C9003B374A0F0A37403124F
:100E80000FA0F0D083D0822274F3121BE290039F54
:100E9000E0640260149003BC120F4B700CA3120F9D
:100EA0004B70069003BBE060099003A67404F00247
:100EB0000F437A007901121BE09003BAE0606F7A69
:100EC00000F912178B8A0A8B0BEA450B60589003C6
:100ED0009F7404F09003BAE09003A0F075080085B9
:100EE0000A82850B83A3A3A3A3E493F8E508C39820
:100EF000504AA80874A128F8E43403F9E8FEE9FF91
:100F00008E828F83E4F07A0079041216FC8A828B39
:100F100083A3A3A3E493F88E828F83E06870E71223
:100F20000CF5050880B99003A67404F0800E9003B8
:100F3000A0F090039F7403F0F912167C7A007902F6
:100F4000121BE07F06021D819003BAE0F8A3E0F9CE
:100F5000E8492274F6121BE290039FE064047019C2
:100F60009003B8E064817011120F48700C9003BEBA
:100F7000E064017002A3E060079003A67404801A85
:100F80009003BCE024A1F508A3E03403F509900325
:100F9000B3E508F0A3E509120FA0F07F03021D815D
:100FA000F0A3E4F0A304120FAA22F0A3E4F090034C
:100FB000A6042274F7121BE290039FE0640470649D
:100FC0009003B8E06401705C9003BE120F4B705444
:100FD0009003BAE0FB9003BCE0FA9003A0E0F912A2
:100FE00017C38A088B09AE08AF09EE4F603690032D
:100FF000BCE0FA7903121BE09003BAE0C0E0900372
:10100000BCE024A1F8A3E03403F988828983D0E00E
:10101000F0EEFAEFFB120CF59003BCE0FA79041243
:101020001BE080069003A67404F07F02021D81C0BD
:1010300082C0838003121A46A2E840F9A823E8542C
:101040000460097823E654FBF6121423A823E8541D
:101050001060097823E654EFF6121444A823E8A29E
:10106000E05005782354FCF690620EE0FA7404F028
:10107000906214E0A2E05039A9A8C2AF906216E0D5
:10108000F8A3E0E8FBE9A2E792AF8017906228E0BE
:10109000C0E0900393E0F8121131D0E0F090039398
:1010A000E004F0EBFD74FF2DFB0470E0906214E4AB
:1010B000F0EA90620EF0E0FC7404F0906211E0A29D
:1010C000E04031900395E0F8900394E06860257A61
:1010D00040900394121174E0906228F0900394E021
:1010E00004F008900395E06860041AEA70E39062E7
:1010F000117401F0EC90620EF0D083D0822274F86B
:10110000121BE2E9FE79008012121131E08A828B13
:1011100083F0900392E00412116909900392E0F8C1
:10112000900393E0686005E9C39E40DD7F01021DE6
:1011300081748528F582E43404F58322C082C0835B
:10114000E9FC80188A828B83E0C0E090039512113D
:1011500074D0E0121169900395E004F0ECF874FF8C
:1011600028FC0470DF79018090F08A828B83A3AA27
:1011700082AB8322E0F8748528F582E43405F58398
:1011800022C082C083900395E0F8900394E06860E9
:10119000047901800279000210F902102F74FB1209
:1011A0001ECB7E009006857808121F81794A1213A3
:1011B000D29006857401F0A3F0A37469F0A374A51E
:1011C000F09003D77808121EF670047E0180159007
:1011D00003DB7808121EF66008E59D541864107051
:1011E00003022000EEF9121349C280D291EEA2E070
:1011F00050030212FCAA18AB19120291E970030203
:1012000012FCC291851882851983E0C3943C500E6C
:10121000E0F8743CC398F50895E0F5098006750878
:1012200000750900E4F50AF50B9003DF780C121F36
:10123000817808790C121AE6790612015112102FE2
:10124000120176E9F8740968700779061201518075
:10125000277407686016A2935012E8600874066845
:1012600060030212FCA292400F0212FC7508007586
:101270000900750A00750B0085080C85090D850AA3
:101280000E850B0F9003C27808121F0BE50C450D5D
:10129000450E450F70A7D2807907120151800312C5
:1012A000102F121181E970F77E007F007401121F68
:1012B0009DE4F0A37426F0A3E4F0A3F07401121FE0
:1012C0009D7808121F8185080C85090D850A0E85F9
:1012D0000B0F9003C2780C121F0B7401121F9D7824
:1012E0000C121F72E5084509450A450B70CEA29203
:1012F00050FCA29350F81213CD022000D280D2915C
:10130000794E1213D2750800750900750A00750B25
:1013100000790512015112102F120176E9F87409B3
:101320006860EE74016870EE12102F9003E3780885
:10133000121F0B9003E77808121E0F50EB1213CD0B
:101340000220007405121E4C2274F8121BE2E9FE02
:1013500053BEFBE59DA2E650FA0078F8790100E85B
:1013600024FF18E934FFF9E84970F375C6807480EA
:10137000659E70FA43BE049062707408F01213C246
:10138000EE700853F4FEC29043FE017403F5D57568
:10139000D489900396E4F0A374C2F0A37401F0A37F
:1013A000E4F0A3F0A3F0A37408F01213E87AFF7B33
:1013B000FF121A0153F4FED29043FE011213C2022F
:1013C000112CD28043FD01C29143FE0222D280C281
:1013D0009122781075B60FE5B4A2E750FAE5BBC3C9
:1013E0009940F118E870ED2274F7121BE27A007947
:1013F0000112178B8A828B83A3A3A3A3A3A3A3E4C5
:1014000093A2E69003B2500474018001E4F09003CB
:10141000B1E4F090620F7403F0E0A2E750FB7F02AA
:10142000021D81C082C08390039F7402F0A3E4F088
:101430009003A6F0790312167C752100752200D066
:1014400083D0822274F6121BE290620EE0FEE4F07A
:10145000906211E0FFA2E4501D7480F09003A67426
:1014600007F0E52145226009852182852283121F2C
:10147000AC9003A6E4F0EFA2E2500B906211E4F00E
:101480009003A6F080679003A6E0F87402687046A7
:10149000906216E0FF9003B3121DC1EFF97A207B32
:1014A000621216967403121E4CEFF89003B61216D1
:1014B0005A1216642F12166CA3E0F8A3E0F9E8495B
:1014C0006004744080027448906211F0E84960033F
:1014D00002165002162C7406687009852182852236
:1014E00083121FAC9003A6E060030215D7EFA2E0C1
:1014F00040030216507508B8750903750A0078088C
:10150000121EE179087A207B621216967403121E6D
:101510004C7521007522009003B8E054E0601D2452
:10152000E070030215B224E0607224C0604824E039
:1015300070030215BD24E0606E0215C8A3E01460BC
:101540002624FE601D24FE600A24FC601F24FE6029
:10155000208075120B009003A6E06404707278601E
:101560008070120AF480EF120AE880EA120E888076
:10157000E5120FB380E0A3E0600E24FA600F24FEB2
:10158000601024FE6011804012092080C9120B46B1
:1015900080C4120E5680BF120F5380BA7521CB75CE
:1015A000221B121BCB80AF7521CD75221B121BCDC8
:1015B00080A475216675221B121B66809975219681
:1015C00075221B121B96808E9003A67404F0808EE9
:1015D0007840E8906211F09003A6E0F8740168701A
:1015E000617F029003B6E0F8A3E0F9C3E89420E934
:1015F00094005007E8F5087F0A80037508209003DF
:10160000B3121DC1A9087A207B621216C17403129D
:101610001E4CAC081216642C12166CA808A31216E5
:101620005AEF906211F0E8C394205024E52145223E
:101630006009852182852283121FAC9003A6E4F005
:10164000800E7405687009852182852283121FAC83
:10165000EE90620EF07F03021D81C3E098F0A3E0DC
:101660009400F0229003B31216EEE922F9E43AFA5C
:101670009003B3E9F0A3EAF0A3EBF022C082C083A9
:10168000E99003A77805F0A3D8FC9003AC7805F0A7
:10169000A3D8FC02143F74F8121BE2EAFCEBFDE94C
:1016A000F87408121F9D1216E960118C828D83E078
:1016B000121EB5E9240109E43AFAD8EF7F01021DB0
:1016C0008174F8121BE2EAFCEBFDE9F87408121FC2
:1016D0009D1216E96011121E828C828D83F0E9241E
:1016E0000109E43AFAD8EF80D31216EEE822E0F9C5
:1016F000A3E0FAA3E0FB22D083D08222C082C08381
:10170000E9FCEAFD7A007B00800312174790039DF5
:10171000E0F8A3E0F990047BE0687003A3E069605F
:101720002490039EE0F5838882A3E493F8EC68702C
:101730000D90039DE0FAA3E0FB1217478007ED68C8
:1017400070C8ED60C580B090039DE0F8A3E0F5831C
:101750008882E493F890039DE028F8A3E03400F930
:1017600090039DE8F0A3E9F022C082C08312177AAB
:101770007A0079011216FC0216F7900479E0F8A3BA
:10178000E0F990039DE8F0A3E9F02274F7121BE260
:10179000E9FFEAFE12177A7A0079021216FCEA4B88
:1017A000601CEF60108A828B83A3A3A3A3A3E4939E
:1017B0006F70E48009EEF874FF28FE0470D97F0290
:1017C000021D8174F5121BE2EAFF8B087A001217E2
:1017D0008B7A0279041216FCEA4B60188A828B839A
:1017E000A3A3E4936F70EA8A828B83A3A3A3E493F9
:1017F000650870DD7F04021D8174F7121BE274F02E
:10180000121ECBE97A007B00600C14601014601487
:101810001460180218E97AF37B030218E97AF77B5F
:10182000030218E97A1B7B040218E990043FE06088
:10183000030218E59003EB7408121F4C7408121D84
:10184000EE750808F5097808121EE57402121F4C9F
:101850007AE87B07797F1219007402121E4C78080F
:10186000121EE5740A121F4C7402121F44121CA5AA
:101870007402121E4C8B09EA45097019750900782B
:1018800008121EE57C0C7D787402121F44121D3B69
:101890007402121E4C7C287D00EDF8851882851993
:1018A00083E58228F582E43583F583E0FFECF87464
:1018B0003F28F8E43404F9EF1218F188828983F0A4
:1018C000EFC41218F1C0E0E824FEF582E934FFF518
:1018D00083D0E0F00D74FC2CFCEDC3940840BA906A
:1018E000043F742AF07A3F7B047410121E4C0217D6
:1018F000BE540FFA74692AF582E43404F583E022B9
:1019000074F6121BE2890A740F550AF5087509006E
:10191000740B7808121F31EA2400F8EB3480F9E8E0
:101920002400E93509F985C709A2AFE433F508C2F7
:10193000AFE50AC4540FFAE5C754F84AF5C7740A6C
:10194000121F9DE0FAA3E0FB801C88828983E08C53
:10195000828D83F088828983A3A882A9838C828D5B
:1019600083A3AC82AD83EAFEEBFFEE24FF1AEF34D3
:10197000FFFBEE4F70D48509C7E508A2E092AF7F68
:1019800003021D8174F7121BE2ED900389F0ECA3B2
:10199000F0A37462F0A37473F0A3E0541FF0740911
:1019A000121F9DE0F508A3E0F509E508333354FC68
:1019B00090038EF074067808121F63E50890038D7B
:1019C000F090038F7412F0A37442F075D1FE75D6B7
:1019D00001EA906271F0EBA3F0906270E0D2E1F066
:1019E000E0A2E740FB7F02021D81C082C083E9C301
:1019F00033906272F0906270E0D2E0F0D083D082D7
:101A00002274F7121BE27523007524007525008AE5
:101A1000268B27EA90620BF08A088B0974047808F9
:101A2000121F63E508906207F08A088B0974097831
:101A300008121F63E508543E906209F0758B00C2DE
:101A4000E87F02021D8174F7121BE2E59DA2E650B9
:101A5000FA906206E0F9A2E25034AA26EA90620BFC
:101A6000F0F50885270974047808121F63E50890CB
:101A70006207F08A0885270974097808121F63E550
:101A800008543E906209F0906201E0D2E0F0E978FB
:101A90002346F6906202E0F50875090074047808A0
:101AA000121F317823E50846F608E50946F69062EC
:101AB00004E0F50875090074097808121F317824CC
:101AC000E50946F6E9A2E050037525017406596060
:101AD00003752500E58BA2E55006758BDF752500A3
:101AE000121BE1021A3C080808EAC0E0EBC0E086DD
:101AF000F0E7A4FA180986F0E7A42AFA180986F094
:101B0000E7A42AFA180986F0E7A42AFA1986F0E76A
:101B1000A4FBE5F02AFA190886F0E7A42BFBE5F010
:101B20003AFA190886F0E7A42BFBE5F03AFA181800
:101B30000986F0E7A4C5F02BFBE43AFA1908E7C5DB
:101B4000F0C6A426F6E5F03BFBE43AFA1886F0E787
:101B5000A4F6E5F00826F6E43B08F6E43A08F6D0E9
:101B6000E0FBD0E0FA22C082C0839003B9E0F874B1
:101B7000226870089003A6E0701A801174206890A3
:101B800003A6700DE0700D121BBD9003A6740280B9
:101B9000027404F08043C082C0839003B9E06421E2
:101BA0009003A67013E07013121BBDA37407F0A37B
:101BB000E4F09003A60480027404F0801C9003B348
:101BC0007496F0A37403F0A3E4F02280028000C0B6
:101BD00082C0839003A67404F0D083D0822280EF69
:101BE00022222518C582C0E0E51934FFC583C0E074
:101BF000E518C3958224F910AF08858319858218EA
:101C00008008858319858218D2AFCEF0A3E520F035
:101C1000A37808E608F0A3DEFAEFF0A3E58124FB41
:101C2000F8E608F0A3E608F0A30808E608F0A3E643
:101C300008F0A315811581D0E0FED0E0F8158115DC
:101C400081E8C0E0EEC0E0221201000202000020A4
:101C50005104A81609000102030109024300020110
:101C6000008019090400000102020100052400108F
:101C700001042402020524060001052401000107D5
:101C800005820340004009040100020A0000000729
:101C900005840240000007050402400000631C00A8
:101CA00000861C000074F8121BE27408121F9DE0ED
:101CB000FEA3E08015A3AA82AB838C828D83A3ACA4
:101CC00082AD83EE24FF1EEF34FFFFEE4F60198CD0
:101CD000828D83E0F88A828B83E0F9E86960D6E937
:101CE000C398FA95E0FB80047A007B007F01021D17
:101CF00081E479217807B800028004F709D8FCE470
:101D000090030278C179018002F0A3D8FCD9FA7A55
:101D1000C27B0390008E78C479018015E493A3AD53
:101D200082AE838A828B83F0A3AA82AB838D828E5C
:101D300083D8E9D9E712119D121FA774F7121BE28D
:101D4000EAF8EBF97409121F9DE0FEA3E0FF80188A
:101D50008C828D83E088828983F0A3A882A9838CFA
:101D6000828D83A3AC82AD838E088F09E50824FFA2
:101D70001EE50934FFFFE508450970D47F02021D06
:101D800081851983851882E0A3FEE0A3F5207808F9
:101D9000E0A3F608DFFAE0A3FFE0A3C0E0E0A3C001
:101DA000E0E0A3C0E0E0A3C0E010AF0885821885A2
:101DB00083198008858218858319D2AFD083D08299
:101DC0002274038000CCC0E0EDC0E0E518C39CCCD9
:101DD000AD1950011D10AF068C188D1980068C1896
:101DE0008D19D2AF121DEED0E0FDD0E0FC22CAC0AA
:101DF000E0E0A3C582CCC582C583CDC583F0A3C571
:101E000082CCC582C583CDC583DAE6D0E0CA22C0C4
:101E100008C3E096F50808A3E096420808A3E096F8
:101E2000420808A3E09645087001D3D00822C58275
:101E30002518C582C583351910AF07F51985821895
:101E40008007F519858218D2AFC5832200C0D0253E
:101E50001810AF08F518500C05198008F518500235
:101E60000519D2AFD0D0222518F58210AF08F51889
:101E7000400C15198008F51840021519D2AF8519C4
:101E80008322BB0102E722C082C08389828A83BB8E
:101E90000003E08002E493D083D082226016080819
:101EA00008C6C313C618C613C618C613C618C61369
:101EB000C6D5E0EA22BB000EC082C0838A83898235
:101EC000F0D083D08222BB0101F722251810AF0881
:101ED000F518400C15198008F51840021519D2AFF5
:101EE000227403800474028000C0E0F404121E67B0
:101EF000D0E0121F9022E066701008A3E066700A1E
:101F000008A3E066700408A3E06622E026F608A3B2
:101F1000E036F608A3E036F608A3E036F622E62718
:101F2000F60809E637F60809E637F60809E637F64F
:101F300022700422600D18C6C333C608C633C6D546
:101F4000E0F418222518FAE43519FB222518FCE4E0
:101F50003519FD2275D00075813F7518027519037A
:101F6000021CF1600C08C6C313C618C613C6D5E020
:101F7000F422E6F008A3E6F008A3E6F008A3E6F0F2
:101F800022E0F608A3E0F608A3E0F608A3E0F622B4
:101F9000CAC0E0E6F0A308DAFAD0E0FA222518F584
:101FA00082E43519F5832200000080FBE473FFFF13
:101FB000FFFFFFFFFFFFFFFFFFFFFFFFFFFFFFFF31
:101FC000FFFFFFFFFFFFFFFFFFFFFFFFFFFFFFFF21
:101FD000FFFFFFFFFFFFFFFFFFFFFFFFFFFFFFFF11
:101FE000FFFFFFFFFFFFFFFFFFFFFFFFFFFFFFFF01
:0A1FF600850609433886000000004C
:020000040003F7
:01FFF000F020
:0400000500001F5484
:00000001FF
