:020000040027D3
:10B000000008002095BE270038B50025DFF8BC43B6
:10B010001DE0A078904204BF22784D2A03D16078C9
:10B0200000F092F805460021E1700BE0E06AB0F50F
:10B03000007FF8D2636A1A54401C8842E06201D152
:10B040000520E070A0789DF800104840A070012114
:10B05000684600F015FB00283BD0E3789DF800001F
:10B06000A16A092B0246EDD8DFE803F0080F141798
:10B0700007061F22272CE5E7CBE7D7E7FE2AE1D119
:10B080000120E0700020E062DCE7A0620020A070F8
:10B090000220D6E720700320D3E700296070CFD0CC
:10B0A000FF2914BF04200620CBE7A0620720C8E7D1
:10B0B00001EB0221A1620820C3E701EB0241A1627A
:10B0C0000920BEE711EB0261A1620CBF052004203C
:10B0D000B7E7284632BDF8B5BD4DBE4C296800948F
:10B0E0008868B0F1A53F26D10A69CB68BA4F022023
:10B0F0009A42B6414FF0000CF60FC7F800C0C7F8EF
:10B1000000C00BD1B54EB34204D3401E04E05B1C1B
:10B110000028F7D11E787E609342F8D178683A68AB
:10B120000B6842EA002292B2934204D10422083111
:10B13000684600F0DCFA2A689068A04201D101203C
:10B14000F2BD0020F2BD00002DE9F14F84B00020D7
:10B1500001908DF800000027DFF870829DF8100044
:10B16000D8F824309E4A401E03281E461ED8DFE829
:10B1700000F01E87B902202108F1040000F0D2FA85
:10B18000012030707770B770F770307106F10D01E3
:10B1900040207071B771F771377277720820B07202
:10B1A000F7723773D8F82400091A0191ACE01D78C2
:10B1B000587805EB0025987805EB0045D87805EB25
:10B1C0000065341D207894F8019094F802C0261D83
:10B1D00000EB0920E47800EB0C4000EB046044191C
:10B1E000641E891BB5F5001F03EB01096ED3944261
:10B1F0006CD248456AD3A5F500104FEAD02B0DE07C
:10B2000008F104004FEADB010122405C02FA0AF275
:10B21000104308F1040250540BF1010BA4F5001087
:10B22000C00A584513D308F104014FEADB000BF0C4
:10B23000070A095C21FA0AF1C907EDD44FEACB20CD
:10B2400000F5001000F046FA0028D9D00127C9F116
:10B25000040414F0030405D0FF22214606EB090084
:10B2600000F064FA3800A1444ED1B9F1000F4BD080
:10B270004A462946304600F03AFA002844D025E0F4
:10B280001D785878997805EB0025D87805EB0145AD
:10B2900005EB0065341D20786178A37800EB012070
:10B2A000E17800EB0340261D00EB01604419641EA9
:10B2B000B5F5001F0AD394423CBF40F201218842F9
:10B2C0003EBFA4F50014E40AF92C01D301271BE0CA
:10B2D000044624B36119491E0978FF2908BF641E7A
:10B2E000F7D01CE03A4D3B4C2868029400F108016D
:10B2F000042202A800F0FBF928688168A14206BF79
:10B3000001218DF800100727019A9DF81000394699
:10B3100000F010F89DF8000005B0BDE8F08F22465F
:10B320002946304600F036FAD8F82400361AA61915
:10B330000196E9E770B584B003461446FE25002067
:10B34000621C8DF80050FF2A32BF8DF80120FF25C6
:10B350008DF801504D258DF8025043F08003FF2AEF
:10B360008DF8033001AD0BD38DF80420150C8DF84A
:10B370000650130A120E8DF805308DF8072002AD25
:10B3800005F8011B69466D1A012103E01DF8012033
:10B390005040491CA942F9D30C4A536A002103E0EA
:10B3A0005E5C7040C0B2491CA142F9D31855694295
:10B3B000506A46182A466946304600F0EBF964198F
:10B3C000641CA1B2304600F05AF97FBD0040002055
:10B3D0003440002005A0A00514700D401C01200081
:10B3E00000B827002DE9F84FAC4F07F180058846DB
:10B3F000297800260446002904BF6878002833D144
:10B40000DFF89C926946484600F058FA0028F7D1C8
:10B41000DFF890A200220121504600F07DFADFF80B
:10B4200088B200E000BF2021584600F071FA800683
:10B43000F8D46946484600F037FA0098697878549D
:10B440006878401C68706946484600F037FA012861
:10B45000F3D02021584600F05BFA0028F3D00122F7
:10B460000121504600F058FA2878697888420FD0B8
:10B47000B1B241450CD2385C04F8010B2878401C6D
:10B480002870C0B28028A4BF00202870761CEBE78B
:10B49000B0B208B968702870BDE8F28F2DE9F843A2
:10B4A00005460E46804C00E000BF00F036F88006EE
:10B4B000FAD4DFF8F09100220121484600F02CFA7E
:10B4C000DFF8DC8115F8011B404600F0D8F9694629
:10B4D000404600F0F3F901270EE000F01EF870B9C5
:10B4E0002978404600F0D4F90128F6D16946404653
:10B4F00000F0E4F97F1C6D1CB8B2B042EDD300F04F
:10B500000CF8002801D100BFF9E7012201214846CB
:10B5100000F002FAB8B2BDE8F2832021204600F024
:10B52000F7B980B50122C021604800F0D5FA0022A9
:10B530000021012000F090FB5D4801680A03FCD562
:10B540005C490820086000F005F8BDE8014000F003
:10B55000D3BB0000FEB5534C0121204600F0E5F9B5
:10B5600000F088F8504D2021284600F0D9F920221B
:10B570002021284600F0D0F94FF4807000F0C0FB85
:10B58000202000F0B5FB4C4D3C21284600F0D2F9BC
:10B5900003222021284600F0DBF9484A04212846EE
:10B5A00000F00AFA464A1021284600F005FA454AFA
:10B5B0000821284600F000FA394D284600F053F9DA
:10B5C0000021284600F08BF900F06CFB01460820B2
:10B5D0003D4A0190009201230322284600F016F90B
:10B5E0000F21284600F045F90F21284600F044F9C4
:10B5F000284600F032F902A9284600F05FF9002839
:10B60000F9D1002200F037F86FF07F462F4F02E0AB
:10B61000EF2808BF00263046461E20B3694628465C
:10B6200000F04CF90128F6D19DF800001028EFD168
:10B6300000F020F8FFF7E8FC39780843002838705C
:10B64000F8D040F6FF7000BF401E0028FBD128460E
:10B6500000F009F94FF4807000F056FB78684069FB
:10B6600000F010F8F7BD00F005F8FFF734FD0028F2
:10B67000E7D1DFE701220121204600F04DB90DE7B7
:10B68000B0E6000001B41249086001BCD0F800D057
:10B690004FF0FF3E406800477047000038420020EE
:10B6A0000080004000A00D4000B00D4000C00D40E3
:10B6B00004200D4008300D4000900D4018410D4011
:10B6C00010410D4014410D4080841E003040002088
:10B6D00008ED00E038B5124A146854234FF40061B5
:10B6E0001A689047FFE700F00CF8284632BD70B5A5
:10B6F0000B4B1C6858252E68B04700F002F828460E
:10B7000070BD054604F00C00FFE705490A68130602
:10B71000FCD422F00C0210430860704700000000C7
:10B7200008300D40002200F005B8000062F30F223F
:10B7300062F31F42401810F0030308D0C91A1FD348
:10B74000DB0748BF00F8012D28BF20F8022D1300A9
:10B7500030B414461546103928BF20E93C00FAD809
:10B76000490728BF20E90C0048BF40F8042D890094
:10B7700028BF20F8022D48BF00F8012D30BC7047CB
:10B78000C91818BF00F8012DCB0728BF00F8012DFC
:10B790007047000062B38B0708D0521E11F8013BBE
:10B7A00000F8013B00F024808B07F6D1830740F0BE
:10B7B000208000BF103A07D330B4B1E83810103AF7
:10B7C000A0E83810F9D230BC530724BFB1E8081004
:10B7D000A0E8081044BF51F8043B40F8043BD207EE
:10B7E00024BF31F8022B20F8022B44BF0B780370E2
:10B7F0007047083A07D3B1E80810083A40F8043B0C
:10B8000040F804CBF7D25307E4E7000030B5022B31
:10B810001FD1082444F00404039B051DB1FBF3F180
:10B820002C6000239B1CB1FBF3F4641EB4F5807FF5
:10B83000F8D2049900F11005491E2B60930103F022
:10B84000C00343EA042302F030021A430A430260B1
:10B8500030BD0024002BDDD1DEE750F8041F41F09D
:10B8600002010160704750F8041F21F002010160DD
:10B87000704750F8142F2EE040F8201F704710B585
:10B8800000F10C0213689C07FCD540F8081F10BD9E
:10B8900010B500F10C0213689C0703D540F8081F8F
:10B8A000012010BD002010BD10B500F10C0213687E
:10B8B0005C07FCD508300068086010BD10B500F1C9
:10B8C0000C0213685C0704D508300068086001208A
:10B8D00010BD002010BD22EA01010160704700F692
:10B8E000C87001607047000030B5CB4300F580643C
:10B8F000D50725684CBF0D431D40256000F58460C9
:10B90000920747BF0268114301681940016030BDCA
:10B9100000EB81000068704700EB81000260704717
:10B9200038B504460D46002208E038B504460D46F9
:10B93000012203E038B504460D460222FFF7D4FF8A
:10B9400029462046BDE83840002200F0C5B8000076
:10B95000F0B500230FF280240FF29C250FF2B826D9
:10B960000FF2D42721FA03FC5FEACC7C20D5DFF864
:10B97000D0E170450CD0DFF8CCE170450BD0DFF89A
:10B98000C8E170450AD0DFF8C4E1704509D00BE08A
:10B9900054F823C00AE055F823C007E056F823C046
:10B9A00004E057F823C001E0DFF8A4C1CCF8002080
:10B9B0005B1C082BD6D3F0BD10B50023DFF8804107
:10B9C000A0420CD0DFF87C41A04224D0DFF87841BF
:10B9D000A04240D0DFF87441A0425CD07AE0022956
:10B9E00008BF012376D0042908BF022372D008299A
:10B9F00008BF03236ED0102908BF04236AD0202972
:10BA000008BF052366D0402908BF062362D08029DD
:10BA100060D107235EE0012908BF08235AD002291C
:10BA200008BF092356D0042908BF0A2352D0082989
:10BA300008BF0B234ED0102908BF0C234AD0202961
:10BA400008BF0D2346D0402908BF0E2342D08029CD
:10BA500040D10F233EE0012908BF10233AD002292C
:10BA600008BF112336D0042908BF122332D0082979
:10BA700008BF13232ED0102908BF14232AD0202951
:10BA800008BF152326D0402908BF162322D08029BD
:10BA900020D117231EE0012908BF18231AD002293C
:10BAA00008BF192316D0042908BF1A2312D0082969
:10BAB00008BF1B230ED0102908BF1C230AD0202941
:10BAC00008BF1D2306D0402908BF1E2302D08029AD
:10BAD00008BF1F23136010BDF0B500230FF27804D8
:10BAE0000FF294050FF2B0060FF2CC0721FA03FC17
:10BAF0005FEACC7C20D5DFF848E070450CD0DFF859
:10BB000044E070450BD0DFF840E070450AD0DFF824
:10BB10003CE0704509D00BE054F823C00AE055F82A
:10BB200023C007E056F823C004E057F823C001E023
:10BB3000DFF820C0CCF800205B1C082BD6D3F0BD6A
:10BB400000900D4000A00D4000B00D4000C00D4021
:10BB500000400D4080400D4080400D4084400D402D
:10BB600088400D408C400D4090400D4094400D4069
:10BB700098400D409C400D40A0400D40A4400D4019
:10BB8000A8400D40AC400D40B0400D40B4400D40C9
:10BB9000B8400D40BC400D40C0400D40C4400D4079
:10BBA000C8400D40CC400D40D0400D40D4400D4029
:10BBB000D8400D40DC400D40E0400D40E4400D40D9
:10BBC000E8400D40EC400D40F0400D40F4400D4089
:10BBD000F8400D40FC400D4000400D4004400D4039
:10BBE00008400D400C400D4010400D4014400D40E9
:10BBF00018400D401C400D4020400D4024400D4099
:10BC000028400D402C400D4030400D4034400D4048
:10BC100038400D403C400D4040400D4044400D40F8
:10BC200048400D404C400D4050400D4054400D40A8
:10BC300058400D405C400D4060400D4064400D4058
:10BC400068400D406C400D4070400D4074400D4008
:10BC500078400D407C400D4070B50B003A4D03D14B
:10BC60002B6843F400132B602C68384B1C4008B938
:10BC700044F08074002914BF4FF48036002634430A
:10BC800022432A604FF6FF74686800F480308642D1
:10BC900018BF002C05D0102000F02AF86868641E38
:10BCA000F3E770BD2A480168002001F00701072969
:10BCB0000DD8DFE801F00405060708090A0B07E0C4
:10BCC00008E009E00AE00BE00CE00DE021487047D5
:10BCD00021487047214870472148704721487047E4
:10BCE00021487047214870472148704700000000F4
:10BCF0000138FDD1704770471E4908200860FEE7F3
:10BD000010B50FF2740103E010B50FF26C010CE0F6
:10BD1000C0F3032251F822200124136800F00F0021
:10BD200004FA00F01843106010BDC0F3032251F86C
:10BD300022200124136800F00F0004FA00F023EA27
:10BD40000000106010BD000000200D40F8FFFEFE56
:10BD500004200D4090D003000048E8010024F400C6
:10BD600000127A0000093D0080841E0040420F004E
:10BD700020A1070074200D4008200D4018200D4020
:10BD800028200D4038200D4048200D40A8200D40AF
:10BD900019E050F8042BD30744BFA9F101039A1806
:10BDA000091F0023042942F8043BF9D25FEA817C91
:10BDB000134604D54FF0000CA2F800C09B1CC90725
:10BDC00044BF0021197050F8041B0029E1D17047CD
:10BDD00030B5016884684218416802EB5103C90715
:10BDE0000BD54C4409E012F9011B12F8015B002944
:10BDF00004F8015B05D5491CF9D19A42F3D10C3006
:10BE000030BD491EF1D5F8E710B50749794418311E
:10BE1000064C7C44163404E00A68081D1144884727
:10BE20000146A142F8D110BD080000002400000026
:10BE300061FFFFFF84020000384000200000000086
:10BE400091FFFFFF5C0000001C000000004000208C
:10BE500000F00BF8002801D0FFF7D6FF0020AFF369
:10BE60000080FFF75EFB00F002F80120704700F051
:10BE700001B800000746384600F002F8FBE7000072
:10BE800080B5AFF30080024A11001820ABBEFBE77B
:10BE900026000200AFF30080AFF30080FFF7D8FF69
:0EBEA000DC000348400020F400031C012000D9
:0CFFD400000000000000000000B027004A
:040000050027BE957D
:00000001FF
